{
  "contractName": "BigMath",
  "abi": [
    {
      "inputs": [],
      "name": "SecondsPerYear",
      "outputs": [
        {
          "internalType": "uint256",
          "name": "",
          "type": "uint256"
        }
      ],
      "stateMutability": "view",
      "type": "function"
    }
  ],
  "bytecode": "0x6092610024600b82828239805160001a607314601757fe5b30600052607381538281f3fe730000000000000000000000000000000000000000301460806040526004361060335760003560e01c8063d205074f146038575b600080fd5b603e6054565b6040518082815260200191505060405180910390f35b6301e1853e8156fea264697066735822122010df57493f8768ba67905509d94e4235e8789f885a61d8b120fcdab5be7a92e364736f6c63430006080033",
  "immutableReferences": {},
  "source": "// SPDX-License-Identifier: MIT\npragma solidity >=0.6.8 <0.7.0;\n\nimport \"./ABDKMath64x64.sol\";\nimport \"./SignedSafeMath.sol\";\nimport \"./SafeMath.sol\";\n\nimport \"../InfoOracle.sol\";\n\nlibrary BigMath {\n  using ABDKMath64x64 for int128;\n  using SignedSafeMath for int256;\n  using SafeMath for uint256;\n\n  uint public constant SecondsPerYear = 31556926;\n\n  /*\n    @Description: rase one ABDK number to the power of another\n      base**exponent\n\n    @param int128 base: the base of the pow operation\n    @param int128 exponent: the exponent of the pow operation\n  */\n  function Pow(int128 base, int128 exponent) internal pure returns (int128) {\n    /*\n      base**exponent ==\n      2**(log_2(base**exponent)) ==\n      2**(exponent * log_2(base))\n    */\n    return base.log_2().mul(exponent).exp_2();\n  }\n\n}\n\n",
  "sourcePath": "/home/asher/FixFinanceV1/contracts/libraries/BigMath.sol",
  "compiler": {
    "name": "solc",
    "version": "0.6.8+commit.0bbfe453.Emscripten.clang"
  },
  "schemaVersion": "3.4.1",
  "updatedAt": "2021-11-26T19:15:56.105Z",
  "devdoc": {
    "methods": {}
  },
  "userdoc": {
    "methods": {}
  }
}