{
  "contractName": "CTokenWrapperData",
  "abi": [
    {
      "inputs": [],
      "name": "owner",
      "outputs": [
        {
          "internalType": "address",
          "name": "",
          "type": "address"
        }
      ],
      "stateMutability": "view",
      "type": "function"
    },
    {
      "inputs": [
        {
          "internalType": "address",
          "name": "newOwner",
          "type": "address"
        }
      ],
      "name": "transferOwnership",
      "outputs": [],
      "stateMutability": "nonpayable",
      "type": "function"
    }
  ],
  "bytecode": "0x60806040526103e8600155620f3e58600260006101000a81548163ffffffff021916908363ffffffff16021790555034801561003a57600080fd5b5033600060016101000a81548173ffffffffffffffffffffffffffffffffffffffff021916908373ffffffffffffffffffffffffffffffffffffffff1602179055506102618061008b6000396000f3fe608060405234801561001057600080fd5b50600436106100365760003560e01c80638da5cb5b1461003b578063f2fde38b14610085575b600080fd5b6100436100c9565b604051808273ffffffffffffffffffffffffffffffffffffffff1673ffffffffffffffffffffffffffffffffffffffff16815260200191505060405180910390f35b6100c76004803603602081101561009b57600080fd5b81019080803573ffffffffffffffffffffffffffffffffffffffff1690602001909291905050506100ef565b005b600060019054906101000a900473ffffffffffffffffffffffffffffffffffffffff1681565b600060019054906101000a900473ffffffffffffffffffffffffffffffffffffffff1673ffffffffffffffffffffffffffffffffffffffff163373ffffffffffffffffffffffffffffffffffffffff16146101b2576040517f08c379a000000000000000000000000000000000000000000000000000000000815260040180806020018281038252600a8152602001807f6f6e6c79206f776e65720000000000000000000000000000000000000000000081525060200191505060405180910390fd5b600073ffffffffffffffffffffffffffffffffffffffff168173ffffffffffffffffffffffffffffffffffffffff16146102285780600060016101000a81548173ffffffffffffffffffffffffffffffffffffffff021916908373ffffffffffffffffffffffffffffffffffffffff1602179055505b5056fea2646970667358221220f43a42d0d8771547dd1a25c4b5cbd700d1933326745bd8791b23bd5e90dc927864736f6c63430006080033",
  "immutableReferences": {},
  "source": "// SPDX-License-Identifier: MIT\npragma solidity >=0.6.8 <0.7.0;\n\nimport \"../../helpers/nonReentrant.sol\";\nimport \"../../helpers/Ownable.sol\";\n\ncontract CTokenWrapperData is nonReentrant, Ownable {\n    bytes32 constant CALLBACK_SUCCESS = keccak256(\"ERC3156FlashBorrower.onFlashLoan\");\n    uint256 internalFlashLoanFee = 1000; // denominated in super bips\n\t//SBPS == super bips == 1/100th of a bip\n\t//100 * 10_000 == 1_000_000\n\tuint32 internal constant totalSBPS = 1_000_000;\n\t//totalSBPS - annualTreasuryFee(in sbps)\n\tuint32 internal SBPSRetained = 999_000;\n\t//minimum amount of interest on each harvest that should be retained for holders\n\t//of this token.\n\t//800_000 sbps == 8_000 bips == 80%\n\t//ex. if 1000 units of interest are generated between harvests then 800 units\n\t//is the minimum amount that must be retained for tokens holders thus the\n\t//maximum amount that may go to the treasury is 200 units\n\tuint32 internal constant minHarvestRetention = 800_000;\n\tuint internal constant ABDK_1 = 1 << 64;\n\taddress internalUnderlyingAssetAddress;\n\t//amount of unit amount equivalent to (1 ether) of wrapped amount at internalLastHarvest\n\tuint internalPrevRatio;\n\tuint8 internalDecimals;\n\taddress internalInfoOracleAddress;\n\t//most recent timestamp at which harvestToTreasury() was called\n\tuint internalLastHarvest;\n\tuint internalTotalSupply;\n\tmapping(address => uint) internalBalanceOf;\n    mapping(address => mapping(address => uint256)) internalAllowance;\n    string internalName;\n    string internalSymbol;\n\n    //-------G-e-n-e-r-a-l-i-z-e-d---L-i-q-u-i-d-i-t-y---M-i-n-i-n-g---R-e-w-a-r-d-s---C-a-p-t-u-r-e---M-e-c-h-a-n-i-s-m--------\n\taddress[] internalRewardsAssets;\n\taddress[] internalImmutableRewardsAssets;\n\tuint[] internalPrevContractBalance;\n\tuint[] internalTotalRewardsPerWasset;\n\tuint[] internalTRPWuponActivation; //total rewards per wasset at the time of the most recent activation\n\tmapping(address => uint)[] internalPrevTotalRewardsPerWasset;\n\n\t//------s-u-b-a-c-c-o-u-n-t---r-e-w-a-r-d-s---m-e-c-h-a-n-i-s-m---------\n\n\tstruct SubAccountPosition {\n\t\tuint yield;\n\t\tint bond;\n\t}\n\tmapping(address => uint)[] internalDistributionAccountRewards;\n\tmapping(address => bool) internalIsDistributionAccount;\n\n\t//FCP direct subaccounts don't have entries in the internalSubAccountPositions mapping, those values are fetched from the FCP\n\t//Distribution Account => Sub Account => FCP => total bond & yield amts\n\tmapping(address => mapping(address => mapping(address => SubAccountPosition))) internalSubAccountPositions;\n\tmapping(address => mapping(address => mapping(address => bool))) internalHasClaimedAllYTrewards;\n\t//SubAccount Prev Total Rewards Per Wasset\n\t//Distribution Account => Sub Account => FCP => PTRPW\n\tmapping(address => mapping(address => mapping(address => uint)))[] internalSAPTRPW;\n}\n",
  "sourcePath": "/home/asher/FixFinanceV1/contracts/Wrappers/CTokenWrapper/CTokenWrapperData.sol",
  "compiler": {
    "name": "solc",
    "version": "0.6.8+commit.0bbfe453.Emscripten.clang"
  },
  "schemaVersion": "3.4.1",
  "updatedAt": "2021-11-26T19:15:55.875Z",
  "devdoc": {
    "methods": {}
  },
  "userdoc": {
    "methods": {}
  }
}