{
  "contractName": "CTokenWrapper",
  "abi": [
    {
      "inputs": [
        {
          "internalType": "address",
          "name": "_underlyingAssetAddress",
          "type": "address"
        },
        {
          "internalType": "address",
          "name": "_infoOralceAddress",
          "type": "address"
        },
        {
          "internalType": "address",
          "name": "_delegate1Address",
          "type": "address"
        },
        {
          "internalType": "address",
          "name": "_delegate2Address",
          "type": "address"
        },
        {
          "internalType": "address",
          "name": "_delegate3Address",
          "type": "address"
        },
        {
          "internalType": "uint32",
          "name": "_SBPSRetained",
          "type": "uint32"
        }
      ],
      "stateMutability": "nonpayable",
      "type": "constructor"
    },
    {
      "anonymous": false,
      "inputs": [
        {
          "indexed": true,
          "internalType": "address",
          "name": "_owner",
          "type": "address"
        },
        {
          "indexed": true,
          "internalType": "address",
          "name": "_spender",
          "type": "address"
        },
        {
          "indexed": false,
          "internalType": "uint256",
          "name": "_value",
          "type": "uint256"
        }
      ],
      "name": "Approval",
      "type": "event"
    },
    {
      "anonymous": false,
      "inputs": [
        {
          "indexed": true,
          "internalType": "address",
          "name": "to",
          "type": "address"
        },
        {
          "indexed": false,
          "internalType": "uint256",
          "name": "wrappedAmount",
          "type": "uint256"
        }
      ],
      "name": "Deposit",
      "type": "event"
    },
    {
      "anonymous": false,
      "inputs": [
        {
          "indexed": true,
          "internalType": "address",
          "name": "from",
          "type": "address"
        },
        {
          "indexed": false,
          "internalType": "uint256",
          "name": "wrappedAmount",
          "type": "uint256"
        },
        {
          "indexed": false,
          "internalType": "uint256",
          "name": "feeAmount",
          "type": "uint256"
        }
      ],
      "name": "FlashBurn",
      "type": "event"
    },
    {
      "anonymous": false,
      "inputs": [
        {
          "indexed": true,
          "internalType": "address",
          "name": "to",
          "type": "address"
        },
        {
          "indexed": false,
          "internalType": "uint256",
          "name": "wrappedAmount",
          "type": "uint256"
        }
      ],
      "name": "FlashMint",
      "type": "event"
    },
    {
      "anonymous": false,
      "inputs": [
        {
          "indexed": true,
          "internalType": "address",
          "name": "_from",
          "type": "address"
        },
        {
          "indexed": true,
          "internalType": "address",
          "name": "_to",
          "type": "address"
        },
        {
          "indexed": false,
          "internalType": "uint256",
          "name": "_value",
          "type": "uint256"
        }
      ],
      "name": "Transfer",
      "type": "event"
    },
    {
      "anonymous": false,
      "inputs": [
        {
          "indexed": true,
          "internalType": "address",
          "name": "from",
          "type": "address"
        },
        {
          "indexed": false,
          "internalType": "uint256",
          "name": "wrappedAmount",
          "type": "uint256"
        }
      ],
      "name": "Withdrawal",
      "type": "event"
    },
    {
      "inputs": [],
      "name": "owner",
      "outputs": [
        {
          "internalType": "address",
          "name": "",
          "type": "address"
        }
      ],
      "stateMutability": "view",
      "type": "function"
    },
    {
      "inputs": [
        {
          "internalType": "address",
          "name": "newOwner",
          "type": "address"
        }
      ],
      "name": "transferOwnership",
      "outputs": [],
      "stateMutability": "nonpayable",
      "type": "function"
    },
    {
      "inputs": [],
      "name": "underlyingIsStatic",
      "outputs": [
        {
          "internalType": "bool",
          "name": "",
          "type": "bool"
        }
      ],
      "stateMutability": "view",
      "type": "function"
    },
    {
      "inputs": [
        {
          "internalType": "address",
          "name": "_to",
          "type": "address"
        },
        {
          "internalType": "uint256",
          "name": "_amount",
          "type": "uint256"
        }
      ],
      "name": "depositUnitAmount",
      "outputs": [
        {
          "internalType": "uint256",
          "name": "_amountWrapped",
          "type": "uint256"
        }
      ],
      "stateMutability": "nonpayable",
      "type": "function"
    },
    {
      "inputs": [
        {
          "internalType": "address",
          "name": "_to",
          "type": "address"
        },
        {
          "internalType": "uint256",
          "name": "_amount",
          "type": "uint256"
        }
      ],
      "name": "depositWrappedAmount",
      "outputs": [
        {
          "internalType": "uint256",
          "name": "_amountUnit",
          "type": "uint256"
        }
      ],
      "stateMutability": "nonpayable",
      "type": "function"
    },
    {
      "inputs": [],
      "name": "lastUpdate",
      "outputs": [
        {
          "internalType": "uint256",
          "name": "",
          "type": "uint256"
        }
      ],
      "stateMutability": "view",
      "type": "function"
    },
    {
      "inputs": [],
      "name": "getStatus",
      "outputs": [
        {
          "internalType": "uint256",
          "name": "updateTimestamp",
          "type": "uint256"
        },
        {
          "internalType": "uint256",
          "name": "ratio",
          "type": "uint256"
        }
      ],
      "stateMutability": "view",
      "type": "function"
    },
    {
      "inputs": [],
      "name": "forceHarvest",
      "outputs": [],
      "stateMutability": "nonpayable",
      "type": "function"
    },
    {
      "inputs": [
        {
          "internalType": "address",
          "name": "_to",
          "type": "address"
        },
        {
          "internalType": "uint256",
          "name": "_amountUnit",
          "type": "uint256"
        },
        {
          "internalType": "bool",
          "name": "_claimRewards",
          "type": "bool"
        }
      ],
      "name": "withdrawUnitAmount",
      "outputs": [
        {
          "internalType": "uint256",
          "name": "_amountWrappedToken",
          "type": "uint256"
        }
      ],
      "stateMutability": "nonpayable",
      "type": "function"
    },
    {
      "inputs": [
        {
          "internalType": "address",
          "name": "_to",
          "type": "address"
        },
        {
          "internalType": "uint256",
          "name": "_amountWrappedToken",
          "type": "uint256"
        },
        {
          "internalType": "bool",
          "name": "_claimRewards",
          "type": "bool"
        }
      ],
      "name": "withdrawWrappedAmount",
      "outputs": [
        {
          "internalType": "uint256",
          "name": "_amountUnit",
          "type": "uint256"
        }
      ],
      "stateMutability": "nonpayable",
      "type": "function"
    },
    {
      "inputs": [
        {
          "internalType": "uint256",
          "name": "_amountUnit",
          "type": "uint256"
        }
      ],
      "name": "UnitAmtToWrappedAmt_RoundDown",
      "outputs": [
        {
          "internalType": "uint256",
          "name": "_amountWrappedToken",
          "type": "uint256"
        }
      ],
      "stateMutability": "view",
      "type": "function"
    },
    {
      "inputs": [
        {
          "internalType": "uint256",
          "name": "_amountUnit",
          "type": "uint256"
        }
      ],
      "name": "UnitAmtToWrappedAmt_RoundUp",
      "outputs": [
        {
          "internalType": "uint256",
          "name": "_amountWrappedToken",
          "type": "uint256"
        }
      ],
      "stateMutability": "view",
      "type": "function"
    },
    {
      "inputs": [
        {
          "internalType": "uint256",
          "name": "_amountWrappedToken",
          "type": "uint256"
        }
      ],
      "name": "WrappedAmtToUnitAmt_RoundDown",
      "outputs": [
        {
          "internalType": "uint256",
          "name": "_amountUnit",
          "type": "uint256"
        }
      ],
      "stateMutability": "view",
      "type": "function"
    },
    {
      "inputs": [
        {
          "internalType": "uint256",
          "name": "_amountWrappedToken",
          "type": "uint256"
        }
      ],
      "name": "WrappedAmtToUnitAmt_RoundUp",
      "outputs": [
        {
          "internalType": "uint256",
          "name": "_amountUnit",
          "type": "uint256"
        }
      ],
      "stateMutability": "view",
      "type": "function"
    },
    {
      "inputs": [
        {
          "internalType": "address",
          "name": "_to",
          "type": "address"
        },
        {
          "internalType": "uint256",
          "name": "_value",
          "type": "uint256"
        }
      ],
      "name": "transfer",
      "outputs": [
        {
          "internalType": "bool",
          "name": "success",
          "type": "bool"
        }
      ],
      "stateMutability": "nonpayable",
      "type": "function"
    },
    {
      "inputs": [
        {
          "internalType": "address",
          "name": "_spender",
          "type": "address"
        },
        {
          "internalType": "uint256",
          "name": "_value",
          "type": "uint256"
        }
      ],
      "name": "approve",
      "outputs": [
        {
          "internalType": "bool",
          "name": "success",
          "type": "bool"
        }
      ],
      "stateMutability": "nonpayable",
      "type": "function"
    },
    {
      "inputs": [
        {
          "internalType": "address",
          "name": "_from",
          "type": "address"
        },
        {
          "internalType": "address",
          "name": "_to",
          "type": "address"
        },
        {
          "internalType": "uint256",
          "name": "_value",
          "type": "uint256"
        }
      ],
      "name": "transferFrom",
      "outputs": [
        {
          "internalType": "bool",
          "name": "success",
          "type": "bool"
        }
      ],
      "stateMutability": "nonpayable",
      "type": "function"
    },
    {
      "inputs": [
        {
          "internalType": "address",
          "name": "token",
          "type": "address"
        }
      ],
      "name": "maxFlashLoan",
      "outputs": [
        {
          "internalType": "uint256",
          "name": "",
          "type": "uint256"
        }
      ],
      "stateMutability": "view",
      "type": "function"
    },
    {
      "inputs": [
        {
          "internalType": "address",
          "name": "token",
          "type": "address"
        },
        {
          "internalType": "uint256",
          "name": "amount",
          "type": "uint256"
        }
      ],
      "name": "flashFee",
      "outputs": [
        {
          "internalType": "uint256",
          "name": "",
          "type": "uint256"
        }
      ],
      "stateMutability": "view",
      "type": "function"
    },
    {
      "inputs": [
        {
          "internalType": "contract IERC3156FlashBorrower",
          "name": "receiver",
          "type": "address"
        },
        {
          "internalType": "address",
          "name": "token",
          "type": "address"
        },
        {
          "internalType": "uint256",
          "name": "amount",
          "type": "uint256"
        },
        {
          "internalType": "bytes",
          "name": "data",
          "type": "bytes"
        }
      ],
      "name": "flashLoan",
      "outputs": [
        {
          "internalType": "bool",
          "name": "",
          "type": "bool"
        }
      ],
      "stateMutability": "nonpayable",
      "type": "function"
    },
    {
      "inputs": [],
      "name": "forceRewardsCollection",
      "outputs": [],
      "stateMutability": "nonpayable",
      "type": "function"
    },
    {
      "inputs": [],
      "name": "registerAsDistributionAccount",
      "outputs": [],
      "stateMutability": "nonpayable",
      "type": "function"
    },
    {
      "inputs": [],
      "name": "delistDistributionAccount",
      "outputs": [],
      "stateMutability": "nonpayable",
      "type": "function"
    },
    {
      "inputs": [
        {
          "internalType": "bool",
          "name": "_claimRewards",
          "type": "bool"
        },
        {
          "internalType": "address",
          "name": "_subAccount",
          "type": "address"
        },
        {
          "internalType": "address",
          "name": "_FCPaddr",
          "type": "address"
        },
        {
          "internalType": "int256",
          "name": "_changeYield",
          "type": "int256"
        },
        {
          "internalType": "int256",
          "name": "_changeBond",
          "type": "int256"
        }
      ],
      "name": "editSubAccountPosition",
      "outputs": [],
      "stateMutability": "nonpayable",
      "type": "function"
    },
    {
      "inputs": [
        {
          "internalType": "bool",
          "name": "_claimRewards",
          "type": "bool"
        },
        {
          "internalType": "address",
          "name": "_distributionAccount",
          "type": "address"
        },
        {
          "internalType": "address",
          "name": "_subAccount",
          "type": "address"
        },
        {
          "internalType": "address",
          "name": "_FCPaddr",
          "type": "address"
        }
      ],
      "name": "forceClaimSubAccountRewards",
      "outputs": [],
      "stateMutability": "nonpayable",
      "type": "function"
    },
    {
      "inputs": [
        {
          "internalType": "bool",
          "name": "_inPayoutPhase",
          "type": "bool"
        },
        {
          "internalType": "bool",
          "name": "_claimRewards",
          "type": "bool"
        },
        {
          "internalType": "address",
          "name": "_subAcct",
          "type": "address"
        },
        {
          "internalType": "uint256",
          "name": "_yield",
          "type": "uint256"
        },
        {
          "internalType": "uint256",
          "name": "_wrappedClaim",
          "type": "uint256"
        }
      ],
      "name": "FCPDirectClaimSubAccountRewards",
      "outputs": [],
      "stateMutability": "nonpayable",
      "type": "function"
    },
    {
      "inputs": [
        {
          "internalType": "bool",
          "name": "_inPayoutPhase",
          "type": "bool"
        },
        {
          "internalType": "bool",
          "name": "_claimRewards",
          "type": "bool"
        },
        {
          "internalType": "address[2]",
          "name": "_subAccts",
          "type": "address[2]"
        },
        {
          "internalType": "uint256[2]",
          "name": "_yieldArr",
          "type": "uint256[2]"
        },
        {
          "internalType": "uint256[2]",
          "name": "_wrappedClaims",
          "type": "uint256[2]"
        }
      ],
      "name": "FCPDirectDoubleClaimSubAccountRewards",
      "outputs": [],
      "stateMutability": "nonpayable",
      "type": "function"
    },
    {
      "inputs": [],
      "name": "flashLoanFee",
      "outputs": [
        {
          "internalType": "uint256",
          "name": "",
          "type": "uint256"
        }
      ],
      "stateMutability": "view",
      "type": "function"
    },
    {
      "inputs": [],
      "name": "prevRatio",
      "outputs": [
        {
          "internalType": "uint256",
          "name": "",
          "type": "uint256"
        }
      ],
      "stateMutability": "view",
      "type": "function"
    },
    {
      "inputs": [],
      "name": "lastHarvest",
      "outputs": [
        {
          "internalType": "uint256",
          "name": "",
          "type": "uint256"
        }
      ],
      "stateMutability": "view",
      "type": "function"
    },
    {
      "inputs": [],
      "name": "underlyingAssetAddress",
      "outputs": [
        {
          "internalType": "address",
          "name": "",
          "type": "address"
        }
      ],
      "stateMutability": "view",
      "type": "function"
    },
    {
      "inputs": [],
      "name": "infoOracleAddress",
      "outputs": [
        {
          "internalType": "address",
          "name": "",
          "type": "address"
        }
      ],
      "stateMutability": "view",
      "type": "function"
    },
    {
      "inputs": [],
      "name": "totalSupply",
      "outputs": [
        {
          "internalType": "uint256",
          "name": "supply",
          "type": "uint256"
        }
      ],
      "stateMutability": "view",
      "type": "function"
    },
    {
      "inputs": [
        {
          "internalType": "address",
          "name": "_owner",
          "type": "address"
        }
      ],
      "name": "balanceOf",
      "outputs": [
        {
          "internalType": "uint256",
          "name": "balance",
          "type": "uint256"
        }
      ],
      "stateMutability": "view",
      "type": "function"
    },
    {
      "inputs": [
        {
          "internalType": "address",
          "name": "_owner",
          "type": "address"
        },
        {
          "internalType": "address",
          "name": "_spender",
          "type": "address"
        }
      ],
      "name": "allowance",
      "outputs": [
        {
          "internalType": "uint256",
          "name": "remaining",
          "type": "uint256"
        }
      ],
      "stateMutability": "view",
      "type": "function"
    },
    {
      "inputs": [],
      "name": "decimals",
      "outputs": [
        {
          "internalType": "uint8",
          "name": "digits",
          "type": "uint8"
        }
      ],
      "stateMutability": "view",
      "type": "function"
    },
    {
      "inputs": [],
      "name": "name",
      "outputs": [
        {
          "internalType": "string",
          "name": "_name",
          "type": "string"
        }
      ],
      "stateMutability": "view",
      "type": "function"
    },
    {
      "inputs": [],
      "name": "symbol",
      "outputs": [
        {
          "internalType": "string",
          "name": "_symbol",
          "type": "string"
        }
      ],
      "stateMutability": "view",
      "type": "function"
    },
    {
      "inputs": [
        {
          "internalType": "uint256",
          "name": "_index",
          "type": "uint256"
        }
      ],
      "name": "rewardsAssets",
      "outputs": [
        {
          "internalType": "address",
          "name": "",
          "type": "address"
        }
      ],
      "stateMutability": "view",
      "type": "function"
    },
    {
      "inputs": [
        {
          "internalType": "uint256",
          "name": "_index",
          "type": "uint256"
        }
      ],
      "name": "immutableRewardsAssets",
      "outputs": [
        {
          "internalType": "address",
          "name": "",
          "type": "address"
        }
      ],
      "stateMutability": "view",
      "type": "function"
    },
    {
      "inputs": [
        {
          "internalType": "uint256",
          "name": "_index",
          "type": "uint256"
        }
      ],
      "name": "prevContractBalance",
      "outputs": [
        {
          "internalType": "uint256",
          "name": "",
          "type": "uint256"
        }
      ],
      "stateMutability": "view",
      "type": "function"
    },
    {
      "inputs": [
        {
          "internalType": "uint256",
          "name": "_index",
          "type": "uint256"
        }
      ],
      "name": "totalRewardsPerWasset",
      "outputs": [
        {
          "internalType": "uint256",
          "name": "",
          "type": "uint256"
        }
      ],
      "stateMutability": "view",
      "type": "function"
    },
    {
      "inputs": [
        {
          "internalType": "uint256",
          "name": "_index",
          "type": "uint256"
        }
      ],
      "name": "totalRewardsPerWassetUponActivation",
      "outputs": [
        {
          "internalType": "uint256",
          "name": "",
          "type": "uint256"
        }
      ],
      "stateMutability": "view",
      "type": "function"
    },
    {
      "inputs": [
        {
          "internalType": "uint256",
          "name": "_index",
          "type": "uint256"
        },
        {
          "internalType": "address",
          "name": "_wassetHolder",
          "type": "address"
        }
      ],
      "name": "prevTotalRewardsPerWasset",
      "outputs": [
        {
          "internalType": "uint256",
          "name": "",
          "type": "uint256"
        }
      ],
      "stateMutability": "view",
      "type": "function"
    },
    {
      "inputs": [],
      "name": "numRewardsAssets",
      "outputs": [
        {
          "internalType": "uint256",
          "name": "",
          "type": "uint256"
        }
      ],
      "stateMutability": "view",
      "type": "function"
    },
    {
      "inputs": [
        {
          "internalType": "address",
          "name": "_addr",
          "type": "address"
        }
      ],
      "name": "isDistributionAccount",
      "outputs": [
        {
          "internalType": "bool",
          "name": "",
          "type": "bool"
        }
      ],
      "stateMutability": "view",
      "type": "function"
    },
    {
      "inputs": [
        {
          "internalType": "uint256",
          "name": "_index",
          "type": "uint256"
        },
        {
          "internalType": "address",
          "name": "_distributionAccount",
          "type": "address"
        }
      ],
      "name": "distributionAccountRewards",
      "outputs": [
        {
          "internalType": "uint256",
          "name": "",
          "type": "uint256"
        }
      ],
      "stateMutability": "view",
      "type": "function"
    },
    {
      "inputs": [
        {
          "internalType": "address",
          "name": "_distributionAccount",
          "type": "address"
        },
        {
          "internalType": "address",
          "name": "_subAccount",
          "type": "address"
        },
        {
          "internalType": "address",
          "name": "_FCPaddr",
          "type": "address"
        }
      ],
      "name": "hasClaimedAllYTRewards",
      "outputs": [
        {
          "internalType": "bool",
          "name": "",
          "type": "bool"
        }
      ],
      "stateMutability": "view",
      "type": "function"
    },
    {
      "inputs": [
        {
          "internalType": "uint256",
          "name": "_index",
          "type": "uint256"
        },
        {
          "internalType": "address",
          "name": "_distributionAccount",
          "type": "address"
        },
        {
          "internalType": "address",
          "name": "_subAccount",
          "type": "address"
        },
        {
          "internalType": "address",
          "name": "_FCPaddr",
          "type": "address"
        }
      ],
      "name": "subAccountPrevTotalReturnsPerWasset",
      "outputs": [
        {
          "internalType": "uint256",
          "name": "",
          "type": "uint256"
        }
      ],
      "stateMutability": "view",
      "type": "function"
    },
    {
      "inputs": [
        {
          "internalType": "address",
          "name": "_distributionAccount",
          "type": "address"
        },
        {
          "internalType": "address",
          "name": "_subAccount",
          "type": "address"
        },
        {
          "internalType": "address",
          "name": "_FCPaddr",
          "type": "address"
        }
      ],
      "name": "subAccountPositions",
      "outputs": [
        {
          "internalType": "uint256",
          "name": "yield",
          "type": "uint256"
        },
        {
          "internalType": "int256",
          "name": "bond",
          "type": "int256"
        }
      ],
      "stateMutability": "view",
      "type": "function"
    },
    {
      "inputs": [
        {
          "internalType": "uint32",
          "name": "_SBPSRetained",
          "type": "uint32"
        }
      ],
      "name": "setInterestFee",
      "outputs": [],
      "stateMutability": "nonpayable",
      "type": "function"
    },
    {
      "inputs": [
        {
          "internalType": "uint256",
          "name": "_flashLoanFee",
          "type": "uint256"
        }
      ],
      "name": "setFlashLoanFee",
      "outputs": [],
      "stateMutability": "nonpayable",
      "type": "function"
    },
    {
      "inputs": [
        {
          "internalType": "address",
          "name": "_rewardsAsset",
          "type": "address"
        }
      ],
      "name": "addRewardAsset",
      "outputs": [],
      "stateMutability": "nonpayable",
      "type": "function"
    },
    {
      "inputs": [
        {
          "internalType": "uint256",
          "name": "_index",
          "type": "uint256"
        }
      ],
      "name": "deactivateRewardAsset",
      "outputs": [],
      "stateMutability": "nonpayable",
      "type": "function"
    },
    {
      "inputs": [
        {
          "internalType": "uint256",
          "name": "_index",
          "type": "uint256"
        }
      ],
      "name": "reactivateRewardAsset",
      "outputs": [],
      "stateMutability": "nonpayable",
      "type": "function"
    },
    {
      "inputs": [
        {
          "internalType": "address",
          "name": "_assetAddr",
          "type": "address"
        }
      ],
      "name": "harvestNonListedRewardAsset",
      "outputs": [],
      "stateMutability": "nonpayable",
      "type": "function"
    }
  ],
  "bytecode": "0x60806040526103e8600155620f3e58600260006101000a81548163ffffffff021916908363ffffffff1602179055503480156200003b57600080fd5b506040516200582e3803806200582e833981810160405260c08110156200006157600080fd5b8101908080519060200190929190805190602001909291908051906020019092919080519060200190929190805190602001909291908051906020019092919050505033600060016101000a81548173ffffffffffffffffffffffffffffffffffffffff021916908373ffffffffffffffffffffffffffffffffffffffff16021790555060008163ffffffff161180156200010b5750620f424063ffffffff168163ffffffff1611155b6200011557600080fd5b85600260046101000a81548173ffffffffffffffffffffffffffffffffffffffff021916908373ffffffffffffffffffffffffffffffffffffffff1602179055508573ffffffffffffffffffffffffffffffffffffffff1663313ce5676040518163ffffffff1660e01b815260040160206040518083038186803b1580156200019d57600080fd5b505afa158015620001b2573d6000803e3d6000fd5b505050506040513d6020811015620001c957600080fd5b8101908080519060200190929190505050600460006101000a81548160ff021916908360ff1602179055508573ffffffffffffffffffffffffffffffffffffffff166306fdde036040518163ffffffff1660e01b815260040160006040518083038186803b1580156200023b57600080fd5b505afa15801562000250573d6000803e3d6000fd5b505050506040513d6000823e3d601f19601f8201168201806040525060208110156200027b57600080fd5b81019080805160405193929190846401000000008211156200029c57600080fd5b83820191506020820185811115620002b357600080fd5b8251866001820283011164010000000082111715620002d157600080fd5b8083526020830192505050908051906020019080838360005b8381101562000307578082015181840152602081019050620002ea565b50505050905090810190601f168015620003355780820380516001836020036101000a031916815260200191505b5060405250505060405160200180807f777261707065642000000000000000000000000000000000000000000000000081525060080182805190602001908083835b602083106200039c578051825260208201915060208101905060208303925062000377565b6001836020036101000a03801982511681845116808217855250505050505090500191505060405160208183030381529060405260099080519060200190620003e79291906200070d565b508573ffffffffffffffffffffffffffffffffffffffff166395d89b416040518163ffffffff1660e01b815260040160006040518083038186803b1580156200042f57600080fd5b505afa15801562000444573d6000803e3d6000fd5b505050506040513d6000823e3d601f19601f8201168201806040525060208110156200046f57600080fd5b81019080805160405193929190846401000000008211156200049057600080fd5b83820191506020820185811115620004a757600080fd5b8251866001820283011164010000000082111715620004c557600080fd5b8083526020830192505050908051906020019080838360005b83811015620004fb578082015181840152602081019050620004de565b50505050905090810190601f168015620005295780820380516001836020036101000a031916815260200191505b5060405250505060405160200180807f770000000000000000000000000000000000000000000000000000000000000081525060010182805190602001908083835b602083106200059057805182526020820191506020810190506020830392506200056b565b6001836020036101000a038019825116818451168082178552505050505050905001915050604051602081830303815290604052600a9080519060200190620005db9291906200070d565b5084600460016101000a81548173ffffffffffffffffffffffffffffffffffffffff021916908373ffffffffffffffffffffffffffffffffffffffff16021790555083601660006101000a81548173ffffffffffffffffffffffffffffffffffffffff021916908373ffffffffffffffffffffffffffffffffffffffff16021790555082601760006101000a81548173ffffffffffffffffffffffffffffffffffffffff021916908373ffffffffffffffffffffffffffffffffffffffff16021790555081601860006101000a81548173ffffffffffffffffffffffffffffffffffffffff021916908373ffffffffffffffffffffffffffffffffffffffff16021790555080600260006101000a81548163ffffffff021916908363ffffffff160217905550505050505050620007bc565b828054600181600116156101000203166002900490600052602060002090601f016020900481019282601f106200075057805160ff191683800117855562000781565b8280016001018555821562000781579182015b828111156200078057825182559160200191906001019062000763565b5b50905062000790919062000794565b5090565b620007b991905b80821115620007b55760008160009055506001016200079b565b5090565b90565b61506280620007cc6000396000f3fe608060405234801561001057600080fd5b50600436106103775760003560e01c80636e23af2f116101d3578063c72bdfe711610104578063dd62ed3e116100a2578063f16866f31161007c578063f16866f314611460578063f1a392da146114a2578063f2fde38b146114c0578063ffb627d91461150457610377565b8063dd62ed3e1461135f578063e77668df146113d7578063e92d0d5d1461143257610377565b8063d319e75e116100de578063d319e75e14611287578063d9d98ce414611291578063db0c15f1146112f3578063dd2822631461135557610377565b8063c72bdfe71461119f578063cc48974f14611201578063d048f92f1461124357610377565b806389d1a0fc1161017157806395d89b411161014b57806395d89b4114611056578063a9059cbb146110d9578063c04637111461113f578063c6880e131461115d57610377565b806389d1a0fc14610f545780638ac5ac3d14610f9e5780638da5cb5b1461100c57610377565b806376022285116101ad5780637602228514610e865780637769269314610ea45780637c9dd78914610eae57806388c4ea7c14610f3257610377565b80636e23af2f14610d9057806370a0823114610dd257806374a75d9f14610e2a57610377565b80633605e0c7116102ad5780635128c0931161024b578063613255ab11610225578063613255ab14610c09578063645b00bd14610c6157806366fd0dfa14610c8f57806369402cc214610cf157610377565b80635128c09314610acc5780635cffe9de14610afa57806360a1b2d714610bd557610377565b80634847cdc8116102875780634847cdc81461098b5780634c7b57f0146109a95780634e69d56014610a175780635102e3e114610a3c57610377565b80633605e0c71461081157806336e5c5ad1461087f5780633e5b48ae1461091b57610377565b80631ecd2d911161031a5780632e3f4eab116102f45780632e3f4eab146106d95780632f5084661461071d578063302f17561461077f578063313ce567146107ed57610377565b80631ecd2d91146105f35780631f92c2ec1461061157806323b872dd1461065357610377565b8063095ea7b311610356578063095ea7b3146104e3578063108a91a21461054957806317d030b81461058b57806318160ddd146105d557610377565b806248e1cd1461037c5780630247c79c1461041e57806306fdde0314610460575b600080fd5b6104086004803603608081101561039257600080fd5b8101908080359060200190929190803573ffffffffffffffffffffffffffffffffffffffff169060200190929190803573ffffffffffffffffffffffffffffffffffffffff169060200190929190803573ffffffffffffffffffffffffffffffffffffffff16906020019092919050505061150e565b6040518082815260200191505060405180910390f35b61044a6004803603602081101561043457600080fd5b81019080803590602001909291905050506115e9565b6040518082815260200191505060405180910390f35b610468611622565b6040518080602001828103825283818151815260200191508051906020019080838360005b838110156104a857808201518184015260208101905061048d565b50505050905090810190601f1680156104d55780820380516001836020036101000a031916815260200191505b509250505060405180910390f35b61052f600480360360408110156104f957600080fd5b81019080803573ffffffffffffffffffffffffffffffffffffffff169060200190929190803590602001909291905050506116c4565b604051808215151515815260200191505060405180910390f35b6105756004803603602081101561055f57600080fd5b81019080803590602001909291905050506117b6565b6040518082815260200191505060405180910390f35b610593611811565b604051808273ffffffffffffffffffffffffffffffffffffffff1673ffffffffffffffffffffffffffffffffffffffff16815260200191505060405180910390f35b6105dd61183b565b6040518082815260200191505060405180910390f35b6105fb611845565b6040518082815260200191505060405180910390f35b61063d6004803603602081101561062757600080fd5b810190808035906020019092919050505061184f565b6040518082815260200191505060405180910390f35b6106bf6004803603606081101561066957600080fd5b81019080803573ffffffffffffffffffffffffffffffffffffffff169060200190929190803573ffffffffffffffffffffffffffffffffffffffff16906020019092919080359060200190929190505050611870565b604051808215151515815260200191505060405180910390f35b61071b600480360360208110156106ef57600080fd5b81019080803573ffffffffffffffffffffffffffffffffffffffff169060200190929190505050611ab5565b005b6107696004803603604081101561073357600080fd5b81019080803573ffffffffffffffffffffffffffffffffffffffff16906020019092919080359060200190929190505050611c54565b6040518082815260200191505060405180910390f35b6107d76004803603606081101561079557600080fd5b81019080803573ffffffffffffffffffffffffffffffffffffffff16906020019092919080359060200190929190803515159060200190929190505050611db7565b6040518082815260200191505060405180910390f35b6107f5611f27565b604051808260ff1660ff16815260200191505060405180910390f35b61083d6004803603602081101561082757600080fd5b8101908080359060200190929190505050611f3e565b604051808273ffffffffffffffffffffffffffffffffffffffff1673ffffffffffffffffffffffffffffffffffffffff16815260200191505060405180910390f35b6109016004803603606081101561089557600080fd5b81019080803573ffffffffffffffffffffffffffffffffffffffff169060200190929190803573ffffffffffffffffffffffffffffffffffffffff169060200190929190803573ffffffffffffffffffffffffffffffffffffffff169060200190929190505050611f7f565b604051808215151515815260200191505060405180910390f35b610989600480360360a081101561093157600080fd5b81019080803515159060200190929190803515159060200190929190803573ffffffffffffffffffffffffffffffffffffffff1690602001909291908035906020019092919080359060200190929190505050612051565b005b61099361221c565b6040518082815260200191505060405180910390f35b610a01600480360360608110156109bf57600080fd5b81019080803573ffffffffffffffffffffffffffffffffffffffff16906020019092919080359060200190929190803515159060200190929190505050612226565b6040518082815260200191505060405180910390f35b610a1f612396565b604051808381526020018281526020019250505060405180910390f35b610aca60048036036080811015610a5257600080fd5b81019080803515159060200190929190803573ffffffffffffffffffffffffffffffffffffffff169060200190929190803573ffffffffffffffffffffffffffffffffffffffff169060200190929190803573ffffffffffffffffffffffffffffffffffffffff1690602001909291905050506123aa565b005b610af860048036036020811015610ae257600080fd5b81019080803590602001909291905050506125c0565b005b610bbb60048036036080811015610b1057600080fd5b81019080803573ffffffffffffffffffffffffffffffffffffffff169060200190929190803573ffffffffffffffffffffffffffffffffffffffff1690602001909291908035906020019092919080359060200190640100000000811115610b7757600080fd5b820183602082011115610b8957600080fd5b80359060200191846001830284011164010000000083111715610bab57600080fd5b909192939192939050505061275d565b604051808215151515815260200191505060405180910390f35b610c0760048036036020811015610beb57600080fd5b81019080803563ffffffff1690602001909291905050506129c7565b005b610c4b60048036036020811015610c1f57600080fd5b81019080803573ffffffffffffffffffffffffffffffffffffffff169060200190929190505050612adc565b6040518082815260200191505060405180910390f35b610c8d60048036036020811015610c7757600080fd5b8101908080359060200190929190505050612b77565b005b610cdb60048036036040811015610ca557600080fd5b8101908080359060200190929190803573ffffffffffffffffffffffffffffffffffffffff169060200190929190505050612cea565b6040518082815260200191505060405180910390f35b610d7360048036036060811015610d0757600080fd5b81019080803573ffffffffffffffffffffffffffffffffffffffff169060200190929190803573ffffffffffffffffffffffffffffffffffffffff169060200190929190803573ffffffffffffffffffffffffffffffffffffffff169060200190929190505050612d49565b604051808381526020018281526020019250505060405180910390f35b610dbc60048036036020811015610da657600080fd5b81019080803590602001909291905050506130ab565b6040518082815260200191505060405180910390f35b610e1460048036036020811015610de857600080fd5b81019080803573ffffffffffffffffffffffffffffffffffffffff16906020019092919050505061310e565b6040518082815260200191505060405180910390f35b610e6c60048036036020811015610e4057600080fd5b81019080803573ffffffffffffffffffffffffffffffffffffffff169060200190929190505050613157565b604051808215151515815260200191505060405180910390f35b610e8e6131ad565b6040518082815260200191505060405180910390f35b610eac6131ba565b005b610f30600480360360a0811015610ec457600080fd5b81019080803515159060200190929190803573ffffffffffffffffffffffffffffffffffffffff169060200190929190803573ffffffffffffffffffffffffffffffffffffffff1690602001909291908035906020019092919080359060200190929190505050613321565b005b610f3a613514565b604051808215151515815260200191505060405180910390f35b610f5c613519565b604051808273ffffffffffffffffffffffffffffffffffffffff1673ffffffffffffffffffffffffffffffffffffffff16815260200191505060405180910390f35b610fca60048036036020811015610fb457600080fd5b8101908080359060200190929190505050613543565b604051808273ffffffffffffffffffffffffffffffffffffffff1673ffffffffffffffffffffffffffffffffffffffff16815260200191505060405180910390f35b611014613584565b604051808273ffffffffffffffffffffffffffffffffffffffff1673ffffffffffffffffffffffffffffffffffffffff16815260200191505060405180910390f35b61105e6135aa565b6040518080602001828103825283818151815260200191508051906020019080838360005b8381101561109e578082015181840152602081019050611083565b50505050905090810190601f1680156110cb5780820380516001836020036101000a031916815260200191505b509250505060405180910390f35b611125600480360360408110156110ef57600080fd5b81019080803573ffffffffffffffffffffffffffffffffffffffff1690602001909291908035906020019092919050505061364c565b604051808215151515815260200191505060405180910390f35b61114761385c565b6040518082815260200191505060405180910390f35b6111896004803603602081101561117357600080fd5b8101908080359060200190929190505050613864565b6040518082815260200191505060405180910390f35b6111eb600480360360408110156111b557600080fd5b8101908080359060200190929190803573ffffffffffffffffffffffffffffffffffffffff169060200190929190505050613885565b6040518082815260200191505060405180910390f35b61122d6004803603602081101561121757600080fd5b81019080803590602001909291905050506138e4565b6040518082815260200191505060405180910390f35b6112856004803603602081101561125957600080fd5b81019080803573ffffffffffffffffffffffffffffffffffffffff169060200190929190505050613905565b005b61128f613cec565b005b6112dd600480360360408110156112a757600080fd5b81019080803573ffffffffffffffffffffffffffffffffffffffff16906020019092919080359060200190929190505050613e95565b6040518082815260200191505060405180910390f35b61133f6004803603604081101561130957600080fd5b81019080803573ffffffffffffffffffffffffffffffffffffffff16906020019092919080359060200190929190505050613efe565b6040518082815260200191505060405180910390f35b61135d614061565b005b6113c16004803603604081101561137557600080fd5b81019080803573ffffffffffffffffffffffffffffffffffffffff169060200190929190803573ffffffffffffffffffffffffffffffffffffffff1690602001909291905050506140bb565b6040518082815260200191505060405180910390f35b61143060048036036101008110156113ee57600080fd5b81019080803515159060200190929190803515159060200190929190806040019091929192908060400190919291929080604001909192919290505050614142565b005b61145e6004803603602081101561144857600080fd5b8101908080359060200190929190505050614332565b005b61148c6004803603602081101561147657600080fd5b81019080803590602001909291905050506143ff565b6040518082815260200191505060405180910390f35b6114aa614441565b6040518082815260200191505060405180910390f35b611502600480360360208110156114d657600080fd5b81019080803573ffffffffffffffffffffffffffffffffffffffff16906020019092919050505061444b565b005b61150c614587565b005b60006015858154811061151d57fe5b9060005260206000200160008573ffffffffffffffffffffffffffffffffffffffff1673ffffffffffffffffffffffffffffffffffffffff16815260200190815260200160002060008473ffffffffffffffffffffffffffffffffffffffff1673ffffffffffffffffffffffffffffffffffffffff16815260200190815260200160002060008373ffffffffffffffffffffffffffffffffffffffff1673ffffffffffffffffffffffffffffffffffffffff168152602001908152602001600020549050949350505050565b6000806115f4614591565b9050670de0b6b3a764000061161282856147d590919063ffffffff16565b8161161957fe5b04915050919050565b606060098054600181600116156101000203166002900480601f0160208091040260200160405190810160405280929190818152602001828054600181600116156101000203166002900480156116ba5780601f1061168f576101008083540402835291602001916116ba565b820191906000526020600020905b81548152906001019060200180831161169d57829003601f168201915b5050505050905090565b600081600860003373ffffffffffffffffffffffffffffffffffffffff1673ffffffffffffffffffffffffffffffffffffffff16815260200190815260200160002060008573ffffffffffffffffffffffffffffffffffffffff1673ffffffffffffffffffffffffffffffffffffffff168152602001908152602001600020819055508273ffffffffffffffffffffffffffffffffffffffff163373ffffffffffffffffffffffffffffffffffffffff167f8c5be1e5ebec7d5bd14f71427d1e84f3dd0314c0f7b2291e5b200ac8c7c3b925846040518082815260200191505060405180910390a36001905092915050565b6000806117c1614591565b90506117de670de0b6b3a7640000846147d590919063ffffffff16565b915060008183816117eb57fe5b06146117f85760016117fb565b60005b60ff1681838161180757fe5b0401915050919050565b6000600460019054906101000a900473ffffffffffffffffffffffffffffffffffffffff16905090565b6000600654905090565b6000600354905090565b6000600e828154811061185e57fe5b90600052602060002001549050919050565b6000601860009054906101000a900473ffffffffffffffffffffffffffffffffffffffff1673ffffffffffffffffffffffffffffffffffffffff16848484604051602401808473ffffffffffffffffffffffffffffffffffffffff1673ffffffffffffffffffffffffffffffffffffffff1681526020018373ffffffffffffffffffffffffffffffffffffffff1673ffffffffffffffffffffffffffffffffffffffff16815260200182815260200193505050506040516020818303038152906040527f23b872dd000000000000000000000000000000000000000000000000000000007bffffffffffffffffffffffffffffffffffffffffffffffffffffffff19166020820180517bffffffffffffffffffffffffffffffffffffffffffffffffffffffff83818316178352505050506040518082805190602001908083835b602083106119d457805182526020820191506020810190506020830392506119b1565b6001836020036101000a038019825116818451168082178552505050505050905001915050600060405180830381855af49150503d8060008114611a34576040519150601f19603f3d011682016040523d82523d6000602084013e611a39565b606091505b50508091505080611a4957600080fd5b8273ffffffffffffffffffffffffffffffffffffffff168473ffffffffffffffffffffffffffffffffffffffff167fddf252ad1be2c89b69c2b068fc378daa952ba7f163c4a11628f55a4df523b3ef846040518082815260200191505060405180910390a39392505050565b6000601860009054906101000a900473ffffffffffffffffffffffffffffffffffffffff1673ffffffffffffffffffffffffffffffffffffffff1682604051602401808273ffffffffffffffffffffffffffffffffffffffff1673ffffffffffffffffffffffffffffffffffffffff1681526020019150506040516020818303038152906040527f2e3f4eab000000000000000000000000000000000000000000000000000000007bffffffffffffffffffffffffffffffffffffffffffffffffffffffff19166020820180517bffffffffffffffffffffffffffffffffffffffffffffffffffffffff83818316178352505050506040518082805190602001908083835b60208310611bdd5780518252602082019150602081019050602083039250611bba565b6001836020036101000a038019825116818451168082178552505050505050905001915050600060405180830381855af49150503d8060008114611c3d576040519150601f19603f3d011682016040523d82523d6000602084013e611c42565b606091505b5050905080611c5057600080fd5b5050565b600080601660009054906101000a900473ffffffffffffffffffffffffffffffffffffffff16905060608484604051602401808373ffffffffffffffffffffffffffffffffffffffff1673ffffffffffffffffffffffffffffffffffffffff168152602001828152602001925050506040516020818303038152906040527f2f508466000000000000000000000000000000000000000000000000000000007bffffffffffffffffffffffffffffffffffffffffffffffffffffffff19166020820180517bffffffffffffffffffffffffffffffffffffffffffffffffffffffff83818316178352505050509050604051602081835160208501865af480611d5b57600080fd5b8151945050508473ffffffffffffffffffffffffffffffffffffffff167fe1fffcc4923d04b559f4d29a8bfc6cda04eb5b0d3c460751c2402c5c5cc9109c846040518082815260200191505060405180910390a2505092915050565b600080601660009054906101000a900473ffffffffffffffffffffffffffffffffffffffff1690506060858585604051602401808473ffffffffffffffffffffffffffffffffffffffff1673ffffffffffffffffffffffffffffffffffffffff1681526020018381526020018215151515815260200193505050506040516020818303038152906040527f302f1756000000000000000000000000000000000000000000000000000000007bffffffffffffffffffffffffffffffffffffffffffffffffffffffff19166020820180517bffffffffffffffffffffffffffffffffffffffffffffffffffffffff83818316178352505050509050604051602081835160208501865af480611eca57600080fd5b8151945050508573ffffffffffffffffffffffffffffffffffffffff167f7fcf532c15f0a6db0bd6d0e038bea71d30d808c7d98cb3bf7268a95bf5081b65866040518082815260200191505060405180910390a250509392505050565b6000600460009054906101000a900460ff16905090565b6000600c8281548110611f4d57fe5b9060005260206000200160009054906101000a900473ffffffffffffffffffffffffffffffffffffffff169050919050565b6000601460008573ffffffffffffffffffffffffffffffffffffffff1673ffffffffffffffffffffffffffffffffffffffff16815260200190815260200160002060008473ffffffffffffffffffffffffffffffffffffffff1673ffffffffffffffffffffffffffffffffffffffff16815260200190815260200160002060008373ffffffffffffffffffffffffffffffffffffffff1673ffffffffffffffffffffffffffffffffffffffff16815260200190815260200160002060009054906101000a900460ff1690509392505050565b6000601760009054906101000a900473ffffffffffffffffffffffffffffffffffffffff1673ffffffffffffffffffffffffffffffffffffffff1686868686866040516024018086151515158152602001851515151581526020018473ffffffffffffffffffffffffffffffffffffffff1673ffffffffffffffffffffffffffffffffffffffff168152602001838152602001828152602001955050505050506040516020818303038152906040527f3e5b48ae000000000000000000000000000000000000000000000000000000007bffffffffffffffffffffffffffffffffffffffffffffffffffffffff19166020820180517bffffffffffffffffffffffffffffffffffffffffffffffffffffffff83818316178352505050506040518082805190602001908083835b602083106121a1578051825260208201915060208101905060208303925061217e565b6001836020036101000a038019825116818451168082178552505050505050905001915050600060405180830381855af49150503d8060008114612201576040519150601f19603f3d011682016040523d82523d6000602084013e612206565b606091505b505090508061221457600080fd5b505050505050565b6000600154905090565b600080601660009054906101000a900473ffffffffffffffffffffffffffffffffffffffff1690506060858585604051602401808473ffffffffffffffffffffffffffffffffffffffff1673ffffffffffffffffffffffffffffffffffffffff1681526020018381526020018215151515815260200193505050506040516020818303038152906040527f4c7b57f0000000000000000000000000000000000000000000000000000000007bffffffffffffffffffffffffffffffffffffffffffffffffffffffff19166020820180517bffffffffffffffffffffffffffffffffffffffffffffffffffffffff83818316178352505050509050604051602081835160208501865af48061233957600080fd5b8151945050503373ffffffffffffffffffffffffffffffffffffffff167f7fcf532c15f0a6db0bd6d0e038bea71d30d808c7d98cb3bf7268a95bf5081b65846040518082815260200191505060405180910390a250509392505050565b600080426123a2614591565b915091509091565b6000601760009054906101000a900473ffffffffffffffffffffffffffffffffffffffff1673ffffffffffffffffffffffffffffffffffffffff168585858560405160240180851515151581526020018473ffffffffffffffffffffffffffffffffffffffff1673ffffffffffffffffffffffffffffffffffffffff1681526020018373ffffffffffffffffffffffffffffffffffffffff1673ffffffffffffffffffffffffffffffffffffffff1681526020018273ffffffffffffffffffffffffffffffffffffffff1673ffffffffffffffffffffffffffffffffffffffff1681526020019450505050506040516020818303038152906040527f5102e3e1000000000000000000000000000000000000000000000000000000007bffffffffffffffffffffffffffffffffffffffffffffffffffffffff19166020820180517bffffffffffffffffffffffffffffffffffffffffffffffffffffffff83818316178352505050506040518082805190602001908083835b602083106125465780518252602082019150602081019050602083039250612523565b6001836020036101000a038019825116818451168082178552505050505050905001915050600060405180830381855af49150503d80600081146125a6576040519150601f19603f3d011682016040523d82523d6000602084013e6125ab565b606091505b50509050806125b957600080fd5b5050505050565b600060019054906101000a900473ffffffffffffffffffffffffffffffffffffffff1673ffffffffffffffffffffffffffffffffffffffff163373ffffffffffffffffffffffffffffffffffffffff1614612683576040517f08c379a000000000000000000000000000000000000000000000000000000000815260040180806020018281038252600a8152602001807f6f6e6c79206f776e65720000000000000000000000000000000000000000000081525060200191505060405180910390fd5b6000600b80549050905080821061269957600080fd5b600c82815481106126a657fe5b9060005260206000200160009054906101000a900473ffffffffffffffffffffffffffffffffffffffff16600b83815481106126de57fe5b9060005260206000200160006101000a81548173ffffffffffffffffffffffffffffffffffffffff021916908373ffffffffffffffffffffffffffffffffffffffff160217905550600e828154811061273357fe5b9060005260206000200154600f838154811061274b57fe5b90600052602060002001819055505050565b6000806000809054906101000a900460ff1660ff161461277c57600080fd5b60016000806101000a81548160ff021916908360ff1602179055506000601760009054906101000a900473ffffffffffffffffffffffffffffffffffffffff1673ffffffffffffffffffffffffffffffffffffffff168787878787604051602401808673ffffffffffffffffffffffffffffffffffffffff1673ffffffffffffffffffffffffffffffffffffffff1681526020018573ffffffffffffffffffffffffffffffffffffffff1673ffffffffffffffffffffffffffffffffffffffff168152602001848152602001806020018281038252848482818152602001925080828437600081840152601f19601f82011690508083019250505096505050505050506040516020818303038152906040527f5cffe9de000000000000000000000000000000000000000000000000000000007bffffffffffffffffffffffffffffffffffffffffffffffffffffffff19166020820180517bffffffffffffffffffffffffffffffffffffffffffffffffffffffff83818316178352505050506040518082805190602001908083835b6020831061292f578051825260208201915060208101905060208303925061290c565b6001836020036101000a038019825116818451168082178552505050505050905001915050600060405180830381855af49150503d806000811461298f576040519150601f19603f3d011682016040523d82523d6000602084013e612994565b606091505b50509050806129a257600080fd5b5060008060006101000a81548160ff021916908360ff16021790555095945050505050565b600060019054906101000a900473ffffffffffffffffffffffffffffffffffffffff1673ffffffffffffffffffffffffffffffffffffffff163373ffffffffffffffffffffffffffffffffffffffff1614612a8a576040517f08c379a000000000000000000000000000000000000000000000000000000000815260040180806020018281038252600a8152602001807f6f6e6c79206f776e65720000000000000000000000000000000000000000000081525060200191505060405180910390fd5b60008163ffffffff16118015612aaf5750620f424063ffffffff168163ffffffff1611155b612ab857600080fd5b80600260006101000a81548163ffffffff021916908363ffffffff16021790555050565b60003073ffffffffffffffffffffffffffffffffffffffff168273ffffffffffffffffffffffffffffffffffffffff1614612b1657600080fd5b60006001549050612b6f612b3c620f424063ffffffff168361485b90919063ffffffff16565b6006547fffffffffffffffffffffffffffffffffffffffffffffffffffffffffffffffff036148e390919063ffffffff16565b915050919050565b6000601860009054906101000a900473ffffffffffffffffffffffffffffffffffffffff1673ffffffffffffffffffffffffffffffffffffffff1682604051602401808281526020019150506040516020818303038152906040527f645b00bd000000000000000000000000000000000000000000000000000000007bffffffffffffffffffffffffffffffffffffffffffffffffffffffff19166020820180517bffffffffffffffffffffffffffffffffffffffffffffffffffffffff83818316178352505050506040518082805190602001908083835b60208310612c735780518252602082019150602081019050602083039250612c50565b6001836020036101000a038019825116818451168082178552505050505050905001915050600060405180830381855af49150503d8060008114612cd3576040519150601f19603f3d011682016040523d82523d6000602084013e612cd8565b606091505b5050905080612ce657600080fd5b5050565b600060108381548110612cf957fe5b9060005260206000200160008373ffffffffffffffffffffffffffffffffffffffff1673ffffffffffffffffffffffffffffffffffffffff16815260200190815260200160002054905092915050565b6000808273ffffffffffffffffffffffffffffffffffffffff168573ffffffffffffffffffffffffffffffffffffffff161415612fb1573073ffffffffffffffffffffffffffffffffffffffff168373ffffffffffffffffffffffffffffffffffffffff1663ac210cc76040518163ffffffff1660e01b815260040160206040518083038186803b158015612ddd57600080fd5b505afa158015612df1573d6000803e3d6000fd5b505050506040513d6020811015612e0757600080fd5b810190808051906020019092919050505073ffffffffffffffffffffffffffffffffffffffff1614612e3857600080fd5b8273ffffffffffffffffffffffffffffffffffffffff1663bfd5105f856040518263ffffffff1660e01b8152600401808273ffffffffffffffffffffffffffffffffffffffff1673ffffffffffffffffffffffffffffffffffffffff16815260200191505060206040518083038186803b158015612eb557600080fd5b505afa158015612ec9573d6000803e3d6000fd5b505050506040513d6020811015612edf57600080fd5b810190808051906020019092919050505091508273ffffffffffffffffffffffffffffffffffffffff1663bf0994bf856040518263ffffffff1660e01b8152600401808273ffffffffffffffffffffffffffffffffffffffff1673ffffffffffffffffffffffffffffffffffffffff16815260200191505060206040518083038186803b158015612f6f57600080fd5b505afa158015612f83573d6000803e3d6000fd5b505050506040513d6020811015612f9957600080fd5b810190808051906020019092919050505090506130a3565b612fb9614fa1565b601360008773ffffffffffffffffffffffffffffffffffffffff1673ffffffffffffffffffffffffffffffffffffffff16815260200190815260200160002060008673ffffffffffffffffffffffffffffffffffffffff1673ffffffffffffffffffffffffffffffffffffffff16815260200190815260200160002060008573ffffffffffffffffffffffffffffffffffffffff1673ffffffffffffffffffffffffffffffffffffffff1681526020019081526020016000206040518060400160405290816000820154815260200160018201548152505090508060000151925080602001519150505b935093915050565b6000806130b6614591565b90506130cb81846147d590919063ffffffff16565b91506000670de0b6b3a764000083816130e057fe5b06146130ed5760016130f0565b60005b60ff16670de0b6b3a7640000838161310457fe5b0401915050919050565b6000600760008373ffffffffffffffffffffffffffffffffffffffff1673ffffffffffffffffffffffffffffffffffffffff168152602001908152602001600020549050919050565b6000601260008373ffffffffffffffffffffffffffffffffffffffff1673ffffffffffffffffffffffffffffffffffffffff16815260200190815260200160002060009054906101000a900460ff169050919050565b6000600b80549050905090565b6000601660009054906101000a900473ffffffffffffffffffffffffffffffffffffffff1673ffffffffffffffffffffffffffffffffffffffff166040516024016040516020818303038152906040527f77692693000000000000000000000000000000000000000000000000000000007bffffffffffffffffffffffffffffffffffffffffffffffffffffffff19166020820180517bffffffffffffffffffffffffffffffffffffffffffffffffffffffff83818316178352505050506040518082805190602001908083835b602083106132ab5780518252602082019150602081019050602083039250613288565b6001836020036101000a038019825116818451168082178552505050505050905001915050600060405180830381855af49150503d806000811461330b576040519150601f19603f3d011682016040523d82523d6000602084013e613310565b606091505b505090508061331e57600080fd5b50565b6000601760009054906101000a900473ffffffffffffffffffffffffffffffffffffffff1673ffffffffffffffffffffffffffffffffffffffff16868686868660405160240180861515151581526020018573ffffffffffffffffffffffffffffffffffffffff1673ffffffffffffffffffffffffffffffffffffffff1681526020018473ffffffffffffffffffffffffffffffffffffffff1673ffffffffffffffffffffffffffffffffffffffff168152602001838152602001828152602001955050505050506040516020818303038152906040527f7c9dd789000000000000000000000000000000000000000000000000000000007bffffffffffffffffffffffffffffffffffffffffffffffffffffffff19166020820180517bffffffffffffffffffffffffffffffffffffffffffffffffffffffff83818316178352505050506040518082805190602001908083835b602083106134995780518252602082019150602081019050602083039250613476565b6001836020036101000a038019825116818451168082178552505050505050905001915050600060405180830381855af49150503d80600081146134f9576040519150601f19603f3d011682016040523d82523d6000602084013e6134fe565b606091505b505090508061350c57600080fd5b505050505050565b600181565b6000600260049054906101000a900473ffffffffffffffffffffffffffffffffffffffff16905090565b6000600b828154811061355257fe5b9060005260206000200160009054906101000a900473ffffffffffffffffffffffffffffffffffffffff169050919050565b600060019054906101000a900473ffffffffffffffffffffffffffffffffffffffff1681565b6060600a8054600181600116156101000203166002900480601f0160208091040260200160405190810160405280929190818152602001828054600181600116156101000203166002900480156136425780601f1061361757610100808354040283529160200191613642565b820191906000526020600020905b81548152906001019060200180831161362557829003601f168201915b5050505050905090565b6000601860009054906101000a900473ffffffffffffffffffffffffffffffffffffffff1673ffffffffffffffffffffffffffffffffffffffff168383604051602401808373ffffffffffffffffffffffffffffffffffffffff1673ffffffffffffffffffffffffffffffffffffffff168152602001828152602001925050506040516020818303038152906040527fa9059cbb000000000000000000000000000000000000000000000000000000007bffffffffffffffffffffffffffffffffffffffffffffffffffffffff19166020820180517bffffffffffffffffffffffffffffffffffffffffffffffffffffffff83818316178352505050506040518082805190602001908083835b6020831061377c5780518252602082019150602081019050602083039250613759565b6001836020036101000a038019825116818451168082178552505050505050905001915050600060405180830381855af49150503d80600081146137dc576040519150601f19603f3d011682016040523d82523d6000602084013e6137e1565b606091505b505080915050806137f157600080fd5b8273ffffffffffffffffffffffffffffffffffffffff163373ffffffffffffffffffffffffffffffffffffffff167fddf252ad1be2c89b69c2b068fc378daa952ba7f163c4a11628f55a4df523b3ef846040518082815260200191505060405180910390a392915050565b600042905090565b6000600d828154811061387357fe5b90600052602060002001549050919050565b60006011838154811061389457fe5b9060005260206000200160008373ffffffffffffffffffffffffffffffffffffffff1673ffffffffffffffffffffffffffffffffffffffff16815260200190815260200160002054905092915050565b6000600f82815481106138f357fe5b90600052602060002001549050919050565b600060019054906101000a900473ffffffffffffffffffffffffffffffffffffffff1673ffffffffffffffffffffffffffffffffffffffff163373ffffffffffffffffffffffffffffffffffffffff16146139c8576040517f08c379a000000000000000000000000000000000000000000000000000000000815260040180806020018281038252600a8152602001807f6f6e6c79206f776e65720000000000000000000000000000000000000000000081525060200191505060405180910390fd5b6000600b80549050905060008090505b818160ff161015613a63578273ffffffffffffffffffffffffffffffffffffffff16600c8260ff1681548110613a0a57fe5b9060005260206000200160009054906101000a900473ffffffffffffffffffffffffffffffffffffffff1673ffffffffffffffffffffffffffffffffffffffff161415613a5657600080fd5b80806001019150506139d8565b5060008273ffffffffffffffffffffffffffffffffffffffff166370a08231306040518263ffffffff1660e01b8152600401808273ffffffffffffffffffffffffffffffffffffffff1673ffffffffffffffffffffffffffffffffffffffff16815260200191505060206040518083038186803b158015613ae357600080fd5b505afa158015613af7573d6000803e3d6000fd5b505050506040513d6020811015613b0d57600080fd5b810190808051906020019092919050505090506000600460019054906101000a900473ffffffffffffffffffffffffffffffffffffffff1690508073ffffffffffffffffffffffffffffffffffffffff16637348c8576040518163ffffffff1660e01b815260040160206040518083038186803b158015613b8d57600080fd5b505afa158015613ba1573d6000803e3d6000fd5b505050506040513d6020811015613bb757600080fd5b810190808051906020019092919050505015613cba5760008173ffffffffffffffffffffffffffffffffffffffff1663489e09516040518163ffffffff1660e01b815260040160206040518083038186803b158015613c1557600080fd5b505afa158015613c29573d6000803e3d6000fd5b505050506040513d6020811015613c3f57600080fd5b810190808051906020019092919050505090506000600184901c9050613c8633828873ffffffffffffffffffffffffffffffffffffffff1661492d9092919063ffffffff16565b613cb3828286038873ffffffffffffffffffffffffffffffffffffffff1661492d9092919063ffffffff16565b5050613ce6565b613ce533838673ffffffffffffffffffffffffffffffffffffffff1661492d9092919063ffffffff16565b5b50505050565b6000600b80549050905060008090505b818160ff161015613e39576000600c8260ff1681548110613d1957fe5b9060005260206000200160009054906101000a900473ffffffffffffffffffffffffffffffffffffffff169050600060118360ff1681548110613d5857fe5b9060005260206000200160003373ffffffffffffffffffffffffffffffffffffffff1673ffffffffffffffffffffffffffffffffffffffff168152602001908152602001600020549050600060118460ff1681548110613db457fe5b9060005260206000200160003373ffffffffffffffffffffffffffffffffffffffff1673ffffffffffffffffffffffffffffffffffffffff16815260200190815260200160002081905550613e2a33828473ffffffffffffffffffffffffffffffffffffffff1661492d9092919063ffffffff16565b50508080600101915050613cfc565b506000601260003373ffffffffffffffffffffffffffffffffffffffff1673ffffffffffffffffffffffffffffffffffffffff16815260200190815260200160002060006101000a81548160ff02191690831515021790555050565b60003073ffffffffffffffffffffffffffffffffffffffff168373ffffffffffffffffffffffffffffffffffffffff1614613ecf57600080fd5b620f424063ffffffff16613eee600154846147d590919063ffffffff16565b81613ef557fe5b04905092915050565b600080601660009054906101000a900473ffffffffffffffffffffffffffffffffffffffff16905060608484604051602401808373ffffffffffffffffffffffffffffffffffffffff1673ffffffffffffffffffffffffffffffffffffffff168152602001828152602001925050506040516020818303038152906040527fdb0c15f1000000000000000000000000000000000000000000000000000000007bffffffffffffffffffffffffffffffffffffffffffffffffffffffff19166020820180517bffffffffffffffffffffffffffffffffffffffffffffffffffffffff83818316178352505050509050604051602081835160208501865af48061400557600080fd5b8151945050508473ffffffffffffffffffffffffffffffffffffffff167fe1fffcc4923d04b559f4d29a8bfc6cda04eb5b0d3c460751c2402c5c5cc9109c856040518082815260200191505060405180910390a2505092915050565b6001601260003373ffffffffffffffffffffffffffffffffffffffff1673ffffffffffffffffffffffffffffffffffffffff16815260200190815260200160002060006101000a81548160ff021916908315150217905550565b6000600860008473ffffffffffffffffffffffffffffffffffffffff1673ffffffffffffffffffffffffffffffffffffffff16815260200190815260200160002060008373ffffffffffffffffffffffffffffffffffffffff1673ffffffffffffffffffffffffffffffffffffffff16815260200190815260200160002054905092915050565b6000601860009054906101000a900473ffffffffffffffffffffffffffffffffffffffff1673ffffffffffffffffffffffffffffffffffffffff16868686868660405160240180861515151581526020018515151515815260200184600260200280828437600081840152601f19601f82011690508083019250505083600260200280828437600081840152601f19601f82011690508083019250505082600260200280828437600081840152601f19601f820116905080830192505050955050505050506040516020818303038152906040527fe77668df000000000000000000000000000000000000000000000000000000007bffffffffffffffffffffffffffffffffffffffffffffffffffffffff19166020820180517bffffffffffffffffffffffffffffffffffffffffffffffffffffffff83818316178352505050506040518082805190602001908083835b602083106142b75780518252602082019150602081019050602083039250614294565b6001836020036101000a038019825116818451168082178552505050505050905001915050600060405180830381855af49150503d8060008114614317576040519150601f19603f3d011682016040523d82523d6000602084013e61431c565b606091505b505090508061432a57600080fd5b505050505050565b600060019054906101000a900473ffffffffffffffffffffffffffffffffffffffff1673ffffffffffffffffffffffffffffffffffffffff163373ffffffffffffffffffffffffffffffffffffffff16146143f5576040517f08c379a000000000000000000000000000000000000000000000000000000000815260040180806020018281038252600a8152602001807f6f6e6c79206f776e65720000000000000000000000000000000000000000000081525060200191505060405180910390fd5b8060018190555050565b60008061440a614591565b90506144398161442b670de0b6b3a7640000866147d590919063ffffffff16565b6148e390919063ffffffff16565b915050919050565b6000600554905090565b600060019054906101000a900473ffffffffffffffffffffffffffffffffffffffff1673ffffffffffffffffffffffffffffffffffffffff163373ffffffffffffffffffffffffffffffffffffffff161461450e576040517f08c379a000000000000000000000000000000000000000000000000000000000815260040180806020018281038252600a8152602001807f6f6e6c79206f776e65720000000000000000000000000000000000000000000081525060200191505060405180910390fd5b600073ffffffffffffffffffffffffffffffffffffffff168173ffffffffffffffffffffffffffffffffffffffff16146145845780600060016101000a81548173ffffffffffffffffffffffffffffffffffffffff021916908373ffffffffffffffffffffffffffffffffffffffff1602179055505b50565b61458f6149e5565b565b6000806006549050600060035490506000600260049054906101000a900473ffffffffffffffffffffffffffffffffffffffff16905060008173ffffffffffffffffffffffffffffffffffffffff166370a08231306040518263ffffffff1660e01b8152600401808273ffffffffffffffffffffffffffffffffffffffff1673ffffffffffffffffffffffffffffffffffffffff16815260200191505060206040518083038186803b15801561464657600080fd5b505afa15801561465a573d6000803e3d6000fd5b505050506040513d602081101561467057600080fd5b8101908080519060200190929190505050905060008273ffffffffffffffffffffffffffffffffffffffff1663182df0f56040518163ffffffff1660e01b815260040160206040518083038186803b1580156146cb57600080fd5b505afa1580156146df573d6000803e3d6000fd5b505050506040513d60208110156146f557600080fd5b810190808051906020019092919050505090506000670de0b6b3a764000061472683856147d590919063ffffffff16565b8161472d57fe5b049050600061475f8761475184670de0b6b3a76400006147d590919063ffffffff16565b6148e390919063ffffffff16565b905085811161477757859750505050505050506147d2565b60006147c4876147b6620f424063ffffffff166147a8620c350063ffffffff168c88036147d590919063ffffffff16565b6148e390919063ffffffff16565b61485b90919063ffffffff16565b905080985050505050505050505b90565b6000808314156147e85760009050614855565b60008284029050828482816147f957fe5b0414614850576040517f08c379a0000000000000000000000000000000000000000000000000000000008152600401808060200182810382526021815260200180614fe26021913960400191505060405180910390fd5b809150505b92915050565b6000808284019050838110156148d9576040517f08c379a000000000000000000000000000000000000000000000000000000000815260040180806020018281038252601b8152602001807f536166654d6174683a206164646974696f6e206f766572666c6f77000000000081525060200191505060405180910390fd5b8091505092915050565b600061492583836040518060400160405280601a81526020017f536166654d6174683a206469766973696f6e206279207a65726f000000000000815250614b4c565b905092915050565b6149e08363a9059cbb60e01b8484604051602401808373ffffffffffffffffffffffffffffffffffffffff1673ffffffffffffffffffffffffffffffffffffffff16815260200182815260200192505050604051602081830303815290604052907bffffffffffffffffffffffffffffffffffffffffffffffffffffffff19166020820180517bffffffffffffffffffffffffffffffffffffffffffffffffffffffff8381831617835250505050614c12565b505050565b6000601660009054906101000a900473ffffffffffffffffffffffffffffffffffffffff1673ffffffffffffffffffffffffffffffffffffffff166040516024016040516020818303038152906040527f5b6d4046000000000000000000000000000000000000000000000000000000007bffffffffffffffffffffffffffffffffffffffffffffffffffffffff19166020820180517bffffffffffffffffffffffffffffffffffffffffffffffffffffffff83818316178352505050506040518082805190602001908083835b60208310614ad65780518252602082019150602081019050602083039250614ab3565b6001836020036101000a038019825116818451168082178552505050505050905001915050600060405180830381855af49150503d8060008114614b36576040519150601f19603f3d011682016040523d82523d6000602084013e614b3b565b606091505b5050905080614b4957600080fd5b50565b60008083118290614bf8576040517f08c379a00000000000000000000000000000000000000000000000000000000081526004018080602001828103825283818151815260200191508051906020019080838360005b83811015614bbd578082015181840152602081019050614ba2565b50505050905090810190601f168015614bea5780820380516001836020036101000a031916815260200191505b509250505060405180910390fd5b506000838581614c0457fe5b049050809150509392505050565b6060614c74826040518060400160405280602081526020017f5361666545524332303a206c6f772d6c6576656c2063616c6c206661696c65648152508573ffffffffffffffffffffffffffffffffffffffff16614d019092919063ffffffff16565b9050600081511115614cfc57808060200190516020811015614c9557600080fd5b8101908080519060200190929190505050614cfb576040517f08c379a000000000000000000000000000000000000000000000000000000000815260040180806020018281038252602a815260200180615003602a913960400191505060405180910390fd5b5b505050565b6060614d108484600085614d19565b90509392505050565b606082471015614d74576040517f08c379a0000000000000000000000000000000000000000000000000000000008152600401808060200182810382526026815260200180614fbc6026913960400191505060405180910390fd5b614d7d85614ec2565b614def576040517f08c379a000000000000000000000000000000000000000000000000000000000815260040180806020018281038252601d8152602001807f416464726573733a2063616c6c20746f206e6f6e2d636f6e747261637400000081525060200191505060405180910390fd5b600060608673ffffffffffffffffffffffffffffffffffffffff1685876040518082805190602001908083835b60208310614e3f5780518252602082019150602081019050602083039250614e1c565b6001836020036101000a03801982511681845116808217855250505050505090500191505060006040518083038185875af1925050503d8060008114614ea1576040519150601f19603f3d011682016040523d82523d6000602084013e614ea6565b606091505b5091509150614eb6828286614ed5565b92505050949350505050565b600080823b905060008111915050919050565b60608315614ee557829050614f9a565b600083511115614ef85782518084602001fd5b816040517f08c379a00000000000000000000000000000000000000000000000000000000081526004018080602001828103825283818151815260200191508051906020019080838360005b83811015614f5f578082015181840152602081019050614f44565b50505050905090810190601f168015614f8c5780820380516001836020036101000a031916815260200191505b509250505060405180910390fd5b9392505050565b60405180604001604052806000815260200160008152509056fe416464726573733a20696e73756666696369656e742062616c616e636520666f722063616c6c536166654d6174683a206d756c7469706c69636174696f6e206f766572666c6f775361666545524332303a204552433230206f7065726174696f6e20646964206e6f742073756363656564a2646970667358221220e4f10c136e0aaf9e1c0e09a419bbf9da8a813733617855e60d0b41920aab018364736f6c63430006080033",
  "immutableReferences": {},
  "source": "// SPDX-License-Identifier: MIT\npragma solidity >=0.6.8 <0.7.0;\nimport \"../../interfaces/IERC20.sol\";\nimport \"../../interfaces/ICTokenWrapper.sol\";\nimport \"../../interfaces/IInfoOracle.sol\";\nimport \"../../interfaces/IFixCapitalPool.sol\";\nimport \"../../interfaces/ICToken.sol\";\nimport \"../../libraries/SafeMath.sol\";\nimport \"../../libraries/ABDKMath64x64.sol\";\nimport \"../../libraries/BigMath.sol\";\nimport \"../../libraries/SafeERC20.sol\";\nimport \"../../helpers/nonReentrant.sol\";\nimport \"../../helpers/Ownable.sol\";\nimport \"./CTokenWrapperInternals.sol\";\n/*\n\tCToken Wrapper\n\n\tUnderlying asset is a compound cToken or another yield bearing asset that is static balance and implements the cToken interface\n*/\ncontract CTokenWrapper is ICTokenWrapper, CTokenWrapperInternals {\n\tusing SafeMath for uint256;\n\tusing ABDKMath64x64 for int128;\n\tusing SafeERC20 for IERC20;\n\n\taddress delegate1Address;\n\taddress delegate2Address;\n\taddress delegate3Address;\n\n\t/*\n\t\tinit\n\t*/\n\tconstructor (\n\t\taddress _underlyingAssetAddress,\n\t\taddress _infoOralceAddress,\n\t\taddress _delegate1Address,\n\t\taddress _delegate2Address,\n\t\taddress _delegate3Address,\n\t\tuint32 _SBPSRetained\n\t) public {\n\t\trequire(_SBPSRetained > 0 && _SBPSRetained <= totalSBPS);\n\t\tinternalUnderlyingAssetAddress = _underlyingAssetAddress;\n\t\tinternalDecimals = IERC20(_underlyingAssetAddress).decimals();\n\t\tinternalName = string(abi.encodePacked('wrapped ',IERC20(_underlyingAssetAddress).name()));\n\t\tinternalSymbol = string(abi.encodePacked('w', IERC20(_underlyingAssetAddress).symbol()));\n\t\tinternalInfoOracleAddress = _infoOralceAddress;\n\t\tdelegate1Address = _delegate1Address;\n\t\tdelegate2Address = _delegate2Address;\n\t\tdelegate3Address = _delegate3Address;\n\t\tSBPSRetained = _SBPSRetained;\n\t}\n\n\t/*\n\t\t@Description: send in a specific amount of underlying asset, receive wrapped asset\n\n\t\t@param address _to: the address that shall receive the newly minted wrapped tokens\n\t\t@param uint _amount: the amount of underlying asset units to deposit\n\t*/\n\tfunction depositUnitAmount(address _to, uint _amount) external override returns (uint _amountWrapped) {\n\t\taddress _delegateAddress = delegate1Address;\n\t\tbytes memory sig = abi.encodeWithSignature(\"depositUnitAmount(address,uint256)\", _to, _amount);\n\n\t\tassembly {\n\t\t\tlet retPtr := mload(0x40)\n\n\t\t\tlet success := delegatecall(gas(), _delegateAddress, add(sig, 0x20), mload(sig), retPtr, 0x20)\n\n\t\t\tif iszero(success) { revert(0,0) }\n\n\t\t\t_amountWrapped := mload(retPtr)\n\t\t}\n\n\t\temit Deposit(_to, _amountWrapped);\n\t}\n\n\t/*\n\t\t@Description: send in underlying asset, receive a specific amount of wrapped asset\n\n\t\t@param address _to: the address that shall receive the newly minted wrapped tokens\n\t\t@param uint _amount: the amount of wrapped asset units to mint\n\t*/\n\tfunction depositWrappedAmount(address _to, uint _amount) external override returns (uint _amountUnit) {\n\t\taddress _delegateAddress = delegate1Address;\n\t\tbytes memory sig = abi.encodeWithSignature(\"depositWrappedAmount(address,uint256)\", _to, _amount);\n\n\t\tassembly {\n\t\t\tlet retPtr := mload(0x40)\n\n\t\t\tlet success := delegatecall(gas(), _delegateAddress, add(sig, 0x20), mload(sig), retPtr, 0x20)\n\n\t\t\tif iszero(success) { revert(0,0) }\n\n\t\t\t_amountUnit := mload(retPtr)\n\t\t}\n\n\t\temit Deposit(_to, _amount);\n\t}\n\n\t/*\n\t\t@Description: get the time at which the amount of yield generated in this wrapper was last updated\n\t\t\tbecause there is a limit of 20% of interest generated since last harvest that may be collected\n\t\t\tas fees we will always be able to get a wrapped asset to underlying asset ratio that accounts\n\t\t\tfor 80% of interest generated since last harvest thus we return the current timestamp as the\n\t\t\tlast update timestamp\n\t*/\n\tfunction lastUpdate() external view override returns (uint) {\n\t\treturn block.timestamp;\n\t}\n\n\t/*\n\t\t@Description: this function is called by amms to ensure the state of the wrapper has not changed\n\t\t\tbetween registration of a quote and acceptance of a quote.\n\t\t\tIf the values returned by this function change after quote registration the amm quote will no\n\t\t\tlonger be valid\n\n\t\t@return uint updateTimestamp: as long as within same block there is no problem\n\t\t@return uint ratio: as long as no yield is generated between quote registration and acceptance\n\t\t\tthis function will not be responsible for reversion of quote acceptance\n\t*/\n\tfunction getStatus() external view override returns (uint updateTimestamp, uint ratio) {\n\t\treturn (block.timestamp, getRatio());\n\t}\n\n\t/*\n\t\t@Description: collect fee, send 50% to owner and 50% to treasury address\n\t\t\tafter the fee is collected the funds that are retained for wrapped asset holders will\n\t\t\tbe == underlyingAsset.balanceOf(this) * (SBPSRetained/totalSBPS)**timeSinceLastHarvest(years)\n\t\t\tthough it should be noted that if the fee is greater than 20% of the total interest\n\t\t\tgenerated since the last harvest the fee will be set to 20% of the total interest\n\t\t\tgenerated since the last harvest\n\t*/\n\tfunction harvestToTreasury() internal {\n\t\t(bool success, ) = delegate1Address.delegatecall(abi.encodeWithSignature(\"harvestToTreasury()\"));\n\t\trequire(success);\n\t}\n\n\t/*\n\t\t@Description: harvest fees to treasury and owner\n\t*/\n\tfunction forceHarvest() external override {\n\t\tharvestToTreasury();\n\t}\n\n\t/*\n\t\t@Description: burn wrapped asset to receive an amount of underlying asset of _amountUnit\n\n\t\t@param address _to: the address that shall receive the underlying asset\n\t\t@param uint _amountUnit: the amount of underlying asset units to withdraw\n\n\t\t@return uint _amountWrappedToken: the amount of units of wrapped asset that were burned\n\t*/\n\tfunction withdrawUnitAmount(address _to, uint _amountUnit, bool _claimRewards) external override returns (uint _amountWrappedToken) {\n\t\taddress _delegateAddress = delegate1Address;\n\t\tbytes memory sig = abi.encodeWithSignature(\"withdrawUnitAmount(address,uint256,bool)\", _to, _amountUnit, _claimRewards);\n\n\t\tassembly {\n\t\t\tlet retPtr := mload(0x40)\n\n\t\t\tlet success := delegatecall(gas(), _delegateAddress, add(sig, 0x20), mload(sig), retPtr, 0x20)\n\n\t\t\tif iszero(success) { revert(0,0) }\n\n\t\t\t_amountWrappedToken := mload(retPtr)\n\t\t}\n\n\t\temit Withdrawal(msg.sender, _amountWrappedToken);\n\t}\n\n\t/*\n\t\t@Description: burn a specific amount of wrappet asset to get out underlying asset\n\n\t\t@param address _to: the address that shall receive the underlying asset\n\t\t@param uint _amountWrappedToken: the amount of units of wrappet asset to burn\n\n\t\t@return uint _amountUnit: the amount of underlying asset received\n\t*/\n\tfunction withdrawWrappedAmount(address _to, uint _amountWrappedToken, bool _claimRewards) external override returns (uint _amountUnit) {\n\t\taddress _delegateAddress = delegate1Address;\n\t\tbytes memory sig = abi.encodeWithSignature(\"withdrawWrappedAmount(address,uint256,bool)\", _to, _amountWrappedToken, _claimRewards);\n\n\t\tassembly {\n\t\t\tlet retPtr := mload(0x40)\n\n\t\t\tlet success := delegatecall(gas(), _delegateAddress, add(sig, 0x20), mload(sig), retPtr, 0x20)\n\n\t\t\tif iszero(success) { revert(0,0) }\n\n\t\t\t_amountUnit := mload(retPtr)\n\t\t}\n\n\t\temit Withdrawal(_to, _amountWrappedToken);\n\t}\n\n\n\t/*\n\t\t@Description: convert an amount of underlying asset to its corresponding amount of wrapped asset, round down\n\n\t\t@param uint _amountUnit: the amount of underlying asset to convert\n\n\t\t@return uint _amountWrappedToken: the greatest amount of wrapped asset that is <= _amountUnit underlying asset\n\t*/\n\tfunction UnitAmtToWrappedAmt_RoundDown(uint _amountUnit) public view override returns (uint _amountWrappedToken) {\n\t\tuint ratio = getRatio();\n\t\t/*\n\t\t\tratio == amountUnit/amountWrapped\n\t\t\tamountWrapped == amountUnit/ratio\n\t\t*/\n\t\t_amountWrappedToken = _amountUnit.mul(1 ether).div(ratio);\n\t}\n\n\t/*\n\t\t@Description: convert an amount of underlying asset to its corresponding amount of wrapped asset, round up\n\n\t\t@param uint _amountUnit: the amount of underlying asset to convert\n\n\t\t@return uint _amountWrappedToken: the smallest amount of wrapped asset that is >= _amountUnit underlying asset\n\t*/\n\tfunction UnitAmtToWrappedAmt_RoundUp(uint _amountUnit) public view override returns (uint _amountWrappedToken) {\n\t\tuint ratio = getRatio();\n\t\t/*\n\t\t\tratio == amountUnit/amountWrapped\n\t\t\tamountWrapped == amountUnit/ratio\n\t\t*/\n\t\t_amountWrappedToken = _amountUnit.mul(1 ether);\n\t\t_amountWrappedToken = _amountWrappedToken/ratio + (_amountWrappedToken%ratio == 0 ? 0 : 1);\n\t}\n\n\t/*\n\t\t@Description: convert an amount of wrapped asset to its corresponding amount of underlying asset, round down\n\n\t\t@oaram unit _amountWrappedToken: the amount of wrapped asset to convert\n\n\t\t@return uint _amountWrappedToken: the greatest amount of underlying asset that is <= _amountWrapped wrapped asset\n\t*/\n\tfunction WrappedAmtToUnitAmt_RoundDown(uint _amountWrappedToken) public view override returns (uint _amountUnit) {\n\t\tuint ratio = getRatio();\n\t\t/*\n\t\t\tratio == amountUnit/amountWrapped\n\t\t\tamountUnit == amountWrapped * ratio\n\t\t*/\n\t\t_amountUnit = _amountWrappedToken.mul(ratio)/(1 ether);\n\t}\n\n\t/*\n\t\t@Description: convert an amount of wrapped asset to its corresponding amount of underlying asset, round up\n\n\t\t@oaram unit _amountWrappedToken: the amount of wrapped asset to convert\n\n\t\t@return uint _amountWrappedToken: the smallest amount of underlying asset that is >= _amountWrapped wrapped asset\n\t*/\n\tfunction WrappedAmtToUnitAmt_RoundUp(uint _amountWrappedToken) public view override returns (uint _amountUnit) {\n\t\tuint ratio = getRatio();\n\t\t/*\n\t\t\tratio == amountUnit/amountWrapped\n\t\t\tamountUnit == amountWrapped * ratio\n\t\t*/\n\t\t_amountUnit = _amountWrappedToken.mul(ratio);\n\t\t_amountUnit = _amountUnit/(1 ether) + (_amountUnit%(1 ether) == 0 ? 0 : 1);\n\t}\n\n\n\t//---------------------------------------------------i-m-p-l-e-m-e-n-t-s---E-R-C-2-0---------------------------\n\n\n    function transfer(address _to, uint256 _value) external override returns (bool success) {\n    \t(success, ) = delegate3Address.delegatecall(abi.encodeWithSignature(\"transfer(address,uint256)\", _to, _value));\n    \trequire(success);\n\n        emit Transfer(msg.sender, _to, _value);\n    }\n\n    function approve(address _spender, uint256 _value) external override returns (bool success) {\n        internalAllowance[msg.sender][_spender] = _value;\n\n        emit Approval(msg.sender, _spender, _value);\n\n        return true;\n    }\n\n    function transferFrom(address _from, address _to, uint256 _value) external override returns (bool success) {\n    \t(success, ) = delegate3Address.delegatecall(abi.encodeWithSignature(\"transferFrom(address,address,uint256)\", _from, _to, _value));\n    \trequire(success);\n\n        emit Transfer(_from, _to, _value);\n    }\n\n    //-----------------------E-I-P-3-1-6-5---f-l-a-s-h-l-o-a-n---f-u-n-c-t-i-o-n-a-l-i-t-y-----------------\n\n\n    function maxFlashLoan(\n        address token\n    ) external view override returns (uint256) {\n    \trequire(token == address(this));\n    \tuint _flashLoanFee = internalFlashLoanFee;\n    \t/*\n\t\t\tTheoretically it would be safe to have the maxFlashLoan be\n\t\t\t(uint256(-1) - internalTotalSupply).div(_flashLoanFee.add(totalSBPS)).mul(totalSBPS)\n\t\t\tbut it doesn't hurt to have a lower maximum than the theoretical absolute maximum\n\t\t\thaving a lower maximum flash loan amount may help prevent the occurance of edge case scenerios\n\t\t\tthus it may be beneficial to have maxFlashLoan return\n\t\t\t(uint256(-1) - internalTotalSupply).div(_flashLoanFee.add(totalSBPS))\n    \t*/\n    \treturn (uint256(-1) - internalTotalSupply).div(_flashLoanFee.add(totalSBPS));\n    }\n\n    function flashFee(\n        address token,\n        uint256 amount\n    ) external view override returns (uint256) {\n    \trequire(token == address(this));\n    \treturn amount.mul(internalFlashLoanFee) / totalSBPS;\n    }\n\n    function flashLoan(\n        IERC3156FlashBorrower receiver,\n        address token,\n        uint256 amount,\n        bytes calldata data\n    ) external override noReentry returns (bool) {\n    \t(bool success, ) = delegate2Address.delegatecall(abi.encodeWithSignature(\n    \t\t\"flashLoan(address,address,uint256,bytes)\",\n    \t\taddress(receiver),\n    \t\ttoken,\n    \t\tamount,\n    \t\tdata\n    \t));\n    \trequire(success);\n    }\n\n    //-----------r-e-w-a-r-d---a-s-s-e-t---d-i-s-t-r-i-b-u-t-i-o-n---m-e-c-h-a-n-i-s-m---------\n\n\t/*\n\t\t@Description: force the CTokenWrapper to collect reward assets for msg.sender\n\t*/\n\tfunction forceRewardsCollection() external override {\n\t\t(bool success, ) = delegate1Address.delegatecall(abi.encodeWithSignature(\"forceRewardsCollection()\"));\n\t\trequire(success);\n\t}\n\n\t/*\n\t\t@Description: register as a distribution account,\n\t\t\tshould only be done by contracts wishing to distribute rewards correctly among depositors\n\t*/\n\tfunction registerAsDistributionAccount() external override {\n\t\tinternalIsDistributionAccount[msg.sender] = true;\n\t}\n\n\t/*\n\t\t@Description: remove registration as distribution account,\n\t\t\treceive back all funds that had not been distributed\n\t*/\n\tfunction delistDistributionAccount() external override {\n\t\tuint len = internalRewardsAssets.length;\n\t\tfor (uint8 i = 0; i < len; i++) {\n\t\t\taddress _rewardsAsset = internalImmutableRewardsAssets[i];\n\t\t\tuint dividend = internalDistributionAccountRewards[i][msg.sender];\n\t\t\tinternalDistributionAccountRewards[i][msg.sender] = 0;\n\t\t\tIERC20(_rewardsAsset).safeTransfer(msg.sender, dividend);\n\t\t}\n\t\tinternalIsDistributionAccount[msg.sender] = false;\n\t}\n\n\t/*\n\t\t@Description: change the amount of bond and yield in a subaccount\n\n\t\t@param address _claimRewards: pass true to enter the claimRewards modifier\n\t\t\tfor either msg.sender or the _FCPaddr, depending on if _FCPaddr == address(0)\n\t\t@param address _subAccount: the sub account owner address, receives rewards\n\t\t@param address _FCPaddr: the address of the FCP for which sub account balances are held\n\t\t@param int _changeYield: change in the yield amount in the sub account,\n\t\t\tfinal amount - initial amount\n\t\t@param int _changeBond: the change in the bond amount for the sub account,\n\t\t\tfinal amount - initial amount\n\t*/\n\tfunction editSubAccountPosition(\n\t\tbool _claimRewards,\n\t\taddress _subAccount,\n\t\taddress _FCPaddr,\n\t\tint _changeYield,\n\t\tint _changeBond\n\t) external override {\n\t\t(bool success, ) = delegate2Address.delegatecall(abi.encodeWithSignature(\n\t\t\t\"editSubAccountPosition(bool,address,address,int256,int256)\",\n\t\t\t_claimRewards,\n\t\t\t_subAccount,\n\t\t\t_FCPaddr,\n\t\t\t_changeYield,\n\t\t\t_changeBond\n\t\t));\n\t\trequire(success);\n\t}\n\n\t/*\n\t\t@Description: force rewards for a sub account to be distributed\n\n\t\t@param bool _claimRewards: pass true to enter the claimRewards modifier for the distribution account\n\t\t@param address _distributionAccount: the address of the distribution account for the sub account\n\t\t@param address _subAccount: the address that is the owner of the sub account and shall receive the rewards\n\t\t@param address _FCPaddr: the address of the FCP contract for which the sub account amounts are denominated\n\t*/\n\tfunction forceClaimSubAccountRewards(\n\t\tbool _claimRewards,\n\t\taddress _distributionAccount,\n\t\taddress _subAccount,\n\t\taddress _FCPaddr\n\t) external override {\n\t\t(bool success, ) = delegate2Address.delegatecall(abi.encodeWithSignature(\n\t\t\t\"forceClaimSubAccountRewards(bool,address,address,address)\",\n\t\t\t_claimRewards,\n\t\t\t_distributionAccount,\n\t\t\t_subAccount,\n\t\t\t_FCPaddr\n\t\t));\n\t\trequire(success);\n\t}\n\n    /*\n\t\t@Description: force rewards for an FCP direct sub account to be claimed\n\t\t\tonly callable by FCP contracts\n\n\t\t@param bool _inPayoutPhase: true if the FCP is in the payout phase\n\t\t@param bool _claimRewards: true if the FCP should claim its rewards\n\t\t@param address _subAcct: the owner of the FCP Direct sub account for which to claim rewards\n\t\t@param uint _yield: the yield amount in the ZCB & YT position of _subAcct\n\t\t@param uint _wrappedClaim: the effective amount of the wrapper asset used to calculate the\n\t\t\tdistribution of rewards to _subAcct\n    */\n\tfunction FCPDirectClaimSubAccountRewards(\n\t\tbool _inPayoutPhase,\n\t\tbool _claimRewards,\n\t\taddress _subAcct,\n\t\tuint _yield,\n\t\tuint _wrappedClaim\n\t) external override {\n\t\t(bool success, ) = delegate2Address.delegatecall(abi.encodeWithSignature(\n\t\t\t\"FCPDirectClaimSubAccountRewards(bool,bool,address,uint256,uint256)\",\n\t\t\t_inPayoutPhase,\n\t\t\t_claimRewards,\n\t\t\t_subAcct,\n\t\t\t_yield,\n\t\t\t_wrappedClaim\n\t\t));\n\t\trequire(success);\n\t}\n\n\n    /*\n\t\t@Description: force rewards for an FCP direct sub account to be claimed\n\t\t\tonly callable by FCP contracts\n\n\t\t@param bool _inPayoutPhase: true if the FCP is in the payout phase\n\t\t@param bool _claimRewards: true if the FCP should claim its rewards\n\t\t@param address[2] _subAccts: the owners of the FCP direct sub accounts for which to claim rewards\n\t\t@param uint[2] _yieldArr: [yield balance of subAcct0, yield balance of subAcct1]\n\t\t@param uint[2] _wrappedClaims: the effective amount of the wrapper asset used to calculate the\n\t\t\tdistribution for the sub accounts\n    */\n    function FCPDirectDoubleClaimSubAccountRewards(\n        bool _inPayoutPhase,\n        bool _claimRewards,\n        address[2] calldata _subAccts,\n        uint[2] calldata _yieldArr,\n        uint[2] calldata _wrappedClaims\n    ) external override {\n    \t(bool success, ) = delegate3Address.delegatecall(abi.encodeWithSignature(\n    \t\t\"FCPDirectDoubleClaimSubAccountRewards(bool,bool,address[2],uint256[2],uint256[2])\",\n    \t\t_inPayoutPhase,\n    \t\t_claimRewards,\n    \t\t_subAccts,\n    \t\t_yieldArr,\n    \t\t_wrappedClaims\n    \t));\n    \trequire(success);\n    }\n\n    //------------------------v-i-e-w-s---------------------------\n\n\tbool public constant override underlyingIsStatic = true;\n\n\tfunction flashLoanFee() external view override returns(uint256) {\n\t\treturn internalFlashLoanFee;\n\t}\n\n\tfunction prevRatio() external view override returns(uint) {\n\t\treturn internalPrevRatio;\n\t}\n\n\tfunction lastHarvest() external view override returns(uint) {\n\t\treturn internalLastHarvest;\n\t}\n\n\tfunction underlyingAssetAddress() external view override returns(address) {\n\t\treturn internalUnderlyingAssetAddress;\n\t}\n\n\tfunction infoOracleAddress() external view override returns(address) {\n\t\treturn internalInfoOracleAddress;\n\t}\n\n    function totalSupply() external view override returns (uint supply) {\n    \treturn internalTotalSupply;\n    }\n\n    function balanceOf(address _owner) external view override returns (uint balance) {\n    \treturn internalBalanceOf[_owner];\n    }\n\n    function allowance(address _owner, address _spender) external view override returns (uint remaining) {\n    \treturn internalAllowance[_owner][_spender];\n    }\n\n    function decimals() external view override returns(uint8 digits) {\n    \treturn internalDecimals;\n    }\n\n    function name() external view override returns (string memory _name) {\n    \treturn internalName;\n    }\n\n    function symbol() external view override returns (string memory _symbol) {\n    \treturn internalSymbol;\n    }\n\n\tfunction rewardsAssets(uint _index) external view override returns(address) {\n\t\treturn internalRewardsAssets[_index];\n\t}\n\n\tfunction immutableRewardsAssets(uint _index) external view override returns(address) {\n\t\treturn internalImmutableRewardsAssets[_index];\n\t}\n\n\tfunction prevContractBalance(uint _index) external view override returns(uint) {\n\t\treturn internalPrevContractBalance[_index];\n\t}\n\n\tfunction totalRewardsPerWasset(uint _index) external view override returns(uint) {\n\t\treturn internalTotalRewardsPerWasset[_index];\n\t}\n\n\tfunction totalRewardsPerWassetUponActivation(uint _index) external view override returns(uint) {\n\t\treturn internalTRPWuponActivation[_index];\n\t}\n\n\tfunction prevTotalRewardsPerWasset(uint _index, address _wassetHolder) external view override returns(uint) {\n\t\treturn internalPrevTotalRewardsPerWasset[_index][_wassetHolder];\n\t}\n\n\tfunction numRewardsAssets() external view override returns(uint) {\n\t\treturn internalRewardsAssets.length;\n\t}\n\n\tfunction isDistributionAccount(address _addr) external view override returns(bool) {\n\t\treturn internalIsDistributionAccount[_addr];\n\t}\n\n\tfunction distributionAccountRewards(uint _index, address _distributionAccount) external view override returns(uint) {\n\t\treturn internalDistributionAccountRewards[_index][_distributionAccount];\n\t}\n\n\tfunction hasClaimedAllYTRewards(address _distributionAccount, address _subAccount, address _FCPaddr) external view override returns(bool) {\n\t\treturn internalHasClaimedAllYTrewards[_distributionAccount][_subAccount][_FCPaddr];\n\t}\n\n\tfunction subAccountPrevTotalReturnsPerWasset(uint _index, address _distributionAccount, address _subAccount, address _FCPaddr) external view override returns(uint) {\n\t\treturn internalSAPTRPW[_index][_distributionAccount][_subAccount][_FCPaddr];\n\t}\n\n\tfunction subAccountPositions(\n\t\taddress _distributionAccount,\n\t\taddress _subAccount, \n\t\taddress _FCPaddr\n\t) external view override returns(\n\t\tuint yield,\n\t\tint bond\n\t) {\n\t\tif (_distributionAccount == _FCPaddr) {\n\t\t\trequire(address(IFixCapitalPool(_FCPaddr).wrapper()) == address(this));\n\t\t\tyield = IFixCapitalPool(_FCPaddr).balanceYield(_subAccount);\n\t\t\tbond = IFixCapitalPool(_FCPaddr).balanceBonds(_subAccount);\n\t\t}\n\t\telse {\n\t\t\tSubAccountPosition memory position = internalSubAccountPositions[_distributionAccount][_subAccount][_FCPaddr];\n\t\t\tyield = position.yield;\n\t\t\tbond = position.bond;\n\t\t}\n\t}\n\n    //------------------------------------a-d-m-i-n----------------------------\n\n    /*\n\t\t@Description: set the annual wrapper fee in super basis points\n\t\t\thalf of all fees goes to owner, the other half goes to the treasury\n\n\t\t@param uint32 _SBPSRetained: the amount of super bips that are to be retained by\n\t\t\tthe pool. You can think of it as if totalSBPS - _SBPSRetained is the annual\n\t\t\tasset management fee for a wrapper\n    */\n    function setInterestFee(uint32 _SBPSRetained) external onlyOwner override {\n    \trequire(_SBPSRetained > 0 && _SBPSRetained <= totalSBPS);\n    \tSBPSRetained = _SBPSRetained;\n    }\n\n    /*\n\t\t@Description: set the percentage fee that is applied to all flashloans\n\n\t\t@param uint _flashLoanFee: the new fee percentage denominated in superbips which is to be applied to flashloans\n    */\n    function setFlashLoanFee(uint _flashLoanFee) external onlyOwner override {\n    \tinternalFlashLoanFee = _flashLoanFee;\n    }\n\n    /*\n\t\t@Description: add an asset for which wrapped asset holders will earn LM rewards\n\n\t\t@param address _rewardsAsset: the new asset for which to start distribution of LM rewards\n    */\n    function addRewardAsset(address _rewardsAsset) external override {\n    \t(bool success, ) = delegate3Address.delegatecall(abi.encodeWithSignature(\n    \t\t\"addRewardAsset(address)\",\n    \t\t_rewardsAsset\n    \t));\n    \trequire(success);\n    }\n\n    /*\n\t\t@Description: deactivate a rewards asset\n\t\t\tany amount of this asset recived by this contract will sit dormant until activated\n\n\t\t@param uint _index: the index within the rewards asset array of the asset to deactivate\n    */\n    function deactivateRewardAsset(uint _index) external override {\n    \t(bool success, ) = delegate3Address.delegatecall(abi.encodeWithSignature(\n    \t\t\"deactivateRewardAsset(uint256)\",\n    \t\t_index\n    \t));\n    \trequire(success);\n    }\n\n    /*\n\t\t@Description: reactivate a rewards asset,\n\t\t\tany amount of this asset henceforth received by this contract shall be distributed propotionally among\n\t\t\twrapped asset holders\n\n\t\t@param uint _index: the index within the immutable rewards asset array of the asset to reactivate\n    */\n    function reactivateRewardAsset(uint _index) external onlyOwner override {\n    \tuint len = internalRewardsAssets.length;\n    \trequire(_index < len);\n    \tinternalRewardsAssets[_index] = internalImmutableRewardsAssets[_index];\n    \tinternalTRPWuponActivation[_index] = internalTotalRewardsPerWasset[_index];\n    }\n\n    /*\n\t\t@Description: harvest the entirety of a reward asset to the owner & to fix finance, split 50/50\n\t\t\tthis reward asset must not be listed within the immutableRewardsAssets array\n\n\t\t@param address _assetAddr: the address of the reward asset to harvest\n\t*/\n\tfunction harvestNonListedRewardAsset(address _assetAddr) external onlyOwner override {\n\t\tuint len = internalRewardsAssets.length;\n\t\tfor (uint8 i = 0; i < len; i++) {\n\t\t\trequire(internalImmutableRewardsAssets[i] != _assetAddr);\n\t\t}\n\t\tuint currentBal = IERC20(_assetAddr).balanceOf(address(this));\n\t\tIInfoOracle iorc = IInfoOracle(internalInfoOracleAddress);\n\t\tif (iorc.TreasuryFeeIsCollected()) {\n\t\t\taddress sendTo = iorc.sendTo();\n\t\t\tuint toOwner = currentBal >> 1;\n\t\t\tIERC20(_assetAddr).safeTransfer(msg.sender, toOwner);\n\t\t\tIERC20(_assetAddr).safeTransfer(sendTo, currentBal - toOwner);\n\t\t}\n\t\telse {\n\t\t\tIERC20(_assetAddr).safeTransfer(msg.sender, currentBal);\n\t\t}\n\t}\n}",
  "sourcePath": "/home/asher/FixFinanceV1/contracts/Wrappers/CTokenWrapper/CTokenWrapper.sol",
  "compiler": {
    "name": "solc",
    "version": "0.6.8+commit.0bbfe453.Emscripten.clang"
  },
  "schemaVersion": "3.4.1",
  "updatedAt": "2021-11-26T19:15:55.846Z",
  "devdoc": {
    "methods": {}
  },
  "userdoc": {
    "methods": {}
  }
}