{
  "contractName": "CTokenWrapperDelegate1",
  "abi": [
    {
      "anonymous": false,
      "inputs": [
        {
          "indexed": false,
          "internalType": "uint256",
          "name": "its",
          "type": "uint256"
        }
      ],
      "name": "EVNT",
      "type": "event"
    },
    {
      "anonymous": false,
      "inputs": [
        {
          "indexed": true,
          "internalType": "address",
          "name": "from",
          "type": "address"
        },
        {
          "indexed": false,
          "internalType": "uint256",
          "name": "wrappedAmount",
          "type": "uint256"
        },
        {
          "indexed": false,
          "internalType": "uint256",
          "name": "feeAmount",
          "type": "uint256"
        }
      ],
      "name": "FlashBurn",
      "type": "event"
    },
    {
      "anonymous": false,
      "inputs": [
        {
          "indexed": true,
          "internalType": "address",
          "name": "to",
          "type": "address"
        },
        {
          "indexed": false,
          "internalType": "uint256",
          "name": "wrappedAmount",
          "type": "uint256"
        }
      ],
      "name": "FlashMint",
      "type": "event"
    },
    {
      "inputs": [],
      "name": "owner",
      "outputs": [
        {
          "internalType": "address",
          "name": "",
          "type": "address"
        }
      ],
      "stateMutability": "view",
      "type": "function"
    },
    {
      "inputs": [
        {
          "internalType": "address",
          "name": "newOwner",
          "type": "address"
        }
      ],
      "name": "transferOwnership",
      "outputs": [],
      "stateMutability": "nonpayable",
      "type": "function"
    },
    {
      "inputs": [],
      "name": "harvestToTreasury",
      "outputs": [],
      "stateMutability": "nonpayable",
      "type": "function"
    },
    {
      "inputs": [
        {
          "internalType": "address",
          "name": "_to",
          "type": "address"
        },
        {
          "internalType": "uint256",
          "name": "_amount",
          "type": "uint256"
        }
      ],
      "name": "depositUnitAmount",
      "outputs": [
        {
          "internalType": "uint256",
          "name": "_amountWrapped",
          "type": "uint256"
        }
      ],
      "stateMutability": "nonpayable",
      "type": "function"
    },
    {
      "inputs": [
        {
          "internalType": "address",
          "name": "_to",
          "type": "address"
        },
        {
          "internalType": "uint256",
          "name": "_amount",
          "type": "uint256"
        }
      ],
      "name": "depositWrappedAmount",
      "outputs": [
        {
          "internalType": "uint256",
          "name": "_amountUnit",
          "type": "uint256"
        }
      ],
      "stateMutability": "nonpayable",
      "type": "function"
    },
    {
      "inputs": [
        {
          "internalType": "address",
          "name": "_to",
          "type": "address"
        },
        {
          "internalType": "uint256",
          "name": "_amountUnit",
          "type": "uint256"
        },
        {
          "internalType": "bool",
          "name": "_claimRewards",
          "type": "bool"
        }
      ],
      "name": "withdrawUnitAmount",
      "outputs": [
        {
          "internalType": "uint256",
          "name": "_amountWrappedToken",
          "type": "uint256"
        }
      ],
      "stateMutability": "nonpayable",
      "type": "function"
    },
    {
      "inputs": [
        {
          "internalType": "address",
          "name": "_to",
          "type": "address"
        },
        {
          "internalType": "uint256",
          "name": "_amountWrappedToken",
          "type": "uint256"
        },
        {
          "internalType": "bool",
          "name": "_claimRewards",
          "type": "bool"
        }
      ],
      "name": "withdrawWrappedAmount",
      "outputs": [
        {
          "internalType": "uint256",
          "name": "_amountUnit",
          "type": "uint256"
        }
      ],
      "stateMutability": "nonpayable",
      "type": "function"
    },
    {
      "inputs": [],
      "name": "forceRewardsCollection",
      "outputs": [],
      "stateMutability": "nonpayable",
      "type": "function"
    }
  ],
  "bytecode": "0x60806040526103e8600155620f3e58600260006101000a81548163ffffffff021916908363ffffffff16021790555034801561003a57600080fd5b5033600060016101000a81548173ffffffffffffffffffffffffffffffffffffffff021916908373ffffffffffffffffffffffffffffffffffffffff160217905550614e0e8061008b6000396000f3fe608060405234801561001057600080fd5b50600436106100885760003560e01c8063776926931161005b57806377692693146101d55780638da5cb5b146101df578063db0c15f114610229578063f2fde38b1461028b57610088565b80632f5084661461008d578063302f1756146100ef5780634c7b57f01461015d5780635b6d4046146101cb575b600080fd5b6100d9600480360360408110156100a357600080fd5b81019080803573ffffffffffffffffffffffffffffffffffffffff169060200190929190803590602001909291905050506102cf565b6040518082815260200191505060405180910390f35b6101476004803603606081101561010557600080fd5b81019080803573ffffffffffffffffffffffffffffffffffffffff16906020019092919080359060200190929190803515159060200190929190505050610a44565b6040518082815260200191505060405180910390f35b6101b56004803603606081101561017357600080fd5b81019080803573ffffffffffffffffffffffffffffffffffffffff1690602001909291908035906020019092919080351515906020019092919050505061170d565b6040518082815260200191505060405180910390f35b6101d3611e66565b005b6101dd611ee8565b005b6101e7611fe8565b604051808273ffffffffffffffffffffffffffffffffffffffff1673ffffffffffffffffffffffffffffffffffffffff16815260200191505060405180910390f35b6102756004803603604081101561023f57600080fd5b81019080803573ffffffffffffffffffffffffffffffffffffffff1690602001909291908035906020019092919050505061200e565b6040518082815260200191505060405180910390f35b6102cd600480360360208110156102a157600080fd5b81019080803573ffffffffffffffffffffffffffffffffffffffff1690602001909291905050506127d7565b005b6000806000809054906101000a900460ff1660ff16146102ee57600080fd5b60016000806101000a81548160ff021916908360ff160217905550600183816104b2576000600260049054906101000a900473ffffffffffffffffffffffffffffffffffffffff169050600080600061034684612913565b925092509250600061037b8361036d670de0b6b3a76400008c61296f90919063ffffffff16565b6129f590919063ffffffff16565b9050600084141561039d576103918a8287612a3f565b975050505050506104ad565b6103c2826103b4868461296f90919063ffffffff16565b6129f590919063ffffffff16565b975060008a905061041b89600760008473ffffffffffffffffffffffffffffffffffffffff1673ffffffffffffffffffffffffffffffffffffffff16815260200190815260200160002054612be490919063ffffffff16565b600760008373ffffffffffffffffffffffffffffffffffffffff1673ffffffffffffffffffffffffffffffffffffffff1681526020019081526020016000208190555061047389600654612be490919063ffffffff16565b6006819055506104a63330848973ffffffffffffffffffffffffffffffffffffffff16612c6c909392919063ffffffff16565b5050505050505b610a21565b6000600b8054905090506000811415610667576000600260049054906101000a900473ffffffffffffffffffffffffffffffffffffffff16905060008060006104fa84612913565b925092509250600061052f83610521670de0b6b3a76400008d61296f90919063ffffffff16565b6129f590919063ffffffff16565b90506000841415610551576105458b8287612a3f565b98505050505050610661565b61057682610568868461296f90919063ffffffff16565b6129f590919063ffffffff16565b985060008b90506105cf8a600760008473ffffffffffffffffffffffffffffffffffffffff1673ffffffffffffffffffffffffffffffffffffffff16815260200190815260200160002054612be490919063ffffffff16565b600760008373ffffffffffffffffffffffffffffffffffffffff1673ffffffffffffffffffffffffffffffffffffffff168152602001908152602001600020819055506106278a600654612be490919063ffffffff16565b60068190555061065a3330848973ffffffffffffffffffffffffffffffffffffffff16612c6c909392919063ffffffff16565b5050505050505b50610a21565b60ff80168111610677578061067c565b60ff80165b9050600060065490506000811415610831576000600260049054906101000a900473ffffffffffffffffffffffffffffffffffffffff16905060008060006106c384612913565b92509250925060006106f8836106ea670de0b6b3a76400008e61296f90919063ffffffff16565b6129f590919063ffffffff16565b9050600084141561071a5761070e8c8287612a3f565b9950505050505061082a565b61073f82610731868461296f90919063ffffffff16565b6129f590919063ffffffff16565b995060008c90506107988b600760008473ffffffffffffffffffffffffffffffffffffffff1673ffffffffffffffffffffffffffffffffffffffff16815260200190815260200160002054612be490919063ffffffff16565b600760008373ffffffffffffffffffffffffffffffffffffffff1673ffffffffffffffffffffffffffffffffffffffff168152602001908152602001600020819055506107f08b600654612be490919063ffffffff16565b6006819055506108233330848973ffffffffffffffffffffffffffffffffffffffff16612c6c909392919063ffffffff16565b5050505050505b5050610a21565b6000600760008573ffffffffffffffffffffffffffffffffffffffff1673ffffffffffffffffffffffffffffffffffffffff16815260200190815260200160002054905061088184848484612d59565b6000600260049054906101000a900473ffffffffffffffffffffffffffffffffffffffff16905060008060006108b684612913565b92509250925060006108eb836108dd670de0b6b3a76400008f61296f90919063ffffffff16565b6129f590919063ffffffff16565b9050600084141561090d576109018d8287612a3f565b9a505050505050610a1d565b61093282610924868461296f90919063ffffffff16565b6129f590919063ffffffff16565b9a5060008d905061098b8c600760008473ffffffffffffffffffffffffffffffffffffffff1673ffffffffffffffffffffffffffffffffffffffff16815260200190815260200160002054612be490919063ffffffff16565b600760008373ffffffffffffffffffffffffffffffffffffffff1673ffffffffffffffffffffffffffffffffffffffff168152602001908152602001600020819055506109e38c600654612be490919063ffffffff16565b600681905550610a163330848973ffffffffffffffffffffffffffffffffffffffff16612c6c909392919063ffffffff16565b5050505050505b5050505b505060008060006101000a81548160ff021916908360ff16021790555092915050565b6000806000809054906101000a900460ff1660ff1614610a6357600080fd5b60016000806101000a81548160ff021916908360ff160217905550813381610d7b5784600760003373ffffffffffffffffffffffffffffffffffffffff1673ffffffffffffffffffffffffffffffffffffffff168152602001908152602001600020541015610ad157600080fd5b6000600260049054906101000a900473ffffffffffffffffffffffffffffffffffffffff169050610b018161322d565b5060008173ffffffffffffffffffffffffffffffffffffffff166370a08231306040518263ffffffff1660e01b8152600401808273ffffffffffffffffffffffffffffffffffffffff1673ffffffffffffffffffffffffffffffffffffffff16815260200191505060206040518083038186803b158015610b8157600080fd5b505afa158015610b95573d6000803e3d6000fd5b505050506040513d6020811015610bab57600080fd5b810190808051906020019092919050505090506000610be7600654610bd98a8561296f90919063ffffffff16565b6129f590919063ffffffff16565b9050610c3b88600760003373ffffffffffffffffffffffffffffffffffffffff1673ffffffffffffffffffffffffffffffffffffffff1681526020019081526020016000205461392590919063ffffffff16565b600760003373ffffffffffffffffffffffffffffffffffffffff1673ffffffffffffffffffffffffffffffffffffffff16815260200190815260200160002081905550610c938860065461392590919063ffffffff16565b600681905550610cc489828573ffffffffffffffffffffffffffffffffffffffff1661396f9092919063ffffffff16565b610d71670de0b6b3a7640000610d638573ffffffffffffffffffffffffffffffffffffffff1663182df0f56040518163ffffffff1660e01b815260040160206040518083038186803b158015610d1957600080fd5b505afa158015610d2d573d6000803e3d6000fd5b505050506040513d6020811015610d4357600080fd5b81019080805190602001909291905050508461296f90919063ffffffff16565b6129f590919063ffffffff16565b95505050506116e9565b6000600b80549050905060008114156110855785600760003373ffffffffffffffffffffffffffffffffffffffff1673ffffffffffffffffffffffffffffffffffffffff168152602001908152602001600020541015610dda57600080fd5b6000600260049054906101000a900473ffffffffffffffffffffffffffffffffffffffff169050610e0a8161322d565b5060008173ffffffffffffffffffffffffffffffffffffffff166370a08231306040518263ffffffff1660e01b8152600401808273ffffffffffffffffffffffffffffffffffffffff1673ffffffffffffffffffffffffffffffffffffffff16815260200191505060206040518083038186803b158015610e8a57600080fd5b505afa158015610e9e573d6000803e3d6000fd5b505050506040513d6020811015610eb457600080fd5b810190808051906020019092919050505090506000610ef0600654610ee28b8561296f90919063ffffffff16565b6129f590919063ffffffff16565b9050610f4489600760003373ffffffffffffffffffffffffffffffffffffffff1673ffffffffffffffffffffffffffffffffffffffff1681526020019081526020016000205461392590919063ffffffff16565b600760003373ffffffffffffffffffffffffffffffffffffffff1673ffffffffffffffffffffffffffffffffffffffff16815260200190815260200160002081905550610f9c8960065461392590919063ffffffff16565b600681905550610fcd8a828573ffffffffffffffffffffffffffffffffffffffff1661396f9092919063ffffffff16565b61107a670de0b6b3a764000061106c8573ffffffffffffffffffffffffffffffffffffffff1663182df0f56040518163ffffffff1660e01b815260040160206040518083038186803b15801561102257600080fd5b505afa158015611036573d6000803e3d6000fd5b505050506040513d602081101561104c57600080fd5b81019080805190602001909291905050508461296f90919063ffffffff16565b6129f590919063ffffffff16565b9650505050506116e9565b60ff80168111611095578061109a565b60ff80165b90506000600654905060008114156113a45786600760003373ffffffffffffffffffffffffffffffffffffffff1673ffffffffffffffffffffffffffffffffffffffff1681526020019081526020016000205410156110f857600080fd5b6000600260049054906101000a900473ffffffffffffffffffffffffffffffffffffffff1690506111288161322d565b5060008173ffffffffffffffffffffffffffffffffffffffff166370a08231306040518263ffffffff1660e01b8152600401808273ffffffffffffffffffffffffffffffffffffffff1673ffffffffffffffffffffffffffffffffffffffff16815260200191505060206040518083038186803b1580156111a857600080fd5b505afa1580156111bc573d6000803e3d6000fd5b505050506040513d60208110156111d257600080fd5b81019080805190602001909291905050509050600061120e6006546112008c8561296f90919063ffffffff16565b6129f590919063ffffffff16565b90506112628a600760003373ffffffffffffffffffffffffffffffffffffffff1673ffffffffffffffffffffffffffffffffffffffff1681526020019081526020016000205461392590919063ffffffff16565b600760003373ffffffffffffffffffffffffffffffffffffffff1673ffffffffffffffffffffffffffffffffffffffff168152602001908152602001600020819055506112ba8a60065461392590919063ffffffff16565b6006819055506112eb8b828573ffffffffffffffffffffffffffffffffffffffff1661396f9092919063ffffffff16565b611398670de0b6b3a764000061138a8573ffffffffffffffffffffffffffffffffffffffff1663182df0f56040518163ffffffff1660e01b815260040160206040518083038186803b15801561134057600080fd5b505afa158015611354573d6000803e3d6000fd5b505050506040513d602081101561136a57600080fd5b81019080805190602001909291905050508461296f90919063ffffffff16565b6129f590919063ffffffff16565b975050505050506116e9565b6000600760008573ffffffffffffffffffffffffffffffffffffffff1673ffffffffffffffffffffffffffffffffffffffff1681526020019081526020016000205490506113f484848484612d59565b87600760003373ffffffffffffffffffffffffffffffffffffffff1673ffffffffffffffffffffffffffffffffffffffff16815260200190815260200160002054101561144057600080fd5b6000600260049054906101000a900473ffffffffffffffffffffffffffffffffffffffff1690506114708161322d565b5060008173ffffffffffffffffffffffffffffffffffffffff166370a08231306040518263ffffffff1660e01b8152600401808273ffffffffffffffffffffffffffffffffffffffff1673ffffffffffffffffffffffffffffffffffffffff16815260200191505060206040518083038186803b1580156114f057600080fd5b505afa158015611504573d6000803e3d6000fd5b505050506040513d602081101561151a57600080fd5b8101908080519060200190929190505050905060006115566006546115488d8561296f90919063ffffffff16565b6129f590919063ffffffff16565b90506115aa8b600760003373ffffffffffffffffffffffffffffffffffffffff1673ffffffffffffffffffffffffffffffffffffffff1681526020019081526020016000205461392590919063ffffffff16565b600760003373ffffffffffffffffffffffffffffffffffffffff1673ffffffffffffffffffffffffffffffffffffffff168152602001908152602001600020819055506116028b60065461392590919063ffffffff16565b6006819055506116338c828573ffffffffffffffffffffffffffffffffffffffff1661396f9092919063ffffffff16565b6116e0670de0b6b3a76400006116d28573ffffffffffffffffffffffffffffffffffffffff1663182df0f56040518163ffffffff1660e01b815260040160206040518083038186803b15801561168857600080fd5b505afa15801561169c573d6000803e3d6000fd5b505050506040513d60208110156116b257600080fd5b81019080805190602001909291905050508461296f90919063ffffffff16565b6129f590919063ffffffff16565b98505050505050505b505060008060006101000a81548160ff021916908360ff1602179055509392505050565b6000806000809054906101000a900460ff1660ff161461172c57600080fd5b60016000806101000a81548160ff021916908360ff1602179055508133816118e8576000600260049054906101000a900473ffffffffffffffffffffffffffffffffffffffff169050600080600061178384612913565b92509250925060008990506117bb836117ad670de0b6b3a76400008461296f90919063ffffffff16565b6129f590919063ffffffff16565b90506117e2826117d4868461296f90919063ffffffff16565b6129f590919063ffffffff16565b97506000600760003373ffffffffffffffffffffffffffffffffffffffff1673ffffffffffffffffffffffffffffffffffffffff16815260200190815260200160002054905061183b898261392590919063ffffffff16565b600760003373ffffffffffffffffffffffffffffffffffffffff1673ffffffffffffffffffffffffffffffffffffffff168152602001908152602001600020819055506118938960065461392590919063ffffffff16565b60068190555060008c90506118dc816118b660018661392590919063ffffffff16565b8973ffffffffffffffffffffffffffffffffffffffff1661396f9092919063ffffffff16565b50505050505050611e42565b6000600b8054905090506000811415611a96576000600260049054906101000a900473ffffffffffffffffffffffffffffffffffffffff169050600080600061193084612913565b92509250925060008a90506119688361195a670de0b6b3a76400008461296f90919063ffffffff16565b6129f590919063ffffffff16565b905061198f82611981868461296f90919063ffffffff16565b6129f590919063ffffffff16565b98506000600760003373ffffffffffffffffffffffffffffffffffffffff1673ffffffffffffffffffffffffffffffffffffffff1681526020019081526020016000205490506119e88a8261392590919063ffffffff16565b600760003373ffffffffffffffffffffffffffffffffffffffff1673ffffffffffffffffffffffffffffffffffffffff16815260200190815260200160002081905550611a408a60065461392590919063ffffffff16565b60068190555060008d9050611a8981611a6360018661392590919063ffffffff16565b8973ffffffffffffffffffffffffffffffffffffffff1661396f9092919063ffffffff16565b5050505050505050611e42565b60ff80168111611aa65780611aab565b60ff80165b9050600060065490506000811415611c59576000600260049054906101000a900473ffffffffffffffffffffffffffffffffffffffff1690506000806000611af284612913565b92509250925060008b9050611b2a83611b1c670de0b6b3a76400008461296f90919063ffffffff16565b6129f590919063ffffffff16565b9050611b5182611b43868461296f90919063ffffffff16565b6129f590919063ffffffff16565b99506000600760003373ffffffffffffffffffffffffffffffffffffffff1673ffffffffffffffffffffffffffffffffffffffff168152602001908152602001600020549050611baa8b8261392590919063ffffffff16565b600760003373ffffffffffffffffffffffffffffffffffffffff1673ffffffffffffffffffffffffffffffffffffffff16815260200190815260200160002081905550611c028b60065461392590919063ffffffff16565b60068190555060008e9050611c4b81611c2560018661392590919063ffffffff16565b8973ffffffffffffffffffffffffffffffffffffffff1661396f9092919063ffffffff16565b505050505050505050611e42565b6000600760008573ffffffffffffffffffffffffffffffffffffffff1673ffffffffffffffffffffffffffffffffffffffff168152602001908152602001600020549050611ca984848484612d59565b6000600260049054906101000a900473ffffffffffffffffffffffffffffffffffffffff1690506000806000611cde84612913565b92509250925060008c9050611d1683611d08670de0b6b3a76400008461296f90919063ffffffff16565b6129f590919063ffffffff16565b9050611d3d82611d2f868461296f90919063ffffffff16565b6129f590919063ffffffff16565b9a506000600760003373ffffffffffffffffffffffffffffffffffffffff1673ffffffffffffffffffffffffffffffffffffffff168152602001908152602001600020549050611d968c8261392590919063ffffffff16565b600760003373ffffffffffffffffffffffffffffffffffffffff1673ffffffffffffffffffffffffffffffffffffffff16815260200190815260200160002081905550611dee8c60065461392590919063ffffffff16565b60068190555060008f9050611e3781611e1160018661392590919063ffffffff16565b8973ffffffffffffffffffffffffffffffffffffffff1661396f9092919063ffffffff16565b505050505050505050505b505060008060006101000a81548160ff021916908360ff1602179055509392505050565b60008060009054906101000a900460ff1660ff1614611e8457600080fd5b60016000806101000a81548160ff021916908360ff160217905550611eca600260049054906101000a900473ffffffffffffffffffffffffffffffffffffffff1661322d565b5060008060006101000a81548160ff021916908360ff160217905550565b60008060009054906101000a900460ff1660ff1614611f0657600080fd5b60016000806101000a81548160ff021916908360ff16021790555060013381611f2e57611fc9565b6000600b8054905090506000811415611f475750611fc9565b60ff80168111611f575780611f5c565b60ff80165b9050600060065490506000811415611f75575050611fc9565b6000600760008573ffffffffffffffffffffffffffffffffffffffff1673ffffffffffffffffffffffffffffffffffffffff168152602001908152602001600020549050611fc584848484612d59565b5050505b505060008060006101000a81548160ff021916908360ff160217905550565b600060019054906101000a900473ffffffffffffffffffffffffffffffffffffffff1681565b6000806000809054906101000a900460ff1660ff161461202d57600080fd5b60016000806101000a81548160ff021916908360ff16021790555060018381612206576000600260049054906101000a900473ffffffffffffffffffffffffffffffffffffffff169050600080600061208584612913565b92509250925060008314156120aa5761209f898986612a3f565b965050505050612201565b60006120bf898361296f90919063ffffffff16565b90506120e760016120d986846129f590919063ffffffff16565b612be490919063ffffffff16565b9050612116670de0b6b3a7640000612108858461296f90919063ffffffff16565b6129f590919063ffffffff16565b975060008a905061216f8a600760008473ffffffffffffffffffffffffffffffffffffffff1673ffffffffffffffffffffffffffffffffffffffff16815260200190815260200160002054612be490919063ffffffff16565b600760008373ffffffffffffffffffffffffffffffffffffffff1673ffffffffffffffffffffffffffffffffffffffff168152602001908152602001600020819055506121c78a600654612be490919063ffffffff16565b6006819055506121fa3330848973ffffffffffffffffffffffffffffffffffffffff16612c6c909392919063ffffffff16565b5050505050505b6127b4565b6000600b80549050905060008114156123d0576000600260049054906101000a900473ffffffffffffffffffffffffffffffffffffffff169050600080600061224e84612913565b9250925092506000831415612273576122688a8a86612a3f565b9750505050506123ca565b60006122888a8361296f90919063ffffffff16565b90506122b060016122a286846129f590919063ffffffff16565b612be490919063ffffffff16565b90506122df670de0b6b3a76400006122d1858461296f90919063ffffffff16565b6129f590919063ffffffff16565b985060008b90506123388b600760008473ffffffffffffffffffffffffffffffffffffffff1673ffffffffffffffffffffffffffffffffffffffff16815260200190815260200160002054612be490919063ffffffff16565b600760008373ffffffffffffffffffffffffffffffffffffffff1673ffffffffffffffffffffffffffffffffffffffff168152602001908152602001600020819055506123908b600654612be490919063ffffffff16565b6006819055506123c33330848973ffffffffffffffffffffffffffffffffffffffff16612c6c909392919063ffffffff16565b5050505050505b506127b4565b60ff801681116123e057806123e5565b60ff80165b90506000600654905060008114156125af576000600260049054906101000a900473ffffffffffffffffffffffffffffffffffffffff169050600080600061242c84612913565b9250925092506000831415612451576124468b8b86612a3f565b9850505050506125a8565b60006124668b8361296f90919063ffffffff16565b905061248e600161248086846129f590919063ffffffff16565b612be490919063ffffffff16565b90506124bd670de0b6b3a76400006124af858461296f90919063ffffffff16565b6129f590919063ffffffff16565b995060008c90506125168c600760008473ffffffffffffffffffffffffffffffffffffffff1673ffffffffffffffffffffffffffffffffffffffff16815260200190815260200160002054612be490919063ffffffff16565b600760008373ffffffffffffffffffffffffffffffffffffffff1673ffffffffffffffffffffffffffffffffffffffff1681526020019081526020016000208190555061256e8c600654612be490919063ffffffff16565b6006819055506125a13330848973ffffffffffffffffffffffffffffffffffffffff16612c6c909392919063ffffffff16565b5050505050505b50506127b4565b6000600760008573ffffffffffffffffffffffffffffffffffffffff1673ffffffffffffffffffffffffffffffffffffffff1681526020019081526020016000205490506125ff84848484612d59565b6000600260049054906101000a900473ffffffffffffffffffffffffffffffffffffffff169050600080600061263484612913565b92509250925060008314156126595761264e8c8c86612a3f565b9950505050506127b0565b600061266e8c8361296f90919063ffffffff16565b9050612696600161268886846129f590919063ffffffff16565b612be490919063ffffffff16565b90506126c5670de0b6b3a76400006126b7858461296f90919063ffffffff16565b6129f590919063ffffffff16565b9a5060008d905061271e8d600760008473ffffffffffffffffffffffffffffffffffffffff1673ffffffffffffffffffffffffffffffffffffffff16815260200190815260200160002054612be490919063ffffffff16565b600760008373ffffffffffffffffffffffffffffffffffffffff1673ffffffffffffffffffffffffffffffffffffffff168152602001908152602001600020819055506127768d600654612be490919063ffffffff16565b6006819055506127a93330848973ffffffffffffffffffffffffffffffffffffffff16612c6c909392919063ffffffff16565b5050505050505b5050505b505060008060006101000a81548160ff021916908360ff16021790555092915050565b600060019054906101000a900473ffffffffffffffffffffffffffffffffffffffff1673ffffffffffffffffffffffffffffffffffffffff163373ffffffffffffffffffffffffffffffffffffffff161461289a576040517f08c379a000000000000000000000000000000000000000000000000000000000815260040180806020018281038252600a8152602001807f6f6e6c79206f776e65720000000000000000000000000000000000000000000081525060200191505060405180910390fd5b600073ffffffffffffffffffffffffffffffffffffffff168173ffffffffffffffffffffffffffffffffffffffff16146129105780600060016101000a81548173ffffffffffffffffffffffffffffffffffffffff021916908373ffffffffffffffffffffffffffffffffffffffff1602179055505b50565b6000806000612920614d45565b6129298561322d565b90508060006003811061293857fe5b60200201518160016003811061294a57fe5b60200201518260026003811061295c57fe5b6020020151935093509350509193909250565b60008083141561298257600090506129ef565b600082840290508284828161299357fe5b04146129ea576040517f08c379a0000000000000000000000000000000000000000000000000000000008152600401808060200182810382526021815260200180614d8e6021913960400191505060405180910390fd5b809150505b92915050565b6000612a3783836040518060400160405280601a81526020017f536166654d6174683a206469766973696f6e206279207a65726f000000000000815250613a27565b905092915050565b60008173ffffffffffffffffffffffffffffffffffffffff1663313ce5676040518163ffffffff1660e01b815260040160206040518083038186803b158015612a8757600080fd5b505afa158015612a9b573d6000803e3d6000fd5b505050506040513d6020811015612ab157600080fd5b810190808051906020019092919050505060ff16600a0a831015612ad457600080fd5b612b013330858573ffffffffffffffffffffffffffffffffffffffff16612c6c909392919063ffffffff16565b82600760008673ffffffffffffffffffffffffffffffffffffffff1673ffffffffffffffffffffffffffffffffffffffff1681526020019081526020016000208190555082600681905550829050426005819055508173ffffffffffffffffffffffffffffffffffffffff1663182df0f56040518163ffffffff1660e01b815260040160206040518083038186803b158015612b9c57600080fd5b505afa158015612bb0573d6000803e3d6000fd5b505050506040513d6020811015612bc657600080fd5b81019080805190602001909291905050506003819055509392505050565b600080828401905083811015612c62576040517f08c379a000000000000000000000000000000000000000000000000000000000815260040180806020018281038252601b8152602001807f536166654d6174683a206164646974696f6e206f766572666c6f77000000000081525060200191505060405180910390fd5b8091505092915050565b612d53846323b872dd60e01b858585604051602401808473ffffffffffffffffffffffffffffffffffffffff1673ffffffffffffffffffffffffffffffffffffffff1681526020018373ffffffffffffffffffffffffffffffffffffffff1673ffffffffffffffffffffffffffffffffffffffff1681526020018281526020019350505050604051602081830303815290604052907bffffffffffffffffffffffffffffffffffffffffffffffffffffffff19166020820180517bffffffffffffffffffffffffffffffffffffffffffffffffffffffff8381831617835250505050613aed565b50505050565b6000601260008673ffffffffffffffffffffffffffffffffffffffff1673ffffffffffffffffffffffffffffffffffffffff16815260200190815260200160002060009054906101000a900460ff16612db3576000612db7565b6180005b90505b838160ff161015613226576000600b8260ff1681548110612dd757fe5b9060005260206000200160009054906101000a900473ffffffffffffffffffffffffffffffffffffffff169050600073ffffffffffffffffffffffffffffffffffffffff168173ffffffffffffffffffffffffffffffffffffffff161415612e3f5750613219565b6000808273ffffffffffffffffffffffffffffffffffffffff166370a08231306040518263ffffffff1660e01b8152600401808273ffffffffffffffffffffffffffffffffffffffff1673ffffffffffffffffffffffffffffffffffffffff16815260200191505060206040518083038186803b158015612ebf57600080fd5b505afa158015612ed3573d6000803e3d6000fd5b505050506040513d6020811015612ee957600080fd5b810190808051906020019092919050505090506000600d8560ff1681548110612f0e57fe5b906000526020600020015490506000612f5c88612f4e670de0b6b3a7640000612f40868861392590919063ffffffff16565b61296f90919063ffffffff16565b6129f590919063ffffffff16565b9050612f8b81600e8860ff1681548110612f7257fe5b9060005260206000200154612be490919063ffffffff16565b93505050600060108560ff1681548110612fa157fe5b9060005260206000200160008a73ffffffffffffffffffffffffffffffffffffffff1673ffffffffffffffffffffffffffffffffffffffff1681526020019081526020016000205490506000600f8660ff1681548110612ffd57fe5b906000526020600020015490508082116130175780613019565b815b9150838210156131d5576000670de0b6b3a76400006130438985880361296f90919063ffffffff16565b8161304a57fe5b0490508460108860ff168154811061305e57fe5b9060005260206000200160008d73ffffffffffffffffffffffffffffffffffffffff1673ffffffffffffffffffffffffffffffffffffffff1681526020019081526020016000208190555060008111156131d3576000600f8861ffff16901c61ffff161115613191576131318160118960ff16815481106130db57fe5b9060005260206000200160008e73ffffffffffffffffffffffffffffffffffffffff1673ffffffffffffffffffffffffffffffffffffffff16815260200190815260200160002054612be490919063ffffffff16565b60118860ff168154811061314157fe5b9060005260206000200160008d73ffffffffffffffffffffffffffffffffffffffff1673ffffffffffffffffffffffffffffffffffffffff168152602001908152602001600020819055506131d2565b6131bc8b828873ffffffffffffffffffffffffffffffffffffffff1661396f9092919063ffffffff16565b6131cf818561392590919063ffffffff16565b93505b5b505b82600d8760ff16815481106131e657fe5b906000526020600020018190555083600e8760ff168154811061320557fe5b906000526020600020018190555050505050505b8080600101915050612dba565b5050505050565b613235614d45565b600060055490506000600654905060008060008673ffffffffffffffffffffffffffffffffffffffff1663182df0f56040518163ffffffff1660e01b815260040160206040518083038186803b15801561328e57600080fd5b505afa1580156132a2573d6000803e3d6000fd5b505050506040513d60208110156132b857600080fd5b8101908080519060200190929190505050915060008414156132fd57604051806060016040528060008152602001838152602001600081525095505050505050613920565b8673ffffffffffffffffffffffffffffffffffffffff166370a08231306040518263ffffffff1660e01b8152600401808273ffffffffffffffffffffffffffffffffffffffff1673ffffffffffffffffffffffffffffffffffffffff16815260200191505060206040518083038186803b15801561337a57600080fd5b505afa15801561338e573d6000803e3d6000fd5b505050506040513d60208110156133a457600080fd5b81019080805190602001909291905050509050844214156133e65760405180606001604052808581526020018381526020018281525095505050505050613920565b670de0b6b3a7640000613402838361296f90919063ffffffff16565b8161340957fe5b04925060006003549050600061343085670de0b6b3a764000061296f90919063ffffffff16565b9050600061344787836129f590919063ffffffff16565b905082811161347a5760405180606001604052808881526020018681526020018581525098505050505050505050613920565b60006134c7846134b9620f424063ffffffff166134ab620c350063ffffffff1689880361296f90919063ffffffff16565b6129f590919063ffffffff16565b612be490919063ffffffff16565b905060006301e1853e60408b4203901b816134de57fe5b0490506000613526620f424063ffffffff166040600260009054906101000a900463ffffffff1663ffffffff16901b8161351457fe5b0461352184600f0b613bdc565b613c1c565b600f0b905060006040613542838d61296f90919063ffffffff16565b901c905061355981876129f590919063ffffffff16565b95508386101561359e5761359084613582670de0b6b3a76400008d61296f90919063ffffffff16565b6129f590919063ffffffff16565b9050836003819055506135a6565b856003819055505b4260058190555060006135c28c8361392590919063ffffffff16565b90506000600460019054906101000a900473ffffffffffffffffffffffffffffffffffffffff16905060008060019054906101000a900473ffffffffffffffffffffffffffffffffffffffff1690508173ffffffffffffffffffffffffffffffffffffffff16637348c8576040518163ffffffff1660e01b815260040160206040518083038186803b15801561365757600080fd5b505afa15801561366b573d6000803e3d6000fd5b505050506040513d602081101561368157600080fd5b8101908080519060200190929190505050156138565760008273ffffffffffffffffffffffffffffffffffffffff1663489e09516040518163ffffffff1660e01b815260040160206040518083038186803b1580156136df57600080fd5b505afa1580156136f3573d6000803e3d6000fd5b505050506040513d602081101561370957600080fd5b81019080805190602001909291905050509050613772600185901c600760008473ffffffffffffffffffffffffffffffffffffffff1673ffffffffffffffffffffffffffffffffffffffff16815260200190815260200160002054612be490919063ffffffff16565b600760008373ffffffffffffffffffffffffffffffffffffffff1673ffffffffffffffffffffffffffffffffffffffff1681526020019081526020016000208190555061380d600185901c8503600760008573ffffffffffffffffffffffffffffffffffffffff1673ffffffffffffffffffffffffffffffffffffffff16815260200190815260200160002054612be490919063ffffffff16565b600760008473ffffffffffffffffffffffffffffffffffffffff1673ffffffffffffffffffffffffffffffffffffffff16815260200190815260200160002081905550506138ec565b6138a883600760008473ffffffffffffffffffffffffffffffffffffffff1673ffffffffffffffffffffffffffffffffffffffff16815260200190815260200160002054612be490919063ffffffff16565b600760008373ffffffffffffffffffffffffffffffffffffffff1673ffffffffffffffffffffffffffffffffffffffff168152602001908152602001600020819055505b8360068190555060405180606001604052808581526020018d81526020018c8152509f505050505050505050505050505050505b919050565b600061396783836040518060400160405280601e81526020017f536166654d6174683a207375627472616374696f6e206f766572666c6f770000815250613c52565b905092915050565b613a228363a9059cbb60e01b8484604051602401808373ffffffffffffffffffffffffffffffffffffffff1673ffffffffffffffffffffffffffffffffffffffff16815260200182815260200192505050604051602081830303815290604052907bffffffffffffffffffffffffffffffffffffffffffffffffffffffff19166020820180517bffffffffffffffffffffffffffffffffffffffffffffffffffffffff8381831617835250505050613aed565b505050565b60008083118290613ad3576040517f08c379a00000000000000000000000000000000000000000000000000000000081526004018080602001828103825283818151815260200191508051906020019080838360005b83811015613a98578082015181840152602081019050613a7d565b50505050905090810190601f168015613ac55780820380516001836020036101000a031916815260200191505b509250505060405180910390fd5b506000838581613adf57fe5b049050809150509392505050565b6060613b4f826040518060400160405280602081526020017f5361666545524332303a206c6f772d6c6576656c2063616c6c206661696c65648152508573ffffffffffffffffffffffffffffffffffffffff16613d129092919063ffffffff16565b9050600081511115613bd757808060200190516020811015613b7057600080fd5b8101908080519060200190929190505050613bd6576040517f08c379a000000000000000000000000000000000000000000000000000000000815260040180806020018281038252602a815260200180614daf602a913960400191505060405180910390fd5b5b505050565b60007fffffffffffffffffffffffffffffffff80000000000000000000000000000000600f0b82600f0b1415613c1157600080fd5b816000039050919050565b6000613c4a613c4283613c3186600f0b613d2a565b600f0b613e5290919063ffffffff16565b600f0b613ebd565b905092915050565b6000838311158290613cff576040517f08c379a00000000000000000000000000000000000000000000000000000000081526004018080602001828103825283818151815260200191508051906020019080838360005b83811015613cc4578082015181840152602081019050613ca9565b50505050905090810190601f168015613cf15780820380516001836020036101000a031916815260200191505b509250505060405180910390fd5b5060008385039050809150509392505050565b6060613d218484600085614abd565b90509392505050565b60008082600f0b13613d3b57600080fd5b6000809050600083600f0b9050680100000000000000008112613d6657604081901d90506040820191505b6401000000008112613d8057602081901d90506020820191505b620100008112613d9857601081901d90506010820191505b6101008112613daf57600881901d90506008820191505b60108112613dc557600481901d90506004820191505b60048112613ddb57600281901d90506002820191505b60028112613dea576001820191505b60006040808403901b9050600083607f0386600f0b901b9050600067800000000000000090505b6000811315613e45578182029150600060ff83901c905080607f0183901c92508082028401935050600181901d9050613e11565b5081945050505050919050565b600080604083600f0b85600f0b02901d90507fffffffffffffffffffffffffffffffff80000000000000000000000000000000600f0b8112158015613eaa57506f7fffffffffffffffffffffffffffffff600f0b8113155b613eb357600080fd5b8091505092915050565b60006840000000000000000082600f0b12613ed757600080fd5b7fffffffffffffffffffffffffffffffffffffffffffffffc0000000000000000082600f0b1215613f0b5760009050614ab8565b60006f80000000000000000000000000000000905060006780000000000000008416600f0b1315613f5157608070016a09e667f3bcc908b2fb1366ea957d3e8202901c90505b60006740000000000000008416600f0b1315613f825760807001306fe0a31b7152de8d5a46305c85edec8202901c90505b60006720000000000000008416600f0b1315613fb35760807001172b83c7d517adcdf7c8c50eb14a791f8202901c90505b60006710000000000000008416600f0b1315613fe457608070010b5586cf9890f6298b92b71842a983638202901c90505b60006708000000000000008416600f0b13156140155760807001059b0d31585743ae7c548eb68ca417fd8202901c90505b60006704000000000000008416600f0b1315614046576080700102c9a3e778060ee6f7caca4f7a29bde88202901c90505b60006702000000000000008416600f0b131561407757608070010163da9fb33356d84a66ae336dcdfa3f8202901c90505b60006701000000000000008416600f0b13156140a8576080700100b1afa5abcbed6129ab13ec11dc95438202901c90505b600066800000000000008416600f0b13156140d857608070010058c86da1c09ea1ff19d294cf2f679b8202901c90505b600066400000000000008416600f0b13156141085760807001002c605e2e8cec506d21bfc89a23a00f8202901c90505b600066200000000000008416600f0b1315614138576080700100162f3904051fa128bca9c55c31e5df8202901c90505b600066100000000000008416600f0b13156141685760807001000b175effdc76ba38e31671ca9397258202901c90505b600066080000000000008416600f0b1315614198576080700100058ba01fb9f96d6cacd4b180917c3d8202901c90505b600066040000000000008416600f0b13156141c857608070010002c5cc37da9491d0985c348c68e7b38202901c90505b600066020000000000008416600f0b13156141f85760807001000162e525ee054754457d59952920268202901c90505b600066010000000000008416600f0b131561422857608070010000b17255775c040618bf4a4ade83fc8202901c90505b6000658000000000008416600f0b13156142575760807001000058b91b5bc9ae2eed81e9b7d4cfab8202901c90505b6000654000000000008416600f0b1315614286576080700100002c5c89d5ec6ca4d7c8acc017b7c98202901c90505b6000652000000000008416600f0b13156142b557608070010000162e43f4f831060e02d839a9d16d8202901c90505b6000651000000000008416600f0b13156142e4576080700100000b1721bcfc99d9f890ea069117638202901c90505b6000650800000000008416600f0b131561431357608070010000058b90cf1e6d97f9ca14dbcc16288202901c90505b6000650400000000008416600f0b13156143425760807001000002c5c863b73f016468f6bac5ca2b8202901c90505b6000650200000000008416600f0b1315614371576080700100000162e430e5a18f6119e3c02282a58202901c90505b6000650100000000008416600f0b13156143a05760807001000000b1721835514b86e6d96efd1bfe8202901c90505b60006480000000008416600f0b13156143ce576080700100000058b90c0b48c6be5df846c5b2ef8202901c90505b60006440000000008416600f0b13156143fc57608070010000002c5c8601cc6b9e94213c72737a8202901c90505b60006420000000008416600f0b131561442a5760807001000000162e42fff037df38aa2b219f068202901c90505b60006410000000008416600f0b131561445857608070010000000b17217fba9c739aa5819f44f98202901c90505b60006408000000008416600f0b13156144865760807001000000058b90bfcdee5acd3c1cedc8238202901c90505b60006404000000008416600f0b13156144b4576080700100000002c5c85fe31f35a6a30da1be508202901c90505b60006402000000008416600f0b13156144e257608070010000000162e42ff0999ce3541b9fffcf8202901c90505b60006401000000008416600f0b1315614510576080700100000000b17217f80f4ef5aadda455548202901c90505b600063800000008416600f0b131561453d57608070010000000058b90bfbf8479bd5a81b51ad8202901c90505b600063400000008416600f0b131561456a5760807001000000002c5c85fdf84bd62ae30a74cc8202901c90505b600063200000008416600f0b1315614597576080700100000000162e42fefb2fed257559bdaa8202901c90505b600063100000008416600f0b13156145c45760807001000000000b17217f7d5a7716bba4a9ae8202901c90505b600063080000008416600f0b13156145f1576080700100000000058b90bfbe9ddbac5e109cce8202901c90505b600063040000008416600f0b131561461e57608070010000000002c5c85fdf4b15de6f17eb0d8202901c90505b600063020000008416600f0b131561464b5760807001000000000162e42fefa494f1478fde058202901c90505b600063010000008416600f0b131561467857608070010000000000b17217f7d20cf927c8e94c8202901c90505b6000628000008416600f0b13156146a45760807001000000000058b90bfbe8f71cb4e4b33d8202901c90505b6000624000008416600f0b13156146d0576080700100000000002c5c85fdf477b662b269458202901c90505b6000622000008416600f0b13156146fc57608070010000000000162e42fefa3ae53369388c8202901c90505b6000621000008416600f0b1315614728576080700100000000000b17217f7d1d351a389d408202901c90505b6000620800008416600f0b131561475457608070010000000000058b90bfbe8e8b2d3d4ede8202901c90505b6000620400008416600f0b13156147805760807001000000000002c5c85fdf4741bea6e77e8202901c90505b6000620200008416600f0b13156147ac576080700100000000000162e42fefa39fe95583c28202901c90505b6000620100008416600f0b13156147d85760807001000000000000b17217f7d1cfb72b45e18202901c90505b60006180008416600f0b1315614803576080700100000000000058b90bfbe8e7cc35c3f08202901c90505b60006140008416600f0b131561482e57608070010000000000002c5c85fdf473e242ea388202901c90505b60006120008416600f0b13156148595760807001000000000000162e42fefa39f02b772c8202901c90505b60006110008416600f0b131561488457608070010000000000000b17217f7d1cf7d83c1a8202901c90505b60006108008416600f0b13156148af5760807001000000000000058b90bfbe8e7bdcbe2e8202901c90505b60006104008416600f0b13156148da576080700100000000000002c5c85fdf473dea871f8202901c90505b60006102008416600f0b131561490557608070010000000000000162e42fefa39ef44d918202901c90505b60006101008416600f0b1315614930576080700100000000000000b17217f7d1cf79e9498202901c90505b600060808416600f0b131561495a57608070010000000000000058b90bfbe8e7bce5448202901c90505b600060408416600f0b13156149845760807001000000000000002c5c85fdf473de6eca8202901c90505b600060208416600f0b13156149ae576080700100000000000000162e42fefa39ef366f8202901c90505b600060108416600f0b13156149d85760807001000000000000000b17217f7d1cf79afa8202901c90505b600060088416600f0b1315614a02576080700100000000000000058b90bfbe8e7bcd6d8202901c90505b600060048416600f0b1315614a2c57608070010000000000000002c5c85fdf473de6b28202901c90505b600060028416600f0b1315614a565760807001000000000000000162e42fefa39ef3588202901c90505b600060018416600f0b1315614a8057608070010000000000000000b17217f7d1cf79ab8202901c90505b604083600f0b901d603f03600f0b81901c90506f7fffffffffffffffffffffffffffffff600f0b811115614ab357600080fd5b809150505b919050565b606082471015614b18576040517f08c379a0000000000000000000000000000000000000000000000000000000008152600401808060200182810382526026815260200180614d686026913960400191505060405180910390fd5b614b2185614c66565b614b93576040517f08c379a000000000000000000000000000000000000000000000000000000000815260040180806020018281038252601d8152602001807f416464726573733a2063616c6c20746f206e6f6e2d636f6e747261637400000081525060200191505060405180910390fd5b600060608673ffffffffffffffffffffffffffffffffffffffff1685876040518082805190602001908083835b60208310614be35780518252602082019150602081019050602083039250614bc0565b6001836020036101000a03801982511681845116808217855250505050505090500191505060006040518083038185875af1925050503d8060008114614c45576040519150601f19603f3d011682016040523d82523d6000602084013e614c4a565b606091505b5091509150614c5a828286614c79565b92505050949350505050565b600080823b905060008111915050919050565b60608315614c8957829050614d3e565b600083511115614c9c5782518084602001fd5b816040517f08c379a00000000000000000000000000000000000000000000000000000000081526004018080602001828103825283818151815260200191508051906020019080838360005b83811015614d03578082015181840152602081019050614ce8565b50505050905090810190601f168015614d305780820380516001836020036101000a031916815260200191505b509250505060405180910390fd5b9392505050565b604051806060016040528060039060208202803683378082019150509050509056fe416464726573733a20696e73756666696369656e742062616c616e636520666f722063616c6c536166654d6174683a206d756c7469706c69636174696f6e206f766572666c6f775361666545524332303a204552433230206f7065726174696f6e20646964206e6f742073756363656564a2646970667358221220f1a51dd8caba54d23ac34d2e14eaee8e23f663aa92d833463f850799fb54b2cc64736f6c63430006080033",
  "immutableReferences": {},
  "source": "// SPDX-License-Identifier: MIT\npragma solidity >=0.6.8 <0.7.0;\n\nimport \"../../interfaces/IERC20.sol\";\nimport \"../../interfaces/IInfoOracle.sol\";\nimport \"../../interfaces/ICToken.sol\";\nimport \"../../libraries/SafeMath.sol\";\nimport \"../../libraries/ABDKMath64x64.sol\";\nimport \"../../libraries/BigMath.sol\";\nimport \"../../libraries/SafeERC20.sol\";\nimport \"./CTokenWrapperDelegateParent.sol\";\n\ncontract CTokenWrapperDelegate1 is CTokenWrapperDelegateParent {\n\tusing SafeMath for uint256;\n\tusing ABDKMath64x64 for int128;\n\tusing SafeERC20 for IERC20;\n\n\tfunction harvestToTreasury() external noReentry {\n\t\tinternalHarvestToTreasury(ICToken(internalUnderlyingAssetAddress));\n\t}\n\n\tfunction extractRetsHarvestToTreasury(ICToken _cToken) internal returns(uint, uint, uint) {\n\t\tuint[3] memory rets = internalHarvestToTreasury(_cToken);\n\t\treturn (rets[0], rets[1], rets[2]);\n\t}\n\n\t/*\n\t\t@Description: collect fee, send 50% to owner and 50% to treasury address\n\t\t\tafter the fee is collected the funds that are retained for wrapped asset holders will\n\t\t\tbe == underlyingAsset.balanceOf(this) * (SBPSRetained/totalSBPS)**timeSinceLastHarvest(years)\n\t\t\tthough it should be noted that if the fee is greater than 20% of the total interest\n\t\t\tgenerated since the last harvest the fee will be set to 20% of the total interest\n\t\t\tgenerated since the last harvest\n\n\t\t@param ICToken _cToken: the underlying c token\n\n\t\t@return uint[3]:\n\t\t\tarr[0]: total supply at end of execution\n\t\t\tarr[1]: value returned by cToken.exchangeRateStored()\n\t\t\tarr[2]: this contract's balance of cTokens\n\t*/\n\tfunction internalHarvestToTreasury(ICToken _cToken) internal returns(uint[3] memory) {\n\t\tuint _lastHarvest = internalLastHarvest;\n\t\tuint prevTotalSupply = internalTotalSupply;\n\t\tuint contractControlled;\n\t\tuint exchangeRate;\n\t\tuint contractBalance;\n\t\t{\n\t\t\texchangeRate = _cToken.exchangeRateStored();\t\t\t\n\t\t\tif (prevTotalSupply == 0) {\n\t\t\t\treturn [0, exchangeRate, 0];\n\t\t\t}\n\t\t\tcontractBalance = _cToken.balanceOf(address(this));\n\t\t\tif (block.timestamp == _lastHarvest) {\n\t\t\t\treturn [prevTotalSupply, exchangeRate, contractBalance];\n\t\t\t}\n\t\t\tcontractControlled = contractBalance.mul(exchangeRate) / (1 ether);\n\t\t}\n\t\tuint _prevRatio = internalPrevRatio;\n\t\t//time in years\n\t\t/*\n\t\t\tnextBalance == contractControlled * ((totalBips-bipsToTreasury)/totalBips)**t\n\t\t\tprevTotalSupply*contractControlled/totalSupply == contractControlled * ((totalBips-bipsToTreasury)/totalBips)**t\n\t\t\tprevTotalSupply/totalSupply == ((totalBips-bipsToTreasury)/totalBips)**t\n\t\t\ttotalSupply == prevTotalSupply*((totalBips-bipsToTreasury)/totalBips)**(-t)\n\t\t*/\n\t\tuint effectiveRatio = uint(1 ether).mul(contractControlled);\n\t\tuint nonFeeAdjustedRatio = effectiveRatio.div(prevTotalSupply);\n\t\tif (nonFeeAdjustedRatio <= _prevRatio) {\n\t\t\t//only continue if yield has been generated\n\t\t\treturn [prevTotalSupply, exchangeRate, contractBalance];\n\t\t}\n\t\tuint minNewRatio = (nonFeeAdjustedRatio - _prevRatio).mul(minHarvestRetention).div(totalSBPS).add(_prevRatio);\n\t\tint128 time = int128(((block.timestamp - _lastHarvest) << 64)/ BigMath.SecondsPerYear);\n\t\tuint term = uint(BigMath.Pow(int128((uint(SBPSRetained) << 64) / totalSBPS), time.neg()));\n\t\tuint newTotalSupply = prevTotalSupply.mul(term) >> 64;\n\t\teffectiveRatio = effectiveRatio.div(newTotalSupply);\n\t\tif (effectiveRatio < minNewRatio) {\n\t\t\t/*\n\t\t\t\tratio == contractControlled/internalTotalSupply\n\t\t\t\tinternalTotalSupply == contractBalance/ratio\n\t\t\t*/\n\t\t\tnewTotalSupply = contractControlled.mul(1 ether).div(minNewRatio);\n\t\t\tinternalPrevRatio = minNewRatio;\n\t\t}\n\t\telse {\n\t\t\tinternalPrevRatio = effectiveRatio;\n\t\t}\n\t\tinternalLastHarvest = block.timestamp;\n\t\tuint dividend = newTotalSupply.sub(prevTotalSupply);\n\t\tIInfoOracle iorc = IInfoOracle(internalInfoOracleAddress);\n\t\taddress _owner = owner;\n\t\tif (iorc.TreasuryFeeIsCollected()) {\n\t\t\taddress sendTo = iorc.sendTo();\n\t\t\tinternalBalanceOf[sendTo] = internalBalanceOf[sendTo].add(dividend >> 1);\n\t\t\tinternalBalanceOf[_owner] = internalBalanceOf[_owner].add(dividend - (dividend >> 1));\n\t\t}\n\t\telse {\n\t\t\tinternalBalanceOf[_owner] = internalBalanceOf[_owner].add(dividend);\n\t\t}\n\t\tinternalTotalSupply = newTotalSupply;\n\t\treturn [newTotalSupply, exchangeRate, contractBalance];\n\t}\n\n\t/*\n\t\t@Description: make first deposit into contract, internalTotalSupply must == 0\n\t\t\n\t\t@param address _to: the address that shall receive the newly minted wrapped tokens\n\t\t@param uint _amountCToken: the amount of cToken to deposit\n\n\t\t@return uint _amountWrappedToken: the amount of wrapped tokens that were minted\n\t*/\n\tfunction firstDeposit(address _to, uint _amountCToken, ICToken _cToken) internal returns (uint _amountWrappedToken) {\n\t\trequire(_amountCToken >= 10**uint(_cToken.decimals()));\n\t\tIERC20(address(_cToken)).safeTransferFrom(msg.sender, address(this), _amountCToken);\n\t\tinternalBalanceOf[_to] = _amountCToken;\n\t\tinternalTotalSupply = _amountCToken;\n\t\t_amountWrappedToken = _amountCToken;\n\t\tinternalLastHarvest = block.timestamp;\n\t\tinternalPrevRatio = _cToken.exchangeRateStored();\n\t}\n\n\n\t/*\n\t\t@Description: send in a specific amount of underlying asset, receive wrapped asset\n\n\t\t@param address _to: the address that shall receive the newly minted wrapped tokens\n\t\t@param uint _amount: the amount of underlying asset units to deposit\n\t*/\n\tfunction depositUnitAmount(address _to, uint _amount) external noReentry claimRewards(true, _to) returns (uint _amountWrapped) {\n\t\tICToken cToken = ICToken(internalUnderlyingAssetAddress);\n\t\t(uint _totalSupply, uint exchangeRate, uint contractBalance) = extractRetsHarvestToTreasury(cToken);\n\t\tuint cTokenIn = _amount.mul(1 ether).div(exchangeRate);\n\t\tif (_totalSupply == 0) {\n\t\t\treturn firstDeposit(_to, cTokenIn, cToken);\n\t\t}\n\t\t_amountWrapped = cTokenIn.mul(_totalSupply).div(contractBalance);\n\t\taddress toCopy = _to; //prevent stack too deep\n\t\tinternalBalanceOf[toCopy] = internalBalanceOf[toCopy].add(_amountWrapped);\n\t\t//we cannot use _totalSupply as internalTotalSupply was set in harvestToTreasury\n\t\tinternalTotalSupply = internalTotalSupply.add(_amountWrapped);\n\t\tIERC20(address(cToken)).safeTransferFrom(msg.sender, address(this), cTokenIn);\n\t}\n\n\t/*\n\t\t@Description: send in underlying asset, receive a specific amount of wrapped asset\n\n\t\t@param address _to: the address that shall receive the newly minted wrapped tokens\n\t\t@param uint _amount: the amount of wrapped asset units to mint\n\t*/\n\tfunction depositWrappedAmount(address _to, uint _amount) external noReentry claimRewards(true, _to) returns (uint _amountUnit) {\n\t\tICToken cToken = ICToken(internalUnderlyingAssetAddress);\n\t\t(uint _totalSupply, uint exchangeRate, uint contractBalance) = extractRetsHarvestToTreasury(cToken);\n\t\tif (_totalSupply == 0) {\n\t\t\treturn firstDeposit(_to, _amount, cToken);\n\t\t}\n\t\tuint cTokenIn = contractBalance.mul(_amount);\n\t\t\tcTokenIn = cTokenIn.div(_totalSupply).add(1);\n\t\t_amountUnit = cTokenIn.mul(exchangeRate).div(1 ether);\n\t\taddress toCopy = _to; //prevent stack too deep\n\t\tinternalBalanceOf[toCopy] = internalBalanceOf[toCopy].add(_amount);\n\t\t//we cannot use _totalSupply as internalTotalSupply was set in harvestToTreasury\n\t\tinternalTotalSupply = internalTotalSupply.add(_amount);\n\t\tIERC20(address(cToken)).safeTransferFrom(msg.sender, address(this), cTokenIn);\n\t}\n\n\tevent EVNT(uint its);\n\n\t/*\n\t\t@Description: burn wrapped asset to receive an amount of underlying asset of _amountUnit\n\n\t\t@param address _to: the address that shall receive the underlying asset\n\t\t@param uint _amountUnit: the amount of underlying asset units to withdraw\n\n\t\t@return uint _amountWrappedToken: the amount of units of wrapped asset that were burned\n\t*/\n\tfunction withdrawUnitAmount(address _to, uint _amountUnit, bool _claimRewards) external noReentry claimRewards(_claimRewards, msg.sender) returns (uint _amountWrappedToken) {\n\t\tICToken cToken = ICToken(internalUnderlyingAssetAddress);\n\t\t(uint _totalSupply, uint exchangeRate, uint contractBalance) = extractRetsHarvestToTreasury(cToken);\n\t\t//_amountWrappedToken == ceil(internalTotalSupply*_amountUnit/contractBalance)\n\t\tuint amountCToken = _amountUnit;\n\t\t\tamountCToken = amountCToken.mul(1 ether).div(exchangeRate); //prevent stack too deep\n\t\t_amountWrappedToken = amountCToken.mul(_totalSupply).div(contractBalance);\n\t\tuint bal = internalBalanceOf[msg.sender];\n\t\tinternalBalanceOf[msg.sender] = bal.sub(_amountWrappedToken);\n\t\tinternalTotalSupply = internalTotalSupply.sub(_amountWrappedToken);\n\t\taddress copyTo = _to; //prevent stack too deep\n\t\tIERC20(address(cToken)).safeTransfer(copyTo, amountCToken.sub(1)); //subtract 1 to offset any rounding errors\n\t}\n\n\t/*\n\t\t@Description: burn a specific amount of wrappet asset to get out underlying asset\n\n\t\t@param address _to: the address that shall receive the underlying asset\n\t\t@param uint _amountWrappedToken: the amount of units of wrappet asset to burn\n\n\t\t@return uint _amountUnit: the amount of underlying asset received\n\t*/\n\tfunction withdrawWrappedAmount(address _to, uint _amountWrappedToken, bool _claimRewards) external noReentry claimRewards(_claimRewards, msg.sender) returns (uint _amountUnit) {\n\t\trequire(internalBalanceOf[msg.sender] >= _amountWrappedToken);\n\t\tICToken cToken = ICToken(internalUnderlyingAssetAddress);\n\t\tinternalHarvestToTreasury(cToken);\n\t\tuint contractBalance = cToken.balanceOf(address(this));\n\t\tuint cTokenOut = contractBalance.mul(_amountWrappedToken).div(internalTotalSupply);\n\t\tinternalBalanceOf[msg.sender] = internalBalanceOf[msg.sender].sub(_amountWrappedToken);\n\t\tinternalTotalSupply = internalTotalSupply.sub(_amountWrappedToken);\n\t\tIERC20(address(cToken)).safeTransfer(_to, cTokenOut);\n\t\t_amountUnit = cTokenOut.mul(cToken.exchangeRateStored()).div(1 ether);\n\t}\n\n\tfunction forceRewardsCollection() external noReentry claimRewards(true, msg.sender) {}\n\n\t/*\n\t\t@Description: convert an amount of underlying asset to its corresponding amount of wrapped asset, round down\n\n\t\t@param uint _amountUnit: the amount of underlying asset to convert\n\n\t\t@return uint _amountWrappedToken: the greatest amount of wrapped asset that is <= _amountUnit underlying asset\n\t*/\n\tfunction UnitAmtToWrappedAmt_RoundDown(uint _amountUnit) internal view returns (uint _amountWrappedToken) {\n\t\tuint ratio = getRatio();\n\t\t/*\n\t\t\tratio == amountUnit/amountWrapped\n\t\t\tamountWrapped == amountUnit/ratio\n\t\t*/\n\t\t_amountWrappedToken = _amountUnit.mul(1 ether).div(ratio);\n\t}\n\n\t/*\n\t\t@Description: convert an amount of underlying asset to its corresponding amount of wrapped asset, round up\n\n\t\t@param uint _amountUnit: the amount of underlying asset to convert\n\n\t\t@return uint _amountWrappedToken: the smallest amount of wrapped asset that is >= _amountUnit underlying asset\n\t*/\n\tfunction UnitAmtToWrappedAmt_RoundUp(uint _amountUnit) internal view returns (uint _amountWrappedToken) {\n\t\tuint ratio = getRatio();\n\t\t/*\n\t\t\tratio == amountUnit/amountWrapped\n\t\t\tamountWrapped == amountUnit/ratio\n\t\t*/\n\t\t_amountWrappedToken = _amountUnit.mul(1 ether);\n\t\t_amountWrappedToken = _amountWrappedToken/ratio + (_amountWrappedToken%ratio == 0 ? 0 : 1);\n\t}\n\n\t/*\n\t\t@Description: convert an amount of wrapped asset to its corresponding amount of underlying asset, round down\n\n\t\t@oaram unit _amountWrappedToken: the amount of wrapped asset to convert\n\n\t\t@return uint _amountWrappedToken: the greatest amount of underlying asset that is <= _amountWrapped wrapped asset\n\t*/\n\tfunction WrappedAmtToUnitAmt_RoundDown(uint _amountWrappedToken) internal view returns (uint _amountUnit) {\n\t\tuint ratio = getRatio();\n\t\t/*\n\t\t\tratio == amountUnit/amountWrapped\n\t\t\tamountUnit == amountWrapped * ratio\n\t\t*/\n\t\t_amountUnit = _amountWrappedToken.mul(ratio)/(1 ether);\n\t}\n\n\t/*\n\t\t@Description: convert an amount of wrapped asset to its corresponding amount of underlying asset, round up\n\n\t\t@oaram unit _amountWrappedToken: the amount of wrapped asset to convert\n\n\t\t@return uint _amountWrappedToken: the smallest amount of underlying asset that is >= _amountWrapped wrapped asset\n\t*/\n\tfunction WrappedAmtToUnitAmt_RoundUp(uint _amountWrappedToken) internal view returns (uint _amountUnit) {\n\t\tuint ratio = getRatio();\n\t\t/*\n\t\t\tratio == amountUnit/amountWrapped\n\t\t\tamountUnit == amountWrapped * ratio\n\t\t*/\n\t\t_amountUnit = _amountWrappedToken.mul(ratio);\n\t\t_amountUnit = _amountUnit/(1 ether) + (_amountUnit%(1 ether) == 0 ? 0 : 1);\n\t}\n\n}",
  "sourcePath": "/home/asher/FixFinanceV1/contracts/Wrappers/CTokenWrapper/CTokenWrapperDelegate1.sol",
  "compiler": {
    "name": "solc",
    "version": "0.6.8+commit.0bbfe453.Emscripten.clang"
  },
  "schemaVersion": "3.4.1",
  "updatedAt": "2021-11-26T19:15:55.877Z",
  "devdoc": {
    "methods": {}
  },
  "userdoc": {
    "methods": {}
  }
}