{
  "contractName": "CTokenWrapperDeployer",
  "abi": [
    {
      "inputs": [
        {
          "internalType": "address",
          "name": "_infoOracleAddress",
          "type": "address"
        },
        {
          "internalType": "address",
          "name": "_delegate1Address",
          "type": "address"
        },
        {
          "internalType": "address",
          "name": "_delegate2Address",
          "type": "address"
        },
        {
          "internalType": "address",
          "name": "_delegate3Address",
          "type": "address"
        }
      ],
      "stateMutability": "nonpayable",
      "type": "constructor"
    },
    {
      "inputs": [],
      "name": "InfoOracleAddress",
      "outputs": [
        {
          "internalType": "address",
          "name": "",
          "type": "address"
        }
      ],
      "stateMutability": "view",
      "type": "function"
    },
    {
      "inputs": [
        {
          "internalType": "address",
          "name": "_underlyingAssetAddress",
          "type": "address"
        },
        {
          "internalType": "address",
          "name": "_owner",
          "type": "address"
        }
      ],
      "name": "deploy",
      "outputs": [
        {
          "internalType": "address",
          "name": "wrapperAddress",
          "type": "address"
        }
      ],
      "stateMutability": "nonpayable",
      "type": "function"
    }
  ],
  "bytecode": "0x608060405234801561001057600080fd5b50604051615da6380380615da68339818101604052608081101561003357600080fd5b8101908080519060200190929190805190602001909291908051906020019092919080519060200190929190505050836000806101000a81548173ffffffffffffffffffffffffffffffffffffffff021916908373ffffffffffffffffffffffffffffffffffffffff16021790555082600160006101000a81548173ffffffffffffffffffffffffffffffffffffffff021916908373ffffffffffffffffffffffffffffffffffffffff16021790555081600260006101000a81548173ffffffffffffffffffffffffffffffffffffffff021916908373ffffffffffffffffffffffffffffffffffffffff16021790555080600360006101000a81548173ffffffffffffffffffffffffffffffffffffffff021916908373ffffffffffffffffffffffffffffffffffffffff16021790555050505050615c2e806101786000396000f3fe608060405234801561001057600080fd5b50600436106100365760003560e01c8063521f8d9a1461003b578063545e7c6114610085575b600080fd5b610043610129565b604051808273ffffffffffffffffffffffffffffffffffffffff1673ffffffffffffffffffffffffffffffffffffffff16815260200191505060405180910390f35b6100e76004803603604081101561009b57600080fd5b81019080803573ffffffffffffffffffffffffffffffffffffffff169060200190929190803573ffffffffffffffffffffffffffffffffffffffff16906020019092919050505061014e565b604051808273ffffffffffffffffffffffffffffffffffffffff1673ffffffffffffffffffffffffffffffffffffffff16815260200191505060405180910390f35b6000809054906101000a900473ffffffffffffffffffffffffffffffffffffffff1681565b6000826000809054906101000a900473ffffffffffffffffffffffffffffffffffffffff16600160009054906101000a900473ffffffffffffffffffffffffffffffffffffffff16600260009054906101000a900473ffffffffffffffffffffffffffffffffffffffff16600360009054906101000a900473ffffffffffffffffffffffffffffffffffffffff16620f3e586040516101ec906103bd565b808773ffffffffffffffffffffffffffffffffffffffff1673ffffffffffffffffffffffffffffffffffffffff1681526020018673ffffffffffffffffffffffffffffffffffffffff1673ffffffffffffffffffffffffffffffffffffffff1681526020018573ffffffffffffffffffffffffffffffffffffffff1673ffffffffffffffffffffffffffffffffffffffff1681526020018473ffffffffffffffffffffffffffffffffffffffff1673ffffffffffffffffffffffffffffffffffffffff1681526020018373ffffffffffffffffffffffffffffffffffffffff1673ffffffffffffffffffffffffffffffffffffffff1681526020018263ffffffff1663ffffffff1681526020019650505050505050604051809103906000f08015801561031d573d6000803e3d6000fd5b5090508073ffffffffffffffffffffffffffffffffffffffff1663f2fde38b836040518263ffffffff1660e01b8152600401808273ffffffffffffffffffffffffffffffffffffffff1673ffffffffffffffffffffffffffffffffffffffff168152602001915050600060405180830381600087803b15801561039f57600080fd5b505af11580156103b3573d6000803e3d6000fd5b5050505092915050565b61582e806103cb8339019056fe60806040526103e8600155620f3e58600260006101000a81548163ffffffff021916908363ffffffff1602179055503480156200003b57600080fd5b506040516200582e3803806200582e833981810160405260c08110156200006157600080fd5b8101908080519060200190929190805190602001909291908051906020019092919080519060200190929190805190602001909291908051906020019092919050505033600060016101000a81548173ffffffffffffffffffffffffffffffffffffffff021916908373ffffffffffffffffffffffffffffffffffffffff16021790555060008163ffffffff161180156200010b5750620f424063ffffffff168163ffffffff1611155b6200011557600080fd5b85600260046101000a81548173ffffffffffffffffffffffffffffffffffffffff021916908373ffffffffffffffffffffffffffffffffffffffff1602179055508573ffffffffffffffffffffffffffffffffffffffff1663313ce5676040518163ffffffff1660e01b815260040160206040518083038186803b1580156200019d57600080fd5b505afa158015620001b2573d6000803e3d6000fd5b505050506040513d6020811015620001c957600080fd5b8101908080519060200190929190505050600460006101000a81548160ff021916908360ff1602179055508573ffffffffffffffffffffffffffffffffffffffff166306fdde036040518163ffffffff1660e01b815260040160006040518083038186803b1580156200023b57600080fd5b505afa15801562000250573d6000803e3d6000fd5b505050506040513d6000823e3d601f19601f8201168201806040525060208110156200027b57600080fd5b81019080805160405193929190846401000000008211156200029c57600080fd5b83820191506020820185811115620002b357600080fd5b8251866001820283011164010000000082111715620002d157600080fd5b8083526020830192505050908051906020019080838360005b8381101562000307578082015181840152602081019050620002ea565b50505050905090810190601f168015620003355780820380516001836020036101000a031916815260200191505b5060405250505060405160200180807f777261707065642000000000000000000000000000000000000000000000000081525060080182805190602001908083835b602083106200039c578051825260208201915060208101905060208303925062000377565b6001836020036101000a03801982511681845116808217855250505050505090500191505060405160208183030381529060405260099080519060200190620003e79291906200070d565b508573ffffffffffffffffffffffffffffffffffffffff166395d89b416040518163ffffffff1660e01b815260040160006040518083038186803b1580156200042f57600080fd5b505afa15801562000444573d6000803e3d6000fd5b505050506040513d6000823e3d601f19601f8201168201806040525060208110156200046f57600080fd5b81019080805160405193929190846401000000008211156200049057600080fd5b83820191506020820185811115620004a757600080fd5b8251866001820283011164010000000082111715620004c557600080fd5b8083526020830192505050908051906020019080838360005b83811015620004fb578082015181840152602081019050620004de565b50505050905090810190601f168015620005295780820380516001836020036101000a031916815260200191505b5060405250505060405160200180807f770000000000000000000000000000000000000000000000000000000000000081525060010182805190602001908083835b602083106200059057805182526020820191506020810190506020830392506200056b565b6001836020036101000a038019825116818451168082178552505050505050905001915050604051602081830303815290604052600a9080519060200190620005db9291906200070d565b5084600460016101000a81548173ffffffffffffffffffffffffffffffffffffffff021916908373ffffffffffffffffffffffffffffffffffffffff16021790555083601660006101000a81548173ffffffffffffffffffffffffffffffffffffffff021916908373ffffffffffffffffffffffffffffffffffffffff16021790555082601760006101000a81548173ffffffffffffffffffffffffffffffffffffffff021916908373ffffffffffffffffffffffffffffffffffffffff16021790555081601860006101000a81548173ffffffffffffffffffffffffffffffffffffffff021916908373ffffffffffffffffffffffffffffffffffffffff16021790555080600260006101000a81548163ffffffff021916908363ffffffff160217905550505050505050620007bc565b828054600181600116156101000203166002900490600052602060002090601f016020900481019282601f106200075057805160ff191683800117855562000781565b8280016001018555821562000781579182015b828111156200078057825182559160200191906001019062000763565b5b50905062000790919062000794565b5090565b620007b991905b80821115620007b55760008160009055506001016200079b565b5090565b90565b61506280620007cc6000396000f3fe608060405234801561001057600080fd5b50600436106103775760003560e01c80636e23af2f116101d3578063c72bdfe711610104578063dd62ed3e116100a2578063f16866f31161007c578063f16866f314611460578063f1a392da146114a2578063f2fde38b146114c0578063ffb627d91461150457610377565b8063dd62ed3e1461135f578063e77668df146113d7578063e92d0d5d1461143257610377565b8063d319e75e116100de578063d319e75e14611287578063d9d98ce414611291578063db0c15f1146112f3578063dd2822631461135557610377565b8063c72bdfe71461119f578063cc48974f14611201578063d048f92f1461124357610377565b806389d1a0fc1161017157806395d89b411161014b57806395d89b4114611056578063a9059cbb146110d9578063c04637111461113f578063c6880e131461115d57610377565b806389d1a0fc14610f545780638ac5ac3d14610f9e5780638da5cb5b1461100c57610377565b806376022285116101ad5780637602228514610e865780637769269314610ea45780637c9dd78914610eae57806388c4ea7c14610f3257610377565b80636e23af2f14610d9057806370a0823114610dd257806374a75d9f14610e2a57610377565b80633605e0c7116102ad5780635128c0931161024b578063613255ab11610225578063613255ab14610c09578063645b00bd14610c6157806366fd0dfa14610c8f57806369402cc214610cf157610377565b80635128c09314610acc5780635cffe9de14610afa57806360a1b2d714610bd557610377565b80634847cdc8116102875780634847cdc81461098b5780634c7b57f0146109a95780634e69d56014610a175780635102e3e114610a3c57610377565b80633605e0c71461081157806336e5c5ad1461087f5780633e5b48ae1461091b57610377565b80631ecd2d911161031a5780632e3f4eab116102f45780632e3f4eab146106d95780632f5084661461071d578063302f17561461077f578063313ce567146107ed57610377565b80631ecd2d91146105f35780631f92c2ec1461061157806323b872dd1461065357610377565b8063095ea7b311610356578063095ea7b3146104e3578063108a91a21461054957806317d030b81461058b57806318160ddd146105d557610377565b806248e1cd1461037c5780630247c79c1461041e57806306fdde0314610460575b600080fd5b6104086004803603608081101561039257600080fd5b8101908080359060200190929190803573ffffffffffffffffffffffffffffffffffffffff169060200190929190803573ffffffffffffffffffffffffffffffffffffffff169060200190929190803573ffffffffffffffffffffffffffffffffffffffff16906020019092919050505061150e565b6040518082815260200191505060405180910390f35b61044a6004803603602081101561043457600080fd5b81019080803590602001909291905050506115e9565b6040518082815260200191505060405180910390f35b610468611622565b6040518080602001828103825283818151815260200191508051906020019080838360005b838110156104a857808201518184015260208101905061048d565b50505050905090810190601f1680156104d55780820380516001836020036101000a031916815260200191505b509250505060405180910390f35b61052f600480360360408110156104f957600080fd5b81019080803573ffffffffffffffffffffffffffffffffffffffff169060200190929190803590602001909291905050506116c4565b604051808215151515815260200191505060405180910390f35b6105756004803603602081101561055f57600080fd5b81019080803590602001909291905050506117b6565b6040518082815260200191505060405180910390f35b610593611811565b604051808273ffffffffffffffffffffffffffffffffffffffff1673ffffffffffffffffffffffffffffffffffffffff16815260200191505060405180910390f35b6105dd61183b565b6040518082815260200191505060405180910390f35b6105fb611845565b6040518082815260200191505060405180910390f35b61063d6004803603602081101561062757600080fd5b810190808035906020019092919050505061184f565b6040518082815260200191505060405180910390f35b6106bf6004803603606081101561066957600080fd5b81019080803573ffffffffffffffffffffffffffffffffffffffff169060200190929190803573ffffffffffffffffffffffffffffffffffffffff16906020019092919080359060200190929190505050611870565b604051808215151515815260200191505060405180910390f35b61071b600480360360208110156106ef57600080fd5b81019080803573ffffffffffffffffffffffffffffffffffffffff169060200190929190505050611ab5565b005b6107696004803603604081101561073357600080fd5b81019080803573ffffffffffffffffffffffffffffffffffffffff16906020019092919080359060200190929190505050611c54565b6040518082815260200191505060405180910390f35b6107d76004803603606081101561079557600080fd5b81019080803573ffffffffffffffffffffffffffffffffffffffff16906020019092919080359060200190929190803515159060200190929190505050611db7565b6040518082815260200191505060405180910390f35b6107f5611f27565b604051808260ff1660ff16815260200191505060405180910390f35b61083d6004803603602081101561082757600080fd5b8101908080359060200190929190505050611f3e565b604051808273ffffffffffffffffffffffffffffffffffffffff1673ffffffffffffffffffffffffffffffffffffffff16815260200191505060405180910390f35b6109016004803603606081101561089557600080fd5b81019080803573ffffffffffffffffffffffffffffffffffffffff169060200190929190803573ffffffffffffffffffffffffffffffffffffffff169060200190929190803573ffffffffffffffffffffffffffffffffffffffff169060200190929190505050611f7f565b604051808215151515815260200191505060405180910390f35b610989600480360360a081101561093157600080fd5b81019080803515159060200190929190803515159060200190929190803573ffffffffffffffffffffffffffffffffffffffff1690602001909291908035906020019092919080359060200190929190505050612051565b005b61099361221c565b6040518082815260200191505060405180910390f35b610a01600480360360608110156109bf57600080fd5b81019080803573ffffffffffffffffffffffffffffffffffffffff16906020019092919080359060200190929190803515159060200190929190505050612226565b6040518082815260200191505060405180910390f35b610a1f612396565b604051808381526020018281526020019250505060405180910390f35b610aca60048036036080811015610a5257600080fd5b81019080803515159060200190929190803573ffffffffffffffffffffffffffffffffffffffff169060200190929190803573ffffffffffffffffffffffffffffffffffffffff169060200190929190803573ffffffffffffffffffffffffffffffffffffffff1690602001909291905050506123aa565b005b610af860048036036020811015610ae257600080fd5b81019080803590602001909291905050506125c0565b005b610bbb60048036036080811015610b1057600080fd5b81019080803573ffffffffffffffffffffffffffffffffffffffff169060200190929190803573ffffffffffffffffffffffffffffffffffffffff1690602001909291908035906020019092919080359060200190640100000000811115610b7757600080fd5b820183602082011115610b8957600080fd5b80359060200191846001830284011164010000000083111715610bab57600080fd5b909192939192939050505061275d565b604051808215151515815260200191505060405180910390f35b610c0760048036036020811015610beb57600080fd5b81019080803563ffffffff1690602001909291905050506129c7565b005b610c4b60048036036020811015610c1f57600080fd5b81019080803573ffffffffffffffffffffffffffffffffffffffff169060200190929190505050612adc565b6040518082815260200191505060405180910390f35b610c8d60048036036020811015610c7757600080fd5b8101908080359060200190929190505050612b77565b005b610cdb60048036036040811015610ca557600080fd5b8101908080359060200190929190803573ffffffffffffffffffffffffffffffffffffffff169060200190929190505050612cea565b6040518082815260200191505060405180910390f35b610d7360048036036060811015610d0757600080fd5b81019080803573ffffffffffffffffffffffffffffffffffffffff169060200190929190803573ffffffffffffffffffffffffffffffffffffffff169060200190929190803573ffffffffffffffffffffffffffffffffffffffff169060200190929190505050612d49565b604051808381526020018281526020019250505060405180910390f35b610dbc60048036036020811015610da657600080fd5b81019080803590602001909291905050506130ab565b6040518082815260200191505060405180910390f35b610e1460048036036020811015610de857600080fd5b81019080803573ffffffffffffffffffffffffffffffffffffffff16906020019092919050505061310e565b6040518082815260200191505060405180910390f35b610e6c60048036036020811015610e4057600080fd5b81019080803573ffffffffffffffffffffffffffffffffffffffff169060200190929190505050613157565b604051808215151515815260200191505060405180910390f35b610e8e6131ad565b6040518082815260200191505060405180910390f35b610eac6131ba565b005b610f30600480360360a0811015610ec457600080fd5b81019080803515159060200190929190803573ffffffffffffffffffffffffffffffffffffffff169060200190929190803573ffffffffffffffffffffffffffffffffffffffff1690602001909291908035906020019092919080359060200190929190505050613321565b005b610f3a613514565b604051808215151515815260200191505060405180910390f35b610f5c613519565b604051808273ffffffffffffffffffffffffffffffffffffffff1673ffffffffffffffffffffffffffffffffffffffff16815260200191505060405180910390f35b610fca60048036036020811015610fb457600080fd5b8101908080359060200190929190505050613543565b604051808273ffffffffffffffffffffffffffffffffffffffff1673ffffffffffffffffffffffffffffffffffffffff16815260200191505060405180910390f35b611014613584565b604051808273ffffffffffffffffffffffffffffffffffffffff1673ffffffffffffffffffffffffffffffffffffffff16815260200191505060405180910390f35b61105e6135aa565b6040518080602001828103825283818151815260200191508051906020019080838360005b8381101561109e578082015181840152602081019050611083565b50505050905090810190601f1680156110cb5780820380516001836020036101000a031916815260200191505b509250505060405180910390f35b611125600480360360408110156110ef57600080fd5b81019080803573ffffffffffffffffffffffffffffffffffffffff1690602001909291908035906020019092919050505061364c565b604051808215151515815260200191505060405180910390f35b61114761385c565b6040518082815260200191505060405180910390f35b6111896004803603602081101561117357600080fd5b8101908080359060200190929190505050613864565b6040518082815260200191505060405180910390f35b6111eb600480360360408110156111b557600080fd5b8101908080359060200190929190803573ffffffffffffffffffffffffffffffffffffffff169060200190929190505050613885565b6040518082815260200191505060405180910390f35b61122d6004803603602081101561121757600080fd5b81019080803590602001909291905050506138e4565b6040518082815260200191505060405180910390f35b6112856004803603602081101561125957600080fd5b81019080803573ffffffffffffffffffffffffffffffffffffffff169060200190929190505050613905565b005b61128f613cec565b005b6112dd600480360360408110156112a757600080fd5b81019080803573ffffffffffffffffffffffffffffffffffffffff16906020019092919080359060200190929190505050613e95565b6040518082815260200191505060405180910390f35b61133f6004803603604081101561130957600080fd5b81019080803573ffffffffffffffffffffffffffffffffffffffff16906020019092919080359060200190929190505050613efe565b6040518082815260200191505060405180910390f35b61135d614061565b005b6113c16004803603604081101561137557600080fd5b81019080803573ffffffffffffffffffffffffffffffffffffffff169060200190929190803573ffffffffffffffffffffffffffffffffffffffff1690602001909291905050506140bb565b6040518082815260200191505060405180910390f35b61143060048036036101008110156113ee57600080fd5b81019080803515159060200190929190803515159060200190929190806040019091929192908060400190919291929080604001909192919290505050614142565b005b61145e6004803603602081101561144857600080fd5b8101908080359060200190929190505050614332565b005b61148c6004803603602081101561147657600080fd5b81019080803590602001909291905050506143ff565b6040518082815260200191505060405180910390f35b6114aa614441565b6040518082815260200191505060405180910390f35b611502600480360360208110156114d657600080fd5b81019080803573ffffffffffffffffffffffffffffffffffffffff16906020019092919050505061444b565b005b61150c614587565b005b60006015858154811061151d57fe5b9060005260206000200160008573ffffffffffffffffffffffffffffffffffffffff1673ffffffffffffffffffffffffffffffffffffffff16815260200190815260200160002060008473ffffffffffffffffffffffffffffffffffffffff1673ffffffffffffffffffffffffffffffffffffffff16815260200190815260200160002060008373ffffffffffffffffffffffffffffffffffffffff1673ffffffffffffffffffffffffffffffffffffffff168152602001908152602001600020549050949350505050565b6000806115f4614591565b9050670de0b6b3a764000061161282856147d590919063ffffffff16565b8161161957fe5b04915050919050565b606060098054600181600116156101000203166002900480601f0160208091040260200160405190810160405280929190818152602001828054600181600116156101000203166002900480156116ba5780601f1061168f576101008083540402835291602001916116ba565b820191906000526020600020905b81548152906001019060200180831161169d57829003601f168201915b5050505050905090565b600081600860003373ffffffffffffffffffffffffffffffffffffffff1673ffffffffffffffffffffffffffffffffffffffff16815260200190815260200160002060008573ffffffffffffffffffffffffffffffffffffffff1673ffffffffffffffffffffffffffffffffffffffff168152602001908152602001600020819055508273ffffffffffffffffffffffffffffffffffffffff163373ffffffffffffffffffffffffffffffffffffffff167f8c5be1e5ebec7d5bd14f71427d1e84f3dd0314c0f7b2291e5b200ac8c7c3b925846040518082815260200191505060405180910390a36001905092915050565b6000806117c1614591565b90506117de670de0b6b3a7640000846147d590919063ffffffff16565b915060008183816117eb57fe5b06146117f85760016117fb565b60005b60ff1681838161180757fe5b0401915050919050565b6000600460019054906101000a900473ffffffffffffffffffffffffffffffffffffffff16905090565b6000600654905090565b6000600354905090565b6000600e828154811061185e57fe5b90600052602060002001549050919050565b6000601860009054906101000a900473ffffffffffffffffffffffffffffffffffffffff1673ffffffffffffffffffffffffffffffffffffffff16848484604051602401808473ffffffffffffffffffffffffffffffffffffffff1673ffffffffffffffffffffffffffffffffffffffff1681526020018373ffffffffffffffffffffffffffffffffffffffff1673ffffffffffffffffffffffffffffffffffffffff16815260200182815260200193505050506040516020818303038152906040527f23b872dd000000000000000000000000000000000000000000000000000000007bffffffffffffffffffffffffffffffffffffffffffffffffffffffff19166020820180517bffffffffffffffffffffffffffffffffffffffffffffffffffffffff83818316178352505050506040518082805190602001908083835b602083106119d457805182526020820191506020810190506020830392506119b1565b6001836020036101000a038019825116818451168082178552505050505050905001915050600060405180830381855af49150503d8060008114611a34576040519150601f19603f3d011682016040523d82523d6000602084013e611a39565b606091505b50508091505080611a4957600080fd5b8273ffffffffffffffffffffffffffffffffffffffff168473ffffffffffffffffffffffffffffffffffffffff167fddf252ad1be2c89b69c2b068fc378daa952ba7f163c4a11628f55a4df523b3ef846040518082815260200191505060405180910390a39392505050565b6000601860009054906101000a900473ffffffffffffffffffffffffffffffffffffffff1673ffffffffffffffffffffffffffffffffffffffff1682604051602401808273ffffffffffffffffffffffffffffffffffffffff1673ffffffffffffffffffffffffffffffffffffffff1681526020019150506040516020818303038152906040527f2e3f4eab000000000000000000000000000000000000000000000000000000007bffffffffffffffffffffffffffffffffffffffffffffffffffffffff19166020820180517bffffffffffffffffffffffffffffffffffffffffffffffffffffffff83818316178352505050506040518082805190602001908083835b60208310611bdd5780518252602082019150602081019050602083039250611bba565b6001836020036101000a038019825116818451168082178552505050505050905001915050600060405180830381855af49150503d8060008114611c3d576040519150601f19603f3d011682016040523d82523d6000602084013e611c42565b606091505b5050905080611c5057600080fd5b5050565b600080601660009054906101000a900473ffffffffffffffffffffffffffffffffffffffff16905060608484604051602401808373ffffffffffffffffffffffffffffffffffffffff1673ffffffffffffffffffffffffffffffffffffffff168152602001828152602001925050506040516020818303038152906040527f2f508466000000000000000000000000000000000000000000000000000000007bffffffffffffffffffffffffffffffffffffffffffffffffffffffff19166020820180517bffffffffffffffffffffffffffffffffffffffffffffffffffffffff83818316178352505050509050604051602081835160208501865af480611d5b57600080fd5b8151945050508473ffffffffffffffffffffffffffffffffffffffff167fe1fffcc4923d04b559f4d29a8bfc6cda04eb5b0d3c460751c2402c5c5cc9109c846040518082815260200191505060405180910390a2505092915050565b600080601660009054906101000a900473ffffffffffffffffffffffffffffffffffffffff1690506060858585604051602401808473ffffffffffffffffffffffffffffffffffffffff1673ffffffffffffffffffffffffffffffffffffffff1681526020018381526020018215151515815260200193505050506040516020818303038152906040527f302f1756000000000000000000000000000000000000000000000000000000007bffffffffffffffffffffffffffffffffffffffffffffffffffffffff19166020820180517bffffffffffffffffffffffffffffffffffffffffffffffffffffffff83818316178352505050509050604051602081835160208501865af480611eca57600080fd5b8151945050508573ffffffffffffffffffffffffffffffffffffffff167f7fcf532c15f0a6db0bd6d0e038bea71d30d808c7d98cb3bf7268a95bf5081b65866040518082815260200191505060405180910390a250509392505050565b6000600460009054906101000a900460ff16905090565b6000600c8281548110611f4d57fe5b9060005260206000200160009054906101000a900473ffffffffffffffffffffffffffffffffffffffff169050919050565b6000601460008573ffffffffffffffffffffffffffffffffffffffff1673ffffffffffffffffffffffffffffffffffffffff16815260200190815260200160002060008473ffffffffffffffffffffffffffffffffffffffff1673ffffffffffffffffffffffffffffffffffffffff16815260200190815260200160002060008373ffffffffffffffffffffffffffffffffffffffff1673ffffffffffffffffffffffffffffffffffffffff16815260200190815260200160002060009054906101000a900460ff1690509392505050565b6000601760009054906101000a900473ffffffffffffffffffffffffffffffffffffffff1673ffffffffffffffffffffffffffffffffffffffff1686868686866040516024018086151515158152602001851515151581526020018473ffffffffffffffffffffffffffffffffffffffff1673ffffffffffffffffffffffffffffffffffffffff168152602001838152602001828152602001955050505050506040516020818303038152906040527f3e5b48ae000000000000000000000000000000000000000000000000000000007bffffffffffffffffffffffffffffffffffffffffffffffffffffffff19166020820180517bffffffffffffffffffffffffffffffffffffffffffffffffffffffff83818316178352505050506040518082805190602001908083835b602083106121a1578051825260208201915060208101905060208303925061217e565b6001836020036101000a038019825116818451168082178552505050505050905001915050600060405180830381855af49150503d8060008114612201576040519150601f19603f3d011682016040523d82523d6000602084013e612206565b606091505b505090508061221457600080fd5b505050505050565b6000600154905090565b600080601660009054906101000a900473ffffffffffffffffffffffffffffffffffffffff1690506060858585604051602401808473ffffffffffffffffffffffffffffffffffffffff1673ffffffffffffffffffffffffffffffffffffffff1681526020018381526020018215151515815260200193505050506040516020818303038152906040527f4c7b57f0000000000000000000000000000000000000000000000000000000007bffffffffffffffffffffffffffffffffffffffffffffffffffffffff19166020820180517bffffffffffffffffffffffffffffffffffffffffffffffffffffffff83818316178352505050509050604051602081835160208501865af48061233957600080fd5b8151945050503373ffffffffffffffffffffffffffffffffffffffff167f7fcf532c15f0a6db0bd6d0e038bea71d30d808c7d98cb3bf7268a95bf5081b65846040518082815260200191505060405180910390a250509392505050565b600080426123a2614591565b915091509091565b6000601760009054906101000a900473ffffffffffffffffffffffffffffffffffffffff1673ffffffffffffffffffffffffffffffffffffffff168585858560405160240180851515151581526020018473ffffffffffffffffffffffffffffffffffffffff1673ffffffffffffffffffffffffffffffffffffffff1681526020018373ffffffffffffffffffffffffffffffffffffffff1673ffffffffffffffffffffffffffffffffffffffff1681526020018273ffffffffffffffffffffffffffffffffffffffff1673ffffffffffffffffffffffffffffffffffffffff1681526020019450505050506040516020818303038152906040527f5102e3e1000000000000000000000000000000000000000000000000000000007bffffffffffffffffffffffffffffffffffffffffffffffffffffffff19166020820180517bffffffffffffffffffffffffffffffffffffffffffffffffffffffff83818316178352505050506040518082805190602001908083835b602083106125465780518252602082019150602081019050602083039250612523565b6001836020036101000a038019825116818451168082178552505050505050905001915050600060405180830381855af49150503d80600081146125a6576040519150601f19603f3d011682016040523d82523d6000602084013e6125ab565b606091505b50509050806125b957600080fd5b5050505050565b600060019054906101000a900473ffffffffffffffffffffffffffffffffffffffff1673ffffffffffffffffffffffffffffffffffffffff163373ffffffffffffffffffffffffffffffffffffffff1614612683576040517f08c379a000000000000000000000000000000000000000000000000000000000815260040180806020018281038252600a8152602001807f6f6e6c79206f776e65720000000000000000000000000000000000000000000081525060200191505060405180910390fd5b6000600b80549050905080821061269957600080fd5b600c82815481106126a657fe5b9060005260206000200160009054906101000a900473ffffffffffffffffffffffffffffffffffffffff16600b83815481106126de57fe5b9060005260206000200160006101000a81548173ffffffffffffffffffffffffffffffffffffffff021916908373ffffffffffffffffffffffffffffffffffffffff160217905550600e828154811061273357fe5b9060005260206000200154600f838154811061274b57fe5b90600052602060002001819055505050565b6000806000809054906101000a900460ff1660ff161461277c57600080fd5b60016000806101000a81548160ff021916908360ff1602179055506000601760009054906101000a900473ffffffffffffffffffffffffffffffffffffffff1673ffffffffffffffffffffffffffffffffffffffff168787878787604051602401808673ffffffffffffffffffffffffffffffffffffffff1673ffffffffffffffffffffffffffffffffffffffff1681526020018573ffffffffffffffffffffffffffffffffffffffff1673ffffffffffffffffffffffffffffffffffffffff168152602001848152602001806020018281038252848482818152602001925080828437600081840152601f19601f82011690508083019250505096505050505050506040516020818303038152906040527f5cffe9de000000000000000000000000000000000000000000000000000000007bffffffffffffffffffffffffffffffffffffffffffffffffffffffff19166020820180517bffffffffffffffffffffffffffffffffffffffffffffffffffffffff83818316178352505050506040518082805190602001908083835b6020831061292f578051825260208201915060208101905060208303925061290c565b6001836020036101000a038019825116818451168082178552505050505050905001915050600060405180830381855af49150503d806000811461298f576040519150601f19603f3d011682016040523d82523d6000602084013e612994565b606091505b50509050806129a257600080fd5b5060008060006101000a81548160ff021916908360ff16021790555095945050505050565b600060019054906101000a900473ffffffffffffffffffffffffffffffffffffffff1673ffffffffffffffffffffffffffffffffffffffff163373ffffffffffffffffffffffffffffffffffffffff1614612a8a576040517f08c379a000000000000000000000000000000000000000000000000000000000815260040180806020018281038252600a8152602001807f6f6e6c79206f776e65720000000000000000000000000000000000000000000081525060200191505060405180910390fd5b60008163ffffffff16118015612aaf5750620f424063ffffffff168163ffffffff1611155b612ab857600080fd5b80600260006101000a81548163ffffffff021916908363ffffffff16021790555050565b60003073ffffffffffffffffffffffffffffffffffffffff168273ffffffffffffffffffffffffffffffffffffffff1614612b1657600080fd5b60006001549050612b6f612b3c620f424063ffffffff168361485b90919063ffffffff16565b6006547fffffffffffffffffffffffffffffffffffffffffffffffffffffffffffffffff036148e390919063ffffffff16565b915050919050565b6000601860009054906101000a900473ffffffffffffffffffffffffffffffffffffffff1673ffffffffffffffffffffffffffffffffffffffff1682604051602401808281526020019150506040516020818303038152906040527f645b00bd000000000000000000000000000000000000000000000000000000007bffffffffffffffffffffffffffffffffffffffffffffffffffffffff19166020820180517bffffffffffffffffffffffffffffffffffffffffffffffffffffffff83818316178352505050506040518082805190602001908083835b60208310612c735780518252602082019150602081019050602083039250612c50565b6001836020036101000a038019825116818451168082178552505050505050905001915050600060405180830381855af49150503d8060008114612cd3576040519150601f19603f3d011682016040523d82523d6000602084013e612cd8565b606091505b5050905080612ce657600080fd5b5050565b600060108381548110612cf957fe5b9060005260206000200160008373ffffffffffffffffffffffffffffffffffffffff1673ffffffffffffffffffffffffffffffffffffffff16815260200190815260200160002054905092915050565b6000808273ffffffffffffffffffffffffffffffffffffffff168573ffffffffffffffffffffffffffffffffffffffff161415612fb1573073ffffffffffffffffffffffffffffffffffffffff168373ffffffffffffffffffffffffffffffffffffffff1663ac210cc76040518163ffffffff1660e01b815260040160206040518083038186803b158015612ddd57600080fd5b505afa158015612df1573d6000803e3d6000fd5b505050506040513d6020811015612e0757600080fd5b810190808051906020019092919050505073ffffffffffffffffffffffffffffffffffffffff1614612e3857600080fd5b8273ffffffffffffffffffffffffffffffffffffffff1663bfd5105f856040518263ffffffff1660e01b8152600401808273ffffffffffffffffffffffffffffffffffffffff1673ffffffffffffffffffffffffffffffffffffffff16815260200191505060206040518083038186803b158015612eb557600080fd5b505afa158015612ec9573d6000803e3d6000fd5b505050506040513d6020811015612edf57600080fd5b810190808051906020019092919050505091508273ffffffffffffffffffffffffffffffffffffffff1663bf0994bf856040518263ffffffff1660e01b8152600401808273ffffffffffffffffffffffffffffffffffffffff1673ffffffffffffffffffffffffffffffffffffffff16815260200191505060206040518083038186803b158015612f6f57600080fd5b505afa158015612f83573d6000803e3d6000fd5b505050506040513d6020811015612f9957600080fd5b810190808051906020019092919050505090506130a3565b612fb9614fa1565b601360008773ffffffffffffffffffffffffffffffffffffffff1673ffffffffffffffffffffffffffffffffffffffff16815260200190815260200160002060008673ffffffffffffffffffffffffffffffffffffffff1673ffffffffffffffffffffffffffffffffffffffff16815260200190815260200160002060008573ffffffffffffffffffffffffffffffffffffffff1673ffffffffffffffffffffffffffffffffffffffff1681526020019081526020016000206040518060400160405290816000820154815260200160018201548152505090508060000151925080602001519150505b935093915050565b6000806130b6614591565b90506130cb81846147d590919063ffffffff16565b91506000670de0b6b3a764000083816130e057fe5b06146130ed5760016130f0565b60005b60ff16670de0b6b3a7640000838161310457fe5b0401915050919050565b6000600760008373ffffffffffffffffffffffffffffffffffffffff1673ffffffffffffffffffffffffffffffffffffffff168152602001908152602001600020549050919050565b6000601260008373ffffffffffffffffffffffffffffffffffffffff1673ffffffffffffffffffffffffffffffffffffffff16815260200190815260200160002060009054906101000a900460ff169050919050565b6000600b80549050905090565b6000601660009054906101000a900473ffffffffffffffffffffffffffffffffffffffff1673ffffffffffffffffffffffffffffffffffffffff166040516024016040516020818303038152906040527f77692693000000000000000000000000000000000000000000000000000000007bffffffffffffffffffffffffffffffffffffffffffffffffffffffff19166020820180517bffffffffffffffffffffffffffffffffffffffffffffffffffffffff83818316178352505050506040518082805190602001908083835b602083106132ab5780518252602082019150602081019050602083039250613288565b6001836020036101000a038019825116818451168082178552505050505050905001915050600060405180830381855af49150503d806000811461330b576040519150601f19603f3d011682016040523d82523d6000602084013e613310565b606091505b505090508061331e57600080fd5b50565b6000601760009054906101000a900473ffffffffffffffffffffffffffffffffffffffff1673ffffffffffffffffffffffffffffffffffffffff16868686868660405160240180861515151581526020018573ffffffffffffffffffffffffffffffffffffffff1673ffffffffffffffffffffffffffffffffffffffff1681526020018473ffffffffffffffffffffffffffffffffffffffff1673ffffffffffffffffffffffffffffffffffffffff168152602001838152602001828152602001955050505050506040516020818303038152906040527f7c9dd789000000000000000000000000000000000000000000000000000000007bffffffffffffffffffffffffffffffffffffffffffffffffffffffff19166020820180517bffffffffffffffffffffffffffffffffffffffffffffffffffffffff83818316178352505050506040518082805190602001908083835b602083106134995780518252602082019150602081019050602083039250613476565b6001836020036101000a038019825116818451168082178552505050505050905001915050600060405180830381855af49150503d80600081146134f9576040519150601f19603f3d011682016040523d82523d6000602084013e6134fe565b606091505b505090508061350c57600080fd5b505050505050565b600181565b6000600260049054906101000a900473ffffffffffffffffffffffffffffffffffffffff16905090565b6000600b828154811061355257fe5b9060005260206000200160009054906101000a900473ffffffffffffffffffffffffffffffffffffffff169050919050565b600060019054906101000a900473ffffffffffffffffffffffffffffffffffffffff1681565b6060600a8054600181600116156101000203166002900480601f0160208091040260200160405190810160405280929190818152602001828054600181600116156101000203166002900480156136425780601f1061361757610100808354040283529160200191613642565b820191906000526020600020905b81548152906001019060200180831161362557829003601f168201915b5050505050905090565b6000601860009054906101000a900473ffffffffffffffffffffffffffffffffffffffff1673ffffffffffffffffffffffffffffffffffffffff168383604051602401808373ffffffffffffffffffffffffffffffffffffffff1673ffffffffffffffffffffffffffffffffffffffff168152602001828152602001925050506040516020818303038152906040527fa9059cbb000000000000000000000000000000000000000000000000000000007bffffffffffffffffffffffffffffffffffffffffffffffffffffffff19166020820180517bffffffffffffffffffffffffffffffffffffffffffffffffffffffff83818316178352505050506040518082805190602001908083835b6020831061377c5780518252602082019150602081019050602083039250613759565b6001836020036101000a038019825116818451168082178552505050505050905001915050600060405180830381855af49150503d80600081146137dc576040519150601f19603f3d011682016040523d82523d6000602084013e6137e1565b606091505b505080915050806137f157600080fd5b8273ffffffffffffffffffffffffffffffffffffffff163373ffffffffffffffffffffffffffffffffffffffff167fddf252ad1be2c89b69c2b068fc378daa952ba7f163c4a11628f55a4df523b3ef846040518082815260200191505060405180910390a392915050565b600042905090565b6000600d828154811061387357fe5b90600052602060002001549050919050565b60006011838154811061389457fe5b9060005260206000200160008373ffffffffffffffffffffffffffffffffffffffff1673ffffffffffffffffffffffffffffffffffffffff16815260200190815260200160002054905092915050565b6000600f82815481106138f357fe5b90600052602060002001549050919050565b600060019054906101000a900473ffffffffffffffffffffffffffffffffffffffff1673ffffffffffffffffffffffffffffffffffffffff163373ffffffffffffffffffffffffffffffffffffffff16146139c8576040517f08c379a000000000000000000000000000000000000000000000000000000000815260040180806020018281038252600a8152602001807f6f6e6c79206f776e65720000000000000000000000000000000000000000000081525060200191505060405180910390fd5b6000600b80549050905060008090505b818160ff161015613a63578273ffffffffffffffffffffffffffffffffffffffff16600c8260ff1681548110613a0a57fe5b9060005260206000200160009054906101000a900473ffffffffffffffffffffffffffffffffffffffff1673ffffffffffffffffffffffffffffffffffffffff161415613a5657600080fd5b80806001019150506139d8565b5060008273ffffffffffffffffffffffffffffffffffffffff166370a08231306040518263ffffffff1660e01b8152600401808273ffffffffffffffffffffffffffffffffffffffff1673ffffffffffffffffffffffffffffffffffffffff16815260200191505060206040518083038186803b158015613ae357600080fd5b505afa158015613af7573d6000803e3d6000fd5b505050506040513d6020811015613b0d57600080fd5b810190808051906020019092919050505090506000600460019054906101000a900473ffffffffffffffffffffffffffffffffffffffff1690508073ffffffffffffffffffffffffffffffffffffffff16637348c8576040518163ffffffff1660e01b815260040160206040518083038186803b158015613b8d57600080fd5b505afa158015613ba1573d6000803e3d6000fd5b505050506040513d6020811015613bb757600080fd5b810190808051906020019092919050505015613cba5760008173ffffffffffffffffffffffffffffffffffffffff1663489e09516040518163ffffffff1660e01b815260040160206040518083038186803b158015613c1557600080fd5b505afa158015613c29573d6000803e3d6000fd5b505050506040513d6020811015613c3f57600080fd5b810190808051906020019092919050505090506000600184901c9050613c8633828873ffffffffffffffffffffffffffffffffffffffff1661492d9092919063ffffffff16565b613cb3828286038873ffffffffffffffffffffffffffffffffffffffff1661492d9092919063ffffffff16565b5050613ce6565b613ce533838673ffffffffffffffffffffffffffffffffffffffff1661492d9092919063ffffffff16565b5b50505050565b6000600b80549050905060008090505b818160ff161015613e39576000600c8260ff1681548110613d1957fe5b9060005260206000200160009054906101000a900473ffffffffffffffffffffffffffffffffffffffff169050600060118360ff1681548110613d5857fe5b9060005260206000200160003373ffffffffffffffffffffffffffffffffffffffff1673ffffffffffffffffffffffffffffffffffffffff168152602001908152602001600020549050600060118460ff1681548110613db457fe5b9060005260206000200160003373ffffffffffffffffffffffffffffffffffffffff1673ffffffffffffffffffffffffffffffffffffffff16815260200190815260200160002081905550613e2a33828473ffffffffffffffffffffffffffffffffffffffff1661492d9092919063ffffffff16565b50508080600101915050613cfc565b506000601260003373ffffffffffffffffffffffffffffffffffffffff1673ffffffffffffffffffffffffffffffffffffffff16815260200190815260200160002060006101000a81548160ff02191690831515021790555050565b60003073ffffffffffffffffffffffffffffffffffffffff168373ffffffffffffffffffffffffffffffffffffffff1614613ecf57600080fd5b620f424063ffffffff16613eee600154846147d590919063ffffffff16565b81613ef557fe5b04905092915050565b600080601660009054906101000a900473ffffffffffffffffffffffffffffffffffffffff16905060608484604051602401808373ffffffffffffffffffffffffffffffffffffffff1673ffffffffffffffffffffffffffffffffffffffff168152602001828152602001925050506040516020818303038152906040527fdb0c15f1000000000000000000000000000000000000000000000000000000007bffffffffffffffffffffffffffffffffffffffffffffffffffffffff19166020820180517bffffffffffffffffffffffffffffffffffffffffffffffffffffffff83818316178352505050509050604051602081835160208501865af48061400557600080fd5b8151945050508473ffffffffffffffffffffffffffffffffffffffff167fe1fffcc4923d04b559f4d29a8bfc6cda04eb5b0d3c460751c2402c5c5cc9109c856040518082815260200191505060405180910390a2505092915050565b6001601260003373ffffffffffffffffffffffffffffffffffffffff1673ffffffffffffffffffffffffffffffffffffffff16815260200190815260200160002060006101000a81548160ff021916908315150217905550565b6000600860008473ffffffffffffffffffffffffffffffffffffffff1673ffffffffffffffffffffffffffffffffffffffff16815260200190815260200160002060008373ffffffffffffffffffffffffffffffffffffffff1673ffffffffffffffffffffffffffffffffffffffff16815260200190815260200160002054905092915050565b6000601860009054906101000a900473ffffffffffffffffffffffffffffffffffffffff1673ffffffffffffffffffffffffffffffffffffffff16868686868660405160240180861515151581526020018515151515815260200184600260200280828437600081840152601f19601f82011690508083019250505083600260200280828437600081840152601f19601f82011690508083019250505082600260200280828437600081840152601f19601f820116905080830192505050955050505050506040516020818303038152906040527fe77668df000000000000000000000000000000000000000000000000000000007bffffffffffffffffffffffffffffffffffffffffffffffffffffffff19166020820180517bffffffffffffffffffffffffffffffffffffffffffffffffffffffff83818316178352505050506040518082805190602001908083835b602083106142b75780518252602082019150602081019050602083039250614294565b6001836020036101000a038019825116818451168082178552505050505050905001915050600060405180830381855af49150503d8060008114614317576040519150601f19603f3d011682016040523d82523d6000602084013e61431c565b606091505b505090508061432a57600080fd5b505050505050565b600060019054906101000a900473ffffffffffffffffffffffffffffffffffffffff1673ffffffffffffffffffffffffffffffffffffffff163373ffffffffffffffffffffffffffffffffffffffff16146143f5576040517f08c379a000000000000000000000000000000000000000000000000000000000815260040180806020018281038252600a8152602001807f6f6e6c79206f776e65720000000000000000000000000000000000000000000081525060200191505060405180910390fd5b8060018190555050565b60008061440a614591565b90506144398161442b670de0b6b3a7640000866147d590919063ffffffff16565b6148e390919063ffffffff16565b915050919050565b6000600554905090565b600060019054906101000a900473ffffffffffffffffffffffffffffffffffffffff1673ffffffffffffffffffffffffffffffffffffffff163373ffffffffffffffffffffffffffffffffffffffff161461450e576040517f08c379a000000000000000000000000000000000000000000000000000000000815260040180806020018281038252600a8152602001807f6f6e6c79206f776e65720000000000000000000000000000000000000000000081525060200191505060405180910390fd5b600073ffffffffffffffffffffffffffffffffffffffff168173ffffffffffffffffffffffffffffffffffffffff16146145845780600060016101000a81548173ffffffffffffffffffffffffffffffffffffffff021916908373ffffffffffffffffffffffffffffffffffffffff1602179055505b50565b61458f6149e5565b565b6000806006549050600060035490506000600260049054906101000a900473ffffffffffffffffffffffffffffffffffffffff16905060008173ffffffffffffffffffffffffffffffffffffffff166370a08231306040518263ffffffff1660e01b8152600401808273ffffffffffffffffffffffffffffffffffffffff1673ffffffffffffffffffffffffffffffffffffffff16815260200191505060206040518083038186803b15801561464657600080fd5b505afa15801561465a573d6000803e3d6000fd5b505050506040513d602081101561467057600080fd5b8101908080519060200190929190505050905060008273ffffffffffffffffffffffffffffffffffffffff1663182df0f56040518163ffffffff1660e01b815260040160206040518083038186803b1580156146cb57600080fd5b505afa1580156146df573d6000803e3d6000fd5b505050506040513d60208110156146f557600080fd5b810190808051906020019092919050505090506000670de0b6b3a764000061472683856147d590919063ffffffff16565b8161472d57fe5b049050600061475f8761475184670de0b6b3a76400006147d590919063ffffffff16565b6148e390919063ffffffff16565b905085811161477757859750505050505050506147d2565b60006147c4876147b6620f424063ffffffff166147a8620c350063ffffffff168c88036147d590919063ffffffff16565b6148e390919063ffffffff16565b61485b90919063ffffffff16565b905080985050505050505050505b90565b6000808314156147e85760009050614855565b60008284029050828482816147f957fe5b0414614850576040517f08c379a0000000000000000000000000000000000000000000000000000000008152600401808060200182810382526021815260200180614fe26021913960400191505060405180910390fd5b809150505b92915050565b6000808284019050838110156148d9576040517f08c379a000000000000000000000000000000000000000000000000000000000815260040180806020018281038252601b8152602001807f536166654d6174683a206164646974696f6e206f766572666c6f77000000000081525060200191505060405180910390fd5b8091505092915050565b600061492583836040518060400160405280601a81526020017f536166654d6174683a206469766973696f6e206279207a65726f000000000000815250614b4c565b905092915050565b6149e08363a9059cbb60e01b8484604051602401808373ffffffffffffffffffffffffffffffffffffffff1673ffffffffffffffffffffffffffffffffffffffff16815260200182815260200192505050604051602081830303815290604052907bffffffffffffffffffffffffffffffffffffffffffffffffffffffff19166020820180517bffffffffffffffffffffffffffffffffffffffffffffffffffffffff8381831617835250505050614c12565b505050565b6000601660009054906101000a900473ffffffffffffffffffffffffffffffffffffffff1673ffffffffffffffffffffffffffffffffffffffff166040516024016040516020818303038152906040527f5b6d4046000000000000000000000000000000000000000000000000000000007bffffffffffffffffffffffffffffffffffffffffffffffffffffffff19166020820180517bffffffffffffffffffffffffffffffffffffffffffffffffffffffff83818316178352505050506040518082805190602001908083835b60208310614ad65780518252602082019150602081019050602083039250614ab3565b6001836020036101000a038019825116818451168082178552505050505050905001915050600060405180830381855af49150503d8060008114614b36576040519150601f19603f3d011682016040523d82523d6000602084013e614b3b565b606091505b5050905080614b4957600080fd5b50565b60008083118290614bf8576040517f08c379a00000000000000000000000000000000000000000000000000000000081526004018080602001828103825283818151815260200191508051906020019080838360005b83811015614bbd578082015181840152602081019050614ba2565b50505050905090810190601f168015614bea5780820380516001836020036101000a031916815260200191505b509250505060405180910390fd5b506000838581614c0457fe5b049050809150509392505050565b6060614c74826040518060400160405280602081526020017f5361666545524332303a206c6f772d6c6576656c2063616c6c206661696c65648152508573ffffffffffffffffffffffffffffffffffffffff16614d019092919063ffffffff16565b9050600081511115614cfc57808060200190516020811015614c9557600080fd5b8101908080519060200190929190505050614cfb576040517f08c379a000000000000000000000000000000000000000000000000000000000815260040180806020018281038252602a815260200180615003602a913960400191505060405180910390fd5b5b505050565b6060614d108484600085614d19565b90509392505050565b606082471015614d74576040517f08c379a0000000000000000000000000000000000000000000000000000000008152600401808060200182810382526026815260200180614fbc6026913960400191505060405180910390fd5b614d7d85614ec2565b614def576040517f08c379a000000000000000000000000000000000000000000000000000000000815260040180806020018281038252601d8152602001807f416464726573733a2063616c6c20746f206e6f6e2d636f6e747261637400000081525060200191505060405180910390fd5b600060608673ffffffffffffffffffffffffffffffffffffffff1685876040518082805190602001908083835b60208310614e3f5780518252602082019150602081019050602083039250614e1c565b6001836020036101000a03801982511681845116808217855250505050505090500191505060006040518083038185875af1925050503d8060008114614ea1576040519150601f19603f3d011682016040523d82523d6000602084013e614ea6565b606091505b5091509150614eb6828286614ed5565b92505050949350505050565b600080823b905060008111915050919050565b60608315614ee557829050614f9a565b600083511115614ef85782518084602001fd5b816040517f08c379a00000000000000000000000000000000000000000000000000000000081526004018080602001828103825283818151815260200191508051906020019080838360005b83811015614f5f578082015181840152602081019050614f44565b50505050905090810190601f168015614f8c5780820380516001836020036101000a031916815260200191505b509250505060405180910390fd5b9392505050565b60405180604001604052806000815260200160008152509056fe416464726573733a20696e73756666696369656e742062616c616e636520666f722063616c6c536166654d6174683a206d756c7469706c69636174696f6e206f766572666c6f775361666545524332303a204552433230206f7065726174696f6e20646964206e6f742073756363656564a2646970667358221220e4f10c136e0aaf9e1c0e09a419bbf9da8a813733617855e60d0b41920aab018364736f6c63430006080033a26469706673582212201dcee8037950bbb3af27ff16623fd13b6ed7c563d1f1b1bac3315e0a03103b1c64736f6c63430006080033",
  "immutableReferences": {},
  "source": "// SPDX-License-Identifier: MIT\npragma solidity >=0.6.8 <0.7.0;\n\nimport \"../../interfaces/IWrapperDeployer.sol\";\nimport \"./CTokenWrapper.sol\";\n\ncontract CTokenWrapperDeployer is IWrapperDeployer {\n\n\tconstructor(address _infoOracleAddress, address _delegate1Address, address _delegate2Address, address _delegate3Address) public {\n\t\tInfoOracleAddress = _infoOracleAddress;\n\t\tdelegate1Address = _delegate1Address;\n\t\tdelegate2Address = _delegate2Address;\n\t\tdelegate3Address = _delegate3Address;\n\t}\n\n\taddress public override InfoOracleAddress;\n\taddress delegate1Address;\n\taddress delegate2Address;\n\taddress delegate3Address;\n\t/*\n\t\t100 sbps (super basis points) is 1 bip (basis point)\n\t\t1.0 == 100% == 10_000 bips == 1_000_000 sbps\n\n\t\tDEFAULT_SBPS_RETAINED represents the default value (in super basis points) of\n\t\t1.0 - annualWrapperFee\n\t\tif SBPSRetained == 999_000 == 1_000_000 - 1000, the annual wrapper fee is 1000sbps or 0.1%\n\t*/\n\tuint32 private constant DEFAULT_SBPS_RETAINED = 999_000;\n\n\tfunction deploy(address _underlyingAssetAddress, address _owner) external override returns(address wrapperAddress) {\n\t\twrapperAddress = address(new CTokenWrapper(\n\t\t\t_underlyingAssetAddress,\n\t\t\tInfoOracleAddress,\n\t\t\tdelegate1Address,\n\t\t\tdelegate2Address,\n\t\t\tdelegate3Address,\n\t\t\tDEFAULT_SBPS_RETAINED\n\t\t));\n\t\tOwnable(wrapperAddress).transferOwnership(_owner);\n\t}\n\n}",
  "sourcePath": "/home/asher/FixFinanceV1/contracts/Wrappers/CTokenWrapper/CTokenWrapperDeployer.sol",
  "compiler": {
    "name": "solc",
    "version": "0.6.8+commit.0bbfe453.Emscripten.clang"
  },
  "schemaVersion": "3.4.1",
  "updatedAt": "2021-11-26T19:15:55.959Z",
  "devdoc": {
    "methods": {}
  },
  "userdoc": {
    "methods": {}
  }
}