{
  "contractName": "DBSFVaultFactoryDelegate4",
  "abi": [
    {
      "inputs": [],
      "name": "owner",
      "outputs": [
        {
          "internalType": "address",
          "name": "",
          "type": "address"
        }
      ],
      "stateMutability": "view",
      "type": "function"
    },
    {
      "inputs": [
        {
          "internalType": "address",
          "name": "newOwner",
          "type": "address"
        }
      ],
      "name": "transferOwnership",
      "outputs": [],
      "stateMutability": "nonpayable",
      "type": "function"
    },
    {
      "inputs": [
        {
          "internalType": "address",
          "name": "_owner",
          "type": "address"
        },
        {
          "internalType": "uint256",
          "name": "_index",
          "type": "uint256"
        },
        {
          "internalType": "address",
          "name": "_FCPborrowed",
          "type": "address"
        },
        {
          "internalType": "address",
          "name": "_FCPsupplied",
          "type": "address"
        },
        {
          "internalType": "uint256",
          "name": "_bidYield",
          "type": "uint256"
        },
        {
          "internalType": "int256",
          "name": "_minBondRatio",
          "type": "int256"
        },
        {
          "internalType": "uint256",
          "name": "_amtIn",
          "type": "uint256"
        }
      ],
      "name": "auctionYTLiquidation",
      "outputs": [],
      "stateMutability": "nonpayable",
      "type": "function"
    },
    {
      "inputs": [
        {
          "internalType": "uint256",
          "name": "_index",
          "type": "uint256"
        },
        {
          "internalType": "uint256",
          "name": "_bidYield",
          "type": "uint256"
        },
        {
          "internalType": "uint256",
          "name": "_amtIn",
          "type": "uint256"
        }
      ],
      "name": "bidOnYTLiquidation",
      "outputs": [],
      "stateMutability": "nonpayable",
      "type": "function"
    },
    {
      "inputs": [
        {
          "internalType": "uint256",
          "name": "_index",
          "type": "uint256"
        },
        {
          "internalType": "address",
          "name": "_to",
          "type": "address"
        }
      ],
      "name": "claimYTLiquidation",
      "outputs": [],
      "stateMutability": "nonpayable",
      "type": "function"
    },
    {
      "inputs": [
        {
          "internalType": "address",
          "name": "_owner",
          "type": "address"
        },
        {
          "internalType": "uint256",
          "name": "_index",
          "type": "uint256"
        },
        {
          "internalType": "address",
          "name": "_FCPborrowed",
          "type": "address"
        },
        {
          "internalType": "address",
          "name": "_FCPsupplied",
          "type": "address"
        },
        {
          "internalType": "uint256",
          "name": "_maxIn",
          "type": "uint256"
        },
        {
          "internalType": "uint256",
          "name": "_minOut",
          "type": "uint256"
        },
        {
          "internalType": "int256",
          "name": "_minBondRatio",
          "type": "int256"
        },
        {
          "internalType": "address",
          "name": "_to",
          "type": "address"
        }
      ],
      "name": "instantYTLiquidation",
      "outputs": [],
      "stateMutability": "nonpayable",
      "type": "function"
    },
    {
      "inputs": [
        {
          "internalType": "address",
          "name": "_owner",
          "type": "address"
        },
        {
          "internalType": "uint256",
          "name": "_index",
          "type": "uint256"
        },
        {
          "internalType": "address",
          "name": "_FCPborrowed",
          "type": "address"
        },
        {
          "internalType": "address",
          "name": "_FCPsupplied",
          "type": "address"
        },
        {
          "internalType": "uint256",
          "name": "_in",
          "type": "uint256"
        },
        {
          "internalType": "uint256",
          "name": "_minOut",
          "type": "uint256"
        },
        {
          "internalType": "int256",
          "name": "_minBondRatio",
          "type": "int256"
        },
        {
          "internalType": "address",
          "name": "_to",
          "type": "address"
        }
      ],
      "name": "partialYTLiquidationSpecificIn",
      "outputs": [],
      "stateMutability": "nonpayable",
      "type": "function"
    },
    {
      "inputs": [
        {
          "internalType": "address",
          "name": "_owner",
          "type": "address"
        },
        {
          "internalType": "uint256",
          "name": "_index",
          "type": "uint256"
        },
        {
          "internalType": "address",
          "name": "_FCPborrowed",
          "type": "address"
        },
        {
          "internalType": "address",
          "name": "_FCPsupplied",
          "type": "address"
        },
        {
          "internalType": "uint256",
          "name": "_out",
          "type": "uint256"
        },
        {
          "internalType": "int256",
          "name": "_minBondOut",
          "type": "int256"
        },
        {
          "internalType": "uint256",
          "name": "_maxIn",
          "type": "uint256"
        },
        {
          "internalType": "address",
          "name": "_to",
          "type": "address"
        }
      ],
      "name": "partialYTLiquidationSpecificOut",
      "outputs": [],
      "stateMutability": "nonpayable",
      "type": "function"
    }
  ],
  "bytecode": "0x608060405234801561001057600080fd5b50336000806101000a81548173ffffffffffffffffffffffffffffffffffffffff021916908373ffffffffffffffffffffffffffffffffffffffff160217905550615f3980620000616000396000f3fe608060405234801561001057600080fd5b50600436106100885760003560e01c80635ce006791161005b5780635ce00679146103a05780638da5cb5b146103ee578063e18d521e14610438578063f2fde38b1461047a57610088565b8063059866b91461008d5780630c5e04cc1461015a57806339135ac51461022757806356ec9124146102d3575b600080fd5b61015860048036036101008110156100a457600080fd5b81019080803573ffffffffffffffffffffffffffffffffffffffff16906020019092919080359060200190929190803573ffffffffffffffffffffffffffffffffffffffff169060200190929190803573ffffffffffffffffffffffffffffffffffffffff169060200190929190803590602001909291908035906020019092919080359060200190929190803573ffffffffffffffffffffffffffffffffffffffff1690602001909291905050506104be565b005b610225600480360361010081101561017157600080fd5b81019080803573ffffffffffffffffffffffffffffffffffffffff16906020019092919080359060200190929190803573ffffffffffffffffffffffffffffffffffffffff169060200190929190803573ffffffffffffffffffffffffffffffffffffffff169060200190929190803590602001909291908035906020019092919080359060200190929190803573ffffffffffffffffffffffffffffffffffffffff169060200190929190505050610ca9565b005b6102d1600480360360e081101561023d57600080fd5b81019080803573ffffffffffffffffffffffffffffffffffffffff16906020019092919080359060200190929190803573ffffffffffffffffffffffffffffffffffffffff169060200190929190803573ffffffffffffffffffffffffffffffffffffffff169060200190929190803590602001909291908035906020019092919080359060200190929190505050611572565b005b61039e60048036036101008110156102ea57600080fd5b81019080803573ffffffffffffffffffffffffffffffffffffffff16906020019092919080359060200190929190803573ffffffffffffffffffffffffffffffffffffffff169060200190929190803573ffffffffffffffffffffffffffffffffffffffff169060200190929190803590602001909291908035906020019092919080359060200190929190803573ffffffffffffffffffffffffffffffffffffffff169060200190929190505050612027565b005b6103ec600480360360408110156103b657600080fd5b8101908080359060200190929190803573ffffffffffffffffffffffffffffffffffffffff1690602001909291905050506128c3565b005b6103f6612c69565b604051808273ffffffffffffffffffffffffffffffffffffffff1673ffffffffffffffffffffffffffffffffffffffff16815260200191505060405180910390f35b6104786004803603606081101561044e57600080fd5b81019080803590602001909291908035906020019092919080359060200190929190505050612c8e565b005b6104bc6004803603602081101561049057600080fd5b81019080803573ffffffffffffffffffffffffffffffffffffffff1690602001909291905050506132da565b005b86600960008a73ffffffffffffffffffffffffffffffffffffffff1673ffffffffffffffffffffffffffffffffffffffff168152602001908152602001600020805490501161050c57600080fd5b610514615d2f565b600960008a73ffffffffffffffffffffffffffffffffffffffff1673ffffffffffffffffffffffffffffffffffffffff168152602001908152602001600020888154811061055e57fe5b9060005260206000209060070201604051806101000160405290816000820160009054906101000a900473ffffffffffffffffffffffffffffffffffffffff1673ffffffffffffffffffffffffffffffffffffffff1673ffffffffffffffffffffffffffffffffffffffff1681526020016001820160009054906101000a900473ffffffffffffffffffffffffffffffffffffffff1673ffffffffffffffffffffffffffffffffffffffff1673ffffffffffffffffffffffffffffffffffffffff168152602001600282015481526020016003820154815260200160048201548152602001600582015481526020016006820160009054906101000a900467ffffffffffffffff1667ffffffffffffffff1667ffffffffffffffff1681526020016006820160089054906101000a900467ffffffffffffffff1667ffffffffffffffff1667ffffffffffffffff1681525050905060006106bf8a8a84613414565b90508773ffffffffffffffffffffffffffffffffffffffff16826020015173ffffffffffffffffffffffffffffffffffffffff16146106fd57600080fd5b8673ffffffffffffffffffffffffffffffffffffffff16826000015173ffffffffffffffffffffffffffffffffffffffff161461073957600080fd5b6107548260a00151836080015161365690919063ffffffff16565b826080018181525050858260800151111561076e57600080fd5b848260400151101580156107825750600085115b61078b57600080fd5b7f7fffffffffffffffffffffffffffffffffffffffffffffffffffffffffffffff826040015111156107bc57600080fd5b60006107f383604001516107e5670de0b6b3a764000086606001516136a090919063ffffffff16565b6137ca90919063ffffffff16565b90508481121561080257600080fd5b6201518042018973ffffffffffffffffffffffffffffffffffffffff1663204f83f96040518163ffffffff1660e01b815260040160206040518083038186803b15801561084e57600080fd5b505afa158015610862573d6000803e3d6000fd5b505050506040513d602081101561087857600080fd5b810190808051906020019092919050505064ffffffffff16106109ed5760006108a9846000015185604001516138fe565b9050600e60009054906101000a900473ffffffffffffffffffffffffffffffffffffffff1673ffffffffffffffffffffffffffffffffffffffff1663b27983be8560000151866020015184886060015189608001516040518663ffffffff1660e01b8152600401808673ffffffffffffffffffffffffffffffffffffffff1673ffffffffffffffffffffffffffffffffffffffff1681526020018573ffffffffffffffffffffffffffffffffffffffff1673ffffffffffffffffffffffffffffffffffffffff1681526020018481526020018381526020018281526020019550505050505060206040518083038186803b1580156109a657600080fd5b505afa1580156109ba573d6000803e3d6000fd5b505050506040513d60208110156109d057600080fd5b8101908080519060200190929190505050156109eb57600080fd5b505b8873ffffffffffffffffffffffffffffffffffffffff1663fc2807f18585608001516040518363ffffffff1660e01b8152600401808373ffffffffffffffffffffffffffffffffffffffff1673ffffffffffffffffffffffffffffffffffffffff16815260200182815260200192505050600060405180830381600087803b158015610a7857600080fd5b505af1158015610a8c573d6000803e3d6000fd5b50505050610a9e898460800151613915565b8773ffffffffffffffffffffffffffffffffffffffff16636a68d0c385856040015186606001516040518463ffffffff1660e01b8152600401808473ffffffffffffffffffffffffffffffffffffffff1673ffffffffffffffffffffffffffffffffffffffff1681526020018381526020018281526020019350505050600060405180830381600087803b158015610b3557600080fd5b505af1158015610b49573d6000803e3d6000fd5b50505050610b9d60008c8560000151858760400151600003610b987fffffffffffffffffffffffffffffffffffffffffffffffffffffffffffffffff8a606001516136a090919063ffffffff16565b613a3e565b600960008c73ffffffffffffffffffffffffffffffffffffffff1673ffffffffffffffffffffffffffffffffffffffff1681526020019081526020016000208a81548110610be757fe5b9060005260206000209060070201600080820160006101000a81549073ffffffffffffffffffffffffffffffffffffffff02191690556001820160006101000a81549073ffffffffffffffffffffffffffffffffffffffff021916905560028201600090556003820160009055600482016000905560058201600090556006820160006101000a81549067ffffffffffffffff02191690556006820160086101000a81549067ffffffffffffffff021916905550505050505050505050505050565b86600960008a73ffffffffffffffffffffffffffffffffffffffff1673ffffffffffffffffffffffffffffffffffffffff1681526020019081526020016000208054905011610cf757600080fd5b610cff615d2f565b600960008a73ffffffffffffffffffffffffffffffffffffffff1673ffffffffffffffffffffffffffffffffffffffff1681526020019081526020016000208881548110610d4957fe5b9060005260206000209060070201604051806101000160405290816000820160009054906101000a900473ffffffffffffffffffffffffffffffffffffffff1673ffffffffffffffffffffffffffffffffffffffff1673ffffffffffffffffffffffffffffffffffffffff1681526020016001820160009054906101000a900473ffffffffffffffffffffffffffffffffffffffff1673ffffffffffffffffffffffffffffffffffffffff1673ffffffffffffffffffffffffffffffffffffffff168152602001600282015481526020016003820154815260200160048201548152602001600582015481526020016006820160009054906101000a900467ffffffffffffffff1667ffffffffffffffff1667ffffffffffffffff1681526020016006820160089054906101000a900467ffffffffffffffff1667ffffffffffffffff1667ffffffffffffffff168152505090506000610eaa8a8a84613414565b90508773ffffffffffffffffffffffffffffffffffffffff16826020015173ffffffffffffffffffffffffffffffffffffffff1614610ee857600080fd5b8673ffffffffffffffffffffffffffffffffffffffff16826000015173ffffffffffffffffffffffffffffffffffffffff1614610f2457600080fd5b610f3f8260a00151836080015161365690919063ffffffff16565b826080018181525050856000108015610f5c575081608001518611155b610f6557600080fd5b6000610f9c8360400151610f8e670de0b6b3a764000086606001516136a090919063ffffffff16565b6137ca90919063ffffffff16565b905084811215610fab57600080fd5b6000610fda8460800151610fcc8a8760400151613b2d90919063ffffffff16565b613bb390919063ffffffff16565b905086811015610fe957600080fd5b7f7fffffffffffffffffffffffffffffffffffffffffffffffffffffffffffffff81111561101657600080fd5b600061104585608001516110378b88606001516136a090919063ffffffff16565b6137ca90919063ffffffff16565b90506201518042018b73ffffffffffffffffffffffffffffffffffffffff1663204f83f96040518163ffffffff1660e01b815260040160206040518083038186803b15801561109357600080fd5b505afa1580156110a7573d6000803e3d6000fd5b505050506040513d60208110156110bd57600080fd5b810190808051906020019092919050505064ffffffffff16106112325760006110ee866000015187604001516138fe565b9050600e60009054906101000a900473ffffffffffffffffffffffffffffffffffffffff1673ffffffffffffffffffffffffffffffffffffffff1663b27983be87600001518860200151848a606001518b608001516040518663ffffffff1660e01b8152600401808673ffffffffffffffffffffffffffffffffffffffff1673ffffffffffffffffffffffffffffffffffffffff1681526020018573ffffffffffffffffffffffffffffffffffffffff1673ffffffffffffffffffffffffffffffffffffffff1681526020018481526020018381526020018281526020019550505050505060206040518083038186803b1580156111eb57600080fd5b505afa1580156111ff573d6000803e3d6000fd5b505050506040513d602081101561121557600080fd5b81019080805190602001909291905050501561123057600080fd5b505b8a73ffffffffffffffffffffffffffffffffffffffff1663fc2807f1878b6040518363ffffffff1660e01b8152600401808373ffffffffffffffffffffffffffffffffffffffff1673ffffffffffffffffffffffffffffffffffffffff16815260200182815260200192505050600060405180830381600087803b1580156112b957600080fd5b505af11580156112cd573d6000803e3d6000fd5b505050506112db8b8a613915565b8973ffffffffffffffffffffffffffffffffffffffff16636a68d0c38784846040518463ffffffff1660e01b8152600401808473ffffffffffffffffffffffffffffffffffffffff1673ffffffffffffffffffffffffffffffffffffffff1681526020018381526020018281526020019350505050600060405180830381600087803b15801561136a57600080fd5b505af115801561137e573d6000803e3d6000fd5b505050506113ca60008e876000015187866000036113c57fffffffffffffffffffffffffffffffffffffffffffffffffffffffffffffffff886136a090919063ffffffff16565b613a3e565b88856080015103600960008f73ffffffffffffffffffffffffffffffffffffffff1673ffffffffffffffffffffffffffffffffffffffff1681526020019081526020016000208d8154811061141b57fe5b90600052602060002090600702016004018190555081600960008f73ffffffffffffffffffffffffffffffffffffffff1673ffffffffffffffffffffffffffffffffffffffff1681526020019081526020016000208d8154811061147b57fe5b90600052602060002090600702016002016000828254039250508190555080600960008f73ffffffffffffffffffffffffffffffffffffffff1673ffffffffffffffffffffffffffffffffffffffff1681526020019081526020016000208d815481106114e457fe5b9060005260206000209060070201600301600082825403925050819055506000600960008f73ffffffffffffffffffffffffffffffffffffffff1673ffffffffffffffffffffffffffffffffffffffff1681526020019081526020016000208d8154811061154e57fe5b90600052602060002090600702016005018190555050505050505050505050505050565b85600960008973ffffffffffffffffffffffffffffffffffffffff1673ffffffffffffffffffffffffffffffffffffffff16815260200190815260200160002080549050116115c057600080fd5b6115c8615d2f565b600960008973ffffffffffffffffffffffffffffffffffffffff1673ffffffffffffffffffffffffffffffffffffffff168152602001908152602001600020878154811061161257fe5b9060005260206000209060070201604051806101000160405290816000820160009054906101000a900473ffffffffffffffffffffffffffffffffffffffff1673ffffffffffffffffffffffffffffffffffffffff1673ffffffffffffffffffffffffffffffffffffffff1681526020016001820160009054906101000a900473ffffffffffffffffffffffffffffffffffffffff1673ffffffffffffffffffffffffffffffffffffffff1673ffffffffffffffffffffffffffffffffffffffff168152602001600282015481526020016003820154815260200160048201548152602001600582015481526020016006820160009054906101000a900467ffffffffffffffff1667ffffffffffffffff1667ffffffffffffffff1681526020016006820160089054906101000a900467ffffffffffffffff1667ffffffffffffffff1667ffffffffffffffff168152505090506000611773898984613414565b90508673ffffffffffffffffffffffffffffffffffffffff16826020015173ffffffffffffffffffffffffffffffffffffffff16146117b157600080fd5b8573ffffffffffffffffffffffffffffffffffffffff16826000015173ffffffffffffffffffffffffffffffffffffffff16146117ed57600080fd5b828260800151101580156118015750600083115b61180a57600080fd5b60008260800151848460400151028161181f57fe5b0490508581101561182f57600080fd5b60006001611868856040015161185a670de0b6b3a764000088606001516136a090919063ffffffff16565b6137ca90919063ffffffff16565b0190508581121561187857600080fd5b600e60009054906101000a900473ffffffffffffffffffffffffffffffffffffffff1673ffffffffffffffffffffffffffffffffffffffff16634768bc68856000015186602001516118d2886000015189604001516138fe565b886060015189608001516040518663ffffffff1660e01b8152600401808673ffffffffffffffffffffffffffffffffffffffff1673ffffffffffffffffffffffffffffffffffffffff1681526020018573ffffffffffffffffffffffffffffffffffffffff1673ffffffffffffffffffffffffffffffffffffffff1681526020018481526020018381526020018281526020019550505050505060206040518083038186803b15801561198457600080fd5b505afa158015611998573d6000803e3d6000fd5b505050506040513d60208110156119ae57600080fd5b810190808051906020019092919050505015611a67576000846020015173ffffffffffffffffffffffffffffffffffffffff1663204f83f96040518163ffffffff1660e01b815260040160206040518083038186803b158015611a1057600080fd5b505afa158015611a24573d6000803e3d6000fd5b505050506040513d6020811015611a3a57600080fd5b810190808051906020019092919050505064ffffffffff16905062093a8042018110611a6557600080fd5b505b6000611a7c868660c001518760e00151613bfd565b9050611a89338b83613c3a565b611b168a73ffffffffffffffffffffffffffffffffffffffff1663351bd34b6040518163ffffffff1660e01b815260040160206040518083038186803b158015611ad257600080fd5b505afa158015611ae6573d6000803e3d6000fd5b505050506040513d6020811015611afc57600080fd5b81019080805190602001909291905050508b888403613cde565b611b208a87613915565b82881015611b99576000670de0b6b3a7640000611b468a856136a090919063ffffffff16565b81611b4d57fe5b0590506000611b7f8760800151611b718a8a606001516136a090919063ffffffff16565b6137ca90919063ffffffff16565b9050611b968e88600001518c88038585038a6140b2565b50505b8460800151861415611ca957600960008d73ffffffffffffffffffffffffffffffffffffffff1673ffffffffffffffffffffffffffffffffffffffff1681526020019081526020016000208b81548110611bef57fe5b9060005260206000209060070201600080820160006101000a81549073ffffffffffffffffffffffffffffffffffffffff02191690556001820160006101000a81549073ffffffffffffffffffffffffffffffffffffffff021916905560028201600090556003820160009055600482016000905560058201600090556006820160006101000a81549067ffffffffffffffff02191690556006820160086101000a81549067ffffffffffffffff02191690555050611e0e565b85600960008e73ffffffffffffffffffffffffffffffffffffffff1673ffffffffffffffffffffffffffffffffffffffff1681526020019081526020016000208c81548110611cf457fe5b90600052602060002090600702016004016000828254039250508190555082600960008e73ffffffffffffffffffffffffffffffffffffffff1673ffffffffffffffffffffffffffffffffffffffff1681526020019081526020016000208c81548110611d5d57fe5b9060005260206000209060070201600201600082825403925050819055506000670de0b6b3a7640000611d9985856136a090919063ffffffff16565b81611da057fe5b05905080600960008f73ffffffffffffffffffffffffffffffffffffffff1673ffffffffffffffffffffffffffffffffffffffff1681526020019081526020016000208d81548110611dee57fe5b906000526020600020906007020160030160008282540392505081905550505b600d6040518061010001604052808e73ffffffffffffffffffffffffffffffffffffffff168152602001876000015173ffffffffffffffffffffffffffffffffffffffff168152602001876020015173ffffffffffffffffffffffffffffffffffffffff1681526020018481526020018381526020013373ffffffffffffffffffffffffffffffffffffffff1681526020018a815260200142815250908060018154018082558091505060019003906000526020600020906008020160009091909190915060008201518160000160006101000a81548173ffffffffffffffffffffffffffffffffffffffff021916908373ffffffffffffffffffffffffffffffffffffffff16021790555060208201518160010160006101000a81548173ffffffffffffffffffffffffffffffffffffffff021916908373ffffffffffffffffffffffffffffffffffffffff16021790555060408201518160020160006101000a81548173ffffffffffffffffffffffffffffffffffffffff021916908373ffffffffffffffffffffffffffffffffffffffff160217905550606082015181600301556080820151816004015560a08201518160050160006101000a81548173ffffffffffffffffffffffffffffffffffffffff021916908373ffffffffffffffffffffffffffffffffffffffff16021790555060c0820151816006015560e082015181600701555050505050505050505050505050565b86600960008a73ffffffffffffffffffffffffffffffffffffffff1673ffffffffffffffffffffffffffffffffffffffff168152602001908152602001600020805490501161207557600080fd5b7f7fffffffffffffffffffffffffffffffffffffffffffffffffffffffffffffff8411156120a257600080fd5b6120aa615d2f565b600960008a73ffffffffffffffffffffffffffffffffffffffff1673ffffffffffffffffffffffffffffffffffffffff16815260200190815260200160002088815481106120f457fe5b9060005260206000209060070201604051806101000160405290816000820160009054906101000a900473ffffffffffffffffffffffffffffffffffffffff1673ffffffffffffffffffffffffffffffffffffffff1673ffffffffffffffffffffffffffffffffffffffff1681526020016001820160009054906101000a900473ffffffffffffffffffffffffffffffffffffffff1673ffffffffffffffffffffffffffffffffffffffff1673ffffffffffffffffffffffffffffffffffffffff168152602001600282015481526020016003820154815260200160048201548152602001600582015481526020016006820160009054906101000a900467ffffffffffffffff1667ffffffffffffffff1667ffffffffffffffff1681526020016006820160089054906101000a900467ffffffffffffffff1667ffffffffffffffff1667ffffffffffffffff1681525050905060006122558a8a84613414565b90508773ffffffffffffffffffffffffffffffffffffffff16826020015173ffffffffffffffffffffffffffffffffffffffff161461229357600080fd5b8673ffffffffffffffffffffffffffffffffffffffff16826000015173ffffffffffffffffffffffffffffffffffffffff16146122cf57600080fd5b85826040015110156122e057600080fd5b6122fb8260a00151836080015161365690919063ffffffff16565b826080018181525050600082608001518702905060008360400151828161231e57fe5b061461232b57600161232e565b60005b60ff168360400151828161233e57fe5b040190508060001080156123525750848111155b61235b57600080fd5b600061238a846040015161237c8a87606001516136a090919063ffffffff16565b6137ca90919063ffffffff16565b90508681121561239957600080fd5b6201518042018a73ffffffffffffffffffffffffffffffffffffffff1663204f83f96040518163ffffffff1660e01b815260040160206040518083038186803b1580156123e557600080fd5b505afa1580156123f9573d6000803e3d6000fd5b505050506040513d602081101561240f57600080fd5b810190808051906020019092919050505064ffffffffff1610612584576000612440856000015186604001516138fe565b9050600e60009054906101000a900473ffffffffffffffffffffffffffffffffffffffff1673ffffffffffffffffffffffffffffffffffffffff1663b27983be866000015187602001518489606001518a608001516040518663ffffffff1660e01b8152600401808673ffffffffffffffffffffffffffffffffffffffff1673ffffffffffffffffffffffffffffffffffffffff1681526020018573ffffffffffffffffffffffffffffffffffffffff1673ffffffffffffffffffffffffffffffffffffffff1681526020018481526020018381526020018281526020019550505050505060206040518083038186803b15801561253d57600080fd5b505afa158015612551573d6000803e3d6000fd5b505050506040513d602081101561256757600080fd5b81019080805190602001909291905050501561258257600080fd5b505b8973ffffffffffffffffffffffffffffffffffffffff1663fc2807f186846040518363ffffffff1660e01b8152600401808373ffffffffffffffffffffffffffffffffffffffff1673ffffffffffffffffffffffffffffffffffffffff16815260200182815260200192505050600060405180830381600087803b15801561260b57600080fd5b505af115801561261f573d6000803e3d6000fd5b5050505061262d8a83613915565b8873ffffffffffffffffffffffffffffffffffffffff16636a68d0c3868a846040518463ffffffff1660e01b8152600401808473ffffffffffffffffffffffffffffffffffffffff1673ffffffffffffffffffffffffffffffffffffffff1681526020018381526020018281526020019350505050600060405180830381600087803b1580156126bc57600080fd5b505af11580156126d0573d6000803e3d6000fd5b5050505061271c60008d8660000151868c6000036127177fffffffffffffffffffffffffffffffffffffffffffffffffffffffffffffffff886136a090919063ffffffff16565b613a3e565b81846080015103600960008e73ffffffffffffffffffffffffffffffffffffffff1673ffffffffffffffffffffffffffffffffffffffff1681526020019081526020016000208c8154811061276d57fe5b90600052602060002090600702016004018190555087600960008e73ffffffffffffffffffffffffffffffffffffffff1673ffffffffffffffffffffffffffffffffffffffff1681526020019081526020016000208c815481106127cd57fe5b90600052602060002090600702016002016000828254039250508190555080600960008e73ffffffffffffffffffffffffffffffffffffffff1673ffffffffffffffffffffffffffffffffffffffff1681526020019081526020016000208c8154811061283657fe5b9060005260206000209060070201600301600082825403925050819055506000600960008e73ffffffffffffffffffffffffffffffffffffffff1673ffffffffffffffffffffffffffffffffffffffff1681526020019081526020016000208c815481106128a057fe5b906000526020600020906007020160050181905550505050505050505050505050565b81600d80549050116128d457600080fd5b6000600d83815481106128e357fe5b906000526020600020906008020190508060050160009054906101000a900473ffffffffffffffffffffffffffffffffffffffff1673ffffffffffffffffffffffffffffffffffffffff163373ffffffffffffffffffffffffffffffffffffffff161461294f57600080fd5b80600701546102580142101561296457600080fd5b6000816006015490507f7fffffffffffffffffffffffffffffffffffffffffffffffffffffffffffffff81111561299a57600080fd5b6000670de0b6b3a76400006129bf8360018660030154036136a090919063ffffffff16565b816129c657fe5b05905060008360010160009054906101000a900473ffffffffffffffffffffffffffffffffffffffff1690508073ffffffffffffffffffffffffffffffffffffffff16636a68d0c38685856040518463ffffffff1660e01b8152600401808473ffffffffffffffffffffffffffffffffffffffff1673ffffffffffffffffffffffffffffffffffffffff1681526020018381526020018281526020019350505050600060405180830381600087803b158015612a8157600080fd5b505af1158015612a95573d6000803e3d6000fd5b5050505060008173ffffffffffffffffffffffffffffffffffffffff1663ac210cc76040518163ffffffff1660e01b815260040160206040518083038186803b158015612ae157600080fd5b505afa158015612af5573d6000803e3d6000fd5b505050506040513d6020811015612b0b57600080fd5b81019080805190602001909291905050509050612b8660008660000160009054906101000a900473ffffffffffffffffffffffffffffffffffffffff16848488600003612b817fffffffffffffffffffffffffffffffffffffffffffffffffffffffffffffffff8a6136a090919063ffffffff16565b613a3e565b600d8781548110612b9357fe5b9060005260206000209060080201600080820160006101000a81549073ffffffffffffffffffffffffffffffffffffffff02191690556001820160006101000a81549073ffffffffffffffffffffffffffffffffffffffff02191690556002820160006101000a81549073ffffffffffffffffffffffffffffffffffffffff0219169055600382016000905560048201600090556005820160006101000a81549073ffffffffffffffffffffffffffffffffffffffff021916905560068201600090556007820160009055505050505050505050565b6000809054906101000a900473ffffffffffffffffffffffffffffffffffffffff1681565b82600d8054905011612c9f57600080fd5b612ca7615db4565b600d8481548110612cb457fe5b9060005260206000209060080201604051806101000160405290816000820160009054906101000a900473ffffffffffffffffffffffffffffffffffffffff1673ffffffffffffffffffffffffffffffffffffffff1673ffffffffffffffffffffffffffffffffffffffff1681526020016001820160009054906101000a900473ffffffffffffffffffffffffffffffffffffffff1673ffffffffffffffffffffffffffffffffffffffff1673ffffffffffffffffffffffffffffffffffffffff1681526020016002820160009054906101000a900473ffffffffffffffffffffffffffffffffffffffff1673ffffffffffffffffffffffffffffffffffffffff1673ffffffffffffffffffffffffffffffffffffffff16815260200160038201548152602001600482015481526020016005820160009054906101000a900473ffffffffffffffffffffffffffffffffffffffff1673ffffffffffffffffffffffffffffffffffffffff1673ffffffffffffffffffffffffffffffffffffffff168152602001600682015481526020016007820154815250509050816000108015612e64575080608001518211155b612e6d57600080fd5b60008160800151838360c001510281612e8257fe5b049050808410612e9157600080fd5b612ea48260a00151836040015185614564565b612eb333836040015185613c3a565b6000670de0b6b3a7640000612ed58385606001516136a090919063ffffffff16565b81612edc57fe5b05905060006001670de0b6b3a7640000612f038887606001516136a090919063ffffffff16565b81612f0a57fe5b050190506000846020015173ffffffffffffffffffffffffffffffffffffffff1663ac210cc76040518163ffffffff1660e01b815260040160206040518083038186803b158015612f5a57600080fd5b505afa158015612f6e573d6000803e3d6000fd5b505050506040513d6020811015612f8457600080fd5b81019080805190602001909291905050509050612fb085600001518660200151898703858703856140b2565b84608001518614156130645786600d8981548110612fca57fe5b90600052602060002090600802016006018190555042600d8981548110612fed57fe5b90600052602060002090600802016007018190555033600d898154811061301057fe5b906000526020600020906008020160050160006101000a81548173ffffffffffffffffffffffffffffffffffffffff021916908373ffffffffffffffffffffffffffffffffffffffff1602179055506132d0565b85600d898154811061307257fe5b90600052602060002090600802016004016000828254039250508190555083600d898154811061309e57fe5b906000526020600020906008020160060160008282540392505081905550600d604051806101000160405280876000015173ffffffffffffffffffffffffffffffffffffffff168152602001876020015173ffffffffffffffffffffffffffffffffffffffff168152602001876040015173ffffffffffffffffffffffffffffffffffffffff168152602001876060015181526020018881526020013373ffffffffffffffffffffffffffffffffffffffff16815260200189815260200142815250908060018154018082558091505060019003906000526020600020906008020160009091909190915060008201518160000160006101000a81548173ffffffffffffffffffffffffffffffffffffffff021916908373ffffffffffffffffffffffffffffffffffffffff16021790555060208201518160010160006101000a81548173ffffffffffffffffffffffffffffffffffffffff021916908373ffffffffffffffffffffffffffffffffffffffff16021790555060408201518160020160006101000a81548173ffffffffffffffffffffffffffffffffffffffff021916908373ffffffffffffffffffffffffffffffffffffffff160217905550606082015181600301556080820151816004015560a08201518160050160006101000a81548173ffffffffffffffffffffffffffffffffffffffff021916908373ffffffffffffffffffffffffffffffffffffffff16021790555060c0820151816006015560e0820151816007015550505b5050505050505050565b6000809054906101000a900473ffffffffffffffffffffffffffffffffffffffff1673ffffffffffffffffffffffffffffffffffffffff163373ffffffffffffffffffffffffffffffffffffffff161461339c576040517f08c379a000000000000000000000000000000000000000000000000000000000815260040180806020018281038252600a8152602001807f6f6e6c79206f776e65720000000000000000000000000000000000000000000081525060200191505060405180910390fd5b600073ffffffffffffffffffffffffffffffffffffffff168173ffffffffffffffffffffffffffffffffffffffff161461341157806000806101000a81548173ffffffffffffffffffffffffffffffffffffffff021916908373ffffffffffffffffffffffffffffffffffffffff1602179055505b50565b6000816000015173ffffffffffffffffffffffffffffffffffffffff16826020015173ffffffffffffffffffffffffffffffffffffffff1614156135c757600061346683602001518460400151614608565b80935081925050506000808460600151121561349b5761349684606001516000038361365690919063ffffffff16565b6134b3565b6134b28460600151836147df90919063ffffffff16565b5b9050836080015181116134c657806134cc565b83608001515b905060008111156135c05780846060018181510391508181525050808460800181815103915081815250508360600151600960008873ffffffffffffffffffffffffffffffffffffffff1673ffffffffffffffffffffffffffffffffffffffff168152602001908152602001600020868154811061354657fe5b9060005260206000209060070201600301819055508360800151600960008873ffffffffffffffffffffffffffffffffffffffff1673ffffffffffffffffffffffffffffffffffffffff16815260200190815260200160002086815481106135aa57fe5b9060005260206000209060070201600401819055505b505061364f565b816000015173ffffffffffffffffffffffffffffffffffffffff1663ac210cc76040518163ffffffff1660e01b815260040160206040518083038186803b15801561361157600080fd5b505afa158015613625573d6000803e3d6000fd5b505050506040513d602081101561363b57600080fd5b810190808051906020019092919050505090505b9392505050565b600061369883836040518060400160405280601e81526020017f536166654d6174683a207375627472616374696f6e206f766572666c6f770000815250614867565b905092915050565b6000808314156136b357600090506137c4565b7fffffffffffffffffffffffffffffffffffffffffffffffffffffffffffffffff8314801561370157507f800000000000000000000000000000000000000000000000000000000000000082145b15613757576040517f08c379a0000000000000000000000000000000000000000000000000000000008152600401808060200182810382526027815260200180615edd6027913960400191505060405180910390fd5b600082840290508284828161376857fe5b05146137bf576040517f08c379a0000000000000000000000000000000000000000000000000000000008152600401808060200182810382526027815260200180615edd6027913960400191505060405180910390fd5b809150505b92915050565b600080821415613842576040517f08c379a00000000000000000000000000000000000000000000000000000000081526004018080602001828103825260208152602001807f5369676e6564536166654d6174683a206469766973696f6e206279207a65726f81525060200191505060405180910390fd5b7fffffffffffffffffffffffffffffffffffffffffffffffffffffffffffffffff8214801561389057507f800000000000000000000000000000000000000000000000000000000000000083145b156138e6576040517f08c379a0000000000000000000000000000000000000000000000000000000008152600401808060200182810382526021815260200180615e9b6021913960400191505060405180910390fd5b60008284816138f157fe5b0590508091505092915050565b600061390a8383614927565b508091505092915050565b6000811115613a3a5760008273ffffffffffffffffffffffffffffffffffffffff166389d1a0fc6040518163ffffffff1660e01b815260040160206040518083038186803b15801561396657600080fd5b505afa15801561397a573d6000803e3d6000fd5b505050506040513d602081101561399057600080fd5b810190808051906020019092919050505090506139f582600160008473ffffffffffffffffffffffffffffffffffffffff1673ffffffffffffffffffffffffffffffffffffffff1681526020019081526020016000205461365690919063ffffffff16565b600160008373ffffffffffffffffffffffffffffffffffffffff1673ffffffffffffffffffffffffffffffffffffffff16815260200190815260200160002081905550505b5050565b8273ffffffffffffffffffffffffffffffffffffffff16637c9dd78987878786866040518663ffffffff1660e01b815260040180861515151581526020018573ffffffffffffffffffffffffffffffffffffffff1673ffffffffffffffffffffffffffffffffffffffff1681526020018473ffffffffffffffffffffffffffffffffffffffff1673ffffffffffffffffffffffffffffffffffffffff16815260200183815260200182815260200195505050505050600060405180830381600087803b158015613b0d57600080fd5b505af1158015613b21573d6000803e3d6000fd5b50505050505050505050565b600080831415613b405760009050613bad565b6000828402905082848281613b5157fe5b0414613ba8576040517f08c379a0000000000000000000000000000000000000000000000000000000008152600401808060200182810382526021815260200180615ebc6021913960400191505060405180910390fd5b809150505b92915050565b6000613bf583836040518060400160405280601a81526020017f536166654d6174683a206469766973696f6e206279207a65726f0000000000008152506149c0565b905092915050565b600080613c0a8484614a86565b9050670de0b6b3a7640000613c288683613b2d90919063ffffffff16565b81613c2f57fe5b049150509392505050565b8173ffffffffffffffffffffffffffffffffffffffff1663fc2807f184836040518363ffffffff1660e01b8152600401808373ffffffffffffffffffffffffffffffffffffffff1673ffffffffffffffffffffffffffffffffffffffff16815260200182815260200192505050600060405180830381600087803b158015613cc157600080fd5b505af1158015613cd5573d6000803e3d6000fd5b50505050505050565b60008111156140ad578173ffffffffffffffffffffffffffffffffffffffff1663af0b460630836040518363ffffffff1660e01b8152600401808373ffffffffffffffffffffffffffffffffffffffff1673ffffffffffffffffffffffffffffffffffffffff16815260200182815260200192505050600060405180830381600087803b158015613d6e57600080fd5b505af1158015613d82573d6000803e3d6000fd5b50505050613dd881600660008673ffffffffffffffffffffffffffffffffffffffff1673ffffffffffffffffffffffffffffffffffffffff168152602001908152602001600020546147df90919063ffffffff16565b600660008573ffffffffffffffffffffffffffffffffffffffff1673ffffffffffffffffffffffffffffffffffffffff168152602001908152602001600020819055506000600a60009054906101000a900473ffffffffffffffffffffffffffffffffffffffff16905060008173ffffffffffffffffffffffffffffffffffffffff16637348c8576040518163ffffffff1660e01b815260040160206040518083038186803b158015613e8a57600080fd5b505afa158015613e9e573d6000803e3d6000fd5b505050506040513d6020811015613eb457600080fd5b810190808051906020019092919050505015613f52578173ffffffffffffffffffffffffffffffffffffffff1663489e09516040518163ffffffff1660e01b815260040160206040518083038186803b158015613f1057600080fd5b505afa158015613f24573d6000803e3d6000fd5b505050506040513d6020811015613f3a57600080fd5b8101908080519060200190929190505050905061400c565b6000809054906101000a900473ffffffffffffffffffffffffffffffffffffffff169050613fc883600760008873ffffffffffffffffffffffffffffffffffffffff1673ffffffffffffffffffffffffffffffffffffffff168152602001908152602001600020546147df90919063ffffffff16565b600760008773ffffffffffffffffffffffffffffffffffffffff1673ffffffffffffffffffffffffffffffffffffffff168152602001908152602001600020819055505b60008473ffffffffffffffffffffffffffffffffffffffff1663ac210cc76040518163ffffffff1660e01b815260040160206040518083038186803b15801561405457600080fd5b505afa158015614068573d6000803e3d6000fd5b505050506040513d602081101561407e57600080fd5b810190808051906020019092919050505090506140a9600183600288856140a48a614b69565b614beb565b5050505b505050565b6000600360008773ffffffffffffffffffffffffffffffffffffffff1673ffffffffffffffffffffffffffffffffffffffff16815260200190815260200160002060008673ffffffffffffffffffffffffffffffffffffffff1673ffffffffffffffffffffffffffffffffffffffff16815260200190815260200160002090506000600460008773ffffffffffffffffffffffffffffffffffffffff1673ffffffffffffffffffffffffffffffffffffffff16815260200190815260200160002090506000600b54905060006127108288028161418b57fe5b04905060006127108388028161419d57fe5b0590506141b78286600001546147df90919063ffffffff16565b85600001819055506141d6818660010154614e0990919063ffffffff16565b856001018190555060008289039050600082890390506142038287600001546147df90919063ffffffff16565b8660000181905550614222818760010154614e0990919063ffffffff16565b86600101819055506142a560018d8d8b61426d7fffffffffffffffffffffffffffffffffffffffffffffffffffffffffffffffff61425f89614b69565b6136a090919063ffffffff16565b6142a07fffffffffffffffffffffffffffffffffffffffffffffffffffffffffffffffff886136a090919063ffffffff16565b613a3e565b6000600a60009054906101000a900473ffffffffffffffffffffffffffffffffffffffff16905060008173ffffffffffffffffffffffffffffffffffffffff16637348c8576040518163ffffffff1660e01b815260040160206040518083038186803b15801561431457600080fd5b505afa158015614328573d6000803e3d6000fd5b505050506040513d602081101561433e57600080fd5b8101908080519060200190929190505050156143dc578173ffffffffffffffffffffffffffffffffffffffff1663489e09516040518163ffffffff1660e01b815260040160206040518083038186803b15801561439a57600080fd5b505afa1580156143ae573d6000803e3d6000fd5b505050506040513d60208110156143c457600080fd5b8101908080519060200190929190505050905061453d565b6000809054906101000a900473ffffffffffffffffffffffffffffffffffffffff16905060008d905061445a85600560008473ffffffffffffffffffffffffffffffffffffffff1673ffffffffffffffffffffffffffffffffffffffff168152602001908152602001600020600001546147df90919063ffffffff16565b600560008373ffffffffffffffffffffffffffffffffffffffff1673ffffffffffffffffffffffffffffffffffffffff168152602001908152602001600020600001819055506144f584600560008473ffffffffffffffffffffffffffffffffffffffff1673ffffffffffffffffffffffffffffffffffffffff16815260200190815260200160002060010154614e0990919063ffffffff16565b600560008373ffffffffffffffffffffffffffffffffffffffff1673ffffffffffffffffffffffffffffffffffffffff16815260200190815260200160002060010181905550505b6145546000828f8d61454e89614b69565b88613a3e565b5050505050505050505050505050565b8173ffffffffffffffffffffffffffffffffffffffff1663af0b460684836040518363ffffffff1660e01b8152600401808373ffffffffffffffffffffffffffffffffffffffff1673ffffffffffffffffffffffffffffffffffffffff16815260200182815260200192505050600060405180830381600087803b1580156145eb57600080fd5b505af11580156145ff573d6000803e3d6000fd5b50505050505050565b6000808373ffffffffffffffffffffffffffffffffffffffff1663fd23ae026040518163ffffffff1660e01b815260040160206040518083038186803b15801561465157600080fd5b505afa158015614665573d6000803e3d6000fd5b505050506040513d602081101561467b57600080fd5b8101908080519060200190929190505050156147c55760008473ffffffffffffffffffffffffffffffffffffffff1663cfe8d91c6040518163ffffffff1660e01b815260040160206040518083038186803b1580156146d957600080fd5b505afa1580156146ed573d6000803e3d6000fd5b505050506040513d602081101561470357600080fd5b81019080805190602001909291905050509050670de0b6b3a76400006147328583613b2d90919063ffffffff16565b8161473957fe5b0492508473ffffffffffffffffffffffffffffffffffffffff1663ac210cc76040518163ffffffff1660e01b815260040160206040518083038186803b15801561478257600080fd5b505afa158015614796573d6000803e3d6000fd5b505050506040513d60208110156147ac57600080fd5b81019080805190602001909291905050509150506147d8565b6147cf8484614927565b80925081935050505b9250929050565b60008082840190508381101561485d576040517f08c379a000000000000000000000000000000000000000000000000000000000815260040180806020018281038252601b8152602001807f536166654d6174683a206164646974696f6e206f766572666c6f77000000000081525060200191505060405180910390fd5b8091505092915050565b6000838311158290614914576040517f08c379a00000000000000000000000000000000000000000000000000000000081526004018080602001828103825283818151815260200191508051906020019080838360005b838110156148d95780820151818401526020810190506148be565b50505050905090810190601f1680156149065780820380516001836020036101000a031916815260200191505b509250505060405180910390fd5b5060008385039050809150509392505050565b6000808373ffffffffffffffffffffffffffffffffffffffff1663ac210cc76040518163ffffffff1660e01b815260040160206040518083038186803b15801561497057600080fd5b505afa158015614984573d6000803e3d6000fd5b505050506040513d602081101561499a57600080fd5b810190808051906020019092919050505090506149b78184614e97565b91509250929050565b60008083118290614a6c576040517f08c379a00000000000000000000000000000000000000000000000000000000081526004018080602001828103825283818151815260200191508051906020019080838360005b83811015614a31578082015181840152602081019050614a16565b50505050905090810190601f168015614a5e5780820380516001836020036101000a031916815260200191505b509250505060405180910390fd5b506000838581614a7857fe5b049050809150509392505050565b6000808267ffffffffffffffff161480614ab8575064010000000067ffffffffffffffff168267ffffffffffffffff16145b80614acc5750428367ffffffffffffffff16145b15614ae157670de0b6b3a76400009050614b63565b60006301e1853e60408567ffffffffffffffff164203901b81614b0057fe5b049050600081600f0b1415614b2057670de0b6b3a7640000915050614b63565b6000614b3a60208567ffffffffffffffff16901b83614f66565b90506040614b5c670de0b6b3a764000083600f0b613b2d90919063ffffffff16565b901c925050505b92915050565b60007fffffffffffffffffffffffffffffffffffffffffffffffffffffffffffffffff8291508113614be6576040517f08c379a0000000000000000000000000000000000000000000000000000000008152600401808060200182810382526028815260200180615e736028913960400191505060405180910390fd5b919050565b60016003811115614bf857fe5b846003811115614c0457fe5b1415614cf8578173ffffffffffffffffffffffffffffffffffffffff16637c9dd789878760008560006040518663ffffffff1660e01b815260040180861515151581526020018573ffffffffffffffffffffffffffffffffffffffff1673ffffffffffffffffffffffffffffffffffffffff1681526020018473ffffffffffffffffffffffffffffffffffffffff1673ffffffffffffffffffffffffffffffffffffffff16815260200183815260200182815260200195505050505050600060405180830381600087803b158015614cdb57600080fd5b505af1158015614cef573d6000803e3d6000fd5b50505050614e01565b60026003811115614d0557fe5b846003811115614d1157fe5b1415614e00578173ffffffffffffffffffffffffffffffffffffffff16637c9dd7898787866000866040518663ffffffff1660e01b815260040180861515151581526020018573ffffffffffffffffffffffffffffffffffffffff1673ffffffffffffffffffffffffffffffffffffffff1681526020018473ffffffffffffffffffffffffffffffffffffffff1673ffffffffffffffffffffffffffffffffffffffff16815260200183815260200182815260200195505050505050600060405180830381600087803b158015614de757600080fd5b505af1158015614dfb573d6000803e3d6000fd5b505050505b5b505050505050565b600080828401905060008312158015614e225750838112155b80614e385750600083128015614e3757508381125b5b614e8d576040517f08c379a0000000000000000000000000000000000000000000000000000000008152600401808060200182810382526021815260200180615e526021913960400191505060405180910390fd5b8091505092915050565b60008073ffffffffffffffffffffffffffffffffffffffff168373ffffffffffffffffffffffffffffffffffffffff161415614ed257600080fd5b8273ffffffffffffffffffffffffffffffffffffffff16630247c79c836040518263ffffffff1660e01b81526004018082815260200191505060206040518083038186803b158015614f2357600080fd5b505afa158015614f37573d6000803e3d6000fd5b505050506040513d6020811015614f4d57600080fd5b8101908080519060200190929190505050905092915050565b6000614f94614f8c83614f7b86600f0b614f9c565b600f0b6150c490919063ffffffff16565b600f0b61512f565b905092915050565b60008082600f0b13614fad57600080fd5b6000809050600083600f0b9050680100000000000000008112614fd857604081901d90506040820191505b6401000000008112614ff257602081901d90506020820191505b62010000811261500a57601081901d90506010820191505b610100811261502157600881901d90506008820191505b6010811261503757600481901d90506004820191505b6004811261504d57600281901d90506002820191505b6002811261505c576001820191505b60006040808403901b9050600083607f0386600f0b901b9050600067800000000000000090505b60008113156150b7578182029150600060ff83901c905080607f0183901c92508082028401935050600181901d9050615083565b5081945050505050919050565b600080604083600f0b85600f0b02901d90507fffffffffffffffffffffffffffffffff80000000000000000000000000000000600f0b811215801561511c57506f7fffffffffffffffffffffffffffffff600f0b8113155b61512557600080fd5b8091505092915050565b60006840000000000000000082600f0b1261514957600080fd5b7fffffffffffffffffffffffffffffffffffffffffffffffc0000000000000000082600f0b121561517d5760009050615d2a565b60006f80000000000000000000000000000000905060006780000000000000008416600f0b13156151c357608070016a09e667f3bcc908b2fb1366ea957d3e8202901c90505b60006740000000000000008416600f0b13156151f45760807001306fe0a31b7152de8d5a46305c85edec8202901c90505b60006720000000000000008416600f0b13156152255760807001172b83c7d517adcdf7c8c50eb14a791f8202901c90505b60006710000000000000008416600f0b131561525657608070010b5586cf9890f6298b92b71842a983638202901c90505b60006708000000000000008416600f0b13156152875760807001059b0d31585743ae7c548eb68ca417fd8202901c90505b60006704000000000000008416600f0b13156152b8576080700102c9a3e778060ee6f7caca4f7a29bde88202901c90505b60006702000000000000008416600f0b13156152e957608070010163da9fb33356d84a66ae336dcdfa3f8202901c90505b60006701000000000000008416600f0b131561531a576080700100b1afa5abcbed6129ab13ec11dc95438202901c90505b600066800000000000008416600f0b131561534a57608070010058c86da1c09ea1ff19d294cf2f679b8202901c90505b600066400000000000008416600f0b131561537a5760807001002c605e2e8cec506d21bfc89a23a00f8202901c90505b600066200000000000008416600f0b13156153aa576080700100162f3904051fa128bca9c55c31e5df8202901c90505b600066100000000000008416600f0b13156153da5760807001000b175effdc76ba38e31671ca9397258202901c90505b600066080000000000008416600f0b131561540a576080700100058ba01fb9f96d6cacd4b180917c3d8202901c90505b600066040000000000008416600f0b131561543a57608070010002c5cc37da9491d0985c348c68e7b38202901c90505b600066020000000000008416600f0b131561546a5760807001000162e525ee054754457d59952920268202901c90505b600066010000000000008416600f0b131561549a57608070010000b17255775c040618bf4a4ade83fc8202901c90505b6000658000000000008416600f0b13156154c95760807001000058b91b5bc9ae2eed81e9b7d4cfab8202901c90505b6000654000000000008416600f0b13156154f8576080700100002c5c89d5ec6ca4d7c8acc017b7c98202901c90505b6000652000000000008416600f0b131561552757608070010000162e43f4f831060e02d839a9d16d8202901c90505b6000651000000000008416600f0b1315615556576080700100000b1721bcfc99d9f890ea069117638202901c90505b6000650800000000008416600f0b131561558557608070010000058b90cf1e6d97f9ca14dbcc16288202901c90505b6000650400000000008416600f0b13156155b45760807001000002c5c863b73f016468f6bac5ca2b8202901c90505b6000650200000000008416600f0b13156155e3576080700100000162e430e5a18f6119e3c02282a58202901c90505b6000650100000000008416600f0b13156156125760807001000000b1721835514b86e6d96efd1bfe8202901c90505b60006480000000008416600f0b1315615640576080700100000058b90c0b48c6be5df846c5b2ef8202901c90505b60006440000000008416600f0b131561566e57608070010000002c5c8601cc6b9e94213c72737a8202901c90505b60006420000000008416600f0b131561569c5760807001000000162e42fff037df38aa2b219f068202901c90505b60006410000000008416600f0b13156156ca57608070010000000b17217fba9c739aa5819f44f98202901c90505b60006408000000008416600f0b13156156f85760807001000000058b90bfcdee5acd3c1cedc8238202901c90505b60006404000000008416600f0b1315615726576080700100000002c5c85fe31f35a6a30da1be508202901c90505b60006402000000008416600f0b131561575457608070010000000162e42ff0999ce3541b9fffcf8202901c90505b60006401000000008416600f0b1315615782576080700100000000b17217f80f4ef5aadda455548202901c90505b600063800000008416600f0b13156157af57608070010000000058b90bfbf8479bd5a81b51ad8202901c90505b600063400000008416600f0b13156157dc5760807001000000002c5c85fdf84bd62ae30a74cc8202901c90505b600063200000008416600f0b1315615809576080700100000000162e42fefb2fed257559bdaa8202901c90505b600063100000008416600f0b13156158365760807001000000000b17217f7d5a7716bba4a9ae8202901c90505b600063080000008416600f0b1315615863576080700100000000058b90bfbe9ddbac5e109cce8202901c90505b600063040000008416600f0b131561589057608070010000000002c5c85fdf4b15de6f17eb0d8202901c90505b600063020000008416600f0b13156158bd5760807001000000000162e42fefa494f1478fde058202901c90505b600063010000008416600f0b13156158ea57608070010000000000b17217f7d20cf927c8e94c8202901c90505b6000628000008416600f0b13156159165760807001000000000058b90bfbe8f71cb4e4b33d8202901c90505b6000624000008416600f0b1315615942576080700100000000002c5c85fdf477b662b269458202901c90505b6000622000008416600f0b131561596e57608070010000000000162e42fefa3ae53369388c8202901c90505b6000621000008416600f0b131561599a576080700100000000000b17217f7d1d351a389d408202901c90505b6000620800008416600f0b13156159c657608070010000000000058b90bfbe8e8b2d3d4ede8202901c90505b6000620400008416600f0b13156159f25760807001000000000002c5c85fdf4741bea6e77e8202901c90505b6000620200008416600f0b1315615a1e576080700100000000000162e42fefa39fe95583c28202901c90505b6000620100008416600f0b1315615a4a5760807001000000000000b17217f7d1cfb72b45e18202901c90505b60006180008416600f0b1315615a75576080700100000000000058b90bfbe8e7cc35c3f08202901c90505b60006140008416600f0b1315615aa057608070010000000000002c5c85fdf473e242ea388202901c90505b60006120008416600f0b1315615acb5760807001000000000000162e42fefa39f02b772c8202901c90505b60006110008416600f0b1315615af657608070010000000000000b17217f7d1cf7d83c1a8202901c90505b60006108008416600f0b1315615b215760807001000000000000058b90bfbe8e7bdcbe2e8202901c90505b60006104008416600f0b1315615b4c576080700100000000000002c5c85fdf473dea871f8202901c90505b60006102008416600f0b1315615b7757608070010000000000000162e42fefa39ef44d918202901c90505b60006101008416600f0b1315615ba2576080700100000000000000b17217f7d1cf79e9498202901c90505b600060808416600f0b1315615bcc57608070010000000000000058b90bfbe8e7bce5448202901c90505b600060408416600f0b1315615bf65760807001000000000000002c5c85fdf473de6eca8202901c90505b600060208416600f0b1315615c20576080700100000000000000162e42fefa39ef366f8202901c90505b600060108416600f0b1315615c4a5760807001000000000000000b17217f7d1cf79afa8202901c90505b600060088416600f0b1315615c74576080700100000000000000058b90bfbe8e7bcd6d8202901c90505b600060048416600f0b1315615c9e57608070010000000000000002c5c85fdf473de6b28202901c90505b600060028416600f0b1315615cc85760807001000000000000000162e42fefa39ef3588202901c90505b600060018416600f0b1315615cf257608070010000000000000000b17217f7d1cf79ab8202901c90505b604083600f0b901d603f03600f0b81901c90506f7fffffffffffffffffffffffffffffff600f0b811115615d2557600080fd5b809150505b919050565b604051806101000160405280600073ffffffffffffffffffffffffffffffffffffffff168152602001600073ffffffffffffffffffffffffffffffffffffffff16815260200160008152602001600081526020016000815260200160008152602001600067ffffffffffffffff168152602001600067ffffffffffffffff1681525090565b604051806101000160405280600073ffffffffffffffffffffffffffffffffffffffff168152602001600073ffffffffffffffffffffffffffffffffffffffff168152602001600073ffffffffffffffffffffffffffffffffffffffff1681526020016000815260200160008152602001600073ffffffffffffffffffffffffffffffffffffffff1681526020016000815260200160008152509056fe5369676e6564536166654d6174683a206164646974696f6e206f766572666c6f77536166654d6174683a20696e76616c69642075696e7420746f20696e7420636f6e76657273696f6e5369676e6564536166654d6174683a206469766973696f6e206f766572666c6f77536166654d6174683a206d756c7469706c69636174696f6e206f766572666c6f775369676e6564536166654d6174683a206d756c7469706c69636174696f6e206f766572666c6f77a264697066735822122080924dc60039f627333dbafc344235d84a921c45aebcdc4c6551017e7343451c64736f6c63430006080033",
  "immutableReferences": {},
  "source": "// SPDX-License-Identifier: MIT\npragma solidity >=0.6.8 <0.7.0;\n\nimport \"../../libraries/BigMath.sol\";\nimport \"../../libraries/SafeMath.sol\";\nimport \"../../libraries/SignedSafeMath.sol\";\nimport \"../../interfaces/IFixCapitalPool.sol\";\nimport \"../../interfaces/IVaultHealth.sol\";\nimport \"../../interfaces/IInfoOracle.sol\";\nimport \"../../interfaces/IWrapper.sol\";\nimport \"../../interfaces/IERC20.sol\";\nimport \"../../helpers/Ownable.sol\";\nimport \"./DBSFVaultFactoryDelegateParent.sol\";\n\n/*\n\tThis contract is specifically for handling YTVault functionality\n*/\ncontract DBSFVaultFactoryDelegate4 is DBSFVaultFactoryDelegateParent {\n\tusing SafeMath for uint;\n\tusing SignedSafeMath for int;\n\n\t/*\n\t\t@Description: distribute surplus appropriately between vault owner and contract owner\n\t\t\tthis function is called by other liquidation management functions\n\n\t\t@param address _vaultOwner: the owner of the vault that has between liquidated\n\t\t@param address _FCPaddr: the address of the fix capital pool for which to distribte surplus\n\t\t@param uint _yieldAmount: value to add to rebate.amountYield\n\t\t@param int _bondAmount: value to add to rebate.amountBond\n\t\t@param address _baseWrapper: the base wrapper of the FCP\n\t*/\n\tfunction distributeYTSurplus(\n\t\taddress _vaultOwner,\n\t\taddress _FCPaddr,\n\t\tuint _yieldAmount,\n\t\tint _bondAmount,\n\t\taddress _baseWrapper\n\t) internal {\n\t\tYTPosition storage rebate = _YTLiquidationRebates[_vaultOwner][_FCPaddr];\n\t\tYTPosition storage revenue = _YTRevenue[_FCPaddr];\n\t\tuint _rebateBips = _liquidationRebateBips;\n\t\tuint yieldRebate = _yieldAmount * _rebateBips / TOTAL_BASIS_POINTS;\n\t\tint bondRebate = _bondAmount * int(_rebateBips) / int(TOTAL_BASIS_POINTS);\n\t\trebate.amountYield = rebate.amountYield.add(yieldRebate);\n\t\trebate.amountBond = rebate.amountBond.add(bondRebate);\n\t\tuint yieldRevenue = _yieldAmount - yieldRebate;\n\t\tint bondRevenue = _bondAmount - bondRebate;\n\t\trevenue.amountYield = revenue.amountYield.add(yieldRevenue);\n\t\trevenue.amountBond = revenue.amountBond.add(bondRevenue);\n\t\teditSubAccountYTVault(true, _vaultOwner, _FCPaddr, _baseWrapper, yieldRevenue.toInt().mul(-1), bondRevenue.mul(-1));\n\t\tIInfoOracle iorc = IInfoOracle(_infoOracleAddress);\n\t\taddress feeRecipientSubAcct;\n\t\tif (iorc.TreasuryFeeIsCollected()) {\n\t\t\tfeeRecipientSubAcct = iorc.sendTo();\n\t\t}\n\t\telse {\n\t\t\tfeeRecipientSubAcct = owner;\n\t\t\taddress copyFCPaddr = _FCPaddr;\n\t\t\t_YTRevenueOwnerSubAcct[copyFCPaddr].amountYield = _YTRevenueOwnerSubAcct[copyFCPaddr].amountYield.add(yieldRevenue);\n\t\t\t_YTRevenueOwnerSubAcct[copyFCPaddr].amountBond = _YTRevenueOwnerSubAcct[copyFCPaddr].amountBond.add(bondRevenue);\n\t\t}\n\t\teditSubAccountYTVault(false, feeRecipientSubAcct, _FCPaddr, _baseWrapper, yieldRevenue.toInt(), bondRevenue);\n\t}\n\n\t/*\n\t\t@Description: given an amount of wrapped token and a FCP contract which is based on the same wrapper\n\t\t\tconvert an amount of wrapped token into the current amount of ZCB that is a subasset of the wrapped token\n\n\t\t@param address _FCP: the address of the FCP contract for which to find the amount of ZCB\n\t\t@param uint _amountWrapped: the amount of wrapped token for which to find the amount of ZCB as a subasset\n\n\t\t@return uint amountZCB: the amount of ZCB contained in specific amount of wrapped asset\n\t\t@return address baseWrapper: the base wrapper of the FCP contract\n\t*/\n\tfunction getZCBcontainedInWrappedAmt(address _FCP, uint _amountWrapped) internal view returns(uint amountZCB, address baseWrapper) {\n\t\tif (IFixCapitalPool(_FCP).inPayoutPhase()) {\n\t\t\tuint conversionRate = IFixCapitalPool(_FCP).maturityConversionRate();\n\t\t\tamountZCB = conversionRate.mul(_amountWrapped) / (1 ether);\n\t\t\tbaseWrapper = address(IFixCapitalPool(_FCP).wrapper());\n\t\t}\n\t\telse {\n\t\t\t(amountZCB, baseWrapper) = getUnitValueYieldAndWrapper(_FCP, _amountWrapped);\n\t\t}\n\t}\n\n\t/*\n\t\t@Description: if a YTVault has the same FCPborrowed and FCPsupplied pay back as much debt as possible\n\t\t\twith the zcb contained as collateral in the vault\n\t\t\tthis can only be done where FCPborrowed == FCPsupplied because the ZCB that is collateral is the\n\t\t\tsame ZCB as the debt, this will not be true for any other type of Vault or YTVault\n\t\t\treturn info fetched during execution so that it is not needed to be fetched again\n\n\t\t@param address _owner: the owner of the YTVault for which to pay back debt\n\t\t@param uint _index: the index of the YTVault swithin YTvaults[_owner]\n\t\t@param YTVault memory _vault: this parameter will be modified if debt is paid back\n\t\t\twhen this function is finished executing all member variables of _vault will == the member variables of\n\t\t\tthe storage vault which _vault is a copy of\n\n\t\t@return address baseWrapper: the base wrapper of the FCP of the supplied collateral\n\t*/\n\tfunction autopayYTVault(address _owner, uint _index, YTVault memory _vault) internal returns(address baseWrapper) {\n\t\tif (_vault.FCPborrowed == _vault.FCPsupplied) {\n\t\t\tuint unitValueYield;\n\t\t\t(unitValueYield, baseWrapper) = getZCBcontainedInWrappedAmt(_vault.FCPborrowed, _vault.yieldSupplied);\n\t\t\tuint difference = _vault.bondSupplied >= 0 ? unitValueYield.add(uint(_vault.bondSupplied)) : unitValueYield.sub(uint(-_vault.bondSupplied));\n\t\t\tdifference = difference > _vault.amountBorrowed ? _vault.amountBorrowed : difference;\n\t\t\tif (difference > 0) {\n\t\t\t\t_vault.bondSupplied -= int(difference);\n\t\t\t\t_vault.amountBorrowed -= difference;\n\t\t\t\t_YTvaults[_owner][_index].bondSupplied = _vault.bondSupplied;\n\t\t\t\t_YTvaults[_owner][_index].amountBorrowed = _vault.amountBorrowed;\n\t\t\t}\n\t\t}\n\t\telse {\n\t\t\tbaseWrapper = address(IFixCapitalPool(_vault.FCPsupplied).wrapper());\n\t\t}\n\t}\n\n\t/*\n\t\t@Description: send a vault that is under the upper collateralization limit to the auction house\n\n\t\t@param address _owner: the owner of the vault to send to auction\n\t\t@param uint _index: the index of the vault in vaults[_owner] to send to auction\n\t\t@param address _FCPborrowed: the address of the FCP contract corresponding to the borrowed ZCB\n\t\t@param address _FCPsupplied: the address of the FCP contract corresponding to the supplied ZCB & YT\n\t\t@param uint _bidYield: the first bid (in YT corresponding _FCPsupplied) made by msg.sender on the vault\n\t\t\tZCB of bid is calculated by finding the corresponding amount of ZCB based on the ratio of YT to ZCB\n\t\t@param int _minBondRatio: the miniumum value of vault.bondSupplied/vault.yieldSupplied inflated by (1 ether)\n\t\t\tif ratio is below _minBondRatio tx will revert\n\t\t@param uint _amtIn: the amount of the borrowed ZCB to send in\n\t*/\n\tfunction auctionYTLiquidation(address _owner, uint _index, address _FCPborrowed, address _FCPsupplied, uint _bidYield, int _minBondRatio, uint _amtIn) external {\n\t\trequire(_YTvaults[_owner].length > _index);\n\t\tYTVault memory vault = _YTvaults[_owner][_index];\n\t\taddress baseWrapper = autopayYTVault(_owner, _index, vault);\n\t\trequire(vault.FCPborrowed == _FCPborrowed);\n\t\trequire(vault.FCPsupplied == _FCPsupplied);\n\t\trequire(vault.amountBorrowed >= _amtIn && _amtIn > 0);\n\t\tuint maxBid = vault.yieldSupplied * _amtIn / vault.amountBorrowed;\n\t\trequire(maxBid >= _bidYield);\n\n\t\t//add 1 to ratio to account for rounding error\n\t\tint bondRatio = vault.bondSupplied.mul(1 ether).div(int(vault.yieldSupplied)) + 1;\n\t\trequire(bondRatio >= _minBondRatio);\n\n\n\t\tif (vaultHealthContract.YTvaultSatisfiesUpperLimit(vault.FCPsupplied, vault.FCPborrowed, getUnitValueYield(vault.FCPsupplied, vault.yieldSupplied), vault.bondSupplied, vault.amountBorrowed)) {\n\t\t\tuint maturity = IFixCapitalPool(vault.FCPborrowed).maturity();\n\t\t\trequire(maturity < block.timestamp + MAX_TIME_TO_MATURITY);\n\t\t}\n\t\t//burn borrowed ZCB\n\t\tuint feeAdjAmtIn = stabilityFeeAdjAmountBorrowed(_amtIn, vault.timestampOpened, vault.stabilityFeeAPR);\n\t\tcollectBid(msg.sender, _FCPborrowed, feeAdjAmtIn);\n\t\tclaimStabilityFee(IFixCapitalPool(_FCPborrowed).zeroCouponBondAddress(), _FCPborrowed, feeAdjAmtIn - _amtIn);\n\t\tlowerShortInterest(_FCPborrowed, _amtIn);\n\t\t//any surplus in the bid may be added as _revenue\n\t\tif (_bidYield < maxBid){\n\t\t\tint bondBid = bondRatio.mul(int(_bidYield)) / (1 ether);\n\t\t\t//int bondCorrespondingToMaxBid = bondRatio.mul(int(maxBid)) / (1 ether);\n\t\t\tint bondCorrespondingToMaxBid = vault.bondSupplied.mul(int(_amtIn)).div(int(vault.amountBorrowed));\n\t\t\tdistributeYTSurplus(_owner, vault.FCPsupplied, maxBid - _bidYield, bondCorrespondingToMaxBid - bondBid, baseWrapper);\n\t\t}\n\t\tif (_amtIn == vault.amountBorrowed) {\n\t\t\tdelete _YTvaults[_owner][_index];\n\t\t}\n\t\telse {\n\t\t\t_YTvaults[_owner][_index].amountBorrowed -= _amtIn;\n\t\t\t_YTvaults[_owner][_index].yieldSupplied -= maxBid;\n\t\t\tint bondCorrespondingToMaxBid = bondRatio.mul(int(maxBid)) / (1 ether);\n\t\t\t_YTvaults[_owner][_index].bondSupplied -= bondCorrespondingToMaxBid;\n\t\t}\n\t\t_YTLiquidations.push(YTLiquidation(\n\t\t\t_owner,\n\t\t\tvault.FCPsupplied,\n\t\t\tvault.FCPborrowed,\n\t\t\tbondRatio,\n\t\t\tfeeAdjAmtIn,\n\t\t\tmsg.sender,\n\t\t\t_bidYield,\n\t\t\tblock.timestamp\n\t\t));\n\t}\n\n\t/*\n\t\t@Description: place a new bid on a YT vault that has already begun an auction\n\n\t\t@param uint _index: the index in _YTLiquidations[] of the auction\n\t\t@param uint _bidYield: the bid (in YT corresponding _FCPsupplied) made by msg.sender on the vault\n\t\t\tZCB of bid is calculated by finding the corresponding amount of ZCB based on the ratio of YT to ZCB\n\t\t@param uint _amtIn: the amount of borrowed asset that the liquidator will be sending in\n\t*/\n\tfunction bidOnYTLiquidation(uint _index, uint _bidYield, uint _amtIn) external {\n\t\trequire(_YTLiquidations.length > _index);\n\t\tYTLiquidation memory liq = _YTLiquidations[_index];\n\t\trequire(0 < _amtIn && _amtIn <= liq.amountBorrowed);\n\t\tuint maxBid = liq.bidAmount * _amtIn / liq.amountBorrowed;\n\t\trequire(_bidYield < maxBid);\n\n\t\trefundBid(liq.bidder, liq.FCPborrowed, _amtIn);\n\t\tcollectBid(msg.sender, liq.FCPborrowed, _amtIn);\n\n\t\tint bondCorrespondingToMaxBid = liq.bondRatio.mul(int(maxBid)) / (1 ether);\n\t\tint bondBid = (liq.bondRatio.mul(int(_bidYield)) / (1 ether)) + 1;\n\t\taddress baseWrapper = address(IFixCapitalPool(liq.FCPsupplied).wrapper());\n\t\tdistributeYTSurplus(liq.vaultOwner, liq.FCPsupplied, maxBid - _bidYield, bondCorrespondingToMaxBid - bondBid, baseWrapper);\n\n\t\tif (_amtIn == liq.amountBorrowed) {\n\t\t\t_YTLiquidations[_index].bidAmount = _bidYield;\n\t\t\t_YTLiquidations[_index].bidTimestamp = block.timestamp;\n\t\t\t_YTLiquidations[_index].bidder = msg.sender;\n\t\t}\n\t\telse {\n\t\t\t_YTLiquidations[_index].amountBorrowed -= _amtIn;\n\t\t\t_YTLiquidations[_index].bidAmount -= maxBid;\n\n\t\t\t_YTLiquidations.push(YTLiquidation(\n\t\t\t\tliq.vaultOwner,\n\t\t\t\tliq.FCPsupplied,\n\t\t\t\tliq.FCPborrowed,\n\t\t\t\tliq.bondRatio,\n\t\t\t\t_amtIn,\n\t\t\t\tmsg.sender,\n\t\t\t\t_bidYield,\n\t\t\t\tblock.timestamp\n\t\t\t));\n\t\t}\n\t}\n\n\t/*\n\t\t@Description: claim the collateral of a YT vault from an auction that was won by msg.sender\n\n\t\t@param uint _index: the index in YTLiquidations[] of the auction\n\t\t@param address _to: the address to which to send the proceeds\n\t*/\n\tfunction claimYTLiquidation(uint _index, address _to) external {\n\t\trequire(_YTLiquidations.length > _index);\n\t\tYTLiquidation storage liq = _YTLiquidations[_index];\n\t\trequire(msg.sender == liq.bidder);\n\t\trequire(block.timestamp >= AUCTION_COOLDOWN + liq.bidTimestamp);\n\t\tuint bidAmt = liq.bidAmount;\n\t\trequire(bidAmt <= uint(type(int256).max));\n\t\tint bondBid = (liq.bondRatio-1).mul(int(bidAmt)) / (1 ether);\n\t\taddress FCPsupplied = liq.FCPsupplied;\n\t\tIFixCapitalPool(FCPsupplied).transferPosition(_to, bidAmt, bondBid);\n\t\taddress baseWrapper = address(IFixCapitalPool(FCPsupplied).wrapper());\n\t\teditSubAccountYTVault(false, liq.vaultOwner, FCPsupplied, baseWrapper, -int(bidAmt), bondBid.mul(-1));\n\t\tdelete _YTLiquidations[_index];\n\t}\n\n\t/*\n\t\t@Description: when there is less than 1 day until maturity or vaults are under the lower collateralisation limit \n\t\t\tvaults may be liquidated instantly without going through the auction process, this is intended to help the VaultFactory\n\t\t\tkeep solvency in the event of a market crisis\n\t\t\tthis function is used when a liquidator would like to liquidate the entire vault\n\t\t@param address _owner: the owner of the vault to send to auction\n\t\t@param uint _index: the index of the vault in vaults[_owner] to send to auction\n\t\t@param address _FCPborrowed: the address of the FCP contract corresponding to the borrowed ZCB\n\t\t@param address _FCPsupplied: the address of the FCP contract corresponding to the supplied ZCB & YT\n\t\t@param uint _maxIn: the maximum amount of the borrowed asset that msg.sender is willing to send in\n\t\t@param int _minBondRatio: the minimum value of vault.bondSupplied / vault.yieldSupplied inflated by (1 ether)\n\t\t\tif the actual bond ratio of the vault is < _minBondRatio tx will revert\n\t\t@param uint _minOut: the minimum amount of YT from _FCPsupplied that msg.sender wants to receive from this liquidation\n\t\t@param address _to: the address to which to send all of the collateral from the vault\n\t*/\n\tfunction instantYTLiquidation(address _owner, uint _index, address _FCPborrowed, address _FCPsupplied, uint _maxIn, uint _minOut, int _minBondRatio, address _to) external {\n\t\trequire(_YTvaults[_owner].length > _index);\n\t\tYTVault memory vault = _YTvaults[_owner][_index];\n\t\taddress baseWrapperSupplied = autopayYTVault(_owner, _index, vault);\n\t\trequire(vault.FCPborrowed == _FCPborrowed);\n\t\trequire(vault.FCPsupplied == _FCPsupplied);\n\t\t/*\n\t\t\tif instant liquidations are happening we do not care about collecting stability fees, we care about system solvency\n\t\t*/\n\t\tvault.amountBorrowed = vault.amountBorrowed.sub(vault.amountSFee);\n\t\trequire(vault.amountBorrowed <= _maxIn);\n\t\trequire(vault.yieldSupplied >= _minOut && _minOut > 0);\n\t\trequire(vault.yieldSupplied <= uint(type(int256).max));\n\n\t\t//when we find bondRatio here we don't need to account for the rounding error because the only prupose of this variable is \n\t\t//the require statement below, other than that it has no impact on the distribution of funds\n\t\tint bondRatio = vault.bondSupplied.mul(1 ether).div(int(vault.yieldSupplied));\n\t\trequire(bondRatio >= _minBondRatio);\n\n\n\t\tif (IFixCapitalPool(_FCPborrowed).maturity() >= block.timestamp + CRITICAL_TIME_TO_MATURITY) {\n\t\t\tuint unitAmountYield = getUnitValueYield(vault.FCPsupplied, vault.yieldSupplied);\n\t\n\t\t\trequire(!vaultHealthContract.YTvaultSatisfiesLowerLimit(\n\t\t\t\tvault.FCPsupplied,\n\t\t\t\tvault.FCPborrowed,\n\t\t\t\tunitAmountYield,\n\t\t\t\tvault.bondSupplied,\n\t\t\t\tvault.amountBorrowed\n\t\t\t));\n\t\t}\n\n\t\t//burn borrowed ZCB\n\t\tIFixCapitalPool(_FCPborrowed).burnZCBFrom(_to, vault.amountBorrowed);\n\t\tlowerShortInterest(_FCPborrowed, vault.amountBorrowed);\n\t\tIFixCapitalPool(_FCPsupplied).transferPosition(_to, vault.yieldSupplied, vault.bondSupplied);\n\t\teditSubAccountYTVault(false, _owner, vault.FCPsupplied, baseWrapperSupplied, -int(vault.yieldSupplied), vault.bondSupplied.mul(-1));\n\n\t\tdelete _YTvaults[_owner][_index];\n\t}\n\n\n\n\t/*\n\t\t@Description: when there is less than 1 day until maturity or vaults are under the lower collateralisation limit \n\t\t\tvaults may be liquidated instantly without going through the auction process, this is intended to help the VaultFactory\n\t\t\tkeep solvency in the event of a market crisis\n\t\t\tthis function is used when a liquidator whould like to only partially liquidate the vault by providing a specific\n\t\t\tamount of the borrowed asset and receiving the corresponding percentage of the vault's collateral\n\t\t@param address _owner: the owner of the vault to send to auction\n\t\t@param uint _index: the index of the vault in vaults[_owner] to send to auction\n\t\t@param address _FCPborrowed: the address of the FCP contract corresponding to the borrowed ZCB\n\t\t@param address _FCPsupplied: the address of the FCP contract corresponding to the supplied ZCB & YT\n\t\t@param uint _in: the amount of the borrowed asset to supply to the vault\n\t\t@param int _minBondRatio: the minimum value of vault.bondSupplied / vault.yieldSupplied inflated by (1 ether)\n\t\t\tif the actual bond ratio of the vault is < _minBondRatio tx will revert\n\t\t@param uint _minOut: the minimum amount of YT from _FCPsupplied that msg.sender wants to receive from this liquidation\n\t\t@param address _to: the address to which to send all of the collateral from the vault\n\t*/\n\tfunction partialYTLiquidationSpecificIn(address _owner, uint _index, address _FCPborrowed, address _FCPsupplied, uint _in, uint _minOut, int _minBondRatio, address _to) external {\n\t\trequire(_YTvaults[_owner].length > _index);\n\t\tYTVault memory vault = _YTvaults[_owner][_index];\n\t\taddress baseWrapperSupplied = autopayYTVault(_owner, _index, vault);\n\t\trequire(vault.FCPborrowed == _FCPborrowed);\n\t\trequire(vault.FCPsupplied == _FCPsupplied);\n\t\t/*\n\t\t\tif instant liquidations are happening we do not care about collecting stability fees, we care about system solvency\n\t\t*/\n\t\tvault.amountBorrowed = vault.amountBorrowed.sub(vault.amountSFee);\n\t\trequire(0 < _in && _in <= vault.amountBorrowed);\n\n\t\t//when we find bondRatio here we don't need to account for the rounding error because the only prupose of this variable is \n\t\t//the require statement below, other than that it has no impact on the distribution of funds\n\t\tint bondRatio = vault.bondSupplied.mul(1 ether).div(int(vault.yieldSupplied));\n\t\trequire(bondRatio >= _minBondRatio);\n\t\tuint yieldOut = vault.yieldSupplied.mul(_in).div(vault.amountBorrowed);\n\t\trequire(yieldOut >= _minOut);\n\t\trequire(yieldOut <= uint(type(int256).max));\n\t\tint bondOut = vault.bondSupplied.mul(int(_in)).div(int(vault.amountBorrowed));\n\n\t\tif (IFixCapitalPool(_FCPborrowed).maturity() >= block.timestamp + CRITICAL_TIME_TO_MATURITY) {\n\t\t\tuint unitAmountYield = getUnitValueYield(vault.FCPsupplied, vault.yieldSupplied);\n\t\n\t\t\trequire(!vaultHealthContract.YTvaultSatisfiesLowerLimit(\n\t\t\t\tvault.FCPsupplied,\n\t\t\t\tvault.FCPborrowed,\n\t\t\t\tunitAmountYield,\n\t\t\t\tvault.bondSupplied,\n\t\t\t\tvault.amountBorrowed\n\t\t\t));\n\t\t}\n\t\t//burn borrowed ZCB\n\t\tIFixCapitalPool(_FCPborrowed).burnZCBFrom(_to, _in);\n\t\tlowerShortInterest(_FCPborrowed, _in);\n\t\tIFixCapitalPool(_FCPsupplied).transferPosition(_to, yieldOut, bondOut);\n\t\teditSubAccountYTVault(false, _owner, vault.FCPsupplied, baseWrapperSupplied, -int(yieldOut), bondOut.mul(-1));\n\n\t\t_YTvaults[_owner][_index].amountBorrowed = vault.amountBorrowed - _in;\n\t\t_YTvaults[_owner][_index].yieldSupplied -= yieldOut;\n\t\t_YTvaults[_owner][_index].bondSupplied -= bondOut;\n\t\t_YTvaults[_owner][_index].amountSFee = 0;\n\t}\n\n\t/*\n\t\t@Description: when there is less than 1 day until maturity or vaults are under the lower collateralisation limit \n\t\t\tvaults may be liquidated instantly without going through the auction process, this is intended to help the VaultFactory\n\t\t\tkeep solvency in the event of a market crisis\n\t\t\tthis function is used when a liquidator whould like to only partially liquidate the vault by receiving a specific\n\t\t\tamount of YT corresponding to _FCPsupplied and sending the corresponding amount of assetBorrowed\n\t\t@param address _owner: the owner of the vault to send to auction\n\t\t@param uint _index: the index of the vault in vaults[_owner] to send to auction\n\t\t@param address _FCPborrowed: the address of the FCP contract corresponding to the borrowed ZCB\n\t\t@param address _FCPsupplied: the address of the FCP contract corresponding to the supplied ZCB & YT\n\t\t@param uint _out: the amount of YT corresponding to _FCPsupplied to receive from the vault\n\t\t@param int _minBondOut: the minimum value of bond when transferPosition is called to payout liquidator\n\t\t\tif the actual bond out is < _minBondOut tx will revert\n\t\t@param uint _maxIn: the maximum amount of assetBorrowed that msg.sender is willing to bid on the vault\n\t\t@param address _to: the address to which to send all of the collateral from the vault\n\t*/\n\tfunction partialYTLiquidationSpecificOut(address _owner, uint _index, address _FCPborrowed, address _FCPsupplied, uint _out, int _minBondOut, uint _maxIn, address _to) external {\n\t\trequire(_YTvaults[_owner].length > _index);\n\t\trequire(_out <= uint(type(int256).max));\n\t\tYTVault memory vault = _YTvaults[_owner][_index];\n\t\taddress baseWrapperSupplied = autopayYTVault(_owner, _index, vault);\n\t\trequire(vault.FCPborrowed == _FCPborrowed);\n\t\trequire(vault.FCPsupplied == _FCPsupplied);\n\t\trequire(vault.yieldSupplied >= _out);\n\t\t/*\n\t\t\tif instant liquidations are happening we do not care about collecting stability fees, we care about system solvency\n\t\t*/\n\t\tvault.amountBorrowed = vault.amountBorrowed.sub(vault.amountSFee);\n\t\tuint amtIn = _out*vault.amountBorrowed;\n\t\tamtIn = amtIn/vault.yieldSupplied + (amtIn%vault.yieldSupplied == 0 ? 0 : 1);\n\t\trequire(0 < amtIn && amtIn <= _maxIn);\n\n\t\tint bondOut = vault.bondSupplied.mul(int(_out)).div(int(vault.yieldSupplied));\n\t\trequire(bondOut >= _minBondOut);\n\n\t\tif (IFixCapitalPool(_FCPborrowed).maturity() >= block.timestamp + CRITICAL_TIME_TO_MATURITY) {\n\t\t\tuint unitAmountYield = getUnitValueYield(vault.FCPsupplied, vault.yieldSupplied);\n\n\t\t\trequire(!vaultHealthContract.YTvaultSatisfiesLowerLimit(\n\t\t\t\tvault.FCPsupplied,\n\t\t\t\tvault.FCPborrowed,\n\t\t\t\tunitAmountYield,\n\t\t\t\tvault.bondSupplied,\n\t\t\t\tvault.amountBorrowed\n\t\t\t));\n\t\t}\n\n\t\t//burn borrowed ZCB\n\t\tIFixCapitalPool(_FCPborrowed).burnZCBFrom(_to, amtIn);\n\t\tlowerShortInterest(_FCPborrowed, amtIn);\n\t\tIFixCapitalPool(_FCPsupplied).transferPosition(_to, _out, bondOut);\n\t\teditSubAccountYTVault(false, _owner, vault.FCPsupplied, baseWrapperSupplied, -int(_out), bondOut.mul(-1));\n\n\t\t_YTvaults[_owner][_index].amountBorrowed = vault.amountBorrowed - amtIn;\n\t\t_YTvaults[_owner][_index].yieldSupplied -= _out;\n\t\t_YTvaults[_owner][_index].bondSupplied -= bondOut;\n\t\t_YTvaults[_owner][_index].amountSFee = 0;\n\t}\n\n}",
  "sourcePath": "/home/asher/FixFinanceV1/contracts/VaultFactory/DifferentBaseSF/DBSFVaultFactoryDelegate4.sol",
  "compiler": {
    "name": "solc",
    "version": "0.6.8+commit.0bbfe453.Emscripten.clang"
  },
  "schemaVersion": "3.4.1",
  "updatedAt": "2021-11-26T19:15:55.336Z",
  "devdoc": {
    "methods": {}
  },
  "userdoc": {
    "methods": {}
  }
}