{
  "contractName": "DBSFVaultFactoryDelegate3",
  "abi": [
    {
      "inputs": [],
      "name": "owner",
      "outputs": [
        {
          "internalType": "address",
          "name": "",
          "type": "address"
        }
      ],
      "stateMutability": "view",
      "type": "function"
    },
    {
      "inputs": [
        {
          "internalType": "address",
          "name": "newOwner",
          "type": "address"
        }
      ],
      "name": "transferOwnership",
      "outputs": [],
      "stateMutability": "nonpayable",
      "type": "function"
    },
    {
      "inputs": [
        {
          "internalType": "address",
          "name": "_FCPsupplied",
          "type": "address"
        },
        {
          "internalType": "address",
          "name": "_FCPborrowed",
          "type": "address"
        },
        {
          "internalType": "uint256",
          "name": "_yieldSupplied",
          "type": "uint256"
        },
        {
          "internalType": "int256",
          "name": "_bondSupplied",
          "type": "int256"
        },
        {
          "internalType": "uint256",
          "name": "_amountBorrowed",
          "type": "uint256"
        },
        {
          "internalType": "uint256",
          "name": "_priceMultiplier",
          "type": "uint256"
        },
        {
          "internalType": "int128",
          "name": "_suppliedRateChange",
          "type": "int128"
        },
        {
          "internalType": "int128",
          "name": "_borrowRateChange",
          "type": "int128"
        }
      ],
      "name": "openYTVault",
      "outputs": [],
      "stateMutability": "nonpayable",
      "type": "function"
    },
    {
      "inputs": [
        {
          "internalType": "uint256",
          "name": "_index",
          "type": "uint256"
        },
        {
          "internalType": "address",
          "name": "_to",
          "type": "address"
        }
      ],
      "name": "closeYTVault",
      "outputs": [],
      "stateMutability": "nonpayable",
      "type": "function"
    },
    {
      "inputs": [
        {
          "internalType": "address",
          "name": "_owner",
          "type": "address"
        },
        {
          "internalType": "uint256",
          "name": "_index",
          "type": "uint256"
        },
        {
          "internalType": "address",
          "name": "_FCPsupplied",
          "type": "address"
        },
        {
          "internalType": "address",
          "name": "_FCPborrowed",
          "type": "address"
        },
        {
          "internalType": "uint256",
          "name": "_yieldSupplied",
          "type": "uint256"
        },
        {
          "internalType": "int256",
          "name": "_bondSupplied",
          "type": "int256"
        },
        {
          "internalType": "uint256",
          "name": "_amountBorrowed",
          "type": "uint256"
        },
        {
          "internalType": "int128[3]",
          "name": "_multipliers",
          "type": "int128[3]"
        },
        {
          "internalType": "bytes",
          "name": "_data",
          "type": "bytes"
        },
        {
          "internalType": "address",
          "name": "_receiverAddr",
          "type": "address"
        }
      ],
      "name": "adjustYTVault",
      "outputs": [],
      "stateMutability": "nonpayable",
      "type": "function"
    }
  ],
  "bytecode": "0x608060405234801561001057600080fd5b50336000806101000a81548173ffffffffffffffffffffffffffffffffffffffff021916908373ffffffffffffffffffffffffffffffffffffffff160217905550615e9280620000616000396000f3fe608060405234801561001057600080fd5b50600436106100575760003560e01c8063264d0f5d1461005c57806331787a6c146101035780633d4ddf26146101515780638da5cb5b1461027d578063f2fde38b146102c7575b600080fd5b610101600480360361010081101561007357600080fd5b81019080803573ffffffffffffffffffffffffffffffffffffffff169060200190929190803573ffffffffffffffffffffffffffffffffffffffff169060200190929190803590602001909291908035906020019092919080359060200190929190803590602001909291908035600f0b90602001909291908035600f0b906020019092919050505061030b565b005b61014f6004803603604081101561011957600080fd5b8101908080359060200190929190803573ffffffffffffffffffffffffffffffffffffffff169060200190929190505050610a42565b005b61027b600480360361018081101561016857600080fd5b81019080803573ffffffffffffffffffffffffffffffffffffffff16906020019092919080359060200190929190803573ffffffffffffffffffffffffffffffffffffffff169060200190929190803573ffffffffffffffffffffffffffffffffffffffff169060200190929190803590602001909291908035906020019092919080359060200190929190806060019091929192908035906020019064010000000081111561021757600080fd5b82018360208201111561022957600080fd5b8035906020019184600183028401116401000000008311171561024b57600080fd5b9091929391929390803573ffffffffffffffffffffffffffffffffffffffff1690602001909291905050506110ad565b005b610285611abd565b604051808273ffffffffffffffffffffffffffffffffffffffff1673ffffffffffffffffffffffffffffffffffffffff16815260200191505060405180910390f35b610309600480360360208110156102dd57600080fd5b81019080803573ffffffffffffffffffffffffffffffffffffffff169060200190929190505050611ae2565b005b620f4240861015801561033e57507f7fffffffffffffffffffffffffffffffffffffffffffffffffffffffffffffff8611155b61034757600080fd5b61035683838360008913611c1c565b6000600a60009054906101000a900473ffffffffffffffffffffffffffffffffffffffff1673ffffffffffffffffffffffffffffffffffffffff1663e5af6df3308b6040518363ffffffff1660e01b8152600401808373ffffffffffffffffffffffffffffffffffffffff1673ffffffffffffffffffffffffffffffffffffffff1681526020018273ffffffffffffffffffffffffffffffffffffffff1673ffffffffffffffffffffffffffffffffffffffff1681526020019250505060206040518083038186803b15801561042b57600080fd5b505afa15801561043f573d6000803e3d6000fd5b505050506040513d602081101561045557600080fd5b8101908080519060200190929190505050905060006104748289611c9e565b90506105026040518061010001604052808c73ffffffffffffffffffffffffffffffffffffffff1681526020018b73ffffffffffffffffffffffffffffffffffffffff16815260200183815260200189815260200188815260200160008152602001600067ffffffffffffffff16815260200164010000000067ffffffffffffffff16815250868686611d6d565b61050b57600080fd5b8973ffffffffffffffffffffffffffffffffffffffff1663ec02d25733308b8b6040518563ffffffff1660e01b8152600401808573ffffffffffffffffffffffffffffffffffffffff1673ffffffffffffffffffffffffffffffffffffffff1681526020018473ffffffffffffffffffffffffffffffffffffffff1673ffffffffffffffffffffffffffffffffffffffff168152602001838152602001828152602001945050505050600060405180830381600087803b1580156105ce57600080fd5b505af11580156105e2573d6000803e3d6000fd5b505050508873ffffffffffffffffffffffffffffffffffffffff1663af0b460633886040518363ffffffff1660e01b8152600401808373ffffffffffffffffffffffffffffffffffffffff1673ffffffffffffffffffffffffffffffffffffffff16815260200182815260200192505050600060405180830381600087803b15801561066d57600080fd5b505af1158015610681573d6000803e3d6000fd5b5050505061068f8987611f16565b61069e6000338c858c8c612121565b60008973ffffffffffffffffffffffffffffffffffffffff1663ac210cc76040518163ffffffff1660e01b815260040160206040518083038186803b1580156106e657600080fd5b505afa1580156106fa573d6000803e3d6000fd5b505050506040513d602081101561071057600080fd5b8101908080519060200190929190505050905060004290506000600a60009054906101000a900473ffffffffffffffffffffffffffffffffffffffff1673ffffffffffffffffffffffffffffffffffffffff1663ce2a3b9d30856040518363ffffffff1660e01b8152600401808373ffffffffffffffffffffffffffffffffffffffff1673ffffffffffffffffffffffffffffffffffffffff1681526020018273ffffffffffffffffffffffffffffffffffffffff1673ffffffffffffffffffffffffffffffffffffffff1681526020019250505060206040518083038186803b1580156107fd57600080fd5b505afa158015610811573d6000803e3d6000fd5b505050506040513d602081101561082757600080fd5b81019080805190602001909291905050509050600960003373ffffffffffffffffffffffffffffffffffffffff1673ffffffffffffffffffffffffffffffffffffffff1681526020019081526020016000206040518061010001604052808f73ffffffffffffffffffffffffffffffffffffffff1681526020018e73ffffffffffffffffffffffffffffffffffffffff1681526020018d81526020018c81526020018b8152602001600081526020018467ffffffffffffffff1681526020018367ffffffffffffffff16815250908060018154018082558091505060019003906000526020600020906007020160009091909190915060008201518160000160006101000a81548173ffffffffffffffffffffffffffffffffffffffff021916908373ffffffffffffffffffffffffffffffffffffffff16021790555060208201518160010160006101000a81548173ffffffffffffffffffffffffffffffffffffffff021916908373ffffffffffffffffffffffffffffffffffffffff16021790555060408201518160020155606082015181600301556080820151816004015560a0820151816005015560c08201518160060160006101000a81548167ffffffffffffffff021916908367ffffffffffffffff16021790555060e08201518160060160086101000a81548167ffffffffffffffff021916908367ffffffffffffffff160217905550505050505050505050505050505050565b6000600960003373ffffffffffffffffffffffffffffffffffffffff1673ffffffffffffffffffffffffffffffffffffffff168152602001908152602001600020805490509050808310610a9557600080fd5b610a9d615cde565b600960003373ffffffffffffffffffffffffffffffffffffffff1673ffffffffffffffffffffffffffffffffffffffff1681526020019081526020016000208481548110610ae757fe5b9060005260206000209060070201604051806101000160405290816000820160009054906101000a900473ffffffffffffffffffffffffffffffffffffffff1673ffffffffffffffffffffffffffffffffffffffff1673ffffffffffffffffffffffffffffffffffffffff1681526020016001820160009054906101000a900473ffffffffffffffffffffffffffffffffffffffff1673ffffffffffffffffffffffffffffffffffffffff1673ffffffffffffffffffffffffffffffffffffffff168152602001600282015481526020016003820154815260200160048201548152602001600582015481526020016006820160009054906101000a900467ffffffffffffffff1667ffffffffffffffff1667ffffffffffffffff1681526020016006820160089054906101000a900467ffffffffffffffff1667ffffffffffffffff1667ffffffffffffffff16815250509050600081608001511115610dcc576000610c6182608001518360c001518460e00151612210565b9050816020015173ffffffffffffffffffffffffffffffffffffffff1663fc2807f133836040518363ffffffff1660e01b8152600401808373ffffffffffffffffffffffffffffffffffffffff1673ffffffffffffffffffffffffffffffffffffffff16815260200182815260200192505050600060405180830381600087803b158015610cee57600080fd5b505af1158015610d02573d6000803e3d6000fd5b50505050610d188260200151836080015161224d565b60008260a00151905082608001518203810190506000811115610dc957610dc8836020015173ffffffffffffffffffffffffffffffffffffffff1663351bd34b6040518163ffffffff1660e01b815260040160206040518083038186803b158015610d8257600080fd5b505afa158015610d96573d6000803e3d6000fd5b505050506040513d6020811015610dac57600080fd5b8101908080519060200190929190505050846020015183612376565b5b50505b600081604001511180610de457506000816060015114155b15610fa8577f7fffffffffffffffffffffffffffffffffffffffffffffffffffffffffffffff81604001511115610e1a57600080fd5b806000015173ffffffffffffffffffffffffffffffffffffffff16636a68d0c384836040015184606001516040518463ffffffff1660e01b8152600401808473ffffffffffffffffffffffffffffffffffffffff1673ffffffffffffffffffffffffffffffffffffffff1681526020018381526020018281526020019350505050600060405180830381600087803b158015610eb557600080fd5b505af1158015610ec9573d6000803e3d6000fd5b505050506000816000015173ffffffffffffffffffffffffffffffffffffffff1663ac210cc76040518163ffffffff1660e01b815260040160206040518083038186803b158015610f1957600080fd5b505afa158015610f2d573d6000803e3d6000fd5b505050506040513d6020811015610f4357600080fd5b81019080805190602001909291905050509050610fa66000338460000151848660400151600003610fa17fffffffffffffffffffffffffffffffffffffffffffffffffffffffffffffffff896060015161274a90919063ffffffff16565b612121565b505b600960003373ffffffffffffffffffffffffffffffffffffffff1673ffffffffffffffffffffffffffffffffffffffff1681526020019081526020016000208481548110610ff257fe5b9060005260206000209060070201600080820160006101000a81549073ffffffffffffffffffffffffffffffffffffffff02191690556001820160006101000a81549073ffffffffffffffffffffffffffffffffffffffff021916905560028201600090556003820160009055600482016000905560058201600090556006820160006101000a81549067ffffffffffffffff02191690556006820160086101000a81549067ffffffffffffffff0219169055505050505050565b600960008c73ffffffffffffffffffffffffffffffffffffffff1673ffffffffffffffffffffffffffffffffffffffff168152602001908152602001600020805490508a106110fb57600080fd5b611103615cde565b600960008d73ffffffffffffffffffffffffffffffffffffffff1673ffffffffffffffffffffffffffffffffffffffff1681526020019081526020016000208b8154811061114d57fe5b9060005260206000209060070201604051806101000160405290816000820160009054906101000a900473ffffffffffffffffffffffffffffffffffffffff1673ffffffffffffffffffffffffffffffffffffffff1673ffffffffffffffffffffffffffffffffffffffff1681526020016001820160009054906101000a900473ffffffffffffffffffffffffffffffffffffffff1673ffffffffffffffffffffffffffffffffffffffff1673ffffffffffffffffffffffffffffffffffffffff168152602001600282015481526020016003820154815260200160048201548152602001600582015481526020016006820160009054906101000a900467ffffffffffffffff1667ffffffffffffffff1667ffffffffffffffff1681526020016006820160089054906101000a900467ffffffffffffffff1667ffffffffffffffff1667ffffffffffffffff168152505090506000600960008e73ffffffffffffffffffffffffffffffffffffffff1673ffffffffffffffffffffffffffffffffffffffff1681526020019081526020016000208c815481106112ed57fe5b906000526020600020906007020190508973ffffffffffffffffffffffffffffffffffffffff16826020015173ffffffffffffffffffffffffffffffffffffffff16141561153457816000015173ffffffffffffffffffffffffffffffffffffffff168b73ffffffffffffffffffffffffffffffffffffffff161415806113775750816040015189105b806113855750816080015187115b806113a257508160400151891480156113a15750816060015188125b5b156114da576000866000600381106113b657fe5b6020020135600f0b600f0b136113cb57600080fd5b8c73ffffffffffffffffffffffffffffffffffffffff163373ffffffffffffffffffffffffffffffffffffffff161461140357600080fd5b6114d06040518061010001604052808d73ffffffffffffffffffffffffffffffffffffffff1681526020018c73ffffffffffffffffffffffffffffffffffffffff1681526020018b81526020018a8152602001898152602001600081526020018460c0015167ffffffffffffffff1681526020018460e0015167ffffffffffffffff168152508760006003811061149657fe5b6020020135600f0b600f0b886001600381106114ae57fe5b6020020135600f0b896002600381106114c357fe5b6020020135600f0b611d6d565b6114d957600080fd5b5b61152f82828d8d8d8d8d8c8c8080601f016020809104026020016040519081016040528093929190818152602001838380828437600081840152601f19601f820116905080830192505050505050508b612874565b6116ba565b60008660006003811061154357fe5b6020020135600f0b600f0b1361155857600080fd5b8c73ffffffffffffffffffffffffffffffffffffffff163373ffffffffffffffffffffffffffffffffffffffff161461159057600080fd5b61165b6040518061010001604052808d73ffffffffffffffffffffffffffffffffffffffff1681526020018c73ffffffffffffffffffffffffffffffffffffffff1681526020018b81526020018a815260200189815260200160008152602001600067ffffffffffffffff16815260200164010000000067ffffffffffffffff168152508760006003811061162157fe5b6020020135600f0b600f0b8860016003811061163957fe5b6020020135600f0b8960026003811061164e57fe5b6020020135600f0b611d6d565b61166457600080fd5b6116b982828d8d8d8d8d8c8c8080601f016020809104026020016040519081016040528093929190818152602001838380828437600081840152601f19601f820116905080830192505050505050508b613863565b5b7f7fffffffffffffffffffffffffffffffffffffffffffffffffffffffffffffff8911156116e757600080fd5b7f7fffffffffffffffffffffffffffffffffffffffffffffffffffffffffffffff8260400151111561171857600080fd5b60008d905060008c90508c73ffffffffffffffffffffffffffffffffffffffff16846000015173ffffffffffffffffffffffffffffffffffffffff1614806117905750600073ffffffffffffffffffffffffffffffffffffffff16846000015173ffffffffffffffffffffffffffffffffffffffff16145b156118675760006117ae85604001518d6147ae90919063ffffffff16565b905060006117c986606001518d6147ae90919063ffffffff16565b905060008373ffffffffffffffffffffffffffffffffffffffff1663ac210cc76040518163ffffffff1660e01b815260040160206040518083038186803b15801561181357600080fd5b505afa158015611827573d6000803e3d6000fd5b505050506040513d602081101561183d57600080fd5b8101908080519060200190929190505050905061185f60008686848787612121565b505050611aac565b60008b905060008b90506000600a60009054906101000a900473ffffffffffffffffffffffffffffffffffffffff1673ffffffffffffffffffffffffffffffffffffffff1663e5af6df330866040518363ffffffff1660e01b8152600401808373ffffffffffffffffffffffffffffffffffffffff1673ffffffffffffffffffffffffffffffffffffffff1681526020018273ffffffffffffffffffffffffffffffffffffffff1673ffffffffffffffffffffffffffffffffffffffff1681526020019250505060206040518083038186803b15801561194657600080fd5b505afa15801561195a573d6000803e3d6000fd5b505050506040513d602081101561197057600080fd5b8101908080519060200190929190505050905061199260008686848787612121565b600073ffffffffffffffffffffffffffffffffffffffff16876000015173ffffffffffffffffffffffffffffffffffffffff1614611aa85786604001516000039250611a0b7fffffffffffffffffffffffffffffffffffffffffffffffffffffffffffffffff886060015161274a90919063ffffffff16565b9150866000015173ffffffffffffffffffffffffffffffffffffffff1663ac210cc76040518163ffffffff1660e01b815260040160206040518083038186803b158015611a5757600080fd5b505afa158015611a6b573d6000803e3d6000fd5b505050506040513d6020811015611a8157600080fd5b81019080805190602001909291905050509050611aa76000868960000151848787612121565b5b5050505b505050505050505050505050505050565b6000809054906101000a900473ffffffffffffffffffffffffffffffffffffffff1681565b6000809054906101000a900473ffffffffffffffffffffffffffffffffffffffff1673ffffffffffffffffffffffffffffffffffffffff163373ffffffffffffffffffffffffffffffffffffffff1614611ba4576040517f08c379a000000000000000000000000000000000000000000000000000000000815260040180806020018281038252600a8152602001807f6f6e6c79206f776e65720000000000000000000000000000000000000000000081525060200191505060405180910390fd5b600073ffffffffffffffffffffffffffffffffffffffff168173ffffffffffffffffffffffffffffffffffffffff1614611c1957806000806101000a81548173ffffffffffffffffffffffffffffffffffffffff021916908373ffffffffffffffffffffffffffffffffffffffff1602179055505b50565b612710841015611c2b57600080fd5b68010000000000000000600f0b82600f0b1315611c4757600080fd5b68010000000000000000600f0b83600f0b1480611c8f575080611c7b5768010000000000000000600f0b83600f0b12611c8e565b68010000000000000000600f0b83600f0b135b5b611c9857600080fd5b50505050565b60008073ffffffffffffffffffffffffffffffffffffffff168373ffffffffffffffffffffffffffffffffffffffff161415611cd957600080fd5b8273ffffffffffffffffffffffffffffffffffffffff16630247c79c836040518263ffffffff1660e01b81526004018082815260200191505060206040518083038186803b158015611d2a57600080fd5b505afa158015611d3e573d6000803e3d6000fd5b505050506040513d6020811015611d5457600080fd5b8101908080519060200190929190505050905092915050565b6000611d828484846000896060015113611c1c565b600e60009054906101000a900473ffffffffffffffffffffffffffffffffffffffff1673ffffffffffffffffffffffffffffffffffffffff1663eafb2c0d600087600001518860200151611dde8a600001518b6040015161483c565b8a60600151611dfa8c608001518d60c001518e60e00151612210565b8b8b8b6040518a63ffffffff1660e01b8152600401808a1515151581526020018973ffffffffffffffffffffffffffffffffffffffff1673ffffffffffffffffffffffffffffffffffffffff1681526020018873ffffffffffffffffffffffffffffffffffffffff1673ffffffffffffffffffffffffffffffffffffffff16815260200187815260200186815260200185815260200184815260200183600f0b600f0b815260200182600f0b600f0b8152602001995050505050505050505060206040518083038186803b158015611ed157600080fd5b505afa158015611ee5573d6000803e3d6000fd5b505050506040513d6020811015611efb57600080fd5b81019080805190602001909291905050509050949350505050565b60008273ffffffffffffffffffffffffffffffffffffffff166389d1a0fc6040518163ffffffff1660e01b815260040160206040518083038186803b158015611f5e57600080fd5b505afa158015611f72573d6000803e3d6000fd5b505050506040513d6020811015611f8857600080fd5b810190808051906020019092919050505090506000611fef83600160008573ffffffffffffffffffffffffffffffffffffffff1673ffffffffffffffffffffffffffffffffffffffff1681526020019081526020016000205461485390919063ffffffff16565b905080600e60009054906101000a900473ffffffffffffffffffffffffffffffffffffffff1673ffffffffffffffffffffffffffffffffffffffff166372e3ea34846040518263ffffffff1660e01b8152600401808273ffffffffffffffffffffffffffffffffffffffff1673ffffffffffffffffffffffffffffffffffffffff16815260200191505060206040518083038186803b15801561209157600080fd5b505afa1580156120a5573d6000803e3d6000fd5b505050506040513d60208110156120bb57600080fd5b810190808051906020019092919050505010156120d757600080fd5b80600160008473ffffffffffffffffffffffffffffffffffffffff1673ffffffffffffffffffffffffffffffffffffffff1681526020019081526020016000208190555050505050565b8273ffffffffffffffffffffffffffffffffffffffff16637c9dd78987878786866040518663ffffffff1660e01b815260040180861515151581526020018573ffffffffffffffffffffffffffffffffffffffff1673ffffffffffffffffffffffffffffffffffffffff1681526020018473ffffffffffffffffffffffffffffffffffffffff1673ffffffffffffffffffffffffffffffffffffffff16815260200183815260200182815260200195505050505050600060405180830381600087803b1580156121f057600080fd5b505af1158015612204573d6000803e3d6000fd5b50505050505050505050565b60008061221d84846148db565b9050670de0b6b3a764000061223b86836149be90919063ffffffff16565b8161224257fe5b049150509392505050565b60008111156123725760008273ffffffffffffffffffffffffffffffffffffffff166389d1a0fc6040518163ffffffff1660e01b815260040160206040518083038186803b15801561229e57600080fd5b505afa1580156122b2573d6000803e3d6000fd5b505050506040513d60208110156122c857600080fd5b8101908080519060200190929190505050905061232d82600160008473ffffffffffffffffffffffffffffffffffffffff1673ffffffffffffffffffffffffffffffffffffffff16815260200190815260200160002054614a4490919063ffffffff16565b600160008373ffffffffffffffffffffffffffffffffffffffff1673ffffffffffffffffffffffffffffffffffffffff16815260200190815260200160002081905550505b5050565b6000811115612745578173ffffffffffffffffffffffffffffffffffffffff1663af0b460630836040518363ffffffff1660e01b8152600401808373ffffffffffffffffffffffffffffffffffffffff1673ffffffffffffffffffffffffffffffffffffffff16815260200182815260200192505050600060405180830381600087803b15801561240657600080fd5b505af115801561241a573d6000803e3d6000fd5b5050505061247081600660008673ffffffffffffffffffffffffffffffffffffffff1673ffffffffffffffffffffffffffffffffffffffff1681526020019081526020016000205461485390919063ffffffff16565b600660008573ffffffffffffffffffffffffffffffffffffffff1673ffffffffffffffffffffffffffffffffffffffff168152602001908152602001600020819055506000600a60009054906101000a900473ffffffffffffffffffffffffffffffffffffffff16905060008173ffffffffffffffffffffffffffffffffffffffff16637348c8576040518163ffffffff1660e01b815260040160206040518083038186803b15801561252257600080fd5b505afa158015612536573d6000803e3d6000fd5b505050506040513d602081101561254c57600080fd5b8101908080519060200190929190505050156125ea578173ffffffffffffffffffffffffffffffffffffffff1663489e09516040518163ffffffff1660e01b815260040160206040518083038186803b1580156125a857600080fd5b505afa1580156125bc573d6000803e3d6000fd5b505050506040513d60208110156125d257600080fd5b810190808051906020019092919050505090506126a4565b6000809054906101000a900473ffffffffffffffffffffffffffffffffffffffff16905061266083600760008873ffffffffffffffffffffffffffffffffffffffff1673ffffffffffffffffffffffffffffffffffffffff1681526020019081526020016000205461485390919063ffffffff16565b600760008773ffffffffffffffffffffffffffffffffffffffff1673ffffffffffffffffffffffffffffffffffffffff168152602001908152602001600020819055505b60008473ffffffffffffffffffffffffffffffffffffffff1663ac210cc76040518163ffffffff1660e01b815260040160206040518083038186803b1580156126ec57600080fd5b505afa158015612700573d6000803e3d6000fd5b505050506040513d602081101561271657600080fd5b810190808051906020019092919050505090506127416001836002888561273c8a614a8e565b614b10565b5050505b505050565b60008083141561275d576000905061286e565b7fffffffffffffffffffffffffffffffffffffffffffffffffffffffffffffffff831480156127ab57507f800000000000000000000000000000000000000000000000000000000000000082145b15612801576040517f08c379a0000000000000000000000000000000000000000000000000000000008152600401808060200182810382526027815260200180615e126027913960400191505060405180910390fd5b600082840290508284828161281257fe5b0514612869576040517f08c379a0000000000000000000000000000000000000000000000000000000008152600401808060200182810382526027815260200180615e126027913960400191505060405180910390fd5b809150505b92915050565b61287c615d63565b8773ffffffffffffffffffffffffffffffffffffffff168a6000015173ffffffffffffffffffffffffffffffffffffffff16146129f957600073ffffffffffffffffffffffffffffffffffffffff168a6000015173ffffffffffffffffffffffffffffffffffffffff161461299f57896000015173ffffffffffffffffffffffffffffffffffffffff16636a68d0c3838c604001518d606001516040518463ffffffff1660e01b8152600401808473ffffffffffffffffffffffffffffffffffffffff1673ffffffffffffffffffffffffffffffffffffffff1681526020018381526020018281526020019350505050600060405180830381600087803b15801561298657600080fd5b505af115801561299a573d6000803e3d6000fd5b505050505b878960000160006101000a81548173ffffffffffffffffffffffffffffffffffffffff021916908373ffffffffffffffffffffffffffffffffffffffff160217905550858960020181905550848960030181905550612dc7565b858a60400151141580612a105750848a6060015114155b15612dc65760008873ffffffffffffffffffffffffffffffffffffffff1663b116dd4e6040518163ffffffff1660e01b815260040160206040518083038186803b158015612a5d57600080fd5b505afa158015612a71573d6000803e3d6000fd5b505050506040513d6020811015612a8757600080fd5b81019080805190602001909291905050509050600086121580612ad0575085600003670de0b6b3a7640000612ac5838a6149be90919063ffffffff16565b81612acc57fe5b0410155b612ad957600080fd5b612af08b60400151886147ae90919063ffffffff16565b82600060028110612afd57fe5b602002018181525050612b63670de0b6b3a7640000612b368385600060028110612b2357fe5b602002015161274a90919063ffffffff16565b81612b3d57fe5b05612b558d60600151896147ae90919063ffffffff16565b614d2e90919063ffffffff16565b82600160028110612b7057fe5b602002018181525050600082600060028110612b8857fe5b60200201511215612c98578873ffffffffffffffffffffffffffffffffffffffff166343959bb9303385600060028110612bbe57fe5b60200201516000036040518463ffffffff1660e01b8152600401808473ffffffffffffffffffffffffffffffffffffffff1673ffffffffffffffffffffffffffffffffffffffff1681526020018373ffffffffffffffffffffffffffffffffffffffff1673ffffffffffffffffffffffffffffffffffffffff1681526020018281526020019350505050600060405180830381600087803b158015612c6257600080fd5b505af1158015612c76573d6000803e3d6000fd5b5050505081600160028110612c8757fe5b602002018051809190600101815250505b600082600160028110612ca757fe5b60200201511215612d9a578873ffffffffffffffffffffffffffffffffffffffff166388beac0c303385600160028110612cdd57fe5b60200201516000036040518463ffffffff1660e01b8152600401808473ffffffffffffffffffffffffffffffffffffffff1673ffffffffffffffffffffffffffffffffffffffff1681526020018373ffffffffffffffffffffffffffffffffffffffff1673ffffffffffffffffffffffffffffffffffffffff1681526020018281526020019350505050600060405180830381600087803b158015612d8157600080fd5b505af1158015612d95573d6000803e3d6000fd5b505050505b868b6040015114612daf57868a600201819055505b858b6060015114612dc457858a600301819055505b505b5b600080858c608001511015612f99576000612dea8d60c001518e60e001516148db565b9050670de0b6b3a7640000612e0e8e608001518903836149be90919063ffffffff16565b81612e1557fe5b0492508973ffffffffffffffffffffffffffffffffffffffff1663af0b460686856040518363ffffffff1660e01b8152600401808373ffffffffffffffffffffffffffffffffffffffff1673ffffffffffffffffffffffffffffffffffffffff16815260200182815260200192505050600060405180830381600087803b158015612e9f57600080fd5b505af1158015612eb3573d6000803e3d6000fd5b505050506000670de0b6b3a7640000612ed589846149be90919063ffffffff16565b81612edc57fe5b049050612eef8b8f608001518303611f16565b808d6004018190555060008e608001519050670de0b6b3a7640000612f3782612f29670de0b6b3a764000087614a4490919063ffffffff16565b6149be90919063ffffffff16565b81612f3e57fe5b0490508e60a001519350612f5b818561485390919063ffffffff16565b9350838e6005018190555050428d60060160006101000a81548167ffffffffffffffff021916908367ffffffffffffffff1602179055505050613108565b858c608001511115613107576000612fb98d60c001518e60e001516148db565b9050670de0b6b3a7640000612fdd888f6080015103836149be90919063ffffffff16565b81612fe457fe5b0492506000670de0b6b3a764000061300589846149be90919063ffffffff16565b8161300c57fe5b0490508d608001518111156130305761302b8b8f608001518303611f16565b613047565b60008e6080015190506130458c83830361224d565b505b808d6004018190555060008e608001519050670de0b6b3a764000061308f82613081670de0b6b3a764000087614a4490919063ffffffff16565b6149be90919063ffffffff16565b8161309657fe5b0490508e60a0015193506130b3818561485390919063ffffffff16565b9350838511156130cc5760008e600501819055506130d8565b8484038e600501819055505b50428d60060160006101000a81548167ffffffffffffffff021916908367ffffffffffffffff16021790555050505b5b6000855111156133f65760008c60000151905060008d60200151905061312c615d85565b8e6040015160001b8160006003811061314157fe5b6020020181815250508e6060015160001b8160016003811061315f57fe5b6020020181815250508e6080015160001b8160026003811061317d57fe5b60200201818152505060008514156131ae576000801b816002600381106131a057fe5b602002018181525050613208565b88816002600381106131bc57fe5b602002015160001c11156131e9578460001b816002600381106131db57fe5b602002018181525050613207565b8460000360001b816002600381106131fd57fe5b6020020181815250505b5b60608890508773ffffffffffffffffffffffffffffffffffffffff166305f62e993386868660006003811061323957fe5b602002015160001c8760016003811061324e57fe5b602002015160001c8860026003811061326357fe5b602002015160001c886040518863ffffffff1660e01b8152600401808873ffffffffffffffffffffffffffffffffffffffff1673ffffffffffffffffffffffffffffffffffffffff1681526020018773ffffffffffffffffffffffffffffffffffffffff1673ffffffffffffffffffffffffffffffffffffffff1681526020018673ffffffffffffffffffffffffffffffffffffffff1673ffffffffffffffffffffffffffffffffffffffff16815260200185815260200184815260200183815260200180602001828103825283818151815260200191508051906020019080838360005b83811015613363578082015181840152602081019050613348565b50505050905090810190601f1680156133905780820380516001836020036101000a031916815260200191505b5098505050505050505050602060405180830381600087803b1580156133b557600080fd5b505af11580156133c9573d6000803e3d6000fd5b505050506040513d60208110156133df57600080fd5b810190808051906020019092919050505050505050505b8973ffffffffffffffffffffffffffffffffffffffff168c6000015173ffffffffffffffffffffffffffffffffffffffff161461350d578973ffffffffffffffffffffffffffffffffffffffff1663ec02d25733308b8b6040518563ffffffff1660e01b8152600401808573ffffffffffffffffffffffffffffffffffffffff1673ffffffffffffffffffffffffffffffffffffffff1681526020018473ffffffffffffffffffffffffffffffffffffffff1673ffffffffffffffffffffffffffffffffffffffff168152602001838152602001828152602001945050505050600060405180830381600087803b1580156134f057600080fd5b505af1158015613504573d6000803e3d6000fd5b5050505061370c565b60008360006002811061351c57fe5b6020020151131561360c578973ffffffffffffffffffffffffffffffffffffffff166343959bb933308660006002811061355257fe5b60200201516040518463ffffffff1660e01b8152600401808473ffffffffffffffffffffffffffffffffffffffff1673ffffffffffffffffffffffffffffffffffffffff1681526020018373ffffffffffffffffffffffffffffffffffffffff1673ffffffffffffffffffffffffffffffffffffffff1681526020018281526020019350505050600060405180830381600087803b1580156135f357600080fd5b505af1158015613607573d6000803e3d6000fd5b505050505b60008360016002811061361b57fe5b6020020151131561370b578973ffffffffffffffffffffffffffffffffffffffff166388beac0c33308660016002811061365157fe5b60200201516040518463ffffffff1660e01b8152600401808473ffffffffffffffffffffffffffffffffffffffff1673ffffffffffffffffffffffffffffffffffffffff1681526020018373ffffffffffffffffffffffffffffffffffffffff1673ffffffffffffffffffffffffffffffffffffffff1681526020018281526020019350505050600060405180830381600087803b1580156136f257600080fd5b505af1158015613706573d6000803e3d6000fd5b505050505b5b858c608001511115613855578873ffffffffffffffffffffffffffffffffffffffff1663fc2807f133846040518363ffffffff1660e01b8152600401808373ffffffffffffffffffffffffffffffffffffffff1673ffffffffffffffffffffffffffffffffffffffff16815260200182815260200192505050600060405180830381600087803b15801561379f57600080fd5b505af11580156137b3573d6000803e3d6000fd5b505050506138548c6020015173ffffffffffffffffffffffffffffffffffffffff1663351bd34b6040518163ffffffff1660e01b815260040160206040518083038186803b15801561380457600080fd5b505afa158015613818573d6000803e3d6000fd5b505050506040513d602081101561382e57600080fd5b81019080805190602001909291905050508a84841061384d578461384f565b835b612376565b5b505050505050505050505050565b61386b615d63565b8773ffffffffffffffffffffffffffffffffffffffff168a6000015173ffffffffffffffffffffffffffffffffffffffff16146139e857600073ffffffffffffffffffffffffffffffffffffffff168a6000015173ffffffffffffffffffffffffffffffffffffffff161461398e57896000015173ffffffffffffffffffffffffffffffffffffffff16636a68d0c3838c604001518d606001516040518463ffffffff1660e01b8152600401808473ffffffffffffffffffffffffffffffffffffffff1673ffffffffffffffffffffffffffffffffffffffff1681526020018381526020018281526020019350505050600060405180830381600087803b15801561397557600080fd5b505af1158015613989573d6000803e3d6000fd5b505050505b878960000160006101000a81548173ffffffffffffffffffffffffffffffffffffffff021916908373ffffffffffffffffffffffffffffffffffffffff160217905550858960020181905550848960030181905550613db6565b858a604001511415806139ff5750848a6060015114155b15613db55760008873ffffffffffffffffffffffffffffffffffffffff1663b116dd4e6040518163ffffffff1660e01b815260040160206040518083038186803b158015613a4c57600080fd5b505afa158015613a60573d6000803e3d6000fd5b505050506040513d6020811015613a7657600080fd5b81019080805190602001909291905050509050600086121580613abf575085600003670de0b6b3a7640000613ab4838a6149be90919063ffffffff16565b81613abb57fe5b0410155b613ac857600080fd5b613adf8b60400151886147ae90919063ffffffff16565b82600060028110613aec57fe5b602002018181525050613b52670de0b6b3a7640000613b258385600060028110613b1257fe5b602002015161274a90919063ffffffff16565b81613b2c57fe5b05613b448d60600151896147ae90919063ffffffff16565b614d2e90919063ffffffff16565b82600160028110613b5f57fe5b602002018181525050600082600060028110613b7757fe5b60200201511215613c87578873ffffffffffffffffffffffffffffffffffffffff166343959bb9303385600060028110613bad57fe5b60200201516000036040518463ffffffff1660e01b8152600401808473ffffffffffffffffffffffffffffffffffffffff1673ffffffffffffffffffffffffffffffffffffffff1681526020018373ffffffffffffffffffffffffffffffffffffffff1673ffffffffffffffffffffffffffffffffffffffff1681526020018281526020019350505050600060405180830381600087803b158015613c5157600080fd5b505af1158015613c65573d6000803e3d6000fd5b5050505081600160028110613c7657fe5b602002018051809190600101815250505b600082600160028110613c9657fe5b60200201511215613d89578873ffffffffffffffffffffffffffffffffffffffff166388beac0c303385600160028110613ccc57fe5b60200201516000036040518463ffffffff1660e01b8152600401808473ffffffffffffffffffffffffffffffffffffffff1673ffffffffffffffffffffffffffffffffffffffff1681526020018373ffffffffffffffffffffffffffffffffffffffff1673ffffffffffffffffffffffffffffffffffffffff1681526020018281526020019350505050600060405180830381600087803b158015613d7057600080fd5b505af1158015613d84573d6000803e3d6000fd5b505050505b868b6040015114613d9e57868a600201819055505b858b6060015114613db357858a600301819055505b505b5b600073ffffffffffffffffffffffffffffffffffffffff168773ffffffffffffffffffffffffffffffffffffffff1614613fe257613df48785611f16565b60008773ffffffffffffffffffffffffffffffffffffffff1663ac210cc76040518163ffffffff1660e01b815260040160206040518083038186803b158015613e3c57600080fd5b505afa158015613e50573d6000803e3d6000fd5b505050506040513d6020811015613e6657600080fd5b81019080805190602001909291905050509050428a60060160006101000a81548167ffffffffffffffff021916908367ffffffffffffffff160217905550600a60009054906101000a900473ffffffffffffffffffffffffffffffffffffffff1673ffffffffffffffffffffffffffffffffffffffff1663ce2a3b9d30836040518363ffffffff1660e01b8152600401808373ffffffffffffffffffffffffffffffffffffffff1673ffffffffffffffffffffffffffffffffffffffff1681526020018273ffffffffffffffffffffffffffffffffffffffff1673ffffffffffffffffffffffffffffffffffffffff1681526020019250505060206040518083038186803b158015613f7757600080fd5b505afa158015613f8b573d6000803e3d6000fd5b505050506040513d6020811015613fa157600080fd5b81019080805190602001909291905050508a60060160086101000a81548167ffffffffffffffff021916908367ffffffffffffffff16021790555050613ff0565b60008414613fef57600080fd5b5b600073ffffffffffffffffffffffffffffffffffffffff168a6020015173ffffffffffffffffffffffffffffffffffffffff161461403b5761403a8a602001518b6080015161224d565b5b8673ffffffffffffffffffffffffffffffffffffffff1663af0b460683866040518363ffffffff1660e01b8152600401808373ffffffffffffffffffffffffffffffffffffffff1673ffffffffffffffffffffffffffffffffffffffff16815260200182815260200192505050600060405180830381600087803b1580156140c257600080fd5b505af11580156140d6573d6000803e3d6000fd5b50505050868960010160006101000a81548173ffffffffffffffffffffffffffffffffffffffff021916908373ffffffffffffffffffffffffffffffffffffffff16021790555083896004018190555060008a60a00151111561413e57600089600501819055505b6000835111156143265760008a60000151905060008b60200151905060008c60400151905060008d60600151905060008e6080015160000390508673ffffffffffffffffffffffffffffffffffffffff166305f62e993387878787878f6040518863ffffffff1660e01b8152600401808873ffffffffffffffffffffffffffffffffffffffff1673ffffffffffffffffffffffffffffffffffffffff1681526020018773ffffffffffffffffffffffffffffffffffffffff1673ffffffffffffffffffffffffffffffffffffffff1681526020018673ffffffffffffffffffffffffffffffffffffffff1673ffffffffffffffffffffffffffffffffffffffff16815260200185815260200184815260200183815260200180602001828103825283818151815260200191508051906020019080838360005b83811015614292578082015181840152602081019050614277565b50505050905090810190601f1680156142bf5780820380516001836020036101000a031916815260200191505b5098505050505050505050602060405180830381600087803b1580156142e457600080fd5b505af11580156142f8573d6000803e3d6000fd5b505050506040513d602081101561430e57600080fd5b81019080805190602001909291905050505050505050505b8773ffffffffffffffffffffffffffffffffffffffff168a6000015173ffffffffffffffffffffffffffffffffffffffff161461443d578773ffffffffffffffffffffffffffffffffffffffff1663ec02d257333089896040518563ffffffff1660e01b8152600401808573ffffffffffffffffffffffffffffffffffffffff1673ffffffffffffffffffffffffffffffffffffffff1681526020018473ffffffffffffffffffffffffffffffffffffffff1673ffffffffffffffffffffffffffffffffffffffff168152602001838152602001828152602001945050505050600060405180830381600087803b15801561442057600080fd5b505af1158015614434573d6000803e3d6000fd5b5050505061463c565b60008160006002811061444c57fe5b6020020151131561453c578773ffffffffffffffffffffffffffffffffffffffff166343959bb933308460006002811061448257fe5b60200201516040518463ffffffff1660e01b8152600401808473ffffffffffffffffffffffffffffffffffffffff1673ffffffffffffffffffffffffffffffffffffffff1681526020018373ffffffffffffffffffffffffffffffffffffffff1673ffffffffffffffffffffffffffffffffffffffff1681526020018281526020019350505050600060405180830381600087803b15801561452357600080fd5b505af1158015614537573d6000803e3d6000fd5b505050505b60008160016002811061454b57fe5b6020020151131561463b578773ffffffffffffffffffffffffffffffffffffffff166388beac0c33308460016002811061458157fe5b60200201516040518463ffffffff1660e01b8152600401808473ffffffffffffffffffffffffffffffffffffffff1673ffffffffffffffffffffffffffffffffffffffff1681526020018373ffffffffffffffffffffffffffffffffffffffff1673ffffffffffffffffffffffffffffffffffffffff1681526020018281526020019350505050600060405180830381600087803b15801561462257600080fd5b505af1158015614636573d6000803e3d6000fd5b505050505b5b60008a6080015111156147a25760006146628b608001518c60c001518d60e00151612210565b90508a6020015173ffffffffffffffffffffffffffffffffffffffff1663fc2807f133836040518363ffffffff1660e01b8152600401808373ffffffffffffffffffffffffffffffffffffffff1673ffffffffffffffffffffffffffffffffffffffff16815260200182815260200192505050600060405180830381600087803b1580156146ef57600080fd5b505af1158015614703573d6000803e3d6000fd5b505050506147a08b6020015173ffffffffffffffffffffffffffffffffffffffff1663351bd34b6040518163ffffffff1660e01b815260040160206040518083038186803b15801561475457600080fd5b505afa158015614768573d6000803e3d6000fd5b505050506040513d602081101561477e57600080fd5b81019080805190602001909291905050508c602001518d608001518403612376565b505b50505050505050505050565b6000808284039050600083121580156147c75750838113155b806147dd57506000831280156147dc57508381135b5b614832576040517f08c379a0000000000000000000000000000000000000000000000000000000008152600401808060200182810382526024815260200180615e396024913960400191505060405180910390fd5b8091505092915050565b60006148488383614dbc565b508091505092915050565b6000808284019050838110156148d1576040517f08c379a000000000000000000000000000000000000000000000000000000000815260040180806020018281038252601b8152602001807f536166654d6174683a206164646974696f6e206f766572666c6f77000000000081525060200191505060405180910390fd5b8091505092915050565b6000808267ffffffffffffffff16148061490d575064010000000067ffffffffffffffff168267ffffffffffffffff16145b806149215750428367ffffffffffffffff16145b1561493657670de0b6b3a764000090506149b8565b60006301e1853e60408567ffffffffffffffff164203901b8161495557fe5b049050600081600f0b141561497557670de0b6b3a76400009150506149b8565b600061498f60208567ffffffffffffffff16901b83614e55565b905060406149b1670de0b6b3a764000083600f0b6149be90919063ffffffff16565b901c925050505b92915050565b6000808314156149d15760009050614a3e565b60008284029050828482816149e257fe5b0414614a39576040517f08c379a0000000000000000000000000000000000000000000000000000000008152600401808060200182810382526021815260200180615df16021913960400191505060405180910390fd5b809150505b92915050565b6000614a8683836040518060400160405280601e81526020017f536166654d6174683a207375627472616374696f6e206f766572666c6f770000815250614e8b565b905092915050565b60007fffffffffffffffffffffffffffffffffffffffffffffffffffffffffffffffff8291508113614b0b576040517f08c379a0000000000000000000000000000000000000000000000000000000008152600401808060200182810382526028815260200180615dc96028913960400191505060405180910390fd5b919050565b60016003811115614b1d57fe5b846003811115614b2957fe5b1415614c1d578173ffffffffffffffffffffffffffffffffffffffff16637c9dd789878760008560006040518663ffffffff1660e01b815260040180861515151581526020018573ffffffffffffffffffffffffffffffffffffffff1673ffffffffffffffffffffffffffffffffffffffff1681526020018473ffffffffffffffffffffffffffffffffffffffff1673ffffffffffffffffffffffffffffffffffffffff16815260200183815260200182815260200195505050505050600060405180830381600087803b158015614c0057600080fd5b505af1158015614c14573d6000803e3d6000fd5b50505050614d26565b60026003811115614c2a57fe5b846003811115614c3657fe5b1415614d25578173ffffffffffffffffffffffffffffffffffffffff16637c9dd7898787866000866040518663ffffffff1660e01b815260040180861515151581526020018573ffffffffffffffffffffffffffffffffffffffff1673ffffffffffffffffffffffffffffffffffffffff1681526020018473ffffffffffffffffffffffffffffffffffffffff1673ffffffffffffffffffffffffffffffffffffffff16815260200183815260200182815260200195505050505050600060405180830381600087803b158015614d0c57600080fd5b505af1158015614d20573d6000803e3d6000fd5b505050505b5b505050505050565b600080828401905060008312158015614d475750838112155b80614d5d5750600083128015614d5c57508381125b5b614db2576040517f08c379a0000000000000000000000000000000000000000000000000000000008152600401808060200182810382526021815260200180615da86021913960400191505060405180910390fd5b8091505092915050565b6000808373ffffffffffffffffffffffffffffffffffffffff1663ac210cc76040518163ffffffff1660e01b815260040160206040518083038186803b158015614e0557600080fd5b505afa158015614e19573d6000803e3d6000fd5b505050506040513d6020811015614e2f57600080fd5b81019080805190602001909291905050509050614e4c8184611c9e565b91509250929050565b6000614e83614e7b83614e6a86600f0b614f4b565b600f0b61507390919063ffffffff16565b600f0b6150de565b905092915050565b6000838311158290614f38576040517f08c379a00000000000000000000000000000000000000000000000000000000081526004018080602001828103825283818151815260200191508051906020019080838360005b83811015614efd578082015181840152602081019050614ee2565b50505050905090810190601f168015614f2a5780820380516001836020036101000a031916815260200191505b509250505060405180910390fd5b5060008385039050809150509392505050565b60008082600f0b13614f5c57600080fd5b6000809050600083600f0b9050680100000000000000008112614f8757604081901d90506040820191505b6401000000008112614fa157602081901d90506020820191505b620100008112614fb957601081901d90506010820191505b6101008112614fd057600881901d90506008820191505b60108112614fe657600481901d90506004820191505b60048112614ffc57600281901d90506002820191505b6002811261500b576001820191505b60006040808403901b9050600083607f0386600f0b901b9050600067800000000000000090505b6000811315615066578182029150600060ff83901c905080607f0183901c92508082028401935050600181901d9050615032565b5081945050505050919050565b600080604083600f0b85600f0b02901d90507fffffffffffffffffffffffffffffffff80000000000000000000000000000000600f0b81121580156150cb57506f7fffffffffffffffffffffffffffffff600f0b8113155b6150d457600080fd5b8091505092915050565b60006840000000000000000082600f0b126150f857600080fd5b7fffffffffffffffffffffffffffffffffffffffffffffffc0000000000000000082600f0b121561512c5760009050615cd9565b60006f80000000000000000000000000000000905060006780000000000000008416600f0b131561517257608070016a09e667f3bcc908b2fb1366ea957d3e8202901c90505b60006740000000000000008416600f0b13156151a35760807001306fe0a31b7152de8d5a46305c85edec8202901c90505b60006720000000000000008416600f0b13156151d45760807001172b83c7d517adcdf7c8c50eb14a791f8202901c90505b60006710000000000000008416600f0b131561520557608070010b5586cf9890f6298b92b71842a983638202901c90505b60006708000000000000008416600f0b13156152365760807001059b0d31585743ae7c548eb68ca417fd8202901c90505b60006704000000000000008416600f0b1315615267576080700102c9a3e778060ee6f7caca4f7a29bde88202901c90505b60006702000000000000008416600f0b131561529857608070010163da9fb33356d84a66ae336dcdfa3f8202901c90505b60006701000000000000008416600f0b13156152c9576080700100b1afa5abcbed6129ab13ec11dc95438202901c90505b600066800000000000008416600f0b13156152f957608070010058c86da1c09ea1ff19d294cf2f679b8202901c90505b600066400000000000008416600f0b13156153295760807001002c605e2e8cec506d21bfc89a23a00f8202901c90505b600066200000000000008416600f0b1315615359576080700100162f3904051fa128bca9c55c31e5df8202901c90505b600066100000000000008416600f0b13156153895760807001000b175effdc76ba38e31671ca9397258202901c90505b600066080000000000008416600f0b13156153b9576080700100058ba01fb9f96d6cacd4b180917c3d8202901c90505b600066040000000000008416600f0b13156153e957608070010002c5cc37da9491d0985c348c68e7b38202901c90505b600066020000000000008416600f0b13156154195760807001000162e525ee054754457d59952920268202901c90505b600066010000000000008416600f0b131561544957608070010000b17255775c040618bf4a4ade83fc8202901c90505b6000658000000000008416600f0b13156154785760807001000058b91b5bc9ae2eed81e9b7d4cfab8202901c90505b6000654000000000008416600f0b13156154a7576080700100002c5c89d5ec6ca4d7c8acc017b7c98202901c90505b6000652000000000008416600f0b13156154d657608070010000162e43f4f831060e02d839a9d16d8202901c90505b6000651000000000008416600f0b1315615505576080700100000b1721bcfc99d9f890ea069117638202901c90505b6000650800000000008416600f0b131561553457608070010000058b90cf1e6d97f9ca14dbcc16288202901c90505b6000650400000000008416600f0b13156155635760807001000002c5c863b73f016468f6bac5ca2b8202901c90505b6000650200000000008416600f0b1315615592576080700100000162e430e5a18f6119e3c02282a58202901c90505b6000650100000000008416600f0b13156155c15760807001000000b1721835514b86e6d96efd1bfe8202901c90505b60006480000000008416600f0b13156155ef576080700100000058b90c0b48c6be5df846c5b2ef8202901c90505b60006440000000008416600f0b131561561d57608070010000002c5c8601cc6b9e94213c72737a8202901c90505b60006420000000008416600f0b131561564b5760807001000000162e42fff037df38aa2b219f068202901c90505b60006410000000008416600f0b131561567957608070010000000b17217fba9c739aa5819f44f98202901c90505b60006408000000008416600f0b13156156a75760807001000000058b90bfcdee5acd3c1cedc8238202901c90505b60006404000000008416600f0b13156156d5576080700100000002c5c85fe31f35a6a30da1be508202901c90505b60006402000000008416600f0b131561570357608070010000000162e42ff0999ce3541b9fffcf8202901c90505b60006401000000008416600f0b1315615731576080700100000000b17217f80f4ef5aadda455548202901c90505b600063800000008416600f0b131561575e57608070010000000058b90bfbf8479bd5a81b51ad8202901c90505b600063400000008416600f0b131561578b5760807001000000002c5c85fdf84bd62ae30a74cc8202901c90505b600063200000008416600f0b13156157b8576080700100000000162e42fefb2fed257559bdaa8202901c90505b600063100000008416600f0b13156157e55760807001000000000b17217f7d5a7716bba4a9ae8202901c90505b600063080000008416600f0b1315615812576080700100000000058b90bfbe9ddbac5e109cce8202901c90505b600063040000008416600f0b131561583f57608070010000000002c5c85fdf4b15de6f17eb0d8202901c90505b600063020000008416600f0b131561586c5760807001000000000162e42fefa494f1478fde058202901c90505b600063010000008416600f0b131561589957608070010000000000b17217f7d20cf927c8e94c8202901c90505b6000628000008416600f0b13156158c55760807001000000000058b90bfbe8f71cb4e4b33d8202901c90505b6000624000008416600f0b13156158f1576080700100000000002c5c85fdf477b662b269458202901c90505b6000622000008416600f0b131561591d57608070010000000000162e42fefa3ae53369388c8202901c90505b6000621000008416600f0b1315615949576080700100000000000b17217f7d1d351a389d408202901c90505b6000620800008416600f0b131561597557608070010000000000058b90bfbe8e8b2d3d4ede8202901c90505b6000620400008416600f0b13156159a15760807001000000000002c5c85fdf4741bea6e77e8202901c90505b6000620200008416600f0b13156159cd576080700100000000000162e42fefa39fe95583c28202901c90505b6000620100008416600f0b13156159f95760807001000000000000b17217f7d1cfb72b45e18202901c90505b60006180008416600f0b1315615a24576080700100000000000058b90bfbe8e7cc35c3f08202901c90505b60006140008416600f0b1315615a4f57608070010000000000002c5c85fdf473e242ea388202901c90505b60006120008416600f0b1315615a7a5760807001000000000000162e42fefa39f02b772c8202901c90505b60006110008416600f0b1315615aa557608070010000000000000b17217f7d1cf7d83c1a8202901c90505b60006108008416600f0b1315615ad05760807001000000000000058b90bfbe8e7bdcbe2e8202901c90505b60006104008416600f0b1315615afb576080700100000000000002c5c85fdf473dea871f8202901c90505b60006102008416600f0b1315615b2657608070010000000000000162e42fefa39ef44d918202901c90505b60006101008416600f0b1315615b51576080700100000000000000b17217f7d1cf79e9498202901c90505b600060808416600f0b1315615b7b57608070010000000000000058b90bfbe8e7bce5448202901c90505b600060408416600f0b1315615ba55760807001000000000000002c5c85fdf473de6eca8202901c90505b600060208416600f0b1315615bcf576080700100000000000000162e42fefa39ef366f8202901c90505b600060108416600f0b1315615bf95760807001000000000000000b17217f7d1cf79afa8202901c90505b600060088416600f0b1315615c23576080700100000000000000058b90bfbe8e7bcd6d8202901c90505b600060048416600f0b1315615c4d57608070010000000000000002c5c85fdf473de6b28202901c90505b600060028416600f0b1315615c775760807001000000000000000162e42fefa39ef3588202901c90505b600060018416600f0b1315615ca157608070010000000000000000b17217f7d1cf79ab8202901c90505b604083600f0b901d603f03600f0b81901c90506f7fffffffffffffffffffffffffffffff600f0b811115615cd457600080fd5b809150505b919050565b604051806101000160405280600073ffffffffffffffffffffffffffffffffffffffff168152602001600073ffffffffffffffffffffffffffffffffffffffff16815260200160008152602001600081526020016000815260200160008152602001600067ffffffffffffffff168152602001600067ffffffffffffffff1681525090565b6040518060400160405280600290602082028036833780820191505090505090565b604051806060016040528060039060208202803683378082019150509050509056fe5369676e6564536166654d6174683a206164646974696f6e206f766572666c6f77536166654d6174683a20696e76616c69642075696e7420746f20696e7420636f6e76657273696f6e536166654d6174683a206d756c7469706c69636174696f6e206f766572666c6f775369676e6564536166654d6174683a206d756c7469706c69636174696f6e206f766572666c6f775369676e6564536166654d6174683a207375627472616374696f6e206f766572666c6f77a2646970667358221220ca230ad74089c9e010eda8dfa669e88bed81d0f76c4310b18b820d17d32c280464736f6c63430006080033",
  "immutableReferences": {},
  "source": "// SPDX-License-Identifier: MIT\npragma solidity >=0.6.8 <0.7.0;\n\nimport \"../../libraries/BigMath.sol\";\nimport \"../../libraries/SafeMath.sol\";\nimport \"../../libraries/SignedSafeMath.sol\";\nimport \"../../interfaces/IDBSFYTVaultManagerFlashReceiver.sol\";\nimport \"../../interfaces/IFixCapitalPool.sol\";\nimport \"../../interfaces/IVaultHealth.sol\";\nimport \"../../interfaces/IInfoOracle.sol\";\nimport \"../../interfaces/IWrapper.sol\";\nimport \"../../interfaces/IERC20.sol\";\nimport \"../../helpers/Ownable.sol\";\nimport \"./DBSFVaultFactoryDelegateParent.sol\";\n\n/*\n\tThis contract is specifically for handling YTVault functionality\n*/\ncontract DBSFVaultFactoryDelegate3 is DBSFVaultFactoryDelegateParent {\n\tusing SafeMath for uint;\n\tusing SignedSafeMath for int;\n\n\t/*\n\t\t@Description: create a new YT vault, deposit some ZCB + YT of a FCP and borrow some ZCB from it\n\n\t\t@param address _FCPsupplied: the address of the FCP contract for which to supply ZCB and YT\n\t\t@param address _FCPborrowed: the FCP that corresponds to the ZCB that is borrowed from the new YTVault\n\t\t@param uint _yieldSupplied: the amount from the balanceYield mapping in the supplied FCP contract\n\t\t\tthat is to be supplied to the new YTVault\n\t\t@param int _bondSupplied: the amount from the balanceBonds mapping in the supplied FCP contract\n\t\t\tthat is to be supplied to the new YTVault\n\t\t@param uint _amountBorrowed: the amount of ZCB from _FCPborrowed to borrow\n\t\t@param uint _priceMultiplier: a multiplier > 1\n\t\t\twe ensure the vault will not be sent into the liquidation zone if the cross asset price\n\t\t\tof _assetBorrowed to _assetSupplied increases by a factor of _priceMultiplier\n\t\t\t(in terms of basis points)\n\t\t@param int128 _suppliedRateChange: a multiplier > 1 if _positiveBondSupplied otherwise < 1\n\t\t\twe ensure the vault will not be sent into the liquidation zone if the rate on the supplied\n\t\t\tasset increases by a factor of _suppliedRateChange\n\t\t\t(in ABDK format)\n\t\t@param int128 _borrowRateChange: a multiplier < 1\n\t\t\twe ensure the vault will not be sent into the liquidation zone if the rate on the borrow\n\t\t\tasset decreases by a factor of _borrowRateChange\n\t\t\t(in ABDK format)\n\t*/\n\tfunction openYTVault(\n\t\taddress _FCPsupplied,\n\t\taddress _FCPborrowed,\n\t\tuint _yieldSupplied,\n\t\tint _bondSupplied,\n\t\tuint _amountBorrowed,\n\t\tuint _priceMultiplier,\n\t\tint128 _suppliedRateChange,\n\t\tint128 _borrowRateChange\n\t) external {\n\t\trequire(_yieldSupplied >= MIN_YIELD_SUPPLIED && _yieldSupplied <= uint(type(int256).max));\n\t\tvalidateYTvaultMultipliers(_priceMultiplier, _suppliedRateChange, _borrowRateChange, _bondSupplied > 0);\n\t\taddress baseWrapperSupplied = IInfoOracle(_infoOracleAddress).FCPtoWrapper(address(this), _FCPsupplied);\n\t\tuint _unitYieldSupplied = wrappedToUnitAmount(baseWrapperSupplied, _yieldSupplied);\n\n\t\trequire(YTvaultWithstandsChange(\n\t\t\tYTVault(\n\t\t\t\t_FCPsupplied,\n\t\t\t\t_FCPborrowed,\n\t\t\t\t_unitYieldSupplied,\n\t\t\t\t_bondSupplied,\n\t\t\t\t_amountBorrowed,\n\t\t\t\t0,\n\t\t\t\t0,\n\t\t\t\tNO_STABILITY_FEE\n\t\t\t),\n\t\t\t_priceMultiplier,\n\t\t\t_suppliedRateChange,\n\t\t\t_borrowRateChange\n\t\t));\n\n\t\tIFixCapitalPool(_FCPsupplied).transferPositionFrom(msg.sender, address(this), _yieldSupplied, _bondSupplied);\n\t\tIFixCapitalPool(_FCPborrowed).mintZCBTo(msg.sender, _amountBorrowed);\n\t\traiseShortInterest(_FCPborrowed, _amountBorrowed);\n\n\t\teditSubAccountYTVault(false, msg.sender, _FCPsupplied, baseWrapperSupplied, int(_yieldSupplied), _bondSupplied);\n\n\t\tIWrapper baseBorrowed = IFixCapitalPool(_FCPborrowed).wrapper();\n\t\tuint64 timestampOpened = uint64(block.timestamp);\n\t\tuint64 wrapperFee = IInfoOracle(_infoOracleAddress).StabilityFeeAPR(address(this), address(baseBorrowed));\n\n\t\t_YTvaults[msg.sender].push(YTVault(_FCPsupplied, _FCPborrowed, _yieldSupplied, _bondSupplied, _amountBorrowed, 0, timestampOpened, wrapperFee));\n\n\t}\n\n\t/*\n\t\t@Description: fully repay a YT vault and withdraw all collateral\n\n\t\t@param uint _index: the YT vault to close is at YTvaults[msg.sender][_index]\n\t\t@param address _to: the address to which to send all collateral after closing the vault\n\t*/\n\tfunction closeYTVault(uint _index, address _to) external {\n\t\tuint len = _YTvaults[msg.sender].length;\n\t\trequire(_index < len);\n\t\tYTVault memory vault = _YTvaults[msg.sender][_index];\n\n\t\t//burn borrowed ZCB\n\t\tif (vault.amountBorrowed > 0) {\n\t\t\tuint feeAdjBorrowAmt = stabilityFeeAdjAmountBorrowed(vault.amountBorrowed, vault.timestampOpened, vault.stabilityFeeAPR);\n\t\t\tIFixCapitalPool(vault.FCPborrowed).burnZCBFrom(msg.sender, feeAdjBorrowAmt);\n\t\t\tlowerShortInterest(vault.FCPborrowed, vault.amountBorrowed);\n\t\t\tuint sFee = vault.amountSFee;\n\t\t\tsFee += feeAdjBorrowAmt - vault.amountBorrowed;\n\t\t\tif (sFee > 0) {\n\t\t\t\tclaimStabilityFee(IFixCapitalPool(vault.FCPborrowed).zeroCouponBondAddress(), vault.FCPborrowed, sFee);\n\t\t\t}\n\t\t}\n\t\tif (vault.yieldSupplied > 0 || vault.bondSupplied != 0) {\n\t\t\trequire(vault.yieldSupplied <= uint(type(int256).max));\n\t\t\t//we already know the vault would pass the check so no need to check\n\t\t\tIFixCapitalPool(vault.FCPsupplied).transferPosition(_to, vault.yieldSupplied, vault.bondSupplied);\n\t\t\taddress baseWrapperSupplied = address(IFixCapitalPool(vault.FCPsupplied).wrapper());\n\t\t\teditSubAccountYTVault(false, msg.sender, vault.FCPsupplied, baseWrapperSupplied, -int(vault.yieldSupplied), vault.bondSupplied.mul(-1));\n\t\t}\n\n\t\tdelete _YTvaults[msg.sender][_index];\n\t}\n\n\t/*\n\t\t@Description: adjust the state of a YT vault by either changing the assets in it\n\t\t\tor paying down/increasing debt or supplying/withdrawing collateral\n\t\t\tfor any call where funds would be transfered out of the vault msg.sender must be the vault owner\n\t\t\tif the _data param has length > 0, assets sent out by the vault will be sent via flashloan\n\t\t\tand repayment must be made in the required collateral assets \n\n\t\t@param address _owner: the owner of the YT vault to adjust\n\t\t@param uint _index: the index of the YT vault in YTvaults[_owner]\n\t\t@param address _FCPsupplied: the new FCP (may be the same as previous) corresponding to the vault's\n\t\t\tZCB & YT collateral\n\t\t@param address _FCPborrowed: the new FCP (may be the same as previous) corresponding to the ZCB\n\t\t\tthat is to be borrowed from the vault\n\t\t@param uint _yieldSupplied: the amount from the balanceYield mapping in the supplied FCP contract\n\t\t\tthat will be supplied as collateral to the YTVault after execution\n\t\t@param int _bondSupplied: the amount from the balanceBonds mapping in the supplied FCP contract\n\t\t\tthat will be supplied as collateral to the YTVault after execution\n\t\t@param uint _amountBorrowed: the total amount of debt of the vault after execution\n\t\t@param int128[3] calldata _multipliers: the 3 multipliers used on call to\n\t\t\tvaultHealthContract.YTvaultWithstandsChange\n\t\t\t\tuint(_multipliers[0]) is priceMultiplier\n\t\t\t\t_multipliers[1] is suppliedRateMultiplier\n\t\t\t\t_multipliers[2] is borrowedRateMultiplier\n\t\t@param bytes calldata _data: data to be send to the flashloan receiver if a flashloan is to be done\n\t\t\tif _data.length == 0 there will be no flashloan\n\t\t@param  address _receiverAddr: the address of the flashloan receiver contract\n\t*/\n\tfunction adjustYTVault(\n\t\taddress _owner,\n\t\tuint _index,\n\t\taddress _FCPsupplied,\n\t\taddress _FCPborrowed,\n\t\tuint _yieldSupplied,\n\t\tint _bondSupplied,\n\t\tuint _amountBorrowed,\n\t\tint128[3] calldata _multipliers,\n\t\tbytes calldata _data,\n\t\taddress _receiverAddr\n\t) external {\n\t\trequire(_index < _YTvaults[_owner].length);\n\n\t\tYTVault memory mVault = _YTvaults[_owner][_index];\n\t\tYTVault storage sVault = _YTvaults[_owner][_index];\n\n\t\tif (mVault.FCPborrowed == _FCPborrowed) {\n\t\t\t//ensure that after operations vault will be in good health\n\t\t\t//only check health if at any point funds are being removed from the vault\n\t\t\tif (\n\t\t\t\t_FCPsupplied != mVault.FCPsupplied ||\n\t\t\t\t_yieldSupplied < mVault.yieldSupplied ||\n\t\t\t\t_amountBorrowed > mVault.amountBorrowed ||\n\t\t\t\t(_yieldSupplied == mVault.yieldSupplied && _bondSupplied < mVault.bondSupplied)\n\t\t\t) {\n\t\t\t\trequire(_multipliers[0] > 0);\n\t\t\t\trequire(msg.sender == _owner);\n\t\t\t\trequire(YTvaultWithstandsChange(\n\t\t\t\t\tYTVault(\n\t\t\t\t\t\t_FCPsupplied,\n\t\t\t\t\t\t_FCPborrowed,\n\t\t\t\t\t\t_yieldSupplied,\n\t\t\t\t\t\t_bondSupplied,\n\t\t\t\t\t\t_amountBorrowed,\n\t\t\t\t\t\t0,\n\t\t\t\t\t\tmVault.timestampOpened,\n\t\t\t\t\t\tmVault.stabilityFeeAPR\n\t\t\t\t\t),\n\t\t\t\t\tuint(_multipliers[0]),\n\t\t\t\t\t_multipliers[1],\n\t\t\t\t\t_multipliers[2]\n\t\t\t\t));\n\t\t\t}\n\t\t\tadjYTVaultSameBorrow(\n\t\t\t\tmVault,\n\t\t\t\tsVault,\n\t\t\t\t_FCPsupplied,\n\t\t\t\t_FCPborrowed,\n\t\t\t\t_yieldSupplied,\n\t\t\t\t_bondSupplied,\n\t\t\t\t_amountBorrowed,\n\t\t\t\t_data,\n\t\t\t\t_receiverAddr\n\t\t\t);\n\t\t}\n\t\telse {\n\t\t\trequire(_multipliers[0] > 0);\n\t\t\trequire(msg.sender == _owner);\n\t\t\trequire(YTvaultWithstandsChange(\n\t\t\t\tYTVault(\n\t\t\t\t\t_FCPsupplied,\n\t\t\t\t\t_FCPborrowed,\n\t\t\t\t\t_yieldSupplied,\n\t\t\t\t\t_bondSupplied,\n\t\t\t\t\t_amountBorrowed,\n\t\t\t\t\t0,\n\t\t\t\t\t0,\n\t\t\t\t\tNO_STABILITY_FEE\n\t\t\t\t),\n\t\t\t\tuint(_multipliers[0]),\n\t\t\t\t_multipliers[1],\n\t\t\t\t_multipliers[2]\n\t\t\t));\n\t\t\tadjYTVaultChangeBorrow(\n\t\t\t\tmVault,\n\t\t\t\tsVault,\n\t\t\t\t_FCPsupplied,\n\t\t\t\t_FCPborrowed,\n\t\t\t\t_yieldSupplied,\n\t\t\t\t_bondSupplied,\n\t\t\t\t_amountBorrowed,\n\t\t\t\t_data,\n\t\t\t\t_receiverAddr\n\t\t\t);\n\t\t}\n\n\t\trequire(_yieldSupplied <= uint(type(int256).max));\n\t\trequire(mVault.yieldSupplied <= uint(type(int256).max));\n\t\taddress copyVaultOwner = _owner; //prevent stack too deep\n\t\taddress copyFCPsupplied = _FCPsupplied; //prevent stack too deep\n\t\tif (mVault.FCPsupplied == _FCPsupplied || mVault.FCPsupplied == address(0)) {\n\t\t\tint yieldChange = int(_yieldSupplied).sub(int(mVault.yieldSupplied));\n\t\t\tint bondChange = _bondSupplied.sub(mVault.bondSupplied);\n\t\t\taddress baseWrapperSupplied = address(IFixCapitalPool(copyFCPsupplied).wrapper());\n\t\t\teditSubAccountYTVault(false, copyVaultOwner, copyFCPsupplied, baseWrapperSupplied, yieldChange, bondChange);\n\t\t}\n\t\telse {\n\t\t\tint yieldChange = int(_yieldSupplied);\n\t\t\tint bondChange = _bondSupplied;\n\t\t\taddress baseWrapperSupplied = IInfoOracle(_infoOracleAddress).FCPtoWrapper(address(this), copyFCPsupplied);\n\t\t\teditSubAccountYTVault(false, copyVaultOwner, copyFCPsupplied, baseWrapperSupplied, yieldChange, bondChange);\n\t\t\tif (mVault.FCPsupplied != address(0)) {\n\t\t\t\tyieldChange = -int(mVault.yieldSupplied);\n\t\t\t\tbondChange = mVault.bondSupplied.mul(-1);\n\t\t\t\tbaseWrapperSupplied = address(IFixCapitalPool(mVault.FCPsupplied).wrapper());\n\t\t\t\teditSubAccountYTVault(false, copyVaultOwner, mVault.FCPsupplied, baseWrapperSupplied, yieldChange, bondChange);\n\t\t\t}\n\t\t}\n\t}\n\n\t/*\n\t\t@Description: adjust the state of a YT vault by either changing the assets in it\n\t\t\tor paying down/increasing debt or supplying/withdrawing collateral\n\t\t\tif the _data param has length > 0, assets sent out by the vault will be sent via flashloan\n\t\t\tand repayment must be made in the required collateral assets \n\t\t\tthis function specifically handles the case where the borrow asset is not being changed\n\n\t\t@param YTVault memory mVault: stores the state of the vault prior to execution of this function\n\t\t@param YTVault storage sVault: reference to the storage location where the data from the vault is located\n\t\t@param address _FCPsupplied: the new FCP (may be the same as previous) corresponding to the vault's\n\t\t\tZCB & YT collateral\n\t\t@param address _FCPborrowed: the new FCP (may be the same as previous) corresponding to the ZCB\n\t\t\tthat is to be borrowed from the vault\n\t\t@param uint _yieldSupplied: the amount from the balanceYield mapping in the supplied FCP contract\n\t\t\tthat will be supplied as collateral to the YTVault after execution\n\t\t@param int _bondSupplied: the amount from the balanceBonds mapping in the supplied FCP contract\n\t\t\tthat will be supplied as collateral to the YTVault after execution\n\t\t@param uint _amountBorrowed: the total amount of debt of the vault after execution\n\t\t@param bytes calldata _data: data to be send to the flashloan receiver if a flashloan is to be done\n\t\t\tif _data.length == 0 there will be no flashloan\n\t\t@param  address _receiverAddr: the address of the flashloan receiver contract\n\t*/\n\tfunction adjYTVaultSameBorrow(\n\t\tYTVault memory mVault,\n\t\tYTVault storage sVault,\n\t\taddress _FCPsupplied,\n\t\taddress _FCPborrowed,\n\t\tuint _yieldSupplied,\n\t\tint _bondSupplied,\n\t\tuint _amountBorrowed,\n\t\tbytes memory _data,\n\t\taddress _receiverAddr\n\t) internal {\n\t\tint[2] memory changes;\n\t\tif (mVault.FCPsupplied != _FCPsupplied) {\n\t\t\tif (mVault.FCPsupplied != address(0)) {\n\t\t\t\tIFixCapitalPool(mVault.FCPsupplied).transferPosition(_receiverAddr, mVault.yieldSupplied, mVault.bondSupplied);\n\t\t\t}\n\t\t\tsVault.FCPsupplied = _FCPsupplied;\n\t\t\tsVault.yieldSupplied = _yieldSupplied;\n\t\t\tsVault.bondSupplied = _bondSupplied;\n\t\t}\n\t\telse if (mVault.yieldSupplied != _yieldSupplied || mVault.bondSupplied != _bondSupplied) {\n\t\t\tuint conversionRate = IFixCapitalPool(_FCPsupplied).currentConversionRate();\n\t\t\trequire(_bondSupplied >= 0 || _yieldSupplied.mul(conversionRate) / (1 ether) >= uint(-_bondSupplied));\n\t\t\t//write change in YT & ZCB into yield supplied & bond supplied respectively on mVault to save stack space\n\t\t\tchanges[0] = int(_yieldSupplied).sub(int(mVault.yieldSupplied));\n\t\t\tchanges[1] = _bondSupplied.sub(mVault.bondSupplied).add(changes[0].mul(int(conversionRate)) / (1 ether));\n\t\t\tif (changes[0] < 0) {\n\t\t\t\tIFixCapitalPool(_FCPsupplied).transferYT(address(this), msg.sender, uint(-changes[0]));\n\t\t\t\tchanges[1]++; //offset rounding error when updating bond balance amounts\n\t\t\t}\n\t\t\tif (changes[1] < 0) {\n\t\t\t\tIFixCapitalPool(_FCPsupplied).transferZCB(address(this), msg.sender, uint(-changes[1]));\n\t\t\t}\n\t\t\tif (mVault.yieldSupplied != _yieldSupplied) {\n\t\t\t\tsVault.yieldSupplied = _yieldSupplied;\n\t\t\t}\n\t\t\tif (mVault.bondSupplied != _bondSupplied) {\n\t\t\t\tsVault.bondSupplied = _bondSupplied;\n\t\t\t}\n\t\t}\n\t\tuint change;\n\t\tuint adjSFee;\n\t\tif (mVault.amountBorrowed < _amountBorrowed) {\n\t\t\tuint stabilityFeeMultiplier = getStabilityFeeMultiplier(mVault.timestampOpened, mVault.stabilityFeeAPR);\n\t\t\tchange = stabilityFeeMultiplier.mul(_amountBorrowed - mVault.amountBorrowed) / (1 ether);\n\t\t\tIFixCapitalPool(_FCPborrowed).mintZCBTo(_receiverAddr, change);\n\t\t\tuint adjBorrowed = stabilityFeeMultiplier.mul(_amountBorrowed) / (1 ether);\n\t\t\traiseShortInterest(_FCPborrowed, adjBorrowed - mVault.amountBorrowed);\n\t\t\tsVault.amountBorrowed = adjBorrowed;\n\t\t\t{\n\t\t\t\tuint temp = mVault.amountBorrowed; // prevent stack too deep\n\t\t\t\ttemp = stabilityFeeMultiplier.sub(1 ether).mul(temp) / (1 ether);\n\t\t\t\tadjSFee = mVault.amountSFee; //prevent stack too deep\n\t\t\t\tadjSFee = adjSFee.add(temp);\n\t\t\t\tsVault.amountSFee = adjSFee;\n\t\t\t}\n\t\t\tsVault.timestampOpened = uint64(block.timestamp);\n\t\t}\n\t\telse if (mVault.amountBorrowed > _amountBorrowed) {\n\t\t\tuint stabilityFeeMultiplier = getStabilityFeeMultiplier(mVault.timestampOpened, mVault.stabilityFeeAPR);\n\t\t\tchange = stabilityFeeMultiplier.mul(mVault.amountBorrowed - _amountBorrowed) / (1 ether); //amt to burn\n\t\t\tuint adjBorrowed = stabilityFeeMultiplier.mul(_amountBorrowed) / (1 ether);\n\t\t\tif (adjBorrowed > mVault.amountBorrowed) {\n\t\t\t\traiseShortInterest(_FCPborrowed, adjBorrowed - mVault.amountBorrowed);\n\t\t\t}\n\t\t\telse {\n\t\t\t\tuint mVaultAmtBorrowed = mVault.amountBorrowed;\n\t\t\t\tlowerShortInterest(_FCPborrowed, mVaultAmtBorrowed - adjBorrowed);\n\t\t\t}\n\t\t\tsVault.amountBorrowed = adjBorrowed;\n\t\t\t{\n\t\t\t\tuint temp = mVault.amountBorrowed; // prevent stack too deep\n\t\t\t\ttemp = stabilityFeeMultiplier.sub(1 ether).mul(temp) / (1 ether);\n\t\t\t\tadjSFee = mVault.amountSFee; // prevent stack too deep\n\t\t\t\tadjSFee = adjSFee.add(temp);\n\t\t\t\tif (change > adjSFee) {\n\t\t\t\t\tsVault.amountSFee = 0;\n\t\t\t\t}\n\t\t\t\telse {\n\t\t\t\t\tsVault.amountSFee = adjSFee - change;\n\t\t\t\t}\n\t\t\t}\n\t\t\tsVault.timestampOpened = uint64(block.timestamp);\n\t\t}\n\n\t\t//-----------------------------flashloan------------------\n\t\tif (_data.length > 0) {\n\t\t\taddress FCPsupplied = mVault.FCPsupplied;\n\t\t\taddress FCPborrowed = mVault.FCPborrowed;\n\t\t\tbytes32[3] memory toPass;\n\t\t\ttoPass[0] = bytes32(mVault.yieldSupplied);\n\t\t\ttoPass[1] = bytes32(mVault.bondSupplied);\n\t\t\ttoPass[2] = bytes32(mVault.amountBorrowed);\n\t\t\tif (change == 0) {\n\t\t\t\ttoPass[2] = bytes32(0);\n\t\t\t}\n\t\t\telse if (uint(toPass[2]) > _amountBorrowed) {\n\t\t\t\ttoPass[2] = bytes32(int(change));\n\t\t\t}\n\t\t\telse {\n\t\t\t\ttoPass[2] = bytes32(-int(change));\n\t\t\t}\n\t\t\tbytes memory data = _data;\n\t\t\tIDBSFYTVaultManagerFlashReceiver(_receiverAddr).onFlashLoan(\n\t\t\t\tmsg.sender,\n\t\t\t\tFCPsupplied,\n\t\t\t\tFCPborrowed,\n\t\t\t\tuint(toPass[0]),\n\t\t\t\tint(toPass[1]),\n\t\t\t\tint(toPass[2]),\n\t\t\t\tdata\n\t\t\t);\n\t\t}\n\n\t\t//-----------------------------get funds-------------------------\n\t\tif (mVault.FCPsupplied != _FCPsupplied) {\n\t\t\tIFixCapitalPool(_FCPsupplied).transferPositionFrom(msg.sender, address(this), _yieldSupplied, _bondSupplied);\n\t\t}\n\t\telse {\n\t\t\tif (changes[0] > 0) {\n\t\t\t\tIFixCapitalPool(_FCPsupplied).transferYT(msg.sender, address(this), uint(changes[0]));\n\t\t\t}\n\t\t\tif (changes[1] > 0) {\n\t\t\t\tIFixCapitalPool(_FCPsupplied).transferZCB(msg.sender, address(this), uint(changes[1]));\n\t\t\t}\n\t\t}\n\t\tif (mVault.amountBorrowed > _amountBorrowed) {\n\t\t\tIFixCapitalPool(_FCPborrowed).burnZCBFrom(msg.sender,  change);\n\t\t\tclaimStabilityFee(IFixCapitalPool(mVault.FCPborrowed).zeroCouponBondAddress(), _FCPborrowed, adjSFee < change ? adjSFee : change);\n\t\t}\n\t}\n\n\t/*\n\t\t@Description: adjust the state of a YT vault by either changing the assets in it\n\t\t\tor paying down/increasing debt or supplying/withdrawing collateral\n\t\t\tif the _data param has length > 0, assets sent out by the vault will be sent via flashloan\n\t\t\tand repayment must be made in the required collateral assets \n\t\t\tthis function specifically handles the case where the borrow asset is being changed\n\n\t\t@param YTVault memory mVault: stores the state of the vault prior to execution of this function\n\t\t@param YTVault storage sVault: reference to the storage location where the data from the vault is located\n\t\t@param address _FCPsupplied: the new FCP (may be the same as previous) corresponding to the vault's\n\t\t\tZCB & YT collateral\n\t\t@param address _FCPborrowed: the new FCP (may be the same as previous) corresponding to the ZCB\n\t\t\tthat is to be borrowed from the vault\n\t\t@param uint _yieldSupplied: the amount from the balanceYield mapping in the supplied FCP contract\n\t\t\tthat will be supplied as collateral to the YTVault after execution\n\t\t@param int _bondSupplied: the amount from the balanceBonds mapping in the supplied FCP contract\n\t\t\tthat will be supplied as collateral to the YTVault after execution\n\t\t@param uint _amountBorrowed: the total amount of debt of the vault after execution\n\t\t@param bytes calldata _data: data to be send to the flashloan receiver if a flashloan is to be done\n\t\t\tif _data.length == 0 there will be no flashloan\n\t\t@param  address _receiverAddr: the address of the flashloan receiver contract\n\t*/\n\tfunction adjYTVaultChangeBorrow(\n\t\tYTVault memory mVault,\n\t\tYTVault storage sVault,\n\t\taddress _FCPsupplied,\n\t\taddress _FCPborrowed,\n\t\tuint _yieldSupplied,\n\t\tint _bondSupplied,\n\t\tuint _amountBorrowed,\n\t\tbytes memory _data,\n\t\taddress _receiverAddr\n\t) internal {\n\t\tint[2] memory changes;\n\t\tif (mVault.FCPsupplied != _FCPsupplied) {\n\t\t\tif (mVault.FCPsupplied != address(0)) {\n\t\t\t\tIFixCapitalPool(mVault.FCPsupplied).transferPosition(_receiverAddr, mVault.yieldSupplied, mVault.bondSupplied);\n\t\t\t}\n\t\t\tsVault.FCPsupplied = _FCPsupplied;\n\t\t\tsVault.yieldSupplied = _yieldSupplied;\n\t\t\tsVault.bondSupplied = _bondSupplied;\n\t\t}\n\t\telse if (mVault.yieldSupplied != _yieldSupplied || mVault.bondSupplied != _bondSupplied) {\n\t\t\tuint conversionRate = IFixCapitalPool(_FCPsupplied).currentConversionRate();\n\t\t\trequire(_bondSupplied >= 0 || _yieldSupplied.mul(conversionRate) / (1 ether) >= uint(-_bondSupplied));\n\t\t\t//write change in YT & ZCB into yield supplied & bond supplied respectively on mVault to save stack space\n\t\t\tchanges[0] = int(_yieldSupplied).sub(int(mVault.yieldSupplied));\n\t\t\tchanges[1] = _bondSupplied.sub(mVault.bondSupplied).add(changes[0].mul(int(conversionRate)) / (1 ether));\n\t\t\tif (changes[0] < 0) {\n\t\t\t\tIFixCapitalPool(_FCPsupplied).transferYT(address(this), msg.sender, uint(-changes[0]));\n\t\t\t\tchanges[1]++; //offset rounding error when updating bond balance amounts\n\t\t\t}\n\t\t\tif (changes[1] < 0) {\n\t\t\t\tIFixCapitalPool(_FCPsupplied).transferZCB(address(this), msg.sender, uint(-changes[1]));\n\t\t\t}\n\t\t\tif (mVault.yieldSupplied != _yieldSupplied) {\n\t\t\t\tsVault.yieldSupplied = _yieldSupplied;\n\t\t\t}\n\t\t\tif (mVault.bondSupplied != _bondSupplied) {\n\t\t\t\tsVault.bondSupplied = _bondSupplied;\n\t\t\t}\n\t\t}\n\n\t\tif (_FCPborrowed != address(0)) {\n\t\t\traiseShortInterest(_FCPborrowed, _amountBorrowed);\n\t\t\tIWrapper wrapper = IFixCapitalPool(_FCPborrowed).wrapper();\n\t\t\tsVault.timestampOpened = uint64(block.timestamp);\n\t\t\tsVault.stabilityFeeAPR = IInfoOracle(_infoOracleAddress).StabilityFeeAPR(address(this), address(wrapper));\n\t\t}\n\t\telse {\n\t\t\trequire(_amountBorrowed == 0);\n\t\t}\n\t\tif (mVault.FCPborrowed != address(0)) {\n\t\t\tlowerShortInterest(mVault.FCPborrowed, mVault.amountBorrowed);\n\t\t}\n\t\tIFixCapitalPool(_FCPborrowed).mintZCBTo(_receiverAddr, _amountBorrowed);\n\t\tsVault.FCPborrowed = _FCPborrowed;\n\t\tsVault.amountBorrowed = _amountBorrowed;\n\t\tif (mVault.amountSFee > 0) {\n\t\t\tsVault.amountSFee = 0;\n\t\t}\n\n\t\t//-----------------------------flashloan------------------\n\t\tif (_data.length > 0) {\n\t\t\taddress FCPsupplied = mVault.FCPsupplied;\n\t\t\taddress FCPborrowed = mVault.FCPborrowed;\n\t\t\tuint yieldSupplied = mVault.yieldSupplied;\n\t\t\tint bondSupplied = mVault.bondSupplied;\n\t\t\tint changeBorrowed = -int(mVault.amountBorrowed);\n\t\t\tIDBSFYTVaultManagerFlashReceiver(_receiverAddr).onFlashLoan(\n\t\t\t\tmsg.sender,\n\t\t\t\tFCPsupplied,\n\t\t\t\tFCPborrowed,\n\t\t\t\tyieldSupplied,\n\t\t\t\tbondSupplied,\n\t\t\t\tchangeBorrowed,\n\t\t\t\t_data\n\t\t\t);\n\t\t}\n\n\t\t//-----------------------------get funds-------------------------\n\t\tif (mVault.FCPsupplied != _FCPsupplied) {\n\t\t\tIFixCapitalPool(_FCPsupplied).transferPositionFrom(msg.sender, address(this), _yieldSupplied, _bondSupplied);\n\t\t}\n\t\telse {\n\t\t\tif (changes[0] > 0) {\n\t\t\t\tIFixCapitalPool(_FCPsupplied).transferYT(msg.sender, address(this), uint(changes[0]));\n\t\t\t}\n\t\t\tif (changes[1] > 0) {\n\t\t\t\tIFixCapitalPool(_FCPsupplied).transferZCB(msg.sender, address(this), uint(changes[1]));\n\t\t\t}\n\t\t}\n\n\t\tif (mVault.amountBorrowed > 0) {\n\t\t\tuint toBurn = stabilityFeeAdjAmountBorrowed(mVault.amountBorrowed, mVault.timestampOpened, mVault.stabilityFeeAPR);\n\t\t\tIFixCapitalPool(mVault.FCPborrowed).burnZCBFrom(msg.sender, toBurn);\n\t\t\tclaimStabilityFee(IFixCapitalPool(mVault.FCPborrowed).zeroCouponBondAddress(), mVault.FCPborrowed, toBurn - mVault.amountBorrowed);\n\t\t}\n\t}\n}",
  "sourcePath": "/home/asher/FixFinanceV1/contracts/VaultFactory/DifferentBaseSF/DBSFVaultFactoryDelegate3.sol",
  "compiler": {
    "name": "solc",
    "version": "0.6.8+commit.0bbfe453.Emscripten.clang"
  },
  "schemaVersion": "3.4.1",
  "updatedAt": "2021-11-26T19:15:55.286Z",
  "devdoc": {
    "methods": {}
  },
  "userdoc": {
    "methods": {}
  }
}