{
  "contractName": "DBSFVaultFactoryDelegate2",
  "abi": [
    {
      "inputs": [],
      "name": "owner",
      "outputs": [
        {
          "internalType": "address",
          "name": "",
          "type": "address"
        }
      ],
      "stateMutability": "view",
      "type": "function"
    },
    {
      "inputs": [
        {
          "internalType": "address",
          "name": "newOwner",
          "type": "address"
        }
      ],
      "name": "transferOwnership",
      "outputs": [],
      "stateMutability": "nonpayable",
      "type": "function"
    },
    {
      "inputs": [
        {
          "internalType": "address",
          "name": "_owner",
          "type": "address"
        },
        {
          "internalType": "uint256",
          "name": "_index",
          "type": "uint256"
        },
        {
          "internalType": "address",
          "name": "_assetBorrowed",
          "type": "address"
        },
        {
          "internalType": "address",
          "name": "_assetSupplied",
          "type": "address"
        },
        {
          "internalType": "uint256",
          "name": "_bid",
          "type": "uint256"
        },
        {
          "internalType": "uint256",
          "name": "_amtIn",
          "type": "uint256"
        }
      ],
      "name": "auctionLiquidation",
      "outputs": [],
      "stateMutability": "nonpayable",
      "type": "function"
    },
    {
      "inputs": [
        {
          "internalType": "uint256",
          "name": "_index",
          "type": "uint256"
        },
        {
          "internalType": "uint256",
          "name": "_bid",
          "type": "uint256"
        },
        {
          "internalType": "uint256",
          "name": "_amtIn",
          "type": "uint256"
        }
      ],
      "name": "bidOnLiquidation",
      "outputs": [],
      "stateMutability": "nonpayable",
      "type": "function"
    },
    {
      "inputs": [
        {
          "internalType": "uint256",
          "name": "_index",
          "type": "uint256"
        },
        {
          "internalType": "address",
          "name": "_to",
          "type": "address"
        }
      ],
      "name": "claimLiquidation",
      "outputs": [],
      "stateMutability": "nonpayable",
      "type": "function"
    },
    {
      "inputs": [
        {
          "internalType": "address",
          "name": "_owner",
          "type": "address"
        },
        {
          "internalType": "uint256",
          "name": "_index",
          "type": "uint256"
        },
        {
          "internalType": "address",
          "name": "_assetBorrowed",
          "type": "address"
        },
        {
          "internalType": "address",
          "name": "_assetSupplied",
          "type": "address"
        },
        {
          "internalType": "uint256",
          "name": "_maxIn",
          "type": "uint256"
        },
        {
          "internalType": "uint256",
          "name": "_minOut",
          "type": "uint256"
        },
        {
          "internalType": "address",
          "name": "_to",
          "type": "address"
        }
      ],
      "name": "instantLiquidation",
      "outputs": [],
      "stateMutability": "nonpayable",
      "type": "function"
    },
    {
      "inputs": [
        {
          "internalType": "address",
          "name": "_owner",
          "type": "address"
        },
        {
          "internalType": "uint256",
          "name": "_index",
          "type": "uint256"
        },
        {
          "internalType": "address",
          "name": "_assetBorrowed",
          "type": "address"
        },
        {
          "internalType": "address",
          "name": "_assetSupplied",
          "type": "address"
        },
        {
          "internalType": "uint256",
          "name": "_in",
          "type": "uint256"
        },
        {
          "internalType": "uint256",
          "name": "_minOut",
          "type": "uint256"
        },
        {
          "internalType": "address",
          "name": "_to",
          "type": "address"
        }
      ],
      "name": "partialLiquidationSpecificIn",
      "outputs": [],
      "stateMutability": "nonpayable",
      "type": "function"
    },
    {
      "inputs": [
        {
          "internalType": "address",
          "name": "_owner",
          "type": "address"
        },
        {
          "internalType": "uint256",
          "name": "_index",
          "type": "uint256"
        },
        {
          "internalType": "address",
          "name": "_assetBorrowed",
          "type": "address"
        },
        {
          "internalType": "address",
          "name": "_assetSupplied",
          "type": "address"
        },
        {
          "internalType": "uint256",
          "name": "_out",
          "type": "uint256"
        },
        {
          "internalType": "uint256",
          "name": "_maxIn",
          "type": "uint256"
        },
        {
          "internalType": "address",
          "name": "_to",
          "type": "address"
        }
      ],
      "name": "partialLiquidationSpecificOut",
      "outputs": [],
      "stateMutability": "nonpayable",
      "type": "function"
    }
  ],
  "bytecode": "0x608060405234801561001057600080fd5b50336000806101000a81548173ffffffffffffffffffffffffffffffffffffffff021916908373ffffffffffffffffffffffffffffffffffffffff16021790555061584f80620000616000396000f3fe608060405234801561001057600080fd5b50600436106100885760003560e01c80638da5cb5b1161005b5780638da5cb5b146100fd578063b36c96181461011b578063f2fde38b14610137578063fe4b3a5f1461015357610088565b806302746a801461008d5780633054fa7b146100a95780636cb7c890146100c5578063736c8c8d146100e1575b600080fd5b6100a760048036038101906100a29190614e40565b61016f565b005b6100c360048036038101906100be919061501e565b610980565b005b6100df60048036038101906100da9190614ec9565b610f42565b005b6100fb60048036038101906100f69190614ec9565b6115ab565b005b610105611c36565b6040516101129190615406565b60405180910390f35b61013560048036038101906101309190614fe2565b611c5b565b005b610151600480360381019061014c9190614dee565b611ff7565b005b61016d60048036038101906101689190614ec9565b6120fe565b005b84600860008873ffffffffffffffffffffffffffffffffffffffff1673ffffffffffffffffffffffffffffffffffffffff16815260200190815260200160002080549050116101bd57600080fd5b6101c5614c5e565b600860008873ffffffffffffffffffffffffffffffffffffffff1673ffffffffffffffffffffffffffffffffffffffff168152602001908152602001600020868154811061020f57fe5b90600052602060002090600602016040518060e00160405290816000820160009054906101000a900473ffffffffffffffffffffffffffffffffffffffff1673ffffffffffffffffffffffffffffffffffffffff1673ffffffffffffffffffffffffffffffffffffffff1681526020016001820160009054906101000a900473ffffffffffffffffffffffffffffffffffffffff1673ffffffffffffffffffffffffffffffffffffffff1673ffffffffffffffffffffffffffffffffffffffff1681526020016002820154815260200160038201548152602001600482015481526020016005820160009054906101000a900467ffffffffffffffff1667ffffffffffffffff1667ffffffffffffffff1681526020016005820160089054906101000a900467ffffffffffffffff1667ffffffffffffffff1667ffffffffffffffff168152505090508473ffffffffffffffffffffffffffffffffffffffff16816020015173ffffffffffffffffffffffffffffffffffffffff161461039457600080fd5b8373ffffffffffffffffffffffffffffffffffffffff16816000015173ffffffffffffffffffffffffffffffffffffffff16146103d057600080fd5b818160600151101580156103e45750600082115b6103ed57600080fd5b60008160600151838360400151028161040257fe5b0490508381101561041257600080fd5b600061041f836001612730565b505050905080156104c3576000836020015173ffffffffffffffffffffffffffffffffffffffff1663204f83f96040518163ffffffff1660e01b815260040160206040518083038186803b15801561047657600080fd5b505afa15801561048a573d6000803e3d6000fd5b505050506040513d601f19601f820116820180604052508101906104ae9190614fb9565b905062093a80420181106104c157600080fd5b505b5060008673ffffffffffffffffffffffffffffffffffffffff166362af375b6040518163ffffffff1660e01b815260040160206040518083038186803b15801561050c57600080fd5b505afa158015610520573d6000803e3d6000fd5b505050506040513d601f19601f820116820180604052508101906105449190614e17565b9050600061055b858560a001518660c00151612917565b9050610568338383612954565b6105798460200151838784036129c6565b6105838286612d5f565b8286101561059f5761059e8a85600001518886036001612e85565b5b83606001518514156106a757600860008b73ffffffffffffffffffffffffffffffffffffffff1673ffffffffffffffffffffffffffffffffffffffff16815260200190815260200160002089815481106105f557fe5b9060005260206000209060060201600080820160006101000a81549073ffffffffffffffffffffffffffffffffffffffff02191690556001820160006101000a81549073ffffffffffffffffffffffffffffffffffffffff02191690556002820160009055600382016000905560048201600090556005820160006101000a81549067ffffffffffffffff02191690556005820160086101000a81549067ffffffffffffffff0219169055505061077a565b84600860008c73ffffffffffffffffffffffffffffffffffffffff1673ffffffffffffffffffffffffffffffffffffffff1681526020019081526020016000208a815481106106f257fe5b90600052602060002090600602016003016000828254039250508190555082600860008c73ffffffffffffffffffffffffffffffffffffffff1673ffffffffffffffffffffffffffffffffffffffff1681526020019081526020016000208a8154811061075b57fe5b9060005260206000209060060201600201600082825403925050819055505b600c6040518060e001604052808c73ffffffffffffffffffffffffffffffffffffffff168152602001866000015173ffffffffffffffffffffffffffffffffffffffff168152602001866020015173ffffffffffffffffffffffffffffffffffffffff1681526020018381526020013373ffffffffffffffffffffffffffffffffffffffff16815260200188815260200142815250908060018154018082558091505060019003906000526020600020906007020160009091909190915060008201518160000160006101000a81548173ffffffffffffffffffffffffffffffffffffffff021916908373ffffffffffffffffffffffffffffffffffffffff16021790555060208201518160010160006101000a81548173ffffffffffffffffffffffffffffffffffffffff021916908373ffffffffffffffffffffffffffffffffffffffff16021790555060408201518160020160006101000a81548173ffffffffffffffffffffffffffffffffffffffff021916908373ffffffffffffffffffffffffffffffffffffffff1602179055506060820151816003015560808201518160040160006101000a81548173ffffffffffffffffffffffffffffffffffffffff021916908373ffffffffffffffffffffffffffffffffffffffff16021790555060a0820151816005015560c08201518160060155505050505050505050505050565b82600c805490501161099157600080fd5b610999614cdb565b600c84815481106109a657fe5b90600052602060002090600702016040518060e00160405290816000820160009054906101000a900473ffffffffffffffffffffffffffffffffffffffff1673ffffffffffffffffffffffffffffffffffffffff1673ffffffffffffffffffffffffffffffffffffffff1681526020016001820160009054906101000a900473ffffffffffffffffffffffffffffffffffffffff1673ffffffffffffffffffffffffffffffffffffffff1673ffffffffffffffffffffffffffffffffffffffff1681526020016002820160009054906101000a900473ffffffffffffffffffffffffffffffffffffffff1673ffffffffffffffffffffffffffffffffffffffff1673ffffffffffffffffffffffffffffffffffffffff168152602001600382015481526020016004820160009054906101000a900473ffffffffffffffffffffffffffffffffffffffff1673ffffffffffffffffffffffffffffffffffffffff1673ffffffffffffffffffffffffffffffffffffffff168152602001600582015481526020016006820154815250509050816000108015610b4b575080606001518211155b610b5457600080fd5b60008160600151838360a001510281610b6957fe5b049050808410610b7857600080fd5b6000826040015173ffffffffffffffffffffffffffffffffffffffff166362af375b6040518163ffffffff1660e01b815260040160206040518083038186803b158015610bc457600080fd5b505afa158015610bd8573d6000803e3d6000fd5b505050506040513d601f19601f82011682018060405250810190610bfc9190614e17565b9050610c0d8360800151828661323c565b610c18338286612954565b610c2f836000015184602001518785036001612e85565b8260600151841415610ce35784600c8781548110610c4957fe5b90600052602060002090600702016005018190555042600c8781548110610c6c57fe5b90600052602060002090600702016006018190555033600c8781548110610c8f57fe5b906000526020600020906007020160040160006101000a81548173ffffffffffffffffffffffffffffffffffffffff021916908373ffffffffffffffffffffffffffffffffffffffff160217905550610f3a565b81600c8781548110610cf157fe5b90600052602060002090600702016005016000828254039250508190555083600c8781548110610d1d57fe5b906000526020600020906007020160030160008282540392505081905550600c6040518060e00160405280856000015173ffffffffffffffffffffffffffffffffffffffff168152602001856020015173ffffffffffffffffffffffffffffffffffffffff168152602001856040015173ffffffffffffffffffffffffffffffffffffffff1681526020018681526020013373ffffffffffffffffffffffffffffffffffffffff16815260200187815260200142815250908060018154018082558091505060019003906000526020600020906007020160009091909190915060008201518160000160006101000a81548173ffffffffffffffffffffffffffffffffffffffff021916908373ffffffffffffffffffffffffffffffffffffffff16021790555060208201518160010160006101000a81548173ffffffffffffffffffffffffffffffffffffffff021916908373ffffffffffffffffffffffffffffffffffffffff16021790555060408201518160020160006101000a81548173ffffffffffffffffffffffffffffffffffffffff021916908373ffffffffffffffffffffffffffffffffffffffff1602179055506060820151816003015560808201518160040160006101000a81548173ffffffffffffffffffffffffffffffffffffffff021916908373ffffffffffffffffffffffffffffffffffffffff16021790555060a0820151816005015560c0820151816006015550505b505050505050565b85600860008973ffffffffffffffffffffffffffffffffffffffff1673ffffffffffffffffffffffffffffffffffffffff1681526020019081526020016000208054905011610f9057600080fd5b610f98614c5e565b600860008973ffffffffffffffffffffffffffffffffffffffff1673ffffffffffffffffffffffffffffffffffffffff1681526020019081526020016000208781548110610fe257fe5b90600052602060002090600602016040518060e00160405290816000820160009054906101000a900473ffffffffffffffffffffffffffffffffffffffff1673ffffffffffffffffffffffffffffffffffffffff1673ffffffffffffffffffffffffffffffffffffffff1681526020016001820160009054906101000a900473ffffffffffffffffffffffffffffffffffffffff1673ffffffffffffffffffffffffffffffffffffffff1673ffffffffffffffffffffffffffffffffffffffff1681526020016002820154815260200160038201548152602001600482015481526020016005820160009054906101000a900467ffffffffffffffff1667ffffffffffffffff1667ffffffffffffffff1681526020016005820160089054906101000a900467ffffffffffffffff1667ffffffffffffffff1667ffffffffffffffff168152505090508573ffffffffffffffffffffffffffffffffffffffff16816020015173ffffffffffffffffffffffffffffffffffffffff161461116757600080fd5b8473ffffffffffffffffffffffffffffffffffffffff16816000015173ffffffffffffffffffffffffffffffffffffffff16146111a357600080fd5b6111be816080015182606001516132ae90919063ffffffff16565b8160600181815250508360001080156111db575080606001518411155b6111e457600080fd5b6000816060015182604001518602816111f957fe5b0490508381101561120957600080fd5b6000826020015173ffffffffffffffffffffffffffffffffffffffff166362af375b6040518163ffffffff1660e01b815260040160206040518083038186803b15801561125557600080fd5b505afa158015611269573d6000803e3d6000fd5b505050506040513d601f19601f8201168201806040525081019061128d9190614e17565b90508073ffffffffffffffffffffffffffffffffffffffff1663fc2807f185886040518363ffffffff1660e01b81526004016112ca92919061548f565b600060405180830381600087803b1580156112e457600080fd5b505af11580156112f8573d6000803e3d6000fd5b505050506113068187612d5f565b61133184838973ffffffffffffffffffffffffffffffffffffffff166132f89092919063ffffffff16565b60008060006201518042018b73ffffffffffffffffffffffffffffffffffffffff1663204f83f96040518163ffffffff1660e01b815260040160206040518083038186803b15801561138257600080fd5b505afa158015611396573d6000803e3d6000fd5b505050506040513d601f19601f820116820180604052508101906113ba9190614fb9565b106113ed5760006113cc876000612730565b8095508196508297508394505050505080156113e757600080fd5b5061142a565b6114198a600a60009054906101000a900473ffffffffffffffffffffffffffffffffffffffff1661337e565b909192508093508194508295505050505b7f7fffffffffffffffffffffffffffffffffffffffffffffffffffffffffffffff85111561145757600080fd5b600085600003905061146e60008f868686866135e6565b5050505085836060015103600860008c73ffffffffffffffffffffffffffffffffffffffff1673ffffffffffffffffffffffffffffffffffffffff1681526020019081526020016000208a815481106114c357fe5b90600052602060002090600602016003018190555081836040015103600860008c73ffffffffffffffffffffffffffffffffffffffff1673ffffffffffffffffffffffffffffffffffffffff1681526020019081526020016000208a8154811061152957fe5b9060005260206000209060060201600201819055506000600860008c73ffffffffffffffffffffffffffffffffffffffff1673ffffffffffffffffffffffffffffffffffffffff1681526020019081526020016000208a8154811061158a57fe5b90600052602060002090600602016004018190555050505050505050505050565b85600860008973ffffffffffffffffffffffffffffffffffffffff1673ffffffffffffffffffffffffffffffffffffffff16815260200190815260200160002080549050116115f957600080fd5b611601614c5e565b600860008973ffffffffffffffffffffffffffffffffffffffff1673ffffffffffffffffffffffffffffffffffffffff168152602001908152602001600020878154811061164b57fe5b90600052602060002090600602016040518060e00160405290816000820160009054906101000a900473ffffffffffffffffffffffffffffffffffffffff1673ffffffffffffffffffffffffffffffffffffffff1673ffffffffffffffffffffffffffffffffffffffff1681526020016001820160009054906101000a900473ffffffffffffffffffffffffffffffffffffffff1673ffffffffffffffffffffffffffffffffffffffff1673ffffffffffffffffffffffffffffffffffffffff1681526020016002820154815260200160038201548152602001600482015481526020016005820160009054906101000a900467ffffffffffffffff1667ffffffffffffffff1667ffffffffffffffff1681526020016005820160089054906101000a900467ffffffffffffffff1667ffffffffffffffff1667ffffffffffffffff168152505090508573ffffffffffffffffffffffffffffffffffffffff16816020015173ffffffffffffffffffffffffffffffffffffffff16146117d057600080fd5b8473ffffffffffffffffffffffffffffffffffffffff16816000015173ffffffffffffffffffffffffffffffffffffffff161461180c57600080fd5b838160400151101561181d57600080fd5b611838816080015182606001516132ae90919063ffffffff16565b816060018181525050600081606001518502905060008260400151828161185b57fe5b061461186857600161186b565b60005b60ff168260400151828161187b57fe5b0401905080600010801561188f5750838111155b61189857600080fd5b60008773ffffffffffffffffffffffffffffffffffffffff166362af375b6040518163ffffffff1660e01b815260040160206040518083038186803b1580156118e057600080fd5b505afa1580156118f4573d6000803e3d6000fd5b505050506040513d601f19601f820116820180604052508101906119189190614e17565b90508073ffffffffffffffffffffffffffffffffffffffff1663fc2807f185846040518363ffffffff1660e01b815260040161195592919061548f565b600060405180830381600087803b15801561196f57600080fd5b505af1158015611983573d6000803e3d6000fd5b505050506119918183612d5f565b6119bc84878973ffffffffffffffffffffffffffffffffffffffff166132f89092919063ffffffff16565b60008060006201518042018b73ffffffffffffffffffffffffffffffffffffffff1663204f83f96040518163ffffffff1660e01b815260040160206040518083038186803b158015611a0d57600080fd5b505afa158015611a21573d6000803e3d6000fd5b505050506040513d601f19601f82011682018060405250810190611a459190614fb9565b10611a78576000611a57876000612730565b809550819650829750839450505050508015611a7257600080fd5b50611ab5565b611aa48a600a60009054906101000a900473ffffffffffffffffffffffffffffffffffffffff1661337e565b909192508093508194508295505050505b7f7fffffffffffffffffffffffffffffffffffffffffffffffffffffffffffffff891115611ae257600080fd5b6000896000039050611af960008f868686866135e6565b5050505081836060015103600860008c73ffffffffffffffffffffffffffffffffffffffff1673ffffffffffffffffffffffffffffffffffffffff1681526020019081526020016000208a81548110611b4e57fe5b90600052602060002090600602016003018190555085836040015103600860008c73ffffffffffffffffffffffffffffffffffffffff1673ffffffffffffffffffffffffffffffffffffffff1681526020019081526020016000208a81548110611bb457fe5b9060005260206000209060060201600201819055506000600860008c73ffffffffffffffffffffffffffffffffffffffff1673ffffffffffffffffffffffffffffffffffffffff1681526020019081526020016000208a81548110611c1557fe5b90600052602060002090600602016004018190555050505050505050505050565b6000809054906101000a900473ffffffffffffffffffffffffffffffffffffffff1681565b81600c8054905011611c6c57600080fd5b611c74614cdb565b600c8381548110611c8157fe5b90600052602060002090600702016040518060e00160405290816000820160009054906101000a900473ffffffffffffffffffffffffffffffffffffffff1673ffffffffffffffffffffffffffffffffffffffff1673ffffffffffffffffffffffffffffffffffffffff1681526020016001820160009054906101000a900473ffffffffffffffffffffffffffffffffffffffff1673ffffffffffffffffffffffffffffffffffffffff1673ffffffffffffffffffffffffffffffffffffffff1681526020016002820160009054906101000a900473ffffffffffffffffffffffffffffffffffffffff1673ffffffffffffffffffffffffffffffffffffffff1673ffffffffffffffffffffffffffffffffffffffff168152602001600382015481526020016004820160009054906101000a900473ffffffffffffffffffffffffffffffffffffffff1673ffffffffffffffffffffffffffffffffffffffff1673ffffffffffffffffffffffffffffffffffffffff168152602001600582015481526020016006820154815250509050806080015173ffffffffffffffffffffffffffffffffffffffff163373ffffffffffffffffffffffffffffffffffffffff1614611e4e57600080fd5b8060c0015161025801421015611e6357600080fd5b600c8381548110611e7057fe5b9060005260206000209060070201600080820160006101000a81549073ffffffffffffffffffffffffffffffffffffffff02191690556001820160006101000a81549073ffffffffffffffffffffffffffffffffffffffff02191690556002820160006101000a81549073ffffffffffffffffffffffffffffffffffffffff021916905560038201600090556004820160006101000a81549073ffffffffffffffffffffffffffffffffffffffff0219169055600582016000905560068201600090555050611f68828260a00151836020015173ffffffffffffffffffffffffffffffffffffffff166132f89092919063ffffffff16565b6000806000611f9d8460200151600a60009054906101000a900473ffffffffffffffffffffffffffffffffffffffff1661337e565b935093509350507f7fffffffffffffffffffffffffffffffffffffffffffffffffffffffffffffff8460a001511115611fd557600080fd5b611fef600085600001518585858960a001516000036135e6565b505050505050565b6000809054906101000a900473ffffffffffffffffffffffffffffffffffffffff1673ffffffffffffffffffffffffffffffffffffffff163373ffffffffffffffffffffffffffffffffffffffff1614612086576040517f08c379a000000000000000000000000000000000000000000000000000000000815260040161207d90615620565b60405180910390fd5b600073ffffffffffffffffffffffffffffffffffffffff168173ffffffffffffffffffffffffffffffffffffffff16146120fb57806000806101000a81548173ffffffffffffffffffffffffffffffffffffffff021916908373ffffffffffffffffffffffffffffffffffffffff1602179055505b50565b85600860008973ffffffffffffffffffffffffffffffffffffffff1673ffffffffffffffffffffffffffffffffffffffff168152602001908152602001600020805490501161214c57600080fd5b612154614c5e565b600860008973ffffffffffffffffffffffffffffffffffffffff1673ffffffffffffffffffffffffffffffffffffffff168152602001908152602001600020878154811061219e57fe5b90600052602060002090600602016040518060e00160405290816000820160009054906101000a900473ffffffffffffffffffffffffffffffffffffffff1673ffffffffffffffffffffffffffffffffffffffff1673ffffffffffffffffffffffffffffffffffffffff1681526020016001820160009054906101000a900473ffffffffffffffffffffffffffffffffffffffff1673ffffffffffffffffffffffffffffffffffffffff1673ffffffffffffffffffffffffffffffffffffffff1681526020016002820154815260200160038201548152602001600482015481526020016005820160009054906101000a900467ffffffffffffffff1667ffffffffffffffff1667ffffffffffffffff1681526020016005820160089054906101000a900467ffffffffffffffff1667ffffffffffffffff1667ffffffffffffffff168152505090508573ffffffffffffffffffffffffffffffffffffffff16816020015173ffffffffffffffffffffffffffffffffffffffff161461232357600080fd5b8473ffffffffffffffffffffffffffffffffffffffff16816000015173ffffffffffffffffffffffffffffffffffffffff161461235f57600080fd5b61237a816080015182606001516132ae90919063ffffffff16565b816060018181525050838160600151111561239457600080fd5b828160400151101580156123a85750600083115b6123b157600080fd5b6000816020015173ffffffffffffffffffffffffffffffffffffffff166362af375b6040518163ffffffff1660e01b815260040160206040518083038186803b1580156123fd57600080fd5b505afa158015612411573d6000803e3d6000fd5b505050506040513d601f19601f820116820180604052508101906124359190614e17565b90508073ffffffffffffffffffffffffffffffffffffffff1663fc2807f18484606001516040518363ffffffff1660e01b815260040161247692919061548f565b600060405180830381600087803b15801561249057600080fd5b505af11580156124a4573d6000803e3d6000fd5b505050506124b6818360600151612d5f565b6124e58383604001518873ffffffffffffffffffffffffffffffffffffffff166132f89092919063ffffffff16565b60008060006201518042018a73ffffffffffffffffffffffffffffffffffffffff1663204f83f96040518163ffffffff1660e01b815260040160206040518083038186803b15801561253657600080fd5b505afa15801561254a573d6000803e3d6000fd5b505050506040513d601f19601f8201168201806040525081019061256e9190614fb9565b106125a1576000612580866000612730565b80955081965082975083945050505050801561259b57600080fd5b506125de565b6125cd89600a60009054906101000a900473ffffffffffffffffffffffffffffffffffffffff1661337e565b909192508093508194508295505050505b7f7fffffffffffffffffffffffffffffffffffffffffffffffffffffffffffffff8560400151111561260f57600080fd5b60008560400151600003905061262a60008e868686866135e6565b50505050600860008a73ffffffffffffffffffffffffffffffffffffffff1673ffffffffffffffffffffffffffffffffffffffff168152602001908152602001600020888154811061267857fe5b9060005260206000209060060201600080820160006101000a81549073ffffffffffffffffffffffffffffffffffffffff02191690556001820160006101000a81549073ffffffffffffffffffffffffffffffffffffffff02191690556002820160009055600382016000905560048201600090556005820160006101000a81549067ffffffffffffffff02191690556005820160086101000a81549067ffffffffffffffff02191690555050505050505050505050565b6000806000806000600a60009054906101000a900473ffffffffffffffffffffffffffffffffffffffff169050600061276d88600001518361337e565b80965081975082985083945050505050600080600061278c8b8561371c565b9250925092508961285157600e60009054906101000a900473ffffffffffffffffffffffffffffffffffffffff1673ffffffffffffffffffffffffffffffffffffffff16636ef04e3d848d6020015185856040518563ffffffff1660e01b81526004016127fc949392919061544a565b60206040518083038186803b15801561281457600080fd5b505afa158015612828573d6000803e3d6000fd5b505050506040513d601f19601f8201168201806040525081019061284c9190614f67565b612907565b600e60009054906101000a900473ffffffffffffffffffffffffffffffffffffffff1673ffffffffffffffffffffffffffffffffffffffff166340a4b559848d6020015185856040518563ffffffff1660e01b81526004016128b6949392919061544a565b60206040518083038186803b1580156128ce57600080fd5b505afa1580156128e2573d6000803e3d6000fd5b505050506040513d601f19601f820116820180604052508101906129069190614f67565b5b9850505050505092959194509250565b60008061292484846138ba565b9050670de0b6b3a7640000612942868361399d90919063ffffffff16565b8161294957fe5b049150509392505050565b8173ffffffffffffffffffffffffffffffffffffffff1663fc2807f184836040518363ffffffff1660e01b815260040161298f92919061548f565b600060405180830381600087803b1580156129a957600080fd5b505af11580156129bd573d6000803e3d6000fd5b50505050505050565b6000811115612d5a578173ffffffffffffffffffffffffffffffffffffffff1663af0b460630836040518363ffffffff1660e01b8152600401612a0a92919061548f565b600060405180830381600087803b158015612a2457600080fd5b505af1158015612a38573d6000803e3d6000fd5b50505050612a8e81600660008673ffffffffffffffffffffffffffffffffffffffff1673ffffffffffffffffffffffffffffffffffffffff16815260200190815260200160002054613a0d90919063ffffffff16565b600660008573ffffffffffffffffffffffffffffffffffffffff1673ffffffffffffffffffffffffffffffffffffffff168152602001908152602001600020819055506000600a60009054906101000a900473ffffffffffffffffffffffffffffffffffffffff16905060008173ffffffffffffffffffffffffffffffffffffffff16637348c8576040518163ffffffff1660e01b815260040160206040518083038186803b158015612b4057600080fd5b505afa158015612b54573d6000803e3d6000fd5b505050506040513d601f19601f82011682018060405250810190612b789190614f67565b15612c02578173ffffffffffffffffffffffffffffffffffffffff1663489e09516040518163ffffffff1660e01b815260040160206040518083038186803b158015612bc357600080fd5b505afa158015612bd7573d6000803e3d6000fd5b505050506040513d601f19601f82011682018060405250810190612bfb9190614e17565b9050612cbc565b6000809054906101000a900473ffffffffffffffffffffffffffffffffffffffff169050612c7883600760008873ffffffffffffffffffffffffffffffffffffffff1673ffffffffffffffffffffffffffffffffffffffff16815260200190815260200160002054613a0d90919063ffffffff16565b600760008773ffffffffffffffffffffffffffffffffffffffff1673ffffffffffffffffffffffffffffffffffffffff168152602001908152602001600020819055505b60008473ffffffffffffffffffffffffffffffffffffffff1663ac210cc76040518163ffffffff1660e01b815260040160206040518083038186803b158015612d0457600080fd5b505afa158015612d18573d6000803e3d6000fd5b505050506040513d601f19601f82011682018060405250810190612d3c9190614f90565b9050612d5660018360028885612d518a613a62565b6135e6565b5050505b505050565b6000811115612e815760008273ffffffffffffffffffffffffffffffffffffffff166389d1a0fc6040518163ffffffff1660e01b815260040160206040518083038186803b158015612db057600080fd5b505afa158015612dc4573d6000803e3d6000fd5b505050506040513d601f19601f82011682018060405250810190612de89190614e17565b9050612e3c82600160008473ffffffffffffffffffffffffffffffffffffffff1673ffffffffffffffffffffffffffffffffffffffff168152602001908152602001600020546132ae90919063ffffffff16565b600160008373ffffffffffffffffffffffffffffffffffffffff1673ffffffffffffffffffffffffffffffffffffffff16815260200190815260200160002081905550505b5050565b6000612710612e9f600b548561399d90919063ffffffff16565b81612ea657fe5b0490506000818403905081600260008873ffffffffffffffffffffffffffffffffffffffff1673ffffffffffffffffffffffffffffffffffffffff16815260200190815260200160002060008773ffffffffffffffffffffffffffffffffffffffff1673ffffffffffffffffffffffffffffffffffffffff16815260200190815260200160002060008282540192505081905550612f8c81600660008873ffffffffffffffffffffffffffffffffffffffff1673ffffffffffffffffffffffffffffffffffffffff16815260200190815260200160002054613a0d90919063ffffffff16565b600660008773ffffffffffffffffffffffffffffffffffffffff1673ffffffffffffffffffffffffffffffffffffffff168152602001908152602001600020819055506000600a60009054906101000a900473ffffffffffffffffffffffffffffffffffffffff1690506000806000613005898561337e565b93509350935050613054878b85858561304f7fffffffffffffffffffffffffffffffffffffffffffffffffffffffffffffffff6130418d613a62565b613ace90919063ffffffff16565b6135e6565b60008473ffffffffffffffffffffffffffffffffffffffff16637348c8576040518163ffffffff1660e01b815260040160206040518083038186803b15801561309c57600080fd5b505afa1580156130b0573d6000803e3d6000fd5b505050506040513d601f19601f820116820180604052508101906130d49190614f67565b1561315e578473ffffffffffffffffffffffffffffffffffffffff1663489e09516040518163ffffffff1660e01b815260040160206040518083038186803b15801561311f57600080fd5b505afa158015613133573d6000803e3d6000fd5b505050506040513d601f19601f820116820180604052508101906131579190614e17565b9050613218565b6000809054906101000a900473ffffffffffffffffffffffffffffffffffffffff1690506131d486600760008d73ffffffffffffffffffffffffffffffffffffffff1673ffffffffffffffffffffffffffffffffffffffff16815260200190815260200160002054613a0d90919063ffffffff16565b600760008c73ffffffffffffffffffffffffffffffffffffffff1673ffffffffffffffffffffffffffffffffffffffff168152602001908152602001600020819055505b61322f60008286868661322a8c613a62565b6135e6565b5050505050505050505050565b8173ffffffffffffffffffffffffffffffffffffffff1663af0b460684836040518363ffffffff1660e01b815260040161327792919061548f565b600060405180830381600087803b15801561329157600080fd5b505af11580156132a5573d6000803e3d6000fd5b50505050505050565b60006132f083836040518060400160405280601e81526020017f536166654d6174683a207375627472616374696f6e206f766572666c6f770000815250613bcc565b905092915050565b6133798363a9059cbb60e01b848460405160240161331792919061548f565b604051602081830303815290604052907bffffffffffffffffffffffffffffffffffffffffffffffffffffffff19166020820180517bffffffffffffffffffffffffffffffffffffffffffffffffffffffff8381831617835250505050613c27565b505050565b6000806000808473ffffffffffffffffffffffffffffffffffffffff16632c79351b30886040518363ffffffff1660e01b81526004016133bf929190615421565b60206040518083038186803b1580156133d757600080fd5b505afa1580156133eb573d6000803e3d6000fd5b505050506040513d601f19601f8201168201806040525081019061340f9190614e17565b9350600073ffffffffffffffffffffffffffffffffffffffff168473ffffffffffffffffffffffffffffffffffffffff161415613596578573ffffffffffffffffffffffffffffffffffffffff166362af375b6040518163ffffffff1660e01b815260040160206040518083038186803b15801561348c57600080fd5b505afa1580156134a0573d6000803e3d6000fd5b505050506040513d601f19601f820116820180604052508101906134c49190614e17565b91508473ffffffffffffffffffffffffffffffffffffffff1663e5af6df330846040518363ffffffff1660e01b8152600401613501929190615421565b60206040518083038186803b15801561351957600080fd5b505afa15801561352d573d6000803e3d6000fd5b505050506040513d601f19601f820116820180604052508101906135519190614e17565b9050600073ffffffffffffffffffffffffffffffffffffffff168173ffffffffffffffffffffffffffffffffffffffff16141561358d57600080fd5b600292506135dd565b600173ffffffffffffffffffffffffffffffffffffffff168473ffffffffffffffffffffffffffffffffffffffff1614156135d457600092506135dc565b859050600192505b5b92959194509250565b600160038111156135f357fe5b8460038111156135ff57fe5b141561367f578173ffffffffffffffffffffffffffffffffffffffff16637c9dd789878760008560006040518663ffffffff1660e01b81526004016136489594939291906154b8565b600060405180830381600087803b15801561366257600080fd5b505af1158015613676573d6000803e3d6000fd5b50505050613714565b6002600381111561368c57fe5b84600381111561369857fe5b1415613713578173ffffffffffffffffffffffffffffffffffffffff16637c9dd7898787866000866040518663ffffffff1660e01b81526004016136e095949392919061550b565b600060405180830381600087803b1580156136fa57600080fd5b505af115801561370e573d6000803e3d6000fd5b505050505b5b505050505050565b6000806000839250600073ffffffffffffffffffffffffffffffffffffffff168373ffffffffffffffffffffffffffffffffffffffff16148061378b5750600173ffffffffffffffffffffffffffffffffffffffff168373ffffffffffffffffffffffffffffffffffffffff16145b156137a3578460000151925084604001519150613837565b846000015173ffffffffffffffffffffffffffffffffffffffff16630247c79c86604001516040518263ffffffff1660e01b81526004016137e49190615680565b60206040518083038186803b1580156137fc57600080fd5b505afa158015613810573d6000803e3d6000fd5b505050506040513d601f19601f820116820180604052508101906138349190614fb9565b91505b60008560c0015167ffffffffffffffff161480613870575064010000000067ffffffffffffffff168560c0015167ffffffffffffffff16145b806138885750428560a0015167ffffffffffffffff16145b1561389957846060015190506138b3565b6138b085606001518660a001518760c00151612917565b90505b9250925092565b6000808267ffffffffffffffff1614806138ec575064010000000067ffffffffffffffff168267ffffffffffffffff16145b806139005750428367ffffffffffffffff16145b1561391557670de0b6b3a76400009050613997565b60006301e1853e60408567ffffffffffffffff164203901b8161393457fe5b049050600081600f0b141561395457670de0b6b3a7640000915050613997565b600061396e60208567ffffffffffffffff16901b83613cee565b90506040613990670de0b6b3a764000083600f0b61399d90919063ffffffff16565b901c925050505b92915050565b6000808314156139b05760009050613a07565b60008284029050828482816139c157fe5b0414613a02576040517f08c379a00000000000000000000000000000000000000000000000000000000081526004016139f9906155e0565b60405180910390fd5b809150505b92915050565b600080828401905083811015613a58576040517f08c379a0000000000000000000000000000000000000000000000000000000008152600401613a4f90615580565b60405180910390fd5b8091505092915050565b60007fffffffffffffffffffffffffffffffffffffffffffffffffffffffffffffffff8291508113613ac9576040517f08c379a0000000000000000000000000000000000000000000000000000000008152600401613ac0906155c0565b60405180910390fd5b919050565b600080831415613ae15760009050613bc6565b7fffffffffffffffffffffffffffffffffffffffffffffffffffffffffffffffff83148015613b2f57507f800000000000000000000000000000000000000000000000000000000000000082145b15613b6f576040517f08c379a0000000000000000000000000000000000000000000000000000000008152600401613b6690615600565b60405180910390fd5b6000828402905082848281613b8057fe5b0514613bc1576040517f08c379a0000000000000000000000000000000000000000000000000000000008152600401613bb890615600565b60405180910390fd5b809150505b92915050565b6000838311158290613c14576040517f08c379a0000000000000000000000000000000000000000000000000000000008152600401613c0b919061555e565b60405180910390fd5b5060008385039050809150509392505050565b6060613c89826040518060400160405280602081526020017f5361666545524332303a206c6f772d6c6576656c2063616c6c206661696c65648152508573ffffffffffffffffffffffffffffffffffffffff16613d249092919063ffffffff16565b9050600081511115613ce95780806020019051810190613ca99190614f67565b613ce8576040517f08c379a0000000000000000000000000000000000000000000000000000000008152600401613cdf90615660565b60405180910390fd5b5b505050565b6000613d1c613d1483613d0386600f0b613d3c565b600f0b613e6490919063ffffffff16565b600f0b613ecf565b905092915050565b6060613d338484600085614acf565b90509392505050565b60008082600f0b13613d4d57600080fd5b6000809050600083600f0b9050680100000000000000008112613d7857604081901d90506040820191505b6401000000008112613d9257602081901d90506020820191505b620100008112613daa57601081901d90506010820191505b6101008112613dc157600881901d90506008820191505b60108112613dd757600481901d90506004820191505b60048112613ded57600281901d90506002820191505b60028112613dfc576001820191505b60006040808403901b9050600083607f0386600f0b901b9050600067800000000000000090505b6000811315613e57578182029150600060ff83901c905080607f0183901c92508082028401935050600181901d9050613e23565b5081945050505050919050565b600080604083600f0b85600f0b02901d90507fffffffffffffffffffffffffffffffff80000000000000000000000000000000600f0b8112158015613ebc57506f7fffffffffffffffffffffffffffffff600f0b8113155b613ec557600080fd5b8091505092915050565b60006840000000000000000082600f0b12613ee957600080fd5b7fffffffffffffffffffffffffffffffffffffffffffffffc0000000000000000082600f0b1215613f1d5760009050614aca565b60006f80000000000000000000000000000000905060006780000000000000008416600f0b1315613f6357608070016a09e667f3bcc908b2fb1366ea957d3e8202901c90505b60006740000000000000008416600f0b1315613f945760807001306fe0a31b7152de8d5a46305c85edec8202901c90505b60006720000000000000008416600f0b1315613fc55760807001172b83c7d517adcdf7c8c50eb14a791f8202901c90505b60006710000000000000008416600f0b1315613ff657608070010b5586cf9890f6298b92b71842a983638202901c90505b60006708000000000000008416600f0b13156140275760807001059b0d31585743ae7c548eb68ca417fd8202901c90505b60006704000000000000008416600f0b1315614058576080700102c9a3e778060ee6f7caca4f7a29bde88202901c90505b60006702000000000000008416600f0b131561408957608070010163da9fb33356d84a66ae336dcdfa3f8202901c90505b60006701000000000000008416600f0b13156140ba576080700100b1afa5abcbed6129ab13ec11dc95438202901c90505b600066800000000000008416600f0b13156140ea57608070010058c86da1c09ea1ff19d294cf2f679b8202901c90505b600066400000000000008416600f0b131561411a5760807001002c605e2e8cec506d21bfc89a23a00f8202901c90505b600066200000000000008416600f0b131561414a576080700100162f3904051fa128bca9c55c31e5df8202901c90505b600066100000000000008416600f0b131561417a5760807001000b175effdc76ba38e31671ca9397258202901c90505b600066080000000000008416600f0b13156141aa576080700100058ba01fb9f96d6cacd4b180917c3d8202901c90505b600066040000000000008416600f0b13156141da57608070010002c5cc37da9491d0985c348c68e7b38202901c90505b600066020000000000008416600f0b131561420a5760807001000162e525ee054754457d59952920268202901c90505b600066010000000000008416600f0b131561423a57608070010000b17255775c040618bf4a4ade83fc8202901c90505b6000658000000000008416600f0b13156142695760807001000058b91b5bc9ae2eed81e9b7d4cfab8202901c90505b6000654000000000008416600f0b1315614298576080700100002c5c89d5ec6ca4d7c8acc017b7c98202901c90505b6000652000000000008416600f0b13156142c757608070010000162e43f4f831060e02d839a9d16d8202901c90505b6000651000000000008416600f0b13156142f6576080700100000b1721bcfc99d9f890ea069117638202901c90505b6000650800000000008416600f0b131561432557608070010000058b90cf1e6d97f9ca14dbcc16288202901c90505b6000650400000000008416600f0b13156143545760807001000002c5c863b73f016468f6bac5ca2b8202901c90505b6000650200000000008416600f0b1315614383576080700100000162e430e5a18f6119e3c02282a58202901c90505b6000650100000000008416600f0b13156143b25760807001000000b1721835514b86e6d96efd1bfe8202901c90505b60006480000000008416600f0b13156143e0576080700100000058b90c0b48c6be5df846c5b2ef8202901c90505b60006440000000008416600f0b131561440e57608070010000002c5c8601cc6b9e94213c72737a8202901c90505b60006420000000008416600f0b131561443c5760807001000000162e42fff037df38aa2b219f068202901c90505b60006410000000008416600f0b131561446a57608070010000000b17217fba9c739aa5819f44f98202901c90505b60006408000000008416600f0b13156144985760807001000000058b90bfcdee5acd3c1cedc8238202901c90505b60006404000000008416600f0b13156144c6576080700100000002c5c85fe31f35a6a30da1be508202901c90505b60006402000000008416600f0b13156144f457608070010000000162e42ff0999ce3541b9fffcf8202901c90505b60006401000000008416600f0b1315614522576080700100000000b17217f80f4ef5aadda455548202901c90505b600063800000008416600f0b131561454f57608070010000000058b90bfbf8479bd5a81b51ad8202901c90505b600063400000008416600f0b131561457c5760807001000000002c5c85fdf84bd62ae30a74cc8202901c90505b600063200000008416600f0b13156145a9576080700100000000162e42fefb2fed257559bdaa8202901c90505b600063100000008416600f0b13156145d65760807001000000000b17217f7d5a7716bba4a9ae8202901c90505b600063080000008416600f0b1315614603576080700100000000058b90bfbe9ddbac5e109cce8202901c90505b600063040000008416600f0b131561463057608070010000000002c5c85fdf4b15de6f17eb0d8202901c90505b600063020000008416600f0b131561465d5760807001000000000162e42fefa494f1478fde058202901c90505b600063010000008416600f0b131561468a57608070010000000000b17217f7d20cf927c8e94c8202901c90505b6000628000008416600f0b13156146b65760807001000000000058b90bfbe8f71cb4e4b33d8202901c90505b6000624000008416600f0b13156146e2576080700100000000002c5c85fdf477b662b269458202901c90505b6000622000008416600f0b131561470e57608070010000000000162e42fefa3ae53369388c8202901c90505b6000621000008416600f0b131561473a576080700100000000000b17217f7d1d351a389d408202901c90505b6000620800008416600f0b131561476657608070010000000000058b90bfbe8e8b2d3d4ede8202901c90505b6000620400008416600f0b13156147925760807001000000000002c5c85fdf4741bea6e77e8202901c90505b6000620200008416600f0b13156147be576080700100000000000162e42fefa39fe95583c28202901c90505b6000620100008416600f0b13156147ea5760807001000000000000b17217f7d1cfb72b45e18202901c90505b60006180008416600f0b1315614815576080700100000000000058b90bfbe8e7cc35c3f08202901c90505b60006140008416600f0b131561484057608070010000000000002c5c85fdf473e242ea388202901c90505b60006120008416600f0b131561486b5760807001000000000000162e42fefa39f02b772c8202901c90505b60006110008416600f0b131561489657608070010000000000000b17217f7d1cf7d83c1a8202901c90505b60006108008416600f0b13156148c15760807001000000000000058b90bfbe8e7bdcbe2e8202901c90505b60006104008416600f0b13156148ec576080700100000000000002c5c85fdf473dea871f8202901c90505b60006102008416600f0b131561491757608070010000000000000162e42fefa39ef44d918202901c90505b60006101008416600f0b1315614942576080700100000000000000b17217f7d1cf79e9498202901c90505b600060808416600f0b131561496c57608070010000000000000058b90bfbe8e7bce5448202901c90505b600060408416600f0b13156149965760807001000000000000002c5c85fdf473de6eca8202901c90505b600060208416600f0b13156149c0576080700100000000000000162e42fefa39ef366f8202901c90505b600060108416600f0b13156149ea5760807001000000000000000b17217f7d1cf79afa8202901c90505b600060088416600f0b1315614a14576080700100000000000000058b90bfbe8e7bcd6d8202901c90505b600060048416600f0b1315614a3e57608070010000000000000002c5c85fdf473de6b28202901c90505b600060028416600f0b1315614a685760807001000000000000000162e42fefa39ef3588202901c90505b600060018416600f0b1315614a9257608070010000000000000000b17217f7d1cf79ab8202901c90505b604083600f0b901d603f03600f0b81901c90506f7fffffffffffffffffffffffffffffff600f0b811115614ac557600080fd5b809150505b919050565b606082471015614b14576040517f08c379a0000000000000000000000000000000000000000000000000000000008152600401614b0b906155a0565b60405180910390fd5b614b1d85614be4565b614b5c576040517f08c379a0000000000000000000000000000000000000000000000000000000008152600401614b5390615640565b60405180910390fd5b600060608673ffffffffffffffffffffffffffffffffffffffff168587604051614b8691906153ef565b60006040518083038185875af1925050503d8060008114614bc3576040519150601f19603f3d011682016040523d82523d6000602084013e614bc8565b606091505b5091509150614bd8828286614bf7565b92505050949350505050565b600080823b905060008111915050919050565b60608315614c0757829050614c57565b600083511115614c1a5782518084602001fd5b816040517f08c379a0000000000000000000000000000000000000000000000000000000008152600401614c4e919061555e565b60405180910390fd5b9392505050565b6040518060e00160405280600073ffffffffffffffffffffffffffffffffffffffff168152602001600073ffffffffffffffffffffffffffffffffffffffff168152602001600081526020016000815260200160008152602001600067ffffffffffffffff168152602001600067ffffffffffffffff1681525090565b6040518060e00160405280600073ffffffffffffffffffffffffffffffffffffffff168152602001600073ffffffffffffffffffffffffffffffffffffffff168152602001600073ffffffffffffffffffffffffffffffffffffffff16815260200160008152602001600073ffffffffffffffffffffffffffffffffffffffff16815260200160008152602001600081525090565b600081359050614d7f816157bd565b92915050565b600081519050614d94816157bd565b92915050565b600081519050614da9816157d4565b92915050565b600081519050614dbe816157eb565b92915050565b600081359050614dd381615802565b92915050565b600081519050614de881615802565b92915050565b600060208284031215614e0057600080fd5b6000614e0e84828501614d70565b91505092915050565b600060208284031215614e2957600080fd5b6000614e3784828501614d85565b91505092915050565b60008060008060008060c08789031215614e5957600080fd5b6000614e6789828a01614d70565b9650506020614e7889828a01614dc4565b9550506040614e8989828a01614d70565b9450506060614e9a89828a01614d70565b9350506080614eab89828a01614dc4565b92505060a0614ebc89828a01614dc4565b9150509295509295509295565b600080600080600080600060e0888a031215614ee457600080fd5b6000614ef28a828b01614d70565b9750506020614f038a828b01614dc4565b9650506040614f148a828b01614d70565b9550506060614f258a828b01614d70565b9450506080614f368a828b01614dc4565b93505060a0614f478a828b01614dc4565b92505060c0614f588a828b01614d70565b91505092959891949750929550565b600060208284031215614f7957600080fd5b6000614f8784828501614d9a565b91505092915050565b600060208284031215614fa257600080fd5b6000614fb084828501614daf565b91505092915050565b600060208284031215614fcb57600080fd5b6000614fd984828501614dd9565b91505092915050565b60008060408385031215614ff557600080fd5b600061500385828601614dc4565b925050602061501485828601614d70565b9150509250929050565b60008060006060848603121561503357600080fd5b600061504186828701614dc4565b935050602061505286828701614dc4565b925050604061506386828701614dc4565b9150509250925092565b61507681615731565b82525050565b615085816156cd565b82525050565b615094816156df565b82525050565b60006150a58261569b565b6150af81856156b1565b93506150bf818560208601615779565b80840191505092915050565b6150d4816156fd565b82525050565b6150e381615743565b82525050565b60006150f4826156a6565b6150fe81856156bc565b935061510e818560208601615779565b615117816157ac565b840191505092915050565b600061512f601b836156bc565b91507f536166654d6174683a206164646974696f6e206f766572666c6f7700000000006000830152602082019050919050565b600061516f6026836156bc565b91507f416464726573733a20696e73756666696369656e742062616c616e636520666f60008301527f722063616c6c00000000000000000000000000000000000000000000000000006020830152604082019050919050565b60006151d56028836156bc565b91507f536166654d6174683a20696e76616c69642075696e7420746f20696e7420636f60008301527f6e76657273696f6e0000000000000000000000000000000000000000000000006020830152604082019050919050565b600061523b6021836156bc565b91507f536166654d6174683a206d756c7469706c69636174696f6e206f766572666c6f60008301527f77000000000000000000000000000000000000000000000000000000000000006020830152604082019050919050565b60006152a16027836156bc565b91507f5369676e6564536166654d6174683a206d756c7469706c69636174696f6e206f60008301527f766572666c6f77000000000000000000000000000000000000000000000000006020830152604082019050919050565b6000615307600a836156bc565b91507f6f6e6c79206f776e6572000000000000000000000000000000000000000000006000830152602082019050919050565b6000615347601d836156bc565b91507f416464726573733a2063616c6c20746f206e6f6e2d636f6e74726163740000006000830152602082019050919050565b6000615387602a836156bc565b91507f5361666545524332303a204552433230206f7065726174696f6e20646964206e60008301527f6f742073756363656564000000000000000000000000000000000000000000006020830152604082019050919050565b6153e981615727565b82525050565b60006153fb828461509a565b915081905092915050565b600060208201905061541b600083018461507c565b92915050565b6000604082019050615436600083018561507c565b615443602083018461507c565b9392505050565b600060808201905061545f600083018761507c565b61546c602083018661507c565b61547960408301856153e0565b61548660608301846153e0565b95945050505050565b60006040820190506154a4600083018561507c565b6154b160208301846153e0565b9392505050565b600060a0820190506154cd600083018861508b565b6154da602083018761507c565b6154e7604083018661506d565b6154f460608301856150cb565b61550160808301846150da565b9695505050505050565b600060a082019050615520600083018861508b565b61552d602083018761507c565b61553a604083018661507c565b61554760608301856150da565b61555460808301846150cb565b9695505050505050565b6000602082019050818103600083015261557881846150e9565b905092915050565b6000602082019050818103600083015261559981615122565b9050919050565b600060208201905081810360008301526155b981615162565b9050919050565b600060208201905081810360008301526155d9816151c8565b9050919050565b600060208201905081810360008301526155f98161522e565b9050919050565b6000602082019050818103600083015261561981615294565b9050919050565b60006020820190508181036000830152615639816152fa565b9050919050565b600060208201905081810360008301526156598161533a565b9050919050565b600060208201905081810360008301526156798161537a565b9050919050565b600060208201905061569560008301846153e0565b92915050565b600081519050919050565b600081519050919050565b600081905092915050565b600082825260208201905092915050565b60006156d882615707565b9050919050565b60008115159050919050565b60006156f6826156cd565b9050919050565b6000819050919050565b600073ffffffffffffffffffffffffffffffffffffffff82169050919050565b6000819050919050565b600061573c82615755565b9050919050565b600061574e826156fd565b9050919050565b600061576082615767565b9050919050565b600061577282615707565b9050919050565b60005b8381101561579757808201518184015260208101905061577c565b838111156157a6576000848401525b50505050565b6000601f19601f8301169050919050565b6157c6816156cd565b81146157d157600080fd5b50565b6157dd816156df565b81146157e857600080fd5b50565b6157f4816156eb565b81146157ff57600080fd5b50565b61580b81615727565b811461581657600080fd5b5056fea2646970667358221220ec5e295e75a41d36b6d7cf7be8ad009d8531dacdf2dc92a58ce4234f297ce13364736f6c63430006080033",
  "immutableReferences": {},
  "source": "// SPDX-License-Identifier: MIT\npragma experimental ABIEncoderV2;\npragma solidity >=0.6.8 <0.7.0;\n\nimport \"../../libraries/SafeMath.sol\";\nimport \"../../libraries/SignedSafeMath.sol\";\nimport \"../../libraries/BigMath.sol\";\nimport \"../../libraries/SafeERC20.sol\";\nimport \"../../interfaces/IFixCapitalPool.sol\";\nimport \"../../interfaces/IZeroCouponBond.sol\";\nimport \"../../interfaces/IVaultHealth.sol\";\nimport \"../../interfaces/IInfoOracle.sol\";\nimport \"../../interfaces/IWrapper.sol\";\nimport \"../../interfaces/IERC20.sol\";\nimport \"../../helpers/Ownable.sol\";\nimport \"./DBSFVaultFactoryDelegateParent.sol\";\n\ncontract DBSFVaultFactoryDelegate2 is DBSFVaultFactoryDelegateParent {\n\tusing SafeMath for uint;\n\tusing SignedSafeMath for int;\n\tusing SafeERC20 for IERC20;\n\n\n\t/*\n\t\t@Description: check if a vault is above the upper or lower collateralization limit\n\n\t\t@param Vault memory _vault: vault for which to check if limit is satisfied\n\t\t@param bool _upper: true if we are to check the upper collateralization limit,\n\t\t\tfalse otherwise\n\n\t\t@return bool: true if vault satisfies the limit,\n\t\t\tfalse otherwise\n\t*/\n\tfunction satisfiesLimit(\n\t\tVault memory _vault,\n\t\tbool _upper\n\t) internal view returns (\n\t\tbool withstands,\n\t\tSUPPLIED_ASSET_TYPE sType,\n\t\taddress baseFCP,\n\t\taddress baseWrapper\n\t) {\n\n\t\tIInfoOracle info = IInfoOracle(_infoOracleAddress);\n\t\taddress whitelistAddr;\n\t\t(whitelistAddr, sType, baseFCP, baseWrapper) = suppliedAssetInfo(_vault.assetSupplied, info);\n\t\t(address _suppliedAddrToPass, uint _suppliedAmtToPass, uint _borrowAmtToPass) = passInfoToVaultManagerPassWhitelistAddr(_vault, whitelistAddr);\n\n\t\twithstands = ( _upper ?\n\t\t\tvaultHealthContract.satisfiesUpperLimit(_suppliedAddrToPass, _vault.assetBorrowed, _suppliedAmtToPass, _borrowAmtToPass)\n\t\t\t\t:\n\t\t\tvaultHealthContract.satisfiesLowerLimit(_suppliedAddrToPass, _vault.assetBorrowed, _suppliedAmtToPass, _borrowAmtToPass)\n\t\t);\n\t}\n\n\t/*\n\t\t@Description: send a vault that is under the upper collateralization limit to the auction house\n\n\t\t@param address _owner: the owner of the vault to send to auction\n\t\t@param uint _index: the index of the vault in vaults[_owner] to send to auction\n\t\t@param address _assetBorrowed: the address of the expected borrow asset of the vault\n\t\t@param address _assetSupplied: the address of the expected supplied asset of the vault\n\t\t@param uint _bid: the first bid (in _assetSupplied) made by msg.sender\n\t\t@param uint _amtIn: the amount of _assetBorrowed to send in\n\t*/\n\tfunction auctionLiquidation(address _owner, uint _index, address _assetBorrowed, address _assetSupplied, uint _bid, uint _amtIn) external {\n\t\trequire(_vaults[_owner].length > _index);\n\t\tVault memory vault = _vaults[_owner][_index];\n\t\trequire(vault.assetBorrowed == _assetBorrowed);\n\t\trequire(vault.assetSupplied == _assetSupplied);\n\t\trequire(vault.amountBorrowed >= _amtIn && _amtIn > 0);\n\t\tuint maxBid = vault.amountSupplied * _amtIn / vault.amountBorrowed;\n\t\trequire(maxBid >= _bid);\n\t\t{\n\t\t\t(bool satisfies, , , ) = satisfiesLimit(vault, true);\n\t\t\tif (satisfies) {\n\t\t\t\tuint maturity = IZeroCouponBond(vault.assetBorrowed).maturity();\n\t\t\t\trequire(maturity < block.timestamp + MAX_TIME_TO_MATURITY);\n\t\t\t}\n\t\t}\n\t\t//burn borrowed ZCB\n\t\taddress FCPborrowed = IZeroCouponBond(_assetBorrowed).FixCapitalPoolAddress();\n\t\tuint feeAdjAmtIn = stabilityFeeAdjAmountBorrowed(_amtIn, vault.timestampOpened, vault.stabilityFeeAPR);\n\t\tcollectBid(msg.sender, FCPborrowed, feeAdjAmtIn);\n\t\tclaimStabilityFee(vault.assetBorrowed, FCPborrowed, feeAdjAmtIn - _amtIn);\n\t\tlowerShortInterest(FCPborrowed, _amtIn);\n\t\t//any surplus in the bid may be added as _revenue\n\t\tif (_bid < maxBid){\n\t\t\tdistributeSurplus(_owner, vault.assetSupplied, maxBid - _bid, true);\n\t\t}\n\t\tif (_amtIn == vault.amountBorrowed) {\n\t\t\tdelete _vaults[_owner][_index];\n\t\t}\n\t\telse {\n\t\t\t_vaults[_owner][_index].amountBorrowed -= _amtIn;\n\t\t\t_vaults[_owner][_index].amountSupplied -= maxBid;\n\t\t}\n\t\t_Liquidations.push(Liquidation(\n\t\t\t_owner,\n\t\t\tvault.assetSupplied,\n\t\t\tvault.assetBorrowed,\n\t\t\tfeeAdjAmtIn,\n\t\t\tmsg.sender,\n\t\t\t_bid,\n\t\t\tblock.timestamp\n\t\t));\n\t}\n\n\t/*\n\t\t@Description: place a new bid on a vault that has already begun an auction\n\n\t\t@param uint _index: the index in _Liquidations[] of the auction\n\t\t@param uint  _bid: the amount of the supplied asset that the liquidator wishes to receive\n\t\t\tin reward if the liquidator wins this auction\n\t\t@param uint _amtIn: the amount of borrowed asset that the liquidator will be sending in\n\t*/\n\tfunction bidOnLiquidation(uint _index, uint _bid, uint _amtIn) external {\n\t\trequire(_Liquidations.length > _index);\n\t\tLiquidation memory liq = _Liquidations[_index];\n\t\trequire(0 < _amtIn && _amtIn <= liq.amountBorrowed);\n\t\tuint maxBid = liq.bidAmount * _amtIn / liq.amountBorrowed;\n\t\trequire(_bid < maxBid);\n\n\t\taddress FCPborrowed = IZeroCouponBond(liq.assetBorrowed).FixCapitalPoolAddress();\n\t\trefundBid(liq.bidder, FCPborrowed, _amtIn);\n\t\tcollectBid(msg.sender, FCPborrowed, _amtIn);\n\t\tdistributeSurplus(liq.vaultOwner, liq.assetSupplied, maxBid - _bid, true);\n\n\t\tif (_amtIn == liq.amountBorrowed) {\n\t\t\t_Liquidations[_index].bidAmount = _bid;\n\t\t\t_Liquidations[_index].bidTimestamp = block.timestamp;\n\t\t\t_Liquidations[_index].bidder = msg.sender;\n\t\t}\n\t\telse {\n\t\t\t_Liquidations[_index].bidAmount -= maxBid;\n\t\t\t_Liquidations[_index].amountBorrowed -= _amtIn;\n\n\t\t\t_Liquidations.push(Liquidation(\n\t\t\t\tliq.vaultOwner,\n\t\t\t\tliq.assetSupplied,\n\t\t\t\tliq.assetBorrowed,\n\t\t\t\t_amtIn,\n\t\t\t\tmsg.sender,\n\t\t\t\t_bid,\n\t\t\t\tblock.timestamp\n\t\t\t));\n\t\t}\n\t}\n\n\t/*\n\t\t@Description: claim the collateral of a vault from an auction that was won by msg.sender\n\n\t\t@param uint _index: the index in Liquidations[] of the auction\n\t\t@param address _to: the address to which to send the proceeds\n\t*/\n\tfunction claimLiquidation(uint _index, address _to) external {\n\t\trequire(_Liquidations.length > _index);\n\t\tLiquidation memory liq = _Liquidations[_index];\n\t\trequire(msg.sender == liq.bidder);\n\t\trequire(block.timestamp >= AUCTION_COOLDOWN + liq.bidTimestamp);\n\n\t\tdelete _Liquidations[_index];\n\n\t\tIERC20(liq.assetSupplied).safeTransfer(_to, liq.bidAmount);\n\n\t\t(, SUPPLIED_ASSET_TYPE sType, address baseFCP, address baseWrapper) = suppliedAssetInfo(liq.assetSupplied, IInfoOracle(_infoOracleAddress));\n\t\trequire(liq.bidAmount <= uint(type(int256).max));\n\t\teditSubAccountStandardVault(false, liq.vaultOwner, sType, baseFCP, baseWrapper, -int(liq.bidAmount));\n\t}\n\n\t/*\n\t\t@Description: when there is less than 1 day until maturity or _vaults are under the lower collateralisation limit \n\t\t\tvaults may be liquidated instantly without going through the auction process, this is intended to help the VaultFactory\n\t\t\tkeep solvency in the event of a market crisis\n\t\t\tthis function is used when a liquidator would like to liquidate the entire vault\n\t\t@param address _owner: the owner of the vault to send to auction\n\t\t@param uint _index: the index of the vault in vaults[_owner] to send to auction\n\t\t@param address _assetBorrowed: the address of the expected borrow asset of the vault\n\t\t@param address _assetSupplied: the address of the expected supplied asset of the vault\n\t\t@param uint _maxIn: the maximum amount of assetBorrowed that msg.sender is willing to bid on the vault\n\t\t@param uint _minOut: the minimum amount of assetSupplied that msg.sender wants to receive from this liquidation\n\t\t@param address _to: the address to which to send all of the collateral from the vault\n\t*/\n\tfunction instantLiquidation(address _owner, uint _index, address _assetBorrowed, address _assetSupplied, uint _maxIn, uint _minOut, address _to) external {\n\t\trequire(_vaults[_owner].length > _index);\n\t\tVault memory vault = _vaults[_owner][_index];\n\t\trequire(vault.assetBorrowed == _assetBorrowed);\n\t\trequire(vault.assetSupplied == _assetSupplied);\n\t\t/*\n\t\t\tif instant liquidations are happening we do not care about collecting stability fees, we care about system solvency\n\t\t*/\n\t\tvault.amountBorrowed = vault.amountBorrowed.sub(vault.amountSFee);\n\t\trequire(vault.amountBorrowed <= _maxIn);\n\t\trequire(vault.amountSupplied >= _minOut && _minOut > 0);\n\n\t\t//burn borrowed ZCB\n\t\taddress FCPborrowed = IZeroCouponBond(vault.assetBorrowed).FixCapitalPoolAddress();\n\t\tIFixCapitalPool(FCPborrowed).burnZCBFrom(_to, vault.amountBorrowed);\n\t\tlowerShortInterest(FCPborrowed, vault.amountBorrowed);\n\t\tIERC20(_assetSupplied).safeTransfer(_to, vault.amountSupplied);\n\n\t\t{\n\t\t\tSUPPLIED_ASSET_TYPE sType;\n\t\t\taddress baseFCP;\n\t\t\taddress baseWrapper;\n\t\t\tif (IZeroCouponBond(_assetBorrowed).maturity() >= block.timestamp + CRITICAL_TIME_TO_MATURITY) {\n\t\t\t\tbool satisfies;\n\t\t\t\t(satisfies, sType, baseFCP, baseWrapper) = satisfiesLimit(vault, false);\n\t\t\t\trequire(!satisfies);\n\t\t\t}\n\t\t\telse {\n\t\t\t\t(, sType, baseFCP, baseWrapper) = suppliedAssetInfo(_assetSupplied, IInfoOracle(_infoOracleAddress));\n\t\t\t}\n\t\t\trequire(vault.amountSupplied <= uint(type(int256).max));\n\t\t\tint changeAmt = -int(vault.amountSupplied);\n\t\t\teditSubAccountStandardVault(false, _owner, sType, baseFCP, baseWrapper, changeAmt);\n\t\t}\n\n\t\tdelete _vaults[_owner][_index];\n\t}\n\n\t/*\n\t\t@Description: when there is less than 1 day until maturity or _vaults are under the lower collateralisation limit \n\t\t\tvaults may be liquidated instantly without going through the auction process, this is intended to help the VaultFactory\n\t\t\tkeep solvency in the event of a market crisis\n\t\t\tthis function is used when a liquidator whould like to only partially liquidate the vault by providing a specific\n\t\t\tamount of assetBorrowed and receiving the corresponding amount of assetSupplied\n\t\t@param address _owner: the owner of the vault to send to auction\n\t\t@param uint _index: the index of the vault in vaults[_owner] to send to auction\n\t\t@param address _assetBorrowed: the address of the expected borrow asset of the vault\n\t\t@param address _assetSupplied: the address of the expected supplied asset of the vault\n\t\t@param uint _in: the amount of assetBorrowed to supply to the vault\n\t\t@param uint _minOut: the minimum amount of assetSupplied that msg.sender wants to receive from this liquidation\n\t\t@param address _to: the address to which to send all of the collateral from the vault\n\t*/\n\tfunction partialLiquidationSpecificIn(address _owner, uint _index, address _assetBorrowed, address _assetSupplied, uint _in, uint _minOut, address _to) external {\n\t\trequire(_vaults[_owner].length > _index);\n\t\tVault memory vault = _vaults[_owner][_index];\n\t\trequire(vault.assetBorrowed == _assetBorrowed);\n\t\trequire(vault.assetSupplied == _assetSupplied);\n\t\t/*\n\t\t\tif instant liquidations are happening we do not care about collecting stability fees, we care about system solvency\n\t\t*/\n\t\tvault.amountBorrowed = vault.amountBorrowed.sub(vault.amountSFee);\n\t\trequire(0 < _in && _in <= vault.amountBorrowed);\n\t\tuint amtOut = _in*vault.amountSupplied/vault.amountBorrowed;\n\t\trequire(amtOut >= _minOut);\n\n\t\t//burn borrowed ZCB\n\t\taddress FCPborrowed = IZeroCouponBond(vault.assetBorrowed).FixCapitalPoolAddress();\n\t\tIFixCapitalPool(FCPborrowed).burnZCBFrom(_to, _in);\n\t\tlowerShortInterest(FCPborrowed, _in);\n\t\tIERC20(_assetSupplied).safeTransfer(_to, amtOut);\n\n\t\t{\n\t\t\tSUPPLIED_ASSET_TYPE sType;\n\t\t\taddress baseFCP;\n\t\t\taddress baseWrapper;\n\t\t\tif (IZeroCouponBond(_assetBorrowed).maturity() >= block.timestamp + CRITICAL_TIME_TO_MATURITY) {\n\t\t\t\tbool satisfies;\n\t\t\t\t(satisfies, sType, baseFCP, baseWrapper) = satisfiesLimit(vault, false);\n\t\t\t\trequire(!satisfies);\n\t\t\t}\n\t\t\telse {\n\t\t\t\t(, sType, baseFCP, baseWrapper) = suppliedAssetInfo(_assetSupplied, IInfoOracle(_infoOracleAddress));\n\t\t\t}\n\t\t\trequire(amtOut <= uint(type(int256).max));\n\t\t\tint changeAmt = -int(amtOut);\n\t\t\teditSubAccountStandardVault(false, _owner, sType, baseFCP, baseWrapper, changeAmt);\n\t\t}\n\n\t\t_vaults[_owner][_index].amountBorrowed = vault.amountBorrowed - _in;\n\t\t_vaults[_owner][_index].amountSupplied = vault.amountSupplied - amtOut;\n\t\t/*\n\t\t\tif instant liquidations are happening we do not care about collecting stability fees, we care about system solvency\n\t\t*/\n\t\t_vaults[_owner][_index].amountSFee = 0;\n\t}\n\n\t/*\n\t\t@Description: when there is less than 1 day until maturity or _vaults are under the lower collateralisation limit \n\t\t\tvaults may be liquidated instantly without going through the auction process, this is intended to help the VaultFactory\n\t\t\tkeep solvency in the event of a market crisis\n\t\t\tthis function is used when a liquidator whould like to only partially liquidate the vault by receiving a specific\n\t\t\tamount of assetSupplied and sending the corresponding amount of assetBorrowed\n\t\t@param address _owner: the owner of the vault to send to auction\n\t\t@param uint _index: the index of the vault in vaults[_owner] to send to auction\n\t\t@param address _assetBorrowed: the address of the expected borrow asset of the vault\n\t\t@param address _assetSupplied: the address of the expected supplied asset of the vault\n\t\t@param uint _out: the amount of assetSupplied to receive from the vault\n\t\t@param uint _maxIn: the maximum amount of assetBorrowed that msg.sender is willing to bid on the vault\n\t\t@param address _to: the address to which to send all of the collateral from the vault\n\t*/\n\tfunction partialLiquidationSpecificOut(address _owner, uint _index, address _assetBorrowed, address _assetSupplied, uint _out, uint _maxIn, address _to) external {\n\t\trequire(_vaults[_owner].length > _index);\n\t\tVault memory vault = _vaults[_owner][_index];\n\t\trequire(vault.assetBorrowed == _assetBorrowed);\n\t\trequire(vault.assetSupplied == _assetSupplied);\n\t\trequire(vault.amountSupplied >= _out);\n\t\t/*\n\t\t\tif instant liquidations are happening we do not care about collecting stability fees, we care about system solvency\n\t\t*/\n\t\tvault.amountBorrowed = vault.amountBorrowed.sub(vault.amountSFee);\n\t\tuint amtIn = _out*vault.amountBorrowed;\n\t\tamtIn = amtIn/vault.amountSupplied + (amtIn%vault.amountSupplied == 0 ? 0 : 1);\n\t\trequire(0 < amtIn && amtIn <= _maxIn);\n\n\t\t//burn borrowed ZCB\n\t\taddress FCPborrowed = IZeroCouponBond(_assetBorrowed).FixCapitalPoolAddress();\n\t\tIFixCapitalPool(FCPborrowed).burnZCBFrom(_to, amtIn);\n\t\tlowerShortInterest(FCPborrowed, amtIn);\n\t\tIERC20(_assetSupplied).safeTransfer(_to, _out);\n\n\t\t{\n\t\t\tSUPPLIED_ASSET_TYPE sType;\n\t\t\taddress baseFCP;\n\t\t\taddress baseWrapper;\n\t\t\tif (IZeroCouponBond(_assetBorrowed).maturity() >= block.timestamp + CRITICAL_TIME_TO_MATURITY) {\n\t\t\t\tbool satisfies;\n\t\t\t\t(satisfies, sType, baseFCP, baseWrapper) = satisfiesLimit(vault, false);\n\t\t\t\trequire(!satisfies);\n\t\t\t}\n\t\t\telse {\n\t\t\t\t(, sType, baseFCP, baseWrapper) = suppliedAssetInfo(_assetSupplied, IInfoOracle(_infoOracleAddress));\n\t\t\t}\n\t\t\trequire(_out <= uint(type(int256).max));\n\t\t\tint changeAmt = -int(_out);\n\t\t\teditSubAccountStandardVault(false, _owner, sType, baseFCP, baseWrapper, changeAmt);\n\t\t}\n\n\t\t_vaults[_owner][_index].amountBorrowed = vault.amountBorrowed - amtIn;\n\t\t_vaults[_owner][_index].amountSupplied = vault.amountSupplied - _out;\n\t\t/*\n\t\t\tif instant liquidations are happening we do not care about collecting stability fees, we care about system solvency\n\t\t*/\n\t\t_vaults[_owner][_index].amountSFee = 0;\n\t}\n\n\t/*\n\t\t@Description: assign a vault to a new owner\n\n\t\t@param uint _index: the index within vaults[msg.sender] at which the vault to transfer is located\n\t\t@param address _to: the new owner of the vault\n\t*/\n\tfunction transferStandardVault(uint _index, address _to) internal {\n\t\trequire(_vaults[msg.sender].length > _index);\n\t\tVault memory vault = _vaults[msg.sender][_index];\n\t\t_vaults[_to].push(vault);\n\t\tdelete _vaults[msg.sender][_index];\n\t}\n\n\t/*\n\t\t@Description: assign a YT vault to a new owner\n\n\t\t@param uint _index: the index within YTvaults[msg.sender] at which the YT vault to transfer is located\n\t\t@param address _to: the new owner of the YT vault\n\t*/\n\tfunction transferYTVault(uint _index, address _to) internal {\n\t\trequire(_YTvaults[msg.sender].length > _index);\n\t\tYTVault memory vault = _YTvaults[msg.sender][_index];\n\t\t_YTvaults[_to].push(vault);\n\t\tdelete _YTvaults[msg.sender][_index];\n\t}\n\n}",
  "sourcePath": "/home/asher/FixFinanceV1/contracts/VaultFactory/DifferentBaseSF/DBSFVaultFactoryDelegate2.sol",
  "compiler": {
    "name": "solc",
    "version": "0.6.8+commit.0bbfe453.Emscripten.clang"
  },
  "schemaVersion": "3.4.1",
  "updatedAt": "2021-11-26T19:15:55.255Z",
  "devdoc": {
    "methods": {}
  },
  "userdoc": {
    "methods": {}
  }
}