{
  "contractName": "DBSFVaultFactory",
  "abi": [
    {
      "inputs": [
        {
          "internalType": "address",
          "name": "_vaultHealthContract",
          "type": "address"
        },
        {
          "internalType": "address",
          "name": "_infoOracleAddr",
          "type": "address"
        },
        {
          "internalType": "address",
          "name": "_delegate1Address",
          "type": "address"
        },
        {
          "internalType": "address",
          "name": "_delegate2Address",
          "type": "address"
        },
        {
          "internalType": "address",
          "name": "_delegate3Address",
          "type": "address"
        },
        {
          "internalType": "address",
          "name": "_delegate4Address",
          "type": "address"
        },
        {
          "internalType": "address",
          "name": "_delegate5Address",
          "type": "address"
        }
      ],
      "stateMutability": "nonpayable",
      "type": "constructor"
    },
    {
      "anonymous": false,
      "inputs": [
        {
          "indexed": true,
          "internalType": "address",
          "name": "owner",
          "type": "address"
        },
        {
          "indexed": false,
          "internalType": "uint256",
          "name": "index",
          "type": "uint256"
        }
      ],
      "name": "AdjustVault",
      "type": "event"
    },
    {
      "anonymous": false,
      "inputs": [
        {
          "indexed": true,
          "internalType": "address",
          "name": "owner",
          "type": "address"
        },
        {
          "indexed": false,
          "internalType": "uint256",
          "name": "index",
          "type": "uint256"
        }
      ],
      "name": "AdjustYTVault",
      "type": "event"
    },
    {
      "anonymous": false,
      "inputs": [
        {
          "indexed": true,
          "internalType": "address",
          "name": "vaultOwner",
          "type": "address"
        },
        {
          "indexed": false,
          "internalType": "uint256",
          "name": "vaultIndex",
          "type": "uint256"
        },
        {
          "indexed": false,
          "internalType": "uint256",
          "name": "liquidationIndex",
          "type": "uint256"
        }
      ],
      "name": "AuctionLiquidation",
      "type": "event"
    },
    {
      "anonymous": false,
      "inputs": [
        {
          "indexed": true,
          "internalType": "address",
          "name": "YTvaultOwner",
          "type": "address"
        },
        {
          "indexed": false,
          "internalType": "uint256",
          "name": "YTvaultIndex",
          "type": "uint256"
        },
        {
          "indexed": false,
          "internalType": "uint256",
          "name": "YTliquidationIndex",
          "type": "uint256"
        }
      ],
      "name": "AuctionYTLiquidation",
      "type": "event"
    },
    {
      "anonymous": false,
      "inputs": [
        {
          "indexed": false,
          "internalType": "uint256",
          "name": "liquidationIndex",
          "type": "uint256"
        }
      ],
      "name": "BidOnLiquidation",
      "type": "event"
    },
    {
      "anonymous": false,
      "inputs": [
        {
          "indexed": false,
          "internalType": "uint256",
          "name": "YTliquidationIndex",
          "type": "uint256"
        }
      ],
      "name": "BidOnYTLiquidation",
      "type": "event"
    },
    {
      "anonymous": false,
      "inputs": [
        {
          "indexed": false,
          "internalType": "uint256",
          "name": "liquidationIndex",
          "type": "uint256"
        }
      ],
      "name": "ClaimLiquidation",
      "type": "event"
    },
    {
      "anonymous": false,
      "inputs": [
        {
          "indexed": true,
          "internalType": "address",
          "name": "owner",
          "type": "address"
        },
        {
          "indexed": false,
          "internalType": "address",
          "name": "asset",
          "type": "address"
        }
      ],
      "name": "ClaimRebate",
      "type": "event"
    },
    {
      "anonymous": false,
      "inputs": [
        {
          "indexed": false,
          "internalType": "uint256",
          "name": "YTliquidationIndex",
          "type": "uint256"
        }
      ],
      "name": "ClaimYTLiquidation",
      "type": "event"
    },
    {
      "anonymous": false,
      "inputs": [
        {
          "indexed": true,
          "internalType": "address",
          "name": "owner",
          "type": "address"
        },
        {
          "indexed": false,
          "internalType": "address",
          "name": "FCPaddress",
          "type": "address"
        }
      ],
      "name": "ClaimYTRebate",
      "type": "event"
    },
    {
      "anonymous": false,
      "inputs": [
        {
          "indexed": true,
          "internalType": "address",
          "name": "owner",
          "type": "address"
        },
        {
          "indexed": false,
          "internalType": "uint256",
          "name": "index",
          "type": "uint256"
        }
      ],
      "name": "CloseVault",
      "type": "event"
    },
    {
      "anonymous": false,
      "inputs": [
        {
          "indexed": true,
          "internalType": "address",
          "name": "owner",
          "type": "address"
        },
        {
          "indexed": false,
          "internalType": "uint256",
          "name": "index",
          "type": "uint256"
        }
      ],
      "name": "CloseYTVault",
      "type": "event"
    },
    {
      "anonymous": false,
      "inputs": [
        {
          "indexed": true,
          "internalType": "address",
          "name": "owner",
          "type": "address"
        },
        {
          "indexed": false,
          "internalType": "uint256",
          "name": "index",
          "type": "uint256"
        }
      ],
      "name": "InstantLiquidation",
      "type": "event"
    },
    {
      "anonymous": false,
      "inputs": [
        {
          "indexed": true,
          "internalType": "address",
          "name": "owner",
          "type": "address"
        },
        {
          "indexed": false,
          "internalType": "uint256",
          "name": "index",
          "type": "uint256"
        }
      ],
      "name": "InstantYTLiquidation",
      "type": "event"
    },
    {
      "anonymous": false,
      "inputs": [
        {
          "indexed": true,
          "internalType": "address",
          "name": "owner",
          "type": "address"
        },
        {
          "indexed": false,
          "internalType": "uint256",
          "name": "index",
          "type": "uint256"
        }
      ],
      "name": "OpenVault",
      "type": "event"
    },
    {
      "anonymous": false,
      "inputs": [
        {
          "indexed": true,
          "internalType": "address",
          "name": "owner",
          "type": "address"
        },
        {
          "indexed": false,
          "internalType": "uint256",
          "name": "index",
          "type": "uint256"
        }
      ],
      "name": "OpenYTVault",
      "type": "event"
    },
    {
      "anonymous": false,
      "inputs": [
        {
          "indexed": true,
          "internalType": "address",
          "name": "prevOwner",
          "type": "address"
        },
        {
          "indexed": false,
          "internalType": "uint256",
          "name": "prevIndex",
          "type": "uint256"
        },
        {
          "indexed": true,
          "internalType": "address",
          "name": "newOwner",
          "type": "address"
        },
        {
          "indexed": false,
          "internalType": "bool",
          "name": "isYTVault",
          "type": "bool"
        }
      ],
      "name": "TransferVault",
      "type": "event"
    },
    {
      "inputs": [],
      "name": "owner",
      "outputs": [
        {
          "internalType": "address",
          "name": "",
          "type": "address"
        }
      ],
      "stateMutability": "view",
      "type": "function"
    },
    {
      "inputs": [
        {
          "internalType": "address",
          "name": "newOwner",
          "type": "address"
        }
      ],
      "name": "transferOwnership",
      "outputs": [],
      "stateMutability": "nonpayable",
      "type": "function"
    },
    {
      "inputs": [
        {
          "internalType": "address",
          "name": "_owner",
          "type": "address"
        }
      ],
      "name": "vaultsLength",
      "outputs": [
        {
          "internalType": "uint256",
          "name": "",
          "type": "uint256"
        }
      ],
      "stateMutability": "view",
      "type": "function"
    },
    {
      "inputs": [
        {
          "internalType": "address",
          "name": "_owner",
          "type": "address"
        }
      ],
      "name": "YTvaultsLength",
      "outputs": [
        {
          "internalType": "uint256",
          "name": "",
          "type": "uint256"
        }
      ],
      "stateMutability": "view",
      "type": "function"
    },
    {
      "inputs": [
        {
          "internalType": "address",
          "name": "_owner",
          "type": "address"
        }
      ],
      "name": "allVaults",
      "outputs": [
        {
          "components": [
            {
              "internalType": "address",
              "name": "assetSupplied",
              "type": "address"
            },
            {
              "internalType": "address",
              "name": "assetBorrowed",
              "type": "address"
            },
            {
              "internalType": "uint256",
              "name": "amountSupplied",
              "type": "uint256"
            },
            {
              "internalType": "uint256",
              "name": "amountBorrowed",
              "type": "uint256"
            },
            {
              "internalType": "uint256",
              "name": "amountSFee",
              "type": "uint256"
            },
            {
              "internalType": "uint64",
              "name": "timestampOpened",
              "type": "uint64"
            },
            {
              "internalType": "uint64",
              "name": "stabilityFeeAPR",
              "type": "uint64"
            }
          ],
          "internalType": "struct DBSFVaultFactoryData.Vault[]",
          "name": "__vaults",
          "type": "tuple[]"
        }
      ],
      "stateMutability": "view",
      "type": "function"
    },
    {
      "inputs": [],
      "name": "liquidationsLength",
      "outputs": [
        {
          "internalType": "uint256",
          "name": "",
          "type": "uint256"
        }
      ],
      "stateMutability": "view",
      "type": "function"
    },
    {
      "inputs": [],
      "name": "YTLiquidationsLength",
      "outputs": [
        {
          "internalType": "uint256",
          "name": "",
          "type": "uint256"
        }
      ],
      "stateMutability": "view",
      "type": "function"
    },
    {
      "inputs": [
        {
          "internalType": "address",
          "name": "_wrapper",
          "type": "address"
        }
      ],
      "name": "shortInterestAllDurations",
      "outputs": [
        {
          "internalType": "uint256",
          "name": "",
          "type": "uint256"
        }
      ],
      "stateMutability": "view",
      "type": "function"
    },
    {
      "inputs": [
        {
          "internalType": "address",
          "name": "_asset",
          "type": "address"
        }
      ],
      "name": "revenue",
      "outputs": [
        {
          "internalType": "uint256",
          "name": "",
          "type": "uint256"
        }
      ],
      "stateMutability": "view",
      "type": "function"
    },
    {
      "inputs": [
        {
          "internalType": "address",
          "name": "_asset",
          "type": "address"
        }
      ],
      "name": "YTrevenue",
      "outputs": [
        {
          "internalType": "uint256",
          "name": "yield",
          "type": "uint256"
        },
        {
          "internalType": "int256",
          "name": "bond",
          "type": "int256"
        }
      ],
      "stateMutability": "view",
      "type": "function"
    },
    {
      "inputs": [
        {
          "internalType": "address",
          "name": "_owner",
          "type": "address"
        },
        {
          "internalType": "address",
          "name": "_asset",
          "type": "address"
        }
      ],
      "name": "liquidationRebates",
      "outputs": [
        {
          "internalType": "uint256",
          "name": "",
          "type": "uint256"
        }
      ],
      "stateMutability": "view",
      "type": "function"
    },
    {
      "inputs": [
        {
          "internalType": "address",
          "name": "_owner",
          "type": "address"
        },
        {
          "internalType": "address",
          "name": "_FCP",
          "type": "address"
        }
      ],
      "name": "YTLiquidationRebates",
      "outputs": [
        {
          "internalType": "uint256",
          "name": "yield",
          "type": "uint256"
        },
        {
          "internalType": "int256",
          "name": "bond",
          "type": "int256"
        }
      ],
      "stateMutability": "view",
      "type": "function"
    },
    {
      "inputs": [
        {
          "internalType": "address",
          "name": "_owner",
          "type": "address"
        },
        {
          "internalType": "uint256",
          "name": "_index",
          "type": "uint256"
        }
      ],
      "name": "vaults",
      "outputs": [
        {
          "internalType": "address",
          "name": "assetSupplied",
          "type": "address"
        },
        {
          "internalType": "address",
          "name": "assetBorrowed",
          "type": "address"
        },
        {
          "internalType": "uint256",
          "name": "amountSupplied",
          "type": "uint256"
        },
        {
          "internalType": "uint256",
          "name": "amountBorrowed",
          "type": "uint256"
        },
        {
          "internalType": "uint256",
          "name": "amountSFee",
          "type": "uint256"
        },
        {
          "internalType": "uint64",
          "name": "timestampOpened",
          "type": "uint64"
        },
        {
          "internalType": "uint64",
          "name": "stabilityFeeAPR",
          "type": "uint64"
        }
      ],
      "stateMutability": "view",
      "type": "function"
    },
    {
      "inputs": [
        {
          "internalType": "uint256",
          "name": "_index",
          "type": "uint256"
        }
      ],
      "name": "Liquidations",
      "outputs": [
        {
          "internalType": "address",
          "name": "vaultOwner",
          "type": "address"
        },
        {
          "internalType": "address",
          "name": "assetSupplied",
          "type": "address"
        },
        {
          "internalType": "address",
          "name": "assetBorrowed",
          "type": "address"
        },
        {
          "internalType": "uint256",
          "name": "amountBorrowed",
          "type": "uint256"
        },
        {
          "internalType": "address",
          "name": "bidder",
          "type": "address"
        },
        {
          "internalType": "uint256",
          "name": "bidAmount",
          "type": "uint256"
        },
        {
          "internalType": "uint256",
          "name": "bidTimestamp",
          "type": "uint256"
        }
      ],
      "stateMutability": "view",
      "type": "function"
    },
    {
      "inputs": [
        {
          "internalType": "address",
          "name": "_owner",
          "type": "address"
        },
        {
          "internalType": "uint256",
          "name": "_index",
          "type": "uint256"
        }
      ],
      "name": "YTvaults",
      "outputs": [
        {
          "internalType": "address",
          "name": "FCPsupplied",
          "type": "address"
        },
        {
          "internalType": "address",
          "name": "FCPborrowed",
          "type": "address"
        },
        {
          "internalType": "uint256",
          "name": "yieldSupplied",
          "type": "uint256"
        },
        {
          "internalType": "int256",
          "name": "bondSupplied",
          "type": "int256"
        },
        {
          "internalType": "uint256",
          "name": "amountBorrowed",
          "type": "uint256"
        },
        {
          "internalType": "uint256",
          "name": "amountSFee",
          "type": "uint256"
        },
        {
          "internalType": "uint64",
          "name": "timestampOpened",
          "type": "uint64"
        },
        {
          "internalType": "uint64",
          "name": "stabilityFeeAPR",
          "type": "uint64"
        }
      ],
      "stateMutability": "view",
      "type": "function"
    },
    {
      "inputs": [
        {
          "internalType": "uint256",
          "name": "_index",
          "type": "uint256"
        }
      ],
      "name": "YTLiquidations",
      "outputs": [
        {
          "internalType": "address",
          "name": "vaultOwner",
          "type": "address"
        },
        {
          "internalType": "address",
          "name": "FCPsupplied",
          "type": "address"
        },
        {
          "internalType": "address",
          "name": "FCPborrowed",
          "type": "address"
        },
        {
          "internalType": "int256",
          "name": "bondRatio",
          "type": "int256"
        },
        {
          "internalType": "uint256",
          "name": "amountBorrowed",
          "type": "uint256"
        },
        {
          "internalType": "address",
          "name": "bidder",
          "type": "address"
        },
        {
          "internalType": "uint256",
          "name": "bidAmount",
          "type": "uint256"
        },
        {
          "internalType": "uint256",
          "name": "bidTimestamp",
          "type": "uint256"
        }
      ],
      "stateMutability": "view",
      "type": "function"
    },
    {
      "inputs": [],
      "name": "VaultHealthAddress",
      "outputs": [
        {
          "internalType": "address",
          "name": "",
          "type": "address"
        }
      ],
      "stateMutability": "view",
      "type": "function"
    },
    {
      "inputs": [
        {
          "internalType": "address",
          "name": "_assetSupplied",
          "type": "address"
        },
        {
          "internalType": "address",
          "name": "_assetBorrowed",
          "type": "address"
        },
        {
          "internalType": "uint256",
          "name": "_amountSupplied",
          "type": "uint256"
        },
        {
          "internalType": "uint256",
          "name": "_amountBorrowed",
          "type": "uint256"
        },
        {
          "internalType": "uint256",
          "name": "_priceMultiplier",
          "type": "uint256"
        },
        {
          "internalType": "int128",
          "name": "_suppliedRateChange",
          "type": "int128"
        },
        {
          "internalType": "int128",
          "name": "_borrowRateChange",
          "type": "int128"
        }
      ],
      "name": "openVault",
      "outputs": [],
      "stateMutability": "nonpayable",
      "type": "function"
    },
    {
      "inputs": [
        {
          "internalType": "uint256",
          "name": "_index",
          "type": "uint256"
        },
        {
          "internalType": "address",
          "name": "_to",
          "type": "address"
        }
      ],
      "name": "closeVault",
      "outputs": [],
      "stateMutability": "nonpayable",
      "type": "function"
    },
    {
      "inputs": [
        {
          "internalType": "address",
          "name": "_owner",
          "type": "address"
        },
        {
          "internalType": "uint256",
          "name": "_index",
          "type": "uint256"
        },
        {
          "internalType": "address",
          "name": "_assetSupplied",
          "type": "address"
        },
        {
          "internalType": "address",
          "name": "_assetBorrowed",
          "type": "address"
        },
        {
          "internalType": "uint256",
          "name": "_amountSupplied",
          "type": "uint256"
        },
        {
          "internalType": "uint256",
          "name": "_amountBorrowed",
          "type": "uint256"
        },
        {
          "internalType": "int128[3]",
          "name": "_multipliers",
          "type": "int128[3]"
        },
        {
          "internalType": "bytes",
          "name": "_data",
          "type": "bytes"
        },
        {
          "internalType": "address",
          "name": "_receiverAddr",
          "type": "address"
        }
      ],
      "name": "adjustVault",
      "outputs": [],
      "stateMutability": "nonpayable",
      "type": "function"
    },
    {
      "inputs": [
        {
          "internalType": "address",
          "name": "_FCPsupplied",
          "type": "address"
        },
        {
          "internalType": "address",
          "name": "_FCPborrowed",
          "type": "address"
        },
        {
          "internalType": "uint256",
          "name": "_yieldSupplied",
          "type": "uint256"
        },
        {
          "internalType": "int256",
          "name": "_bondSupplied",
          "type": "int256"
        },
        {
          "internalType": "uint256",
          "name": "_amountBorrowed",
          "type": "uint256"
        },
        {
          "internalType": "uint256",
          "name": "_priceMultiplier",
          "type": "uint256"
        },
        {
          "internalType": "int128",
          "name": "_suppliedRateChange",
          "type": "int128"
        },
        {
          "internalType": "int128",
          "name": "_borrowRateChange",
          "type": "int128"
        }
      ],
      "name": "openYTVault",
      "outputs": [],
      "stateMutability": "nonpayable",
      "type": "function"
    },
    {
      "inputs": [
        {
          "internalType": "uint256",
          "name": "_index",
          "type": "uint256"
        },
        {
          "internalType": "address",
          "name": "_to",
          "type": "address"
        }
      ],
      "name": "closeYTVault",
      "outputs": [],
      "stateMutability": "nonpayable",
      "type": "function"
    },
    {
      "inputs": [
        {
          "internalType": "address",
          "name": "_owner",
          "type": "address"
        },
        {
          "internalType": "uint256",
          "name": "_index",
          "type": "uint256"
        },
        {
          "internalType": "address",
          "name": "_FCPsupplied",
          "type": "address"
        },
        {
          "internalType": "address",
          "name": "_FCPborrowed",
          "type": "address"
        },
        {
          "internalType": "uint256",
          "name": "_yieldSupplied",
          "type": "uint256"
        },
        {
          "internalType": "int256",
          "name": "_bondSupplied",
          "type": "int256"
        },
        {
          "internalType": "uint256",
          "name": "_amountBorrowed",
          "type": "uint256"
        },
        {
          "internalType": "int128[3]",
          "name": "_multipliers",
          "type": "int128[3]"
        },
        {
          "internalType": "bytes",
          "name": "_data",
          "type": "bytes"
        },
        {
          "internalType": "address",
          "name": "_receiverAddr",
          "type": "address"
        }
      ],
      "name": "adjustYTVault",
      "outputs": [],
      "stateMutability": "nonpayable",
      "type": "function"
    },
    {
      "inputs": [
        {
          "internalType": "uint256",
          "name": "_index",
          "type": "uint256"
        },
        {
          "internalType": "address",
          "name": "_to",
          "type": "address"
        },
        {
          "internalType": "bool",
          "name": "_isYTVault",
          "type": "bool"
        }
      ],
      "name": "transferVault",
      "outputs": [],
      "stateMutability": "nonpayable",
      "type": "function"
    },
    {
      "inputs": [
        {
          "internalType": "address",
          "name": "_owner",
          "type": "address"
        },
        {
          "internalType": "uint256",
          "name": "_index",
          "type": "uint256"
        },
        {
          "internalType": "address",
          "name": "_assetBorrowed",
          "type": "address"
        },
        {
          "internalType": "address",
          "name": "_assetSupplied",
          "type": "address"
        },
        {
          "internalType": "uint256",
          "name": "_bid",
          "type": "uint256"
        },
        {
          "internalType": "uint256",
          "name": "_maxIn",
          "type": "uint256"
        }
      ],
      "name": "auctionLiquidation",
      "outputs": [],
      "stateMutability": "nonpayable",
      "type": "function"
    },
    {
      "inputs": [
        {
          "internalType": "uint256",
          "name": "_index",
          "type": "uint256"
        },
        {
          "internalType": "uint256",
          "name": "_bid",
          "type": "uint256"
        },
        {
          "internalType": "uint256",
          "name": "_amtIn",
          "type": "uint256"
        }
      ],
      "name": "bidOnLiquidation",
      "outputs": [],
      "stateMutability": "nonpayable",
      "type": "function"
    },
    {
      "inputs": [
        {
          "internalType": "uint256",
          "name": "_index",
          "type": "uint256"
        },
        {
          "internalType": "address",
          "name": "_to",
          "type": "address"
        }
      ],
      "name": "claimLiquidation",
      "outputs": [],
      "stateMutability": "nonpayable",
      "type": "function"
    },
    {
      "inputs": [
        {
          "internalType": "address",
          "name": "_owner",
          "type": "address"
        },
        {
          "internalType": "uint256",
          "name": "_index",
          "type": "uint256"
        },
        {
          "internalType": "address",
          "name": "_assetBorrowed",
          "type": "address"
        },
        {
          "internalType": "address",
          "name": "_assetSupplied",
          "type": "address"
        },
        {
          "internalType": "uint256",
          "name": "_maxIn",
          "type": "uint256"
        },
        {
          "internalType": "uint256",
          "name": "_minOut",
          "type": "uint256"
        },
        {
          "internalType": "address",
          "name": "_to",
          "type": "address"
        }
      ],
      "name": "instantLiquidation",
      "outputs": [],
      "stateMutability": "nonpayable",
      "type": "function"
    },
    {
      "inputs": [
        {
          "internalType": "address",
          "name": "_owner",
          "type": "address"
        },
        {
          "internalType": "uint256",
          "name": "_index",
          "type": "uint256"
        },
        {
          "internalType": "address",
          "name": "_assetBorrowed",
          "type": "address"
        },
        {
          "internalType": "address",
          "name": "_assetSupplied",
          "type": "address"
        },
        {
          "internalType": "uint256",
          "name": "_in",
          "type": "uint256"
        },
        {
          "internalType": "uint256",
          "name": "_minOut",
          "type": "uint256"
        },
        {
          "internalType": "address",
          "name": "_to",
          "type": "address"
        }
      ],
      "name": "partialLiquidationSpecificIn",
      "outputs": [],
      "stateMutability": "nonpayable",
      "type": "function"
    },
    {
      "inputs": [
        {
          "internalType": "address",
          "name": "_owner",
          "type": "address"
        },
        {
          "internalType": "uint256",
          "name": "_index",
          "type": "uint256"
        },
        {
          "internalType": "address",
          "name": "_assetBorrowed",
          "type": "address"
        },
        {
          "internalType": "address",
          "name": "_assetSupplied",
          "type": "address"
        },
        {
          "internalType": "uint256",
          "name": "_out",
          "type": "uint256"
        },
        {
          "internalType": "uint256",
          "name": "_maxIn",
          "type": "uint256"
        },
        {
          "internalType": "address",
          "name": "_to",
          "type": "address"
        }
      ],
      "name": "partialLiquidationSpecificOut",
      "outputs": [],
      "stateMutability": "nonpayable",
      "type": "function"
    },
    {
      "inputs": [
        {
          "internalType": "address",
          "name": "_asset",
          "type": "address"
        }
      ],
      "name": "claimRebate",
      "outputs": [],
      "stateMutability": "nonpayable",
      "type": "function"
    },
    {
      "inputs": [
        {
          "internalType": "address",
          "name": "_FCP",
          "type": "address"
        }
      ],
      "name": "claimYTRebate",
      "outputs": [],
      "stateMutability": "nonpayable",
      "type": "function"
    },
    {
      "inputs": [
        {
          "internalType": "address",
          "name": "_owner",
          "type": "address"
        },
        {
          "internalType": "uint256",
          "name": "_index",
          "type": "uint256"
        },
        {
          "internalType": "address",
          "name": "_FCPborrowed",
          "type": "address"
        },
        {
          "internalType": "address",
          "name": "_FCPsupplied",
          "type": "address"
        },
        {
          "internalType": "uint256",
          "name": "_bidYield",
          "type": "uint256"
        },
        {
          "internalType": "int256",
          "name": "_minBondRatio",
          "type": "int256"
        },
        {
          "internalType": "uint256",
          "name": "_amtIn",
          "type": "uint256"
        }
      ],
      "name": "auctionYTLiquidation",
      "outputs": [],
      "stateMutability": "nonpayable",
      "type": "function"
    },
    {
      "inputs": [
        {
          "internalType": "uint256",
          "name": "_index",
          "type": "uint256"
        },
        {
          "internalType": "uint256",
          "name": "_bidYield",
          "type": "uint256"
        },
        {
          "internalType": "uint256",
          "name": "_amtIn",
          "type": "uint256"
        }
      ],
      "name": "bidOnYTLiquidation",
      "outputs": [],
      "stateMutability": "nonpayable",
      "type": "function"
    },
    {
      "inputs": [
        {
          "internalType": "uint256",
          "name": "_index",
          "type": "uint256"
        },
        {
          "internalType": "address",
          "name": "_to",
          "type": "address"
        }
      ],
      "name": "claimYTLiquidation",
      "outputs": [],
      "stateMutability": "nonpayable",
      "type": "function"
    },
    {
      "inputs": [
        {
          "internalType": "address",
          "name": "_owner",
          "type": "address"
        },
        {
          "internalType": "uint256",
          "name": "_index",
          "type": "uint256"
        },
        {
          "internalType": "address",
          "name": "_FCPborrowed",
          "type": "address"
        },
        {
          "internalType": "address",
          "name": "_FCPsupplied",
          "type": "address"
        },
        {
          "internalType": "uint256",
          "name": "_maxIn",
          "type": "uint256"
        },
        {
          "internalType": "uint256",
          "name": "_minOut",
          "type": "uint256"
        },
        {
          "internalType": "int256",
          "name": "_minBondRatio",
          "type": "int256"
        },
        {
          "internalType": "address",
          "name": "_to",
          "type": "address"
        }
      ],
      "name": "instantYTLiquidation",
      "outputs": [],
      "stateMutability": "nonpayable",
      "type": "function"
    },
    {
      "inputs": [
        {
          "internalType": "address",
          "name": "_owner",
          "type": "address"
        },
        {
          "internalType": "uint256",
          "name": "_index",
          "type": "uint256"
        },
        {
          "internalType": "address",
          "name": "_FCPborrowed",
          "type": "address"
        },
        {
          "internalType": "address",
          "name": "_FCPsupplied",
          "type": "address"
        },
        {
          "internalType": "uint256",
          "name": "_in",
          "type": "uint256"
        },
        {
          "internalType": "uint256",
          "name": "_minOut",
          "type": "uint256"
        },
        {
          "internalType": "int256",
          "name": "_minBondRatio",
          "type": "int256"
        },
        {
          "internalType": "address",
          "name": "_to",
          "type": "address"
        }
      ],
      "name": "partialYTLiquidationSpecificIn",
      "outputs": [],
      "stateMutability": "nonpayable",
      "type": "function"
    },
    {
      "inputs": [
        {
          "internalType": "address",
          "name": "_owner",
          "type": "address"
        },
        {
          "internalType": "uint256",
          "name": "_index",
          "type": "uint256"
        },
        {
          "internalType": "address",
          "name": "_FCPborrowed",
          "type": "address"
        },
        {
          "internalType": "address",
          "name": "_FCPsupplied",
          "type": "address"
        },
        {
          "internalType": "uint256",
          "name": "_out",
          "type": "uint256"
        },
        {
          "internalType": "int256",
          "name": "_minBondRatio",
          "type": "int256"
        },
        {
          "internalType": "uint256",
          "name": "_maxIn",
          "type": "uint256"
        },
        {
          "internalType": "address",
          "name": "_to",
          "type": "address"
        }
      ],
      "name": "partialYTLiquidationSpecificOut",
      "outputs": [],
      "stateMutability": "nonpayable",
      "type": "function"
    },
    {
      "inputs": [
        {
          "internalType": "address",
          "name": "_wrapperAddress",
          "type": "address"
        }
      ],
      "name": "registerAsDistributionAccount",
      "outputs": [],
      "stateMutability": "nonpayable",
      "type": "function"
    },
    {
      "inputs": [
        {
          "internalType": "uint256",
          "name": "_rebateBips",
          "type": "uint256"
        }
      ],
      "name": "setLiquidationRebate",
      "outputs": [],
      "stateMutability": "nonpayable",
      "type": "function"
    },
    {
      "inputs": [
        {
          "internalType": "address",
          "name": "_asset",
          "type": "address"
        }
      ],
      "name": "claimRevenue",
      "outputs": [],
      "stateMutability": "nonpayable",
      "type": "function"
    },
    {
      "inputs": [
        {
          "internalType": "address",
          "name": "_FCP",
          "type": "address"
        },
        {
          "internalType": "int256",
          "name": "_bondIn",
          "type": "int256"
        }
      ],
      "name": "claimYTRevenue",
      "outputs": [],
      "stateMutability": "nonpayable",
      "type": "function"
    }
  ],
  "bytecode": "0x60806040523480156200001157600080fd5b5060405162005b3238038062005b32833981810160405281019062000037919062000262565b336000806101000a81548173ffffffffffffffffffffffffffffffffffffffff021916908373ffffffffffffffffffffffffffffffffffffffff16021790555086600e60006101000a81548173ffffffffffffffffffffffffffffffffffffffff021916908373ffffffffffffffffffffffffffffffffffffffff16021790555085600a60006101000a81548173ffffffffffffffffffffffffffffffffffffffff021916908373ffffffffffffffffffffffffffffffffffffffff16021790555084600f60006101000a81548173ffffffffffffffffffffffffffffffffffffffff021916908373ffffffffffffffffffffffffffffffffffffffff16021790555083601060006101000a81548173ffffffffffffffffffffffffffffffffffffffff021916908373ffffffffffffffffffffffffffffffffffffffff16021790555082601160006101000a81548173ffffffffffffffffffffffffffffffffffffffff021916908373ffffffffffffffffffffffffffffffffffffffff16021790555081601260006101000a81548173ffffffffffffffffffffffffffffffffffffffff021916908373ffffffffffffffffffffffffffffffffffffffff16021790555080601360006101000a81548173ffffffffffffffffffffffffffffffffffffffff021916908373ffffffffffffffffffffffffffffffffffffffff160217905550505050505050506200035d565b6000815190506200025c8162000343565b92915050565b600080600080600080600060e0888a0312156200027e57600080fd5b60006200028e8a828b016200024b565b9750506020620002a18a828b016200024b565b9650506040620002b48a828b016200024b565b9550506060620002c78a828b016200024b565b9450506080620002da8a828b016200024b565b93505060a0620002ed8a828b016200024b565b92505060c0620003008a828b016200024b565b91505092959891949750929550565b60006200031c8262000323565b9050919050565b600073ffffffffffffffffffffffffffffffffffffffff82169050919050565b6200034e816200030f565b81146200035a57600080fd5b50565b6157c5806200036d6000396000f3fe608060405234801561001057600080fd5b506004361061025d5760003560e01c8063732cd7ab11610146578063b36c9618116100c3578063e18d521e11610087578063e18d521e14610722578063ebb947ae1461073e578063f2fde38b1461076f578063f4ae20a71461078b578063fdeb15b1146107bb578063fe4b3a5f146107f25761025d565b8063b36c961814610680578063b69569421461069c578063c48f67ad146106b8578063cea1549f146106e8578063df33fa5e146107065761025d565b8063903b86f21161010a578063903b86f2146105c65780639cd16198146105fc578063a8bb8bfe14610618578063ac7a12d614610634578063b13ec05b146106505761025d565b8063732cd7ab14610508578063736c8c8d146105385780637bbfc69e146105545780638207efa71461058a5780638da5cb5b146105a85761025d565b806331787a6c116101df57806357f44450116101a357806357f444501461044c57806358646125146104685780635974609b146104985780635ce00679146104b457806366729a99146104d05780636cb7c890146104ec5761025d565b806331787a6c146103a557806339135ac5146103c15780633d4ddf26146103dd5780634e7fa612146103f957806356ec9124146104305761025d565b8063146bc04e11610226578063146bc04e146102f057806317dd196d1461030c5780631ea917cb1461033c578063264d0f5d1461036d5780633054fa7b146103895761025d565b80627d71771461026257806302746a80146102805780630491e1211461029c578063059866b9146102b85780630c5e04cc146102d4575b600080fd5b61026a61080e565b6040516102779190614db0565b60405180910390f35b61029a6004803603810190610295919061472a565b610838565b005b6102b660048036038101906102b191906143cc565b610a1e565b005b6102d260048036038101906102cd9190614935565b610beb565b005b6102ee60048036038101906102e99190614935565b610dcd565b005b61030a600480360381019061030591906142b5565b610faf565b005b610326600480360381019061032191906142b5565b611125565b6040516103339190615474565b60405180910390f35b610356600480360381019061035191906142b5565b61116e565b604051610364929190615518565b60405180910390f35b6103876004803603810190610382919061431a565b6111ed565b005b6103a3600480360381019061039e9190614a9b565b6113bd565b005b6103bf60048036038101906103ba9190614a10565b611522565b005b6103db60048036038101906103d691906144e2565b6116f2565b005b6103f760048036038101906103f29190614632565b6118db565b005b610413600480360381019061040e91906149e7565b611ac6565b604051610427989796959493929190614dcb565b60405180910390f35b61044a60048036038101906104459190614580565b611cc7565b005b610466600480360381019061046191906149e7565b611ea9565b005b610482600480360381019061047d91906142b5565b611f51565b60405161048f9190615474565b60405180910390f35b6104b260048036038101906104ad9190614851565b611f9d565b005b6104ce60048036038101906104c99190614a10565b612185565b005b6104ea60048036038101906104e59190614a4c565b6122e7565b005b610506600480360381019061050191906147b3565b6124d3565b005b610522600480360381019061051d91906142b5565b6126b2565b60405161052f9190615432565b60405180910390f35b610552600480360381019061054d91906147b3565b61287e565b005b61056e600480360381019061056991906144a6565b612a5d565b6040516105819796959493929190615023565b60405180910390f35b610592612c41565b60405161059f9190615474565b60405180910390f35b6105b0612c4e565b6040516105bd9190614db0565b60405180910390f35b6105e060048036038101906105db91906149e7565b612c73565b6040516105f39796959493929190614e49565b60405180910390f35b61061660048036038101906106119190614a10565b612e61565b005b610632600480360381019061062d919061446a565b613031565b005b61064e600480360381019061064991906142b5565b6131eb565b005b61066a600480360381019061066591906142de565b613361565b6040516106779190615474565b60405180910390f35b61069a60048036038101906106959190614a10565b6133e8565b005b6106b660048036038101906106b191906142b5565b61354a565b005b6106d260048036038101906106cd91906142b5565b613701565b6040516106df9190615474565b60405180910390f35b6106f061374d565b6040516106fd9190615474565b60405180910390f35b610720600480360381019061071b91906142b5565b61375a565b005b61073c60048036038101906107379190614a9b565b61384c565b005b610758600480360381019061075391906142de565b6139b1565b604051610766929190615518565b60405180910390f35b610789600480360381019061078491906142b5565b613a6f565b005b6107a560048036038101906107a091906142b5565b613b76565b6040516107b29190615474565b60405180910390f35b6107d560048036038101906107d091906144a6565b613bbf565b6040516107e9989796959493929190614f36565b60405180910390f35b61080c600480360381019061080791906147b3565b613db7565b005b6000600e60009054906101000a900473ffffffffffffffffffffffffffffffffffffffff16905090565b6000600e60149054906101000a900460ff1660ff161461085757600080fd5b6001600e60146101000a81548160ff021916908360ff1602179055506000601060009054906101000a900473ffffffffffffffffffffffffffffffffffffffff1673ffffffffffffffffffffffffffffffffffffffff168787878787876040516024016108c99695949392919061524d565b6040516020818303038152906040527f02746a80000000000000000000000000000000000000000000000000000000007bffffffffffffffffffffffffffffffffffffffffffffffffffffffff19166020820180517bffffffffffffffffffffffffffffffffffffffffffffffffffffffff83818316178352505050506040516109539190614d99565b600060405180830381855af49150503d806000811461098e576040519150601f19603f3d011682016040523d82523d6000602084013e610993565b606091505b50509050806109a157600080fd5b8673ffffffffffffffffffffffffffffffffffffffff167fd8e9689dbd751fc6853ff9585bd1f481b050f4ad6aa12888c5cdeb4acd367edd876001600c80549050036040516109f1929190615541565b60405180910390a2506000600e60146101000a81548160ff021916908360ff160217905550505050505050565b6000600f60009054906101000a900473ffffffffffffffffffffffffffffffffffffffff1673ffffffffffffffffffffffffffffffffffffffff1688888888888888604051602401610a769796959493929190614fb4565b6040516020818303038152906040527f0491e121000000000000000000000000000000000000000000000000000000007bffffffffffffffffffffffffffffffffffffffffffffffffffffffff19166020820180517bffffffffffffffffffffffffffffffffffffffffffffffffffffffff8381831617835250505050604051610b009190614d99565b600060405180830381855af49150503d8060008114610b3b576040519150601f19603f3d011682016040523d82523d6000602084013e610b40565b606091505b5050905080610b4e57600080fd5b3373ffffffffffffffffffffffffffffffffffffffff167f25ff1e0131762176a9084e92880f880f39d6d0e62134607f37e631efe1bad8716001600860003373ffffffffffffffffffffffffffffffffffffffff1673ffffffffffffffffffffffffffffffffffffffff1681526020019081526020016000208054905003604051610bd99190615474565b60405180910390a25050505050505050565b6000600e60149054906101000a900460ff1660ff1614610c0a57600080fd5b6001600e60146101000a81548160ff021916908360ff1602179055506000601260009054906101000a900473ffffffffffffffffffffffffffffffffffffffff1673ffffffffffffffffffffffffffffffffffffffff168989898989898989604051602401610c809897969594939291906153b4565b6040516020818303038152906040527f059866b9000000000000000000000000000000000000000000000000000000007bffffffffffffffffffffffffffffffffffffffffffffffffffffffff19166020820180517bffffffffffffffffffffffffffffffffffffffffffffffffffffffff8381831617835250505050604051610d0a9190614d99565b600060405180830381855af49150503d8060008114610d45576040519150601f19603f3d011682016040523d82523d6000602084013e610d4a565b606091505b5050905080610d5857600080fd5b8873ffffffffffffffffffffffffffffffffffffffff167f4b278f8b22a50035f7070bdcd0d32329fad70669b123fb578e12c7837b752cf289604051610d9e9190615474565b60405180910390a2506000600e60146101000a81548160ff021916908360ff1602179055505050505050505050565b6000600e60149054906101000a900460ff1660ff1614610dec57600080fd5b6001600e60146101000a81548160ff021916908360ff1602179055506000601260009054906101000a900473ffffffffffffffffffffffffffffffffffffffff1673ffffffffffffffffffffffffffffffffffffffff168989898989898989604051602401610e629897969594939291906153b4565b6040516020818303038152906040527f0c5e04cc000000000000000000000000000000000000000000000000000000007bffffffffffffffffffffffffffffffffffffffffffffffffffffffff19166020820180517bffffffffffffffffffffffffffffffffffffffffffffffffffffffff8381831617835250505050604051610eec9190614d99565b600060405180830381855af49150503d8060008114610f27576040519150601f19603f3d011682016040523d82523d6000602084013e610f2c565b606091505b5050905080610f3a57600080fd5b8873ffffffffffffffffffffffffffffffffffffffff167f4b278f8b22a50035f7070bdcd0d32329fad70669b123fb578e12c7837b752cf289604051610f809190615474565b60405180910390a2506000600e60146101000a81548160ff021916908360ff1602179055505050505050505050565b6000601360009054906101000a900473ffffffffffffffffffffffffffffffffffffffff1673ffffffffffffffffffffffffffffffffffffffff1682604051602401610ffb9190614db0565b6040516020818303038152906040527f146bc04e000000000000000000000000000000000000000000000000000000007bffffffffffffffffffffffffffffffffffffffffffffffffffffffff19166020820180517bffffffffffffffffffffffffffffffffffffffffffffffffffffffff83818316178352505050506040516110859190614d99565b600060405180830381855af49150503d80600081146110c0576040519150601f19603f3d011682016040523d82523d6000602084013e6110c5565b606091505b50509050806110d357600080fd5b3373ffffffffffffffffffffffffffffffffffffffff167f041641a94f4ebcec36d6e171750f2daf856597799eacb6e06c9f2270701db524836040516111199190614db0565b60405180910390a25050565b6000600660008373ffffffffffffffffffffffffffffffffffffffff1673ffffffffffffffffffffffffffffffffffffffff168152602001908152602001600020549050919050565b600080611179613f96565b600460008573ffffffffffffffffffffffffffffffffffffffff1673ffffffffffffffffffffffffffffffffffffffff168152602001908152602001600020604051806040016040529081600082015481526020016001820154815250509050806000015192508060200151915050915091565b6000601160009054906101000a900473ffffffffffffffffffffffffffffffffffffffff1673ffffffffffffffffffffffffffffffffffffffff168989898989898989604051602401611247989796959493929190614eb8565b6040516020818303038152906040527f264d0f5d000000000000000000000000000000000000000000000000000000007bffffffffffffffffffffffffffffffffffffffffffffffffffffffff19166020820180517bffffffffffffffffffffffffffffffffffffffffffffffffffffffff83818316178352505050506040516112d19190614d99565b600060405180830381855af49150503d806000811461130c576040519150601f19603f3d011682016040523d82523d6000602084013e611311565b606091505b505090508061131f57600080fd5b3373ffffffffffffffffffffffffffffffffffffffff167ffd99950557184e2a4c0407202003e2245da97914ed918f04654000637fa5cc7b6001600960003373ffffffffffffffffffffffffffffffffffffffff1673ffffffffffffffffffffffffffffffffffffffff16815260200190815260200160002080549050036040516113aa9190615474565b60405180910390a2505050505050505050565b6000601060009054906101000a900473ffffffffffffffffffffffffffffffffffffffff1673ffffffffffffffffffffffffffffffffffffffff1684848460405160240161140d9392919061556a565b6040516020818303038152906040527f3054fa7b000000000000000000000000000000000000000000000000000000007bffffffffffffffffffffffffffffffffffffffffffffffffffffffff19166020820180517bffffffffffffffffffffffffffffffffffffffffffffffffffffffff83818316178352505050506040516114979190614d99565b600060405180830381855af49150503d80600081146114d2576040519150601f19603f3d011682016040523d82523d6000602084013e6114d7565b606091505b50509050806114e557600080fd5b7f99c5cf14a28dc3fc51734434de554c369d607b32de4c05cd1ef1f85bf6741416846040516115149190615474565b60405180910390a150505050565b6000600e60149054906101000a900460ff1660ff161461154157600080fd5b6001600e60146101000a81548160ff021916908360ff1602179055506000601160009054906101000a900473ffffffffffffffffffffffffffffffffffffffff1673ffffffffffffffffffffffffffffffffffffffff1683836040516024016115ab92919061548f565b6040516020818303038152906040527f31787a6c000000000000000000000000000000000000000000000000000000007bffffffffffffffffffffffffffffffffffffffffffffffffffffffff19166020820180517bffffffffffffffffffffffffffffffffffffffffffffffffffffffff83818316178352505050506040516116359190614d99565b600060405180830381855af49150503d8060008114611670576040519150601f19603f3d011682016040523d82523d6000602084013e611675565b606091505b505090508061168357600080fd5b3373ffffffffffffffffffffffffffffffffffffffff167fbd2705185f581bb911299c1f0252572ed156662996646de7c7861250131a8318846040516116c99190615474565b60405180910390a2506000600e60146101000a81548160ff021916908360ff1602179055505050565b6000600e60149054906101000a900460ff1660ff161461171157600080fd5b6001600e60146101000a81548160ff021916908360ff1602179055506000601260009054906101000a900473ffffffffffffffffffffffffffffffffffffffff1673ffffffffffffffffffffffffffffffffffffffff168888888888888860405160240161178597969594939291906150bb565b6040516020818303038152906040527f39135ac5000000000000000000000000000000000000000000000000000000007bffffffffffffffffffffffffffffffffffffffffffffffffffffffff19166020820180517bffffffffffffffffffffffffffffffffffffffffffffffffffffffff838183161783525050505060405161180f9190614d99565b600060405180830381855af49150503d806000811461184a576040519150601f19603f3d011682016040523d82523d6000602084013e61184f565b606091505b505090508061185d57600080fd5b8773ffffffffffffffffffffffffffffffffffffffff167f73608f075e983236534f83a06e9c05b74977a77187c7caac55dac056c843ddb2886001600d80549050036040516118ad929190615541565b60405180910390a2506000600e60146101000a81548160ff021916908360ff16021790555050505050505050565b6000600e60149054906101000a900460ff1660ff16146118fa57600080fd5b6001600e60146101000a81548160ff021916908360ff1602179055506000601160009054906101000a900473ffffffffffffffffffffffffffffffffffffffff1673ffffffffffffffffffffffffffffffffffffffff168c8c8c8c8c8c8c8c8c8c8c6040516024016119769b9a999897969594939291906151a8565b6040516020818303038152906040527f3d4ddf26000000000000000000000000000000000000000000000000000000007bffffffffffffffffffffffffffffffffffffffffffffffffffffffff19166020820180517bffffffffffffffffffffffffffffffffffffffffffffffffffffffff8381831617835250505050604051611a009190614d99565b600060405180830381855af49150503d8060008114611a3b576040519150601f19603f3d011682016040523d82523d6000602084013e611a40565b606091505b5050905080611a4e57600080fd5b8b73ffffffffffffffffffffffffffffffffffffffff167f393e2f0e75bc50e732c9ed954b742fb001f68fc98368883e740df801b281faf18c604051611a949190615474565b60405180910390a2506000600e60146101000a81548160ff021916908360ff1602179055505050505050505050505050565b600080600080600080600080611ada613fb0565b600d8a81548110611ae757fe5b9060005260206000209060080201604051806101000160405290816000820160009054906101000a900473ffffffffffffffffffffffffffffffffffffffff1673ffffffffffffffffffffffffffffffffffffffff1673ffffffffffffffffffffffffffffffffffffffff1681526020016001820160009054906101000a900473ffffffffffffffffffffffffffffffffffffffff1673ffffffffffffffffffffffffffffffffffffffff1673ffffffffffffffffffffffffffffffffffffffff1681526020016002820160009054906101000a900473ffffffffffffffffffffffffffffffffffffffff1673ffffffffffffffffffffffffffffffffffffffff1673ffffffffffffffffffffffffffffffffffffffff16815260200160038201548152602001600482015481526020016005820160009054906101000a900473ffffffffffffffffffffffffffffffffffffffff1673ffffffffffffffffffffffffffffffffffffffff1673ffffffffffffffffffffffffffffffffffffffff16815260200160068201548152602001600782015481525050905080600001519850806020015197508060400151965080606001519550806080015194508060a0015193508060c0015192508060e00151915050919395975091939597565b6000600e60149054906101000a900460ff1660ff1614611ce657600080fd5b6001600e60146101000a81548160ff021916908360ff1602179055506000601260009054906101000a900473ffffffffffffffffffffffffffffffffffffffff1673ffffffffffffffffffffffffffffffffffffffff168989898989898989604051602401611d5c98979695949392919061512a565b6040516020818303038152906040527f56ec9124000000000000000000000000000000000000000000000000000000007bffffffffffffffffffffffffffffffffffffffffffffffffffffffff19166020820180517bffffffffffffffffffffffffffffffffffffffffffffffffffffffff8381831617835250505050604051611de69190614d99565b600060405180830381855af49150503d8060008114611e21576040519150601f19603f3d011682016040523d82523d6000602084013e611e26565b606091505b5050905080611e3457600080fd5b8873ffffffffffffffffffffffffffffffffffffffff167f4b278f8b22a50035f7070bdcd0d32329fad70669b123fb578e12c7837b752cf289604051611e7a9190615474565b60405180910390a2506000600e60146101000a81548160ff021916908360ff1602179055505050505050505050565b6000809054906101000a900473ffffffffffffffffffffffffffffffffffffffff1673ffffffffffffffffffffffffffffffffffffffff163373ffffffffffffffffffffffffffffffffffffffff1614611f38576040517f08c379a0000000000000000000000000000000000000000000000000000000008152600401611f2f90615454565b60405180910390fd5b612710811115611f4757600080fd5b80600b8190555050565b6000600960008373ffffffffffffffffffffffffffffffffffffffff1673ffffffffffffffffffffffffffffffffffffffff168152602001908152602001600020805490509050919050565b6000600e60149054906101000a900460ff1660ff1614611fbc57600080fd5b6001600e60146101000a81548160ff021916908360ff1602179055506000600f60009054906101000a900473ffffffffffffffffffffffffffffffffffffffff1673ffffffffffffffffffffffffffffffffffffffff168b8b8b8b8b8b8b8b8b8b6040516024016120369a9998979695949392919061531d565b6040516020818303038152906040527f5974609b000000000000000000000000000000000000000000000000000000007bffffffffffffffffffffffffffffffffffffffffffffffffffffffff19166020820180517bffffffffffffffffffffffffffffffffffffffffffffffffffffffff83818316178352505050506040516120c09190614d99565b600060405180830381855af49150503d80600081146120fb576040519150601f19603f3d011682016040523d82523d6000602084013e612100565b606091505b505090508061210e57600080fd5b8a73ffffffffffffffffffffffffffffffffffffffff167f84017faedb600befba48219e8d75f8fae66829e3fc3a46485b579e65c125a4cb8b6040516121549190615474565b60405180910390a2506000600e60146101000a81548160ff021916908360ff16021790555050505050505050505050565b6000601260009054906101000a900473ffffffffffffffffffffffffffffffffffffffff1673ffffffffffffffffffffffffffffffffffffffff1683836040516024016121d392919061548f565b6040516020818303038152906040527f5ce00679000000000000000000000000000000000000000000000000000000007bffffffffffffffffffffffffffffffffffffffffffffffffffffffff19166020820180517bffffffffffffffffffffffffffffffffffffffffffffffffffffffff838183161783525050505060405161225d9190614d99565b600060405180830381855af49150503d8060008114612298576040519150601f19603f3d011682016040523d82523d6000602084013e61229d565b606091505b50509050806122ab57600080fd5b7fa3d8d4bbc501d1b40d30465ac449bc6c190d9c9313c12ef01339d4bbac1fc2e5836040516122da9190615474565b60405180910390a1505050565b6000600e60149054906101000a900460ff1660ff161461230657600080fd5b6001600e60146101000a81548160ff021916908360ff1602179055506000601360009054906101000a900473ffffffffffffffffffffffffffffffffffffffff1673ffffffffffffffffffffffffffffffffffffffff16848484604051602401612372939291906154b8565b6040516020818303038152906040527f66729a99000000000000000000000000000000000000000000000000000000007bffffffffffffffffffffffffffffffffffffffffffffffffffffffff19166020820180517bffffffffffffffffffffffffffffffffffffffffffffffffffffffff83818316178352505050506040516123fc9190614d99565b600060405180830381855af49150503d8060008114612437576040519150601f19603f3d011682016040523d82523d6000602084013e61243c565b606091505b505090508061244a57600080fd5b8273ffffffffffffffffffffffffffffffffffffffff163373ffffffffffffffffffffffffffffffffffffffff167fc90d7883bb103ecaf611e358baebbd934a2f6385f8930b01dfdd29637c1a832786856040516124a99291906154ef565b60405180910390a3506000600e60146101000a81548160ff021916908360ff160217905550505050565b6000600e60149054906101000a900460ff1660ff16146124f257600080fd5b6001600e60146101000a81548160ff021916908360ff1602179055506000601060009054906101000a900473ffffffffffffffffffffffffffffffffffffffff1673ffffffffffffffffffffffffffffffffffffffff168888888888888860405160240161256697969594939291906152ae565b6040516020818303038152906040527f6cb7c890000000000000000000000000000000000000000000000000000000007bffffffffffffffffffffffffffffffffffffffffffffffffffffffff19166020820180517bffffffffffffffffffffffffffffffffffffffffffffffffffffffff83818316178352505050506040516125f09190614d99565b600060405180830381855af49150503d806000811461262b576040519150601f19603f3d011682016040523d82523d6000602084013e612630565b606091505b505090508061263e57600080fd5b8773ffffffffffffffffffffffffffffffffffffffff167f30e4bee63a66010c80a967a41ba2ab42c5f7f4626acf3c5fe4a5a4a92422392d886040516126849190615474565b60405180910390a2506000600e60146101000a81548160ff021916908360ff16021790555050505050505050565b6060600860008373ffffffffffffffffffffffffffffffffffffffff1673ffffffffffffffffffffffffffffffffffffffff168152602001908152602001600020805480602002602001604051908101604052809291908181526020016000905b8282101561287357838290600052602060002090600602016040518060e00160405290816000820160009054906101000a900473ffffffffffffffffffffffffffffffffffffffff1673ffffffffffffffffffffffffffffffffffffffff1673ffffffffffffffffffffffffffffffffffffffff1681526020016001820160009054906101000a900473ffffffffffffffffffffffffffffffffffffffff1673ffffffffffffffffffffffffffffffffffffffff1673ffffffffffffffffffffffffffffffffffffffff1681526020016002820154815260200160038201548152602001600482015481526020016005820160009054906101000a900467ffffffffffffffff1667ffffffffffffffff1667ffffffffffffffff1681526020016005820160089054906101000a900467ffffffffffffffff1667ffffffffffffffff1667ffffffffffffffff168152505081526020019060010190612713565b505050509050919050565b6000600e60149054906101000a900460ff1660ff161461289d57600080fd5b6001600e60146101000a81548160ff021916908360ff1602179055506000601060009054906101000a900473ffffffffffffffffffffffffffffffffffffffff1673ffffffffffffffffffffffffffffffffffffffff168888888888888860405160240161291197969594939291906152ae565b6040516020818303038152906040527f736c8c8d000000000000000000000000000000000000000000000000000000007bffffffffffffffffffffffffffffffffffffffffffffffffffffffff19166020820180517bffffffffffffffffffffffffffffffffffffffffffffffffffffffff838183161783525050505060405161299b9190614d99565b600060405180830381855af49150503d80600081146129d6576040519150601f19603f3d011682016040523d82523d6000602084013e6129db565b606091505b50509050806129e957600080fd5b8773ffffffffffffffffffffffffffffffffffffffff167f30e4bee63a66010c80a967a41ba2ab42c5f7f4626acf3c5fe4a5a4a92422392d88604051612a2f9190615474565b60405180910390a2506000600e60146101000a81548160ff021916908360ff16021790555050505050505050565b6000806000806000806000612a7061404d565b600860008b73ffffffffffffffffffffffffffffffffffffffff1673ffffffffffffffffffffffffffffffffffffffff1681526020019081526020016000208981548110612aba57fe5b90600052602060002090600602016040518060e00160405290816000820160009054906101000a900473ffffffffffffffffffffffffffffffffffffffff1673ffffffffffffffffffffffffffffffffffffffff1673ffffffffffffffffffffffffffffffffffffffff1681526020016001820160009054906101000a900473ffffffffffffffffffffffffffffffffffffffff1673ffffffffffffffffffffffffffffffffffffffff1673ffffffffffffffffffffffffffffffffffffffff1681526020016002820154815260200160038201548152602001600482015481526020016005820160009054906101000a900467ffffffffffffffff1667ffffffffffffffff1667ffffffffffffffff1681526020016005820160089054906101000a900467ffffffffffffffff1667ffffffffffffffff1667ffffffffffffffff1681525050905080600001519750806020015196508060400151955080606001519450806080015193508060a0015192508060c0015191505092959891949750929550565b6000600d80549050905090565b6000809054906101000a900473ffffffffffffffffffffffffffffffffffffffff1681565b6000806000806000806000612c866140ca565b600c8981548110612c9357fe5b90600052602060002090600702016040518060e00160405290816000820160009054906101000a900473ffffffffffffffffffffffffffffffffffffffff1673ffffffffffffffffffffffffffffffffffffffff1673ffffffffffffffffffffffffffffffffffffffff1681526020016001820160009054906101000a900473ffffffffffffffffffffffffffffffffffffffff1673ffffffffffffffffffffffffffffffffffffffff1673ffffffffffffffffffffffffffffffffffffffff1681526020016002820160009054906101000a900473ffffffffffffffffffffffffffffffffffffffff1673ffffffffffffffffffffffffffffffffffffffff1673ffffffffffffffffffffffffffffffffffffffff168152602001600382015481526020016004820160009054906101000a900473ffffffffffffffffffffffffffffffffffffffff1673ffffffffffffffffffffffffffffffffffffffff1673ffffffffffffffffffffffffffffffffffffffff16815260200160058201548152602001600682015481525050905080600001519750806020015196508060400151955080606001519450806080015193508060a0015192508060c00151915050919395979092949650565b6000600e60149054906101000a900460ff1660ff1614612e8057600080fd5b6001600e60146101000a81548160ff021916908360ff1602179055506000600f60009054906101000a900473ffffffffffffffffffffffffffffffffffffffff1673ffffffffffffffffffffffffffffffffffffffff168383604051602401612eea92919061548f565b6040516020818303038152906040527f9cd16198000000000000000000000000000000000000000000000000000000007bffffffffffffffffffffffffffffffffffffffffffffffffffffffff19166020820180517bffffffffffffffffffffffffffffffffffffffffffffffffffffffff8381831617835250505050604051612f749190614d99565b600060405180830381855af49150503d8060008114612faf576040519150601f19603f3d011682016040523d82523d6000602084013e612fb4565b606091505b5050905080612fc257600080fd5b3373ffffffffffffffffffffffffffffffffffffffff167fc80e6b1821ce73fc1debe9f8a3f19a1d6b8d447fc5f40b18aca4b711d286a3e6846040516130089190615474565b60405180910390a2506000600e60146101000a81548160ff021916908360ff1602179055505050565b6000809054906101000a900473ffffffffffffffffffffffffffffffffffffffff1673ffffffffffffffffffffffffffffffffffffffff163373ffffffffffffffffffffffffffffffffffffffff16146130c0576040517f08c379a00000000000000000000000000000000000000000000000000000000081526004016130b790615454565b60405180910390fd5b6000601360009054906101000a900473ffffffffffffffffffffffffffffffffffffffff1673ffffffffffffffffffffffffffffffffffffffff16838360405160240161310e929190615092565b6040516020818303038152906040527fa8bb8bfe000000000000000000000000000000000000000000000000000000007bffffffffffffffffffffffffffffffffffffffffffffffffffffffff19166020820180517bffffffffffffffffffffffffffffffffffffffffffffffffffffffff83818316178352505050506040516131989190614d99565b600060405180830381855af49150503d80600081146131d3576040519150601f19603f3d011682016040523d82523d6000602084013e6131d8565b606091505b50509050806131e657600080fd5b505050565b6000601360009054906101000a900473ffffffffffffffffffffffffffffffffffffffff1673ffffffffffffffffffffffffffffffffffffffff16826040516024016132379190614db0565b6040516020818303038152906040527fac7a12d6000000000000000000000000000000000000000000000000000000007bffffffffffffffffffffffffffffffffffffffffffffffffffffffff19166020820180517bffffffffffffffffffffffffffffffffffffffffffffffffffffffff83818316178352505050506040516132c19190614d99565b600060405180830381855af49150503d80600081146132fc576040519150601f19603f3d011682016040523d82523d6000602084013e613301565b606091505b505090508061330f57600080fd5b3373ffffffffffffffffffffffffffffffffffffffff167f6a3553f4792fc817e600eb76c632f817a7ee1ae7e1230f7f2939f542415662ed836040516133559190614db0565b60405180910390a25050565b6000600260008473ffffffffffffffffffffffffffffffffffffffff1673ffffffffffffffffffffffffffffffffffffffff16815260200190815260200160002060008373ffffffffffffffffffffffffffffffffffffffff1673ffffffffffffffffffffffffffffffffffffffff16815260200190815260200160002054905092915050565b6000601060009054906101000a900473ffffffffffffffffffffffffffffffffffffffff1673ffffffffffffffffffffffffffffffffffffffff16838360405160240161343692919061548f565b6040516020818303038152906040527fb36c9618000000000000000000000000000000000000000000000000000000007bffffffffffffffffffffffffffffffffffffffffffffffffffffffff19166020820180517bffffffffffffffffffffffffffffffffffffffffffffffffffffffff83818316178352505050506040516134c09190614d99565b600060405180830381855af49150503d80600081146134fb576040519150601f19603f3d011682016040523d82523d6000602084013e613500565b606091505b505090508061350e57600080fd5b7fce0306296409fb2dee7046b646fd5c1fe821aa8590aaae4ce843299193bafc618360405161353d9190615474565b60405180910390a1505050565b6000809054906101000a900473ffffffffffffffffffffffffffffffffffffffff1673ffffffffffffffffffffffffffffffffffffffff163373ffffffffffffffffffffffffffffffffffffffff16146135d9576040517f08c379a00000000000000000000000000000000000000000000000000000000081526004016135d090615454565b60405180910390fd5b6000601360009054906101000a900473ffffffffffffffffffffffffffffffffffffffff1673ffffffffffffffffffffffffffffffffffffffff16826040516024016136259190614db0565b6040516020818303038152906040527fb6956942000000000000000000000000000000000000000000000000000000007bffffffffffffffffffffffffffffffffffffffffffffffffffffffff19166020820180517bffffffffffffffffffffffffffffffffffffffffffffffffffffffff83818316178352505050506040516136af9190614d99565b600060405180830381855af49150503d80600081146136ea576040519150601f19603f3d011682016040523d82523d6000602084013e6136ef565b606091505b50509050806136fd57600080fd5b5050565b6000600860008373ffffffffffffffffffffffffffffffffffffffff1673ffffffffffffffffffffffffffffffffffffffff168152602001908152602001600020805490509050919050565b6000600c80549050905090565b6000809054906101000a900473ffffffffffffffffffffffffffffffffffffffff1673ffffffffffffffffffffffffffffffffffffffff163373ffffffffffffffffffffffffffffffffffffffff16146137e9576040517f08c379a00000000000000000000000000000000000000000000000000000000081526004016137e090615454565b60405180910390fd5b8073ffffffffffffffffffffffffffffffffffffffff1663dd2822636040518163ffffffff1660e01b8152600401600060405180830381600087803b15801561383157600080fd5b505af1158015613845573d6000803e3d6000fd5b5050505050565b6000601260009054906101000a900473ffffffffffffffffffffffffffffffffffffffff1673ffffffffffffffffffffffffffffffffffffffff1684848460405160240161389c9392919061556a565b6040516020818303038152906040527fe18d521e000000000000000000000000000000000000000000000000000000007bffffffffffffffffffffffffffffffffffffffffffffffffffffffff19166020820180517bffffffffffffffffffffffffffffffffffffffffffffffffffffffff83818316178352505050506040516139269190614d99565b600060405180830381855af49150503d8060008114613961576040519150601f19603f3d011682016040523d82523d6000602084013e613966565b606091505b505090508061397457600080fd5b7f16830ff28f75512cff8d5d442ba749b72d9b05ad86718f6feb8201f7e109ca58846040516139a39190615474565b60405180910390a150505050565b6000806139bc613f96565b600360008673ffffffffffffffffffffffffffffffffffffffff1673ffffffffffffffffffffffffffffffffffffffff16815260200190815260200160002060008573ffffffffffffffffffffffffffffffffffffffff1673ffffffffffffffffffffffffffffffffffffffff1681526020019081526020016000206040518060400160405290816000820154815260200160018201548152505090508060000151925080602001519150509250929050565b6000809054906101000a900473ffffffffffffffffffffffffffffffffffffffff1673ffffffffffffffffffffffffffffffffffffffff163373ffffffffffffffffffffffffffffffffffffffff1614613afe576040517f08c379a0000000000000000000000000000000000000000000000000000000008152600401613af590615454565b60405180910390fd5b600073ffffffffffffffffffffffffffffffffffffffff168173ffffffffffffffffffffffffffffffffffffffff1614613b7357806000806101000a81548173ffffffffffffffffffffffffffffffffffffffff021916908373ffffffffffffffffffffffffffffffffffffffff1602179055505b50565b6000600160008373ffffffffffffffffffffffffffffffffffffffff1673ffffffffffffffffffffffffffffffffffffffff168152602001908152602001600020549050919050565b600080600080600080600080613bd361415f565b600960008c73ffffffffffffffffffffffffffffffffffffffff1673ffffffffffffffffffffffffffffffffffffffff1681526020019081526020016000208a81548110613c1d57fe5b9060005260206000209060070201604051806101000160405290816000820160009054906101000a900473ffffffffffffffffffffffffffffffffffffffff1673ffffffffffffffffffffffffffffffffffffffff1673ffffffffffffffffffffffffffffffffffffffff1681526020016001820160009054906101000a900473ffffffffffffffffffffffffffffffffffffffff1673ffffffffffffffffffffffffffffffffffffffff1673ffffffffffffffffffffffffffffffffffffffff168152602001600282015481526020016003820154815260200160048201548152602001600582015481526020016006820160009054906101000a900467ffffffffffffffff1667ffffffffffffffff1667ffffffffffffffff1681526020016006820160089054906101000a900467ffffffffffffffff1667ffffffffffffffff1667ffffffffffffffff1681525050905080600001519850806020015197508060400151965080606001519550806080015194508060a0015193508060c0015192508060e001519150509295985092959890939650565b6000600e60149054906101000a900460ff1660ff1614613dd657600080fd5b6001600e60146101000a81548160ff021916908360ff1602179055506000601060009054906101000a900473ffffffffffffffffffffffffffffffffffffffff1673ffffffffffffffffffffffffffffffffffffffff1688888888888888604051602401613e4a97969594939291906152ae565b6040516020818303038152906040527ffe4b3a5f000000000000000000000000000000000000000000000000000000007bffffffffffffffffffffffffffffffffffffffffffffffffffffffff19166020820180517bffffffffffffffffffffffffffffffffffffffffffffffffffffffff8381831617835250505050604051613ed49190614d99565b600060405180830381855af49150503d8060008114613f0f576040519150601f19603f3d011682016040523d82523d6000602084013e613f14565b606091505b5050905080613f2257600080fd5b8773ffffffffffffffffffffffffffffffffffffffff167f30e4bee63a66010c80a967a41ba2ab42c5f7f4626acf3c5fe4a5a4a92422392d88604051613f689190615474565b60405180910390a2506000600e60146101000a81548160ff021916908360ff16021790555050505050505050565b604051806040016040528060008152602001600081525090565b604051806101000160405280600073ffffffffffffffffffffffffffffffffffffffff168152602001600073ffffffffffffffffffffffffffffffffffffffff168152602001600073ffffffffffffffffffffffffffffffffffffffff1681526020016000815260200160008152602001600073ffffffffffffffffffffffffffffffffffffffff16815260200160008152602001600081525090565b6040518060e00160405280600073ffffffffffffffffffffffffffffffffffffffff168152602001600073ffffffffffffffffffffffffffffffffffffffff168152602001600081526020016000815260200160008152602001600067ffffffffffffffff168152602001600067ffffffffffffffff1681525090565b6040518060e00160405280600073ffffffffffffffffffffffffffffffffffffffff168152602001600073ffffffffffffffffffffffffffffffffffffffff168152602001600073ffffffffffffffffffffffffffffffffffffffff16815260200160008152602001600073ffffffffffffffffffffffffffffffffffffffff16815260200160008152602001600081525090565b604051806101000160405280600073ffffffffffffffffffffffffffffffffffffffff168152602001600073ffffffffffffffffffffffffffffffffffffffff16815260200160008152602001600081526020016000815260200160008152602001600067ffffffffffffffff168152602001600067ffffffffffffffff1681525090565b6000813590506141f38161571c565b92915050565b60008190508260206003028201111561421157600080fd5b92915050565b60008135905061422681615733565b92915050565b60008083601f84011261423e57600080fd5b8235905067ffffffffffffffff81111561425757600080fd5b60208301915083600182028301111561426f57600080fd5b9250929050565b6000813590506142858161574a565b92915050565b60008135905061429a81615761565b92915050565b6000813590506142af81615778565b92915050565b6000602082840312156142c757600080fd5b60006142d5848285016141e4565b91505092915050565b600080604083850312156142f157600080fd5b60006142ff858286016141e4565b9250506020614310858286016141e4565b9150509250929050565b600080600080600080600080610100898b03121561433757600080fd5b60006143458b828c016141e4565b98505060206143568b828c016141e4565b97505060406143678b828c016142a0565b96505060606143788b828c0161428b565b95505060806143898b828c016142a0565b94505060a061439a8b828c016142a0565b93505060c06143ab8b828c01614276565b92505060e06143bc8b828c01614276565b9150509295985092959890939650565b600080600080600080600060e0888a0312156143e757600080fd5b60006143f58a828b016141e4565b97505060206144068a828b016141e4565b96505060406144178a828b016142a0565b95505060606144288a828b016142a0565b94505060806144398a828b016142a0565b93505060a061444a8a828b01614276565b92505060c061445b8a828b01614276565b91505092959891949750929550565b6000806040838503121561447d57600080fd5b600061448b858286016141e4565b925050602061449c8582860161428b565b9150509250929050565b600080604083850312156144b957600080fd5b60006144c7858286016141e4565b92505060206144d8858286016142a0565b9150509250929050565b600080600080600080600060e0888a0312156144fd57600080fd5b600061450b8a828b016141e4565b975050602061451c8a828b016142a0565b965050604061452d8a828b016141e4565b955050606061453e8a828b016141e4565b945050608061454f8a828b016142a0565b93505060a06145608a828b0161428b565b92505060c06145718a828b016142a0565b91505092959891949750929550565b600080600080600080600080610100898b03121561459d57600080fd5b60006145ab8b828c016141e4565b98505060206145bc8b828c016142a0565b97505060406145cd8b828c016141e4565b96505060606145de8b828c016141e4565b95505060806145ef8b828c016142a0565b94505060a06146008b828c0161428b565b93505060c06146118b828c016142a0565b92505060e06146228b828c016141e4565b9150509295985092959890939650565b60008060008060008060008060008060006101808c8e03121561465457600080fd5b60006146628e828f016141e4565b9b505060206146738e828f016142a0565b9a505060406146848e828f016141e4565b99505060606146958e828f016141e4565b98505060806146a68e828f016142a0565b97505060a06146b78e828f0161428b565b96505060c06146c88e828f016142a0565b95505060e06146d98e828f016141f9565b9450506101408c013567ffffffffffffffff8111156146f757600080fd5b6147038e828f0161422c565b93509350506101606147178e828f016141e4565b9150509295989b509295989b9093969950565b60008060008060008060c0878903121561474357600080fd5b600061475189828a016141e4565b965050602061476289828a016142a0565b955050604061477389828a016141e4565b945050606061478489828a016141e4565b935050608061479589828a016142a0565b92505060a06147a689828a016142a0565b9150509295509295509295565b600080600080600080600060e0888a0312156147ce57600080fd5b60006147dc8a828b016141e4565b97505060206147ed8a828b016142a0565b96505060406147fe8a828b016141e4565b955050606061480f8a828b016141e4565b94505060806148208a828b016142a0565b93505060a06148318a828b016142a0565b92505060c06148428a828b016141e4565b91505092959891949750929550565b6000806000806000806000806000806101608b8d03121561487157600080fd5b600061487f8d828e016141e4565b9a505060206148908d828e016142a0565b99505060406148a18d828e016141e4565b98505060606148b28d828e016141e4565b97505060806148c38d828e016142a0565b96505060a06148d48d828e016142a0565b95505060c06148e58d828e016141f9565b9450506101208b013567ffffffffffffffff81111561490357600080fd5b61490f8d828e0161422c565b93509350506101406149238d828e016141e4565b9150509295989b9194979a5092959850565b600080600080600080600080610100898b03121561495257600080fd5b60006149608b828c016141e4565b98505060206149718b828c016142a0565b97505060406149828b828c016141e4565b96505060606149938b828c016141e4565b95505060806149a48b828c016142a0565b94505060a06149b58b828c016142a0565b93505060c06149c68b828c0161428b565b92505060e06149d78b828c016141e4565b9150509295985092959890939650565b6000602082840312156149f957600080fd5b6000614a07848285016142a0565b91505092915050565b60008060408385031215614a2357600080fd5b6000614a31858286016142a0565b9250506020614a42858286016141e4565b9150509250929050565b600080600060608486031215614a6157600080fd5b6000614a6f868287016142a0565b9350506020614a80868287016141e4565b9250506040614a9186828701614217565b9150509250925092565b600080600060608486031215614ab057600080fd5b6000614abe868287016142a0565b9350506020614acf868287016142a0565b9250506040614ae0868287016142a0565b9150509250925092565b6000614af68383614c62565b60208301905092915050565b6000614b0e8383614ccf565b60e08301905092915050565b614b2381615656565b82525050565b614b3281615656565b82525050565b614b41816155bb565b614b4b81846155f6565b9250614b56826155a1565b8060005b83811015614b8f57614b6c828461563f565b614b768782614aea565b9650614b81836155dc565b925050600181019050614b5a565b505050505050565b6000614ba2826155c6565b614bac8185615601565b9350614bb7836155ab565b8060005b83811015614be8578151614bcf8882614b02565b9750614bda836155e9565b925050600181019050614bbb565b5085935050505092915050565b614bfe81615668565b82525050565b6000614c108385615612565b9350614c1d8385846156c9565b614c268361570b565b840190509392505050565b6000614c3c826155d1565b614c468185615623565b9350614c568185602086016156d8565b80840191505092915050565b614c6b81615674565b82525050565b614c7a81615674565b82525050565b614c8981615681565b82525050565b6000614c9c600a8361562e565b91507f6f6e6c79206f776e6572000000000000000000000000000000000000000000006000830152602082019050919050565b60e082016000820151614ce56000850182614b1a565b506020820151614cf86020850182614b1a565b506040820151614d0b6040850182614d5d565b506060820151614d1e6060850182614d5d565b506080820151614d316080850182614d5d565b5060a0820151614d4460a0850182614d7b565b5060c0820151614d5760c0850182614d7b565b50505050565b614d66816156ab565b82525050565b614d75816156ab565b82525050565b614d84816156b5565b82525050565b614d93816156b5565b82525050565b6000614da58284614c31565b915081905092915050565b6000602082019050614dc56000830184614b29565b92915050565b600061010082019050614de1600083018b614b29565b614dee602083018a614b29565b614dfb6040830189614b29565b614e086060830188614c80565b614e156080830187614d6c565b614e2260a0830186614b29565b614e2f60c0830185614d6c565b614e3c60e0830184614d6c565b9998505050505050505050565b600060e082019050614e5e600083018a614b29565b614e6b6020830189614b29565b614e786040830188614b29565b614e856060830187614d6c565b614e926080830186614b29565b614e9f60a0830185614d6c565b614eac60c0830184614d6c565b98975050505050505050565b600061010082019050614ece600083018b614b29565b614edb602083018a614b29565b614ee86040830189614d6c565b614ef56060830188614c80565b614f026080830187614d6c565b614f0f60a0830186614d6c565b614f1c60c0830185614c71565b614f2960e0830184614c71565b9998505050505050505050565b600061010082019050614f4c600083018b614b29565b614f59602083018a614b29565b614f666040830189614d6c565b614f736060830188614c80565b614f806080830187614d6c565b614f8d60a0830186614d6c565b614f9a60c0830185614d8a565b614fa760e0830184614d8a565b9998505050505050505050565b600060e082019050614fc9600083018a614b29565b614fd66020830189614b29565b614fe36040830188614d6c565b614ff06060830187614d6c565b614ffd6080830186614d6c565b61500a60a0830185614c71565b61501760c0830184614c71565b98975050505050505050565b600060e082019050615038600083018a614b29565b6150456020830189614b29565b6150526040830188614d6c565b61505f6060830187614d6c565b61506c6080830186614d6c565b61507960a0830185614d8a565b61508660c0830184614d8a565b98975050505050505050565b60006040820190506150a76000830185614b29565b6150b46020830184614c80565b9392505050565b600060e0820190506150d0600083018a614b29565b6150dd6020830189614d6c565b6150ea6040830188614b29565b6150f76060830187614b29565b6151046080830186614d6c565b61511160a0830185614c80565b61511e60c0830184614d6c565b98975050505050505050565b600061010082019050615140600083018b614b29565b61514d602083018a614d6c565b61515a6040830189614b29565b6151676060830188614b29565b6151746080830187614d6c565b61518160a0830186614c80565b61518e60c0830185614d6c565b61519b60e0830184614b29565b9998505050505050505050565b6000610180820190506151be600083018e614b29565b6151cb602083018d614d6c565b6151d8604083018c614b29565b6151e5606083018b614b29565b6151f2608083018a614d6c565b6151ff60a0830189614c80565b61520c60c0830188614d6c565b61521960e0830187614b38565b81810361014083015261522d818587614c04565b905061523d610160830184614b29565b9c9b505050505050505050505050565b600060c0820190506152626000830189614b29565b61526f6020830188614d6c565b61527c6040830187614b29565b6152896060830186614b29565b6152966080830185614d6c565b6152a360a0830184614d6c565b979650505050505050565b600060e0820190506152c3600083018a614b29565b6152d06020830189614d6c565b6152dd6040830188614b29565b6152ea6060830187614b29565b6152f76080830186614d6c565b61530460a0830185614d6c565b61531160c0830184614b29565b98975050505050505050565b600061016082019050615333600083018d614b29565b615340602083018c614d6c565b61534d604083018b614b29565b61535a606083018a614b29565b6153676080830189614d6c565b61537460a0830188614d6c565b61538160c0830187614b38565b818103610120830152615395818587614c04565b90506153a5610140830184614b29565b9b9a5050505050505050505050565b6000610100820190506153ca600083018b614b29565b6153d7602083018a614d6c565b6153e46040830189614b29565b6153f16060830188614b29565b6153fe6080830187614d6c565b61540b60a0830186614d6c565b61541860c0830185614c80565b61542560e0830184614b29565b9998505050505050505050565b6000602082019050818103600083015261544c8184614b97565b905092915050565b6000602082019050818103600083015261546d81614c8f565b9050919050565b60006020820190506154896000830184614d6c565b92915050565b60006040820190506154a46000830185614d6c565b6154b16020830184614b29565b9392505050565b60006060820190506154cd6000830186614d6c565b6154da6020830185614b29565b6154e76040830184614bf5565b949350505050565b60006040820190506155046000830185614d6c565b6155116020830184614bf5565b9392505050565b600060408201905061552d6000830185614d6c565b61553a6020830184614c80565b9392505050565b60006040820190506155566000830185614d6c565b6155636020830184614d6c565b9392505050565b600060608201905061557f6000830186614d6c565b61558c6020830185614d6c565b6155996040830184614d6c565b949350505050565b6000819050919050565b6000819050602082019050919050565b600060039050919050565b600081519050919050565b600081519050919050565b6000602082019050919050565b6000602082019050919050565b600081905092915050565b600082825260208201905092915050565b600082825260208201905092915050565b600081905092915050565b600082825260208201905092915050565b600061564e6020840184614276565b905092915050565b60006156618261568b565b9050919050565b60008115159050919050565b600081600f0b9050919050565b6000819050919050565b600073ffffffffffffffffffffffffffffffffffffffff82169050919050565b6000819050919050565b600067ffffffffffffffff82169050919050565b82818337600083830152505050565b60005b838110156156f65780820151818401526020810190506156db565b83811115615705576000848401525b50505050565b6000601f19601f8301169050919050565b61572581615656565b811461573057600080fd5b50565b61573c81615668565b811461574757600080fd5b50565b61575381615674565b811461575e57600080fd5b50565b61576a81615681565b811461577557600080fd5b50565b615781816156ab565b811461578c57600080fd5b5056fea2646970667358221220a95ec022fb8c9a61e56da9992eed697c56093ecda34e503b9f32fc40bd4d97d464736f6c63430006080033",
  "immutableReferences": {},
  "source": "// SPDX-License-Identifier: MIT\npragma experimental ABIEncoderV2;\npragma solidity >=0.6.8 <0.7.0;\n\nimport \"../../libraries/SafeMath.sol\";\nimport \"../../libraries/SignedSafeMath.sol\";\nimport \"../../interfaces/IFixCapitalPool.sol\";\nimport \"../../interfaces/IVaultHealth.sol\";\nimport \"../../interfaces/IDBSFVaultFactory.sol\";\nimport \"../../interfaces/IWrapper.sol\";\nimport \"../../interfaces/IERC20.sol\";\nimport \"../../helpers/Ownable.sol\";\nimport \"../../helpers/nonReentrant.sol\";\nimport \"./DBSFVaultFactoryData.sol\";\n\ncontract DBSFVaultFactory is DBSFVaultFactoryData, IDBSFVaultFactory, nonReentrant {\n\tusing SafeMath for uint;\n\tusing SignedSafeMath for int;\n\n\taddress delegate1Address;\n\taddress delegate2Address;\n\taddress delegate3Address;\n\taddress delegate4Address;\n\taddress delegate5Address;\n\n\tconstructor(\n\t\taddress _vaultHealthContract,\n\t\taddress _infoOracleAddr,\n\t\taddress _delegate1Address,\n\t\taddress _delegate2Address,\n\t\taddress _delegate3Address,\n\t\taddress _delegate4Address,\n\t\taddress _delegate5Address\n\t) public {\n\t\tvaultHealthContract = IVaultHealth(_vaultHealthContract);\n\t\t_infoOracleAddress = _infoOracleAddr;\n\t\tdelegate1Address = _delegate1Address;\n\t\tdelegate2Address = _delegate2Address;\n\t\tdelegate3Address = _delegate3Address;\n\t\tdelegate4Address = _delegate4Address;\n\t\tdelegate5Address = _delegate5Address;\n\t}\n\n\t//-----------------------------------views-------------------------------------\n\n\tfunction vaultsLength(address _owner) external view override returns(uint) {\n\t\treturn _vaults[_owner].length;\n\t}\n\n\tfunction YTvaultsLength(address _owner) external view override returns(uint) {\n\t\treturn _YTvaults[_owner].length;\n\t}\n\n\tfunction allVaults(address _owner) external view override returns(Vault[] memory __vaults) {\n\t\t__vaults = _vaults[_owner];\n\t}\n\n\tfunction liquidationsLength() external view override returns (uint) {\n\t\treturn _Liquidations.length;\n\t}\n\n\tfunction YTLiquidationsLength() external view override returns (uint) {\n\t\treturn _YTLiquidations.length;\n\t}\n\n\tfunction shortInterestAllDurations(address _wrapper) external view override returns (uint) {\n\t\treturn _shortInterestAllDurations[_wrapper];\n\t}\n\n\tfunction revenue(address _asset) external view override returns (uint) {\n\t\treturn _revenue[_asset];\n\t}\n\n\tfunction YTrevenue(address _asset) external view override returns (uint yield, int bond) {\n\t\tYTPosition memory pos = _YTRevenue[_asset];\n\t\tyield = pos.amountYield;\n\t\tbond = pos.amountBond;\n\t}\n\n\tfunction liquidationRebates(address _owner, address _asset) external view override returns(uint) {\n\t\treturn _liquidationRebates[_owner][_asset];\n\t}\n\n\tfunction YTLiquidationRebates(address _owner, address _FCP) external view override returns(uint yield, int bond) {\n\t\tYTPosition memory pos = _YTLiquidationRebates[_owner][_FCP];\n\t\tyield = pos.amountYield;\n\t\tbond = pos.amountBond;\n\t}\n\n\tfunction vaults(address _owner, uint _index) external view override returns (\n\t\taddress assetSupplied,\n\t\taddress assetBorrowed,\n\t\tuint amountSupplied,\n\t\tuint amountBorrowed,\n\t\tuint amountSFee,\n\t\tuint64 timestampOpened,\n\t\tuint64 stabilityFeeAPR\n\t) {\n\t\tVault memory vault = _vaults[_owner][_index];\n\t\tassetSupplied = vault.assetSupplied;\n\t\tassetBorrowed = vault.assetBorrowed;\n\t\tamountSupplied = vault.amountSupplied;\n\t\tamountBorrowed = vault.amountBorrowed;\n\t\tamountSFee = vault.amountSFee;\n\t\ttimestampOpened = vault.timestampOpened;\n\t\tstabilityFeeAPR = vault.stabilityFeeAPR;\n\t}\n\n\tfunction Liquidations(uint _index) external view override returns (\n\t\taddress vaultOwner,\n\t\taddress assetSupplied,\n\t\taddress assetBorrowed,\n\t\tuint amountBorrowed,\n\t\taddress bidder,\n\t\tuint bidAmount,\n\t\tuint bidTimestamp\n\t) {\n\t\tLiquidation memory lq = _Liquidations[_index];\n\t\tvaultOwner = lq.vaultOwner;\n\t\tassetSupplied = lq.assetSupplied;\n\t\tassetBorrowed = lq.assetBorrowed;\n\t\tamountBorrowed = lq.amountBorrowed;\n\t\tbidder = lq.bidder;\n\t\tbidAmount = lq.bidAmount;\n\t\tbidTimestamp = lq.bidTimestamp;\n\t}\n\n\tfunction YTvaults(address _owner, uint _index) external view override returns (\n\t\taddress FCPsupplied,\n\t\taddress FCPborrowed,\n\t\tuint yieldSupplied,\n\t\tint bondSupplied,\n\t\tuint amountBorrowed,\n\t\tuint amountSFee,\n\t\tuint64 timestampOpened,\n\t\tuint64 stabilityFeeAPR\n\t) {\n\t\tYTVault memory vault = _YTvaults[_owner][_index];\n\t\tFCPsupplied = vault.FCPsupplied;\n\t\tFCPborrowed = vault.FCPborrowed;\n\t\tyieldSupplied = vault.yieldSupplied;\n\t\tbondSupplied = vault.bondSupplied;\n\t\tamountBorrowed = vault.amountBorrowed;\n\t\tamountSFee = vault.amountSFee;\n\t\ttimestampOpened = vault.timestampOpened;\n\t\tstabilityFeeAPR = vault.stabilityFeeAPR;\n\t}\n\n\tfunction YTLiquidations(uint _index) external view override returns (\n\t\taddress vaultOwner,\n\t\taddress FCPsupplied,\n\t\taddress FCPborrowed,\n\t\tint bondRatio,\n\t\tuint amountBorrowed,\n\t\taddress bidder,\n\t\tuint bidAmount,\n\t\tuint bidTimestamp\n\t) {\n\t\tYTLiquidation memory liq = _YTLiquidations[_index];\n\t\tvaultOwner = liq.vaultOwner;\n\t\tFCPsupplied = liq.FCPsupplied;\n\t\tFCPborrowed = liq.FCPborrowed;\n\t\tbondRatio = liq.bondRatio;\n\t\tamountBorrowed = liq.amountBorrowed;\n\t\tbidder = liq.bidder;\n\t\tbidAmount = liq.bidAmount;\n\t\tbidTimestamp = liq.bidTimestamp;\n\t}\n\n\tfunction VaultHealthAddress() external view override returns (address) {\n\t\treturn address(vaultHealthContract);\n\t}\n\n\t//--------------------------------standard vault management-----------------------------------\n\n\t/*\n\t\t@Description: create a new vault, deposit some asset and borrow some ZCB from it\n\n\t\t@param address _assetSupplied: the asset that will be used as collateral\n\t\t\tthis asset may be a ZCB or any other asset that is whitelisted\n\t\t@param address _assetBorrowed: the ZCB that is borrowed from the new vault\n\t\t@param uint _amountSupplied: the amount of _assetSupplied that is to be posed as collateral\n\t\t@param uint _amountBorrowed: the amount of _assetBorrowed to borrow\n\t\t@param uint _priceMultiplier: a multiplier > 1\n\t\t\twe ensure the vault will not be sent into the liquidation zone if the cross asset price\n\t\t\tof _assetBorrowed to _assetSupplied increases by a factor of _priceMultiplier\n\t\t\t(in terms of basis points)\n\t\t@param int128 _suppliedRateChange: a multiplier > 1\n\t\t\twe ensure the vault will not be sent into the liquidation zone if the rate on the supplied\n\t\t\tasset increases by a factor of _suppliedRateChange\n\t\t\t(in ABDK format)\n\t\t@param int128 _borrowRateChange: a multiplier < 1\n\t\t\twe ensure the vault will not be sent into the liquidation zone if the rate on the borrow\n\t\t\tasset decreases by a factor of _borrowRateChange\n\t\t\t(in ABDK format)\n\t*/\n\tfunction openVault(\n\t\taddress _assetSupplied,\n\t\taddress _assetBorrowed,\n\t\tuint _amountSupplied,\n\t\tuint _amountBorrowed,\n\t\tuint _priceMultiplier,\n\t\tint128 _suppliedRateChange,\n\t\tint128 _borrowRateChange\n\t\t) external override {\n\n\t\t(bool success, ) = delegate1Address.delegatecall(abi.encodeWithSignature(\n\t\t\t\"openVault(address,address,uint256,uint256,uint256,int128,int128)\",\n\t\t\t_assetSupplied,\n\t\t\t_assetBorrowed,\n\t\t\t_amountSupplied,\n\t\t\t_amountBorrowed,\n\t\t\t_priceMultiplier,\n\t\t\t_suppliedRateChange,\n\t\t\t_borrowRateChange\n\t\t));\n\t\trequire(success);\n\t\temit OpenVault(msg.sender, _vaults[msg.sender].length-1);\n\t}\n\n\t/*\n\t\t@Description: fully repay a vault and withdraw all collateral\n\n\t\t@param uint _index: the vault to close is at vaults[msg.sender][_index]\n\t\t@param address _to: the address to which to send all collateral after closing the vault\n\t*/\n\tfunction closeVault(uint _index, address _to) external override noReentry {\n\t\t(bool success, ) = delegate1Address.delegatecall(abi.encodeWithSignature(\n\t\t\t\"closeVault(uint256,address)\",\n\t\t\t_index,\n\t\t\t_to\n\t\t));\n\t\trequire(success);\n\t\temit CloseVault(msg.sender, _index);\n\t}\n\n\t/*\n\t\t@Description: adjust the state of a vault by either changing the assets in it\n\t\t\tor paying down/increasing debt or supplying/withdrawing collateral\n\t\t\tfor any call where funds would be transfered out of the vault msg.sender must be the vault owner\n\t\t\tif the _data param has length > 0, assets sent out by the vault will be sent via flashloan\n\t\t\tand repayment must be made in the required collateral assets \n\n\t\t@param address _owner: the owner of the vault to adjust\n\t\t@param uint _index: the index of the vault in vaults[_owner]\n\t\t@param address _assetSupplied: the new asset(may be the same as previous) that is to be used as\n\t\t\tcollateral in the vault\n\t\t@param address _assetBorrowed: the new asset(may be the same as previous) that is to be borrowed\n\t\t\tfrom the vault\n\t\t@param uint _amountSupplied: the total amount of collateral that shall be in the vault after execution\n\t\t@param uint _amountBorrowed: the total amount of debt of the vault after execution\n\t\t@param int128[3] calldata _multipliers: the 3 multipliers used on call to\n\t\t\tvaultHealthContract.vaultWithstandsChange\n\t\t\t\tuint(_multipliers[0]) is priceMultiplier\n\t\t\t\t_multipliers[1] is suppliedRateMultiplier\n\t\t\t\t_multipliers[2] is borrowedRateMultiplier\n\t\t@param bytes calldata _data: data to be send to the flashloan receiver if a flashloan is to be done\n\t\t\tif _data.length == 0 there will be no flashloan\n\t\t@param  address _receiverAddr: the address of the flashloan receiver contract\n\t*/\n\tfunction adjustVault(\n\t\taddress _owner,\n\t\tuint _index,\n\t\taddress _assetSupplied,\n\t\taddress _assetBorrowed,\n\t\tuint _amountSupplied,\n\t\tuint _amountBorrowed,\n\t\tint128[3] calldata _multipliers,\n\t\tbytes calldata _data,\n\t\taddress _receiverAddr\n\t) external override noReentry {\n\t\t(bool success, ) = delegate1Address.delegatecall(abi.encodeWithSignature(\n\t\t\t\"adjustVault(address,uint256,address,address,uint256,uint256,int128[3],bytes,address)\",\n\t\t\t_owner,\n\t\t\t_index,\n\t\t\t_assetSupplied,\n\t\t\t_assetBorrowed,\n\t\t\t_amountSupplied,\n\t\t\t_amountBorrowed,\n\t\t\t_multipliers,\n\t\t\t_data,\n\t\t\t_receiverAddr\n\t\t));\n\t\trequire(success);\n\t\temit AdjustVault(_owner, _index);\n\t}\n\n\t//--------------------------------------YT vault management-----------------------------------\n\n\t/*\n\t\t@Description: create a new YT vault, deposit some ZCB + YT of a FCP and borrow some ZCB from it\n\n\t\t@param address _FCPsupplied: the address of the FCP contract for which to supply ZCB and YT\n\t\t@param address _FCPborrowed: the FCP that corresponds to theZCB that is borrowed from the new YTVault\n\t\t@param uint _yieldSupplied: the amount from the balanceYield mapping in the supplied FCP contract\n\t\t\tthat is to be supplied to the new YTVault\n\t\t@param int _bondSupplied: the amount from the balanceBonds mapping in the supplied FCP contract\n\t\t\tthat is to be supplied to the new YTVault\n\t\t@param uint _amountBorrowed: the amount of ZCB from _FCPborrowed to borrow\n\t\t@param uint _priceMultiplier: a multiplier > 1\n\t\t\twe ensure the vault will not be sent into the liquidation zone if the cross asset price\n\t\t\tof _assetBorrowed to _assetSupplied increases by a factor of _priceMultiplier\n\t\t\t(in terms of basis points)\n\t\t@param int128 _suppliedRateChange: a multiplier > 1 if _positiveBondSupplied otherwise < 1\n\t\t\twe ensure the vault will not be sent into the liquidation zone if the rate on the supplied\n\t\t\tasset increases by a factor of _suppliedRateChange\n\t\t\t(in ABDK format)\n\t\t@param int128 _borrowRateChange: a multiplier < 1\n\t\t\twe ensure the vault will not be sent into the liquidation zone if the rate on the borrow\n\t\t\tasset decreases by a factor of _borrowRateChange\n\t\t\t(in ABDK format)\n\t*/\n\tfunction openYTVault(\n\t\taddress _FCPsupplied,\n\t\taddress _FCPborrowed,\n\t\tuint _yieldSupplied,\n\t\tint _bondSupplied,\n\t\tuint _amountBorrowed,\n\t\tuint _priceMultiplier,\n\t\tint128 _suppliedRateChange,\n\t\tint128 _borrowRateChange\n\t) external override {\n\t\t(bool success, ) = delegate3Address.delegatecall(abi.encodeWithSignature(\n\t\t\t\"openYTVault(address,address,uint256,int256,uint256,uint256,int128,int128)\",\n\t\t\t_FCPsupplied,\n\t\t\t_FCPborrowed,\n\t\t\t_yieldSupplied,\n\t\t\t_bondSupplied,\n\t\t\t_amountBorrowed,\n\t\t\t_priceMultiplier,\n\t\t\t_suppliedRateChange,\n\t\t\t_borrowRateChange\n\t\t));\n\t\trequire(success);\n\t\temit OpenYTVault(msg.sender, _YTvaults[msg.sender].length-1);\n\t}\n\n\t/*\n\t\t@Description: fully repay a YT vault and withdraw all collateral\n\n\t\t@param uint _index: the YT vault to close is at YTvaults[msg.sender][_index]\n\t\t@param address _to: the address to which to send all collateral after closing the vault\n\t*/\n\tfunction closeYTVault(uint _index, address _to) external override noReentry {\n\t\t(bool success, ) = delegate3Address.delegatecall(abi.encodeWithSignature(\n\t\t\t\"closeYTVault(uint256,address)\",\n\t\t\t_index,\n\t\t\t_to\n\t\t));\n\t\trequire(success);\n\t\temit CloseYTVault(msg.sender, _index);\n\t}\n\n\t/*\n\t\t@Description: adjust the state of a YT vault by either changing the assets in it\n\t\t\tor paying down/increasing debt or supplying/withdrawing collateral\n\t\t\tfor any call where funds would be transfered out of the vault msg.sender must be the vault owner\n\t\t\tif the _data param has length > 0, assets sent out by the vault will be sent via flashloan\n\t\t\tand repayment must be made in the required collateral assets \n\n\t\t@param address _owner: the owner of the YT vault to adjust\n\t\t@param uint _index: the index of the YT vault in YTvaults[_owner]\n\t\t@param address _FCPsupplied: the new FCP (may be the same as previous) corresponding to the vault's\n\t\t\tZCB & YT collateral\n\t\t@param address _FCPborrowed: the new FCP (may be the same as previous) corresponding to the ZCB\n\t\t\tthat is to be borrowed from the vault\n\t\t@param uint _yieldSupplied: the amount from the balanceYield mapping in the supplied FCP contract\n\t\t\tthat will be supplied as collateral to the YTVault after execution\n\t\t@param int _bondSupplied: the amount from the balanceBonds mapping in the supplied FCP contract\n\t\t\tthat will be supplied as collateral to the YTVault after execution\n\t\t@param uint _amountBorrowed: the total amount of debt of the vault after execution\n\t\t@param int128[3] calldata _multipliers: the 3 multipliers used on call to\n\t\t\tvaultHealthContract.vaultWithstandsChange\n\t\t\t\tuint(_multipliers[0]) is priceMultiplier\n\t\t\t\t_multipliers[1] is suppliedRateMultiplier\n\t\t\t\t_multipliers[2] is borrowedRateMultiplier\n\t\t@param bytes calldata _data: data to be send to the flashloan receiver if a flashloan is to be done\n\t\t\tif _data.length == 0 there will be no flashloan\n\t\t@param  address _receiverAddr: the address of the flashloan receiver contract\n\t*/\n\tfunction adjustYTVault(\n\t\taddress _owner,\n\t\tuint _index,\n\t\taddress _FCPsupplied,\n\t\taddress _FCPborrowed,\n\t\tuint _yieldSupplied,\n\t\tint _bondSupplied,\n\t\tuint _amountBorrowed,\n\t\tint128[3] calldata _multipliers,\n\t\tbytes calldata _data,\n\t\taddress _receiverAddr\n\t) external override noReentry {\n\t\t(bool success, ) = delegate3Address.delegatecall(abi.encodeWithSignature(\n\t\t\t\"adjustYTVault(address,uint256,address,address,uint256,int256,uint256,int128[3],bytes,address)\",\n\t\t\t_owner,\n\t\t\t_index,\n\t\t\t_FCPsupplied,\n\t\t\t_FCPborrowed,\n\t\t\t_yieldSupplied,\n\t\t\t_bondSupplied,\n\t\t\t_amountBorrowed,\n\t\t\t_multipliers,\n\t\t\t_data,\n\t\t\t_receiverAddr\n\t\t));\n\t\trequire(success);\n\t\temit AdjustYTVault(_owner, _index);\n\t}\n\n\t//--------------------------------f-o-r---b-o-t-h---s-t-a-n-d-a-r-d---v-a-u-l-t-s---a-n-d---Y-T-v-a-u-l-t-s---------------\n\n\t/*\n\t\t@Description: assign a vault/YTvault to a new owner\n\n\t\t@param uint _index: the index within vaults/YTvaults[msg.sender] at which the vault to transfer is located\n\t\t@param address _to: the new owner of the vault/YTvault\n\t\t@param bool _isYTVault: true when the vault to transfer is a YTvault, false otherwise\n\t*/\n\tfunction transferVault(uint _index, address _to, bool _isYTVault) external override noReentry {\n\t\t(bool success, ) = delegate5Address.delegatecall(abi.encodeWithSignature(\n\t\t\t\"transferVault(uint256,address,bool)\",\n\t\t\t_index,\n\t\t\t_to,\n\t\t\t_isYTVault\n\t\t));\n\t\trequire(success);\n\t\temit TransferVault(msg.sender, _index, _to, _isYTVault);\n\t}\n\n\t//--------------------------------------V-a-u-l-t---L-i-q-u-i-d-a-t-i-o-n-s-------------------------------------------\n\n\t/*\n\t\t@Description: send a vault that is under the upper collateralization limit to the auction house\n\n\t\t@param address _owner: the owner of the vault to send to auction\n\t\t@param uint _index: the index of the vault in vaults[_owner] to send to auction\n\t\t@param address _assetBorrowed: the address of the expected borrow asset of the vault\n\t\t@param address _assetSupplied: the address of the expected supplied asset of the vault\n\t\t@param uint _bid: the first bid (in _assetSupplied) made by msg.sender\n\t\t@param uint _maxIn: the maximum amount of _assetBorrowed to send in\n\t*/\n\tfunction auctionLiquidation(address _owner, uint _index, address _assetBorrowed, address _assetSupplied, uint _bid, uint _maxIn) external override noReentry {\n\t\t(bool success, ) = delegate2Address.delegatecall(abi.encodeWithSignature(\n\t\t\t\"auctionLiquidation(address,uint256,address,address,uint256,uint256)\",\n\t\t\t_owner,\n\t\t\t_index,\n\t\t\t_assetBorrowed,\n\t\t\t_assetSupplied,\n\t\t\t_bid,\n\t\t\t_maxIn\n\t\t));\n\t\trequire(success);\n\t\temit AuctionLiquidation(_owner, _index, _Liquidations.length-1);\n\t}\n\n\t/*\n\t\t@Description: place a new bid on a vault that has already begun an auction\n\n\t\t@param uint _index: the index in _Liquidations[] of the auction\n\t\t@param uint  _bid: the amount of the supplied asset that the liquidator wishes to receive\n\t\t\tin reward if the liquidator wins this auction\n\t\t@param uint _amtIn: the amount of borrowed asset that the liquidator will be sending in\n\t*/\n\tfunction bidOnLiquidation(uint _index, uint _bid, uint _amtIn) external override {\n\t\t(bool success, ) = delegate2Address.delegatecall(abi.encodeWithSignature(\n\t\t\t\"bidOnLiquidation(uint256,uint256,uint256)\",\n\t\t\t_index,\n\t\t\t_bid,\n\t\t\t_amtIn\n\t\t));\n\t\trequire(success);\n\t\temit BidOnLiquidation(_index);\n\t}\n\n\t/*\n\t\t@Description: claim the collateral of a vault from an auction that was won by msg.sender\n\n\t\t@param uint _index: the index in Liquidations[] of the auction\n\t\t@param address _to: the address to which to send the proceeds\n\t*/\n\tfunction claimLiquidation(uint _index, address _to) external override {\n\t\t(bool success, ) = delegate2Address.delegatecall(abi.encodeWithSignature(\n\t\t\t\"claimLiquidation(uint256,address)\",\n\t\t\t_index,\n\t\t\t_to\n\t\t));\n\t\trequire(success);\n\t\temit ClaimLiquidation(_index);\n\t}\n\n\t/*\n\t\t@Description: when there is less than 1 day until maturity or _vaults are under the lower collateralisation limit \n\t\t\tvaults may be liquidated instantly without going through the auction process, this is intended to help the VaultFactory\n\t\t\tkeep solvency in the event of a market crisis\n\t\t\tthis function is used when a liquidator would like to liquidate the entire vault\n\t\t@param address _owner: the owner of the vault to send to auction\n\t\t@param uint _index: the index of the vault in vaults[_owner] to send to auction\n\t\t@param address _assetBorrowed: the address of the expected borrow asset of the vault\n\t\t@param address _assetSupplied: the address of the expected supplied asset of the vault\n\t\t@param uint _maxIn: the maximum amount of assetBorrowed that msg.sender is willing to bid on the vault\n\t\t@param uint _minOut: the minimum amount of assetSupplied that msg.sender wants to receive from this liquidation\n\t\t@param address _to: the address to which to send all of the collateral from the vault\n\t*/\n\tfunction instantLiquidation(address _owner, uint _index, address _assetBorrowed, address _assetSupplied, uint _maxIn, uint _minOut, address _to) external override noReentry {\n\t\t(bool success, ) = delegate2Address.delegatecall(abi.encodeWithSignature(\n\t\t\t\"instantLiquidation(address,uint256,address,address,uint256,uint256,address)\",\n\t\t\t_owner,\n\t\t\t_index,\n\t\t\t_assetBorrowed,\n\t\t\t_assetSupplied,\n\t\t\t_maxIn,\n\t\t\t_minOut,\n\t\t\t_to\n\t\t));\n\t\trequire(success);\n\t\temit InstantLiquidation(_owner, _index);\n\t}\n\n\t/*\n\t\t@Description: when there is less than 1 day until maturity or _vaults are under the lower collateralisation limit \n\t\t\tvaults may be liquidated instantly without going through the auction process, this is intended to help the VaultFactory\n\t\t\tkeep solvency in the event of a market crisis\n\t\t\tthis function is used when a liquidator whould like to only partially liquidate the vault by providing a specific\n\t\t\tamount of assetBorrowed and receiving the corresponding amount of assetSupplied\n\t\t@param address _owner: the owner of the vault to send to auction\n\t\t@param uint _index: the index of the vault in vaults[_owner] to send to auction\n\t\t@param address _assetBorrowed: the address of the expected borrow asset of the vault\n\t\t@param address _assetSupplied: the address of the expected supplied asset of the vault\n\t\t@param uint _in: the amount of assetBorrowed to supply to the vault\n\t\t@param uint _minOut: the minimum amount of assetSupplied that msg.sender wants to receive from this liquidation\n\t\t@param address _to: the address to which to send all of the collateral from the vault\n\t*/\n\tfunction partialLiquidationSpecificIn(address _owner, uint _index, address _assetBorrowed, address _assetSupplied, uint _in, uint _minOut, address _to) external override noReentry{\n\t\t(bool success, ) = delegate2Address.delegatecall(abi.encodeWithSignature(\n\t\t\t\"partialLiquidationSpecificIn(address,uint256,address,address,uint256,uint256,address)\",\n\t\t\t_owner,\n\t\t\t_index,\n\t\t\t_assetBorrowed,\n\t\t\t_assetSupplied,\n\t\t\t_in,\n\t\t\t_minOut,\n\t\t\t_to\n\t\t));\n\t\trequire(success);\n\t\temit InstantLiquidation(_owner, _index);\n\t}\n\n\t/*\n\t\t@Description: when there is less than 1 day until maturity or _vaults are under the lower collateralisation limit \n\t\t\tvaults may be liquidated instantly without going through the auction process, this is intended to help the VaultFactory\n\t\t\tkeep solvency in the event of a market crisis\n\t\t\tthis function is used when a liquidator whould like to only partially liquidate the vault by receiving a specific\n\t\t\tamount of assetSupplied and sending the corresponding amount of assetBorrowed\n\t\t@param address _owner: the owner of the vault to send to auction\n\t\t@param uint _index: the index of the vault in vaults[_owner] to send to auction\n\t\t@param address _assetBorrowed: the address of the expected borrow asset of the vault\n\t\t@param address _assetSupplied: the address of the expected supplied asset of the vault\n\t\t@param uint _ouot: the amount of assetSupplied to receive from the vault\n\t\t@param uint _maxIn: the maximum amount of assetBorrowed that msg.sender is willing to bid on the vault\n\t\t@param address _to: the address to which to send all of the collateral from the vault\n\t*/\n\tfunction partialLiquidationSpecificOut(address _owner, uint _index, address _assetBorrowed, address _assetSupplied, uint _out, uint _maxIn, address _to) external override noReentry {\n\t\t(bool success, ) = delegate2Address.delegatecall(abi.encodeWithSignature(\n\t\t\t\"partialLiquidationSpecificOut(address,uint256,address,address,uint256,uint256,address)\",\n\t\t\t_owner,\n\t\t\t_index,\n\t\t\t_assetBorrowed,\n\t\t\t_assetSupplied,\n\t\t\t_out,\n\t\t\t_maxIn,\n\t\t\t_to\n\t\t));\n\t\trequire(success);\n\t\temit InstantLiquidation(_owner, _index);\n\t}\n\n\n\t/*\n\t\t@Description: allows a user to claim the excess collateral that was received as a rebate\n\t\t\twhen their vault(s) were liquidated\n\n\t\t@param address _asset: the address of the asset for which to claim rebated collateral\n\t*/\n\tfunction claimRebate(address _asset) external override {\n\t\t(bool success, ) = delegate5Address.delegatecall(abi.encodeWithSignature(\n\t\t\t\"claimRebate(address)\",\n\t\t\t_asset\n\t\t));\n\t\trequire(success);\n\t\temit ClaimRebate(msg.sender, _asset);\n\t}\n\n\t//------------------------------------Y-T---v-a-u-l-t---L-i-q-u-i-d-a-t-i-o-n-s-------------------------------------\n\n\n\t/*\n\t\t@Description: allows a user to claim the excess collateral that was received as a rebate\n\t\t\twhen their YT vault(s) were liquidated\n\t\n\t\t@param address _FCP: the address of the FCP contract for which to claim the rebate\n\t*/\n\tfunction claimYTRebate(address _FCP) external override {\n\t\t(bool success, ) = delegate5Address.delegatecall(abi.encodeWithSignature(\n\t\t\t\"claimYTRebate(address)\",\n\t\t\t_FCP\n\t\t));\n\t\trequire(success);\n\t\temit ClaimYTRebate(msg.sender, _FCP);\n\t}\n\n\n\t/*\n\t\t@Description: send a vault that is under the upper collateralization limit to the auction house\n\n\t\t@param address _owner: the owner of the vault to send to auction\n\t\t@param uint _index: the index of the vault in vaults[_owner] to send to auction\n\t\t@param address _FCPborrowed: the address of the FCP contract corresponding to the borrowed ZCB\n\t\t@param address _FCPsupplied: the address of the FCP contract corresponding to the supplied ZCB & YT\n\t\t@param uint _bidYield: the first bid (in YT corresponding _FCPsupplied) made by msg.sender on the vault\n\t\t\tZCB of bid is calculated by finding the corresponding amount of ZCB based on the ratio of YT to ZCB\n\t\t@param int _minBondRatio: the miniumum value of vault.bondSupplied/vault.yieldSupplied inflated by (1 ether)\n\t\t\tif ratio is below _minBondRatio tx will revert\n\t\t@param uint _amtIn: the amount of the borrowed ZCB to send in\n\t*/\n\tfunction auctionYTLiquidation(address _owner, uint _index, address _FCPborrowed, address _FCPsupplied, uint _bidYield, int _minBondRatio, uint _amtIn) external override noReentry {\n\t\t(bool success, ) = delegate4Address.delegatecall(abi.encodeWithSignature(\n\t\t\t\"auctionYTLiquidation(address,uint256,address,address,uint256,int256,uint256)\",\n\t\t\t_owner,\n\t\t\t_index,\n\t\t\t_FCPborrowed,\n\t\t\t_FCPsupplied,\n\t\t\t_bidYield,\n\t\t\t_minBondRatio,\n\t\t\t_amtIn\n\t\t));\n\t\trequire(success);\n\t\temit AuctionYTLiquidation(_owner, _index, _YTLiquidations.length-1);\n\t}\n\n\t/*\n\t\t@Description: place a new bid on a YT vault that has already begun an auction\n\n\t\t@param uint _index: the index in _YTLiquidations[] of the auction\n\t\t@param uint _bidYield: the bid (in YT corresponding _FCPsupplied) made by msg.sender on the vault\n\t\t\tZCB of bid is calculated by finding the corresponding amount of ZCB based on the ratio of YT to ZCB\n\t\t@param uint _amtIn: the amount of borrowed asset that the liquidator will be sending in\n\t*/\n\tfunction bidOnYTLiquidation(uint _index, uint _bidYield, uint _amtIn) external override {\n\t\t(bool success, ) = delegate4Address.delegatecall(abi.encodeWithSignature(\n\t\t\t\"bidOnYTLiquidation(uint256,uint256,uint256)\",\n\t\t\t_index,\n\t\t\t_bidYield,\n\t\t\t_amtIn\n\t\t));\n\t\trequire(success);\n\t\temit BidOnYTLiquidation(_index);\n\t}\n\n\t/*\n\t\t@Description: claim the collateral of a YT vault from an auction that was won by msg.sender\n\n\t\t@param uint _index: the index in YTLiquidations[] of the auction\n\t\t@param address _to: the address to which to send the proceeds\n\t*/\n\tfunction claimYTLiquidation(uint _index, address _to) external override {\n\t\t(bool success, ) = delegate4Address.delegatecall(abi.encodeWithSignature(\n\t\t\t\"claimYTLiquidation(uint256,address)\",\n\t\t\t_index,\n\t\t\t_to\n\t\t));\n\t\trequire(success);\n\t\temit ClaimYTLiquidation(_index);\n\t}\n\n\t/*\n\t\t@Description: when there is less than 1 day until maturity or _vaults are under the lower collateralisation limit \n\t\t\tvaults may be liquidated instantly without going through the auction process, this is intended to help the VaultFactory\n\t\t\tkeep solvency in the event of a market crisis\n\t\t\tthis function is used when a liquidator would like to liquidate the entire vault\n\t\t@param address _owner: the owner of the vault to send to auction\n\t\t@param uint _index: the index of the vault in vaults[_owner] to send to auction\n\t\t@param address _FCPborrowed: the address of the FCP contract corresponding to the borrowed ZCB\n\t\t@param address _FCPsupplied: the address of the FCP contract corresponding to the supplied ZCB & YT\n\t\t@param uint _maxIn: the maximum amount of the borrowed asset that msg.sender is willing to send in\n\t\t@param int _minBondRatio: the minimum value of vault.bondSupplied / vault.yieldSupplied inflated by (1 ether)\n\t\t\tif the actual bond ratio of the vault is < _minBondRatio tx will revert\n\t\t@param uint _minOut: the minimum amount of YT from _FCPsupplied that msg.sender wants to receive from this liquidation\n\t\t@param address _to: the address to which to send all of the collateral from the vault\n\t*/\n\tfunction instantYTLiquidation(address _owner, uint _index, address _FCPborrowed, address _FCPsupplied, uint _maxIn, uint _minOut, int _minBondRatio, address _to) external override noReentry {\n\t\t(bool success, ) = delegate4Address.delegatecall(abi.encodeWithSignature(\n\t\t\t\"instantYTLiquidation(address,uint256,address,address,uint256,uint256,int256,address)\",\n\t\t\t_owner,\n\t\t\t_index,\n\t\t\t_FCPborrowed,\n\t\t\t_FCPsupplied,\n\t\t\t_maxIn,\n\t\t\t_minOut,\n\t\t\t_minBondRatio,\n\t\t\t_to\n\t\t));\n\t\trequire(success);\n\t\temit InstantYTLiquidation(_owner, _index);\n\t}\n\n\t/*\n\t\t@Description: when there is less than 1 day until maturity or _vaults are under the lower collateralisation limit \n\t\t\tvaults may be liquidated instantly without going through the auction process, this is intended to help the VaultFactory\n\t\t\tkeep solvency in the event of a market crisis\n\t\t\tthis function is used when a liquidator whould like to only partially liquidate the vault by providing a specific\n\t\t\tamount of the borrowed asset and receiving the corresponding percentage of the vault's collateral\n\t\t@param address _owner: the owner of the vault to send to auction\n\t\t@param uint _index: the index of the vault in vaults[_owner] to send to auction\n\t\t@param address _FCPborrowed: the address of the FCP contract corresponding to the borrowed ZCB\n\t\t@param address _FCPsupplied: the address of the FCP contract corresponding to the supplied ZCB & YT\n\t\t@param uint _in: the amount of the borrowed asset to supply to the vault\n\t\t@param int _minBondRatio: the minimum value of vault.bondSupplied / vault.yieldSupplied inflated by (1 ether)\n\t\t\tif the actual bond ratio of the vault is < _minBondRatio tx will revert\n\t\t@param uint _minOut: the minimum amount of YT from _FCPsupplied that msg.sender wants to receive from this liquidation\n\t\t@param address _to: the address to which to send all of the collateral from the vault\n\t*/\n\tfunction partialYTLiquidationSpecificIn(address _owner, uint _index, address _FCPborrowed, address _FCPsupplied, uint _in, uint _minOut, int _minBondRatio, address _to) external override noReentry {\n\t\t(bool success, ) = delegate4Address.delegatecall(abi.encodeWithSignature(\n\t\t\t\"partialYTLiquidationSpecificIn(address,uint256,address,address,uint256,uint256,int256,address)\",\n\t\t\t_owner,\n\t\t\t_index,\n\t\t\t_FCPborrowed,\n\t\t\t_FCPsupplied,\n\t\t\t_in,\n\t\t\t_minOut,\n\t\t\t_minBondRatio,\n\t\t\t_to\n\t\t));\n\t\trequire(success);\n\t\temit InstantYTLiquidation(_owner, _index);\n\t}\n\n\t/*\n\t\t@Description: when there is less than 1 day until maturity or _vaults are under the lower collateralisation limit \n\t\t\tvaults may be liquidated instantly without going through the auction process, this is intended to help the VaultFactory\n\t\t\tkeep solvency in the event of a market crisis\n\t\t\tthis function is used when a liquidator whould like to only partially liquidate the vault by receiving a specific\n\t\t\tamount of YT corresponding to _FCPsupplied and sending the corresponding amount of assetBorrowed\n\t\t@param address _owner: the owner of the vault to send to auction\n\t\t@param uint _index: the index of the vault in vaults[_owner] to send to auction\n\t\t@param address _FCPborrowed: the address of the FCP contract corresponding to the borrowed ZCB\n\t\t@param address _FCPsupplied: the address of the FCP contract corresponding to the supplied ZCB & YT\n\t\t@param uint _out: the amount of YT corresponding to _FCPsupplied to receive from the vault\n\t\t@param int _minBondOut: the minimum value of bond when transferPosition is called to payout liquidator\n\t\t\tif the actual bond out is < _minBondOut tx will revert\n\t\t@param uint _maxIn: the maximum amount of assetBorrowed that msg.sender is willing to bid on the vault\n\t\t@param address _to: the address to which to send all of the collateral from the vault\n\t*/\n\tfunction partialYTLiquidationSpecificOut(address _owner, uint _index, address _FCPborrowed, address _FCPsupplied, uint _out, int _minBondRatio, uint _maxIn, address _to) external override noReentry {\n\t\t(bool success, ) = delegate4Address.delegatecall(abi.encodeWithSignature(\n\t\t\t\"partialYTLiquidationSpecificOut(address,uint256,address,address,uint256,int256,uint256,address)\",\n\t\t\t_owner,\n\t\t\t_index,\n\t\t\t_FCPborrowed,\n\t\t\t_FCPsupplied,\n\t\t\t_out,\n\t\t\t_minBondRatio,\n\t\t\t_maxIn,\n\t\t\t_to\n\t\t));\n\t\trequire(success);\n\t\temit InstantYTLiquidation(_owner, _index);\n\t}\n\n\n\t//-------------------------------------a-d-m-i-n---m-a-n-a-g-e-m-e-n-t----------------------------------------------\n\n\n\t/*\n\t\t@Description: admin must call this funciton and pass the address of a wrapper contract\n\t\t\tbefore that wrapper contract or any derivative FCP contracts may be whitelisted for collateral\n\t\t\tthis function must be called to direct seperate asset rewards of depositors to the holders\n\t\t\tfor ex a depsoit of waUSDC ZCB & YT as collateral will continue to earn the stkAAVE rewards while deposited\n\t\n\t\t@param address _wrapperAddress: the address of the wrapper asset\n\t*/\n\tfunction registerAsDistributionAccount(address _wrapperAddress) external override onlyOwner {\n\t\tIWrapper(_wrapperAddress).registerAsDistributionAccount();\n\t}\n\n\t/*\n\t\t@Description: admin may call this function to set the percentage of excess collateral that is retained\n\t\t\tby vault owners in the event of a liquidation\n\n\t\t@param uint _rebateBips: the percentage (in basis points) of excess collateral that is retained\n\t\t\tby vault owners in the event of a liquidation\n\t*/\n\tfunction setLiquidationRebate(uint _rebateBips) external override onlyOwner {\n\t\trequire(_rebateBips <= TOTAL_BASIS_POINTS);\n\t\t_liquidationRebateBips = _rebateBips;\n\t}\n\n\t/*\n\t\t@Description: admin may call this function to claim liquidation revenue\n\n\t\t@address _asset: the address of the asset for which to claim revenue\n\t*/\n\tfunction claimRevenue(address _asset) external override onlyOwner {\n\t\t(bool success, ) = delegate5Address.delegatecall(abi.encodeWithSignature(\"claimRevenue(address)\", _asset));\n\t\trequire(success);\n\t}\n\n\t/*\n\t\t@Description: admin may call this function to claim YT liquidation revenue\n\n\t\t@param address _FCP: the address of the FCP contract for which to claim revenue\n\t\t@param int _bondIn: the amount of bond to send in to make the transfer position have a\n\t\t\tpositive minimum value at maturity\n\t*/\n\tfunction claimYTRevenue(address _FCP, int _bondIn) external override onlyOwner {\n\t\t(bool success, ) = delegate5Address.delegatecall(abi.encodeWithSignature(\"claimYTRevenue(address,int256)\",_FCP, _bondIn));\n\t\trequire(success);\n\t}\n}\n\n",
  "sourcePath": "/home/asher/FixFinanceV1/contracts/VaultFactory/DifferentBaseSF/DBSFVaultFactory.sol",
  "compiler": {
    "name": "solc",
    "version": "0.6.8+commit.0bbfe453.Emscripten.clang"
  },
  "schemaVersion": "3.4.1",
  "updatedAt": "2021-11-26T19:15:55.185Z",
  "devdoc": {
    "methods": {}
  },
  "userdoc": {
    "methods": {}
  }
}