{
  "contractName": "DBSFVaultFactoryDelegate5",
  "abi": [
    {
      "inputs": [],
      "name": "owner",
      "outputs": [
        {
          "internalType": "address",
          "name": "",
          "type": "address"
        }
      ],
      "stateMutability": "view",
      "type": "function"
    },
    {
      "inputs": [
        {
          "internalType": "address",
          "name": "newOwner",
          "type": "address"
        }
      ],
      "name": "transferOwnership",
      "outputs": [],
      "stateMutability": "nonpayable",
      "type": "function"
    },
    {
      "inputs": [
        {
          "internalType": "uint256",
          "name": "_index",
          "type": "uint256"
        },
        {
          "internalType": "address",
          "name": "_to",
          "type": "address"
        },
        {
          "internalType": "bool",
          "name": "_isYTVault",
          "type": "bool"
        }
      ],
      "name": "transferVault",
      "outputs": [],
      "stateMutability": "nonpayable",
      "type": "function"
    },
    {
      "inputs": [
        {
          "internalType": "address",
          "name": "_asset",
          "type": "address"
        }
      ],
      "name": "claimRevenue",
      "outputs": [],
      "stateMutability": "nonpayable",
      "type": "function"
    },
    {
      "inputs": [
        {
          "internalType": "address",
          "name": "_FCP",
          "type": "address"
        },
        {
          "internalType": "int256",
          "name": "_bondIn",
          "type": "int256"
        }
      ],
      "name": "claimYTRevenue",
      "outputs": [],
      "stateMutability": "nonpayable",
      "type": "function"
    },
    {
      "inputs": [
        {
          "internalType": "address",
          "name": "_asset",
          "type": "address"
        }
      ],
      "name": "claimRebate",
      "outputs": [],
      "stateMutability": "nonpayable",
      "type": "function"
    },
    {
      "inputs": [
        {
          "internalType": "address",
          "name": "_FCP",
          "type": "address"
        }
      ],
      "name": "claimYTRebate",
      "outputs": [],
      "stateMutability": "nonpayable",
      "type": "function"
    }
  ],
  "bytecode": "0x608060405234801561001057600080fd5b50336000806101000a81548173ffffffffffffffffffffffffffffffffffffffff021916908373ffffffffffffffffffffffffffffffffffffffff160217905550612fcd806100606000396000f3fe608060405234801561001057600080fd5b506004361061007d5760003560e01c8063a8bb8bfe1161005b578063a8bb8bfe1461016a578063ac7a12d6146101b8578063b6956942146101fc578063f2fde38b146102405761007d565b8063146bc04e1461008257806366729a99146100c65780638da5cb5b14610120575b600080fd5b6100c46004803603602081101561009857600080fd5b81019080803573ffffffffffffffffffffffffffffffffffffffff169060200190929190505050610284565b005b61011e600480360360608110156100dc57600080fd5b8101908080359060200190929190803573ffffffffffffffffffffffffffffffffffffffff16906020019092919080351515906020019092919050505061042e565b005b610128610453565b604051808273ffffffffffffffffffffffffffffffffffffffff1673ffffffffffffffffffffffffffffffffffffffff16815260200191505060405180910390f35b6101b66004803603604081101561018057600080fd5b81019080803573ffffffffffffffffffffffffffffffffffffffff16906020019092919080359060200190929190505050610478565b005b6101fa600480360360208110156101ce57600080fd5b81019080803573ffffffffffffffffffffffffffffffffffffffff169060200190929190505050610c8e565b005b61023e6004803603602081101561021257600080fd5b81019080803573ffffffffffffffffffffffffffffffffffffffff169060200190929190505050610f78565b005b6102826004803603602081101561025657600080fd5b81019080803573ffffffffffffffffffffffffffffffffffffffff16906020019092919050505061136a565b005b6000600260003373ffffffffffffffffffffffffffffffffffffffff1673ffffffffffffffffffffffffffffffffffffffff16815260200190815260200160002060008373ffffffffffffffffffffffffffffffffffffffff1673ffffffffffffffffffffffffffffffffffffffff1681526020019081526020016000205490507f7fffffffffffffffffffffffffffffffffffffffffffffffffffffffffffffff81111561033257600080fd5b600080600061036385600a60009054906101000a900473ffffffffffffffffffffffffffffffffffffffff166114a4565b9350935093505061039533858773ffffffffffffffffffffffffffffffffffffffff166117d19092919063ffffffff16565b6103a760003385858589600003611889565b600260003373ffffffffffffffffffffffffffffffffffffffff1673ffffffffffffffffffffffffffffffffffffffff16815260200190815260200160002060008673ffffffffffffffffffffffffffffffffffffffff1673ffffffffffffffffffffffffffffffffffffffff168152602001908152602001600020600090555050505050565b80156104435761043e8383611aa7565b61044e565b61044d8383612044565b5b505050565b6000809054906101000a900473ffffffffffffffffffffffffffffffffffffffff1681565b7fffffffffffffffffffffffffffffffffffffffffffffffffffffffffffffffff81136104a457600080fd5b6000600a60009054906101000a900473ffffffffffffffffffffffffffffffffffffffff16905060008373ffffffffffffffffffffffffffffffffffffffff1663ac210cc76040518163ffffffff1660e01b815260040160206040518083038186803b15801561051357600080fd5b505afa158015610527573d6000803e3d6000fd5b505050506040513d602081101561053d57600080fd5b81019080805190602001909291905050509050610558612d97565b600460008673ffffffffffffffffffffffffffffffffffffffff1673ffffffffffffffffffffffffffffffffffffffff16815260200190815260200160002060405180604001604052908160008201548152602001600182015481525050905060008373ffffffffffffffffffffffffffffffffffffffff1663489e09516040518163ffffffff1660e01b815260040160206040518083038186803b15801561060057600080fd5b505afa158015610614573d6000803e3d6000fd5b505050506040513d602081101561062a57600080fd5b810190808051906020019092919050505090508573ffffffffffffffffffffffffffffffffffffffff1663fc2807f133876040518363ffffffff1660e01b8152600401808373ffffffffffffffffffffffffffffffffffffffff1673ffffffffffffffffffffffffffffffffffffffff16815260200182815260200192505050600060405180830381600087803b1580156106c457600080fd5b505af11580156106d8573d6000803e3d6000fd5b505050508373ffffffffffffffffffffffffffffffffffffffff16637348c8576040518163ffffffff1660e01b815260040160206040518083038186803b15801561072257600080fd5b505afa158015610736573d6000803e3d6000fd5b505050506040513d602081101561074c57600080fd5b81019080805190602001909291905050501561090757600060018360000151901c90506000600261078a88866020015161254790919063ffffffff16565b8161079157fe5b0590508773ffffffffffffffffffffffffffffffffffffffff16636a68d0c38484846040518463ffffffff1660e01b8152600401808473ffffffffffffffffffffffffffffffffffffffff1673ffffffffffffffffffffffffffffffffffffffff1681526020018381526020018281526020019350505050600060405180830381600087803b15801561082357600080fd5b505af1158015610837573d6000803e3d6000fd5b505050508773ffffffffffffffffffffffffffffffffffffffff16636a68d0c33384876000015103846108778c8a6020015161254790919063ffffffff16565b036040518463ffffffff1660e01b8152600401808473ffffffffffffffffffffffffffffffffffffffff1673ffffffffffffffffffffffffffffffffffffffff1681526020018381526020018281526020019350505050600060405180830381600087803b1580156108e857600080fd5b505af11580156108fc573d6000803e3d6000fd5b5050505050506109c9565b8573ffffffffffffffffffffffffffffffffffffffff16636a68d0c333846000015161094089876020015161254790919063ffffffff16565b6040518463ffffffff1660e01b8152600401808473ffffffffffffffffffffffffffffffffffffffff1673ffffffffffffffffffffffffffffffffffffffff1681526020018381526020018281526020019350505050600060405180830381600087803b1580156109b057600080fd5b505af11580156109c4573d6000803e3d6000fd5b505050505b6109d1612d97565b600560008873ffffffffffffffffffffffffffffffffffffffff1673ffffffffffffffffffffffffffffffffffffffff168152602001908152602001600020604051806040016040529081600082015481526020016001820154815250509050610a39612d97565b6040518060400160405280610a5f846000015187600001516125d590919063ffffffff16565b8152602001610a7f8460200151876020015161261f90919063ffffffff16565b815250905060008260000151141580610a9d57506000826020015114155b15610b32576000610ae37fffffffffffffffffffffffffffffffffffffffffffffffffffffffffffffffff610ad585600001516126ad565b61272f90919063ffffffff16565b90506000610b1e7fffffffffffffffffffffffffffffffffffffffffffffffffffffffffffffffff856020015161272f90919063ffffffff16565b9050610b2f6001338c8a8686612859565b50505b60008160000151141580610b4b57506000816020015114155b15610be0576000610b917fffffffffffffffffffffffffffffffffffffffffffffffffffffffffffffffff610b8384600001516126ad565b61272f90919063ffffffff16565b90506000610bcc7fffffffffffffffffffffffffffffffffffffffffffffffffffffffffffffffff846020015161272f90919063ffffffff16565b9050610bdd6001868c8a8686612859565b50505b600460008973ffffffffffffffffffffffffffffffffffffffff1673ffffffffffffffffffffffffffffffffffffffff16815260200190815260200160002060008082016000905560018201600090555050600560008973ffffffffffffffffffffffffffffffffffffffff1673ffffffffffffffffffffffffffffffffffffffff168152602001908152602001600020600080820160009055600182016000905550505050505050505050565b610c96612d97565b600360003373ffffffffffffffffffffffffffffffffffffffff1673ffffffffffffffffffffffffffffffffffffffff16815260200190815260200160002060008373ffffffffffffffffffffffffffffffffffffffff1673ffffffffffffffffffffffffffffffffffffffff1681526020019081526020016000206040518060400160405290816000820154815260200160018201548152505090507f7fffffffffffffffffffffffffffffffffffffffffffffffffffffffffffffff81600001511115610d6457600080fd5b8173ffffffffffffffffffffffffffffffffffffffff16636a68d0c333836000015184602001516040518463ffffffff1660e01b8152600401808473ffffffffffffffffffffffffffffffffffffffff1673ffffffffffffffffffffffffffffffffffffffff1681526020018381526020018281526020019350505050600060405180830381600087803b158015610dfb57600080fd5b505af1158015610e0f573d6000803e3d6000fd5b5050505060008273ffffffffffffffffffffffffffffffffffffffff1663ac210cc76040518163ffffffff1660e01b815260040160206040518083038186803b158015610e5b57600080fd5b505afa158015610e6f573d6000803e3d6000fd5b505050506040513d6020811015610e8557600080fd5b81019080805190602001909291905050509050610ee460003385848660000151600003610edf7fffffffffffffffffffffffffffffffffffffffffffffffffffffffffffffffff896020015161272f90919063ffffffff16565b612859565b600360003373ffffffffffffffffffffffffffffffffffffffff1673ffffffffffffffffffffffffffffffffffffffff16815260200190815260200160002060008473ffffffffffffffffffffffffffffffffffffffff1673ffffffffffffffffffffffffffffffffffffffff16815260200190815260200160002060008082016000905560018201600090555050505050565b6000600660008373ffffffffffffffffffffffffffffffffffffffff1673ffffffffffffffffffffffffffffffffffffffff1681526020019081526020016000205490506000600182901c90506000600a60009054906101000a900473ffffffffffffffffffffffffffffffffffffffff16905060008173ffffffffffffffffffffffffffffffffffffffff1663489e09516040518163ffffffff1660e01b815260040160206040518083038186803b15801561103457600080fd5b505afa158015611048573d6000803e3d6000fd5b505050506040513d602081101561105e57600080fd5b810190808051906020019092919050505090508173ffffffffffffffffffffffffffffffffffffffff16637348c8576040518163ffffffff1660e01b815260040160206040518083038186803b1580156110b757600080fd5b505afa1580156110cb573d6000803e3d6000fd5b505050506040513d60208110156110e157600080fd5b8101908080519060200190929190505050156111545761112281848773ffffffffffffffffffffffffffffffffffffffff166117d19092919063ffffffff16565b61114f338486038773ffffffffffffffffffffffffffffffffffffffff166117d19092919063ffffffff16565b611180565b61117f33858773ffffffffffffffffffffffffffffffffffffffff166117d19092919063ffffffff16565b5b600080600061118f88866114a4565b93509350935050600160038111156111a357fe5b8360038111156111af57fe5b14806111d15750600260038111156111c357fe5b8360038111156111cf57fe5b145b156112da576000600760008a73ffffffffffffffffffffffffffffffffffffffff1673ffffffffffffffffffffffffffffffffffffffff168152602001908152602001600020549050600061122f828a6125d590919063ffffffff16565b905060008111156112845761128360018787878761127e7fffffffffffffffffffffffffffffffffffffffffffffffffffffffffffffffff611270896126ad565b61272f90919063ffffffff16565b611889565b5b60008211156112d7576112d66000338787876112d17fffffffffffffffffffffffffffffffffffffffffffffffffffffffffffffffff6112c38a6126ad565b61272f90919063ffffffff16565b611889565b5b50505b600660008973ffffffffffffffffffffffffffffffffffffffff1673ffffffffffffffffffffffffffffffffffffffff16815260200190815260200160002060009055600760008973ffffffffffffffffffffffffffffffffffffffff1673ffffffffffffffffffffffffffffffffffffffff168152602001908152602001600020600090555050505050505050565b6000809054906101000a900473ffffffffffffffffffffffffffffffffffffffff1673ffffffffffffffffffffffffffffffffffffffff163373ffffffffffffffffffffffffffffffffffffffff161461142c576040517f08c379a000000000000000000000000000000000000000000000000000000000815260040180806020018281038252600a8152602001807f6f6e6c79206f776e65720000000000000000000000000000000000000000000081525060200191505060405180910390fd5b600073ffffffffffffffffffffffffffffffffffffffff168173ffffffffffffffffffffffffffffffffffffffff16146114a157806000806101000a81548173ffffffffffffffffffffffffffffffffffffffff021916908373ffffffffffffffffffffffffffffffffffffffff1602179055505b50565b6000806000808473ffffffffffffffffffffffffffffffffffffffff16632c79351b30886040518363ffffffff1660e01b8152600401808373ffffffffffffffffffffffffffffffffffffffff1673ffffffffffffffffffffffffffffffffffffffff1681526020018273ffffffffffffffffffffffffffffffffffffffff1673ffffffffffffffffffffffffffffffffffffffff1681526020019250505060206040518083038186803b15801561155b57600080fd5b505afa15801561156f573d6000803e3d6000fd5b505050506040513d602081101561158557600080fd5b81019080805190602001909291905050509350600073ffffffffffffffffffffffffffffffffffffffff168473ffffffffffffffffffffffffffffffffffffffff161415611781578573ffffffffffffffffffffffffffffffffffffffff166362af375b6040518163ffffffff1660e01b815260040160206040518083038186803b15801561161357600080fd5b505afa158015611627573d6000803e3d6000fd5b505050506040513d602081101561163d57600080fd5b810190808051906020019092919050505091508473ffffffffffffffffffffffffffffffffffffffff1663e5af6df330846040518363ffffffff1660e01b8152600401808373ffffffffffffffffffffffffffffffffffffffff1673ffffffffffffffffffffffffffffffffffffffff1681526020018273ffffffffffffffffffffffffffffffffffffffff1673ffffffffffffffffffffffffffffffffffffffff1681526020019250505060206040518083038186803b15801561170157600080fd5b505afa158015611715573d6000803e3d6000fd5b505050506040513d602081101561172b57600080fd5b81019080805190602001909291905050509050600073ffffffffffffffffffffffffffffffffffffffff168173ffffffffffffffffffffffffffffffffffffffff16141561177857600080fd5b600292506117c8565b600173ffffffffffffffffffffffffffffffffffffffff168473ffffffffffffffffffffffffffffffffffffffff1614156117bf57600092506117c7565b859050600192505b5b92959194509250565b6118848363a9059cbb60e01b8484604051602401808373ffffffffffffffffffffffffffffffffffffffff1673ffffffffffffffffffffffffffffffffffffffff16815260200182815260200192505050604051602081830303815290604052907bffffffffffffffffffffffffffffffffffffffffffffffffffffffff19166020820180517bffffffffffffffffffffffffffffffffffffffffffffffffffffffff8381831617835250505050612948565b505050565b6001600381111561189657fe5b8460038111156118a257fe5b1415611996578173ffffffffffffffffffffffffffffffffffffffff16637c9dd789878760008560006040518663ffffffff1660e01b815260040180861515151581526020018573ffffffffffffffffffffffffffffffffffffffff1673ffffffffffffffffffffffffffffffffffffffff1681526020018473ffffffffffffffffffffffffffffffffffffffff1673ffffffffffffffffffffffffffffffffffffffff16815260200183815260200182815260200195505050505050600060405180830381600087803b15801561197957600080fd5b505af115801561198d573d6000803e3d6000fd5b50505050611a9f565b600260038111156119a357fe5b8460038111156119af57fe5b1415611a9e578173ffffffffffffffffffffffffffffffffffffffff16637c9dd7898787866000866040518663ffffffff1660e01b815260040180861515151581526020018573ffffffffffffffffffffffffffffffffffffffff1673ffffffffffffffffffffffffffffffffffffffff1681526020018473ffffffffffffffffffffffffffffffffffffffff1673ffffffffffffffffffffffffffffffffffffffff16815260200183815260200182815260200195505050505050600060405180830381600087803b158015611a8557600080fd5b505af1158015611a99573d6000803e3d6000fd5b505050505b5b505050505050565b81600960003373ffffffffffffffffffffffffffffffffffffffff1673ffffffffffffffffffffffffffffffffffffffff1681526020019081526020016000208054905011611af557600080fd5b611afd612db1565b600960003373ffffffffffffffffffffffffffffffffffffffff1673ffffffffffffffffffffffffffffffffffffffff1681526020019081526020016000208381548110611b4757fe5b9060005260206000209060070201604051806101000160405290816000820160009054906101000a900473ffffffffffffffffffffffffffffffffffffffff1673ffffffffffffffffffffffffffffffffffffffff1673ffffffffffffffffffffffffffffffffffffffff1681526020016001820160009054906101000a900473ffffffffffffffffffffffffffffffffffffffff1673ffffffffffffffffffffffffffffffffffffffff1673ffffffffffffffffffffffffffffffffffffffff168152602001600282015481526020016003820154815260200160048201548152602001600582015481526020016006820160009054906101000a900467ffffffffffffffff1667ffffffffffffffff1667ffffffffffffffff1681526020016006820160089054906101000a900467ffffffffffffffff1667ffffffffffffffff1667ffffffffffffffff168152505090507f7fffffffffffffffffffffffffffffffffffffffffffffffffffffffffffffff81604001511115611ccc57600080fd5b6000816000015173ffffffffffffffffffffffffffffffffffffffff1663ac210cc76040518163ffffffff1660e01b815260040160206040518083038186803b158015611d1857600080fd5b505afa158015611d2c573d6000803e3d6000fd5b505050506040513d6020811015611d4257600080fd5b81019080805190602001909291905050509050611da56001338460000151848660400151600003611da07fffffffffffffffffffffffffffffffffffffffffffffffffffffffffffffffff896060015161272f90919063ffffffff16565b612859565b611dc060008484600001518486604001518760600151612859565b600960008473ffffffffffffffffffffffffffffffffffffffff1673ffffffffffffffffffffffffffffffffffffffff16815260200190815260200160002082908060018154018082558091505060019003906000526020600020906007020160009091909190915060008201518160000160006101000a81548173ffffffffffffffffffffffffffffffffffffffff021916908373ffffffffffffffffffffffffffffffffffffffff16021790555060208201518160010160006101000a81548173ffffffffffffffffffffffffffffffffffffffff021916908373ffffffffffffffffffffffffffffffffffffffff16021790555060408201518160020155606082015181600301556080820151816004015560a0820151816005015560c08201518160060160006101000a81548167ffffffffffffffff021916908367ffffffffffffffff16021790555060e08201518160060160086101000a81548167ffffffffffffffff021916908367ffffffffffffffff1602179055505050600960003373ffffffffffffffffffffffffffffffffffffffff1673ffffffffffffffffffffffffffffffffffffffff1681526020019081526020016000208481548110611f8957fe5b9060005260206000209060070201600080820160006101000a81549073ffffffffffffffffffffffffffffffffffffffff02191690556001820160006101000a81549073ffffffffffffffffffffffffffffffffffffffff021916905560028201600090556003820160009055600482016000905560058201600090556006820160006101000a81549067ffffffffffffffff02191690556006820160086101000a81549067ffffffffffffffff0219169055505050505050565b81600860003373ffffffffffffffffffffffffffffffffffffffff1673ffffffffffffffffffffffffffffffffffffffff168152602001908152602001600020805490501161209257600080fd5b61209a612e36565b600860003373ffffffffffffffffffffffffffffffffffffffff1673ffffffffffffffffffffffffffffffffffffffff16815260200190815260200160002083815481106120e457fe5b90600052602060002090600602016040518060e00160405290816000820160009054906101000a900473ffffffffffffffffffffffffffffffffffffffff1673ffffffffffffffffffffffffffffffffffffffff1673ffffffffffffffffffffffffffffffffffffffff1681526020016001820160009054906101000a900473ffffffffffffffffffffffffffffffffffffffff1673ffffffffffffffffffffffffffffffffffffffff1673ffffffffffffffffffffffffffffffffffffffff1681526020016002820154815260200160038201548152602001600482015481526020016005820160009054906101000a900467ffffffffffffffff1667ffffffffffffffff1667ffffffffffffffff1681526020016005820160089054906101000a900467ffffffffffffffff1667ffffffffffffffff1667ffffffffffffffff16815250509050600860008373ffffffffffffffffffffffffffffffffffffffff1673ffffffffffffffffffffffffffffffffffffffff16815260200190815260200160002081908060018154018082558091505060019003906000526020600020906006020160009091909190915060008201518160000160006101000a81548173ffffffffffffffffffffffffffffffffffffffff021916908373ffffffffffffffffffffffffffffffffffffffff16021790555060208201518160010160006101000a81548173ffffffffffffffffffffffffffffffffffffffff021916908373ffffffffffffffffffffffffffffffffffffffff16021790555060408201518160020155606082015181600301556080820151816004015560a08201518160050160006101000a81548167ffffffffffffffff021916908367ffffffffffffffff16021790555060c08201518160050160086101000a81548167ffffffffffffffff021916908367ffffffffffffffff160217905550505060008160400151111561244b5760008060006123e48460000151600a60009054906101000a900473ffffffffffffffffffffffffffffffffffffffff166114a4565b935093509350507f7fffffffffffffffffffffffffffffffffffffffffffffffffffffffffffffff8460400151111561241c57600080fd5b60008460400151905061243760013386868686600003611889565b61244660008786868686611889565b505050505b600860003373ffffffffffffffffffffffffffffffffffffffff1673ffffffffffffffffffffffffffffffffffffffff168152602001908152602001600020838154811061249557fe5b9060005260206000209060060201600080820160006101000a81549073ffffffffffffffffffffffffffffffffffffffff02191690556001820160006101000a81549073ffffffffffffffffffffffffffffffffffffffff02191690556002820160009055600382016000905560048201600090556005820160006101000a81549067ffffffffffffffff02191690556005820160086101000a81549067ffffffffffffffff02191690555050505050565b6000808284019050600083121580156125605750838112155b80612576575060008312801561257557508381125b5b6125cb576040517f08c379a0000000000000000000000000000000000000000000000000000000008152600401808060200182810382526021815260200180612eb46021913960400191505060405180910390fd5b8091505092915050565b600061261783836040518060400160405280601e81526020017f536166654d6174683a207375627472616374696f6e206f766572666c6f770000815250612a37565b905092915050565b6000808284039050600083121580156126385750838113155b8061264e575060008312801561264d57508381135b5b6126a3576040517f08c379a0000000000000000000000000000000000000000000000000000000008152600401808060200182810382526024815260200180612f4a6024913960400191505060405180910390fd5b8091505092915050565b60007fffffffffffffffffffffffffffffffffffffffffffffffffffffffffffffffff829150811361272a576040517f08c379a0000000000000000000000000000000000000000000000000000000008152600401808060200182810382526028815260200180612efb6028913960400191505060405180910390fd5b919050565b6000808314156127425760009050612853565b7fffffffffffffffffffffffffffffffffffffffffffffffffffffffffffffffff8314801561279057507f800000000000000000000000000000000000000000000000000000000000000082145b156127e6576040517f08c379a0000000000000000000000000000000000000000000000000000000008152600401808060200182810382526027815260200180612f236027913960400191505060405180910390fd5b60008284029050828482816127f757fe5b051461284e576040517f08c379a0000000000000000000000000000000000000000000000000000000008152600401808060200182810382526027815260200180612f236027913960400191505060405180910390fd5b809150505b92915050565b8273ffffffffffffffffffffffffffffffffffffffff16637c9dd78987878786866040518663ffffffff1660e01b815260040180861515151581526020018573ffffffffffffffffffffffffffffffffffffffff1673ffffffffffffffffffffffffffffffffffffffff1681526020018473ffffffffffffffffffffffffffffffffffffffff1673ffffffffffffffffffffffffffffffffffffffff16815260200183815260200182815260200195505050505050600060405180830381600087803b15801561292857600080fd5b505af115801561293c573d6000803e3d6000fd5b50505050505050505050565b60606129aa826040518060400160405280602081526020017f5361666545524332303a206c6f772d6c6576656c2063616c6c206661696c65648152508573ffffffffffffffffffffffffffffffffffffffff16612af79092919063ffffffff16565b9050600081511115612a32578080602001905160208110156129cb57600080fd5b8101908080519060200190929190505050612a31576040517f08c379a000000000000000000000000000000000000000000000000000000000815260040180806020018281038252602a815260200180612f6e602a913960400191505060405180910390fd5b5b505050565b6000838311158290612ae4576040517f08c379a00000000000000000000000000000000000000000000000000000000081526004018080602001828103825283818151815260200191508051906020019080838360005b83811015612aa9578082015181840152602081019050612a8e565b50505050905090810190601f168015612ad65780820380516001836020036101000a031916815260200191505b509250505060405180910390fd5b5060008385039050809150509392505050565b6060612b068484600085612b0f565b90509392505050565b606082471015612b6a576040517f08c379a0000000000000000000000000000000000000000000000000000000008152600401808060200182810382526026815260200180612ed56026913960400191505060405180910390fd5b612b7385612cb8565b612be5576040517f08c379a000000000000000000000000000000000000000000000000000000000815260040180806020018281038252601d8152602001807f416464726573733a2063616c6c20746f206e6f6e2d636f6e747261637400000081525060200191505060405180910390fd5b600060608673ffffffffffffffffffffffffffffffffffffffff1685876040518082805190602001908083835b60208310612c355780518252602082019150602081019050602083039250612c12565b6001836020036101000a03801982511681845116808217855250505050505090500191505060006040518083038185875af1925050503d8060008114612c97576040519150601f19603f3d011682016040523d82523d6000602084013e612c9c565b606091505b5091509150612cac828286612ccb565b92505050949350505050565b600080823b905060008111915050919050565b60608315612cdb57829050612d90565b600083511115612cee5782518084602001fd5b816040517f08c379a00000000000000000000000000000000000000000000000000000000081526004018080602001828103825283818151815260200191508051906020019080838360005b83811015612d55578082015181840152602081019050612d3a565b50505050905090810190601f168015612d825780820380516001836020036101000a031916815260200191505b509250505060405180910390fd5b9392505050565b604051806040016040528060008152602001600081525090565b604051806101000160405280600073ffffffffffffffffffffffffffffffffffffffff168152602001600073ffffffffffffffffffffffffffffffffffffffff16815260200160008152602001600081526020016000815260200160008152602001600067ffffffffffffffff168152602001600067ffffffffffffffff1681525090565b6040518060e00160405280600073ffffffffffffffffffffffffffffffffffffffff168152602001600073ffffffffffffffffffffffffffffffffffffffff168152602001600081526020016000815260200160008152602001600067ffffffffffffffff168152602001600067ffffffffffffffff168152509056fe5369676e6564536166654d6174683a206164646974696f6e206f766572666c6f77416464726573733a20696e73756666696369656e742062616c616e636520666f722063616c6c536166654d6174683a20696e76616c69642075696e7420746f20696e7420636f6e76657273696f6e5369676e6564536166654d6174683a206d756c7469706c69636174696f6e206f766572666c6f775369676e6564536166654d6174683a207375627472616374696f6e206f766572666c6f775361666545524332303a204552433230206f7065726174696f6e20646964206e6f742073756363656564a2646970667358221220c54d996024d3aa5a43666d55675f7e089f40a7b5e8b32a1059ddeb537d5f606764736f6c63430006080033",
  "immutableReferences": {},
  "source": "// SPDX-License-Identifier: MIT\npragma solidity >=0.6.8 <0.7.0;\n\nimport \"../../libraries/BigMath.sol\";\nimport \"../../libraries/SafeERC20.sol\";\nimport \"../../libraries/SafeMath.sol\";\nimport \"../../libraries/SignedSafeMath.sol\";\nimport \"../../interfaces/IFixCapitalPool.sol\";\nimport \"../../interfaces/IVaultHealth.sol\";\nimport \"../../interfaces/IInfoOracle.sol\";\nimport \"../../interfaces/IWrapper.sol\";\nimport \"../../interfaces/IERC20.sol\";\nimport \"../../helpers/Ownable.sol\";\nimport \"./DBSFVaultFactoryDelegateParent.sol\";\n\ncontract DBSFVaultFactoryDelegate5 is DBSFVaultFactoryDelegateParent {\n\tusing SafeMath for uint;\n\tusing SignedSafeMath for int;\n\tusing SafeERC20 for IERC20;\n\n\t/*\n\t\t@Description: assign a vault/YTvault to a new owner\n\n\t\t@param uint _index: the index within vaults/YTvaults[msg.sender] at which the vault to transfer is located\n\t\t@param address _to: the new owner of the vault/YTvault\n\t\t@param bool _isYTVault: true when the vault to transfer is a YTvault, false otherwise\n\t*/\n\tfunction transferVault(uint _index, address _to, bool _isYTVault) external {\n\t\tif (_isYTVault) {\n\t\t\ttransferYTVault(_index, _to);\n\t\t}\n\t\telse {\n\t\t\ttransferStandardVault(_index, _to);\n\t\t}\n\t}\n\n\t/*\n\t\t@Description: assign a vault to a new owner\n\n\t\t@param uint _index: the index within vaults[msg.sender] at which the vault to transfer is located\n\t\t@param address _to: the new owner of the vault\n\t*/\n\tfunction transferStandardVault(uint _index, address _to) internal {\n\t\trequire(_vaults[msg.sender].length > _index);\n\t\tVault memory vault = _vaults[msg.sender][_index];\n\t\t_vaults[_to].push(vault);\n\t\tif (vault.amountSupplied > 0) {\n\t\t\t(, SUPPLIED_ASSET_TYPE sType, address baseFCP, address baseWrapper) = suppliedAssetInfo(vault.assetSupplied, IInfoOracle(_infoOracleAddress));\n\t\t\trequire(vault.amountSupplied <= uint(type(int256).max));\n\t\t\tint intSupplied = int(vault.amountSupplied);\n\t\t\teditSubAccountStandardVault(true, msg.sender, sType, baseFCP, baseWrapper, -intSupplied);\n\t\t\t//passing claimRewards:true a second time would needlessly waste gas\n\t\t\teditSubAccountStandardVault(false, _to, sType, baseFCP, baseWrapper, intSupplied);\n\t\t}\n\t\tdelete _vaults[msg.sender][_index];\n\t}\n\n\t/*\n\t\t@Description: assign a YT vault to a new owner\n\n\t\t@param uint _index: the index within YTvaults[msg.sender] at which the YT vault to transfer is located\n\t\t@param address _to: the new owner of the YT vault\n\t*/\n\tfunction transferYTVault(uint _index, address _to) internal {\n\t\trequire(_YTvaults[msg.sender].length > _index);\n\t\tYTVault memory vault = _YTvaults[msg.sender][_index];\n\t\trequire(vault.yieldSupplied <= uint(type(int256).max));\n\t\taddress baseWrapper = address(IFixCapitalPool(vault.FCPsupplied).wrapper());\n\t\teditSubAccountYTVault(true, msg.sender, vault.FCPsupplied, baseWrapper, -int(vault.yieldSupplied), vault.bondSupplied.mul(-1));\n\t\teditSubAccountYTVault(false, _to, vault.FCPsupplied, baseWrapper, int(vault.yieldSupplied), vault.bondSupplied);\n\t\t_YTvaults[_to].push(vault);\n\t\tdelete _YTvaults[msg.sender][_index];\n\t}\n\n\t//--------------------admin-------------------\n\n\t/*\n\t\t@Description: admin may call this function to claim liquidation revenue\n\n\t\t@address _asset: the address of the asset for which to claim revenue\n\t*/\n\tfunction claimRevenue(address _asset) external {\n\t\tuint rev = _revenue[_asset];\n\t\tuint toTreasury = rev >> 1;\n\t\tIInfoOracle iorc = IInfoOracle(_infoOracleAddress);\n\t\taddress treasuryAddr = iorc.sendTo();\n\t\tif (iorc.TreasuryFeeIsCollected()) {\n\t\t\tIERC20(_asset).safeTransfer(treasuryAddr, toTreasury);\n\t\t\tIERC20(_asset).safeTransfer(msg.sender, rev - toTreasury);\n\t\t}\n\t\telse {\n\t\t\tIERC20(_asset).safeTransfer(msg.sender, rev);\n\t\t}\n\t\t(, SUPPLIED_ASSET_TYPE sType, address baseFCP, address baseWrapper) = suppliedAssetInfo(_asset, iorc);\n\n\t\tif (sType == SUPPLIED_ASSET_TYPE.WASSET || sType == SUPPLIED_ASSET_TYPE.ZCB) {\n\n\t\t\tuint ownerSubAcctAmt = _revenueOwnerSubAcct[_asset];\n\t\t\tuint treasurySubAcctAmt = rev.sub(ownerSubAcctAmt);\n\n\t\t\tif (treasurySubAcctAmt > 0) {\n\t\t\t\teditSubAccountStandardVault(true, treasuryAddr, sType, baseFCP, baseWrapper, treasurySubAcctAmt.toInt().mul(-1));\n\t\t\t}\n\t\t\tif (ownerSubAcctAmt > 0) {\n\t\t\t\teditSubAccountStandardVault(false, msg.sender, sType, baseFCP, baseWrapper, ownerSubAcctAmt.toInt().mul(-1));\n\t\t\t}\n\t\t}\n\n\t\tdelete _revenue[_asset];\n\t\tdelete _revenueOwnerSubAcct[_asset];\n\t}\n\n\t/*\n\t\t@Description: admin may call this function to claim YT liquidation revenue\n\n\t\t@param address _FCP: the address of the FCP contract for which to claim revenue\n\t\t@param int _bondIn: the amount of bond to send in to make the transfer position have a\n\t\t\tpositive minimum value at maturity\n\t*/\n\tfunction claimYTRevenue(address _FCP, int _bondIn) external {\n\t\trequire(_bondIn > -1);\n\t\tIInfoOracle iorc = IInfoOracle(_infoOracleAddress);\n\t\tIWrapper wrp = IFixCapitalPool(_FCP).wrapper();\n\t\tYTPosition memory pos = _YTRevenue[_FCP];\n\t\taddress sendTo = iorc.sendTo();\n\t\tIFixCapitalPool(_FCP).burnZCBFrom(msg.sender, uint(_bondIn));\n\t\tif (iorc.TreasuryFeeIsCollected()) {\n\t\t\tuint yieldToTreasury = pos.amountYield >> 1;\n\t\t\tint bondToTreasury = pos.amountBond.add(_bondIn) / 2;\n\t\t\tIFixCapitalPool(_FCP).transferPosition(sendTo, yieldToTreasury, bondToTreasury);\n\t\t\tIFixCapitalPool(_FCP).transferPosition(msg.sender, pos.amountYield - yieldToTreasury, pos.amountBond.add(_bondIn) - bondToTreasury);\n\t\t}\n\t\telse {\n\t\t\tIFixCapitalPool(_FCP).transferPosition(msg.sender, pos.amountYield, pos.amountBond.add(_bondIn));\n\t\t}\n\n\t\tYTPosition memory ownerSubAcctPos = _YTRevenueOwnerSubAcct[_FCP];\n\t\tYTPosition memory treasurySubAcctPos = YTPosition(\n\t\t\tpos.amountYield.sub(ownerSubAcctPos.amountYield),\n\t\t\tpos.amountBond.sub(ownerSubAcctPos.amountBond)\n\t\t);\n\n\t\tif (ownerSubAcctPos.amountYield != 0 || ownerSubAcctPos.amountBond != 0) {\n\t\t\tint changeYield = ownerSubAcctPos.amountYield.toInt().mul(-1);\n\t\t\tint changeBond = ownerSubAcctPos.amountBond.mul(-1);\n\t\t\teditSubAccountYTVault(true, msg.sender, _FCP, address(wrp), changeYield, changeBond);\n\t\t}\n\t\tif (treasurySubAcctPos.amountYield != 0 || treasurySubAcctPos.amountBond != 0) {\n\t\t\tint changeYield = treasurySubAcctPos.amountYield.toInt().mul(-1);\n\t\t\tint changeBond = treasurySubAcctPos.amountBond.mul(-1);\n\t\t\teditSubAccountYTVault(true, sendTo, _FCP, address(wrp), changeYield, changeBond);\n\t\t}\n\n\t\tdelete _YTRevenue[_FCP];\n\t\tdelete _YTRevenueOwnerSubAcct[_FCP];\n\t}\n\n\n\t/*\n\t\t@Description: allows a user to claim the excess collateral that was received as a rebate\n\t\t\twhen their vault(s) were liquidated\n\n\t\t@param address _asset: the address of the asset for which to claim rebated collateral\n\t*/\n\tfunction claimRebate(address _asset) external {\n\t\tuint amt = _liquidationRebates[msg.sender][_asset];\n\t\trequire(amt <= uint(type(int256).max));\n\t\t(, SUPPLIED_ASSET_TYPE sType, address baseFCP, address baseWrapper) = suppliedAssetInfo(_asset, IInfoOracle(_infoOracleAddress));\n\t\tIERC20(_asset).safeTransfer(msg.sender, amt);\n\t\teditSubAccountStandardVault(false, msg.sender, sType, baseFCP, baseWrapper, -int(amt));\n\t\tdelete _liquidationRebates[msg.sender][_asset];\n\t}\n\n\t/*\n\t\t@Description: allows a user to claim the excess collateral that was received as a rebate\n\t\t\twhen their YT vault(s) were liquidated\n\t\n\t\t@param address _FCP: the address of the FCP contract for which to claim the rebate\n\t*/\n\tfunction claimYTRebate(address _FCP) external {\n\t\tYTPosition memory position = _YTLiquidationRebates[msg.sender][_FCP];\n\t\trequire(position.amountYield <= uint(type(int256).max));\n\t\tIFixCapitalPool(_FCP).transferPosition(msg.sender, position.amountYield, position.amountBond);\n\t\taddress baseWrapper = address(IFixCapitalPool(_FCP).wrapper());\n\t\teditSubAccountYTVault(false, msg.sender, _FCP, baseWrapper, -int(position.amountYield), position.amountBond.mul(-1));\n\t\tdelete _YTLiquidationRebates[msg.sender][_FCP];\n\t}\n}",
  "sourcePath": "/home/asher/FixFinanceV1/contracts/VaultFactory/DifferentBaseSF/DBSFVaultFactoryDelegate5.sol",
  "compiler": {
    "name": "solc",
    "version": "0.6.8+commit.0bbfe453.Emscripten.clang"
  },
  "schemaVersion": "3.4.1",
  "updatedAt": "2021-11-26T19:15:55.375Z",
  "devdoc": {
    "methods": {}
  },
  "userdoc": {
    "methods": {}
  }
}