{
  "contractName": "DummyVaultHealth",
  "abi": [
    {
      "inputs": [
        {
          "internalType": "address",
          "name": "",
          "type": "address"
        }
      ],
      "name": "LowerCollateralizationRatio",
      "outputs": [
        {
          "internalType": "uint120",
          "name": "",
          "type": "uint120"
        }
      ],
      "stateMutability": "view",
      "type": "function"
    },
    {
      "inputs": [
        {
          "internalType": "address",
          "name": "",
          "type": "address"
        }
      ],
      "name": "LowerRateThreshold",
      "outputs": [
        {
          "internalType": "uint120",
          "name": "",
          "type": "uint120"
        }
      ],
      "stateMutability": "view",
      "type": "function"
    },
    {
      "inputs": [
        {
          "internalType": "address",
          "name": "",
          "type": "address"
        }
      ],
      "name": "UpperCollateralizationRatio",
      "outputs": [
        {
          "internalType": "uint120",
          "name": "",
          "type": "uint120"
        }
      ],
      "stateMutability": "view",
      "type": "function"
    },
    {
      "inputs": [
        {
          "internalType": "address",
          "name": "",
          "type": "address"
        }
      ],
      "name": "UpperRateThreshold",
      "outputs": [
        {
          "internalType": "uint120",
          "name": "",
          "type": "uint120"
        }
      ],
      "stateMutability": "view",
      "type": "function"
    },
    {
      "inputs": [
        {
          "internalType": "address",
          "name": "",
          "type": "address"
        },
        {
          "internalType": "address",
          "name": "",
          "type": "address"
        }
      ],
      "name": "lowerRatio",
      "outputs": [
        {
          "internalType": "uint256",
          "name": "",
          "type": "uint256"
        }
      ],
      "stateMutability": "view",
      "type": "function"
    },
    {
      "inputs": [
        {
          "internalType": "address",
          "name": "",
          "type": "address"
        }
      ],
      "name": "maximumShortInterest",
      "outputs": [
        {
          "internalType": "uint256",
          "name": "",
          "type": "uint256"
        }
      ],
      "stateMutability": "view",
      "type": "function"
    },
    {
      "inputs": [
        {
          "internalType": "address",
          "name": "",
          "type": "address"
        },
        {
          "internalType": "address",
          "name": "",
          "type": "address"
        }
      ],
      "name": "middleRatio",
      "outputs": [
        {
          "internalType": "uint256",
          "name": "",
          "type": "uint256"
        }
      ],
      "stateMutability": "view",
      "type": "function"
    },
    {
      "inputs": [
        {
          "internalType": "address",
          "name": "",
          "type": "address"
        },
        {
          "internalType": "address",
          "name": "",
          "type": "address"
        }
      ],
      "name": "upperRatio",
      "outputs": [
        {
          "internalType": "uint256",
          "name": "",
          "type": "uint256"
        }
      ],
      "stateMutability": "view",
      "type": "function"
    },
    {
      "inputs": [
        {
          "internalType": "address",
          "name": "_assetSupplied",
          "type": "address"
        },
        {
          "internalType": "address",
          "name": "_assetBorrowed",
          "type": "address"
        },
        {
          "internalType": "uint256",
          "name": "_amountSupplied",
          "type": "uint256"
        },
        {
          "internalType": "uint256",
          "name": "_amountBorrowed",
          "type": "uint256"
        }
      ],
      "name": "satisfiesUpperLimit",
      "outputs": [
        {
          "internalType": "bool",
          "name": "",
          "type": "bool"
        }
      ],
      "stateMutability": "view",
      "type": "function"
    },
    {
      "inputs": [
        {
          "internalType": "address",
          "name": "_assetSupplied",
          "type": "address"
        },
        {
          "internalType": "address",
          "name": "_assetBorrowed",
          "type": "address"
        },
        {
          "internalType": "uint256",
          "name": "_amountSupplied",
          "type": "uint256"
        },
        {
          "internalType": "uint256",
          "name": "_amountBorrowed",
          "type": "uint256"
        }
      ],
      "name": "satisfiesLowerLimit",
      "outputs": [
        {
          "internalType": "bool",
          "name": "",
          "type": "bool"
        }
      ],
      "stateMutability": "view",
      "type": "function"
    },
    {
      "inputs": [
        {
          "internalType": "address",
          "name": "_assetSupplied",
          "type": "address"
        },
        {
          "internalType": "address",
          "name": "_assetBorrowed",
          "type": "address"
        },
        {
          "internalType": "uint256",
          "name": "_amountBorrowed",
          "type": "uint256"
        }
      ],
      "name": "amountSuppliedAtUpperLimit",
      "outputs": [
        {
          "internalType": "uint256",
          "name": "",
          "type": "uint256"
        }
      ],
      "stateMutability": "view",
      "type": "function"
    },
    {
      "inputs": [
        {
          "internalType": "address",
          "name": "_assetSupplied",
          "type": "address"
        },
        {
          "internalType": "address",
          "name": "_assetBorrowed",
          "type": "address"
        },
        {
          "internalType": "uint256",
          "name": "_amountBorrowed",
          "type": "uint256"
        }
      ],
      "name": "amountSuppliedAtLowerLimit",
      "outputs": [
        {
          "internalType": "uint256",
          "name": "",
          "type": "uint256"
        }
      ],
      "stateMutability": "view",
      "type": "function"
    },
    {
      "inputs": [
        {
          "internalType": "address",
          "name": "_assetSupplied",
          "type": "address"
        },
        {
          "internalType": "address",
          "name": "_assetBorrowed",
          "type": "address"
        },
        {
          "internalType": "uint256",
          "name": "_amountSupplied",
          "type": "uint256"
        }
      ],
      "name": "amountBorrowedAtUpperLimit",
      "outputs": [
        {
          "internalType": "uint256",
          "name": "",
          "type": "uint256"
        }
      ],
      "stateMutability": "view",
      "type": "function"
    },
    {
      "inputs": [
        {
          "internalType": "address",
          "name": "_assetSupplied",
          "type": "address"
        },
        {
          "internalType": "address",
          "name": "_assetBorrowed",
          "type": "address"
        },
        {
          "internalType": "uint256",
          "name": "_amountSupplied",
          "type": "uint256"
        }
      ],
      "name": "amountBorrowedAtLowerLimit",
      "outputs": [
        {
          "internalType": "uint256",
          "name": "",
          "type": "uint256"
        }
      ],
      "stateMutability": "view",
      "type": "function"
    },
    {
      "inputs": [
        {
          "internalType": "address",
          "name": "_FCPsupplied",
          "type": "address"
        },
        {
          "internalType": "address",
          "name": "_FCPborrowed",
          "type": "address"
        },
        {
          "internalType": "uint256",
          "name": "_amountYield",
          "type": "uint256"
        },
        {
          "internalType": "int256",
          "name": "_amountBond",
          "type": "int256"
        }
      ],
      "name": "YTvaultAmountBorrowedAtUpperLimit",
      "outputs": [
        {
          "internalType": "uint256",
          "name": "",
          "type": "uint256"
        }
      ],
      "stateMutability": "view",
      "type": "function"
    },
    {
      "inputs": [
        {
          "internalType": "address",
          "name": "_FCPsupplied",
          "type": "address"
        },
        {
          "internalType": "address",
          "name": "_FCPborrowed",
          "type": "address"
        },
        {
          "internalType": "uint256",
          "name": "_amountYield",
          "type": "uint256"
        },
        {
          "internalType": "int256",
          "name": "_amountBond",
          "type": "int256"
        }
      ],
      "name": "YTvaultAmountBorrowedAtLowerLimit",
      "outputs": [
        {
          "internalType": "uint256",
          "name": "",
          "type": "uint256"
        }
      ],
      "stateMutability": "view",
      "type": "function"
    },
    {
      "inputs": [
        {
          "internalType": "address",
          "name": "_FCPsupplied",
          "type": "address"
        },
        {
          "internalType": "address",
          "name": "_FCPborrowed",
          "type": "address"
        },
        {
          "internalType": "uint256",
          "name": "_amountYield",
          "type": "uint256"
        },
        {
          "internalType": "int256",
          "name": "_amountBond",
          "type": "int256"
        },
        {
          "internalType": "uint256",
          "name": "_amountBorrowed",
          "type": "uint256"
        }
      ],
      "name": "YTvaultSatisfiesUpperLimit",
      "outputs": [
        {
          "internalType": "bool",
          "name": "",
          "type": "bool"
        }
      ],
      "stateMutability": "view",
      "type": "function"
    },
    {
      "inputs": [
        {
          "internalType": "address",
          "name": "_FCPsupplied",
          "type": "address"
        },
        {
          "internalType": "address",
          "name": "_FCPborrowed",
          "type": "address"
        },
        {
          "internalType": "uint256",
          "name": "_amountYield",
          "type": "uint256"
        },
        {
          "internalType": "int256",
          "name": "_amountBond",
          "type": "int256"
        },
        {
          "internalType": "uint256",
          "name": "_amountBorrowed",
          "type": "uint256"
        }
      ],
      "name": "YTvaultSatisfiesLowerLimit",
      "outputs": [
        {
          "internalType": "bool",
          "name": "",
          "type": "bool"
        }
      ],
      "stateMutability": "view",
      "type": "function"
    },
    {
      "inputs": [
        {
          "internalType": "address",
          "name": "_underlyingAssetAddress",
          "type": "address"
        }
      ],
      "name": "upperMinimumRateAdjustment",
      "outputs": [
        {
          "internalType": "uint120",
          "name": "",
          "type": "uint120"
        }
      ],
      "stateMutability": "view",
      "type": "function"
    },
    {
      "inputs": [
        {
          "internalType": "address",
          "name": "_underlyingAssetAddress",
          "type": "address"
        }
      ],
      "name": "lowerMinimumRateAdjustment",
      "outputs": [
        {
          "internalType": "uint120",
          "name": "",
          "type": "uint120"
        }
      ],
      "stateMutability": "view",
      "type": "function"
    },
    {
      "inputs": [
        {
          "internalType": "bool",
          "name": "_toReturn",
          "type": "bool"
        }
      ],
      "name": "setToReturn",
      "outputs": [],
      "stateMutability": "nonpayable",
      "type": "function"
    },
    {
      "inputs": [
        {
          "internalType": "bool",
          "name": "_reqSameBase",
          "type": "bool"
        },
        {
          "internalType": "address",
          "name": "_assetSupplied",
          "type": "address"
        },
        {
          "internalType": "address",
          "name": "_assetBorrowed",
          "type": "address"
        },
        {
          "internalType": "uint256",
          "name": "_amountSupplied",
          "type": "uint256"
        },
        {
          "internalType": "uint256",
          "name": "_amountBorrowed",
          "type": "uint256"
        },
        {
          "internalType": "uint256",
          "name": "_pctPriceChange",
          "type": "uint256"
        },
        {
          "internalType": "int128",
          "name": "_suppliedRateChange",
          "type": "int128"
        },
        {
          "internalType": "int128",
          "name": "_borrowRateChange",
          "type": "int128"
        }
      ],
      "name": "vaultWithstandsChange",
      "outputs": [
        {
          "internalType": "bool",
          "name": "",
          "type": "bool"
        }
      ],
      "stateMutability": "view",
      "type": "function"
    },
    {
      "inputs": [
        {
          "internalType": "bool",
          "name": "_reqSameBase",
          "type": "bool"
        },
        {
          "internalType": "address",
          "name": "_FCPsupplied",
          "type": "address"
        },
        {
          "internalType": "address",
          "name": "_FCPborrowed",
          "type": "address"
        },
        {
          "internalType": "uint256",
          "name": "_amountYield",
          "type": "uint256"
        },
        {
          "internalType": "int256",
          "name": "_amountBond",
          "type": "int256"
        },
        {
          "internalType": "uint256",
          "name": "_amountBorrowed",
          "type": "uint256"
        },
        {
          "internalType": "uint256",
          "name": "_pctPriceChange",
          "type": "uint256"
        },
        {
          "internalType": "int128",
          "name": "_suppliedRateChange",
          "type": "int128"
        },
        {
          "internalType": "int128",
          "name": "_borrowRateChange",
          "type": "int128"
        }
      ],
      "name": "YTvaultWithstandsChange",
      "outputs": [
        {
          "internalType": "bool",
          "name": "",
          "type": "bool"
        }
      ],
      "stateMutability": "view",
      "type": "function"
    },
    {
      "inputs": [
        {
          "internalType": "address",
          "name": "_assetSupplied",
          "type": "address"
        },
        {
          "internalType": "address",
          "name": "_assetBorrowed",
          "type": "address"
        },
        {
          "internalType": "uint256",
          "name": "_ratio",
          "type": "uint256"
        }
      ],
      "name": "setUpper",
      "outputs": [],
      "stateMutability": "nonpayable",
      "type": "function"
    },
    {
      "inputs": [
        {
          "internalType": "address",
          "name": "_assetSupplied",
          "type": "address"
        },
        {
          "internalType": "address",
          "name": "_assetBorrowed",
          "type": "address"
        },
        {
          "internalType": "uint256",
          "name": "_ratio",
          "type": "uint256"
        }
      ],
      "name": "setMiddle",
      "outputs": [],
      "stateMutability": "nonpayable",
      "type": "function"
    },
    {
      "inputs": [
        {
          "internalType": "address",
          "name": "_assetSupplied",
          "type": "address"
        },
        {
          "internalType": "address",
          "name": "_assetBorrowed",
          "type": "address"
        },
        {
          "internalType": "uint256",
          "name": "_ratio",
          "type": "uint256"
        }
      ],
      "name": "setLower",
      "outputs": [],
      "stateMutability": "nonpayable",
      "type": "function"
    },
    {
      "inputs": [
        {
          "internalType": "address",
          "name": "_underlyingAssetAddress",
          "type": "address"
        },
        {
          "internalType": "uint256",
          "name": "_maximumShortInterest",
          "type": "uint256"
        }
      ],
      "name": "setMaximumShortInterest",
      "outputs": [],
      "stateMutability": "nonpayable",
      "type": "function"
    },
    {
      "inputs": [
        {
          "internalType": "address",
          "name": "_underlyingAssetAddress",
          "type": "address"
        },
        {
          "internalType": "uint120",
          "name": "_upper",
          "type": "uint120"
        },
        {
          "internalType": "uint120",
          "name": "_lower",
          "type": "uint120"
        }
      ],
      "name": "setCollateralizationRatios",
      "outputs": [],
      "stateMutability": "nonpayable",
      "type": "function"
    },
    {
      "inputs": [
        {
          "internalType": "address",
          "name": "_underlyingAssetAddress",
          "type": "address"
        },
        {
          "internalType": "uint120",
          "name": "_upper",
          "type": "uint120"
        },
        {
          "internalType": "uint120",
          "name": "_lower",
          "type": "uint120"
        }
      ],
      "name": "setRateThresholds",
      "outputs": [],
      "stateMutability": "nonpayable",
      "type": "function"
    },
    {
      "inputs": [
        {
          "internalType": "address",
          "name": "_organizerAddress",
          "type": "address"
        }
      ],
      "name": "setOrganizerAddress",
      "outputs": [],
      "stateMutability": "nonpayable",
      "type": "function"
    },
    {
      "inputs": [
        {
          "internalType": "address",
          "name": "_wrapperAddress",
          "type": "address"
        },
        {
          "internalType": "uint120",
          "name": "_upper",
          "type": "uint120"
        },
        {
          "internalType": "uint120",
          "name": "_lower",
          "type": "uint120"
        }
      ],
      "name": "setMinimumRateAdjustments",
      "outputs": [],
      "stateMutability": "nonpayable",
      "type": "function"
    }
  ],
  "bytecode": "0x608060405234801561001057600080fd5b5061202c806100206000396000f3fe608060405234801561001057600080fd5b50600436106101e55760003560e01c8063786044121161010f578063bd0013dd116100a2578063df7b312711610071578063df7b312714610ef3578063eafb2c0d14610f41578063eba08e8b1461100c578063f23f80aa14611086576101e5565b8063bd0013dd14610d4f578063c6b046a814610dd1578063d9a7ba8214610e01578063de156eae14610e7b576101e5565b8063880a9999116100de578063880a999914610b0457806392e9b94214610b86578063b27983be14610c47578063bc1a24b414610ce1576101e5565b806378604412146109045780637963ce43146109725780637e1097e6146109fe578063837f19b714610a8a576101e5565b8063430014f8116101875780636a9a5d3f116101565780636a9a5d3f146107285780636ef04e3d146107a2578063712313bc1461083257806372e3ea34146108ac576101e5565b8063430014f8146105565780634768bc68146105d05780634ae23b841461066a5780634be8b1ac146106e4576101e5565b806323385264116101c35780632338526414610354578063290ff1c3146103cc5780633ce611051461044457806340a4b559146104c6576101e5565b80630ece3926146101ea5780631bd802c5146102645780632222230f146102d2575b600080fd5b61022c6004803603602081101561020057600080fd5b81019080803573ffffffffffffffffffffffffffffffffffffffff169060200190929190505050611100565b60405180826effffffffffffffffffffffffffffff166effffffffffffffffffffffffffffff16815260200191505060405180910390f35b6102d06004803603606081101561027a57600080fd5b81019080803573ffffffffffffffffffffffffffffffffffffffff169060200190929190803573ffffffffffffffffffffffffffffffffffffffff1690602001909291908035906020019092919050505061112e565b005b61033e600480360360608110156102e857600080fd5b81019080803573ffffffffffffffffffffffffffffffffffffffff169060200190929190803573ffffffffffffffffffffffffffffffffffffffff169060200190929190803590602001909291905050506111b4565b6040518082815260200191505060405180910390f35b6103b66004803603604081101561036a57600080fd5b81019080803573ffffffffffffffffffffffffffffffffffffffff169060200190929190803573ffffffffffffffffffffffffffffffffffffffff16906020019092919050505061124f565b6040518082815260200191505060405180910390f35b61042e600480360360408110156103e257600080fd5b81019080803573ffffffffffffffffffffffffffffffffffffffff169060200190929190803573ffffffffffffffffffffffffffffffffffffffff169060200190929190505050611274565b6040518082815260200191505060405180910390f35b6104b06004803603606081101561045a57600080fd5b81019080803573ffffffffffffffffffffffffffffffffffffffff169060200190929190803573ffffffffffffffffffffffffffffffffffffffff16906020019092919080359060200190929190505050611299565b6040518082815260200191505060405180910390f35b61053c600480360360808110156104dc57600080fd5b81019080803573ffffffffffffffffffffffffffffffffffffffff169060200190929190803573ffffffffffffffffffffffffffffffffffffffff1690602001909291908035906020019092919080359060200190929190505050611334565b604051808215151515815260200191505060405180910390f35b6105ce6004803603606081101561056c57600080fd5b81019080803573ffffffffffffffffffffffffffffffffffffffff16906020019092919080356effffffffffffffffffffffffffffff16906020019092919080356effffffffffffffffffffffffffffff1690602001909291905050506113d2565b005b610650600480360360a08110156105e657600080fd5b81019080803573ffffffffffffffffffffffffffffffffffffffff169060200190929190803573ffffffffffffffffffffffffffffffffffffffff169060200190929190803590602001909291908035906020019092919080359060200190929190505050611488565b604051808215151515815260200191505060405180910390f35b6106ac6004803603602081101561068057600080fd5b81019080803573ffffffffffffffffffffffffffffffffffffffff16906020019092919050505061155c565b60405180826effffffffffffffffffffffffffffff166effffffffffffffffffffffffffffff16815260200191505060405180910390f35b610726600480360360208110156106fa57600080fd5b81019080803573ffffffffffffffffffffffffffffffffffffffff16906020019092919050505061158a565b005b6107a06004803603606081101561073e57600080fd5b81019080803573ffffffffffffffffffffffffffffffffffffffff16906020019092919080356effffffffffffffffffffffffffffff16906020019092919080356effffffffffffffffffffffffffffff16906020019092919050505061160e565b005b610818600480360360808110156107b857600080fd5b81019080803573ffffffffffffffffffffffffffffffffffffffff169060200190929190803573ffffffffffffffffffffffffffffffffffffffff16906020019092919080359060200190929190803590602001909291905050506116c7565b604051808215151515815260200191505060405180910390f35b6108746004803603602081101561084857600080fd5b81019080803573ffffffffffffffffffffffffffffffffffffffff169060200190929190505050611765565b60405180826effffffffffffffffffffffffffffff166effffffffffffffffffffffffffffff16815260200191505060405180910390f35b6108ee600480360360208110156108c257600080fd5b81019080803573ffffffffffffffffffffffffffffffffffffffff169060200190929190505050611793565b6040518082815260200191505060405180910390f35b6109706004803603606081101561091a57600080fd5b81019080803573ffffffffffffffffffffffffffffffffffffffff169060200190929190803573ffffffffffffffffffffffffffffffffffffffff169060200190929190803590602001909291905050506117ab565b005b6109e86004803603608081101561098857600080fd5b81019080803573ffffffffffffffffffffffffffffffffffffffff169060200190929190803573ffffffffffffffffffffffffffffffffffffffff1690602001909291908035906020019092919080359060200190929190505050611831565b6040518082815260200191505060405180910390f35b610a7460048036036080811015610a1457600080fd5b81019080803573ffffffffffffffffffffffffffffffffffffffff169060200190929190803573ffffffffffffffffffffffffffffffffffffffff16906020019092919080359060200190929190803590602001909291905050506118ca565b6040518082815260200191505060405180910390f35b610b0260048036036060811015610aa057600080fd5b81019080803573ffffffffffffffffffffffffffffffffffffffff16906020019092919080356effffffffffffffffffffffffffffff16906020019092919080356effffffffffffffffffffffffffffff169060200190929190505050611963565b005b610b7060048036036060811015610b1a57600080fd5b81019080803573ffffffffffffffffffffffffffffffffffffffff169060200190929190803573ffffffffffffffffffffffffffffffffffffffff16906020019092919080359060200190929190505050611a19565b6040518082815260200191505060405180910390f35b610c2d6004803603610100811015610b9d57600080fd5b81019080803515159060200190929190803573ffffffffffffffffffffffffffffffffffffffff169060200190929190803573ffffffffffffffffffffffffffffffffffffffff1690602001909291908035906020019092919080359060200190929190803590602001909291908035600f0b90602001909291908035600f0b9060200190929190505050611ab4565b604051808215151515815260200191505060405180910390f35b610cc7600480360360a0811015610c5d57600080fd5b81019080803573ffffffffffffffffffffffffffffffffffffffff169060200190929190803573ffffffffffffffffffffffffffffffffffffffff169060200190929190803590602001909291908035906020019092919080359060200190929190505050611bb0565b604051808215151515815260200191505060405180910390f35b610d4d60048036036060811015610cf757600080fd5b81019080803573ffffffffffffffffffffffffffffffffffffffff169060200190929190803573ffffffffffffffffffffffffffffffffffffffff16906020019092919080359060200190929190505050611c84565b005b610dbb60048036036060811015610d6557600080fd5b81019080803573ffffffffffffffffffffffffffffffffffffffff169060200190929190803573ffffffffffffffffffffffffffffffffffffffff16906020019092919080359060200190929190505050611d0a565b6040518082815260200191505060405180910390f35b610dff60048036036020811015610de757600080fd5b81019080803515159060200190929190505050611da5565b005b610e4360048036036020811015610e1757600080fd5b81019080803573ffffffffffffffffffffffffffffffffffffffff169060200190929190505050611dc2565b60405180826effffffffffffffffffffffffffffff166effffffffffffffffffffffffffffff16815260200191505060405180910390f35b610edd60048036036040811015610e9157600080fd5b81019080803573ffffffffffffffffffffffffffffffffffffffff169060200190929190803573ffffffffffffffffffffffffffffffffffffffff169060200190929190505050611e0b565b6040518082815260200191505060405180910390f35b610f3f60048036036040811015610f0957600080fd5b81019080803573ffffffffffffffffffffffffffffffffffffffff16906020019092919080359060200190929190505050611e30565b005b610ff26004803603610120811015610f5857600080fd5b81019080803515159060200190929190803573ffffffffffffffffffffffffffffffffffffffff169060200190929190803573ffffffffffffffffffffffffffffffffffffffff169060200190929190803590602001909291908035906020019092919080359060200190929190803590602001909291908035600f0b90602001909291908035600f0b9060200190929190505050611e77565b604051808215151515815260200191505060405180910390f35b61104e6004803603602081101561102257600080fd5b81019080803573ffffffffffffffffffffffffffffffffffffffff169060200190929190505050611f7f565b60405180826effffffffffffffffffffffffffffff166effffffffffffffffffffffffffffff16815260200191505060405180910390f35b6110c86004803603602081101561109c57600080fd5b81019080803573ffffffffffffffffffffffffffffffffffffffff169060200190929190505050611fc8565b60405180826effffffffffffffffffffffffffffff166effffffffffffffffffffffffffffff16815260200191505060405180910390f35b60066020528060005260406000206000915054906101000a90046effffffffffffffffffffffffffffff1681565b80600160008573ffffffffffffffffffffffffffffffffffffffff1673ffffffffffffffffffffffffffffffffffffffff16815260200190815260200160002060008473ffffffffffffffffffffffffffffffffffffffff1673ffffffffffffffffffffffffffffffffffffffff16815260200190815260200160002081905550505050565b6000670de0b6b3a764000082600160008773ffffffffffffffffffffffffffffffffffffffff1673ffffffffffffffffffffffffffffffffffffffff16815260200190815260200160002060008673ffffffffffffffffffffffffffffffffffffffff1673ffffffffffffffffffffffffffffffffffffffff16815260200190815260200160002054028161124557fe5b0490509392505050565b6001602052816000526040600020602052806000526040600020600091509150505481565b6002602052816000526040600020602052806000526040600020600091509150505481565b6000600160008573ffffffffffffffffffffffffffffffffffffffff1673ffffffffffffffffffffffffffffffffffffffff16815260200190815260200160002060008473ffffffffffffffffffffffffffffffffffffffff1673ffffffffffffffffffffffffffffffffffffffff16815260200190815260200160002054670de0b6b3a764000083028161132a57fe5b0490509392505050565b600082670de0b6b3a764000083600160008973ffffffffffffffffffffffffffffffffffffffff1673ffffffffffffffffffffffffffffffffffffffff16815260200190815260200160002060008873ffffffffffffffffffffffffffffffffffffffff1673ffffffffffffffffffffffffffffffffffffffff1681526020019081526020016000205402816113c657fe5b04109050949350505050565b600080826effffffffffffffffffffffffffffff16846effffffffffffffffffffffffffffff16146114045784611406565b845b73ffffffffffffffffffffffffffffffffffffffff1673ffffffffffffffffffffffffffffffffffffffff168152602001908152602001600020546000808573ffffffffffffffffffffffffffffffffffffffff1673ffffffffffffffffffffffffffffffffffffffff16815260200190815260200160002081905550505050565b60008073ffffffffffffffffffffffffffffffffffffffff168673ffffffffffffffffffffffffffffffffffffffff1614806114f05750600073ffffffffffffffffffffffffffffffffffffffff168573ffffffffffffffffffffffffffffffffffffffff16145b806114fb5750600084145b806115065750600083145b806115115750600082145b156115365760008061152f5750600860009054906101000a900460ff165b9050611553565b600180156115505750600860009054906101000a900460ff165b90505b95945050505050565b60076020528060005260406000206000915054906101000a90046effffffffffffffffffffffffffffff1681565b6000808273ffffffffffffffffffffffffffffffffffffffff1673ffffffffffffffffffffffffffffffffffffffff168152602001908152602001600020546000808373ffffffffffffffffffffffffffffffffffffffff1673ffffffffffffffffffffffffffffffffffffffff1681526020019081526020016000208190555050565b600080600183016effffffffffffffffffffffffffffff16846effffffffffffffffffffffffffffff16146116435784611645565b845b73ffffffffffffffffffffffffffffffffffffffff1673ffffffffffffffffffffffffffffffffffffffff168152602001908152602001600020546000808573ffffffffffffffffffffffffffffffffffffffff1673ffffffffffffffffffffffffffffffffffffffff16815260200190815260200160002081905550505050565b600082670de0b6b3a764000083600360008973ffffffffffffffffffffffffffffffffffffffff1673ffffffffffffffffffffffffffffffffffffffff16815260200190815260200160002060008873ffffffffffffffffffffffffffffffffffffffff1673ffffffffffffffffffffffffffffffffffffffff16815260200190815260200160002054028161175957fe5b04109050949350505050565b60046020528060005260406000206000915054906101000a90046effffffffffffffffffffffffffffff1681565b60006020528060005260406000206000915090505481565b80600360008573ffffffffffffffffffffffffffffffffffffffff1673ffffffffffffffffffffffffffffffffffffffff16815260200190815260200160002060008473ffffffffffffffffffffffffffffffffffffffff1673ffffffffffffffffffffffffffffffffffffffff16815260200190815260200160002081905550505050565b60008073ffffffffffffffffffffffffffffffffffffffff168573ffffffffffffffffffffffffffffffffffffffff1614806118995750600073ffffffffffffffffffffffffffffffffffffffff168473ffffffffffffffffffffffffffffffffffffffff16145b806118a45750600083145b806118af5750600082145b156118bd57600090506118c2565b600190505b949350505050565b60008073ffffffffffffffffffffffffffffffffffffffff168573ffffffffffffffffffffffffffffffffffffffff1614806119325750600073ffffffffffffffffffffffffffffffffffffffff168473ffffffffffffffffffffffffffffffffffffffff16145b8061193d5750600083145b806119485750600082145b15611956576000905061195b565b600190505b949350505050565b600080826effffffffffffffffffffffffffffff16846effffffffffffffffffffffffffffff16146119955784611997565b845b73ffffffffffffffffffffffffffffffffffffffff1673ffffffffffffffffffffffffffffffffffffffff168152602001908152602001600020546000808573ffffffffffffffffffffffffffffffffffffffff1673ffffffffffffffffffffffffffffffffffffffff16815260200190815260200160002081905550505050565b6000670de0b6b3a764000082600360008773ffffffffffffffffffffffffffffffffffffffff1673ffffffffffffffffffffffffffffffffffffffff16815260200190815260200160002060008673ffffffffffffffffffffffffffffffffffffffff1673ffffffffffffffffffffffffffffffffffffffff168152602001908152602001600020540281611aaa57fe5b0490509392505050565b60008880611aee5750600073ffffffffffffffffffffffffffffffffffffffff168873ffffffffffffffffffffffffffffffffffffffff16145b80611b255750600073ffffffffffffffffffffffffffffffffffffffff168773ffffffffffffffffffffffffffffffffffffffff16145b80611b305750600086145b80611b3b5750600085145b80611b465750600084145b80611b545750600083600f0b145b80611b625750600082600f0b145b15611b8757600080611b805750600860009054906101000a900460ff165b9050611ba4565b60018015611ba15750600860009054906101000a900460ff165b90505b98975050505050505050565b60008073ffffffffffffffffffffffffffffffffffffffff168673ffffffffffffffffffffffffffffffffffffffff161480611c185750600073ffffffffffffffffffffffffffffffffffffffff168573ffffffffffffffffffffffffffffffffffffffff16145b80611c235750600084145b80611c2e5750600083145b80611c395750600082145b15611c5e57600080611c575750600860009054906101000a900460ff165b9050611c7b565b60018015611c785750600860009054906101000a900460ff165b90505b95945050505050565b80600260008573ffffffffffffffffffffffffffffffffffffffff1673ffffffffffffffffffffffffffffffffffffffff16815260200190815260200160002060008473ffffffffffffffffffffffffffffffffffffffff1673ffffffffffffffffffffffffffffffffffffffff16815260200190815260200160002081905550505050565b6000600360008573ffffffffffffffffffffffffffffffffffffffff1673ffffffffffffffffffffffffffffffffffffffff16815260200190815260200160002060008473ffffffffffffffffffffffffffffffffffffffff1673ffffffffffffffffffffffffffffffffffffffff16815260200190815260200160002054670de0b6b3a7640000830281611d9b57fe5b0490509392505050565b80600860006101000a81548160ff02191690831515021790555050565b60008073ffffffffffffffffffffffffffffffffffffffff168273ffffffffffffffffffffffffffffffffffffffff161415611e015760009050611e06565b600190505b919050565b6003602052816000526040600020602052806000526040600020600091509150505481565b806000808473ffffffffffffffffffffffffffffffffffffffff1673ffffffffffffffffffffffffffffffffffffffff168152602001908152602001600020819055505050565b60008980611eb15750600073ffffffffffffffffffffffffffffffffffffffff168973ffffffffffffffffffffffffffffffffffffffff16145b80611ee85750600073ffffffffffffffffffffffffffffffffffffffff168873ffffffffffffffffffffffffffffffffffffffff16145b80611ef35750600087145b80611efe5750600086145b80611f095750600085145b80611f145750600084145b80611f225750600083600f0b145b80611f305750600082600f0b145b15611f5557600080611f4e5750600860009054906101000a900460ff165b9050611f72565b60018015611f6f5750600860009054906101000a900460ff165b90505b9998505050505050505050565b60008073ffffffffffffffffffffffffffffffffffffffff168273ffffffffffffffffffffffffffffffffffffffff161415611fbe5760009050611fc3565b600190505b919050565b60056020528060005260406000206000915054906101000a90046effffffffffffffffffffffffffffff168156fea2646970667358221220a286e4e3f8b38f25a02747ffa5c896fd6a7be9a82c4e6586cdd6f2a9123d328b64736f6c63430006080033",
  "immutableReferences": {},
  "source": "// SPDX-License-Identifier: MIT\npragma solidity >=0.6.8 <0.7.0;\nimport '../interfaces/IVaultHealth.sol';\nimport '../interfaces/IWrapper.sol';\n\ncontract DummyVaultHealth is IVaultHealth {\n\n\t/*\n\t\tIn this contract we assume that all assets being supplied are wrapped A Tokens\n\t\t\n\t\tall assets being borrowed are zcbs\n\t*/\n\n\t//underlyingAsset => maximum amount of short interest *all duations combined*\n\tmapping(address => uint) public override maximumShortInterest;\n\n\t//asset supplied => asset borrowed => ratio\n\tmapping(address => mapping(address => uint)) public upperRatio;\n\tmapping(address => mapping(address => uint)) public middleRatio;\n\tmapping(address => mapping(address => uint)) public lowerRatio;\n\n\tmapping(address => uint120) public override LowerCollateralizationRatio;\n\tmapping(address => uint120) public override UpperCollateralizationRatio;\n\tmapping(address => uint120) public override LowerRateThreshold;\n\tmapping(address => uint120) public override UpperRateThreshold;\n\n\t//collateral above return value of this function may be withdrawn from vault\n\tfunction satisfiesUpperLimit(\n\t\taddress _assetSupplied,\n\t\taddress _assetBorrowed,\n\t\tuint _amountSupplied,\n\t\tuint _amountBorrowed\n\t\t) external view override returns (bool) {\n\n\t\treturn upperRatio[_assetSupplied][_assetBorrowed] * _amountBorrowed / 1e18 < _amountSupplied;\n\t}\n\t//collateral must be greater than or equal to the return value to avoid liquidation\n\tfunction satisfiesLowerLimit(\n\t\taddress _assetSupplied,\n\t\taddress _assetBorrowed,\n\t\tuint _amountSupplied,\n\t\tuint _amountBorrowed\n\t\t) external view override returns (bool) {\n\n\t\treturn lowerRatio[_assetSupplied][_assetBorrowed] * _amountBorrowed / 1e18 < _amountSupplied;\n\t}\n\n\tfunction amountSuppliedAtUpperLimit(address _assetSupplied, address _assetBorrowed, uint _amountBorrowed) external view override returns (uint) {\n\t\treturn upperRatio[_assetSupplied][_assetBorrowed] * _amountBorrowed / 1e18;\n\t}\n\tfunction amountSuppliedAtLowerLimit(address _assetSupplied, address _assetBorrowed, uint _amountBorrowed) external view override returns (uint) {\n\t\treturn lowerRatio[_assetSupplied][_assetBorrowed] * _amountBorrowed / 1e18;\n\t}\n\n\tfunction amountBorrowedAtUpperLimit(address _assetSupplied, address _assetBorrowed, uint _amountSupplied) external view override returns (uint) {\n\t\treturn _amountSupplied * 1e18 / upperRatio[_assetSupplied][_assetBorrowed];\n\t}\n\tfunction amountBorrowedAtLowerLimit(address _assetSupplied, address _assetBorrowed, uint _amountSupplied) external view override returns (uint) {\n\t\treturn _amountSupplied * 1e18 / lowerRatio[_assetSupplied][_assetBorrowed];\n\t}\n\n\tfunction YTvaultAmountBorrowedAtUpperLimit(address _FCPsupplied, address _FCPborrowed, uint _amountYield, int _amountBond) external view override returns (uint) {\n\t\tif (\n\t\t\t_FCPsupplied == address(0) ||\n\t\t\t_FCPborrowed == address(0) ||\n\t\t\t_amountYield == 0 ||\n\t\t\t_amountBond == 0\n\t\t\t)\n\t\t\treturn 0;\n\t\treturn 1;\n\t}\n\tfunction YTvaultAmountBorrowedAtLowerLimit(address _FCPsupplied, address _FCPborrowed, uint _amountYield, int _amountBond) external view override returns (uint) {\n\t\tif (\n\t\t\t_FCPsupplied == address(0) ||\n\t\t\t_FCPborrowed == address(0) ||\n\t\t\t_amountYield == 0 ||\n\t\t\t_amountBond == 0\n\t\t\t)\n\t\t\treturn 0;\n\t\treturn 1;\n\t}\n\n\tfunction YTvaultSatisfiesUpperLimit(address _FCPsupplied, address _FCPborrowed, uint _amountYield, int _amountBond, uint _amountBorrowed) external view override returns (bool) {\n\t\tif (\n\t\t\t_FCPsupplied\t== address(0) ||\n\t\t\t_FCPborrowed == address(0) ||\n\t\t\t_amountYield == 0 ||\n\t\t\t_amountBond == 0 ||\n\t\t\t_amountBorrowed == 0\n\t\t\t)\n\t\t\treturn false || toReturn;\n\t\treturn true && toReturn;\n\t}\n\tfunction YTvaultSatisfiesLowerLimit(address _FCPsupplied, address _FCPborrowed, uint _amountYield, int _amountBond, uint _amountBorrowed) external view override returns (bool) {\n\t\tif (\n\t\t\t_FCPsupplied\t== address(0) ||\n\t\t\t_FCPborrowed == address(0) ||\n\t\t\t_amountYield == 0 ||\n\t\t\t_amountBond == 0 ||\n\t\t\t_amountBorrowed == 0\n\t\t\t)\n\t\t\treturn false || toReturn;\n\t\treturn true && toReturn;\n\t}\n\n\tfunction upperMinimumRateAdjustment(address _underlyingAssetAddress) external view override returns (uint120) {\n\t\tif (_underlyingAssetAddress == address(0)) {\n\t\t\treturn 0;\n\t\t}\n\t\treturn 1;\n\t}\n\n\tfunction lowerMinimumRateAdjustment(address _underlyingAssetAddress) external view override returns (uint120) {\n\t\tif (_underlyingAssetAddress == address(0)) {\n\t\t\treturn 0;\n\t\t}\n\t\treturn 1;\n\t}\n\n\tbool toReturn;\n\tfunction setToReturn(bool _toReturn) external {\n\t\ttoReturn = _toReturn;\n\t}\n\t/*\n\t\tThis is a dummy contract and we don't plan on calling the function below ever so\n\t\twe just return false/true without really looking into if it is doing the right thing\n\t\tthis way this dummy contract implements the IVaultHealth interface\n\t*/\n\tfunction vaultWithstandsChange(\n\t\tbool _reqSameBase,\n\t\taddress _assetSupplied,\n\t\taddress _assetBorrowed,\n\t\tuint _amountSupplied,\n\t\tuint _amountBorrowed,\n\t\tuint _pctPriceChange,\n\t\tint128 _suppliedRateChange,\n\t\tint128 _borrowRateChange\n\t\t) external view override returns (bool) {\n\t\t/*\n\t\t\tsilence warnings about not using parameters\n\t\t*/\n\t\tif (\n\t\t\t_reqSameBase ||\n\t\t\t_assetSupplied == address(0) ||\n\t\t\t_assetBorrowed == address(0) ||\n\t\t\t_amountSupplied == 0 ||\n\t\t\t_amountBorrowed == 0 ||\n\t\t\t_pctPriceChange == 0 ||\n\t\t\t_suppliedRateChange == 0 ||\n\t\t\t_borrowRateChange == 0\n\t\t\t)\n\t\t\treturn false || toReturn;\n\t\treturn true && toReturn;\n\t}\n\n\tfunction YTvaultWithstandsChange(\n\t\tbool _reqSameBase,\n\t\taddress _FCPsupplied,\n\t\taddress _FCPborrowed,\n\t\tuint _amountYield,\n\t\tint _amountBond,\n\t\tuint _amountBorrowed,\n\t\tuint _pctPriceChange,\n\t\tint128 _suppliedRateChange,\n\t\tint128 _borrowRateChange\n\t) external view override returns (bool) {\n\t\t/*\n\t\t\tsilence warnings about not using parameters\n\t\t*/\n\t\tif (\n\t\t\t_reqSameBase ||\n\t\t\t_FCPsupplied == address(0) ||\n\t\t\t_FCPborrowed == address(0) ||\n\t\t\t_amountYield == 0 ||\n\t\t\t_amountBond == 0 ||\n\t\t\t_amountBorrowed == 0 ||\n\t\t\t_pctPriceChange == 0 ||\n\t\t\t_suppliedRateChange == 0 ||\n\t\t\t_borrowRateChange == 0\n\t\t\t)\n\t\t\treturn false || toReturn;\n\t\treturn true && toReturn;\t\t\n\t}\n\n\n\tfunction setUpper(\n\t\taddress _assetSupplied,\n\t\taddress _assetBorrowed,\n\t\tuint _ratio\n\t\t) public {\n\n\t\tupperRatio[_assetSupplied][_assetBorrowed] = _ratio;\n\n\t}\n\n\tfunction setMiddle(\n\t\taddress _assetSupplied,\n\t\taddress _assetBorrowed,\n\t\tuint _ratio\n\t\t) public {\n\n\t\tmiddleRatio[_assetSupplied][_assetBorrowed] = _ratio;\n\n\t}\n\n\tfunction setLower(\n\t\taddress _assetSupplied,\n\t\taddress _assetBorrowed,\n\t\tuint _ratio\n\t\t) public {\n\n\t\tlowerRatio[_assetSupplied][_assetBorrowed] = _ratio;\n\n\t}\n\n\tfunction setMaximumShortInterest(address _underlyingAssetAddress, uint _maximumShortInterest) external override {\n\t\tmaximumShortInterest[_underlyingAssetAddress] = _maximumShortInterest;\n\t}\n\tfunction setCollateralizationRatios(address _underlyingAssetAddress, uint120 _upper, uint120 _lower) external override {\n\t\tmaximumShortInterest[_underlyingAssetAddress] = maximumShortInterest[_upper == _lower ? _underlyingAssetAddress : _underlyingAssetAddress];\n\t}\n\tfunction setRateThresholds(address _underlyingAssetAddress, uint120 _upper, uint120 _lower) external override {\n\t\tmaximumShortInterest[_underlyingAssetAddress] = maximumShortInterest[_upper == _lower ? _underlyingAssetAddress : _underlyingAssetAddress];\n\t}\n\tfunction setOrganizerAddress(address _organizerAddress) external override {\n\t\tmaximumShortInterest[_organizerAddress] = maximumShortInterest[_organizerAddress];\n\t}\n\tfunction setMinimumRateAdjustments(address _wrapperAddress, uint120 _upper, uint120 _lower) external override {\n\t\tmaximumShortInterest[_wrapperAddress] = maximumShortInterest[_upper == _lower+1 ? _wrapperAddress : _wrapperAddress];\t\t\n\t}\n}",
  "sourcePath": "/home/asher/FixFinanceV1/contracts/Dummy/DummyVaultHealth.sol",
  "compiler": {
    "name": "solc",
    "version": "0.6.8+commit.0bbfe453.Emscripten.clang"
  },
  "schemaVersion": "3.4.1",
  "updatedAt": "2021-11-26T19:15:54.824Z",
  "devdoc": {
    "methods": {}
  },
  "userdoc": {
    "methods": {}
  }
}