{
  "contractName": "FCPDelegateParent",
  "abi": [
    {
      "inputs": [],
      "name": "owner",
      "outputs": [
        {
          "internalType": "address",
          "name": "",
          "type": "address"
        }
      ],
      "stateMutability": "view",
      "type": "function"
    },
    {
      "inputs": [
        {
          "internalType": "address",
          "name": "newOwner",
          "type": "address"
        }
      ],
      "name": "transferOwnership",
      "outputs": [],
      "stateMutability": "nonpayable",
      "type": "function"
    }
  ],
  "bytecode": "0x608060405234801561001057600080fd5b5033600060016101000a81548173ffffffffffffffffffffffffffffffffffffffff021916908373ffffffffffffffffffffffffffffffffffffffff160217905550610261806100616000396000f3fe608060405234801561001057600080fd5b50600436106100365760003560e01c80638da5cb5b1461003b578063f2fde38b14610085575b600080fd5b6100436100c9565b604051808273ffffffffffffffffffffffffffffffffffffffff1673ffffffffffffffffffffffffffffffffffffffff16815260200191505060405180910390f35b6100c76004803603602081101561009b57600080fd5b81019080803573ffffffffffffffffffffffffffffffffffffffff1690602001909291905050506100ef565b005b600060019054906101000a900473ffffffffffffffffffffffffffffffffffffffff1681565b600060019054906101000a900473ffffffffffffffffffffffffffffffffffffffff1673ffffffffffffffffffffffffffffffffffffffff163373ffffffffffffffffffffffffffffffffffffffff16146101b2576040517f08c379a000000000000000000000000000000000000000000000000000000000815260040180806020018281038252600a8152602001807f6f6e6c79206f776e65720000000000000000000000000000000000000000000081525060200191505060405180910390fd5b600073ffffffffffffffffffffffffffffffffffffffff168173ffffffffffffffffffffffffffffffffffffffff16146102285780600060016101000a81548173ffffffffffffffffffffffffffffffffffffffff021916908373ffffffffffffffffffffffffffffffffffffffff1602179055505b5056fea26469706673582212201a4fdebea333b56720014488de39c9ef37d1c532055c497ca89529975aeed51464736f6c63430006080033",
  "immutableReferences": {},
  "source": "// SPDX-License-Identifier: MIT\npragma solidity >=0.6.8 <0.7.0;\nimport \"../interfaces/IFixCapitalPool.sol\";\nimport \"../interfaces/IWrapper.sol\";\nimport \"../interfaces/IYieldToken.sol\";\nimport \"../interfaces/IZeroCouponBond.sol\";\nimport \"../interfaces/IERC20.sol\";\nimport \"../interfaces/IInfoOracle.sol\";\nimport \"../libraries/SafeMath.sol\";\nimport \"../libraries/SignedSafeMath.sol\";\nimport \"./FCPData.sol\";\n\n/*\n\tContains all internal functions so that there is no need to have the same function\n\twritten twice in two contracts\n*/\n\ncontract FCPDelegateParent is FCPData {\n\tusing SafeMath for uint;\n\tusing SignedSafeMath for int;\n\n\tmodifier beforePayoutPhase() {\n\t\trequire(!internalInPayoutPhase);\n\t\t_;\n\t}\n\n\tmodifier isInPayoutPhase() {\n\t\trequire(internalInPayoutPhase);\n\t\t_;\n\t}\n\n\t/*\n\t\t@Description: find the amount of the IWrapper asset to payout based on the balance of yield and bond\n\t\t\tassumes that the FCP contract is in the payout phase\n\n\t\t@param uint _yield: the yield amount associated with the ZCB & YT position\n\t\t@param int _bond: the bond amount associated with the ZCB & YT position\n\t\t@param uint _maturityConversionRate: pass the value of the contract variable 'internalMaturityConversionRate'\n\n\t\t@return uint: the amount of wrapped asset that should be paid out\n\t*/\n\tfunction payoutAmount(uint _yield, int _bond, uint _maturityConversionRate) internal pure returns(uint) {\n\t\trequire(_maturityConversionRate > 0);\n\t\tuint ZCB = _yield.mul(_maturityConversionRate) / (1 ether);\n\t\tZCB = _bond > 0 ? ZCB.add(uint(_bond)) : ZCB.sub(uint(_bond.abs()));\n\t\treturn ZCB.mul(1 ether) / _maturityConversionRate;\n\t}\n\n\t/*\n\t\t@Description: find the amount of Unwrapped Units an address will be able to claim at internalMaturity\n\t\t\tif no yield is generated in the internalWrapper from now up to internalMaturity,\n\t\t\tif in payout phase the value returned will be the unit amount that could be claimed at internalMaturity\n\n\t\t@param uint _yield: the yield amount associated with the ZCB & YT position\n\t\t@param int _bond: the bond amount associated with the ZCB & YT position\n\t\t@param uint _conversionRate: if before payout phase pass the value of the current conversion rate\n\t\t\tif in payout phase pass the value of the contract 'internalMaturityConversionRate' variable\n\n\t\t@return uint balance: the minimum possible value (denominated in Unit/Unwrapped amount) of _owner's\n\t\t\tposition at internalMaturity\n\t*/\n\tfunction minimumUnitAmountAtMaturity(uint _yield, int _bond, uint _conversionRate) internal pure returns (uint balance) {\n\t\trequire(_conversionRate > 0);\n\t\tbalance = _yield.mul(_conversionRate) / (1 ether);\n\t\tbalance = _bond > 0 ? balance.add(uint(_bond)) : balance.sub(uint(_bond.abs()));\n\t}\n\n\t/*\n\t\t@Description: find the amount of wrapped token that the user may withdraw from the fix capital pool\n\n\t\t@param uint _yield: the yield amount associated with the ZCB & YT position\n\t\t@param int _bond: the bond amount associated with the ZCB & YT position\n\t\t@param uint _conversionRate: if before payout phase pass the value of the current conversion rate\n\t\t\tif in payout phase pass the value of the contract 'internalMaturityConversionRate' variable\n\n\t\t@return uint: the maximum wrapped amount of the internalWrapper asset that may be withdrawn\n\t\t\tfor the owner of the ZCB & YT position\n\t*/\n\tfunction maxWrappedWithdrawAmt(uint _yield, int _bond, uint _conversionRate) internal pure returns(uint) {\n\t\tif (_bond < 0){\n\t\t\tuint unitAmtFree = (_yield.mul(_conversionRate) / (1 ether)).sub(uint(_bond.abs()));\n\t\t\treturn unitAmtFree.mul(1 ether) / (_conversionRate);\n\t\t}\n\t\telse {\n\t\t\treturn _yield;\n\t\t}\n\t}\n\n\t/*\n\t\t@Description: return true if and only if a ZCB-YT position has a non negative balance of ZCB & YT\n\n\t\t@param uint yield: the yield value of the ZCB-YT position\n\t\t@param int bond: the bond value of the ZCB-YT position\n\t\t@param uint ratio: the conversion multiplier for static to dynamic amounts\n\n\t\t@return bool: true if and only if there is a non negative balance of ZCB & YT\n\t*/\n\tfunction isValidPosition(uint yield, int bond, uint ratio) internal pure returns(bool) {\n\t\treturn bond >= 0 || yield.mul(ratio) / (1 ether) >= bond.abs().toUint();\n\t}\n}",
  "sourcePath": "/home/asher/FixFinanceV1/contracts/FixCapitalPool/FCPDelegateParent.sol",
  "compiler": {
    "name": "solc",
    "version": "0.6.8+commit.0bbfe453.Emscripten.clang"
  },
  "schemaVersion": "3.4.1",
  "updatedAt": "2021-11-26T19:15:54.902Z",
  "devdoc": {
    "methods": {}
  },
  "userdoc": {
    "methods": {}
  }
}