{
  "contractName": "FCPDelegate2",
  "abi": [
    {
      "anonymous": false,
      "inputs": [
        {
          "indexed": true,
          "internalType": "address",
          "name": "owner",
          "type": "address"
        },
        {
          "indexed": false,
          "internalType": "uint256",
          "name": "newYield",
          "type": "uint256"
        },
        {
          "indexed": false,
          "internalType": "int256",
          "name": "newBond",
          "type": "int256"
        }
      ],
      "name": "BalanceUpdate",
      "type": "event"
    },
    {
      "anonymous": false,
      "inputs": [
        {
          "indexed": true,
          "internalType": "address",
          "name": "owner",
          "type": "address"
        },
        {
          "indexed": false,
          "internalType": "int256",
          "name": "newBond",
          "type": "int256"
        }
      ],
      "name": "BondBalanceUpdate",
      "type": "event"
    },
    {
      "anonymous": false,
      "inputs": [
        {
          "indexed": true,
          "internalType": "address",
          "name": "owner",
          "type": "address"
        }
      ],
      "name": "ClaimPayout",
      "type": "event"
    },
    {
      "anonymous": false,
      "inputs": [
        {
          "indexed": true,
          "internalType": "address",
          "name": "to",
          "type": "address"
        },
        {
          "indexed": false,
          "internalType": "uint256",
          "name": "wrappedAmountDeposited",
          "type": "uint256"
        }
      ],
      "name": "Deposit",
      "type": "event"
    },
    {
      "anonymous": false,
      "inputs": [
        {
          "indexed": true,
          "internalType": "address",
          "name": "from",
          "type": "address"
        },
        {
          "indexed": false,
          "internalType": "uint256",
          "name": "wrappedAmountWithdrawn",
          "type": "uint256"
        }
      ],
      "name": "Withdrawal",
      "type": "event"
    },
    {
      "inputs": [],
      "name": "owner",
      "outputs": [
        {
          "internalType": "address",
          "name": "",
          "type": "address"
        }
      ],
      "stateMutability": "view",
      "type": "function"
    },
    {
      "inputs": [
        {
          "internalType": "address",
          "name": "newOwner",
          "type": "address"
        }
      ],
      "name": "transferOwnership",
      "outputs": [],
      "stateMutability": "nonpayable",
      "type": "function"
    },
    {
      "inputs": [
        {
          "internalType": "address",
          "name": "_to",
          "type": "address"
        },
        {
          "internalType": "uint256",
          "name": "_amountWrappedTkn",
          "type": "uint256"
        }
      ],
      "name": "depositWrappedToken",
      "outputs": [],
      "stateMutability": "nonpayable",
      "type": "function"
    },
    {
      "inputs": [
        {
          "internalType": "address",
          "name": "_to",
          "type": "address"
        },
        {
          "internalType": "uint256",
          "name": "_amountWrappedTkn",
          "type": "uint256"
        },
        {
          "internalType": "bool",
          "name": "_unwrap",
          "type": "bool"
        }
      ],
      "name": "withdraw",
      "outputs": [],
      "stateMutability": "nonpayable",
      "type": "function"
    },
    {
      "inputs": [
        {
          "internalType": "address",
          "name": "_to",
          "type": "address"
        },
        {
          "internalType": "bool",
          "name": "_unwrap",
          "type": "bool"
        }
      ],
      "name": "withdrawAll",
      "outputs": [],
      "stateMutability": "nonpayable",
      "type": "function"
    },
    {
      "inputs": [],
      "name": "enterPayoutPhase",
      "outputs": [],
      "stateMutability": "nonpayable",
      "type": "function"
    },
    {
      "inputs": [
        {
          "internalType": "address",
          "name": "_owner",
          "type": "address"
        },
        {
          "internalType": "uint256",
          "name": "_amount",
          "type": "uint256"
        }
      ],
      "name": "mintZCBTo",
      "outputs": [],
      "stateMutability": "nonpayable",
      "type": "function"
    },
    {
      "inputs": [
        {
          "internalType": "address",
          "name": "_owner",
          "type": "address"
        },
        {
          "internalType": "uint256",
          "name": "_amount",
          "type": "uint256"
        }
      ],
      "name": "burnZCBFrom",
      "outputs": [],
      "stateMutability": "nonpayable",
      "type": "function"
    },
    {
      "inputs": [
        {
          "internalType": "contract IFCPFlashBorrower",
          "name": "_receiver",
          "type": "address"
        },
        {
          "internalType": "uint256",
          "name": "_amountYield",
          "type": "uint256"
        },
        {
          "internalType": "int256",
          "name": "_amountBond",
          "type": "int256"
        },
        {
          "internalType": "bytes",
          "name": "_data",
          "type": "bytes"
        }
      ],
      "name": "flashLoan",
      "outputs": [
        {
          "internalType": "bool",
          "name": "",
          "type": "bool"
        }
      ],
      "stateMutability": "nonpayable",
      "type": "function"
    }
  ],
  "bytecode": "0x608060405234801561001057600080fd5b5033600060016101000a81548173ffffffffffffffffffffffffffffffffffffffff021916908373ffffffffffffffffffffffffffffffffffffffff160217905550613bbf806100616000396000f3fe608060405234801561001057600080fd5b50600436106100935760003560e01c8063af0b460611610066578063af0b460614610245578063dfc081be14610293578063ead5d3591461029d578063f2fde38b146102f7578063fc2807f11461033b57610093565b80631794d864146100985780634bee91371461015d57806350939c0e146101ad5780638da5cb5b146101fb575b600080fd5b610143600480360360808110156100ae57600080fd5b81019080803573ffffffffffffffffffffffffffffffffffffffff1690602001909291908035906020019092919080359060200190929190803590602001906401000000008111156100ff57600080fd5b82018360208201111561011157600080fd5b8035906020019184600183028401116401000000008311171561013357600080fd5b9091929391929390505050610389565b604051808215151515815260200191505060405180910390f35b6101ab6004803603604081101561017357600080fd5b81019080803573ffffffffffffffffffffffffffffffffffffffff169060200190929190803515159060200190929190505050611887565b005b6101f9600480360360408110156101c357600080fd5b81019080803573ffffffffffffffffffffffffffffffffffffffff16906020019092919080359060200190929190505050611c7a565b005b610203611e96565b604051808273ffffffffffffffffffffffffffffffffffffffff1673ffffffffffffffffffffffffffffffffffffffff16815260200191505060405180910390f35b6102916004803603604081101561025b57600080fd5b81019080803573ffffffffffffffffffffffffffffffffffffffff16906020019092919080359060200190929190505050611ebc565b005b61029b61219b565b005b6102f5600480360360608110156102b357600080fd5b81019080803573ffffffffffffffffffffffffffffffffffffffff16906020019092919080359060200190929190803515159060200190929190505050612471565b005b6103396004803603602081101561030d57600080fd5b81019080803573ffffffffffffffffffffffffffffffffffffffff16906020019092919050505061286c565b005b6103876004803603604081101561035157600080fd5b81019080803573ffffffffffffffffffffffffffffffffffffffff169060200190929190803590602001909291905050506129a8565b005b60008060159054906101000a900460ff16156103a457600080fd5b60008060009054906101000a900460ff1660ff16146103c257600080fd5b60016000806101000a81548160ff021916908360ff160217905550620f424063ffffffff167f04000000000000000000000000000000000000000000000000000000000000008161040f57fe5b0485111561041c57600080fd5b620f424063ffffffff167f04000000000000000000000000000000000000000000000000000000000000008161044e57fe5b0584131561045b57600080fd5b600080600c54905060008060008a905060008a905060008a90506000600560008573ffffffffffffffffffffffffffffffffffffffff1673ffffffffffffffffffffffffffffffffffffffff1681526020019081526020016000205490506000600260009054906101000a900473ffffffffffffffffffffffffffffffffffffffff1690508073ffffffffffffffffffffffffffffffffffffffff16633e5b48ae600060018886876040518663ffffffff1660e01b81526004018086151515158152602001851515151581526020018473ffffffffffffffffffffffffffffffffffffffff1673ffffffffffffffffffffffffffffffffffffffff16815260200183815260200182815260200195505050505050600060405180830381600087803b15801561058957600080fd5b505af115801561059d573d6000803e3d6000fd5b505050508073ffffffffffffffffffffffffffffffffffffffff16630247c79c670de0b6b3a76400006040518263ffffffff1660e01b81526004018082815260200191505060206040518083038186803b1580156105fa57600080fd5b505afa15801561060e573d6000803e3d6000fd5b505050506040513d602081101561062457600080fd5b81019080805190602001909291905050509850600061064c8584612d7290919063ffffffff16565b905060006106a285600460008a73ffffffffffffffffffffffffffffffffffffffff1673ffffffffffffffffffffffffffffffffffffffff16815260200190815260200160002054612dfa90919063ffffffff16565b90508673ffffffffffffffffffffffffffffffffffffffff167f95a38428b6ec3f9070babb8e763ce6603e5cd3e6000ada727c96aecfa2783afb8383604051808381526020018281526020019250505060405180910390a2600086111561076f57620f424063ffffffff166107208b88612e8890919063ffffffff16565b8161072757fe5b04985081600560008973ffffffffffffffffffffffffffffffffffffffff1673ffffffffffffffffffffffffffffffffffffffff168152602001908152602001600020819055505b600085146107eb57620f424063ffffffff1661079c61078d8c612f0e565b87612f9090919063ffffffff16565b816107a357fe5b05975080600460008973ffffffffffffffffffffffffffffffffffffffff1673ffffffffffffffffffffffffffffffffffffffff168152602001908152602001600020819055505b505050505050506000670de0b6b3a7640000610810868c612e8890919063ffffffff16565b8161081757fe5b049050600089126108445761083d61082e8a6130ba565b82612d7290919063ffffffff16565b9050610894565b61089161088261087d7fffffffffffffffffffffffffffffffffffffffffffffffffffffffffffffffff8c612f9090919063ffffffff16565b6130ba565b8261313c90919063ffffffff16565b90505b60008b73ffffffffffffffffffffffffffffffffffffffff16633526f5b1338d8d88888f8f6040518863ffffffff1660e01b8152600401808873ffffffffffffffffffffffffffffffffffffffff1673ffffffffffffffffffffffffffffffffffffffff168152602001878152602001868152602001858152602001848152602001806020018281038252848482818152602001925080828437600081840152601f19601f82011690508083019250505098505050505050505050602060405180830381600087803b15801561096957600080fd5b505af115801561097d573d6000803e3d6000fd5b505050506040513d602081101561099357600080fd5b8101908080519060200190929190505050905060405180807f464350466c617368426f72726f7765722e6f6e466c6173684c6f616e00000000815250601c019050604051809103902081146109e757600080fd5b600760009054906101000a900473ffffffffffffffffffffffffffffffffffffffff1673ffffffffffffffffffffffffffffffffffffffff1663bf83dcf38d30856040518463ffffffff1660e01b8152600401808473ffffffffffffffffffffffffffffffffffffffff1673ffffffffffffffffffffffffffffffffffffffff1681526020018373ffffffffffffffffffffffffffffffffffffffff1673ffffffffffffffffffffffffffffffffffffffff1681526020018281526020019350505050600060405180830381600087803b158015610ac457600080fd5b505af1158015610ad8573d6000803e3d6000fd5b50505050600660009054906101000a900473ffffffffffffffffffffffffffffffffffffffff1673ffffffffffffffffffffffffffffffffffffffff1663bf83dcf38d308e6040518463ffffffff1660e01b8152600401808473ffffffffffffffffffffffffffffffffffffffff1673ffffffffffffffffffffffffffffffffffffffff1681526020018373ffffffffffffffffffffffffffffffffffffffff1673ffffffffffffffffffffffffffffffffffffffff1681526020018281526020019350505050600060405180830381600087803b158015610bb957600080fd5b505af1158015610bcd573d6000803e3d6000fd5b5050505060008c905060008c905060008c90506000600560008573ffffffffffffffffffffffffffffffffffffffff1673ffffffffffffffffffffffffffffffffffffffff1681526020019081526020016000205490506000600460008673ffffffffffffffffffffffffffffffffffffffff1673ffffffffffffffffffffffffffffffffffffffff1681526020019081526020016000205490506000841115610cdd57610c9689610c88868561313c90919063ffffffff16565b61313c90919063ffffffff16565b915081600560008773ffffffffffffffffffffffffffffffffffffffff1673ffffffffffffffffffffffffffffffffffffffff168152602001908152602001600020819055505b60008314610d5157610d0a88610cfc858461318690919063ffffffff16565b61318690919063ffffffff16565b905080600460008773ffffffffffffffffffffffffffffffffffffffff1673ffffffffffffffffffffffffffffffffffffffff168152602001908152602001600020819055505b8473ffffffffffffffffffffffffffffffffffffffff167f95a38428b6ec3f9070babb8e763ce6603e5cd3e6000ada727c96aecfa2783afb8383604051808381526020018281526020019250505060405180910390a2505050505060008060019054906101000a900473ffffffffffffffffffffffffffffffffffffffff1690506000600960009054906101000a900473ffffffffffffffffffffffffffffffffffffffff1690508073ffffffffffffffffffffffffffffffffffffffff16637348c8576040518163ffffffff1660e01b815260040160206040518083038186803b158015610e3f57600080fd5b505afa158015610e53573d6000803e3d6000fd5b505050506040513d6020811015610e6957600080fd5b8101908080519060200190929190505050156116305760008173ffffffffffffffffffffffffffffffffffffffff1663489e09516040518163ffffffff1660e01b815260040160206040518083038186803b158015610ec757600080fd5b505afa158015610edb573d6000803e3d6000fd5b505050506040513d6020811015610ef157600080fd5b8101908080519060200190929190505050905060008e905060008e9050610f166139f0565b6040518060400160405280600560008773ffffffffffffffffffffffffffffffffffffffff1673ffffffffffffffffffffffffffffffffffffffff168152602001908152602001600020548152602001600560008973ffffffffffffffffffffffffffffffffffffffff1673ffffffffffffffffffffffffffffffffffffffff168152602001908152602001600020548152509050610fb3613a12565b6040518060400160405280600460008873ffffffffffffffffffffffffffffffffffffffff1673ffffffffffffffffffffffffffffffffffffffff168152602001908152602001600020548152602001600460008a73ffffffffffffffffffffffffffffffffffffffff1673ffffffffffffffffffffffffffffffffffffffff168152602001908152602001600020548152509050600084111561134557611059613a34565b60405180604001604052808773ffffffffffffffffffffffffffffffffffffffff1673ffffffffffffffffffffffffffffffffffffffff1681526020018973ffffffffffffffffffffffffffffffffffffffff1673ffffffffffffffffffffffffffffffffffffffff168152509050600260009054906101000a900473ffffffffffffffffffffffffffffffffffffffff1673ffffffffffffffffffffffffffffffffffffffff1663e77668df600060018487886040518663ffffffff1660e01b815260040180861515151581526020018515151515815260200184600260200280838360005b8381101561115b578082015181840152602081019050611140565b5050505090500183600260200280838360005b8381101561118957808201518184015260208101905061116e565b5050505090500182600260200280838360005b838110156111b757808201518184015260208101905061119c565b5050505090500195505050505050600060405180830381600087803b1580156111df57600080fd5b505af11580156111f3573d6000803e3d6000fd5b50505050600060018d901c9050611224818560006002811061121157fe5b6020020151612d7290919063ffffffff16565b8460006002811061123157fe5b602002018181525050611260818e038560016002811061124d57fe5b6020020151612d7290919063ffffffff16565b8460016002811061126d57fe5b6020020181815250508360006002811061128357fe5b6020020151600560008460006002811061129957fe5b602002015173ffffffffffffffffffffffffffffffffffffffff1673ffffffffffffffffffffffffffffffffffffffff16815260200190815260200160002081905550836001600281106112e957fe5b602002015160056000846001600281106112ff57fe5b602002015173ffffffffffffffffffffffffffffffffffffffff1673ffffffffffffffffffffffffffffffffffffffff1681526020019081526020016000208190555050505b6000831461153657600060028b8161135957fe5b0590506113ae81600460008973ffffffffffffffffffffffffffffffffffffffff1673ffffffffffffffffffffffffffffffffffffffff16815260200190815260200160002054612dfa90919063ffffffff16565b826000600281106113bb57fe5b602002018181525050611418818c03600460008b73ffffffffffffffffffffffffffffffffffffffff1673ffffffffffffffffffffffffffffffffffffffff16815260200190815260200160002054612dfa90919063ffffffff16565b8260016002811061142557fe5b602002018181525050600460008773ffffffffffffffffffffffffffffffffffffffff1673ffffffffffffffffffffffffffffffffffffffff16815260200190815260200160002054600460008873ffffffffffffffffffffffffffffffffffffffff1673ffffffffffffffffffffffffffffffffffffffff16815260200190815260200160002081905550600460008973ffffffffffffffffffffffffffffffffffffffff1673ffffffffffffffffffffffffffffffffffffffff16815260200190815260200160002054600460008a73ffffffffffffffffffffffffffffffffffffffff1673ffffffffffffffffffffffffffffffffffffffff16815260200190815260200160002081905550505b8473ffffffffffffffffffffffffffffffffffffffff167f95a38428b6ec3f9070babb8e763ce6603e5cd3e6000ada727c96aecfa2783afb8360006002811061157b57fe5b60200201518360006002811061158d57fe5b6020020151604051808381526020018281526020019250505060405180910390a28673ffffffffffffffffffffffffffffffffffffffff167f95a38428b6ec3f9070babb8e763ce6603e5cd3e6000ada727c96aecfa2783afb836001600281106115f357fe5b60200201518360016002811061160557fe5b6020020151604051808381526020018281526020019250505060405180910390a25050505050611857565b60008d11156117b8576000600560008473ffffffffffffffffffffffffffffffffffffffff1673ffffffffffffffffffffffffffffffffffffffff168152602001908152602001600020549050600260009054906101000a900473ffffffffffffffffffffffffffffffffffffffff1673ffffffffffffffffffffffffffffffffffffffff16633e5b48ae600060018685866040518663ffffffff1660e01b81526004018086151515158152602001851515151581526020018473ffffffffffffffffffffffffffffffffffffffff1673ffffffffffffffffffffffffffffffffffffffff16815260200183815260200182815260200195505050505050600060405180830381600087803b15801561174857600080fd5b505af115801561175c573d6000803e3d6000fd5b505050506117738782612d7290919063ffffffff16565b600560008573ffffffffffffffffffffffffffffffffffffffff1673ffffffffffffffffffffffffffffffffffffffff16815260200190815260200160002081905550505b60008c146118565761181285600460008573ffffffffffffffffffffffffffffffffffffffff1673ffffffffffffffffffffffffffffffffffffffff16815260200190815260200160002054612dfa90919063ffffffff16565b600460008473ffffffffffffffffffffffffffffffffffffffff1673ffffffffffffffffffffffffffffffffffffffff168152602001908152602001600020819055505b5b60019850505050505050505060008060006101000a81548160ff021916908360ff16021790555095945050505050565b600060159054906101000a900460ff16156118a157600080fd5b6000600260009054906101000a900473ffffffffffffffffffffffffffffffffffffffff1690506000600560003373ffffffffffffffffffffffffffffffffffffffff1673ffffffffffffffffffffffffffffffffffffffff1681526020019081526020016000205490506000600460003373ffffffffffffffffffffffffffffffffffffffff1673ffffffffffffffffffffffffffffffffffffffff16815260200190815260200160002054905060008082126119605760006119f5565b8373ffffffffffffffffffffffffffffffffffffffff16630247c79c670de0b6b3a76400006040518263ffffffff1660e01b81526004018082815260200191505060206040518083038186803b1580156119b957600080fd5b505afa1580156119cd573d6000803e3d6000fd5b505050506040513d60208110156119e357600080fd5b81019080805190602001909291905050505b90506000611a04848484613214565b90508473ffffffffffffffffffffffffffffffffffffffff16633e5b48ae6000803388896040518663ffffffff1660e01b81526004018086151515158152602001851515151581526020018473ffffffffffffffffffffffffffffffffffffffff1673ffffffffffffffffffffffffffffffffffffffff16815260200183815260200182815260200195505050505050600060405180830381600087803b158015611aae57600080fd5b505af1158015611ac2573d6000803e3d6000fd5b50505050611ad9818561313c90919063ffffffff16565b600560003373ffffffffffffffffffffffffffffffffffffffff1673ffffffffffffffffffffffffffffffffffffffff168152602001908152602001600020819055508515611bf7578473ffffffffffffffffffffffffffffffffffffffff1663302f1756888360016040518463ffffffff1660e01b8152600401808473ffffffffffffffffffffffffffffffffffffffff1673ffffffffffffffffffffffffffffffffffffffff168152602001838152602001821515151581526020019350505050602060405180830381600087803b158015611bb657600080fd5b505af1158015611bca573d6000803e3d6000fd5b505050506040513d6020811015611be057600080fd5b810190808051906020019092919050505050611c23565b611c2287828773ffffffffffffffffffffffffffffffffffffffff166132979092919063ffffffff16565b5b3373ffffffffffffffffffffffffffffffffffffffff167f7fcf532c15f0a6db0bd6d0e038bea71d30d808c7d98cb3bf7268a95bf5081b65826040518082815260200191505060405180910390a250505050505050565b600060159054906101000a900460ff1615611c9457600080fd5b6000600260009054906101000a900473ffffffffffffffffffffffffffffffffffffffff1690506000600560008573ffffffffffffffffffffffffffffffffffffffff1673ffffffffffffffffffffffffffffffffffffffff168152602001908152602001600020549050611d128382612d7290919063ffffffff16565b600560008673ffffffffffffffffffffffffffffffffffffffff1673ffffffffffffffffffffffffffffffffffffffff16815260200190815260200160002081905550611d823330858573ffffffffffffffffffffffffffffffffffffffff1661334f909392919063ffffffff16565b8173ffffffffffffffffffffffffffffffffffffffff16633e5b48ae6000808785866040518663ffffffff1660e01b81526004018086151515158152602001851515151581526020018473ffffffffffffffffffffffffffffffffffffffff1673ffffffffffffffffffffffffffffffffffffffff16815260200183815260200182815260200195505050505050600060405180830381600087803b158015611e2a57600080fd5b505af1158015611e3e573d6000803e3d6000fd5b505050508373ffffffffffffffffffffffffffffffffffffffff167fe1fffcc4923d04b559f4d29a8bfc6cda04eb5b0d3c460751c2402c5c5cc9109c846040518082815260200191505060405180910390a250505050565b600060019054906101000a900473ffffffffffffffffffffffffffffffffffffffff1681565b600860003373ffffffffffffffffffffffffffffffffffffffff1673ffffffffffffffffffffffffffffffffffffffff16815260200190815260200160002060009054906101000a900460ff16611f1257600080fd5b600060159054906101000a900460ff16156120a6576000600560008473ffffffffffffffffffffffffffffffffffffffff1673ffffffffffffffffffffffffffffffffffffffff1681526020019081526020016000205490506000600460008573ffffffffffffffffffffffffffffffffffffffff1673ffffffffffffffffffffffffffffffffffffffff1681526020019081526020016000205490506000611fbe838360015461343c565b9050600260009054906101000a900473ffffffffffffffffffffffffffffffffffffffff1673ffffffffffffffffffffffffffffffffffffffff16633e5b48ae6001808887866040518663ffffffff1660e01b81526004018086151515158152602001851515151581526020018473ffffffffffffffffffffffffffffffffffffffff1673ffffffffffffffffffffffffffffffffffffffff16815260200183815260200182815260200195505050505050600060405180830381600087803b15801561208a57600080fd5b505af115801561209e573d6000803e3d6000fd5b505050505050505b60006121026120b483612f0e565b600460008673ffffffffffffffffffffffffffffffffffffffff1673ffffffffffffffffffffffffffffffffffffffff16815260200190815260200160002054612dfa90919063ffffffff16565b905080600460008573ffffffffffffffffffffffffffffffffffffffff1673ffffffffffffffffffffffffffffffffffffffff168152602001908152602001600020819055508273ffffffffffffffffffffffffffffffffffffffff167f37a3dcf938560d6df3d3753012bf8805327a75916054089b816450b20390c79d826040518082815260200191505060405180910390a2505050565b600060159054906101000a900460ff161580156121d25750600060169054906101000a900464ffffffffff1664ffffffffff164210155b6121db57600080fd5b6001600060156101000a81548160ff021916908315150217905550600260009054906101000a900473ffffffffffffffffffffffffffffffffffffffff1673ffffffffffffffffffffffffffffffffffffffff16630247c79c670de0b6b3a76400006040518263ffffffff1660e01b81526004018082815260200191505060206040518083038186803b15801561227157600080fd5b505afa158015612285573d6000803e3d6000fd5b505050506040513d602081101561229b57600080fd5b81019080805190602001909291905050506001819055506000600260009054906101000a900473ffffffffffffffffffffffffffffffffffffffff1673ffffffffffffffffffffffffffffffffffffffff1663760222856040518163ffffffff1660e01b815260040160206040518083038186803b15801561231c57600080fd5b505afa158015612330573d6000803e3d6000fd5b505050506040513d602081101561234657600080fd5b8101908080519060200190929190505050905060ff80168111612369578061236e565b60ff80165b90506000600260009054906101000a900473ffffffffffffffffffffffffffffffffffffffff16905060008090505b828160ff16101561246c57600a8273ffffffffffffffffffffffffffffffffffffffff16631f92c2ec836040518263ffffffff1660e01b8152600401808260ff16815260200191505060206040518083038186803b1580156123fe57600080fd5b505afa158015612412573d6000803e3d6000fd5b505050506040513d602081101561242857600080fd5b81019080805190602001909291905050509080600181540180825580915050600190039060005260206000200160009091909190915055808060010191505061239d565b505050565b600060159054906101000a900460ff161561248b57600080fd5b6000600260009054906101000a900473ffffffffffffffffffffffffffffffffffffffff1690506000600560003373ffffffffffffffffffffffffffffffffffffffff1673ffffffffffffffffffffffffffffffffffffffff1681526020019081526020016000205490506000600460003373ffffffffffffffffffffffffffffffffffffffff1673ffffffffffffffffffffffffffffffffffffffff168152602001908152602001600020549050600080821261254a5760006125df565b8373ffffffffffffffffffffffffffffffffffffffff16630247c79c670de0b6b3a76400006040518263ffffffff1660e01b81526004018082815260200191505060206040518083038186803b1580156125a357600080fd5b505afa1580156125b7573d6000803e3d6000fd5b505050506040513d60208110156125cd57600080fd5b81019080805190602001909291905050505b9050856125ed848484613214565b10156125f857600080fd5b8373ffffffffffffffffffffffffffffffffffffffff16633e5b48ae6000803387886040518663ffffffff1660e01b81526004018086151515158152602001851515151581526020018473ffffffffffffffffffffffffffffffffffffffff1673ffffffffffffffffffffffffffffffffffffffff16815260200183815260200182815260200195505050505050600060405180830381600087803b1580156126a057600080fd5b505af11580156126b4573d6000803e3d6000fd5b505050506126cb868461313c90919063ffffffff16565b600560003373ffffffffffffffffffffffffffffffffffffffff1673ffffffffffffffffffffffffffffffffffffffff1681526020019081526020016000208190555084156127e9578373ffffffffffffffffffffffffffffffffffffffff1663302f1756888860016040518463ffffffff1660e01b8152600401808473ffffffffffffffffffffffffffffffffffffffff1673ffffffffffffffffffffffffffffffffffffffff168152602001838152602001821515151581526020019350505050602060405180830381600087803b1580156127a857600080fd5b505af11580156127bc573d6000803e3d6000fd5b505050506040513d60208110156127d257600080fd5b810190808051906020019092919050505050612815565b61281487878673ffffffffffffffffffffffffffffffffffffffff166132979092919063ffffffff16565b5b3373ffffffffffffffffffffffffffffffffffffffff167f7fcf532c15f0a6db0bd6d0e038bea71d30d808c7d98cb3bf7268a95bf5081b65876040518082815260200191505060405180910390a250505050505050565b600060019054906101000a900473ffffffffffffffffffffffffffffffffffffffff1673ffffffffffffffffffffffffffffffffffffffff163373ffffffffffffffffffffffffffffffffffffffff161461292f576040517f08c379a000000000000000000000000000000000000000000000000000000000815260040180806020018281038252600a8152602001807f6f6e6c79206f776e65720000000000000000000000000000000000000000000081525060200191505060405180910390fd5b600073ffffffffffffffffffffffffffffffffffffffff168173ffffffffffffffffffffffffffffffffffffffff16146129a55780600060016101000a81548173ffffffffffffffffffffffffffffffffffffffff021916908373ffffffffffffffffffffffffffffffffffffffff1602179055505b50565b600860003373ffffffffffffffffffffffffffffffffffffffff1673ffffffffffffffffffffffffffffffffffffffff16815260200190815260200160002060009054906101000a900460ff166129fe57600080fd5b6000600260009054906101000a900473ffffffffffffffffffffffffffffffffffffffff16905060008060159054906101000a900460ff1690506000600560008673ffffffffffffffffffffffffffffffffffffffff1673ffffffffffffffffffffffffffffffffffffffff1681526020019081526020016000205490506000600460008773ffffffffffffffffffffffffffffffffffffffff1673ffffffffffffffffffffffffffffffffffffffff168152602001908152602001600020549050600083612b60578473ffffffffffffffffffffffffffffffffffffffff16630247c79c670de0b6b3a76400006040518263ffffffff1660e01b81526004018082815260200191505060206040518083038186803b158015612b2057600080fd5b505afa158015612b34573d6000803e3d6000fd5b505050506040513d6020811015612b4a57600080fd5b8101908080519060200190929190505050612b64565b6001545b905085612b728484846134de565b1015612b7d57600080fd5b8315612c78576000612b92848460015461343c565b9050600260009054906101000a900473ffffffffffffffffffffffffffffffffffffffff1673ffffffffffffffffffffffffffffffffffffffff16633e5b48ae6001808b88866040518663ffffffff1660e01b81526004018086151515158152602001851515151581526020018473ffffffffffffffffffffffffffffffffffffffff1673ffffffffffffffffffffffffffffffffffffffff16815260200183815260200182815260200195505050505050600060405180830381600087803b158015612c5e57600080fd5b505af1158015612c72573d6000803e3d6000fd5b50505050505b6000612cd4612c8688612f0e565b600460008b73ffffffffffffffffffffffffffffffffffffffff1673ffffffffffffffffffffffffffffffffffffffff1681526020019081526020016000205461318690919063ffffffff16565b905080600460008a73ffffffffffffffffffffffffffffffffffffffff1673ffffffffffffffffffffffffffffffffffffffff168152602001908152602001600020819055508773ffffffffffffffffffffffffffffffffffffffff167f37a3dcf938560d6df3d3753012bf8805327a75916054089b816450b20390c79d826040518082815260200191505060405180910390a25050505050505050565b600080828401905083811015612df0576040517f08c379a000000000000000000000000000000000000000000000000000000000815260040180806020018281038252601b8152602001807f536166654d6174683a206164646974696f6e206f766572666c6f77000000000081525060200191505060405180910390fd5b8091505092915050565b600080828401905060008312158015612e135750838112155b80612e295750600083128015612e2857508381125b5b612e7e576040517f08c379a0000000000000000000000000000000000000000000000000000000008152600401808060200182810382526021815260200180613a856021913960400191505060405180910390fd5b8091505092915050565b600080831415612e9b5760009050612f08565b6000828402905082848281612eac57fe5b0414612f03576040517f08c379a0000000000000000000000000000000000000000000000000000000008152600401808060200182810382526021815260200180613af46021913960400191505060405180910390fd5b809150505b92915050565b60007fffffffffffffffffffffffffffffffffffffffffffffffffffffffffffffffff8291508113612f8b576040517f08c379a0000000000000000000000000000000000000000000000000000000008152600401808060200182810382526028815260200180613acc6028913960400191505060405180910390fd5b919050565b600080831415612fa357600090506130b4565b7fffffffffffffffffffffffffffffffffffffffffffffffffffffffffffffffff83148015612ff157507f800000000000000000000000000000000000000000000000000000000000000082145b15613047576040517f08c379a0000000000000000000000000000000000000000000000000000000008152600401808060200182810382526027815260200180613b156027913960400191505060405180910390fd5b600082840290508284828161305857fe5b05146130af576040517f08c379a0000000000000000000000000000000000000000000000000000000008152600401808060200182810382526027815260200180613b156027913960400191505060405180910390fd5b809150505b92915050565b60007fffffffffffffffffffffffffffffffffffffffffffffffffffffffffffffffff8213613134576040517f08c379a000000000000000000000000000000000000000000000000000000000815260040180806020018281038252602e815260200180613a57602e913960400191505060405180910390fd5b819050919050565b600061317e83836040518060400160405280601e81526020017f536166654d6174683a207375627472616374696f6e206f766572666c6f770000815250613557565b905092915050565b60008082840390506000831215801561319f5750838113155b806131b557506000831280156131b457508381135b5b61320a576040517f08c379a0000000000000000000000000000000000000000000000000000000008152600401808060200182810382526024815260200180613b3c6024913960400191505060405180910390fd5b8091505092915050565b60008083121561328c57600061325e61322c85613617565b670de0b6b3a76400006132488689612e8890919063ffffffff16565b8161324f57fe5b0461313c90919063ffffffff16565b90508261327c670de0b6b3a764000083612e8890919063ffffffff16565b8161328357fe5b04915050613290565b8390505b9392505050565b61334a8363a9059cbb60e01b8484604051602401808373ffffffffffffffffffffffffffffffffffffffff1673ffffffffffffffffffffffffffffffffffffffff16815260200182815260200192505050604051602081830303815290604052907bffffffffffffffffffffffffffffffffffffffffffffffffffffffff19166020820180517bffffffffffffffffffffffffffffffffffffffffffffffffffffffff8381831617835250505050613661565b505050565b613436846323b872dd60e01b858585604051602401808473ffffffffffffffffffffffffffffffffffffffff1673ffffffffffffffffffffffffffffffffffffffff1681526020018373ffffffffffffffffffffffffffffffffffffffff1673ffffffffffffffffffffffffffffffffffffffff1681526020018281526020019350505050604051602081830303815290604052907bffffffffffffffffffffffffffffffffffffffffffffffffffffffff19166020820180517bffffffffffffffffffffffffffffffffffffffffffffffffffffffff8381831617835250505050613661565b50505050565b600080821161344a57600080fd5b6000670de0b6b3a76400006134688487612e8890919063ffffffff16565b8161346f57fe5b0490506000841361349a5761349561348685613617565b8261313c90919063ffffffff16565b6134ae565b6134ad8482612d7290919063ffffffff16565b5b9050826134cc670de0b6b3a764000083612e8890919063ffffffff16565b816134d357fe5b049150509392505050565b60008082116134ec57600080fd5b670de0b6b3a76400006135088386612e8890919063ffffffff16565b8161350f57fe5b0490506000831361353a5761353561352684613617565b8261313c90919063ffffffff16565b61354e565b61354d8382612d7290919063ffffffff16565b5b90509392505050565b6000838311158290613604576040517f08c379a00000000000000000000000000000000000000000000000000000000081526004018080602001828103825283818151815260200191508051906020019080838360005b838110156135c95780820151818401526020810190506135ae565b50505050905090810190601f1680156135f65780820380516001836020036101000a031916815260200191505b509250505060405180910390fd5b5060008385039050809150509392505050565b60008082126136285781905061365c565b7f800000000000000000000000000000000000000000000000000000000000000082141561365557600080fd5b8160000390505b919050565b60606136c3826040518060400160405280602081526020017f5361666545524332303a206c6f772d6c6576656c2063616c6c206661696c65648152508573ffffffffffffffffffffffffffffffffffffffff166137509092919063ffffffff16565b905060008151111561374b578080602001905160208110156136e457600080fd5b810190808051906020019092919050505061374a576040517f08c379a000000000000000000000000000000000000000000000000000000000815260040180806020018281038252602a815260200180613b60602a913960400191505060405180910390fd5b5b505050565b606061375f8484600085613768565b90509392505050565b6060824710156137c3576040517f08c379a0000000000000000000000000000000000000000000000000000000008152600401808060200182810382526026815260200180613aa66026913960400191505060405180910390fd5b6137cc85613911565b61383e576040517f08c379a000000000000000000000000000000000000000000000000000000000815260040180806020018281038252601d8152602001807f416464726573733a2063616c6c20746f206e6f6e2d636f6e747261637400000081525060200191505060405180910390fd5b600060608673ffffffffffffffffffffffffffffffffffffffff1685876040518082805190602001908083835b6020831061388e578051825260208201915060208101905060208303925061386b565b6001836020036101000a03801982511681845116808217855250505050505090500191505060006040518083038185875af1925050503d80600081146138f0576040519150601f19603f3d011682016040523d82523d6000602084013e6138f5565b606091505b5091509150613905828286613924565b92505050949350505050565b600080823b905060008111915050919050565b60608315613934578290506139e9565b6000835111156139475782518084602001fd5b816040517f08c379a00000000000000000000000000000000000000000000000000000000081526004018080602001828103825283818151815260200191508051906020019080838360005b838110156139ae578082015181840152602081019050613993565b50505050905090810190601f1680156139db5780820380516001836020036101000a031916815260200191505b509250505060405180910390fd5b9392505050565b6040518060400160405280600290602082028036833780820191505090505090565b6040518060400160405280600290602082028036833780820191505090505090565b604051806040016040528060029060208202803683378082019150509050509056fe5369676e6564536166654d6174683a20696e76616c696420696e7420746f2075696e7420636f6e76657273696f6e5369676e6564536166654d6174683a206164646974696f6e206f766572666c6f77416464726573733a20696e73756666696369656e742062616c616e636520666f722063616c6c536166654d6174683a20696e76616c69642075696e7420746f20696e7420636f6e76657273696f6e536166654d6174683a206d756c7469706c69636174696f6e206f766572666c6f775369676e6564536166654d6174683a206d756c7469706c69636174696f6e206f766572666c6f775369676e6564536166654d6174683a207375627472616374696f6e206f766572666c6f775361666545524332303a204552433230206f7065726174696f6e20646964206e6f742073756363656564a2646970667358221220173d253478f46b9d5ffc0c719135498b6c17ac02516998df2452e9808a15845664736f6c63430006080033",
  "immutableReferences": {},
  "source": "// SPDX-License-Identifier: MIT\npragma solidity >=0.6.8 <0.7.0;\nimport \"../interfaces/IFixCapitalPool.sol\";\nimport \"../interfaces/IWrapper.sol\";\nimport \"../interfaces/IYieldToken.sol\";\nimport \"../interfaces/IZeroCouponBond.sol\";\nimport \"../interfaces/IERC20.sol\";\nimport \"../interfaces/IInfoOracle.sol\";\nimport \"../libraries/SafeMath.sol\";\nimport \"../libraries/SignedSafeMath.sol\";\nimport \"../libraries/SafeERC20.sol\";\nimport \"./FCPDelegateParent.sol\";\n\ncontract FCPDelegate2 is FCPDelegateParent {\n\tusing SafeERC20 for IERC20;\n\n\tevent BalanceUpdate(\n\t\taddress indexed owner,\n\t\tuint newYield,\n\t\tint newBond\n\t);\n\tevent BondBalanceUpdate(\n\t\taddress indexed owner,\n\t\tint newBond\n\t);\n\tevent ClaimPayout(\n\t\taddress indexed owner\n\t);\n\tevent Deposit(\n\t\taddress indexed to,\n\t\tuint wrappedAmountDeposited\n\t);\n\tevent Withdrawal(\n\t\taddress indexed from,\n\t\tuint wrappedAmountWithdrawn\n\t);\n\n\tusing SafeMath for uint;\n\tusing SignedSafeMath for int;\n\n\t/*\n\t\t@Description: send wrapped asest to this fix capital pool, receive ZCB & YT\n\n\t\t@param address _to: the address that shall receive the ZCB and YT\n\t\t@param uint _amountWrappedTkn: the amount of wrapped asset to deposit\n\t*/\n\tfunction depositWrappedToken(address _to, uint _amountWrappedTkn) external beforePayoutPhase {\n\t\tIWrapper wrp = internalWrapper;\n\t\tuint yield = internalBalanceYield[_to];\n\t\tinternalBalanceYield[_to] = yield.add(_amountWrappedTkn);\n\t\tIERC20(address(wrp)).safeTransferFrom(msg.sender, address(this), _amountWrappedTkn);\n\t\twrp.FCPDirectClaimSubAccountRewards(false, false, _to, yield, yield);\n\t\temit Deposit(_to, _amountWrappedTkn);\n\t}\n\n\t/*\n\t\t@Description: return ZCB & YT and receive wrapped asset\n\n\t\t@param address _to: the address that shall receive the output\n\t\t@param uint _amountWrappedTkn: the amount of wrapped asset to withdraw\n\t\t@param bool _unwrap: if true - wrapped asset will be sent to _to address\n\t\t\totherwise underlyingAsset will be sent\n\t*/\n\tfunction withdraw(address _to, uint _amountWrappedTkn, bool _unwrap) external beforePayoutPhase {\n\t\tIWrapper wrp = internalWrapper;\n\t\tuint yield = internalBalanceYield[msg.sender];\n\t\tint bond = internalBalanceBonds[msg.sender];\n\t\t//conversionRate doesn't matter if bond >= 0, save gas if we can by not fetching the conv rate\n\t\tuint conversionRate = bond < 0 ? wrp.WrappedAmtToUnitAmt_RoundDown(1 ether) : 0;\n\t\trequire(maxWrappedWithdrawAmt(yield, bond, conversionRate) >= _amountWrappedTkn);\n\n\t\twrp.FCPDirectClaimSubAccountRewards(false, false, msg.sender, yield, yield);\n\t\tinternalBalanceYield[msg.sender] = yield.sub(_amountWrappedTkn);\n\n\t\tif (_unwrap)\n\t\t\twrp.withdrawWrappedAmount(_to, _amountWrappedTkn, true);\n\t\telse\n\t\t\tIERC20(address(wrp)).safeTransfer(_to, _amountWrappedTkn);\n\n\t\temit Withdrawal(msg.sender, _amountWrappedTkn);\n\t}\n\n\n\t/*\n\t\t@Description: return Min(balanceZCB, balanceYT) of both ZCB & YT and receive the corresponding\n\t\t\tamount of wrapped asset.\n\t\t\tEssentially this function is like withdraw except it always withdraws as much as possible\n\n\t\t@param address _to: the address that shall receive the output\n\t\t@param bool _unwrap: if true - wrapped asset will be sent to _to address\n\t\t\totherwise underlyingAsset will be sent\n\t*/\n\tfunction withdrawAll(address _to, bool _unwrap) external beforePayoutPhase {\n\t\tIWrapper wrp = internalWrapper;\n\t\tuint yield = internalBalanceYield[msg.sender];\n\t\tint bond = internalBalanceBonds[msg.sender];\n\t\t//conversionRate doesn't matter if bond >= 0, save gas if we can by not fetching the conv rate\n\t\tuint conversionRate = bond < 0 ? wrp.WrappedAmtToUnitAmt_RoundDown(1 ether) : 0;\n\t\tuint freeToMove = maxWrappedWithdrawAmt(yield, bond, conversionRate);\n\n\t\twrp.FCPDirectClaimSubAccountRewards(false, false, msg.sender, yield, yield);\n\t\tinternalBalanceYield[msg.sender] = yield.sub(freeToMove);\n\n\t\tif (_unwrap)\n\t\t\twrp.withdrawWrappedAmount(_to, freeToMove, true);\n\t\telse\n\t\t\tIERC20(address(wrp)).safeTransfer(_to, freeToMove);\n\n\t\temit Withdrawal(msg.sender, freeToMove);\n\t}\n\n\t/*\n\t\t@Description: after maturity call this funtion to send into payout phase\n\t*/\n\tfunction enterPayoutPhase() external {\n\t\trequire(!internalInPayoutPhase && block.timestamp >= internalMaturity);\n\t\tinternalInPayoutPhase = true;\n\t\tinternalMaturityConversionRate = internalWrapper.WrappedAmtToUnitAmt_RoundDown(1 ether);\n\t\tuint len = internalWrapper.numRewardsAssets();\n\t\tlen = len > type(uint8).max ? type(uint8).max : len;\n\t\tIWrapper wrp = internalWrapper;\n\t\tfor (uint8 i = 0; i < len; i++) {\n\t\t\tinternalTotalRewardsPerWassetAtMaturity.push(wrp.totalRewardsPerWasset(i));\n\t\t}\n\t}\n\n    /*\n\t\t@Description: VaultFactory contract may mint new ZCB against collateral, to mint new ZCB the VaultFactory\n\t\t\tcalls this function\n\t\n\t\t@param address _owner: address to credit new ZCB to\n\t\t@param uint _amount: amount of ZCB to credit to _owner\n    */\n\tfunction mintZCBTo(address _owner, uint _amount) external {\n\t\trequire(internalWhitelistedVaultFactories[msg.sender]);\n\t\tif (internalInPayoutPhase) {\n\t\t\tuint yield = internalBalanceYield[_owner];\n\t\t\tint bond = internalBalanceBonds[_owner];\n\t\t\tuint payout = payoutAmount(yield, bond, internalMaturityConversionRate);\n\t\t\tinternalWrapper.FCPDirectClaimSubAccountRewards(true, true, _owner, yield, payout);\n\t\t}\n\t\tint newBond = internalBalanceBonds[_owner].add(_amount.toInt());\n\t\tinternalBalanceBonds[_owner] = newBond;\n\t\temit BondBalanceUpdate(_owner, newBond);\n\t}\n\n\t/*\n\t\t@Description: when margin position is closed/liquidated VaultFactory contract calls this function to\n\t\t\tremove ZCB from circulation\n\n\t\t@param address _owner: address to take ZCB from\n\t\t@param uint _amount: the amount of ZCB to remove from cirulation\t\t\n\t*/\n\tfunction burnZCBFrom(address _owner, uint _amount) external {\n\t\trequire(internalWhitelistedVaultFactories[msg.sender]);\n\t\tIWrapper wrp = internalWrapper;\n\t\tbool _inPayoutPhase = internalInPayoutPhase;\n\t\tuint yield = internalBalanceYield[_owner];\n\t\tint bond = internalBalanceBonds[_owner];\n\t\tuint conversionRate = _inPayoutPhase ? internalMaturityConversionRate : wrp.WrappedAmtToUnitAmt_RoundDown(1 ether);\n\t\trequire(minimumUnitAmountAtMaturity(yield, bond, conversionRate) >= _amount);\n\t\tif (_inPayoutPhase) {\n\t\t\tuint payout = payoutAmount(yield, bond, internalMaturityConversionRate);\n\t\t\tinternalWrapper.FCPDirectClaimSubAccountRewards(true, true, _owner, yield, payout);\n\t\t}\n\t\tint newBond = internalBalanceBonds[_owner].sub(_amount.toInt());\n\t\tinternalBalanceBonds[_owner] = newBond;\n\t\temit BondBalanceUpdate(_owner, newBond);\n\t}\n\n\t/*\n\t\t@Description: initiate flashloan\n\n\t\t@param IFCPFlashBorrower: the contract that shall borrow the funds\n\t\t@param uint256 _amountYield: the amount of yield to flashborrow\n\t\t@param int256 _amountBond: the amount of bond to flashborrow\n\t\t@param bytes calldata _data: the data to pass to the flash borrow receiver\n\n\t\t@return bool: true when flashloan is successful\n    */\n    function flashLoan(\n        IFCPFlashBorrower _receiver,\n        uint256 _amountYield,\n        int256 _amountBond,\n        bytes calldata _data\n    ) external beforePayoutPhase noReentry returns (bool) {\n\t\trequire(_amountYield <= MAX_YIELD_FLASHLOAN);\n\t\trequire(_amountBond <= MAX_BOND_FLASHLOAN);\n\t\tuint ratio;\n\t\tuint _flashLoanFee = flashLoanFee;\n\t\tuint yieldFee;\n\t\tint bondFee;\n\t\t{\n\t\t\taddress recAddr = address(_receiver);\n\t\t\tuint copyAmtYield = _amountYield;\n\t\t\tint copyAmtBond = _amountBond;\n\t\t\tuint prevYield = internalBalanceYield[recAddr];\n\t\t\tIWrapper wrp = internalWrapper;\n\t\t\twrp.FCPDirectClaimSubAccountRewards(false, true, recAddr, prevYield, prevYield);\n\t\t\tratio = wrp.WrappedAmtToUnitAmt_RoundDown(1 ether);\n\n\t\t\tuint newYield =  prevYield.add(copyAmtYield);\n\t\t\tint newBond = internalBalanceBonds[recAddr].add(copyAmtBond);\n\t\t\temit BalanceUpdate(recAddr, newYield, newBond);\n\t\t\tif (copyAmtYield > 0) {\n\t\t\t\tyieldFee = copyAmtYield.mul(_flashLoanFee) / totalSBPS;\n\t\t\t\tinternalBalanceYield[recAddr] = newYield;\n\t\t\t}\n\t\t\tif (copyAmtBond != 0) {\n\t\t\t\tbondFee = copyAmtBond.mul(_flashLoanFee.toInt()) / int(totalSBPS);\n\t\t\t\tinternalBalanceBonds[recAddr] = newBond;\n\t\t\t}\n\t\t}\n\t\tuint effectiveZCB = _amountYield.mul(ratio) / (1 ether);\n\t\tif (_amountBond >= 0) {\n\t\t\teffectiveZCB = effectiveZCB.add(_amountBond.toUint());\n\t\t}\n\t\telse {\n\t\t\teffectiveZCB = effectiveZCB.sub(_amountBond.mul(-1).toUint());\n\t\t}\n\n\t\tbytes32 out = _receiver.onFlashLoan(msg.sender, _amountYield, _amountBond, yieldFee, bondFee, _data);\n\t\trequire(out == CALLBACK_SUCCESS);\n\n\t\t//decrement allowances\n\t\tIZeroCouponBond(internalZeroCouponBondAddress).decrementAllowance(address(_receiver), address(this), effectiveZCB);\n\t\tIYieldToken(internalYieldTokenAddress).decrementAllowance(address(_receiver), address(this), _amountYield);\n\n\t\t{\n\t\t\taddress recAddr = address(_receiver);\n\t\t\tuint copyAmtYield = _amountYield;\n\t\t\tint copyAmtBond = _amountBond;\n\t\t\tuint newYield = internalBalanceYield[recAddr];\n\t\t\tint newBond = internalBalanceBonds[recAddr];\n\t\t\tif (copyAmtYield > 0) {\n\t\t\t\tnewYield = newYield.sub(copyAmtYield).sub(yieldFee);\n\t\t\t\tinternalBalanceYield[recAddr] = newYield;\n\t\t\t}\n\t\t\tif (copyAmtBond != 0) {\n\t\t\t\tnewBond = newBond.sub(copyAmtBond).sub(bondFee);\n\t\t\t\tinternalBalanceBonds[recAddr] = newBond;\n\t\t\t}\n\t\t\temit BalanceUpdate(recAddr, newYield, newBond);\n\t\t}\n\n\t\taddress _owner = owner;\n\t\tIInfoOracle iorc = IInfoOracle(internalInfoOracleAddress);\n\t\tif (iorc.TreasuryFeeIsCollected()) {\n\t\t\taddress sendTo = iorc.sendTo();\n\n\t\t\tuint copyAmtYield = _amountYield;\n\t\t\tint copyAmtBond = _amountBond;\n\n\t\t\tuint[2] memory yieldArr = [internalBalanceYield[sendTo], internalBalanceYield[_owner]];\n\t\t\tint[2] memory bondArr = [internalBalanceBonds[sendTo], internalBalanceBonds[_owner]];\n\n\t\t\tif (copyAmtYield > 0) {\n\t\t\t\taddress[2] memory subAccts = [sendTo, _owner];\n\t\t\t\t//wrappedClaims is same as yield Arr, because this function may only be executed before the payout phase is entered\n\t\t\t\tinternalWrapper.FCPDirectDoubleClaimSubAccountRewards(false, true, subAccts, yieldArr, yieldArr);\n\n\t\t\t\tuint dividend = yieldFee >> 1;\n\t\t\t\tyieldArr[0] = yieldArr[0].add(dividend);\n\t\t\t\tyieldArr[1] = yieldArr[1].add(yieldFee - dividend);\n\t\t\t\tinternalBalanceYield[subAccts[0]] = yieldArr[0];\n\t\t\t\tinternalBalanceYield[subAccts[1]] = yieldArr[1];\n\t\t\t}\n\t\t\tif (copyAmtBond != 0) {\n\t\t\t\tint dividend = bondFee / 2;\n\t\t\t\tbondArr[0] = internalBalanceBonds[sendTo].add(dividend);\n\t\t\t\tbondArr[1] = internalBalanceBonds[_owner].add(bondFee - dividend);\n\t\t\t\tinternalBalanceBonds[sendTo] = internalBalanceBonds[sendTo];\n\t\t\t\tinternalBalanceBonds[_owner] = internalBalanceBonds[_owner];\n\t\t\t}\n\t\t\temit BalanceUpdate(sendTo, yieldArr[0], bondArr[0]);\n\t\t\temit BalanceUpdate(_owner, yieldArr[1], bondArr[1]);\n\t\t}\n\t\telse {\n\t\t\tif (_amountYield > 0) {\n\t\t\t\tuint prevYieldOwner = internalBalanceYield[_owner];\n\t\t\t\tinternalWrapper.FCPDirectClaimSubAccountRewards(false, true, _owner, prevYieldOwner, prevYieldOwner);\n\n\t\t\t\tinternalBalanceYield[_owner] = prevYieldOwner.add(yieldFee);\n\t\t\t}\n\t\t\tif (_amountBond != 0) {\n\t\t\t\tinternalBalanceBonds[_owner] = internalBalanceBonds[_owner].add(bondFee);\n\t\t\t}\n\t\t}\n\t    return true;\n    }\n\n}",
  "sourcePath": "/home/asher/FixFinanceV1/contracts/FixCapitalPool/FCPDelegate2.sol",
  "compiler": {
    "name": "solc",
    "version": "0.6.8+commit.0bbfe453.Emscripten.clang"
  },
  "schemaVersion": "3.4.1",
  "updatedAt": "2021-11-26T19:15:54.878Z",
  "devdoc": {
    "methods": {}
  },
  "userdoc": {
    "methods": {}
  }
}