{
  "contractName": "FCPData",
  "abi": [
    {
      "inputs": [],
      "name": "owner",
      "outputs": [
        {
          "internalType": "address",
          "name": "",
          "type": "address"
        }
      ],
      "stateMutability": "view",
      "type": "function"
    },
    {
      "inputs": [
        {
          "internalType": "address",
          "name": "newOwner",
          "type": "address"
        }
      ],
      "name": "transferOwnership",
      "outputs": [],
      "stateMutability": "nonpayable",
      "type": "function"
    }
  ],
  "bytecode": "0x608060405234801561001057600080fd5b5033600060016101000a81548173ffffffffffffffffffffffffffffffffffffffff021916908373ffffffffffffffffffffffffffffffffffffffff160217905550610261806100616000396000f3fe608060405234801561001057600080fd5b50600436106100365760003560e01c80638da5cb5b1461003b578063f2fde38b14610085575b600080fd5b6100436100c9565b604051808273ffffffffffffffffffffffffffffffffffffffff1673ffffffffffffffffffffffffffffffffffffffff16815260200191505060405180910390f35b6100c76004803603602081101561009b57600080fd5b81019080803573ffffffffffffffffffffffffffffffffffffffff1690602001909291905050506100ef565b005b600060019054906101000a900473ffffffffffffffffffffffffffffffffffffffff1681565b600060019054906101000a900473ffffffffffffffffffffffffffffffffffffffff1673ffffffffffffffffffffffffffffffffffffffff163373ffffffffffffffffffffffffffffffffffffffff16146101b2576040517f08c379a000000000000000000000000000000000000000000000000000000000815260040180806020018281038252600a8152602001807f6f6e6c79206f776e65720000000000000000000000000000000000000000000081525060200191505060405180910390fd5b600073ffffffffffffffffffffffffffffffffffffffff168173ffffffffffffffffffffffffffffffffffffffff16146102285780600060016101000a81548173ffffffffffffffffffffffffffffffffffffffff021916908373ffffffffffffffffffffffffffffffffffffffff1602179055505b5056fea2646970667358221220b2e0b8338cff044161587085ced951ae9c4ef721c0cfe6f0fd59b4f3974a287e64736f6c63430006080033",
  "immutableReferences": {},
  "source": "// SPDX-License-Identifier: MIT\npragma solidity >=0.6.8 <0.7.0;\nimport \"../interfaces/IWrapper.sol\";\nimport \"../helpers/Ownable.sol\";\nimport \"../helpers/nonReentrant.sol\";\n\ncontract FCPData is nonReentrant, Ownable {\n\t//set to true after internalMaturity\n\t//once true users may redeem ZCBs for underlying\n\tbool internalInPayoutPhase;\n\t//timestamp at which payout phase may be entered\n\tuint40 internalMaturity;\n\t//(1 ether) * amountUnit / wrappedToken\n\tuint internalMaturityConversionRate;\n\tIWrapper internalWrapper;\n\taddress internalUnderlyingAssetAddress;\n\t/*\n\t\tThese 2 mappings along with the conversion ratio between Unit amounts and\n\t\twrapped amounts keep track of a user's balance of ZCB and YT\n\n\t\tinternalBalanceYield refers to the amount of wrapped assets which have been credited to a user.\n\t\tWhen a user depsoits X amount of wrapped asset internalBalanceYield[user] += X;\n\t\tinternalBalanceYield is denominated in wrapped asset amounts\n\t\tinternalBalanceBonds refers to the amount of ZCBs that a user is indebted against their \n\t\tposition of wrapped assets stored in internalBalanceYield.\n\t\tThe values in internalBalanceBonds may be positive or negative.\n\t\tA positive balance in internalBalanceBonds indicates that a user extra ZCB ontop of\n\t\thow ever much wrapped asset they own in internalBalanceYield.\n\t\tA negative balance in internalBalanceBonds indicates that a user is indebted ZCB against their\n\t\twrapped assets held in internalBalanceYield.\n\t\tThe current value in Uint amount of a user's balance of wrapped asset stored in internalBalanceYield \n\t\tmay never be greater than a user's negatie balance in internalBalanceBonds\n\n\t\tIf a user would like to sell more ZCB against the underlying asset than the face unit value of\n\t\tunderlying asset they must use open a vault with the VaultFactory contract to access margin\n\t*/\n\tmapping(address => int) internalBalanceBonds;\n\tmapping(address => uint) internalBalanceYield;\n\taddress internalYieldTokenAddress;\n\taddress internalZeroCouponBondAddress;\n\tmapping(address => bool) internalWhitelistedVaultFactories;\n    address internalInfoOracleAddress;\n    uint[] internalTotalRewardsPerWassetAtMaturity;\n\t//when isFinalized, internalWhitelistedVaultFactories mapping may not be changed\n\tbool internalIsFinalized;\n\n\t//----------end-overridden-data--------\n\n\t//data for flashloans\n    uint256 flashLoanFee; // denominated in super bips\n    //---------------add flashLoanFee into IFixCapitalPool interface------------\n\n    bytes32 constant CALLBACK_SUCCESS = keccak256(\"FCPFlashBorrower.onFlashLoan\");\n\t//SBPS == super bips == 1/100th of a bip\n\t//100 * 10_000 == 1_000_000\n\tuint32 internal constant totalSBPS = 1_000_000;\n    uint256 internal constant MAX_YIELD_FLASHLOAN = 2**250 / totalSBPS;\n    int256 internal constant MAX_BOND_FLASHLOAN = 2**250 / int(totalSBPS);\n}",
  "sourcePath": "/home/asher/FixFinanceV1/contracts/FixCapitalPool/FCPData.sol",
  "compiler": {
    "name": "solc",
    "version": "0.6.8+commit.0bbfe453.Emscripten.clang"
  },
  "schemaVersion": "3.4.1",
  "updatedAt": "2021-11-26T19:15:54.854Z",
  "devdoc": {
    "methods": {}
  },
  "userdoc": {
    "methods": {}
  }
}