{
  "contractName": "FCPDelegate1",
  "abi": [
    {
      "anonymous": false,
      "inputs": [
        {
          "indexed": true,
          "internalType": "address",
          "name": "owner",
          "type": "address"
        },
        {
          "indexed": false,
          "internalType": "uint256",
          "name": "newYield",
          "type": "uint256"
        },
        {
          "indexed": false,
          "internalType": "int256",
          "name": "newBond",
          "type": "int256"
        }
      ],
      "name": "BalanceUpdate",
      "type": "event"
    },
    {
      "anonymous": false,
      "inputs": [
        {
          "indexed": true,
          "internalType": "address",
          "name": "owner",
          "type": "address"
        },
        {
          "indexed": false,
          "internalType": "int256",
          "name": "newBond",
          "type": "int256"
        }
      ],
      "name": "BondBalanceUpdate",
      "type": "event"
    },
    {
      "anonymous": false,
      "inputs": [
        {
          "indexed": true,
          "internalType": "address",
          "name": "owner",
          "type": "address"
        }
      ],
      "name": "ClaimPayout",
      "type": "event"
    },
    {
      "anonymous": false,
      "inputs": [
        {
          "indexed": true,
          "internalType": "address",
          "name": "to",
          "type": "address"
        },
        {
          "indexed": false,
          "internalType": "uint256",
          "name": "wrappedAmountDeposited",
          "type": "uint256"
        }
      ],
      "name": "Deposit",
      "type": "event"
    },
    {
      "anonymous": false,
      "inputs": [
        {
          "indexed": true,
          "internalType": "address",
          "name": "from",
          "type": "address"
        },
        {
          "indexed": false,
          "internalType": "uint256",
          "name": "wrappedAmountWithdrawn",
          "type": "uint256"
        }
      ],
      "name": "Withdrawal",
      "type": "event"
    },
    {
      "inputs": [],
      "name": "owner",
      "outputs": [
        {
          "internalType": "address",
          "name": "",
          "type": "address"
        }
      ],
      "stateMutability": "view",
      "type": "function"
    },
    {
      "inputs": [
        {
          "internalType": "address",
          "name": "newOwner",
          "type": "address"
        }
      ],
      "name": "transferOwnership",
      "outputs": [],
      "stateMutability": "nonpayable",
      "type": "function"
    },
    {
      "inputs": [
        {
          "internalType": "address",
          "name": "_to",
          "type": "address"
        },
        {
          "internalType": "bool",
          "name": "_unwrap",
          "type": "bool"
        }
      ],
      "name": "claimBondPayout",
      "outputs": [],
      "stateMutability": "nonpayable",
      "type": "function"
    },
    {
      "inputs": [
        {
          "internalType": "address",
          "name": "_to",
          "type": "address"
        },
        {
          "internalType": "uint256",
          "name": "_yield",
          "type": "uint256"
        },
        {
          "internalType": "int256",
          "name": "_bond",
          "type": "int256"
        }
      ],
      "name": "transferPosition",
      "outputs": [],
      "stateMutability": "nonpayable",
      "type": "function"
    },
    {
      "inputs": [
        {
          "internalType": "address",
          "name": "_from",
          "type": "address"
        },
        {
          "internalType": "address",
          "name": "_to",
          "type": "address"
        },
        {
          "internalType": "uint256",
          "name": "_yield",
          "type": "uint256"
        },
        {
          "internalType": "int256",
          "name": "_bond",
          "type": "int256"
        }
      ],
      "name": "transferPositionFrom",
      "outputs": [],
      "stateMutability": "nonpayable",
      "type": "function"
    },
    {
      "inputs": [
        {
          "internalType": "address",
          "name": "_from",
          "type": "address"
        },
        {
          "internalType": "address",
          "name": "_to",
          "type": "address"
        },
        {
          "internalType": "uint256",
          "name": "_amount",
          "type": "uint256"
        }
      ],
      "name": "transferZCB",
      "outputs": [],
      "stateMutability": "nonpayable",
      "type": "function"
    },
    {
      "inputs": [
        {
          "internalType": "address",
          "name": "_from",
          "type": "address"
        },
        {
          "internalType": "address",
          "name": "_to",
          "type": "address"
        },
        {
          "internalType": "uint256",
          "name": "_amount",
          "type": "uint256"
        }
      ],
      "name": "transferYT",
      "outputs": [],
      "stateMutability": "nonpayable",
      "type": "function"
    }
  ],
  "bytecode": "0x608060405234801561001057600080fd5b5033600060016101000a81548173ffffffffffffffffffffffffffffffffffffffff021916908373ffffffffffffffffffffffffffffffffffffffff1602179055506136fc806100616000396000f3fe608060405234801561001057600080fd5b506004361061007d5760003560e01c80638da5cb5b1161005b5780638da5cb5b146101b6578063ad39b51814610200578063ec02d25714610250578063f2fde38b146102c85761007d565b806343959bb9146100825780636a68d0c3146100f057806388beac0c14610148575b600080fd5b6100ee6004803603606081101561009857600080fd5b81019080803573ffffffffffffffffffffffffffffffffffffffff169060200190929190803573ffffffffffffffffffffffffffffffffffffffff1690602001909291908035906020019092919050505061030c565b005b6101466004803603606081101561010657600080fd5b81019080803573ffffffffffffffffffffffffffffffffffffffff1690602001909291908035906020019092919080359060200190929190505050610ced565b005b6101b46004803603606081101561015e57600080fd5b81019080803573ffffffffffffffffffffffffffffffffffffffff169060200190929190803573ffffffffffffffffffffffffffffffffffffffff169060200190929190803590602001909291905050506113c8565b005b6101be611c0a565b604051808273ffffffffffffffffffffffffffffffffffffffff1673ffffffffffffffffffffffffffffffffffffffff16815260200191505060405180910390f35b61024e6004803603604081101561021657600080fd5b81019080803573ffffffffffffffffffffffffffffffffffffffff169060200190929190803515159060200190929190505050611c30565b005b6102c66004803603608081101561026657600080fd5b81019080803573ffffffffffffffffffffffffffffffffffffffff169060200190929190803573ffffffffffffffffffffffffffffffffffffffff1690602001909291908035906020019092919080359060200190929190505050611fa1565b005b61030a600480360360208110156102de57600080fd5b81019080803573ffffffffffffffffffffffffffffffffffffffff169060200190929190505050612a60565b005b8173ffffffffffffffffffffffffffffffffffffffff168373ffffffffffffffffffffffffffffffffffffffff16141561034557600080fd5b6000600260009054906101000a900473ffffffffffffffffffffffffffffffffffffffff16905060008060159054906101000a900460ff1690508473ffffffffffffffffffffffffffffffffffffffff163373ffffffffffffffffffffffffffffffffffffffff16141580156104095750600660009054906101000a900473ffffffffffffffffffffffffffffffffffffffff1673ffffffffffffffffffffffffffffffffffffffff163373ffffffffffffffffffffffffffffffffffffffff1614155b1561050457600660009054906101000a900473ffffffffffffffffffffffffffffffffffffffff1673ffffffffffffffffffffffffffffffffffffffff1663bf83dcf38633866040518463ffffffff1660e01b8152600401808473ffffffffffffffffffffffffffffffffffffffff1673ffffffffffffffffffffffffffffffffffffffff1681526020018373ffffffffffffffffffffffffffffffffffffffff1673ffffffffffffffffffffffffffffffffffffffff1681526020018281526020019350505050600060405180830381600087803b1580156104eb57600080fd5b505af11580156104ff573d6000803e3d6000fd5b505050505b6000816105a4578273ffffffffffffffffffffffffffffffffffffffff16630247c79c670de0b6b3a76400006040518263ffffffff1660e01b81526004018082815260200191505060206040518083038186803b15801561056457600080fd5b505afa158015610578573d6000803e3d6000fd5b505050506040513d602081101561058e57600080fd5b81019080805190602001909291905050506105a8565b6001545b90506105b2613554565b6040518060400160405280600460008a73ffffffffffffffffffffffffffffffffffffffff1673ffffffffffffffffffffffffffffffffffffffff168152602001908152602001600020548152602001600460008973ffffffffffffffffffffffffffffffffffffffff1673ffffffffffffffffffffffffffffffffffffffff16815260200190815260200160002054815250905061064f613576565b60405180604001604052808973ffffffffffffffffffffffffffffffffffffffff1673ffffffffffffffffffffffffffffffffffffffff1681526020018873ffffffffffffffffffffffffffffffffffffffff1673ffffffffffffffffffffffffffffffffffffffff1681525090506106c6613598565b6040518060400160405280600560008c73ffffffffffffffffffffffffffffffffffffffff1673ffffffffffffffffffffffffffffffffffffffff168152602001908152602001600020548152602001600560008b73ffffffffffffffffffffffffffffffffffffffff1673ffffffffffffffffffffffffffffffffffffffff168152602001908152602001600020548152509050610763613598565b8561076e57816107dc565b60405180604001604052806107a68460006002811061078957fe5b60200201518760006002811061079b57fe5b602002015189612b9c565b81526020016107d8846001600281106107bb57fe5b6020020151876001600281106107cd57fe5b602002015189612b9c565b8152505b90506000670de0b6b3a76400006107fc878b612c3e90919063ffffffff16565b8161080357fe5b04905061085761082d8a8560006002811061081a57fe5b6020020151612cc490919063ffffffff16565b610851838860006002811061083e57fe5b6020020151612d0e90919063ffffffff16565b88612d9c565b61086057600080fd5b610884898460006002811061087157fe5b6020020151612cc490919063ffffffff16565b600560008d73ffffffffffffffffffffffffffffffffffffffff1673ffffffffffffffffffffffffffffffffffffffff168152602001908152602001600020819055506108eb81866000600281106108d857fe5b6020020151612d0e90919063ffffffff16565b600460008d73ffffffffffffffffffffffffffffffffffffffff1673ffffffffffffffffffffffffffffffffffffffff16815260200190815260200160002081905550610952898460016002811061093f57fe5b6020020151612de990919063ffffffff16565b600560008c73ffffffffffffffffffffffffffffffffffffffff1673ffffffffffffffffffffffffffffffffffffffff168152602001908152602001600020819055506109b981866001600281106109a657fe5b6020020151612e7190919063ffffffff16565b600460008c73ffffffffffffffffffffffffffffffffffffffff1673ffffffffffffffffffffffffffffffffffffffff168152602001908152602001600020819055508773ffffffffffffffffffffffffffffffffffffffff1663e77668df8860018787876040518663ffffffff1660e01b815260040180861515151581526020018515151515815260200184600260200280838360005b83811015610a6c578082015181840152602081019050610a51565b5050505090500183600260200280838360005b83811015610a9a578082015181840152602081019050610a7f565b5050505090500182600260200280838360005b83811015610ac8578082015181840152602081019050610aad565b5050505090500195505050505050600060405180830381600087803b158015610af057600080fd5b505af1158015610b04573d6000803e3d6000fd5b50505050610b2c8984600060028110610b1957fe5b6020020151612cc490919063ffffffff16565b83600060028110610b3957fe5b602002018181525050610b668984600160028110610b5357fe5b6020020151612de990919063ffffffff16565b83600160028110610b7357fe5b602002018181525050610ba08186600060028110610b8d57fe5b6020020151612d0e90919063ffffffff16565b85600060028110610bad57fe5b602002018181525050610bda8186600160028110610bc757fe5b6020020151612e7190919063ffffffff16565b85600160028110610be757fe5b6020020181815250508a73ffffffffffffffffffffffffffffffffffffffff167f95a38428b6ec3f9070babb8e763ce6603e5cd3e6000ada727c96aecfa2783afb84600060028110610c3557fe5b602002015187600060028110610c4757fe5b6020020151604051808381526020018281526020019250505060405180910390a28973ffffffffffffffffffffffffffffffffffffffff167f95a38428b6ec3f9070babb8e763ce6603e5cd3e6000ada727c96aecfa2783afb84600160028110610cad57fe5b602002015187600160028110610cbf57fe5b6020020151604051808381526020018281526020019250505060405180910390a25050505050505050505050565b3373ffffffffffffffffffffffffffffffffffffffff168373ffffffffffffffffffffffffffffffffffffffff161415610d2657600080fd5b6000600260009054906101000a900473ffffffffffffffffffffffffffffffffffffffff16905060008060159054906101000a900460ff169050600081610e00578273ffffffffffffffffffffffffffffffffffffffff16630247c79c670de0b6b3a76400006040518263ffffffff1660e01b81526004018082815260200191505060206040518083038186803b158015610dc057600080fd5b505afa158015610dd4573d6000803e3d6000fd5b505050506040513d6020811015610dea57600080fd5b8101908080519060200190929190505050610e04565b6001545b9050610e11858583612d9c565b610e1a57600080fd5b6000600460003373ffffffffffffffffffffffffffffffffffffffff1673ffffffffffffffffffffffffffffffffffffffff1681526020019081526020016000205490506000600460008973ffffffffffffffffffffffffffffffffffffffff1673ffffffffffffffffffffffffffffffffffffffff168152602001908152602001600020549050610eaa613598565b6040518060400160405280600560003373ffffffffffffffffffffffffffffffffffffffff1673ffffffffffffffffffffffffffffffffffffffff168152602001908152602001600020548152602001600560008c73ffffffffffffffffffffffffffffffffffffffff1673ffffffffffffffffffffffffffffffffffffffff168152602001908152602001600020548152509050610f47613598565b8515610fa757600060015490506040518060400160405280610f7b85600060028110610f6f57fe5b60200201518885612b9c565b8152602001610f9c85600160028110610f9057fe5b60200201518785612b9c565b815250915050610fab565b8190505b610fb3613576565b60405180604001604052803373ffffffffffffffffffffffffffffffffffffffff1673ffffffffffffffffffffffffffffffffffffffff1681526020018c73ffffffffffffffffffffffffffffffffffffffff1673ffffffffffffffffffffffffffffffffffffffff1681525090506110626110498b8560006002811061103657fe5b6020020151612cc490919063ffffffff16565b61105c8b88612e7190919063ffffffff16565b88612d9c565b61106b57600080fd5b60006110918b8560006002811061107e57fe5b6020020151612cc490919063ffffffff16565b905060006110a88b88612e7190919063ffffffff16565b905081600560003373ffffffffffffffffffffffffffffffffffffffff1673ffffffffffffffffffffffffffffffffffffffff1681526020019081526020016000208190555080600460003373ffffffffffffffffffffffffffffffffffffffff1673ffffffffffffffffffffffffffffffffffffffff1681526020019081526020016000208190555060008d9050600061115d8e8860016002811061114a57fe5b6020020151612de990919063ffffffff16565b905060006111748e8a612d0e90919063ffffffff16565b905081600560008573ffffffffffffffffffffffffffffffffffffffff1673ffffffffffffffffffffffffffffffffffffffff1681526020019081526020016000208190555080600460008573ffffffffffffffffffffffffffffffffffffffff1673ffffffffffffffffffffffffffffffffffffffff168152602001908152602001600020819055508c73ffffffffffffffffffffffffffffffffffffffff1663e77668df8d6001898c8c6040518663ffffffff1660e01b815260040180861515151581526020018515151515815260200184600260200280838360005b8381101561126e578082015181840152602081019050611253565b5050505090500183600260200280838360005b8381101561129c578082015181840152602081019050611281565b5050505090500182600260200280838360005b838110156112ca5780820151818401526020810190506112af565b5050505090500195505050505050600060405180830381600087803b1580156112f257600080fd5b505af1158015611306573d6000803e3d6000fd5b505050503373ffffffffffffffffffffffffffffffffffffffff167f95a38428b6ec3f9070babb8e763ce6603e5cd3e6000ada727c96aecfa2783afb8686604051808381526020018281526020019250505060405180910390a28273ffffffffffffffffffffffffffffffffffffffff167f95a38428b6ec3f9070babb8e763ce6603e5cd3e6000ada727c96aecfa2783afb8383604051808381526020018281526020019250505060405180910390a250505050505050505050505050505050565b8173ffffffffffffffffffffffffffffffffffffffff168373ffffffffffffffffffffffffffffffffffffffff16141561140157600080fd5b60008060159054906101000a900460ff1690506000816114d657600260009054906101000a900473ffffffffffffffffffffffffffffffffffffffff1673ffffffffffffffffffffffffffffffffffffffff16630247c79c670de0b6b3a76400006040518263ffffffff1660e01b81526004018082815260200191505060206040518083038186803b15801561149657600080fd5b505afa1580156114aa573d6000803e3d6000fd5b505050506040513d60208110156114c057600080fd5b81019080805190602001909291905050506114da565b6001545b90506114e4613554565b6040518060400160405280600460008973ffffffffffffffffffffffffffffffffffffffff1673ffffffffffffffffffffffffffffffffffffffff168152602001908152602001600020548152602001600460008873ffffffffffffffffffffffffffffffffffffffff1673ffffffffffffffffffffffffffffffffffffffff1681526020019081526020016000205481525090508573ffffffffffffffffffffffffffffffffffffffff163373ffffffffffffffffffffffffffffffffffffffff16141580156116035750600760009054906101000a900473ffffffffffffffffffffffffffffffffffffffff1673ffffffffffffffffffffffffffffffffffffffff163373ffffffffffffffffffffffffffffffffffffffff1614155b156116fe57600760009054906101000a900473ffffffffffffffffffffffffffffffffffffffff1673ffffffffffffffffffffffffffffffffffffffff1663bf83dcf38733876040518463ffffffff1660e01b8152600401808473ffffffffffffffffffffffffffffffffffffffff1673ffffffffffffffffffffffffffffffffffffffff1681526020018373ffffffffffffffffffffffffffffffffffffffff1673ffffffffffffffffffffffffffffffffffffffff1681526020018281526020019350505050600060405180830381600087803b1580156116e557600080fd5b505af11580156116f9573d6000803e3d6000fd5b505050505b600061170985612eff565b9050600081121561171957600080fd5b600061176d82600460008b73ffffffffffffffffffffffffffffffffffffffff1673ffffffffffffffffffffffffffffffffffffffff16815260200190815260200160002054612e7190919063ffffffff16565b90506117b9600560008a73ffffffffffffffffffffffffffffffffffffffff1673ffffffffffffffffffffffffffffffffffffffff168152602001908152602001600020548286612d9c565b6117c257600080fd5b80600460008a73ffffffffffffffffffffffffffffffffffffffff1673ffffffffffffffffffffffffffffffffffffffff16815260200190815260200160002081905550600061185a83600460008b73ffffffffffffffffffffffffffffffffffffffff1673ffffffffffffffffffffffffffffffffffffffff16815260200190815260200160002054612d0e90919063ffffffff16565b905080600460008a73ffffffffffffffffffffffffffffffffffffffff1673ffffffffffffffffffffffffffffffffffffffff168152602001908152602001600020819055508515611b63576118ae613576565b60405180604001604052808b73ffffffffffffffffffffffffffffffffffffffff1673ffffffffffffffffffffffffffffffffffffffff1681526020018a73ffffffffffffffffffffffffffffffffffffffff1673ffffffffffffffffffffffffffffffffffffffff168152509050611925613598565b6040518060400160405280600560008e73ffffffffffffffffffffffffffffffffffffffff1673ffffffffffffffffffffffffffffffffffffffff168152602001908152602001600020548152602001600560008d73ffffffffffffffffffffffffffffffffffffffff1673ffffffffffffffffffffffffffffffffffffffff1681526020019081526020016000205481525090506119c2613598565b60405180604001604052806119fa846000600281106119dd57fe5b60200201518a6000600281106119ef57fe5b60200201518c612b9c565b8152602001611a2c84600160028110611a0f57fe5b60200201518a600160028110611a2157fe5b60200201518c612b9c565b8152509050600260009054906101000a900473ffffffffffffffffffffffffffffffffffffffff1673ffffffffffffffffffffffffffffffffffffffff1663e77668df6001808686866040518663ffffffff1660e01b815260040180861515151581526020018515151515815260200184600260200280838360005b83811015611ac3578082015181840152602081019050611aa8565b5050505090500183600260200280838360005b83811015611af1578082015181840152602081019050611ad6565b5050505090500182600260200280838360005b83811015611b1f578082015181840152602081019050611b04565b5050505090500195505050505050600060405180830381600087803b158015611b4757600080fd5b505af1158015611b5b573d6000803e3d6000fd5b505050505050505b8873ffffffffffffffffffffffffffffffffffffffff167f37a3dcf938560d6df3d3753012bf8805327a75916054089b816450b20390c79d836040518082815260200191505060405180910390a28773ffffffffffffffffffffffffffffffffffffffff167f37a3dcf938560d6df3d3753012bf8805327a75916054089b816450b20390c79d826040518082815260200191505060405180910390a2505050505050505050565b600060019054906101000a900473ffffffffffffffffffffffffffffffffffffffff1681565b600060159054906101000a900460ff16611c4957600080fd5b6000600260009054906101000a900473ffffffffffffffffffffffffffffffffffffffff1690506000600560003373ffffffffffffffffffffffffffffffffffffffff1673ffffffffffffffffffffffffffffffffffffffff1681526020019081526020016000205490506000600460003373ffffffffffffffffffffffffffffffffffffffff1673ffffffffffffffffffffffffffffffffffffffff1681526020019081526020016000205490506000611d078383600154612b9c565b9050600560003373ffffffffffffffffffffffffffffffffffffffff1673ffffffffffffffffffffffffffffffffffffffff16815260200190815260200160002060009055600460003373ffffffffffffffffffffffffffffffffffffffff1673ffffffffffffffffffffffffffffffffffffffff168152602001908152602001600020600090558373ffffffffffffffffffffffffffffffffffffffff16633e5b48ae6001803387866040518663ffffffff1660e01b81526004018086151515158152602001851515151581526020018473ffffffffffffffffffffffffffffffffffffffff1673ffffffffffffffffffffffffffffffffffffffff16815260200183815260200182815260200195505050505050600060405180830381600087803b158015611e3757600080fd5b505af1158015611e4b573d6000803e3d6000fd5b505050508415611f2a578373ffffffffffffffffffffffffffffffffffffffff1663302f1756878360006040518463ffffffff1660e01b8152600401808473ffffffffffffffffffffffffffffffffffffffff1673ffffffffffffffffffffffffffffffffffffffff168152602001838152602001821515151581526020019350505050602060405180830381600087803b158015611ee957600080fd5b505af1158015611efd573d6000803e3d6000fd5b505050506040513d6020811015611f1357600080fd5b810190808051906020019092919050505050611f56565b611f5586828673ffffffffffffffffffffffffffffffffffffffff16612f819092919063ffffffff16565b5b3373ffffffffffffffffffffffffffffffffffffffff167fbeea70d513fdce18bc02e074c19ad7a450089cab42eadfc1c0bbf9617f61d41060405160405180910390a2505050505050565b8273ffffffffffffffffffffffffffffffffffffffff168473ffffffffffffffffffffffffffffffffffffffff161415611fda57600080fd5b6000600260009054906101000a900473ffffffffffffffffffffffffffffffffffffffff16905060008060159054906101000a900460ff16905061201c613598565b6040518060400160405280600560008a73ffffffffffffffffffffffffffffffffffffffff1673ffffffffffffffffffffffffffffffffffffffff168152602001908152602001600020548152602001600560008973ffffffffffffffffffffffffffffffffffffffff1673ffffffffffffffffffffffffffffffffffffffff1681526020019081526020016000205481525090506120b9613554565b6040518060400160405280600460008b73ffffffffffffffffffffffffffffffffffffffff1673ffffffffffffffffffffffffffffffffffffffff168152602001908152602001600020548152602001600460008a73ffffffffffffffffffffffffffffffffffffffff1673ffffffffffffffffffffffffffffffffffffffff1681526020019081526020016000205481525090506000836121ee578473ffffffffffffffffffffffffffffffffffffffff16630247c79c670de0b6b3a76400006040518263ffffffff1660e01b81526004018082815260200191505060206040518083038186803b1580156121ae57600080fd5b505afa1580156121c2573d6000803e3d6000fd5b505050506040513d60208110156121d857600080fd5b81019080805190602001909291905050506121f2565b6001545b90506121fc613576565b60405180604001604052808b73ffffffffffffffffffffffffffffffffffffffff1673ffffffffffffffffffffffffffffffffffffffff1681526020018a73ffffffffffffffffffffffffffffffffffffffff1673ffffffffffffffffffffffffffffffffffffffff168152509050612276888884612d9c565b61227f57600080fd5b600088111561249c57600660009054906101000a900473ffffffffffffffffffffffffffffffffffffffff1673ffffffffffffffffffffffffffffffffffffffff1663bf83dcf38b338b6040518463ffffffff1660e01b8152600401808473ffffffffffffffffffffffffffffffffffffffff1673ffffffffffffffffffffffffffffffffffffffff1681526020018373ffffffffffffffffffffffffffffffffffffffff1673ffffffffffffffffffffffffffffffffffffffff1681526020018281526020019350505050600060405180830381600087803b15801561236557600080fd5b505af1158015612379573d6000803e3d6000fd5b505050506123a1888560006002811061238e57fe5b6020020151612cc490919063ffffffff16565b846000600281106123ae57fe5b6020020181815250506123db88856001600281106123c857fe5b6020020151612de990919063ffffffff16565b846001600281106123e857fe5b602002018181525050836000600281106123fe57fe5b6020020151600560008c73ffffffffffffffffffffffffffffffffffffffff1673ffffffffffffffffffffffffffffffffffffffff168152602001908152602001600020819055508360016002811061245357fe5b6020020151600560008b73ffffffffffffffffffffffffffffffffffffffff1673ffffffffffffffffffffffffffffffffffffffff168152602001908152602001600020819055505b6000670de0b6b3a76400006124ba848b612c3e90919063ffffffff16565b816124c157fe5b04905060008089136124ed576124e86124d98a613039565b83612cc490919063ffffffff16565b612501565b6125008983612de990919063ffffffff16565b5b9050600760009054906101000a900473ffffffffffffffffffffffffffffffffffffffff1673ffffffffffffffffffffffffffffffffffffffff1663bf83dcf38d33846040518463ffffffff1660e01b8152600401808473ffffffffffffffffffffffffffffffffffffffff1673ffffffffffffffffffffffffffffffffffffffff1681526020018373ffffffffffffffffffffffffffffffffffffffff1673ffffffffffffffffffffffffffffffffffffffff1681526020018281526020019350505050600060405180830381600087803b1580156125e057600080fd5b505af11580156125f4573d6000803e3d6000fd5b505050506000891461271f57612624898660006002811061261157fe5b6020020151612e7190919063ffffffff16565b8560006002811061263157fe5b60200201818152505061265e898660016002811061264b57fe5b6020020151612d0e90919063ffffffff16565b8560016002811061266b57fe5b6020020181815250508460006002811061268157fe5b6020020151600460008e73ffffffffffffffffffffffffffffffffffffffff1673ffffffffffffffffffffffffffffffffffffffff16815260200190815260200160002081905550846001600281106126d657fe5b6020020151600460008d73ffffffffffffffffffffffffffffffffffffffff1673ffffffffffffffffffffffffffffffffffffffff168152602001908152602001600020819055505b61274c8660006002811061272f57fe5b60200201518660006002811061274157fe5b602002015186612d9c565b61275557600080fd5b61275d613598565b604051806040016040528061278c8d8a60006002811061277957fe5b6020020151612de990919063ffffffff16565b81526020016127b58d8a6001600281106127a257fe5b6020020151612cc490919063ffffffff16565b81525090506127c2613598565b886127cd578161283b565b6040518060400160405280612805846000600281106127e857fe5b60200201518a6000600281106127fa57fe5b60200201518a612b9c565b81526020016128378460016002811061281a57fe5b60200201518a60016002811061282c57fe5b60200201518a612b9c565b8152505b90508973ffffffffffffffffffffffffffffffffffffffff1663e77668df8a60018886866040518663ffffffff1660e01b815260040180861515151581526020018515151515815260200184600260200280838360005b838110156128ad578082015181840152602081019050612892565b5050505090500183600260200280838360005b838110156128db5780820151818401526020810190506128c0565b5050505090500182600260200280838360005b838110156129095780820151818401526020810190506128ee565b5050505090500195505050505050600060405180830381600087803b15801561293157600080fd5b505af1158015612945573d6000803e3d6000fd5b50505050505060008a14158061295c575060008914155b15612a52578b73ffffffffffffffffffffffffffffffffffffffff167f95a38428b6ec3f9070babb8e763ce6603e5cd3e6000ada727c96aecfa2783afb876000600281106129a657fe5b6020020151876000600281106129b857fe5b6020020151604051808381526020018281526020019250505060405180910390a28a73ffffffffffffffffffffffffffffffffffffffff167f95a38428b6ec3f9070babb8e763ce6603e5cd3e6000ada727c96aecfa2783afb87600160028110612a1e57fe5b602002015187600160028110612a3057fe5b6020020151604051808381526020018281526020019250505060405180910390a25b505050505050505050505050565b600060019054906101000a900473ffffffffffffffffffffffffffffffffffffffff1673ffffffffffffffffffffffffffffffffffffffff163373ffffffffffffffffffffffffffffffffffffffff1614612b23576040517f08c379a000000000000000000000000000000000000000000000000000000000815260040180806020018281038252600a8152602001807f6f6e6c79206f776e65720000000000000000000000000000000000000000000081525060200191505060405180910390fd5b600073ffffffffffffffffffffffffffffffffffffffff168173ffffffffffffffffffffffffffffffffffffffff1614612b995780600060016101000a81548173ffffffffffffffffffffffffffffffffffffffff021916908373ffffffffffffffffffffffffffffffffffffffff1602179055505b50565b6000808211612baa57600080fd5b6000670de0b6b3a7640000612bc88487612c3e90919063ffffffff16565b81612bcf57fe5b04905060008413612bfa57612bf5612be685613039565b82612cc490919063ffffffff16565b612c0e565b612c0d8482612de990919063ffffffff16565b5b905082612c2c670de0b6b3a764000083612c3e90919063ffffffff16565b81612c3357fe5b049150509392505050565b600080831415612c515760009050612cbe565b6000828402905082848281612c6257fe5b0414612cb9576040517f08c379a00000000000000000000000000000000000000000000000000000000081526004018080602001828103825260218152602001806136586021913960400191505060405180910390fd5b809150505b92915050565b6000612d0683836040518060400160405280601e81526020017f536166654d6174683a207375627472616374696f6e206f766572666c6f770000815250613083565b905092915050565b600080828401905060008312158015612d275750838112155b80612d3d5750600083128015612d3c57508381125b5b612d92576040517f08c379a00000000000000000000000000000000000000000000000000000000081526004018080602001828103825260218152602001806135e96021913960400191505060405180910390fd5b8091505092915050565b60008083121580612de05750612db9612db484613039565b613143565b670de0b6b3a7640000612dd58487612c3e90919063ffffffff16565b81612ddc57fe5b0410155b90509392505050565b600080828401905083811015612e67576040517f08c379a000000000000000000000000000000000000000000000000000000000815260040180806020018281038252601b8152602001807f536166654d6174683a206164646974696f6e206f766572666c6f77000000000081525060200191505060405180910390fd5b8091505092915050565b600080828403905060008312158015612e8a5750838113155b80612ea05750600083128015612e9f57508381135b5b612ef5576040517f08c379a00000000000000000000000000000000000000000000000000000000081526004018080602001828103825260248152602001806136796024913960400191505060405180910390fd5b8091505092915050565b60007fffffffffffffffffffffffffffffffffffffffffffffffffffffffffffffffff8291508113612f7c576040517f08c379a00000000000000000000000000000000000000000000000000000000081526004018080602001828103825260288152602001806136306028913960400191505060405180910390fd5b919050565b6130348363a9059cbb60e01b8484604051602401808373ffffffffffffffffffffffffffffffffffffffff1673ffffffffffffffffffffffffffffffffffffffff16815260200182815260200192505050604051602081830303815290604052907bffffffffffffffffffffffffffffffffffffffffffffffffffffffff19166020820180517bffffffffffffffffffffffffffffffffffffffffffffffffffffffff83818316178352505050506131c5565b505050565b600080821261304a5781905061307e565b7f800000000000000000000000000000000000000000000000000000000000000082141561307757600080fd5b8160000390505b919050565b6000838311158290613130576040517f08c379a00000000000000000000000000000000000000000000000000000000081526004018080602001828103825283818151815260200191508051906020019080838360005b838110156130f55780820151818401526020810190506130da565b50505050905090810190601f1680156131225780820380516001836020036101000a031916815260200191505b509250505060405180910390fd5b5060008385039050809150509392505050565b60007fffffffffffffffffffffffffffffffffffffffffffffffffffffffffffffffff82136131bd576040517f08c379a000000000000000000000000000000000000000000000000000000000815260040180806020018281038252602e8152602001806135bb602e913960400191505060405180910390fd5b819050919050565b6060613227826040518060400160405280602081526020017f5361666545524332303a206c6f772d6c6576656c2063616c6c206661696c65648152508573ffffffffffffffffffffffffffffffffffffffff166132b49092919063ffffffff16565b90506000815111156132af5780806020019051602081101561324857600080fd5b81019080805190602001909291905050506132ae576040517f08c379a000000000000000000000000000000000000000000000000000000000815260040180806020018281038252602a81526020018061369d602a913960400191505060405180910390fd5b5b505050565b60606132c384846000856132cc565b90509392505050565b606082471015613327576040517f08c379a000000000000000000000000000000000000000000000000000000000815260040180806020018281038252602681526020018061360a6026913960400191505060405180910390fd5b61333085613475565b6133a2576040517f08c379a000000000000000000000000000000000000000000000000000000000815260040180806020018281038252601d8152602001807f416464726573733a2063616c6c20746f206e6f6e2d636f6e747261637400000081525060200191505060405180910390fd5b600060608673ffffffffffffffffffffffffffffffffffffffff1685876040518082805190602001908083835b602083106133f257805182526020820191506020810190506020830392506133cf565b6001836020036101000a03801982511681845116808217855250505050505090500191505060006040518083038185875af1925050503d8060008114613454576040519150601f19603f3d011682016040523d82523d6000602084013e613459565b606091505b5091509150613469828286613488565b92505050949350505050565b600080823b905060008111915050919050565b606083156134985782905061354d565b6000835111156134ab5782518084602001fd5b816040517f08c379a00000000000000000000000000000000000000000000000000000000081526004018080602001828103825283818151815260200191508051906020019080838360005b838110156135125780820151818401526020810190506134f7565b50505050905090810190601f16801561353f5780820380516001836020036101000a031916815260200191505b509250505060405180910390fd5b9392505050565b6040518060400160405280600290602082028036833780820191505090505090565b6040518060400160405280600290602082028036833780820191505090505090565b604051806040016040528060029060208202803683378082019150509050509056fe5369676e6564536166654d6174683a20696e76616c696420696e7420746f2075696e7420636f6e76657273696f6e5369676e6564536166654d6174683a206164646974696f6e206f766572666c6f77416464726573733a20696e73756666696369656e742062616c616e636520666f722063616c6c536166654d6174683a20696e76616c69642075696e7420746f20696e7420636f6e76657273696f6e536166654d6174683a206d756c7469706c69636174696f6e206f766572666c6f775369676e6564536166654d6174683a207375627472616374696f6e206f766572666c6f775361666545524332303a204552433230206f7065726174696f6e20646964206e6f742073756363656564a2646970667358221220ca7955e4c58aae8f483c50cea2e41e452e1863e1da9ac0237c3b786f890996e564736f6c63430006080033",
  "immutableReferences": {},
  "source": "// SPDX-License-Identifier: MIT\npragma solidity >=0.6.8 <0.7.0;\nimport \"../interfaces/IFixCapitalPool.sol\";\nimport \"../interfaces/IWrapper.sol\";\nimport \"../interfaces/IYieldToken.sol\";\nimport \"../interfaces/IZeroCouponBond.sol\";\nimport \"../interfaces/IERC20.sol\";\nimport \"../interfaces/IInfoOracle.sol\";\nimport \"../libraries/SafeMath.sol\";\nimport \"../libraries/SignedSafeMath.sol\";\nimport \"../libraries/SafeERC20.sol\";\nimport \"./FCPDelegateParent.sol\";\n\ncontract FCPDelegate1 is FCPDelegateParent {\n\tusing SafeERC20 for IERC20;\n\n\tevent BalanceUpdate(\n\t\taddress indexed owner,\n\t\tuint newYield,\n\t\tint newBond\n\t);\n\tevent BondBalanceUpdate(\n\t\taddress indexed owner,\n\t\tint newBond\n\t);\n\tevent ClaimPayout(\n\t\taddress indexed owner\n\t);\n\tevent Deposit(\n\t\taddress indexed to,\n\t\tuint wrappedAmountDeposited\n\t);\n\tevent Withdrawal(\n\t\taddress indexed from,\n\t\tuint wrappedAmountWithdrawn\n\t);\n\n\tusing SafeMath for uint;\n\tusing SignedSafeMath for int;\n\n\t/*\n\t\t@Description: after the internalMaturity call this function to redeem ZCBs at a ratio of 1:1 with the\n\t\t\tunderlying asset, pays out in wrapped asset\n\n\t\t@param address _to: the address that shall receive the wrapped asset\n\t\t@param bool _unwrap: if true - wrapped asset will be sent to _to address\n\t\t\totherwise underlyingAsset will be sent\n\t*/\n\tfunction claimBondPayout(address _to, bool _unwrap) external isInPayoutPhase {\n\t\tIWrapper wrp = internalWrapper;\n\t\tuint yield = internalBalanceYield[msg.sender];\n\t\tint bond = internalBalanceBonds[msg.sender];\n\t\tuint payout = payoutAmount(yield, bond, internalMaturityConversionRate);\n\n\t\tdelete internalBalanceYield[msg.sender];\n\t\tdelete internalBalanceBonds[msg.sender];\n\n\t\twrp.FCPDirectClaimSubAccountRewards(true, true, msg.sender, yield, payout);\n\t\tif (_unwrap)\n\t\t\twrp.withdrawWrappedAmount(_to, payout, false);\n\t\telse\n\t\t\tIERC20(address(wrp)).safeTransfer(_to, payout);\n\n\t\temit ClaimPayout(msg.sender);\n\t}\n\n\t/*\n\t\t@Description: transfer a ZCB + YT position to another address\n\n\t\t@param address _to: the address that shall receive the position\n\t\t@param uint _yield: the amount change in the internalBalanceYield mapping\n\t\t@param int _bond: the amount change in the internalBalanceBonds mapping\n\t*/\n\tfunction transferPosition(address _to, uint _yield, int _bond) external {\n\t\trequire(_to != msg.sender);\n\t\t//ensure position has positive minimum value at internalMaturity\n\t\tIWrapper wrp = internalWrapper; //gas savings\n\t\tbool _inPayoutPhase = internalInPayoutPhase; //gas savings\n\t\tuint ratio = _inPayoutPhase ? internalMaturityConversionRate : wrp.WrappedAmtToUnitAmt_RoundDown(1 ether);\n\t\trequire(isValidPosition(_yield, _bond, ratio));\n\n\t\tint bondSender = internalBalanceBonds[msg.sender];\n\t\tint bondRec = internalBalanceBonds[_to];\n\n\t\tuint[2] memory prevYields = [internalBalanceYield[msg.sender], internalBalanceYield[_to]];\n\t\tuint[2] memory wrappedClaims;\n\n\t\tif (_inPayoutPhase) {\n\t\t\tuint mcr = internalMaturityConversionRate;\n\t\t\twrappedClaims = [payoutAmount(prevYields[0], bondSender, mcr), payoutAmount(prevYields[1], bondRec, mcr)];\n\t\t}\n\t\telse {\n\t\t\twrappedClaims = prevYields;\n\t\t}\n\t\taddress[2] memory subAccts = [msg.sender, _to];\n\n\t\trequire(isValidPosition(prevYields[0].sub(_yield), bondSender.sub(_bond), ratio));\n\n\t\tuint newYield0 = prevYields[0].sub(_yield);\n\t\tint newBond0 = bondSender.sub(_bond);\n\t\tinternalBalanceYield[msg.sender] = newYield0;\n\t\tinternalBalanceBonds[msg.sender] = newBond0;\n\n\t\taddress copyTo = _to; // prevent stack too deep\n\t\tuint newYield1 = prevYields[1].add(_yield);\n\t\tint newBond1 = bondRec.add(_bond);\n\t\tinternalBalanceYield[copyTo] = newYield1;\n\t\tinternalBalanceBonds[copyTo] = newBond1;\n\n\t\twrp.FCPDirectDoubleClaimSubAccountRewards(_inPayoutPhase, true, subAccts, prevYields, wrappedClaims);\n\n\t\temit BalanceUpdate(msg.sender, newYield0, newBond0);\n\t\temit BalanceUpdate(copyTo, newYield1, newBond1);\n\t}\n\n\t/*\n\t\t@Description: transfer a ZCB + YT position from one address to another address\n\n\t\t@param address _from: the address that shall send the position\n\t\t@param address _to: the address that shall receive the position\n\t\t@param uint _yield: the amount change in the internalBalanceYield mapping\n\t\t@param int _bond: the amount change in the internalBalanceBonds mapping\n\t*/\n\tfunction transferPositionFrom(address _from, address _to, uint _yield, int _bond) external {\n\t\trequire(_from != _to);\n\t\tIWrapper wrp = internalWrapper;\n\t\tbool _inPayoutPhase = internalInPayoutPhase;//gas savings\n\t\tuint[2] memory yieldArr = [internalBalanceYield[_from], internalBalanceYield[_to]];\n\t\tint[2] memory bondArr = [internalBalanceBonds[_from], internalBalanceBonds[_to]];\n\t\tuint ratio = _inPayoutPhase ? internalMaturityConversionRate : wrp.WrappedAmtToUnitAmt_RoundDown(1 ether);\n\t\taddress[2] memory subAccts = [_from, _to];\n\n\t\trequire(isValidPosition(_yield, _bond, ratio));\n\n\t\tif (_yield > 0) {\n\t\t\t//decrement approval of YT\n\t\t\tIYieldToken(internalYieldTokenAddress).decrementAllowance(_from, msg.sender, _yield);\n\t\t\tyieldArr[0] = yieldArr[0].sub(_yield);\n\t\t\tyieldArr[1] = yieldArr[1].add(_yield);\n\t\t\tinternalBalanceYield[_from] = yieldArr[0];\n\t\t\tinternalBalanceYield[_to] = yieldArr[1];\n\t\t}\n\n\t\tuint unitAmtYield = _yield.mul(ratio)/(1 ether);\n\t\t//decrement approval of ZCB\n\t\tuint unitAmtZCB = _bond > 0 ? unitAmtYield.add(uint(_bond)) : unitAmtYield.sub(uint(_bond.abs()));\n\t\tIZeroCouponBond(internalZeroCouponBondAddress).decrementAllowance(_from, msg.sender, unitAmtZCB);\n\t\tif (_bond != 0) {\n\t\t\tbondArr[0] = bondArr[0].sub(_bond);\n\t\t\tbondArr[1] = bondArr[1].add(_bond);\n\t\t\tinternalBalanceBonds[_from] = bondArr[0];\n\t\t\tinternalBalanceBonds[_to] = bondArr[1];\n\t\t}\n\n\t\trequire(isValidPosition(yieldArr[0], bondArr[0], ratio));\n\n\t\t{\n\t\t\tuint[2] memory oldYieldArr = [yieldArr[0].add(_yield), yieldArr[1].sub(_yield)];\n\t\t\tuint[2] memory wrappedClaims = _inPayoutPhase ? \n\t\t\t\t[payoutAmount(oldYieldArr[0], bondArr[0], ratio), payoutAmount(oldYieldArr[1], bondArr[1], ratio)]\n\t\t\t\t: oldYieldArr;\n\t\t\twrp.FCPDirectDoubleClaimSubAccountRewards(_inPayoutPhase, true, subAccts, oldYieldArr, wrappedClaims);\n\t\t}\n\n\t\tif (_yield != 0 || _bond != 0) {\n\t\t\temit BalanceUpdate(_from, yieldArr[0], bondArr[0]);\n\t\t\temit BalanceUpdate(_to, yieldArr[1], bondArr[1]);\n\t\t}\n\t}\n\n\t/*\n\t\t@Description: zero coupon bond contract must call this function to transfer zcb between addresses\n\n\t\t@param address _from: the address to deduct ZCB from\n\t\t@param address _to: the address to send \n\t*/\n\tfunction transferZCB(address _from, address _to, uint _amount) external {\n\t\trequire(_from != _to);\n\t\tbool _inPayoutPhase = internalInPayoutPhase; //gas savings\n\t\tuint conversionRate = _inPayoutPhase ? internalMaturityConversionRate : internalWrapper.WrappedAmtToUnitAmt_RoundDown(1 ether);\n\t\tint[2] memory prevBonds = [internalBalanceBonds[_from], internalBalanceBonds[_to]];\n\n\t\tif (msg.sender != _from && msg.sender != internalZeroCouponBondAddress) {\n\t\t\tIZeroCouponBond(internalZeroCouponBondAddress).decrementAllowance(_from, msg.sender, _amount);\n\t\t}\n\t\tint intAmount = _amount.toInt();\n\t\trequire(intAmount >= 0);\n\t\tint newFromBond = internalBalanceBonds[_from].sub(intAmount);\n\n\t\trequire(isValidPosition(internalBalanceYield[_from], newFromBond, conversionRate));\n\n\t\tinternalBalanceBonds[_from] = newFromBond;\n\t\tint newBondTo = internalBalanceBonds[_to].add(intAmount);\n\t\tinternalBalanceBonds[_to] = newBondTo;\n\n\t\tif (_inPayoutPhase) {\n\t\t\taddress[2] memory subAccts = [_from, _to];\n\t\t\tuint[2] memory prevYields = [internalBalanceYield[_from], internalBalanceYield[_to]];\n\t\t\tuint[2] memory wrappedClaims = [payoutAmount(prevYields[0], prevBonds[0], conversionRate), payoutAmount(prevYields[1], prevBonds[1], conversionRate)];\n\t\t\tinternalWrapper.FCPDirectDoubleClaimSubAccountRewards(true, true, subAccts, prevYields, wrappedClaims);\n\t\t}\n\n\t\temit BondBalanceUpdate(_from, newFromBond);\n\t\temit BondBalanceUpdate(_to, newBondTo);\n\t}\n\n\t/*\n\t\t@Description: yield token contract must call this function to move yield token between addresses\n\n\t\t@param address _from: the address to deduct YT from\n\t\t@param address _to: the address to credit YT to\n\t\t@param uint _amount: the amount of YT to move between _from and _to\n\t\t\t*denominated in wrapped asset*\n\t*/\n\tfunction transferYT(address _from, address _to, uint _amount) external {\n\t\trequire(_from != _to);\n\t\tIWrapper wrp = internalWrapper;\n\t\tbool _inPayoutPhase = internalInPayoutPhase; //gas savings\n\t\tif (msg.sender != _from && msg.sender != internalYieldTokenAddress) {\n\t\t\tIYieldToken(internalYieldTokenAddress).decrementAllowance(_from, msg.sender, _amount);\n\t\t}\n\t\tuint conversionRate = _inPayoutPhase ? internalMaturityConversionRate : wrp.WrappedAmtToUnitAmt_RoundDown(1 ether);\n\t\tint[2] memory bondArr = [internalBalanceBonds[_from], internalBalanceBonds[_to]];\n\t\taddress[2] memory subAccts = [_from, _to];\n\t\tuint[2] memory yieldArr = [internalBalanceYield[_from], internalBalanceYield[_to]];\n\t\tuint[2] memory wrappedClaims = _inPayoutPhase ? \n\t\t\t[payoutAmount(yieldArr[0], bondArr[0], conversionRate), payoutAmount(yieldArr[1], bondArr[1], conversionRate)]\n\t\t\t: yieldArr;\n\n\t\tint amountBondChange = int(_amount.mul(conversionRate) / (1 ether)); //can be casted to int without worry bc '/ (1 ether)' ensures it fits\n\n\t\trequire(isValidPosition(yieldArr[0].sub(_amount), bondArr[0].add(amountBondChange), conversionRate));\n\n\t\tinternalBalanceYield[_from] = yieldArr[0].sub(_amount);\n\t\tinternalBalanceBonds[_from] = bondArr[0].add(amountBondChange);\n\t\tinternalBalanceYield[_to] = yieldArr[1].add(_amount);\n\t\tinternalBalanceBonds[_to] = bondArr[1].sub(amountBondChange);\n\n\t\twrp.FCPDirectDoubleClaimSubAccountRewards(_inPayoutPhase, true, subAccts, yieldArr, wrappedClaims);\n\n\t\tyieldArr[0] = yieldArr[0].sub(_amount);\n\t\tyieldArr[1] = yieldArr[1].add(_amount);\n\t\tbondArr[0] = bondArr[0].add(amountBondChange);\n\t\tbondArr[1] = bondArr[1].sub(amountBondChange);\n\n\t\temit BalanceUpdate(_from, yieldArr[0], bondArr[0]);\n\t\temit BalanceUpdate(_to, yieldArr[1], bondArr[1]);\n\t}\n\n}",
  "sourcePath": "/home/asher/FixFinanceV1/contracts/FixCapitalPool/FCPDelegate1.sol",
  "compiler": {
    "name": "solc",
    "version": "0.6.8+commit.0bbfe453.Emscripten.clang"
  },
  "schemaVersion": "3.4.1",
  "updatedAt": "2021-11-26T19:15:54.855Z",
  "devdoc": {
    "methods": {}
  },
  "userdoc": {
    "methods": {}
  }
}