{
  "contractName": "FixCapitalPool",
  "abi": [
    {
      "inputs": [
        {
          "internalType": "address",
          "name": "_wrapper",
          "type": "address"
        },
        {
          "internalType": "uint40",
          "name": "_maturity",
          "type": "uint40"
        },
        {
          "internalType": "address",
          "name": "_ZCB_YTdeployerAddr",
          "type": "address"
        },
        {
          "internalType": "address",
          "name": "_infoOracleAddress",
          "type": "address"
        },
        {
          "internalType": "address",
          "name": "_delegate1Address",
          "type": "address"
        },
        {
          "internalType": "address",
          "name": "_delegate2Address",
          "type": "address"
        }
      ],
      "stateMutability": "nonpayable",
      "type": "constructor"
    },
    {
      "anonymous": false,
      "inputs": [
        {
          "indexed": true,
          "internalType": "address",
          "name": "owner",
          "type": "address"
        },
        {
          "indexed": false,
          "internalType": "uint256",
          "name": "newYield",
          "type": "uint256"
        },
        {
          "indexed": false,
          "internalType": "int256",
          "name": "newBond",
          "type": "int256"
        }
      ],
      "name": "BalanceUpdate",
      "type": "event"
    },
    {
      "anonymous": false,
      "inputs": [
        {
          "indexed": true,
          "internalType": "address",
          "name": "owner",
          "type": "address"
        },
        {
          "indexed": false,
          "internalType": "int256",
          "name": "newBond",
          "type": "int256"
        }
      ],
      "name": "BondBalanceUpdate",
      "type": "event"
    },
    {
      "anonymous": false,
      "inputs": [
        {
          "indexed": true,
          "internalType": "address",
          "name": "owner",
          "type": "address"
        }
      ],
      "name": "ClaimPayout",
      "type": "event"
    },
    {
      "anonymous": false,
      "inputs": [
        {
          "indexed": true,
          "internalType": "address",
          "name": "to",
          "type": "address"
        },
        {
          "indexed": false,
          "internalType": "uint256",
          "name": "wrappedAmountDeposited",
          "type": "uint256"
        }
      ],
      "name": "Deposit",
      "type": "event"
    },
    {
      "anonymous": false,
      "inputs": [
        {
          "indexed": true,
          "internalType": "address",
          "name": "from",
          "type": "address"
        },
        {
          "indexed": false,
          "internalType": "uint256",
          "name": "wrappedAmountWithdrawn",
          "type": "uint256"
        }
      ],
      "name": "Withdrawal",
      "type": "event"
    },
    {
      "inputs": [],
      "name": "owner",
      "outputs": [
        {
          "internalType": "address",
          "name": "",
          "type": "address"
        }
      ],
      "stateMutability": "view",
      "type": "function"
    },
    {
      "inputs": [
        {
          "internalType": "address",
          "name": "newOwner",
          "type": "address"
        }
      ],
      "name": "transferOwnership",
      "outputs": [],
      "stateMutability": "nonpayable",
      "type": "function"
    },
    {
      "inputs": [],
      "name": "inPayoutPhase",
      "outputs": [
        {
          "internalType": "bool",
          "name": "",
          "type": "bool"
        }
      ],
      "stateMutability": "view",
      "type": "function"
    },
    {
      "inputs": [],
      "name": "maturity",
      "outputs": [
        {
          "internalType": "uint40",
          "name": "",
          "type": "uint40"
        }
      ],
      "stateMutability": "view",
      "type": "function"
    },
    {
      "inputs": [],
      "name": "maturityConversionRate",
      "outputs": [
        {
          "internalType": "uint256",
          "name": "",
          "type": "uint256"
        }
      ],
      "stateMutability": "view",
      "type": "function"
    },
    {
      "inputs": [],
      "name": "underlyingAssetAddress",
      "outputs": [
        {
          "internalType": "address",
          "name": "",
          "type": "address"
        }
      ],
      "stateMutability": "view",
      "type": "function"
    },
    {
      "inputs": [
        {
          "internalType": "address",
          "name": "_owner",
          "type": "address"
        }
      ],
      "name": "balanceBonds",
      "outputs": [
        {
          "internalType": "int256",
          "name": "",
          "type": "int256"
        }
      ],
      "stateMutability": "view",
      "type": "function"
    },
    {
      "inputs": [
        {
          "internalType": "address",
          "name": "_owner",
          "type": "address"
        }
      ],
      "name": "balanceYield",
      "outputs": [
        {
          "internalType": "uint256",
          "name": "",
          "type": "uint256"
        }
      ],
      "stateMutability": "view",
      "type": "function"
    },
    {
      "inputs": [],
      "name": "yieldTokenAddress",
      "outputs": [
        {
          "internalType": "address",
          "name": "",
          "type": "address"
        }
      ],
      "stateMutability": "view",
      "type": "function"
    },
    {
      "inputs": [],
      "name": "zeroCouponBondAddress",
      "outputs": [
        {
          "internalType": "address",
          "name": "",
          "type": "address"
        }
      ],
      "stateMutability": "view",
      "type": "function"
    },
    {
      "inputs": [
        {
          "internalType": "address",
          "name": "_vaultFactoryAddress",
          "type": "address"
        }
      ],
      "name": "whitelistedVaultFactories",
      "outputs": [
        {
          "internalType": "bool",
          "name": "whitelisted",
          "type": "bool"
        }
      ],
      "stateMutability": "view",
      "type": "function"
    },
    {
      "inputs": [],
      "name": "infoOracleAddress",
      "outputs": [
        {
          "internalType": "address",
          "name": "",
          "type": "address"
        }
      ],
      "stateMutability": "view",
      "type": "function"
    },
    {
      "inputs": [],
      "name": "wrapper",
      "outputs": [
        {
          "internalType": "contract IWrapper",
          "name": "",
          "type": "address"
        }
      ],
      "stateMutability": "view",
      "type": "function"
    },
    {
      "inputs": [
        {
          "internalType": "uint256",
          "name": "_index",
          "type": "uint256"
        }
      ],
      "name": "TotalRewardsPerWassetAtMaturity",
      "outputs": [
        {
          "internalType": "uint256",
          "name": "",
          "type": "uint256"
        }
      ],
      "stateMutability": "view",
      "type": "function"
    },
    {
      "inputs": [],
      "name": "isFinalized",
      "outputs": [
        {
          "internalType": "bool",
          "name": "",
          "type": "bool"
        }
      ],
      "stateMutability": "view",
      "type": "function"
    },
    {
      "inputs": [],
      "name": "lastUpdate",
      "outputs": [
        {
          "internalType": "uint256",
          "name": "",
          "type": "uint256"
        }
      ],
      "stateMutability": "view",
      "type": "function"
    },
    {
      "inputs": [],
      "name": "currentConversionRate",
      "outputs": [
        {
          "internalType": "uint256",
          "name": "conversionRate",
          "type": "uint256"
        }
      ],
      "stateMutability": "view",
      "type": "function"
    },
    {
      "inputs": [
        {
          "internalType": "address",
          "name": "_to",
          "type": "address"
        },
        {
          "internalType": "uint256",
          "name": "_amountWrappedTkn",
          "type": "uint256"
        }
      ],
      "name": "depositWrappedToken",
      "outputs": [],
      "stateMutability": "nonpayable",
      "type": "function"
    },
    {
      "inputs": [
        {
          "internalType": "address",
          "name": "_to",
          "type": "address"
        },
        {
          "internalType": "uint256",
          "name": "_amountWrappedTkn",
          "type": "uint256"
        },
        {
          "internalType": "bool",
          "name": "_unwrap",
          "type": "bool"
        }
      ],
      "name": "withdraw",
      "outputs": [],
      "stateMutability": "nonpayable",
      "type": "function"
    },
    {
      "inputs": [
        {
          "internalType": "address",
          "name": "_to",
          "type": "address"
        },
        {
          "internalType": "bool",
          "name": "_unwrap",
          "type": "bool"
        }
      ],
      "name": "withdrawAll",
      "outputs": [],
      "stateMutability": "nonpayable",
      "type": "function"
    },
    {
      "inputs": [
        {
          "internalType": "address",
          "name": "_to",
          "type": "address"
        },
        {
          "internalType": "bool",
          "name": "_unwrap",
          "type": "bool"
        }
      ],
      "name": "claimBondPayout",
      "outputs": [],
      "stateMutability": "nonpayable",
      "type": "function"
    },
    {
      "inputs": [],
      "name": "enterPayoutPhase",
      "outputs": [],
      "stateMutability": "nonpayable",
      "type": "function"
    },
    {
      "inputs": [
        {
          "internalType": "address",
          "name": "_owner",
          "type": "address"
        }
      ],
      "name": "wrappedTokenFree",
      "outputs": [
        {
          "internalType": "uint256",
          "name": "wrappedTknFree",
          "type": "uint256"
        }
      ],
      "stateMutability": "view",
      "type": "function"
    },
    {
      "inputs": [
        {
          "internalType": "address",
          "name": "_owner",
          "type": "address"
        },
        {
          "internalType": "uint256",
          "name": "_amount",
          "type": "uint256"
        }
      ],
      "name": "mintZCBTo",
      "outputs": [],
      "stateMutability": "nonpayable",
      "type": "function"
    },
    {
      "inputs": [
        {
          "internalType": "address",
          "name": "_owner",
          "type": "address"
        },
        {
          "internalType": "uint256",
          "name": "_amount",
          "type": "uint256"
        }
      ],
      "name": "burnZCBFrom",
      "outputs": [],
      "stateMutability": "nonpayable",
      "type": "function"
    },
    {
      "inputs": [
        {
          "internalType": "address",
          "name": "_to",
          "type": "address"
        },
        {
          "internalType": "uint256",
          "name": "_yield",
          "type": "uint256"
        },
        {
          "internalType": "int256",
          "name": "_bond",
          "type": "int256"
        }
      ],
      "name": "transferPosition",
      "outputs": [],
      "stateMutability": "nonpayable",
      "type": "function"
    },
    {
      "inputs": [
        {
          "internalType": "address",
          "name": "_from",
          "type": "address"
        },
        {
          "internalType": "address",
          "name": "_to",
          "type": "address"
        },
        {
          "internalType": "uint256",
          "name": "_yield",
          "type": "uint256"
        },
        {
          "internalType": "int256",
          "name": "_bond",
          "type": "int256"
        }
      ],
      "name": "transferPositionFrom",
      "outputs": [],
      "stateMutability": "nonpayable",
      "type": "function"
    },
    {
      "inputs": [
        {
          "internalType": "address",
          "name": "_spender",
          "type": "address"
        },
        {
          "internalType": "uint256",
          "name": "_allowanceZCB",
          "type": "uint256"
        },
        {
          "internalType": "uint256",
          "name": "_allowanceYT",
          "type": "uint256"
        }
      ],
      "name": "dualApprove",
      "outputs": [],
      "stateMutability": "nonpayable",
      "type": "function"
    },
    {
      "inputs": [
        {
          "internalType": "address",
          "name": "_owner",
          "type": "address"
        }
      ],
      "name": "totalBalanceZCB",
      "outputs": [
        {
          "internalType": "uint256",
          "name": "",
          "type": "uint256"
        }
      ],
      "stateMutability": "view",
      "type": "function"
    },
    {
      "inputs": [
        {
          "internalType": "address",
          "name": "_from",
          "type": "address"
        },
        {
          "internalType": "address",
          "name": "_to",
          "type": "address"
        },
        {
          "internalType": "uint256",
          "name": "_amount",
          "type": "uint256"
        }
      ],
      "name": "transferZCB",
      "outputs": [],
      "stateMutability": "nonpayable",
      "type": "function"
    },
    {
      "inputs": [
        {
          "internalType": "address",
          "name": "_from",
          "type": "address"
        },
        {
          "internalType": "address",
          "name": "_to",
          "type": "address"
        },
        {
          "internalType": "uint256",
          "name": "_amount",
          "type": "uint256"
        }
      ],
      "name": "transferYT",
      "outputs": [],
      "stateMutability": "nonpayable",
      "type": "function"
    },
    {
      "inputs": [
        {
          "internalType": "address",
          "name": "_vaultFactoryAddress",
          "type": "address"
        }
      ],
      "name": "setVaultFactoryAddress",
      "outputs": [],
      "stateMutability": "nonpayable",
      "type": "function"
    },
    {
      "inputs": [],
      "name": "finalize",
      "outputs": [],
      "stateMutability": "nonpayable",
      "type": "function"
    },
    {
      "inputs": [
        {
          "internalType": "uint256",
          "name": "_flashLoanFee",
          "type": "uint256"
        }
      ],
      "name": "setFlashLoanFee",
      "outputs": [],
      "stateMutability": "nonpayable",
      "type": "function"
    },
    {
      "inputs": [],
      "name": "maxFlashLoan",
      "outputs": [
        {
          "internalType": "uint256",
          "name": "maxYield",
          "type": "uint256"
        },
        {
          "internalType": "int256",
          "name": "maxBond",
          "type": "int256"
        }
      ],
      "stateMutability": "view",
      "type": "function"
    },
    {
      "inputs": [
        {
          "internalType": "uint256",
          "name": "_amountYield",
          "type": "uint256"
        },
        {
          "internalType": "int256",
          "name": "_amountBond",
          "type": "int256"
        }
      ],
      "name": "flashFee",
      "outputs": [
        {
          "internalType": "uint256",
          "name": "yieldFee",
          "type": "uint256"
        },
        {
          "internalType": "int256",
          "name": "bondFee",
          "type": "int256"
        }
      ],
      "stateMutability": "view",
      "type": "function"
    },
    {
      "inputs": [
        {
          "internalType": "contract IFCPFlashBorrower",
          "name": "_receiver",
          "type": "address"
        },
        {
          "internalType": "uint256",
          "name": "_amountYield",
          "type": "uint256"
        },
        {
          "internalType": "int256",
          "name": "_amountBond",
          "type": "int256"
        },
        {
          "internalType": "bytes",
          "name": "_data",
          "type": "bytes"
        }
      ],
      "name": "flashLoan",
      "outputs": [
        {
          "internalType": "bool",
          "name": "",
          "type": "bool"
        }
      ],
      "stateMutability": "nonpayable",
      "type": "function"
    }
  ],
  "bytecode": "0x60806040523480156200001157600080fd5b50604051620039b6380380620039b6833981810160405260c08110156200003757600080fd5b8101908080519060200190929190805190602001909291908051906020019092919080519060200190929190805190602001909291908051906020019092919050505033600060016101000a81548173ffffffffffffffffffffffffffffffffffffffff021916908373ffffffffffffffffffffffffffffffffffffffff160217905550600086905080600260006101000a81548173ffffffffffffffffffffffffffffffffffffffff021916908373ffffffffffffffffffffffffffffffffffffffff1602179055508073ffffffffffffffffffffffffffffffffffffffff1663dd2822636040518163ffffffff1660e01b8152600401600060405180830381600087803b1580156200014a57600080fd5b505af11580156200015f573d6000803e3d6000fd5b5050505060008173ffffffffffffffffffffffffffffffffffffffff166389d1a0fc6040518163ffffffff1660e01b815260040160206040518083038186803b158015620001ac57600080fd5b505afa158015620001c1573d6000803e3d6000fd5b505050506040513d6020811015620001d857600080fd5b8101908080519060200190929190505050905080600360006101000a81548173ffffffffffffffffffffffffffffffffffffffff021916908373ffffffffffffffffffffffffffffffffffffffff16021790555086600060166101000a81548164ffffffffff021916908364ffffffffff1602179055508573ffffffffffffffffffffffffffffffffffffffff1663a44ebec189896040518363ffffffff1660e01b8152600401808373ffffffffffffffffffffffffffffffffffffffff1673ffffffffffffffffffffffffffffffffffffffff1681526020018264ffffffffff16815260200192505050602060405180830381600087803b158015620002de57600080fd5b505af1158015620002f3573d6000803e3d6000fd5b505050506040513d60208110156200030a57600080fd5b8101908080519060200190929190505050600660006101000a81548173ffffffffffffffffffffffffffffffffffffffff021916908373ffffffffffffffffffffffffffffffffffffffff1602179055508573ffffffffffffffffffffffffffffffffffffffff1663b8c8b02189896040518363ffffffff1660e01b8152600401808373ffffffffffffffffffffffffffffffffffffffff1673ffffffffffffffffffffffffffffffffffffffff1681526020018264ffffffffff16815260200192505050602060405180830381600087803b158015620003ea57600080fd5b505af1158015620003ff573d6000803e3d6000fd5b505050506040513d60208110156200041657600080fd5b8101908080519060200190929190505050600760006101000a81548173ffffffffffffffffffffffffffffffffffffffff021916908373ffffffffffffffffffffffffffffffffffffffff16021790555084600960006101000a81548173ffffffffffffffffffffffffffffffffffffffff021916908373ffffffffffffffffffffffffffffffffffffffff1602179055506064600c8190555083600d60006101000a81548173ffffffffffffffffffffffffffffffffffffffff021916908373ffffffffffffffffffffffffffffffffffffffff16021790555082600e60006101000a81548173ffffffffffffffffffffffffffffffffffffffff021916908373ffffffffffffffffffffffffffffffffffffffff160217905550505050505050505061346c806200054a6000396000f3fe608060405234801561001057600080fd5b50600436106102275760003560e01c8063ac210cc711610130578063cfe8d91c116100b8578063ec02d2571161007c578063ec02d25714610b31578063f2fde38b14610ba9578063f406f08914610bed578063fc2807f114610c2f578063fd23ae0214610c7d57610227565b8063cfe8d91c14610a3d578063d99ad8dc14610a5b578063dfc081be14610a9f578063e92d0d5d14610aa9578063ead5d35914610ad757610227565b8063b53c0cd7116100ff578063b53c0cd7146108bf578063bf0994bf14610917578063bfd5105f1461096f578063c0463711146109c7578063c6334ba5146109e557610227565b8063ac210cc7146107b9578063ad39b51814610803578063af0b460614610853578063b116dd4e146108a157610227565b80634bee9137116101b35780636a68d0c3116101825780636a68d0c31461063d57806388beac0c1461069557806389d1a0fc146107035780638d4e40831461074d5780638da5cb5b1461076f57610227565b80634bee9137146104eb57806350939c0e1461053b578063542d4fd6146105895780635cbb9f1f146105e157610227565b806321d9d596116101fa57806321d9d596146103b1578063242c127c14610404578063351bd34b1461042957806343959bb9146104735780634bb278f3146104e157610227565b80630accd9601461022c5780631794d8641461027657806317d030b81461033b578063204f83f914610385575b600080fd5b610234610c9f565b604051808273ffffffffffffffffffffffffffffffffffffffff1673ffffffffffffffffffffffffffffffffffffffff16815260200191505060405180910390f35b6103216004803603608081101561028c57600080fd5b81019080803573ffffffffffffffffffffffffffffffffffffffff1690602001909291908035906020019092919080359060200190929190803590602001906401000000008111156102dd57600080fd5b8201836020820111156102ef57600080fd5b8035906020019184600183028401116401000000008311171561031157600080fd5b9091929391929390505050610cc9565b604051808215151515815260200191505060405180910390f35b610343610eb3565b604051808273ffffffffffffffffffffffffffffffffffffffff1673ffffffffffffffffffffffffffffffffffffffff16815260200191505060405180910390f35b61038d610edd565b604051808264ffffffffff1664ffffffffff16815260200191505060405180910390f35b6103e7600480360360408110156103c757600080fd5b810190808035906020019092919080359060200190929190505050610ef7565b604051808381526020018281526020019250505060405180910390f35b61040c610fd5565b604051808381526020018281526020019250505060405180910390f35b610431611046565b604051808273ffffffffffffffffffffffffffffffffffffffff1673ffffffffffffffffffffffffffffffffffffffff16815260200191505060405180910390f35b6104df6004803603606081101561048957600080fd5b81019080803573ffffffffffffffffffffffffffffffffffffffff169060200190929190803573ffffffffffffffffffffffffffffffffffffffff16906020019092919080359060200190929190505050611070565b005b6104e961124d565b005b6105396004803603604081101561050157600080fd5b81019080803573ffffffffffffffffffffffffffffffffffffffff16906020019092919080351515906020019092919050505061132d565b005b6105876004803603604081101561055157600080fd5b81019080803573ffffffffffffffffffffffffffffffffffffffff169060200190929190803590602001909291905050506114d9565b005b6105cb6004803603602081101561059f57600080fd5b81019080803573ffffffffffffffffffffffffffffffffffffffff169060200190929190505050611681565b6040518082815260200191505060405180910390f35b610623600480360360208110156105f757600080fd5b81019080803573ffffffffffffffffffffffffffffffffffffffff1690602001909291905050506117ea565b604051808215151515815260200191505060405180910390f35b6106936004803603606081101561065357600080fd5b81019080803573ffffffffffffffffffffffffffffffffffffffff1690602001909291908035906020019092919080359060200190929190505050611840565b005b610701600480360360608110156106ab57600080fd5b81019080803573ffffffffffffffffffffffffffffffffffffffff169060200190929190803573ffffffffffffffffffffffffffffffffffffffff169060200190929190803590602001909291905050506119f1565b005b61070b611bce565b604051808273ffffffffffffffffffffffffffffffffffffffff1673ffffffffffffffffffffffffffffffffffffffff16815260200191505060405180910390f35b610755611bf8565b604051808215151515815260200191505060405180910390f35b610777611c0f565b604051808273ffffffffffffffffffffffffffffffffffffffff1673ffffffffffffffffffffffffffffffffffffffff16815260200191505060405180910390f35b6107c1611c35565b604051808273ffffffffffffffffffffffffffffffffffffffff1673ffffffffffffffffffffffffffffffffffffffff16815260200191505060405180910390f35b6108516004803603604081101561081957600080fd5b81019080803573ffffffffffffffffffffffffffffffffffffffff169060200190929190803515159060200190929190505050611c5f565b005b61089f6004803603604081101561086957600080fd5b81019080803573ffffffffffffffffffffffffffffffffffffffff16906020019092919080359060200190929190505050611e0b565b005b6108a9611fb3565b6040518082815260200191505060405180910390f35b610915600480360360608110156108d557600080fd5b81019080803573ffffffffffffffffffffffffffffffffffffffff169060200190929190803590602001909291908035906020019092919050505061208c565b005b6109596004803603602081101561092d57600080fd5b81019080803573ffffffffffffffffffffffffffffffffffffffff16906020019092919050505061227b565b6040518082815260200191505060405180910390f35b6109b16004803603602081101561098557600080fd5b81019080803573ffffffffffffffffffffffffffffffffffffffff1690602001909291905050506122c4565b6040518082815260200191505060405180910390f35b6109cf61230d565b6040518082815260200191505060405180910390f35b610a27600480360360208110156109fb57600080fd5b81019080803573ffffffffffffffffffffffffffffffffffffffff1690602001909291905050506123b7565b6040518082815260200191505060405180910390f35b610a45612520565b6040518082815260200191505060405180910390f35b610a9d60048036036020811015610a7157600080fd5b81019080803573ffffffffffffffffffffffffffffffffffffffff16906020019092919050505061252a565b005b610aa7612662565b005b610ad560048036036020811015610abf57600080fd5b81019080803590602001909291905050506127c9565b005b610b2f60048036036060811015610aed57600080fd5b81019080803573ffffffffffffffffffffffffffffffffffffffff16906020019092919080359060200190929190803515159060200190929190505050612896565b005b610ba760048036036080811015610b4757600080fd5b81019080803573ffffffffffffffffffffffffffffffffffffffff169060200190929190803573ffffffffffffffffffffffffffffffffffffffff1690602001909291908035906020019092919080359060200190929190505050612a65565b005b610beb60048036036020811015610bbf57600080fd5b81019080803573ffffffffffffffffffffffffffffffffffffffff169060200190929190505050612c4b565b005b610c1960048036036020811015610c0357600080fd5b8101908080359060200190929190505050612d87565b6040518082815260200191505060405180910390f35b610c7b60048036036040811015610c4557600080fd5b81019080803573ffffffffffffffffffffffffffffffffffffffff16906020019092919080359060200190929190505050612da8565b005b610c85612f50565b604051808215151515815260200191505060405180910390f35b6000600660009054906101000a900473ffffffffffffffffffffffffffffffffffffffff16905090565b600080600e60009054906101000a900473ffffffffffffffffffffffffffffffffffffffff1673ffffffffffffffffffffffffffffffffffffffff168787878787604051602401808673ffffffffffffffffffffffffffffffffffffffff1673ffffffffffffffffffffffffffffffffffffffff168152602001858152602001848152602001806020018281038252848482818152602001925080828437600081840152601f19601f82011690508083019250505096505050505050506040516020818303038152906040527f1794d864000000000000000000000000000000000000000000000000000000007bffffffffffffffffffffffffffffffffffffffffffffffffffffffff19166020820180517bffffffffffffffffffffffffffffffffffffffffffffffffffffffff83818316178352505050506040518082805190602001908083835b60208310610e365780518252602082019150602081019050602083039250610e13565b6001836020036101000a038019825116818451168082178552505050505050905001915050600060405180830381855af49150503d8060008114610e96576040519150601f19603f3d011682016040523d82523d6000602084013e610e9b565b606091505b5050905080610ea957600080fd5b5095945050505050565b6000600960009054906101000a900473ffffffffffffffffffffffffffffffffffffffff16905090565b60008060169054906101000a900464ffffffffff16905090565b600080620f424063ffffffff167f040000000000000000000000000000000000000000000000000000000000000081610f2c57fe5b04841115610f3957600080fd5b620f424063ffffffff167f040000000000000000000000000000000000000000000000000000000000000081610f6b57fe5b05831315610f7857600080fd5b6000600c549050620f424063ffffffff16610f9c8287612f6690919063ffffffff16565b81610fa357fe5b049250620f424063ffffffff16610fc38286612fec90919063ffffffff16565b81610fca57fe5b059150509250929050565b600080620f424063ffffffff167f04000000000000000000000000000000000000000000000000000000000000008161100a57fe5b049150620f424063ffffffff167f04000000000000000000000000000000000000000000000000000000000000008161103f57fe5b0590509091565b6000600760009054906101000a900473ffffffffffffffffffffffffffffffffffffffff16905090565b6000600d60009054906101000a900473ffffffffffffffffffffffffffffffffffffffff1673ffffffffffffffffffffffffffffffffffffffff16848484604051602401808473ffffffffffffffffffffffffffffffffffffffff1673ffffffffffffffffffffffffffffffffffffffff1681526020018373ffffffffffffffffffffffffffffffffffffffff1673ffffffffffffffffffffffffffffffffffffffff16815260200182815260200193505050506040516020818303038152906040527f43959bb9000000000000000000000000000000000000000000000000000000007bffffffffffffffffffffffffffffffffffffffffffffffffffffffff19166020820180517bffffffffffffffffffffffffffffffffffffffffffffffffffffffff83818316178352505050506040518082805190602001908083835b602083106111d457805182526020820191506020810190506020830392506111b1565b6001836020036101000a038019825116818451168082178552505050505050905001915050600060405180830381855af49150503d8060008114611234576040519150601f19603f3d011682016040523d82523d6000602084013e611239565b606091505b505090508061124757600080fd5b50505050565b600060019054906101000a900473ffffffffffffffffffffffffffffffffffffffff1673ffffffffffffffffffffffffffffffffffffffff163373ffffffffffffffffffffffffffffffffffffffff1614611310576040517f08c379a000000000000000000000000000000000000000000000000000000000815260040180806020018281038252600a8152602001807f6f6e6c79206f776e65720000000000000000000000000000000000000000000081525060200191505060405180910390fd5b6001600b60006101000a81548160ff021916908315150217905550565b6000600e60009054906101000a900473ffffffffffffffffffffffffffffffffffffffff1673ffffffffffffffffffffffffffffffffffffffff168383604051602401808373ffffffffffffffffffffffffffffffffffffffff1673ffffffffffffffffffffffffffffffffffffffff16815260200182151515158152602001925050506040516020818303038152906040527f4bee9137000000000000000000000000000000000000000000000000000000007bffffffffffffffffffffffffffffffffffffffffffffffffffffffff19166020820180517bffffffffffffffffffffffffffffffffffffffffffffffffffffffff83818316178352505050506040518082805190602001908083835b60208310611461578051825260208201915060208101905060208303925061143e565b6001836020036101000a038019825116818451168082178552505050505050905001915050600060405180830381855af49150503d80600081146114c1576040519150601f19603f3d011682016040523d82523d6000602084013e6114c6565b606091505b50509050806114d457600080fd5b505050565b6000600e60009054906101000a900473ffffffffffffffffffffffffffffffffffffffff1673ffffffffffffffffffffffffffffffffffffffff168383604051602401808373ffffffffffffffffffffffffffffffffffffffff1673ffffffffffffffffffffffffffffffffffffffff168152602001828152602001925050506040516020818303038152906040527f50939c0e000000000000000000000000000000000000000000000000000000007bffffffffffffffffffffffffffffffffffffffffffffffffffffffff19166020820180517bffffffffffffffffffffffffffffffffffffffffffffffffffffffff83818316178352505050506040518082805190602001908083835b6020831061160957805182526020820191506020810190506020830392506115e6565b6001836020036101000a038019825116818451168082178552505050505050905001915050600060405180830381855af49150503d8060008114611669576040519150601f19603f3d011682016040523d82523d6000602084013e61166e565b606091505b505090508061167c57600080fd5b505050565b600080600060159054906101000a900460ff1661175357600260009054906101000a900473ffffffffffffffffffffffffffffffffffffffff1673ffffffffffffffffffffffffffffffffffffffff16630247c79c670de0b6b3a76400006040518263ffffffff1660e01b81526004018082815260200191505060206040518083038186803b15801561171357600080fd5b505afa158015611727573d6000803e3d6000fd5b505050506040513d602081101561173d57600080fd5b8101908080519060200190929190505050611757565b6001545b90506117e2600560008573ffffffffffffffffffffffffffffffffffffffff1673ffffffffffffffffffffffffffffffffffffffff16815260200190815260200160002054600460008673ffffffffffffffffffffffffffffffffffffffff1673ffffffffffffffffffffffffffffffffffffffff1681526020019081526020016000205483613116565b915050919050565b6000600860008373ffffffffffffffffffffffffffffffffffffffff1673ffffffffffffffffffffffffffffffffffffffff16815260200190815260200160002060009054906101000a900460ff169050919050565b6000600d60009054906101000a900473ffffffffffffffffffffffffffffffffffffffff1673ffffffffffffffffffffffffffffffffffffffff16848484604051602401808473ffffffffffffffffffffffffffffffffffffffff1673ffffffffffffffffffffffffffffffffffffffff16815260200183815260200182815260200193505050506040516020818303038152906040527f6a68d0c3000000000000000000000000000000000000000000000000000000007bffffffffffffffffffffffffffffffffffffffffffffffffffffffff19166020820180517bffffffffffffffffffffffffffffffffffffffffffffffffffffffff83818316178352505050506040518082805190602001908083835b602083106119785780518252602082019150602081019050602083039250611955565b6001836020036101000a038019825116818451168082178552505050505050905001915050600060405180830381855af49150503d80600081146119d8576040519150601f19603f3d011682016040523d82523d6000602084013e6119dd565b606091505b50509050806119eb57600080fd5b50505050565b6000600d60009054906101000a900473ffffffffffffffffffffffffffffffffffffffff1673ffffffffffffffffffffffffffffffffffffffff16848484604051602401808473ffffffffffffffffffffffffffffffffffffffff1673ffffffffffffffffffffffffffffffffffffffff1681526020018373ffffffffffffffffffffffffffffffffffffffff1673ffffffffffffffffffffffffffffffffffffffff16815260200182815260200193505050506040516020818303038152906040527f88beac0c000000000000000000000000000000000000000000000000000000007bffffffffffffffffffffffffffffffffffffffffffffffffffffffff19166020820180517bffffffffffffffffffffffffffffffffffffffffffffffffffffffff83818316178352505050506040518082805190602001908083835b60208310611b555780518252602082019150602081019050602083039250611b32565b6001836020036101000a038019825116818451168082178552505050505050905001915050600060405180830381855af49150503d8060008114611bb5576040519150601f19603f3d011682016040523d82523d6000602084013e611bba565b606091505b5050905080611bc857600080fd5b50505050565b6000600360009054906101000a900473ffffffffffffffffffffffffffffffffffffffff16905090565b6000600b60009054906101000a900460ff16905090565b600060019054906101000a900473ffffffffffffffffffffffffffffffffffffffff1681565b6000600260009054906101000a900473ffffffffffffffffffffffffffffffffffffffff16905090565b6000600d60009054906101000a900473ffffffffffffffffffffffffffffffffffffffff1673ffffffffffffffffffffffffffffffffffffffff168383604051602401808373ffffffffffffffffffffffffffffffffffffffff1673ffffffffffffffffffffffffffffffffffffffff16815260200182151515158152602001925050506040516020818303038152906040527fad39b518000000000000000000000000000000000000000000000000000000007bffffffffffffffffffffffffffffffffffffffffffffffffffffffff19166020820180517bffffffffffffffffffffffffffffffffffffffffffffffffffffffff83818316178352505050506040518082805190602001908083835b60208310611d935780518252602082019150602081019050602083039250611d70565b6001836020036101000a038019825116818451168082178552505050505050905001915050600060405180830381855af49150503d8060008114611df3576040519150601f19603f3d011682016040523d82523d6000602084013e611df8565b606091505b5050905080611e0657600080fd5b505050565b6000600e60009054906101000a900473ffffffffffffffffffffffffffffffffffffffff1673ffffffffffffffffffffffffffffffffffffffff168383604051602401808373ffffffffffffffffffffffffffffffffffffffff1673ffffffffffffffffffffffffffffffffffffffff168152602001828152602001925050506040516020818303038152906040527faf0b4606000000000000000000000000000000000000000000000000000000007bffffffffffffffffffffffffffffffffffffffffffffffffffffffff19166020820180517bffffffffffffffffffffffffffffffffffffffffffffffffffffffff83818316178352505050506040518082805190602001908083835b60208310611f3b5780518252602082019150602081019050602083039250611f18565b6001836020036101000a038019825116818451168082178552505050505050905001915050600060405180830381855af49150503d8060008114611f9b576040519150601f19603f3d011682016040523d82523d6000602084013e611fa0565b606091505b5050905080611fae57600080fd5b505050565b60008060159054906101000a900460ff1661208357600260009054906101000a900473ffffffffffffffffffffffffffffffffffffffff1673ffffffffffffffffffffffffffffffffffffffff16630247c79c670de0b6b3a76400006040518263ffffffff1660e01b81526004018082815260200191505060206040518083038186803b15801561204357600080fd5b505afa158015612057573d6000803e3d6000fd5b505050506040513d602081101561206d57600080fd5b8101908080519060200190929190505050612087565b6001545b905090565b600760009054906101000a900473ffffffffffffffffffffffffffffffffffffffff1673ffffffffffffffffffffffffffffffffffffffff1663da46098c3385856040518463ffffffff1660e01b8152600401808473ffffffffffffffffffffffffffffffffffffffff1673ffffffffffffffffffffffffffffffffffffffff1681526020018373ffffffffffffffffffffffffffffffffffffffff1673ffffffffffffffffffffffffffffffffffffffff1681526020018281526020019350505050600060405180830381600087803b15801561216957600080fd5b505af115801561217d573d6000803e3d6000fd5b50505050600660009054906101000a900473ffffffffffffffffffffffffffffffffffffffff1673ffffffffffffffffffffffffffffffffffffffff1663da46098c3385846040518463ffffffff1660e01b8152600401808473ffffffffffffffffffffffffffffffffffffffff1673ffffffffffffffffffffffffffffffffffffffff1681526020018373ffffffffffffffffffffffffffffffffffffffff1673ffffffffffffffffffffffffffffffffffffffff1681526020018281526020019350505050600060405180830381600087803b15801561225e57600080fd5b505af1158015612272573d6000803e3d6000fd5b50505050505050565b6000600460008373ffffffffffffffffffffffffffffffffffffffff1673ffffffffffffffffffffffffffffffffffffffff168152602001908152602001600020549050919050565b6000600560008373ffffffffffffffffffffffffffffffffffffffff1673ffffffffffffffffffffffffffffffffffffffff168152602001908152602001600020549050919050565b6000600260009054906101000a900473ffffffffffffffffffffffffffffffffffffffff1673ffffffffffffffffffffffffffffffffffffffff1663c04637116040518163ffffffff1660e01b815260040160206040518083038186803b15801561237757600080fd5b505afa15801561238b573d6000803e3d6000fd5b505050506040513d60208110156123a157600080fd5b8101908080519060200190929190505050905090565b600080600060159054906101000a900460ff1661248957600260009054906101000a900473ffffffffffffffffffffffffffffffffffffffff1673ffffffffffffffffffffffffffffffffffffffff16630247c79c670de0b6b3a76400006040518263ffffffff1660e01b81526004018082815260200191505060206040518083038186803b15801561244957600080fd5b505afa15801561245d573d6000803e3d6000fd5b505050506040513d602081101561247357600080fd5b810190808051906020019092919050505061248d565b6001545b9050612518600560008573ffffffffffffffffffffffffffffffffffffffff1673ffffffffffffffffffffffffffffffffffffffff16815260200190815260200160002054600460008673ffffffffffffffffffffffffffffffffffffffff1673ffffffffffffffffffffffffffffffffffffffff1681526020019081526020016000205483613199565b915050919050565b6000600154905090565b600060019054906101000a900473ffffffffffffffffffffffffffffffffffffffff1673ffffffffffffffffffffffffffffffffffffffff163373ffffffffffffffffffffffffffffffffffffffff16146125ed576040517f08c379a000000000000000000000000000000000000000000000000000000000815260040180806020018281038252600a8152602001807f6f6e6c79206f776e65720000000000000000000000000000000000000000000081525060200191505060405180910390fd5b600b60009054906101000a900460ff161561260757600080fd5b6001600860008373ffffffffffffffffffffffffffffffffffffffff1673ffffffffffffffffffffffffffffffffffffffff16815260200190815260200160002060006101000a81548160ff02191690831515021790555050565b6000600e60009054906101000a900473ffffffffffffffffffffffffffffffffffffffff1673ffffffffffffffffffffffffffffffffffffffff166040516024016040516020818303038152906040527fdfc081be000000000000000000000000000000000000000000000000000000007bffffffffffffffffffffffffffffffffffffffffffffffffffffffff19166020820180517bffffffffffffffffffffffffffffffffffffffffffffffffffffffff83818316178352505050506040518082805190602001908083835b602083106127535780518252602082019150602081019050602083039250612730565b6001836020036101000a038019825116818451168082178552505050505050905001915050600060405180830381855af49150503d80600081146127b3576040519150601f19603f3d011682016040523d82523d6000602084013e6127b8565b606091505b50509050806127c657600080fd5b50565b600060019054906101000a900473ffffffffffffffffffffffffffffffffffffffff1673ffffffffffffffffffffffffffffffffffffffff163373ffffffffffffffffffffffffffffffffffffffff161461288c576040517f08c379a000000000000000000000000000000000000000000000000000000000815260040180806020018281038252600a8152602001807f6f6e6c79206f776e65720000000000000000000000000000000000000000000081525060200191505060405180910390fd5b80600c8190555050565b600060159054906101000a900460ff16156128b057600080fd5b6000600e60009054906101000a900473ffffffffffffffffffffffffffffffffffffffff1673ffffffffffffffffffffffffffffffffffffffff16848484604051602401808473ffffffffffffffffffffffffffffffffffffffff1673ffffffffffffffffffffffffffffffffffffffff1681526020018381526020018215151515815260200193505050506040516020818303038152906040527fead5d359000000000000000000000000000000000000000000000000000000007bffffffffffffffffffffffffffffffffffffffffffffffffffffffff19166020820180517bffffffffffffffffffffffffffffffffffffffffffffffffffffffff83818316178352505050506040518082805190602001908083835b602083106129ec57805182526020820191506020810190506020830392506129c9565b6001836020036101000a038019825116818451168082178552505050505050905001915050600060405180830381855af49150503d8060008114612a4c576040519150601f19603f3d011682016040523d82523d6000602084013e612a51565b606091505b5050905080612a5f57600080fd5b50505050565b6000600d60009054906101000a900473ffffffffffffffffffffffffffffffffffffffff1673ffffffffffffffffffffffffffffffffffffffff1685858585604051602401808573ffffffffffffffffffffffffffffffffffffffff1673ffffffffffffffffffffffffffffffffffffffff1681526020018473ffffffffffffffffffffffffffffffffffffffff1673ffffffffffffffffffffffffffffffffffffffff1681526020018381526020018281526020019450505050506040516020818303038152906040527fec02d257000000000000000000000000000000000000000000000000000000007bffffffffffffffffffffffffffffffffffffffffffffffffffffffff19166020820180517bffffffffffffffffffffffffffffffffffffffffffffffffffffffff83818316178352505050506040518082805190602001908083835b60208310612bd15780518252602082019150602081019050602083039250612bae565b6001836020036101000a038019825116818451168082178552505050505050905001915050600060405180830381855af49150503d8060008114612c31576040519150601f19603f3d011682016040523d82523d6000602084013e612c36565b606091505b5050905080612c4457600080fd5b5050505050565b600060019054906101000a900473ffffffffffffffffffffffffffffffffffffffff1673ffffffffffffffffffffffffffffffffffffffff163373ffffffffffffffffffffffffffffffffffffffff1614612d0e576040517f08c379a000000000000000000000000000000000000000000000000000000000815260040180806020018281038252600a8152602001807f6f6e6c79206f776e65720000000000000000000000000000000000000000000081525060200191505060405180910390fd5b600073ffffffffffffffffffffffffffffffffffffffff168173ffffffffffffffffffffffffffffffffffffffff1614612d845780600060016101000a81548173ffffffffffffffffffffffffffffffffffffffff021916908373ffffffffffffffffffffffffffffffffffffffff1602179055505b50565b6000600a8281548110612d9657fe5b90600052602060002001549050919050565b6000600e60009054906101000a900473ffffffffffffffffffffffffffffffffffffffff1673ffffffffffffffffffffffffffffffffffffffff168383604051602401808373ffffffffffffffffffffffffffffffffffffffff1673ffffffffffffffffffffffffffffffffffffffff168152602001828152602001925050506040516020818303038152906040527ffc2807f1000000000000000000000000000000000000000000000000000000007bffffffffffffffffffffffffffffffffffffffffffffffffffffffff19166020820180517bffffffffffffffffffffffffffffffffffffffffffffffffffffffff83818316178352505050506040518082805190602001908083835b60208310612ed85780518252602082019150602081019050602083039250612eb5565b6001836020036101000a038019825116818451168082178552505050505050905001915050600060405180830381855af49150503d8060008114612f38576040519150601f19603f3d011682016040523d82523d6000602084013e612f3d565b606091505b5050905080612f4b57600080fd5b505050565b60008060159054906101000a900460ff16905090565b600080831415612f795760009050612fe6565b6000828402905082848281612f8a57fe5b0414612fe1576040517f08c379a00000000000000000000000000000000000000000000000000000000081526004018080602001828103825260218152602001806133ef6021913960400191505060405180910390fd5b809150505b92915050565b600080831415612fff5760009050613110565b7fffffffffffffffffffffffffffffffffffffffffffffffffffffffffffffffff8314801561304d57507f800000000000000000000000000000000000000000000000000000000000000082145b156130a3576040517f08c379a00000000000000000000000000000000000000000000000000000000081526004018080602001828103825260278152602001806134106027913960400191505060405180910390fd5b60008284029050828482816130b457fe5b051461310b576040517f08c379a00000000000000000000000000000000000000000000000000000000081526004018080602001828103825260278152602001806134106027913960400191505060405180910390fd5b809150505b92915050565b60008083121561318e57600061316061312e85613212565b670de0b6b3a764000061314a8689612f6690919063ffffffff16565b8161315157fe5b0461325c90919063ffffffff16565b90508261317e670de0b6b3a764000083612f6690919063ffffffff16565b8161318557fe5b04915050613192565b8390505b9392505050565b60008082116131a757600080fd5b670de0b6b3a76400006131c38386612f6690919063ffffffff16565b816131ca57fe5b049050600083136131f5576131f06131e184613212565b8261325c90919063ffffffff16565b613209565b61320883826132a690919063ffffffff16565b5b90509392505050565b600080821261322357819050613257565b7f800000000000000000000000000000000000000000000000000000000000000082141561325057600080fd5b8160000390505b919050565b600061329e83836040518060400160405280601e81526020017f536166654d6174683a207375627472616374696f6e206f766572666c6f77000081525061332e565b905092915050565b600080828401905083811015613324576040517f08c379a000000000000000000000000000000000000000000000000000000000815260040180806020018281038252601b8152602001807f536166654d6174683a206164646974696f6e206f766572666c6f77000000000081525060200191505060405180910390fd5b8091505092915050565b60008383111582906133db576040517f08c379a00000000000000000000000000000000000000000000000000000000081526004018080602001828103825283818151815260200191508051906020019080838360005b838110156133a0578082015181840152602081019050613385565b50505050905090810190601f1680156133cd5780820380516001836020036101000a031916815260200191505b509250505060405180910390fd5b506000838503905080915050939250505056fe536166654d6174683a206d756c7469706c69636174696f6e206f766572666c6f775369676e6564536166654d6174683a206d756c7469706c69636174696f6e206f766572666c6f77a264697066735822122023c3216f330a9fbf1e33fa026ba9f0221c9c5d79797a48c6c0346d2d4df0b07c64736f6c63430006080033",
  "immutableReferences": {},
  "source": "// SPDX-License-Identifier: MIT\npragma solidity >=0.6.8 <0.7.0;\nimport \"../interfaces/IFixCapitalPool.sol\";\nimport \"../interfaces/IWrapper.sol\";\nimport \"../interfaces/IYieldToken.sol\";\nimport \"../interfaces/IZeroCouponBond.sol\";\nimport \"../interfaces/IERC20.sol\";\nimport \"../interfaces/IInfoOracle.sol\";\nimport \"../libraries/SafeMath.sol\";\nimport \"../libraries/SignedSafeMath.sol\";\nimport \"../helpers/Ownable.sol\";\nimport \"../helpers/nonReentrant.sol\";\nimport \"./ZCB_YT/ZCB_YT_Deployer.sol\";\nimport \"./FCPDelegateParent.sol\";\n\ncontract FixCapitalPool is IFixCapitalPool, FCPDelegateParent {\n\tusing SafeMath for uint;\n\tusing SignedSafeMath for int;\n\n\taddress delegate1Address;\n\taddress delegate2Address;\n\n    /*\n\t\tinit\n    */\n\tconstructor(\n\t\taddress _wrapper,\n\t\tuint40 _maturity,\n\t\taddress _ZCB_YTdeployerAddr,\n\t\taddress _infoOracleAddress,\n\t\taddress _delegate1Address,\n\t\taddress _delegate2Address\n\t) public {\n\t\tIWrapper temp = IWrapper(_wrapper);\n\t\tinternalWrapper = temp;\n\t\ttemp.registerAsDistributionAccount();\n\t\tIERC20 temp2 = IERC20(temp.underlyingAssetAddress());\n\t\tinternalUnderlyingAssetAddress = address(temp2);\n\t\tinternalMaturity = _maturity;\n\t\tinternalYieldTokenAddress = ZCB_YT_Deployer(_ZCB_YTdeployerAddr).deployYT(_wrapper, _maturity);\n\t\tinternalZeroCouponBondAddress = ZCB_YT_Deployer(_ZCB_YTdeployerAddr).deployZCB(_wrapper, _maturity);\n\t\tinternalInfoOracleAddress = _infoOracleAddress;\n\t\tflashLoanFee = 100; //default flashloan fee of 100 super bips or 1 basis point or 0.01%\n\t\tdelegate1Address = _delegate1Address;\n\t\tdelegate2Address = _delegate2Address;\n\t}\n\n\t//-------------v-i-e-w-s---f-o-r---F-C-P-D-a-t-a---d-a-t-a-----\n\n\tfunction inPayoutPhase() external view override returns (bool) {\n\t\treturn internalInPayoutPhase;\n\t}\n\n\tfunction maturity() external view override returns(uint40) {\n\t\treturn internalMaturity;\n\t}\n\n\tfunction maturityConversionRate() external view override returns(uint) {\n\t\treturn internalMaturityConversionRate;\n\t}\n\n\tfunction underlyingAssetAddress() external view override returns(address) {\n\t\treturn internalUnderlyingAssetAddress;\n\t}\n\n\tfunction balanceBonds(address _owner) external view override returns(int) {\n\t\treturn internalBalanceBonds[_owner];\n\t}\n\n\tfunction balanceYield(address _owner) external view override returns(uint) {\n\t\treturn internalBalanceYield[_owner];\n\t}\n\n\tfunction yieldTokenAddress() external view override returns(address) {\n\t\treturn internalYieldTokenAddress;\n\t}\n\n\tfunction zeroCouponBondAddress() external view override returns(address) {\n\t\treturn internalZeroCouponBondAddress;\n\t}\n\n\tfunction whitelistedVaultFactories(address _vaultFactoryAddress) external view override returns(bool whitelisted) {\n\t\treturn internalWhitelistedVaultFactories[_vaultFactoryAddress];\n\t}\n\n\tfunction infoOracleAddress() external view override returns(address) {\n\t\treturn internalInfoOracleAddress;\n\t}\n\n\tfunction wrapper() external view override returns(IWrapper) {\n\t\treturn internalWrapper;\n\t}\n\n\tfunction TotalRewardsPerWassetAtMaturity(uint _index) external view override returns(uint) {\n\t\treturn internalTotalRewardsPerWassetAtMaturity[_index];\n\t}\n\n\tfunction isFinalized() external view override returns(bool) {\n\t\treturn internalIsFinalized;\n\t}\n\n\t/*\n\t\t@Description: allow easy access to last update without going to internalWrapper contract directly\n\t*/\n\tfunction lastUpdate() external view override returns(uint) {\n\t\treturn internalWrapper.lastUpdate();\n\t}\n\n\t/*\n\t\t@Description: return the amount of the bond value for which the ZCB contained is equal to\n\t\t\tthe ZCB contained in (1 ether) of the yield value\n\t*/\n\tfunction currentConversionRate() external view override returns(uint conversionRate) {\n\t\treturn internalInPayoutPhase ? internalMaturityConversionRate : internalWrapper.WrappedAmtToUnitAmt_RoundDown(1 ether);\n\t}\n\n\t/*\n\t\t@Description: send wrapped asest to this fix capital pool, receive ZCB & YT\n\n\t\t@param address _to: the address that shall receive the ZCB and YT\n\t\t@param uint _amountWrappedTkn: the amount of wrapped asset to deposit\n\t*/\n\tfunction depositWrappedToken(address _to, uint _amountWrappedTkn) external override {\n\t\t(bool success, ) = delegate2Address.delegatecall(abi.encodeWithSignature(\n\t\t\t\"depositWrappedToken(address,uint256)\",\n\t\t\t_to,\n\t\t\t_amountWrappedTkn\n\t\t));\n\t\trequire(success);\n\t}\n\n\t/*\n\t\t@Description: return ZCB & YT and receive wrapped asset\n\n\t\t@param address _to: the address that shall receive the output\n\t\t@param uint _amountWrappedTkn: the amount of wrapped asset to withdraw\n\t\t@param bool _unwrap: if true - wrapped asset will be sent to _to address\n\t\t\totherwise underlyingAsset will be sent\n\t*/\n\tfunction withdraw(address _to, uint _amountWrappedTkn, bool _unwrap) external override beforePayoutPhase {\n\t\t(bool success, ) = delegate2Address.delegatecall(abi.encodeWithSignature(\n\t\t\t\"withdraw(address,uint256,bool)\",\n\t\t\t_to,\n\t\t\t_amountWrappedTkn,\n\t\t\t_unwrap\n\t\t));\n\t\trequire(success);\n\t}\n\n\t/*\n\t\t@Description: return Min(balanceZCB, balanceYT) of both ZCB & YT and receive the corresponding\n\t\t\tamount of wrapped asset.\n\t\t\tEssentially this function is like withdraw except it always withdraws as much as possible\n\n\t\t@param address _to: the address that shall receive the output\n\t\t@param bool _unwrap: if true - wrapped asset will be sent to _to address\n\t\t\totherwise underlyingAsset will be sent\n\t*/\n\tfunction withdrawAll(address _to, bool _unwrap) external override {\n\t\t(bool success, ) = delegate2Address.delegatecall(abi.encodeWithSignature(\n\t\t\t\"withdrawAll(address,bool)\",\n\t\t\t_to,\n\t\t\t_unwrap\n\t\t));\n\t\trequire(success);\n\t}\n\n\t/*\n\t\t@Description: after the internalMaturity call this function to redeem ZCBs at a ratio of 1:1 with the\n\t\t\tunderlying asset, pays out in wrapped asset\n\n\t\t@param address _to: the address that shall receive the wrapped asset\n\t\t@param bool _unwrap: if true - wrapped asset will be sent to _to address\n\t\t\totherwise underlyingAsset will be sent\n\t*/\n\tfunction claimBondPayout(address _to, bool _unwrap) external override {\n\t\t(bool success, ) = delegate1Address.delegatecall(abi.encodeWithSignature(\n\t\t\t\"claimBondPayout(address,bool)\",\n\t\t\t_to,\n\t\t\t_unwrap\n\t\t));\n\t\trequire(success);\n\t}\n\n\t/*\n\t\t@Description: after maturity call this funtion to send into payout phase\n\t*/\n\tfunction enterPayoutPhase() external override {\n\t\t(bool success, ) = delegate2Address.delegatecall(abi.encodeWithSignature(\"enterPayoutPhase()\"));\n\t\trequire(success);\n\t}\n\n\t/*\n\t\t@Description: returns the maximum wrapped amount of the internalWrapper asset that may be withdrawn by an account\n\n\t\t@param address _owner: the account for which to find the maximum wrapped amount that may be withdrawn\n\n\t\t@return uint wrappedTknFree: the maximum wrapped amount of the internalWrapper asset that may be withdawn\n\t*/\n\tfunction wrappedTokenFree(address _owner) external view override returns(uint wrappedTknFree) {\n\t\tuint conversionRate = internalInPayoutPhase ? internalMaturityConversionRate : internalWrapper.WrappedAmtToUnitAmt_RoundDown(1 ether);\n\t\treturn maxWrappedWithdrawAmt(internalBalanceYield[_owner], internalBalanceBonds[_owner], conversionRate);\n\t}\n\n    //--------------------M-a-r-g-i-n---F-u-n-c-t-i-o-n-a-l-i-t-y--------------------------------\n\n    /*\n\t\t@Description: VaultFactory contract may mint new ZCB against collateral, to mint new ZCB the VaultFactory\n\t\t\tcalls this function\n\n\t\t@param address _owner: address to credit new ZCB to\n\t\t@param uint _amount: amount of ZCB to credit to _owner\n    */\n\tfunction mintZCBTo(address _owner, uint _amount) external override {\n\t\t(bool success, ) = delegate2Address.delegatecall(abi.encodeWithSignature(\n\t\t\t\"mintZCBTo(address,uint256)\",\n\t\t\t_owner,\n\t\t\t_amount\n\t\t));\n\t\trequire(success);\n\t}\n\n\t/*\n\t\t@Description: when margin position is closed/liquidated VaultFactory contract calls this function to\n\t\t\tremove ZCB from circulation\n\n\t\t@param address _owner: address to take ZCB from\n\t\t@param uint _amount: the amount of ZCB to remove from cirulation\t\t\n\t*/\n\tfunction burnZCBFrom(address _owner, uint _amount) external override {\n\t\t(bool success, ) = delegate2Address.delegatecall(abi.encodeWithSignature(\n\t\t\t\"burnZCBFrom(address,uint256)\",\n\t\t\t_owner,\n\t\t\t_amount\n\t\t));\n\t\trequire(success);\n\t}\n\n\t/*\n\t\t@Description: transfer a ZCB + YT position to another address\n\n\t\t@param address _to: the address that shall receive the position\n\t\t@param uint _yield: the amount change in the internalBalanceYield mapping\n\t\t@param int _bond: the amount change in the internalBalanceBonds mapping\n\t*/\n\tfunction transferPosition(address _to, uint _yield, int _bond) external override {\n\t\t(bool success, ) = delegate1Address.delegatecall(abi.encodeWithSignature(\n\t\t\t\"transferPosition(address,uint256,int256)\",\n\t\t\t_to,\n\t\t\t_yield,\n\t\t\t_bond\n\t\t));\n\t\trequire(success);\n\t}\n\n\t/*\n\t\t@Description: transfer a ZCB + YT position from one address to another address\n\n\t\t@param address _from: the address that shall send the position\n\t\t@param address _to: the address that shall receive the position\n\t\t@param uint _yield: the amount change in the internalBalanceYield mapping\n\t\t@param int _bond: the amount change in the internalBalanceBonds mapping\n\t*/\n\tfunction transferPositionFrom(address _from, address _to, uint _yield, int _bond) external override {\n\t\t(bool success, ) = delegate1Address.delegatecall(abi.encodeWithSignature(\n\t\t\t\"transferPositionFrom(address,address,uint256,int256)\",\n\t\t\t_from,\n\t\t\t_to,\n\t\t\t_yield,\n\t\t\t_bond\n\t\t));\n\t\trequire(success);\n\t}\n\n\t/*\n\t\t@Description: approve both ZCB & YT with one function call\n\n\t\t@param address _spender: the spender of the funds to set approval for\n\t\t@param uint _allowanceZCB: the new allowance of ZCB\n\t\t@param uint _allowanceYT: the new allowance of static YT\n\t*/\n\tfunction dualApprove(address _spender, uint _allowanceZCB, uint _allowanceYT) external override {\n\t\tIZeroCouponBond(internalZeroCouponBondAddress).setAllowance(msg.sender, _spender, _allowanceZCB);\n\t\tIYieldToken(internalYieldTokenAddress).setAllowance(msg.sender, _spender, _allowanceYT);\n\t}\n\n\n\t//---------------------------Z-e-r-o---C-o-u-p-o-n---B-o-n-d----------------\n\n\t/*\n\t\t@Description: this fucntion is used to get balance of ZCB\n\n\t\t@param address _owner: the account for which to find zcb balance\n\n\t\t@return uint: the balance of ZCB of _owner\n\t*/\n\tfunction totalBalanceZCB(address _owner) external view override returns (uint) {\n\t\tuint conversionRate = internalInPayoutPhase ? internalMaturityConversionRate : internalWrapper.WrappedAmtToUnitAmt_RoundDown(1 ether);\n\t\treturn minimumUnitAmountAtMaturity(internalBalanceYield[_owner], internalBalanceBonds[_owner], conversionRate);\n\t}\n\n\t/*\n\t\t@Description: zero coupon bond contract must call this function to transfer zcb between addresses\n\n\t\t@param address _from: the address to deduct ZCB from\n\t\t@param address _to: the address to send \n\t*/\n\tfunction transferZCB(address _from, address _to, uint _amount) external override {\n\t\t(bool success, ) = delegate1Address.delegatecall(abi.encodeWithSignature(\n\t\t\t\"transferZCB(address,address,uint256)\",\n\t\t\t_from,\n\t\t\t_to,\n\t\t\t_amount\n\t\t));\n\t\trequire(success);\n\t}\n\n\t//---------------------------Y-i-e-l-d---T-o-k-e-n-----------------------\n\n\t/*\n\t\t@Description: yield token contract must call this function to move yield token between addresses\n\n\t\t@param address _from: the address to deduct YT from\n\t\t@param address _to: the address to credit YT to\n\t\t@param uint _amount: the amount of YT to move between _from and _to\n\t\t\t*denominated in wrapped asset*\n\t*/\n\tfunction transferYT(address _from, address _to, uint _amount) external override {\n\t\t(bool success, ) = delegate1Address.delegatecall(abi.encodeWithSignature(\n\t\t\t\"transferYT(address,address,uint256)\",\n\t\t\t_from,\n\t\t\t_to,\n\t\t\t_amount\n\t\t));\n\t\trequire(success);\n\t}\n\n\t//---------------------------------a-d-m-i-n------------------------------\n\n\t/*\n\t\t@Description: before isFinalized admin may whitelist a VaultFactory contract address\n\t\t\twhitelisted VaultFactories are allowed to mint and burn ZCB so users should be careful and observant of this\n\n\t\t@param address _vaultFactoryAddress: the address of the new vault factory contract that this fix capital pool whitelist\n\t*/\n\tfunction setVaultFactoryAddress(address _vaultFactoryAddress) external override onlyOwner {\n\t\trequire(!internalIsFinalized);\n\t\tinternalWhitelistedVaultFactories[_vaultFactoryAddress] = true;\n\t}\n\n\t/*\n\t\t@Description: after this function is called by owner, the vaultFactoryAddress cannot be changed\n\t*/\n\tfunction finalize() external override onlyOwner {\n\t\tinternalIsFinalized = true;\n\t}\n\n    /*\n\t\t@Description: set the percentage fee that is applied to all flashloans\n\n\t\t@param uint _flashLoanFee: the new fee percentage denominated in superbips which is to be applied to flashloans\n    */\n    function setFlashLoanFee(uint _flashLoanFee) external onlyOwner {\n    \tflashLoanFee = _flashLoanFee;\n    }\n\n\t//------------------------------f-l-a-s-h-l-o-a-n-s--------------------------\n\n\t/*\n\t\t@Description: get the maximum amount of yield and bond that may be flashloaned\n\n\t\t@return uint256 maxYield: the maximum amount in the internalBalanceYield mapping that may be flashloaned\n\t\t@return int256 maxBond; the maximum amount in the internalBalanceBonds mapping that may be flashloaned\n\t*/\n    function maxFlashLoan() external view override returns (uint256 maxYield, int256 maxBond) {\n    \tmaxYield = MAX_YIELD_FLASHLOAN;\n    \tmaxBond = MAX_BOND_FLASHLOAN;\n    }\n\n    /*\n\t\t@Description: the fee amount of yield and bonds that will be charged given specific amounts flashloaned\n\n\t\t@param uint256 _amountYield: the amount of yield flashloaned\n\t\t@param int256 _amountBond: the amount of bond flashloaned\n\n\t\t@return uint256 yieldFee: the fee in terms of yield\n\t\t@return int256 bondFee: the fee in bonds\n    */\n\tfunction flashFee(\n\t\tuint256 _amountYield,\n\t\tint256 _amountBond\n\t) external view override returns (uint256 yieldFee, int256 bondFee) {\n\t\trequire(_amountYield <= MAX_YIELD_FLASHLOAN);\n\t\trequire(_amountBond <= MAX_BOND_FLASHLOAN);\n\t\tuint _flashLoanFee = flashLoanFee;\n\t\tyieldFee = _amountYield.mul(_flashLoanFee) / totalSBPS;\n\t\tbondFee = _amountBond.mul(int(_flashLoanFee)) / int(totalSBPS);\n\t}\n\n\t/*\n\t\t@Description: initiate flashloan\n\n\t\t@param IFCPFlashBorrower: the contract that shall borrow the funds\n\t\t@param uint256 _amountYield: the amount of yield to flashborrow\n\t\t@param int256 _amountBond: the amount of bond to flashborrow\n\t\t@param bytes calldata _data: the data to pass to the flash borrow receiver\n\n\t\t@return bool: true when flashloan is successful\n    */\n    function flashLoan(\n        IFCPFlashBorrower _receiver,\n        uint256 _amountYield,\n        int256 _amountBond,\n        bytes calldata _data\n    ) external override returns (bool) {\n    \t(bool success, ) = delegate2Address.delegatecall(abi.encodeWithSignature(\n    \t\t\"flashLoan(address,uint256,int256,bytes)\",\n    \t\t_receiver,\n    \t\t_amountYield,\n    \t\t_amountBond,\n    \t\t_data\n    \t));\n    \trequire(success);\n    }\n}",
  "sourcePath": "/home/asher/FixFinanceV1/contracts/FixCapitalPool/FixCapitalPool.sol",
  "compiler": {
    "name": "solc",
    "version": "0.6.8+commit.0bbfe453.Emscripten.clang"
  },
  "schemaVersion": "3.4.1",
  "updatedAt": "2021-11-26T19:15:54.907Z",
  "devdoc": {
    "methods": {}
  },
  "userdoc": {
    "methods": {}
  }
}