{
  "contractName": "InfoOracle",
  "abi": [
    {
      "inputs": [
        {
          "internalType": "address",
          "name": "_sendTo",
          "type": "address"
        },
        {
          "internalType": "bool",
          "name": "_TreasuryFeeIsCollected",
          "type": "bool"
        }
      ],
      "stateMutability": "nonpayable",
      "type": "constructor"
    },
    {
      "inputs": [
        {
          "internalType": "address",
          "name": "",
          "type": "address"
        }
      ],
      "name": "DelegatedControllers",
      "outputs": [
        {
          "internalType": "address",
          "name": "",
          "type": "address"
        }
      ],
      "stateMutability": "view",
      "type": "function"
    },
    {
      "inputs": [
        {
          "internalType": "address",
          "name": "",
          "type": "address"
        }
      ],
      "name": "FCPOrderbookFeeBips",
      "outputs": [
        {
          "internalType": "uint8",
          "name": "",
          "type": "uint8"
        }
      ],
      "stateMutability": "view",
      "type": "function"
    },
    {
      "inputs": [
        {
          "internalType": "address",
          "name": "",
          "type": "address"
        },
        {
          "internalType": "address",
          "name": "",
          "type": "address"
        }
      ],
      "name": "FCPtoWrapper",
      "outputs": [
        {
          "internalType": "address",
          "name": "",
          "type": "address"
        }
      ],
      "stateMutability": "view",
      "type": "function"
    },
    {
      "inputs": [],
      "name": "MinimumOrderbookFee",
      "outputs": [
        {
          "internalType": "uint8",
          "name": "",
          "type": "uint8"
        }
      ],
      "stateMutability": "view",
      "type": "function"
    },
    {
      "inputs": [
        {
          "internalType": "address",
          "name": "",
          "type": "address"
        },
        {
          "internalType": "address",
          "name": "",
          "type": "address"
        }
      ],
      "name": "StabilityFeeAPR",
      "outputs": [
        {
          "internalType": "uint64",
          "name": "",
          "type": "uint64"
        }
      ],
      "stateMutability": "view",
      "type": "function"
    },
    {
      "inputs": [],
      "name": "TreasuryFeeIsCollected",
      "outputs": [
        {
          "internalType": "bool",
          "name": "",
          "type": "bool"
        }
      ],
      "stateMutability": "view",
      "type": "function"
    },
    {
      "inputs": [
        {
          "internalType": "address",
          "name": "",
          "type": "address"
        }
      ],
      "name": "WrapperOrderbookFeeBips",
      "outputs": [
        {
          "internalType": "uint8",
          "name": "",
          "type": "uint8"
        }
      ],
      "stateMutability": "view",
      "type": "function"
    },
    {
      "inputs": [
        {
          "internalType": "address",
          "name": "",
          "type": "address"
        },
        {
          "internalType": "address",
          "name": "",
          "type": "address"
        }
      ],
      "name": "collateralWhitelist",
      "outputs": [
        {
          "internalType": "address",
          "name": "",
          "type": "address"
        }
      ],
      "stateMutability": "view",
      "type": "function"
    },
    {
      "inputs": [],
      "name": "owner",
      "outputs": [
        {
          "internalType": "address",
          "name": "",
          "type": "address"
        }
      ],
      "stateMutability": "view",
      "type": "function"
    },
    {
      "inputs": [],
      "name": "sendTo",
      "outputs": [
        {
          "internalType": "address",
          "name": "",
          "type": "address"
        }
      ],
      "stateMutability": "view",
      "type": "function"
    },
    {
      "inputs": [
        {
          "internalType": "address",
          "name": "newOwner",
          "type": "address"
        }
      ],
      "name": "transferOwnership",
      "outputs": [],
      "stateMutability": "nonpayable",
      "type": "function"
    },
    {
      "inputs": [
        {
          "internalType": "address",
          "name": "_contract",
          "type": "address"
        },
        {
          "internalType": "address",
          "name": "_manager",
          "type": "address"
        }
      ],
      "name": "setDelegatedController",
      "outputs": [],
      "stateMutability": "nonpayable",
      "type": "function"
    },
    {
      "inputs": [
        {
          "internalType": "address",
          "name": "_wrapper",
          "type": "address"
        },
        {
          "internalType": "uint8",
          "name": "_orderbookFeeBips",
          "type": "uint8"
        }
      ],
      "name": "wrapperSetOrderbookFeeConstant",
      "outputs": [],
      "stateMutability": "nonpayable",
      "type": "function"
    },
    {
      "inputs": [
        {
          "internalType": "address",
          "name": "_fixCapitalPoolAddress",
          "type": "address"
        },
        {
          "internalType": "uint8",
          "name": "_orderbookFeeBips",
          "type": "uint8"
        }
      ],
      "name": "setOrderbookFeeConstant",
      "outputs": [],
      "stateMutability": "nonpayable",
      "type": "function"
    },
    {
      "inputs": [
        {
          "internalType": "address",
          "name": "_vaultFactoryAddress",
          "type": "address"
        },
        {
          "internalType": "address",
          "name": "_wrapperAsset",
          "type": "address"
        },
        {
          "internalType": "uint64",
          "name": "_stabilityFeeAPR",
          "type": "uint64"
        }
      ],
      "name": "setStabilityFeeAPR",
      "outputs": [],
      "stateMutability": "nonpayable",
      "type": "function"
    },
    {
      "inputs": [
        {
          "internalType": "address",
          "name": "_vaultFactoryAddress",
          "type": "address"
        },
        {
          "internalType": "address",
          "name": "_wrapperAddress",
          "type": "address"
        }
      ],
      "name": "whitelistWrapper",
      "outputs": [],
      "stateMutability": "nonpayable",
      "type": "function"
    },
    {
      "inputs": [
        {
          "internalType": "address",
          "name": "_vaultFactoryAddress",
          "type": "address"
        },
        {
          "internalType": "address",
          "name": "_assetAddress",
          "type": "address"
        }
      ],
      "name": "whitelistAsset",
      "outputs": [],
      "stateMutability": "nonpayable",
      "type": "function"
    },
    {
      "inputs": [
        {
          "internalType": "address",
          "name": "_vaultFactoryAddress",
          "type": "address"
        },
        {
          "internalType": "address",
          "name": "_FCPaddress",
          "type": "address"
        }
      ],
      "name": "whitelistFixCapitalPool",
      "outputs": [],
      "stateMutability": "nonpayable",
      "type": "function"
    },
    {
      "inputs": [
        {
          "internalType": "address",
          "name": "_fixCapitalPoolAddress",
          "type": "address"
        }
      ],
      "name": "getOrderbookFeeBips",
      "outputs": [
        {
          "internalType": "uint8",
          "name": "FeeBips",
          "type": "uint8"
        }
      ],
      "stateMutability": "view",
      "type": "function"
    },
    {
      "inputs": [
        {
          "internalType": "uint8",
          "name": "_minimumOrderbookFee",
          "type": "uint8"
        }
      ],
      "name": "setMinimumOrderbookFee",
      "outputs": [],
      "stateMutability": "nonpayable",
      "type": "function"
    },
    {
      "inputs": [
        {
          "internalType": "bool",
          "name": "_TreasuryFeeIsCollected",
          "type": "bool"
        }
      ],
      "name": "setTreasuryFeeIsCollected",
      "outputs": [],
      "stateMutability": "nonpayable",
      "type": "function"
    }
  ],
  "bytecode": "0x60a060405234801561001057600080fd5b50604051611f88380380611f888339818101604052604081101561003357600080fd5b810190808051906020019092919080519060200190929190505050336000806101000a81548173ffffffffffffffffffffffffffffffffffffffff021916908373ffffffffffffffffffffffffffffffffffffffff1602179055508173ffffffffffffffffffffffffffffffffffffffff1660808173ffffffffffffffffffffffffffffffffffffffff1660601b8152505080600060156101000a81548160ff021916908315150217905550505060805160601c611e8a6100fe60003980610bb05250611e8a6000f3fe608060405234801561001057600080fd5b50600436106101375760003560e01c80637fea65aa116100b8578063ce2a3b9d1161007c578063ce2a3b9d14610677578063ce96e3a014610703578063d4c8551014610761578063e5af6df3146107bf578063eac98a1f14610863578063f2fde38b1461089357610137565b80637fea65aa146104bd5780638da5cb5b14610521578063993d5ce61461056b578063a8148ecd146105cf578063a9420e39146105f357610137565b80635e5944f6116100ff5780635e5944f61461030a57806366f0b7a41461035b5780637348c857146103bf57806373dd0f9f146103e157806376aad6e41461045957610137565b80630448e8c41461013c5780632c79351b1461018d578063475ee84d14610231578063489e0951146102625780635ca6cc31146102ac575b600080fd5b61018b6004803603604081101561015257600080fd5b81019080803573ffffffffffffffffffffffffffffffffffffffff169060200190929190803560ff1690602001909291905050506108d7565b005b6101ef600480360360408110156101a357600080fd5b81019080803573ffffffffffffffffffffffffffffffffffffffff169060200190929190803573ffffffffffffffffffffffffffffffffffffffff169060200190929190505050610a8c565b604051808273ffffffffffffffffffffffffffffffffffffffff1673ffffffffffffffffffffffffffffffffffffffff16815260200191505060405180910390f35b6102606004803603602081101561024757600080fd5b81019080803560ff169060200190929190505050610ace565b005b61026a610bae565b604051808273ffffffffffffffffffffffffffffffffffffffff1673ffffffffffffffffffffffffffffffffffffffff16815260200191505060405180910390f35b6102ee600480360360208110156102c257600080fd5b81019080803573ffffffffffffffffffffffffffffffffffffffff169060200190929190505050610bd2565b604051808260ff1660ff16815260200191505060405180910390f35b6103596004803603604081101561032057600080fd5b81019080803573ffffffffffffffffffffffffffffffffffffffff169060200190929190803560ff169060200190929190505050610d44565b005b6103bd6004803603604081101561037157600080fd5b81019080803573ffffffffffffffffffffffffffffffffffffffff169060200190929190803573ffffffffffffffffffffffffffffffffffffffff169060200190929190505050610ef9565b005b6103c7611252565b604051808215151515815260200191505060405180910390f35b610457600480360360608110156103f757600080fd5b81019080803573ffffffffffffffffffffffffffffffffffffffff169060200190929190803573ffffffffffffffffffffffffffffffffffffffff169060200190929190803567ffffffffffffffff169060200190929190505050611265565b005b6104bb6004803603604081101561046f57600080fd5b81019080803573ffffffffffffffffffffffffffffffffffffffff169060200190929190803573ffffffffffffffffffffffffffffffffffffffff169060200190929190505050611466565b005b61051f600480360360408110156104d357600080fd5b81019080803573ffffffffffffffffffffffffffffffffffffffff169060200190929190803573ffffffffffffffffffffffffffffffffffffffff16906020019092919050505061167f565b005b6105296117b9565b604051808273ffffffffffffffffffffffffffffffffffffffff1673ffffffffffffffffffffffffffffffffffffffff16815260200191505060405180910390f35b6105cd6004803603604081101561058157600080fd5b81019080803573ffffffffffffffffffffffffffffffffffffffff169060200190929190803573ffffffffffffffffffffffffffffffffffffffff1690602001909291905050506117de565b005b6105d7611b3d565b604051808260ff1660ff16815260200191505060405180910390f35b6106356004803603602081101561060957600080fd5b81019080803573ffffffffffffffffffffffffffffffffffffffff169060200190929190505050611b50565b604051808273ffffffffffffffffffffffffffffffffffffffff1673ffffffffffffffffffffffffffffffffffffffff16815260200191505060405180910390f35b6106d96004803603604081101561068d57600080fd5b81019080803573ffffffffffffffffffffffffffffffffffffffff169060200190929190803573ffffffffffffffffffffffffffffffffffffffff169060200190929190505050611b83565b604051808267ffffffffffffffff1667ffffffffffffffff16815260200191505060405180910390f35b6107456004803603602081101561071957600080fd5b81019080803573ffffffffffffffffffffffffffffffffffffffff169060200190929190505050611bb9565b604051808260ff1660ff16815260200191505060405180910390f35b6107a36004803603602081101561077757600080fd5b81019080803573ffffffffffffffffffffffffffffffffffffffff169060200190929190505050611bd9565b604051808260ff1660ff16815260200191505060405180910390f35b610821600480360360408110156107d557600080fd5b81019080803573ffffffffffffffffffffffffffffffffffffffff169060200190929190803573ffffffffffffffffffffffffffffffffffffffff169060200190929190505050611bf9565b604051808273ffffffffffffffffffffffffffffffffffffffff1673ffffffffffffffffffffffffffffffffffffffff16815260200191505060405180910390f35b6108916004803603602081101561087957600080fd5b81019080803515159060200190929190505050611c3b565b005b6108d5600480360360208110156108a957600080fd5b81019080803573ffffffffffffffffffffffffffffffffffffffff169060200190929190505050611d1a565b005b8160008173ffffffffffffffffffffffffffffffffffffffff16638da5cb5b6040518163ffffffff1660e01b815260040160206040518083038186803b15801561092057600080fd5b505afa158015610934573d6000803e3d6000fd5b505050506040513d602081101561094a57600080fd5b810190808051906020019092919050505090508073ffffffffffffffffffffffffffffffffffffffff163373ffffffffffffffffffffffffffffffffffffffff1614610a2e576000600360008473ffffffffffffffffffffffffffffffffffffffff1673ffffffffffffffffffffffffffffffffffffffff16815260200190815260200160002060009054906101000a900473ffffffffffffffffffffffffffffffffffffffff1690508073ffffffffffffffffffffffffffffffffffffffff163373ffffffffffffffffffffffffffffffffffffffff1614610a2c57600080fd5b505b82600160008673ffffffffffffffffffffffffffffffffffffffff1673ffffffffffffffffffffffffffffffffffffffff16815260200190815260200160002060006101000a81548160ff021916908360ff16021790555050505050565b60056020528160005260406000206020528060005260406000206000915091509054906101000a900473ffffffffffffffffffffffffffffffffffffffff1681565b6000809054906101000a900473ffffffffffffffffffffffffffffffffffffffff1673ffffffffffffffffffffffffffffffffffffffff163373ffffffffffffffffffffffffffffffffffffffff1614610b90576040517f08c379a000000000000000000000000000000000000000000000000000000000815260040180806020018281038252600a8152602001807f6f6e6c79206f776e65720000000000000000000000000000000000000000000081525060200191505060405180910390fd5b80600060146101000a81548160ff021916908360ff16021790555050565b7f000000000000000000000000000000000000000000000000000000000000000081565b6000600260008373ffffffffffffffffffffffffffffffffffffffff1673ffffffffffffffffffffffffffffffffffffffff16815260200190815260200160002060009054906101000a900460ff16905060008160ff161415610cff57600160008373ffffffffffffffffffffffffffffffffffffffff1663ac210cc76040518163ffffffff1660e01b815260040160206040518083038186803b158015610c7957600080fd5b505afa158015610c8d573d6000803e3d6000fd5b505050506040513d6020811015610ca357600080fd5b810190808051906020019092919050505073ffffffffffffffffffffffffffffffffffffffff1673ffffffffffffffffffffffffffffffffffffffff16815260200190815260200160002060009054906101000a900460ff1690505b60008160ff1614610d14578080600190039150505b60008060149054906101000a900460ff1690508060ff168260ff1610610d3a5781610d3c565b805b915050919050565b8160008173ffffffffffffffffffffffffffffffffffffffff16638da5cb5b6040518163ffffffff1660e01b815260040160206040518083038186803b158015610d8d57600080fd5b505afa158015610da1573d6000803e3d6000fd5b505050506040513d6020811015610db757600080fd5b810190808051906020019092919050505090508073ffffffffffffffffffffffffffffffffffffffff163373ffffffffffffffffffffffffffffffffffffffff1614610e9b576000600360008473ffffffffffffffffffffffffffffffffffffffff1673ffffffffffffffffffffffffffffffffffffffff16815260200190815260200160002060009054906101000a900473ffffffffffffffffffffffffffffffffffffffff1690508073ffffffffffffffffffffffffffffffffffffffff163373ffffffffffffffffffffffffffffffffffffffff1614610e9957600080fd5b505b82600260008673ffffffffffffffffffffffffffffffffffffffff1673ffffffffffffffffffffffffffffffffffffffff16815260200190815260200160002060006101000a81548160ff021916908360ff16021790555050505050565b8160008173ffffffffffffffffffffffffffffffffffffffff16638da5cb5b6040518163ffffffff1660e01b815260040160206040518083038186803b158015610f4257600080fd5b505afa158015610f56573d6000803e3d6000fd5b505050506040513d6020811015610f6c57600080fd5b810190808051906020019092919050505090508073ffffffffffffffffffffffffffffffffffffffff163373ffffffffffffffffffffffffffffffffffffffff1614611050576000600360008473ffffffffffffffffffffffffffffffffffffffff1673ffffffffffffffffffffffffffffffffffffffff16815260200190815260200160002060009054906101000a900473ffffffffffffffffffffffffffffffffffffffff1690508073ffffffffffffffffffffffffffffffffffffffff163373ffffffffffffffffffffffffffffffffffffffff161461104e57600080fd5b505b8273ffffffffffffffffffffffffffffffffffffffff166374a75d9f856040518263ffffffff1660e01b8152600401808273ffffffffffffffffffffffffffffffffffffffff1673ffffffffffffffffffffffffffffffffffffffff16815260200191505060206040518083038186803b1580156110cd57600080fd5b505afa1580156110e1573d6000803e3d6000fd5b505050506040513d60208110156110f757600080fd5b810190808051906020019092919050505061111157600080fd5b8273ffffffffffffffffffffffffffffffffffffffff166389d1a0fc6040518163ffffffff1660e01b815260040160206040518083038186803b15801561115757600080fd5b505afa15801561116b573d6000803e3d6000fd5b505050506040513d602081101561118157600080fd5b8101908080519060200190929190505050600560008673ffffffffffffffffffffffffffffffffffffffff1673ffffffffffffffffffffffffffffffffffffffff16815260200190815260200160002060008573ffffffffffffffffffffffffffffffffffffffff1673ffffffffffffffffffffffffffffffffffffffff16815260200190815260200160002060006101000a81548173ffffffffffffffffffffffffffffffffffffffff021916908373ffffffffffffffffffffffffffffffffffffffff16021790555050505050565b600060159054906101000a900460ff1681565b8260008173ffffffffffffffffffffffffffffffffffffffff16638da5cb5b6040518163ffffffff1660e01b815260040160206040518083038186803b1580156112ae57600080fd5b505afa1580156112c2573d6000803e3d6000fd5b505050506040513d60208110156112d857600080fd5b810190808051906020019092919050505090508073ffffffffffffffffffffffffffffffffffffffff163373ffffffffffffffffffffffffffffffffffffffff16146113bc576000600360008473ffffffffffffffffffffffffffffffffffffffff1673ffffffffffffffffffffffffffffffffffffffff16815260200190815260200160002060009054906101000a900473ffffffffffffffffffffffffffffffffffffffff1690508073ffffffffffffffffffffffffffffffffffffffff163373ffffffffffffffffffffffffffffffffffffffff16146113ba57600080fd5b505b82600460008773ffffffffffffffffffffffffffffffffffffffff1673ffffffffffffffffffffffffffffffffffffffff16815260200190815260200160002060008673ffffffffffffffffffffffffffffffffffffffff1673ffffffffffffffffffffffffffffffffffffffff16815260200190815260200160002060006101000a81548167ffffffffffffffff021916908367ffffffffffffffff1602179055505050505050565b8160008173ffffffffffffffffffffffffffffffffffffffff16638da5cb5b6040518163ffffffff1660e01b815260040160206040518083038186803b1580156114af57600080fd5b505afa1580156114c3573d6000803e3d6000fd5b505050506040513d60208110156114d957600080fd5b810190808051906020019092919050505090508073ffffffffffffffffffffffffffffffffffffffff163373ffffffffffffffffffffffffffffffffffffffff16146115bd576000600360008473ffffffffffffffffffffffffffffffffffffffff1673ffffffffffffffffffffffffffffffffffffffff16815260200190815260200160002060009054906101000a900473ffffffffffffffffffffffffffffffffffffffff1690508073ffffffffffffffffffffffffffffffffffffffff163373ffffffffffffffffffffffffffffffffffffffff16146115bb57600080fd5b505b6001600560008673ffffffffffffffffffffffffffffffffffffffff1673ffffffffffffffffffffffffffffffffffffffff16815260200190815260200160002060008573ffffffffffffffffffffffffffffffffffffffff1673ffffffffffffffffffffffffffffffffffffffff16815260200190815260200160002060006101000a81548173ffffffffffffffffffffffffffffffffffffffff021916908373ffffffffffffffffffffffffffffffffffffffff16021790555050505050565b3373ffffffffffffffffffffffffffffffffffffffff168273ffffffffffffffffffffffffffffffffffffffff16638da5cb5b6040518163ffffffff1660e01b815260040160206040518083038186803b1580156116dc57600080fd5b505afa1580156116f0573d6000803e3d6000fd5b505050506040513d602081101561170657600080fd5b810190808051906020019092919050505073ffffffffffffffffffffffffffffffffffffffff161461173757600080fd5b80600360008473ffffffffffffffffffffffffffffffffffffffff1673ffffffffffffffffffffffffffffffffffffffff16815260200190815260200160002060006101000a81548173ffffffffffffffffffffffffffffffffffffffff021916908373ffffffffffffffffffffffffffffffffffffffff1602179055505050565b6000809054906101000a900473ffffffffffffffffffffffffffffffffffffffff1681565b8160008173ffffffffffffffffffffffffffffffffffffffff16638da5cb5b6040518163ffffffff1660e01b815260040160206040518083038186803b15801561182757600080fd5b505afa15801561183b573d6000803e3d6000fd5b505050506040513d602081101561185157600080fd5b810190808051906020019092919050505090508073ffffffffffffffffffffffffffffffffffffffff163373ffffffffffffffffffffffffffffffffffffffff1614611935576000600360008473ffffffffffffffffffffffffffffffffffffffff1673ffffffffffffffffffffffffffffffffffffffff16815260200190815260200160002060009054906101000a900473ffffffffffffffffffffffffffffffffffffffff1690508073ffffffffffffffffffffffffffffffffffffffff163373ffffffffffffffffffffffffffffffffffffffff161461193357600080fd5b505b60008373ffffffffffffffffffffffffffffffffffffffff1663ac210cc76040518163ffffffff1660e01b815260040160206040518083038186803b15801561197d57600080fd5b505afa158015611991573d6000803e3d6000fd5b505050506040513d60208110156119a757600080fd5b810190808051906020019092919050505090508073ffffffffffffffffffffffffffffffffffffffff166374a75d9f866040518263ffffffff1660e01b8152600401808273ffffffffffffffffffffffffffffffffffffffff1673ffffffffffffffffffffffffffffffffffffffff16815260200191505060206040518083038186803b158015611a3757600080fd5b505afa158015611a4b573d6000803e3d6000fd5b505050506040513d6020811015611a6157600080fd5b8101908080519060200190929190505050611a7b57600080fd5b80600660008773ffffffffffffffffffffffffffffffffffffffff1673ffffffffffffffffffffffffffffffffffffffff16815260200190815260200160002060008673ffffffffffffffffffffffffffffffffffffffff1673ffffffffffffffffffffffffffffffffffffffff16815260200190815260200160002060006101000a81548173ffffffffffffffffffffffffffffffffffffffff021916908373ffffffffffffffffffffffffffffffffffffffff1602179055505050505050565b600060149054906101000a900460ff1681565b60036020528060005260406000206000915054906101000a900473ffffffffffffffffffffffffffffffffffffffff1681565b60046020528160005260406000206020528060005260406000206000915091509054906101000a900467ffffffffffffffff1681565b60026020528060005260406000206000915054906101000a900460ff1681565b60016020528060005260406000206000915054906101000a900460ff1681565b60066020528160005260406000206020528060005260406000206000915091509054906101000a900473ffffffffffffffffffffffffffffffffffffffff1681565b6000809054906101000a900473ffffffffffffffffffffffffffffffffffffffff1673ffffffffffffffffffffffffffffffffffffffff163373ffffffffffffffffffffffffffffffffffffffff1614611cfd576040517f08c379a000000000000000000000000000000000000000000000000000000000815260040180806020018281038252600a8152602001807f6f6e6c79206f776e65720000000000000000000000000000000000000000000081525060200191505060405180910390fd5b80600060156101000a81548160ff02191690831515021790555050565b6000809054906101000a900473ffffffffffffffffffffffffffffffffffffffff1673ffffffffffffffffffffffffffffffffffffffff163373ffffffffffffffffffffffffffffffffffffffff1614611ddc576040517f08c379a000000000000000000000000000000000000000000000000000000000815260040180806020018281038252600a8152602001807f6f6e6c79206f776e65720000000000000000000000000000000000000000000081525060200191505060405180910390fd5b600073ffffffffffffffffffffffffffffffffffffffff168173ffffffffffffffffffffffffffffffffffffffff1614611e5157806000806101000a81548173ffffffffffffffffffffffffffffffffffffffff021916908373ffffffffffffffffffffffffffffffffffffffff1602179055505b5056fea2646970667358221220d6e437a95527f09d88b4b38038d20e187a111f335f0ebbb8c6861630801893f064736f6c63430006080033",
  "immutableReferences": {
    "5748": [
      {
        "length": 32,
        "start": 2992
      }
    ]
  },
  "source": "// SPDX-License-Identifier: MIT\npragma solidity >=0.6.8 <0.7.0;\nimport \"./helpers/Ownable.sol\";\nimport \"./interfaces/IWrapper.sol\";\nimport \"./interfaces/IInfoOracle.sol\";\nimport \"./interfaces/IFixCapitalPool.sol\";\nimport \"./libraries/SafeMath.sol\";\nimport \"./libraries/ABDKMath64x64.sol\";\nimport \"./libraries/BigMath.sol\";\n\ncontract InfoOracle is IInfoOracle, Ownable {\n\n\tusing ABDKMath64x64 for int128;\n\tusing SafeMath for uint256;\n\n\tuint16 constant totalBasisPoints = 10_000;\n\n\tuint private constant SecondsPerYear = 31556926;\n\n\t// 1.0 in 64.64 format\n\tint128 private constant ABDK_1 = 1<<64;\n\n\tuint8 public override MinimumOrderbookFee; //denominated in bips\n\n\tbool public override TreasuryFeeIsCollected;\n\n\taddress public immutable override sendTo;\n\n\tmapping(address => uint8) public override WrapperOrderbookFeeBips;\n\n\tmapping(address => uint8) public override FCPOrderbookFeeBips;\n\n\tmapping(address => address) public override DelegatedControllers;\n\n\tmapping(address => mapping(address => uint64)) public override StabilityFeeAPR;\n\n\t/*\n\t\tVaultFactory => collateralAsset => (collateralAsset is IWrapper ? underlyingAsset : address(1) )\n\t*/\n\tmapping(address => mapping(address => address)) public override collateralWhitelist;\n\n\t/*\t\n\t\tVaultFactory => FCPaddress => wrapperAddress\n\t\tacts as FCP whitelist, if FCP is not listed in here it is not whitelisted\n\t*/\n\tmapping(address => mapping(address => address)) public override FCPtoWrapper;\n\n\t/*\n\t\tinit\n\t*/\n\tconstructor(\n\t\taddress _sendTo,\n\t\tbool _TreasuryFeeIsCollected\n\t) public {\n\t\tsendTo = _sendTo;\n\t\tTreasuryFeeIsCollected = _TreasuryFeeIsCollected;\n\t}\n\n\t/*\n\t\t@Description: ensure that msg.sender is either owner of contract for which to set params\n\t\t\tor msg.sender is delegated to set the params\n\n\t\t@param address _contractAddr: the contract for which to set params\n\t*/\n\tmodifier maySetContractParameters(address _contractAddr) {\n\t\taddress contractOwner = Ownable(_contractAddr).owner();\n\t\tif (msg.sender != contractOwner) {\n\t\t\taddress delegatedController = DelegatedControllers[_contractAddr];\n\t\t\trequire(msg.sender == delegatedController);\n\t\t}\n\t\t_;\n\t}\n\n\n\t/*\n\t\t@Description: delegate ability to customise parameters for wrappers and FCPs to another address\n\n\t\t@param address _contract: the contract for which custom parameters may be set\n\t\t@param address _manager: the address that shall customise parameters for the contract\n\t*/\n\tfunction setDelegatedController(address _contract, address _manager) external override {\n\t\trequire(Ownable(_contract).owner() == msg.sender);\n\t\tDelegatedControllers[_contract] = _manager;\n\t}\n\n\t/*\n\t\t@Description: set the default spread in bips that will be taken from orderbook trades on orderbooks for FCPs on a specific wrapper asset\n\n\t\t@param address _wrapper: the address of the wrapper contract for which to set the default orderbook fee\n\t\t@param uint8 _orderbookFeeBips: the amount of basis points that will be charged on every orderbook trade,\n\t\t\tinflated by 1 bip\n\t\t\tif _orderbookFeeBips is 0 this means that no general wrapper fee will be taken into account\n\t*/\n\tfunction wrapperSetOrderbookFeeConstant(address _wrapper, uint8 _orderbookFeeBips) external override maySetContractParameters(_wrapper) {\n\t\tWrapperOrderbookFeeBips[_wrapper] = _orderbookFeeBips;\n\t}\n\n\t/*\n\t\t@Description: set spread in bips that will be taken from orderbook trades on the orderbook for a specific FCP contract\n\n\t\t@param address _fixCapitalPoolAddress: the address of the FCP for which to set the specific orderbook fee constant\n\t\t@param uint8 _orderbookFeeBips: the amount of basis points that will be charged on every orderbook trade\n\t\t\tinflated by 1 bip\n\t\t\tif _orderbookFeeBips is 0 this means that no specific fee will be taken into account\n\t*/\n\tfunction setOrderbookFeeConstant(address _fixCapitalPoolAddress, uint8 _orderbookFeeBips) external override maySetContractParameters(_fixCapitalPoolAddress) {\n\t\tFCPOrderbookFeeBips[_fixCapitalPoolAddress] = _orderbookFeeBips;\n\t}\n\n\t/*\n\t\t@Description: set the desired stability fee of a VaultFactory for a specific wrapper asset\n\n\t\t@param address _vaultFactoryAddress: the address of the VaultFactory for which to set the stability fee\n\t\t@param address _wrapperAsset: the address of the IWrapper contract for which to set the desired stability fee\n\t\t@param uint64 _stabilityFeeAPR: the new stability fee for the wrapper asset\n\t*/\n\tfunction setStabilityFeeAPR(address _vaultFactoryAddress, address _wrapperAsset, uint64 _stabilityFeeAPR) external override maySetContractParameters(_vaultFactoryAddress) {\n\t\tStabilityFeeAPR[_vaultFactoryAddress][_wrapperAsset] = _stabilityFeeAPR;\n\t}\n\n\t/*\n\t\t@Description: admin of a DBSFVaultFactory may call this function to allow usage of a IWrapper asset as collateral\n\n\t\t@param address _vaultFactoryAddress: the address of the DBSFVaultFactory for which to allow the IWrapper as collateral\n\t\t@param address _wrapperAddress: the address of the IWrapper to add as collateral\n\t*/\n\tfunction whitelistWrapper(address _vaultFactoryAddress, address _wrapperAddress) external override maySetContractParameters(_vaultFactoryAddress) {\n\t\trequire(IWrapper(_wrapperAddress).isDistributionAccount(_vaultFactoryAddress));\n\t\tcollateralWhitelist[_vaultFactoryAddress][_wrapperAddress] = IWrapper(_wrapperAddress).underlyingAssetAddress();\n\t}\n\n\t/*\n\t\t@Description: admin of a DBSFVaultFactory may call this function to allow usage of a non IWrapper asset as collateral\n\n\t\t@param address _vaultFactoryAddress: the address of the DBSFVaultFactory for which to allow the non IWrapper as collateral\n\t\t@param address _assetAddress: the address of the non IWrapper asset to add as collateral\n\t*/\n\tfunction whitelistAsset(address _vaultFactoryAddress, address _assetAddress) external override maySetContractParameters(_vaultFactoryAddress) {\n\t\tcollateralWhitelist[_vaultFactoryAddress][_assetAddress] = address(1);\n\t}\n\n\t/*\n\t\t@Description: admin of a DBSFVaultFactory may call this function to whitelist an FCP to be used as collateral\n\n\t\t@param address _vaultFactoryAddress: the address of the DBSFVaultFactory for which to allow the FCP as collateral\n\t\t@param address _FCPaddress: the address of the FCP which to add as collateral\n\t*/\n\tfunction whitelistFixCapitalPool(address _vaultFactoryAddress, address _FCPaddress) external override maySetContractParameters(_vaultFactoryAddress) {\n\t\tIWrapper wrapper = IFixCapitalPool(_FCPaddress).wrapper();\n\t\trequire(wrapper.isDistributionAccount(_vaultFactoryAddress));\n\t\tFCPtoWrapper[_vaultFactoryAddress][_FCPaddress] = address(wrapper);\n\t}\n\n\t//--------------------------------------------v-i-e-w-s------------------------------\n\n\t/*\n\t\t@Description: given a FCP return its corresponding orderbook fee, in basis points\n\t\t\tif there is a specific fee for the FCP get that,\n\t\t\totherwise get the default fee constant for the wrapper that the FCP is associated with\n\t\t\tonce the specific or default fee has been found if it is less than the minimum orderbook fee\n\t\t\tincrease it to the minimum orderbook fee\n\n\t\t@param address _fixCapitalPoolAddress: corresponds to the FCP contract for which to find the Orderbook fee\n\n\t\t@return uint8 FeeBips: the Orderbook fee in basis points corresponding to the FCP contract\n\t*/\n\tfunction getOrderbookFeeBips(address _fixCapitalPoolAddress) external view override returns (uint8 FeeBips) {\n\t\tFeeBips = FCPOrderbookFeeBips[_fixCapitalPoolAddress];\n\t\tif (FeeBips == 0) {\n\t\t\tFeeBips = WrapperOrderbookFeeBips[address(IFixCapitalPool(_fixCapitalPoolAddress).wrapper())];\n\t\t}\n\t\tif (FeeBips != 0) {\n\t\t\tFeeBips--;\n\t\t}\n\t\tuint8 _minimumOrderbookFee = MinimumOrderbookFee;\n\t\tFeeBips = FeeBips < _minimumOrderbookFee ? _minimumOrderbookFee : FeeBips;\n\t}\n\n\t//-----------------------I-n-f-o-O-r-a-c-l-e---a-d-m-i-n-----------------------------\n\n\t/*\n\t\t@Description: set the floor on the orderbook fee\n\n\t\t@param uint8 _minimumOrderbookFee: the minimum orderbook fee in bips\n\t*/\n\tfunction setMinimumOrderbookFee(uint8 _minimumOrderbookFee) external override onlyOwner {\n\t\tMinimumOrderbookFee = _minimumOrderbookFee;\n\t}\n\n\t/*\n\t\t@Description: amin may set whether or not the treasury fee shall be collected\n\n\t\t@param bool _TreasuryFeeIsCollected: the new value that TreasuryFeeIsCollected shall be set to\n\t*/\n\tfunction setTreasuryFeeIsCollected(bool _TreasuryFeeIsCollected) external override onlyOwner {\n\t\tTreasuryFeeIsCollected = _TreasuryFeeIsCollected;\n\t}\n}",
  "sourcePath": "/home/asher/FixFinanceV1/contracts/InfoOracle.sol",
  "compiler": {
    "name": "solc",
    "version": "0.6.8+commit.0bbfe453.Emscripten.clang"
  },
  "schemaVersion": "3.4.1",
  "updatedAt": "2021-11-26T19:15:54.948Z",
  "devdoc": {
    "methods": {}
  },
  "userdoc": {
    "methods": {}
  }
}