{
  "contractName": "NGBwrapperDelegate3",
  "abi": [
    {
      "anonymous": false,
      "inputs": [
        {
          "indexed": true,
          "internalType": "address",
          "name": "from",
          "type": "address"
        },
        {
          "indexed": false,
          "internalType": "uint256",
          "name": "wrappedAmount",
          "type": "uint256"
        },
        {
          "indexed": false,
          "internalType": "uint256",
          "name": "feeAmount",
          "type": "uint256"
        }
      ],
      "name": "FlashBurn",
      "type": "event"
    },
    {
      "anonymous": false,
      "inputs": [
        {
          "indexed": true,
          "internalType": "address",
          "name": "to",
          "type": "address"
        },
        {
          "indexed": false,
          "internalType": "uint256",
          "name": "wrappedAmount",
          "type": "uint256"
        }
      ],
      "name": "FlashMint",
      "type": "event"
    },
    {
      "inputs": [],
      "name": "owner",
      "outputs": [
        {
          "internalType": "address",
          "name": "",
          "type": "address"
        }
      ],
      "stateMutability": "view",
      "type": "function"
    },
    {
      "inputs": [
        {
          "internalType": "address",
          "name": "newOwner",
          "type": "address"
        }
      ],
      "name": "transferOwnership",
      "outputs": [],
      "stateMutability": "nonpayable",
      "type": "function"
    },
    {
      "inputs": [
        {
          "internalType": "bool",
          "name": "_inPayoutPhase",
          "type": "bool"
        },
        {
          "internalType": "bool",
          "name": "_claimRewards",
          "type": "bool"
        },
        {
          "internalType": "address[2]",
          "name": "_subAccts",
          "type": "address[2]"
        },
        {
          "internalType": "uint256[2]",
          "name": "_yieldArr",
          "type": "uint256[2]"
        },
        {
          "internalType": "uint256[2]",
          "name": "_wrappedClaims",
          "type": "uint256[2]"
        }
      ],
      "name": "FCPDirectDoubleClaimSubAccountRewards",
      "outputs": [],
      "stateMutability": "nonpayable",
      "type": "function"
    },
    {
      "inputs": [
        {
          "internalType": "address",
          "name": "_to",
          "type": "address"
        },
        {
          "internalType": "uint256",
          "name": "_value",
          "type": "uint256"
        }
      ],
      "name": "transfer",
      "outputs": [],
      "stateMutability": "nonpayable",
      "type": "function"
    },
    {
      "inputs": [
        {
          "internalType": "address",
          "name": "_from",
          "type": "address"
        },
        {
          "internalType": "address",
          "name": "_to",
          "type": "address"
        },
        {
          "internalType": "uint256",
          "name": "_value",
          "type": "uint256"
        }
      ],
      "name": "transferFrom",
      "outputs": [],
      "stateMutability": "nonpayable",
      "type": "function"
    },
    {
      "inputs": [
        {
          "internalType": "address",
          "name": "_rewardsAsset",
          "type": "address"
        }
      ],
      "name": "addRewardAsset",
      "outputs": [],
      "stateMutability": "nonpayable",
      "type": "function"
    },
    {
      "inputs": [
        {
          "internalType": "uint256",
          "name": "_index",
          "type": "uint256"
        }
      ],
      "name": "deactivateRewardAsset",
      "outputs": [],
      "stateMutability": "nonpayable",
      "type": "function"
    }
  ],
  "bytecode": "0x60806040526103e8600155620f3e58600260006101000a81548163ffffffff021916908363ffffffff16021790555034801561003a57600080fd5b5033600060016101000a81548173ffffffffffffffffffffffffffffffffffffffff021916908373ffffffffffffffffffffffffffffffffffffffff160217905550614e668061008b6000396000f3fe608060405234801561001057600080fd5b506004361061007d5760003560e01c80638da5cb5b1161005b5780638da5cb5b14610162578063a9059cbb146101ac578063e77668df146101fa578063f2fde38b146102555761007d565b806323b872dd146100825780632e3f4eab146100f0578063645b00bd14610134575b600080fd5b6100ee6004803603606081101561009857600080fd5b81019080803573ffffffffffffffffffffffffffffffffffffffff169060200190929190803573ffffffffffffffffffffffffffffffffffffffff16906020019092919080359060200190929190505050610299565b005b6101326004803603602081101561010657600080fd5b81019080803573ffffffffffffffffffffffffffffffffffffffff16906020019092919050505061096f565b005b6101606004803603602081101561014a57600080fd5b8101908080359060200190929190505050610ef1565b005b61016a611325565b604051808273ffffffffffffffffffffffffffffffffffffffff1673ffffffffffffffffffffffffffffffffffffffff16815260200191505060405180910390f35b6101f8600480360360408110156101c257600080fd5b81019080803573ffffffffffffffffffffffffffffffffffffffff1690602001909291908035906020019092919050505061134b565b005b610253600480360361010081101561021157600080fd5b810190808035151590602001909291908035151590602001909291908060400190919291929080604001909192919290806040019091929192905050506116e7565b005b6102976004803603602081101561026b57600080fd5b81019080803573ffffffffffffffffffffffffffffffffffffffff169060200190929190505050612863565b005b81836000600b80549050905060008114156104ad57600860008773ffffffffffffffffffffffffffffffffffffffff1673ffffffffffffffffffffffffffffffffffffffff16815260200190815260200160002060003373ffffffffffffffffffffffffffffffffffffffff1673ffffffffffffffffffffffffffffffffffffffff1681526020019081526020016000205484111561033757600080fd5b600760008773ffffffffffffffffffffffffffffffffffffffff1673ffffffffffffffffffffffffffffffffffffffff1681526020019081526020016000205484111561038357600080fd5b83600760008873ffffffffffffffffffffffffffffffffffffffff1673ffffffffffffffffffffffffffffffffffffffff1681526020019081526020016000206000828254039250508190555083600760008773ffffffffffffffffffffffffffffffffffffffff1673ffffffffffffffffffffffffffffffffffffffff1681526020019081526020016000206000828254019250508190555083600860008873ffffffffffffffffffffffffffffffffffffffff1673ffffffffffffffffffffffffffffffffffffffff16815260200190815260200160002060003373ffffffffffffffffffffffffffffffffffffffff1673ffffffffffffffffffffffffffffffffffffffff1681526020019081526020016000206000828254039250508190555050610968565b60ff801681116104bd57806104c2565b60ff80165b90506000600654905060008114156106d457600860008873ffffffffffffffffffffffffffffffffffffffff1673ffffffffffffffffffffffffffffffffffffffff16815260200190815260200160002060003373ffffffffffffffffffffffffffffffffffffffff1673ffffffffffffffffffffffffffffffffffffffff1681526020019081526020016000205485111561055d57600080fd5b600760008873ffffffffffffffffffffffffffffffffffffffff1673ffffffffffffffffffffffffffffffffffffffff168152602001908152602001600020548511156105a957600080fd5b84600760008973ffffffffffffffffffffffffffffffffffffffff1673ffffffffffffffffffffffffffffffffffffffff1681526020019081526020016000206000828254039250508190555084600760008873ffffffffffffffffffffffffffffffffffffffff1673ffffffffffffffffffffffffffffffffffffffff1681526020019081526020016000206000828254019250508190555084600860008973ffffffffffffffffffffffffffffffffffffffff1673ffffffffffffffffffffffffffffffffffffffff16815260200190815260200160002060003373ffffffffffffffffffffffffffffffffffffffff1673ffffffffffffffffffffffffffffffffffffffff168152602001908152602001600020600082825403925050819055505050610968565b6000600760008673ffffffffffffffffffffffffffffffffffffffff1673ffffffffffffffffffffffffffffffffffffffff1681526020019081526020016000205490506000600760008673ffffffffffffffffffffffffffffffffffffffff1673ffffffffffffffffffffffffffffffffffffffff16815260200190815260200160002054905061076a86868686868661299f565b600860008a73ffffffffffffffffffffffffffffffffffffffff1673ffffffffffffffffffffffffffffffffffffffff16815260200190815260200160002060003373ffffffffffffffffffffffffffffffffffffffff1673ffffffffffffffffffffffffffffffffffffffff168152602001908152602001600020548711156107f357600080fd5b600760008a73ffffffffffffffffffffffffffffffffffffffff1673ffffffffffffffffffffffffffffffffffffffff1681526020019081526020016000205487111561083f57600080fd5b86600760008b73ffffffffffffffffffffffffffffffffffffffff1673ffffffffffffffffffffffffffffffffffffffff1681526020019081526020016000206000828254039250508190555086600760008a73ffffffffffffffffffffffffffffffffffffffff1673ffffffffffffffffffffffffffffffffffffffff1681526020019081526020016000206000828254019250508190555086600860008b73ffffffffffffffffffffffffffffffffffffffff1673ffffffffffffffffffffffffffffffffffffffff16815260200190815260200160002060003373ffffffffffffffffffffffffffffffffffffffff1673ffffffffffffffffffffffffffffffffffffffff16815260200190815260200160002060008282540392505081905550505050505b5050505050565b600060019054906101000a900473ffffffffffffffffffffffffffffffffffffffff1673ffffffffffffffffffffffffffffffffffffffff163373ffffffffffffffffffffffffffffffffffffffff1614610a32576040517f08c379a000000000000000000000000000000000000000000000000000000000815260040180806020018281038252600a8152602001807f6f6e6c79206f776e65720000000000000000000000000000000000000000000081525060200191505060405180910390fd5b6000600b80549050905060008090505b818160ff161015610acd578273ffffffffffffffffffffffffffffffffffffffff16600c8260ff1681548110610a7457fe5b9060005260206000200160009054906101000a900473ffffffffffffffffffffffffffffffffffffffff1673ffffffffffffffffffffffffffffffffffffffff161415610ac057600080fd5b8080600101915050610a42565b50600b829080600181540180825580915050600190039060005260206000200160009091909190916101000a81548173ffffffffffffffffffffffffffffffffffffffff021916908373ffffffffffffffffffffffffffffffffffffffff160217905550600c829080600181540180825580915050600190039060005260206000200160009091909190916101000a81548173ffffffffffffffffffffffffffffffffffffffff021916908373ffffffffffffffffffffffffffffffffffffffff160217905550600d60009080600181540180825580915050600190039060005260206000200160009091909190915055600e60009080600181540180825580915050600190039060005260206000200160009091909190915055600f6000908060018154018082558091505060019003906000526020600020016000909190919091505560106001816001815401808255809150500390600052602060002050506011600181600181540180825580915050039060005260206000205050601560018160018154018082558091505003906000526020600020505060008273ffffffffffffffffffffffffffffffffffffffff166370a08231306040518263ffffffff1660e01b8152600401808273ffffffffffffffffffffffffffffffffffffffff1673ffffffffffffffffffffffffffffffffffffffff16815260200191505060206040518083038186803b158015610ce857600080fd5b505afa158015610cfc573d6000803e3d6000fd5b505050506040513d6020811015610d1257600080fd5b810190808051906020019092919050505090506000600460019054906101000a900473ffffffffffffffffffffffffffffffffffffffff1690508073ffffffffffffffffffffffffffffffffffffffff16637348c8576040518163ffffffff1660e01b815260040160206040518083038186803b158015610d9257600080fd5b505afa158015610da6573d6000803e3d6000fd5b505050506040513d6020811015610dbc57600080fd5b810190808051906020019092919050505015610ebf5760008173ffffffffffffffffffffffffffffffffffffffff1663489e09516040518163ffffffff1660e01b815260040160206040518083038186803b158015610e1a57600080fd5b505afa158015610e2e573d6000803e3d6000fd5b505050506040513d6020811015610e4457600080fd5b810190808051906020019092919050505090506000600184901c9050610e8b33828873ffffffffffffffffffffffffffffffffffffffff1661310c9092919063ffffffff16565b610eb8828286038873ffffffffffffffffffffffffffffffffffffffff1661310c9092919063ffffffff16565b5050610eeb565b610eea33838673ffffffffffffffffffffffffffffffffffffffff1661310c9092919063ffffffff16565b5b50505050565b600060019054906101000a900473ffffffffffffffffffffffffffffffffffffffff1673ffffffffffffffffffffffffffffffffffffffff163373ffffffffffffffffffffffffffffffffffffffff1614610fb4576040517f08c379a000000000000000000000000000000000000000000000000000000000815260040180806020018281038252600a8152602001807f6f6e6c79206f776e65720000000000000000000000000000000000000000000081525060200191505060405180910390fd5b6000600b805490509050808210610fca57600080fd5b6000600b8381548110610fd957fe5b9060005260206000200160006101000a81548173ffffffffffffffffffffffffffffffffffffffff021916908373ffffffffffffffffffffffffffffffffffffffff1602179055506000600c838154811061103057fe5b9060005260206000200160009054906101000a900473ffffffffffffffffffffffffffffffffffffffff16905060008173ffffffffffffffffffffffffffffffffffffffff166370a08231306040518263ffffffff1660e01b8152600401808273ffffffffffffffffffffffffffffffffffffffff1673ffffffffffffffffffffffffffffffffffffffff16815260200191505060206040518083038186803b1580156110dc57600080fd5b505afa1580156110f0573d6000803e3d6000fd5b505050506040513d602081101561110657600080fd5b810190808051906020019092919050505090506000600460019054906101000a900473ffffffffffffffffffffffffffffffffffffffff1690508073ffffffffffffffffffffffffffffffffffffffff16637348c8576040518163ffffffff1660e01b815260040160206040518083038186803b15801561118657600080fd5b505afa15801561119a573d6000803e3d6000fd5b505050506040513d60208110156111b057600080fd5b8101908080519060200190929190505050156112d5576000600460019054906101000a900473ffffffffffffffffffffffffffffffffffffffff1673ffffffffffffffffffffffffffffffffffffffff1663489e09516040518163ffffffff1660e01b815260040160206040518083038186803b15801561123057600080fd5b505afa158015611244573d6000803e3d6000fd5b505050506040513d602081101561125a57600080fd5b810190808051906020019092919050505090506000600184901c90506112a133828773ffffffffffffffffffffffffffffffffffffffff1661310c9092919063ffffffff16565b6112ce828286038773ffffffffffffffffffffffffffffffffffffffff1661310c9092919063ffffffff16565b5050611301565b61130033838573ffffffffffffffffffffffffffffffffffffffff1661310c9092919063ffffffff16565b5b6000600d868154811061131057fe5b90600052602060002001819055505050505050565b600060019054906101000a900473ffffffffffffffffffffffffffffffffffffffff1681565b81336000600b805490509050600081141561144c57600760003373ffffffffffffffffffffffffffffffffffffffff1673ffffffffffffffffffffffffffffffffffffffff168152602001908152602001600020548411156113ac57600080fd5b83600760003373ffffffffffffffffffffffffffffffffffffffff1673ffffffffffffffffffffffffffffffffffffffff1681526020019081526020016000206000828254039250508190555083600760008773ffffffffffffffffffffffffffffffffffffffff1673ffffffffffffffffffffffffffffffffffffffff16815260200190815260200160002060008282540192505081905550506116e1565b60ff8016811161145c5780611461565b60ff80165b905060006006549050600081141561156057600760003373ffffffffffffffffffffffffffffffffffffffff1673ffffffffffffffffffffffffffffffffffffffff168152602001908152602001600020548511156114bf57600080fd5b84600760003373ffffffffffffffffffffffffffffffffffffffff1673ffffffffffffffffffffffffffffffffffffffff1681526020019081526020016000206000828254039250508190555084600760008873ffffffffffffffffffffffffffffffffffffffff1673ffffffffffffffffffffffffffffffffffffffff1681526020019081526020016000206000828254019250508190555050506116e1565b6000600760008673ffffffffffffffffffffffffffffffffffffffff1673ffffffffffffffffffffffffffffffffffffffff1681526020019081526020016000205490506000600760008673ffffffffffffffffffffffffffffffffffffffff1673ffffffffffffffffffffffffffffffffffffffff1681526020019081526020016000205490506115f686868686868661299f565b600760003373ffffffffffffffffffffffffffffffffffffffff1673ffffffffffffffffffffffffffffffffffffffff1681526020019081526020016000205487111561164257600080fd5b86600760003373ffffffffffffffffffffffffffffffffffffffff1673ffffffffffffffffffffffffffffffffffffffff1681526020019081526020016000206000828254039250508190555086600760008a73ffffffffffffffffffffffffffffffffffffffff1673ffffffffffffffffffffffffffffffffffffffff16815260200190815260200160002060008282540192505081905550505050505b50505050565b60008060009054906101000a900460ff1660ff161461170557600080fd5b60016000806101000a81548160ff021916908360ff160217905550833381611b4a576000600b8054905090506000811115611b445760ff8016811161174a578061174f565b60ff80165b90506000889050600081611764576000611768565b6180005b90508180156118625750601460003373ffffffffffffffffffffffffffffffffffffffff1673ffffffffffffffffffffffffffffffffffffffff1681526020019081526020016000206000896000600281106117c057fe5b602002013573ffffffffffffffffffffffffffffffffffffffff1673ffffffffffffffffffffffffffffffffffffffff1673ffffffffffffffffffffffffffffffffffffffff16815260200190815260200160002060003373ffffffffffffffffffffffffffffffffffffffff1673ffffffffffffffffffffffffffffffffffffffff16815260200190815260200160002060009054906101000a900460ff16155b61186d576000611871565b6140005b81179050601260008960006002811061188657fe5b602002013573ffffffffffffffffffffffffffffffffffffffff1673ffffffffffffffffffffffffffffffffffffffff1673ffffffffffffffffffffffffffffffffffffffff16815260200190815260200160002060009054906101000a900460ff166118f45760006118f8565b6120005b811790508180156119f45750601460003373ffffffffffffffffffffffffffffffffffffffff1673ffffffffffffffffffffffffffffffffffffffff16815260200190815260200160002060008960016002811061195257fe5b602002013573ffffffffffffffffffffffffffffffffffffffff1673ffffffffffffffffffffffffffffffffffffffff1673ffffffffffffffffffffffffffffffffffffffff16815260200190815260200160002060003373ffffffffffffffffffffffffffffffffffffffff1673ffffffffffffffffffffffffffffffffffffffff16815260200190815260200160002060009054906101000a900460ff16155b6119ff576000611a03565b6110005b811790506012600089600160028110611a1857fe5b602002013573ffffffffffffffffffffffffffffffffffffffff1673ffffffffffffffffffffffffffffffffffffffff1673ffffffffffffffffffffffffffffffffffffffff16815260200190815260200160002060009054906101000a900460ff16611a86576000611a8a565b6108005b81179050611b4183338a6002806020026040519081016040528092919082600260200280828437600081840152601f19601f8201169050808301925050505050508a6002806020026040519081016040528092919082600260200280828437600081840152601f19601f8201169050808301925050505050508a6002806020026040519081016040528092919082600260200280828437600081840152601f19601f820116905080830192505050505050866131c4565b50505b5061283f565b6000600b8054905090506000811415611f81576000600b8054905090506000811115611f7a5760ff80168111611b805780611b85565b60ff80165b90506000899050600081611b9a576000611b9e565b6180005b9050818015611c985750601460003373ffffffffffffffffffffffffffffffffffffffff1673ffffffffffffffffffffffffffffffffffffffff16815260200190815260200160002060008a600060028110611bf657fe5b602002013573ffffffffffffffffffffffffffffffffffffffff1673ffffffffffffffffffffffffffffffffffffffff1673ffffffffffffffffffffffffffffffffffffffff16815260200190815260200160002060003373ffffffffffffffffffffffffffffffffffffffff1673ffffffffffffffffffffffffffffffffffffffff16815260200190815260200160002060009054906101000a900460ff16155b611ca3576000611ca7565b6140005b81179050601260008a600060028110611cbc57fe5b602002013573ffffffffffffffffffffffffffffffffffffffff1673ffffffffffffffffffffffffffffffffffffffff1673ffffffffffffffffffffffffffffffffffffffff16815260200190815260200160002060009054906101000a900460ff16611d2a576000611d2e565b6120005b81179050818015611e2a5750601460003373ffffffffffffffffffffffffffffffffffffffff1673ffffffffffffffffffffffffffffffffffffffff16815260200190815260200160002060008a600160028110611d8857fe5b602002013573ffffffffffffffffffffffffffffffffffffffff1673ffffffffffffffffffffffffffffffffffffffff1673ffffffffffffffffffffffffffffffffffffffff16815260200190815260200160002060003373ffffffffffffffffffffffffffffffffffffffff1673ffffffffffffffffffffffffffffffffffffffff16815260200190815260200160002060009054906101000a900460ff16155b611e35576000611e39565b6110005b81179050601260008a600160028110611e4e57fe5b602002013573ffffffffffffffffffffffffffffffffffffffff1673ffffffffffffffffffffffffffffffffffffffff1673ffffffffffffffffffffffffffffffffffffffff16815260200190815260200160002060009054906101000a900460ff16611ebc576000611ec0565b6108005b81179050611f7783338b6002806020026040519081016040528092919082600260200280828437600081840152601f19601f8201169050808301925050505050508b6002806020026040519081016040528092919082600260200280828437600081840152601f19601f8201169050808301925050505050508b6002806020026040519081016040528092919082600260200280828437600081840152601f19601f820116905080830192505050505050866131c4565b50505b505061283f565b60ff80168111611f915780611f96565b60ff80165b90506000600654905060008114156123cd576000600b80549050905060008111156123c55760ff80168111611fcb5780611fd0565b60ff80165b905060008a9050600081611fe5576000611fe9565b6180005b90508180156120e35750601460003373ffffffffffffffffffffffffffffffffffffffff1673ffffffffffffffffffffffffffffffffffffffff16815260200190815260200160002060008b60006002811061204157fe5b602002013573ffffffffffffffffffffffffffffffffffffffff1673ffffffffffffffffffffffffffffffffffffffff1673ffffffffffffffffffffffffffffffffffffffff16815260200190815260200160002060003373ffffffffffffffffffffffffffffffffffffffff1673ffffffffffffffffffffffffffffffffffffffff16815260200190815260200160002060009054906101000a900460ff16155b6120ee5760006120f2565b6140005b81179050601260008b60006002811061210757fe5b602002013573ffffffffffffffffffffffffffffffffffffffff1673ffffffffffffffffffffffffffffffffffffffff1673ffffffffffffffffffffffffffffffffffffffff16815260200190815260200160002060009054906101000a900460ff16612175576000612179565b6120005b811790508180156122755750601460003373ffffffffffffffffffffffffffffffffffffffff1673ffffffffffffffffffffffffffffffffffffffff16815260200190815260200160002060008b6001600281106121d357fe5b602002013573ffffffffffffffffffffffffffffffffffffffff1673ffffffffffffffffffffffffffffffffffffffff1673ffffffffffffffffffffffffffffffffffffffff16815260200190815260200160002060003373ffffffffffffffffffffffffffffffffffffffff1673ffffffffffffffffffffffffffffffffffffffff16815260200190815260200160002060009054906101000a900460ff16155b612280576000612284565b6110005b81179050601260008b60016002811061229957fe5b602002013573ffffffffffffffffffffffffffffffffffffffff1673ffffffffffffffffffffffffffffffffffffffff1673ffffffffffffffffffffffffffffffffffffffff16815260200190815260200160002060009054906101000a900460ff1661230757600061230b565b6108005b811790506123c283338c6002806020026040519081016040528092919082600260200280828437600081840152601f19601f8201169050808301925050505050508c6002806020026040519081016040528092919082600260200280828437600081840152601f19601f8201169050808301925050505050508c6002806020026040519081016040528092919082600260200280828437600081840152601f19601f820116905080830192505050505050866131c4565b50505b50505061283f565b6000600760008573ffffffffffffffffffffffffffffffffffffffff1673ffffffffffffffffffffffffffffffffffffffff16815260200190815260200160002054905061241d84848484614234565b6000600b805490509050600081111561283a5760ff801681116124405780612445565b60ff80165b905060008b905060008161245a57600061245e565b6180005b90508180156125585750601460003373ffffffffffffffffffffffffffffffffffffffff1673ffffffffffffffffffffffffffffffffffffffff16815260200190815260200160002060008c6000600281106124b657fe5b602002013573ffffffffffffffffffffffffffffffffffffffff1673ffffffffffffffffffffffffffffffffffffffff1673ffffffffffffffffffffffffffffffffffffffff16815260200190815260200160002060003373ffffffffffffffffffffffffffffffffffffffff1673ffffffffffffffffffffffffffffffffffffffff16815260200190815260200160002060009054906101000a900460ff16155b612563576000612567565b6140005b81179050601260008c60006002811061257c57fe5b602002013573ffffffffffffffffffffffffffffffffffffffff1673ffffffffffffffffffffffffffffffffffffffff1673ffffffffffffffffffffffffffffffffffffffff16815260200190815260200160002060009054906101000a900460ff166125ea5760006125ee565b6120005b811790508180156126ea5750601460003373ffffffffffffffffffffffffffffffffffffffff1673ffffffffffffffffffffffffffffffffffffffff16815260200190815260200160002060008c60016002811061264857fe5b602002013573ffffffffffffffffffffffffffffffffffffffff1673ffffffffffffffffffffffffffffffffffffffff1673ffffffffffffffffffffffffffffffffffffffff16815260200190815260200160002060003373ffffffffffffffffffffffffffffffffffffffff1673ffffffffffffffffffffffffffffffffffffffff16815260200190815260200160002060009054906101000a900460ff16155b6126f55760006126f9565b6110005b81179050601260008c60016002811061270e57fe5b602002013573ffffffffffffffffffffffffffffffffffffffff1673ffffffffffffffffffffffffffffffffffffffff1673ffffffffffffffffffffffffffffffffffffffff16815260200190815260200160002060009054906101000a900460ff1661277c576000612780565b6108005b8117905061283783338d6002806020026040519081016040528092919082600260200280828437600081840152601f19601f8201169050808301925050505050508d6002806020026040519081016040528092919082600260200280828437600081840152601f19601f8201169050808301925050505050508d6002806020026040519081016040528092919082600260200280828437600081840152601f19601f820116905080830192505050505050866131c4565b50505b505050505b505060008060006101000a81548160ff021916908360ff1602179055505050505050565b600060019054906101000a900473ffffffffffffffffffffffffffffffffffffffff1673ffffffffffffffffffffffffffffffffffffffff163373ffffffffffffffffffffffffffffffffffffffff1614612926576040517f08c379a000000000000000000000000000000000000000000000000000000000815260040180806020018281038252600a8152602001807f6f6e6c79206f776e65720000000000000000000000000000000000000000000081525060200191505060405180910390fd5b600073ffffffffffffffffffffffffffffffffffffffff168173ffffffffffffffffffffffffffffffffffffffff161461299c5780600060016101000a81548173ffffffffffffffffffffffffffffffffffffffff021916908373ffffffffffffffffffffffffffffffffffffffff1602179055505b50565b6000601260008773ffffffffffffffffffffffffffffffffffffffff1673ffffffffffffffffffffffffffffffffffffffff16815260200190815260200160002060009054906101000a900460ff166129f95760006129fd565b6140005b601260008973ffffffffffffffffffffffffffffffffffffffff1673ffffffffffffffffffffffffffffffffffffffff16815260200190815260200160002060009054906101000a900460ff16612a55576000612a59565b6180005b1790505b848160ff161015613103576000600b8260ff1681548110612a7a57fe5b9060005260206000200160009054906101000a900473ffffffffffffffffffffffffffffffffffffffff169050600073ffffffffffffffffffffffffffffffffffffffff168173ffffffffffffffffffffffffffffffffffffffff161415612ae257506130f6565b6000808273ffffffffffffffffffffffffffffffffffffffff166370a08231306040518263ffffffff1660e01b8152600401808273ffffffffffffffffffffffffffffffffffffffff1673ffffffffffffffffffffffffffffffffffffffff16815260200191505060206040518083038186803b158015612b6257600080fd5b505afa158015612b76573d6000803e3d6000fd5b505050506040513d6020811015612b8c57600080fd5b810190808051906020019092919050505090506000600d8560ff1681548110612bb157fe5b906000526020600020015490506000612bff89612bf1670de0b6b3a7640000612be3868861470890919063ffffffff16565b61475290919063ffffffff16565b6147d890919063ffffffff16565b9050612c2e81600e8860ff1681548110612c1557fe5b906000526020600020015461482290919063ffffffff16565b93505050600060108560ff1681548110612c4457fe5b9060005260206000200160008c73ffffffffffffffffffffffffffffffffffffffff1673ffffffffffffffffffffffffffffffffffffffff1681526020019081526020016000205490506000600f8660ff1681548110612ca057fe5b90600052602060002001549050808211612cba5780612cbc565b815b9150600080905084831015612e7f576000670de0b6b3a7640000612ceb8b86890361475290919063ffffffff16565b81612cf257fe5b04905060008111915060008e90508660108a60ff1681548110612d1157fe5b9060005260206000200160008373ffffffffffffffffffffffffffffffffffffffff1673ffffffffffffffffffffffffffffffffffffffff168152602001908152602001600020819055506000600f8a61ffff16901c61ffff161115612e3b57612ddb8260118b60ff1681548110612d8557fe5b9060005260206000200160008473ffffffffffffffffffffffffffffffffffffffff1673ffffffffffffffffffffffffffffffffffffffff1681526020019081526020016000205461482290919063ffffffff16565b60118a60ff1681548110612deb57fe5b9060005260206000200160008373ffffffffffffffffffffffffffffffffffffffff1673ffffffffffffffffffffffffffffffffffffffff16815260200190815260200160002081905550612e7c565b612e6681838a73ffffffffffffffffffffffffffffffffffffffff1661310c9092919063ffffffff16565b612e79828761470890919063ffffffff16565b95505b50505b60108760ff1681548110612e8f57fe5b9060005260206000200160008d73ffffffffffffffffffffffffffffffffffffffff1673ffffffffffffffffffffffffffffffffffffffff168152602001908152602001600020549250818311612ee65781612ee8565b825b9250848310156130b1576000670de0b6b3a7640000612f128a86890361475290919063ffffffff16565b81612f1957fe5b0490508180612f285750600081115b915060008d90508660108a60ff1681548110612f4057fe5b9060005260206000200160008373ffffffffffffffffffffffffffffffffffffffff1673ffffffffffffffffffffffffffffffffffffffff168152602001908152602001600020819055506000600e8a61ffff16901c60011661ffff16111561306d5761300d8260118b60ff1681548110612fb757fe5b9060005260206000200160008473ffffffffffffffffffffffffffffffffffffffff1673ffffffffffffffffffffffffffffffffffffffff1681526020019081526020016000205461482290919063ffffffff16565b60118a60ff168154811061301d57fe5b9060005260206000200160008373ffffffffffffffffffffffffffffffffffffffff1673ffffffffffffffffffffffffffffffffffffffff168152602001908152602001600020819055506130ae565b61309881838a73ffffffffffffffffffffffffffffffffffffffff1661310c9092919063ffffffff16565b6130ab828761470890919063ffffffff16565b95505b50505b83600d8860ff16815481106130c257fe5b906000526020600020018190555084600e8860ff16815481106130e157fe5b90600052602060002001819055505050505050505b8080600101915050612a5d565b50505050505050565b6131bf8363a9059cbb60e01b8484604051602401808373ffffffffffffffffffffffffffffffffffffffff1673ffffffffffffffffffffffffffffffffffffffff16815260200182815260200192505050604051602081830303815290604052907bffffffffffffffffffffffffffffffffffffffffffffffffffffffff19166020820180517bffffffffffffffffffffffffffffffffffffffffffffffffffffffff83818316178352505050506148aa565b505050565b5b8560ff168160ff161015614042576000600b8260ff16815481106131e557fe5b9060005260206000200160009054906101000a900473ffffffffffffffffffffffffffffffffffffffff169050600073ffffffffffffffffffffffffffffffffffffffff168173ffffffffffffffffffffffffffffffffffffffff16141561324d5750614035565b6000600e8360ff168154811061325f57fe5b90600052602060002001549050600080615000851661ffff1611613284576000613314565b8773ffffffffffffffffffffffffffffffffffffffff1663f406f089856040518263ffffffff1660e01b8152600401808260ff16815260200191505060206040518083038186803b1580156132d857600080fd5b505afa1580156132ec573d6000803e3d6000fd5b505050506040513d602081101561330257600080fd5b81019080805190602001909291905050505b905060008060158660ff168154811061332957fe5b9060005260206000200160008b73ffffffffffffffffffffffffffffffffffffffff1673ffffffffffffffffffffffffffffffffffffffff16815260200190815260200160002060008a60006002811061337f57fe5b602002015173ffffffffffffffffffffffffffffffffffffffff1673ffffffffffffffffffffffffffffffffffffffff16815260200190815260200160002060008b73ffffffffffffffffffffffffffffffffffffffff1673ffffffffffffffffffffffffffffffffffffffff1681526020019081526020016000205490506000600f8760ff168154811061341057fe5b9060005260206000200154905080821161342a578061342c565b815b91506000614000881661ffff1611801561344557508381105b15613490578382101561348c57670de0b6b3a76400006134818a60006002811061346b57fe5b602002015184870361475290919063ffffffff16565b8161348857fe5b0492505b8391505b848210156135cf576134e1670de0b6b3a76400006134ca8a6000600281106134b457fe5b602002015185890361475290919063ffffffff16565b816134d157fe5b048461482290919063ffffffff16565b92508460158860ff16815481106134f457fe5b9060005260206000200160008d73ffffffffffffffffffffffffffffffffffffffff1673ffffffffffffffffffffffffffffffffffffffff16815260200190815260200160002060008c60006002811061354a57fe5b602002015173ffffffffffffffffffffffffffffffffffffffff1673ffffffffffffffffffffffffffffffffffffffff16815260200190815260200160002060008d73ffffffffffffffffffffffffffffffffffffffff1673ffffffffffffffffffffffffffffffffffffffff168152602001908152602001600020819055506136c9565b6000614000881661ffff1611156136c8578160158860ff16815481106135f157fe5b9060005260206000200160008d73ffffffffffffffffffffffffffffffffffffffff1673ffffffffffffffffffffffffffffffffffffffff16815260200190815260200160002060008c60006002811061364757fe5b602002015173ffffffffffffffffffffffffffffffffffffffff1673ffffffffffffffffffffffffffffffffffffffff16815260200190815260200160002060008d73ffffffffffffffffffffffffffffffffffffffff1673ffffffffffffffffffffffffffffffffffffffff168152602001908152602001600020819055505b5b60018311156139b1578280600190039350506137458360118960ff16815481106136ef57fe5b9060005260206000200160008e73ffffffffffffffffffffffffffffffffffffffff1673ffffffffffffffffffffffffffffffffffffffff1681526020019081526020016000205461470890919063ffffffff16565b60118860ff168154811061375557fe5b9060005260206000200160008d73ffffffffffffffffffffffffffffffffffffffff1673ffffffffffffffffffffffffffffffffffffffff168152602001908152602001600020819055506000612000881661ffff16111561389d5761382c8360118960ff16815481106137c557fe5b9060005260206000200160008d6000600281106137de57fe5b602002015173ffffffffffffffffffffffffffffffffffffffff1673ffffffffffffffffffffffffffffffffffffffff1681526020019081526020016000205461482290919063ffffffff16565b60118860ff168154811061383c57fe5b9060005260206000200160008c60006002811061385557fe5b602002015173ffffffffffffffffffffffffffffffffffffffff1673ffffffffffffffffffffffffffffffffffffffff168152602001908152602001600020819055506139b0565b6138d98a6000600281106138ad57fe5b6020020151848873ffffffffffffffffffffffffffffffffffffffff1661310c9092919063ffffffff16565b8573ffffffffffffffffffffffffffffffffffffffff166370a08231306040518263ffffffff1660e01b8152600401808273ffffffffffffffffffffffffffffffffffffffff1673ffffffffffffffffffffffffffffffffffffffff16815260200191505060206040518083038186803b15801561395657600080fd5b505afa15801561396a573d6000803e3d6000fd5b505050506040513d602081101561398057600080fd5b8101908080519060200190929190505050600d8860ff16815481106139a157fe5b90600052602060002001819055505b5b6000925060158760ff16815481106139c557fe5b9060005260206000200160008c73ffffffffffffffffffffffffffffffffffffffff1673ffffffffffffffffffffffffffffffffffffffff16815260200190815260200160002060008b600160028110613a1b57fe5b602002015173ffffffffffffffffffffffffffffffffffffffff1673ffffffffffffffffffffffffffffffffffffffff16815260200190815260200160002060008c73ffffffffffffffffffffffffffffffffffffffff1673ffffffffffffffffffffffffffffffffffffffff168152602001908152602001600020549150808211613aa75780613aa9565b815b91506000611000881661ffff16118015613ac257508381105b15613b0d5783821015613b0957670de0b6b3a7640000613afe8a600160028110613ae857fe5b602002015184870361475290919063ffffffff16565b81613b0557fe5b0492505b8391505b84821015613c4c57613b5e670de0b6b3a7640000613b478a600160028110613b3157fe5b602002015185890361475290919063ffffffff16565b81613b4e57fe5b048461482290919063ffffffff16565b92508460158860ff1681548110613b7157fe5b9060005260206000200160008d73ffffffffffffffffffffffffffffffffffffffff1673ffffffffffffffffffffffffffffffffffffffff16815260200190815260200160002060008c600160028110613bc757fe5b602002015173ffffffffffffffffffffffffffffffffffffffff1673ffffffffffffffffffffffffffffffffffffffff16815260200190815260200160002060008d73ffffffffffffffffffffffffffffffffffffffff1673ffffffffffffffffffffffffffffffffffffffff16815260200190815260200160002081905550613d46565b6000611000881661ffff161115613d45578160158860ff1681548110613c6e57fe5b9060005260206000200160008d73ffffffffffffffffffffffffffffffffffffffff1673ffffffffffffffffffffffffffffffffffffffff16815260200190815260200160002060008c600160028110613cc457fe5b602002015173ffffffffffffffffffffffffffffffffffffffff1673ffffffffffffffffffffffffffffffffffffffff16815260200190815260200160002060008d73ffffffffffffffffffffffffffffffffffffffff1673ffffffffffffffffffffffffffffffffffffffff168152602001908152602001600020819055505b5b600183111561402e57828060019003935050613dc28360118960ff1681548110613d6c57fe5b9060005260206000200160008e73ffffffffffffffffffffffffffffffffffffffff1673ffffffffffffffffffffffffffffffffffffffff1681526020019081526020016000205461470890919063ffffffff16565b60118860ff1681548110613dd257fe5b9060005260206000200160008d73ffffffffffffffffffffffffffffffffffffffff1673ffffffffffffffffffffffffffffffffffffffff168152602001908152602001600020819055506000610800881661ffff161115613f1a57613ea98360118960ff1681548110613e4257fe5b9060005260206000200160008d600160028110613e5b57fe5b602002015173ffffffffffffffffffffffffffffffffffffffff1673ffffffffffffffffffffffffffffffffffffffff1681526020019081526020016000205461482290919063ffffffff16565b60118860ff1681548110613eb957fe5b9060005260206000200160008c600160028110613ed257fe5b602002015173ffffffffffffffffffffffffffffffffffffffff1673ffffffffffffffffffffffffffffffffffffffff1681526020019081526020016000208190555061402d565b613f568a600160028110613f2a57fe5b6020020151848873ffffffffffffffffffffffffffffffffffffffff1661310c9092919063ffffffff16565b8573ffffffffffffffffffffffffffffffffffffffff166370a08231306040518263ffffffff1660e01b8152600401808273ffffffffffffffffffffffffffffffffffffffff1673ffffffffffffffffffffffffffffffffffffffff16815260200191505060206040518083038186803b158015613fd357600080fd5b505afa158015613fe7573d6000803e3d6000fd5b505050506040513d6020811015613ffd57600080fd5b8101908080519060200190929190505050600d8860ff168154811061401e57fe5b90600052602060002001819055505b5b5050505050505b80806001019150506131c5565b6000614000821661ffff161115614137576001601460008773ffffffffffffffffffffffffffffffffffffffff1673ffffffffffffffffffffffffffffffffffffffff1681526020019081526020016000206000866000600281106140a357fe5b602002015173ffffffffffffffffffffffffffffffffffffffff1673ffffffffffffffffffffffffffffffffffffffff16815260200190815260200160002060008773ffffffffffffffffffffffffffffffffffffffff1673ffffffffffffffffffffffffffffffffffffffff16815260200190815260200160002060006101000a81548160ff0219169083151502179055505b6000611000821661ffff16111561422c576001601460008773ffffffffffffffffffffffffffffffffffffffff1673ffffffffffffffffffffffffffffffffffffffff16815260200190815260200160002060008660016002811061419857fe5b602002015173ffffffffffffffffffffffffffffffffffffffff1673ffffffffffffffffffffffffffffffffffffffff16815260200190815260200160002060008773ffffffffffffffffffffffffffffffffffffffff1673ffffffffffffffffffffffffffffffffffffffff16815260200190815260200160002060006101000a81548160ff0219169083151502179055505b505050505050565b6000601260008673ffffffffffffffffffffffffffffffffffffffff1673ffffffffffffffffffffffffffffffffffffffff16815260200190815260200160002060009054906101000a900460ff1661428e576000614292565b6180005b90505b838160ff161015614701576000600b8260ff16815481106142b257fe5b9060005260206000200160009054906101000a900473ffffffffffffffffffffffffffffffffffffffff169050600073ffffffffffffffffffffffffffffffffffffffff168173ffffffffffffffffffffffffffffffffffffffff16141561431a57506146f4565b6000808273ffffffffffffffffffffffffffffffffffffffff166370a08231306040518263ffffffff1660e01b8152600401808273ffffffffffffffffffffffffffffffffffffffff1673ffffffffffffffffffffffffffffffffffffffff16815260200191505060206040518083038186803b15801561439a57600080fd5b505afa1580156143ae573d6000803e3d6000fd5b505050506040513d60208110156143c457600080fd5b810190808051906020019092919050505090506000600d8560ff16815481106143e957fe5b90600052602060002001549050600061443788614429670de0b6b3a764000061441b868861470890919063ffffffff16565b61475290919063ffffffff16565b6147d890919063ffffffff16565b905061446681600e8860ff168154811061444d57fe5b906000526020600020015461482290919063ffffffff16565b93505050600060108560ff168154811061447c57fe5b9060005260206000200160008a73ffffffffffffffffffffffffffffffffffffffff1673ffffffffffffffffffffffffffffffffffffffff1681526020019081526020016000205490506000600f8660ff16815481106144d857fe5b906000526020600020015490508082116144f257806144f4565b815b9150838210156146b0576000670de0b6b3a764000061451e8985880361475290919063ffffffff16565b8161452557fe5b0490508460108860ff168154811061453957fe5b9060005260206000200160008d73ffffffffffffffffffffffffffffffffffffffff1673ffffffffffffffffffffffffffffffffffffffff1681526020019081526020016000208190555060008111156146ae576000600f8861ffff16901c61ffff16111561466c5761460c8160118960ff16815481106145b657fe5b9060005260206000200160008e73ffffffffffffffffffffffffffffffffffffffff1673ffffffffffffffffffffffffffffffffffffffff1681526020019081526020016000205461482290919063ffffffff16565b60118860ff168154811061461c57fe5b9060005260206000200160008d73ffffffffffffffffffffffffffffffffffffffff1673ffffffffffffffffffffffffffffffffffffffff168152602001908152602001600020819055506146ad565b6146978b828873ffffffffffffffffffffffffffffffffffffffff1661310c9092919063ffffffff16565b6146aa818561470890919063ffffffff16565b93505b5b505b82600d8760ff16815481106146c157fe5b906000526020600020018190555083600e8760ff16815481106146e057fe5b906000526020600020018190555050505050505b8080600101915050614295565b5050505050565b600061474a83836040518060400160405280601e81526020017f536166654d6174683a207375627472616374696f6e206f766572666c6f770000815250614999565b905092915050565b60008083141561476557600090506147d2565b600082840290508284828161477657fe5b04146147cd576040517f08c379a0000000000000000000000000000000000000000000000000000000008152600401808060200182810382526021815260200180614de66021913960400191505060405180910390fd5b809150505b92915050565b600061481a83836040518060400160405280601a81526020017f536166654d6174683a206469766973696f6e206279207a65726f000000000000815250614a59565b905092915050565b6000808284019050838110156148a0576040517f08c379a000000000000000000000000000000000000000000000000000000000815260040180806020018281038252601b8152602001807f536166654d6174683a206164646974696f6e206f766572666c6f77000000000081525060200191505060405180910390fd5b8091505092915050565b606061490c826040518060400160405280602081526020017f5361666545524332303a206c6f772d6c6576656c2063616c6c206661696c65648152508573ffffffffffffffffffffffffffffffffffffffff16614b1f9092919063ffffffff16565b90506000815111156149945780806020019051602081101561492d57600080fd5b8101908080519060200190929190505050614993576040517f08c379a000000000000000000000000000000000000000000000000000000000815260040180806020018281038252602a815260200180614e07602a913960400191505060405180910390fd5b5b505050565b6000838311158290614a46576040517f08c379a00000000000000000000000000000000000000000000000000000000081526004018080602001828103825283818151815260200191508051906020019080838360005b83811015614a0b5780820151818401526020810190506149f0565b50505050905090810190601f168015614a385780820380516001836020036101000a031916815260200191505b509250505060405180910390fd5b5060008385039050809150509392505050565b60008083118290614b05576040517f08c379a00000000000000000000000000000000000000000000000000000000081526004018080602001828103825283818151815260200191508051906020019080838360005b83811015614aca578082015181840152602081019050614aaf565b50505050905090810190601f168015614af75780820380516001836020036101000a031916815260200191505b509250505060405180910390fd5b506000838581614b1157fe5b049050809150509392505050565b6060614b2e8484600085614b37565b90509392505050565b606082471015614b92576040517f08c379a0000000000000000000000000000000000000000000000000000000008152600401808060200182810382526026815260200180614dc06026913960400191505060405180910390fd5b614b9b85614ce0565b614c0d576040517f08c379a000000000000000000000000000000000000000000000000000000000815260040180806020018281038252601d8152602001807f416464726573733a2063616c6c20746f206e6f6e2d636f6e747261637400000081525060200191505060405180910390fd5b600060608673ffffffffffffffffffffffffffffffffffffffff1685876040518082805190602001908083835b60208310614c5d5780518252602082019150602081019050602083039250614c3a565b6001836020036101000a03801982511681845116808217855250505050505090500191505060006040518083038185875af1925050503d8060008114614cbf576040519150601f19603f3d011682016040523d82523d6000602084013e614cc4565b606091505b5091509150614cd4828286614cf3565b92505050949350505050565b600080823b905060008111915050919050565b60608315614d0357829050614db8565b600083511115614d165782518084602001fd5b816040517f08c379a00000000000000000000000000000000000000000000000000000000081526004018080602001828103825283818151815260200191508051906020019080838360005b83811015614d7d578082015181840152602081019050614d62565b50505050905090810190601f168015614daa5780820380516001836020036101000a031916815260200191505b509250505060405180910390fd5b939250505056fe416464726573733a20696e73756666696369656e742062616c616e636520666f722063616c6c536166654d6174683a206d756c7469706c69636174696f6e206f766572666c6f775361666545524332303a204552433230206f7065726174696f6e20646964206e6f742073756363656564a2646970667358221220a36628fc572a568a331811b1e11cf04d1e7587b3f0c4e83325a7c190751e819c64736f6c63430006080033",
  "immutableReferences": {},
  "source": "// SPDX-License-Identifier: MIT\npragma solidity >=0.6.8 <0.7.0;\n\nimport \"../../interfaces/IERC20.sol\";\nimport \"../../interfaces/IInfoOracle.sol\";\nimport \"../../interfaces/IFixCapitalPool.sol\";\nimport \"../../interfaces/IWrapper.sol\";\nimport \"../../libraries/SafeMath.sol\";\nimport \"../../libraries/SignedSafeMath.sol\";\nimport \"../../libraries/ABDKMath64x64.sol\";\nimport \"../../libraries/BigMath.sol\";\nimport \"../../libraries/SafeERC20.sol\";\nimport \"./NGBwrapperDelegateParent.sol\";\n\ncontract NGBwrapperDelegate3 is NGBwrapperDelegateParent {\n\tusing SafeMath for uint256;\n\tusing SignedSafeMath for int256;\n\tusing ABDKMath64x64 for int128;\n    using SafeERC20 for IERC20;\n\n    /*\n        @Description: force rewards for an FCP direct sub account to be claimed\n            only callable by FCP contracts\n\n        @param bool _inPayoutPhase: true if the FCP is in the payout phase\n        @param bool _claimRewards: true if the FCP should claim its rewards\n        @param address[2] _subAccts: the owners of the FCP direct sub accounts for which to claim rewards\n        @param uint[2] _yieldArr: [yield balance of subAcct0, yield balance of subAcct1]\n        @param uint[2] _wrappedClaims: the effective amount of the wrapper asset used to calculate the\n            distribution for the sub accounts\n    */\n    function FCPDirectDoubleClaimSubAccountRewards(\n        bool _inPayoutPhase,\n        bool _claimRewards,\n        address[2] calldata _subAccts,\n        uint[2] calldata _yieldArr,\n        uint[2] calldata _wrappedClaims\n    ) external noReentry claimRewards(_claimRewards, msg.sender) {\n        uint len = internalRewardsAssets.length;\n        if (len > 0) {\n            len = len > type(uint8).max ? type(uint8).max : len;\n            bool copyInPayoutPhase = _inPayoutPhase;\n            uint16 flags = (copyInPayoutPhase ? 1 << 15 : 0);\n            flags = flags | (copyInPayoutPhase && !internalHasClaimedAllYTrewards[msg.sender][_subAccts[0]][msg.sender] ? 1 << 14 : 0);\n            flags = flags | (internalIsDistributionAccount[_subAccts[0]] ? 1 << 13 : 0);\n            flags = flags | (copyInPayoutPhase && !internalHasClaimedAllYTrewards[msg.sender][_subAccts[1]][msg.sender] ? 1 << 12 : 0);\n            flags = flags | (internalIsDistributionAccount[_subAccts[1]] ? 1 << 11 : 0);\n            doubleSubaccountDistributeRewards(uint8(len), msg.sender, _subAccts, _yieldArr, _wrappedClaims, flags);\n        }\n    }\n\n    /*\n        @Description: distribute rewards to two FCP direct sub accounts of the same FCP\n\n        @param uint8 _len: the number of rewards assets to distribute rewards for\n        @param address _FCPaddr: the address of the FCP contract which controls the two FCP direct sub accounts\n        @param address[2] memory subAccts: contains the two addresses that are the owners of the sub accounts for which rewards are to be distributed\n        @param uint[2] memory _yieldArr: contains the two yield amounts of the sub accounts at their respective indecies\n        @param uint[2] memory _balanceAddrs: contains the effective amounts of wrapped asset in rewards claim for the subaccounts at their respective indecies\n        @param uint i: format:\n            i & (1 << 15) == inPayoutPhase\n            i & (1 << 14) == subAcct0 get YT & ZCB rewards\n            i & (1 << 13) == subAcct0 is distribution account\n            i & (1 << 12) == subAcct1 get YT & ZCB rewards\n            i & (1 << 11) == subAcct1 is distribution account\n            uint8(i) == current index in rewards assets array\n    */\n    function doubleSubaccountDistributeRewards(\n        uint8 _len,\n        address _FCPaddr,\n        address[2] memory _subAccts,\n        uint[2] memory _yieldArr,\n        uint[2] memory _balanceAddrs,\n        uint16 i\n    ) internal {\n        for (; uint8(i) < _len; i++) {\n            address _rewardsAddr = internalRewardsAssets[uint8(i)];\n            if (_rewardsAddr == address(0)) {\n                continue;\n            }\n            uint newTRPC = internalTotalRewardsPerWasset[uint8(i)];\n            uint TRPY = (i & ((1 << 14) | (1 << 12))) > 0 ? IFixCapitalPool(_FCPaddr).TotalRewardsPerWassetAtMaturity(uint8(i)) : 0;\n            uint dividend;\n            uint prevTotalRewardsPerClaim = internalSAPTRPW[uint8(i)][_FCPaddr][_subAccts[0]][_FCPaddr];\n            uint activationTRPW = internalTRPWuponActivation[uint8(i)];\n            prevTotalRewardsPerClaim = prevTotalRewardsPerClaim > activationTRPW ? prevTotalRewardsPerClaim : activationTRPW;\n            if (i & (1 << 14) > 0 && activationTRPW < TRPY) {\n                //collect all YT associated rewards\n                if (prevTotalRewardsPerClaim < TRPY) {\n                    dividend = (TRPY - prevTotalRewardsPerClaim).mul(_yieldArr[0]) / (1 ether);\n                }\n                prevTotalRewardsPerClaim = TRPY;\n            }\n\n            if (prevTotalRewardsPerClaim < newTRPC) {\n                dividend = dividend.add((newTRPC - prevTotalRewardsPerClaim).mul(_balanceAddrs[0]) / (1 ether));\n                internalSAPTRPW[uint8(i)][_FCPaddr][_subAccts[0]][_FCPaddr] = newTRPC;\n            }\n            else if (i & (1 << 14) > 0) {\n                internalSAPTRPW[uint8(i)][_FCPaddr][_subAccts[0]][_FCPaddr] = prevTotalRewardsPerClaim;\n            }\n\n            if (dividend > 1) {\n                dividend--; //sub 1 from dividend to prevent rounding errors resulting in dist acct insolvency by small amounts\n                internalDistributionAccountRewards[uint8(i)][_FCPaddr] = internalDistributionAccountRewards[uint8(i)][_FCPaddr].sub(dividend);\n                if (i & (1 << 13) > 0) {\n                    internalDistributionAccountRewards[uint8(i)][_subAccts[0]] = internalDistributionAccountRewards[uint8(i)][_subAccts[0]].add(dividend);\n                }\n                else {\n                    IERC20(_rewardsAddr).safeTransfer(_subAccts[0], dividend);\n                    internalPrevContractBalance[uint8(i)] = IERC20(_rewardsAddr).balanceOf(address(this));\n                }\n            }\n\n            dividend = 0;\n            prevTotalRewardsPerClaim = internalSAPTRPW[uint8(i)][_FCPaddr][_subAccts[1]][_FCPaddr];\n            prevTotalRewardsPerClaim = prevTotalRewardsPerClaim > activationTRPW ? prevTotalRewardsPerClaim : activationTRPW;\n            if (i & (1 << 12) > 0 && activationTRPW < TRPY) {\n                //collect all YT associated rewards\n                if (prevTotalRewardsPerClaim < TRPY) {\n                    dividend = (TRPY - prevTotalRewardsPerClaim).mul(_yieldArr[1]) / (1 ether);\n                }\n                prevTotalRewardsPerClaim = TRPY;\n            }\n\n            if (prevTotalRewardsPerClaim < newTRPC) {\n                dividend = dividend.add((newTRPC - prevTotalRewardsPerClaim).mul(_balanceAddrs[1]) / (1 ether));\n                internalSAPTRPW[uint8(i)][_FCPaddr][_subAccts[1]][_FCPaddr] = newTRPC;\n            }\n            else if (i & (1 << 12) > 0) {\n                internalSAPTRPW[uint8(i)][_FCPaddr][_subAccts[1]][_FCPaddr] = prevTotalRewardsPerClaim;\n            }\n\n            if (dividend > 1) {\n                dividend--; //sub 1 from dividend to prevent rounding errors resulting in dist acct insolvency by small amounts\n                internalDistributionAccountRewards[uint8(i)][_FCPaddr] = internalDistributionAccountRewards[uint8(i)][_FCPaddr].sub(dividend);\n                if (i & (1 << 11) > 0) {\n                    internalDistributionAccountRewards[uint8(i)][_subAccts[1]] = internalDistributionAccountRewards[uint8(i)][_subAccts[1]].add(dividend);\n                }\n                else {\n                    IERC20(_rewardsAddr).safeTransfer(_subAccts[1], dividend);\n                    internalPrevContractBalance[uint8(i)] = IERC20(_rewardsAddr).balanceOf(address(this));\n                }\n            }\n        }\n        if (i & (1 << 14) > 0) {\n            internalHasClaimedAllYTrewards[_FCPaddr][_subAccts[0]][_FCPaddr] = true;\n        }\n        if (i & (1 << 12) > 0) {\n            internalHasClaimedAllYTrewards[_FCPaddr][_subAccts[1]][_FCPaddr] = true;\n        }\n    }\n\n\n\t//-----------------ERC20-transfer-functionality------------\n\n    function transfer(address _to, uint256 _value) external doubleClaimRewards(_to, msg.sender) {\n        require(_value <= internalBalanceOf[msg.sender]);\n\n        internalBalanceOf[msg.sender] -= _value;\n        internalBalanceOf[_to] += _value;\n    }\n\n    function transferFrom(address _from, address _to, uint256 _value) external doubleClaimRewards(_to, _from) {\n        require(_value <= internalAllowance[_from][msg.sender]);\n    \trequire(_value <= internalBalanceOf[_from]);\n\n    \tinternalBalanceOf[_from] -= _value;\n    \tinternalBalanceOf[_to] += _value;\n\n        internalAllowance[_from][msg.sender] -= _value;\n    }\n\n    /*\n        @Description: add an asset for which wrapped asset holders will earn LM rewards\n\n        @param address _rewardsAsset: the new asset for which to start distribution of LM rewards\n        @param uint8 _index: the index within the rewardsAddr array where the new rewards asset will be\n    */\n    function addRewardAsset(address _rewardsAsset) external onlyOwner {\n        uint len = internalRewardsAssets.length;\n        for (uint8 i = 0; i < len; i++) {\n            require(internalImmutableRewardsAssets[i] != _rewardsAsset);\n        }\n        internalRewardsAssets.push(_rewardsAsset);\n        internalImmutableRewardsAssets.push(_rewardsAsset);\n        internalPrevContractBalance.push(0);\n        internalTotalRewardsPerWasset.push(0);\n        internalTRPWuponActivation.push(0);\n        internalPrevTotalRewardsPerWasset.push();\n        internalDistributionAccountRewards.push();\n        internalSAPTRPW.push();\n        uint currentBal = IERC20(_rewardsAsset).balanceOf(address(this));\n        IInfoOracle iorc = IInfoOracle(internalInfoOracleAddress);\n        if (iorc.TreasuryFeeIsCollected()) {\n            address sendTo = iorc.sendTo();\n            uint toOwner = currentBal >> 1;\n            IERC20(_rewardsAsset).safeTransfer(msg.sender, toOwner);\n            IERC20(_rewardsAsset).safeTransfer(sendTo, currentBal - toOwner);\n        }\n        else {\n            IERC20(_rewardsAsset).safeTransfer(msg.sender, currentBal);\n        }\n    }\n\n    /*\n        @Description: deactivate a rewards asset\n            any amount of this asset recived by this contract will sit dormant until activated\n\n        @param uint _index: the index within the rewards asset array of the asset to deactivate\n    */\n    function deactivateRewardAsset(uint _index) external onlyOwner {\n        uint len = internalRewardsAssets.length;\n        require(_index < len);\n        internalRewardsAssets[_index] = address(0);\n        IERC20 rewardAsset = IERC20(internalImmutableRewardsAssets[_index]);\n        uint contractBalance = rewardAsset.balanceOf(address(this));\n        IInfoOracle iorc = IInfoOracle(internalInfoOracleAddress);\n        if (iorc.TreasuryFeeIsCollected()) {\n            address sendTo = IInfoOracle(internalInfoOracleAddress).sendTo();\n            uint toOwner = contractBalance >> 1;\n            rewardAsset.safeTransfer(msg.sender, toOwner);\n            rewardAsset.safeTransfer(sendTo, contractBalance - toOwner);\n        }\n        else {\n            rewardAsset.safeTransfer(msg.sender, contractBalance);\n        }\n        internalPrevContractBalance[_index] = 0;\n    }\n\n}",
  "sourcePath": "/home/asher/FixFinanceV1/contracts/Wrappers/NGBwrapper/NGBwrapperDelegate3.sol",
  "compiler": {
    "name": "solc",
    "version": "0.6.8+commit.0bbfe453.Emscripten.clang"
  },
  "schemaVersion": "3.4.1",
  "updatedAt": "2021-11-26T19:15:56.002Z",
  "devdoc": {
    "methods": {}
  },
  "userdoc": {
    "methods": {}
  }
}