{
  "contractName": "NGBwrapperDelegate2",
  "abi": [
    {
      "anonymous": false,
      "inputs": [
        {
          "indexed": true,
          "internalType": "address",
          "name": "from",
          "type": "address"
        },
        {
          "indexed": false,
          "internalType": "uint256",
          "name": "wrappedAmount",
          "type": "uint256"
        },
        {
          "indexed": false,
          "internalType": "uint256",
          "name": "feeAmount",
          "type": "uint256"
        }
      ],
      "name": "FlashBurn",
      "type": "event"
    },
    {
      "anonymous": false,
      "inputs": [
        {
          "indexed": true,
          "internalType": "address",
          "name": "to",
          "type": "address"
        },
        {
          "indexed": false,
          "internalType": "uint256",
          "name": "wrappedAmount",
          "type": "uint256"
        }
      ],
      "name": "FlashMint",
      "type": "event"
    },
    {
      "inputs": [],
      "name": "owner",
      "outputs": [
        {
          "internalType": "address",
          "name": "",
          "type": "address"
        }
      ],
      "stateMutability": "view",
      "type": "function"
    },
    {
      "inputs": [
        {
          "internalType": "address",
          "name": "newOwner",
          "type": "address"
        }
      ],
      "name": "transferOwnership",
      "outputs": [],
      "stateMutability": "nonpayable",
      "type": "function"
    },
    {
      "inputs": [
        {
          "internalType": "bool",
          "name": "_claimRewards",
          "type": "bool"
        },
        {
          "internalType": "address",
          "name": "_subAcct",
          "type": "address"
        },
        {
          "internalType": "address",
          "name": "_FCPaddr",
          "type": "address"
        },
        {
          "internalType": "int256",
          "name": "changeYield",
          "type": "int256"
        },
        {
          "internalType": "int256",
          "name": "changeBond",
          "type": "int256"
        }
      ],
      "name": "editSubAccountPosition",
      "outputs": [],
      "stateMutability": "nonpayable",
      "type": "function"
    },
    {
      "inputs": [
        {
          "internalType": "bool",
          "name": "_claimRewards",
          "type": "bool"
        },
        {
          "internalType": "address",
          "name": "_distributionAccount",
          "type": "address"
        },
        {
          "internalType": "address",
          "name": "_subAccount",
          "type": "address"
        },
        {
          "internalType": "address",
          "name": "_FCPaddr",
          "type": "address"
        }
      ],
      "name": "forceClaimSubAccountRewards",
      "outputs": [],
      "stateMutability": "nonpayable",
      "type": "function"
    },
    {
      "inputs": [
        {
          "internalType": "bool",
          "name": "_inPayoutPhase",
          "type": "bool"
        },
        {
          "internalType": "bool",
          "name": "_claimRewards",
          "type": "bool"
        },
        {
          "internalType": "address",
          "name": "_subAcct",
          "type": "address"
        },
        {
          "internalType": "uint256",
          "name": "_yield",
          "type": "uint256"
        },
        {
          "internalType": "uint256",
          "name": "_wrappedClaim",
          "type": "uint256"
        }
      ],
      "name": "FCPDirectClaimSubAccountRewards",
      "outputs": [],
      "stateMutability": "nonpayable",
      "type": "function"
    },
    {
      "inputs": [
        {
          "internalType": "contract IERC3156FlashBorrower",
          "name": "receiver",
          "type": "address"
        },
        {
          "internalType": "address",
          "name": "token",
          "type": "address"
        },
        {
          "internalType": "uint256",
          "name": "amount",
          "type": "uint256"
        },
        {
          "internalType": "bytes",
          "name": "data",
          "type": "bytes"
        }
      ],
      "name": "flashLoan",
      "outputs": [
        {
          "internalType": "bool",
          "name": "",
          "type": "bool"
        }
      ],
      "stateMutability": "nonpayable",
      "type": "function"
    }
  ],
  "bytecode": "0x60806040526103e8600155620f3e58600260006101000a81548163ffffffff021916908363ffffffff16021790555034801561003a57600080fd5b5033600060016101000a81548173ffffffffffffffffffffffffffffffffffffffff021916908373ffffffffffffffffffffffffffffffffffffffff1602179055506150e68061008b6000396000f3fe608060405234801561001057600080fd5b50600436106100625760003560e01c80633e5b48ae146100675780635102e3e1146100d75780635cffe9de146101675780637c9dd789146102425780638da5cb5b146102c6578063f2fde38b14610310575b600080fd5b6100d5600480360360a081101561007d57600080fd5b81019080803515159060200190929190803515159060200190929190803573ffffffffffffffffffffffffffffffffffffffff1690602001909291908035906020019092919080359060200190929190505050610354565b005b610165600480360360808110156100ed57600080fd5b81019080803515159060200190929190803573ffffffffffffffffffffffffffffffffffffffff169060200190929190803573ffffffffffffffffffffffffffffffffffffffff169060200190929190803573ffffffffffffffffffffffffffffffffffffffff169060200190929190505050610a90565b005b6102286004803603608081101561017d57600080fd5b81019080803573ffffffffffffffffffffffffffffffffffffffff169060200190929190803573ffffffffffffffffffffffffffffffffffffffff16906020019092919080359060200190929190803590602001906401000000008111156101e457600080fd5b8201836020820111156101f657600080fd5b8035906020019184600183028401116401000000008311171561021857600080fd5b9091929391929390505050610d7b565b604051808215151515815260200191505060405180910390f35b6102c4600480360360a081101561025857600080fd5b81019080803515159060200190929190803573ffffffffffffffffffffffffffffffffffffffff169060200190929190803573ffffffffffffffffffffffffffffffffffffffff1690602001909291908035906020019092919080359060200190929190505050612927565b005b6102ce6131e6565b604051808273ffffffffffffffffffffffffffffffffffffffff1673ffffffffffffffffffffffffffffffffffffffff16815260200191505060405180910390f35b6103526004803603602081101561032657600080fd5b81019080803573ffffffffffffffffffffffffffffffffffffffff16906020019092919050505061320c565b005b60008060009054906101000a900460ff1660ff161461037257600080fd5b60016000806101000a81548160ff021916908360ff160217905550833381610527576000600b80549050905060008111156105215760ff801681116103b757806103bc565b60ff80165b90506000601260008873ffffffffffffffffffffffffffffffffffffffff1673ffffffffffffffffffffffffffffffffffffffff16815260200190815260200160002060009054906101000a900460ff1661041857600061041c565b6120005b8980156104ed5750601460003373ffffffffffffffffffffffffffffffffffffffff1673ffffffffffffffffffffffffffffffffffffffff16815260200190815260200160002060008973ffffffffffffffffffffffffffffffffffffffff1673ffffffffffffffffffffffffffffffffffffffff16815260200190815260200160002060003373ffffffffffffffffffffffffffffffffffffffff1673ffffffffffffffffffffffffffffffffffffffff16815260200190815260200160002060009054906101000a900460ff16155b6104f85760006104fc565b6140005b8a61050857600061050c565b6180005b1717905061051f823389338a8a87613348565b505b50610a6c565b6000600b80549050905060008114156106ce576000600b80549050905060008111156106c75760ff8016811161055d5780610562565b60ff80165b90506000601260008973ffffffffffffffffffffffffffffffffffffffff1673ffffffffffffffffffffffffffffffffffffffff16815260200190815260200160002060009054906101000a900460ff166105be5760006105c2565b6120005b8a80156106935750601460003373ffffffffffffffffffffffffffffffffffffffff1673ffffffffffffffffffffffffffffffffffffffff16815260200190815260200160002060008a73ffffffffffffffffffffffffffffffffffffffff1673ffffffffffffffffffffffffffffffffffffffff16815260200190815260200160002060003373ffffffffffffffffffffffffffffffffffffffff1673ffffffffffffffffffffffffffffffffffffffff16815260200190815260200160002060009054906101000a900460ff16155b61069e5760006106a2565b6140005b8b6106ae5760006106b2565b6180005b171790506106c582338a338b8b87613348565b505b5050610a6c565b60ff801681116106de57806106e3565b60ff80165b905060006006549050600081141561088a576000600b80549050905060008111156108825760ff80168111610718578061071d565b60ff80165b90506000601260008a73ffffffffffffffffffffffffffffffffffffffff1673ffffffffffffffffffffffffffffffffffffffff16815260200190815260200160002060009054906101000a900460ff1661077957600061077d565b6120005b8b801561084e5750601460003373ffffffffffffffffffffffffffffffffffffffff1673ffffffffffffffffffffffffffffffffffffffff16815260200190815260200160002060008b73ffffffffffffffffffffffffffffffffffffffff1673ffffffffffffffffffffffffffffffffffffffff16815260200190815260200160002060003373ffffffffffffffffffffffffffffffffffffffff1673ffffffffffffffffffffffffffffffffffffffff16815260200190815260200160002060009054906101000a900460ff16155b61085957600061085d565b6140005b8c61086957600061086d565b6180005b1717905061088082338b338c8c87613348565b505b505050610a6c565b6000600760008573ffffffffffffffffffffffffffffffffffffffff1673ffffffffffffffffffffffffffffffffffffffff1681526020019081526020016000205490506108da84848484613b95565b6000600b8054905090506000811115610a675760ff801681116108fd5780610902565b60ff80165b90506000601260008b73ffffffffffffffffffffffffffffffffffffffff1673ffffffffffffffffffffffffffffffffffffffff16815260200190815260200160002060009054906101000a900460ff1661095e576000610962565b6120005b8c8015610a335750601460003373ffffffffffffffffffffffffffffffffffffffff1673ffffffffffffffffffffffffffffffffffffffff16815260200190815260200160002060008c73ffffffffffffffffffffffffffffffffffffffff1673ffffffffffffffffffffffffffffffffffffffff16815260200190815260200160002060003373ffffffffffffffffffffffffffffffffffffffff1673ffffffffffffffffffffffffffffffffffffffff16815260200190815260200160002060009054906101000a900460ff16155b610a3e576000610a42565b6140005b8d610a4e576000610a52565b6180005b17179050610a6582338c338d8d87613348565b505b505050505b505060008060006101000a81548160ff021916908360ff1602179055505050505050565b60008060009054906101000a900460ff1660ff1614610aae57600080fd5b60016000806101000a81548160ff021916908360ff160217905550838381610b4f578473ffffffffffffffffffffffffffffffffffffffff163373ffffffffffffffffffffffffffffffffffffffff161480610b3557508373ffffffffffffffffffffffffffffffffffffffff163373ffffffffffffffffffffffffffffffffffffffff16145b610b3e57600080fd5b610b49858585614069565b50610d58565b6000600b8054905090506000811415610be2578573ffffffffffffffffffffffffffffffffffffffff163373ffffffffffffffffffffffffffffffffffffffff161480610bc757508473ffffffffffffffffffffffffffffffffffffffff163373ffffffffffffffffffffffffffffffffffffffff16145b610bd057600080fd5b610bdb868686614069565b5050610d58565b60ff80168111610bf25780610bf7565b60ff80165b9050600060065490506000811415610c8a578673ffffffffffffffffffffffffffffffffffffffff163373ffffffffffffffffffffffffffffffffffffffff161480610c6e57508573ffffffffffffffffffffffffffffffffffffffff163373ffffffffffffffffffffffffffffffffffffffff16145b610c7757600080fd5b610c82878787614069565b505050610d58565b6000600760008573ffffffffffffffffffffffffffffffffffffffff1673ffffffffffffffffffffffffffffffffffffffff168152602001908152602001600020549050610cda84848484613b95565b8773ffffffffffffffffffffffffffffffffffffffff163373ffffffffffffffffffffffffffffffffffffffff161480610d3f57508673ffffffffffffffffffffffffffffffffffffffff163373ffffffffffffffffffffffffffffffffffffffff16145b610d4857600080fd5b610d53888888614069565b505050505b505060008060006101000a81548160ff021916908360ff16021790555050505050565b6000806000809054906101000a900460ff1660ff1614610d9a57600080fd5b60016000806101000a81548160ff021916908360ff1602179055506001868161146b573073ffffffffffffffffffffffffffffffffffffffff168773ffffffffffffffffffffffffffffffffffffffff1614610df557600080fd5b7fffffffffffffffffffffffffffffffffffffffffffffffffffffffffffffffff60065487011115610e2657600080fd5b60006001549050610e7f610e4c620f424063ffffffff16836147bd90919063ffffffff16565b6006547fffffffffffffffffffffffffffffffffffffffffffffffffffffffffffffffff0361484590919063ffffffff16565b871115610e8b57600080fd5b6000620f424063ffffffff16610eaa838a61488f90919063ffffffff16565b81610eb157fe5b04905060008a9050610f0b89600760008473ffffffffffffffffffffffffffffffffffffffff1673ffffffffffffffffffffffffffffffffffffffff168152602001908152602001600020546147bd90919063ffffffff16565b600760008373ffffffffffffffffffffffffffffffffffffffff1673ffffffffffffffffffffffffffffffffffffffff168152602001908152602001600020819055508073ffffffffffffffffffffffffffffffffffffffff167f5b9ea35ccc2de5176fed8512b7b27b62fd5c98bce089f76ef67287ffa759db9d8a6040518082815260200191505060405180910390a26000610fb1838b6147bd90919063ffffffff16565b905060008b905060008b905060608b8b8080601f016020809104026020016040519081016040528093929190818152602001838380828437600081840152601f19601f82011690508083019250505050505050905060008573ffffffffffffffffffffffffffffffffffffffff166323e30c8b3386868b876040518663ffffffff1660e01b8152600401808673ffffffffffffffffffffffffffffffffffffffff1673ffffffffffffffffffffffffffffffffffffffff1681526020018573ffffffffffffffffffffffffffffffffffffffff1673ffffffffffffffffffffffffffffffffffffffff16815260200184815260200183815260200180602001828103825283818151815260200191508051906020019080838360005b838110156110e85780820151818401526020810190506110cd565b50505050905090810190601f1680156111155780820380516001836020036101000a031916815260200191505b509650505050505050602060405180830381600087803b15801561113857600080fd5b505af115801561114c573d6000803e3d6000fd5b505050506040513d602081101561116257600080fd5b810190808051906020019092919050505090508060405180807f45524333313536466c617368426f72726f7765722e6f6e466c6173684c6f616e81525060200190506040518091039020146111b657600080fd5b506000600860008773ffffffffffffffffffffffffffffffffffffffff1673ffffffffffffffffffffffffffffffffffffffff16815260200190815260200160002060003073ffffffffffffffffffffffffffffffffffffffff1673ffffffffffffffffffffffffffffffffffffffff168152602001908152602001600020549050848110156112ae576040517f08c379a000000000000000000000000000000000000000000000000000000000815260040180806020018281038252601f8152602001807f466c6173684d696e7465723a205265706179206e6f7420617070726f7665640081525060200191505060405180910390fd5b6112c1858261491590919063ffffffff16565b600860008873ffffffffffffffffffffffffffffffffffffffff1673ffffffffffffffffffffffffffffffffffffffff16815260200190815260200160002060003073ffffffffffffffffffffffffffffffffffffffff1673ffffffffffffffffffffffffffffffffffffffff168152602001908152602001600020819055506000600760008873ffffffffffffffffffffffffffffffffffffffff1673ffffffffffffffffffffffffffffffffffffffff1681526020019081526020016000205490508581101561139257600080fd5b6113a5868261491590919063ffffffff16565b600760008973ffffffffffffffffffffffffffffffffffffffff1673ffffffffffffffffffffffffffffffffffffffff168152602001908152602001600020819055508673ffffffffffffffffffffffffffffffffffffffff167f9defe0f433e65e5880836b8b536cdf6dfd331348bbae707fa3b77a5a9bccdc74878a604051808381526020018281526020019250505060405180910390a26114538860065461491590919063ffffffff16565b60068190555060019b50505050505050505050612901565b6000600b8054905090506000811415611b2d573073ffffffffffffffffffffffffffffffffffffffff168873ffffffffffffffffffffffffffffffffffffffff16146114b657600080fd5b7fffffffffffffffffffffffffffffffffffffffffffffffffffffffffffffffff600654880111156114e757600080fd5b6000600154905061154061150d620f424063ffffffff16836147bd90919063ffffffff16565b6006547fffffffffffffffffffffffffffffffffffffffffffffffffffffffffffffffff0361484590919063ffffffff16565b88111561154c57600080fd5b6000620f424063ffffffff1661156b838b61488f90919063ffffffff16565b8161157257fe5b04905060008b90506115cc8a600760008473ffffffffffffffffffffffffffffffffffffffff1673ffffffffffffffffffffffffffffffffffffffff168152602001908152602001600020546147bd90919063ffffffff16565b600760008373ffffffffffffffffffffffffffffffffffffffff1673ffffffffffffffffffffffffffffffffffffffff168152602001908152602001600020819055508073ffffffffffffffffffffffffffffffffffffffff167f5b9ea35ccc2de5176fed8512b7b27b62fd5c98bce089f76ef67287ffa759db9d8b6040518082815260200191505060405180910390a26000611672838c6147bd90919063ffffffff16565b905060008c905060008c905060608c8c8080601f016020809104026020016040519081016040528093929190818152602001838380828437600081840152601f19601f82011690508083019250505050505050905060008573ffffffffffffffffffffffffffffffffffffffff166323e30c8b3386868b876040518663ffffffff1660e01b8152600401808673ffffffffffffffffffffffffffffffffffffffff1673ffffffffffffffffffffffffffffffffffffffff1681526020018573ffffffffffffffffffffffffffffffffffffffff1673ffffffffffffffffffffffffffffffffffffffff16815260200184815260200183815260200180602001828103825283818151815260200191508051906020019080838360005b838110156117a957808201518184015260208101905061178e565b50505050905090810190601f1680156117d65780820380516001836020036101000a031916815260200191505b509650505050505050602060405180830381600087803b1580156117f957600080fd5b505af115801561180d573d6000803e3d6000fd5b505050506040513d602081101561182357600080fd5b810190808051906020019092919050505090508060405180807f45524333313536466c617368426f72726f7765722e6f6e466c6173684c6f616e815250602001905060405180910390201461187757600080fd5b506000600860008773ffffffffffffffffffffffffffffffffffffffff1673ffffffffffffffffffffffffffffffffffffffff16815260200190815260200160002060003073ffffffffffffffffffffffffffffffffffffffff1673ffffffffffffffffffffffffffffffffffffffff1681526020019081526020016000205490508481101561196f576040517f08c379a000000000000000000000000000000000000000000000000000000000815260040180806020018281038252601f8152602001807f466c6173684d696e7465723a205265706179206e6f7420617070726f7665640081525060200191505060405180910390fd5b611982858261491590919063ffffffff16565b600860008873ffffffffffffffffffffffffffffffffffffffff1673ffffffffffffffffffffffffffffffffffffffff16815260200190815260200160002060003073ffffffffffffffffffffffffffffffffffffffff1673ffffffffffffffffffffffffffffffffffffffff168152602001908152602001600020819055506000600760008873ffffffffffffffffffffffffffffffffffffffff1673ffffffffffffffffffffffffffffffffffffffff16815260200190815260200160002054905085811015611a5357600080fd5b611a66868261491590919063ffffffff16565b600760008973ffffffffffffffffffffffffffffffffffffffff1673ffffffffffffffffffffffffffffffffffffffff168152602001908152602001600020819055508673ffffffffffffffffffffffffffffffffffffffff167f9defe0f433e65e5880836b8b536cdf6dfd331348bbae707fa3b77a5a9bccdc74878a604051808381526020018281526020019250505060405180910390a2611b148860065461491590919063ffffffff16565b60068190555060019c5050505050505050505050612901565b60ff80168111611b3d5780611b42565b60ff80165b9050600060065490506000811415612204573073ffffffffffffffffffffffffffffffffffffffff168973ffffffffffffffffffffffffffffffffffffffff1614611b8c57600080fd5b7fffffffffffffffffffffffffffffffffffffffffffffffffffffffffffffffff60065489011115611bbd57600080fd5b60006001549050611c16611be3620f424063ffffffff16836147bd90919063ffffffff16565b6006547fffffffffffffffffffffffffffffffffffffffffffffffffffffffffffffffff0361484590919063ffffffff16565b891115611c2257600080fd5b6000620f424063ffffffff16611c41838c61488f90919063ffffffff16565b81611c4857fe5b04905060008c9050611ca28b600760008473ffffffffffffffffffffffffffffffffffffffff1673ffffffffffffffffffffffffffffffffffffffff168152602001908152602001600020546147bd90919063ffffffff16565b600760008373ffffffffffffffffffffffffffffffffffffffff1673ffffffffffffffffffffffffffffffffffffffff168152602001908152602001600020819055508073ffffffffffffffffffffffffffffffffffffffff167f5b9ea35ccc2de5176fed8512b7b27b62fd5c98bce089f76ef67287ffa759db9d8c6040518082815260200191505060405180910390a26000611d48838d6147bd90919063ffffffff16565b905060008d905060008d905060608d8d8080601f016020809104026020016040519081016040528093929190818152602001838380828437600081840152601f19601f82011690508083019250505050505050905060008573ffffffffffffffffffffffffffffffffffffffff166323e30c8b3386868b876040518663ffffffff1660e01b8152600401808673ffffffffffffffffffffffffffffffffffffffff1673ffffffffffffffffffffffffffffffffffffffff1681526020018573ffffffffffffffffffffffffffffffffffffffff1673ffffffffffffffffffffffffffffffffffffffff16815260200184815260200183815260200180602001828103825283818151815260200191508051906020019080838360005b83811015611e7f578082015181840152602081019050611e64565b50505050905090810190601f168015611eac5780820380516001836020036101000a031916815260200191505b509650505050505050602060405180830381600087803b158015611ecf57600080fd5b505af1158015611ee3573d6000803e3d6000fd5b505050506040513d6020811015611ef957600080fd5b810190808051906020019092919050505090508060405180807f45524333313536466c617368426f72726f7765722e6f6e466c6173684c6f616e8152506020019050604051809103902014611f4d57600080fd5b506000600860008773ffffffffffffffffffffffffffffffffffffffff1673ffffffffffffffffffffffffffffffffffffffff16815260200190815260200160002060003073ffffffffffffffffffffffffffffffffffffffff1673ffffffffffffffffffffffffffffffffffffffff16815260200190815260200160002054905084811015612045576040517f08c379a000000000000000000000000000000000000000000000000000000000815260040180806020018281038252601f8152602001807f466c6173684d696e7465723a205265706179206e6f7420617070726f7665640081525060200191505060405180910390fd5b612058858261491590919063ffffffff16565b600860008873ffffffffffffffffffffffffffffffffffffffff1673ffffffffffffffffffffffffffffffffffffffff16815260200190815260200160002060003073ffffffffffffffffffffffffffffffffffffffff1673ffffffffffffffffffffffffffffffffffffffff168152602001908152602001600020819055506000600760008873ffffffffffffffffffffffffffffffffffffffff1673ffffffffffffffffffffffffffffffffffffffff1681526020019081526020016000205490508581101561212957600080fd5b61213c868261491590919063ffffffff16565b600760008973ffffffffffffffffffffffffffffffffffffffff1673ffffffffffffffffffffffffffffffffffffffff168152602001908152602001600020819055508673ffffffffffffffffffffffffffffffffffffffff167f9defe0f433e65e5880836b8b536cdf6dfd331348bbae707fa3b77a5a9bccdc74878a604051808381526020018281526020019250505060405180910390a26121ea8860065461491590919063ffffffff16565b60068190555060019d505050505050505050505050612901565b6000600760008573ffffffffffffffffffffffffffffffffffffffff1673ffffffffffffffffffffffffffffffffffffffff16815260200190815260200160002054905061225484848484613b95565b3073ffffffffffffffffffffffffffffffffffffffff168a73ffffffffffffffffffffffffffffffffffffffff161461228c57600080fd5b7fffffffffffffffffffffffffffffffffffffffffffffffffffffffffffffffff6006548a0111156122bd57600080fd5b600060015490506123166122e3620f424063ffffffff16836147bd90919063ffffffff16565b6006547fffffffffffffffffffffffffffffffffffffffffffffffffffffffffffffffff0361484590919063ffffffff16565b8a111561232257600080fd5b6000620f424063ffffffff16612341838d61488f90919063ffffffff16565b8161234857fe5b04905060008d90506123a28c600760008473ffffffffffffffffffffffffffffffffffffffff1673ffffffffffffffffffffffffffffffffffffffff168152602001908152602001600020546147bd90919063ffffffff16565b600760008373ffffffffffffffffffffffffffffffffffffffff1673ffffffffffffffffffffffffffffffffffffffff168152602001908152602001600020819055508073ffffffffffffffffffffffffffffffffffffffff167f5b9ea35ccc2de5176fed8512b7b27b62fd5c98bce089f76ef67287ffa759db9d8d6040518082815260200191505060405180910390a26000612448838e6147bd90919063ffffffff16565b905060008e905060008e905060608e8e8080601f016020809104026020016040519081016040528093929190818152602001838380828437600081840152601f19601f82011690508083019250505050505050905060008573ffffffffffffffffffffffffffffffffffffffff166323e30c8b3386868b876040518663ffffffff1660e01b8152600401808673ffffffffffffffffffffffffffffffffffffffff1673ffffffffffffffffffffffffffffffffffffffff1681526020018573ffffffffffffffffffffffffffffffffffffffff1673ffffffffffffffffffffffffffffffffffffffff16815260200184815260200183815260200180602001828103825283818151815260200191508051906020019080838360005b8381101561257f578082015181840152602081019050612564565b50505050905090810190601f1680156125ac5780820380516001836020036101000a031916815260200191505b509650505050505050602060405180830381600087803b1580156125cf57600080fd5b505af11580156125e3573d6000803e3d6000fd5b505050506040513d60208110156125f957600080fd5b810190808051906020019092919050505090508060405180807f45524333313536466c617368426f72726f7765722e6f6e466c6173684c6f616e815250602001905060405180910390201461264d57600080fd5b506000600860008773ffffffffffffffffffffffffffffffffffffffff1673ffffffffffffffffffffffffffffffffffffffff16815260200190815260200160002060003073ffffffffffffffffffffffffffffffffffffffff1673ffffffffffffffffffffffffffffffffffffffff16815260200190815260200160002054905084811015612745576040517f08c379a000000000000000000000000000000000000000000000000000000000815260040180806020018281038252601f8152602001807f466c6173684d696e7465723a205265706179206e6f7420617070726f7665640081525060200191505060405180910390fd5b612758858261491590919063ffffffff16565b600860008873ffffffffffffffffffffffffffffffffffffffff1673ffffffffffffffffffffffffffffffffffffffff16815260200190815260200160002060003073ffffffffffffffffffffffffffffffffffffffff1673ffffffffffffffffffffffffffffffffffffffff168152602001908152602001600020819055506000600760008873ffffffffffffffffffffffffffffffffffffffff1673ffffffffffffffffffffffffffffffffffffffff1681526020019081526020016000205490508581101561282957600080fd5b61283c868261491590919063ffffffff16565b600760008973ffffffffffffffffffffffffffffffffffffffff1673ffffffffffffffffffffffffffffffffffffffff168152602001908152602001600020819055508673ffffffffffffffffffffffffffffffffffffffff167f9defe0f433e65e5880836b8b536cdf6dfd331348bbae707fa3b77a5a9bccdc74878a604051808381526020018281526020019250505060405180910390a26128ea8860065461491590919063ffffffff16565b60068190555060019e505050505050505050505050505b505060008060006101000a81548160ff021916908360ff16021790555095945050505050565b60008060009054906101000a900460ff1660ff161461294557600080fd5b60016000806101000a81548160ff021916908360ff16021790555084600073ffffffffffffffffffffffffffffffffffffffff168473ffffffffffffffffffffffffffffffffffffffff161461299b578361299d565b335b81612b87578473ffffffffffffffffffffffffffffffffffffffff163373ffffffffffffffffffffffffffffffffffffffff1614156129db57600080fd5b600073ffffffffffffffffffffffffffffffffffffffff168573ffffffffffffffffffffffffffffffffffffffff1614158015612a155750865b15612a2757612a25853387614069565b505b612a2f615004565b612a3a338888614069565b90506000601360003373ffffffffffffffffffffffffffffffffffffffff1673ffffffffffffffffffffffffffffffffffffffff16815260200190815260200160002060008973ffffffffffffffffffffffffffffffffffffffff1673ffffffffffffffffffffffffffffffffffffffff16815260200190815260200160002060008873ffffffffffffffffffffffffffffffffffffffff1673ffffffffffffffffffffffffffffffffffffffff16815260200190815260200160002090506000861315612b2657612b198683600001516147bd90919063ffffffff16565b8160000181905550612b58565b6000861215612b5757612b4e612b3b8761495f565b836000015161491590919063ffffffff16565b81600001819055505b5b60008514612b8057612b778583602001516149a990919063ffffffff16565b81600101819055505b50506131c2565b6000600b8054905090506000811415612d80578573ffffffffffffffffffffffffffffffffffffffff163373ffffffffffffffffffffffffffffffffffffffff161415612bd357600080fd5b600073ffffffffffffffffffffffffffffffffffffffff168673ffffffffffffffffffffffffffffffffffffffff1614158015612c0d5750875b15612c1f57612c1d863388614069565b505b612c27615004565b612c32338989614069565b90506000601360003373ffffffffffffffffffffffffffffffffffffffff1673ffffffffffffffffffffffffffffffffffffffff16815260200190815260200160002060008a73ffffffffffffffffffffffffffffffffffffffff1673ffffffffffffffffffffffffffffffffffffffff16815260200190815260200160002060008973ffffffffffffffffffffffffffffffffffffffff1673ffffffffffffffffffffffffffffffffffffffff16815260200190815260200160002090506000871315612d1e57612d118783600001516147bd90919063ffffffff16565b8160000181905550612d50565b6000871215612d4f57612d46612d338861495f565b836000015161491590919063ffffffff16565b81600001819055505b5b60008614612d7857612d6f8683602001516149a990919063ffffffff16565b81600101819055505b5050506131c2565b60ff80168111612d905780612d95565b60ff80165b9050600060065490506000811415612f8e578673ffffffffffffffffffffffffffffffffffffffff163373ffffffffffffffffffffffffffffffffffffffff161415612de057600080fd5b600073ffffffffffffffffffffffffffffffffffffffff168773ffffffffffffffffffffffffffffffffffffffff1614158015612e1a5750885b15612e2c57612e2a873389614069565b505b612e34615004565b612e3f338a8a614069565b90506000601360003373ffffffffffffffffffffffffffffffffffffffff1673ffffffffffffffffffffffffffffffffffffffff16815260200190815260200160002060008b73ffffffffffffffffffffffffffffffffffffffff1673ffffffffffffffffffffffffffffffffffffffff16815260200190815260200160002060008a73ffffffffffffffffffffffffffffffffffffffff1673ffffffffffffffffffffffffffffffffffffffff16815260200190815260200160002090506000881315612f2b57612f1e8883600001516147bd90919063ffffffff16565b8160000181905550612f5d565b6000881215612f5c57612f53612f408961495f565b836000015161491590919063ffffffff16565b81600001819055505b5b60008714612f8557612f7c8783602001516149a990919063ffffffff16565b81600101819055505b505050506131c2565b6000600760008573ffffffffffffffffffffffffffffffffffffffff1673ffffffffffffffffffffffffffffffffffffffff168152602001908152602001600020549050612fde84848484613b95565b8773ffffffffffffffffffffffffffffffffffffffff163373ffffffffffffffffffffffffffffffffffffffff16141561301757600080fd5b600073ffffffffffffffffffffffffffffffffffffffff168873ffffffffffffffffffffffffffffffffffffffff16141580156130515750895b156130635761306188338a614069565b505b61306b615004565b613076338b8b614069565b90506000601360003373ffffffffffffffffffffffffffffffffffffffff1673ffffffffffffffffffffffffffffffffffffffff16815260200190815260200160002060008c73ffffffffffffffffffffffffffffffffffffffff1673ffffffffffffffffffffffffffffffffffffffff16815260200190815260200160002060008b73ffffffffffffffffffffffffffffffffffffffff1673ffffffffffffffffffffffffffffffffffffffff16815260200190815260200160002090506000891315613162576131558983600001516147bd90919063ffffffff16565b8160000181905550613194565b60008912156131935761318a6131778a61495f565b836000015161491590919063ffffffff16565b81600001819055505b5b600088146131bc576131b38883602001516149a990919063ffffffff16565b81600101819055505b50505050505b505060008060006101000a81548160ff021916908360ff1602179055505050505050565b600060019054906101000a900473ffffffffffffffffffffffffffffffffffffffff1681565b600060019054906101000a900473ffffffffffffffffffffffffffffffffffffffff1673ffffffffffffffffffffffffffffffffffffffff163373ffffffffffffffffffffffffffffffffffffffff16146132cf576040517f08c379a000000000000000000000000000000000000000000000000000000000815260040180806020018281038252600a8152602001807f6f6e6c79206f776e65720000000000000000000000000000000000000000000081525060200191505060405180910390fd5b600073ffffffffffffffffffffffffffffffffffffffff168173ffffffffffffffffffffffffffffffffffffffff16146133455780600060016101000a81548173ffffffffffffffffffffffffffffffffffffffff021916908373ffffffffffffffffffffffffffffffffffffffff1602179055505b50565b5b8660ff168160ff161015613aa8576000600b8260ff168154811061336957fe5b9060005260206000200160009054906101000a900473ffffffffffffffffffffffffffffffffffffffff169050600073ffffffffffffffffffffffffffffffffffffffff168173ffffffffffffffffffffffffffffffffffffffff1614156133d15750613a9b565b6000600e8360ff16815481106133e357fe5b9060005260206000200154905060008060158560ff168154811061340357fe5b9060005260206000200160008b73ffffffffffffffffffffffffffffffffffffffff1673ffffffffffffffffffffffffffffffffffffffff16815260200190815260200160002060008a73ffffffffffffffffffffffffffffffffffffffff1673ffffffffffffffffffffffffffffffffffffffff16815260200190815260200160002060008973ffffffffffffffffffffffffffffffffffffffff1673ffffffffffffffffffffffffffffffffffffffff1681526020019081526020016000205490506000600f8660ff16815481106134d957fe5b906000526020600020015490508082116134f357806134f5565b815b91506000614000871661ffff1611156135da5760008973ffffffffffffffffffffffffffffffffffffffff1663f406f089886040518263ffffffff1660e01b8152600401808260ff16815260200191505060206040518083038186803b15801561355e57600080fd5b505afa158015613572573d6000803e3d6000fd5b505050506040513d602081101561358857600080fd5b81019080805190602001909291905050509050808210156135d857808310156135d457670de0b6b3a76400006135c98a85840361488f90919063ffffffff16565b816135d057fe5b0493505b8092505b505b838210156136f75761361a670de0b6b3a76400006136038985880361488f90919063ffffffff16565b8161360a57fe5b04846147bd90919063ffffffff16565b92508360158760ff168154811061362d57fe5b9060005260206000200160008d73ffffffffffffffffffffffffffffffffffffffff1673ffffffffffffffffffffffffffffffffffffffff16815260200190815260200160002060008c73ffffffffffffffffffffffffffffffffffffffff1673ffffffffffffffffffffffffffffffffffffffff16815260200190815260200160002060008b73ffffffffffffffffffffffffffffffffffffffff1673ffffffffffffffffffffffffffffffffffffffff168152602001908152602001600020819055506137e0565b6000614000871661ffff1611156137df578160158760ff168154811061371957fe5b9060005260206000200160008d73ffffffffffffffffffffffffffffffffffffffff1673ffffffffffffffffffffffffffffffffffffffff16815260200190815260200160002060008c73ffffffffffffffffffffffffffffffffffffffff1673ffffffffffffffffffffffffffffffffffffffff16815260200190815260200160002060008b73ffffffffffffffffffffffffffffffffffffffff1673ffffffffffffffffffffffffffffffffffffffff168152602001908152602001600020819055505b5b6001831115613a955782806001900393505061385c8360118860ff168154811061380657fe5b9060005260206000200160008e73ffffffffffffffffffffffffffffffffffffffff1673ffffffffffffffffffffffffffffffffffffffff1681526020019081526020016000205461491590919063ffffffff16565b60118760ff168154811061386c57fe5b9060005260206000200160008d73ffffffffffffffffffffffffffffffffffffffff1673ffffffffffffffffffffffffffffffffffffffff168152602001908152602001600020819055506000612000871661ffff161115613992576139328360118860ff16815481106138dc57fe5b9060005260206000200160008d73ffffffffffffffffffffffffffffffffffffffff1673ffffffffffffffffffffffffffffffffffffffff168152602001908152602001600020546147bd90919063ffffffff16565b60118760ff168154811061394257fe5b9060005260206000200160008c73ffffffffffffffffffffffffffffffffffffffff1673ffffffffffffffffffffffffffffffffffffffff16815260200190815260200160002081905550613a94565b6139bd8a848773ffffffffffffffffffffffffffffffffffffffff16614a379092919063ffffffff16565b8473ffffffffffffffffffffffffffffffffffffffff166370a08231306040518263ffffffff1660e01b8152600401808273ffffffffffffffffffffffffffffffffffffffff1673ffffffffffffffffffffffffffffffffffffffff16815260200191505060206040518083038186803b158015613a3a57600080fd5b505afa158015613a4e573d6000803e3d6000fd5b505050506040513d6020811015613a6457600080fd5b8101908080519060200190929190505050600d8760ff1681548110613a8557fe5b90600052602060002001819055505b5b50505050505b8080600101915050613349565b6000614000821661ffff161115613b8c576001601460008873ffffffffffffffffffffffffffffffffffffffff1673ffffffffffffffffffffffffffffffffffffffff16815260200190815260200160002060008773ffffffffffffffffffffffffffffffffffffffff1673ffffffffffffffffffffffffffffffffffffffff16815260200190815260200160002060008673ffffffffffffffffffffffffffffffffffffffff1673ffffffffffffffffffffffffffffffffffffffff16815260200190815260200160002060006101000a81548160ff0219169083151502179055505b50505050505050565b6000601260008673ffffffffffffffffffffffffffffffffffffffff1673ffffffffffffffffffffffffffffffffffffffff16815260200190815260200160002060009054906101000a900460ff16613bef576000613bf3565b6180005b90505b838160ff161015614062576000600b8260ff1681548110613c1357fe5b9060005260206000200160009054906101000a900473ffffffffffffffffffffffffffffffffffffffff169050600073ffffffffffffffffffffffffffffffffffffffff168173ffffffffffffffffffffffffffffffffffffffff161415613c7b5750614055565b6000808273ffffffffffffffffffffffffffffffffffffffff166370a08231306040518263ffffffff1660e01b8152600401808273ffffffffffffffffffffffffffffffffffffffff1673ffffffffffffffffffffffffffffffffffffffff16815260200191505060206040518083038186803b158015613cfb57600080fd5b505afa158015613d0f573d6000803e3d6000fd5b505050506040513d6020811015613d2557600080fd5b810190808051906020019092919050505090506000600d8560ff1681548110613d4a57fe5b906000526020600020015490506000613d9888613d8a670de0b6b3a7640000613d7c868861491590919063ffffffff16565b61488f90919063ffffffff16565b61484590919063ffffffff16565b9050613dc781600e8860ff1681548110613dae57fe5b90600052602060002001546147bd90919063ffffffff16565b93505050600060108560ff1681548110613ddd57fe5b9060005260206000200160008a73ffffffffffffffffffffffffffffffffffffffff1673ffffffffffffffffffffffffffffffffffffffff1681526020019081526020016000205490506000600f8660ff1681548110613e3957fe5b90600052602060002001549050808211613e535780613e55565b815b915083821015614011576000670de0b6b3a7640000613e7f8985880361488f90919063ffffffff16565b81613e8657fe5b0490508460108860ff1681548110613e9a57fe5b9060005260206000200160008d73ffffffffffffffffffffffffffffffffffffffff1673ffffffffffffffffffffffffffffffffffffffff16815260200190815260200160002081905550600081111561400f576000600f8861ffff16901c61ffff161115613fcd57613f6d8160118960ff1681548110613f1757fe5b9060005260206000200160008e73ffffffffffffffffffffffffffffffffffffffff1673ffffffffffffffffffffffffffffffffffffffff168152602001908152602001600020546147bd90919063ffffffff16565b60118860ff1681548110613f7d57fe5b9060005260206000200160008d73ffffffffffffffffffffffffffffffffffffffff1673ffffffffffffffffffffffffffffffffffffffff1681526020019081526020016000208190555061400e565b613ff88b828873ffffffffffffffffffffffffffffffffffffffff16614a379092919063ffffffff16565b61400b818561491590919063ffffffff16565b93505b5b505b82600d8760ff168154811061402257fe5b906000526020600020018190555083600e8760ff168154811061404157fe5b906000526020600020018190555050505050505b8080600101915050613bf6565b5050505050565b614071615004565b8173ffffffffffffffffffffffffffffffffffffffff168473ffffffffffffffffffffffffffffffffffffffff161461417f57601360008573ffffffffffffffffffffffffffffffffffffffff1673ffffffffffffffffffffffffffffffffffffffff16815260200190815260200160002060008473ffffffffffffffffffffffffffffffffffffffff1673ffffffffffffffffffffffffffffffffffffffff16815260200190815260200160002060008373ffffffffffffffffffffffffffffffffffffffff1673ffffffffffffffffffffffffffffffffffffffff1681526020019081526020016000206040518060400160405290816000820154815260200160018201548152505090505b6000600b80549050905060008111156147b55760ff801681116141a257806141a7565b60ff80165b90508273ffffffffffffffffffffffffffffffffffffffff168573ffffffffffffffffffffffffffffffffffffffff16141561429f578273ffffffffffffffffffffffffffffffffffffffff1663bfd5105f856040518263ffffffff1660e01b8152600401808273ffffffffffffffffffffffffffffffffffffffff1673ffffffffffffffffffffffffffffffffffffffff16815260200191505060206040518083038186803b15801561425a57600080fd5b505afa15801561426e573d6000803e3d6000fd5b505050506040513d602081101561428457600080fd5b81019080805190602001909291905050508260000181815250505b600073ffffffffffffffffffffffffffffffffffffffff168373ffffffffffffffffffffffffffffffffffffffff161415614351576000601260008673ffffffffffffffffffffffffffffffffffffffff1673ffffffffffffffffffffffffffffffffffffffff16815260200190815260200160002060009054906101000a900460ff1661432e576000614332565b6120005b905061434b828787878760000151886000015187613348565b506147b4565b60008373ffffffffffffffffffffffffffffffffffffffff1663fd23ae026040518163ffffffff1660e01b815260040160206040518083038186803b15801561439957600080fd5b505afa1580156143ad573d6000803e3d6000fd5b505050506040513d60208110156143c357600080fd5b810190808051906020019092919050505090506000601260008773ffffffffffffffffffffffffffffffffffffffff1673ffffffffffffffffffffffffffffffffffffffff16815260200190815260200160002060009054906101000a900460ff16614430576000614434565b6120005b8280156145055750601460008973ffffffffffffffffffffffffffffffffffffffff1673ffffffffffffffffffffffffffffffffffffffff16815260200190815260200160002060008873ffffffffffffffffffffffffffffffffffffffff1673ffffffffffffffffffffffffffffffffffffffff16815260200190815260200160002060008773ffffffffffffffffffffffffffffffffffffffff1673ffffffffffffffffffffffffffffffffffffffff16815260200190815260200160002060009054906101000a900460ff16155b614510576000614514565b6140005b83614520576000614524565b6180005b171790508115614799578473ffffffffffffffffffffffffffffffffffffffff168773ffffffffffffffffffffffffffffffffffffffff161415614624578473ffffffffffffffffffffffffffffffffffffffff1663bf0994bf876040518263ffffffff1660e01b8152600401808273ffffffffffffffffffffffffffffffffffffffff1673ffffffffffffffffffffffffffffffffffffffff16815260200191505060206040518083038186803b1580156145df57600080fd5b505afa1580156145f3573d6000803e3d6000fd5b505050506040513d602081101561460957600080fd5b81019080805190602001909291905050508460200181815250505b60008573ffffffffffffffffffffffffffffffffffffffff1663cfe8d91c6040518163ffffffff1660e01b815260040160206040518083038186803b15801561466c57600080fd5b505afa158015614680573d6000803e3d6000fd5b505050506040513d602081101561469657600080fd5b81019080805190602001909291905050509050600081116146b657600080fd5b60008086602001511261470e576000826146e5670de0b6b3a7640000896020015161488f90919063ffffffff16565b816146ec57fe5b0490506147068188600001516147bd90919063ffffffff16565b91505061477f565b6000614737670de0b6b3a7640000614729896020015161495f565b61488f90919063ffffffff16565b9050600083828161474457fe5b0614614751576001614754565b60005b60ff1683828161476057fe5b0401905061477b81886000015161491590919063ffffffff16565b9150505b614792858a8a8a8a600001518689613348565b50506147b1565b6147b0838888888860000151896000015187613348565b5b50505b5b509392505050565b60008082840190508381101561483b576040517f08c379a000000000000000000000000000000000000000000000000000000000815260040180806020018281038252601b8152602001807f536166654d6174683a206164646974696f6e206f766572666c6f77000000000081525060200191505060405180910390fd5b8091505092915050565b600061488783836040518060400160405280601a81526020017f536166654d6174683a206469766973696f6e206279207a65726f000000000000815250614aef565b905092915050565b6000808314156148a2576000905061490f565b60008284029050828482816148b357fe5b041461490a576040517f08c379a00000000000000000000000000000000000000000000000000000000081526004018080602001828103825260218152602001806150666021913960400191505060405180910390fd5b809150505b92915050565b600061495783836040518060400160405280601e81526020017f536166654d6174683a207375627472616374696f6e206f766572666c6f770000815250614bb5565b905092915050565b6000808212614970578190506149a4565b7f800000000000000000000000000000000000000000000000000000000000000082141561499d57600080fd5b8160000390505b919050565b6000808284019050600083121580156149c25750838112155b806149d857506000831280156149d757508381125b5b614a2d576040517f08c379a000000000000000000000000000000000000000000000000000000000815260040180806020018281038252602181526020018061501f6021913960400191505060405180910390fd5b8091505092915050565b614aea8363a9059cbb60e01b8484604051602401808373ffffffffffffffffffffffffffffffffffffffff1673ffffffffffffffffffffffffffffffffffffffff16815260200182815260200192505050604051602081830303815290604052907bffffffffffffffffffffffffffffffffffffffffffffffffffffffff19166020820180517bffffffffffffffffffffffffffffffffffffffffffffffffffffffff8381831617835250505050614c75565b505050565b60008083118290614b9b576040517f08c379a00000000000000000000000000000000000000000000000000000000081526004018080602001828103825283818151815260200191508051906020019080838360005b83811015614b60578082015181840152602081019050614b45565b50505050905090810190601f168015614b8d5780820380516001836020036101000a031916815260200191505b509250505060405180910390fd5b506000838581614ba757fe5b049050809150509392505050565b6000838311158290614c62576040517f08c379a00000000000000000000000000000000000000000000000000000000081526004018080602001828103825283818151815260200191508051906020019080838360005b83811015614c27578082015181840152602081019050614c0c565b50505050905090810190601f168015614c545780820380516001836020036101000a031916815260200191505b509250505060405180910390fd5b5060008385039050809150509392505050565b6060614cd7826040518060400160405280602081526020017f5361666545524332303a206c6f772d6c6576656c2063616c6c206661696c65648152508573ffffffffffffffffffffffffffffffffffffffff16614d649092919063ffffffff16565b9050600081511115614d5f57808060200190516020811015614cf857600080fd5b8101908080519060200190929190505050614d5e576040517f08c379a000000000000000000000000000000000000000000000000000000000815260040180806020018281038252602a815260200180615087602a913960400191505060405180910390fd5b5b505050565b6060614d738484600085614d7c565b90509392505050565b606082471015614dd7576040517f08c379a00000000000000000000000000000000000000000000000000000000081526004018080602001828103825260268152602001806150406026913960400191505060405180910390fd5b614de085614f25565b614e52576040517f08c379a000000000000000000000000000000000000000000000000000000000815260040180806020018281038252601d8152602001807f416464726573733a2063616c6c20746f206e6f6e2d636f6e747261637400000081525060200191505060405180910390fd5b600060608673ffffffffffffffffffffffffffffffffffffffff1685876040518082805190602001908083835b60208310614ea25780518252602082019150602081019050602083039250614e7f565b6001836020036101000a03801982511681845116808217855250505050505090500191505060006040518083038185875af1925050503d8060008114614f04576040519150601f19603f3d011682016040523d82523d6000602084013e614f09565b606091505b5091509150614f19828286614f38565b92505050949350505050565b600080823b905060008111915050919050565b60608315614f4857829050614ffd565b600083511115614f5b5782518084602001fd5b816040517f08c379a00000000000000000000000000000000000000000000000000000000081526004018080602001828103825283818151815260200191508051906020019080838360005b83811015614fc2578082015181840152602081019050614fa7565b50505050905090810190601f168015614fef5780820380516001836020036101000a031916815260200191505b509250505060405180910390fd5b9392505050565b60405180604001604052806000815260200160008152509056fe5369676e6564536166654d6174683a206164646974696f6e206f766572666c6f77416464726573733a20696e73756666696369656e742062616c616e636520666f722063616c6c536166654d6174683a206d756c7469706c69636174696f6e206f766572666c6f775361666545524332303a204552433230206f7065726174696f6e20646964206e6f742073756363656564a26469706673582212205b60ddfeca6226c8aa43e7cb99e0c40b65c7f49db27a88a1b8f0931caafd19f664736f6c63430006080033",
  "immutableReferences": {},
  "source": "// SPDX-License-Identifier: MIT\npragma solidity >=0.6.8 <0.7.0;\n\nimport \"../../interfaces/IERC20.sol\";\nimport \"../../interfaces/IInfoOracle.sol\";\nimport \"../../interfaces/IFixCapitalPool.sol\";\nimport \"../../libraries/SafeMath.sol\";\nimport \"../../libraries/SignedSafeMath.sol\";\nimport \"../../libraries/ABDKMath64x64.sol\";\nimport \"../../libraries/BigMath.sol\";\nimport \"../../libraries/SafeERC20.sol\";\nimport \"./NGBwrapperDelegateParent.sol\";\n\ncontract NGBwrapperDelegate2 is NGBwrapperDelegateParent {\n\tusing SafeMath for uint256;\n\tusing SignedSafeMath for int256;\n\tusing ABDKMath64x64 for int128;\n    using SafeERC20 for IERC20;\n\n    /*\n        @Description: change the amount of bond and yield in a subaccount\n\n        @param address _claimRewards: pass true to enter the claimRewards modifier\n            for either msg.sender or the _FCPaddr, depending on if _FCPaddr == address(0)\n        @param address _subAccount: the sub account owner address, receives rewards\n        @param address _FCPaddr: the address of the FCP for which sub account balances are held\n        @param int _changeYield: change in the yield amount in the sub account,\n            final amount - initial amount\n        @param int _changeBond: the change in the bond amount for the sub account,\n            final amount - initial amount\n    */\n    function editSubAccountPosition(\n        bool _claimRewards,\n        address _subAcct,\n        address _FCPaddr,\n        int changeYield,\n        int changeBond\n    ) external noReentry claimRewards(_claimRewards, (_FCPaddr == address(0) ? msg.sender : _FCPaddr)) {\n        require(msg.sender != _FCPaddr); //must not be an FCP direct subaccount\n        //msg.sender is the distributionAccount\n        if (_FCPaddr != address(0) && _claimRewards) {\n            claimSubAccountRewardsRetPos(_FCPaddr, msg.sender, _FCPaddr);\n        }\n        SubAccountPosition memory mPos = claimSubAccountRewardsRetPos(msg.sender, _subAcct, _FCPaddr);\n        SubAccountPosition storage sPos = internalSubAccountPositions[msg.sender][_subAcct][_FCPaddr];\n\n        if (changeYield > 0) {\n            sPos.yield = mPos.yield.add(uint(changeYield));\n        }\n        else if (changeYield < 0) {\n            sPos.yield = mPos.yield.sub(uint(changeYield.abs()));\n        }\n\n        if (changeBond != 0) {\n            sPos.bond = mPos.bond.add(changeBond);\n        }\n    }\n\n    /*\n        @Description: force rewards for a sub account to be distributed\n\n        @param bool _claimRewards: pass true to enter the claimRewards modifier for the distribution account\n        @param address _distributionAccount: the address of the distribution account for the sub account\n        @param address _subAccount: the address that is the owner of the sub account and shall receive the rewards\n        @param address _FCPaddr: the address of the FCP contract for which the sub account amounts are denominated\n    */\n    function forceClaimSubAccountRewards(\n        bool _claimRewards,\n        address _distributionAccount,\n        address _subAccount,\n        address _FCPaddr\n    ) external noReentry claimRewards(_claimRewards, _distributionAccount) {\n        require(msg.sender == _distributionAccount || msg.sender == _subAccount);\n        claimSubAccountRewardsRetPos(_distributionAccount, _subAccount, _FCPaddr);\n    }\n\n    /*\n        @Description: force rewards for an FCP direct sub account to be claimed\n            only callable by FCP contracts\n\n        @param bool _inPayoutPhase: true if the FCP is in the payout phase\n        @param bool _claimRewards: true if the FCP should claim its rewards\n        @param address _subAcct: the owner of the FCP Direct sub account for which to claim rewards\n        @param uint _yield: the yield amount in the ZCB & YT position of _subAcct\n        @param uint _wrappedClaim: the effective amount of the wrapper asset used to calculate the\n            distribution of rewards to _subAcct\n    */\n    function FCPDirectClaimSubAccountRewards(\n        bool _inPayoutPhase,\n        bool _claimRewards,\n        address _subAcct,\n        uint _yield,\n        uint _wrappedClaim\n    ) external noReentry claimRewards(_claimRewards, msg.sender) {\n        uint len = internalRewardsAssets.length;\n        if (len > 0) {\n            len = len > type(uint8).max ? type(uint8).max : len;\n            uint16 flags = (_inPayoutPhase ? 1 << 15 : 0) |\n                (_inPayoutPhase && !internalHasClaimedAllYTrewards[msg.sender][_subAcct][msg.sender] ? 1 << 14 : 0) |\n                (internalIsDistributionAccount[_subAcct] ? 1 << 13 : 0);\n            subaccountDistributeRewards(uint8(len), msg.sender, _subAcct, msg.sender, _yield, _wrappedClaim, flags);\n        }\n    }\n\n    /*\n        @Description: claim rewareds for a sub account\n\n        @param address _distributionAccount: the distribution account\n        @param address _subAcct: the address that shall receive rewards from the sub account\n        @param address _FCPaddr: the base FCP address of the sub account,\n            if _FCPaddr is address(0) that means there is no base FCP,\n            there are only wrapped asset deposits in the sub account,\n            ie the sub account bond amount will always be 0\n    */\n    function claimSubAccountRewardsRetPos(\n        address _distributionAcct,\n        address _subAcct,\n        address _FCPaddr\n    ) internal returns(SubAccountPosition memory mPos) {\n        if(_distributionAcct != _FCPaddr) {\n            mPos = internalSubAccountPositions[_distributionAcct][_subAcct][_FCPaddr];\n        }\n        uint len = internalRewardsAssets.length;\n        if (len > 0) {\n            len = len > type(uint8).max ? type(uint8).max : len;\n            if (_distributionAcct == _FCPaddr) {\n                mPos.yield = IFixCapitalPool(_FCPaddr).balanceYield(_subAcct);\n            }\n            if (_FCPaddr == address(0)) {\n                uint16 flags = internalIsDistributionAccount[_subAcct] ? 1 << 13 : 0;\n                subaccountDistributeRewards(uint8(len), _distributionAcct, _subAcct, _FCPaddr, mPos.yield, mPos.yield, flags);\n            }\n            else {\n                bool inPayoutPhase = IFixCapitalPool(_FCPaddr).inPayoutPhase();\n                uint16 flags = (inPayoutPhase ? 1 << 15 : 0) |\n                    (inPayoutPhase && !internalHasClaimedAllYTrewards[_distributionAcct][_subAcct][_FCPaddr] ? 1 << 14 : 0) |\n                    (internalIsDistributionAccount[_subAcct] ? 1 << 13 : 0);\n                if (inPayoutPhase) {\n                    if (_distributionAcct == _FCPaddr) {\n                        mPos.bond = IFixCapitalPool(_FCPaddr).balanceBonds(_subAcct);\n                    }\n                    uint maturityConversionRate = IFixCapitalPool(_FCPaddr).maturityConversionRate();\n                    require(maturityConversionRate > 0); //prevent div by 0\n                    uint wrappedZCBConvValue;\n                    if (mPos.bond >= 0) {\n                        uint wrappedValueBond = uint(mPos.bond).mul(1 ether) / maturityConversionRate;\n                        wrappedZCBConvValue = mPos.yield.add(wrappedValueBond);\n                    }\n                    else {\n                        uint wrappedValueBond = uint(mPos.bond.abs()).mul(1 ether);\n                        wrappedValueBond = (wrappedValueBond/maturityConversionRate) + (wrappedValueBond%maturityConversionRate == 0 ? 0 : 1);\n                        wrappedZCBConvValue = mPos.yield.sub(wrappedValueBond);\n                    }\n                    subaccountDistributeRewards(uint8(len), _distributionAcct, _subAcct, _FCPaddr, mPos.yield, wrappedZCBConvValue, flags);\n                }\n                else {\n                    subaccountDistributeRewards(uint8(len), _distributionAcct, _subAcct, _FCPaddr, mPos.yield, mPos.yield, flags);\n                }\n            }\n        }\n    }\n\n    /*\n        @Description: distribute rewards generated by a subaccount\n\n        @param uint8 _len: the number of rewards assets to distribute rewards for\n        @param address _distributionAcct: the distribution account of the sub account\n        @param address _subAcct: the address that shall receive rewards from the sub account\n        @param address _FCPaddr: the base FCP address of the sub account,\n            if _FCPaddr is address(0) that means there is no base FCP,\n            there are only wrapped asset deposits in the sub account,\n            ie the sub account bond amount will always be 0\n        @param uint _yield: the yield amount of the sub account\n        @param uint _balanceAddr: the effective amount of wrapped asset in rewards claim weileded by the sub account\n            if _FCPaddr is address(0) or the FCP is not yet in payout phase this will be equal to _yield\n        @param uint i: format:\n            i & (1 << 15) > 0 == inPayoutPhase\n            i & (1 << 14) > 0 == subAcct0 get YT & ZCB rewards\n            i & (1 << 13) > 0 == subAcct0 is distribution account\n            uint8(i) == current index in rewards assets array\n    */\n    function subaccountDistributeRewards(\n        uint8 _len,\n        address _distributionAcct,\n        address _subAcct,\n        address _FCPaddr,\n        uint _yield,\n        uint _balanceAddr,\n        uint16 i\n    ) internal {\n        for (; uint8(i) < _len; i++) {\n            address _rewardsAddr = internalRewardsAssets[uint8(i)];\n            if (_rewardsAddr == address(0)) {\n                continue;\n            }\n            uint newTRPC = internalTotalRewardsPerWasset[uint8(i)];\n            uint dividend;\n            uint prevTotalRewardsPerClaim = internalSAPTRPW[uint8(i)][_distributionAcct][_subAcct][_FCPaddr];\n            uint activationTRPW = internalTRPWuponActivation[uint8(i)];\n            prevTotalRewardsPerClaim = prevTotalRewardsPerClaim > activationTRPW ? prevTotalRewardsPerClaim : activationTRPW;\n            if (i & (1 << 14) > 0) {\n                //collect all YT associated rewards\n                uint TRPY = IFixCapitalPool(_FCPaddr).TotalRewardsPerWassetAtMaturity(uint8(i));\n                if (activationTRPW < TRPY) {\n                    if (prevTotalRewardsPerClaim < TRPY) {\n                        dividend = (TRPY - prevTotalRewardsPerClaim).mul(_yield) / (1 ether);\n                    }\n                    prevTotalRewardsPerClaim = TRPY;\n                }\n            }\n\n            if (prevTotalRewardsPerClaim < newTRPC) {\n                dividend = dividend.add((newTRPC - prevTotalRewardsPerClaim).mul(_balanceAddr) / (1 ether));\n                internalSAPTRPW[uint8(i)][_distributionAcct][_subAcct][_FCPaddr] = newTRPC;\n            }\n            else if (i & (1 << 14) > 0) {\n                internalSAPTRPW[uint8(i)][_distributionAcct][_subAcct][_FCPaddr] = prevTotalRewardsPerClaim;\n            }\n\n            if (dividend > 1) {\n                dividend--; //sub 1 from dividend to prevent rounding errors resulting in dist acct insolvency by small amounts\n                internalDistributionAccountRewards[uint8(i)][_distributionAcct] = internalDistributionAccountRewards[uint8(i)][_distributionAcct].sub(dividend);\n                if (i & (1 << 13) > 0) {\n                    internalDistributionAccountRewards[uint8(i)][_subAcct] = internalDistributionAccountRewards[uint8(i)][_subAcct].add(dividend);\n                }\n                else {\n                    IERC20(_rewardsAddr).safeTransfer(_subAcct, dividend);\n                    internalPrevContractBalance[uint8(i)] = IERC20(_rewardsAddr).balanceOf(address(this));\n                }\n            }\n        }\n        if (i & (1 << 14) > 0) {\n            internalHasClaimedAllYTrewards[_distributionAcct][_subAcct][_FCPaddr] = true;\n        }\n    }\n\n    function flashLoan(\n        IERC3156FlashBorrower receiver,\n        address token,\n        uint256 amount,\n        bytes calldata data\n    ) external noReentry claimRewards(true, address(receiver)) returns (bool) {\n        require(token == address(this));\n        require(amount + internalTotalSupply <= uint256(-1));\n        uint _flashLoanFee = internalFlashLoanFee;\n        require(amount <= (uint256(-1) - internalTotalSupply).div(_flashLoanFee.add(totalSBPS)));\n        uint fee = amount.mul(_flashLoanFee) / totalSBPS;        \n        address recAddr = address(receiver);\n        internalBalanceOf[recAddr] = internalBalanceOf[recAddr].add(amount);\n        emit FlashMint(recAddr, amount);\n        uint toRepay = amount.add(fee);\n        address copyToken = token;\n        uint copyAmount = amount;\n        bytes memory copyData = data;\n\n        {\n            bytes32 out = IERC3156FlashBorrower(recAddr).onFlashLoan(msg.sender, copyToken, copyAmount, fee, copyData);\n            require(CALLBACK_SUCCESS == out);\n        }\n\n        uint256 _allowance = internalAllowance[recAddr][address(this)];\n        require(_allowance >= toRepay, \"FlashMinter: Repay not approved\");\n        internalAllowance[recAddr][address(this)] = _allowance.sub(toRepay);\n\n        uint balance = internalBalanceOf[recAddr];\n        require(balance >= toRepay);\n        internalBalanceOf[recAddr] = balance.sub(toRepay);\n        emit FlashBurn(recAddr, toRepay, fee);\n        /*\n            the flashloan fee is burned, thus we must decrement the total supply by the fee amount\n            this distributes the fee among all wrapped asset holders\n        */\n        internalTotalSupply = internalTotalSupply.sub(fee);\n        return true;\n    }\n\n}",
  "sourcePath": "/home/asher/FixFinanceV1/contracts/Wrappers/NGBwrapper/NGBwrapperDelegate2.sol",
  "compiler": {
    "name": "solc",
    "version": "0.6.8+commit.0bbfe453.Emscripten.clang"
  },
  "schemaVersion": "3.4.1",
  "updatedAt": "2021-11-26T19:15:55.988Z",
  "devdoc": {
    "methods": {}
  },
  "userdoc": {
    "methods": {}
  }
}