{
  "contractName": "NGBwrapperDelegateParent",
  "abi": [
    {
      "anonymous": false,
      "inputs": [
        {
          "indexed": true,
          "internalType": "address",
          "name": "from",
          "type": "address"
        },
        {
          "indexed": false,
          "internalType": "uint256",
          "name": "wrappedAmount",
          "type": "uint256"
        },
        {
          "indexed": false,
          "internalType": "uint256",
          "name": "feeAmount",
          "type": "uint256"
        }
      ],
      "name": "FlashBurn",
      "type": "event"
    },
    {
      "anonymous": false,
      "inputs": [
        {
          "indexed": true,
          "internalType": "address",
          "name": "to",
          "type": "address"
        },
        {
          "indexed": false,
          "internalType": "uint256",
          "name": "wrappedAmount",
          "type": "uint256"
        }
      ],
      "name": "FlashMint",
      "type": "event"
    },
    {
      "inputs": [],
      "name": "owner",
      "outputs": [
        {
          "internalType": "address",
          "name": "",
          "type": "address"
        }
      ],
      "stateMutability": "view",
      "type": "function"
    },
    {
      "inputs": [
        {
          "internalType": "address",
          "name": "newOwner",
          "type": "address"
        }
      ],
      "name": "transferOwnership",
      "outputs": [],
      "stateMutability": "nonpayable",
      "type": "function"
    }
  ],
  "bytecode": "0x60806040526103e8600155620f3e58600260006101000a81548163ffffffff021916908363ffffffff16021790555034801561003a57600080fd5b5033600060016101000a81548173ffffffffffffffffffffffffffffffffffffffff021916908373ffffffffffffffffffffffffffffffffffffffff1602179055506102618061008b6000396000f3fe608060405234801561001057600080fd5b50600436106100365760003560e01c80638da5cb5b1461003b578063f2fde38b14610085575b600080fd5b6100436100c9565b604051808273ffffffffffffffffffffffffffffffffffffffff1673ffffffffffffffffffffffffffffffffffffffff16815260200191505060405180910390f35b6100c76004803603602081101561009b57600080fd5b81019080803573ffffffffffffffffffffffffffffffffffffffff1690602001909291905050506100ef565b005b600060019054906101000a900473ffffffffffffffffffffffffffffffffffffffff1681565b600060019054906101000a900473ffffffffffffffffffffffffffffffffffffffff1673ffffffffffffffffffffffffffffffffffffffff163373ffffffffffffffffffffffffffffffffffffffff16146101b2576040517f08c379a000000000000000000000000000000000000000000000000000000000815260040180806020018281038252600a8152602001807f6f6e6c79206f776e65720000000000000000000000000000000000000000000081525060200191505060405180910390fd5b600073ffffffffffffffffffffffffffffffffffffffff168173ffffffffffffffffffffffffffffffffffffffff16146102285780600060016101000a81548173ffffffffffffffffffffffffffffffffffffffff021916908373ffffffffffffffffffffffffffffffffffffffff1602179055505b5056fea2646970667358221220322f3f46a1c54d53b79633d8c168a219f834bf7eed8a54fed922c0072fd5c3ad64736f6c63430006080033",
  "immutableReferences": {},
  "source": "// SPDX-License-Identifier: MIT\npragma solidity >=0.6.8 <0.7.0;\n\nimport \"../../interfaces/IERC20.sol\";\nimport \"../../libraries/SafeMath.sol\";\nimport \"../../libraries/ABDKMath64x64.sol\";\nimport \"../../libraries/SafeERC20.sol\";\nimport \"./NGBwrapperInternals.sol\";\n\ncontract NGBwrapperDelegateParent is NGBwrapperInternals {\n\tusing SafeMath for uint256;\n\tusing ABDKMath64x64 for int128;\n\tusing SafeERC20 for IERC20;\n\n\tevent FlashMint(\n\t\taddress indexed to,\n\t\tuint wrappedAmount\n\t);\n\n\tevent FlashBurn(\n\t\taddress indexed from,\n\t\tuint wrappedAmount,\n\t\tuint feeAmount\n\t);\n\n\t/*\n\t\t@Description: claim rewards for an address holding the wrapped asset of the wrapper contract, modifier form\n\t\n\t\t@param bool _claim: if false don't do not do any computation return immediately\n\t\t\tif true go ahead and actually claim rewards\n\t\t@param address _addr: the address for which to claim rewards\n\t*/\n\tmodifier claimRewards(bool _claim, address _addr) {\n\t\tif (!_claim) {\n\t\t\t_;\n\t\t\treturn;\n\t\t}\n\t\tuint len = internalRewardsAssets.length;\n\t\tif (len == 0) {\n\t\t\t_;\n\t\t\treturn;\n\t\t}\n\t\tlen = len > type(uint8).max ? type(uint8).max : len;\n\t\tuint _totalSupply = internalTotalSupply;\n\t\tif (_totalSupply == 0) {\n\t\t\t_;\n\t\t\treturn;\n\t\t}\n\t\tuint balanceAddr = internalBalanceOf[_addr];\n\t\tinternalClaimRewards(_addr, len, _totalSupply, balanceAddr);\n\t\t_;\n\t}\n\n\t/*\n\t\t@Description: claim rewards for an address holding the wrapped asset of the wrapper contract, internal function\n\n\t\t@param address _addr: the address for which to claim rewards\n\t\t@param uint _len: the length of the rewards asset array\n\t\t@param uint _totalSupply: copy of internalTotalSupply\n\t\t@param uint _balanceAddr: the balance of the address for which to claim rewards\n\t*/\n\tfunction internalClaimRewards(address _addr, uint _len, uint _totalSupply, uint _balanceAddr) internal {\n\t\tuint16 i = internalIsDistributionAccount[_addr] ? 1 << 15 : 0;\n\t\tfor ( ; uint8(i) < _len; i++) {\n\t\t\taddress _rewardsAddr = internalRewardsAssets[uint8(i)];\n\t\t\tif (_rewardsAddr == address(0)) {\n\t\t\t\tcontinue;\n\t\t\t}\n\t\t\tuint newTRPW;\n\t\t\tuint CBRA = IERC20(_rewardsAddr).balanceOf(address(this)); //contract balance rewards asset\n\t\t\t{\n\t\t\t\tuint prevCBRA = internalPrevContractBalance[uint8(i)];\n\t\t\t\tuint newRewardsPerWasset = CBRA.sub(prevCBRA).mul(1 ether).div(_totalSupply);\n\t\t\t\tnewTRPW = internalTotalRewardsPerWasset[uint8(i)].add(newRewardsPerWasset);\n\t\t\t}\n\t\t\tuint prevTRPW = internalPrevTotalRewardsPerWasset[uint8(i)][_addr];\n\t\t\tuint activationTRPW = internalTRPWuponActivation[uint8(i)];\n\t\t\tprevTRPW = prevTRPW > activationTRPW ? prevTRPW : activationTRPW;\n\t\t\tif (prevTRPW < newTRPW) {\n\t\t\t\tuint dividend = (newTRPW - prevTRPW).mul(_balanceAddr) / (1 ether);\n\t\t\t\tinternalPrevTotalRewardsPerWasset[uint8(i)][_addr] = newTRPW;\n\t\t\t\tif (dividend > 0) {\n\t\t\t\t\tif (i >> 15 > 0) {\n\t\t\t\t\t\tinternalDistributionAccountRewards[uint8(i)][_addr] = internalDistributionAccountRewards[uint8(i)][_addr].add(dividend);\n\t\t\t\t\t}\n\t\t\t\t\telse {\n\t\t\t\t\t\tIERC20(_rewardsAddr).safeTransfer(_addr, dividend);\n\t\t\t\t\t\tCBRA = CBRA.sub(dividend);\n\t\t\t\t\t}\n\t\t\t\t}\n\t\t\t}\n\t\t\tinternalPrevContractBalance[uint8(i)] = CBRA;\n\t\t\tinternalTotalRewardsPerWasset[uint8(i)] = newTRPW;\n\t\t}\n\t}\n\n\t/*\n\t\t@Description: claim rewards for two addresses holding the wrapped asset of the wrapper contract\n\t\n\t\t@param address _addr0: the first address for which to claim rewards\n\t\t@param address _addr1: the second address for which to claim rewards\n\t*/\n\tmodifier doubleClaimRewards(address _addr0, address _addr1) {\n\t\tuint len = internalRewardsAssets.length;\n\t\tif (len == 0) {\n\t\t\t_;\n\t\t\treturn;\n\t\t}\n\t\tlen = len > type(uint8).max ? type(uint8).max : len;\n\t\tuint _totalSupply = internalTotalSupply;\n\t\tif (_totalSupply == 0) {\n\t\t\t_;\n\t\t\treturn;\n\t\t}\n\t\tuint balanceAddr0 = internalBalanceOf[_addr0];\n\t\tuint balanceAddr1 = internalBalanceOf[_addr1];\n\t\tinternalDoubleClaimRewards(_addr0, _addr1, len, _totalSupply, balanceAddr0, balanceAddr1);\n\t\t_;\n\t}\n\n\tfunction internalDoubleClaimRewards(\n\t\taddress _addr0,\n\t\taddress _addr1,\n\t\tuint len,\n\t\tuint _totalSupply,\n\t\tuint balanceAddr0,\n\t\tuint balanceAddr1\n\t) internal {\n\t\t/*\n\t\t\tto save stack space multiple vars will be stored within i\n\t\t\tmost significant bit = addr0 is distribution account\n\t\t\tnext most significant bit = addr1 is distribution account\n\t\t\tleast significant 8 bits = current index\n\t\t*/\n\t\tuint16 i = (internalIsDistributionAccount[_addr0] ? 1 << 15 : 0)\n\t\t\t| (internalIsDistributionAccount[_addr1] ? 1 << 14 : 0);\n\t\tfor (; uint8(i) < len; i++) {\n\t\t\taddress _rewardsAddr = internalRewardsAssets[uint8(i)];\n\t\t\tif (_rewardsAddr == address(0)) {\n\t\t\t\tcontinue;\n\t\t\t}\n\t\t\tuint newTRPW;\n\t\t\tuint CBRA = IERC20(_rewardsAddr).balanceOf(address(this)); //contract balance rewards asset\n\t\t\t{\n\t\t\t\tuint prevCBRA = internalPrevContractBalance[uint8(i)];\n\t\t\t\tuint newRewardsPerWasset = CBRA.sub(prevCBRA).mul(1 ether).div(_totalSupply);\n\t\t\t\tnewTRPW = internalTotalRewardsPerWasset[uint8(i)].add(newRewardsPerWasset);\n\t\t\t}\n\t\t\tuint prevTRPW = internalPrevTotalRewardsPerWasset[uint8(i)][_addr0];\n\t\t\tuint activationTRPW = internalTRPWuponActivation[uint8(i)];\n\t\t\tprevTRPW = prevTRPW > activationTRPW ? prevTRPW : activationTRPW;\n\t\t\tbool getContractBalanceAgain = false;\n\t\t\tif (prevTRPW < newTRPW) {\n\t\t\t\tuint dividend = (newTRPW - prevTRPW).mul(balanceAddr0) / (1 ether);\n\t\t\t\tgetContractBalanceAgain = dividend > 0;\n\t\t\t\taddress addr = _addr0; // prevent stack too deep\n\t\t\t\tinternalPrevTotalRewardsPerWasset[uint8(i)][addr] = newTRPW;\n\t\t\t\tif (i >> 15 > 0) {\n\t\t\t\t\tinternalDistributionAccountRewards[uint8(i)][addr] = internalDistributionAccountRewards[uint8(i)][addr].add(dividend);\n\t\t\t\t}\n\t\t\t\telse {\n\t\t\t\t\tIERC20(_rewardsAddr).safeTransfer(addr, dividend);\n\t\t\t\t\tCBRA = CBRA.sub(dividend);\n\t\t\t\t}\n\t\t\t}\n\t\t\tprevTRPW = internalPrevTotalRewardsPerWasset[uint8(i)][_addr1];\n\t\t\tprevTRPW = prevTRPW > activationTRPW ? prevTRPW : activationTRPW;\n\t\t\tif (prevTRPW < newTRPW) {\n\t\t\t\tuint dividend = (newTRPW - prevTRPW).mul(balanceAddr1) / (1 ether);\n\t\t\t\tgetContractBalanceAgain = getContractBalanceAgain || dividend > 0;\n\t\t\t\taddress addr = _addr1; // prevent stack too deep\n\t\t\t\tinternalPrevTotalRewardsPerWasset[uint8(i)][addr] = newTRPW;\n\t\t\t\tif (1 & (i >> 14) > 0) {\n\t\t\t\t\tinternalDistributionAccountRewards[uint8(i)][addr] = internalDistributionAccountRewards[uint8(i)][addr].add(dividend);\n\t\t\t\t}\n\t\t\t\telse {\n\t\t\t\t\tIERC20(_rewardsAddr).safeTransfer(addr, dividend);\n\t\t\t\t\tCBRA = CBRA.sub(dividend);\n\t\t\t\t}\n\t\t\t}\n\t\t\tinternalPrevContractBalance[uint8(i)] = CBRA;\n\t\t\tinternalTotalRewardsPerWasset[uint8(i)] = newTRPW;\n\t\t}\n\t}\n\n}",
  "sourcePath": "/home/asher/FixFinanceV1/contracts/Wrappers/NGBwrapper/NGBwrapperDelegateParent.sol",
  "compiler": {
    "name": "solc",
    "version": "0.6.8+commit.0bbfe453.Emscripten.clang"
  },
  "schemaVersion": "3.4.1",
  "updatedAt": "2021-11-26T19:15:56.017Z",
  "devdoc": {
    "methods": {}
  },
  "userdoc": {
    "methods": {}
  }
}