{
  "contractName": "NGBwrapperInternals",
  "abi": [
    {
      "inputs": [],
      "name": "owner",
      "outputs": [
        {
          "internalType": "address",
          "name": "",
          "type": "address"
        }
      ],
      "stateMutability": "view",
      "type": "function"
    },
    {
      "inputs": [
        {
          "internalType": "address",
          "name": "newOwner",
          "type": "address"
        }
      ],
      "name": "transferOwnership",
      "outputs": [],
      "stateMutability": "nonpayable",
      "type": "function"
    }
  ],
  "bytecode": "0x60806040526103e8600155620f3e58600260006101000a81548163ffffffff021916908363ffffffff16021790555034801561003a57600080fd5b5033600060016101000a81548173ffffffffffffffffffffffffffffffffffffffff021916908373ffffffffffffffffffffffffffffffffffffffff1602179055506102618061008b6000396000f3fe608060405234801561001057600080fd5b50600436106100365760003560e01c80638da5cb5b1461003b578063f2fde38b14610085575b600080fd5b6100436100c9565b604051808273ffffffffffffffffffffffffffffffffffffffff1673ffffffffffffffffffffffffffffffffffffffff16815260200191505060405180910390f35b6100c76004803603602081101561009b57600080fd5b81019080803573ffffffffffffffffffffffffffffffffffffffff1690602001909291905050506100ef565b005b600060019054906101000a900473ffffffffffffffffffffffffffffffffffffffff1681565b600060019054906101000a900473ffffffffffffffffffffffffffffffffffffffff1673ffffffffffffffffffffffffffffffffffffffff163373ffffffffffffffffffffffffffffffffffffffff16146101b2576040517f08c379a000000000000000000000000000000000000000000000000000000000815260040180806020018281038252600a8152602001807f6f6e6c79206f776e65720000000000000000000000000000000000000000000081525060200191505060405180910390fd5b600073ffffffffffffffffffffffffffffffffffffffff168173ffffffffffffffffffffffffffffffffffffffff16146102285780600060016101000a81548173ffffffffffffffffffffffffffffffffffffffff021916908373ffffffffffffffffffffffffffffffffffffffff1602179055505b5056fea2646970667358221220d25252e6aaf832b4a809d7575a552eaaf2d32910413012a94b9030d9377111a864736f6c63430006080033",
  "immutableReferences": {},
  "source": "// SPDX-License-Identifier: MIT\npragma solidity >=0.6.8 <0.7.0;\n\nimport \"../../interfaces/IERC20.sol\";\nimport \"../../libraries/SafeMath.sol\";\nimport \"../../libraries/ABDKMath64x64.sol\";\nimport \"./NGBwrapperData.sol\";\n\ncontract NGBwrapperInternals is NGBwrapperData {\n\tusing SafeMath for uint256;\n\tusing ABDKMath64x64 for int128;\n\n\t/*\n\t\t@Description: get the ratio of underlyingAsset / wrappedAsset\n\t*/\n\tfunction getRatio() internal view returns (uint) {\n\t\tuint _totalSupply = internalTotalSupply;\t\n\t\tuint _prevRatio = internalPrevRatio;\n\t\tuint contractBalance = IERC20(internalUnderlyingAssetAddress).balanceOf(address(this));\n\t\tuint nonFeeAdjustedRatio = uint(1 ether).mul(contractBalance).div(_totalSupply);\n\t\t//handle odd case, most likely only caused by rounding error (off by 1)\n\t\tif (nonFeeAdjustedRatio <= _prevRatio) {\n\t\t\treturn _prevRatio;\n\t\t}\n\t\tuint minNewRatio = (nonFeeAdjustedRatio-_prevRatio)\n\t\t\t.mul(minHarvestRetention)\n\t\t\t.div(totalSBPS)\n\t\t\t.add(_prevRatio);\n\t\treturn minNewRatio;\n\t}\n\n}",
  "sourcePath": "/home/asher/FixFinanceV1/contracts/Wrappers/NGBwrapper/NGBwrapperInternals.sol",
  "compiler": {
    "name": "solc",
    "version": "0.6.8+commit.0bbfe453.Emscripten.clang"
  },
  "schemaVersion": "3.4.1",
  "updatedAt": "2021-11-26T19:15:56.029Z",
  "devdoc": {
    "methods": {}
  },
  "userdoc": {
    "methods": {}
  }
}