{
  "contractName": "NGBwrapperDelegate1",
  "abi": [
    {
      "anonymous": false,
      "inputs": [
        {
          "indexed": true,
          "internalType": "address",
          "name": "from",
          "type": "address"
        },
        {
          "indexed": false,
          "internalType": "uint256",
          "name": "wrappedAmount",
          "type": "uint256"
        },
        {
          "indexed": false,
          "internalType": "uint256",
          "name": "feeAmount",
          "type": "uint256"
        }
      ],
      "name": "FlashBurn",
      "type": "event"
    },
    {
      "anonymous": false,
      "inputs": [
        {
          "indexed": true,
          "internalType": "address",
          "name": "to",
          "type": "address"
        },
        {
          "indexed": false,
          "internalType": "uint256",
          "name": "wrappedAmount",
          "type": "uint256"
        }
      ],
      "name": "FlashMint",
      "type": "event"
    },
    {
      "inputs": [],
      "name": "owner",
      "outputs": [
        {
          "internalType": "address",
          "name": "",
          "type": "address"
        }
      ],
      "stateMutability": "view",
      "type": "function"
    },
    {
      "inputs": [
        {
          "internalType": "address",
          "name": "newOwner",
          "type": "address"
        }
      ],
      "name": "transferOwnership",
      "outputs": [],
      "stateMutability": "nonpayable",
      "type": "function"
    },
    {
      "inputs": [],
      "name": "harvestToTreasury",
      "outputs": [],
      "stateMutability": "nonpayable",
      "type": "function"
    },
    {
      "inputs": [
        {
          "internalType": "address",
          "name": "_to",
          "type": "address"
        },
        {
          "internalType": "uint256",
          "name": "_amount",
          "type": "uint256"
        }
      ],
      "name": "depositUnitAmount",
      "outputs": [
        {
          "internalType": "uint256",
          "name": "_amountWrapped",
          "type": "uint256"
        }
      ],
      "stateMutability": "nonpayable",
      "type": "function"
    },
    {
      "inputs": [
        {
          "internalType": "address",
          "name": "_to",
          "type": "address"
        },
        {
          "internalType": "uint256",
          "name": "_amount",
          "type": "uint256"
        }
      ],
      "name": "depositWrappedAmount",
      "outputs": [
        {
          "internalType": "uint256",
          "name": "_amountUnit",
          "type": "uint256"
        }
      ],
      "stateMutability": "nonpayable",
      "type": "function"
    },
    {
      "inputs": [
        {
          "internalType": "address",
          "name": "_to",
          "type": "address"
        },
        {
          "internalType": "uint256",
          "name": "_amountUnit",
          "type": "uint256"
        },
        {
          "internalType": "bool",
          "name": "_claimRewards",
          "type": "bool"
        }
      ],
      "name": "withdrawUnitAmount",
      "outputs": [
        {
          "internalType": "uint256",
          "name": "_amountWrappedToken",
          "type": "uint256"
        }
      ],
      "stateMutability": "nonpayable",
      "type": "function"
    },
    {
      "inputs": [
        {
          "internalType": "address",
          "name": "_to",
          "type": "address"
        },
        {
          "internalType": "uint256",
          "name": "_amountWrappedToken",
          "type": "uint256"
        },
        {
          "internalType": "bool",
          "name": "_claimRewards",
          "type": "bool"
        }
      ],
      "name": "withdrawWrappedAmount",
      "outputs": [
        {
          "internalType": "uint256",
          "name": "_amountUnit",
          "type": "uint256"
        }
      ],
      "stateMutability": "nonpayable",
      "type": "function"
    },
    {
      "inputs": [],
      "name": "forceRewardsCollection",
      "outputs": [],
      "stateMutability": "nonpayable",
      "type": "function"
    }
  ],
  "bytecode": "0x60806040526103e8600155620f3e58600260006101000a81548163ffffffff021916908363ffffffff16021790555034801561003a57600080fd5b5033600060016101000a81548173ffffffffffffffffffffffffffffffffffffffff021916908373ffffffffffffffffffffffffffffffffffffffff160217905550613e538061008b6000396000f3fe608060405234801561001057600080fd5b50600436106100885760003560e01c8063776926931161005b57806377692693146101d55780638da5cb5b146101df578063db0c15f114610229578063f2fde38b1461028b57610088565b80632f5084661461008d578063302f1756146100ef5780634c7b57f01461015d5780635b6d4046146101cb575b600080fd5b6100d9600480360360408110156100a357600080fd5b81019080803573ffffffffffffffffffffffffffffffffffffffff169060200190929190803590602001909291905050506102cf565b6040518082815260200191505060405180910390f35b6101476004803603606081101561010557600080fd5b81019080803573ffffffffffffffffffffffffffffffffffffffff16906020019092919080359060200190929190803515159060200190929190505050610404565b6040518082815260200191505060405180910390f35b6101b56004803603606081101561017357600080fd5b81019080803573ffffffffffffffffffffffffffffffffffffffff16906020019092919080359060200190929190803515159060200190929190505050610b21565b6040518082815260200191505060405180910390f35b6101d3611306565b005b6101dd611388565b005b6101e7611488565b604051808273ffffffffffffffffffffffffffffffffffffffff1673ffffffffffffffffffffffffffffffffffffffff16815260200191505060405180910390f35b6102756004803603604081101561023f57600080fd5b81019080803573ffffffffffffffffffffffffffffffffffffffff169060200190929190803590602001909291905050506114ae565b6040518082815260200191505060405180910390f35b6102cd600480360360208110156102a157600080fd5b81019080803573ffffffffffffffffffffffffffffffffffffffff16906020019092919050505061160b565b005b6000806000809054906101000a900460ff1660ff16146102ee57600080fd5b60016000806101000a81548160ff021916908360ff160217905550600183816103225761031b8585611747565b92506103e1565b6000600b80549050905060008114156103475761033f8686611747565b9350506103e1565b60ff80168111610357578061035c565b60ff80165b9050600060065490506000811415610381576103788787611747565b945050506103e1565b6000600760008573ffffffffffffffffffffffffffffffffffffffff1673ffffffffffffffffffffffffffffffffffffffff1681526020019081526020016000205490506103d1848484846118ad565b6103db8888611747565b95505050505b505060008060006101000a81548160ff021916908360ff16021790555092915050565b6000806000809054906101000a900460ff1660ff161461042357600080fd5b60016000806101000a81548160ff021916908360ff1602179055508133816105d05784600760003373ffffffffffffffffffffffffffffffffffffffff1673ffffffffffffffffffffffffffffffffffffffff16815260200190815260200160002054101561049157600080fd5b6000600260049054906101000a900473ffffffffffffffffffffffffffffffffffffffff1690506000806104c483611d81565b915091506104ed826104df8a84611dc590919063ffffffff16565b611e4b90919063ffffffff16565b955061054188600760003373ffffffffffffffffffffffffffffffffffffffff1673ffffffffffffffffffffffffffffffffffffffff16815260200190815260200160002054611e9590919063ffffffff16565b600760003373ffffffffffffffffffffffffffffffffffffffff1673ffffffffffffffffffffffffffffffffffffffff168152602001908152602001600020819055506105978883611e9590919063ffffffff16565b6006819055506105c889878573ffffffffffffffffffffffffffffffffffffffff16611edf9092919063ffffffff16565b505050610afd565b6000600b805490509050600081141561076f5785600760003373ffffffffffffffffffffffffffffffffffffffff1673ffffffffffffffffffffffffffffffffffffffff16815260200190815260200160002054101561062f57600080fd5b6000600260049054906101000a900473ffffffffffffffffffffffffffffffffffffffff16905060008061066283611d81565b9150915061068b8261067d8b84611dc590919063ffffffff16565b611e4b90919063ffffffff16565b96506106df89600760003373ffffffffffffffffffffffffffffffffffffffff1673ffffffffffffffffffffffffffffffffffffffff16815260200190815260200160002054611e9590919063ffffffff16565b600760003373ffffffffffffffffffffffffffffffffffffffff1673ffffffffffffffffffffffffffffffffffffffff168152602001908152602001600020819055506107358983611e9590919063ffffffff16565b6006819055506107668a888573ffffffffffffffffffffffffffffffffffffffff16611edf9092919063ffffffff16565b50505050610afd565b60ff8016811161077f5780610784565b60ff80165b90506000600654905060008114156109235786600760003373ffffffffffffffffffffffffffffffffffffffff1673ffffffffffffffffffffffffffffffffffffffff1681526020019081526020016000205410156107e257600080fd5b6000600260049054906101000a900473ffffffffffffffffffffffffffffffffffffffff16905060008061081583611d81565b9150915061083e826108308c84611dc590919063ffffffff16565b611e4b90919063ffffffff16565b97506108928a600760003373ffffffffffffffffffffffffffffffffffffffff1673ffffffffffffffffffffffffffffffffffffffff16815260200190815260200160002054611e9590919063ffffffff16565b600760003373ffffffffffffffffffffffffffffffffffffffff1673ffffffffffffffffffffffffffffffffffffffff168152602001908152602001600020819055506108e88a83611e9590919063ffffffff16565b6006819055506109198b898573ffffffffffffffffffffffffffffffffffffffff16611edf9092919063ffffffff16565b5050505050610afd565b6000600760008573ffffffffffffffffffffffffffffffffffffffff1673ffffffffffffffffffffffffffffffffffffffff168152602001908152602001600020549050610973848484846118ad565b87600760003373ffffffffffffffffffffffffffffffffffffffff1673ffffffffffffffffffffffffffffffffffffffff1681526020019081526020016000205410156109bf57600080fd5b6000600260049054906101000a900473ffffffffffffffffffffffffffffffffffffffff1690506000806109f283611d81565b91509150610a1b82610a0d8d84611dc590919063ffffffff16565b611e4b90919063ffffffff16565b9850610a6f8b600760003373ffffffffffffffffffffffffffffffffffffffff1673ffffffffffffffffffffffffffffffffffffffff16815260200190815260200160002054611e9590919063ffffffff16565b600760003373ffffffffffffffffffffffffffffffffffffffff1673ffffffffffffffffffffffffffffffffffffffff16815260200190815260200160002081905550610ac58b83611e9590919063ffffffff16565b600681905550610af68c8a8573ffffffffffffffffffffffffffffffffffffffff16611edf9092919063ffffffff16565b5050505050505b505060008060006101000a81548160ff021916908360ff1602179055509392505050565b6000806000809054906101000a900460ff1660ff1614610b4057600080fd5b60016000806101000a81548160ff021916908360ff160217905550813381610d1f576000600260049054906101000a900473ffffffffffffffffffffffffffffffffffffffff169050600080610b9583611d81565b91509150610bac8883611dc590919063ffffffff16565b9550610bf0610bc48288611e4b90919063ffffffff16565b6000838981610bcf57fe5b0614610bdc576001610bdf565b60005b60ff16611f9790919063ffffffff16565b955085600760003373ffffffffffffffffffffffffffffffffffffffff1673ffffffffffffffffffffffffffffffffffffffff168152602001908152602001600020541015610c3e57600080fd5b610c9086600760003373ffffffffffffffffffffffffffffffffffffffff1673ffffffffffffffffffffffffffffffffffffffff16815260200190815260200160002054611e9590919063ffffffff16565b600760003373ffffffffffffffffffffffffffffffffffffffff1673ffffffffffffffffffffffffffffffffffffffff16815260200190815260200160002081905550610ce68683611e9590919063ffffffff16565b600681905550610d1789898573ffffffffffffffffffffffffffffffffffffffff16611edf9092919063ffffffff16565b5050506112e2565b6000600b8054905090506000811415610ef0576000600260049054906101000a900473ffffffffffffffffffffffffffffffffffffffff169050600080610d6583611d81565b91509150610d7c8983611dc590919063ffffffff16565b9650610dc0610d948289611e4b90919063ffffffff16565b6000838a81610d9f57fe5b0614610dac576001610daf565b60005b60ff16611f9790919063ffffffff16565b965086600760003373ffffffffffffffffffffffffffffffffffffffff1673ffffffffffffffffffffffffffffffffffffffff168152602001908152602001600020541015610e0e57600080fd5b610e6087600760003373ffffffffffffffffffffffffffffffffffffffff1673ffffffffffffffffffffffffffffffffffffffff16815260200190815260200160002054611e9590919063ffffffff16565b600760003373ffffffffffffffffffffffffffffffffffffffff1673ffffffffffffffffffffffffffffffffffffffff16815260200190815260200160002081905550610eb68783611e9590919063ffffffff16565b600681905550610ee78a8a8573ffffffffffffffffffffffffffffffffffffffff16611edf9092919063ffffffff16565b505050506112e2565b60ff80168111610f005780610f05565b60ff80165b90506000600654905060008114156110d6576000600260049054906101000a900473ffffffffffffffffffffffffffffffffffffffff169050600080610f4a83611d81565b91509150610f618a83611dc590919063ffffffff16565b9750610fa5610f79828a611e4b90919063ffffffff16565b6000838b81610f8457fe5b0614610f91576001610f94565b60005b60ff16611f9790919063ffffffff16565b975087600760003373ffffffffffffffffffffffffffffffffffffffff1673ffffffffffffffffffffffffffffffffffffffff168152602001908152602001600020541015610ff357600080fd5b61104588600760003373ffffffffffffffffffffffffffffffffffffffff1673ffffffffffffffffffffffffffffffffffffffff16815260200190815260200160002054611e9590919063ffffffff16565b600760003373ffffffffffffffffffffffffffffffffffffffff1673ffffffffffffffffffffffffffffffffffffffff1681526020019081526020016000208190555061109b8883611e9590919063ffffffff16565b6006819055506110cc8b8b8573ffffffffffffffffffffffffffffffffffffffff16611edf9092919063ffffffff16565b50505050506112e2565b6000600760008573ffffffffffffffffffffffffffffffffffffffff1673ffffffffffffffffffffffffffffffffffffffff168152602001908152602001600020549050611126848484846118ad565b6000600260049054906101000a900473ffffffffffffffffffffffffffffffffffffffff16905060008061115983611d81565b915091506111708b83611dc590919063ffffffff16565b98506111b4611188828b611e4b90919063ffffffff16565b6000838c8161119357fe5b06146111a05760016111a3565b60005b60ff16611f9790919063ffffffff16565b985088600760003373ffffffffffffffffffffffffffffffffffffffff1673ffffffffffffffffffffffffffffffffffffffff16815260200190815260200160002054101561120257600080fd5b61125489600760003373ffffffffffffffffffffffffffffffffffffffff1673ffffffffffffffffffffffffffffffffffffffff16815260200190815260200160002054611e9590919063ffffffff16565b600760003373ffffffffffffffffffffffffffffffffffffffff1673ffffffffffffffffffffffffffffffffffffffff168152602001908152602001600020819055506112aa8983611e9590919063ffffffff16565b6006819055506112db8c8c8573ffffffffffffffffffffffffffffffffffffffff16611edf9092919063ffffffff16565b5050505050505b505060008060006101000a81548160ff021916908360ff1602179055509392505050565b60008060009054906101000a900460ff1660ff161461132457600080fd5b60016000806101000a81548160ff021916908360ff16021790555061136a600260049054906101000a900473ffffffffffffffffffffffffffffffffffffffff1661201f565b5060008060006101000a81548160ff021916908360ff160217905550565b60008060009054906101000a900460ff1660ff16146113a657600080fd5b60016000806101000a81548160ff021916908360ff160217905550600133816113ce57611469565b6000600b80549050905060008114156113e75750611469565b60ff801681116113f757806113fc565b60ff80165b9050600060065490506000811415611415575050611469565b6000600760008573ffffffffffffffffffffffffffffffffffffffff1673ffffffffffffffffffffffffffffffffffffffff168152602001908152602001600020549050611465848484846118ad565b5050505b505060008060006101000a81548160ff021916908360ff160217905550565b600060019054906101000a900473ffffffffffffffffffffffffffffffffffffffff1681565b6000806000809054906101000a900460ff1660ff16146114cd57600080fd5b60016000806101000a81548160ff021916908360ff1602179055506001838161150b576114f98461264a565b92506115058584611747565b506115e8565b6000600b805490509050600081141561153a576115278561264a565b93506115338685611747565b50506115e8565b60ff8016811161154a578061154f565b60ff80165b905060006006549050600081141561157e5761156a8661264a565b94506115768786611747565b5050506115e8565b6000600760008573ffffffffffffffffffffffffffffffffffffffff1673ffffffffffffffffffffffffffffffffffffffff1681526020019081526020016000205490506115ce848484846118ad565b6115d78761264a565b95506115e38887611747565b505050505b505060008060006101000a81548160ff021916908360ff16021790555092915050565b600060019054906101000a900473ffffffffffffffffffffffffffffffffffffffff1673ffffffffffffffffffffffffffffffffffffffff163373ffffffffffffffffffffffffffffffffffffffff16146116ce576040517f08c379a000000000000000000000000000000000000000000000000000000000815260040180806020018281038252600a8152602001807f6f6e6c79206f776e65720000000000000000000000000000000000000000000081525060200191505060405180910390fd5b600073ffffffffffffffffffffffffffffffffffffffff168173ffffffffffffffffffffffffffffffffffffffff16146117445780600060016101000a81548173ffffffffffffffffffffffffffffffffffffffff021916908373ffffffffffffffffffffffffffffffffffffffff1602179055505b50565b600080600260049054906101000a900473ffffffffffffffffffffffffffffffffffffffff16905060008061177b83611d81565b91509150600082141561179d576117938686856126c6565b93505050506118a7565b6117ca3330878673ffffffffffffffffffffffffffffffffffffffff166127f3909392919063ffffffff16565b6117f1816117e387600654611dc590919063ffffffff16565b611e4b90919063ffffffff16565b935061184584600760008973ffffffffffffffffffffffffffffffffffffffff1673ffffffffffffffffffffffffffffffffffffffff16815260200190815260200160002054611f9790919063ffffffff16565b600760008873ffffffffffffffffffffffffffffffffffffffff1673ffffffffffffffffffffffffffffffffffffffff1681526020019081526020016000208190555061189d84600654611f9790919063ffffffff16565b6006819055505050505b92915050565b6000601260008673ffffffffffffffffffffffffffffffffffffffff1673ffffffffffffffffffffffffffffffffffffffff16815260200190815260200160002060009054906101000a900460ff1661190757600061190b565b6180005b90505b838160ff161015611d7a576000600b8260ff168154811061192b57fe5b9060005260206000200160009054906101000a900473ffffffffffffffffffffffffffffffffffffffff169050600073ffffffffffffffffffffffffffffffffffffffff168173ffffffffffffffffffffffffffffffffffffffff1614156119935750611d6d565b6000808273ffffffffffffffffffffffffffffffffffffffff166370a08231306040518263ffffffff1660e01b8152600401808273ffffffffffffffffffffffffffffffffffffffff1673ffffffffffffffffffffffffffffffffffffffff16815260200191505060206040518083038186803b158015611a1357600080fd5b505afa158015611a27573d6000803e3d6000fd5b505050506040513d6020811015611a3d57600080fd5b810190808051906020019092919050505090506000600d8560ff1681548110611a6257fe5b906000526020600020015490506000611ab088611aa2670de0b6b3a7640000611a948688611e9590919063ffffffff16565b611dc590919063ffffffff16565b611e4b90919063ffffffff16565b9050611adf81600e8860ff1681548110611ac657fe5b9060005260206000200154611f9790919063ffffffff16565b93505050600060108560ff1681548110611af557fe5b9060005260206000200160008a73ffffffffffffffffffffffffffffffffffffffff1673ffffffffffffffffffffffffffffffffffffffff1681526020019081526020016000205490506000600f8660ff1681548110611b5157fe5b90600052602060002001549050808211611b6b5780611b6d565b815b915083821015611d29576000670de0b6b3a7640000611b9789858803611dc590919063ffffffff16565b81611b9e57fe5b0490508460108860ff1681548110611bb257fe5b9060005260206000200160008d73ffffffffffffffffffffffffffffffffffffffff1673ffffffffffffffffffffffffffffffffffffffff168152602001908152602001600020819055506000811115611d27576000600f8861ffff16901c61ffff161115611ce557611c858160118960ff1681548110611c2f57fe5b9060005260206000200160008e73ffffffffffffffffffffffffffffffffffffffff1673ffffffffffffffffffffffffffffffffffffffff16815260200190815260200160002054611f9790919063ffffffff16565b60118860ff1681548110611c9557fe5b9060005260206000200160008d73ffffffffffffffffffffffffffffffffffffffff1673ffffffffffffffffffffffffffffffffffffffff16815260200190815260200160002081905550611d26565b611d108b828873ffffffffffffffffffffffffffffffffffffffff16611edf9092919063ffffffff16565b611d238185611e9590919063ffffffff16565b93505b5b505b82600d8760ff1681548110611d3a57fe5b906000526020600020018190555083600e8760ff1681548110611d5957fe5b906000526020600020018190555050505050505b808060010191505061190e565b5050505050565b600080611d8c613d8a565b611d958461201f565b905080600060028110611da457fe5b602002015181600160028110611db657fe5b60200201519250925050915091565b600080831415611dd85760009050611e45565b6000828402905082848281611de957fe5b0414611e40576040517f08c379a0000000000000000000000000000000000000000000000000000000008152600401808060200182810382526021815260200180613dd36021913960400191505060405180910390fd5b809150505b92915050565b6000611e8d83836040518060400160405280601a81526020017f536166654d6174683a206469766973696f6e206279207a65726f0000000000008152506128e0565b905092915050565b6000611ed783836040518060400160405280601e81526020017f536166654d6174683a207375627472616374696f6e206f766572666c6f7700008152506129a6565b905092915050565b611f928363a9059cbb60e01b8484604051602401808373ffffffffffffffffffffffffffffffffffffffff1673ffffffffffffffffffffffffffffffffffffffff16815260200182815260200192505050604051602081830303815290604052907bffffffffffffffffffffffffffffffffffffffffffffffffffffffff19166020820180517bffffffffffffffffffffffffffffffffffffffffffffffffffffffff8381831617835250505050612a66565b505050565b600080828401905083811015612015576040517f08c379a000000000000000000000000000000000000000000000000000000000815260040180806020018281038252601b8152602001807f536166654d6174683a206164646974696f6e206f766572666c6f77000000000081525060200191505060405180910390fd5b8091505092915050565b612027613d8a565b6000600554905060006006549050600081141561205e57604051806040016040528060008152602001600081525092505050612645565b60008473ffffffffffffffffffffffffffffffffffffffff166370a08231306040518263ffffffff1660e01b8152600401808273ffffffffffffffffffffffffffffffffffffffff1673ffffffffffffffffffffffffffffffffffffffff16815260200191505060206040518083038186803b1580156120dd57600080fd5b505afa1580156120f1573d6000803e3d6000fd5b505050506040513d602081101561210757600080fd5b8101908080519060200190929190505050905082421415612141576040518060400160405280838152602001828152509350505050612645565b60006003549050600061216583670de0b6b3a7640000611dc590919063ffffffff16565b9050600061217c8583611e4b90919063ffffffff16565b90508281116121a7576040518060400160405280868152602001858152509650505050505050612645565b60006121f4846121e6620f424063ffffffff166121d8620c350063ffffffff16898803611dc590919063ffffffff16565b611e4b90919063ffffffff16565b611f9790919063ffffffff16565b905060006301e1853e6040894203901b8161220b57fe5b0490506000612253620f424063ffffffff166040600260009054906101000a900463ffffffff1663ffffffff16901b8161224157fe5b0461224e84600f0b612b55565b612b95565b600f0b90506000604061226f838b611dc590919063ffffffff16565b901c90506122868187611e4b90919063ffffffff16565b9550838610156122cb576122bd846122af670de0b6b3a76400008b611dc590919063ffffffff16565b611e4b90919063ffffffff16565b9050836003819055506122d3565b856003819055505b4260058190555060006122ef8a83611e9590919063ffffffff16565b90506000600460019054906101000a900473ffffffffffffffffffffffffffffffffffffffff16905060008060019054906101000a900473ffffffffffffffffffffffffffffffffffffffff1690508173ffffffffffffffffffffffffffffffffffffffff16637348c8576040518163ffffffff1660e01b815260040160206040518083038186803b15801561238457600080fd5b505afa158015612398573d6000803e3d6000fd5b505050506040513d60208110156123ae57600080fd5b8101908080519060200190929190505050156125835760008273ffffffffffffffffffffffffffffffffffffffff1663489e09516040518163ffffffff1660e01b815260040160206040518083038186803b15801561240c57600080fd5b505afa158015612420573d6000803e3d6000fd5b505050506040513d602081101561243657600080fd5b8101908080519060200190929190505050905061249f600185901c600760008473ffffffffffffffffffffffffffffffffffffffff1673ffffffffffffffffffffffffffffffffffffffff16815260200190815260200160002054611f9790919063ffffffff16565b600760008373ffffffffffffffffffffffffffffffffffffffff1673ffffffffffffffffffffffffffffffffffffffff1681526020019081526020016000208190555061253a600185901c8503600760008573ffffffffffffffffffffffffffffffffffffffff1673ffffffffffffffffffffffffffffffffffffffff16815260200190815260200160002054611f9790919063ffffffff16565b600760008473ffffffffffffffffffffffffffffffffffffffff1673ffffffffffffffffffffffffffffffffffffffff1681526020019081526020016000208190555050612619565b6125d583600760008473ffffffffffffffffffffffffffffffffffffffff1673ffffffffffffffffffffffffffffffffffffffff16815260200190815260200160002054611f9790919063ffffffff16565b600760008373ffffffffffffffffffffffffffffffffffffffff1673ffffffffffffffffffffffffffffffffffffffff168152602001908152602001600020819055505b8360068190555060405180604001604052808581526020018c8152509d50505050505050505050505050505b919050565b600080612655612bcb565b905061266a8184611dc590919063ffffffff16565b91506126be6000670de0b6b3a7640000848161268257fe5b061461268f576001612692565b60005b60ff166126b0670de0b6b3a764000085611e4b90919063ffffffff16565b611f9790919063ffffffff16565b915050919050565b60008173ffffffffffffffffffffffffffffffffffffffff1663313ce5676040518163ffffffff1660e01b815260040160206040518083038186803b15801561270e57600080fd5b505afa158015612722573d6000803e3d6000fd5b505050506040513d602081101561273857600080fd5b810190808051906020019092919050505060ff16600a0a83101561275b57600080fd5b6127883330858573ffffffffffffffffffffffffffffffffffffffff166127f3909392919063ffffffff16565b82600760008673ffffffffffffffffffffffffffffffffffffffff1673ffffffffffffffffffffffffffffffffffffffff168152602001908152602001600020819055508260068190555082905042600581905550670de0b6b3a76400006003819055509392505050565b6128da846323b872dd60e01b858585604051602401808473ffffffffffffffffffffffffffffffffffffffff1673ffffffffffffffffffffffffffffffffffffffff1681526020018373ffffffffffffffffffffffffffffffffffffffff1673ffffffffffffffffffffffffffffffffffffffff1681526020018281526020019350505050604051602081830303815290604052907bffffffffffffffffffffffffffffffffffffffffffffffffffffffff19166020820180517bffffffffffffffffffffffffffffffffffffffffffffffffffffffff8381831617835250505050612a66565b50505050565b6000808311829061298c576040517f08c379a00000000000000000000000000000000000000000000000000000000081526004018080602001828103825283818151815260200191508051906020019080838360005b83811015612951578082015181840152602081019050612936565b50505050905090810190601f16801561297e5780820380516001836020036101000a031916815260200191505b509250505060405180910390fd5b50600083858161299857fe5b049050809150509392505050565b6000838311158290612a53576040517f08c379a00000000000000000000000000000000000000000000000000000000081526004018080602001828103825283818151815260200191508051906020019080838360005b83811015612a185780820151818401526020810190506129fd565b50505050905090810190601f168015612a455780820380516001836020036101000a031916815260200191505b509250505060405180910390fd5b5060008385039050809150509392505050565b6060612ac8826040518060400160405280602081526020017f5361666545524332303a206c6f772d6c6576656c2063616c6c206661696c65648152508573ffffffffffffffffffffffffffffffffffffffff16612d579092919063ffffffff16565b9050600081511115612b5057808060200190516020811015612ae957600080fd5b8101908080519060200190929190505050612b4f576040517f08c379a000000000000000000000000000000000000000000000000000000000815260040180806020018281038252602a815260200180613df4602a913960400191505060405180910390fd5b5b505050565b60007fffffffffffffffffffffffffffffffff80000000000000000000000000000000600f0b82600f0b1415612b8a57600080fd5b816000039050919050565b6000612bc3612bbb83612baa86600f0b612d6f565b600f0b612e9790919063ffffffff16565b600f0b612f02565b905092915050565b6000806006549050600060035490506000600260049054906101000a900473ffffffffffffffffffffffffffffffffffffffff1673ffffffffffffffffffffffffffffffffffffffff166370a08231306040518263ffffffff1660e01b8152600401808273ffffffffffffffffffffffffffffffffffffffff1673ffffffffffffffffffffffffffffffffffffffff16815260200191505060206040518083038186803b158015612c7b57600080fd5b505afa158015612c8f573d6000803e3d6000fd5b505050506040513d6020811015612ca557600080fd5b810190808051906020019092919050505090506000612ce784612cd984670de0b6b3a7640000611dc590919063ffffffff16565b611e4b90919063ffffffff16565b9050828111612cfc5782945050505050612d54565b6000612d4984612d3b620f424063ffffffff16612d2d620c350063ffffffff16898803611dc590919063ffffffff16565b611e4b90919063ffffffff16565b611f9790919063ffffffff16565b905080955050505050505b90565b6060612d668484600085613b02565b90509392505050565b60008082600f0b13612d8057600080fd5b6000809050600083600f0b9050680100000000000000008112612dab57604081901d90506040820191505b6401000000008112612dc557602081901d90506020820191505b620100008112612ddd57601081901d90506010820191505b6101008112612df457600881901d90506008820191505b60108112612e0a57600481901d90506004820191505b60048112612e2057600281901d90506002820191505b60028112612e2f576001820191505b60006040808403901b9050600083607f0386600f0b901b9050600067800000000000000090505b6000811315612e8a578182029150600060ff83901c905080607f0183901c92508082028401935050600181901d9050612e56565b5081945050505050919050565b600080604083600f0b85600f0b02901d90507fffffffffffffffffffffffffffffffff80000000000000000000000000000000600f0b8112158015612eef57506f7fffffffffffffffffffffffffffffff600f0b8113155b612ef857600080fd5b8091505092915050565b60006840000000000000000082600f0b12612f1c57600080fd5b7fffffffffffffffffffffffffffffffffffffffffffffffc0000000000000000082600f0b1215612f505760009050613afd565b60006f80000000000000000000000000000000905060006780000000000000008416600f0b1315612f9657608070016a09e667f3bcc908b2fb1366ea957d3e8202901c90505b60006740000000000000008416600f0b1315612fc75760807001306fe0a31b7152de8d5a46305c85edec8202901c90505b60006720000000000000008416600f0b1315612ff85760807001172b83c7d517adcdf7c8c50eb14a791f8202901c90505b60006710000000000000008416600f0b131561302957608070010b5586cf9890f6298b92b71842a983638202901c90505b60006708000000000000008416600f0b131561305a5760807001059b0d31585743ae7c548eb68ca417fd8202901c90505b60006704000000000000008416600f0b131561308b576080700102c9a3e778060ee6f7caca4f7a29bde88202901c90505b60006702000000000000008416600f0b13156130bc57608070010163da9fb33356d84a66ae336dcdfa3f8202901c90505b60006701000000000000008416600f0b13156130ed576080700100b1afa5abcbed6129ab13ec11dc95438202901c90505b600066800000000000008416600f0b131561311d57608070010058c86da1c09ea1ff19d294cf2f679b8202901c90505b600066400000000000008416600f0b131561314d5760807001002c605e2e8cec506d21bfc89a23a00f8202901c90505b600066200000000000008416600f0b131561317d576080700100162f3904051fa128bca9c55c31e5df8202901c90505b600066100000000000008416600f0b13156131ad5760807001000b175effdc76ba38e31671ca9397258202901c90505b600066080000000000008416600f0b13156131dd576080700100058ba01fb9f96d6cacd4b180917c3d8202901c90505b600066040000000000008416600f0b131561320d57608070010002c5cc37da9491d0985c348c68e7b38202901c90505b600066020000000000008416600f0b131561323d5760807001000162e525ee054754457d59952920268202901c90505b600066010000000000008416600f0b131561326d57608070010000b17255775c040618bf4a4ade83fc8202901c90505b6000658000000000008416600f0b131561329c5760807001000058b91b5bc9ae2eed81e9b7d4cfab8202901c90505b6000654000000000008416600f0b13156132cb576080700100002c5c89d5ec6ca4d7c8acc017b7c98202901c90505b6000652000000000008416600f0b13156132fa57608070010000162e43f4f831060e02d839a9d16d8202901c90505b6000651000000000008416600f0b1315613329576080700100000b1721bcfc99d9f890ea069117638202901c90505b6000650800000000008416600f0b131561335857608070010000058b90cf1e6d97f9ca14dbcc16288202901c90505b6000650400000000008416600f0b13156133875760807001000002c5c863b73f016468f6bac5ca2b8202901c90505b6000650200000000008416600f0b13156133b6576080700100000162e430e5a18f6119e3c02282a58202901c90505b6000650100000000008416600f0b13156133e55760807001000000b1721835514b86e6d96efd1bfe8202901c90505b60006480000000008416600f0b1315613413576080700100000058b90c0b48c6be5df846c5b2ef8202901c90505b60006440000000008416600f0b131561344157608070010000002c5c8601cc6b9e94213c72737a8202901c90505b60006420000000008416600f0b131561346f5760807001000000162e42fff037df38aa2b219f068202901c90505b60006410000000008416600f0b131561349d57608070010000000b17217fba9c739aa5819f44f98202901c90505b60006408000000008416600f0b13156134cb5760807001000000058b90bfcdee5acd3c1cedc8238202901c90505b60006404000000008416600f0b13156134f9576080700100000002c5c85fe31f35a6a30da1be508202901c90505b60006402000000008416600f0b131561352757608070010000000162e42ff0999ce3541b9fffcf8202901c90505b60006401000000008416600f0b1315613555576080700100000000b17217f80f4ef5aadda455548202901c90505b600063800000008416600f0b131561358257608070010000000058b90bfbf8479bd5a81b51ad8202901c90505b600063400000008416600f0b13156135af5760807001000000002c5c85fdf84bd62ae30a74cc8202901c90505b600063200000008416600f0b13156135dc576080700100000000162e42fefb2fed257559bdaa8202901c90505b600063100000008416600f0b13156136095760807001000000000b17217f7d5a7716bba4a9ae8202901c90505b600063080000008416600f0b1315613636576080700100000000058b90bfbe9ddbac5e109cce8202901c90505b600063040000008416600f0b131561366357608070010000000002c5c85fdf4b15de6f17eb0d8202901c90505b600063020000008416600f0b13156136905760807001000000000162e42fefa494f1478fde058202901c90505b600063010000008416600f0b13156136bd57608070010000000000b17217f7d20cf927c8e94c8202901c90505b6000628000008416600f0b13156136e95760807001000000000058b90bfbe8f71cb4e4b33d8202901c90505b6000624000008416600f0b1315613715576080700100000000002c5c85fdf477b662b269458202901c90505b6000622000008416600f0b131561374157608070010000000000162e42fefa3ae53369388c8202901c90505b6000621000008416600f0b131561376d576080700100000000000b17217f7d1d351a389d408202901c90505b6000620800008416600f0b131561379957608070010000000000058b90bfbe8e8b2d3d4ede8202901c90505b6000620400008416600f0b13156137c55760807001000000000002c5c85fdf4741bea6e77e8202901c90505b6000620200008416600f0b13156137f1576080700100000000000162e42fefa39fe95583c28202901c90505b6000620100008416600f0b131561381d5760807001000000000000b17217f7d1cfb72b45e18202901c90505b60006180008416600f0b1315613848576080700100000000000058b90bfbe8e7cc35c3f08202901c90505b60006140008416600f0b131561387357608070010000000000002c5c85fdf473e242ea388202901c90505b60006120008416600f0b131561389e5760807001000000000000162e42fefa39f02b772c8202901c90505b60006110008416600f0b13156138c957608070010000000000000b17217f7d1cf7d83c1a8202901c90505b60006108008416600f0b13156138f45760807001000000000000058b90bfbe8e7bdcbe2e8202901c90505b60006104008416600f0b131561391f576080700100000000000002c5c85fdf473dea871f8202901c90505b60006102008416600f0b131561394a57608070010000000000000162e42fefa39ef44d918202901c90505b60006101008416600f0b1315613975576080700100000000000000b17217f7d1cf79e9498202901c90505b600060808416600f0b131561399f57608070010000000000000058b90bfbe8e7bce5448202901c90505b600060408416600f0b13156139c95760807001000000000000002c5c85fdf473de6eca8202901c90505b600060208416600f0b13156139f3576080700100000000000000162e42fefa39ef366f8202901c90505b600060108416600f0b1315613a1d5760807001000000000000000b17217f7d1cf79afa8202901c90505b600060088416600f0b1315613a47576080700100000000000000058b90bfbe8e7bcd6d8202901c90505b600060048416600f0b1315613a7157608070010000000000000002c5c85fdf473de6b28202901c90505b600060028416600f0b1315613a9b5760807001000000000000000162e42fefa39ef3588202901c90505b600060018416600f0b1315613ac557608070010000000000000000b17217f7d1cf79ab8202901c90505b604083600f0b901d603f03600f0b81901c90506f7fffffffffffffffffffffffffffffff600f0b811115613af857600080fd5b809150505b919050565b606082471015613b5d576040517f08c379a0000000000000000000000000000000000000000000000000000000008152600401808060200182810382526026815260200180613dad6026913960400191505060405180910390fd5b613b6685613cab565b613bd8576040517f08c379a000000000000000000000000000000000000000000000000000000000815260040180806020018281038252601d8152602001807f416464726573733a2063616c6c20746f206e6f6e2d636f6e747261637400000081525060200191505060405180910390fd5b600060608673ffffffffffffffffffffffffffffffffffffffff1685876040518082805190602001908083835b60208310613c285780518252602082019150602081019050602083039250613c05565b6001836020036101000a03801982511681845116808217855250505050505090500191505060006040518083038185875af1925050503d8060008114613c8a576040519150601f19603f3d011682016040523d82523d6000602084013e613c8f565b606091505b5091509150613c9f828286613cbe565b92505050949350505050565b600080823b905060008111915050919050565b60608315613cce57829050613d83565b600083511115613ce15782518084602001fd5b816040517f08c379a00000000000000000000000000000000000000000000000000000000081526004018080602001828103825283818151815260200191508051906020019080838360005b83811015613d48578082015181840152602081019050613d2d565b50505050905090810190601f168015613d755780820380516001836020036101000a031916815260200191505b509250505060405180910390fd5b9392505050565b604051806040016040528060029060208202803683378082019150509050509056fe416464726573733a20696e73756666696369656e742062616c616e636520666f722063616c6c536166654d6174683a206d756c7469706c69636174696f6e206f766572666c6f775361666545524332303a204552433230206f7065726174696f6e20646964206e6f742073756363656564a26469706673582212202432e4df1ca43b066f93d45ccfd7d70a2dbbd16172a26bae99ddfc8e8669543b64736f6c63430006080033",
  "immutableReferences": {},
  "source": "// SPDX-License-Identifier: MIT\npragma solidity >=0.6.8 <0.7.0;\n\nimport \"../../interfaces/IERC20.sol\";\nimport \"../../interfaces/IInfoOracle.sol\";\nimport \"../../libraries/SafeMath.sol\";\nimport \"../../libraries/ABDKMath64x64.sol\";\nimport \"../../libraries/BigMath.sol\";\nimport \"../../libraries/SafeERC20.sol\";\nimport \"./NGBwrapperDelegateParent.sol\";\n\ncontract NGBwrapperDelegate1 is NGBwrapperDelegateParent {\n\tusing SafeMath for uint256;\n\tusing ABDKMath64x64 for int128;\n\tusing SafeERC20 for IERC20;\n\n\tfunction harvestToTreasury() external noReentry {\n\t\tinternalHarvestToTreasury(IERC20(internalUnderlyingAssetAddress));\n\t}\n\n\tfunction extractRetsHarvestToTreasury(IERC20 _underlyingAsset) internal returns(uint, uint) {\n\t\tuint[2] memory rets = internalHarvestToTreasury(_underlyingAsset);\n\t\treturn (rets[0], rets[1]);\n\t}\n\n\t/*\n\t\t@Description: collect fee, send 50% to owner and 50% to treasury address\n\t\t\tafter the fee is collected the funds that are retained for wrapped asset holders will\n\t\t\tbe == underlyingAsset.balanceOf(this) * (SBPSRetained/totalSBPS)**timeSinceLastHarvest(years)\n\t\t\tthough it should be noted that if the fee is greater than 20% of the total interest\n\t\t\tgenerated since the last harvest the fee will be set to 20% of the total interest\n\t\t\tgenerated since the last harvest\n\n\t\t@param IERC20 _underlyingAsset: ERC20 representation of the underlying asset\n\n\t\t@return uint[2]:\n\t\t\tarr[0]: total supply at end of execution\n\t\t\tarr[1]: this contract's balance of the underlying\n\t*/\n\tfunction internalHarvestToTreasury(IERC20 _underlyingAsset) internal returns(uint[2] memory) {\n\t\tuint _lastHarvest = internalLastHarvest;\n\t\tuint prevTotalSupply = internalTotalSupply;\n\t\tif (prevTotalSupply == 0) {\n\t\t\treturn [uint(0), uint(0)];\n\t\t}\n\t\tuint contractBalance = _underlyingAsset.balanceOf(address(this));\n\t\tif (block.timestamp == _lastHarvest) {\n\t\t\treturn [prevTotalSupply, contractBalance];\n\t\t}\n\t\tuint _prevRatio = internalPrevRatio;\n\t\t//time in years\n\t\t/*\n\t\t\tnextBalance == contractBalance * ((totalBips-bipsToTreasury)/totalBips)**t\n\t\t\tprevTotalSupply*contractBalance/internalTotalSupply == contractBalance * ((totalBips-bipsToTreasury)/totalBips)**t\n\t\t\tprevTotalSupply/internalTotalSupply == ((totalBips-bipsToTreasury)/totalBips)**t\n\t\t\tinternalTotalSupply == prevTotalSupply*((totalBips-bipsToTreasury)/totalBips)**(-t)\n\t\t*/\n\t\tuint effectiveRatio = uint(1 ether).mul(contractBalance);\n\t\tuint nonFeeAdjustedRatio = effectiveRatio.div(prevTotalSupply);\n\t\tif (nonFeeAdjustedRatio <= _prevRatio) {\n\t\t\t//only continue if yield has been generated\n\t\t\treturn [prevTotalSupply, contractBalance];\n\t\t}\n\t\tuint minNewRatio = (nonFeeAdjustedRatio - _prevRatio).mul(minHarvestRetention).div(totalSBPS).add(_prevRatio);\n\t\tint128 time = int128(((block.timestamp - _lastHarvest) << 64)/ BigMath.SecondsPerYear);\n\t\tuint term = uint(BigMath.Pow(int128((uint(SBPSRetained) << 64) / totalSBPS), time.neg()));\n\t\tuint newTotalSupply = prevTotalSupply.mul(term) >> 64;\n\t\teffectiveRatio = effectiveRatio.div(newTotalSupply);\n\t\tif (effectiveRatio < minNewRatio) {\n\t\t\t/*\n\t\t\t\tratio == contractBalance/internalTotalSupply\n\t\t\t\tinternalTotalSupply == contractBalance/ratio\n\t\t\t*/\n\t\t\tnewTotalSupply = contractBalance.mul(1 ether).div(minNewRatio);\n\t\t\tinternalPrevRatio = minNewRatio;\n\t\t}\n\t\telse {\n\t\t\tinternalPrevRatio = effectiveRatio;\n\t\t}\n\t\tinternalLastHarvest = block.timestamp;\n\t\tuint dividend = newTotalSupply.sub(prevTotalSupply);\n\t\tIInfoOracle iorc = IInfoOracle(internalInfoOracleAddress);\n\t\taddress _owner = owner;\n\t\tif (iorc.TreasuryFeeIsCollected()) {\n\t\t\taddress sendTo = iorc.sendTo();\n\t\t\tinternalBalanceOf[sendTo] = internalBalanceOf[sendTo].add(dividend >> 1);\n\t\t\tinternalBalanceOf[_owner] = internalBalanceOf[_owner].add(dividend - (dividend >> 1));\n\t\t}\n\t\telse {\n\t\t\tinternalBalanceOf[_owner] = internalBalanceOf[_owner].add(dividend);\n\t\t}\n\t\tinternalTotalSupply = newTotalSupply;\n\t\treturn [newTotalSupply, contractBalance];\n\t}\n\n\t/*\n\t\t@Description: make first deposit into contract, internalTotalSupply must == 0\n\t\t\n\t\t@param address _to: the address that shall receive the newly minted wrapped tokens\n\t\t@param uint _amountUnit: the amount of underlying asset units to deposit\n\t\t@param IERC20 _underlyingAsset: the underlying asset which the NGBwrapper contract is based on\n\n\t\t@return uint _amountWrappedToken: the amount of wrapped tokens that were minted\n\t*/\n\tfunction firstDeposit(address _to, uint _amountUnit, IERC20 _underlyingAsset) internal returns (uint _amountWrappedToken) {\n\t\trequire(_amountUnit >= 10**uint(_underlyingAsset.decimals()));\n\t\t_underlyingAsset.safeTransferFrom(msg.sender, address(this), _amountUnit);\n\t\tinternalBalanceOf[_to] = _amountUnit;\n\t\tinternalTotalSupply = _amountUnit;\n\t\t_amountWrappedToken = _amountUnit;\n\t\tinternalLastHarvest = block.timestamp;\n\t\tinternalPrevRatio = 1 ether;\n\t}\n\n\t/*\n\t\t@Description: send in underlying asset, receive wrapped asset\n\n\t\t@param address _to: the address that shall receive the newly minted wrapped tokens\n\t\t@param uint _amountUnit: the amount of underlying asset units to deposit\n\n\t\t@return uint _amountWrappedToken: the amount of wrapped tokens that were minted\n\t*/\n\tfunction deposit(address _to, uint _amountUnit) internal returns (uint _amountWrappedToken) {\n\t\tIERC20 underlying = IERC20(internalUnderlyingAssetAddress);\n\t\t(uint _totalSupply, uint contractBalance) = extractRetsHarvestToTreasury(underlying);\n\t\tif (_totalSupply == 0) {\n\t\t\treturn firstDeposit(_to, _amountUnit, underlying);\n\t\t}\n\t\tunderlying.safeTransferFrom(msg.sender, address(this), _amountUnit);\n\t\t_amountWrappedToken = internalTotalSupply.mul(_amountUnit).div(contractBalance);\n\t\tinternalBalanceOf[_to] = internalBalanceOf[_to].add(_amountWrappedToken);\n\t\t//we cannot use _totalSupply as the value of internalTotalSupply may have been changed in internalHarvestToTreasury()\n\t\tinternalTotalSupply = internalTotalSupply.add(_amountWrappedToken);\n\t}\n\n\t/*\n\t\t@Description: send in a specific amount of underlying asset, receive wrapped asset\n\n\t\t@param address _to: the address that shall receive the newly minted wrapped tokens\n\t\t@param uint _amount: the amount of underlying asset units to deposit\n\t*/\n\tfunction depositUnitAmount(address _to, uint _amount) external noReentry claimRewards(true, _to) returns (uint _amountWrapped) {\n\t\treturn deposit(_to, _amount);\n\t}\n\n\t/*\n\t\t@Description: send in underlying asset, receive a specific amount of wrapped asset\n\n\t\t@param address _to: the address that shall receive the newly minted wrapped tokens\n\t\t@param uint _amount: the amount of wrapped asset units to mint\n\t*/\n\tfunction depositWrappedAmount(address _to, uint _amount) external noReentry claimRewards(true, _to) returns (uint _amountUnit) {\n\t\t_amountUnit = WrappedAmtToUnitAmt_RoundUp(_amount);\n\t\tdeposit(_to, _amountUnit);\n\t}\n\n\t/*\n\t\t@Description: burn wrapped asset to receive an amount of underlying asset of _amountUnit\n\n\t\t@param address _to: the address that shall receive the underlying asset\n\t\t@param uint _amountUnit: the amount of underlying asset units to withdraw\n\n\t\t@return uint _amountWrappedToken: the amount of units of wrapped asset that were burned\n\t*/\n\tfunction withdrawUnitAmount(address _to, uint _amountUnit, bool _claimRewards) external noReentry claimRewards(_claimRewards, msg.sender) returns (uint _amountWrappedToken) {\n\t\tIERC20 underlying = IERC20(internalUnderlyingAssetAddress);\n\t\t(uint _totalSupply, uint contractBalance) = extractRetsHarvestToTreasury(underlying);\n\t\t//_amountWrappedToken == ceil(internalTotalSupply*_amountUnit/contractBalance)\n\t\t_amountWrappedToken = _totalSupply.mul(_amountUnit);\n\t\t_amountWrappedToken = uint256(_amountWrappedToken%contractBalance == 0 ? 0 : 1).add(_amountWrappedToken.div(contractBalance));\n\t\trequire(internalBalanceOf[msg.sender] >= _amountWrappedToken);\n\t\tinternalBalanceOf[msg.sender] = internalBalanceOf[msg.sender].sub(_amountWrappedToken);\n\t\tinternalTotalSupply = _totalSupply.sub(_amountWrappedToken);\n\t\tunderlying.safeTransfer(_to, _amountUnit);\n\t}\n\n\t/*\n\t\t@Description: burn a specific amount of wrappet asset to get out underlying asset\n\n\t\t@param address _to: the address that shall receive the underlying asset\n\t\t@param uint _amountWrappedToken: the amount of units of wrappet asset to burn\n\n\t\t@return uint _amountUnit: the amount of underlying asset received\n\t*/\n\tfunction withdrawWrappedAmount(address _to, uint _amountWrappedToken, bool _claimRewards) external noReentry claimRewards(_claimRewards, msg.sender) returns (uint _amountUnit) {\n\t\trequire(internalBalanceOf[msg.sender] >= _amountWrappedToken);\n\t\tIERC20 underlying = IERC20(internalUnderlyingAssetAddress);\n\t\t(uint _totalSupply, uint contractBalance) = extractRetsHarvestToTreasury(underlying);\n\t\t_amountUnit = contractBalance.mul(_amountWrappedToken).div(_totalSupply);\n\t\tinternalBalanceOf[msg.sender] = internalBalanceOf[msg.sender].sub(_amountWrappedToken);\n\t\tinternalTotalSupply = _totalSupply.sub(_amountWrappedToken);\n\t\tunderlying.safeTransfer(_to, _amountUnit);\n\t}\n\n\tfunction forceRewardsCollection() external noReentry claimRewards(true, msg.sender) {}\n\n\t/*\n\t\t@Description: convert an amount of underlying asset to its corresponding amount of wrapped asset, round down\n\n\t\t@param uint _amountUnit: the amount of underlying asset to convert\n\n\t\t@return uint _amountWrappedToken: the greatest amount of wrapped asset that is <= _amountUnit underlying asset\n\t*/\n\tfunction UnitAmtToWrappedAmt_RoundDown(uint _amountUnit) internal view returns (uint _amountWrappedToken) {\n\t\tuint ratio = getRatio();\n\t\t/*\n\t\t\tratio == amountUnit/amountWrapped\n\t\t\tamountWrapped == amountUnit/ratio\n\t\t*/\n\t\t_amountWrappedToken = _amountUnit.mul(1 ether).div(ratio);\n\t}\n\n\t/*\n\t\t@Description: convert an amount of underlying asset to its corresponding amount of wrapped asset, round up\n\n\t\t@param uint _amountUnit: the amount of underlying asset to convert\n\n\t\t@return uint _amountWrappedToken: the smallest amount of wrapped asset that is >= _amountUnit underlying asset\n\t*/\n\tfunction UnitAmtToWrappedAmt_RoundUp(uint _amountUnit) internal view returns (uint _amountWrappedToken) {\n\t\tuint ratio = getRatio();\n\t\t/*\n\t\t\tratio == amountUnit/amountWrapped\n\t\t\tamountWrapped == amountUnit/ratio\n\t\t*/\n\t\t_amountWrappedToken = _amountUnit.mul(1 ether);\n\t\t_amountWrappedToken = _amountWrappedToken.div(ratio).add(_amountWrappedToken%ratio == 0 ? 0 : 1);\n\t}\n\n\t/*\n\t\t@Description: convert an amount of wrapped asset to its corresponding amount of underlying asset, round down\n\n\t\t@oaram unit _amountWrappedToken: the amount of wrapped asset to convert\n\n\t\t@return uint _amountWrappedToken: the greatest amount of underlying asset that is <= _amountWrapped wrapped asset\n\t*/\n\tfunction WrappedAmtToUnitAmt_RoundDown(uint _amountWrappedToken) internal view returns (uint _amountUnit) {\n\t\tuint ratio = getRatio();\n\t\t/*\n\t\t\tratio == amountUnit/amountWrapped\n\t\t\tamountUnit == amountWrapped * ratio\n\t\t*/\n\t\t_amountUnit = _amountWrappedToken.mul(ratio)/(1 ether);\n\t}\n\n\t/*\n\t\t@Description: convert an amount of wrapped asset to its corresponding amount of underlying asset, round up\n\n\t\t@oaram unit _amountWrappedToken: the amount of wrapped asset to convert\n\n\t\t@return uint _amountWrappedToken: the smallest amount of underlying asset that is >= _amountWrapped wrapped asset\n\t*/\n\tfunction WrappedAmtToUnitAmt_RoundUp(uint _amountWrappedToken) internal view returns (uint _amountUnit) {\n\t\tuint ratio = getRatio();\n\t\t/*\n\t\t\tratio == amountUnit/amountWrapped\n\t\t\tamountUnit == amountWrapped * ratio\n\t\t*/\n\t\t_amountUnit = _amountWrappedToken.mul(ratio);\n\t\t_amountUnit = _amountUnit.div(1 ether).add(_amountUnit%(1 ether) == 0 ? 0 : 1);\n\t}\n\n}",
  "sourcePath": "/home/asher/FixFinanceV1/contracts/Wrappers/NGBwrapper/NGBwrapperDelegate1.sol",
  "compiler": {
    "name": "solc",
    "version": "0.6.8+commit.0bbfe453.Emscripten.clang"
  },
  "schemaVersion": "3.4.1",
  "updatedAt": "2021-11-26T19:15:55.979Z",
  "devdoc": {
    "methods": {}
  },
  "userdoc": {
    "methods": {}
  }
}