{
  "contractName": "NSFVaultFactoryDelegate5",
  "abi": [
    {
      "inputs": [],
      "name": "owner",
      "outputs": [
        {
          "internalType": "address",
          "name": "",
          "type": "address"
        }
      ],
      "stateMutability": "view",
      "type": "function"
    },
    {
      "inputs": [
        {
          "internalType": "address",
          "name": "newOwner",
          "type": "address"
        }
      ],
      "name": "transferOwnership",
      "outputs": [],
      "stateMutability": "nonpayable",
      "type": "function"
    },
    {
      "inputs": [
        {
          "internalType": "uint256",
          "name": "_index",
          "type": "uint256"
        },
        {
          "internalType": "address",
          "name": "_to",
          "type": "address"
        },
        {
          "internalType": "bool",
          "name": "_isYTVault",
          "type": "bool"
        }
      ],
      "name": "transferVault",
      "outputs": [],
      "stateMutability": "nonpayable",
      "type": "function"
    },
    {
      "inputs": [
        {
          "internalType": "address",
          "name": "_asset",
          "type": "address"
        }
      ],
      "name": "claimRebate",
      "outputs": [],
      "stateMutability": "nonpayable",
      "type": "function"
    },
    {
      "inputs": [
        {
          "internalType": "address",
          "name": "_FCP",
          "type": "address"
        }
      ],
      "name": "claimYTRebate",
      "outputs": [],
      "stateMutability": "nonpayable",
      "type": "function"
    },
    {
      "inputs": [
        {
          "internalType": "address",
          "name": "_addr",
          "type": "address"
        },
        {
          "internalType": "int256",
          "name": "_num",
          "type": "int256"
        },
        {
          "internalType": "enum NSFVaultFactoryData.MANAGE_METHOD",
          "name": "_mm",
          "type": "uint8"
        }
      ],
      "name": "manage",
      "outputs": [],
      "stateMutability": "nonpayable",
      "type": "function"
    }
  ],
  "bytecode": "0x608060405234801561001057600080fd5b50336000806101000a81548173ffffffffffffffffffffffffffffffffffffffff021916908373ffffffffffffffffffffffffffffffffffffffff160217905550612fe3806100606000396000f3fe608060405234801561001057600080fd5b50600436106100625760003560e01c8063146bc04e146100675780634c7846dc1461008357806366729a991461009f5780638da5cb5b146100bb578063ac7a12d6146100d9578063f2fde38b146100f5575b600080fd5b610081600480360381019061007c9190612611565b610111565b005b61009d60048036038101906100989190612663565b610298565b005b6100b960048036038101906100b49190612704565b610443565b005b6100c3610468565b6040516100d09190612b12565b60405180910390f35b6100f360048036038101906100ee9190612611565b61048d565b005b61010f600480360381019061010a9190612611565b61073c565b005b6000600460003373ffffffffffffffffffffffffffffffffffffffff1673ffffffffffffffffffffffffffffffffffffffff16815260200190815260200160002060008373ffffffffffffffffffffffffffffffffffffffff1673ffffffffffffffffffffffffffffffffffffffff1681526020019081526020016000205490507f7fffffffffffffffffffffffffffffffffffffffffffffffffffffffffffffff8111156101bf57600080fd5b60008060006101cd85610843565b935093509350506101ff33858773ffffffffffffffffffffffffffffffffffffffff16610a539092919063ffffffff16565b61021160003385858589600003610ad9565b600460003373ffffffffffffffffffffffffffffffffffffffff1673ffffffffffffffffffffffffffffffffffffffff16815260200190815260200160002060008673ffffffffffffffffffffffffffffffffffffffff1673ffffffffffffffffffffffffffffffffffffffff168152602001908152602001600020600090555050505050565b6000809054906101000a900473ffffffffffffffffffffffffffffffffffffffff1673ffffffffffffffffffffffffffffffffffffffff163373ffffffffffffffffffffffffffffffffffffffff1614610327576040517f08c379a000000000000000000000000000000000000000000000000000000000815260040161031e90612da8565b60405180910390fd5b6000600581111561033457fe5b81600581111561034057fe5b14156103545761034f83610c0f565b61043e565b6001600581111561036157fe5b81600581111561036d57fe5b14156103815761037c83610d6d565b61043d565b6002600581111561038e57fe5b81600581111561039a57fe5b14156103ae576103a983610dee565b61043c565b600360058111156103bb57fe5b8160058111156103c757fe5b14156103e3576103de6103d983610f52565b610fbe565b61043b565b600460058111156103f057fe5b8160058111156103fc57fe5b14156104105761040b83610fd7565b61043a565b60058081111561041c57fe5b81600581111561042857fe5b14156104395761043883836113c2565b5b5b5b5b5b5b505050565b80156104585761045383836116df565b610463565b6104628383611b64565b5b505050565b6000809054906101000a900473ffffffffffffffffffffffffffffffffffffffff1681565b6104956124a0565b600560003373ffffffffffffffffffffffffffffffffffffffff1673ffffffffffffffffffffffffffffffffffffffff16815260200190815260200160002060008373ffffffffffffffffffffffffffffffffffffffff1673ffffffffffffffffffffffffffffffffffffffff1681526020019081526020016000206040518060400160405290816000820154815260200160018201548152505090507f7fffffffffffffffffffffffffffffffffffffffffffffffffffffffffffffff8160000151111561056357600080fd5b8173ffffffffffffffffffffffffffffffffffffffff16636a68d0c333836000015184602001516040518463ffffffff1660e01b81526004016105a893929190612b56565b600060405180830381600087803b1580156105c257600080fd5b505af11580156105d6573d6000803e3d6000fd5b5050505060008273ffffffffffffffffffffffffffffffffffffffff1663ac210cc76040518163ffffffff1660e01b815260040160206040518083038186803b15801561062257600080fd5b505afa158015610636573d6000803e3d6000fd5b505050506040513d601f19601f8201168201806040525081019061065a91906126db565b90506106a8600033858486600001516000036106a37fffffffffffffffffffffffffffffffffffffffffffffffffffffffffffffffff8960200151611f3090919063ffffffff16565b61202e565b600560003373ffffffffffffffffffffffffffffffffffffffff1673ffffffffffffffffffffffffffffffffffffffff16815260200190815260200160002060008473ffffffffffffffffffffffffffffffffffffffff1673ffffffffffffffffffffffffffffffffffffffff16815260200190815260200160002060008082016000905560018201600090555050505050565b6000809054906101000a900473ffffffffffffffffffffffffffffffffffffffff1673ffffffffffffffffffffffffffffffffffffffff163373ffffffffffffffffffffffffffffffffffffffff16146107cb576040517f08c379a00000000000000000000000000000000000000000000000000000000081526004016107c290612da8565b60405180910390fd5b600073ffffffffffffffffffffffffffffffffffffffff168173ffffffffffffffffffffffffffffffffffffffff161461084057806000806101000a81548173ffffffffffffffffffffffffffffffffffffffff021916908373ffffffffffffffffffffffffffffffffffffffff1602179055505b50565b600080600080600160008673ffffffffffffffffffffffffffffffffffffffff1673ffffffffffffffffffffffffffffffffffffffff16815260200190815260200160002060009054906101000a900473ffffffffffffffffffffffffffffffffffffffff169350600073ffffffffffffffffffffffffffffffffffffffff168473ffffffffffffffffffffffffffffffffffffffff161415610a05578473ffffffffffffffffffffffffffffffffffffffff166362af375b6040518163ffffffff1660e01b815260040160206040518083038186803b15801561092657600080fd5b505afa15801561093a573d6000803e3d6000fd5b505050506040513d601f19601f8201168201806040525081019061095e919061263a565b9150600260008373ffffffffffffffffffffffffffffffffffffffff1673ffffffffffffffffffffffffffffffffffffffff16815260200190815260200160002060009054906101000a900473ffffffffffffffffffffffffffffffffffffffff169050600073ffffffffffffffffffffffffffffffffffffffff168173ffffffffffffffffffffffffffffffffffffffff1614156109fc57600080fd5b60029250610a4c565b600173ffffffffffffffffffffffffffffffffffffffff168473ffffffffffffffffffffffffffffffffffffffff161415610a435760009250610a4b565b849050600192505b5b9193509193565b610ad48363a9059cbb60e01b8484604051602401610a72929190612b8d565b604051602081830303815290604052907bffffffffffffffffffffffffffffffffffffffffffffffffffffffff19166020820180517bffffffffffffffffffffffffffffffffffffffffffffffffffffffff83818316178352505050506120a9565b505050565b60016003811115610ae657fe5b846003811115610af257fe5b1415610b72578173ffffffffffffffffffffffffffffffffffffffff16637c9dd789878760008560006040518663ffffffff1660e01b8152600401610b3b959493929190612bed565b600060405180830381600087803b158015610b5557600080fd5b505af1158015610b69573d6000803e3d6000fd5b50505050610c07565b60026003811115610b7f57fe5b846003811115610b8b57fe5b1415610c06578173ffffffffffffffffffffffffffffffffffffffff16637c9dd7898787866000866040518663ffffffff1660e01b8152600401610bd3959493929190612c93565b600060405180830381600087803b158015610bed57600080fd5b505af1158015610c01573d6000803e3d6000fd5b505050505b5b505050505050565b8073ffffffffffffffffffffffffffffffffffffffff1663dd2822636040518163ffffffff1660e01b8152600401600060405180830381600087803b158015610c5757600080fd5b505af1158015610c6b573d6000803e3d6000fd5b505050508073ffffffffffffffffffffffffffffffffffffffff166389d1a0fc6040518163ffffffff1660e01b815260040160206040518083038186803b158015610cb557600080fd5b505afa158015610cc9573d6000803e3d6000fd5b505050506040513d601f19601f82011682018060405250810190610ced919061263a565b600160008373ffffffffffffffffffffffffffffffffffffffff1673ffffffffffffffffffffffffffffffffffffffff16815260200190815260200160002060006101000a81548173ffffffffffffffffffffffffffffffffffffffff021916908373ffffffffffffffffffffffffffffffffffffffff16021790555050565b60018060008373ffffffffffffffffffffffffffffffffffffffff1673ffffffffffffffffffffffffffffffffffffffff16815260200190815260200160002060006101000a81548173ffffffffffffffffffffffffffffffffffffffff021916908373ffffffffffffffffffffffffffffffffffffffff16021790555050565b60008173ffffffffffffffffffffffffffffffffffffffff1663ac210cc76040518163ffffffff1660e01b815260040160206040518083038186803b158015610e3657600080fd5b505afa158015610e4a573d6000803e3d6000fd5b505050506040513d601f19601f82011682018060405250810190610e6e91906126db565b90508073ffffffffffffffffffffffffffffffffffffffff1663dd2822636040518163ffffffff1660e01b8152600401600060405180830381600087803b158015610eb857600080fd5b505af1158015610ecc573d6000803e3d6000fd5b5050505080600260008473ffffffffffffffffffffffffffffffffffffffff1673ffffffffffffffffffffffffffffffffffffffff16815260200190815260200160002060006101000a81548173ffffffffffffffffffffffffffffffffffffffff021916908373ffffffffffffffffffffffffffffffffffffffff1602179055505050565b60007fffffffffffffffffffffffffffffffffffffffffffffffffffffffffffffffff8213610fb6576040517f08c379a0000000000000000000000000000000000000000000000000000000008152600401610fad90612d08565b60405180910390fd5b819050919050565b612710811115610fcd57600080fd5b80600d8190555050565b6000600860008373ffffffffffffffffffffffffffffffffffffffff1673ffffffffffffffffffffffffffffffffffffffff1681526020019081526020016000205490506000600182901c90506000600c60009054906101000a900473ffffffffffffffffffffffffffffffffffffffff16905060008173ffffffffffffffffffffffffffffffffffffffff1663489e09516040518163ffffffff1660e01b815260040160206040518083038186803b15801561109357600080fd5b505afa1580156110a7573d6000803e3d6000fd5b505050506040513d601f19601f820116820180604052508101906110cb919061263a565b90508173ffffffffffffffffffffffffffffffffffffffff16637348c8576040518163ffffffff1660e01b815260040160206040518083038186803b15801561111357600080fd5b505afa158015611127573d6000803e3d6000fd5b505050506040513d601f19601f8201168201806040525081019061114b91906126b2565b156111ad5761117b81848773ffffffffffffffffffffffffffffffffffffffff16610a539092919063ffffffff16565b6111a8338486038773ffffffffffffffffffffffffffffffffffffffff16610a539092919063ffffffff16565b6111d9565b6111d833858773ffffffffffffffffffffffffffffffffffffffff16610a539092919063ffffffff16565b5b60008060006111e788610843565b93509350935050600160038111156111fb57fe5b83600381111561120757fe5b148061122957506002600381111561121b57fe5b83600381111561122757fe5b145b15611332576000600960008a73ffffffffffffffffffffffffffffffffffffffff1673ffffffffffffffffffffffffffffffffffffffff1681526020019081526020016000205490506000611287828a61217090919063ffffffff16565b905060008111156112dc576112db6001878787876112d67fffffffffffffffffffffffffffffffffffffffffffffffffffffffffffffffff6112c8896121ba565b611f3090919063ffffffff16565b610ad9565b5b600082111561132f5761132e6000338787876113297fffffffffffffffffffffffffffffffffffffffffffffffffffffffffffffffff61131b8a6121ba565b611f3090919063ffffffff16565b610ad9565b5b50505b600860008973ffffffffffffffffffffffffffffffffffffffff1673ffffffffffffffffffffffffffffffffffffffff16815260200190815260200160002060009055600960008973ffffffffffffffffffffffffffffffffffffffff1673ffffffffffffffffffffffffffffffffffffffff168152602001908152602001600020600090555050505050505050565b7fffffffffffffffffffffffffffffffffffffffffffffffffffffffffffffffff81136113ee57600080fd5b6113f66124a0565b600660008473ffffffffffffffffffffffffffffffffffffffff1673ffffffffffffffffffffffffffffffffffffffff1681526020019081526020016000206040518060400160405290816000820154815260200160018201548152505090508273ffffffffffffffffffffffffffffffffffffffff1663fc2807f133846040518363ffffffff1660e01b8152600401611491929190612b2d565b600060405180830381600087803b1580156114ab57600080fd5b505af11580156114bf573d6000803e3d6000fd5b50505050600060018260000151901c9050600060026114eb85856020015161222690919063ffffffff16565b816114f257fe5b0590506000600c60009054906101000a900473ffffffffffffffffffffffffffffffffffffffff1673ffffffffffffffffffffffffffffffffffffffff1663489e09516040518163ffffffff1660e01b815260040160206040518083038186803b15801561155f57600080fd5b505afa158015611573573d6000803e3d6000fd5b505050506040513d601f19601f82011682018060405250810190611597919061263a565b90508573ffffffffffffffffffffffffffffffffffffffff16636a68d0c38285856040518463ffffffff1660e01b81526004016115d693929190612bb6565b600060405180830381600087803b1580156115f057600080fd5b505af1158015611604573d6000803e3d6000fd5b505050508573ffffffffffffffffffffffffffffffffffffffff16636a68d0c333858760000151038589896020015101036040518463ffffffff1660e01b815260040161165393929190612b56565b600060405180830381600087803b15801561166d57600080fd5b505af1158015611681573d6000803e3d6000fd5b50505050600660008773ffffffffffffffffffffffffffffffffffffffff1673ffffffffffffffffffffffffffffffffffffffff16815260200190815260200160002060008082016000905560018201600090555050505050505050565b81600b60003373ffffffffffffffffffffffffffffffffffffffff1673ffffffffffffffffffffffffffffffffffffffff168152602001908152602001600020805490501161172d57600080fd5b6117356124ba565b600b60003373ffffffffffffffffffffffffffffffffffffffff1673ffffffffffffffffffffffffffffffffffffffff168152602001908152602001600020838154811061177f57fe5b90600052602060002090600502016040518060a00160405290816000820160009054906101000a900473ffffffffffffffffffffffffffffffffffffffff1673ffffffffffffffffffffffffffffffffffffffff1673ffffffffffffffffffffffffffffffffffffffff1681526020016001820160009054906101000a900473ffffffffffffffffffffffffffffffffffffffff1673ffffffffffffffffffffffffffffffffffffffff1673ffffffffffffffffffffffffffffffffffffffff168152602001600282015481526020016003820154815260200160048201548152505090507f7fffffffffffffffffffffffffffffffffffffffffffffffffffffffffffffff8160400151111561189557600080fd5b6000816000015173ffffffffffffffffffffffffffffffffffffffff1663ac210cc76040518163ffffffff1660e01b815260040160206040518083038186803b1580156118e157600080fd5b505afa1580156118f5573d6000803e3d6000fd5b505050506040513d601f19601f8201168201806040525081019061191991906126db565b905061196b60013384600001518486604001516000036119667fffffffffffffffffffffffffffffffffffffffffffffffffffffffffffffffff8960600151611f3090919063ffffffff16565b61202e565b6119866000848460000151848660400151876060015161202e565b600b60008473ffffffffffffffffffffffffffffffffffffffff1673ffffffffffffffffffffffffffffffffffffffff16815260200190815260200160002082908060018154018082558091505060019003906000526020600020906005020160009091909190915060008201518160000160006101000a81548173ffffffffffffffffffffffffffffffffffffffff021916908373ffffffffffffffffffffffffffffffffffffffff16021790555060208201518160010160006101000a81548173ffffffffffffffffffffffffffffffffffffffff021916908373ffffffffffffffffffffffffffffffffffffffff1602179055506040820151816002015560608201518160030155608082015181600401555050600b60003373ffffffffffffffffffffffffffffffffffffffff1673ffffffffffffffffffffffffffffffffffffffff1681526020019081526020016000208481548110611ae757fe5b9060005260206000209060050201600080820160006101000a81549073ffffffffffffffffffffffffffffffffffffffff02191690556001820160006101000a81549073ffffffffffffffffffffffffffffffffffffffff0219169055600282016000905560038201600090556004820160009055505050505050565b81600a60003373ffffffffffffffffffffffffffffffffffffffff1673ffffffffffffffffffffffffffffffffffffffff1681526020019081526020016000208054905011611bb257600080fd5b611bba612515565b600a60003373ffffffffffffffffffffffffffffffffffffffff1673ffffffffffffffffffffffffffffffffffffffff1681526020019081526020016000208381548110611c0457fe5b90600052602060002090600402016040518060800160405290816000820160009054906101000a900473ffffffffffffffffffffffffffffffffffffffff1673ffffffffffffffffffffffffffffffffffffffff1673ffffffffffffffffffffffffffffffffffffffff1681526020016001820160009054906101000a900473ffffffffffffffffffffffffffffffffffffffff1673ffffffffffffffffffffffffffffffffffffffff1673ffffffffffffffffffffffffffffffffffffffff168152602001600282015481526020016003820154815250509050600a60008373ffffffffffffffffffffffffffffffffffffffff1673ffffffffffffffffffffffffffffffffffffffff16815260200190815260200160002081908060018154018082558091505060019003906000526020600020906004020160009091909190915060008201518160000160006101000a81548173ffffffffffffffffffffffffffffffffffffffff021916908373ffffffffffffffffffffffffffffffffffffffff16021790555060208201518160010160006101000a81548173ffffffffffffffffffffffffffffffffffffffff021916908373ffffffffffffffffffffffffffffffffffffffff16021790555060408201518160020155606082015181600301555050600081604001511115611e72576000806000611e0b8460000151610843565b935093509350507f7fffffffffffffffffffffffffffffffffffffffffffffffffffffffffffffff84604001511115611e4357600080fd5b600084604001519050611e5e60013386868686600003610ad9565b611e6d60008786868686610ad9565b505050505b600a60003373ffffffffffffffffffffffffffffffffffffffff1673ffffffffffffffffffffffffffffffffffffffff1681526020019081526020016000208381548110611ebc57fe5b9060005260206000209060040201600080820160006101000a81549073ffffffffffffffffffffffffffffffffffffffff02191690556001820160006101000a81549073ffffffffffffffffffffffffffffffffffffffff0219169055600282016000905560038201600090555050505050565b600080831415611f435760009050612028565b7fffffffffffffffffffffffffffffffffffffffffffffffffffffffffffffffff83148015611f9157507f800000000000000000000000000000000000000000000000000000000000000082145b15611fd1576040517f08c379a0000000000000000000000000000000000000000000000000000000008152600401611fc890612d88565b60405180910390fd5b6000828402905082848281611fe257fe5b0514612023576040517f08c379a000000000000000000000000000000000000000000000000000000000815260040161201a90612d88565b60405180910390fd5b809150505b92915050565b8273ffffffffffffffffffffffffffffffffffffffff16637c9dd78987878786866040518663ffffffff1660e01b815260040161206f959493929190612c40565b600060405180830381600087803b15801561208957600080fd5b505af115801561209d573d6000803e3d6000fd5b50505050505050505050565b606061210b826040518060400160405280602081526020017f5361666545524332303a206c6f772d6c6576656c2063616c6c206661696c65648152508573ffffffffffffffffffffffffffffffffffffffff1661229e9092919063ffffffff16565b905060008151111561216b578080602001905181019061212b91906126b2565b61216a576040517f08c379a000000000000000000000000000000000000000000000000000000000815260040161216190612de8565b60405180910390fd5b5b505050565b60006121b283836040518060400160405280601e81526020017f536166654d6174683a207375627472616374696f6e206f766572666c6f7700008152506122b6565b905092915050565b60007fffffffffffffffffffffffffffffffffffffffffffffffffffffffffffffffff8291508113612221576040517f08c379a000000000000000000000000000000000000000000000000000000000815260040161221890612d68565b60405180910390fd5b919050565b60008082840190506000831215801561223f5750838112155b80612255575060008312801561225457508381125b5b612294576040517f08c379a000000000000000000000000000000000000000000000000000000000815260040161228b90612d28565b60405180910390fd5b8091505092915050565b60606122ad8484600085612311565b90509392505050565b60008383111582906122fe576040517f08c379a00000000000000000000000000000000000000000000000000000000081526004016122f59190612ce6565b60405180910390fd5b5060008385039050809150509392505050565b606082471015612356576040517f08c379a000000000000000000000000000000000000000000000000000000000815260040161234d90612d48565b60405180910390fd5b61235f85612426565b61239e576040517f08c379a000000000000000000000000000000000000000000000000000000000815260040161239590612dc8565b60405180910390fd5b600060608673ffffffffffffffffffffffffffffffffffffffff1685876040516123c89190612afb565b60006040518083038185875af1925050503d8060008114612405576040519150601f19603f3d011682016040523d82523d6000602084013e61240a565b606091505b509150915061241a828286612439565b92505050949350505050565b600080823b905060008111915050919050565b6060831561244957829050612499565b60008351111561245c5782518084602001fd5b816040517f08c379a00000000000000000000000000000000000000000000000000000000081526004016124909190612ce6565b60405180910390fd5b9392505050565b604051806040016040528060008152602001600081525090565b6040518060a00160405280600073ffffffffffffffffffffffffffffffffffffffff168152602001600073ffffffffffffffffffffffffffffffffffffffff1681526020016000815260200160008152602001600081525090565b6040518060800160405280600073ffffffffffffffffffffffffffffffffffffffff168152602001600073ffffffffffffffffffffffffffffffffffffffff16815260200160008152602001600081525090565b60008135905061257881612f2a565b92915050565b60008151905061258d81612f2a565b92915050565b6000813590506125a281612f41565b92915050565b6000815190506125b781612f41565b92915050565b6000815190506125cc81612f58565b92915050565b6000813590506125e181612f6f565b92915050565b6000813590506125f681612f7f565b92915050565b60008135905061260b81612f96565b92915050565b60006020828403121561262357600080fd5b600061263184828501612569565b91505092915050565b60006020828403121561264c57600080fd5b600061265a8482850161257e565b91505092915050565b60008060006060848603121561267857600080fd5b600061268686828701612569565b9350506020612697868287016125e7565b92505060406126a8868287016125d2565b9150509250925092565b6000602082840312156126c457600080fd5b60006126d2848285016125a8565b91505092915050565b6000602082840312156126ed57600080fd5b60006126fb848285016125bd565b91505092915050565b60008060006060848603121561271957600080fd5b6000612727868287016125fc565b935050602061273886828701612569565b925050604061274986828701612593565b9150509250925092565b61275c81612e9e565b82525050565b61276b81612e3a565b82525050565b61277a81612e4c565b82525050565b600061278b82612e08565b6127958185612e1e565b93506127a5818560208601612ee6565b80840191505092915050565b6127ba81612e6a565b82525050565b6127c981612eb0565b82525050565b60006127da82612e13565b6127e48185612e29565b93506127f4818560208601612ee6565b6127fd81612f19565b840191505092915050565b6000612815602e83612e29565b91507f5369676e6564536166654d6174683a20696e76616c696420696e7420746f207560008301527f696e7420636f6e76657273696f6e0000000000000000000000000000000000006020830152604082019050919050565b600061287b602183612e29565b91507f5369676e6564536166654d6174683a206164646974696f6e206f766572666c6f60008301527f77000000000000000000000000000000000000000000000000000000000000006020830152604082019050919050565b60006128e1602683612e29565b91507f416464726573733a20696e73756666696369656e742062616c616e636520666f60008301527f722063616c6c00000000000000000000000000000000000000000000000000006020830152604082019050919050565b6000612947602883612e29565b91507f536166654d6174683a20696e76616c69642075696e7420746f20696e7420636f60008301527f6e76657273696f6e0000000000000000000000000000000000000000000000006020830152604082019050919050565b60006129ad602783612e29565b91507f5369676e6564536166654d6174683a206d756c7469706c69636174696f6e206f60008301527f766572666c6f77000000000000000000000000000000000000000000000000006020830152604082019050919050565b6000612a13600a83612e29565b91507f6f6e6c79206f776e6572000000000000000000000000000000000000000000006000830152602082019050919050565b6000612a53601d83612e29565b91507f416464726573733a2063616c6c20746f206e6f6e2d636f6e74726163740000006000830152602082019050919050565b6000612a93602a83612e29565b91507f5361666545524332303a204552433230206f7065726174696f6e20646964206e60008301527f6f742073756363656564000000000000000000000000000000000000000000006020830152604082019050919050565b612af581612e94565b82525050565b6000612b078284612780565b915081905092915050565b6000602082019050612b276000830184612762565b92915050565b6000604082019050612b426000830185612753565b612b4f6020830184612aec565b9392505050565b6000606082019050612b6b6000830186612753565b612b786020830185612aec565b612b8560408301846127b1565b949350505050565b6000604082019050612ba26000830185612762565b612baf6020830184612aec565b9392505050565b6000606082019050612bcb6000830186612762565b612bd86020830185612aec565b612be560408301846127b1565b949350505050565b600060a082019050612c026000830188612771565b612c0f6020830187612762565b612c1c6040830186612753565b612c2960608301856127b1565b612c3660808301846127c0565b9695505050505050565b600060a082019050612c556000830188612771565b612c626020830187612762565b612c6f6040830186612762565b612c7c60608301856127b1565b612c8960808301846127b1565b9695505050505050565b600060a082019050612ca86000830188612771565b612cb56020830187612762565b612cc26040830186612762565b612ccf60608301856127c0565b612cdc60808301846127b1565b9695505050505050565b60006020820190508181036000830152612d0081846127cf565b905092915050565b60006020820190508181036000830152612d2181612808565b9050919050565b60006020820190508181036000830152612d418161286e565b9050919050565b60006020820190508181036000830152612d61816128d4565b9050919050565b60006020820190508181036000830152612d818161293a565b9050919050565b60006020820190508181036000830152612da1816129a0565b9050919050565b60006020820190508181036000830152612dc181612a06565b9050919050565b60006020820190508181036000830152612de181612a46565b9050919050565b60006020820190508181036000830152612e0181612a86565b9050919050565b600081519050919050565b600081519050919050565b600081905092915050565b600082825260208201905092915050565b6000612e4582612e74565b9050919050565b60008115159050919050565b6000612e6382612e3a565b9050919050565b6000819050919050565b600073ffffffffffffffffffffffffffffffffffffffff82169050919050565b6000819050919050565b6000612ea982612ec2565b9050919050565b6000612ebb82612e6a565b9050919050565b6000612ecd82612ed4565b9050919050565b6000612edf82612e74565b9050919050565b60005b83811015612f04578082015181840152602081019050612ee9565b83811115612f13576000848401525b50505050565b6000601f19601f8301169050919050565b612f3381612e3a565b8114612f3e57600080fd5b50565b612f4a81612e4c565b8114612f5557600080fd5b50565b612f6181612e58565b8114612f6c57600080fd5b50565b60068110612f7c57600080fd5b50565b612f8881612e6a565b8114612f9357600080fd5b50565b612f9f81612e94565b8114612faa57600080fd5b5056fea2646970667358221220002466fcb0655d9414a3c6f0dc8a1945dfe1411a44ca442be7b8c6d93029b4cb64736f6c63430006080033",
  "immutableReferences": {},
  "source": "// SPDX-License-Identifier: MIT\npragma experimental ABIEncoderV2;\npragma solidity >=0.6.8 <0.7.0;\n\nimport \"../../libraries/SafeMath.sol\";\nimport \"../../libraries/SignedSafeMath.sol\";\nimport \"../../libraries/SafeERC20.sol\";\nimport \"../../interfaces/IVaultManagerFlashReceiver.sol\";\nimport \"../../interfaces/IFixCapitalPool.sol\";\nimport \"../../interfaces/IZeroCouponBond.sol\";\nimport \"../../interfaces/IVaultHealth.sol\";\nimport \"../../interfaces/IWrapper.sol\";\nimport \"../../interfaces/IERC20.sol\";\nimport \"../../helpers/Ownable.sol\";\nimport \"./NSFVaultFactoryDelegateParent.sol\";\n\ncontract NSFVaultFactoryDelegate5 is NSFVaultFactoryDelegateParent {\n\tusing SafeMath for uint;\n\tusing SignedSafeMath for int;\n\tusing SafeERC20 for IERC20;\n\n\t/*\n\t\t@Description: assign a vault/YTvault to a new owner\n\n\t\t@param uint _index: the index within vaults/YTvaults[msg.sender] at which the vault to transfer is located\n\t\t@param address _to: the new owner of the vault/YTvault\n\t\t@param bool _isYTVault: true when the vault to transfer is a YTvault, false otherwise\n\t*/\n\tfunction transferVault(uint _index, address _to, bool _isYTVault) external {\n\t\tif (_isYTVault) {\n\t\t\ttransferYTVault(_index, _to);\n\t\t}\n\t\telse {\n\t\t\ttransferStandardVault(_index, _to);\n\t\t}\n\t}\n\n\t/*\n\t\t@Description: assign a vault to a new owner\n\n\t\t@param uint _index: the index within vaults[msg.sender] at which the vault to transfer is located\n\t\t@param address _to: the new owner of the vault\n\t*/\n\tfunction transferStandardVault(uint _index, address _to) internal {\n\t\trequire(_vaults[msg.sender].length > _index);\n\t\tVault memory vault = _vaults[msg.sender][_index];\n\t\t_vaults[_to].push(vault);\n\t\tif (vault.amountSupplied > 0) {\n\t\t\t(, SUPPLIED_ASSET_TYPE sType, address baseFCP, address baseWrapper) = suppliedAssetInfo(vault.assetSupplied);\n\t\t\trequire(vault.amountSupplied <= uint(type(int256).max));\n\t\t\tint intSupplied = int(vault.amountSupplied);\n\t\t\teditSubAccountStandardVault(true, msg.sender, sType, baseFCP, baseWrapper, -intSupplied);\n\t\t\t//passing claimRewards:true a second time would needlessly waste gas\n\t\t\teditSubAccountStandardVault(false, _to, sType, baseFCP, baseWrapper, intSupplied);\n\t\t}\n\t\tdelete _vaults[msg.sender][_index];\n\t}\n\n\t/*\n\t\t@Description: assign a YT vault to a new owner\n\n\t\t@param uint _index: the index within YTvaults[msg.sender] at which the YT vault to transfer is located\n\t\t@param address _to: the new owner of the YT vault\n\t*/\n\tfunction transferYTVault(uint _index, address _to) internal {\n\t\trequire(_YTvaults[msg.sender].length > _index);\n\t\tYTVault memory vault = _YTvaults[msg.sender][_index];\n\t\trequire(vault.yieldSupplied <= uint(type(int256).max));\n\t\taddress baseWrapper = address(IFixCapitalPool(vault.FCPsupplied).wrapper());\n\t\teditSubAccountYTVault(true, msg.sender, vault.FCPsupplied, baseWrapper, -int(vault.yieldSupplied), vault.bondSupplied.mul(-1));\n\t\teditSubAccountYTVault(false, _to, vault.FCPsupplied, baseWrapper, int(vault.yieldSupplied), vault.bondSupplied);\n\t\t_YTvaults[_to].push(vault);\n\t\tdelete _YTvaults[msg.sender][_index];\n\t}\n\n\t/*\n\t\t@Description: allows a user to claim the excess collateral that was received as a rebate\n\t\t\twhen their vault(s) were liquidated\n\n\t\t@param address _asset: the address of the asset for which to claim rebated collateral\n\t*/\n\tfunction claimRebate(address _asset) external {\n\t\tuint amt = _liquidationRebates[msg.sender][_asset];\n\t\trequire(amt <= uint(type(int256).max));\n\t\t(, SUPPLIED_ASSET_TYPE sType, address baseFCP, address baseWrapper) = suppliedAssetInfo(_asset);\n\t\tIERC20(_asset).safeTransfer(msg.sender, amt);\n\t\teditSubAccountStandardVault(false, msg.sender, sType, baseFCP, baseWrapper, -int(amt));\n\t\tdelete _liquidationRebates[msg.sender][_asset];\n\t}\n\n\t/*\n\t\t@Description: allows a user to claim the excess collateral that was received as a rebate\n\t\t\twhen their YT vault(s) were liquidated\n\t\n\t\t@param address _FCP: the address of the FCP contract for which to claim the rebate\n\t*/\n\tfunction claimYTRebate(address _FCP) external {\n\t\tYTPosition memory position = _YTLiquidationRebates[msg.sender][_FCP];\n\t\trequire(position.amountYield <= uint(type(int256).max));\n\t\tIFixCapitalPool(_FCP).transferPosition(msg.sender, position.amountYield, position.amountBond);\n\t\taddress baseWrapper = address(IFixCapitalPool(_FCP).wrapper());\n\t\teditSubAccountYTVault(false, msg.sender, _FCP, baseWrapper, -int(position.amountYield), position.amountBond.mul(-1));\n\t\tdelete _YTLiquidationRebates[msg.sender][_FCP];\n\t}\n\n\t/*\n\t\t@Description: admin may call this function to allow a specific wrapped asset to be provided as collateral\n\n\t\t@param address _wrapperAddress: address of the wrapper asset to whitelist\n\t*/\n\tfunction whitelistWrapper(address _wrapperAddress) internal {\n\t\tIWrapper(_wrapperAddress).registerAsDistributionAccount();\n\t\t_wrapperToUnderlyingAsset[_wrapperAddress] = IWrapper(_wrapperAddress).underlyingAssetAddress();\n\t}\n\n\t/*\n\t\t@Description: admin may call this function to allow a non wrapped asset to be provided as collateral\n\n\t\t@param address _asset: address of the asset that will be allows to be provided as collateral\n\t*/\n\tfunction whitelistAsset(address _assetAddress) internal {\n\t\t//all non wrapped assets have a pair value of address(1) in the _wrapperToUnderlyingAsset mapping\n\t\t_wrapperToUnderlyingAsset[_assetAddress] = address(1);\n\t}\n\n\t/*\n\t\t@Description: admin may call this function to allow a specific ZCB to be provided as collateral\n\n\t\t@param address _fixCapitalPoolAddress: address of the ZCB to whitelist\n\t*/\n\tfunction whitelistFixCapitalPool(address _fixCapitalPoolAddress) internal {\n\t\tIWrapper wrapper = IFixCapitalPool(_fixCapitalPoolAddress).wrapper();\n\t\twrapper.registerAsDistributionAccount();\n\t\t_fixCapitalPoolToWrapper[_fixCapitalPoolAddress] = address(wrapper);\n\t}\n\n\t/*\n\t\t@Description: admin may call this function to set the percentage of excess collateral that is retained\n\t\t\tby vault owners in the event of a liquidation\n\n\t\t@param uint _rebateBips: the percentage (in basis points) of excess collateral that is retained\n\t\t\tby vault owners in the event of a liquidation\n\t*/\n\tfunction setLiquidationRebate(uint _rebateBips) internal {\n\t\trequire(_rebateBips <= TOTAL_BASIS_POINTS);\n\t\t_liquidationRebateBips = _rebateBips;\n\t}\n\n\t/*\n\t\t@Description: admin may call this function to claim liquidation revenue\n\n\t\t@address _asset: the address of the asset for which to claim revenue\n\t*/\n\tfunction claimRevenue(address _asset) internal {\n\t\tuint rev = _revenue[_asset];\n\t\tuint toTreasury = rev >> 1;\n\t\tIInfoOracle iorc = IInfoOracle(_infoOracleAddress);\n\t\taddress treasuryAddr = iorc.sendTo();\n\t\tif (iorc.TreasuryFeeIsCollected()) {\n\t\t\tIERC20(_asset).safeTransfer(treasuryAddr, toTreasury);\n\t\t\tIERC20(_asset).safeTransfer(msg.sender, rev - toTreasury);\n\t\t}\n\t\telse {\n\t\t\tIERC20(_asset).safeTransfer(msg.sender, rev);\n\t\t}\n\t\t(, SUPPLIED_ASSET_TYPE sType, address baseFCP, address baseWrapper) = suppliedAssetInfo(_asset);\n\n\t\tif (sType == SUPPLIED_ASSET_TYPE.WASSET || sType == SUPPLIED_ASSET_TYPE.ZCB) {\n\n\t\t\tuint ownerSubAcctAmt = _revenueOwnerSubAcct[_asset];\n\t\t\tuint treasurySubAcctAmt = rev.sub(ownerSubAcctAmt);\n\n\t\t\tif (treasurySubAcctAmt > 0) {\n\t\t\t\teditSubAccountStandardVault(true, treasuryAddr, sType, baseFCP, baseWrapper, treasurySubAcctAmt.toInt().mul(-1));\n\t\t\t}\n\t\t\tif (ownerSubAcctAmt > 0) {\n\t\t\t\teditSubAccountStandardVault(false, msg.sender, sType, baseFCP, baseWrapper, ownerSubAcctAmt.toInt().mul(-1));\n\t\t\t}\n\t\t}\n\t\tdelete _revenue[_asset];\n\t\tdelete _revenueOwnerSubAcct[_asset];\n\t}\n\n\t/*\n\t\t@Description: admin may call this function to claim YT liquidation revenue\n\n\t\t@param address _FCP: the address of the FCP contract for which to claim revenue\n\t\t@param int _bondIn: the amount of bond to send in to make the transfer position have a\n\t\t\tpositive minimum value at maturity\n\t*/\n\tfunction claimYTRevenue(address _FCP, int _bondIn) internal {\n\t\trequire(_bondIn > -1);\n\t\tYTPosition memory pos = _YTRevenue[_FCP];\n\t\tIFixCapitalPool(_FCP).burnZCBFrom(msg.sender, uint(_bondIn));\n\t\tuint yieldToTreasury = pos.amountYield >> 1;\n\t\tint bondToTreasury = pos.amountBond.add(_bondIn) / 2;\n\t\taddress treasuryAddr = IInfoOracle(_infoOracleAddress).sendTo();\n\t\tIFixCapitalPool(_FCP).transferPosition(treasuryAddr, yieldToTreasury, bondToTreasury);\n\t\tIFixCapitalPool(_FCP).transferPosition(msg.sender, pos.amountYield - yieldToTreasury, (pos.amountBond + _bondIn) - bondToTreasury);\n\t\tdelete _YTRevenue[_FCP];\n\t}\n\n\tfunction manage(address _addr, int _num, MANAGE_METHOD _mm) external onlyOwner {\n\t\tif (_mm == MANAGE_METHOD.WHITELIST_WRAPPER) {\n\t\t\twhitelistWrapper(_addr);\n\t\t}\n\t\telse if (_mm == MANAGE_METHOD.WHITELIST_ASSET) {\n\t\t\twhitelistAsset(_addr);\n\t\t}\n\t\telse if (_mm == MANAGE_METHOD.WHITELIST_FCP) {\n\t\t\twhitelistFixCapitalPool(_addr);\n\t\t}\n\t\telse if (_mm == MANAGE_METHOD.SET_LIQ_REBATE) {\n\t\t\tsetLiquidationRebate(_num.toUint());\n\t\t}\n\t\telse if (_mm == MANAGE_METHOD.CLAIM_REVENUE) {\n\t\t\tclaimRevenue(_addr);\n\t\t}\n\t\telse if (_mm == MANAGE_METHOD.CLAIM_YT_REVENUE) {\n\t\t\tclaimYTRevenue(_addr, _num);\n\t\t}\n\t}\n\n}\n",
  "sourcePath": "/home/asher/FixFinanceV1/contracts/VaultFactory/NoStabilityFee/NSFVaultFactoryDelegate5.sol",
  "compiler": {
    "name": "solc",
    "version": "0.6.8+commit.0bbfe453.Emscripten.clang"
  },
  "schemaVersion": "3.4.1",
  "updatedAt": "2021-11-26T19:15:55.557Z",
  "devdoc": {
    "methods": {}
  },
  "userdoc": {
    "methods": {}
  }
}