{
  "contractName": "NSFVaultFactoryDelegate2",
  "abi": [
    {
      "inputs": [],
      "name": "owner",
      "outputs": [
        {
          "internalType": "address",
          "name": "",
          "type": "address"
        }
      ],
      "stateMutability": "view",
      "type": "function"
    },
    {
      "inputs": [
        {
          "internalType": "address",
          "name": "newOwner",
          "type": "address"
        }
      ],
      "name": "transferOwnership",
      "outputs": [],
      "stateMutability": "nonpayable",
      "type": "function"
    },
    {
      "inputs": [
        {
          "internalType": "address",
          "name": "_owner",
          "type": "address"
        },
        {
          "internalType": "uint256",
          "name": "_index",
          "type": "uint256"
        },
        {
          "internalType": "address",
          "name": "_assetBorrowed",
          "type": "address"
        },
        {
          "internalType": "address",
          "name": "_assetSupplied",
          "type": "address"
        },
        {
          "internalType": "uint256",
          "name": "_bid",
          "type": "uint256"
        },
        {
          "internalType": "uint256",
          "name": "_amtIn",
          "type": "uint256"
        }
      ],
      "name": "auctionLiquidation",
      "outputs": [],
      "stateMutability": "nonpayable",
      "type": "function"
    },
    {
      "inputs": [
        {
          "internalType": "uint256",
          "name": "_index",
          "type": "uint256"
        },
        {
          "internalType": "uint256",
          "name": "_bid",
          "type": "uint256"
        },
        {
          "internalType": "uint256",
          "name": "_amtIn",
          "type": "uint256"
        }
      ],
      "name": "bidOnLiquidation",
      "outputs": [],
      "stateMutability": "nonpayable",
      "type": "function"
    },
    {
      "inputs": [
        {
          "internalType": "uint256",
          "name": "_index",
          "type": "uint256"
        },
        {
          "internalType": "address",
          "name": "_to",
          "type": "address"
        }
      ],
      "name": "claimLiquidation",
      "outputs": [],
      "stateMutability": "nonpayable",
      "type": "function"
    },
    {
      "inputs": [
        {
          "internalType": "address",
          "name": "_owner",
          "type": "address"
        },
        {
          "internalType": "uint256",
          "name": "_index",
          "type": "uint256"
        },
        {
          "internalType": "address",
          "name": "_assetBorrowed",
          "type": "address"
        },
        {
          "internalType": "address",
          "name": "_assetSupplied",
          "type": "address"
        },
        {
          "internalType": "uint256",
          "name": "_maxIn",
          "type": "uint256"
        },
        {
          "internalType": "uint256",
          "name": "_minOut",
          "type": "uint256"
        },
        {
          "internalType": "address",
          "name": "_to",
          "type": "address"
        }
      ],
      "name": "instantLiquidation",
      "outputs": [],
      "stateMutability": "nonpayable",
      "type": "function"
    },
    {
      "inputs": [
        {
          "internalType": "address",
          "name": "_owner",
          "type": "address"
        },
        {
          "internalType": "uint256",
          "name": "_index",
          "type": "uint256"
        },
        {
          "internalType": "address",
          "name": "_assetBorrowed",
          "type": "address"
        },
        {
          "internalType": "address",
          "name": "_assetSupplied",
          "type": "address"
        },
        {
          "internalType": "uint256",
          "name": "_in",
          "type": "uint256"
        },
        {
          "internalType": "uint256",
          "name": "_minOut",
          "type": "uint256"
        },
        {
          "internalType": "address",
          "name": "_to",
          "type": "address"
        }
      ],
      "name": "partialLiquidationSpecificIn",
      "outputs": [],
      "stateMutability": "nonpayable",
      "type": "function"
    },
    {
      "inputs": [
        {
          "internalType": "address",
          "name": "_owner",
          "type": "address"
        },
        {
          "internalType": "uint256",
          "name": "_index",
          "type": "uint256"
        },
        {
          "internalType": "address",
          "name": "_assetBorrowed",
          "type": "address"
        },
        {
          "internalType": "address",
          "name": "_assetSupplied",
          "type": "address"
        },
        {
          "internalType": "uint256",
          "name": "_out",
          "type": "uint256"
        },
        {
          "internalType": "uint256",
          "name": "_maxIn",
          "type": "uint256"
        },
        {
          "internalType": "address",
          "name": "_to",
          "type": "address"
        }
      ],
      "name": "partialLiquidationSpecificOut",
      "outputs": [],
      "stateMutability": "nonpayable",
      "type": "function"
    }
  ],
  "bytecode": "0x608060405234801561001057600080fd5b50336000806101000a81548173ffffffffffffffffffffffffffffffffffffffff021916908373ffffffffffffffffffffffffffffffffffffffff160217905550613f6f806100606000396000f3fe608060405234801561001057600080fd5b50600436106100885760003560e01c80638da5cb5b1161005b5780638da5cb5b146102f5578063b36c96181461033f578063f2fde38b1461038d578063fe4b3a5f146103d157610088565b806302746a801461008d5780633054fa7b1461012f5780636cb7c89014610171578063736c8c8d14610233575b600080fd5b61012d600480360360c08110156100a357600080fd5b81019080803573ffffffffffffffffffffffffffffffffffffffff16906020019092919080359060200190929190803573ffffffffffffffffffffffffffffffffffffffff169060200190929190803573ffffffffffffffffffffffffffffffffffffffff1690602001909291908035906020019092919080359060200190929190505050610493565b005b61016f6004803603606081101561014557600080fd5b81019080803590602001909291908035906020019092919080359060200190929190505050610bdf565b005b610231600480360360e081101561018757600080fd5b81019080803573ffffffffffffffffffffffffffffffffffffffff16906020019092919080359060200190929190803573ffffffffffffffffffffffffffffffffffffffff169060200190929190803573ffffffffffffffffffffffffffffffffffffffff1690602001909291908035906020019092919080359060200190929190803573ffffffffffffffffffffffffffffffffffffffff1690602001909291905050506111a4565b005b6102f3600480360360e081101561024957600080fd5b81019080803573ffffffffffffffffffffffffffffffffffffffff16906020019092919080359060200190929190803573ffffffffffffffffffffffffffffffffffffffff169060200190929190803573ffffffffffffffffffffffffffffffffffffffff1690602001909291908035906020019092919080359060200190929190803573ffffffffffffffffffffffffffffffffffffffff169060200190929190505050611748565b005b6102fd611d0e565b604051808273ffffffffffffffffffffffffffffffffffffffff1673ffffffffffffffffffffffffffffffffffffffff16815260200191505060405180910390f35b61038b6004803603604081101561035557600080fd5b8101908080359060200190929190803573ffffffffffffffffffffffffffffffffffffffff169060200190929190505050611d33565b005b6103cf600480360360208110156103a357600080fd5b81019080803573ffffffffffffffffffffffffffffffffffffffff1690602001909291905050506120ac565b005b610491600480360360e08110156103e757600080fd5b81019080803573ffffffffffffffffffffffffffffffffffffffff16906020019092919080359060200190929190803573ffffffffffffffffffffffffffffffffffffffff169060200190929190803573ffffffffffffffffffffffffffffffffffffffff1690602001909291908035906020019092919080359060200190929190803573ffffffffffffffffffffffffffffffffffffffff1690602001909291905050506121e6565b005b84600a60008873ffffffffffffffffffffffffffffffffffffffff1673ffffffffffffffffffffffffffffffffffffffff16815260200190815260200160002080549050116104e157600080fd5b6104e9613d90565b600a60008873ffffffffffffffffffffffffffffffffffffffff1673ffffffffffffffffffffffffffffffffffffffff168152602001908152602001600020868154811061053357fe5b90600052602060002090600402016040518060800160405290816000820160009054906101000a900473ffffffffffffffffffffffffffffffffffffffff1673ffffffffffffffffffffffffffffffffffffffff1673ffffffffffffffffffffffffffffffffffffffff1681526020016001820160009054906101000a900473ffffffffffffffffffffffffffffffffffffffff1673ffffffffffffffffffffffffffffffffffffffff1673ffffffffffffffffffffffffffffffffffffffff1681526020016002820154815260200160038201548152505090508473ffffffffffffffffffffffffffffffffffffffff16816020015173ffffffffffffffffffffffffffffffffffffffff161461064a57600080fd5b8373ffffffffffffffffffffffffffffffffffffffff16816000015173ffffffffffffffffffffffffffffffffffffffff161461068657600080fd5b8181606001511015801561069a5750600082115b6106a357600080fd5b6000816060015183836040015102816106b857fe5b049050838110156106c857600080fd5b6106e682600001518360200151846040015185606001516001612770565b15610787576000826020015173ffffffffffffffffffffffffffffffffffffffff1663204f83f96040518163ffffffff1660e01b815260040160206040518083038186803b15801561073757600080fd5b505afa15801561074b573d6000803e3d6000fd5b505050506040513d602081101561076157600080fd5b8101908080519060200190929190505050905062093a804201811061078557600080fd5b505b60008673ffffffffffffffffffffffffffffffffffffffff166362af375b6040518163ffffffff1660e01b815260040160206040518083038186803b1580156107cf57600080fd5b505afa1580156107e3573d6000803e3d6000fd5b505050506040513d60208110156107f957600080fd5b81019080805190602001909291905050509050610817338286612792565b6108218185612836565b8185101561083d5761083c8984600001518785036001612955565b5b826060015184141561090757600a60008a73ffffffffffffffffffffffffffffffffffffffff1673ffffffffffffffffffffffffffffffffffffffff168152602001908152602001600020888154811061089357fe5b9060005260206000209060040201600080820160006101000a81549073ffffffffffffffffffffffffffffffffffffffff02191690556001820160006101000a81549073ffffffffffffffffffffffffffffffffffffffff02191690556002820160009055600382016000905550506109da565b83600a60008b73ffffffffffffffffffffffffffffffffffffffff1673ffffffffffffffffffffffffffffffffffffffff168152602001908152602001600020898154811061095257fe5b90600052602060002090600402016003016000828254039250508190555081600a60008b73ffffffffffffffffffffffffffffffffffffffff1673ffffffffffffffffffffffffffffffffffffffff16815260200190815260200160002089815481106109bb57fe5b9060005260206000209060040201600201600082825403925050819055505b600e6040518060e001604052808b73ffffffffffffffffffffffffffffffffffffffff168152602001856000015173ffffffffffffffffffffffffffffffffffffffff168152602001856020015173ffffffffffffffffffffffffffffffffffffffff1681526020018681526020013373ffffffffffffffffffffffffffffffffffffffff16815260200187815260200142815250908060018154018082558091505060019003906000526020600020906007020160009091909190915060008201518160000160006101000a81548173ffffffffffffffffffffffffffffffffffffffff021916908373ffffffffffffffffffffffffffffffffffffffff16021790555060208201518160010160006101000a81548173ffffffffffffffffffffffffffffffffffffffff021916908373ffffffffffffffffffffffffffffffffffffffff16021790555060408201518160020160006101000a81548173ffffffffffffffffffffffffffffffffffffffff021916908373ffffffffffffffffffffffffffffffffffffffff1602179055506060820151816003015560808201518160040160006101000a81548173ffffffffffffffffffffffffffffffffffffffff021916908373ffffffffffffffffffffffffffffffffffffffff16021790555060a0820151816005015560c082015181600601555050505050505050505050565b82600e8054905011610bf057600080fd5b610bf8613de4565b600e8481548110610c0557fe5b90600052602060002090600702016040518060e00160405290816000820160009054906101000a900473ffffffffffffffffffffffffffffffffffffffff1673ffffffffffffffffffffffffffffffffffffffff1673ffffffffffffffffffffffffffffffffffffffff1681526020016001820160009054906101000a900473ffffffffffffffffffffffffffffffffffffffff1673ffffffffffffffffffffffffffffffffffffffff1673ffffffffffffffffffffffffffffffffffffffff1681526020016002820160009054906101000a900473ffffffffffffffffffffffffffffffffffffffff1673ffffffffffffffffffffffffffffffffffffffff1673ffffffffffffffffffffffffffffffffffffffff168152602001600382015481526020016004820160009054906101000a900473ffffffffffffffffffffffffffffffffffffffff1673ffffffffffffffffffffffffffffffffffffffff1673ffffffffffffffffffffffffffffffffffffffff168152602001600582015481526020016006820154815250509050816000108015610daa575080606001518211155b610db357600080fd5b60008160600151838360a001510281610dc857fe5b049050808410610dd757600080fd5b6000826040015173ffffffffffffffffffffffffffffffffffffffff166362af375b6040518163ffffffff1660e01b815260040160206040518083038186803b158015610e2357600080fd5b505afa158015610e37573d6000803e3d6000fd5b505050506040513d6020811015610e4d57600080fd5b81019080805190602001909291905050509050610e6f83608001518286612d11565b610e7a338286612792565b610e91836000015184602001518785036001612955565b8260600151841415610f455784600e8781548110610eab57fe5b90600052602060002090600702016005018190555042600e8781548110610ece57fe5b90600052602060002090600702016006018190555033600e8781548110610ef157fe5b906000526020600020906007020160040160006101000a81548173ffffffffffffffffffffffffffffffffffffffff021916908373ffffffffffffffffffffffffffffffffffffffff16021790555061119c565b81600e8781548110610f5357fe5b90600052602060002090600702016005016000828254039250508190555083600e8781548110610f7f57fe5b906000526020600020906007020160030160008282540392505081905550600e6040518060e00160405280856000015173ffffffffffffffffffffffffffffffffffffffff168152602001856020015173ffffffffffffffffffffffffffffffffffffffff168152602001856040015173ffffffffffffffffffffffffffffffffffffffff1681526020018681526020013373ffffffffffffffffffffffffffffffffffffffff16815260200187815260200142815250908060018154018082558091505060019003906000526020600020906007020160009091909190915060008201518160000160006101000a81548173ffffffffffffffffffffffffffffffffffffffff021916908373ffffffffffffffffffffffffffffffffffffffff16021790555060208201518160010160006101000a81548173ffffffffffffffffffffffffffffffffffffffff021916908373ffffffffffffffffffffffffffffffffffffffff16021790555060408201518160020160006101000a81548173ffffffffffffffffffffffffffffffffffffffff021916908373ffffffffffffffffffffffffffffffffffffffff1602179055506060820151816003015560808201518160040160006101000a81548173ffffffffffffffffffffffffffffffffffffffff021916908373ffffffffffffffffffffffffffffffffffffffff16021790555060a0820151816005015560c0820151816006015550505b505050505050565b85600a60008973ffffffffffffffffffffffffffffffffffffffff1673ffffffffffffffffffffffffffffffffffffffff16815260200190815260200160002080549050116111f257600080fd5b6111fa613d90565b600a60008973ffffffffffffffffffffffffffffffffffffffff1673ffffffffffffffffffffffffffffffffffffffff168152602001908152602001600020878154811061124457fe5b90600052602060002090600402016040518060800160405290816000820160009054906101000a900473ffffffffffffffffffffffffffffffffffffffff1673ffffffffffffffffffffffffffffffffffffffff1673ffffffffffffffffffffffffffffffffffffffff1681526020016001820160009054906101000a900473ffffffffffffffffffffffffffffffffffffffff1673ffffffffffffffffffffffffffffffffffffffff1673ffffffffffffffffffffffffffffffffffffffff1681526020016002820154815260200160038201548152505090508573ffffffffffffffffffffffffffffffffffffffff16816020015173ffffffffffffffffffffffffffffffffffffffff161461135b57600080fd5b8473ffffffffffffffffffffffffffffffffffffffff16816000015173ffffffffffffffffffffffffffffffffffffffff161461139757600080fd5b8360001080156113ab575080606001518411155b6113b457600080fd5b6000816060015182604001518602816113c957fe5b049050838110156113d957600080fd5b6000826020015173ffffffffffffffffffffffffffffffffffffffff166362af375b6040518163ffffffff1660e01b815260040160206040518083038186803b15801561142557600080fd5b505afa158015611439573d6000803e3d6000fd5b505050506040513d602081101561144f57600080fd5b810190808051906020019092919050505090508073ffffffffffffffffffffffffffffffffffffffff1663fc2807f185886040518363ffffffff1660e01b8152600401808373ffffffffffffffffffffffffffffffffffffffff1673ffffffffffffffffffffffffffffffffffffffff16815260200182815260200192505050600060405180830381600087803b1580156114e957600080fd5b505af11580156114fd573d6000803e3d6000fd5b5050505061150b8187612836565b61153684838973ffffffffffffffffffffffffffffffffffffffff16612db59092919063ffffffff16565b60008060006201518042018b73ffffffffffffffffffffffffffffffffffffffff1663204f83f96040518163ffffffff1660e01b815260040160206040518083038186803b15801561158757600080fd5b505afa15801561159b573d6000803e3d6000fd5b505050506040513d60208110156115b157600080fd5b8101908080519060200190929190505050106116085760006115e78760000151886020015189604001518a606001516000612e6d565b80955081965082975083945050505050801561160257600080fd5b50611622565b6116118a6130f8565b909192508093508194508295505050505b7f7fffffffffffffffffffffffffffffffffffffffffffffffffffffffffffffff85111561164f57600080fd5b600085600003905061166660008f8686868661330b565b5050505085600a60008c73ffffffffffffffffffffffffffffffffffffffff1673ffffffffffffffffffffffffffffffffffffffff1681526020019081526020016000208a815481106116b557fe5b90600052602060002090600402016003016000828254039250508190555081600a60008c73ffffffffffffffffffffffffffffffffffffffff1673ffffffffffffffffffffffffffffffffffffffff1681526020019081526020016000208a8154811061171e57fe5b90600052602060002090600402016002016000828254039250508190555050505050505050505050565b85600a60008973ffffffffffffffffffffffffffffffffffffffff1673ffffffffffffffffffffffffffffffffffffffff168152602001908152602001600020805490501161179657600080fd5b61179e613d90565b600a60008973ffffffffffffffffffffffffffffffffffffffff1673ffffffffffffffffffffffffffffffffffffffff16815260200190815260200160002087815481106117e857fe5b90600052602060002090600402016040518060800160405290816000820160009054906101000a900473ffffffffffffffffffffffffffffffffffffffff1673ffffffffffffffffffffffffffffffffffffffff1673ffffffffffffffffffffffffffffffffffffffff1681526020016001820160009054906101000a900473ffffffffffffffffffffffffffffffffffffffff1673ffffffffffffffffffffffffffffffffffffffff1673ffffffffffffffffffffffffffffffffffffffff1681526020016002820154815260200160038201548152505090508573ffffffffffffffffffffffffffffffffffffffff16816020015173ffffffffffffffffffffffffffffffffffffffff16146118ff57600080fd5b8473ffffffffffffffffffffffffffffffffffffffff16816000015173ffffffffffffffffffffffffffffffffffffffff161461193b57600080fd5b838160400151101561194c57600080fd5b600081606001518502905060008260400151828161196657fe5b0614611973576001611976565b60005b60ff168260400151828161198657fe5b0401905080600010801561199a5750838111155b6119a357600080fd5b60008773ffffffffffffffffffffffffffffffffffffffff166362af375b6040518163ffffffff1660e01b815260040160206040518083038186803b1580156119eb57600080fd5b505afa1580156119ff573d6000803e3d6000fd5b505050506040513d6020811015611a1557600080fd5b810190808051906020019092919050505090508073ffffffffffffffffffffffffffffffffffffffff1663fc2807f185846040518363ffffffff1660e01b8152600401808373ffffffffffffffffffffffffffffffffffffffff1673ffffffffffffffffffffffffffffffffffffffff16815260200182815260200192505050600060405180830381600087803b158015611aaf57600080fd5b505af1158015611ac3573d6000803e3d6000fd5b50505050611ad18183612836565b611afc84878973ffffffffffffffffffffffffffffffffffffffff16612db59092919063ffffffff16565b60008060006201518042018b73ffffffffffffffffffffffffffffffffffffffff1663204f83f96040518163ffffffff1660e01b815260040160206040518083038186803b158015611b4d57600080fd5b505afa158015611b61573d6000803e3d6000fd5b505050506040513d6020811015611b7757600080fd5b810190808051906020019092919050505010611bce576000611bad8760000151886020015189604001518a606001516000612e6d565b809550819650829750839450505050508015611bc857600080fd5b50611be8565b611bd78a6130f8565b909192508093508194508295505050505b7f7fffffffffffffffffffffffffffffffffffffffffffffffffffffffffffffff891115611c1557600080fd5b6000896000039050611c2c60008f8686868661330b565b5050505081600a60008c73ffffffffffffffffffffffffffffffffffffffff1673ffffffffffffffffffffffffffffffffffffffff1681526020019081526020016000208a81548110611c7b57fe5b90600052602060002090600402016003016000828254039250508190555085600a60008c73ffffffffffffffffffffffffffffffffffffffff1673ffffffffffffffffffffffffffffffffffffffff1681526020019081526020016000208a81548110611ce457fe5b90600052602060002090600402016002016000828254039250508190555050505050505050505050565b6000809054906101000a900473ffffffffffffffffffffffffffffffffffffffff1681565b81600e8054905011611d4457600080fd5b611d4c613de4565b600e8381548110611d5957fe5b90600052602060002090600702016040518060e00160405290816000820160009054906101000a900473ffffffffffffffffffffffffffffffffffffffff1673ffffffffffffffffffffffffffffffffffffffff1673ffffffffffffffffffffffffffffffffffffffff1681526020016001820160009054906101000a900473ffffffffffffffffffffffffffffffffffffffff1673ffffffffffffffffffffffffffffffffffffffff1673ffffffffffffffffffffffffffffffffffffffff1681526020016002820160009054906101000a900473ffffffffffffffffffffffffffffffffffffffff1673ffffffffffffffffffffffffffffffffffffffff1673ffffffffffffffffffffffffffffffffffffffff168152602001600382015481526020016004820160009054906101000a900473ffffffffffffffffffffffffffffffffffffffff1673ffffffffffffffffffffffffffffffffffffffff1673ffffffffffffffffffffffffffffffffffffffff168152602001600582015481526020016006820154815250509050806080015173ffffffffffffffffffffffffffffffffffffffff163373ffffffffffffffffffffffffffffffffffffffff1614611f2657600080fd5b8060c0015161025801421015611f3b57600080fd5b600e8381548110611f4857fe5b9060005260206000209060070201600080820160006101000a81549073ffffffffffffffffffffffffffffffffffffffff02191690556001820160006101000a81549073ffffffffffffffffffffffffffffffffffffffff02191690556002820160006101000a81549073ffffffffffffffffffffffffffffffffffffffff021916905560038201600090556004820160006101000a81549073ffffffffffffffffffffffffffffffffffffffff0219169055600582016000905560068201600090555050612040828260a00151836020015173ffffffffffffffffffffffffffffffffffffffff16612db59092919063ffffffff16565b600080600061205284602001516130f8565b935093509350507f7fffffffffffffffffffffffffffffffffffffffffffffffffffffffffffffff8460a00151111561208a57600080fd5b6120a4600085600001518585858960a0015160000361330b565b505050505050565b6000809054906101000a900473ffffffffffffffffffffffffffffffffffffffff1673ffffffffffffffffffffffffffffffffffffffff163373ffffffffffffffffffffffffffffffffffffffff161461216e576040517f08c379a000000000000000000000000000000000000000000000000000000000815260040180806020018281038252600a8152602001807f6f6e6c79206f776e65720000000000000000000000000000000000000000000081525060200191505060405180910390fd5b600073ffffffffffffffffffffffffffffffffffffffff168173ffffffffffffffffffffffffffffffffffffffff16146121e357806000806101000a81548173ffffffffffffffffffffffffffffffffffffffff021916908373ffffffffffffffffffffffffffffffffffffffff1602179055505b50565b85600a60008973ffffffffffffffffffffffffffffffffffffffff1673ffffffffffffffffffffffffffffffffffffffff168152602001908152602001600020805490501161223457600080fd5b61223c613d90565b600a60008973ffffffffffffffffffffffffffffffffffffffff1673ffffffffffffffffffffffffffffffffffffffff168152602001908152602001600020878154811061228657fe5b90600052602060002090600402016040518060800160405290816000820160009054906101000a900473ffffffffffffffffffffffffffffffffffffffff1673ffffffffffffffffffffffffffffffffffffffff1673ffffffffffffffffffffffffffffffffffffffff1681526020016001820160009054906101000a900473ffffffffffffffffffffffffffffffffffffffff1673ffffffffffffffffffffffffffffffffffffffff1673ffffffffffffffffffffffffffffffffffffffff1681526020016002820154815260200160038201548152505090508573ffffffffffffffffffffffffffffffffffffffff16816020015173ffffffffffffffffffffffffffffffffffffffff161461239d57600080fd5b8473ffffffffffffffffffffffffffffffffffffffff16816000015173ffffffffffffffffffffffffffffffffffffffff16146123d957600080fd5b83816060015111156123ea57600080fd5b828160400151101580156123fe5750600083115b61240757600080fd5b6000816020015173ffffffffffffffffffffffffffffffffffffffff166362af375b6040518163ffffffff1660e01b815260040160206040518083038186803b15801561245357600080fd5b505afa158015612467573d6000803e3d6000fd5b505050506040513d602081101561247d57600080fd5b810190808051906020019092919050505090508073ffffffffffffffffffffffffffffffffffffffff1663fc2807f18484606001516040518363ffffffff1660e01b8152600401808373ffffffffffffffffffffffffffffffffffffffff1673ffffffffffffffffffffffffffffffffffffffff16815260200182815260200192505050600060405180830381600087803b15801561251b57600080fd5b505af115801561252f573d6000803e3d6000fd5b50505050612541818360600151612836565b6125708383604001518873ffffffffffffffffffffffffffffffffffffffff16612db59092919063ffffffff16565b60008060006201518042018a73ffffffffffffffffffffffffffffffffffffffff1663204f83f96040518163ffffffff1660e01b815260040160206040518083038186803b1580156125c157600080fd5b505afa1580156125d5573d6000803e3d6000fd5b505050506040513d60208110156125eb57600080fd5b81019080805190602001909291905050501061264257600061262186600001518760200151886040015189606001516000612e6d565b80955081965082975083945050505050801561263c57600080fd5b5061265c565b61264b896130f8565b909192508093508194508295505050505b7f7fffffffffffffffffffffffffffffffffffffffffffffffffffffffffffffff8560400151111561268d57600080fd5b6000856040015160000390506126a860008e8686868661330b565b50505050600a60008a73ffffffffffffffffffffffffffffffffffffffff1673ffffffffffffffffffffffffffffffffffffffff16815260200190815260200160002088815481106126f657fe5b9060005260206000209060040201600080820160006101000a81549073ffffffffffffffffffffffffffffffffffffffff02191690556001820160006101000a81549073ffffffffffffffffffffffffffffffffffffffff0219169055600282016000905560038201600090555050505050505050505050565b600061277f8686868686612e6d565b9091509050508091505095945050505050565b8173ffffffffffffffffffffffffffffffffffffffff1663fc2807f184836040518363ffffffff1660e01b8152600401808373ffffffffffffffffffffffffffffffffffffffff1673ffffffffffffffffffffffffffffffffffffffff16815260200182815260200192505050600060405180830381600087803b15801561281957600080fd5b505af115801561282d573d6000803e3d6000fd5b50505050505050565b60008273ffffffffffffffffffffffffffffffffffffffff166389d1a0fc6040518163ffffffff1660e01b815260040160206040518083038186803b15801561287e57600080fd5b505afa158015612892573d6000803e3d6000fd5b505050506040513d60208110156128a857600080fd5b8101908080519060200190929190505050905061290d82600360008473ffffffffffffffffffffffffffffffffffffffff1673ffffffffffffffffffffffffffffffffffffffff1681526020019081526020016000205461352990919063ffffffff16565b600360008373ffffffffffffffffffffffffffffffffffffffff1673ffffffffffffffffffffffffffffffffffffffff16815260200190815260200160002081905550505050565b600061271061296f600d548561357390919063ffffffff16565b8161297657fe5b0490506000818403905081600460008873ffffffffffffffffffffffffffffffffffffffff1673ffffffffffffffffffffffffffffffffffffffff16815260200190815260200160002060008773ffffffffffffffffffffffffffffffffffffffff1673ffffffffffffffffffffffffffffffffffffffff16815260200190815260200160002060008282540192505081905550612a5c81600860008873ffffffffffffffffffffffffffffffffffffffff1673ffffffffffffffffffffffffffffffffffffffff168152602001908152602001600020546135f990919063ffffffff16565b600860008773ffffffffffffffffffffffffffffffffffffffff1673ffffffffffffffffffffffffffffffffffffffff168152602001908152602001600020819055506000600c60009054906101000a900473ffffffffffffffffffffffffffffffffffffffff1690506000806000612ad4896130f8565b93509350935050612b23878b858585612b1e7fffffffffffffffffffffffffffffffffffffffffffffffffffffffffffffffff612b108d613681565b61370390919063ffffffff16565b61330b565b60008473ffffffffffffffffffffffffffffffffffffffff16637348c8576040518163ffffffff1660e01b815260040160206040518083038186803b158015612b6b57600080fd5b505afa158015612b7f573d6000803e3d6000fd5b505050506040513d6020811015612b9557600080fd5b810190808051906020019092919050505015612c33578473ffffffffffffffffffffffffffffffffffffffff1663489e09516040518163ffffffff1660e01b815260040160206040518083038186803b158015612bf157600080fd5b505afa158015612c05573d6000803e3d6000fd5b505050506040513d6020811015612c1b57600080fd5b81019080805190602001909291905050509050612ced565b6000809054906101000a900473ffffffffffffffffffffffffffffffffffffffff169050612ca986600960008d73ffffffffffffffffffffffffffffffffffffffff1673ffffffffffffffffffffffffffffffffffffffff168152602001908152602001600020546135f990919063ffffffff16565b600960008c73ffffffffffffffffffffffffffffffffffffffff1673ffffffffffffffffffffffffffffffffffffffff168152602001908152602001600020819055505b612d04600082868686612cff8c613681565b61330b565b5050505050505050505050565b8173ffffffffffffffffffffffffffffffffffffffff1663af0b460684836040518363ffffffff1660e01b8152600401808373ffffffffffffffffffffffffffffffffffffffff1673ffffffffffffffffffffffffffffffffffffffff16815260200182815260200192505050600060405180830381600087803b158015612d9857600080fd5b505af1158015612dac573d6000803e3d6000fd5b50505050505050565b612e688363a9059cbb60e01b8484604051602401808373ffffffffffffffffffffffffffffffffffffffff1673ffffffffffffffffffffffffffffffffffffffff16815260200182815260200192505050604051602081830303815290604052907bffffffffffffffffffffffffffffffffffffffffffffffffffffffff19166020820180517bffffffffffffffffffffffffffffffffffffffffffffffffffffffff838183161783525050505061382d565b505050565b6000806000806000612e7e8a6130f8565b80955081965082975083945050505050600080612e9c8c8b8561391c565b9150915087612fc857601060009054906101000a900473ffffffffffffffffffffffffffffffffffffffff1673ffffffffffffffffffffffffffffffffffffffff16636ef04e3d838d848d6040518563ffffffff1660e01b8152600401808573ffffffffffffffffffffffffffffffffffffffff1673ffffffffffffffffffffffffffffffffffffffff1681526020018473ffffffffffffffffffffffffffffffffffffffff1673ffffffffffffffffffffffffffffffffffffffff16815260200183815260200182815260200194505050505060206040518083038186803b158015612f8857600080fd5b505afa158015612f9c573d6000803e3d6000fd5b505050506040513d6020811015612fb257600080fd5b81019080805190602001909291905050506130e7565b601060009054906101000a900473ffffffffffffffffffffffffffffffffffffffff1673ffffffffffffffffffffffffffffffffffffffff166340a4b559838d848d6040518563ffffffff1660e01b8152600401808573ffffffffffffffffffffffffffffffffffffffff1673ffffffffffffffffffffffffffffffffffffffff1681526020018473ffffffffffffffffffffffffffffffffffffffff1673ffffffffffffffffffffffffffffffffffffffff16815260200183815260200182815260200194505050505060206040518083038186803b1580156130ab57600080fd5b505afa1580156130bf573d6000803e3d6000fd5b505050506040513d60208110156130d557600080fd5b81019080805190602001909291905050505b965050505095509550955095915050565b600080600080600160008673ffffffffffffffffffffffffffffffffffffffff1673ffffffffffffffffffffffffffffffffffffffff16815260200190815260200160002060009054906101000a900473ffffffffffffffffffffffffffffffffffffffff169350600073ffffffffffffffffffffffffffffffffffffffff168473ffffffffffffffffffffffffffffffffffffffff1614156132bd578473ffffffffffffffffffffffffffffffffffffffff166362af375b6040518163ffffffff1660e01b815260040160206040518083038186803b1580156131db57600080fd5b505afa1580156131ef573d6000803e3d6000fd5b505050506040513d602081101561320557600080fd5b81019080805190602001909291905050509150600260008373ffffffffffffffffffffffffffffffffffffffff1673ffffffffffffffffffffffffffffffffffffffff16815260200190815260200160002060009054906101000a900473ffffffffffffffffffffffffffffffffffffffff169050600073ffffffffffffffffffffffffffffffffffffffff168173ffffffffffffffffffffffffffffffffffffffff1614156132b457600080fd5b60029250613304565b600173ffffffffffffffffffffffffffffffffffffffff168473ffffffffffffffffffffffffffffffffffffffff1614156132fb5760009250613303565b849050600192505b5b9193509193565b6001600381111561331857fe5b84600381111561332457fe5b1415613418578173ffffffffffffffffffffffffffffffffffffffff16637c9dd789878760008560006040518663ffffffff1660e01b815260040180861515151581526020018573ffffffffffffffffffffffffffffffffffffffff1673ffffffffffffffffffffffffffffffffffffffff1681526020018473ffffffffffffffffffffffffffffffffffffffff1673ffffffffffffffffffffffffffffffffffffffff16815260200183815260200182815260200195505050505050600060405180830381600087803b1580156133fb57600080fd5b505af115801561340f573d6000803e3d6000fd5b50505050613521565b6002600381111561342557fe5b84600381111561343157fe5b1415613520578173ffffffffffffffffffffffffffffffffffffffff16637c9dd7898787866000866040518663ffffffff1660e01b815260040180861515151581526020018573ffffffffffffffffffffffffffffffffffffffff1673ffffffffffffffffffffffffffffffffffffffff1681526020018473ffffffffffffffffffffffffffffffffffffffff1673ffffffffffffffffffffffffffffffffffffffff16815260200183815260200182815260200195505050505050600060405180830381600087803b15801561350757600080fd5b505af115801561351b573d6000803e3d6000fd5b505050505b5b505050505050565b600061356b83836040518060400160405280601e81526020017f536166654d6174683a207375627472616374696f6e206f766572666c6f770000815250613a30565b905092915050565b60008083141561358657600090506135f3565b600082840290508284828161359757fe5b04146135ee576040517f08c379a0000000000000000000000000000000000000000000000000000000008152600401808060200182810382526021815260200180613ec86021913960400191505060405180910390fd5b809150505b92915050565b600080828401905083811015613677576040517f08c379a000000000000000000000000000000000000000000000000000000000815260040180806020018281038252601b8152602001807f536166654d6174683a206164646974696f6e206f766572666c6f77000000000081525060200191505060405180910390fd5b8091505092915050565b60007fffffffffffffffffffffffffffffffffffffffffffffffffffffffffffffffff82915081136136fe576040517f08c379a0000000000000000000000000000000000000000000000000000000008152600401808060200182810382526028815260200180613ea06028913960400191505060405180910390fd5b919050565b6000808314156137165760009050613827565b7fffffffffffffffffffffffffffffffffffffffffffffffffffffffffffffffff8314801561376457507f800000000000000000000000000000000000000000000000000000000000000082145b156137ba576040517f08c379a0000000000000000000000000000000000000000000000000000000008152600401808060200182810382526027815260200180613ee96027913960400191505060405180910390fd5b60008284029050828482816137cb57fe5b0514613822576040517f08c379a0000000000000000000000000000000000000000000000000000000008152600401808060200182810382526027815260200180613ee96027913960400191505060405180910390fd5b809150505b92915050565b606061388f826040518060400160405280602081526020017f5361666545524332303a206c6f772d6c6576656c2063616c6c206661696c65648152508573ffffffffffffffffffffffffffffffffffffffff16613af09092919063ffffffff16565b9050600081511115613917578080602001905160208110156138b057600080fd5b8101908080519060200190929190505050613916576040517f08c379a000000000000000000000000000000000000000000000000000000000815260040180806020018281038252602a815260200180613f10602a913960400191505060405180910390fd5b5b505050565b600080600073ffffffffffffffffffffffffffffffffffffffff168373ffffffffffffffffffffffffffffffffffffffff1614806139865750600173ffffffffffffffffffffffffffffffffffffffff168373ffffffffffffffffffffffffffffffffffffffff16145b1561399657849150839050613a28565b8473ffffffffffffffffffffffffffffffffffffffff16630247c79c856040518263ffffffff1660e01b81526004018082815260200191505060206040518083038186803b1580156139e757600080fd5b505afa1580156139fb573d6000803e3d6000fd5b505050506040513d6020811015613a1157600080fd5b810190808051906020019092919050505090508291505b935093915050565b6000838311158290613add576040517f08c379a00000000000000000000000000000000000000000000000000000000081526004018080602001828103825283818151815260200191508051906020019080838360005b83811015613aa2578082015181840152602081019050613a87565b50505050905090810190601f168015613acf5780820380516001836020036101000a031916815260200191505b509250505060405180910390fd5b5060008385039050809150509392505050565b6060613aff8484600085613b08565b90509392505050565b606082471015613b63576040517f08c379a0000000000000000000000000000000000000000000000000000000008152600401808060200182810382526026815260200180613e7a6026913960400191505060405180910390fd5b613b6c85613cb1565b613bde576040517f08c379a000000000000000000000000000000000000000000000000000000000815260040180806020018281038252601d8152602001807f416464726573733a2063616c6c20746f206e6f6e2d636f6e747261637400000081525060200191505060405180910390fd5b600060608673ffffffffffffffffffffffffffffffffffffffff1685876040518082805190602001908083835b60208310613c2e5780518252602082019150602081019050602083039250613c0b565b6001836020036101000a03801982511681845116808217855250505050505090500191505060006040518083038185875af1925050503d8060008114613c90576040519150601f19603f3d011682016040523d82523d6000602084013e613c95565b606091505b5091509150613ca5828286613cc4565b92505050949350505050565b600080823b905060008111915050919050565b60608315613cd457829050613d89565b600083511115613ce75782518084602001fd5b816040517f08c379a00000000000000000000000000000000000000000000000000000000081526004018080602001828103825283818151815260200191508051906020019080838360005b83811015613d4e578082015181840152602081019050613d33565b50505050905090810190601f168015613d7b5780820380516001836020036101000a031916815260200191505b509250505060405180910390fd5b9392505050565b6040518060800160405280600073ffffffffffffffffffffffffffffffffffffffff168152602001600073ffffffffffffffffffffffffffffffffffffffff16815260200160008152602001600081525090565b6040518060e00160405280600073ffffffffffffffffffffffffffffffffffffffff168152602001600073ffffffffffffffffffffffffffffffffffffffff168152602001600073ffffffffffffffffffffffffffffffffffffffff16815260200160008152602001600073ffffffffffffffffffffffffffffffffffffffff1681526020016000815260200160008152509056fe416464726573733a20696e73756666696369656e742062616c616e636520666f722063616c6c536166654d6174683a20696e76616c69642075696e7420746f20696e7420636f6e76657273696f6e536166654d6174683a206d756c7469706c69636174696f6e206f766572666c6f775369676e6564536166654d6174683a206d756c7469706c69636174696f6e206f766572666c6f775361666545524332303a204552433230206f7065726174696f6e20646964206e6f742073756363656564a2646970667358221220d23e2b5f8ba1544314e8b5efca6c8a280c05e5a32674551ca1e7f094eefd5baf64736f6c63430006080033",
  "immutableReferences": {},
  "source": "// SPDX-License-Identifier: MIT\npragma solidity >=0.6.8 <0.7.0;\n\nimport \"../../libraries/SafeMath.sol\";\nimport \"../../libraries/SignedSafeMath.sol\";\nimport \"../../libraries/SafeERC20.sol\";\nimport \"../../interfaces/IYTVaultManagerFlashReceiver.sol\";\nimport \"../../interfaces/IFixCapitalPool.sol\";\nimport \"../../interfaces/IVaultHealth.sol\";\nimport \"../../interfaces/IWrapper.sol\";\nimport \"../../interfaces/IERC20.sol\";\nimport \"../../helpers/Ownable.sol\";\nimport \"./NSFVaultFactoryDelegateParent.sol\";\n\n/*\n\tThis contract is specifically for handling YTVault functionality\n*/\ncontract NSFVaultFactoryDelegate2 is NSFVaultFactoryDelegateParent {\n\tusing SafeMath for uint;\n\tusing SignedSafeMath for int;\n\tusing SafeERC20 for IERC20;\n\n\t/*\n\t\t@Description: send a vault that is under the upper collateralization limit to the auction house\n\n\t\t@param address _owner: the owner of the vault to send to auction\n\t\t@param uint _index: the index of the vault in vaults[_owner] to send to auction\n\t\t@param address _assetBorrowed: the address of the expected borrow asset of the vault\n\t\t@param address _assetSupplied: the address of the expected supplied asset of the vault\n\t\t@param uint _bid: the first bid (in _assetSupplied) made by msg.sender\n\t\t@param uint _amtIn: the amount of _assetBorrowed to send in\n\t*/\n\tfunction auctionLiquidation(address _owner, uint _index, address _assetBorrowed, address _assetSupplied, uint _bid, uint _amtIn) external {\n\t\trequire(_vaults[_owner].length > _index);\n\t\tVault memory vault = _vaults[_owner][_index];\n\t\trequire(vault.assetBorrowed == _assetBorrowed);\n\t\trequire(vault.assetSupplied == _assetSupplied);\n\t\trequire(vault.amountBorrowed >= _amtIn && _amtIn > 0);\n\t\tuint maxBid = vault.amountSupplied * _amtIn / vault.amountBorrowed;\n\t\trequire(maxBid >= _bid);\n\t\tif (satisfiesLimit(vault.assetSupplied, vault.assetBorrowed, vault.amountSupplied, vault.amountBorrowed, true)) {\n\t\t\tuint maturity = IZeroCouponBond(vault.assetBorrowed).maturity();\n\t\t\trequire(maturity < block.timestamp + MAX_TIME_TO_MATURITY);\n\t\t}\n\t\t//burn borrowed ZCB\n\t\taddress FCPborrowed = IZeroCouponBond(_assetBorrowed).FixCapitalPoolAddress();\n\t\tcollectBid(msg.sender, FCPborrowed, _amtIn);\n\t\tlowerShortInterest(FCPborrowed, _amtIn);\n\t\t//any surplus in the bid may be added as _revenue\n\t\tif (_bid < maxBid){\n\t\t\tdistributeSurplus(_owner, vault.assetSupplied, maxBid - _bid, true);\n\t\t}\n\t\tif (_amtIn == vault.amountBorrowed) {\n\t\t\tdelete _vaults[_owner][_index];\n\t\t}\n\t\telse {\n\t\t\t_vaults[_owner][_index].amountBorrowed -= _amtIn;\n\t\t\t_vaults[_owner][_index].amountSupplied -= maxBid;\n\t\t}\n\t\t_Liquidations.push(Liquidation(\n\t\t\t_owner,\n\t\t\tvault.assetSupplied,\n\t\t\tvault.assetBorrowed,\n\t\t\t_amtIn,\n\t\t\tmsg.sender,\n\t\t\t_bid,\n\t\t\tblock.timestamp\n\t\t));\n\t}\n\n\t/*\n\t\t@Description: place a new bid on a vault that has already begun an auction\n\n\t\t@param uint _index: the index in _Liquidations[] of the auction\n\t\t@param uint  _bid: the amount of the supplied asset that the liquidator wishes to receive\n\t\t\tin reward if the liquidator wins this auction\n\t\t@param uint _amtIn: the amount of borrowed asset that the liquidator will be sending in\n\t*/\n\tfunction bidOnLiquidation(uint _index, uint _bid, uint _amtIn) external {\n\t\trequire(_Liquidations.length > _index);\n\t\tLiquidation memory liq = _Liquidations[_index];\n\t\trequire(0 < _amtIn && _amtIn <= liq.amountBorrowed);\n\t\tuint maxBid = liq.bidAmount * _amtIn / liq.amountBorrowed;\n\t\trequire(_bid < maxBid);\n\n\t\taddress FCPborrowed = IZeroCouponBond(liq.assetBorrowed).FixCapitalPoolAddress();\n\t\trefundBid(liq.bidder, FCPborrowed, _amtIn);\n\t\tcollectBid(msg.sender, FCPborrowed, _amtIn);\n\t\tdistributeSurplus(liq.vaultOwner, liq.assetSupplied, maxBid - _bid, true);\n\n\t\tif (_amtIn == liq.amountBorrowed) {\n\t\t\t_Liquidations[_index].bidAmount = _bid;\n\t\t\t_Liquidations[_index].bidTimestamp = block.timestamp;\n\t\t\t_Liquidations[_index].bidder = msg.sender;\n\t\t}\n\t\telse {\n\t\t\t_Liquidations[_index].bidAmount -= maxBid;\n\t\t\t_Liquidations[_index].amountBorrowed -= _amtIn;\n\n\t\t\t_Liquidations.push(Liquidation(\n\t\t\t\tliq.vaultOwner,\n\t\t\t\tliq.assetSupplied,\n\t\t\t\tliq.assetBorrowed,\n\t\t\t\t_amtIn,\n\t\t\t\tmsg.sender,\n\t\t\t\t_bid,\n\t\t\t\tblock.timestamp\n\t\t\t));\n\t\t}\n\t}\n\n\t/*\n\t\t@Description: claim the collateral of a vault from an auction that was won by msg.sender\n\n\t\t@param uint _index: the index in Liquidations[] of the auction\n\t\t@param address _to: the address to which to send the proceeds\n\t*/\n\tfunction claimLiquidation(uint _index, address _to) external {\n\t\trequire(_Liquidations.length > _index);\n\t\tLiquidation memory liq = _Liquidations[_index];\n\t\trequire(msg.sender == liq.bidder);\n\t\trequire(block.timestamp >= AUCTION_COOLDOWN + liq.bidTimestamp);\n\n\t\tdelete _Liquidations[_index];\n\n\t\tIERC20(liq.assetSupplied).safeTransfer(_to, liq.bidAmount);\n\n\t\t(, SUPPLIED_ASSET_TYPE sType, address baseFCP, address baseWrapper) = suppliedAssetInfo(liq.assetSupplied);\n\t\trequire(liq.bidAmount <= uint(type(int256).max));\n\t\teditSubAccountStandardVault(false, liq.vaultOwner, sType, baseFCP, baseWrapper, -int(liq.bidAmount));\n\t}\n\n\t/*\n\t\t@Description: when there is less than 1 day until maturity or _vaults are under the lower collateralisation limit \n\t\t\tvaults may be liquidated instantly without going through the auction process, this is intended to help the VaultFactory\n\t\t\tkeep solvency in the event of a market crisis\n\t\t\tthis function is used when a liquidator would like to liquidate the entire vault\n\t\t@param address _owner: the owner of the vault to send to auction\n\t\t@param uint _index: the index of the vault in vaults[_owner] to send to auction\n\t\t@param address _assetBorrowed: the address of the expected borrow asset of the vault\n\t\t@param address _assetSupplied: the address of the expected supplied asset of the vault\n\t\t@param uint _maxIn: the maximum amount of assetBorrowed that msg.sender is willing to bid on the vault\n\t\t@param uint _minOut: the minimum amount of assetSupplied that msg.sender wants to receive from this liquidation\n\t\t@param address _to: the address to which to send all of the collateral from the vault\n\t*/\n\tfunction instantLiquidation(address _owner, uint _index, address _assetBorrowed, address _assetSupplied, uint _maxIn, uint _minOut, address _to) external {\n\t\trequire(_vaults[_owner].length > _index);\n\t\tVault memory vault = _vaults[_owner][_index];\n\t\trequire(vault.assetBorrowed == _assetBorrowed);\n\t\trequire(vault.assetSupplied == _assetSupplied);\n\t\trequire(vault.amountBorrowed <= _maxIn);\n\t\trequire(vault.amountSupplied >= _minOut && _minOut > 0);\n\n\t\t//burn borrowed ZCB\n\t\taddress FCPborrowed = IZeroCouponBond(vault.assetBorrowed).FixCapitalPoolAddress();\n\t\tIFixCapitalPool(FCPborrowed).burnZCBFrom(_to, vault.amountBorrowed);\n\t\tlowerShortInterest(FCPborrowed, vault.amountBorrowed);\n\t\tIERC20(_assetSupplied).safeTransfer(_to, vault.amountSupplied);\n\n\t\t{\n\t\t\tSUPPLIED_ASSET_TYPE sType;\n\t\t\taddress baseFCP;\n\t\t\taddress baseWrapper;\n\t\t\tif (IZeroCouponBond(_assetBorrowed).maturity() >= block.timestamp + CRITICAL_TIME_TO_MATURITY) {\n\t\t\t\tbool satisfies;\n\t\t\t\t(satisfies, sType, baseFCP, baseWrapper) = satisfiesLimitRetAllData(vault.assetSupplied, vault.assetBorrowed, vault.amountSupplied, vault.amountBorrowed, false);\n\t\t\t\trequire(!satisfies);\n\t\t\t}\n\t\t\telse {\n\t\t\t\t(, sType, baseFCP, baseWrapper) = suppliedAssetInfo(_assetSupplied);\n\t\t\t}\n\t\t\trequire(vault.amountSupplied <= uint(type(int256).max));\n\t\t\tint changeAmt = -int(vault.amountSupplied);\n\t\t\teditSubAccountStandardVault(false, _owner, sType, baseFCP, baseWrapper, changeAmt);\n\t\t}\n\n\t\tdelete _vaults[_owner][_index];\n\t}\n\n\t/*\n\t\t@Description: when there is less than 1 day until maturity or _vaults are under the lower collateralisation limit \n\t\t\tvaults may be liquidated instantly without going through the auction process, this is intended to help the VaultFactory\n\t\t\tkeep solvency in the event of a market crisis\n\t\t\tthis function is used when a liquidator whould like to only partially liquidate the vault by providing a specific\n\t\t\tamount of assetBorrowed and receiving the corresponding amount of assetSupplied\n\t\t@param address _owner: the owner of the vault to send to auction\n\t\t@param uint _index: the index of the vault in vaults[_owner] to send to auction\n\t\t@param address _assetBorrowed: the address of the expected borrow asset of the vault\n\t\t@param address _assetSupplied: the address of the expected supplied asset of the vault\n\t\t@param uint _in: the amount of assetBorrowed to supply to the vault\n\t\t@param uint _minOut: the minimum amount of assetSupplied that msg.sender wants to receive from this liquidation\n\t\t@param address _to: the address to which to send all of the collateral from the vault\n\t*/\n\tfunction partialLiquidationSpecificIn(address _owner, uint _index, address _assetBorrowed, address _assetSupplied, uint _in, uint _minOut, address _to) external {\n\t\trequire(_vaults[_owner].length > _index);\n\t\tVault memory vault = _vaults[_owner][_index];\n\t\trequire(vault.assetBorrowed == _assetBorrowed);\n\t\trequire(vault.assetSupplied == _assetSupplied);\n\t\trequire(0 < _in && _in <= vault.amountBorrowed);\n\t\tuint amtOut = _in*vault.amountSupplied/vault.amountBorrowed;\n\t\trequire(amtOut >= _minOut);\n\n\t\t//burn borrowed ZCB\n\t\taddress FCPborrowed = IZeroCouponBond(vault.assetBorrowed).FixCapitalPoolAddress();\n\t\tIFixCapitalPool(FCPborrowed).burnZCBFrom(_to, _in);\n\t\tlowerShortInterest(FCPborrowed, _in);\n\t\tIERC20(_assetSupplied).safeTransfer(_to, amtOut);\n\n\t\t{\n\t\t\tSUPPLIED_ASSET_TYPE sType;\n\t\t\taddress baseFCP;\n\t\t\taddress baseWrapper;\n\t\t\tif (IZeroCouponBond(_assetBorrowed).maturity() >= block.timestamp + CRITICAL_TIME_TO_MATURITY) {\n\t\t\t\tbool satisfies;\n\t\t\t\t(satisfies, sType, baseFCP, baseWrapper) = satisfiesLimitRetAllData(vault.assetSupplied, vault.assetBorrowed, vault.amountSupplied, vault.amountBorrowed, false);\n\t\t\t\trequire(!satisfies);\n\t\t\t}\n\t\t\telse {\n\t\t\t\t(, sType, baseFCP, baseWrapper) = suppliedAssetInfo(_assetSupplied);\n\t\t\t}\n\t\t\trequire(amtOut <= uint(type(int256).max));\n\t\t\tint changeAmt = -int(amtOut);\n\t\t\teditSubAccountStandardVault(false, _owner, sType, baseFCP, baseWrapper, changeAmt);\n\t\t}\n\n\t\t_vaults[_owner][_index].amountBorrowed -= _in;\n\t\t_vaults[_owner][_index].amountSupplied -= amtOut;\n\t}\n\n\t/*\n\t\t@Description: when there is less than 1 day until maturity or _vaults are under the lower collateralisation limit \n\t\t\tvaults may be liquidated instantly without going through the auction process, this is intended to help the VaultFactory\n\t\t\tkeep solvency in the event of a market crisis\n\t\t\tthis function is used when a liquidator whould like to only partially liquidate the vault by receiving a specific\n\t\t\tamount of assetSupplied and sending the corresponding amount of assetBorrowed\n\t\t@param address _owner: the owner of the vault to send to auction\n\t\t@param uint _index: the index of the vault in vaults[_owner] to send to auction\n\t\t@param address _assetBorrowed: the address of the expected borrow asset of the vault\n\t\t@param address _assetSupplied: the address of the expected supplied asset of the vault\n\t\t@param uint _out: the amount of assetSupplied to receive from the vault\n\t\t@param uint _maxIn: the maximum amount of assetBorrowed that msg.sender is willing to bid on the vault\n\t\t@param address _to: the address to which to send all of the collateral from the vault\n\t*/\n\tfunction partialLiquidationSpecificOut(address _owner, uint _index, address _assetBorrowed, address _assetSupplied, uint _out, uint _maxIn, address _to) external {\n\t\trequire(_vaults[_owner].length > _index);\n\t\tVault memory vault = _vaults[_owner][_index];\n\t\trequire(vault.assetBorrowed == _assetBorrowed);\n\t\trequire(vault.assetSupplied == _assetSupplied);\n\t\trequire(vault.amountSupplied >= _out);\n\t\tuint amtIn = _out*vault.amountBorrowed;\n\t\tamtIn = amtIn/vault.amountSupplied + (amtIn%vault.amountSupplied == 0 ? 0 : 1);\n\t\trequire(0 < amtIn && amtIn <= _maxIn);\n\n\t\t//burn borrowed ZCB\n\t\taddress FCPborrowed = IZeroCouponBond(_assetBorrowed).FixCapitalPoolAddress();\n\t\tIFixCapitalPool(FCPborrowed).burnZCBFrom(_to, amtIn);\n\t\tlowerShortInterest(FCPborrowed, amtIn);\n\t\tIERC20(_assetSupplied).safeTransfer(_to, _out);\n\n\t\t{\n\t\t\tSUPPLIED_ASSET_TYPE sType;\n\t\t\taddress baseFCP;\n\t\t\taddress baseWrapper;\n\t\t\tif (IZeroCouponBond(_assetBorrowed).maturity() >= block.timestamp + CRITICAL_TIME_TO_MATURITY) {\n\t\t\t\tbool satisfies;\n\t\t\t\t(satisfies, sType, baseFCP, baseWrapper) = satisfiesLimitRetAllData(vault.assetSupplied, vault.assetBorrowed, vault.amountSupplied, vault.amountBorrowed, false);\n\t\t\t\trequire(!satisfies);\n\t\t\t}\n\t\t\telse {\n\t\t\t\t(, sType, baseFCP, baseWrapper) = suppliedAssetInfo(_assetSupplied);\n\t\t\t}\n\t\t\trequire(_out <= uint(type(int256).max));\n\t\t\tint changeAmt = -int(_out);\n\t\t\teditSubAccountStandardVault(false, _owner, sType, baseFCP, baseWrapper, changeAmt);\n\t\t}\n\n\t\t_vaults[_owner][_index].amountBorrowed -= amtIn;\n\t\t_vaults[_owner][_index].amountSupplied -= _out;\n\t}\n\n}",
  "sourcePath": "/home/asher/FixFinanceV1/contracts/VaultFactory/NoStabilityFee/NSFVaultFactoryDelegate2.sol",
  "compiler": {
    "name": "solc",
    "version": "0.6.8+commit.0bbfe453.Emscripten.clang"
  },
  "schemaVersion": "3.4.1",
  "updatedAt": "2021-11-26T19:15:55.476Z",
  "devdoc": {
    "methods": {}
  },
  "userdoc": {
    "methods": {}
  }
}