{
  "contractName": "NSFVaultFactory",
  "abi": [
    {
      "inputs": [
        {
          "internalType": "address",
          "name": "_vaultHealthContract",
          "type": "address"
        },
        {
          "internalType": "address",
          "name": "_infoOracleAddr",
          "type": "address"
        },
        {
          "internalType": "address",
          "name": "_delegate1Address",
          "type": "address"
        },
        {
          "internalType": "address",
          "name": "_delegate2Address",
          "type": "address"
        },
        {
          "internalType": "address",
          "name": "_delegate3Address",
          "type": "address"
        },
        {
          "internalType": "address",
          "name": "_delegate4Address",
          "type": "address"
        },
        {
          "internalType": "address",
          "name": "_delegate5Address",
          "type": "address"
        }
      ],
      "stateMutability": "nonpayable",
      "type": "constructor"
    },
    {
      "anonymous": false,
      "inputs": [
        {
          "indexed": true,
          "internalType": "address",
          "name": "owner",
          "type": "address"
        },
        {
          "indexed": false,
          "internalType": "uint256",
          "name": "index",
          "type": "uint256"
        }
      ],
      "name": "AdjustVault",
      "type": "event"
    },
    {
      "anonymous": false,
      "inputs": [
        {
          "indexed": true,
          "internalType": "address",
          "name": "owner",
          "type": "address"
        },
        {
          "indexed": false,
          "internalType": "uint256",
          "name": "index",
          "type": "uint256"
        }
      ],
      "name": "AdjustYTVault",
      "type": "event"
    },
    {
      "anonymous": false,
      "inputs": [
        {
          "indexed": true,
          "internalType": "address",
          "name": "vaultOwner",
          "type": "address"
        },
        {
          "indexed": false,
          "internalType": "uint256",
          "name": "vaultIndex",
          "type": "uint256"
        },
        {
          "indexed": false,
          "internalType": "uint256",
          "name": "liquidationIndex",
          "type": "uint256"
        }
      ],
      "name": "AuctionLiquidation",
      "type": "event"
    },
    {
      "anonymous": false,
      "inputs": [
        {
          "indexed": true,
          "internalType": "address",
          "name": "YTvaultOwner",
          "type": "address"
        },
        {
          "indexed": false,
          "internalType": "uint256",
          "name": "YTvaultIndex",
          "type": "uint256"
        },
        {
          "indexed": false,
          "internalType": "uint256",
          "name": "YTliquidationIndex",
          "type": "uint256"
        }
      ],
      "name": "AuctionYTLiquidation",
      "type": "event"
    },
    {
      "anonymous": false,
      "inputs": [
        {
          "indexed": false,
          "internalType": "uint256",
          "name": "liquidationIndex",
          "type": "uint256"
        }
      ],
      "name": "BidOnLiquidation",
      "type": "event"
    },
    {
      "anonymous": false,
      "inputs": [
        {
          "indexed": false,
          "internalType": "uint256",
          "name": "YTliquidationIndex",
          "type": "uint256"
        }
      ],
      "name": "BidOnYTLiquidation",
      "type": "event"
    },
    {
      "anonymous": false,
      "inputs": [
        {
          "indexed": false,
          "internalType": "uint256",
          "name": "liquidationIndex",
          "type": "uint256"
        }
      ],
      "name": "ClaimLiquidation",
      "type": "event"
    },
    {
      "anonymous": false,
      "inputs": [
        {
          "indexed": true,
          "internalType": "address",
          "name": "owner",
          "type": "address"
        },
        {
          "indexed": false,
          "internalType": "address",
          "name": "asset",
          "type": "address"
        }
      ],
      "name": "ClaimRebate",
      "type": "event"
    },
    {
      "anonymous": false,
      "inputs": [
        {
          "indexed": false,
          "internalType": "uint256",
          "name": "YTliquidationIndex",
          "type": "uint256"
        }
      ],
      "name": "ClaimYTLiquidation",
      "type": "event"
    },
    {
      "anonymous": false,
      "inputs": [
        {
          "indexed": true,
          "internalType": "address",
          "name": "owner",
          "type": "address"
        },
        {
          "indexed": false,
          "internalType": "address",
          "name": "FCPaddress",
          "type": "address"
        }
      ],
      "name": "ClaimYTRebate",
      "type": "event"
    },
    {
      "anonymous": false,
      "inputs": [
        {
          "indexed": true,
          "internalType": "address",
          "name": "owner",
          "type": "address"
        },
        {
          "indexed": false,
          "internalType": "uint256",
          "name": "index",
          "type": "uint256"
        }
      ],
      "name": "CloseVault",
      "type": "event"
    },
    {
      "anonymous": false,
      "inputs": [
        {
          "indexed": true,
          "internalType": "address",
          "name": "owner",
          "type": "address"
        },
        {
          "indexed": false,
          "internalType": "uint256",
          "name": "index",
          "type": "uint256"
        }
      ],
      "name": "CloseYTVault",
      "type": "event"
    },
    {
      "anonymous": false,
      "inputs": [
        {
          "indexed": true,
          "internalType": "address",
          "name": "owner",
          "type": "address"
        },
        {
          "indexed": false,
          "internalType": "uint256",
          "name": "index",
          "type": "uint256"
        }
      ],
      "name": "InstantLiquidation",
      "type": "event"
    },
    {
      "anonymous": false,
      "inputs": [
        {
          "indexed": true,
          "internalType": "address",
          "name": "owner",
          "type": "address"
        },
        {
          "indexed": false,
          "internalType": "uint256",
          "name": "index",
          "type": "uint256"
        }
      ],
      "name": "InstantYTLiquidation",
      "type": "event"
    },
    {
      "anonymous": false,
      "inputs": [
        {
          "indexed": true,
          "internalType": "address",
          "name": "owner",
          "type": "address"
        },
        {
          "indexed": false,
          "internalType": "uint256",
          "name": "index",
          "type": "uint256"
        }
      ],
      "name": "OpenVault",
      "type": "event"
    },
    {
      "anonymous": false,
      "inputs": [
        {
          "indexed": true,
          "internalType": "address",
          "name": "owner",
          "type": "address"
        },
        {
          "indexed": false,
          "internalType": "uint256",
          "name": "index",
          "type": "uint256"
        }
      ],
      "name": "OpenYTVault",
      "type": "event"
    },
    {
      "anonymous": false,
      "inputs": [
        {
          "indexed": true,
          "internalType": "address",
          "name": "prevOwner",
          "type": "address"
        },
        {
          "indexed": false,
          "internalType": "uint256",
          "name": "prevIndex",
          "type": "uint256"
        },
        {
          "indexed": true,
          "internalType": "address",
          "name": "newOwner",
          "type": "address"
        },
        {
          "indexed": false,
          "internalType": "bool",
          "name": "isYTVault",
          "type": "bool"
        }
      ],
      "name": "TransferVault",
      "type": "event"
    },
    {
      "inputs": [],
      "name": "owner",
      "outputs": [
        {
          "internalType": "address",
          "name": "",
          "type": "address"
        }
      ],
      "stateMutability": "view",
      "type": "function"
    },
    {
      "inputs": [
        {
          "internalType": "address",
          "name": "newOwner",
          "type": "address"
        }
      ],
      "name": "transferOwnership",
      "outputs": [],
      "stateMutability": "nonpayable",
      "type": "function"
    },
    {
      "inputs": [
        {
          "internalType": "address",
          "name": "_owner",
          "type": "address"
        }
      ],
      "name": "vaultsLength",
      "outputs": [
        {
          "internalType": "uint256",
          "name": "",
          "type": "uint256"
        }
      ],
      "stateMutability": "view",
      "type": "function"
    },
    {
      "inputs": [
        {
          "internalType": "address",
          "name": "_owner",
          "type": "address"
        }
      ],
      "name": "YTvaultsLength",
      "outputs": [
        {
          "internalType": "uint256",
          "name": "",
          "type": "uint256"
        }
      ],
      "stateMutability": "view",
      "type": "function"
    },
    {
      "inputs": [
        {
          "internalType": "address",
          "name": "_owner",
          "type": "address"
        }
      ],
      "name": "allVaults",
      "outputs": [
        {
          "components": [
            {
              "internalType": "address",
              "name": "assetSupplied",
              "type": "address"
            },
            {
              "internalType": "address",
              "name": "assetBorrowed",
              "type": "address"
            },
            {
              "internalType": "uint256",
              "name": "amountSupplied",
              "type": "uint256"
            },
            {
              "internalType": "uint256",
              "name": "amountBorrowed",
              "type": "uint256"
            }
          ],
          "internalType": "struct NSFVaultFactoryData.Vault[]",
          "name": "__vaults",
          "type": "tuple[]"
        }
      ],
      "stateMutability": "view",
      "type": "function"
    },
    {
      "inputs": [],
      "name": "liquidationsLength",
      "outputs": [
        {
          "internalType": "uint256",
          "name": "",
          "type": "uint256"
        }
      ],
      "stateMutability": "view",
      "type": "function"
    },
    {
      "inputs": [],
      "name": "YTLiquidationsLength",
      "outputs": [
        {
          "internalType": "uint256",
          "name": "",
          "type": "uint256"
        }
      ],
      "stateMutability": "view",
      "type": "function"
    },
    {
      "inputs": [
        {
          "internalType": "address",
          "name": "_wrapperAddress",
          "type": "address"
        }
      ],
      "name": "wrapperToUnderlyingAsset",
      "outputs": [
        {
          "internalType": "address",
          "name": "",
          "type": "address"
        }
      ],
      "stateMutability": "view",
      "type": "function"
    },
    {
      "inputs": [
        {
          "internalType": "address",
          "name": "_fixCapitalPoolAddress",
          "type": "address"
        }
      ],
      "name": "fixCapitalPoolToWrapper",
      "outputs": [
        {
          "internalType": "address",
          "name": "",
          "type": "address"
        }
      ],
      "stateMutability": "view",
      "type": "function"
    },
    {
      "inputs": [
        {
          "internalType": "address",
          "name": "_wrapper",
          "type": "address"
        }
      ],
      "name": "shortInterestAllDurations",
      "outputs": [
        {
          "internalType": "uint256",
          "name": "",
          "type": "uint256"
        }
      ],
      "stateMutability": "view",
      "type": "function"
    },
    {
      "inputs": [
        {
          "internalType": "address",
          "name": "_asset",
          "type": "address"
        }
      ],
      "name": "revenue",
      "outputs": [
        {
          "internalType": "uint256",
          "name": "",
          "type": "uint256"
        }
      ],
      "stateMutability": "view",
      "type": "function"
    },
    {
      "inputs": [
        {
          "internalType": "address",
          "name": "_asset",
          "type": "address"
        }
      ],
      "name": "YTrevenue",
      "outputs": [
        {
          "internalType": "uint256",
          "name": "yield",
          "type": "uint256"
        },
        {
          "internalType": "int256",
          "name": "bond",
          "type": "int256"
        }
      ],
      "stateMutability": "view",
      "type": "function"
    },
    {
      "inputs": [
        {
          "internalType": "address",
          "name": "_owner",
          "type": "address"
        },
        {
          "internalType": "address",
          "name": "_asset",
          "type": "address"
        }
      ],
      "name": "liquidationRebates",
      "outputs": [
        {
          "internalType": "uint256",
          "name": "",
          "type": "uint256"
        }
      ],
      "stateMutability": "view",
      "type": "function"
    },
    {
      "inputs": [
        {
          "internalType": "address",
          "name": "_owner",
          "type": "address"
        },
        {
          "internalType": "address",
          "name": "_FCP",
          "type": "address"
        }
      ],
      "name": "YTLiquidationRebates",
      "outputs": [
        {
          "internalType": "uint256",
          "name": "yield",
          "type": "uint256"
        },
        {
          "internalType": "int256",
          "name": "bond",
          "type": "int256"
        }
      ],
      "stateMutability": "view",
      "type": "function"
    },
    {
      "inputs": [
        {
          "internalType": "address",
          "name": "_owner",
          "type": "address"
        },
        {
          "internalType": "uint256",
          "name": "_index",
          "type": "uint256"
        }
      ],
      "name": "vaults",
      "outputs": [
        {
          "internalType": "address",
          "name": "assetSupplied",
          "type": "address"
        },
        {
          "internalType": "address",
          "name": "assetBorrowed",
          "type": "address"
        },
        {
          "internalType": "uint256",
          "name": "amountSupplied",
          "type": "uint256"
        },
        {
          "internalType": "uint256",
          "name": "amountBorrowed",
          "type": "uint256"
        }
      ],
      "stateMutability": "view",
      "type": "function"
    },
    {
      "inputs": [
        {
          "internalType": "uint256",
          "name": "_index",
          "type": "uint256"
        }
      ],
      "name": "Liquidations",
      "outputs": [
        {
          "internalType": "address",
          "name": "vaultOwner",
          "type": "address"
        },
        {
          "internalType": "address",
          "name": "assetSupplied",
          "type": "address"
        },
        {
          "internalType": "address",
          "name": "assetBorrowed",
          "type": "address"
        },
        {
          "internalType": "uint256",
          "name": "amountBorrowed",
          "type": "uint256"
        },
        {
          "internalType": "address",
          "name": "bidder",
          "type": "address"
        },
        {
          "internalType": "uint256",
          "name": "bidAmount",
          "type": "uint256"
        },
        {
          "internalType": "uint256",
          "name": "bidTimestamp",
          "type": "uint256"
        }
      ],
      "stateMutability": "view",
      "type": "function"
    },
    {
      "inputs": [
        {
          "internalType": "address",
          "name": "_owner",
          "type": "address"
        },
        {
          "internalType": "uint256",
          "name": "_index",
          "type": "uint256"
        }
      ],
      "name": "YTvaults",
      "outputs": [
        {
          "internalType": "address",
          "name": "FCPsupplied",
          "type": "address"
        },
        {
          "internalType": "address",
          "name": "FCPborrowed",
          "type": "address"
        },
        {
          "internalType": "uint256",
          "name": "yieldSupplied",
          "type": "uint256"
        },
        {
          "internalType": "int256",
          "name": "bondSupplied",
          "type": "int256"
        },
        {
          "internalType": "uint256",
          "name": "amountBorrowed",
          "type": "uint256"
        }
      ],
      "stateMutability": "view",
      "type": "function"
    },
    {
      "inputs": [
        {
          "internalType": "uint256",
          "name": "_index",
          "type": "uint256"
        }
      ],
      "name": "YTLiquidations",
      "outputs": [
        {
          "internalType": "address",
          "name": "vaultOwner",
          "type": "address"
        },
        {
          "internalType": "address",
          "name": "FCPsupplied",
          "type": "address"
        },
        {
          "internalType": "address",
          "name": "FCPborrowed",
          "type": "address"
        },
        {
          "internalType": "int256",
          "name": "bondRatio",
          "type": "int256"
        },
        {
          "internalType": "uint256",
          "name": "amountBorrowed",
          "type": "uint256"
        },
        {
          "internalType": "address",
          "name": "bidder",
          "type": "address"
        },
        {
          "internalType": "uint256",
          "name": "bidAmount",
          "type": "uint256"
        },
        {
          "internalType": "uint256",
          "name": "bidTimestamp",
          "type": "uint256"
        }
      ],
      "stateMutability": "view",
      "type": "function"
    },
    {
      "inputs": [],
      "name": "VaultHealthAddress",
      "outputs": [
        {
          "internalType": "address",
          "name": "",
          "type": "address"
        }
      ],
      "stateMutability": "view",
      "type": "function"
    },
    {
      "inputs": [
        {
          "internalType": "address",
          "name": "_assetSupplied",
          "type": "address"
        },
        {
          "internalType": "address",
          "name": "_assetBorrowed",
          "type": "address"
        },
        {
          "internalType": "uint256",
          "name": "_amountSupplied",
          "type": "uint256"
        },
        {
          "internalType": "uint256",
          "name": "_amountBorrowed",
          "type": "uint256"
        },
        {
          "internalType": "uint256",
          "name": "_priceMultiplier",
          "type": "uint256"
        },
        {
          "internalType": "int128",
          "name": "_suppliedRateChange",
          "type": "int128"
        },
        {
          "internalType": "int128",
          "name": "_borrowRateChange",
          "type": "int128"
        }
      ],
      "name": "openVault",
      "outputs": [],
      "stateMutability": "nonpayable",
      "type": "function"
    },
    {
      "inputs": [
        {
          "internalType": "uint256",
          "name": "_index",
          "type": "uint256"
        },
        {
          "internalType": "address",
          "name": "_to",
          "type": "address"
        }
      ],
      "name": "closeVault",
      "outputs": [],
      "stateMutability": "nonpayable",
      "type": "function"
    },
    {
      "inputs": [
        {
          "internalType": "address",
          "name": "_owner",
          "type": "address"
        },
        {
          "internalType": "uint256",
          "name": "_index",
          "type": "uint256"
        },
        {
          "internalType": "address",
          "name": "_assetSupplied",
          "type": "address"
        },
        {
          "internalType": "address",
          "name": "_assetBorrowed",
          "type": "address"
        },
        {
          "internalType": "uint256",
          "name": "_amountSupplied",
          "type": "uint256"
        },
        {
          "internalType": "uint256",
          "name": "_amountBorrowed",
          "type": "uint256"
        },
        {
          "internalType": "int128[3]",
          "name": "_multipliers",
          "type": "int128[3]"
        },
        {
          "internalType": "bytes",
          "name": "_data",
          "type": "bytes"
        },
        {
          "internalType": "address",
          "name": "_receiverAddr",
          "type": "address"
        }
      ],
      "name": "adjustVault",
      "outputs": [],
      "stateMutability": "nonpayable",
      "type": "function"
    },
    {
      "inputs": [
        {
          "internalType": "address",
          "name": "_FCPsupplied",
          "type": "address"
        },
        {
          "internalType": "address",
          "name": "_FCPborrowed",
          "type": "address"
        },
        {
          "internalType": "uint256",
          "name": "_yieldSupplied",
          "type": "uint256"
        },
        {
          "internalType": "int256",
          "name": "_bondSupplied",
          "type": "int256"
        },
        {
          "internalType": "uint256",
          "name": "_amountBorrowed",
          "type": "uint256"
        },
        {
          "internalType": "uint256",
          "name": "_priceMultiplier",
          "type": "uint256"
        },
        {
          "internalType": "int128",
          "name": "_suppliedRateChange",
          "type": "int128"
        },
        {
          "internalType": "int128",
          "name": "_borrowRateChange",
          "type": "int128"
        }
      ],
      "name": "openYTVault",
      "outputs": [],
      "stateMutability": "nonpayable",
      "type": "function"
    },
    {
      "inputs": [
        {
          "internalType": "uint256",
          "name": "_index",
          "type": "uint256"
        },
        {
          "internalType": "address",
          "name": "_to",
          "type": "address"
        }
      ],
      "name": "closeYTVault",
      "outputs": [],
      "stateMutability": "nonpayable",
      "type": "function"
    },
    {
      "inputs": [
        {
          "internalType": "address",
          "name": "_owner",
          "type": "address"
        },
        {
          "internalType": "uint256",
          "name": "_index",
          "type": "uint256"
        },
        {
          "internalType": "address",
          "name": "_FCPsupplied",
          "type": "address"
        },
        {
          "internalType": "address",
          "name": "_FCPborrowed",
          "type": "address"
        },
        {
          "internalType": "uint256",
          "name": "_yieldSupplied",
          "type": "uint256"
        },
        {
          "internalType": "int256",
          "name": "_bondSupplied",
          "type": "int256"
        },
        {
          "internalType": "uint256",
          "name": "_amountBorrowed",
          "type": "uint256"
        },
        {
          "internalType": "int128[3]",
          "name": "_multipliers",
          "type": "int128[3]"
        },
        {
          "internalType": "bytes",
          "name": "_data",
          "type": "bytes"
        },
        {
          "internalType": "address",
          "name": "_receiverAddr",
          "type": "address"
        }
      ],
      "name": "adjustYTVault",
      "outputs": [],
      "stateMutability": "nonpayable",
      "type": "function"
    },
    {
      "inputs": [
        {
          "internalType": "uint256",
          "name": "_index",
          "type": "uint256"
        },
        {
          "internalType": "address",
          "name": "_to",
          "type": "address"
        },
        {
          "internalType": "bool",
          "name": "_isYTVault",
          "type": "bool"
        }
      ],
      "name": "transferVault",
      "outputs": [],
      "stateMutability": "nonpayable",
      "type": "function"
    },
    {
      "inputs": [
        {
          "internalType": "address",
          "name": "_owner",
          "type": "address"
        },
        {
          "internalType": "uint256",
          "name": "_index",
          "type": "uint256"
        },
        {
          "internalType": "address",
          "name": "_assetBorrowed",
          "type": "address"
        },
        {
          "internalType": "address",
          "name": "_assetSupplied",
          "type": "address"
        },
        {
          "internalType": "uint256",
          "name": "_bid",
          "type": "uint256"
        },
        {
          "internalType": "uint256",
          "name": "_maxIn",
          "type": "uint256"
        }
      ],
      "name": "auctionLiquidation",
      "outputs": [],
      "stateMutability": "nonpayable",
      "type": "function"
    },
    {
      "inputs": [
        {
          "internalType": "uint256",
          "name": "_index",
          "type": "uint256"
        },
        {
          "internalType": "uint256",
          "name": "_bid",
          "type": "uint256"
        },
        {
          "internalType": "uint256",
          "name": "_amtIn",
          "type": "uint256"
        }
      ],
      "name": "bidOnLiquidation",
      "outputs": [],
      "stateMutability": "nonpayable",
      "type": "function"
    },
    {
      "inputs": [
        {
          "internalType": "uint256",
          "name": "_index",
          "type": "uint256"
        },
        {
          "internalType": "address",
          "name": "_to",
          "type": "address"
        }
      ],
      "name": "claimLiquidation",
      "outputs": [],
      "stateMutability": "nonpayable",
      "type": "function"
    },
    {
      "inputs": [
        {
          "internalType": "address",
          "name": "_owner",
          "type": "address"
        },
        {
          "internalType": "uint256",
          "name": "_index",
          "type": "uint256"
        },
        {
          "internalType": "address",
          "name": "_assetBorrowed",
          "type": "address"
        },
        {
          "internalType": "address",
          "name": "_assetSupplied",
          "type": "address"
        },
        {
          "internalType": "uint256",
          "name": "_maxIn",
          "type": "uint256"
        },
        {
          "internalType": "uint256",
          "name": "_minOut",
          "type": "uint256"
        },
        {
          "internalType": "address",
          "name": "_to",
          "type": "address"
        }
      ],
      "name": "instantLiquidation",
      "outputs": [],
      "stateMutability": "nonpayable",
      "type": "function"
    },
    {
      "inputs": [
        {
          "internalType": "address",
          "name": "_owner",
          "type": "address"
        },
        {
          "internalType": "uint256",
          "name": "_index",
          "type": "uint256"
        },
        {
          "internalType": "address",
          "name": "_assetBorrowed",
          "type": "address"
        },
        {
          "internalType": "address",
          "name": "_assetSupplied",
          "type": "address"
        },
        {
          "internalType": "uint256",
          "name": "_in",
          "type": "uint256"
        },
        {
          "internalType": "uint256",
          "name": "_minOut",
          "type": "uint256"
        },
        {
          "internalType": "address",
          "name": "_to",
          "type": "address"
        }
      ],
      "name": "partialLiquidationSpecificIn",
      "outputs": [],
      "stateMutability": "nonpayable",
      "type": "function"
    },
    {
      "inputs": [
        {
          "internalType": "address",
          "name": "_owner",
          "type": "address"
        },
        {
          "internalType": "uint256",
          "name": "_index",
          "type": "uint256"
        },
        {
          "internalType": "address",
          "name": "_assetBorrowed",
          "type": "address"
        },
        {
          "internalType": "address",
          "name": "_assetSupplied",
          "type": "address"
        },
        {
          "internalType": "uint256",
          "name": "_out",
          "type": "uint256"
        },
        {
          "internalType": "uint256",
          "name": "_maxIn",
          "type": "uint256"
        },
        {
          "internalType": "address",
          "name": "_to",
          "type": "address"
        }
      ],
      "name": "partialLiquidationSpecificOut",
      "outputs": [],
      "stateMutability": "nonpayable",
      "type": "function"
    },
    {
      "inputs": [
        {
          "internalType": "address",
          "name": "_asset",
          "type": "address"
        }
      ],
      "name": "claimRebate",
      "outputs": [],
      "stateMutability": "nonpayable",
      "type": "function"
    },
    {
      "inputs": [
        {
          "internalType": "address",
          "name": "_FCP",
          "type": "address"
        }
      ],
      "name": "claimYTRebate",
      "outputs": [],
      "stateMutability": "nonpayable",
      "type": "function"
    },
    {
      "inputs": [
        {
          "internalType": "address",
          "name": "_owner",
          "type": "address"
        },
        {
          "internalType": "uint256",
          "name": "_index",
          "type": "uint256"
        },
        {
          "internalType": "address",
          "name": "_FCPborrowed",
          "type": "address"
        },
        {
          "internalType": "address",
          "name": "_FCPsupplied",
          "type": "address"
        },
        {
          "internalType": "uint256",
          "name": "_bidYield",
          "type": "uint256"
        },
        {
          "internalType": "int256",
          "name": "_minBondRatio",
          "type": "int256"
        },
        {
          "internalType": "uint256",
          "name": "_amtIn",
          "type": "uint256"
        }
      ],
      "name": "auctionYTLiquidation",
      "outputs": [],
      "stateMutability": "nonpayable",
      "type": "function"
    },
    {
      "inputs": [
        {
          "internalType": "uint256",
          "name": "_index",
          "type": "uint256"
        },
        {
          "internalType": "uint256",
          "name": "_bidYield",
          "type": "uint256"
        },
        {
          "internalType": "uint256",
          "name": "_amtIn",
          "type": "uint256"
        }
      ],
      "name": "bidOnYTLiquidation",
      "outputs": [],
      "stateMutability": "nonpayable",
      "type": "function"
    },
    {
      "inputs": [
        {
          "internalType": "uint256",
          "name": "_index",
          "type": "uint256"
        },
        {
          "internalType": "address",
          "name": "_to",
          "type": "address"
        }
      ],
      "name": "claimYTLiquidation",
      "outputs": [],
      "stateMutability": "nonpayable",
      "type": "function"
    },
    {
      "inputs": [
        {
          "internalType": "address",
          "name": "_owner",
          "type": "address"
        },
        {
          "internalType": "uint256",
          "name": "_index",
          "type": "uint256"
        },
        {
          "internalType": "address",
          "name": "_FCPborrowed",
          "type": "address"
        },
        {
          "internalType": "address",
          "name": "_FCPsupplied",
          "type": "address"
        },
        {
          "internalType": "uint256",
          "name": "_maxIn",
          "type": "uint256"
        },
        {
          "internalType": "uint256",
          "name": "_minOut",
          "type": "uint256"
        },
        {
          "internalType": "int256",
          "name": "_minBondRatio",
          "type": "int256"
        },
        {
          "internalType": "address",
          "name": "_to",
          "type": "address"
        }
      ],
      "name": "instantYTLiquidation",
      "outputs": [],
      "stateMutability": "nonpayable",
      "type": "function"
    },
    {
      "inputs": [
        {
          "internalType": "address",
          "name": "_owner",
          "type": "address"
        },
        {
          "internalType": "uint256",
          "name": "_index",
          "type": "uint256"
        },
        {
          "internalType": "address",
          "name": "_FCPborrowed",
          "type": "address"
        },
        {
          "internalType": "address",
          "name": "_FCPsupplied",
          "type": "address"
        },
        {
          "internalType": "uint256",
          "name": "_in",
          "type": "uint256"
        },
        {
          "internalType": "uint256",
          "name": "_minOut",
          "type": "uint256"
        },
        {
          "internalType": "int256",
          "name": "_minBondRatio",
          "type": "int256"
        },
        {
          "internalType": "address",
          "name": "_to",
          "type": "address"
        }
      ],
      "name": "partialYTLiquidationSpecificIn",
      "outputs": [],
      "stateMutability": "nonpayable",
      "type": "function"
    },
    {
      "inputs": [
        {
          "internalType": "address",
          "name": "_owner",
          "type": "address"
        },
        {
          "internalType": "uint256",
          "name": "_index",
          "type": "uint256"
        },
        {
          "internalType": "address",
          "name": "_FCPborrowed",
          "type": "address"
        },
        {
          "internalType": "address",
          "name": "_FCPsupplied",
          "type": "address"
        },
        {
          "internalType": "uint256",
          "name": "_out",
          "type": "uint256"
        },
        {
          "internalType": "int256",
          "name": "_minBondRatio",
          "type": "int256"
        },
        {
          "internalType": "uint256",
          "name": "_maxIn",
          "type": "uint256"
        },
        {
          "internalType": "address",
          "name": "_to",
          "type": "address"
        }
      ],
      "name": "partialYTLiquidationSpecificOut",
      "outputs": [],
      "stateMutability": "nonpayable",
      "type": "function"
    },
    {
      "inputs": [
        {
          "internalType": "address",
          "name": "_addr",
          "type": "address"
        },
        {
          "internalType": "int256",
          "name": "_num",
          "type": "int256"
        },
        {
          "internalType": "enum NSFVaultFactoryData.MANAGE_METHOD",
          "name": "_manageMethod",
          "type": "uint8"
        }
      ],
      "name": "manage",
      "outputs": [],
      "stateMutability": "nonpayable",
      "type": "function"
    }
  ],
  "bytecode": "0x60806040523480156200001157600080fd5b506040516200561238038062005612833981810160405281019062000037919062000262565b336000806101000a81548173ffffffffffffffffffffffffffffffffffffffff021916908373ffffffffffffffffffffffffffffffffffffffff16021790555086601060006101000a81548173ffffffffffffffffffffffffffffffffffffffff021916908373ffffffffffffffffffffffffffffffffffffffff16021790555085600c60006101000a81548173ffffffffffffffffffffffffffffffffffffffff021916908373ffffffffffffffffffffffffffffffffffffffff16021790555084601160006101000a81548173ffffffffffffffffffffffffffffffffffffffff021916908373ffffffffffffffffffffffffffffffffffffffff16021790555083601260006101000a81548173ffffffffffffffffffffffffffffffffffffffff021916908373ffffffffffffffffffffffffffffffffffffffff16021790555082601360006101000a81548173ffffffffffffffffffffffffffffffffffffffff021916908373ffffffffffffffffffffffffffffffffffffffff16021790555081601460006101000a81548173ffffffffffffffffffffffffffffffffffffffff021916908373ffffffffffffffffffffffffffffffffffffffff16021790555080601560006101000a81548173ffffffffffffffffffffffffffffffffffffffff021916908373ffffffffffffffffffffffffffffffffffffffff160217905550505050505050506200035d565b6000815190506200025c8162000343565b92915050565b600080600080600080600060e0888a0312156200027e57600080fd5b60006200028e8a828b016200024b565b9750506020620002a18a828b016200024b565b9650506040620002b48a828b016200024b565b9550506060620002c78a828b016200024b565b9450506080620002da8a828b016200024b565b93505060a0620002ed8a828b016200024b565b92505060c0620003008a828b016200024b565b91505092959891949750929550565b60006200031c8262000323565b9050919050565b600073ffffffffffffffffffffffffffffffffffffffff82169050919050565b6200034e816200030f565b81146200035a57600080fd5b50565b6152a5806200036d6000396000f3fe608060405234801561001057600080fd5b50600436106102525760003560e01c80635ce0067911610146578063ac7a12d6116100c3578063e18d521e11610087578063e18d521e14610720578063ebb947ae1461073c578063f2fde38b1461076d578063f4ae20a714610789578063fdeb15b1146107b9578063fe4b3a5f146107ed57610252565b8063ac7a12d61461066a578063b13ec05b14610686578063b36c9618146106b6578063c48f67ad146106d2578063cea1549f1461070257610252565b80637bbfc69e1161010a5780637bbfc69e146105a95780638207efa7146105dc5780638da5cb5b146105fa578063903b86f2146106185780639cd161981461064e57610252565b80635ce006791461050957806366729a99146105255780636cb7c89014610541578063732cd7ab1461055d578063736c8c8d1461058d57610252565b8063264d0f5d116101d45780634c7846dc116101985780634c7846dc1461044e5780634e7fa6121461046a57806356ec9124146104a157806358646125146104bd5780635974609b146104ed57610252565b8063264d0f5d146103c25780633054fa7b146103de57806331787a6c146103fa57806339135ac5146104165780633d4ddf261461043257610252565b8063146bc04e1161021b578063146bc04e146102e5578063151209701461030157806317dd196d146103315780631c34d076146103615780631ea917cb1461039157610252565b80627d71771461025757806302746a80146102755780630491e12114610291578063059866b9146102ad5780630c5e04cc146102c9575b600080fd5b61025f610809565b60405161026c91906148a9565b60405180910390f35b61028f600480360381019061028a919061426b565b610833565b005b6102ab60048036038101906102a69190613efa565b610a19565b005b6102c760048036038101906102c29190614476565b610be6565b005b6102e360048036038101906102de9190614476565b610dc8565b005b6102ff60048036038101906102fa9190613de3565b610faa565b005b61031b60048036038101906103169190613de3565b611120565b60405161032891906148a9565b60405180910390f35b61034b60048036038101906103469190613de3565b611189565b6040516103589190614f26565b60405180910390f35b61037b60048036038101906103769190613de3565b6111d2565b60405161038891906148a9565b60405180910390f35b6103ab60048036038101906103a69190613de3565b61123b565b6040516103b9929190614fca565b60405180910390f35b6103dc60048036038101906103d79190613e48565b6112ba565b005b6103f860048036038101906103f391906145dc565b61148a565b005b610414600480360381019061040f9190614551565b6115ef565b005b610430600480360381019061042b9190614023565b6117bf565b005b61044c60048036038101906104479190614173565b6119a8565b005b61046860048036038101906104639190613f98565b611b93565b005b610484600480360381019061047f9190614528565b611cc1565b6040516104989897969594939291906148c4565b60405180910390f35b6104bb60048036038101906104b691906140c1565b611ec2565b005b6104d760048036038101906104d29190613de3565b6120a4565b6040516104e49190614f26565b60405180910390f35b61050760048036038101906105029190614392565b6120f0565b005b610523600480360381019061051e9190614551565b6122d8565b005b61053f600480360381019061053a919061458d565b61243a565b005b61055b600480360381019061055691906142f4565b612626565b005b61057760048036038101906105729190613de3565b612805565b6040516105849190614ee4565b60405180910390f35b6105a760048036038101906105a291906142f4565b612963565b005b6105c360048036038101906105be9190613fe7565b612b42565b6040516105d39493929190614a82565b60405180910390f35b6105e4612c9b565b6040516105f19190614f26565b60405180910390f35b610602612ca8565b60405161060f91906148a9565b60405180910390f35b610632600480360381019061062d9190614528565b612ccd565b6040516106459796959493929190614942565b60405180910390f35b61066860048036038101906106639190614551565b612ebb565b005b610684600480360381019061067f9190613de3565b61308b565b005b6106a0600480360381019061069b9190613e0c565b613201565b6040516106ad9190614f26565b60405180910390f35b6106d060048036038101906106cb9190614551565b613288565b005b6106ec60048036038101906106e79190613de3565b6133ea565b6040516106f99190614f26565b60405180910390f35b61070a613436565b6040516107179190614f26565b60405180910390f35b61073a600480360381019061073591906145dc565b613443565b005b61075660048036038101906107519190613e0c565b6135a8565b604051610764929190614fca565b60405180910390f35b61078760048036038101906107829190613de3565b613666565b005b6107a3600480360381019061079e9190613de3565b61376d565b6040516107b09190614f26565b60405180910390f35b6107d360048036038101906107ce9190613fe7565b6137b6565b6040516107e49594939291906149b1565b60405180910390f35b610807600480360381019061080291906142f4565b613923565b005b6000601060009054906101000a900473ffffffffffffffffffffffffffffffffffffffff16905090565b6000601060149054906101000a900460ff1660ff161461085257600080fd5b6001601060146101000a81548160ff021916908360ff1602179055506000601260009054906101000a900473ffffffffffffffffffffffffffffffffffffffff1673ffffffffffffffffffffffffffffffffffffffff168787878787876040516024016108c496959493929190614cff565b6040516020818303038152906040527f02746a80000000000000000000000000000000000000000000000000000000007bffffffffffffffffffffffffffffffffffffffffffffffffffffffff19166020820180517bffffffffffffffffffffffffffffffffffffffffffffffffffffffff838183161783525050505060405161094e9190614892565b600060405180830381855af49150503d8060008114610989576040519150601f19603f3d011682016040523d82523d6000602084013e61098e565b606091505b505090508061099c57600080fd5b8673ffffffffffffffffffffffffffffffffffffffff167fd8e9689dbd751fc6853ff9585bd1f481b050f4ad6aa12888c5cdeb4acd367edd876001600e80549050036040516109ec929190614ff3565b60405180910390a2506000601060146101000a81548160ff021916908360ff160217905550505050505050565b6000601160009054906101000a900473ffffffffffffffffffffffffffffffffffffffff1673ffffffffffffffffffffffffffffffffffffffff1688888888888888604051602401610a719796959493929190614ac7565b6040516020818303038152906040527f0491e121000000000000000000000000000000000000000000000000000000007bffffffffffffffffffffffffffffffffffffffffffffffffffffffff19166020820180517bffffffffffffffffffffffffffffffffffffffffffffffffffffffff8381831617835250505050604051610afb9190614892565b600060405180830381855af49150503d8060008114610b36576040519150601f19603f3d011682016040523d82523d6000602084013e610b3b565b606091505b5050905080610b4957600080fd5b3373ffffffffffffffffffffffffffffffffffffffff167f25ff1e0131762176a9084e92880f880f39d6d0e62134607f37e631efe1bad8716001600a60003373ffffffffffffffffffffffffffffffffffffffff1673ffffffffffffffffffffffffffffffffffffffff1681526020019081526020016000208054905003604051610bd49190614f26565b60405180910390a25050505050505050565b6000601060149054906101000a900460ff1660ff1614610c0557600080fd5b6001601060146101000a81548160ff021916908360ff1602179055506000601460009054906101000a900473ffffffffffffffffffffffffffffffffffffffff1673ffffffffffffffffffffffffffffffffffffffff168989898989898989604051602401610c7b989796959493929190614e66565b6040516020818303038152906040527f059866b9000000000000000000000000000000000000000000000000000000007bffffffffffffffffffffffffffffffffffffffffffffffffffffffff19166020820180517bffffffffffffffffffffffffffffffffffffffffffffffffffffffff8381831617835250505050604051610d059190614892565b600060405180830381855af49150503d8060008114610d40576040519150601f19603f3d011682016040523d82523d6000602084013e610d45565b606091505b5050905080610d5357600080fd5b8873ffffffffffffffffffffffffffffffffffffffff167f30e4bee63a66010c80a967a41ba2ab42c5f7f4626acf3c5fe4a5a4a92422392d89604051610d999190614f26565b60405180910390a2506000601060146101000a81548160ff021916908360ff1602179055505050505050505050565b6000601060149054906101000a900460ff1660ff1614610de757600080fd5b6001601060146101000a81548160ff021916908360ff1602179055506000601460009054906101000a900473ffffffffffffffffffffffffffffffffffffffff1673ffffffffffffffffffffffffffffffffffffffff168989898989898989604051602401610e5d989796959493929190614e66565b6040516020818303038152906040527f0c5e04cc000000000000000000000000000000000000000000000000000000007bffffffffffffffffffffffffffffffffffffffffffffffffffffffff19166020820180517bffffffffffffffffffffffffffffffffffffffffffffffffffffffff8381831617835250505050604051610ee79190614892565b600060405180830381855af49150503d8060008114610f22576040519150601f19603f3d011682016040523d82523d6000602084013e610f27565b606091505b5050905080610f3557600080fd5b8873ffffffffffffffffffffffffffffffffffffffff167f30e4bee63a66010c80a967a41ba2ab42c5f7f4626acf3c5fe4a5a4a92422392d89604051610f7b9190614f26565b60405180910390a2506000601060146101000a81548160ff021916908360ff1602179055505050505050505050565b6000601560009054906101000a900473ffffffffffffffffffffffffffffffffffffffff1673ffffffffffffffffffffffffffffffffffffffff1682604051602401610ff691906148a9565b6040516020818303038152906040527f146bc04e000000000000000000000000000000000000000000000000000000007bffffffffffffffffffffffffffffffffffffffffffffffffffffffff19166020820180517bffffffffffffffffffffffffffffffffffffffffffffffffffffffff83818316178352505050506040516110809190614892565b600060405180830381855af49150503d80600081146110bb576040519150601f19603f3d011682016040523d82523d6000602084013e6110c0565b606091505b50509050806110ce57600080fd5b3373ffffffffffffffffffffffffffffffffffffffff167f041641a94f4ebcec36d6e171750f2daf856597799eacb6e06c9f2270701db5248360405161111491906148a9565b60405180910390a25050565b6000600160008373ffffffffffffffffffffffffffffffffffffffff1673ffffffffffffffffffffffffffffffffffffffff16815260200190815260200160002060009054906101000a900473ffffffffffffffffffffffffffffffffffffffff169050919050565b6000600860008373ffffffffffffffffffffffffffffffffffffffff1673ffffffffffffffffffffffffffffffffffffffff168152602001908152602001600020549050919050565b6000600260008373ffffffffffffffffffffffffffffffffffffffff1673ffffffffffffffffffffffffffffffffffffffff16815260200190815260200160002060009054906101000a900473ffffffffffffffffffffffffffffffffffffffff169050919050565b600080611246613b02565b600660008573ffffffffffffffffffffffffffffffffffffffff1673ffffffffffffffffffffffffffffffffffffffff168152602001908152602001600020604051806040016040529081600082015481526020016001820154815250509050806000015192508060200151915050915091565b6000601360009054906101000a900473ffffffffffffffffffffffffffffffffffffffff1673ffffffffffffffffffffffffffffffffffffffff168989898989898989604051602401611314989796959493929190614a04565b6040516020818303038152906040527f264d0f5d000000000000000000000000000000000000000000000000000000007bffffffffffffffffffffffffffffffffffffffffffffffffffffffff19166020820180517bffffffffffffffffffffffffffffffffffffffffffffffffffffffff838183161783525050505060405161139e9190614892565b600060405180830381855af49150503d80600081146113d9576040519150601f19603f3d011682016040523d82523d6000602084013e6113de565b606091505b50509050806113ec57600080fd5b3373ffffffffffffffffffffffffffffffffffffffff167ffd99950557184e2a4c0407202003e2245da97914ed918f04654000637fa5cc7b6001600b60003373ffffffffffffffffffffffffffffffffffffffff1673ffffffffffffffffffffffffffffffffffffffff16815260200190815260200160002080549050036040516114779190614f26565b60405180910390a2505050505050505050565b6000601260009054906101000a900473ffffffffffffffffffffffffffffffffffffffff1673ffffffffffffffffffffffffffffffffffffffff168484846040516024016114da9392919061501c565b6040516020818303038152906040527f3054fa7b000000000000000000000000000000000000000000000000000000007bffffffffffffffffffffffffffffffffffffffffffffffffffffffff19166020820180517bffffffffffffffffffffffffffffffffffffffffffffffffffffffff83818316178352505050506040516115649190614892565b600060405180830381855af49150503d806000811461159f576040519150601f19603f3d011682016040523d82523d6000602084013e6115a4565b606091505b50509050806115b257600080fd5b7f99c5cf14a28dc3fc51734434de554c369d607b32de4c05cd1ef1f85bf6741416846040516115e19190614f26565b60405180910390a150505050565b6000601060149054906101000a900460ff1660ff161461160e57600080fd5b6001601060146101000a81548160ff021916908360ff1602179055506000601360009054906101000a900473ffffffffffffffffffffffffffffffffffffffff1673ffffffffffffffffffffffffffffffffffffffff168383604051602401611678929190614f41565b6040516020818303038152906040527f31787a6c000000000000000000000000000000000000000000000000000000007bffffffffffffffffffffffffffffffffffffffffffffffffffffffff19166020820180517bffffffffffffffffffffffffffffffffffffffffffffffffffffffff83818316178352505050506040516117029190614892565b600060405180830381855af49150503d806000811461173d576040519150601f19603f3d011682016040523d82523d6000602084013e611742565b606091505b505090508061175057600080fd5b3373ffffffffffffffffffffffffffffffffffffffff167fbd2705185f581bb911299c1f0252572ed156662996646de7c7861250131a8318846040516117969190614f26565b60405180910390a2506000601060146101000a81548160ff021916908360ff1602179055505050565b6000601060149054906101000a900460ff1660ff16146117de57600080fd5b6001601060146101000a81548160ff021916908360ff1602179055506000601460009054906101000a900473ffffffffffffffffffffffffffffffffffffffff1673ffffffffffffffffffffffffffffffffffffffff16888888888888886040516024016118529796959493929190614b6d565b6040516020818303038152906040527f39135ac5000000000000000000000000000000000000000000000000000000007bffffffffffffffffffffffffffffffffffffffffffffffffffffffff19166020820180517bffffffffffffffffffffffffffffffffffffffffffffffffffffffff83818316178352505050506040516118dc9190614892565b600060405180830381855af49150503d8060008114611917576040519150601f19603f3d011682016040523d82523d6000602084013e61191c565b606091505b505090508061192a57600080fd5b8773ffffffffffffffffffffffffffffffffffffffff167f73608f075e983236534f83a06e9c05b74977a77187c7caac55dac056c843ddb2886001600f805490500360405161197a929190614ff3565b60405180910390a2506000601060146101000a81548160ff021916908360ff16021790555050505050505050565b6000601060149054906101000a900460ff1660ff16146119c757600080fd5b6001601060146101000a81548160ff021916908360ff1602179055506000601360009054906101000a900473ffffffffffffffffffffffffffffffffffffffff1673ffffffffffffffffffffffffffffffffffffffff168c8c8c8c8c8c8c8c8c8c8c604051602401611a439b9a99989796959493929190614c5a565b6040516020818303038152906040527f3d4ddf26000000000000000000000000000000000000000000000000000000007bffffffffffffffffffffffffffffffffffffffffffffffffffffffff19166020820180517bffffffffffffffffffffffffffffffffffffffffffffffffffffffff8381831617835250505050604051611acd9190614892565b600060405180830381855af49150503d8060008114611b08576040519150601f19603f3d011682016040523d82523d6000602084013e611b0d565b606091505b5050905080611b1b57600080fd5b8b73ffffffffffffffffffffffffffffffffffffffff167f393e2f0e75bc50e732c9ed954b742fb001f68fc98368883e740df801b281faf18c604051611b619190614f26565b60405180910390a2506000601060146101000a81548160ff021916908360ff1602179055505050505050505050505050565b6000601560009054906101000a900473ffffffffffffffffffffffffffffffffffffffff1673ffffffffffffffffffffffffffffffffffffffff16848484604051602401611be393929190614b36565b6040516020818303038152906040527f4c7846dc000000000000000000000000000000000000000000000000000000007bffffffffffffffffffffffffffffffffffffffffffffffffffffffff19166020820180517bffffffffffffffffffffffffffffffffffffffffffffffffffffffff8381831617835250505050604051611c6d9190614892565b600060405180830381855af49150503d8060008114611ca8576040519150601f19603f3d011682016040523d82523d6000602084013e611cad565b606091505b5050905080611cbb57600080fd5b50505050565b600080600080600080600080611cd5613b1c565b600f8a81548110611ce257fe5b9060005260206000209060080201604051806101000160405290816000820160009054906101000a900473ffffffffffffffffffffffffffffffffffffffff1673ffffffffffffffffffffffffffffffffffffffff1673ffffffffffffffffffffffffffffffffffffffff1681526020016001820160009054906101000a900473ffffffffffffffffffffffffffffffffffffffff1673ffffffffffffffffffffffffffffffffffffffff1673ffffffffffffffffffffffffffffffffffffffff1681526020016002820160009054906101000a900473ffffffffffffffffffffffffffffffffffffffff1673ffffffffffffffffffffffffffffffffffffffff1673ffffffffffffffffffffffffffffffffffffffff16815260200160038201548152602001600482015481526020016005820160009054906101000a900473ffffffffffffffffffffffffffffffffffffffff1673ffffffffffffffffffffffffffffffffffffffff1673ffffffffffffffffffffffffffffffffffffffff16815260200160068201548152602001600782015481525050905080600001519850806020015197508060400151965080606001519550806080015194508060a0015193508060c0015192508060e00151915050919395975091939597565b6000601060149054906101000a900460ff1660ff1614611ee157600080fd5b6001601060146101000a81548160ff021916908360ff1602179055506000601460009054906101000a900473ffffffffffffffffffffffffffffffffffffffff1673ffffffffffffffffffffffffffffffffffffffff168989898989898989604051602401611f57989796959493929190614bdc565b6040516020818303038152906040527f56ec9124000000000000000000000000000000000000000000000000000000007bffffffffffffffffffffffffffffffffffffffffffffffffffffffff19166020820180517bffffffffffffffffffffffffffffffffffffffffffffffffffffffff8381831617835250505050604051611fe19190614892565b600060405180830381855af49150503d806000811461201c576040519150601f19603f3d011682016040523d82523d6000602084013e612021565b606091505b505090508061202f57600080fd5b8873ffffffffffffffffffffffffffffffffffffffff167f30e4bee63a66010c80a967a41ba2ab42c5f7f4626acf3c5fe4a5a4a92422392d896040516120759190614f26565b60405180910390a2506000601060146101000a81548160ff021916908360ff1602179055505050505050505050565b6000600b60008373ffffffffffffffffffffffffffffffffffffffff1673ffffffffffffffffffffffffffffffffffffffff168152602001908152602001600020805490509050919050565b6000601060149054906101000a900460ff1660ff161461210f57600080fd5b6001601060146101000a81548160ff021916908360ff1602179055506000601160009054906101000a900473ffffffffffffffffffffffffffffffffffffffff1673ffffffffffffffffffffffffffffffffffffffff168b8b8b8b8b8b8b8b8b8b6040516024016121899a99989796959493929190614dcf565b6040516020818303038152906040527f5974609b000000000000000000000000000000000000000000000000000000007bffffffffffffffffffffffffffffffffffffffffffffffffffffffff19166020820180517bffffffffffffffffffffffffffffffffffffffffffffffffffffffff83818316178352505050506040516122139190614892565b600060405180830381855af49150503d806000811461224e576040519150601f19603f3d011682016040523d82523d6000602084013e612253565b606091505b505090508061226157600080fd5b8a73ffffffffffffffffffffffffffffffffffffffff167f84017faedb600befba48219e8d75f8fae66829e3fc3a46485b579e65c125a4cb8b6040516122a79190614f26565b60405180910390a2506000601060146101000a81548160ff021916908360ff16021790555050505050505050505050565b6000601460009054906101000a900473ffffffffffffffffffffffffffffffffffffffff1673ffffffffffffffffffffffffffffffffffffffff168383604051602401612326929190614f41565b6040516020818303038152906040527f5ce00679000000000000000000000000000000000000000000000000000000007bffffffffffffffffffffffffffffffffffffffffffffffffffffffff19166020820180517bffffffffffffffffffffffffffffffffffffffffffffffffffffffff83818316178352505050506040516123b09190614892565b600060405180830381855af49150503d80600081146123eb576040519150601f19603f3d011682016040523d82523d6000602084013e6123f0565b606091505b50509050806123fe57600080fd5b7fa3d8d4bbc501d1b40d30465ac449bc6c190d9c9313c12ef01339d4bbac1fc2e58360405161242d9190614f26565b60405180910390a1505050565b6000601060149054906101000a900460ff1660ff161461245957600080fd5b6001601060146101000a81548160ff021916908360ff1602179055506000601560009054906101000a900473ffffffffffffffffffffffffffffffffffffffff1673ffffffffffffffffffffffffffffffffffffffff168484846040516024016124c593929190614f6a565b6040516020818303038152906040527f66729a99000000000000000000000000000000000000000000000000000000007bffffffffffffffffffffffffffffffffffffffffffffffffffffffff19166020820180517bffffffffffffffffffffffffffffffffffffffffffffffffffffffff838183161783525050505060405161254f9190614892565b600060405180830381855af49150503d806000811461258a576040519150601f19603f3d011682016040523d82523d6000602084013e61258f565b606091505b505090508061259d57600080fd5b8273ffffffffffffffffffffffffffffffffffffffff163373ffffffffffffffffffffffffffffffffffffffff167fc90d7883bb103ecaf611e358baebbd934a2f6385f8930b01dfdd29637c1a832786856040516125fc929190614fa1565b60405180910390a3506000601060146101000a81548160ff021916908360ff160217905550505050565b6000601060149054906101000a900460ff1660ff161461264557600080fd5b6001601060146101000a81548160ff021916908360ff1602179055506000601260009054906101000a900473ffffffffffffffffffffffffffffffffffffffff1673ffffffffffffffffffffffffffffffffffffffff16888888888888886040516024016126b99796959493929190614d60565b6040516020818303038152906040527f6cb7c890000000000000000000000000000000000000000000000000000000007bffffffffffffffffffffffffffffffffffffffffffffffffffffffff19166020820180517bffffffffffffffffffffffffffffffffffffffffffffffffffffffff83818316178352505050506040516127439190614892565b600060405180830381855af49150503d806000811461277e576040519150601f19603f3d011682016040523d82523d6000602084013e612783565b606091505b505090508061279157600080fd5b8773ffffffffffffffffffffffffffffffffffffffff167f30e4bee63a66010c80a967a41ba2ab42c5f7f4626acf3c5fe4a5a4a92422392d886040516127d79190614f26565b60405180910390a2506000601060146101000a81548160ff021916908360ff16021790555050505050505050565b6060600a60008373ffffffffffffffffffffffffffffffffffffffff1673ffffffffffffffffffffffffffffffffffffffff168152602001908152602001600020805480602002602001604051908101604052809291908181526020016000905b8282101561295857838290600052602060002090600402016040518060800160405290816000820160009054906101000a900473ffffffffffffffffffffffffffffffffffffffff1673ffffffffffffffffffffffffffffffffffffffff1673ffffffffffffffffffffffffffffffffffffffff1681526020016001820160009054906101000a900473ffffffffffffffffffffffffffffffffffffffff1673ffffffffffffffffffffffffffffffffffffffff1673ffffffffffffffffffffffffffffffffffffffff1681526020016002820154815260200160038201548152505081526020019060010190612866565b505050509050919050565b6000601060149054906101000a900460ff1660ff161461298257600080fd5b6001601060146101000a81548160ff021916908360ff1602179055506000601260009054906101000a900473ffffffffffffffffffffffffffffffffffffffff1673ffffffffffffffffffffffffffffffffffffffff16888888888888886040516024016129f69796959493929190614d60565b6040516020818303038152906040527f736c8c8d000000000000000000000000000000000000000000000000000000007bffffffffffffffffffffffffffffffffffffffffffffffffffffffff19166020820180517bffffffffffffffffffffffffffffffffffffffffffffffffffffffff8381831617835250505050604051612a809190614892565b600060405180830381855af49150503d8060008114612abb576040519150601f19603f3d011682016040523d82523d6000602084013e612ac0565b606091505b5050905080612ace57600080fd5b8773ffffffffffffffffffffffffffffffffffffffff167f30e4bee63a66010c80a967a41ba2ab42c5f7f4626acf3c5fe4a5a4a92422392d88604051612b149190614f26565b60405180910390a2506000601060146101000a81548160ff021916908360ff16021790555050505050505050565b600080600080612b50613bb9565b600a60008873ffffffffffffffffffffffffffffffffffffffff1673ffffffffffffffffffffffffffffffffffffffff1681526020019081526020016000208681548110612b9a57fe5b90600052602060002090600402016040518060800160405290816000820160009054906101000a900473ffffffffffffffffffffffffffffffffffffffff1673ffffffffffffffffffffffffffffffffffffffff1673ffffffffffffffffffffffffffffffffffffffff1681526020016001820160009054906101000a900473ffffffffffffffffffffffffffffffffffffffff1673ffffffffffffffffffffffffffffffffffffffff1673ffffffffffffffffffffffffffffffffffffffff168152602001600282015481526020016003820154815250509050806000015194508060200151935080604001519250806060015191505092959194509250565b6000600f80549050905090565b6000809054906101000a900473ffffffffffffffffffffffffffffffffffffffff1681565b6000806000806000806000612ce0613c0d565b600e8981548110612ced57fe5b90600052602060002090600702016040518060e00160405290816000820160009054906101000a900473ffffffffffffffffffffffffffffffffffffffff1673ffffffffffffffffffffffffffffffffffffffff1673ffffffffffffffffffffffffffffffffffffffff1681526020016001820160009054906101000a900473ffffffffffffffffffffffffffffffffffffffff1673ffffffffffffffffffffffffffffffffffffffff1673ffffffffffffffffffffffffffffffffffffffff1681526020016002820160009054906101000a900473ffffffffffffffffffffffffffffffffffffffff1673ffffffffffffffffffffffffffffffffffffffff1673ffffffffffffffffffffffffffffffffffffffff168152602001600382015481526020016004820160009054906101000a900473ffffffffffffffffffffffffffffffffffffffff1673ffffffffffffffffffffffffffffffffffffffff1673ffffffffffffffffffffffffffffffffffffffff16815260200160058201548152602001600682015481525050905080600001519750806020015196508060400151955080606001519450806080015193508060a0015192508060c00151915050919395979092949650565b6000601060149054906101000a900460ff1660ff1614612eda57600080fd5b6001601060146101000a81548160ff021916908360ff1602179055506000601160009054906101000a900473ffffffffffffffffffffffffffffffffffffffff1673ffffffffffffffffffffffffffffffffffffffff168383604051602401612f44929190614f41565b6040516020818303038152906040527f9cd16198000000000000000000000000000000000000000000000000000000007bffffffffffffffffffffffffffffffffffffffffffffffffffffffff19166020820180517bffffffffffffffffffffffffffffffffffffffffffffffffffffffff8381831617835250505050604051612fce9190614892565b600060405180830381855af49150503d8060008114613009576040519150601f19603f3d011682016040523d82523d6000602084013e61300e565b606091505b505090508061301c57600080fd5b3373ffffffffffffffffffffffffffffffffffffffff167fc80e6b1821ce73fc1debe9f8a3f19a1d6b8d447fc5f40b18aca4b711d286a3e6846040516130629190614f26565b60405180910390a2506000601060146101000a81548160ff021916908360ff1602179055505050565b6000601560009054906101000a900473ffffffffffffffffffffffffffffffffffffffff1673ffffffffffffffffffffffffffffffffffffffff16826040516024016130d791906148a9565b6040516020818303038152906040527fac7a12d6000000000000000000000000000000000000000000000000000000007bffffffffffffffffffffffffffffffffffffffffffffffffffffffff19166020820180517bffffffffffffffffffffffffffffffffffffffffffffffffffffffff83818316178352505050506040516131619190614892565b600060405180830381855af49150503d806000811461319c576040519150601f19603f3d011682016040523d82523d6000602084013e6131a1565b606091505b50509050806131af57600080fd5b3373ffffffffffffffffffffffffffffffffffffffff167f6a3553f4792fc817e600eb76c632f817a7ee1ae7e1230f7f2939f542415662ed836040516131f591906148a9565b60405180910390a25050565b6000600460008473ffffffffffffffffffffffffffffffffffffffff1673ffffffffffffffffffffffffffffffffffffffff16815260200190815260200160002060008373ffffffffffffffffffffffffffffffffffffffff1673ffffffffffffffffffffffffffffffffffffffff16815260200190815260200160002054905092915050565b6000601260009054906101000a900473ffffffffffffffffffffffffffffffffffffffff1673ffffffffffffffffffffffffffffffffffffffff1683836040516024016132d6929190614f41565b6040516020818303038152906040527fb36c9618000000000000000000000000000000000000000000000000000000007bffffffffffffffffffffffffffffffffffffffffffffffffffffffff19166020820180517bffffffffffffffffffffffffffffffffffffffffffffffffffffffff83818316178352505050506040516133609190614892565b600060405180830381855af49150503d806000811461339b576040519150601f19603f3d011682016040523d82523d6000602084013e6133a0565b606091505b50509050806133ae57600080fd5b7fce0306296409fb2dee7046b646fd5c1fe821aa8590aaae4ce843299193bafc61836040516133dd9190614f26565b60405180910390a1505050565b6000600a60008373ffffffffffffffffffffffffffffffffffffffff1673ffffffffffffffffffffffffffffffffffffffff168152602001908152602001600020805490509050919050565b6000600e80549050905090565b6000601460009054906101000a900473ffffffffffffffffffffffffffffffffffffffff1673ffffffffffffffffffffffffffffffffffffffff168484846040516024016134939392919061501c565b6040516020818303038152906040527fe18d521e000000000000000000000000000000000000000000000000000000007bffffffffffffffffffffffffffffffffffffffffffffffffffffffff19166020820180517bffffffffffffffffffffffffffffffffffffffffffffffffffffffff838183161783525050505060405161351d9190614892565b600060405180830381855af49150503d8060008114613558576040519150601f19603f3d011682016040523d82523d6000602084013e61355d565b606091505b505090508061356b57600080fd5b7f16830ff28f75512cff8d5d442ba749b72d9b05ad86718f6feb8201f7e109ca588460405161359a9190614f26565b60405180910390a150505050565b6000806135b3613b02565b600560008673ffffffffffffffffffffffffffffffffffffffff1673ffffffffffffffffffffffffffffffffffffffff16815260200190815260200160002060008573ffffffffffffffffffffffffffffffffffffffff1673ffffffffffffffffffffffffffffffffffffffff1681526020019081526020016000206040518060400160405290816000820154815260200160018201548152505090508060000151925080602001519150509250929050565b6000809054906101000a900473ffffffffffffffffffffffffffffffffffffffff1673ffffffffffffffffffffffffffffffffffffffff163373ffffffffffffffffffffffffffffffffffffffff16146136f5576040517f08c379a00000000000000000000000000000000000000000000000000000000081526004016136ec90614f06565b60405180910390fd5b600073ffffffffffffffffffffffffffffffffffffffff168173ffffffffffffffffffffffffffffffffffffffff161461376a57806000806101000a81548173ffffffffffffffffffffffffffffffffffffffff021916908373ffffffffffffffffffffffffffffffffffffffff1602179055505b50565b6000600360008373ffffffffffffffffffffffffffffffffffffffff1673ffffffffffffffffffffffffffffffffffffffff168152602001908152602001600020549050919050565b60008060008060006137c6613ca2565b600b60008973ffffffffffffffffffffffffffffffffffffffff1673ffffffffffffffffffffffffffffffffffffffff168152602001908152602001600020878154811061381057fe5b90600052602060002090600502016040518060a00160405290816000820160009054906101000a900473ffffffffffffffffffffffffffffffffffffffff1673ffffffffffffffffffffffffffffffffffffffff1673ffffffffffffffffffffffffffffffffffffffff1681526020016001820160009054906101000a900473ffffffffffffffffffffffffffffffffffffffff1673ffffffffffffffffffffffffffffffffffffffff1673ffffffffffffffffffffffffffffffffffffffff168152602001600282015481526020016003820154815260200160048201548152505090508060000151955080602001519450806040015193508060600151925080608001519150509295509295909350565b6000601060149054906101000a900460ff1660ff161461394257600080fd5b6001601060146101000a81548160ff021916908360ff1602179055506000601260009054906101000a900473ffffffffffffffffffffffffffffffffffffffff1673ffffffffffffffffffffffffffffffffffffffff16888888888888886040516024016139b69796959493929190614d60565b6040516020818303038152906040527ffe4b3a5f000000000000000000000000000000000000000000000000000000007bffffffffffffffffffffffffffffffffffffffffffffffffffffffff19166020820180517bffffffffffffffffffffffffffffffffffffffffffffffffffffffff8381831617835250505050604051613a409190614892565b600060405180830381855af49150503d8060008114613a7b576040519150601f19603f3d011682016040523d82523d6000602084013e613a80565b606091505b5050905080613a8e57600080fd5b8773ffffffffffffffffffffffffffffffffffffffff167f30e4bee63a66010c80a967a41ba2ab42c5f7f4626acf3c5fe4a5a4a92422392d88604051613ad49190614f26565b60405180910390a2506000601060146101000a81548160ff021916908360ff16021790555050505050505050565b604051806040016040528060008152602001600081525090565b604051806101000160405280600073ffffffffffffffffffffffffffffffffffffffff168152602001600073ffffffffffffffffffffffffffffffffffffffff168152602001600073ffffffffffffffffffffffffffffffffffffffff1681526020016000815260200160008152602001600073ffffffffffffffffffffffffffffffffffffffff16815260200160008152602001600081525090565b6040518060800160405280600073ffffffffffffffffffffffffffffffffffffffff168152602001600073ffffffffffffffffffffffffffffffffffffffff16815260200160008152602001600081525090565b6040518060e00160405280600073ffffffffffffffffffffffffffffffffffffffff168152602001600073ffffffffffffffffffffffffffffffffffffffff168152602001600073ffffffffffffffffffffffffffffffffffffffff16815260200160008152602001600073ffffffffffffffffffffffffffffffffffffffff16815260200160008152602001600081525090565b6040518060a00160405280600073ffffffffffffffffffffffffffffffffffffffff168152602001600073ffffffffffffffffffffffffffffffffffffffff1681526020016000815260200160008152602001600081525090565b600081359050613d0c816151ec565b92915050565b600081905082602060030282011115613d2a57600080fd5b92915050565b600081359050613d3f81615203565b92915050565b60008083601f840112613d5757600080fd5b8235905067ffffffffffffffff811115613d7057600080fd5b602083019150836001820283011115613d8857600080fd5b9250929050565b600081359050613d9e8161521a565b92915050565b600081359050613db38161522a565b92915050565b600081359050613dc881615241565b92915050565b600081359050613ddd81615258565b92915050565b600060208284031215613df557600080fd5b6000613e0384828501613cfd565b91505092915050565b60008060408385031215613e1f57600080fd5b6000613e2d85828601613cfd565b9250506020613e3e85828601613cfd565b9150509250929050565b600080600080600080600080610100898b031215613e6557600080fd5b6000613e738b828c01613cfd565b9850506020613e848b828c01613cfd565b9750506040613e958b828c01613dce565b9650506060613ea68b828c01613db9565b9550506080613eb78b828c01613dce565b94505060a0613ec88b828c01613dce565b93505060c0613ed98b828c01613da4565b92505060e0613eea8b828c01613da4565b9150509295985092959890939650565b600080600080600080600060e0888a031215613f1557600080fd5b6000613f238a828b01613cfd565b9750506020613f348a828b01613cfd565b9650506040613f458a828b01613dce565b9550506060613f568a828b01613dce565b9450506080613f678a828b01613dce565b93505060a0613f788a828b01613da4565b92505060c0613f898a828b01613da4565b91505092959891949750929550565b600080600060608486031215613fad57600080fd5b6000613fbb86828701613cfd565b9350506020613fcc86828701613db9565b9250506040613fdd86828701613d8f565b9150509250925092565b60008060408385031215613ffa57600080fd5b600061400885828601613cfd565b925050602061401985828601613dce565b9150509250929050565b600080600080600080600060e0888a03121561403e57600080fd5b600061404c8a828b01613cfd565b975050602061405d8a828b01613dce565b965050604061406e8a828b01613cfd565b955050606061407f8a828b01613cfd565b94505060806140908a828b01613dce565b93505060a06140a18a828b01613db9565b92505060c06140b28a828b01613dce565b91505092959891949750929550565b600080600080600080600080610100898b0312156140de57600080fd5b60006140ec8b828c01613cfd565b98505060206140fd8b828c01613dce565b975050604061410e8b828c01613cfd565b965050606061411f8b828c01613cfd565b95505060806141308b828c01613dce565b94505060a06141418b828c01613db9565b93505060c06141528b828c01613dce565b92505060e06141638b828c01613cfd565b9150509295985092959890939650565b60008060008060008060008060008060006101808c8e03121561419557600080fd5b60006141a38e828f01613cfd565b9b505060206141b48e828f01613dce565b9a505060406141c58e828f01613cfd565b99505060606141d68e828f01613cfd565b98505060806141e78e828f01613dce565b97505060a06141f88e828f01613db9565b96505060c06142098e828f01613dce565b95505060e061421a8e828f01613d12565b9450506101408c013567ffffffffffffffff81111561423857600080fd5b6142448e828f01613d45565b93509350506101606142588e828f01613cfd565b9150509295989b509295989b9093969950565b60008060008060008060c0878903121561428457600080fd5b600061429289828a01613cfd565b96505060206142a389828a01613dce565b95505060406142b489828a01613cfd565b94505060606142c589828a01613cfd565b93505060806142d689828a01613dce565b92505060a06142e789828a01613dce565b9150509295509295509295565b600080600080600080600060e0888a03121561430f57600080fd5b600061431d8a828b01613cfd565b975050602061432e8a828b01613dce565b965050604061433f8a828b01613cfd565b95505060606143508a828b01613cfd565b94505060806143618a828b01613dce565b93505060a06143728a828b01613dce565b92505060c06143838a828b01613cfd565b91505092959891949750929550565b6000806000806000806000806000806101608b8d0312156143b257600080fd5b60006143c08d828e01613cfd565b9a505060206143d18d828e01613dce565b99505060406143e28d828e01613cfd565b98505060606143f38d828e01613cfd565b97505060806144048d828e01613dce565b96505060a06144158d828e01613dce565b95505060c06144268d828e01613d12565b9450506101208b013567ffffffffffffffff81111561444457600080fd5b6144508d828e01613d45565b93509350506101406144648d828e01613cfd565b9150509295989b9194979a5092959850565b600080600080600080600080610100898b03121561449357600080fd5b60006144a18b828c01613cfd565b98505060206144b28b828c01613dce565b97505060406144c38b828c01613cfd565b96505060606144d48b828c01613cfd565b95505060806144e58b828c01613dce565b94505060a06144f68b828c01613dce565b93505060c06145078b828c01613db9565b92505060e06145188b828c01613cfd565b9150509295985092959890939650565b60006020828403121561453a57600080fd5b600061454884828501613dce565b91505092915050565b6000806040838503121561456457600080fd5b600061457285828601613dce565b925050602061458385828601613cfd565b9150509250929050565b6000806000606084860312156145a257600080fd5b60006145b086828701613dce565b93505060206145c186828701613cfd565b92505060406145d286828701613d30565b9150509250925092565b6000806000606084860312156145f157600080fd5b60006145ff86828701613dce565b935050602061461086828701613dce565b925050604061462186828701613dce565b9150509250925092565b600061463783836147b2565b60208301905092915050565b600061464f838361481f565b60808301905092915050565b61466481615108565b82525050565b61467381615108565b82525050565b6146828161506d565b61468c81846150a8565b925061469782615053565b8060005b838110156146d0576146ad82846150f1565b6146b7878261462b565b96506146c28361508e565b92505060018101905061469b565b505050505050565b60006146e382615078565b6146ed81856150b3565b93506146f88361505d565b8060005b838110156147295781516147108882614643565b975061471b8361509b565b9250506001810190506146fc565b5085935050505092915050565b61473f8161511a565b82525050565b600061475183856150c4565b935061475e83858461518c565b614767836151ce565b840190509392505050565b600061477d82615083565b61478781856150d5565b935061479781856020860161519b565b80840191505092915050565b6147ac8161517a565b82525050565b6147bb81615139565b82525050565b6147ca81615139565b82525050565b6147d981615146565b82525050565b60006147ec600a836150e0565b91507f6f6e6c79206f776e6572000000000000000000000000000000000000000000006000830152602082019050919050565b608082016000820151614835600085018261465b565b506020820151614848602085018261465b565b50604082015161485b6040850182614874565b50606082015161486e6060850182614874565b50505050565b61487d81615170565b82525050565b61488c81615170565b82525050565b600061489e8284614772565b915081905092915050565b60006020820190506148be600083018461466a565b92915050565b6000610100820190506148da600083018b61466a565b6148e7602083018a61466a565b6148f4604083018961466a565b61490160608301886147d0565b61490e6080830187614883565b61491b60a083018661466a565b61492860c0830185614883565b61493560e0830184614883565b9998505050505050505050565b600060e082019050614957600083018a61466a565b614964602083018961466a565b614971604083018861466a565b61497e6060830187614883565b61498b608083018661466a565b61499860a0830185614883565b6149a560c0830184614883565b98975050505050505050565b600060a0820190506149c6600083018861466a565b6149d3602083018761466a565b6149e06040830186614883565b6149ed60608301856147d0565b6149fa6080830184614883565b9695505050505050565b600061010082019050614a1a600083018b61466a565b614a27602083018a61466a565b614a346040830189614883565b614a4160608301886147d0565b614a4e6080830187614883565b614a5b60a0830186614883565b614a6860c08301856147c1565b614a7560e08301846147c1565b9998505050505050505050565b6000608082019050614a97600083018761466a565b614aa4602083018661466a565b614ab16040830185614883565b614abe6060830184614883565b95945050505050565b600060e082019050614adc600083018a61466a565b614ae9602083018961466a565b614af66040830188614883565b614b036060830187614883565b614b106080830186614883565b614b1d60a08301856147c1565b614b2a60c08301846147c1565b98975050505050505050565b6000606082019050614b4b600083018661466a565b614b5860208301856147d0565b614b6560408301846147a3565b949350505050565b600060e082019050614b82600083018a61466a565b614b8f6020830189614883565b614b9c604083018861466a565b614ba9606083018761466a565b614bb66080830186614883565b614bc360a08301856147d0565b614bd060c0830184614883565b98975050505050505050565b600061010082019050614bf2600083018b61466a565b614bff602083018a614883565b614c0c604083018961466a565b614c19606083018861466a565b614c266080830187614883565b614c3360a08301866147d0565b614c4060c0830185614883565b614c4d60e083018461466a565b9998505050505050505050565b600061018082019050614c70600083018e61466a565b614c7d602083018d614883565b614c8a604083018c61466a565b614c97606083018b61466a565b614ca4608083018a614883565b614cb160a08301896147d0565b614cbe60c0830188614883565b614ccb60e0830187614679565b818103610140830152614cdf818587614745565b9050614cef61016083018461466a565b9c9b505050505050505050505050565b600060c082019050614d14600083018961466a565b614d216020830188614883565b614d2e604083018761466a565b614d3b606083018661466a565b614d486080830185614883565b614d5560a0830184614883565b979650505050505050565b600060e082019050614d75600083018a61466a565b614d826020830189614883565b614d8f604083018861466a565b614d9c606083018761466a565b614da96080830186614883565b614db660a0830185614883565b614dc360c083018461466a565b98975050505050505050565b600061016082019050614de5600083018d61466a565b614df2602083018c614883565b614dff604083018b61466a565b614e0c606083018a61466a565b614e196080830189614883565b614e2660a0830188614883565b614e3360c0830187614679565b818103610120830152614e47818587614745565b9050614e5761014083018461466a565b9b9a5050505050505050505050565b600061010082019050614e7c600083018b61466a565b614e89602083018a614883565b614e96604083018961466a565b614ea3606083018861466a565b614eb06080830187614883565b614ebd60a0830186614883565b614eca60c08301856147d0565b614ed760e083018461466a565b9998505050505050505050565b60006020820190508181036000830152614efe81846146d8565b905092915050565b60006020820190508181036000830152614f1f816147df565b9050919050565b6000602082019050614f3b6000830184614883565b92915050565b6000604082019050614f566000830185614883565b614f63602083018461466a565b9392505050565b6000606082019050614f7f6000830186614883565b614f8c602083018561466a565b614f996040830184614736565b949350505050565b6000604082019050614fb66000830185614883565b614fc36020830184614736565b9392505050565b6000604082019050614fdf6000830185614883565b614fec60208301846147d0565b9392505050565b60006040820190506150086000830185614883565b6150156020830184614883565b9392505050565b60006060820190506150316000830186614883565b61503e6020830185614883565b61504b6040830184614883565b949350505050565b6000819050919050565b6000819050602082019050919050565b600060039050919050565b600081519050919050565b600081519050919050565b6000602082019050919050565b6000602082019050919050565b600081905092915050565b600082825260208201905092915050565b600082825260208201905092915050565b600081905092915050565b600082825260208201905092915050565b60006151006020840184613da4565b905092915050565b600061511382615150565b9050919050565b60008115159050919050565b6000819050615134826151df565b919050565b600081600f0b9050919050565b6000819050919050565b600073ffffffffffffffffffffffffffffffffffffffff82169050919050565b6000819050919050565b600061518582615126565b9050919050565b82818337600083830152505050565b60005b838110156151b957808201518184015260208101905061519e565b838111156151c8576000848401525b50505050565b6000601f19601f8301169050919050565b600681106151e957fe5b50565b6151f581615108565b811461520057600080fd5b50565b61520c8161511a565b811461521757600080fd5b50565b6006811061522757600080fd5b50565b61523381615139565b811461523e57600080fd5b50565b61524a81615146565b811461525557600080fd5b50565b61526181615170565b811461526c57600080fd5b5056fea2646970667358221220ee1b3a58f5467cd07dd77211d417f51586db853935763371ba98b6b029504a0564736f6c63430006080033",
  "immutableReferences": {},
  "source": "// SPDX-License-Identifier: MIT\npragma experimental ABIEncoderV2;\npragma solidity >=0.6.8 <0.7.0;\n\nimport \"../../libraries/SafeMath.sol\";\nimport \"../../libraries/SignedSafeMath.sol\";\nimport \"../../interfaces/IFixCapitalPool.sol\";\nimport \"../../interfaces/IVaultHealth.sol\";\nimport \"../../interfaces/INSFVaultFactory.sol\";\nimport \"../../interfaces/IWrapper.sol\";\nimport \"../../interfaces/IERC20.sol\";\nimport \"../../helpers/nonReentrant.sol\";\nimport \"./NSFVaultFactoryData.sol\";\n\ncontract NSFVaultFactory is NSFVaultFactoryData, INSFVaultFactory, nonReentrant {\n\tusing SafeMath for uint;\n\tusing SignedSafeMath for int;\n\n\taddress delegate1Address;\n\taddress delegate2Address;\n\taddress delegate3Address;\n\taddress delegate4Address;\n\taddress delegate5Address;\n\n\tconstructor(\n\t\taddress _vaultHealthContract,\n\t\taddress _infoOracleAddr,\n\t\taddress _delegate1Address,\n\t\taddress _delegate2Address,\n\t\taddress _delegate3Address,\n\t\taddress _delegate4Address,\n\t\taddress _delegate5Address\n\t) public {\n\t\tvaultHealthContract = IVaultHealth(_vaultHealthContract);\n\t\t_infoOracleAddress = _infoOracleAddr;\n\t\tdelegate1Address = _delegate1Address;\n\t\tdelegate2Address = _delegate2Address;\n\t\tdelegate3Address = _delegate3Address;\n\t\tdelegate4Address = _delegate4Address;\n\t\tdelegate5Address = _delegate5Address;\n\t}\n\n\t//-----------------------------------views-------------------------------------\n\n\tfunction vaultsLength(address _owner) external view override returns(uint) {\n\t\treturn _vaults[_owner].length;\n\t}\n\n\tfunction YTvaultsLength(address _owner) external view override returns(uint) {\n\t\treturn _YTvaults[_owner].length;\n\t}\n\n\tfunction allVaults(address _owner) external view override returns(Vault[] memory __vaults) {\n\t\t__vaults = _vaults[_owner];\n\t}\n\n\tfunction liquidationsLength() external view override returns (uint) {\n\t\treturn _Liquidations.length;\n\t}\n\n\tfunction YTLiquidationsLength() external view override returns (uint) {\n\t\treturn _YTLiquidations.length;\n\t}\n\n\tfunction wrapperToUnderlyingAsset(address _wrapperAddress) external view override returns (address) {\n\t\treturn _wrapperToUnderlyingAsset[_wrapperAddress];\n\t}\n\n\tfunction fixCapitalPoolToWrapper(address _fixCapitalPoolAddress) external view override returns (address) {\n\t\treturn _fixCapitalPoolToWrapper[_fixCapitalPoolAddress];\n\t}\n\n\tfunction shortInterestAllDurations(address _wrapper) external view override returns (uint) {\n\t\treturn _shortInterestAllDurations[_wrapper];\n\t}\n\n\tfunction revenue(address _asset) external view override returns (uint) {\n\t\treturn _revenue[_asset];\n\t}\n\n\tfunction YTrevenue(address _asset) external view override returns (uint yield, int bond) {\n\t\tYTPosition memory pos = _YTRevenue[_asset];\n\t\tyield = pos.amountYield;\n\t\tbond = pos.amountBond;\n\t}\n\n\tfunction liquidationRebates(address _owner, address _asset) external view override returns(uint) {\n\t\treturn _liquidationRebates[_owner][_asset];\n\t}\n\n\tfunction YTLiquidationRebates(address _owner, address _FCP) external view override returns(uint yield, int bond) {\n\t\tYTPosition memory pos = _YTLiquidationRebates[_owner][_FCP];\n\t\tyield = pos.amountYield;\n\t\tbond = pos.amountBond;\n\t}\n\n\tfunction vaults(address _owner, uint _index) external view override returns (\n\t\taddress assetSupplied,\n\t\taddress assetBorrowed,\n\t\tuint amountSupplied,\n\t\tuint amountBorrowed\n\t) {\n\t\tVault memory vault = _vaults[_owner][_index];\n\t\tassetSupplied = vault.assetSupplied;\n\t\tassetBorrowed = vault.assetBorrowed;\n\t\tamountSupplied = vault.amountSupplied;\n\t\tamountBorrowed = vault.amountBorrowed;\n\t}\n\n\tfunction Liquidations(uint _index) external view override returns (\n\t\taddress vaultOwner,\n\t\taddress assetSupplied,\n\t\taddress assetBorrowed,\n\t\tuint amountBorrowed,\n\t\taddress bidder,\n\t\tuint bidAmount,\n\t\tuint bidTimestamp\n\t) {\n\t\tLiquidation memory lq = _Liquidations[_index];\n\t\tvaultOwner = lq.vaultOwner;\n\t\tassetSupplied = lq.assetSupplied;\n\t\tassetBorrowed = lq.assetBorrowed;\n\t\tamountBorrowed = lq.amountBorrowed;\n\t\tbidder = lq.bidder;\n\t\tbidAmount = lq.bidAmount;\n\t\tbidTimestamp = lq.bidTimestamp;\n\t}\n\n\tfunction YTvaults(address _owner, uint _index) external view override returns (\n\t\taddress FCPsupplied,\n\t\taddress FCPborrowed,\n\t\tuint yieldSupplied,\n\t\tint bondSupplied,\n\t\tuint amountBorrowed\n\t) {\n\t\tYTVault memory vault = _YTvaults[_owner][_index];\n\t\tFCPsupplied = vault.FCPsupplied;\n\t\tFCPborrowed = vault.FCPborrowed;\n\t\tyieldSupplied = vault.yieldSupplied;\n\t\tbondSupplied = vault.bondSupplied;\n\t\tamountBorrowed = vault.amountBorrowed;\n\t}\n\n\tfunction YTLiquidations(uint _index) external view override returns (\n\t\taddress vaultOwner,\n\t\taddress FCPsupplied,\n\t\taddress FCPborrowed,\n\t\tint bondRatio,\n\t\tuint amountBorrowed,\n\t\taddress bidder,\n\t\tuint bidAmount,\n\t\tuint bidTimestamp\n\t) {\n\t\tYTLiquidation memory liq = _YTLiquidations[_index];\n\t\tvaultOwner = liq.vaultOwner;\n\t\tFCPsupplied = liq.FCPsupplied;\n\t\tFCPborrowed = liq.FCPborrowed;\n\t\tbondRatio = liq.bondRatio;\n\t\tamountBorrowed = liq.amountBorrowed;\n\t\tbidder = liq.bidder;\n\t\tbidAmount = liq.bidAmount;\n\t\tbidTimestamp = liq.bidTimestamp;\n\t}\n\n\tfunction VaultHealthAddress() external view override returns (address) {\n\t\treturn address(vaultHealthContract);\n\t}\n\n\t//--------------------------------standard vault management-----------------------------------\n\n\t/*\n\t\t@Description: create a new vault, deposit some asset and borrow some ZCB from it\n\n\t\t@param address _assetSupplied: the asset that will be used as collateral\n\t\t\tthis asset may be a ZCB or any other asset that is whitelisted\n\t\t@param address _assetBorrowed: the ZCB that is borrowed from the new vault\n\t\t@param uint _amountSupplied: the amount of _assetSupplied that is to be posed as collateral\n\t\t@param uint _amountBorrowed: the amount of _assetBorrowed to borrow\n\t\t@param uint _priceMultiplier: a multiplier > 1\n\t\t\twe ensure the vault will not be sent into the liquidation zone if the cross asset price\n\t\t\tof _assetBorrowed to _assetSupplied increases by a factor of _priceMultiplier\n\t\t\t(in terms of basis points)\n\t\t@param int128 _suppliedRateChange: a multiplier > 1\n\t\t\twe ensure the vault will not be sent into the liquidation zone if the rate on the supplied\n\t\t\tasset increases by a factor of _suppliedRateChange\n\t\t\t(in ABDK format)\n\t\t@param int128 _borrowRateChange: a multiplier < 1\n\t\t\twe ensure the vault will not be sent into the liquidation zone if the rate on the borrow\n\t\t\tasset decreases by a factor of _borrowRateChange\n\t\t\t(in ABDK format)\n\t*/\n\tfunction openVault(\n\t\taddress _assetSupplied,\n\t\taddress _assetBorrowed,\n\t\tuint _amountSupplied,\n\t\tuint _amountBorrowed,\n\t\tuint _priceMultiplier,\n\t\tint128 _suppliedRateChange,\n\t\tint128 _borrowRateChange\n\t\t) external override {\n\n\t\t(bool success, ) = delegate1Address.delegatecall(abi.encodeWithSignature(\n\t\t\t\"openVault(address,address,uint256,uint256,uint256,int128,int128)\",\n\t\t\t_assetSupplied,\n\t\t\t_assetBorrowed,\n\t\t\t_amountSupplied,\n\t\t\t_amountBorrowed,\n\t\t\t_priceMultiplier,\n\t\t\t_suppliedRateChange,\n\t\t\t_borrowRateChange\n\t\t));\n\t\trequire(success);\n\t\temit OpenVault(msg.sender, _vaults[msg.sender].length-1);\n\t}\n\n\t/*\n\t\t@Description: fully repay a vault and withdraw all collateral\n\n\t\t@param uint _index: the vault to close is at vaults[msg.sender][_index]\n\t\t@param address _to: the address to which to send all collateral after closing the vault\n\t*/\n\tfunction closeVault(uint _index, address _to) external override noReentry {\n\t\t(bool success, ) = delegate1Address.delegatecall(abi.encodeWithSignature(\n\t\t\t\"closeVault(uint256,address)\",\n\t\t\t_index,\n\t\t\t_to\n\t\t));\n\t\trequire(success);\n\t\temit CloseVault(msg.sender, _index);\n\t}\n\n\t/*\n\t\t@Description: adjust the state of a vault by either changing the assets in it\n\t\t\tor paying down/increasing debt or supplying/withdrawing collateral\n\t\t\tfor any call where funds would be transfered out of the vault msg.sender must be the vault owner\n\t\t\tif the _data param has length > 0, assets sent out by the vault will be sent via flashloan\n\t\t\tand repayment must be made in the required collateral assets \n\n\t\t@param address _owner: the owner of the vault to adjust\n\t\t@param uint _index: the index of the vault in vaults[_owner]\n\t\t@param address _assetSupplied: the new asset(may be the same as previous) that is to be used as\n\t\t\tcollateral in the vault\n\t\t@param address _assetBorrowed: the new asset(may be the same as previous) that is to be borrowed\n\t\t\tfrom the vault\n\t\t@param uint _amountSupplied: the total amount of collateral that shall be in the vault after execution\n\t\t@param uint _amountBorrowed: the total amount of debt of the vault after execution\n\t\t@param int128[3] calldata _multipliers: the 3 multipliers used on call to\n\t\t\tvaultHealthContract.vaultWithstandsChange\n\t\t\t\tuint(_multipliers[0]) is priceMultiplier\n\t\t\t\t_multipliers[1] is suppliedRateMultiplier\n\t\t\t\t_multipliers[2] is borrowedRateMultiplier\n\t\t@param bytes calldata _data: data to be send to the flashloan receiver if a flashloan is to be done\n\t\t\tif _data.length == 0 there will be no flashloan\n\t\t@param  address _receiverAddr: the address of the flashloan receiver contract\n\t*/\n\tfunction adjustVault(\n\t\taddress _owner,\n\t\tuint _index,\n\t\taddress _assetSupplied,\n\t\taddress _assetBorrowed,\n\t\tuint _amountSupplied,\n\t\tuint _amountBorrowed,\n\t\tint128[3] calldata _multipliers,\n\t\tbytes calldata _data,\n\t\taddress _receiverAddr\n\t) external override noReentry {\n\t\t(bool success, ) = delegate1Address.delegatecall(abi.encodeWithSignature(\n\t\t\t\"adjustVault(address,uint256,address,address,uint256,uint256,int128[3],bytes,address)\",\n\t\t\t_owner,\n\t\t\t_index,\n\t\t\t_assetSupplied,\n\t\t\t_assetBorrowed,\n\t\t\t_amountSupplied,\n\t\t\t_amountBorrowed,\n\t\t\t_multipliers,\n\t\t\t_data,\n\t\t\t_receiverAddr\n\t\t));\n\t\trequire(success);\n\t\temit AdjustVault(_owner, _index);\n\t}\n\n\t//--------------------------------------YT vault management-----------------------------------\n\n\t/*\n\t\t@Description: create a new YT vault, deposit some ZCB + YT of a FCP and borrow some ZCB from it\n\n\t\t@param address _FCPsupplied: the address of the FCP contract for which to supply ZCB and YT\n\t\t@param address _FCPborrowed: the FCP that corresponds to theZCB that is borrowed from the new YTVault\n\t\t@param uint _yieldSupplied: the amount from the balanceYield mapping in the supplied FCP contract\n\t\t\tthat is to be supplied to the new YTVault\n\t\t@param int _bondSupplied: the amount from the balanceBonds mapping in the supplied FCP contract\n\t\t\tthat is to be supplied to the new YTVault\n\t\t@param uint _amountBorrowed: the amount of ZCB from _FCPborrowed to borrow\n\t\t@param uint _priceMultiplier: a multiplier > 1\n\t\t\twe ensure the vault will not be sent into the liquidation zone if the cross asset price\n\t\t\tof _assetBorrowed to _assetSupplied increases by a factor of _priceMultiplier\n\t\t\t(in terms of basis points)\n\t\t@param int128 _suppliedRateChange: a multiplier > 1 if _positiveBondSupplied otherwise < 1\n\t\t\twe ensure the vault will not be sent into the liquidation zone if the rate on the supplied\n\t\t\tasset increases by a factor of _suppliedRateChange\n\t\t\t(in ABDK format)\n\t\t@param int128 _borrowRateChange: a multiplier < 1\n\t\t\twe ensure the vault will not be sent into the liquidation zone if the rate on the borrow\n\t\t\tasset decreases by a factor of _borrowRateChange\n\t\t\t(in ABDK format)\n\t*/\n\tfunction openYTVault(\n\t\taddress _FCPsupplied,\n\t\taddress _FCPborrowed,\n\t\tuint _yieldSupplied,\n\t\tint _bondSupplied,\n\t\tuint _amountBorrowed,\n\t\tuint _priceMultiplier,\n\t\tint128 _suppliedRateChange,\n\t\tint128 _borrowRateChange\n\t) external override {\n\t\t(bool success, ) = delegate3Address.delegatecall(abi.encodeWithSignature(\n\t\t\t\"openYTVault(address,address,uint256,int256,uint256,uint256,int128,int128)\",\n\t\t\t_FCPsupplied,\n\t\t\t_FCPborrowed,\n\t\t\t_yieldSupplied,\n\t\t\t_bondSupplied,\n\t\t\t_amountBorrowed,\n\t\t\t_priceMultiplier,\n\t\t\t_suppliedRateChange,\n\t\t\t_borrowRateChange\n\t\t));\n\t\trequire(success);\n\t\temit OpenYTVault(msg.sender, _YTvaults[msg.sender].length-1);\n\t}\n\n\t/*\n\t\t@Description: fully repay a YT vault and withdraw all collateral\n\n\t\t@param uint _index: the YT vault to close is at YTvaults[msg.sender][_index]\n\t\t@param address _to: the address to which to send all collateral after closing the vault\n\t*/\n\tfunction closeYTVault(uint _index, address _to) external override noReentry {\n\t\t(bool success, ) = delegate3Address.delegatecall(abi.encodeWithSignature(\n\t\t\t\"closeYTVault(uint256,address)\",\n\t\t\t_index,\n\t\t\t_to\n\t\t));\n\t\trequire(success);\n\t\temit CloseYTVault(msg.sender, _index);\n\t}\n\n\t/*\n\t\t@Description: adjust the state of a YT vault by either changing the assets in it\n\t\t\tor paying down/increasing debt or supplying/withdrawing collateral\n\t\t\tfor any call where funds would be transfered out of the vault msg.sender must be the vault owner\n\t\t\tif the _data param has length > 0, assets sent out by the vault will be sent via flashloan\n\t\t\tand repayment must be made in the required collateral assets \n\n\t\t@param address _owner: the owner of the YT vault to adjust\n\t\t@param uint _index: the index of the YT vault in YTvaults[_owner]\n\t\t@param address _FCPsupplied: the new FCP (may be the same as previous) corresponding to the vault's\n\t\t\tZCB & YT collateral\n\t\t@param address _FCPborrowed: the new FCP (may be the same as previous) corresponding to the ZCB\n\t\t\tthat is to be borrowed from the vault\n\t\t@param uint _yieldSupplied: the amount from the balanceYield mapping in the supplied FCP contract\n\t\t\tthat will be supplied as collateral to the YTVault after execution\n\t\t@param int _bondSupplied: the amount from the balanceBonds mapping in the supplied FCP contract\n\t\t\tthat will be supplied as collateral to the YTVault after execution\n\t\t@param uint _amountBorrowed: the total amount of debt of the vault after execution\n\t\t@param int128[3] calldata _multipliers: the 3 multipliers used on call to\n\t\t\tvaultHealthContract.vaultWithstandsChange\n\t\t\t\tuint(_multipliers[0]) is priceMultiplier\n\t\t\t\t_multipliers[1] is suppliedRateMultiplier\n\t\t\t\t_multipliers[2] is borrowedRateMultiplier\n\t\t@param bytes calldata _data: data to be send to the flashloan receiver if a flashloan is to be done\n\t\t\tif _data.length == 0 there will be no flashloan\n\t\t@param  address _receiverAddr: the address of the flashloan receiver contract\n\t*/\n\tfunction adjustYTVault(\n\t\taddress _owner,\n\t\tuint _index,\n\t\taddress _FCPsupplied,\n\t\taddress _FCPborrowed,\n\t\tuint _yieldSupplied,\n\t\tint _bondSupplied,\n\t\tuint _amountBorrowed,\n\t\tint128[3] calldata _multipliers,\n\t\tbytes calldata _data,\n\t\taddress _receiverAddr\n\t) external override noReentry {\n\t\t(bool success, ) = delegate3Address.delegatecall(abi.encodeWithSignature(\n\t\t\t\"adjustYTVault(address,uint256,address,address,uint256,int256,uint256,int128[3],bytes,address)\",\n\t\t\t_owner,\n\t\t\t_index,\n\t\t\t_FCPsupplied,\n\t\t\t_FCPborrowed,\n\t\t\t_yieldSupplied,\n\t\t\t_bondSupplied,\n\t\t\t_amountBorrowed,\n\t\t\t_multipliers,\n\t\t\t_data,\n\t\t\t_receiverAddr\n\t\t));\n\t\trequire(success);\n\t\temit AdjustYTVault(_owner, _index);\n\t}\n\n\t//--------------------------------f-o-r---b-o-t-h---s-t-a-n-d-a-r-d---v-a-u-l-t-s---a-n-d---Y-T-v-a-u-l-t-s---------------\n\n\t/*\n\t\t@Description: assign a vault/YTvault to a new owner\n\n\t\t@param uint _index: the index within vaults/YTvaults[msg.sender] at which the vault to transfer is located\n\t\t@param address _to: the new owner of the vault/YTvault\n\t\t@param bool _isYTVault: true when the vault to transfer is a YTvault, false otherwise\n\t*/\n\tfunction transferVault(uint _index, address _to, bool _isYTVault) external override noReentry {\n\t\t(bool success, ) = delegate5Address.delegatecall(abi.encodeWithSignature(\n\t\t\t\"transferVault(uint256,address,bool)\",\n\t\t\t_index,\n\t\t\t_to,\n\t\t\t_isYTVault\n\t\t));\n\t\trequire(success);\n\t\temit TransferVault(msg.sender, _index, _to, _isYTVault);\n\t}\n\n\t//----------------------------------------------_Liquidations------------------------------------------\n\n\t/*\n\t\t@Description: send a vault that is under the upper collateralization limit to the auction house\n\n\t\t@param address _owner: the owner of the vault to send to auction\n\t\t@param uint _index: the index of the vault in vaults[_owner] to send to auction\n\t\t@param address _assetBorrowed: the address of the expected borrow asset of the vault\n\t\t@param address _assetSupplied: the address of the expected supplied asset of the vault\n\t\t@param uint _bid: the first bid (in _assetSupplied) made by msg.sender\n\t\t@param uint _maxIn: the maximum amount of _assetBorrowed to send in\n\t*/\n\tfunction auctionLiquidation(address _owner, uint _index, address _assetBorrowed, address _assetSupplied, uint _bid, uint _maxIn) external override noReentry {\n\t\t(bool success, ) = delegate2Address.delegatecall(abi.encodeWithSignature(\n\t\t\t\"auctionLiquidation(address,uint256,address,address,uint256,uint256)\",\n\t\t\t_owner,\n\t\t\t_index,\n\t\t\t_assetBorrowed,\n\t\t\t_assetSupplied,\n\t\t\t_bid,\n\t\t\t_maxIn\n\t\t));\n\t\trequire(success);\n\t\temit AuctionLiquidation(_owner, _index, _Liquidations.length-1);\n\t}\n\n\t/*\n\t\t@Description: place a new bid on a vault that has already begun an auction\n\n\t\t@param uint _index: the index in _Liquidations[] of the auction\n\t\t@param uint  _bid: the amount of the supplied asset that the liquidator wishes to receive\n\t\t\tin reward if the liquidator wins this auction\n\t\t@param uint _amtIn: the amount of borrowed asset that the liquidator will be sending in\n\t*/\n\tfunction bidOnLiquidation(uint _index, uint _bid, uint _amtIn) external override {\n\t\t(bool success, ) = delegate2Address.delegatecall(abi.encodeWithSignature(\n\t\t\t\"bidOnLiquidation(uint256,uint256,uint256)\",\n\t\t\t_index,\n\t\t\t_bid,\n\t\t\t_amtIn\n\t\t));\n\t\trequire(success);\n\t\temit BidOnLiquidation(_index);\n\t}\n\n\t/*\n\t\t@Description: claim the collateral of a vault from an auction that was won by msg.sender\n\n\t\t@param uint _index: the index in Liquidations[] of the auction\n\t\t@param address _to: the address to which to send the proceeds\n\t*/\n\tfunction claimLiquidation(uint _index, address _to) external override {\n\t\t(bool success, ) = delegate2Address.delegatecall(abi.encodeWithSignature(\n\t\t\t\"claimLiquidation(uint256,address)\",\n\t\t\t_index,\n\t\t\t_to\n\t\t));\n\t\trequire(success);\n\t\temit ClaimLiquidation(_index);\n\t}\n\n\t/*\n\t\t@Description: when there is less than 1 day until maturity or _vaults are under the lower collateralisation limit \n\t\t\tvaults may be liquidated instantly without going through the auction process, this is intended to help the VaultFactory\n\t\t\tkeep solvency in the event of a market crisis\n\t\t\tthis function is used when a liquidator would like to liquidate the entire vault\n\t\t@param address _owner: the owner of the vault to send to auction\n\t\t@param uint _index: the index of the vault in vaults[_owner] to send to auction\n\t\t@param address _assetBorrowed: the address of the expected borrow asset of the vault\n\t\t@param address _assetSupplied: the address of the expected supplied asset of the vault\n\t\t@param uint _maxIn: the maximum amount of assetBorrowed that msg.sender is willing to bid on the vault\n\t\t@param uint _minOut: the minimum amount of assetSupplied that msg.sender wants to receive from this liquidation\n\t\t@param address _to: the address to which to send all of the collateral from the vault\n\t*/\n\tfunction instantLiquidation(address _owner, uint _index, address _assetBorrowed, address _assetSupplied, uint _maxIn, uint _minOut, address _to) external override noReentry {\n\t\t(bool success, ) = delegate2Address.delegatecall(abi.encodeWithSignature(\n\t\t\t\"instantLiquidation(address,uint256,address,address,uint256,uint256,address)\",\n\t\t\t_owner,\n\t\t\t_index,\n\t\t\t_assetBorrowed,\n\t\t\t_assetSupplied,\n\t\t\t_maxIn,\n\t\t\t_minOut,\n\t\t\t_to\n\t\t));\n\t\trequire(success);\n\t\temit InstantLiquidation(_owner, _index);\n\t}\n\n\t/*\n\t\t@Description: when there is less than 1 day until maturity or _vaults are under the lower collateralisation limit \n\t\t\tvaults may be liquidated instantly without going through the auction process, this is intended to help the VaultFactory\n\t\t\tkeep solvency in the event of a market crisis\n\t\t\tthis function is used when a liquidator whould like to only partially liquidate the vault by providing a specific\n\t\t\tamount of assetBorrowed and receiving the corresponding amount of assetSupplied\n\t\t@param address _owner: the owner of the vault to send to auction\n\t\t@param uint _index: the index of the vault in vaults[_owner] to send to auction\n\t\t@param address _assetBorrowed: the address of the expected borrow asset of the vault\n\t\t@param address _assetSupplied: the address of the expected supplied asset of the vault\n\t\t@param uint _in: the amount of assetBorrowed to supply to the vault\n\t\t@param uint _minOut: the minimum amount of assetSupplied that msg.sender wants to receive from this liquidation\n\t\t@param address _to: the address to which to send all of the collateral from the vault\n\t*/\n\tfunction partialLiquidationSpecificIn(address _owner, uint _index, address _assetBorrowed, address _assetSupplied, uint _in, uint _minOut, address _to) external override noReentry{\n\t\t(bool success, ) = delegate2Address.delegatecall(abi.encodeWithSignature(\n\t\t\t\"partialLiquidationSpecificIn(address,uint256,address,address,uint256,uint256,address)\",\n\t\t\t_owner,\n\t\t\t_index,\n\t\t\t_assetBorrowed,\n\t\t\t_assetSupplied,\n\t\t\t_in,\n\t\t\t_minOut,\n\t\t\t_to\n\t\t));\n\t\trequire(success);\n\t\temit InstantLiquidation(_owner, _index);\n\t}\n\n\t/*\n\t\t@Description: when there is less than 1 day until maturity or _vaults are under the lower collateralisation limit \n\t\t\tvaults may be liquidated instantly without going through the auction process, this is intended to help the VaultFactory\n\t\t\tkeep solvency in the event of a market crisis\n\t\t\tthis function is used when a liquidator whould like to only partially liquidate the vault by receiving a specific\n\t\t\tamount of assetSupplied and sending the corresponding amount of assetBorrowed\n\t\t@param address _owner: the owner of the vault to send to auction\n\t\t@param uint _index: the index of the vault in vaults[_owner] to send to auction\n\t\t@param address _assetBorrowed: the address of the expected borrow asset of the vault\n\t\t@param address _assetSupplied: the address of the expected supplied asset of the vault\n\t\t@param uint _ouot: the amount of assetSupplied to receive from the vault\n\t\t@param uint _maxIn: the maximum amount of assetBorrowed that msg.sender is willing to bid on the vault\n\t\t@param address _to: the address to which to send all of the collateral from the vault\n\t*/\n\tfunction partialLiquidationSpecificOut(address _owner, uint _index, address _assetBorrowed, address _assetSupplied, uint _out, uint _maxIn, address _to) external override noReentry {\n\t\t(bool success, ) = delegate2Address.delegatecall(abi.encodeWithSignature(\n\t\t\t\"partialLiquidationSpecificOut(address,uint256,address,address,uint256,uint256,address)\",\n\t\t\t_owner,\n\t\t\t_index,\n\t\t\t_assetBorrowed,\n\t\t\t_assetSupplied,\n\t\t\t_out,\n\t\t\t_maxIn,\n\t\t\t_to\n\t\t));\n\t\trequire(success);\n\t\temit InstantLiquidation(_owner, _index);\n\t}\n\n\n\t/*\n\t\t@Description: allows a user to claim the excess collateral that was received as a rebate\n\t\t\twhen their vault(s) were liquidated\n\n\t\t@param address _asset: the address of the asset for which to claim rebated collateral\n\t*/\n\tfunction claimRebate(address _asset) external override {\n\t\t(bool success, ) = delegate5Address.delegatecall(abi.encodeWithSignature(\n\t\t\t\"claimRebate(address)\",\n\t\t\t_asset\n\t\t));\n\t\trequire(success);\n\t\temit ClaimRebate(msg.sender, _asset);\n\t}\n\n\t//------------------------------------Y-T---v-a-u-l-t---L-i-q-u-i-d-a-t-i-o-n-s-------------------------------------\n\n\n\t/*\n\t\t@Description: allows a user to claim the excess collateral that was received as a rebate\n\t\t\twhen their YT vault(s) were liquidated\n\t\n\t\t@param address _FCP: the address of the FCP contract for which to claim the rebate\n\t*/\n\tfunction claimYTRebate(address _FCP) external override {\n\t\t(bool success, ) = delegate5Address.delegatecall(abi.encodeWithSignature(\n\t\t\t\"claimYTRebate(address)\",\n\t\t\t_FCP\n\t\t));\n\t\trequire(success);\n\t\temit ClaimYTRebate(msg.sender, _FCP);\n\t}\n\n\n\t/*\n\t\t@Description: send a vault that is under the upper collateralization limit to the auction house\n\n\t\t@param address _owner: the owner of the vault to send to auction\n\t\t@param uint _index: the index of the vault in vaults[_owner] to send to auction\n\t\t@param address _FCPborrowed: the address of the FCP contract corresponding to the borrowed ZCB\n\t\t@param address _FCPsupplied: the address of the FCP contract corresponding to the supplied ZCB & YT\n\t\t@param uint _bidYield: the first bid (in YT corresponding _FCPsupplied) made by msg.sender on the vault\n\t\t\tZCB of bid is calculated by finding the corresponding amount of ZCB based on the ratio of YT to ZCB\n\t\t@param int _minBondRatio: the miniumum value of vault.bondSupplied/vault.yieldSupplied inflated by (1 ether)\n\t\t\tif ratio is below _minBondRatio tx will revert\n\t\t@param uint _amtIn: the amount of the borrowed ZCB to send in\n\t*/\n\tfunction auctionYTLiquidation(address _owner, uint _index, address _FCPborrowed, address _FCPsupplied, uint _bidYield, int _minBondRatio, uint _amtIn) external override noReentry {\n\t\t(bool success, ) = delegate4Address.delegatecall(abi.encodeWithSignature(\n\t\t\t\"auctionYTLiquidation(address,uint256,address,address,uint256,int256,uint256)\",\n\t\t\t_owner,\n\t\t\t_index,\n\t\t\t_FCPborrowed,\n\t\t\t_FCPsupplied,\n\t\t\t_bidYield,\n\t\t\t_minBondRatio,\n\t\t\t_amtIn\n\t\t));\n\t\trequire(success);\n\t\temit AuctionYTLiquidation(_owner, _index, _YTLiquidations.length-1);\n\t}\n\n\t/*\n\t\t@Description: place a new bid on a YT vault that has already begun an auction\n\n\t\t@param uint _index: the index in _YTLiquidations[] of the auction\n\t\t@param uint _bidYield: the bid (in YT corresponding _FCPsupplied) made by msg.sender on the vault\n\t\t\tZCB of bid is calculated by finding the corresponding amount of ZCB based on the ratio of YT to ZCB\n\t\t@param uint _amtIn: the amount of borrowed asset that the liquidator will be sending in\n\t*/\n\tfunction bidOnYTLiquidation(uint _index, uint _bidYield, uint _amtIn) external override {\n\t\t(bool success, ) = delegate4Address.delegatecall(abi.encodeWithSignature(\n\t\t\t\"bidOnYTLiquidation(uint256,uint256,uint256)\",\n\t\t\t_index,\n\t\t\t_bidYield,\n\t\t\t_amtIn\n\t\t));\n\t\trequire(success);\n\t\temit BidOnYTLiquidation(_index);\n\t}\n\n\t/*\n\t\t@Description: claim the collateral of a YT vault from an auction that was won by msg.sender\n\n\t\t@param uint _index: the index in YTLiquidations[] of the auction\n\t\t@param address _to: the address to which to send the proceeds\n\t*/\n\tfunction claimYTLiquidation(uint _index, address _to) external override {\n\t\t(bool success, ) = delegate4Address.delegatecall(abi.encodeWithSignature(\n\t\t\t\"claimYTLiquidation(uint256,address)\",\n\t\t\t_index,\n\t\t\t_to\n\t\t));\n\t\trequire(success);\n\t\temit ClaimYTLiquidation(_index);\n\t}\n\n\t/*\n\t\t@Description: when there is less than 1 day until maturity or _vaults are under the lower collateralisation limit \n\t\t\tvaults may be liquidated instantly without going through the auction process, this is intended to help the VaultFactory\n\t\t\tkeep solvency in the event of a market crisis\n\t\t\tthis function is used when a liquidator would like to liquidate the entire vault\n\t\t@param address _owner: the owner of the vault to send to auction\n\t\t@param uint _index: the index of the vault in vaults[_owner] to send to auction\n\t\t@param address _FCPborrowed: the address of the FCP contract corresponding to the borrowed ZCB\n\t\t@param address _FCPsupplied: the address of the FCP contract corresponding to the supplied ZCB & YT\n\t\t@param uint _maxIn: the maximum amount of the borrowed asset that msg.sender is willing to send in\n\t\t@param int _minBondRatio: the minimum value of vault.bondSupplied / vault.yieldSupplied inflated by (1 ether)\n\t\t\tif the actual bond ratio of the vault is < _minBondRatio tx will revert\n\t\t@param uint _minOut: the minimum amount of YT from _FCPsupplied that msg.sender wants to receive from this liquidation\n\t\t@param address _to: the address to which to send all of the collateral from the vault\n\t*/\n\tfunction instantYTLiquidation(address _owner, uint _index, address _FCPborrowed, address _FCPsupplied, uint _maxIn, uint _minOut, int _minBondRatio, address _to) external override noReentry {\n\t\t(bool success, ) = delegate4Address.delegatecall(abi.encodeWithSignature(\n\t\t\t\"instantYTLiquidation(address,uint256,address,address,uint256,uint256,int256,address)\",\n\t\t\t_owner,\n\t\t\t_index,\n\t\t\t_FCPborrowed,\n\t\t\t_FCPsupplied,\n\t\t\t_maxIn,\n\t\t\t_minOut,\n\t\t\t_minBondRatio,\n\t\t\t_to\n\t\t));\n\t\trequire(success);\n\t\temit InstantLiquidation(_owner, _index);\n\t}\n\n\t/*\n\t\t@Description: when there is less than 1 day until maturity or _vaults are under the lower collateralisation limit \n\t\t\tvaults may be liquidated instantly without going through the auction process, this is intended to help the VaultFactory\n\t\t\tkeep solvency in the event of a market crisis\n\t\t\tthis function is used when a liquidator whould like to only partially liquidate the vault by providing a specific\n\t\t\tamount of the borrowed asset and receiving the corresponding percentage of the vault's collateral\n\t\t@param address _owner: the owner of the vault to send to auction\n\t\t@param uint _index: the index of the vault in vaults[_owner] to send to auction\n\t\t@param address _FCPborrowed: the address of the FCP contract corresponding to the borrowed ZCB\n\t\t@param address _FCPsupplied: the address of the FCP contract corresponding to the supplied ZCB & YT\n\t\t@param uint _in: the amount of the borrowed asset to supply to the vault\n\t\t@param int _minBondRatio: the minimum value of vault.bondSupplied / vault.yieldSupplied inflated by (1 ether)\n\t\t\tif the actual bond ratio of the vault is < _minBondRatio tx will revert\n\t\t@param uint _minOut: the minimum amount of YT from _FCPsupplied that msg.sender wants to receive from this liquidation\n\t\t@param address _to: the address to which to send all of the collateral from the vault\n\t*/\n\tfunction partialYTLiquidationSpecificIn(address _owner, uint _index, address _FCPborrowed, address _FCPsupplied, uint _in, uint _minOut, int _minBondRatio, address _to) external override noReentry {\n\t\t(bool success, ) = delegate4Address.delegatecall(abi.encodeWithSignature(\n\t\t\t\"partialYTLiquidationSpecificIn(address,uint256,address,address,uint256,uint256,int256,address)\",\n\t\t\t_owner,\n\t\t\t_index,\n\t\t\t_FCPborrowed,\n\t\t\t_FCPsupplied,\n\t\t\t_in,\n\t\t\t_minOut,\n\t\t\t_minBondRatio,\n\t\t\t_to\n\t\t));\n\t\trequire(success);\n\t\temit InstantLiquidation(_owner, _index);\n\t}\n\n\t/*\n\t\t@Description: when there is less than 1 day until maturity or _vaults are under the lower collateralisation limit \n\t\t\tvaults may be liquidated instantly without going through the auction process, this is intended to help the VaultFactory\n\t\t\tkeep solvency in the event of a market crisis\n\t\t\tthis function is used when a liquidator whould like to only partially liquidate the vault by receiving a specific\n\t\t\tamount of YT corresponding to _FCPsupplied and sending the corresponding amount of assetBorrowed\n\t\t@param address _owner: the owner of the vault to send to auction\n\t\t@param uint _index: the index of the vault in vaults[_owner] to send to auction\n\t\t@param address _FCPborrowed: the address of the FCP contract corresponding to the borrowed ZCB\n\t\t@param address _FCPsupplied: the address of the FCP contract corresponding to the supplied ZCB & YT\n\t\t@param uint _out: the amount of YT corresponding to _FCPsupplied to receive from the vault\n\t\t@param int _minBondOut: the minimum value of bond when transferPosition is called to payout liquidator\n\t\t\tif the actual bond out is < _minBondOut tx will revert\n\t\t@param uint _maxIn: the maximum amount of assetBorrowed that msg.sender is willing to bid on the vault\n\t\t@param address _to: the address to which to send all of the collateral from the vault\n\t*/\n\tfunction partialYTLiquidationSpecificOut(address _owner, uint _index, address _FCPborrowed, address _FCPsupplied, uint _out, int _minBondRatio, uint _maxIn, address _to) external override noReentry {\n\t\t(bool success, ) = delegate4Address.delegatecall(abi.encodeWithSignature(\n\t\t\t\"partialYTLiquidationSpecificOut(address,uint256,address,address,uint256,int256,uint256,address)\",\n\t\t\t_owner,\n\t\t\t_index,\n\t\t\t_FCPborrowed,\n\t\t\t_FCPsupplied,\n\t\t\t_out,\n\t\t\t_minBondRatio,\n\t\t\t_maxIn,\n\t\t\t_to\n\t\t));\n\t\trequire(success);\n\t\temit InstantLiquidation(_owner, _index);\n\t}\n\n\n\t//-------------------------------------a-d-m-i-n---m-a-n-a-g-e-m-e-n-t----------------------------------------------\n\n\tfunction manage(address _addr, int _num, MANAGE_METHOD _manageMethod) external override {\n\t\t(bool success, ) = delegate5Address.delegatecall(abi.encodeWithSignature(\n\t\t\t\"manage(address,int256,uint8)\",\n\t\t\t_addr,\n\t\t\t_num,\n\t\t\t_manageMethod\n\t\t));\n\t\trequire(success);\n\t}\n}\n\n",
  "sourcePath": "/home/asher/FixFinanceV1/contracts/VaultFactory/NoStabilityFee/NSFVaultFactory.sol",
  "compiler": {
    "name": "solc",
    "version": "0.6.8+commit.0bbfe453.Emscripten.clang"
  },
  "schemaVersion": "3.4.1",
  "updatedAt": "2021-11-26T19:15:55.421Z",
  "devdoc": {
    "methods": {}
  },
  "userdoc": {
    "methods": {}
  }
}