{
  "contractName": "NSFVaultFactoryDelegate3",
  "abi": [
    {
      "inputs": [],
      "name": "owner",
      "outputs": [
        {
          "internalType": "address",
          "name": "",
          "type": "address"
        }
      ],
      "stateMutability": "view",
      "type": "function"
    },
    {
      "inputs": [
        {
          "internalType": "address",
          "name": "newOwner",
          "type": "address"
        }
      ],
      "name": "transferOwnership",
      "outputs": [],
      "stateMutability": "nonpayable",
      "type": "function"
    },
    {
      "inputs": [
        {
          "internalType": "address",
          "name": "_FCPsupplied",
          "type": "address"
        },
        {
          "internalType": "address",
          "name": "_FCPborrowed",
          "type": "address"
        },
        {
          "internalType": "uint256",
          "name": "_yieldSupplied",
          "type": "uint256"
        },
        {
          "internalType": "int256",
          "name": "_bondSupplied",
          "type": "int256"
        },
        {
          "internalType": "uint256",
          "name": "_amountBorrowed",
          "type": "uint256"
        },
        {
          "internalType": "uint256",
          "name": "_priceMultiplier",
          "type": "uint256"
        },
        {
          "internalType": "int128",
          "name": "_suppliedRateChange",
          "type": "int128"
        },
        {
          "internalType": "int128",
          "name": "_borrowRateChange",
          "type": "int128"
        }
      ],
      "name": "openYTVault",
      "outputs": [],
      "stateMutability": "nonpayable",
      "type": "function"
    },
    {
      "inputs": [
        {
          "internalType": "uint256",
          "name": "_index",
          "type": "uint256"
        },
        {
          "internalType": "address",
          "name": "_to",
          "type": "address"
        }
      ],
      "name": "closeYTVault",
      "outputs": [],
      "stateMutability": "nonpayable",
      "type": "function"
    },
    {
      "inputs": [
        {
          "internalType": "address",
          "name": "_owner",
          "type": "address"
        },
        {
          "internalType": "uint256",
          "name": "_index",
          "type": "uint256"
        },
        {
          "internalType": "address",
          "name": "_FCPsupplied",
          "type": "address"
        },
        {
          "internalType": "address",
          "name": "_FCPborrowed",
          "type": "address"
        },
        {
          "internalType": "uint256",
          "name": "_yieldSupplied",
          "type": "uint256"
        },
        {
          "internalType": "int256",
          "name": "_bondSupplied",
          "type": "int256"
        },
        {
          "internalType": "uint256",
          "name": "_amountBorrowed",
          "type": "uint256"
        },
        {
          "internalType": "int128[3]",
          "name": "_multipliers",
          "type": "int128[3]"
        },
        {
          "internalType": "bytes",
          "name": "_data",
          "type": "bytes"
        },
        {
          "internalType": "address",
          "name": "_receiverAddr",
          "type": "address"
        }
      ],
      "name": "adjustYTVault",
      "outputs": [],
      "stateMutability": "nonpayable",
      "type": "function"
    }
  ],
  "bytecode": "0x608060405234801561001057600080fd5b50336000806101000a81548173ffffffffffffffffffffffffffffffffffffffff021916908373ffffffffffffffffffffffffffffffffffffffff1602179055506130f6806100606000396000f3fe608060405234801561001057600080fd5b50600436106100575760003560e01c8063264d0f5d1461005c57806331787a6c146100785780633d4ddf26146100945780638da5cb5b146100b0578063f2fde38b146100ce575b600080fd5b61007660048036038101906100719190612601565b6100ea565b005b610092600480360381019061008d919061284f565b610512565b005b6100ae60048036038101906100a991906126b3565b610999565b005b6100b8611a9d565b6040516100c59190612b63565b60405180910390f35b6100e860048036038101906100e391906125af565b611ac2565b005b620f4240861015801561011d57507f7fffffffffffffffffffffffffffffffffffffffffffffffffffffffffffffff8611155b61012657600080fd5b61013583838360008913611bc9565b6000600260008a73ffffffffffffffffffffffffffffffffffffffff1673ffffffffffffffffffffffffffffffffffffffff16815260200190815260200160002060009054906101000a900473ffffffffffffffffffffffffffffffffffffffff169050600073ffffffffffffffffffffffffffffffffffffffff168173ffffffffffffffffffffffffffffffffffffffff1614156101d357600080fd5b60006101df8a89611c4b565b9050601060009054906101000a900473ffffffffffffffffffffffffffffffffffffffff1673ffffffffffffffffffffffffffffffffffffffff1663eafb2c0d60008c8c858c8c8c8c8c6040518a63ffffffff1660e01b815260040161024d99989796959493929190612d85565b60206040518083038186803b15801561026557600080fd5b505afa158015610279573d6000803e3d6000fd5b505050506040513d601f19601f8201168201806040525081019061029d91906127ab565b6102a657600080fd5b8973ffffffffffffffffffffffffffffffffffffffff1663ec02d25733308b8b6040518563ffffffff1660e01b81526004016102e59493929190612c2d565b600060405180830381600087803b1580156102ff57600080fd5b505af1158015610313573d6000803e3d6000fd5b505050508873ffffffffffffffffffffffffffffffffffffffff1663af0b460633886040518363ffffffff1660e01b8152600401610352929190612c72565b600060405180830381600087803b15801561036c57600080fd5b505af1158015610380573d6000803e3d6000fd5b5050505061038e8987611d7c565b61039d6000338c858c8c611f55565b600b60003373ffffffffffffffffffffffffffffffffffffffff1673ffffffffffffffffffffffffffffffffffffffff1681526020019081526020016000206040518060a001604052808c73ffffffffffffffffffffffffffffffffffffffff1681526020018b73ffffffffffffffffffffffffffffffffffffffff1681526020018a815260200189815260200188815250908060018154018082558091505060019003906000526020600020906005020160009091909190915060008201518160000160006101000a81548173ffffffffffffffffffffffffffffffffffffffff021916908373ffffffffffffffffffffffffffffffffffffffff16021790555060208201518160010160006101000a81548173ffffffffffffffffffffffffffffffffffffffff021916908373ffffffffffffffffffffffffffffffffffffffff160217905550604082015181600201556060820151816003015560808201518160040155505050505050505050505050565b6000600b60003373ffffffffffffffffffffffffffffffffffffffff1673ffffffffffffffffffffffffffffffffffffffff16815260200190815260200160002080549050905080831061056557600080fd5b61056d612444565b600b60003373ffffffffffffffffffffffffffffffffffffffff1673ffffffffffffffffffffffffffffffffffffffff16815260200190815260200160002084815481106105b757fe5b90600052602060002090600502016040518060a00160405290816000820160009054906101000a900473ffffffffffffffffffffffffffffffffffffffff1673ffffffffffffffffffffffffffffffffffffffff1673ffffffffffffffffffffffffffffffffffffffff1681526020016001820160009054906101000a900473ffffffffffffffffffffffffffffffffffffffff1673ffffffffffffffffffffffffffffffffffffffff1673ffffffffffffffffffffffffffffffffffffffff1681526020016002820154815260200160038201548152602001600482015481525050905060008160800151111561073157806020015173ffffffffffffffffffffffffffffffffffffffff1663fc2807f13383608001516040518363ffffffff1660e01b81526004016106ec929190612c72565b600060405180830381600087803b15801561070657600080fd5b505af115801561071a573d6000803e3d6000fd5b5050505061073081602001518260800151611fd0565b5b60008160400151118061074957506000816060015114155b156108d2577f7fffffffffffffffffffffffffffffffffffffffffffffffffffffffffffffff8160400151111561077f57600080fd5b806000015173ffffffffffffffffffffffffffffffffffffffff16636a68d0c384836040015184606001516040518463ffffffff1660e01b81526004016107c893929190612cfb565b600060405180830381600087803b1580156107e257600080fd5b505af11580156107f6573d6000803e3d6000fd5b505050506000816000015173ffffffffffffffffffffffffffffffffffffffff1663ac210cc76040518163ffffffff1660e01b815260040160206040518083038186803b15801561084657600080fd5b505afa15801561085a573d6000803e3d6000fd5b505050506040513d601f19601f8201168201806040525081019061087e91906127d4565b90506108d060003384600001518486604001516000036108cb7fffffffffffffffffffffffffffffffffffffffffffffffffffffffffffffffff89606001516120ec90919063ffffffff16565b611f55565b505b600b60003373ffffffffffffffffffffffffffffffffffffffff1673ffffffffffffffffffffffffffffffffffffffff168152602001908152602001600020848154811061091c57fe5b9060005260206000209060050201600080820160006101000a81549073ffffffffffffffffffffffffffffffffffffffff02191690556001820160006101000a81549073ffffffffffffffffffffffffffffffffffffffff0219169055600282016000905560038201600090556004820160009055505050505050565b600b60008c73ffffffffffffffffffffffffffffffffffffffff1673ffffffffffffffffffffffffffffffffffffffff168152602001908152602001600020805490508a106109e757600080fd5b6109ef612444565b600b60008d73ffffffffffffffffffffffffffffffffffffffff1673ffffffffffffffffffffffffffffffffffffffff1681526020019081526020016000208b81548110610a3957fe5b90600052602060002090600502016040518060a00160405290816000820160009054906101000a900473ffffffffffffffffffffffffffffffffffffffff1673ffffffffffffffffffffffffffffffffffffffff1673ffffffffffffffffffffffffffffffffffffffff1681526020016001820160009054906101000a900473ffffffffffffffffffffffffffffffffffffffff1673ffffffffffffffffffffffffffffffffffffffff1673ffffffffffffffffffffffffffffffffffffffff168152602001600282015481526020016003820154815260200160048201548152505090506000600b60008e73ffffffffffffffffffffffffffffffffffffffff1673ffffffffffffffffffffffffffffffffffffffff1681526020019081526020016000208c81548110610b6a57fe5b90600052602060002090600502019050816020015173ffffffffffffffffffffffffffffffffffffffff168a73ffffffffffffffffffffffffffffffffffffffff16141580610be95750816000015173ffffffffffffffffffffffffffffffffffffffff168b73ffffffffffffffffffffffffffffffffffffffff1614155b80610bf75750816040015189105b80610c055750816080015187115b80610c225750816040015189148015610c215750816060015188125b5b15610db457600086600060038110610c3657fe5b602002016020810190610c4991906127fd565b600f0b13610c5657600080fd5b8c73ffffffffffffffffffffffffffffffffffffffff163373ffffffffffffffffffffffffffffffffffffffff1614610c8e57600080fd5b601060009054906101000a900473ffffffffffffffffffffffffffffffffffffffff1673ffffffffffffffffffffffffffffffffffffffff1663eafb2c0d60008d8d8d8d8d8d600060038110610ce057fe5b602002016020810190610cf391906127fd565b600f0b8e600160038110610d0357fe5b602002016020810190610d1691906127fd565b8f600260038110610d2357fe5b602002016020810190610d3691906127fd565b6040518a63ffffffff1660e01b8152600401610d5a99989796959493929190612d85565b60206040518083038186803b158015610d7257600080fd5b505afa158015610d86573d6000803e3d6000fd5b505050506040513d601f19601f82011682018060405250810190610daa91906127ab565b610db357600080fd5b5b6000808c73ffffffffffffffffffffffffffffffffffffffff16846000015173ffffffffffffffffffffffffffffffffffffffff1614610efc57600073ffffffffffffffffffffffffffffffffffffffff16846000015173ffffffffffffffffffffffffffffffffffffffff1614610ea257836000015173ffffffffffffffffffffffffffffffffffffffff16636a68d0c386866040015187606001516040518463ffffffff1660e01b8152600401610e6f93929190612cfb565b600060405180830381600087803b158015610e8957600080fd5b505af1158015610e9d573d6000803e3d6000fd5b505050505b8c8360000160006101000a81548173ffffffffffffffffffffffffffffffffffffffff021916908373ffffffffffffffffffffffffffffffffffffffff1602179055508a836002018190555089836003018190555061116d565b8a8460400151141580610f13575089846060015114155b1561116c5760008d73ffffffffffffffffffffffffffffffffffffffff1663b116dd4e6040518163ffffffff1660e01b815260040160206040518083038186803b158015610f6057600080fd5b505afa158015610f74573d6000803e3d6000fd5b505050506040513d601f19601f82011682018060405250810190610f989190612826565b905060008b121580610fd057508a600003670de0b6b3a7640000610fc5838f6121ea90919063ffffffff16565b81610fcc57fe5b0410155b610fd957600080fd5b610ff085604001518d61225a90919063ffffffff16565b925061103e670de0b6b3a764000061101183866120ec90919063ffffffff16565b8161101857fe5b0561103087606001518e61225a90919063ffffffff16565b6122d290919063ffffffff16565b915060008312156110c4578d73ffffffffffffffffffffffffffffffffffffffff166343959bb93033866000036040518463ffffffff1660e01b815260040161108993929190612c9b565b600060405180830381600087803b1580156110a357600080fd5b505af11580156110b7573d6000803e3d6000fd5b5050505081806001019250505b6000821215611140578d73ffffffffffffffffffffffffffffffffffffffff166388beac0c3033856000036040518463ffffffff1660e01b815260040161110d93929190612c9b565b600060405180830381600087803b15801561112757600080fd5b505af115801561113b573d6000803e3d6000fd5b505050505b8b856040015114611155578b84600201819055505b8a85606001511461116a578a84600301819055505b505b5b8b73ffffffffffffffffffffffffffffffffffffffff16846020015173ffffffffffffffffffffffffffffffffffffffff16146112ec57600073ffffffffffffffffffffffffffffffffffffffff168c73ffffffffffffffffffffffffffffffffffffffff16146111e3576111e28c8a611d7c565b5b600073ffffffffffffffffffffffffffffffffffffffff16846020015173ffffffffffffffffffffffffffffffffffffffff161461122e5761122d84602001518560800151611fd0565b5b8b73ffffffffffffffffffffffffffffffffffffffff1663af0b4606868b6040518363ffffffff1660e01b8152600401611269929190612cd2565b600060405180830381600087803b15801561128357600080fd5b505af1158015611297573d6000803e3d6000fd5b505050508b8360010160006101000a81548173ffffffffffffffffffffffffffffffffffffffff021916908373ffffffffffffffffffffffffffffffffffffffff1602179055508883600401819055506113a1565b8884608001511015611389578b73ffffffffffffffffffffffffffffffffffffffff1663af0b46068686608001518c036040518363ffffffff1660e01b8152600401611339929190612cd2565b600060405180830381600087803b15801561135357600080fd5b505af1158015611367573d6000803e3d6000fd5b5050505061137b8c85608001518b03611d7c565b8883600401819055506113a0565b888460800151111561139f578883600401819055505b5b5b600087879050111561145c578473ffffffffffffffffffffffffffffffffffffffff16638d6c48033386600001518760200151886040015189606001518a608001518e8e6040518963ffffffff1660e01b8152600401611408989796959493929190612b7e565b602060405180830381600087803b15801561142257600080fd5b505af1158015611436573d6000803e3d6000fd5b505050506040513d601f19601f8201168201806040525081019061145a91906127ab565b505b8c73ffffffffffffffffffffffffffffffffffffffff16846000015173ffffffffffffffffffffffffffffffffffffffff1614611509578c73ffffffffffffffffffffffffffffffffffffffff1663ec02d25733308e8e6040518563ffffffff1660e01b81526004016114d29493929190612c2d565b600060405180830381600087803b1580156114ec57600080fd5b505af1158015611500573d6000803e3d6000fd5b505050506115fc565b6000821315611582578c73ffffffffffffffffffffffffffffffffffffffff166343959bb93330856040518463ffffffff1660e01b815260040161154f93929190612bf6565b600060405180830381600087803b15801561156957600080fd5b505af115801561157d573d6000803e3d6000fd5b505050505b60008113156115fb578c73ffffffffffffffffffffffffffffffffffffffff166388beac0c3330846040518463ffffffff1660e01b81526004016115c893929190612bf6565b600060405180830381600087803b1580156115e257600080fd5b505af11580156115f6573d6000803e3d6000fd5b505050505b5b8b73ffffffffffffffffffffffffffffffffffffffff16846020015173ffffffffffffffffffffffffffffffffffffffff16146116bb576000846080015111156116b657836020015173ffffffffffffffffffffffffffffffffffffffff1663fc2807f13386608001516040518363ffffffff1660e01b8152600401611683929190612c72565b600060405180830381600087803b15801561169d57600080fd5b505af11580156116b1573d6000803e3d6000fd5b505050505b61174c565b888460800151111561174b576116d78c8a866080015103611fd0565b8b73ffffffffffffffffffffffffffffffffffffffff1663fc2807f1338b8760800151036040518363ffffffff1660e01b8152600401611718929190612c72565b600060405180830381600087803b15801561173257600080fd5b505af1158015611746573d6000803e3d6000fd5b505050505b5b7f7fffffffffffffffffffffffffffffffffffffffffffffffffffffffffffffff8b111561177957600080fd5b7f7fffffffffffffffffffffffffffffffffffffffffffffffffffffffffffffff846040015111156117aa57600080fd5b60008f905060008e90508e73ffffffffffffffffffffffffffffffffffffffff16866000015173ffffffffffffffffffffffffffffffffffffffff1614806118225750600073ffffffffffffffffffffffffffffffffffffffff16866000015173ffffffffffffffffffffffffffffffffffffffff16145b156118f657600061184087604001518f61225a90919063ffffffff16565b9050600061185b88606001518f61225a90919063ffffffff16565b905060008373ffffffffffffffffffffffffffffffffffffffff1663ac210cc76040518163ffffffff1660e01b815260040160206040518083038186803b1580156118a557600080fd5b505afa1580156118b9573d6000803e3d6000fd5b505050506040513d601f19601f820116820180604052508101906118dd91906127d4565b90506118ee60008686848787611f55565b505050611a8a565b60008d905060008d90506000600260008573ffffffffffffffffffffffffffffffffffffffff1673ffffffffffffffffffffffffffffffffffffffff16815260200190815260200160002060009054906101000a900473ffffffffffffffffffffffffffffffffffffffff16905061197360008686848787611f55565b600073ffffffffffffffffffffffffffffffffffffffff16896000015173ffffffffffffffffffffffffffffffffffffffff1614611a8657886040015160000392506119ec7fffffffffffffffffffffffffffffffffffffffffffffffffffffffffffffffff8a606001516120ec90919063ffffffff16565b9150886000015173ffffffffffffffffffffffffffffffffffffffff1663ac210cc76040518163ffffffff1660e01b815260040160206040518083038186803b158015611a3857600080fd5b505afa158015611a4c573d6000803e3d6000fd5b505050506040513d601f19601f82011682018060405250810190611a7091906127d4565b9050611a856000868b60000151848787611f55565b5b5050505b5050505050505050505050505050505050565b6000809054906101000a900473ffffffffffffffffffffffffffffffffffffffff1681565b6000809054906101000a900473ffffffffffffffffffffffffffffffffffffffff1673ffffffffffffffffffffffffffffffffffffffff163373ffffffffffffffffffffffffffffffffffffffff1614611b51576040517f08c379a0000000000000000000000000000000000000000000000000000000008152600401611b4890612eb4565b60405180910390fd5b600073ffffffffffffffffffffffffffffffffffffffff168173ffffffffffffffffffffffffffffffffffffffff1614611bc657806000806101000a81548173ffffffffffffffffffffffffffffffffffffffff021916908373ffffffffffffffffffffffffffffffffffffffff1602179055505b50565b612710841015611bd857600080fd5b68010000000000000000600f0b82600f0b1315611bf457600080fd5b68010000000000000000600f0b83600f0b1480611c3c575080611c285768010000000000000000600f0b83600f0b12611c3b565b68010000000000000000600f0b83600f0b135b5b611c4557600080fd5b50505050565b600080600260008573ffffffffffffffffffffffffffffffffffffffff1673ffffffffffffffffffffffffffffffffffffffff16815260200190815260200160002060009054906101000a900473ffffffffffffffffffffffffffffffffffffffff169050600073ffffffffffffffffffffffffffffffffffffffff168173ffffffffffffffffffffffffffffffffffffffff161415611cea57600080fd5b8073ffffffffffffffffffffffffffffffffffffffff16630247c79c846040518263ffffffff1660e01b8152600401611d239190612ef4565b60206040518083038186803b158015611d3b57600080fd5b505afa158015611d4f573d6000803e3d6000fd5b505050506040513d601f19601f82011682018060405250810190611d739190612826565b91505092915050565b60008273ffffffffffffffffffffffffffffffffffffffff166389d1a0fc6040518163ffffffff1660e01b815260040160206040518083038186803b158015611dc457600080fd5b505afa158015611dd8573d6000803e3d6000fd5b505050506040513d601f19601f82011682018060405250810190611dfc91906125d8565b90506000611e5283600360008573ffffffffffffffffffffffffffffffffffffffff1673ffffffffffffffffffffffffffffffffffffffff1681526020019081526020016000205461234a90919063ffffffff16565b905080601060009054906101000a900473ffffffffffffffffffffffffffffffffffffffff1673ffffffffffffffffffffffffffffffffffffffff166372e3ea34846040518263ffffffff1660e01b8152600401611eb09190612b63565b60206040518083038186803b158015611ec857600080fd5b505afa158015611edc573d6000803e3d6000fd5b505050506040513d601f19601f82011682018060405250810190611f009190612826565b1015611f0b57600080fd5b80600360008473ffffffffffffffffffffffffffffffffffffffff1673ffffffffffffffffffffffffffffffffffffffff1681526020019081526020016000208190555050505050565b8273ffffffffffffffffffffffffffffffffffffffff16637c9dd78987878786866040518663ffffffff1660e01b8152600401611f96959493929190612d32565b600060405180830381600087803b158015611fb057600080fd5b505af1158015611fc4573d6000803e3d6000fd5b50505050505050505050565b60008273ffffffffffffffffffffffffffffffffffffffff166389d1a0fc6040518163ffffffff1660e01b815260040160206040518083038186803b15801561201857600080fd5b505afa15801561202c573d6000803e3d6000fd5b505050506040513d601f19601f8201168201806040525081019061205091906125d8565b90506120a482600360008473ffffffffffffffffffffffffffffffffffffffff1673ffffffffffffffffffffffffffffffffffffffff1681526020019081526020016000205461239f90919063ffffffff16565b600360008373ffffffffffffffffffffffffffffffffffffffff1673ffffffffffffffffffffffffffffffffffffffff16815260200190815260200160002081905550505050565b6000808314156120ff57600090506121e4565b7fffffffffffffffffffffffffffffffffffffffffffffffffffffffffffffffff8314801561214d57507f800000000000000000000000000000000000000000000000000000000000000082145b1561218d576040517f08c379a000000000000000000000000000000000000000000000000000000000815260040161218490612e94565b60405180910390fd5b600082840290508284828161219e57fe5b05146121df576040517f08c379a00000000000000000000000000000000000000000000000000000000081526004016121d690612e94565b60405180910390fd5b809150505b92915050565b6000808314156121fd5760009050612254565b600082840290508284828161220e57fe5b041461224f576040517f08c379a000000000000000000000000000000000000000000000000000000000815260040161224690612e74565b60405180910390fd5b809150505b92915050565b6000808284039050600083121580156122735750838113155b80612289575060008312801561228857508381135b5b6122c8576040517f08c379a00000000000000000000000000000000000000000000000000000000081526004016122bf90612ed4565b60405180910390fd5b8091505092915050565b6000808284019050600083121580156122eb5750838112155b80612301575060008312801561230057508381125b5b612340576040517f08c379a000000000000000000000000000000000000000000000000000000000815260040161233790612e54565b60405180910390fd5b8091505092915050565b600080828401905083811015612395576040517f08c379a000000000000000000000000000000000000000000000000000000000815260040161238c90612e34565b60405180910390fd5b8091505092915050565b60006123e183836040518060400160405280601e81526020017f536166654d6174683a207375627472616374696f6e206f766572666c6f7700008152506123e9565b905092915050565b6000838311158290612431576040517f08c379a00000000000000000000000000000000000000000000000000000000081526004016124289190612e12565b60405180910390fd5b5060008385039050809150509392505050565b6040518060a00160405280600073ffffffffffffffffffffffffffffffffffffffff168152602001600073ffffffffffffffffffffffffffffffffffffffff1681526020016000815260200160008152602001600081525090565b6000813590506124ae81613036565b92915050565b6000815190506124c381613036565b92915050565b6000819050826020600302820111156124e157600080fd5b92915050565b6000815190506124f68161304d565b92915050565b60008083601f84011261250e57600080fd5b8235905067ffffffffffffffff81111561252757600080fd5b60208301915083600182028301111561253f57600080fd5b9250929050565b60008151905061255581613064565b92915050565b60008135905061256a8161307b565b92915050565b60008135905061257f81613092565b92915050565b600081359050612594816130a9565b92915050565b6000815190506125a9816130a9565b92915050565b6000602082840312156125c157600080fd5b60006125cf8482850161249f565b91505092915050565b6000602082840312156125ea57600080fd5b60006125f8848285016124b4565b91505092915050565b600080600080600080600080610100898b03121561261e57600080fd5b600061262c8b828c0161249f565b985050602061263d8b828c0161249f565b975050604061264e8b828c01612585565b965050606061265f8b828c01612570565b95505060806126708b828c01612585565b94505060a06126818b828c01612585565b93505060c06126928b828c0161255b565b92505060e06126a38b828c0161255b565b9150509295985092959890939650565b60008060008060008060008060008060006101808c8e0312156126d557600080fd5b60006126e38e828f0161249f565b9b505060206126f48e828f01612585565b9a505060406127058e828f0161249f565b99505060606127168e828f0161249f565b98505060806127278e828f01612585565b97505060a06127388e828f01612570565b96505060c06127498e828f01612585565b95505060e061275a8e828f016124c9565b9450506101408c013567ffffffffffffffff81111561277857600080fd5b6127848e828f016124fc565b93509350506101606127988e828f0161249f565b9150509295989b509295989b9093969950565b6000602082840312156127bd57600080fd5b60006127cb848285016124e7565b91505092915050565b6000602082840312156127e657600080fd5b60006127f484828501612546565b91505092915050565b60006020828403121561280f57600080fd5b600061281d8482850161255b565b91505092915050565b60006020828403121561283857600080fd5b60006128468482850161259a565b91505092915050565b6000806040838503121561286257600080fd5b600061287085828601612585565b92505060206128818582860161249f565b9150509250929050565b61289481612fad565b82525050565b6128a381612f3c565b82525050565b6128b281612f4e565b82525050565b60006128c48385612f1a565b93506128d1838584612fe3565b6128da83613025565b840190509392505050565b6128ee81612f6c565b82525050565b6128fd81612f79565b82525050565b600061290e82612f0f565b6129188185612f2b565b9350612928818560208601612ff2565b61293181613025565b840191505092915050565b6000612949601b83612f2b565b91507f536166654d6174683a206164646974696f6e206f766572666c6f7700000000006000830152602082019050919050565b6000612989602183612f2b565b91507f5369676e6564536166654d6174683a206164646974696f6e206f766572666c6f60008301527f77000000000000000000000000000000000000000000000000000000000000006020830152604082019050919050565b60006129ef602183612f2b565b91507f536166654d6174683a206d756c7469706c69636174696f6e206f766572666c6f60008301527f77000000000000000000000000000000000000000000000000000000000000006020830152604082019050919050565b6000612a55602783612f2b565b91507f5369676e6564536166654d6174683a206d756c7469706c69636174696f6e206f60008301527f766572666c6f77000000000000000000000000000000000000000000000000006020830152604082019050919050565b6000612abb600a83612f2b565b91507f6f6e6c79206f776e6572000000000000000000000000000000000000000000006000830152602082019050919050565b6000612afb602483612f2b565b91507f5369676e6564536166654d6174683a207375627472616374696f6e206f76657260008301527f666c6f77000000000000000000000000000000000000000000000000000000006020830152604082019050919050565b612b5d81612fa3565b82525050565b6000602082019050612b78600083018461289a565b92915050565b600060e082019050612b93600083018b61288b565b612ba0602083018a61289a565b612bad604083018961289a565b612bba6060830188612b54565b612bc760808301876128f4565b612bd460a0830186612b54565b81810360c0830152612be78184866128b8565b90509998505050505050505050565b6000606082019050612c0b600083018661288b565b612c18602083018561289a565b612c256040830184612b54565b949350505050565b6000608082019050612c42600083018761288b565b612c4f602083018661289a565b612c5c6040830185612b54565b612c6960608301846128f4565b95945050505050565b6000604082019050612c87600083018561288b565b612c946020830184612b54565b9392505050565b6000606082019050612cb0600083018661289a565b612cbd602083018561288b565b612cca6040830184612b54565b949350505050565b6000604082019050612ce7600083018561289a565b612cf46020830184612b54565b9392505050565b6000606082019050612d10600083018661289a565b612d1d6020830185612b54565b612d2a60408301846128f4565b949350505050565b600060a082019050612d4760008301886128a9565b612d54602083018761289a565b612d61604083018661289a565b612d6e60608301856128f4565b612d7b60808301846128f4565b9695505050505050565b600061012082019050612d9b600083018c6128a9565b612da8602083018b61289a565b612db5604083018a61289a565b612dc26060830189612b54565b612dcf60808301886128f4565b612ddc60a0830187612b54565b612de960c0830186612b54565b612df660e08301856128e5565b612e046101008301846128e5565b9a9950505050505050505050565b60006020820190508181036000830152612e2c8184612903565b905092915050565b60006020820190508181036000830152612e4d8161293c565b9050919050565b60006020820190508181036000830152612e6d8161297c565b9050919050565b60006020820190508181036000830152612e8d816129e2565b9050919050565b60006020820190508181036000830152612ead81612a48565b9050919050565b60006020820190508181036000830152612ecd81612aae565b9050919050565b60006020820190508181036000830152612eed81612aee565b9050919050565b6000602082019050612f096000830184612b54565b92915050565b600081519050919050565b600082825260208201905092915050565b600082825260208201905092915050565b6000612f4782612f83565b9050919050565b60008115159050919050565b6000612f6582612f3c565b9050919050565b600081600f0b9050919050565b6000819050919050565b600073ffffffffffffffffffffffffffffffffffffffff82169050919050565b6000819050919050565b6000612fb882612fbf565b9050919050565b6000612fca82612fd1565b9050919050565b6000612fdc82612f83565b9050919050565b82818337600083830152505050565b60005b83811015613010578082015181840152602081019050612ff5565b8381111561301f576000848401525b50505050565b6000601f19601f8301169050919050565b61303f81612f3c565b811461304a57600080fd5b50565b61305681612f4e565b811461306157600080fd5b50565b61306d81612f5a565b811461307857600080fd5b50565b61308481612f6c565b811461308f57600080fd5b50565b61309b81612f79565b81146130a657600080fd5b50565b6130b281612fa3565b81146130bd57600080fd5b5056fea26469706673582212207be6a485ee1ec109b8f217b39cc58c1aad8bded30b20fe9243cb6f1d7a25427764736f6c63430006080033",
  "immutableReferences": {},
  "source": "// SPDX-License-Identifier: MIT\npragma experimental ABIEncoderV2;\npragma solidity >=0.6.8 <0.7.0;\n\nimport \"../../libraries/SafeMath.sol\";\nimport \"../../libraries/SignedSafeMath.sol\";\nimport \"../../interfaces/IYTVaultManagerFlashReceiver.sol\";\nimport \"../../interfaces/IFixCapitalPool.sol\";\nimport \"../../interfaces/IVaultHealth.sol\";\nimport \"../../interfaces/IWrapper.sol\";\nimport \"../../interfaces/IERC20.sol\";\nimport \"../../helpers/Ownable.sol\";\nimport \"./NSFVaultFactoryDelegateParent.sol\";\n\ncontract NSFVaultFactoryDelegate3 is NSFVaultFactoryDelegateParent {\n\tusing SafeMath for uint;\n\tusing SignedSafeMath for int;\n\n\t/*\n\t\t@Description: create a new YT vault, deposit some ZCB + YT of a FCP and borrow some ZCB from it\n\n\t\t@param address _FCPsupplied: the address of the FCP contract for which to supply ZCB and YT\n\t\t@param address _FCPborrowed: the FCP that corresponds to the ZCB that is borrowed from the new YTVault\n\t\t@param uint _yieldSupplied: the amount from the balanceYield mapping in the supplied FCP contract\n\t\t\tthat is to be supplied to the new YTVault\n\t\t@param int _bondSupplied: the amount from the balanceBonds mapping in the supplied FCP contract\n\t\t\tthat is to be supplied to the new YTVault\n\t\t@param uint _amountBorrowed: the amount of ZCB from _FCPborrowed to borrow\n\t\t@param uint _priceMultiplier: a multiplier > 1\n\t\t\twe ensure the vault will not be sent into the liquidation zone if the cross asset price\n\t\t\tof _assetBorrowed to _assetSupplied increases by a factor of _priceMultiplier\n\t\t\t(in terms of basis points)\n\t\t@param int128 _suppliedRateChange: a multiplier > 1 if _positiveBondSupplied otherwise < 1\n\t\t\twe ensure the vault will not be sent into the liquidation zone if the rate on the supplied\n\t\t\tasset increases by a factor of _suppliedRateChange\n\t\t\t(in ABDK format)\n\t\t@param int128 _borrowRateChange: a multiplier < 1\n\t\t\twe ensure the vault will not be sent into the liquidation zone if the rate on the borrow\n\t\t\tasset decreases by a factor of _borrowRateChange\n\t\t\t(in ABDK format)\n\t*/\n\tfunction openYTVault(\n\t\taddress _FCPsupplied,\n\t\taddress _FCPborrowed,\n\t\tuint _yieldSupplied,\n\t\tint _bondSupplied,\n\t\tuint _amountBorrowed,\n\t\tuint _priceMultiplier,\n\t\tint128 _suppliedRateChange,\n\t\tint128 _borrowRateChange\n\t) external {\n\t\trequire(_yieldSupplied >= MIN_YIELD_SUPPLIED && _yieldSupplied <= uint(type(int256).max));\n\t\tvalidateYTvaultMultipliers(_priceMultiplier, _suppliedRateChange, _borrowRateChange, _bondSupplied > 0);\n\t\taddress baseWrapperSupplied = _fixCapitalPoolToWrapper[_FCPsupplied];\n\t\trequire(baseWrapperSupplied != address(0));\n\t\tuint _unitYieldSupplied = getUnitValueYield(_FCPsupplied, _yieldSupplied);\n\n\t\trequire(vaultHealthContract.YTvaultWithstandsChange(\n\t\t\tfalse,\n\t\t\t_FCPsupplied,\n\t\t\t_FCPborrowed,\n\t\t\t_unitYieldSupplied,\n\t\t\t_bondSupplied,\n\t\t\t_amountBorrowed,\n\t\t\t_priceMultiplier,\n\t\t\t_suppliedRateChange,\n\t\t\t_borrowRateChange\n\t\t));\n\n\t\tIFixCapitalPool(_FCPsupplied).transferPositionFrom(msg.sender, address(this), _yieldSupplied, _bondSupplied);\n\t\tIFixCapitalPool(_FCPborrowed).mintZCBTo(msg.sender, _amountBorrowed);\n\t\traiseShortInterest(_FCPborrowed, _amountBorrowed);\n\n\t\teditSubAccountYTVault(false, msg.sender, _FCPsupplied, baseWrapperSupplied, int(_yieldSupplied), _bondSupplied);\n\n\t\t_YTvaults[msg.sender].push(YTVault(_FCPsupplied, _FCPborrowed, _yieldSupplied, _bondSupplied, _amountBorrowed));\n\n\t}\n\n\t/*\n\t\t@Description: fully repay a YT vault and withdraw all collateral\n\n\t\t@param uint _index: the YT vault to close is at YTvaults[msg.sender][_index]\n\t\t@param address _to: the address to which to send all collateral after closing the vault\n\t*/\n\tfunction closeYTVault(uint _index, address _to) external {\n\t\tuint len = _YTvaults[msg.sender].length;\n\t\trequire(_index < len);\n\t\tYTVault memory vault = _YTvaults[msg.sender][_index];\n\n\t\t//burn borrowed ZCB\n\t\tif (vault.amountBorrowed > 0) {\n\t\t\tIFixCapitalPool(vault.FCPborrowed).burnZCBFrom(msg.sender, vault.amountBorrowed);\n\t\t\tlowerShortInterest(vault.FCPborrowed, vault.amountBorrowed);\n\t\t}\n\t\tif (vault.yieldSupplied > 0 || vault.bondSupplied != 0) {\n\t\t\trequire(vault.yieldSupplied <= uint(type(int256).max));\n\t\t\t//we already know the vault would pass the check so no need to check\n\t\t\tIFixCapitalPool(vault.FCPsupplied).transferPosition(_to, vault.yieldSupplied, vault.bondSupplied);\n\t\t\taddress baseWrapperSupplied = address(IFixCapitalPool(vault.FCPsupplied).wrapper());\n\t\t\teditSubAccountYTVault(false, msg.sender, vault.FCPsupplied, baseWrapperSupplied, -int(vault.yieldSupplied), vault.bondSupplied.mul(-1));\n\t\t}\n\n\t\tdelete _YTvaults[msg.sender][_index];\n\t}\n\n\t/*\n\t\t@Description: adjust the state of a YT vault by either changing the assets in it\n\t\t\tor paying down/increasing debt or supplying/withdrawing collateral\n\t\t\tfor any call where funds would be transfered out of the vault msg.sender must be the vault owner\n\t\t\tif the _data param has length > 0, assets sent out by the vault will be sent via flashloan\n\t\t\tand repayment must be made in the required collateral assets \n\n\t\t@param address _owner: the owner of the YT vault to adjust\n\t\t@param uint _index: the index of the YT vault in YTvaults[_owner]\n\t\t@param address _FCPsupplied: the new FCP (may be the same as previous) corresponding to the vault's\n\t\t\tZCB & YT collateral\n\t\t@param address _FCPborrowed: the new FCP (may be the same as previous) corresponding to the ZCB\n\t\t\tthat is to be borrowed from the vault\n\t\t@param uint _yieldSupplied: the amount from the balanceYield mapping in the supplied FCP contract\n\t\t\tthat will be supplied as collateral to the YTVault after execution\n\t\t@param int _bondSupplied: the amount from the balanceBonds mapping in the supplied FCP contract\n\t\t\tthat will be supplied as collateral to the YTVault after execution\n\t\t@param uint _amountBorrowed: the total amount of debt of the vault after execution\n\t\t@param int128[3] calldata _multipliers: the 3 multipliers used on call to\n\t\t\tvaultHealthContract.vaultWithstandsChange\n\t\t\t\tuint(_multipliers[0]) is priceMultiplier\n\t\t\t\t_multipliers[1] is suppliedRateMultiplier\n\t\t\t\t_multipliers[2] is borrowedRateMultiplier\n\t\t@param bytes calldata _data: data to be send to the flashloan receiver if a flashloan is to be done\n\t\t\tif _data.length == 0 there will be no flashloan\n\t\t@param  address _receiverAddr: the address of the flashloan receiver contract\n\t*/\n\tfunction adjustYTVault(\n\t\taddress _owner,\n\t\tuint _index,\n\t\taddress _FCPsupplied,\n\t\taddress _FCPborrowed,\n\t\tuint _yieldSupplied,\n\t\tint _bondSupplied,\n\t\tuint _amountBorrowed,\n\t\tint128[3] calldata _multipliers,\n\t\tbytes calldata _data,\n\t\taddress _receiverAddr\n\t) external {\n\t\trequire(_index < _YTvaults[_owner].length);\n\n\t\tYTVault memory mVault = _YTvaults[_owner][_index];\n\t\tYTVault storage sVault = _YTvaults[_owner][_index];\n\n\t\t//ensure that after operations vault will be in good health\n\t\t//only check health if at any point funds are being removed from the vault\n\t\tif (\n\t\t\t_FCPborrowed != mVault.FCPborrowed ||\n\t\t\t_FCPsupplied != mVault.FCPsupplied ||\n\t\t\t_yieldSupplied < mVault.yieldSupplied ||\n\t\t\t_amountBorrowed > mVault.amountBorrowed ||\n\t\t\t(_yieldSupplied == mVault.yieldSupplied && _bondSupplied < mVault.bondSupplied)\n\t\t) {\n\t\t\t//index 0 in multipliers that must be converted to uint\n\t\t\trequire(_multipliers[0] > 0);\n\t\t\trequire(msg.sender == _owner);\n\t\t\trequire(vaultHealthContract.YTvaultWithstandsChange(\n\t\t\t\tfalse,\n\t\t\t\t_FCPsupplied,\n\t\t\t\t_FCPborrowed,\n\t\t\t\t_yieldSupplied,\n\t\t\t\t_bondSupplied,\n\t\t\t\t_amountBorrowed,\n\t\t\t\tuint(_multipliers[0]),\n\t\t\t\t_multipliers[1],\n\t\t\t\t_multipliers[2]\n\t\t\t));\n\t\t}\n\n\t\t//------------------distribute funds----------------------\n\t\tint changeYTsupplied;\n\t\tint changeZCBsupplied;\n\t\tif (mVault.FCPsupplied != _FCPsupplied) {\n\t\t\tif (mVault.FCPsupplied != address(0)) {\n\t\t\t\tIFixCapitalPool(mVault.FCPsupplied).transferPosition(_receiverAddr, mVault.yieldSupplied, mVault.bondSupplied);\n\t\t\t}\n\t\t\tsVault.FCPsupplied = _FCPsupplied;\n\t\t\tsVault.yieldSupplied = _yieldSupplied;\n\t\t\tsVault.bondSupplied = _bondSupplied;\n\t\t}\n\t\telse if (mVault.yieldSupplied != _yieldSupplied || mVault.bondSupplied != _bondSupplied) {\n\t\t\tuint conversionRate = IFixCapitalPool(_FCPsupplied).currentConversionRate();\n\t\t\trequire(_bondSupplied >= 0 || _yieldSupplied.mul(conversionRate) / (1 ether) >= uint(-_bondSupplied));\n\t\t\t//write change in YT & ZCB into yield supplied & bond supplied respectively on mVault to save stack space\n\t\t\tchangeYTsupplied = int(_yieldSupplied).sub(int(mVault.yieldSupplied));\n\t\t\tchangeZCBsupplied = _bondSupplied.sub(mVault.bondSupplied).add(changeYTsupplied.mul(int(conversionRate)) / (1 ether));\n\t\t\tif (changeYTsupplied < 0) {\n\t\t\t\tIFixCapitalPool(_FCPsupplied).transferYT(address(this), msg.sender, uint(-changeYTsupplied));\n\t\t\t\tchangeZCBsupplied++; //offset rounding error when updating bond balance amounts\n\t\t\t}\n\t\t\tif (changeZCBsupplied < 0) {\n\t\t\t\tIFixCapitalPool(_FCPsupplied).transferZCB(address(this), msg.sender, uint(-changeZCBsupplied));\n\t\t\t}\n\t\t\tif (mVault.yieldSupplied != _yieldSupplied) {\n\t\t\t\tsVault.yieldSupplied = _yieldSupplied;\n\t\t\t}\n\t\t\tif (mVault.bondSupplied != _bondSupplied) {\n\t\t\t\tsVault.bondSupplied = _bondSupplied;\n\t\t\t}\n\t\t}\n\n\t\tif (mVault.FCPborrowed != _FCPborrowed) {\n\t\t\tif (_FCPborrowed != address(0)) {\n\t\t\t\traiseShortInterest(_FCPborrowed, _amountBorrowed);\n\t\t\t}\n\t\t\tif (mVault.FCPborrowed != address(0)) {\n\t\t\t\tlowerShortInterest(mVault.FCPborrowed, mVault.amountBorrowed);\n\t\t\t}\n\t\t\tIFixCapitalPool(_FCPborrowed).mintZCBTo(_receiverAddr, _amountBorrowed);\n\t\t\tsVault.FCPborrowed = _FCPborrowed;\n\t\t\tsVault.amountBorrowed = _amountBorrowed;\n\t\t}\n\t\telse if (mVault.amountBorrowed < _amountBorrowed) {\n\t\t\tIFixCapitalPool(_FCPborrowed).mintZCBTo(_receiverAddr, _amountBorrowed - mVault.amountBorrowed);\n\t\t\traiseShortInterest(_FCPborrowed, _amountBorrowed - mVault.amountBorrowed);\n\t\t\tsVault.amountBorrowed = _amountBorrowed;\n\t\t}\n\t\telse if (mVault.amountBorrowed > _amountBorrowed) {\n\t\t\tsVault.amountBorrowed = _amountBorrowed;\n\t\t}\n\n\t\t//-----------------------------flashloan------------------\n\t\tif (_data.length > 0) {\n\t\t\tIYTVaultManagerFlashReceiver(_receiverAddr).onFlashLoan(\n\t\t\t\tmsg.sender,\n\t\t\t\tmVault.FCPsupplied,\n\t\t\t\tmVault.FCPborrowed,\n\t\t\t\tmVault.yieldSupplied,\n\t\t\t\tmVault.bondSupplied,\n\t\t\t\tmVault.amountBorrowed,\n\t\t\t\t_data\n\t\t\t);\n\t\t}\n\n\t\t//-----------------------------get funds-------------------------\n\t\tif (mVault.FCPsupplied != _FCPsupplied) {\n\t\t\tIFixCapitalPool(_FCPsupplied).transferPositionFrom(msg.sender, address(this), _yieldSupplied, _bondSupplied);\n\t\t}\n\t\telse {\n\t\t\tif (changeYTsupplied > 0) {\n\t\t\t\tIFixCapitalPool(_FCPsupplied).transferYT(msg.sender, address(this), uint(changeYTsupplied));\n\t\t\t}\n\t\t\tif (changeZCBsupplied > 0) {\n\t\t\t\tIFixCapitalPool(_FCPsupplied).transferZCB(msg.sender, address(this), uint(changeZCBsupplied));\n\t\t\t}\n\t\t}\n\n\t\tif (mVault.FCPborrowed != _FCPborrowed) {\n\t\t\tif (mVault.amountBorrowed > 0) {\n\t\t\t\tIFixCapitalPool(mVault.FCPborrowed).burnZCBFrom(msg.sender, mVault.amountBorrowed);\n\t\t\t}\n\t\t}\n\t\telse if (mVault.amountBorrowed > _amountBorrowed) {\n\t\t\tlowerShortInterest(_FCPborrowed, mVault.amountBorrowed - _amountBorrowed);\n\t\t\tIFixCapitalPool(_FCPborrowed).burnZCBFrom(msg.sender,  mVault.amountBorrowed - _amountBorrowed);\n\t\t}\n\n\t\trequire(_yieldSupplied <= uint(type(int256).max));\n\t\trequire(mVault.yieldSupplied <= uint(type(int256).max));\n\t\taddress copyVaultOwner = _owner; //prevent stack too deep\n\t\taddress copyFCPsupplied = _FCPsupplied; //prevent stack too deep\n\t\tif (mVault.FCPsupplied == _FCPsupplied || mVault.FCPsupplied == address(0)) {\n\t\t\tint yieldChange = int(_yieldSupplied).sub(int(mVault.yieldSupplied));\n\t\t\tint bondChange = _bondSupplied.sub(mVault.bondSupplied);\n\t\t\taddress baseWrapperSupplied = address(IFixCapitalPool(copyFCPsupplied).wrapper());\n\t\t\teditSubAccountYTVault(false, copyVaultOwner, copyFCPsupplied, baseWrapperSupplied, yieldChange, bondChange);\n\t\t}\n\t\telse {\n\t\t\tint yieldChange = int(_yieldSupplied);\n\t\t\tint bondChange = _bondSupplied;\n\t\t\taddress baseWrapperSupplied = _fixCapitalPoolToWrapper[copyFCPsupplied];\n\t\t\teditSubAccountYTVault(false, copyVaultOwner, copyFCPsupplied, baseWrapperSupplied, yieldChange, bondChange);\n\t\t\tif (mVault.FCPsupplied != address(0)) {\n\t\t\t\tyieldChange = -int(mVault.yieldSupplied);\n\t\t\t\tbondChange = mVault.bondSupplied.mul(-1);\n\t\t\t\tbaseWrapperSupplied = address(IFixCapitalPool(mVault.FCPsupplied).wrapper());\n\t\t\t\teditSubAccountYTVault(false, copyVaultOwner, mVault.FCPsupplied, baseWrapperSupplied, yieldChange, bondChange);\n\t\t\t}\n\t\t}\n\t}\n}\n",
  "sourcePath": "/home/asher/FixFinanceV1/contracts/VaultFactory/NoStabilityFee/NSFVaultFactoryDelegate3.sol",
  "compiler": {
    "name": "solc",
    "version": "0.6.8+commit.0bbfe453.Emscripten.clang"
  },
  "schemaVersion": "3.4.1",
  "updatedAt": "2021-11-26T19:15:55.501Z",
  "devdoc": {
    "methods": {}
  },
  "userdoc": {
    "methods": {}
  }
}