{
  "contractName": "NSFVaultFactoryDelegate1",
  "abi": [
    {
      "inputs": [],
      "name": "owner",
      "outputs": [
        {
          "internalType": "address",
          "name": "",
          "type": "address"
        }
      ],
      "stateMutability": "view",
      "type": "function"
    },
    {
      "inputs": [
        {
          "internalType": "address",
          "name": "newOwner",
          "type": "address"
        }
      ],
      "name": "transferOwnership",
      "outputs": [],
      "stateMutability": "nonpayable",
      "type": "function"
    },
    {
      "inputs": [
        {
          "internalType": "address",
          "name": "_assetSupplied",
          "type": "address"
        },
        {
          "internalType": "address",
          "name": "_assetBorrowed",
          "type": "address"
        },
        {
          "internalType": "uint256",
          "name": "_amountSupplied",
          "type": "uint256"
        },
        {
          "internalType": "uint256",
          "name": "_amountBorrowed",
          "type": "uint256"
        },
        {
          "internalType": "uint256",
          "name": "_priceMultiplier",
          "type": "uint256"
        },
        {
          "internalType": "int128",
          "name": "_suppliedRateChange",
          "type": "int128"
        },
        {
          "internalType": "int128",
          "name": "_borrowRateChange",
          "type": "int128"
        }
      ],
      "name": "openVault",
      "outputs": [],
      "stateMutability": "nonpayable",
      "type": "function"
    },
    {
      "inputs": [
        {
          "internalType": "uint256",
          "name": "_index",
          "type": "uint256"
        },
        {
          "internalType": "address",
          "name": "_to",
          "type": "address"
        }
      ],
      "name": "closeVault",
      "outputs": [],
      "stateMutability": "nonpayable",
      "type": "function"
    },
    {
      "inputs": [
        {
          "internalType": "address",
          "name": "_owner",
          "type": "address"
        },
        {
          "internalType": "uint256",
          "name": "_index",
          "type": "uint256"
        },
        {
          "internalType": "address",
          "name": "_assetSupplied",
          "type": "address"
        },
        {
          "internalType": "address",
          "name": "_assetBorrowed",
          "type": "address"
        },
        {
          "internalType": "uint256",
          "name": "_amountSupplied",
          "type": "uint256"
        },
        {
          "internalType": "uint256",
          "name": "_amountBorrowed",
          "type": "uint256"
        },
        {
          "internalType": "int128[3]",
          "name": "_multipliers",
          "type": "int128[3]"
        },
        {
          "internalType": "bytes",
          "name": "_data",
          "type": "bytes"
        },
        {
          "internalType": "address",
          "name": "_receiverAddr",
          "type": "address"
        }
      ],
      "name": "adjustVault",
      "outputs": [],
      "stateMutability": "nonpayable",
      "type": "function"
    }
  ],
  "bytecode": "0x608060405234801561001057600080fd5b50336000806101000a81548173ffffffffffffffffffffffffffffffffffffffff021916908373ffffffffffffffffffffffffffffffffffffffff160217905550613209806100606000396000f3fe608060405234801561001057600080fd5b50600436106100575760003560e01c80630491e1211461005c5780635974609b146100785780638da5cb5b146100945780639cd16198146100b2578063f2fde38b146100ce575b600080fd5b610076600480360381019061007191906127ce565b6100ea565b005b610092600480360381019061008d919061286c565b61054f565b005b61009c611388565b6040516100a99190612d1c565b60405180910390f35b6100cc60048036038101906100c791906129cb565b6113ad565b005b6100e860048036038101906100e3919061277c565b6117a4565b005b8573ffffffffffffffffffffffffffffffffffffffff168773ffffffffffffffffffffffffffffffffffffffff161415801561014657507f7fffffffffffffffffffffffffffffffffffffffffffffffffffffffffffffff8511155b61014f57600080fd5b600073ffffffffffffffffffffffffffffffffffffffff16600260008973ffffffffffffffffffffffffffffffffffffffff1673ffffffffffffffffffffffffffffffffffffffff16815260200190815260200160002060009054906101000a900473ffffffffffffffffffffffffffffffffffffffff1673ffffffffffffffffffffffffffffffffffffffff161415806102765750600073ffffffffffffffffffffffffffffffffffffffff16600160008973ffffffffffffffffffffffffffffffffffffffff1673ffffffffffffffffffffffffffffffffffffffff16815260200190815260200160002060009054906101000a900473ffffffffffffffffffffffffffffffffffffffff1673ffffffffffffffffffffffffffffffffffffffff1614155b61027f57600080fd5b6102ac3330878a73ffffffffffffffffffffffffffffffffffffffff166118ab909392919063ffffffff16565b60008673ffffffffffffffffffffffffffffffffffffffff166362af375b6040518163ffffffff1660e01b815260040160206040518083038186803b1580156102f457600080fd5b505afa158015610308573d6000803e3d6000fd5b505050506040513d601f19601f8201168201806040525081019061032c91906127a5565b90508073ffffffffffffffffffffffffffffffffffffffff1663af0b460633876040518363ffffffff1660e01b8152600401610369929190612d9f565b600060405180830381600087803b15801561038357600080fd5b505af1158015610397573d6000803e3d6000fd5b505050506103a58186611934565b6103ad612642565b60405180608001604052808a73ffffffffffffffffffffffffffffffffffffffff1681526020018973ffffffffffffffffffffffffffffffffffffffff16815260200188815260200187815250905060008060008061040e858a8a8a611b0d565b93509350935093508361042057600080fd5b6104336000338585858a60400151611c69565b50505050600a60003373ffffffffffffffffffffffffffffffffffffffff1673ffffffffffffffffffffffffffffffffffffffff16815260200190815260200160002081908060018154018082558091505060019003906000526020600020906004020160009091909190915060008201518160000160006101000a81548173ffffffffffffffffffffffffffffffffffffffff021916908373ffffffffffffffffffffffffffffffffffffffff16021790555060208201518160010160006101000a81548173ffffffffffffffffffffffffffffffffffffffff021916908373ffffffffffffffffffffffffffffffffffffffff16021790555060408201518160020155606082015181600301555050505050505050505050565b600a60008b73ffffffffffffffffffffffffffffffffffffffff1673ffffffffffffffffffffffffffffffffffffffff16815260200190815260200160002080549050891061059d57600080fd5b6105a5612642565b600a60008c73ffffffffffffffffffffffffffffffffffffffff1673ffffffffffffffffffffffffffffffffffffffff1681526020019081526020016000208a815481106105ef57fe5b90600052602060002090600402016040518060800160405290816000820160009054906101000a900473ffffffffffffffffffffffffffffffffffffffff1673ffffffffffffffffffffffffffffffffffffffff1673ffffffffffffffffffffffffffffffffffffffff1681526020016001820160009054906101000a900473ffffffffffffffffffffffffffffffffffffffff1673ffffffffffffffffffffffffffffffffffffffff1673ffffffffffffffffffffffffffffffffffffffff1681526020016002820154815260200160038201548152505090506000600a60008d73ffffffffffffffffffffffffffffffffffffffff1673ffffffffffffffffffffffffffffffffffffffff1681526020019081526020016000208b8154811061071657fe5b9060005260206000209060040201905061072e612642565b60405180608001604052808c73ffffffffffffffffffffffffffffffffffffffff1681526020018b73ffffffffffffffffffffffffffffffffffffffff1681526020018a815260200189815250905060008d90506000806000866020015173ffffffffffffffffffffffffffffffffffffffff168e73ffffffffffffffffffffffffffffffffffffffff161415806107f65750866000015173ffffffffffffffffffffffffffffffffffffffff168f73ffffffffffffffffffffffffffffffffffffffff1614155b80610804575086604001518d105b80610812575086606001518c115b1561090c5760008b60006003811061082657fe5b6020020160208101906108399190612979565b600f0b1361084657600080fd5b8373ffffffffffffffffffffffffffffffffffffffff163373ffffffffffffffffffffffffffffffffffffffff161461087e57600080fd5b60006108ec868d60006003811061089157fe5b6020020160208101906108a49190612979565b600f0b8e6001600381106108b457fe5b6020020160208101906108c79190612979565b8f6002600381106108d457fe5b6020020160208101906108e79190612979565b611b0d565b809550819650829750839450505050508061090657600080fd5b50610926565b6109158f611d9f565b909192508093508194508295505050505b8e73ffffffffffffffffffffffffffffffffffffffff16876000015173ffffffffffffffffffffffffffffffffffffffff16146109f657600087604001511461099d5761099c888860400151896000015173ffffffffffffffffffffffffffffffffffffffff16611faf9092919063ffffffff16565b5b84600001518660000160006101000a81548173ffffffffffffffffffffffffffffffffffffffff021916908373ffffffffffffffffffffffffffffffffffffffff16021790555084604001518660020181905550610a71565b846040015187604001511115610a5157610a3f888660400151896040015103876000015173ffffffffffffffffffffffffffffffffffffffff16611faf9092919063ffffffff16565b84604001518660020181905550610a70565b846040015187604001511015610a6f57846040015186600201819055505b5b5b6000856020015173ffffffffffffffffffffffffffffffffffffffff16886020015173ffffffffffffffffffffffffffffffffffffffff1614610d1157600073ffffffffffffffffffffffffffffffffffffffff16866020015173ffffffffffffffffffffffffffffffffffffffff1614610bed576000866020015173ffffffffffffffffffffffffffffffffffffffff166362af375b6040518163ffffffff1660e01b815260040160206040518083038186803b158015610b3257600080fd5b505afa158015610b46573d6000803e3d6000fd5b505050506040513d601f19601f82011682018060405250810190610b6a91906127a5565b9050610b7a818860600151611934565b8073ffffffffffffffffffffffffffffffffffffffff1663af0b46068b89606001516040518363ffffffff1660e01b8152600401610bb9929190612dff565b600060405180830381600087803b158015610bd357600080fd5b505af1158015610be7573d6000803e3d6000fd5b50505050505b600073ffffffffffffffffffffffffffffffffffffffff16886020015173ffffffffffffffffffffffffffffffffffffffff1614610cb857876020015173ffffffffffffffffffffffffffffffffffffffff166362af375b6040518163ffffffff1660e01b815260040160206040518083038186803b158015610c6f57600080fd5b505afa158015610c83573d6000803e3d6000fd5b505050506040513d601f19601f82011682018060405250810190610ca791906127a5565b9050610cb7818960600151612035565b5b85602001518760010160006101000a81548173ffffffffffffffffffffffffffffffffffffffff021916908373ffffffffffffffffffffffffffffffffffffffff16021790555085606001518760030181905550610ee6565b856060015188606001511015610e4257856020015173ffffffffffffffffffffffffffffffffffffffff166362af375b6040518163ffffffff1660e01b815260040160206040518083038186803b158015610d6b57600080fd5b505afa158015610d7f573d6000803e3d6000fd5b505050506040513d601f19601f82011682018060405250810190610da391906127a5565b9050610db9818960600151886060015103611934565b8073ffffffffffffffffffffffffffffffffffffffff1663af0b46068a8a606001518960600151036040518363ffffffff1660e01b8152600401610dfe929190612dff565b600060405180830381600087803b158015610e1857600080fd5b505af1158015610e2c573d6000803e3d6000fd5b5050505085606001518760030181905550610ee5565b856060015188606001511115610ee457856020015173ffffffffffffffffffffffffffffffffffffffff166362af375b6040518163ffffffff1660e01b815260040160206040518083038186803b158015610e9c57600080fd5b505afa158015610eb0573d6000803e3d6000fd5b505050506040513d601f19601f82011682018060405250810190610ed491906127a5565b9050856060015187600301819055505b5b5b60008b8b90501115610fe35760608b8b8080601f016020809104026020016040519081016040528093929190818152602001838380828437600081840152601f19601f8201169050808301925050505050505090508973ffffffffffffffffffffffffffffffffffffffff166382ef96af338b600001518c602001518d604001518e60600151876040518763ffffffff1660e01b8152600401610f8e96959493929190612d37565b602060405180830381600087803b158015610fa857600080fd5b505af1158015610fbc573d6000803e3d6000fd5b505050506040513d601f19601f82011682018060405250810190610fe09190612950565b50505b856000015173ffffffffffffffffffffffffffffffffffffffff16886000015173ffffffffffffffffffffffffffffffffffffffff16146111425761105333308860400151896000015173ffffffffffffffffffffffffffffffffffffffff166118ab909392919063ffffffff16565b7f7fffffffffffffffffffffffffffffffffffffffffffffffffffffffffffffff8660400151111561108457600080fd5b7f7fffffffffffffffffffffffffffffffffffffffffffffffffffffffffffffff886040015111156110b557600080fd5b6000866040015190506110cd60008787878786611c69565b600073ffffffffffffffffffffffffffffffffffffffff16896000015173ffffffffffffffffffffffffffffffffffffffff161461113c578860400151600003905061111c8960000151611d9f565b9091925080955081965082975050505061113b60008787878786611c69565b5b50611220565b85604001518860400151101561118e5761118d33308a60400151896040015103896000015173ffffffffffffffffffffffffffffffffffffffff166118ab909392919063ffffffff16565b5b7f7fffffffffffffffffffffffffffffffffffffffffffffffffffffffffffffff866040015111156111bf57600080fd5b7f7fffffffffffffffffffffffffffffffffffffffffffffffffffffffffffffff886040015111156111f057600080fd5b600061120d8960400151886040015161215190919063ffffffff16565b905061121e60008787878786611c69565b505b856020015173ffffffffffffffffffffffffffffffffffffffff16886020015173ffffffffffffffffffffffffffffffffffffffff16146112df576000886060015111156112da578073ffffffffffffffffffffffffffffffffffffffff1663fc2807f1338a606001516040518363ffffffff1660e01b81526004016112a7929190612d9f565b600060405180830381600087803b1580156112c157600080fd5b505af11580156112d5573d6000803e3d6000fd5b505050505b611374565b856060015188606001511115611373576112ff818e8a6060015103612035565b8073ffffffffffffffffffffffffffffffffffffffff1663fc2807f1338f8b60600151036040518363ffffffff1660e01b8152600401611340929190612d9f565b600060405180830381600087803b15801561135a57600080fd5b505af115801561136e573d6000803e3d6000fd5b505050505b5b505050505050505050505050505050505050565b6000809054906101000a900473ffffffffffffffffffffffffffffffffffffffff1681565b6000600a60003373ffffffffffffffffffffffffffffffffffffffff1673ffffffffffffffffffffffffffffffffffffffff16815260200190815260200160002080549050905082811161140057600080fd5b611408612642565b600a60003373ffffffffffffffffffffffffffffffffffffffff1673ffffffffffffffffffffffffffffffffffffffff168152602001908152602001600020848154811061145257fe5b90600052602060002090600402016040518060800160405290816000820160009054906101000a900473ffffffffffffffffffffffffffffffffffffffff1673ffffffffffffffffffffffffffffffffffffffff1673ffffffffffffffffffffffffffffffffffffffff1681526020016001820160009054906101000a900473ffffffffffffffffffffffffffffffffffffffff1673ffffffffffffffffffffffffffffffffffffffff1673ffffffffffffffffffffffffffffffffffffffff168152602001600282015481526020016003820154815250509050600081606001511115611641576000816020015173ffffffffffffffffffffffffffffffffffffffff166362af375b6040518163ffffffff1660e01b815260040160206040518083038186803b15801561158657600080fd5b505afa15801561159a573d6000803e3d6000fd5b505050506040513d601f19601f820116820180604052508101906115be91906127a5565b90508073ffffffffffffffffffffffffffffffffffffffff1663fc2807f13384606001516040518363ffffffff1660e01b81526004016115ff929190612d9f565b600060405180830381600087803b15801561161957600080fd5b505af115801561162d573d6000803e3d6000fd5b5050505061163f818360600151612035565b505b6000816040015111156116e5577f7fffffffffffffffffffffffffffffffffffffffffffffffffffffffffffffff8160400151111561167f57600080fd5b6116b2838260400151836000015173ffffffffffffffffffffffffffffffffffffffff16611faf9092919063ffffffff16565b60008060006116c48460000151611d9f565b935093509350506116e16000338585858960400151600003611c69565b5050505b600a60003373ffffffffffffffffffffffffffffffffffffffff1673ffffffffffffffffffffffffffffffffffffffff168152602001908152602001600020848154811061172f57fe5b9060005260206000209060040201600080820160006101000a81549073ffffffffffffffffffffffffffffffffffffffff02191690556001820160006101000a81549073ffffffffffffffffffffffffffffffffffffffff021916905560028201600090556003820160009055505050505050565b6000809054906101000a900473ffffffffffffffffffffffffffffffffffffffff1673ffffffffffffffffffffffffffffffffffffffff163373ffffffffffffffffffffffffffffffffffffffff1614611833576040517f08c379a000000000000000000000000000000000000000000000000000000000815260040161182a90612fae565b60405180910390fd5b600073ffffffffffffffffffffffffffffffffffffffff168173ffffffffffffffffffffffffffffffffffffffff16146118a857806000806101000a81548173ffffffffffffffffffffffffffffffffffffffff021916908373ffffffffffffffffffffffffffffffffffffffff1602179055505b50565b61192e846323b872dd60e01b8585856040516024016118cc93929190612dc8565b604051602081830303815290604052907bffffffffffffffffffffffffffffffffffffffffffffffffffffffff19166020820180517bffffffffffffffffffffffffffffffffffffffffffffffffffffffff83818316178352505050506121c9565b50505050565b60008273ffffffffffffffffffffffffffffffffffffffff166389d1a0fc6040518163ffffffff1660e01b815260040160206040518083038186803b15801561197c57600080fd5b505afa158015611990573d6000803e3d6000fd5b505050506040513d601f19601f820116820180604052508101906119b491906127a5565b90506000611a0a83600360008573ffffffffffffffffffffffffffffffffffffffff1673ffffffffffffffffffffffffffffffffffffffff1681526020019081526020016000205461229090919063ffffffff16565b905080601060009054906101000a900473ffffffffffffffffffffffffffffffffffffffff1673ffffffffffffffffffffffffffffffffffffffff166372e3ea34846040518263ffffffff1660e01b8152600401611a689190612d1c565b60206040518083038186803b158015611a8057600080fd5b505afa158015611a94573d6000803e3d6000fd5b505050506040513d601f19601f82011682018060405250810190611ab891906129a2565b1015611ac357600080fd5b80600360008473ffffffffffffffffffffffffffffffffffffffff1673ffffffffffffffffffffffffffffffffffffffff1681526020019081526020016000208190555050505050565b600080600080612710871015611b2257600080fd5b68010000000000000000600f0b86600f0b1215611b3e57600080fd5b68010000000000000000600f0b85600f0b1315611b5a57600080fd5b6000806000611b6c8b60000151611d9f565b80975081985082995083945050505050611b8f8b600001518c60400151836122e5565b809350819450505050601060009054906101000a900473ffffffffffffffffffffffffffffffffffffffff1673ffffffffffffffffffffffffffffffffffffffff166392e9b9426000848d60200151858f606001518f8f8f6040518963ffffffff1660e01b8152600401611c0a989796959493929190612ece565b60206040518083038186803b158015611c2257600080fd5b505afa158015611c36573d6000803e3d6000fd5b505050506040513d601f19601f82011682018060405250810190611c5a9190612950565b95505050945094509450949050565b60016003811115611c7657fe5b846003811115611c8257fe5b1415611d02578173ffffffffffffffffffffffffffffffffffffffff16637c9dd789878760008560006040518663ffffffff1660e01b8152600401611ccb959493929190612e28565b600060405180830381600087803b158015611ce557600080fd5b505af1158015611cf9573d6000803e3d6000fd5b50505050611d97565b60026003811115611d0f57fe5b846003811115611d1b57fe5b1415611d96578173ffffffffffffffffffffffffffffffffffffffff16637c9dd7898787866000866040518663ffffffff1660e01b8152600401611d63959493929190612e7b565b600060405180830381600087803b158015611d7d57600080fd5b505af1158015611d91573d6000803e3d6000fd5b505050505b5b505050505050565b600080600080600160008673ffffffffffffffffffffffffffffffffffffffff1673ffffffffffffffffffffffffffffffffffffffff16815260200190815260200160002060009054906101000a900473ffffffffffffffffffffffffffffffffffffffff169350600073ffffffffffffffffffffffffffffffffffffffff168473ffffffffffffffffffffffffffffffffffffffff161415611f61578473ffffffffffffffffffffffffffffffffffffffff166362af375b6040518163ffffffff1660e01b815260040160206040518083038186803b158015611e8257600080fd5b505afa158015611e96573d6000803e3d6000fd5b505050506040513d601f19601f82011682018060405250810190611eba91906127a5565b9150600260008373ffffffffffffffffffffffffffffffffffffffff1673ffffffffffffffffffffffffffffffffffffffff16815260200190815260200160002060009054906101000a900473ffffffffffffffffffffffffffffffffffffffff169050600073ffffffffffffffffffffffffffffffffffffffff168173ffffffffffffffffffffffffffffffffffffffff161415611f5857600080fd5b60029250611fa8565b600173ffffffffffffffffffffffffffffffffffffffff168473ffffffffffffffffffffffffffffffffffffffff161415611f9f5760009250611fa7565b849050600192505b5b9193509193565b6120308363a9059cbb60e01b8484604051602401611fce929190612dff565b604051602081830303815290604052907bffffffffffffffffffffffffffffffffffffffffffffffffffffffff19166020820180517bffffffffffffffffffffffffffffffffffffffffffffffffffffffff83818316178352505050506121c9565b505050565b60008273ffffffffffffffffffffffffffffffffffffffff166389d1a0fc6040518163ffffffff1660e01b815260040160206040518083038186803b15801561207d57600080fd5b505afa158015612091573d6000803e3d6000fd5b505050506040513d601f19601f820116820180604052508101906120b591906127a5565b905061210982600360008473ffffffffffffffffffffffffffffffffffffffff1673ffffffffffffffffffffffffffffffffffffffff168152602001908152602001600020546123f690919063ffffffff16565b600360008373ffffffffffffffffffffffffffffffffffffffff1673ffffffffffffffffffffffffffffffffffffffff16815260200190815260200160002081905550505050565b60008082840390506000831215801561216a5750838113155b80612180575060008312801561217f57508381135b5b6121bf576040517f08c379a00000000000000000000000000000000000000000000000000000000081526004016121b690612fee565b60405180910390fd5b8091505092915050565b606061222b826040518060400160405280602081526020017f5361666545524332303a206c6f772d6c6576656c2063616c6c206661696c65648152508573ffffffffffffffffffffffffffffffffffffffff166124409092919063ffffffff16565b905060008151111561228b578080602001905181019061224b9190612950565b61228a576040517f08c379a00000000000000000000000000000000000000000000000000000000081526004016122819061300e565b60405180910390fd5b5b505050565b6000808284019050838110156122db576040517f08c379a00000000000000000000000000000000000000000000000000000000081526004016122d290612f6e565b60405180910390fd5b8091505092915050565b600080600073ffffffffffffffffffffffffffffffffffffffff168373ffffffffffffffffffffffffffffffffffffffff16148061234f5750600173ffffffffffffffffffffffffffffffffffffffff168373ffffffffffffffffffffffffffffffffffffffff16145b1561235f578491508390506123ee565b8473ffffffffffffffffffffffffffffffffffffffff16630247c79c856040518263ffffffff1660e01b8152600401612398919061302e565b60206040518083038186803b1580156123b057600080fd5b505afa1580156123c4573d6000803e3d6000fd5b505050506040513d601f19601f820116820180604052508101906123e891906129a2565b90508291505b935093915050565b600061243883836040518060400160405280601e81526020017f536166654d6174683a207375627472616374696f6e206f766572666c6f770000815250612458565b905092915050565b606061244f84846000856124b3565b90509392505050565b60008383111582906124a0576040517f08c379a00000000000000000000000000000000000000000000000000000000081526004016124979190612f4c565b60405180910390fd5b5060008385039050809150509392505050565b6060824710156124f8576040517f08c379a00000000000000000000000000000000000000000000000000000000081526004016124ef90612f8e565b60405180910390fd5b612501856125c8565b612540576040517f08c379a000000000000000000000000000000000000000000000000000000000815260040161253790612fce565b60405180910390fd5b600060608673ffffffffffffffffffffffffffffffffffffffff16858760405161256a9190612d05565b60006040518083038185875af1925050503d80600081146125a7576040519150601f19603f3d011682016040523d82523d6000602084013e6125ac565b606091505b50915091506125bc8282866125db565b92505050949350505050565b600080823b905060008111915050919050565b606083156125eb5782905061263b565b6000835111156125fe5782518084602001fd5b816040517f08c379a00000000000000000000000000000000000000000000000000000000081526004016126329190612f4c565b60405180910390fd5b9392505050565b6040518060800160405280600073ffffffffffffffffffffffffffffffffffffffff168152602001600073ffffffffffffffffffffffffffffffffffffffff16815260200160008152602001600081525090565b6000813590506126a581613177565b92915050565b6000815190506126ba81613177565b92915050565b6000819050826020600302820111156126d857600080fd5b92915050565b6000815190506126ed8161318e565b92915050565b60008083601f84011261270557600080fd5b8235905067ffffffffffffffff81111561271e57600080fd5b60208301915083600182028301111561273657600080fd5b9250929050565b60008135905061274c816131a5565b92915050565b600081359050612761816131bc565b92915050565b600081519050612776816131bc565b92915050565b60006020828403121561278e57600080fd5b600061279c84828501612696565b91505092915050565b6000602082840312156127b757600080fd5b60006127c5848285016126ab565b91505092915050565b600080600080600080600060e0888a0312156127e957600080fd5b60006127f78a828b01612696565b97505060206128088a828b01612696565b96505060406128198a828b01612752565b955050606061282a8a828b01612752565b945050608061283b8a828b01612752565b93505060a061284c8a828b0161273d565b92505060c061285d8a828b0161273d565b91505092959891949750929550565b6000806000806000806000806000806101608b8d03121561288c57600080fd5b600061289a8d828e01612696565b9a505060206128ab8d828e01612752565b99505060406128bc8d828e01612696565b98505060606128cd8d828e01612696565b97505060806128de8d828e01612752565b96505060a06128ef8d828e01612752565b95505060c06129008d828e016126c0565b9450506101208b013567ffffffffffffffff81111561291e57600080fd5b61292a8d828e016126f3565b935093505061014061293e8d828e01612696565b9150509295989b9194979a5092959850565b60006020828403121561296257600080fd5b6000612970848285016126de565b91505092915050565b60006020828403121561298b57600080fd5b60006129998482850161273d565b91505092915050565b6000602082840312156129b457600080fd5b60006129c284828501612767565b91505092915050565b600080604083850312156129de57600080fd5b60006129ec85828601612752565b92505060206129fd85828601612696565b9150509250929050565b612a10816130eb565b82525050565b612a1f8161308c565b82525050565b612a2e8161309e565b82525050565b6000612a3f82613049565b612a49818561305f565b9350612a59818560208601613133565b612a6281613166565b840191505092915050565b6000612a7882613049565b612a828185613070565b9350612a92818560208601613133565b80840191505092915050565b612aa7816130aa565b82525050565b612ab6816130b7565b82525050565b612ac5816130fd565b82525050565b6000612ad682613054565b612ae0818561307b565b9350612af0818560208601613133565b612af981613166565b840191505092915050565b6000612b11601b8361307b565b91507f536166654d6174683a206164646974696f6e206f766572666c6f7700000000006000830152602082019050919050565b6000612b5160268361307b565b91507f416464726573733a20696e73756666696369656e742062616c616e636520666f60008301527f722063616c6c00000000000000000000000000000000000000000000000000006020830152604082019050919050565b6000612bb7600a8361307b565b91507f6f6e6c79206f776e6572000000000000000000000000000000000000000000006000830152602082019050919050565b6000612bf7601d8361307b565b91507f416464726573733a2063616c6c20746f206e6f6e2d636f6e74726163740000006000830152602082019050919050565b6000612c3760248361307b565b91507f5369676e6564536166654d6174683a207375627472616374696f6e206f76657260008301527f666c6f77000000000000000000000000000000000000000000000000000000006020830152604082019050919050565b6000612c9d602a8361307b565b91507f5361666545524332303a204552433230206f7065726174696f6e20646964206e60008301527f6f742073756363656564000000000000000000000000000000000000000000006020830152604082019050919050565b612cff816130e1565b82525050565b6000612d118284612a6d565b915081905092915050565b6000602082019050612d316000830184612a16565b92915050565b600060c082019050612d4c6000830189612a07565b612d596020830188612a16565b612d666040830187612a16565b612d736060830186612cf6565b612d806080830185612cf6565b81810360a0830152612d928184612a34565b9050979650505050505050565b6000604082019050612db46000830185612a07565b612dc16020830184612cf6565b9392505050565b6000606082019050612ddd6000830186612a16565b612dea6020830185612a16565b612df76040830184612cf6565b949350505050565b6000604082019050612e146000830185612a16565b612e216020830184612cf6565b9392505050565b600060a082019050612e3d6000830188612a25565b612e4a6020830187612a16565b612e576040830186612a07565b612e646060830185612aad565b612e716080830184612abc565b9695505050505050565b600060a082019050612e906000830188612a25565b612e9d6020830187612a16565b612eaa6040830186612a16565b612eb76060830185612abc565b612ec46080830184612aad565b9695505050505050565b600061010082019050612ee4600083018b612a25565b612ef1602083018a612a16565b612efe6040830189612a16565b612f0b6060830188612cf6565b612f186080830187612cf6565b612f2560a0830186612cf6565b612f3260c0830185612a9e565b612f3f60e0830184612a9e565b9998505050505050505050565b60006020820190508181036000830152612f668184612acb565b905092915050565b60006020820190508181036000830152612f8781612b04565b9050919050565b60006020820190508181036000830152612fa781612b44565b9050919050565b60006020820190508181036000830152612fc781612baa565b9050919050565b60006020820190508181036000830152612fe781612bea565b9050919050565b6000602082019050818103600083015261300781612c2a565b9050919050565b6000602082019050818103600083015261302781612c90565b9050919050565b60006020820190506130436000830184612cf6565b92915050565b600081519050919050565b600081519050919050565b600082825260208201905092915050565b600081905092915050565b600082825260208201905092915050565b6000613097826130c1565b9050919050565b60008115159050919050565b600081600f0b9050919050565b6000819050919050565b600073ffffffffffffffffffffffffffffffffffffffff82169050919050565b6000819050919050565b60006130f68261310f565b9050919050565b6000613108826130b7565b9050919050565b600061311a82613121565b9050919050565b600061312c826130c1565b9050919050565b60005b83811015613151578082015181840152602081019050613136565b83811115613160576000848401525b50505050565b6000601f19601f8301169050919050565b6131808161308c565b811461318b57600080fd5b50565b6131978161309e565b81146131a257600080fd5b50565b6131ae816130aa565b81146131b957600080fd5b50565b6131c5816130e1565b81146131d057600080fd5b5056fea264697066735822122097f230a559a69820fb6dfe506afd1c70e070c6585ac53a37acfc5432bb0257f764736f6c63430006080033",
  "immutableReferences": {},
  "source": "// SPDX-License-Identifier: MIT\npragma experimental ABIEncoderV2;\npragma solidity >=0.6.8 <0.7.0;\n\nimport \"../../libraries/SafeMath.sol\";\nimport \"../../libraries/SignedSafeMath.sol\";\nimport \"../../libraries/SafeERC20.sol\";\nimport \"../../interfaces/IVaultManagerFlashReceiver.sol\";\nimport \"../../interfaces/IFixCapitalPool.sol\";\nimport \"../../interfaces/IZeroCouponBond.sol\";\nimport \"../../interfaces/IVaultHealth.sol\";\nimport \"../../interfaces/IWrapper.sol\";\nimport \"../../interfaces/IERC20.sol\";\nimport \"../../helpers/Ownable.sol\";\nimport \"./NSFVaultFactoryDelegateParent.sol\";\n\ncontract NSFVaultFactoryDelegate1 is NSFVaultFactoryDelegateParent {\n\tusing SafeMath for uint;\n\tusing SignedSafeMath for int;\n\tusing SafeERC20 for IERC20;\n\n\t/*\n\t\t@Description: create a new vault, deposit some asset and borrow some ZCB from it\n\n\t\t@param address _assetSupplied: the asset that will be used as collateral\n\t\t\tthis asset may be a ZCB or any other asset that is whitelisted\n\t\t@param address _assetBorrowed: the ZCB that is borrowed from the new vault\n\t\t@param uint _amountSupplied: the amount of _assetSupplied that is to be posed as collateral\n\t\t@param uint _amountBorrowed: the amount of _assetBorrowed to borrow\n\t\t@param uint _priceMultiplier: a multiplier > 1\n\t\t\twe ensure the vault will not be sent into the liquidation zone if the cross asset price\n\t\t\tof _assetBorrowed to _assetSupplied increases by a factor of _priceMultiplier\n\t\t\t(in terms of basis points)\n\t\t@param int128 _suppliedRateChange: a multiplier > 1\n\t\t\twe ensure the vault will not be sent into the liquidation zone if the rate on the supplied\n\t\t\tasset increases by a factor of _suppliedRateChange\n\t\t\t(in ABDK format)\n\t\t@param int128 _borrowRateChange: a multiplier < 1\n\t\t\twe ensure the vault will not be sent into the liquidation zone if the rate on the borrow\n\t\t\tasset decreases by a factor of _borrowRateChange\n\t\t\t(in ABDK format)\n\t*/\n\tfunction openVault(\n\t\taddress _assetSupplied,\n\t\taddress _assetBorrowed,\n\t\tuint _amountSupplied,\n\t\tuint _amountBorrowed,\n\t\tuint _priceMultiplier,\n\t\tint128 _suppliedRateChange,\n\t\tint128 _borrowRateChange\n\t) external {\n\n\t\trequire(_assetSupplied != _assetBorrowed && _amountSupplied <= uint(type(int256).max));\n\t\trequire(_fixCapitalPoolToWrapper[_assetSupplied] != address(0) || _wrapperToUnderlyingAsset[_assetSupplied] != address(0));\n\n\t\tIERC20(_assetSupplied).safeTransferFrom(msg.sender, address(this), _amountSupplied);\n\t\taddress FCPborrowed = IZeroCouponBond(_assetBorrowed).FixCapitalPoolAddress();\n\t\tIFixCapitalPool(FCPborrowed).mintZCBTo(msg.sender, _amountBorrowed);\n\t\traiseShortInterest(FCPborrowed, _amountBorrowed);\n\t\tVault memory vault = Vault(_assetSupplied, _assetBorrowed, _amountSupplied, _amountBorrowed);\n\t\t{\n\t\t\t(bool withstands, SUPPLIED_ASSET_TYPE sType, address baseFCP, address baseWrapper) = vaultWithstandsChange(vault, _priceMultiplier, _suppliedRateChange, _borrowRateChange);\n\t\t\trequire(withstands);\n\t\t\teditSubAccountStandardVault(false, msg.sender, sType, baseFCP, baseWrapper, int(vault.amountSupplied));\n\t\t}\n\n\t\t_vaults[msg.sender].push(vault);\n\t}\n\n\t/*\n\t\t@Description: fully repay a vault and withdraw all collateral\n\n\t\t@param uint _index: the vault to close is at vaults[msg.sender][_index]\n\t\t@param address _to: the address to which to send all collateral after closing the vault\n\t*/\n\tfunction closeVault(uint _index, address _to) external {\n\t\tuint len = _vaults[msg.sender].length;\n\t\trequire(len > _index);\n\t\tVault memory vault = _vaults[msg.sender][_index];\n\n\t\t//burn borrowed ZCB\n\t\tif (vault.amountBorrowed > 0) {\n\t\t\taddress FCPborrowed = IZeroCouponBond(vault.assetBorrowed).FixCapitalPoolAddress();\n\t\t\tIFixCapitalPool(FCPborrowed).burnZCBFrom(msg.sender, vault.amountBorrowed);\n\t\t\tlowerShortInterest(FCPborrowed, vault.amountBorrowed);\n\t\t}\n\t\tif (vault.amountSupplied > 0) {\n\t\t\trequire(vault.amountSupplied <= uint(type(int256).max));\n\t\t\tIERC20(vault.assetSupplied).safeTransfer(_to, vault.amountSupplied);\n\t\t\t(, SUPPLIED_ASSET_TYPE sType, address baseFCP, address baseWrapper) = suppliedAssetInfo(vault.assetSupplied);\n\t\t\teditSubAccountStandardVault(false, msg.sender, sType, baseFCP, baseWrapper, -int(vault.amountSupplied));\n\t\t}\n\n\t\tdelete _vaults[msg.sender][_index];\n\t}\n\n\t/*\n\t\t@Description: adjust the state of a vault by either changing the assets in it\n\t\t\tor paying down/increasing debt or supplying/withdrawing collateral\n\t\t\tfor any call where funds would be transfered out of the vault msg.sender must be the vault owner\n\t\t\tif the _data param has length > 0, assets sent out by the vault will be sent via flashloan\n\t\t\tand repayment must be made in the required collateral assets \n\n\t\t@param address _owner: the owner of the vault to adjust\n\t\t@param uint _index: the index of the vault in vaults[_owner]\n\t\t@param address _assetSupplied: the new asset(may be the same as previous) that is to be used as\n\t\t\tcollateral in the vault\n\t\t@param address _assetBorrowed: the new asset(may be the same as previous) that is to be borrowed\n\t\t\tfrom the vault\n\t\t@param uint _amountSupplied: the total amount of collateral that shall be in the vault after execution\n\t\t@param uint _amountBorrowed: the total amount of debt of the vault after execution\n\t\t@param int128[3] calldata _multipliers: the 3 multipliers used on call to\n\t\t\tvaultHealthContract.vaultWithstandsChange\n\t\t\t\tuint(_multipliers[0]) is priceMultiplier\n\t\t\t\t_multipliers[1] is suppliedRateMultiplier\n\t\t\t\t_multipliers[2] is borrowedRateMultiplier\n\t\t@param bytes calldata _data: data to be send to the flashloan receiver if a flashloan is to be done\n\t\t\tif _data.length == 0 there will be no flashloan\n\t\t@param  address _receiverAddr: the address of the flashloan receiver contract\n\t*/\n\tfunction adjustVault(\n\t\taddress _owner,\n\t\tuint _index,\n\t\taddress _assetSupplied,\n\t\taddress _assetBorrowed,\n\t\tuint _amountSupplied,\n\t\tuint _amountBorrowed,\n\t\tint128[3] calldata _multipliers,\n\t\tbytes calldata _data,\n\t\taddress _receiverAddr\n\t) external {\n\t\trequire(_index < _vaults[_owner].length);\n\n\t\tVault memory mVault = _vaults[_owner][_index];\n\t\tVault storage sVault = _vaults[_owner][_index];\n\t\tVault memory newVault = Vault(_assetSupplied, _assetBorrowed, _amountSupplied, _amountBorrowed);\n\t\taddress copyVaultOwner = _owner; //prevent stack too deep\n\n\t\t//ensure that after operations vault will be in good health\n\t\t//only check health if at any point funds are being removed from the vault\n\t\tSUPPLIED_ASSET_TYPE sType;\n\t\taddress baseFCPsupplied;\n\t\taddress baseWrapperSupplied;\n\t\tif (\n\t\t\t_assetBorrowed != mVault.assetBorrowed ||\n\t\t\t_assetSupplied != mVault.assetSupplied ||\n\t\t\t_amountSupplied < mVault.amountSupplied ||\n\t\t\t_amountBorrowed > mVault.amountBorrowed\n\t\t) {\n\t\t\t//index 0 in multipliers that must be converted to uint\n\t\t\trequire(_multipliers[0] > 0);\n\t\t\trequire(msg.sender == copyVaultOwner);\n\t\t\t{\n\t\t\t\tbool withstands;\n\t\t\t\t(withstands, sType, baseFCPsupplied, baseWrapperSupplied) = vaultWithstandsChange(\n\t\t\t\t\tnewVault,\n\t\t\t\t\tuint(_multipliers[0]),\n\t\t\t\t\t_multipliers[1],\n\t\t\t\t\t_multipliers[2]\n\t\t\t\t);\n\t\t\t\trequire(withstands);\n\t\t\t}\n\t\t}\n\t\telse {\n\t\t\t(, sType, baseFCPsupplied, baseWrapperSupplied) = suppliedAssetInfo(_assetSupplied);\n\t\t}\n\n\t\t//------------------distribute funds----------------------\n\t\tif (mVault.assetSupplied != _assetSupplied) {\n\t\t\tif (mVault.amountSupplied != 0) {\n\t\t\t\tIERC20(mVault.assetSupplied).safeTransfer(_receiverAddr, mVault.amountSupplied);\n\t\t\t}\n\t\t\tsVault.assetSupplied =  newVault.assetSupplied;\n\t\t\tsVault.amountSupplied = newVault.amountSupplied;\n\t\t}\n\t\telse if (mVault.amountSupplied > newVault.amountSupplied) {\n\t\t\tIERC20(newVault.assetSupplied).safeTransfer(_receiverAddr, mVault.amountSupplied - newVault.amountSupplied);\n\t\t\tsVault.amountSupplied = newVault.amountSupplied;\n\t\t}\n\t\telse if (mVault.amountSupplied < newVault.amountSupplied) {\n\t\t\tsVault.amountSupplied = newVault.amountSupplied;\n\t\t}\n\n\t\tIFixCapitalPool oldFCPBorrowed;\n\t\tif (mVault.assetBorrowed != newVault.assetBorrowed) {\n\t\t\tif (newVault.assetBorrowed != address(0)) {\n\t\t\t\tIFixCapitalPool newFCPBorrowed = IFixCapitalPool(IZeroCouponBond(newVault.assetBorrowed).FixCapitalPoolAddress());\n\t\t\t\traiseShortInterest(address(newFCPBorrowed), newVault.amountBorrowed);\n\t\t\t\tnewFCPBorrowed.mintZCBTo(_receiverAddr, newVault.amountBorrowed);\n\t\t\t}\n\t\t\tif (address(mVault.assetBorrowed) != address(0)) {\n\t\t\t\toldFCPBorrowed = IFixCapitalPool(IZeroCouponBond(mVault.assetBorrowed).FixCapitalPoolAddress());\n\t\t\t\tlowerShortInterest(address(oldFCPBorrowed), mVault.amountBorrowed);\n\t\t\t}\n\t\t\tsVault.assetBorrowed = newVault.assetBorrowed;\n\t\t\tsVault.amountBorrowed = newVault.amountBorrowed;\n\t\t}\n\t\telse if (mVault.amountBorrowed < newVault.amountBorrowed) {\n\t\t\toldFCPBorrowed = IFixCapitalPool(IZeroCouponBond(newVault.assetBorrowed).FixCapitalPoolAddress());\n\t\t\traiseShortInterest(address(oldFCPBorrowed), newVault.amountBorrowed - mVault.amountBorrowed);\n\t\t\toldFCPBorrowed.mintZCBTo(_receiverAddr, newVault.amountBorrowed - mVault.amountBorrowed);\n\t\t\tsVault.amountBorrowed = newVault.amountBorrowed;\n\t\t}\n\t\telse if (mVault.amountBorrowed > newVault.amountBorrowed) {\n\t\t\toldFCPBorrowed = IFixCapitalPool(IZeroCouponBond(newVault.assetBorrowed).FixCapitalPoolAddress());\n\t\t\tsVault.amountBorrowed = newVault.amountBorrowed;\n\t\t}\n\n\t\t//-----------------------------flashloan------------------\n\t\tif (_data.length > 0) {\n\t\t\tbytes memory copyData = _data; //prevent stack too deep\n\t\t\tIVaultManagerFlashReceiver(_receiverAddr).onFlashLoan(msg.sender,\n\t\t\t\tmVault.assetSupplied,\n\t\t\t\tmVault.assetBorrowed,\n\t\t\t\tmVault.amountSupplied,\n\t\t\t\tmVault.amountBorrowed,\n\t\t\t\tcopyData\n\t\t\t);\n\t\t}\n\n\t\t//-----------------------------get funds-------------------------\n\t\tif (mVault.assetSupplied != newVault.assetSupplied) {\n\t\t\tIERC20(newVault.assetSupplied).safeTransferFrom(msg.sender, address(this), newVault.amountSupplied);\n\t\t\trequire(newVault.amountSupplied <= uint(type(int256).max));\n\t\t\trequire(mVault.amountSupplied <= uint(type(int256).max));\n\t\t\tint changeAmt = int(newVault.amountSupplied);\n\t\t\teditSubAccountStandardVault(false, copyVaultOwner, sType, baseFCPsupplied, baseWrapperSupplied, changeAmt);\n\t\t\tif (mVault.assetSupplied != address(0)) {\n\t\t\t\tchangeAmt = -int(mVault.amountSupplied);\n\t\t\t\t(, sType, baseFCPsupplied, baseWrapperSupplied) = suppliedAssetInfo(mVault.assetSupplied);\n\t\t\t\teditSubAccountStandardVault(false, copyVaultOwner, sType, baseFCPsupplied, baseWrapperSupplied, changeAmt);\n\t\t\t}\n\t\t}\n\t\telse {\n\t\t\tif (mVault.amountSupplied < newVault.amountSupplied) {\n\t\t\t\tIERC20(newVault.assetSupplied).safeTransferFrom(msg.sender, address(this), newVault.amountSupplied - mVault.amountSupplied);\n\t\t\t}\n\t\t\trequire(newVault.amountSupplied <= uint(type(int256).max));\n\t\t\trequire(mVault.amountSupplied <= uint(type(int256).max));\n\t\t\tint changeAmt = int(newVault.amountSupplied).sub(int(mVault.amountSupplied));\n\t\t\teditSubAccountStandardVault(false, copyVaultOwner, sType, baseFCPsupplied, baseWrapperSupplied, changeAmt);\n\t\t}\n\n\t\tif (mVault.assetBorrowed != newVault.assetBorrowed) {\n\t\t\tif (mVault.amountBorrowed > 0) {\n\t\t\t\toldFCPBorrowed.burnZCBFrom(msg.sender, mVault.amountBorrowed);\n\t\t\t}\n\t\t}\n\t\telse if (mVault.amountBorrowed > newVault.amountBorrowed) {\n\t\t\tlowerShortInterest(address(oldFCPBorrowed), mVault.amountBorrowed - _amountBorrowed);\n\t\t\toldFCPBorrowed.burnZCBFrom(msg.sender,  mVault.amountBorrowed - _amountBorrowed);\n\t\t}\n\t}\n\n}",
  "sourcePath": "/home/asher/FixFinanceV1/contracts/VaultFactory/NoStabilityFee/NSFVaultFactoryDelegate1.sol",
  "compiler": {
    "name": "solc",
    "version": "0.6.8+commit.0bbfe453.Emscripten.clang"
  },
  "schemaVersion": "3.4.1",
  "updatedAt": "2021-11-26T19:15:55.453Z",
  "devdoc": {
    "methods": {}
  },
  "userdoc": {
    "methods": {}
  }
}