{
  "contractName": "NSFVaultFactoryDelegate4",
  "abi": [
    {
      "inputs": [],
      "name": "owner",
      "outputs": [
        {
          "internalType": "address",
          "name": "",
          "type": "address"
        }
      ],
      "stateMutability": "view",
      "type": "function"
    },
    {
      "inputs": [
        {
          "internalType": "address",
          "name": "newOwner",
          "type": "address"
        }
      ],
      "name": "transferOwnership",
      "outputs": [],
      "stateMutability": "nonpayable",
      "type": "function"
    },
    {
      "inputs": [
        {
          "internalType": "address",
          "name": "_owner",
          "type": "address"
        },
        {
          "internalType": "uint256",
          "name": "_index",
          "type": "uint256"
        },
        {
          "internalType": "address",
          "name": "_FCPborrowed",
          "type": "address"
        },
        {
          "internalType": "address",
          "name": "_FCPsupplied",
          "type": "address"
        },
        {
          "internalType": "uint256",
          "name": "_bidYield",
          "type": "uint256"
        },
        {
          "internalType": "int256",
          "name": "_minBondRatio",
          "type": "int256"
        },
        {
          "internalType": "uint256",
          "name": "_amtIn",
          "type": "uint256"
        }
      ],
      "name": "auctionYTLiquidation",
      "outputs": [],
      "stateMutability": "nonpayable",
      "type": "function"
    },
    {
      "inputs": [
        {
          "internalType": "uint256",
          "name": "_index",
          "type": "uint256"
        },
        {
          "internalType": "uint256",
          "name": "_bidYield",
          "type": "uint256"
        },
        {
          "internalType": "uint256",
          "name": "_amtIn",
          "type": "uint256"
        }
      ],
      "name": "bidOnYTLiquidation",
      "outputs": [],
      "stateMutability": "nonpayable",
      "type": "function"
    },
    {
      "inputs": [
        {
          "internalType": "uint256",
          "name": "_index",
          "type": "uint256"
        },
        {
          "internalType": "address",
          "name": "_to",
          "type": "address"
        }
      ],
      "name": "claimYTLiquidation",
      "outputs": [],
      "stateMutability": "nonpayable",
      "type": "function"
    },
    {
      "inputs": [
        {
          "internalType": "address",
          "name": "_owner",
          "type": "address"
        },
        {
          "internalType": "uint256",
          "name": "_index",
          "type": "uint256"
        },
        {
          "internalType": "address",
          "name": "_FCPborrowed",
          "type": "address"
        },
        {
          "internalType": "address",
          "name": "_FCPsupplied",
          "type": "address"
        },
        {
          "internalType": "uint256",
          "name": "_maxIn",
          "type": "uint256"
        },
        {
          "internalType": "uint256",
          "name": "_minOut",
          "type": "uint256"
        },
        {
          "internalType": "int256",
          "name": "_minBondRatio",
          "type": "int256"
        },
        {
          "internalType": "address",
          "name": "_to",
          "type": "address"
        }
      ],
      "name": "instantYTLiquidation",
      "outputs": [],
      "stateMutability": "nonpayable",
      "type": "function"
    },
    {
      "inputs": [
        {
          "internalType": "address",
          "name": "_owner",
          "type": "address"
        },
        {
          "internalType": "uint256",
          "name": "_index",
          "type": "uint256"
        },
        {
          "internalType": "address",
          "name": "_FCPborrowed",
          "type": "address"
        },
        {
          "internalType": "address",
          "name": "_FCPsupplied",
          "type": "address"
        },
        {
          "internalType": "uint256",
          "name": "_in",
          "type": "uint256"
        },
        {
          "internalType": "uint256",
          "name": "_minOut",
          "type": "uint256"
        },
        {
          "internalType": "int256",
          "name": "_minBondRatio",
          "type": "int256"
        },
        {
          "internalType": "address",
          "name": "_to",
          "type": "address"
        }
      ],
      "name": "partialYTLiquidationSpecificIn",
      "outputs": [],
      "stateMutability": "nonpayable",
      "type": "function"
    },
    {
      "inputs": [
        {
          "internalType": "address",
          "name": "_owner",
          "type": "address"
        },
        {
          "internalType": "uint256",
          "name": "_index",
          "type": "uint256"
        },
        {
          "internalType": "address",
          "name": "_FCPborrowed",
          "type": "address"
        },
        {
          "internalType": "address",
          "name": "_FCPsupplied",
          "type": "address"
        },
        {
          "internalType": "uint256",
          "name": "_out",
          "type": "uint256"
        },
        {
          "internalType": "int256",
          "name": "_minBondOut",
          "type": "int256"
        },
        {
          "internalType": "uint256",
          "name": "_maxIn",
          "type": "uint256"
        },
        {
          "internalType": "address",
          "name": "_to",
          "type": "address"
        }
      ],
      "name": "partialYTLiquidationSpecificOut",
      "outputs": [],
      "stateMutability": "nonpayable",
      "type": "function"
    }
  ],
  "bytecode": "0x608060405234801561001057600080fd5b50336000806101000a81548173ffffffffffffffffffffffffffffffffffffffff021916908373ffffffffffffffffffffffffffffffffffffffff1602179055506148bc806100606000396000f3fe608060405234801561001057600080fd5b50600436106100885760003560e01c80635ce006791161005b5780635ce00679146100fd5780638da5cb5b14610119578063e18d521e14610137578063f2fde38b1461015357610088565b8063059866b91461008d5780630c5e04cc146100a957806339135ac5146100c557806356ec9124146100e1575b600080fd5b6100a760048036038101906100a29190613fb5565b61016f565b005b6100c360048036038101906100be9190613fb5565b6107a9565b005b6100df60048036038101906100da9190613e65565b610ea1565b005b6100fb60048036038101906100f69190613f03565b61180c565b005b610117600480360381019061011291906140e2565b611ed7565b005b610121612284565b60405161012e91906144c9565b60405180910390f35b610151600480360381019061014c919061411e565b6122a9565b005b61016d60048036038101906101689190613e13565b6128f2565b005b86600b60008a73ffffffffffffffffffffffffffffffffffffffff1673ffffffffffffffffffffffffffffffffffffffff16815260200190815260200160002080549050116101bd57600080fd5b6101c5613c73565b600b60008a73ffffffffffffffffffffffffffffffffffffffff1673ffffffffffffffffffffffffffffffffffffffff168152602001908152602001600020888154811061020f57fe5b90600052602060002090600502016040518060a00160405290816000820160009054906101000a900473ffffffffffffffffffffffffffffffffffffffff1673ffffffffffffffffffffffffffffffffffffffff1673ffffffffffffffffffffffffffffffffffffffff1681526020016001820160009054906101000a900473ffffffffffffffffffffffffffffffffffffffff1673ffffffffffffffffffffffffffffffffffffffff1673ffffffffffffffffffffffffffffffffffffffff1681526020016002820154815260200160038201548152602001600482015481525050905060006103018a8a846129f9565b90508773ffffffffffffffffffffffffffffffffffffffff16826020015173ffffffffffffffffffffffffffffffffffffffff161461033f57600080fd5b8673ffffffffffffffffffffffffffffffffffffffff16826000015173ffffffffffffffffffffffffffffffffffffffff161461037b57600080fd5b858260800151111561038c57600080fd5b848260400151101580156103a05750600085115b6103a957600080fd5b7f7fffffffffffffffffffffffffffffffffffffffffffffffffffffffffffffff826040015111156103da57600080fd5b60006104118360400151610403670de0b6b3a76400008660600151612c3890919063ffffffff16565b612d3690919063ffffffff16565b90508481121561042057600080fd5b6201518042018973ffffffffffffffffffffffffffffffffffffffff1663204f83f96040518163ffffffff1660e01b815260040160206040518083038186803b15801561046c57600080fd5b505afa158015610480573d6000803e3d6000fd5b505050506040513d601f19601f820116820180604052508101906104a4919061416d565b64ffffffffff16106105955760006104c484600001518560400151612e21565b9050601060009054906101000a900473ffffffffffffffffffffffffffffffffffffffff1673ffffffffffffffffffffffffffffffffffffffff1663b27983be8560000151866020015184886060015189608001516040518663ffffffff1660e01b81526004016105399594939291906144e4565b60206040518083038186803b15801561055157600080fd5b505afa158015610565573d6000803e3d6000fd5b505050506040513d601f19601f820116820180604052508101906105899190614067565b1561059357600080fd5b505b8873ffffffffffffffffffffffffffffffffffffffff1663fc2807f18585608001516040518363ffffffff1660e01b81526004016105d4929190614537565b600060405180830381600087803b1580156105ee57600080fd5b505af1158015610602573d6000803e3d6000fd5b50505050610614898460800151612f52565b8773ffffffffffffffffffffffffffffffffffffffff16636a68d0c385856040015186606001516040518463ffffffff1660e01b815260040161065993929190614560565b600060405180830381600087803b15801561067357600080fd5b505af1158015610687573d6000803e3d6000fd5b505050506106db60008c85600001518587604001516000036106d67fffffffffffffffffffffffffffffffffffffffffffffffffffffffffffffffff8a60600151612c3890919063ffffffff16565b61306e565b600b60008c73ffffffffffffffffffffffffffffffffffffffff1673ffffffffffffffffffffffffffffffffffffffff1681526020019081526020016000208a8154811061072557fe5b9060005260206000209060050201600080820160006101000a81549073ffffffffffffffffffffffffffffffffffffffff02191690556001820160006101000a81549073ffffffffffffffffffffffffffffffffffffffff021916905560028201600090556003820160009055600482016000905550505050505050505050505050565b86600b60008a73ffffffffffffffffffffffffffffffffffffffff1673ffffffffffffffffffffffffffffffffffffffff16815260200190815260200160002080549050116107f757600080fd5b6107ff613c73565b600b60008a73ffffffffffffffffffffffffffffffffffffffff1673ffffffffffffffffffffffffffffffffffffffff168152602001908152602001600020888154811061084957fe5b90600052602060002090600502016040518060a00160405290816000820160009054906101000a900473ffffffffffffffffffffffffffffffffffffffff1673ffffffffffffffffffffffffffffffffffffffff1673ffffffffffffffffffffffffffffffffffffffff1681526020016001820160009054906101000a900473ffffffffffffffffffffffffffffffffffffffff1673ffffffffffffffffffffffffffffffffffffffff1673ffffffffffffffffffffffffffffffffffffffff16815260200160028201548152602001600382015481526020016004820154815250509050600061093b8a8a846129f9565b90508773ffffffffffffffffffffffffffffffffffffffff16826020015173ffffffffffffffffffffffffffffffffffffffff161461097957600080fd5b8673ffffffffffffffffffffffffffffffffffffffff16826000015173ffffffffffffffffffffffffffffffffffffffff16146109b557600080fd5b8560001080156109c9575081608001518611155b6109d257600080fd5b6000610a0983604001516109fb670de0b6b3a76400008660600151612c3890919063ffffffff16565b612d3690919063ffffffff16565b905084811215610a1857600080fd5b6000610a478460800151610a398a87604001516130e990919063ffffffff16565b61315990919063ffffffff16565b905086811015610a5657600080fd5b7f7fffffffffffffffffffffffffffffffffffffffffffffffffffffffffffffff811115610a8357600080fd5b6000610ab28560800151610aa48b8860600151612c3890919063ffffffff16565b612d3690919063ffffffff16565b90506201518042018b73ffffffffffffffffffffffffffffffffffffffff1663204f83f96040518163ffffffff1660e01b815260040160206040518083038186803b158015610b0057600080fd5b505afa158015610b14573d6000803e3d6000fd5b505050506040513d601f19601f82011682018060405250810190610b38919061416d565b64ffffffffff1610610c29576000610b5886600001518760400151612e21565b9050601060009054906101000a900473ffffffffffffffffffffffffffffffffffffffff1673ffffffffffffffffffffffffffffffffffffffff1663b27983be87600001518860200151848a606001518b608001516040518663ffffffff1660e01b8152600401610bcd9594939291906144e4565b60206040518083038186803b158015610be557600080fd5b505afa158015610bf9573d6000803e3d6000fd5b505050506040513d601f19601f82011682018060405250810190610c1d9190614067565b15610c2757600080fd5b505b8a73ffffffffffffffffffffffffffffffffffffffff1663fc2807f1878b6040518363ffffffff1660e01b8152600401610c64929190614537565b600060405180830381600087803b158015610c7e57600080fd5b505af1158015610c92573d6000803e3d6000fd5b50505050610ca08b8a612f52565b8973ffffffffffffffffffffffffffffffffffffffff16636a68d0c38784846040518463ffffffff1660e01b8152600401610cdd93929190614560565b600060405180830381600087803b158015610cf757600080fd5b505af1158015610d0b573d6000803e3d6000fd5b50505050610d5760008e87600001518786600003610d527fffffffffffffffffffffffffffffffffffffffffffffffffffffffffffffffff88612c3890919063ffffffff16565b61306e565b88600b60008f73ffffffffffffffffffffffffffffffffffffffff1673ffffffffffffffffffffffffffffffffffffffff1681526020019081526020016000208d81548110610da257fe5b90600052602060002090600502016004016000828254039250508190555081600b60008f73ffffffffffffffffffffffffffffffffffffffff1673ffffffffffffffffffffffffffffffffffffffff1681526020019081526020016000208d81548110610e0b57fe5b90600052602060002090600502016002016000828254039250508190555080600b60008f73ffffffffffffffffffffffffffffffffffffffff1673ffffffffffffffffffffffffffffffffffffffff1681526020019081526020016000208d81548110610e7457fe5b90600052602060002090600502016003016000828254039250508190555050505050505050505050505050565b85600b60008973ffffffffffffffffffffffffffffffffffffffff1673ffffffffffffffffffffffffffffffffffffffff1681526020019081526020016000208054905011610eef57600080fd5b610ef7613c73565b600b60008973ffffffffffffffffffffffffffffffffffffffff1673ffffffffffffffffffffffffffffffffffffffff1681526020019081526020016000208781548110610f4157fe5b90600052602060002090600502016040518060a00160405290816000820160009054906101000a900473ffffffffffffffffffffffffffffffffffffffff1673ffffffffffffffffffffffffffffffffffffffff1673ffffffffffffffffffffffffffffffffffffffff1681526020016001820160009054906101000a900473ffffffffffffffffffffffffffffffffffffffff1673ffffffffffffffffffffffffffffffffffffffff1673ffffffffffffffffffffffffffffffffffffffff168152602001600282015481526020016003820154815260200160048201548152505090506110318888836129f9565b508573ffffffffffffffffffffffffffffffffffffffff16816020015173ffffffffffffffffffffffffffffffffffffffff161461106e57600080fd5b8473ffffffffffffffffffffffffffffffffffffffff16816000015173ffffffffffffffffffffffffffffffffffffffff16146110aa57600080fd5b818160800151101580156110be5750600082115b6110c757600080fd5b6000816080015183836040015102816110dc57fe5b049050848110156110ec57600080fd5b600060016111258460400151611117670de0b6b3a76400008760600151612c3890919063ffffffff16565b612d3690919063ffffffff16565b0190508481121561113557600080fd5b601060009054906101000a900473ffffffffffffffffffffffffffffffffffffffff1673ffffffffffffffffffffffffffffffffffffffff16634768bc68846000015185602001518660400151876060015188608001516040518663ffffffff1660e01b81526004016111ac9594939291906144e4565b60206040518083038186803b1580156111c457600080fd5b505afa1580156111d8573d6000803e3d6000fd5b505050506040513d601f19601f820116820180604052508101906111fc9190614067565b156112a1576000836020015173ffffffffffffffffffffffffffffffffffffffff1663204f83f96040518163ffffffff1660e01b815260040160206040518083038186803b15801561124d57600080fd5b505afa158015611261573d6000803e3d6000fd5b505050506040513d601f19601f82011682018060405250810190611285919061416d565b64ffffffffff16905062093a804201811061129f57600080fd5b505b6112b0338460200151866131a3565b6112be836020015185612f52565b818610156113be576000670de0b6b3a76400006112e48884612c3890919063ffffffff16565b816112eb57fe5b059050600061131d856080015161130f888860600151612c3890919063ffffffff16565b612d3690919063ffffffff16565b90506000856000015173ffffffffffffffffffffffffffffffffffffffff1663ac210cc76040518163ffffffff1660e01b815260040160206040518083038186803b15801561136b57600080fd5b505afa15801561137f573d6000803e3d6000fd5b505050506040513d601f19601f820116820180604052508101906113a39190614090565b90506113ba8d87600001518b880386860385613215565b5050505b826080015184141561149057600b60008b73ffffffffffffffffffffffffffffffffffffffff1673ffffffffffffffffffffffffffffffffffffffff168152602001908152602001600020898154811061141457fe5b9060005260206000209060050201600080820160006101000a81549073ffffffffffffffffffffffffffffffffffffffff02191690556001820160006101000a81549073ffffffffffffffffffffffffffffffffffffffff021916905560028201600090556003820160009055600482016000905550506115f5565b83600b60008c73ffffffffffffffffffffffffffffffffffffffff1673ffffffffffffffffffffffffffffffffffffffff1681526020019081526020016000208a815481106114db57fe5b90600052602060002090600502016004016000828254039250508190555081600b60008c73ffffffffffffffffffffffffffffffffffffffff1673ffffffffffffffffffffffffffffffffffffffff1681526020019081526020016000208a8154811061154457fe5b9060005260206000209060050201600201600082825403925050819055506000670de0b6b3a76400006115808484612c3890919063ffffffff16565b8161158757fe5b05905080600b60008d73ffffffffffffffffffffffffffffffffffffffff1673ffffffffffffffffffffffffffffffffffffffff1681526020019081526020016000208b815481106115d557fe5b906000526020600020906005020160030160008282540392505081905550505b600f6040518061010001604052808c73ffffffffffffffffffffffffffffffffffffffff168152602001856000015173ffffffffffffffffffffffffffffffffffffffff168152602001856020015173ffffffffffffffffffffffffffffffffffffffff1681526020018381526020018681526020013373ffffffffffffffffffffffffffffffffffffffff16815260200188815260200142815250908060018154018082558091505060019003906000526020600020906008020160009091909190915060008201518160000160006101000a81548173ffffffffffffffffffffffffffffffffffffffff021916908373ffffffffffffffffffffffffffffffffffffffff16021790555060208201518160010160006101000a81548173ffffffffffffffffffffffffffffffffffffffff021916908373ffffffffffffffffffffffffffffffffffffffff16021790555060408201518160020160006101000a81548173ffffffffffffffffffffffffffffffffffffffff021916908373ffffffffffffffffffffffffffffffffffffffff160217905550606082015181600301556080820151816004015560a08201518160050160006101000a81548173ffffffffffffffffffffffffffffffffffffffff021916908373ffffffffffffffffffffffffffffffffffffffff16021790555060c0820151816006015560e08201518160070155505050505050505050505050565b86600b60008a73ffffffffffffffffffffffffffffffffffffffff1673ffffffffffffffffffffffffffffffffffffffff168152602001908152602001600020805490501161185a57600080fd5b7f7fffffffffffffffffffffffffffffffffffffffffffffffffffffffffffffff84111561188757600080fd5b61188f613c73565b600b60008a73ffffffffffffffffffffffffffffffffffffffff1673ffffffffffffffffffffffffffffffffffffffff16815260200190815260200160002088815481106118d957fe5b90600052602060002090600502016040518060a00160405290816000820160009054906101000a900473ffffffffffffffffffffffffffffffffffffffff1673ffffffffffffffffffffffffffffffffffffffff1673ffffffffffffffffffffffffffffffffffffffff1681526020016001820160009054906101000a900473ffffffffffffffffffffffffffffffffffffffff1673ffffffffffffffffffffffffffffffffffffffff1673ffffffffffffffffffffffffffffffffffffffff1681526020016002820154815260200160038201548152602001600482015481525050905060006119cb8a8a846129f9565b90508773ffffffffffffffffffffffffffffffffffffffff16826020015173ffffffffffffffffffffffffffffffffffffffff1614611a0957600080fd5b8673ffffffffffffffffffffffffffffffffffffffff16826000015173ffffffffffffffffffffffffffffffffffffffff1614611a4557600080fd5b8582604001511015611a5657600080fd5b6000826080015187029050600083604001518281611a7057fe5b0614611a7d576001611a80565b60005b60ff1683604001518281611a9057fe5b04019050806000108015611aa45750848111155b611aad57600080fd5b6000611adc8460400151611ace8a8760600151612c3890919063ffffffff16565b612d3690919063ffffffff16565b905086811215611aeb57600080fd5b6201518042018a73ffffffffffffffffffffffffffffffffffffffff1663204f83f96040518163ffffffff1660e01b815260040160206040518083038186803b158015611b3757600080fd5b505afa158015611b4b573d6000803e3d6000fd5b505050506040513d601f19601f82011682018060405250810190611b6f919061416d565b64ffffffffff1610611c60576000611b8f85600001518660400151612e21565b9050601060009054906101000a900473ffffffffffffffffffffffffffffffffffffffff1673ffffffffffffffffffffffffffffffffffffffff1663b27983be866000015187602001518489606001518a608001516040518663ffffffff1660e01b8152600401611c049594939291906144e4565b60206040518083038186803b158015611c1c57600080fd5b505afa158015611c30573d6000803e3d6000fd5b505050506040513d601f19601f82011682018060405250810190611c549190614067565b15611c5e57600080fd5b505b8973ffffffffffffffffffffffffffffffffffffffff1663fc2807f186846040518363ffffffff1660e01b8152600401611c9b929190614537565b600060405180830381600087803b158015611cb557600080fd5b505af1158015611cc9573d6000803e3d6000fd5b50505050611cd78a83612f52565b8873ffffffffffffffffffffffffffffffffffffffff16636a68d0c3868a846040518463ffffffff1660e01b8152600401611d1493929190614560565b600060405180830381600087803b158015611d2e57600080fd5b505af1158015611d42573d6000803e3d6000fd5b50505050611d8e60008d8660000151868c600003611d897fffffffffffffffffffffffffffffffffffffffffffffffffffffffffffffffff88612c3890919063ffffffff16565b61306e565b81600b60008e73ffffffffffffffffffffffffffffffffffffffff1673ffffffffffffffffffffffffffffffffffffffff1681526020019081526020016000208c81548110611dd957fe5b90600052602060002090600502016004016000828254039250508190555087600b60008e73ffffffffffffffffffffffffffffffffffffffff1673ffffffffffffffffffffffffffffffffffffffff1681526020019081526020016000208c81548110611e4257fe5b90600052602060002090600502016002016000828254039250508190555080600b60008e73ffffffffffffffffffffffffffffffffffffffff1673ffffffffffffffffffffffffffffffffffffffff1681526020019081526020016000208c81548110611eab57fe5b906000526020600020906005020160030160008282540392505081905550505050505050505050505050565b81600f8054905011611ee857600080fd5b6000600f8381548110611ef757fe5b906000526020600020906008020190508060050160009054906101000a900473ffffffffffffffffffffffffffffffffffffffff1673ffffffffffffffffffffffffffffffffffffffff163373ffffffffffffffffffffffffffffffffffffffff1614611f6357600080fd5b806007015461025801421015611f7857600080fd5b6000816006015490507f7fffffffffffffffffffffffffffffffffffffffffffffffffffffffffffffff811115611fae57600080fd5b6000670de0b6b3a7640000611fd3836001866003015403612c3890919063ffffffff16565b81611fda57fe5b0590508260010160009054906101000a900473ffffffffffffffffffffffffffffffffffffffff1673ffffffffffffffffffffffffffffffffffffffff16636a68d0c38584846040518463ffffffff1660e01b815260040161203e93929190614560565b600060405180830381600087803b15801561205857600080fd5b505af115801561206c573d6000803e3d6000fd5b5050505060008360010160009054906101000a900473ffffffffffffffffffffffffffffffffffffffff1673ffffffffffffffffffffffffffffffffffffffff1663ac210cc76040518163ffffffff1660e01b815260040160206040518083038186803b1580156120dc57600080fd5b505afa1580156120f0573d6000803e3d6000fd5b505050506040513d601f19601f820116820180604052508101906121149190614090565b90506121a260008560000160009054906101000a900473ffffffffffffffffffffffffffffffffffffffff168660010160009054906101000a900473ffffffffffffffffffffffffffffffffffffffff16848760000361219d7fffffffffffffffffffffffffffffffffffffffffffffffffffffffffffffffff89612c3890919063ffffffff16565b61306e565b600f86815481106121af57fe5b9060005260206000209060080201600080820160006101000a81549073ffffffffffffffffffffffffffffffffffffffff02191690556001820160006101000a81549073ffffffffffffffffffffffffffffffffffffffff02191690556002820160006101000a81549073ffffffffffffffffffffffffffffffffffffffff0219169055600382016000905560048201600090556005820160006101000a81549073ffffffffffffffffffffffffffffffffffffffff0219169055600682016000905560078201600090555050505050505050565b6000809054906101000a900473ffffffffffffffffffffffffffffffffffffffff1681565b82600f80549050116122ba57600080fd5b6122c2613cce565b600f84815481106122cf57fe5b9060005260206000209060080201604051806101000160405290816000820160009054906101000a900473ffffffffffffffffffffffffffffffffffffffff1673ffffffffffffffffffffffffffffffffffffffff1673ffffffffffffffffffffffffffffffffffffffff1681526020016001820160009054906101000a900473ffffffffffffffffffffffffffffffffffffffff1673ffffffffffffffffffffffffffffffffffffffff1673ffffffffffffffffffffffffffffffffffffffff1681526020016002820160009054906101000a900473ffffffffffffffffffffffffffffffffffffffff1673ffffffffffffffffffffffffffffffffffffffff1673ffffffffffffffffffffffffffffffffffffffff16815260200160038201548152602001600482015481526020016005820160009054906101000a900473ffffffffffffffffffffffffffffffffffffffff1673ffffffffffffffffffffffffffffffffffffffff1673ffffffffffffffffffffffffffffffffffffffff16815260200160068201548152602001600782015481525050905081600010801561247f575080608001518211155b61248857600080fd5b60008160800151838360c00151028161249d57fe5b0490508084106124ac57600080fd5b6124bf8260a001518360400151856136c1565b6124ce338360400151856131a3565b6000670de0b6b3a76400006124f0838560600151612c3890919063ffffffff16565b816124f757fe5b05905060006001670de0b6b3a764000061251e888760600151612c3890919063ffffffff16565b8161252557fe5b050190506000846020015173ffffffffffffffffffffffffffffffffffffffff1663ac210cc76040518163ffffffff1660e01b815260040160206040518083038186803b15801561257557600080fd5b505afa158015612589573d6000803e3d6000fd5b505050506040513d601f19601f820116820180604052508101906125ad9190614090565b90506125c88560000151866020015189870385870385613215565b846080015186141561267c5786600f89815481106125e257fe5b90600052602060002090600802016006018190555042600f898154811061260557fe5b90600052602060002090600802016007018190555033600f898154811061262857fe5b906000526020600020906008020160050160006101000a81548173ffffffffffffffffffffffffffffffffffffffff021916908373ffffffffffffffffffffffffffffffffffffffff1602179055506128e8565b85600f898154811061268a57fe5b90600052602060002090600802016004016000828254039250508190555083600f89815481106126b657fe5b906000526020600020906008020160060160008282540392505081905550600f604051806101000160405280876000015173ffffffffffffffffffffffffffffffffffffffff168152602001876020015173ffffffffffffffffffffffffffffffffffffffff168152602001876040015173ffffffffffffffffffffffffffffffffffffffff168152602001876060015181526020018881526020013373ffffffffffffffffffffffffffffffffffffffff16815260200189815260200142815250908060018154018082558091505060019003906000526020600020906008020160009091909190915060008201518160000160006101000a81548173ffffffffffffffffffffffffffffffffffffffff021916908373ffffffffffffffffffffffffffffffffffffffff16021790555060208201518160010160006101000a81548173ffffffffffffffffffffffffffffffffffffffff021916908373ffffffffffffffffffffffffffffffffffffffff16021790555060408201518160020160006101000a81548173ffffffffffffffffffffffffffffffffffffffff021916908373ffffffffffffffffffffffffffffffffffffffff160217905550606082015181600301556080820151816004015560a08201518160050160006101000a81548173ffffffffffffffffffffffffffffffffffffffff021916908373ffffffffffffffffffffffffffffffffffffffff16021790555060c0820151816006015560e0820151816007015550505b5050505050505050565b6000809054906101000a900473ffffffffffffffffffffffffffffffffffffffff1673ffffffffffffffffffffffffffffffffffffffff163373ffffffffffffffffffffffffffffffffffffffff1614612981576040517f08c379a0000000000000000000000000000000000000000000000000000000008152600401612978906146cc565b60405180910390fd5b600073ffffffffffffffffffffffffffffffffffffffff168173ffffffffffffffffffffffffffffffffffffffff16146129f657806000806101000a81548173ffffffffffffffffffffffffffffffffffffffff021916908373ffffffffffffffffffffffffffffffffffffffff1602179055505b50565b6000816000015173ffffffffffffffffffffffffffffffffffffffff16826020015173ffffffffffffffffffffffffffffffffffffffff161415612bac576000612a4b83602001518460400151613733565b809350819250505060008084606001511215612a8057612a7b846060015160000383613a3490919063ffffffff16565b612a98565b612a97846060015183613a7e90919063ffffffff16565b5b905083608001518111612aab5780612ab1565b83608001515b90506000811115612ba55780846060018181510391508181525050808460800181815103915081815250508360600151600b60008873ffffffffffffffffffffffffffffffffffffffff1673ffffffffffffffffffffffffffffffffffffffff1681526020019081526020016000208681548110612b2b57fe5b9060005260206000209060050201600301819055508360800151600b60008873ffffffffffffffffffffffffffffffffffffffff1673ffffffffffffffffffffffffffffffffffffffff1681526020019081526020016000208681548110612b8f57fe5b9060005260206000209060050201600401819055505b5050612c31565b816000015173ffffffffffffffffffffffffffffffffffffffff1663ac210cc76040518163ffffffff1660e01b815260040160206040518083038186803b158015612bf657600080fd5b505afa158015612c0a573d6000803e3d6000fd5b505050506040513d601f19601f82011682018060405250810190612c2e9190614090565b90505b9392505050565b600080831415612c4b5760009050612d30565b7fffffffffffffffffffffffffffffffffffffffffffffffffffffffffffffffff83148015612c9957507f800000000000000000000000000000000000000000000000000000000000000082145b15612cd9576040517f08c379a0000000000000000000000000000000000000000000000000000000008152600401612cd0906146ac565b60405180910390fd5b6000828402905082848281612cea57fe5b0514612d2b576040517f08c379a0000000000000000000000000000000000000000000000000000000008152600401612d22906146ac565b60405180910390fd5b809150505b92915050565b600080821415612d7b576040517f08c379a0000000000000000000000000000000000000000000000000000000008152600401612d72906146ec565b60405180910390fd5b7fffffffffffffffffffffffffffffffffffffffffffffffffffffffffffffffff82148015612dc957507f800000000000000000000000000000000000000000000000000000000000000083145b15612e09576040517f08c379a0000000000000000000000000000000000000000000000000000000008152600401612e009061466c565b60405180910390fd5b6000828481612e1457fe5b0590508091505092915050565b600080600260008573ffffffffffffffffffffffffffffffffffffffff1673ffffffffffffffffffffffffffffffffffffffff16815260200190815260200160002060009054906101000a900473ffffffffffffffffffffffffffffffffffffffff169050600073ffffffffffffffffffffffffffffffffffffffff168173ffffffffffffffffffffffffffffffffffffffff161415612ec057600080fd5b8073ffffffffffffffffffffffffffffffffffffffff16630247c79c846040518263ffffffff1660e01b8152600401612ef9919061470c565b60206040518083038186803b158015612f1157600080fd5b505afa158015612f25573d6000803e3d6000fd5b505050506040513d601f19601f82011682018060405250810190612f4991906140b9565b91505092915050565b60008273ffffffffffffffffffffffffffffffffffffffff166389d1a0fc6040518163ffffffff1660e01b815260040160206040518083038186803b158015612f9a57600080fd5b505afa158015612fae573d6000803e3d6000fd5b505050506040513d601f19601f82011682018060405250810190612fd29190613e3c565b905061302682600360008473ffffffffffffffffffffffffffffffffffffffff1673ffffffffffffffffffffffffffffffffffffffff16815260200190815260200160002054613a3490919063ffffffff16565b600360008373ffffffffffffffffffffffffffffffffffffffff1673ffffffffffffffffffffffffffffffffffffffff16815260200190815260200160002081905550505050565b8273ffffffffffffffffffffffffffffffffffffffff16637c9dd78987878786866040518663ffffffff1660e01b81526004016130af959493929190614597565b600060405180830381600087803b1580156130c957600080fd5b505af11580156130dd573d6000803e3d6000fd5b50505050505050505050565b6000808314156130fc5760009050613153565b600082840290508284828161310d57fe5b041461314e576040517f08c379a00000000000000000000000000000000000000000000000000000000081526004016131459061468c565b60405180910390fd5b809150505b92915050565b600061319b83836040518060400160405280601a81526020017f536166654d6174683a206469766973696f6e206279207a65726f000000000000815250613ad3565b905092915050565b8173ffffffffffffffffffffffffffffffffffffffff1663fc2807f184836040518363ffffffff1660e01b81526004016131de929190614537565b600060405180830381600087803b1580156131f857600080fd5b505af115801561320c573d6000803e3d6000fd5b50505050505050565b6000600560008773ffffffffffffffffffffffffffffffffffffffff1673ffffffffffffffffffffffffffffffffffffffff16815260200190815260200160002060008673ffffffffffffffffffffffffffffffffffffffff1673ffffffffffffffffffffffffffffffffffffffff16815260200190815260200160002090506000600660008773ffffffffffffffffffffffffffffffffffffffff1673ffffffffffffffffffffffffffffffffffffffff16815260200190815260200160002090506000600d5490506000612710828802816132ee57fe5b04905060006127108388028161330057fe5b05905061331a828660000154613a7e90919063ffffffff16565b8560000181905550613339818660010154613b3490919063ffffffff16565b85600101819055506000828903905060008289039050613366828760000154613a7e90919063ffffffff16565b8660000181905550613385818760010154613b3490919063ffffffff16565b866001018190555061340860018d8d8b6133d07fffffffffffffffffffffffffffffffffffffffffffffffffffffffffffffffff6133c289613bac565b612c3890919063ffffffff16565b6134037fffffffffffffffffffffffffffffffffffffffffffffffffffffffffffffffff88612c3890919063ffffffff16565b61306e565b6000600c60009054906101000a900473ffffffffffffffffffffffffffffffffffffffff16905060008173ffffffffffffffffffffffffffffffffffffffff16637348c8576040518163ffffffff1660e01b815260040160206040518083038186803b15801561347757600080fd5b505afa15801561348b573d6000803e3d6000fd5b505050506040513d601f19601f820116820180604052508101906134af9190614067565b15613539578173ffffffffffffffffffffffffffffffffffffffff1663489e09516040518163ffffffff1660e01b815260040160206040518083038186803b1580156134fa57600080fd5b505afa15801561350e573d6000803e3d6000fd5b505050506040513d601f19601f820116820180604052508101906135329190613e3c565b905061369a565b6000809054906101000a900473ffffffffffffffffffffffffffffffffffffffff16905060008d90506135b785600760008473ffffffffffffffffffffffffffffffffffffffff1673ffffffffffffffffffffffffffffffffffffffff16815260200190815260200160002060000154613a7e90919063ffffffff16565b600760008373ffffffffffffffffffffffffffffffffffffffff1673ffffffffffffffffffffffffffffffffffffffff1681526020019081526020016000206000018190555061365284600760008473ffffffffffffffffffffffffffffffffffffffff1673ffffffffffffffffffffffffffffffffffffffff16815260200190815260200160002060010154613b3490919063ffffffff16565b600760008373ffffffffffffffffffffffffffffffffffffffff1673ffffffffffffffffffffffffffffffffffffffff16815260200190815260200160002060010181905550505b6136b16000828f8d6136ab89613bac565b8861306e565b5050505050505050505050505050565b8173ffffffffffffffffffffffffffffffffffffffff1663af0b460684836040518363ffffffff1660e01b81526004016136fc929190614537565b600060405180830381600087803b15801561371657600080fd5b505af115801561372a573d6000803e3d6000fd5b50505050505050565b6000808373ffffffffffffffffffffffffffffffffffffffff1663fd23ae026040518163ffffffff1660e01b815260040160206040518083038186803b15801561377c57600080fd5b505afa158015613790573d6000803e3d6000fd5b505050506040513d601f19601f820116820180604052508101906137b49190614067565b156138e75760008473ffffffffffffffffffffffffffffffffffffffff1663cfe8d91c6040518163ffffffff1660e01b815260040160206040518083038186803b15801561380157600080fd5b505afa158015613815573d6000803e3d6000fd5b505050506040513d601f19601f8201168201806040525081019061383991906140b9565b9050670de0b6b3a764000061385785836130e990919063ffffffff16565b8161385e57fe5b0492508473ffffffffffffffffffffffffffffffffffffffff1663ac210cc76040518163ffffffff1660e01b815260040160206040518083038186803b1580156138a757600080fd5b505afa1580156138bb573d6000803e3d6000fd5b505050506040513d601f19601f820116820180604052508101906138df9190614090565b915050613a2d565b8373ffffffffffffffffffffffffffffffffffffffff1663ac210cc76040518163ffffffff1660e01b815260040160206040518083038186803b15801561392d57600080fd5b505afa158015613941573d6000803e3d6000fd5b505050506040513d601f19601f820116820180604052508101906139659190614090565b9050600073ffffffffffffffffffffffffffffffffffffffff168173ffffffffffffffffffffffffffffffffffffffff1614156139a157600080fd5b8073ffffffffffffffffffffffffffffffffffffffff16630247c79c846040518263ffffffff1660e01b81526004016139da919061470c565b60206040518083038186803b1580156139f257600080fd5b505afa158015613a06573d6000803e3d6000fd5b505050506040513d601f19601f82011682018060405250810190613a2a91906140b9565b91505b9250929050565b6000613a7683836040518060400160405280601e81526020017f536166654d6174683a207375627472616374696f6e206f766572666c6f770000815250613c18565b905092915050565b600080828401905083811015613ac9576040517f08c379a0000000000000000000000000000000000000000000000000000000008152600401613ac09061460c565b60405180910390fd5b8091505092915050565b60008083118290613b1a576040517f08c379a0000000000000000000000000000000000000000000000000000000008152600401613b1191906145ea565b60405180910390fd5b506000838581613b2657fe5b049050809150509392505050565b600080828401905060008312158015613b4d5750838112155b80613b635750600083128015613b6257508381125b5b613ba2576040517f08c379a0000000000000000000000000000000000000000000000000000000008152600401613b999061462c565b60405180910390fd5b8091505092915050565b60007fffffffffffffffffffffffffffffffffffffffffffffffffffffffffffffffff8291508113613c13576040517f08c379a0000000000000000000000000000000000000000000000000000000008152600401613c0a9061464c565b60405180910390fd5b919050565b6000838311158290613c60576040517f08c379a0000000000000000000000000000000000000000000000000000000008152600401613c5791906145ea565b60405180910390fd5b5060008385039050809150509392505050565b6040518060a00160405280600073ffffffffffffffffffffffffffffffffffffffff168152602001600073ffffffffffffffffffffffffffffffffffffffff1681526020016000815260200160008152602001600081525090565b604051806101000160405280600073ffffffffffffffffffffffffffffffffffffffff168152602001600073ffffffffffffffffffffffffffffffffffffffff168152602001600073ffffffffffffffffffffffffffffffffffffffff1681526020016000815260200160008152602001600073ffffffffffffffffffffffffffffffffffffffff16815260200160008152602001600081525090565b600081359050613d7a816147fc565b92915050565b600081519050613d8f816147fc565b92915050565b600081519050613da481614813565b92915050565b600081519050613db98161482a565b92915050565b600081359050613dce81614841565b92915050565b600081359050613de381614858565b92915050565b600081519050613df881614858565b92915050565b600081519050613e0d8161486f565b92915050565b600060208284031215613e2557600080fd5b6000613e3384828501613d6b565b91505092915050565b600060208284031215613e4e57600080fd5b6000613e5c84828501613d80565b91505092915050565b600080600080600080600060e0888a031215613e8057600080fd5b6000613e8e8a828b01613d6b565b9750506020613e9f8a828b01613dd4565b9650506040613eb08a828b01613d6b565b9550506060613ec18a828b01613d6b565b9450506080613ed28a828b01613dd4565b93505060a0613ee38a828b01613dbf565b92505060c0613ef48a828b01613dd4565b91505092959891949750929550565b600080600080600080600080610100898b031215613f2057600080fd5b6000613f2e8b828c01613d6b565b9850506020613f3f8b828c01613dd4565b9750506040613f508b828c01613d6b565b9650506060613f618b828c01613d6b565b9550506080613f728b828c01613dd4565b94505060a0613f838b828c01613dbf565b93505060c0613f948b828c01613dd4565b92505060e0613fa58b828c01613d6b565b9150509295985092959890939650565b600080600080600080600080610100898b031215613fd257600080fd5b6000613fe08b828c01613d6b565b9850506020613ff18b828c01613dd4565b97505060406140028b828c01613d6b565b96505060606140138b828c01613d6b565b95505060806140248b828c01613dd4565b94505060a06140358b828c01613dd4565b93505060c06140468b828c01613dbf565b92505060e06140578b828c01613d6b565b9150509295985092959890939650565b60006020828403121561407957600080fd5b600061408784828501613d95565b91505092915050565b6000602082840312156140a257600080fd5b60006140b084828501613daa565b91505092915050565b6000602082840312156140cb57600080fd5b60006140d984828501613de9565b91505092915050565b600080604083850312156140f557600080fd5b600061410385828601613dd4565b925050602061411485828601613d6b565b9150509250929050565b60008060006060848603121561413357600080fd5b600061414186828701613dd4565b935050602061415286828701613dd4565b925050604061416386828701613dd4565b9150509250925092565b60006020828403121561417f57600080fd5b600061418d84828501613dfe565b91505092915050565b61419f81614743565b82525050565b6141ae81614755565b82525050565b6141bd81614773565b82525050565b60006141ce82614727565b6141d88185614732565b93506141e88185602086016147b8565b6141f1816147eb565b840191505092915050565b6000614209601b83614732565b91507f536166654d6174683a206164646974696f6e206f766572666c6f7700000000006000830152602082019050919050565b6000614249602183614732565b91507f5369676e6564536166654d6174683a206164646974696f6e206f766572666c6f60008301527f77000000000000000000000000000000000000000000000000000000000000006020830152604082019050919050565b60006142af602883614732565b91507f536166654d6174683a20696e76616c69642075696e7420746f20696e7420636f60008301527f6e76657273696f6e0000000000000000000000000000000000000000000000006020830152604082019050919050565b6000614315602183614732565b91507f5369676e6564536166654d6174683a206469766973696f6e206f766572666c6f60008301527f77000000000000000000000000000000000000000000000000000000000000006020830152604082019050919050565b600061437b602183614732565b91507f536166654d6174683a206d756c7469706c69636174696f6e206f766572666c6f60008301527f77000000000000000000000000000000000000000000000000000000000000006020830152604082019050919050565b60006143e1602783614732565b91507f5369676e6564536166654d6174683a206d756c7469706c69636174696f6e206f60008301527f766572666c6f77000000000000000000000000000000000000000000000000006020830152604082019050919050565b6000614447600a83614732565b91507f6f6e6c79206f776e6572000000000000000000000000000000000000000000006000830152602082019050919050565b6000614487602083614732565b91507f5369676e6564536166654d6174683a206469766973696f6e206279207a65726f6000830152602082019050919050565b6144c38161479d565b82525050565b60006020820190506144de6000830184614196565b92915050565b600060a0820190506144f96000830188614196565b6145066020830187614196565b61451360408301866144ba565b61452060608301856141b4565b61452d60808301846144ba565b9695505050505050565b600060408201905061454c6000830185614196565b61455960208301846144ba565b9392505050565b60006060820190506145756000830186614196565b61458260208301856144ba565b61458f60408301846141b4565b949350505050565b600060a0820190506145ac60008301886141a5565b6145b96020830187614196565b6145c66040830186614196565b6145d360608301856141b4565b6145e060808301846141b4565b9695505050505050565b6000602082019050818103600083015261460481846141c3565b905092915050565b60006020820190508181036000830152614625816141fc565b9050919050565b600060208201905081810360008301526146458161423c565b9050919050565b60006020820190508181036000830152614665816142a2565b9050919050565b6000602082019050818103600083015261468581614308565b9050919050565b600060208201905081810360008301526146a58161436e565b9050919050565b600060208201905081810360008301526146c5816143d4565b9050919050565b600060208201905081810360008301526146e58161443a565b9050919050565b600060208201905081810360008301526147058161447a565b9050919050565b600060208201905061472160008301846144ba565b92915050565b600081519050919050565b600082825260208201905092915050565b600061474e8261477d565b9050919050565b60008115159050919050565b600061476c82614743565b9050919050565b6000819050919050565b600073ffffffffffffffffffffffffffffffffffffffff82169050919050565b6000819050919050565b600064ffffffffff82169050919050565b60005b838110156147d65780820151818401526020810190506147bb565b838111156147e5576000848401525b50505050565b6000601f19601f8301169050919050565b61480581614743565b811461481057600080fd5b50565b61481c81614755565b811461482757600080fd5b50565b61483381614761565b811461483e57600080fd5b50565b61484a81614773565b811461485557600080fd5b50565b6148618161479d565b811461486c57600080fd5b50565b614878816147a7565b811461488357600080fd5b5056fea2646970667358221220501220156f7ced4abc38b429a38e4a1f3c8a7088075e6ae7e9bac4dbb508ec7264736f6c63430006080033",
  "immutableReferences": {},
  "source": "// SPDX-License-Identifier: MIT\npragma experimental ABIEncoderV2;\npragma solidity >=0.6.8 <0.7.0;\n\nimport \"../../libraries/SafeMath.sol\";\nimport \"../../libraries/SignedSafeMath.sol\";\nimport \"../../interfaces/IVaultManagerFlashReceiver.sol\";\nimport \"../../interfaces/IFixCapitalPool.sol\";\nimport \"../../interfaces/IZeroCouponBond.sol\";\nimport \"../../interfaces/IVaultHealth.sol\";\nimport \"../../interfaces/IWrapper.sol\";\nimport \"../../interfaces/IERC20.sol\";\nimport \"../../helpers/Ownable.sol\";\nimport \"./NSFVaultFactoryDelegateParent.sol\";\n\ncontract NSFVaultFactoryDelegate4 is NSFVaultFactoryDelegateParent {\n\tusing SafeMath for uint;\n\tusing SignedSafeMath for int;\n\n\t/*\n\t\t@Description: send a vault that is under the upper collateralization limit to the auction house\n\n\t\t@param address _owner: the owner of the vault to send to auction\n\t\t@param uint _index: the index of the vault in vaults[_owner] to send to auction\n\t\t@param address _FCPborrowed: the address of the FCP contract corresponding to the borrowed ZCB\n\t\t@param address _FCPsupplied: the address of the FCP contract corresponding to the supplied ZCB & YT\n\t\t@param uint _bidYield: the first bid (in YT corresponding _FCPsupplied) made by msg.sender on the vault\n\t\t\tZCB of bid is calculated by finding the corresponding amount of ZCB based on the ratio of YT to ZCB\n\t\t@param int _minBondRatio: the miniumum value of vault.bondSupplied/vault.yieldSupplied inflated by (1 ether)\n\t\t\tif ratio is below _minBondRatio tx will revert\n\t\t@param uint _amtIn: the amount of the borrowed ZCB to send in\n\t*/\n\tfunction auctionYTLiquidation(address _owner, uint _index, address _FCPborrowed, address _FCPsupplied, uint _bidYield, int _minBondRatio, uint _amtIn) external {\n\t\trequire(_YTvaults[_owner].length > _index);\n\t\tYTVault memory vault = _YTvaults[_owner][_index];\n\t\tautopayYTVault(_owner, _index, vault);\n\t\trequire(vault.FCPborrowed == _FCPborrowed);\n\t\trequire(vault.FCPsupplied == _FCPsupplied);\n\t\trequire(vault.amountBorrowed >= _amtIn && _amtIn > 0);\n\t\tuint maxBid = vault.yieldSupplied * _amtIn / vault.amountBorrowed;\n\t\trequire(maxBid >= _bidYield);\n\n\t\t//add 1 to ratio to account for rounding error\n\t\tint bondRatio = vault.bondSupplied.mul(1 ether).div(int(vault.yieldSupplied)) + 1;\n\t\trequire(bondRatio >= _minBondRatio);\n\n\n\t\tif (vaultHealthContract.YTvaultSatisfiesUpperLimit(vault.FCPsupplied, vault.FCPborrowed, vault.yieldSupplied, vault.bondSupplied, vault.amountBorrowed)) {\n\t\t\tuint maturity = IFixCapitalPool(vault.FCPborrowed).maturity();\n\t\t\trequire(maturity < block.timestamp + MAX_TIME_TO_MATURITY);\n\t\t}\n\t\t//burn borrowed ZCB\n\t\tcollectBid(msg.sender, vault.FCPborrowed, _amtIn);\n\t\tlowerShortInterest(vault.FCPborrowed, _amtIn);\n\t\t//any surplus in the bid may be added as _revenue\n\t\tif (_bidYield < maxBid){\n\t\t\tint bondBid = bondRatio.mul(int(_bidYield)) / (1 ether);\n\t\t\tint bondCorrespondingToMaxBid = vault.bondSupplied.mul(int(_amtIn)).div(int(vault.amountBorrowed));\n\t\t\taddress baseWrapper = address(IFixCapitalPool(vault.FCPsupplied).wrapper());\n\t\t\tdistributeYTSurplus(_owner, vault.FCPsupplied, maxBid - _bidYield, bondCorrespondingToMaxBid - bondBid, baseWrapper);\n\t\t}\n\t\tif (_amtIn == vault.amountBorrowed) {\n\t\t\tdelete _YTvaults[_owner][_index];\n\t\t}\n\t\telse {\n\t\t\t_YTvaults[_owner][_index].amountBorrowed -= _amtIn;\n\t\t\t_YTvaults[_owner][_index].yieldSupplied -= maxBid;\n\t\t\tint bondCorrespondingToMaxBid = bondRatio.mul(int(maxBid)) / (1 ether);\n\t\t\t_YTvaults[_owner][_index].bondSupplied -= bondCorrespondingToMaxBid;\n\t\t}\n\t\t_YTLiquidations.push(YTLiquidation(\n\t\t\t_owner,\n\t\t\tvault.FCPsupplied,\n\t\t\tvault.FCPborrowed,\n\t\t\tbondRatio,\n\t\t\t_amtIn,\n\t\t\tmsg.sender,\n\t\t\t_bidYield,\n\t\t\tblock.timestamp\n\t\t));\n\t}\n\n\t/*\n\t\t@Description: place a new bid on a YT vault that has already begun an auction\n\n\t\t@param uint _index: the index in _YTLiquidations[] of the auction\n\t\t@param uint _bidYield: the bid (in YT corresponding _FCPsupplied) made by msg.sender on the vault\n\t\t\tZCB of bid is calculated by finding the corresponding amount of ZCB based on the ratio of YT to ZCB\n\t\t@param uint _amtIn: the amount of borrowed asset that the liquidator will be sending in\n\t*/\n\tfunction bidOnYTLiquidation(uint _index, uint _bidYield, uint _amtIn) external {\n\t\trequire(_YTLiquidations.length > _index);\n\t\tYTLiquidation memory liq = _YTLiquidations[_index];\n\t\trequire(0 < _amtIn && _amtIn <= liq.amountBorrowed);\n\t\tuint maxBid = liq.bidAmount * _amtIn / liq.amountBorrowed;\n\t\trequire(_bidYield < maxBid);\n\n\t\trefundBid(liq.bidder, liq.FCPborrowed, _amtIn);\n\t\tcollectBid(msg.sender, liq.FCPborrowed, _amtIn);\n\n\t\tint bondCorrespondingToMaxBid = liq.bondRatio.mul(int(maxBid)) / (1 ether);\n\t\tint bondBid = (liq.bondRatio.mul(int(_bidYield)) / (1 ether)) + 1;\n\t\taddress baseWrapper = address(IFixCapitalPool(liq.FCPsupplied).wrapper());\n\t\tdistributeYTSurplus(liq.vaultOwner, liq.FCPsupplied, maxBid - _bidYield, bondCorrespondingToMaxBid - bondBid, baseWrapper);\n\n\t\tif (_amtIn == liq.amountBorrowed) {\n\t\t\t_YTLiquidations[_index].bidAmount = _bidYield;\n\t\t\t_YTLiquidations[_index].bidTimestamp = block.timestamp;\n\t\t\t_YTLiquidations[_index].bidder = msg.sender;\n\t\t}\n\t\telse {\n\t\t\t_YTLiquidations[_index].amountBorrowed -= _amtIn;\n\t\t\t_YTLiquidations[_index].bidAmount -= maxBid;\n\n\t\t\t_YTLiquidations.push(YTLiquidation(\n\t\t\t\tliq.vaultOwner,\n\t\t\t\tliq.FCPsupplied,\n\t\t\t\tliq.FCPborrowed,\n\t\t\t\tliq.bondRatio,\n\t\t\t\t_amtIn,\n\t\t\t\tmsg.sender,\n\t\t\t\t_bidYield,\n\t\t\t\tblock.timestamp\n\t\t\t));\n\t\t}\n\t}\n\n\t/*\n\t\t@Description: claim the collateral of a YT vault from an auction that was won by msg.sender\n\n\t\t@param uint _index: the index in YTLiquidations[] of the auction\n\t\t@param address _to: the address to which to send the proceeds\n\t*/\n\tfunction claimYTLiquidation(uint _index, address _to) external {\n\t\trequire(_YTLiquidations.length > _index);\n\t\tYTLiquidation storage liq = _YTLiquidations[_index];\n\t\trequire(msg.sender == liq.bidder);\n\t\trequire(block.timestamp >= AUCTION_COOLDOWN + liq.bidTimestamp);\n\t\tuint bidAmt = liq.bidAmount;\n\t\trequire(bidAmt <= uint(type(int256).max));\n\t\tint bondBid = (liq.bondRatio-1).mul(int(bidAmt)) / (1 ether);\n\t\tIFixCapitalPool(liq.FCPsupplied).transferPosition(_to, bidAmt, bondBid);\n\t\taddress baseWrapper = address(IFixCapitalPool(liq.FCPsupplied).wrapper());\n\t\teditSubAccountYTVault(false, liq.vaultOwner, liq.FCPsupplied, baseWrapper, -int(bidAmt), bondBid.mul(-1));\n\t\tdelete _YTLiquidations[_index];\n\t}\n\n\t/*\n\t\t@Description: when there is less than 1 day until maturity or vaults are under the lower collateralisation limit \n\t\t\tvaults may be liquidated instantly without going through the auction process, this is intended to help the VaultFactory\n\t\t\tkeep solvency in the event of a market crisis\n\t\t\tthis function is used when a liquidator would like to liquidate the entire vault\n\t\t@param address _owner: the owner of the vault to send to auction\n\t\t@param uint _index: the index of the vault in vaults[_owner] to send to auction\n\t\t@param address _FCPborrowed: the address of the FCP contract corresponding to the borrowed ZCB\n\t\t@param address _FCPsupplied: the address of the FCP contract corresponding to the supplied ZCB & YT\n\t\t@param uint _maxIn: the maximum amount of the borrowed asset that msg.sender is willing to send in\n\t\t@param int _minBondRatio: the minimum value of vault.bondSupplied / vault.yieldSupplied inflated by (1 ether)\n\t\t\tif the actual bond ratio of the vault is < _minBondRatio tx will revert\n\t\t@param uint _minOut: the minimum amount of YT from _FCPsupplied that msg.sender wants to receive from this liquidation\n\t\t@param address _to: the address to which to send all of the collateral from the vault\n\t*/\n\tfunction instantYTLiquidation(address _owner, uint _index, address _FCPborrowed, address _FCPsupplied, uint _maxIn, uint _minOut, int _minBondRatio, address _to) external {\n\t\trequire(_YTvaults[_owner].length > _index);\n\t\tYTVault memory vault = _YTvaults[_owner][_index];\n\t\taddress baseWrapperSupplied = autopayYTVault(_owner, _index, vault);\n\t\trequire(vault.FCPborrowed == _FCPborrowed);\n\t\trequire(vault.FCPsupplied == _FCPsupplied);\n\t\trequire(vault.amountBorrowed <= _maxIn);\n\t\trequire(vault.yieldSupplied >= _minOut && _minOut > 0);\n\t\trequire(vault.yieldSupplied <= uint(type(int256).max));\n\n\t\t//when we find bondRatio here we don't need to account for the rounding error because the only prupose of this variable is \n\t\t//the require statement below, other than that it has no impact on the distribution of funds\n\t\tint bondRatio = vault.bondSupplied.mul(1 ether).div(int(vault.yieldSupplied));\n\t\trequire(bondRatio >= _minBondRatio);\n\n\n\t\tif (IFixCapitalPool(_FCPborrowed).maturity() >= block.timestamp + CRITICAL_TIME_TO_MATURITY) {\n\t\t\tuint unitAmountYield = getUnitValueYield(vault.FCPsupplied, vault.yieldSupplied);\n\t\n\t\t\trequire(!vaultHealthContract.YTvaultSatisfiesLowerLimit(\n\t\t\t\tvault.FCPsupplied,\n\t\t\t\tvault.FCPborrowed,\n\t\t\t\tunitAmountYield,\n\t\t\t\tvault.bondSupplied,\n\t\t\t\tvault.amountBorrowed\n\t\t\t));\n\t\t}\n\n\t\t//burn borrowed ZCB\n\t\tIFixCapitalPool(_FCPborrowed).burnZCBFrom(_to, vault.amountBorrowed);\n\t\tlowerShortInterest(_FCPborrowed, vault.amountBorrowed);\n\t\tIFixCapitalPool(_FCPsupplied).transferPosition(_to, vault.yieldSupplied, vault.bondSupplied);\n\t\teditSubAccountYTVault(false, _owner, vault.FCPsupplied, baseWrapperSupplied, -int(vault.yieldSupplied), vault.bondSupplied.mul(-1));\n\n\t\tdelete _YTvaults[_owner][_index];\n\t}\n\n\n\n\t/*\n\t\t@Description: when there is less than 1 day until maturity or vaults are under the lower collateralisation limit \n\t\t\tvaults may be liquidated instantly without going through the auction process, this is intended to help the VaultFactory\n\t\t\tkeep solvency in the event of a market crisis\n\t\t\tthis function is used when a liquidator whould like to only partially liquidate the vault by providing a specific\n\t\t\tamount of the borrowed asset and receiving the corresponding percentage of the vault's collateral\n\t\t@param address _owner: the owner of the vault to send to auction\n\t\t@param uint _index: the index of the vault in vaults[_owner] to send to auction\n\t\t@param address _FCPborrowed: the address of the FCP contract corresponding to the borrowed ZCB\n\t\t@param address _FCPsupplied: the address of the FCP contract corresponding to the supplied ZCB & YT\n\t\t@param uint _in: the amount of the borrowed asset to supply to the vault\n\t\t@param int _minBondRatio: the minimum value of vault.bondSupplied / vault.yieldSupplied inflated by (1 ether)\n\t\t\tif the actual bond ratio of the vault is < _minBondRatio tx will revert\n\t\t@param uint _minOut: the minimum amount of YT from _FCPsupplied that msg.sender wants to receive from this liquidation\n\t\t@param address _to: the address to which to send all of the collateral from the vault\n\t*/\n\tfunction partialYTLiquidationSpecificIn(address _owner, uint _index, address _FCPborrowed, address _FCPsupplied, uint _in, uint _minOut, int _minBondRatio, address _to) external {\n\t\trequire(_YTvaults[_owner].length > _index);\n\t\tYTVault memory vault = _YTvaults[_owner][_index];\n\t\taddress baseWrapperSupplied = autopayYTVault(_owner, _index, vault);\n\t\trequire(vault.FCPborrowed == _FCPborrowed);\n\t\trequire(vault.FCPsupplied == _FCPsupplied);\n\t\trequire(0 < _in && _in <= vault.amountBorrowed);\n\n\t\t//when we find bondRatio here we don't need to account for the rounding error because the only prupose of this variable is \n\t\t//the require statement below, other than that it has no impact on the distribution of funds\n\t\tint bondRatio = vault.bondSupplied.mul(1 ether).div(int(vault.yieldSupplied));\n\t\trequire(bondRatio >= _minBondRatio);\n\t\tuint yieldOut = vault.yieldSupplied.mul(_in).div(vault.amountBorrowed);\n\t\trequire(yieldOut >= _minOut);\n\t\trequire(yieldOut <= uint(type(int256).max));\n\t\tint bondOut = vault.bondSupplied.mul(int(_in)).div(int(vault.amountBorrowed));\n\n\t\tif (IFixCapitalPool(_FCPborrowed).maturity() >= block.timestamp + CRITICAL_TIME_TO_MATURITY) {\n\t\t\tuint unitAmountYield = getUnitValueYield(vault.FCPsupplied, vault.yieldSupplied);\n\t\n\t\t\trequire(!vaultHealthContract.YTvaultSatisfiesLowerLimit(\n\t\t\t\tvault.FCPsupplied,\n\t\t\t\tvault.FCPborrowed,\n\t\t\t\tunitAmountYield,\n\t\t\t\tvault.bondSupplied,\n\t\t\t\tvault.amountBorrowed\n\t\t\t));\n\t\t}\n\t\t//burn borrowed ZCB\n\t\tIFixCapitalPool(_FCPborrowed).burnZCBFrom(_to, _in);\n\t\tlowerShortInterest(_FCPborrowed, _in);\n\t\tIFixCapitalPool(_FCPsupplied).transferPosition(_to, yieldOut, bondOut);\n\t\teditSubAccountYTVault(false, _owner, vault.FCPsupplied, baseWrapperSupplied, -int(yieldOut), bondOut.mul(-1));\n\n\t\t_YTvaults[_owner][_index].amountBorrowed -= _in;\n\t\t_YTvaults[_owner][_index].yieldSupplied -= yieldOut;\n\t\t_YTvaults[_owner][_index].bondSupplied -= bondOut;\n\t}\n\n\t/*\n\t\t@Description: when there is less than 1 day until maturity or vaults are under the lower collateralisation limit \n\t\t\tvaults may be liquidated instantly without going through the auction process, this is intended to help the VaultFactory\n\t\t\tkeep solvency in the event of a market crisis\n\t\t\tthis function is used when a liquidator whould like to only partially liquidate the vault by receiving a specific\n\t\t\tamount of YT corresponding to _FCPsupplied and sending the corresponding amount of assetBorrowed\n\t\t@param address _owner: the owner of the vault to send to auction\n\t\t@param uint _index: the index of the vault in vaults[_owner] to send to auction\n\t\t@param address _FCPborrowed: the address of the FCP contract corresponding to the borrowed ZCB\n\t\t@param address _FCPsupplied: the address of the FCP contract corresponding to the supplied ZCB & YT\n\t\t@param uint _out: the amount of YT corresponding to _FCPsupplied to receive from the vault\n\t\t@param int _minBondOut: the minimum value of bond when transferPosition is called to payout liquidator\n\t\t\tif the actual bond out is < _minBondOut tx will revert\n\t\t@param uint _maxIn: the maximum amount of assetBorrowed that msg.sender is willing to bid on the vault\n\t\t@param address _to: the address to which to send all of the collateral from the vault\n\t*/\n\tfunction partialYTLiquidationSpecificOut(address _owner, uint _index, address _FCPborrowed, address _FCPsupplied, uint _out, int _minBondOut, uint _maxIn, address _to) external {\n\t\trequire(_YTvaults[_owner].length > _index);\n\t\trequire(_out <= uint(type(int256).max));\n\t\tYTVault memory vault = _YTvaults[_owner][_index];\n\t\taddress baseWrapperSupplied = autopayYTVault(_owner, _index, vault);\n\t\trequire(vault.FCPborrowed == _FCPborrowed);\n\t\trequire(vault.FCPsupplied == _FCPsupplied);\n\t\trequire(vault.yieldSupplied >= _out);\n\t\tuint amtIn = _out*vault.amountBorrowed;\n\t\tamtIn = amtIn/vault.yieldSupplied + (amtIn%vault.yieldSupplied == 0 ? 0 : 1);\n\t\trequire(0 < amtIn && amtIn <= _maxIn);\n\n\t\tint bondOut = vault.bondSupplied.mul(int(_out)).div(int(vault.yieldSupplied));\n\t\trequire(bondOut >= _minBondOut);\n\n\t\tif (IFixCapitalPool(_FCPborrowed).maturity() >= block.timestamp + CRITICAL_TIME_TO_MATURITY) {\n\t\t\tuint unitAmountYield = getUnitValueYield(vault.FCPsupplied, vault.yieldSupplied);\n\n\t\t\trequire(!vaultHealthContract.YTvaultSatisfiesLowerLimit(\n\t\t\t\tvault.FCPsupplied,\n\t\t\t\tvault.FCPborrowed,\n\t\t\t\tunitAmountYield,\n\t\t\t\tvault.bondSupplied,\n\t\t\t\tvault.amountBorrowed\n\t\t\t));\n\t\t}\n\n\t\t//burn borrowed ZCB\n\t\tIFixCapitalPool(_FCPborrowed).burnZCBFrom(_to, amtIn);\n\t\tlowerShortInterest(_FCPborrowed, amtIn);\n\t\tIFixCapitalPool(_FCPsupplied).transferPosition(_to, _out, bondOut);\n\t\teditSubAccountYTVault(false, _owner, vault.FCPsupplied, baseWrapperSupplied, -int(_out), bondOut.mul(-1));\n\n\t\t_YTvaults[_owner][_index].amountBorrowed -= amtIn;\n\t\t_YTvaults[_owner][_index].yieldSupplied -= _out;\n\t\t_YTvaults[_owner][_index].bondSupplied -= bondOut;\n\t}\n}\n",
  "sourcePath": "/home/asher/FixFinanceV1/contracts/VaultFactory/NoStabilityFee/NSFVaultFactoryDelegate4.sol",
  "compiler": {
    "name": "solc",
    "version": "0.6.8+commit.0bbfe453.Emscripten.clang"
  },
  "schemaVersion": "3.4.1",
  "updatedAt": "2021-11-26T19:15:55.527Z",
  "devdoc": {
    "methods": {}
  },
  "userdoc": {
    "methods": {}
  }
}