{
  "contractName": "OracleContainer",
  "abi": [
    {
      "inputs": [
        {
          "internalType": "address",
          "name": "_aETH",
          "type": "address"
        }
      ],
      "stateMutability": "nonpayable",
      "type": "constructor"
    },
    {
      "inputs": [],
      "name": "owner",
      "outputs": [
        {
          "internalType": "address",
          "name": "",
          "type": "address"
        }
      ],
      "stateMutability": "view",
      "type": "function"
    },
    {
      "inputs": [
        {
          "internalType": "address",
          "name": "newOwner",
          "type": "address"
        }
      ],
      "name": "transferOwnership",
      "outputs": [],
      "stateMutability": "nonpayable",
      "type": "function"
    },
    {
      "inputs": [
        {
          "internalType": "address[]",
          "name": "_facades",
          "type": "address[]"
        }
      ],
      "name": "addAggregators",
      "outputs": [],
      "stateMutability": "nonpayable",
      "type": "function"
    },
    {
      "inputs": [
        {
          "internalType": "address",
          "name": "_aTokenAddress",
          "type": "address"
        },
        {
          "internalType": "string",
          "name": "phrase",
          "type": "string"
        }
      ],
      "name": "AddAToken",
      "outputs": [],
      "stateMutability": "nonpayable",
      "type": "function"
    },
    {
      "inputs": [
        {
          "internalType": "string",
          "name": "_phrase",
          "type": "string"
        }
      ],
      "name": "BaseAggregatorAddress",
      "outputs": [
        {
          "internalType": "address",
          "name": "addr",
          "type": "address"
        }
      ],
      "stateMutability": "view",
      "type": "function"
    },
    {
      "inputs": [
        {
          "internalType": "address",
          "name": "_aTokenAddress",
          "type": "address"
        }
      ],
      "name": "AssetPhrase",
      "outputs": [
        {
          "internalType": "string",
          "name": "phrase",
          "type": "string"
        }
      ],
      "stateMutability": "view",
      "type": "function"
    },
    {
      "inputs": [
        {
          "internalType": "string",
          "name": "_phrase",
          "type": "string"
        }
      ],
      "name": "phraseToLatestPrice",
      "outputs": [
        {
          "internalType": "uint256",
          "name": "spot",
          "type": "uint256"
        },
        {
          "internalType": "uint8",
          "name": "decimals",
          "type": "uint8"
        }
      ],
      "stateMutability": "view",
      "type": "function"
    },
    {
      "inputs": [
        {
          "internalType": "address",
          "name": "_assetAddress",
          "type": "address"
        }
      ],
      "name": "getAssetPrice",
      "outputs": [
        {
          "internalType": "uint256",
          "name": "",
          "type": "uint256"
        }
      ],
      "stateMutability": "view",
      "type": "function"
    }
  ],
  "bytecode": "0x60a060405234801561001057600080fd5b5060405161164a38038061164a8339818101604052602081101561003357600080fd5b8101908080519060200190929190505050336000806101000a81548173ffffffffffffffffffffffffffffffffffffffff021916908373ffffffffffffffffffffffffffffffffffffffff1602179055508073ffffffffffffffffffffffffffffffffffffffff1660808173ffffffffffffffffffffffffffffffffffffffff1660601b815250505060805160601c6115716100d960003980610c6952506115716000f3fe608060405234801561001057600080fd5b50600436106100885760003560e01c80639c4de1521161005b5780639c4de152146102e2578063b3596f071461037b578063c6223df1146103d3578063f2fde38b1461049057610088565b80632bb238b11461008d5780633069cde11461012757806358eb0552146101e05780638da5cb5b14610298575b600080fd5b610104600480360360208110156100a357600080fd5b81019080803590602001906401000000008111156100c057600080fd5b8201836020820111156100d257600080fd5b803590602001918460018302840111640100000000831117156100f457600080fd5b90919293919293905050506104d4565b604051808381526020018260ff1660ff1681526020019250505060405180910390f35b61019e6004803603602081101561013d57600080fd5b810190808035906020019064010000000081111561015a57600080fd5b82018360208201111561016c57600080fd5b8035906020019184600183028401116401000000008311171561018e57600080fd5b909192939192939050505061066b565b604051808273ffffffffffffffffffffffffffffffffffffffff1673ffffffffffffffffffffffffffffffffffffffff16815260200191505060405180910390f35b610296600480360360208110156101f657600080fd5b810190808035906020019064010000000081111561021357600080fd5b82018360208201111561022557600080fd5b8035906020019184602083028401116401000000008311171561024757600080fd5b919080806020026020016040519081016040528093929190818152602001838360200280828437600081840152601f19601f8201169050808301925050505050505091929192905050506106bd565b005b6102a0610a6c565b604051808273ffffffffffffffffffffffffffffffffffffffff1673ffffffffffffffffffffffffffffffffffffffff16815260200191505060405180910390f35b610379600480360360408110156102f857600080fd5b81019080803573ffffffffffffffffffffffffffffffffffffffff1690602001909291908035906020019064010000000081111561033557600080fd5b82018360208201111561034757600080fd5b8035906020019184600183028401116401000000008311171561036957600080fd5b9091929391929390505050610a91565b005b6103bd6004803603602081101561039157600080fd5b81019080803573ffffffffffffffffffffffffffffffffffffffff169060200190929190505050610c65565b6040518082815260200191505060405180910390f35b610415600480360360208110156103e957600080fd5b81019080803573ffffffffffffffffffffffffffffffffffffffff169060200190929190505050610fc8565b6040518080602001828103825283818151815260200191508051906020019080838360005b8381101561045557808201518184015260208101905061043a565b50505050905090810190601f1680156104825780820380516001836020036101000a031916815260200191505b509250505060405180910390f35b6104d2600480360360208110156104a657600080fd5b81019080803573ffffffffffffffffffffffffffffffffffffffff1690602001909291905050506110a9565b005b600080600060018585604051808383808284378083019250505092505050908152602001604051809103902060009054906101000a900473ffffffffffffffffffffffffffffffffffffffff169050600073ffffffffffffffffffffffffffffffffffffffff168173ffffffffffffffffffffffffffffffffffffffff16141561055d57600080fd5b8073ffffffffffffffffffffffffffffffffffffffff166350d25bcd6040518163ffffffff1660e01b815260040160206040518083038186803b1580156105a357600080fd5b505afa1580156105b7573d6000803e3d6000fd5b505050506040513d60208110156105cd57600080fd5b810190808051906020019092919050505092508073ffffffffffffffffffffffffffffffffffffffff1663313ce5676040518163ffffffff1660e01b815260040160206040518083038186803b15801561062657600080fd5b505afa15801561063a573d6000803e3d6000fd5b505050506040513d602081101561065057600080fd5b81019080805190602001909291905050509150509250929050565b600060018383604051808383808284378083019250505092505050908152602001604051809103902060009054906101000a900473ffffffffffffffffffffffffffffffffffffffff16905092915050565b6000809054906101000a900473ffffffffffffffffffffffffffffffffffffffff1673ffffffffffffffffffffffffffffffffffffffff163373ffffffffffffffffffffffffffffffffffffffff161461077f576040517f08c379a000000000000000000000000000000000000000000000000000000000815260040180806020018281038252600a8152602001807f6f6e6c79206f776e65720000000000000000000000000000000000000000000081525060200191505060405180910390fd5b60008151905060008090505b81811015610a675760008382815181106107a157fe5b6020026020010151905060608173ffffffffffffffffffffffffffffffffffffffff16637284e4166040518163ffffffff1660e01b815260040160006040518083038186803b1580156107f357600080fd5b505afa158015610807573d6000803e3d6000fd5b505050506040513d6000823e3d601f19601f82011682018060405250602081101561083157600080fd5b810190808051604051939291908464010000000082111561085157600080fd5b8382019150602082018581111561086757600080fd5b825186600182028301116401000000008211171561088457600080fd5b8083526020830192505050908051906020019080838360005b838110156108b857808201518184015260208101905061089d565b50505050905090810190601f1680156108e55780820380516001836020036101000a031916815260200191505b506040525050509050600073ffffffffffffffffffffffffffffffffffffffff166001826040518082805190602001908083835b6020831061093c5780518252602082019150602081019050602083039250610919565b6001836020036101000a038019825116818451168082178552505050505050905001915050908152602001604051809103902060009054906101000a900473ffffffffffffffffffffffffffffffffffffffff1673ffffffffffffffffffffffffffffffffffffffff16146109b057600080fd5b816001826040518082805190602001908083835b602083106109e757805182526020820191506020810190506020830392506109c4565b6001836020036101000a038019825116818451168082178552505050505050905001915050908152602001604051809103902060006101000a81548173ffffffffffffffffffffffffffffffffffffffff021916908373ffffffffffffffffffffffffffffffffffffffff1602179055505050808060010191505061078b565b505050565b6000809054906101000a900473ffffffffffffffffffffffffffffffffffffffff1681565b6000809054906101000a900473ffffffffffffffffffffffffffffffffffffffff1673ffffffffffffffffffffffffffffffffffffffff163373ffffffffffffffffffffffffffffffffffffffff1614610b53576040517f08c379a000000000000000000000000000000000000000000000000000000000815260040180806020018281038252600a8152602001807f6f6e6c79206f776e65720000000000000000000000000000000000000000000081525060200191505060405180910390fd5b6000600260008573ffffffffffffffffffffffffffffffffffffffff1673ffffffffffffffffffffffffffffffffffffffff1681526020019081526020016000206040516020018082805460018160011615610100020316600290048015610bf25780601f10610bd0576101008083540402835291820191610bf2565b820191906000526020600020905b815481529060010190602001808311610bde575b50509150506040516020818303038152906040525114610c1157600080fd5b8181600260008673ffffffffffffffffffffffffffffffffffffffff1673ffffffffffffffffffffffffffffffffffffffff1681526020019081526020016000209190610c5f929190611475565b50505050565b60007f000000000000000000000000000000000000000000000000000000000000000073ffffffffffffffffffffffffffffffffffffffff168273ffffffffffffffffffffffffffffffffffffffff161415610ccb57670de0b6b3a76400009050610fc3565b60006001610daf600260008673ffffffffffffffffffffffffffffffffffffffff1673ffffffffffffffffffffffffffffffffffffffff1681526020019081526020016000208054600181600116156101000203166002900480601f016020809104026020016040519081016040528092919081815260200182805460018160011615610100020316600290048015610da55780601f10610d7a57610100808354040283529160200191610da5565b820191906000526020600020905b815481529060010190602001808311610d8857829003601f168201915b50505050506111e3565b6040518082805190602001908083835b60208310610de25780518252602082019150602081019050602083039250610dbf565b6001836020036101000a038019825116818451168082178552505050505050905001915050908152602001604051809103902060009054906101000a900473ffffffffffffffffffffffffffffffffffffffff169050600073ffffffffffffffffffffffffffffffffffffffff168173ffffffffffffffffffffffffffffffffffffffff161415610e7257600080fd5b60008173ffffffffffffffffffffffffffffffffffffffff166350d25bcd6040518163ffffffff1660e01b815260040160206040518083038186803b158015610eba57600080fd5b505afa158015610ece573d6000803e3d6000fd5b505050506040513d6020811015610ee457600080fd5b810190808051906020019092919050505090506000811215610f0557600080fd5b60008273ffffffffffffffffffffffffffffffffffffffff1663313ce5676040518163ffffffff1660e01b815260040160206040518083038186803b158015610f4d57600080fd5b505afa158015610f61573d6000803e3d6000fd5b505050506040513d6020811015610f7757600080fd5b810190808051906020019092919050505060ff169050610fbd81600a0a610faf84670de0b6b3a76400006112df90919063ffffffff16565b61136590919063ffffffff16565b93505050505b919050565b6060600260008373ffffffffffffffffffffffffffffffffffffffff1673ffffffffffffffffffffffffffffffffffffffff1681526020019081526020016000208054600181600116156101000203166002900480601f01602080910402602001604051908101604052809291908181526020018280546001816001161561010002031660029004801561109d5780601f106110725761010080835404028352916020019161109d565b820191906000526020600020905b81548152906001019060200180831161108057829003601f168201915b50505050509050919050565b6000809054906101000a900473ffffffffffffffffffffffffffffffffffffffff1673ffffffffffffffffffffffffffffffffffffffff163373ffffffffffffffffffffffffffffffffffffffff161461116b576040517f08c379a000000000000000000000000000000000000000000000000000000000815260040180806020018281038252600a8152602001807f6f6e6c79206f776e65720000000000000000000000000000000000000000000081525060200191505060405180910390fd5b600073ffffffffffffffffffffffffffffffffffffffff168173ffffffffffffffffffffffffffffffffffffffff16146111e057806000806101000a81548173ffffffffffffffffffffffffffffffffffffffff021916908373ffffffffffffffffffffffffffffffffffffffff1602179055505b50565b6060816040518060400160405280600681526020017f202f2045544800000000000000000000000000000000000000000000000000008152506040516020018083805190602001908083835b60208310611252578051825260208201915060208101905060208303925061122f565b6001836020036101000a03801982511681845116808217855250505050505090500182805190602001908083835b602083106112a35780518252602082019150602081019050602083039250611280565b6001836020036101000a038019825116818451168082178552505050505050905001925050506040516020818303038152906040529050919050565b6000808314156112f2576000905061135f565b600082840290508284828161130357fe5b041461135a576040517f08c379a000000000000000000000000000000000000000000000000000000000815260040180806020018281038252602181526020018061151b6021913960400191505060405180910390fd5b809150505b92915050565b60006113a783836040518060400160405280601a81526020017f536166654d6174683a206469766973696f6e206279207a65726f0000000000008152506113af565b905092915050565b6000808311829061145b576040517f08c379a00000000000000000000000000000000000000000000000000000000081526004018080602001828103825283818151815260200191508051906020019080838360005b83811015611420578082015181840152602081019050611405565b50505050905090810190601f16801561144d5780820380516001836020036101000a031916815260200191505b509250505060405180910390fd5b50600083858161146757fe5b049050809150509392505050565b828054600181600116156101000203166002900490600052602060002090601f016020900481019282601f106114b657803560ff19168380011785556114e4565b828001600101855582156114e4579182015b828111156114e35782358255916020019190600101906114c8565b5b5090506114f191906114f5565b5090565b61151791905b808211156115135760008160009055506001016114fb565b5090565b9056fe536166654d6174683a206d756c7469706c69636174696f6e206f766572666c6f77a2646970667358221220e2df561fb91d5e9615dc8a66c60a3a8b89fff577ec2fd01b9d86426bdda2207264736f6c63430006080033",
  "immutableReferences": {
    "63887": [
      {
        "length": 32,
        "start": 3177
      }
    ]
  },
  "source": "// SPDX-License-Identifier: MIT\npragma solidity >=0.6.8 <0.7.0;\n\nimport \"../helpers/Ownable.sol\";\nimport \"../interfaces/IERC20.sol\";\nimport \"../libraries/SafeMath.sol\";\nimport \"./interfaces/IOracleContainer.sol\";\nimport \"./interfaces/IChainlinkAggregator.sol\";\n\ncontract OracleContainer is Ownable, IOracleContainer {\n\tusing SafeMath for uint;\n\n\tstring constant ConcatWith = \" / ETH\";\n\n\taddress immutable aETH;\n\n\tmapping(string => address) internal PairInfo;\n\tmapping(address => string) internal Phrases;\n\n\tconstructor(address _aETH) public {\n\t\taETH = _aETH;\n\t}\n\n\tfunction addAggregators(address[] memory _facades) public onlyOwner {\n\t\tuint length = _facades.length;\n\t\tfor (uint i = 0; i < length; i++) {\n\t\t\taddress facade = _facades[i];\n\t\t\tstring memory description = IChainlinkAggregator(facade).description();\n\t\t\trequire(PairInfo[description] == address(0));\n\t\t\tPairInfo[description] = facade;\n\t\t}\n\t}\n\n\tfunction AddAToken(address _aTokenAddress, string calldata phrase) external onlyOwner {\n\t\trequire(abi.encodePacked(Phrases[_aTokenAddress]).length == 0);\n\t\tPhrases[_aTokenAddress] = phrase;\n\t}\n\n\tfunction BaseAggregatorAddress(string calldata _phrase) external view override returns (address addr) {\n\t\taddr = PairInfo[_phrase];\n\t}\n\n\tfunction AssetPhrase(address _aTokenAddress) external view override returns (string memory phrase) {\n\t\tphrase = Phrases[_aTokenAddress];\n\t}\n\n\t/*\n\t\tFor the purpose of this project we are only worried about this function\n\t*/\n\tfunction phraseToLatestPrice(string calldata _phrase) external view override returns (uint spot, uint8 decimals) {\n\t\taddress baseAggregatorAddress = PairInfo[_phrase];\n\t\trequire(baseAggregatorAddress != address(0));\n\t\t//we can safely assume that the spot will never be negative and that a conversion to uint will be safe.\n\t\tspot = uint(IChainlinkAggregator(baseAggregatorAddress).latestAnswer());\n\t\tdecimals = IChainlinkAggregator(baseAggregatorAddress).decimals();\n\t}\n\n\tfunction getAssetPrice(address _assetAddress) external view override returns (uint) {\n\t\tif (_assetAddress == aETH) return (1 ether);\n\t\taddress baseAggregatorAddress = PairInfo[toFullPhrase(Phrases[_assetAddress])];\n\t\trequire(baseAggregatorAddress != address(0));\n\t\t//we can safely assume that the spot will never be negative and that a conversion to uint will be safe.\n\t\tuint spot = uint(IChainlinkAggregator(baseAggregatorAddress).latestAnswer());\n\t\trequire(int(spot) >= 0);\n\t\tuint decimals = IChainlinkAggregator(baseAggregatorAddress).decimals();\n\t\treturn uint(1 ether).mul(spot).div(10**decimals);\n\t}\n\n\tfunction toFullPhrase(string memory phrase) internal pure returns (string memory) {\n\t\treturn string(abi.encodePacked(phrase, ConcatWith));\n\t}\n\n\tfunction stringEquals(string memory a, string memory b) internal pure returns (bool) {\n\t\tif(bytes(a).length != bytes(b).length) {\n\t\t\treturn false;\n\t\t} else {\n\t\t\treturn keccak256(abi.encodePacked(a)) == keccak256(abi.encodePacked(b));\n\t\t}\n   \t}\n\n\tfunction substring(string memory str, uint startIndex, uint endIndex) internal pure returns (string memory) {\n\t    bytes memory strBytes = bytes(str);\n\t    bytes memory result = new bytes(endIndex-startIndex);\n\t    for(uint i = startIndex; i < endIndex; i++) {\n\t        result[i-startIndex] = strBytes[i];\n\t    }\n\t    return string(result);\n\t}\n}",
  "sourcePath": "/home/asher/FixFinanceV1/contracts/oracle/OracleContainer.sol",
  "compiler": {
    "name": "solc",
    "version": "0.6.8+commit.0bbfe453.Emscripten.clang"
  },
  "schemaVersion": "3.4.1",
  "updatedAt": "2021-11-26T19:15:56.112Z",
  "devdoc": {
    "methods": {}
  },
  "userdoc": {
    "methods": {}
  }
}