{
  "contractName": "OrderbookExchange",
  "abi": [
    {
      "inputs": [
        {
          "internalType": "address",
          "name": "_FCPaddress",
          "type": "address"
        },
        {
          "internalType": "address",
          "name": "_infoOracleAddress",
          "type": "address"
        },
        {
          "internalType": "address",
          "name": "_delegate1Address",
          "type": "address"
        },
        {
          "internalType": "address",
          "name": "_delegate2Address",
          "type": "address"
        },
        {
          "internalType": "address",
          "name": "_delegate3Address",
          "type": "address"
        }
      ],
      "stateMutability": "nonpayable",
      "type": "constructor"
    },
    {
      "anonymous": false,
      "inputs": [
        {
          "indexed": true,
          "internalType": "address",
          "name": "to",
          "type": "address"
        },
        {
          "indexed": false,
          "internalType": "uint256",
          "name": "yieldDeposit",
          "type": "uint256"
        },
        {
          "indexed": false,
          "internalType": "int256",
          "name": "bondDeposit",
          "type": "int256"
        }
      ],
      "name": "Deposit",
      "type": "event"
    },
    {
      "anonymous": false,
      "inputs": [
        {
          "indexed": true,
          "internalType": "address",
          "name": "maker",
          "type": "address"
        },
        {
          "indexed": false,
          "internalType": "uint256",
          "name": "prevID",
          "type": "uint256"
        },
        {
          "indexed": false,
          "internalType": "uint256",
          "name": "newID",
          "type": "uint256"
        },
        {
          "indexed": false,
          "internalType": "uint256",
          "name": "amount",
          "type": "uint256"
        },
        {
          "indexed": false,
          "internalType": "uint256",
          "name": "maturityConversionRate",
          "type": "uint256"
        }
      ],
      "name": "MakeLimitSellYT",
      "type": "event"
    },
    {
      "anonymous": false,
      "inputs": [
        {
          "indexed": true,
          "internalType": "address",
          "name": "maker",
          "type": "address"
        },
        {
          "indexed": false,
          "internalType": "uint256",
          "name": "prevID",
          "type": "uint256"
        },
        {
          "indexed": false,
          "internalType": "uint256",
          "name": "newID",
          "type": "uint256"
        },
        {
          "indexed": false,
          "internalType": "uint256",
          "name": "amount",
          "type": "uint256"
        },
        {
          "indexed": false,
          "internalType": "uint256",
          "name": "maturityConversionRate",
          "type": "uint256"
        }
      ],
      "name": "MakeLimitSellZCB",
      "type": "event"
    },
    {
      "anonymous": false,
      "inputs": [
        {
          "indexed": true,
          "internalType": "address",
          "name": "taker",
          "type": "address"
        },
        {
          "indexed": false,
          "internalType": "uint256",
          "name": "newYTSellHeadID",
          "type": "uint256"
        },
        {
          "indexed": false,
          "internalType": "uint256",
          "name": "headAmount",
          "type": "uint256"
        }
      ],
      "name": "MarketBuyYT",
      "type": "event"
    },
    {
      "anonymous": false,
      "inputs": [
        {
          "indexed": true,
          "internalType": "address",
          "name": "taker",
          "type": "address"
        },
        {
          "indexed": false,
          "internalType": "uint256",
          "name": "newZCBSellHeadID",
          "type": "uint256"
        },
        {
          "indexed": false,
          "internalType": "uint256",
          "name": "headAmount",
          "type": "uint256"
        }
      ],
      "name": "MarketBuyZCB",
      "type": "event"
    },
    {
      "anonymous": false,
      "inputs": [
        {
          "indexed": false,
          "internalType": "uint256",
          "name": "orderID",
          "type": "uint256"
        },
        {
          "indexed": false,
          "internalType": "int256",
          "name": "change",
          "type": "int256"
        }
      ],
      "name": "ModifyOrder",
      "type": "event"
    },
    {
      "anonymous": false,
      "inputs": [
        {
          "indexed": true,
          "internalType": "address",
          "name": "from",
          "type": "address"
        },
        {
          "indexed": false,
          "internalType": "uint256",
          "name": "yieldWithdrawn",
          "type": "uint256"
        },
        {
          "indexed": false,
          "internalType": "int256",
          "name": "bondWithdrawn",
          "type": "int256"
        }
      ],
      "name": "Withdrawal",
      "type": "event"
    },
    {
      "inputs": [
        {
          "internalType": "uint256",
          "name": "_amountYield",
          "type": "uint256"
        },
        {
          "internalType": "int256",
          "name": "_amountBond",
          "type": "int256"
        }
      ],
      "name": "deposit",
      "outputs": [],
      "stateMutability": "nonpayable",
      "type": "function"
    },
    {
      "inputs": [
        {
          "internalType": "uint256",
          "name": "_amountYield",
          "type": "uint256"
        },
        {
          "internalType": "int256",
          "name": "_amountBond",
          "type": "int256"
        }
      ],
      "name": "withdraw",
      "outputs": [],
      "stateMutability": "nonpayable",
      "type": "function"
    },
    {
      "inputs": [
        {
          "internalType": "uint256",
          "name": "_amount",
          "type": "uint256"
        },
        {
          "internalType": "uint256",
          "name": "_maturityConversionRate",
          "type": "uint256"
        },
        {
          "internalType": "uint256",
          "name": "_hintID",
          "type": "uint256"
        },
        {
          "internalType": "uint256",
          "name": "_maxSteps",
          "type": "uint256"
        }
      ],
      "name": "limitSellZCB",
      "outputs": [],
      "stateMutability": "nonpayable",
      "type": "function"
    },
    {
      "inputs": [
        {
          "internalType": "uint256",
          "name": "_amount",
          "type": "uint256"
        },
        {
          "internalType": "uint256",
          "name": "_maturityConversionRate",
          "type": "uint256"
        },
        {
          "internalType": "uint256",
          "name": "_hintID",
          "type": "uint256"
        },
        {
          "internalType": "uint256",
          "name": "_maxSteps",
          "type": "uint256"
        }
      ],
      "name": "limitSellYT",
      "outputs": [],
      "stateMutability": "nonpayable",
      "type": "function"
    },
    {
      "inputs": [
        {
          "internalType": "int256",
          "name": "_amount",
          "type": "int256"
        },
        {
          "internalType": "uint256",
          "name": "_targetID",
          "type": "uint256"
        },
        {
          "internalType": "uint256",
          "name": "_hintID",
          "type": "uint256"
        },
        {
          "internalType": "uint256",
          "name": "_maxSteps",
          "type": "uint256"
        },
        {
          "internalType": "bool",
          "name": "_removeBelowMin",
          "type": "bool"
        }
      ],
      "name": "modifyZCBLimitSell",
      "outputs": [
        {
          "internalType": "int256",
          "name": "change",
          "type": "int256"
        }
      ],
      "stateMutability": "nonpayable",
      "type": "function"
    },
    {
      "inputs": [
        {
          "internalType": "int256",
          "name": "_amount",
          "type": "int256"
        },
        {
          "internalType": "uint256",
          "name": "_targetID",
          "type": "uint256"
        },
        {
          "internalType": "uint256",
          "name": "_hintID",
          "type": "uint256"
        },
        {
          "internalType": "uint256",
          "name": "_maxSteps",
          "type": "uint256"
        },
        {
          "internalType": "bool",
          "name": "_removeBelowMin",
          "type": "bool"
        }
      ],
      "name": "modifyYTLimitSell",
      "outputs": [
        {
          "internalType": "int256",
          "name": "change",
          "type": "int256"
        }
      ],
      "stateMutability": "nonpayable",
      "type": "function"
    },
    {
      "inputs": [
        {
          "internalType": "uint256",
          "name": "_amountYT",
          "type": "uint256"
        },
        {
          "internalType": "uint256",
          "name": "_maxMaturityConversionRate",
          "type": "uint256"
        },
        {
          "internalType": "uint256",
          "name": "_maxCumulativeMaturityConversionRate",
          "type": "uint256"
        },
        {
          "internalType": "uint16",
          "name": "_maxIterations",
          "type": "uint16"
        },
        {
          "internalType": "bool",
          "name": "_useInternalBalances",
          "type": "bool"
        }
      ],
      "name": "marketBuyYT",
      "outputs": [
        {
          "internalType": "uint256",
          "name": "",
          "type": "uint256"
        },
        {
          "internalType": "uint256",
          "name": "",
          "type": "uint256"
        }
      ],
      "stateMutability": "nonpayable",
      "type": "function"
    },
    {
      "inputs": [
        {
          "internalType": "uint256",
          "name": "_amountYT",
          "type": "uint256"
        },
        {
          "internalType": "uint256",
          "name": "_minMaturityConversionRate",
          "type": "uint256"
        },
        {
          "internalType": "uint256",
          "name": "_minCumulativeMaturityConversionRate",
          "type": "uint256"
        },
        {
          "internalType": "uint16",
          "name": "_maxIterations",
          "type": "uint16"
        },
        {
          "internalType": "bool",
          "name": "_useInternalBalances",
          "type": "bool"
        }
      ],
      "name": "marketSellYT",
      "outputs": [
        {
          "internalType": "uint256",
          "name": "",
          "type": "uint256"
        },
        {
          "internalType": "uint256",
          "name": "",
          "type": "uint256"
        }
      ],
      "stateMutability": "nonpayable",
      "type": "function"
    },
    {
      "inputs": [
        {
          "internalType": "uint256",
          "name": "_amountZCB",
          "type": "uint256"
        },
        {
          "internalType": "uint256",
          "name": "_minMaturityConversionRate",
          "type": "uint256"
        },
        {
          "internalType": "uint256",
          "name": "_minCumulativeMaturityConversionRate",
          "type": "uint256"
        },
        {
          "internalType": "uint16",
          "name": "_maxIterations",
          "type": "uint16"
        },
        {
          "internalType": "bool",
          "name": "_useInternalBalances",
          "type": "bool"
        }
      ],
      "name": "marketBuyZCB",
      "outputs": [
        {
          "internalType": "uint256",
          "name": "",
          "type": "uint256"
        },
        {
          "internalType": "uint256",
          "name": "",
          "type": "uint256"
        }
      ],
      "stateMutability": "nonpayable",
      "type": "function"
    },
    {
      "inputs": [
        {
          "internalType": "uint256",
          "name": "_amountZCB",
          "type": "uint256"
        },
        {
          "internalType": "uint256",
          "name": "_maxMaturityConversionRate",
          "type": "uint256"
        },
        {
          "internalType": "uint256",
          "name": "_maxCumulativeMaturityConversionRate",
          "type": "uint256"
        },
        {
          "internalType": "uint16",
          "name": "_maxIterations",
          "type": "uint16"
        },
        {
          "internalType": "bool",
          "name": "_useInternalBalances",
          "type": "bool"
        }
      ],
      "name": "marketSellZCB",
      "outputs": [
        {
          "internalType": "uint256",
          "name": "",
          "type": "uint256"
        },
        {
          "internalType": "uint256",
          "name": "",
          "type": "uint256"
        }
      ],
      "stateMutability": "nonpayable",
      "type": "function"
    },
    {
      "inputs": [
        {
          "internalType": "uint256",
          "name": "_amountZCB",
          "type": "uint256"
        },
        {
          "internalType": "uint256",
          "name": "_maxMaturityConversionRate",
          "type": "uint256"
        },
        {
          "internalType": "uint256",
          "name": "_maxCumulativeMaturityConversionRate",
          "type": "uint256"
        },
        {
          "internalType": "uint16",
          "name": "_maxIterations",
          "type": "uint16"
        },
        {
          "internalType": "bool",
          "name": "_useInternalBalances",
          "type": "bool"
        }
      ],
      "name": "marketSellZCBtoU",
      "outputs": [
        {
          "internalType": "uint256",
          "name": "",
          "type": "uint256"
        },
        {
          "internalType": "uint256",
          "name": "",
          "type": "uint256"
        }
      ],
      "stateMutability": "nonpayable",
      "type": "function"
    },
    {
      "inputs": [
        {
          "internalType": "uint256",
          "name": "_unitAmountYT",
          "type": "uint256"
        },
        {
          "internalType": "uint256",
          "name": "_minMaturityConversionRate",
          "type": "uint256"
        },
        {
          "internalType": "uint256",
          "name": "_minCumulativeMaturityConversionRate",
          "type": "uint256"
        },
        {
          "internalType": "uint16",
          "name": "_maxIterations",
          "type": "uint16"
        },
        {
          "internalType": "bool",
          "name": "_useInternalBalances",
          "type": "bool"
        }
      ],
      "name": "marketSellUnitYTtoU",
      "outputs": [
        {
          "internalType": "uint256",
          "name": "",
          "type": "uint256"
        },
        {
          "internalType": "uint256",
          "name": "",
          "type": "uint256"
        }
      ],
      "stateMutability": "nonpayable",
      "type": "function"
    },
    {
      "inputs": [],
      "name": "forceClaimSubAccountRewards",
      "outputs": [],
      "stateMutability": "nonpayable",
      "type": "function"
    },
    {
      "inputs": [],
      "name": "forceRateDataUpdate",
      "outputs": [],
      "stateMutability": "nonpayable",
      "type": "function"
    },
    {
      "inputs": [
        {
          "internalType": "uint256",
          "name": "_MCR",
          "type": "uint256"
        }
      ],
      "name": "setOracleMCR",
      "outputs": [],
      "stateMutability": "nonpayable",
      "type": "function"
    },
    {
      "inputs": [],
      "name": "impliedYieldToMaturity",
      "outputs": [
        {
          "internalType": "uint256",
          "name": "yieldToMaturity",
          "type": "uint256"
        }
      ],
      "stateMutability": "view",
      "type": "function"
    },
    {
      "inputs": [],
      "name": "getAPYFromOracle",
      "outputs": [
        {
          "internalType": "int128",
          "name": "APY",
          "type": "int128"
        }
      ],
      "stateMutability": "view",
      "type": "function"
    },
    {
      "inputs": [],
      "name": "getImpliedMCRFromOracle",
      "outputs": [
        {
          "internalType": "uint256",
          "name": "impliedMCR",
          "type": "uint256"
        }
      ],
      "stateMutability": "view",
      "type": "function"
    },
    {
      "inputs": [],
      "name": "getOracleData",
      "outputs": [
        {
          "internalType": "uint256[31]",
          "name": "_impliedMCRs",
          "type": "uint256[31]"
        },
        {
          "internalType": "uint256",
          "name": "_lastDatapointCollection",
          "type": "uint256"
        },
        {
          "internalType": "uint256",
          "name": "_oracleMCR",
          "type": "uint256"
        },
        {
          "internalType": "uint8",
          "name": "_toSet",
          "type": "uint8"
        }
      ],
      "stateMutability": "view",
      "type": "function"
    },
    {
      "inputs": [],
      "name": "claimRevenue",
      "outputs": [],
      "stateMutability": "nonpayable",
      "type": "function"
    },
    {
      "inputs": [
        {
          "internalType": "enum OrderbookData.MIN_ORDER_SIZE_MODE",
          "name": "mode",
          "type": "uint8"
        },
        {
          "internalType": "uint256",
          "name": "_minimumOrderSize",
          "type": "uint256"
        }
      ],
      "name": "setMinimumOrderSize",
      "outputs": [],
      "stateMutability": "nonpayable",
      "type": "function"
    },
    {
      "inputs": [
        {
          "internalType": "address",
          "name": "_depositor",
          "type": "address"
        }
      ],
      "name": "YieldDeposited",
      "outputs": [
        {
          "internalType": "uint256",
          "name": "",
          "type": "uint256"
        }
      ],
      "stateMutability": "view",
      "type": "function"
    },
    {
      "inputs": [
        {
          "internalType": "address",
          "name": "_depositor",
          "type": "address"
        }
      ],
      "name": "BondDeposited",
      "outputs": [
        {
          "internalType": "int256",
          "name": "",
          "type": "int256"
        }
      ],
      "stateMutability": "view",
      "type": "function"
    },
    {
      "inputs": [
        {
          "internalType": "address",
          "name": "_depositor",
          "type": "address"
        }
      ],
      "name": "lockedYT",
      "outputs": [
        {
          "internalType": "uint256",
          "name": "",
          "type": "uint256"
        }
      ],
      "stateMutability": "view",
      "type": "function"
    },
    {
      "inputs": [
        {
          "internalType": "address",
          "name": "_depositor",
          "type": "address"
        }
      ],
      "name": "lockedZCB",
      "outputs": [
        {
          "internalType": "uint256",
          "name": "",
          "type": "uint256"
        }
      ],
      "stateMutability": "view",
      "type": "function"
    },
    {
      "inputs": [
        {
          "internalType": "uint256",
          "name": "_ID",
          "type": "uint256"
        }
      ],
      "name": "YTSells",
      "outputs": [
        {
          "internalType": "address",
          "name": "maker",
          "type": "address"
        },
        {
          "internalType": "uint256",
          "name": "amount",
          "type": "uint256"
        },
        {
          "internalType": "uint256",
          "name": "maturityConversionRate",
          "type": "uint256"
        },
        {
          "internalType": "uint256",
          "name": "nextID",
          "type": "uint256"
        }
      ],
      "stateMutability": "view",
      "type": "function"
    },
    {
      "inputs": [
        {
          "internalType": "uint256",
          "name": "_ID",
          "type": "uint256"
        }
      ],
      "name": "ZCBSells",
      "outputs": [
        {
          "internalType": "address",
          "name": "maker",
          "type": "address"
        },
        {
          "internalType": "uint256",
          "name": "amount",
          "type": "uint256"
        },
        {
          "internalType": "uint256",
          "name": "maturityConversionRate",
          "type": "uint256"
        },
        {
          "internalType": "uint256",
          "name": "nextID",
          "type": "uint256"
        }
      ],
      "stateMutability": "view",
      "type": "function"
    },
    {
      "inputs": [],
      "name": "headYTSellID",
      "outputs": [
        {
          "internalType": "uint256",
          "name": "ID",
          "type": "uint256"
        }
      ],
      "stateMutability": "view",
      "type": "function"
    },
    {
      "inputs": [],
      "name": "headZCBSellID",
      "outputs": [
        {
          "internalType": "uint256",
          "name": "ID",
          "type": "uint256"
        }
      ],
      "stateMutability": "view",
      "type": "function"
    },
    {
      "inputs": [],
      "name": "FCP",
      "outputs": [
        {
          "internalType": "contract IFixCapitalPool",
          "name": "",
          "type": "address"
        }
      ],
      "stateMutability": "view",
      "type": "function"
    },
    {
      "inputs": [],
      "name": "IORC",
      "outputs": [
        {
          "internalType": "contract IInfoOracle",
          "name": "",
          "type": "address"
        }
      ],
      "stateMutability": "view",
      "type": "function"
    },
    {
      "inputs": [],
      "name": "wrapper",
      "outputs": [
        {
          "internalType": "contract IWrapper",
          "name": "",
          "type": "address"
        }
      ],
      "stateMutability": "view",
      "type": "function"
    },
    {
      "inputs": [],
      "name": "maturity",
      "outputs": [
        {
          "internalType": "uint40",
          "name": "",
          "type": "uint40"
        }
      ],
      "stateMutability": "view",
      "type": "function"
    },
    {
      "inputs": [],
      "name": "getMinimumOrderSize",
      "outputs": [
        {
          "internalType": "uint256",
          "name": "",
          "type": "uint256"
        }
      ],
      "stateMutability": "view",
      "type": "function"
    },
    {
      "inputs": [],
      "name": "getMinimumOrderSizeMode",
      "outputs": [
        {
          "internalType": "enum OrderbookData.MIN_ORDER_SIZE_MODE",
          "name": "",
          "type": "uint8"
        }
      ],
      "stateMutability": "view",
      "type": "function"
    }
  ],
  "bytecode": "0x60e06040523480156200001157600080fd5b5060405162004da238038062004da2833981810160405260a08110156200003757600080fd5b81019080805190602001909291908051906020019092919080519060200190929190805190602001909291908051906020019092919050505084600960006101000a81548173ffffffffffffffffffffffffffffffffffffffff021916908373ffffffffffffffffffffffffffffffffffffffff16021790555083600b60006101000a81548173ffffffffffffffffffffffffffffffffffffffff021916908373ffffffffffffffffffffffffffffffffffffffff16021790555060008573ffffffffffffffffffffffffffffffffffffffff1663ac210cc76040518163ffffffff1660e01b815260040160206040518083038186803b1580156200013b57600080fd5b505afa15801562000150573d6000803e3d6000fd5b505050506040513d60208110156200016757600080fd5b810190808051906020019092919050505090508573ffffffffffffffffffffffffffffffffffffffff1663204f83f96040518163ffffffff1660e01b815260040160206040518083038186803b158015620001c157600080fd5b505afa158015620001d6573d6000803e3d6000fd5b505050506040513d6020811015620001ed57600080fd5b8101908080519060200190929190505050600b60146101000a81548164ffffffffff021916908364ffffffffff16021790555080600a60006101000a81548173ffffffffffffffffffffffffffffffffffffffff021916908373ffffffffffffffffffffffffffffffffffffffff1602179055508373ffffffffffffffffffffffffffffffffffffffff1660808173ffffffffffffffffffffffffffffffffffffffff1660601b815250508273ffffffffffffffffffffffffffffffffffffffff1660a08173ffffffffffffffffffffffffffffffffffffffff1660601b815250508173ffffffffffffffffffffffffffffffffffffffff1660c08173ffffffffffffffffffffffffffffffffffffffff1660601b815250508073ffffffffffffffffffffffffffffffffffffffff1663dd2822636040518163ffffffff1660e01b8152600401600060405180830381600087803b1580156200034f57600080fd5b505af115801562000364573d6000803e3d6000fd5b5050505050505050505060805160601c60a05160601c60c05160601c6149c2620003e060003980610c035280610d515280611229528061139152806124db528061264352806127a85280612ea652806130ea5250806117665280612c575250806115055280612a875280612d80528061327a52506149c26000f3fe608060405234801561001057600080fd5b50600436106102115760003560e01c80636e904fac11610125578063b469c14c116100ad578063c65a98071161007c578063c65a980714610a4d578063cbd7ab6a14610a97578063d93ff5d614610b03578063ea8923db14610b5b578063ec2e958114610bd257610211565b8063b469c14c146108cf578063b488c0a514610946578063c1f5403c146109bd578063c61f7b8b146109f557610211565b80638b2c19d9116100f45780638b2c19d91461074e5780638c961012146107c557806396517d3f1461081d578063ab6eb6d61461083b578063ac210cc71461088557610211565b80636e904fac146106a25780637d9ced7c146106ee578063811ee04c146106f857806381cccc0b1461073057610211565b80632956971f116101a857806345ef11c01161017757806345ef11c01461051f578063564f4f76146105965780636481c5e6146105a05780636482c9d31461060157806365a72dd81461061f57610211565b80632956971f146104215780632c7e2e171461044f57806336967936146104c6578063392cb240146104e457610211565b8063184e699b116101e4578063184e699b1461032d578063204f83f91461038557806320f8175a146103b157806327495de6146103d557610211565b80630215f9f71461021657806309b20b621461028257806312be615c146102a05780631490d1e7146102aa575b600080fd5b61026c600480360360a081101561022c57600080fd5b8101908080359060200190929190803590602001909291908035906020019092919080359060200190929190803515159060200190929190505050610bfe565b6040518082815260200191505060405180910390f35b61028a610d43565b6040518082815260200191505060405180910390f35b6102a8610d4d565b005b6102d6600480360360208110156102c057600080fd5b8101908080359060200190929190505050610eb2565b604051808573ffffffffffffffffffffffffffffffffffffffff1673ffffffffffffffffffffffffffffffffffffffff16815260200184815260200183815260200182815260200194505050505060405180910390f35b61036f6004803603602081101561034357600080fd5b81019080803573ffffffffffffffffffffffffffffffffffffffff169060200190929190505050610f78565b6040518082815260200191505060405180910390f35b61038d610fc0565b604051808264ffffffffff1664ffffffffff16815260200191505060405180910390f35b6103b9610fdb565b6040518082600f0b600f0b815260200191505060405180910390f35b61041f600480360360808110156103eb57600080fd5b8101908080359060200190929190803590602001909291908035906020019092919080359060200190929190505050611225565b005b61044d6004803603602081101561043757600080fd5b810190808035906020019092919050505061138d565b005b6104a9600480360360a081101561046557600080fd5b81019080803590602001909291908035906020019092919080359060200190929190803561ffff1690602001909291908035151590602001909291905050506114fe565b604051808381526020018281526020019250505060405180910390f35b6104ce611627565b6040518082815260200191505060405180910390f35b61051d600480360360408110156104fa57600080fd5b81019080803560ff16906020019092919080359060200190929190505050611631565b005b610579600480360360a081101561053557600080fd5b81019080803590602001909291908035906020019092919080359060200190929190803561ffff16906020019092919080351515906020019092919050505061175f565b604051808381526020018281526020019250505060405180910390f35b61059e611888565b005b6105a8612380565b6040518085601f60200280838360005b838110156105d35780820151818401526020810190506105b8565b505050509050018481526020018381526020018260ff1660ff16815260200194505050505060405180910390f35b610609612407565b6040518082815260200191505060405180910390f35b61064b6004803603602081101561063557600080fd5b8101908080359060200190929190505050612411565b604051808573ffffffffffffffffffffffffffffffffffffffff1673ffffffffffffffffffffffffffffffffffffffff16815260200184815260200183815260200182815260200194505050505060405180910390f35b6106ec600480360360808110156106b857600080fd5b81019080803590602001909291908035906020019092919080359060200190929190803590602001909291905050506124d7565b005b6106f661263f565b005b61072e6004803603604081101561070e57600080fd5b8101908080359060200190929190803590602001909291905050506127a4565b005b610738612974565b6040518082815260200191505060405180910390f35b6107a8600480360360a081101561076457600080fd5b81019080803590602001909291908035906020019092919080359060200190929190803561ffff169060200190929190803515159060200190929190505050612a80565b604051808381526020018281526020019250505060405180910390f35b610807600480360360208110156107db57600080fd5b81019080803573ffffffffffffffffffffffffffffffffffffffff169060200190929190505050612ba9565b6040518082815260200191505060405180910390f35b610825612bf2565b6040518082815260200191505060405180910390f35b610843612bfc565b604051808273ffffffffffffffffffffffffffffffffffffffff1673ffffffffffffffffffffffffffffffffffffffff16815260200191505060405180910390f35b61088d612c26565b604051808273ffffffffffffffffffffffffffffffffffffffff1673ffffffffffffffffffffffffffffffffffffffff16815260200191505060405180910390f35b610929600480360360a08110156108e557600080fd5b81019080803590602001909291908035906020019092919080359060200190929190803561ffff169060200190929190803515159060200190929190505050612c50565b604051808381526020018281526020019250505060405180910390f35b6109a0600480360360a081101561095c57600080fd5b81019080803590602001909291908035906020019092919080359060200190929190803561ffff169060200190929190803515159060200190929190505050612d79565b604051808381526020018281526020019250505060405180910390f35b6109f3600480360360408110156109d357600080fd5b810190808035906020019092919080359060200190929190505050612ea2565b005b610a3760048036036020811015610a0b57600080fd5b81019080803573ffffffffffffffffffffffffffffffffffffffff169060200190929190505050613072565b6040518082815260200191505060405180910390f35b610a556130bb565b604051808273ffffffffffffffffffffffffffffffffffffffff1673ffffffffffffffffffffffffffffffffffffffff16815260200191505060405180910390f35b610aed600480360360a0811015610aad57600080fd5b81019080803590602001909291908035906020019092919080359060200190929190803590602001909291908035151590602001909291905050506130e5565b6040518082815260200191505060405180910390f35b610b4560048036036020811015610b1957600080fd5b81019080803573ffffffffffffffffffffffffffffffffffffffff16906020019092919050505061322a565b6040518082815260200191505060405180910390f35b610bb5600480360360a0811015610b7157600080fd5b81019080803590602001909291908035906020019092919080359060200190929190803561ffff169060200190929190803515159060200190929190505050613273565b604051808381526020018281526020019250505060405180910390f35b610bda61339c565b60405180826002811115610bea57fe5b60ff16815260200191505060405180910390f35b6000807f00000000000000000000000000000000000000000000000000000000000000009050606087878787876040516024018086815260200185815260200184815260200183815260200182151515158152602001955050505050506040516020818303038152906040527f0215f9f7000000000000000000000000000000000000000000000000000000007bffffffffffffffffffffffffffffffffffffffffffffffffffffffff19166020820180517bffffffffffffffffffffffffffffffffffffffffffffffffffffffff83818316178352505050509050604051602081835160208501865af480610cf357600080fd5b8151945050507fe341f695f1296b2d958c1f6c71150969aca622653575c70d4440bb5a2662e31e8784604051808381526020018281526020019250505060405180910390a1505095945050505050565b6000600654905090565b60007f000000000000000000000000000000000000000000000000000000000000000073ffffffffffffffffffffffffffffffffffffffff166040516024016040516020818303038152906040527f12be615c000000000000000000000000000000000000000000000000000000007bffffffffffffffffffffffffffffffffffffffffffffffffffffffff19166020820180517bffffffffffffffffffffffffffffffffffffffffffffffffffffffff83818316178352505050506040518082805190602001908083835b60208310610e3c5780518252602082019150602081019050602083039250610e19565b6001836020036101000a038019825116818451168082178552505050505050905001915050600060405180830381855af49150503d8060008114610e9c576040519150601f19603f3d011682016040523d82523d6000602084013e610ea1565b606091505b5050905080610eaf57600080fd5b50565b600080600080610ec06147ef565b600560008781526020019081526020016000206040518060800160405290816000820160009054906101000a900473ffffffffffffffffffffffffffffffffffffffff1673ffffffffffffffffffffffffffffffffffffffff1673ffffffffffffffffffffffffffffffffffffffff1681526020016001820154815260200160028201548152602001600382015481525050905080600001519450806020015193508060400151925080606001519150509193509193565b60008060008373ffffffffffffffffffffffffffffffffffffffff1673ffffffffffffffffffffffffffffffffffffffff168152602001908152602001600020549050919050565b6000600b60149054906101000a900464ffffffffff16905090565b600080600c5490506000600a60009054906101000a900473ffffffffffffffffffffffffffffffffffffffff1673ffffffffffffffffffffffffffffffffffffffff16630247c79c670de0b6b3a76400006040518263ffffffff1660e01b81526004018082815260200191505060206040518083038186803b15801561106057600080fd5b505afa158015611074573d6000803e3d6000fd5b505050506040513d602081101561108a57600080fd5b810190808051906020019092919050505090508181106110b7576801000000000000000092505050611222565b60006301e1853e604061118f600a60009054906101000a900473ffffffffffffffffffffffffffffffffffffffff1673ffffffffffffffffffffffffffffffffffffffff1663c04637116040518163ffffffff1660e01b815260040160206040518083038186803b15801561112b57600080fd5b505afa15801561113f573d6000803e3d6000fd5b505050506040513d602081101561115557600080fd5b8101908080519060200190929190505050600b60149054906101000a900464ffffffffff1664ffffffffff166133b390919063ffffffff16565b901b8161119857fe5b04905060006111cb836111bd68010000000000000000876133fd90919063ffffffff16565b61348390919063ffffffff16565b90506f7fffffffffffffffffffffffffffffff600f0b8111156111ed57600080fd5b600061120e8368010000000000000000600f0b6134cd90919063ffffffff16565b905061121a8282613550565b955050505050505b90565b60007f00000000000000000000000000000000000000000000000000000000000000009050606085858585604051602401808581526020018481526020018381526020018281526020019450505050506040516020818303038152906040527f27495de6000000000000000000000000000000000000000000000000000000007bffffffffffffffffffffffffffffffffffffffffffffffffffffffff19166020820180517bffffffffffffffffffffffffffffffffffffffffffffffffffffffff83818316178352505050509050600080604051604081855160208701885af48061131057600080fd5b815193506020820151925050503373ffffffffffffffffffffffffffffffffffffffff167ff825511bed3f991a4958030f204e837a8d723fe6b244953d60a7f519d176c67782848b8b6040518085815260200184815260200183815260200182815260200194505050505060405180910390a25050505050505050565b60007f000000000000000000000000000000000000000000000000000000000000000073ffffffffffffffffffffffffffffffffffffffff1682604051602401808281526020019150506040516020818303038152906040527f2956971f000000000000000000000000000000000000000000000000000000007bffffffffffffffffffffffffffffffffffffffffffffffffffffffff19166020820180517bffffffffffffffffffffffffffffffffffffffffffffffffffffffff83818316178352505050506040518082805190602001908083835b602083106114875780518252602082019150602081019050602083039250611464565b6001836020036101000a038019825116818451168082178552505050505050905001915050600060405180830381855af49150503d80600081146114e7576040519150601f19603f3d011682016040523d82523d6000602084013e6114ec565b606091505b50509050806114fa57600080fd5b5050565b60008060007f0000000000000000000000000000000000000000000000000000000000000000905060608888888888604051602401808681526020018581526020018481526020018361ffff1661ffff16815260200182151515158152602001955050505050506040516020818303038152906040527f2c7e2e17000000000000000000000000000000000000000000000000000000007bffffffffffffffffffffffffffffffffffffffffffffffffffffffff19166020820180517bffffffffffffffffffffffffffffffffffffffffffffffffffffffff838183161783525050505090506000604051808061496960249139602401905060405180910390209050604051608081845160208601875af48061161a57600080fd5b33836040808501a2604082f35b6000600c54905090565b600960009054906101000a900473ffffffffffffffffffffffffffffffffffffffff1673ffffffffffffffffffffffffffffffffffffffff16638da5cb5b6040518163ffffffff1660e01b815260040160206040518083038186803b15801561169957600080fd5b505afa1580156116ad573d6000803e3d6000fd5b505050506040513d60208110156116c357600080fd5b810190808051906020019092919050505073ffffffffffffffffffffffffffffffffffffffff163373ffffffffffffffffffffffffffffffffffffffff161461170b57600080fd5b6000600281111561171857fe5b82600281111561172457fe5b1461172f5780611732565b60005b602d8190555081602c60066101000a81548160ff0219169083600281111561175657fe5b02179055505050565b60008060007f0000000000000000000000000000000000000000000000000000000000000000905060608888888888604051602401808681526020018581526020018481526020018361ffff1661ffff16815260200182151515158152602001955050505050506040516020818303038152906040527f45ef11c0000000000000000000000000000000000000000000000000000000007bffffffffffffffffffffffffffffffffffffffffffffffffffffffff19166020820180517bffffffffffffffffffffffffffffffffffffffffffffffffffffffff83818316178352505050509050600060405180806148d860259139602501905060405180910390209050604051608081845160208601875af48061187b57600080fd5b33836040808501a2604082f35b600960009054906101000a900473ffffffffffffffffffffffffffffffffffffffff1673ffffffffffffffffffffffffffffffffffffffff16638da5cb5b6040518163ffffffff1660e01b815260040160206040518083038186803b1580156118f057600080fd5b505afa158015611904573d6000803e3d6000fd5b505050506040513d602081101561191a57600080fd5b810190808051906020019092919050505073ffffffffffffffffffffffffffffffffffffffff163373ffffffffffffffffffffffffffffffffffffffff161461196257600080fd5b6000600b60009054906101000a900473ffffffffffffffffffffffffffffffffffffffff1690506000600a60009054906101000a900473ffffffffffffffffffffffffffffffffffffffff1690506000600960009054906101000a900473ffffffffffffffffffffffffffffffffffffffff16905060008373ffffffffffffffffffffffffffffffffffffffff1663489e09516040518163ffffffff1660e01b815260040160206040518083038186803b158015611a1f57600080fd5b505afa158015611a33573d6000803e3d6000fd5b505050506040513d6020811015611a4957600080fd5b810190808051906020019092919050505090506000808473ffffffffffffffffffffffffffffffffffffffff166369402cc23085876040518463ffffffff1660e01b8152600401808473ffffffffffffffffffffffffffffffffffffffff1673ffffffffffffffffffffffffffffffffffffffff1681526020018373ffffffffffffffffffffffffffffffffffffffff1673ffffffffffffffffffffffffffffffffffffffff1681526020018273ffffffffffffffffffffffffffffffffffffffff1673ffffffffffffffffffffffffffffffffffffffff1681526020019350505050604080518083038186803b158015611b4357600080fd5b505afa158015611b57573d6000803e3d6000fd5b505050506040513d6040811015611b6d57600080fd5b810190808051906020019092919080519060200190929190505050915091506000808673ffffffffffffffffffffffffffffffffffffffff166369402cc23033896040518463ffffffff1660e01b8152600401808473ffffffffffffffffffffffffffffffffffffffff1673ffffffffffffffffffffffffffffffffffffffff1681526020018373ffffffffffffffffffffffffffffffffffffffff1673ffffffffffffffffffffffffffffffffffffffff1681526020018273ffffffffffffffffffffffffffffffffffffffff1673ffffffffffffffffffffffffffffffffffffffff1681526020019350505050604080518083038186803b158015611c7357600080fd5b505afa158015611c87573d6000803e3d6000fd5b505050506040513d6040811015611c9d57600080fd5b81019080805190602001909291908051906020019092919050505091509150611d0d6000803373ffffffffffffffffffffffffffffffffffffffff1673ffffffffffffffffffffffffffffffffffffffff16815260200190815260200160002054836133b390919063ffffffff16565b9150611d61600160003373ffffffffffffffffffffffffffffffffffffffff1673ffffffffffffffffffffffffffffffffffffffff168152602001908152602001600020548261358690919063ffffffff16565b90508773ffffffffffffffffffffffffffffffffffffffff16637348c8576040518163ffffffff1660e01b815260040160206040518083038186803b158015611da957600080fd5b505afa158015611dbd573d6000803e3d6000fd5b505050506040513d6020811015611dd357600080fd5b810190808051906020019092919050505015611f9057600060028581611df557fe5b049050600060028581611e0457fe5b0590506000611e1e8388038661361490919063ffffffff16565b90506000611e378388038661369c90919063ffffffff16565b90508973ffffffffffffffffffffffffffffffffffffffff16636a68d0c38a86866040518463ffffffff1660e01b8152600401808473ffffffffffffffffffffffffffffffffffffffff1673ffffffffffffffffffffffffffffffffffffffff1681526020018381526020018281526020019350505050600060405180830381600087803b158015611ec857600080fd5b505af1158015611edc573d6000803e3d6000fd5b505050508973ffffffffffffffffffffffffffffffffffffffff16636a68d0c33384846040518463ffffffff1660e01b8152600401808473ffffffffffffffffffffffffffffffffffffffff1673ffffffffffffffffffffffffffffffffffffffff1681526020018381526020018281526020019350505050600060405180830381600087803b158015611f6f57600080fd5b505af1158015611f83573d6000803e3d6000fd5b505050505050505061205c565b8573ffffffffffffffffffffffffffffffffffffffff16636a68d0c386611fc0878661361490919063ffffffff16565b611fd3878661369c90919063ffffffff16565b6040518463ffffffff1660e01b8152600401808473ffffffffffffffffffffffffffffffffffffffff1673ffffffffffffffffffffffffffffffffffffffff1681526020018381526020018281526020019350505050600060405180830381600087803b15801561204357600080fd5b505af1158015612057573d6000803e3d6000fd5b505050505b60008414158061206d575060008314155b156121e957600a60009054906101000a900473ffffffffffffffffffffffffffffffffffffffff1673ffffffffffffffffffffffffffffffffffffffff16637c9dd789600087896120ef7fffffffffffffffffffffffffffffffffffffffffffffffffffffffffffffffff6120e18b61372a565b6137ac90919063ffffffff16565b6121227fffffffffffffffffffffffffffffffffffffffffffffffffffffffffffffffff8a6137ac90919063ffffffff16565b6040518663ffffffff1660e01b815260040180861515151581526020018573ffffffffffffffffffffffffffffffffffffffff1673ffffffffffffffffffffffffffffffffffffffff1681526020018473ffffffffffffffffffffffffffffffffffffffff1673ffffffffffffffffffffffffffffffffffffffff16815260200183815260200182815260200195505050505050600060405180830381600087803b1580156121d057600080fd5b505af11580156121e4573d6000803e3d6000fd5b505050505b6000821415806121fa575060008114155b1561237657600a60009054906101000a900473ffffffffffffffffffffffffffffffffffffffff1673ffffffffffffffffffffffffffffffffffffffff16637c9dd7896000338961227c7fffffffffffffffffffffffffffffffffffffffffffffffffffffffffffffffff61226e8961372a565b6137ac90919063ffffffff16565b6122af7fffffffffffffffffffffffffffffffffffffffffffffffffffffffffffffffff886137ac90919063ffffffff16565b6040518663ffffffff1660e01b815260040180861515151581526020018573ffffffffffffffffffffffffffffffffffffffff1673ffffffffffffffffffffffffffffffffffffffff1681526020018473ffffffffffffffffffffffffffffffffffffffff1673ffffffffffffffffffffffffffffffffffffffff16815260200183815260200182815260200195505050505050600060405180830381600087803b15801561235d57600080fd5b505af1158015612371573d6000803e3d6000fd5b505050505b5050505050505050565b61238861482d565b6000806000600d601f806020026040519081016040528092919082601f80156123c6576020028201915b8154815260200190600101908083116123b2575b50505050509350602c60009054906101000a900464ffffffffff1664ffffffffff169250600c549150602c60059054906101000a900460ff16905090919293565b6000602d54905090565b60008060008061241f614850565b600460008781526020019081526020016000206040518060800160405290816000820160009054906101000a900473ffffffffffffffffffffffffffffffffffffffff1673ffffffffffffffffffffffffffffffffffffffff1673ffffffffffffffffffffffffffffffffffffffff1681526020016001820154815260200160028201548152602001600382015481525050905080600001519450806020015193508060400151925080606001519150509193509193565b60007f00000000000000000000000000000000000000000000000000000000000000009050606085858585604051602401808581526020018481526020018381526020018281526020019450505050506040516020818303038152906040527f6e904fac000000000000000000000000000000000000000000000000000000007bffffffffffffffffffffffffffffffffffffffffffffffffffffffff19166020820180517bffffffffffffffffffffffffffffffffffffffffffffffffffffffff83818316178352505050509050600080604051604081855160208701885af4806125c257600080fd5b815193506020820151925050503373ffffffffffffffffffffffffffffffffffffffff167fa4f0ef1aa39631fdb9075a5c4272832ae6bdb7f5b9b1020ccf6f31086fa3d99582848b8b6040518085815260200184815260200183815260200182815260200194505050505060405180910390a25050505050505050565b60007f000000000000000000000000000000000000000000000000000000000000000073ffffffffffffffffffffffffffffffffffffffff166040516024016040516020818303038152906040527f7d9ced7c000000000000000000000000000000000000000000000000000000007bffffffffffffffffffffffffffffffffffffffffffffffffffffffff19166020820180517bffffffffffffffffffffffffffffffffffffffffffffffffffffffff83818316178352505050506040518082805190602001908083835b6020831061272e578051825260208201915060208101905060208303925061270b565b6001836020036101000a038019825116818451168082178552505050505050905001915050600060405180830381855af49150503d806000811461278e576040519150601f19603f3d011682016040523d82523d6000602084013e612793565b606091505b50509050806127a157600080fd5b50565b60007f000000000000000000000000000000000000000000000000000000000000000073ffffffffffffffffffffffffffffffffffffffff16838360405160240180838152602001828152602001925050506040516020818303038152906040527f811ee04c000000000000000000000000000000000000000000000000000000007bffffffffffffffffffffffffffffffffffffffffffffffffffffffff19166020820180517bffffffffffffffffffffffffffffffffffffffffffffffffffffffff83818316178352505050506040518082805190602001908083835b602083106128a65780518252602082019150602081019050602083039250612883565b6001836020036101000a038019825116818451168082178552505050505050905001915050600060405180830381855af49150503d8060008114612906576040519150601f19603f3d011682016040523d82523d6000602084013e61290b565b606091505b505090508061291957600080fd5b3373ffffffffffffffffffffffffffffffffffffffff167f7abec35694c35ed7632e2f5b5bdbeeec4ab789a629bb5c933a6d88683c911f628484604051808381526020018281526020019250505060405180910390a2505050565b600080600a60009054906101000a900473ffffffffffffffffffffffffffffffffffffffff1673ffffffffffffffffffffffffffffffffffffffff16630247c79c670de0b6b3a76400006040518263ffffffff1660e01b81526004018082815260200191505060206040518083038186803b1580156129f257600080fd5b505afa158015612a06573d6000803e3d6000fd5b505050506040513d6020811015612a1c57600080fd5b810190808051906020019092919050505090506000600c549050808210612a4b57670de0b6b3a7640000612a79565b612a7882612a6a670de0b6b3a7640000846133fd90919063ffffffff16565b61348390919063ffffffff16565b5b9250505090565b60008060007f0000000000000000000000000000000000000000000000000000000000000000905060608888888888604051602401808681526020018581526020018481526020018361ffff1661ffff16815260200182151515158152602001955050505050506040516020818303038152906040527f8b2c19d9000000000000000000000000000000000000000000000000000000007bffffffffffffffffffffffffffffffffffffffffffffffffffffffff19166020820180517bffffffffffffffffffffffffffffffffffffffffffffffffffffffff83818316178352505050509050600060405180806148d860259139602501905060405180910390209050604051608081845160208601875af480612b9c57600080fd5b33836040808501a2604082f35b6000600160008373ffffffffffffffffffffffffffffffffffffffff1673ffffffffffffffffffffffffffffffffffffffff168152602001908152602001600020549050919050565b6000600754905090565b6000600960009054906101000a900473ffffffffffffffffffffffffffffffffffffffff16905090565b6000600a60009054906101000a900473ffffffffffffffffffffffffffffffffffffffff16905090565b60008060007f0000000000000000000000000000000000000000000000000000000000000000905060608888888888604051602401808681526020018581526020018481526020018361ffff1661ffff16815260200182151515158152602001955050505050506040516020818303038152906040527fb469c14c000000000000000000000000000000000000000000000000000000007bffffffffffffffffffffffffffffffffffffffffffffffffffffffff19166020820180517bffffffffffffffffffffffffffffffffffffffffffffffffffffffff838183161783525050505090506000604051808061496960249139602401905060405180910390209050604051608081845160208601875af480612d6c57600080fd5b33836040808501a2604082f35b60008060007f0000000000000000000000000000000000000000000000000000000000000000905060608888888888604051602401808681526020018581526020018481526020018361ffff1661ffff16815260200182151515158152602001955050505050506040516020818303038152906040527fb488c0a5000000000000000000000000000000000000000000000000000000007bffffffffffffffffffffffffffffffffffffffffffffffffffffffff19166020820180517bffffffffffffffffffffffffffffffffffffffffffffffffffffffff83818316178352505050509050600060405180806148d860259139602501905060405180910390209050604051608081845160208601875af480612e9557600080fd5b33836040808501a2604082f35b60007f000000000000000000000000000000000000000000000000000000000000000073ffffffffffffffffffffffffffffffffffffffff16838360405160240180838152602001828152602001925050506040516020818303038152906040527fc1f5403c000000000000000000000000000000000000000000000000000000007bffffffffffffffffffffffffffffffffffffffffffffffffffffffff19166020820180517bffffffffffffffffffffffffffffffffffffffffffffffffffffffff83818316178352505050506040518082805190602001908083835b60208310612fa45780518252602082019150602081019050602083039250612f81565b6001836020036101000a038019825116818451168082178552505050505050905001915050600060405180830381855af49150503d8060008114613004576040519150601f19603f3d011682016040523d82523d6000602084013e613009565b606091505b505090508061301757600080fd5b3373ffffffffffffffffffffffffffffffffffffffff167f8c59d0e4e3ccb393eba4e619541937f1a6ab1640db6dbef535c37169f02b262f8484604051808381526020018281526020019250505060405180910390a2505050565b6000600260008373ffffffffffffffffffffffffffffffffffffffff1673ffffffffffffffffffffffffffffffffffffffff168152602001908152602001600020549050919050565b6000600b60009054906101000a900473ffffffffffffffffffffffffffffffffffffffff16905090565b6000807f00000000000000000000000000000000000000000000000000000000000000009050606087878787876040516024018086815260200185815260200184815260200183815260200182151515158152602001955050505050506040516020818303038152906040527fcbd7ab6a000000000000000000000000000000000000000000000000000000007bffffffffffffffffffffffffffffffffffffffffffffffffffffffff19166020820180517bffffffffffffffffffffffffffffffffffffffffffffffffffffffff83818316178352505050509050604051602081835160208501865af4806131da57600080fd5b8151945050507fe341f695f1296b2d958c1f6c71150969aca622653575c70d4440bb5a2662e31e8784604051808381526020018281526020019250505060405180910390a1505095945050505050565b6000600360008373ffffffffffffffffffffffffffffffffffffffff1673ffffffffffffffffffffffffffffffffffffffff168152602001908152602001600020549050919050565b60008060007f0000000000000000000000000000000000000000000000000000000000000000905060608888888888604051602401808681526020018581526020018481526020018361ffff1661ffff16815260200182151515158152602001955050505050506040516020818303038152906040527fea8923db000000000000000000000000000000000000000000000000000000007bffffffffffffffffffffffffffffffffffffffffffffffffffffffff19166020820180517bffffffffffffffffffffffffffffffffffffffffffffffffffffffff838183161783525050505090506000604051808061496960249139602401905060405180910390209050604051608081845160208601875af48061338f57600080fd5b33836040808501a2604082f35b6000602c60069054906101000a900460ff16905090565b60006133f583836040518060400160405280601e81526020017f536166654d6174683a207375627472616374696f6e206f766572666c6f7700008152506138d6565b905092915050565b600080831415613410576000905061347d565b600082840290508284828161342157fe5b0414613478576040517f08c379a00000000000000000000000000000000000000000000000000000000081526004018080602001828103825260218152602001806148fd6021913960400191505060405180910390fd5b809150505b92915050565b60006134c583836040518060400160405280601a81526020017f536166654d6174683a206469766973696f6e206279207a65726f000000000000815250613996565b905092915050565b60008082600f0b14156134df57600080fd5b600082600f0b604085600f0b901b816134f457fe5b0590507fffffffffffffffffffffffffffffffff80000000000000000000000000000000600f0b811215801561353d57506f7fffffffffffffffffffffffffffffff600f0b8113155b61354657600080fd5b8091505092915050565b600061357e6135768361356586600f0b613a5c565b600f0b613b8490919063ffffffff16565b600f0b613bef565b905092915050565b60008082840390506000831215801561359f5750838113155b806135b557506000831280156135b457508381135b5b61360a576040517f08c379a00000000000000000000000000000000000000000000000000000000081526004018080602001828103825260248152602001806149456024913960400191505060405180910390fd5b8091505092915050565b600080828401905083811015613692576040517f08c379a000000000000000000000000000000000000000000000000000000000815260040180806020018281038252601b8152602001807f536166654d6174683a206164646974696f6e206f766572666c6f77000000000081525060200191505060405180910390fd5b8091505092915050565b6000808284019050600083121580156136b55750838112155b806136cb57506000831280156136ca57508381125b5b613720576040517f08c379a000000000000000000000000000000000000000000000000000000000815260040180806020018281038252602181526020018061488f6021913960400191505060405180910390fd5b8091505092915050565b60007fffffffffffffffffffffffffffffffffffffffffffffffffffffffffffffffff82915081136137a7576040517f08c379a00000000000000000000000000000000000000000000000000000000081526004018080602001828103825260288152602001806148b06028913960400191505060405180910390fd5b919050565b6000808314156137bf57600090506138d0565b7fffffffffffffffffffffffffffffffffffffffffffffffffffffffffffffffff8314801561380d57507f800000000000000000000000000000000000000000000000000000000000000082145b15613863576040517f08c379a000000000000000000000000000000000000000000000000000000000815260040180806020018281038252602781526020018061491e6027913960400191505060405180910390fd5b600082840290508284828161387457fe5b05146138cb576040517f08c379a000000000000000000000000000000000000000000000000000000000815260040180806020018281038252602781526020018061491e6027913960400191505060405180910390fd5b809150505b92915050565b6000838311158290613983576040517f08c379a00000000000000000000000000000000000000000000000000000000081526004018080602001828103825283818151815260200191508051906020019080838360005b8381101561394857808201518184015260208101905061392d565b50505050905090810190601f1680156139755780820380516001836020036101000a031916815260200191505b509250505060405180910390fd5b5060008385039050809150509392505050565b60008083118290613a42576040517f08c379a00000000000000000000000000000000000000000000000000000000081526004018080602001828103825283818151815260200191508051906020019080838360005b83811015613a075780820151818401526020810190506139ec565b50505050905090810190601f168015613a345780820380516001836020036101000a031916815260200191505b509250505060405180910390fd5b506000838581613a4e57fe5b049050809150509392505050565b60008082600f0b13613a6d57600080fd5b6000809050600083600f0b9050680100000000000000008112613a9857604081901d90506040820191505b6401000000008112613ab257602081901d90506020820191505b620100008112613aca57601081901d90506010820191505b6101008112613ae157600881901d90506008820191505b60108112613af757600481901d90506004820191505b60048112613b0d57600281901d90506002820191505b60028112613b1c576001820191505b60006040808403901b9050600083607f0386600f0b901b9050600067800000000000000090505b6000811315613b77578182029150600060ff83901c905080607f0183901c92508082028401935050600181901d9050613b43565b5081945050505050919050565b600080604083600f0b85600f0b02901d90507fffffffffffffffffffffffffffffffff80000000000000000000000000000000600f0b8112158015613bdc57506f7fffffffffffffffffffffffffffffff600f0b8113155b613be557600080fd5b8091505092915050565b60006840000000000000000082600f0b12613c0957600080fd5b7fffffffffffffffffffffffffffffffffffffffffffffffc0000000000000000082600f0b1215613c3d57600090506147ea565b60006f80000000000000000000000000000000905060006780000000000000008416600f0b1315613c8357608070016a09e667f3bcc908b2fb1366ea957d3e8202901c90505b60006740000000000000008416600f0b1315613cb45760807001306fe0a31b7152de8d5a46305c85edec8202901c90505b60006720000000000000008416600f0b1315613ce55760807001172b83c7d517adcdf7c8c50eb14a791f8202901c90505b60006710000000000000008416600f0b1315613d1657608070010b5586cf9890f6298b92b71842a983638202901c90505b60006708000000000000008416600f0b1315613d475760807001059b0d31585743ae7c548eb68ca417fd8202901c90505b60006704000000000000008416600f0b1315613d78576080700102c9a3e778060ee6f7caca4f7a29bde88202901c90505b60006702000000000000008416600f0b1315613da957608070010163da9fb33356d84a66ae336dcdfa3f8202901c90505b60006701000000000000008416600f0b1315613dda576080700100b1afa5abcbed6129ab13ec11dc95438202901c90505b600066800000000000008416600f0b1315613e0a57608070010058c86da1c09ea1ff19d294cf2f679b8202901c90505b600066400000000000008416600f0b1315613e3a5760807001002c605e2e8cec506d21bfc89a23a00f8202901c90505b600066200000000000008416600f0b1315613e6a576080700100162f3904051fa128bca9c55c31e5df8202901c90505b600066100000000000008416600f0b1315613e9a5760807001000b175effdc76ba38e31671ca9397258202901c90505b600066080000000000008416600f0b1315613eca576080700100058ba01fb9f96d6cacd4b180917c3d8202901c90505b600066040000000000008416600f0b1315613efa57608070010002c5cc37da9491d0985c348c68e7b38202901c90505b600066020000000000008416600f0b1315613f2a5760807001000162e525ee054754457d59952920268202901c90505b600066010000000000008416600f0b1315613f5a57608070010000b17255775c040618bf4a4ade83fc8202901c90505b6000658000000000008416600f0b1315613f895760807001000058b91b5bc9ae2eed81e9b7d4cfab8202901c90505b6000654000000000008416600f0b1315613fb8576080700100002c5c89d5ec6ca4d7c8acc017b7c98202901c90505b6000652000000000008416600f0b1315613fe757608070010000162e43f4f831060e02d839a9d16d8202901c90505b6000651000000000008416600f0b1315614016576080700100000b1721bcfc99d9f890ea069117638202901c90505b6000650800000000008416600f0b131561404557608070010000058b90cf1e6d97f9ca14dbcc16288202901c90505b6000650400000000008416600f0b13156140745760807001000002c5c863b73f016468f6bac5ca2b8202901c90505b6000650200000000008416600f0b13156140a3576080700100000162e430e5a18f6119e3c02282a58202901c90505b6000650100000000008416600f0b13156140d25760807001000000b1721835514b86e6d96efd1bfe8202901c90505b60006480000000008416600f0b1315614100576080700100000058b90c0b48c6be5df846c5b2ef8202901c90505b60006440000000008416600f0b131561412e57608070010000002c5c8601cc6b9e94213c72737a8202901c90505b60006420000000008416600f0b131561415c5760807001000000162e42fff037df38aa2b219f068202901c90505b60006410000000008416600f0b131561418a57608070010000000b17217fba9c739aa5819f44f98202901c90505b60006408000000008416600f0b13156141b85760807001000000058b90bfcdee5acd3c1cedc8238202901c90505b60006404000000008416600f0b13156141e6576080700100000002c5c85fe31f35a6a30da1be508202901c90505b60006402000000008416600f0b131561421457608070010000000162e42ff0999ce3541b9fffcf8202901c90505b60006401000000008416600f0b1315614242576080700100000000b17217f80f4ef5aadda455548202901c90505b600063800000008416600f0b131561426f57608070010000000058b90bfbf8479bd5a81b51ad8202901c90505b600063400000008416600f0b131561429c5760807001000000002c5c85fdf84bd62ae30a74cc8202901c90505b600063200000008416600f0b13156142c9576080700100000000162e42fefb2fed257559bdaa8202901c90505b600063100000008416600f0b13156142f65760807001000000000b17217f7d5a7716bba4a9ae8202901c90505b600063080000008416600f0b1315614323576080700100000000058b90bfbe9ddbac5e109cce8202901c90505b600063040000008416600f0b131561435057608070010000000002c5c85fdf4b15de6f17eb0d8202901c90505b600063020000008416600f0b131561437d5760807001000000000162e42fefa494f1478fde058202901c90505b600063010000008416600f0b13156143aa57608070010000000000b17217f7d20cf927c8e94c8202901c90505b6000628000008416600f0b13156143d65760807001000000000058b90bfbe8f71cb4e4b33d8202901c90505b6000624000008416600f0b1315614402576080700100000000002c5c85fdf477b662b269458202901c90505b6000622000008416600f0b131561442e57608070010000000000162e42fefa3ae53369388c8202901c90505b6000621000008416600f0b131561445a576080700100000000000b17217f7d1d351a389d408202901c90505b6000620800008416600f0b131561448657608070010000000000058b90bfbe8e8b2d3d4ede8202901c90505b6000620400008416600f0b13156144b25760807001000000000002c5c85fdf4741bea6e77e8202901c90505b6000620200008416600f0b13156144de576080700100000000000162e42fefa39fe95583c28202901c90505b6000620100008416600f0b131561450a5760807001000000000000b17217f7d1cfb72b45e18202901c90505b60006180008416600f0b1315614535576080700100000000000058b90bfbe8e7cc35c3f08202901c90505b60006140008416600f0b131561456057608070010000000000002c5c85fdf473e242ea388202901c90505b60006120008416600f0b131561458b5760807001000000000000162e42fefa39f02b772c8202901c90505b60006110008416600f0b13156145b657608070010000000000000b17217f7d1cf7d83c1a8202901c90505b60006108008416600f0b13156145e15760807001000000000000058b90bfbe8e7bdcbe2e8202901c90505b60006104008416600f0b131561460c576080700100000000000002c5c85fdf473dea871f8202901c90505b60006102008416600f0b131561463757608070010000000000000162e42fefa39ef44d918202901c90505b60006101008416600f0b1315614662576080700100000000000000b17217f7d1cf79e9498202901c90505b600060808416600f0b131561468c57608070010000000000000058b90bfbe8e7bce5448202901c90505b600060408416600f0b13156146b65760807001000000000000002c5c85fdf473de6eca8202901c90505b600060208416600f0b13156146e0576080700100000000000000162e42fefa39ef366f8202901c90505b600060108416600f0b131561470a5760807001000000000000000b17217f7d1cf79afa8202901c90505b600060088416600f0b1315614734576080700100000000000000058b90bfbe8e7bcd6d8202901c90505b600060048416600f0b131561475e57608070010000000000000002c5c85fdf473de6b28202901c90505b600060028416600f0b13156147885760807001000000000000000162e42fefa39ef3588202901c90505b600060018416600f0b13156147b257608070010000000000000000b17217f7d1cf79ab8202901c90505b604083600f0b901d603f03600f0b81901c90506f7fffffffffffffffffffffffffffffff600f0b8111156147e557600080fd5b809150505b919050565b6040518060800160405280600073ffffffffffffffffffffffffffffffffffffffff1681526020016000815260200160008152602001600081525090565b604051806103e00160405280601f90602082028036833780820191505090505090565b6040518060800160405280600073ffffffffffffffffffffffffffffffffffffffff168152602001600081526020016000815260200160008152509056fe5369676e6564536166654d6174683a206164646974696f6e206f766572666c6f77536166654d6174683a20696e76616c69642075696e7420746f20696e7420636f6e76657273696f6e4d61726b65744275795a434228616464726573732c75696e743235362c75696e7432353629536166654d6174683a206d756c7469706c69636174696f6e206f766572666c6f775369676e6564536166654d6174683a206d756c7469706c69636174696f6e206f766572666c6f775369676e6564536166654d6174683a207375627472616374696f6e206f766572666c6f774d61726b6574427579595428616464726573732c75696e743235362c75696e7432353629a264697066735822122091ace81785ebea153c967f23b2f2f9018c650e6a984ea85d45ff9df07586eed764736f6c63430006080033",
  "immutableReferences": {
    "13807": [
      {
        "length": 32,
        "start": 5381
      },
      {
        "length": 32,
        "start": 10887
      },
      {
        "length": 32,
        "start": 11648
      },
      {
        "length": 32,
        "start": 12922
      }
    ],
    "13809": [
      {
        "length": 32,
        "start": 5990
      },
      {
        "length": 32,
        "start": 11351
      }
    ],
    "13811": [
      {
        "length": 32,
        "start": 3075
      },
      {
        "length": 32,
        "start": 3409
      },
      {
        "length": 32,
        "start": 4649
      },
      {
        "length": 32,
        "start": 5009
      },
      {
        "length": 32,
        "start": 9435
      },
      {
        "length": 32,
        "start": 9795
      },
      {
        "length": 32,
        "start": 10152
      },
      {
        "length": 32,
        "start": 11942
      },
      {
        "length": 32,
        "start": 12522
      }
    ]
  },
  "source": "// SPDX-License-Identifier: MIT\npragma solidity >=0.6.8 <0.7.0;\n\nimport \"../interfaces/IWrapper.sol\";\nimport \"../interfaces/IFixCapitalPool.sol\";\nimport \"../interfaces/IOrderbookExchange.sol\";\nimport \"../helpers/Ownable.sol\";\nimport \"../libraries/SafeMath.sol\";\nimport \"../libraries/SignedSafeMath.sol\";\nimport \"../libraries/ABDKMath64x64.sol\";\nimport \"../libraries/BigMath.sol\";\nimport \"./OrderbookData.sol\";\n\ncontract OrderbookExchange is OrderbookData, IOrderbookExchange {\n\n\taddress immutable delegate1Address;\n\taddress immutable delegate2Address;\n\taddress immutable delegate3Address;\n\n\tusing SafeMath for uint256;\n\tusing SignedSafeMath for int256;\n\tusing ABDKMath64x64 for int128;\n\n\tconstructor(\n\t\taddress _FCPaddress,\n\t\taddress _infoOracleAddress,\n\t\taddress _delegate1Address,\n\t\taddress _delegate2Address,\n\t\taddress _delegate3Address\n\t) public {\n\t\tinternalFCP = IFixCapitalPool(_FCPaddress);\n\t\tinternalIORC = IInfoOracle(_infoOracleAddress);\n\t\tIWrapper tempWrapper = IFixCapitalPool(_FCPaddress).wrapper();\n\t\tinternalMaturity = IFixCapitalPool(_FCPaddress).maturity();\n\t\tinternalWrapper = tempWrapper;\n\t\tdelegate1Address = _delegate1Address;\n\t\tdelegate2Address = _delegate2Address;\n\t\tdelegate3Address = _delegate3Address;\n\t\ttempWrapper.registerAsDistributionAccount();\n\t}\n\n\t/*\n\t\t@Description: deposit ZCB & YT into the orderbook, pass a yield and bond amount\n\n\t\t@param uint _amountYield: the yield amount of the ZCB YT position to deposit\n\t\t@param int _amoutBond: the bond amount of the ZCB YT position to deposit\n\t*/\n\tfunction deposit(uint _amountYield, int _amountBond) external override {\n\t\t(bool success, ) = delegate3Address.delegatecall(abi.encodeWithSignature(\n\t\t\t\"deposit(uint256,int256)\",\n\t\t\t_amountYield,\n\t\t\t_amountBond\n\t\t));\n\t\trequire(success);\n\t\temit Deposit(msg.sender, _amountYield, _amountBond);\n\t}\n\n\t/*\n\t\t@Description: withdraw ZCB & YT from the orderbook, pass a yiel and bond amount\n\n\t\t@param uint _amountYield: the yield amount of the ZCB YT position to withdraw\n\t\t@param int _amountBond: the bond amount of the ZCB YT position to withdraw\n\t*/\n\tfunction withdraw(uint _amountYield, int _amountBond) external override {\n\t\t(bool success, ) = delegate3Address.delegatecall(abi.encodeWithSignature(\n\t\t\t\"withdraw(uint256,int256)\",\n\t\t\t_amountYield,\n\t\t\t_amountBond\n\t\t));\n\t\trequire(success);\n\t\temit Withdrawal(msg.sender, _amountYield, _amountBond);\n\t}\n\n\t//-------------------externally-callable-------------------\n\n\t/*\n\t\t@Description: post a limit order to sell a specific amount of ZCB at a specific MCR\n\n\t\t@param uint _amount: the amount of ZCB to sell\n\t\t@param uint _maturityConversionRate: the MCR at which to sell the ZCB\n\t\t@param uint _hintID: the ID that will act as a hint for where to place the order, helps save gas\n\t\t@param uint _maxSteps: the maximum iterations to find the correct insertion point\n\t\t\tif _maxSteps is exceeded the tx will revert\n\t*/\n\tfunction limitSellZCB(\n\t\tuint _amount,\n\t\tuint _maturityConversionRate,\n\t\tuint _hintID,\n\t\tuint _maxSteps\n\t) external override {\n\t\taddress _delegateAddress = delegate3Address;\n\t\tbytes memory sig = abi.encodeWithSignature(\n\t\t\t\"limitSellZCB(uint256,uint256,uint256,uint256)\",\n\t\t\t_amount,\n\t\t\t_maturityConversionRate,\n\t\t\t_hintID,\n\t\t\t_maxSteps\n\t\t);\n\n\t\tuint newID;\n\t\tuint prevID;\n\t\tassembly {\n\t\t\tlet retPtr := mload(0x40)\n\n\t\t\tlet success := delegatecall(gas(), _delegateAddress, add(sig, 0x20), mload(sig), retPtr, 0x40)\n\n\t\t\tif iszero(success) { revert(0,0) }\n\n\t\t\tnewID := mload(retPtr)\n\t\t\tprevID := mload(add(retPtr, 0x20))\n\t\t}\n\n\t\temit MakeLimitSellZCB(msg.sender, prevID, newID, _amount, _maturityConversionRate);\n\t}\n\n\t/*\n\t\t@Description: post a limit order to sell a specific amount of static YT at a specific MCR\n\n\t\t@param uint _amount: the amount of YT to sell\n\t\t@param uint _maturityConversionRate: the MCR at which to sell the YT\n\t\t@param uint _hintID: the ID that will act as a hint for where to place the order, helps save gas\n\t\t@param uint _maxSteps: the maximum iterations to find the correct insertion point\n\t\t\tif _maxSteps is exceeded the tx will revert\n\t*/\n\tfunction limitSellYT(\n\t\tuint _amount,\n\t\tuint _maturityConversionRate,\n\t\tuint _hintID,\n\t\tuint _maxSteps\n\t) external override {\n\t\taddress _delegateAddress = delegate3Address;\n\t\tbytes memory sig = abi.encodeWithSignature(\n\t\t\t\"limitSellYT(uint256,uint256,uint256,uint256)\",\n\t\t\t_amount,\n\t\t\t_maturityConversionRate,\n\t\t\t_hintID,\n\t\t\t_maxSteps\n\t\t);\n\n\t\tuint newID;\n\t\tuint prevID;\n\t\tassembly {\n\t\t\tlet retPtr := mload(0x40)\n\n\t\t\tlet success := delegatecall(gas(), _delegateAddress, add(sig, 0x20), mload(sig), retPtr, 0x40)\n\n\t\t\tif iszero(success) { revert(0,0) }\n\n\t\t\tnewID := mload(retPtr)\n\t\t\tprevID := mload(add(retPtr, 0x20))\n\t\t}\n\n\t\temit MakeLimitSellYT(msg.sender, prevID, newID, _amount, _maturityConversionRate);\n\t}\n\n\t/*\n\t\t@Description: modify the amount in a ZCB limit sell order, msg.sender must be order maker\n\n\t\t@param int _amount: the amount by which to change the order amount\n\t\t@param uint _targetID: the ID of the order to edit\n\t\t@praam uint _hintID: the ID that will act as a hint to find the order previous to the target order\n\t\t@param uint _maxSteps: the maximum iterations to find the order previous to target order\n\t\t@param bool _removeBelowMin: if true is passed the order will be entirely cancelled if the resulting change\n\t\t\tin order amount results in the order amount being below the minimum amount\n\t*/\n\tfunction modifyZCBLimitSell(\n\t\tint _amount,\n\t\tuint _targetID,\n\t\tuint _hintID,\n\t\tuint _maxSteps,\n\t\tbool _removeBelowMin\n\t) external override returns(int change) {\n\t\taddress _delegateAddress = delegate3Address;\n\t\tbytes memory sig = abi.encodeWithSignature(\n\t\t\t\"modifyZCBLimitSell(int256,uint256,uint256,uint256,bool)\",\n\t\t\t_amount,\n\t\t\t_targetID,\n\t\t\t_hintID,\n\t\t\t_maxSteps,\n\t\t\t_removeBelowMin\n\t\t);\n\n\t\tassembly {\n\t\t\tlet retPtr := mload(0x40)\n\n\t\t\tlet success := delegatecall(gas(), _delegateAddress, add(sig, 0x20), mload(sig), retPtr, 0x20)\n\n\t\t\tif iszero(success) { revert(0,0) }\n\n\t\t\tchange := mload(retPtr)\n\t\t}\n\n\t\temit ModifyOrder(_targetID, change);\n\t}\n\n\t/*\n\t\t@Description: modify the amount in a YT limit sell order, msg.sender must be order maker\n\n\t\t@param int _amount: the amount by which to change the order amount\n\t\t@param uint _targetID: the ID of the order to edit\n\t\t@praam uint _hintID: the ID that will act as a hint to find the order previous to the target order\n\t\t@param uint _maxSteps: the maximum iterations to find the order previous to target order\n\t\t@param bool _removeBelowMin: if true is passed the order will be entirely cancelled if the resulting change\n\t\t\tin order amount results in the order amount being below the minimum amount\n\t*/\n\tfunction modifyYTLimitSell(\n\t\tint _amount,\n\t\tuint _targetID,\n\t\tuint _hintID,\n\t\tuint _maxSteps,\n\t\tbool _removeBelowMin\n\t) external override returns(int change) {\n\t\taddress _delegateAddress = delegate3Address;\n\t\tbytes memory sig = abi.encodeWithSignature(\n\t\t\t\"modifyYTLimitSell(int256,uint256,uint256,uint256,bool)\",\n\t\t\t_amount,\n\t\t\t_targetID,\n\t\t\t_hintID,\n\t\t\t_maxSteps,\n\t\t\t_removeBelowMin\n\t\t);\n\n\t\tassembly {\n\t\t\tlet retPtr := mload(0x40)\n\n\t\t\tlet success := delegatecall(gas(), _delegateAddress, add(sig, 0x20), mload(sig), retPtr, 0x20)\n\n\t\t\tif iszero(success) { revert(0,0) }\n\n\t\t\tchange := mload(retPtr)\n\t\t}\n\n\t\temit ModifyOrder(_targetID, change);\n\t}\n\n\t/*\n\t\t@Description: buy a specific amount of YT off of the market\n\n\t\t@param uint _amountYT: the amount of YT to buy\n\t\t@param uint _maxMaturityConversionRate: the maximum MCR of the head order to continue purchasing more YT\n\t\t@param uint _maxCumulativeMaturityConversionRate: if this is smaller than the effective MCR based on ZCB in and YT out at end of execution revert\n\t\t@param uint16 _maxIterations: the maximum amount of limit orders to fully fill, important for gas considerations\n\t\t@param bool _useInternalBalances: pass true to ue YieldDeposited and BondDeposited to cover costs and receive payment\n\t\t\totherwise use transferPositionFrom and transferPosition on the baseFCP to get required input and send required output\n\t*/\n\tfunction marketBuyYT(\n\t\tuint _amountYT,\n\t\tuint _maxMaturityConversionRate,\n\t\tuint _maxCumulativeMaturityConversionRate,\n\t\tuint16 _maxIterations,\n\t\tbool _useInternalBalances\n\t) external override returns(uint /*YTbought*/,uint /*ZCBsold*/) {\n\t\taddress _delegateAddress = delegate1Address;\n\t\tbytes memory sig = abi.encodeWithSignature(\n\t\t\t\"marketBuyYT(uint256,uint256,uint256,uint16,bool)\",\n\t\t\t_amountYT,\n\t\t\t_maxMaturityConversionRate,\n\t\t\t_maxCumulativeMaturityConversionRate,\n\t\t\t_maxIterations,\n\t\t\t_useInternalBalances\n\t\t);\n\n\t\tbytes32 nameTopic = keccak256(\"MarketBuyYT(address,uint256,uint256)\");\n\t\tassembly {\n\t\t\tlet retPtr := mload(0x40)\n\n\t\t\tlet success := delegatecall(gas(), _delegateAddress, add(sig, 0x20), mload(sig), retPtr, 0x80)\n\n\t\t\tif iszero(success) { revert(0,0) }\n\n\t\t\tlog2(add(retPtr, 0x40), 0x40, nameTopic, caller())\n\t\t\treturn(retPtr, 0x40)\n\t\t}\n\n\t}\n\n\t/*\n\t\t@Description: sell a specific amount of YT on the market\n\n\t\t@param uint _amountYT: the amount of YT to sell\n\t\t@param uint _minMaturityConversionRate: the minimum MCR of the head order to continue selling more YT\n\t\t@param uint _minCumulativeMaturityConversionRate: if this is greater than the effective MCR based on YT in and ZCB out at end of execution revert\n\t\t@param uint16 _maxIterations: the maximum amount of limit orders to fully fill, important for gas considerations\n\t\t@param bool _useInternalBalances: pass true to ue YieldDeposited and BondDeposited to cover costs and receive payment\n\t\t\totherwise use transferPositionFrom and transferPosition on the baseFCP to get required input and send required output\n\t*/\n\tfunction marketSellYT(\n\t\tuint _amountYT,\n\t\tuint _minMaturityConversionRate,\n\t\tuint _minCumulativeMaturityConversionRate,\n\t\tuint16 _maxIterations,\n\t\tbool _useInternalBalances\n\t) external override returns(uint /*ZCBbought*/, uint /*YTsold*/) {\n\t\taddress _delegateAddress = delegate1Address;\n\t\tbytes memory sig = abi.encodeWithSignature(\n\t\t\t\"marketSellYT(uint256,uint256,uint256,uint16,bool)\",\n\t\t\t_amountYT,\n\t\t\t_minMaturityConversionRate,\n\t\t\t_minCumulativeMaturityConversionRate,\n\t\t\t_maxIterations,\n\t\t\t_useInternalBalances\n\t\t);\n\n\t\tbytes32 nameTopic = keccak256(\"MarketBuyZCB(address,uint256,uint256)\");\n\t\tassembly {\n\t\t\tlet retPtr := mload(0x40)\n\n\t\t\tlet success := delegatecall(gas(), _delegateAddress, add(sig, 0x20), mload(sig), retPtr, 0x80)\n\n\t\t\tif iszero(success) { revert(0,0) }\n\n\t\t\tlog2(add(retPtr, 0x40), 0x40, nameTopic, caller())\n\t\t\treturn(retPtr, 0x40)\n\t\t}\n\t}\n\n\t/*\n\t\t@Description: buy a specific amount of ZCB off of the market\n\n\t\t@param uint _amountZCB: the amount of ZCB to buy\n\t\t@param uint _minMaturityConversionRate: the minimum MCR of the head order to continue purchasing more ZCB\n\t\t@param uint _minCumulativeMaturityConversionRate: if this is greater than the effective MCR based on YT in and ZCB out at end of execution revert\n\t\t@param uint16 _maxIterations: the maximum amount of limit orders to fully fill, important for gas considerations\n\t\t@param bool _useInternalBalances: pass true to ue YieldDeposited and BondDeposited to cover costs and receive payment\n\t\t\totherwise use transferPositionFrom and transferPosition on the baseFCP to get required input and send required output\n\t*/\n\tfunction marketBuyZCB(\n\t\tuint _amountZCB,\n\t\tuint _minMaturityConversionRate,\n\t\tuint _minCumulativeMaturityConversionRate,\n\t\tuint16 _maxIterations,\n\t\tbool _useInternalBalances\n\t) external override returns(uint /*ZCBbought*/, uint /*YTsold*/) {\n\t\taddress _delegateAddress = delegate1Address;\n\t\tbytes memory sig = abi.encodeWithSignature(\n\t\t\t\"marketBuyZCB(uint256,uint256,uint256,uint16,bool)\",\n\t\t\t_amountZCB,\n\t\t\t_minMaturityConversionRate,\n\t\t\t_minCumulativeMaturityConversionRate,\n\t\t\t_maxIterations,\n\t\t\t_useInternalBalances\n\t\t);\n\n\t\tbytes32 nameTopic = keccak256(\"MarketBuyZCB(address,uint256,uint256)\");\n\t\tassembly {\n\t\t\tlet retPtr := mload(0x40)\n\n\t\t\tlet success := delegatecall(gas(), _delegateAddress, add(sig, 0x20), mload(sig), retPtr, 0x80)\n\n\t\t\tif iszero(success) { revert(0,0) }\n\n\t\t\tlog2(add(retPtr, 0x40), 0x40, nameTopic, caller())\n\t\t\treturn(retPtr, 0x40)\n\t\t}\n\t}\n\n\t/*\n\t\t@Description: sell a specific amount of ZCB on the market\n\n\t\t@param uint _amountZCB: the amount of ZCB to sell\n\t\t@param uint _maxMaturityConversionRate: the maximum MCR of the head order to continue selling more ZCB\n\t\t@param uint _maxCumulativeMaturityConversionRate: if this is smaller than the effective MCR based on ZCB in and YT out at end of execution revert\n\t\t@param uint16 _maxIterations: the maximum amount of limit orders to fully fill, important for gas considerations\n\t\t@param bool _useInternalBalances: pass true to ue YieldDeposited and BondDeposited to cover costs and receive payment\n\t\t\totherwise use transferPositionFrom and transferPosition on the baseFCP to get required input and send required output\n\t*/\n\tfunction marketSellZCB(\n\t\tuint _amountZCB,\n\t\tuint _maxMaturityConversionRate,\n\t\tuint _maxCumulativeMaturityConversionRate,\n\t\tuint16 _maxIterations,\n\t\tbool _useInternalBalances\n\t) external override returns(uint /*YTbought*/, uint /*ZCBsold*/) {\n\t\taddress _delegateAddress = delegate1Address;\n\t\tbytes memory sig = abi.encodeWithSignature(\n\t\t\t\"marketSellZCB(uint256,uint256,uint256,uint16,bool)\",\n\t\t\t_amountZCB,\n\t\t\t_maxMaturityConversionRate,\n\t\t\t_maxCumulativeMaturityConversionRate,\n\t\t\t_maxIterations,\n\t\t\t_useInternalBalances\n\t\t);\n\n\t\tbytes32 nameTopic = keccak256(\"MarketBuyYT(address,uint256,uint256)\");\n\t\tassembly {\n\t\t\tlet retPtr := mload(0x40)\n\n\t\t\tlet success := delegatecall(gas(), _delegateAddress, add(sig, 0x20), mload(sig), retPtr, 0x80)\n\n\t\t\tif iszero(success) { revert(0,0) }\n\n\t\t\tlog2(add(retPtr, 0x40), 0x40, nameTopic, caller())\n\t\t\treturn(retPtr, 0x40)\n\t\t}\n\t}\n\n\t/*\n\t\t@Description: sell a specific amount of ZCB on the market in order to recive U (an equal amount of ZCB & YT)\n\n\t\t@param uint _amountZCB: the amount of ZCB to sell\n\t\t@param uint _maxMaturityConversionRate: the maximum MCR of the head order to continue selling more ZCB\n\t\t@param uint _maxCumulativeMaturityConversionRate: if this is smaller than the effective MCR based on ZCB in and YT out at end of execution revert\n\t\t@param uint16 _maxIterations: the maximum amount of limit orders to fully fill, important for gas considerations\n\t\t@param bool _useInternalBalances: pass true to ue YieldDeposited and BondDeposited to cover costs and receive payment\n\t\t\totherwise use transferPositionFrom and transferPosition on the baseFCP to get required input and send required output\n\t*/\n\tfunction marketSellZCBtoU(\n\t\tuint _amountZCB,\n\t\tuint _maxMaturityConversionRate,\n\t\tuint _maxCumulativeMaturityConversionRate,\n\t\tuint16 _maxIterations,\n\t\tbool _useInternalBalances\n\t) external override returns(uint /*YTbought*/, uint /*ZCBsold*/) {\n\t\taddress _delegateAddress = delegate2Address;\n\t\tbytes memory sig = abi.encodeWithSignature(\n\t\t\t\"marketSellZCBtoU(uint256,uint256,uint256,uint16,bool)\",\n\t\t\t_amountZCB,\n\t\t\t_maxMaturityConversionRate,\n\t\t\t_maxCumulativeMaturityConversionRate,\n\t\t\t_maxIterations,\n\t\t\t_useInternalBalances\n\t\t);\n\n\t\tbytes32 nameTopic = keccak256(\"MarketBuyYT(address,uint256,uint256)\");\n\t\tassembly {\n\t\t\tlet retPtr := mload(0x40)\n\n\t\t\tlet success := delegatecall(gas(), _delegateAddress, add(sig, 0x20), mload(sig), retPtr, 0x80)\n\n\t\t\tif iszero(success) { revert(0,0) }\n\n\t\t\tlog2(add(retPtr, 0x40), 0x40, nameTopic, caller())\n\t\t\treturn(retPtr, 0x40)\n\t\t}\n\t}\n\n\t/*\n\t\t@Description: sell a specific amount of YT on the market in order to receive U (an equal amount of ZCB & YT)\n\n\t\t@param uint _amountYT: the amount of YT to sell\n\t\t@param uint _minMaturityConversionRate: the minimum MCR of the head order to continue selling more YT\n\t\t@param uint _minCumulativeMaturityConversionRate: if this is greater than the effective MCR based on YT in and ZCB out at end of execution revert\n\t\t@param uint16 _maxIterations: the maximum amount of limit orders to fully fill, important for gas considerations\n\t\t@param bool _useInternalBalances: pass true to ue YieldDeposited and BondDeposited to cover costs and receive payment\n\t\t\totherwise use transferPositionFrom and transferPosition on the baseFCP to get required input and send required output\n\t*/\n\tfunction marketSellUnitYTtoU(\n\t\tuint _unitAmountYT,\n\t\tuint _minMaturityConversionRate,\n\t\tuint _minCumulativeMaturityConversionRate,\n\t\tuint16 _maxIterations,\n\t\tbool _useInternalBalances\n\t) external override returns(uint /*ZCBbought*/, uint /*YTsold*/) {\n\t\taddress _delegateAddress = delegate2Address;\n\t\tbytes memory sig = abi.encodeWithSignature(\n\t\t\t\"marketSellUnitYTtoU(uint256,uint256,uint256,uint16,bool)\",\n\t\t\t_unitAmountYT,\n\t\t\t_minMaturityConversionRate,\n\t\t\t_minCumulativeMaturityConversionRate,\n\t\t\t_maxIterations,\n\t\t\t_useInternalBalances\n\t\t);\n\n\t\tbytes32 nameTopic = keccak256(\"MarketBuyZCB(address,uint256,uint256)\");\n\t\tassembly {\n\t\t\tlet retPtr := mload(0x40)\n\n\t\t\tlet success := delegatecall(gas(), _delegateAddress, add(sig, 0x20), mload(sig), retPtr, 0x80)\n\n\t\t\tif iszero(success) { revert(0,0) }\n\n\t\t\tlog2(add(retPtr, 0x40), 0x40, nameTopic, caller())\n\t\t\treturn(retPtr, 0x40)\n\t\t}\n\t}\n\n\t/*\n\t\t@Description: force claim sub account rewards where distribution account is the orderbook and sub acct is msg.sender\n\t*/\n\tfunction forceClaimSubAccountRewards() external override {\n\t\t(bool success, ) = delegate3Address.delegatecall(abi.encodeWithSignature(\"forceClaimSubAccountRewards()\"));\n\t\trequire(success);\n\t}\n\n\t//-----------------rate-oracle---------------------\n\n\t/*\n\t\t@Description: force the rate oracle to record a new datapoint\n\t*/\n\tfunction forceRateDataUpdate() external override {\n\t\t(bool success, ) = delegate3Address.delegatecall(abi.encodeWithSignature(\"forceRateDataUpdate()\"));\n\t\trequire(success);\n\t}\n\n\t/*\n\t\t@Description: set the median of all datapoints in the impliedRates array as the\n\t\t\toracle rate, may only be called after all datapoints have been updated since\n\t\t\tlast call to this function\n\n\t\t@param uint _MCR: the median of all MCR datapoints\n\t*/\n\tfunction setOracleMCR(uint _MCR) external override {\n\t\t(bool success, ) = delegate3Address.delegatecall(abi.encodeWithSignature(\n\t\t\t\"setOracleMCR(uint256)\",\n\t\t\t_MCR\n\t\t));\n\t\trequire(success);\n\t}\n\n\t/*\n\t\t@Description: returns the implied yield from the rate offered in this amm between now and maturity\n\n\t\t@return uint yieldToMaturity: the multiplier by which the market anticipates the conversionRate to increase by up to maturity\n\t*/\n\tfunction impliedYieldToMaturity() external view override returns (uint yieldToMaturity) {\n\t\tuint ratio = internalWrapper.WrappedAmtToUnitAmt_RoundDown(1 ether);\n\t\tuint _oracleMCR = OracleMCR;\n\t\treturn ratio < _oracleMCR ? _oracleMCR.mul(1 ether).div(ratio) : (1 ether);\n\t}\n\n\t/*\n\t\t@Description: get the implied APY of this amm\n\n\t\t@return int128 APY: the implied APY of this amm in ABDK64.64 format\n\t*/\n\tfunction getAPYFromOracle() external view override returns (int128 APY) {\n\t\tuint _oracleMCR = OracleMCR;\n\t\tuint ratio = internalWrapper.WrappedAmtToUnitAmt_RoundDown(1 ether);\n\t\tif (ratio >= _oracleMCR) {\n\t\t\treturn ABDK_1;\n\t\t}\n\t\t/*\n\t\t\tAPY**yearsRemaining == MCR / ratio\n\t\t\tAPY == (MCR / ratio)**(1/yearsRemaining)\n\t\t\tAPY == exp2 ( log 2 ( (MCR/ratio)**(1/yearsRemaining) ))\n\t\t\tAPY == exp2 ( (1/yearsRemaining) * log 2 (MCR/ratio))\n\t\t*/\n\t\tint128 yearsRemaining = int128((uint(internalMaturity).sub(internalWrapper.lastUpdate()) << 64) / SecondsPerYear);\n\t\tuint base = _oracleMCR.mul(1 << 64).div(ratio);\n\t\trequire(base <= uint(type(int128).max));\n\t\tint128 exp = ABDK_1.div(yearsRemaining);\n\t\tAPY = BigMath.Pow(int128(base), exp);\n\t}\n\n\t/*\n\t\t@Description: get the implied MCR from the rate oracle\n\t*/\n\tfunction getImpliedMCRFromOracle() external view override returns(uint impliedMCR) {\n\t\timpliedMCR = OracleMCR;\n\t}\n\n\t/*\n\t\t@Description: get all rate datapoints and information about the state of the rate oracle\n\t*/\n\tfunction getOracleData() external view override returns (\n\t\tuint[LENGTH_RATE_SERIES] memory _impliedMCRs,\n\t\tuint _lastDatapointCollection,\n\t\tuint _oracleMCR,\n\t\tuint8 _toSet\n\t) {\n\t\t_impliedMCRs = impliedMCRs;\n\t\t_lastDatapointCollection = lastDatapointCollection;\n\t\t_oracleMCR = OracleMCR;\n\t\t_toSet = toSet;\n\t}\n\n\t//-----------------admin-------------------------\n\n\t/*\n\t\t@Description: payout fees earned by the orderbook contract\n\t*/\n\tfunction claimRevenue() external override {\n\t\trequire(msg.sender == Ownable(address(internalFCP)).owner());\n\t\tIInfoOracle iorc = internalIORC;\n\t\tIWrapper wrp = internalWrapper;\n\t\tIFixCapitalPool fcp = internalFCP;\n\t\taddress treasury = iorc.sendTo();\n\t\t(uint yieldTreasury, int bondTreasury) = wrp.subAccountPositions(address(this), treasury, address(fcp));\n\t\t(uint yieldOwner, int bondOwner) = wrp.subAccountPositions(address(this), msg.sender, address(fcp));\n\n\t\t//if owner has funds deposited in the orderbook we need to disregard the effect that has on the owner's sub account with the orderbook\n\t\tyieldOwner = yieldOwner.sub(internalYieldDeposited[msg.sender]);\n\t\tbondOwner = bondOwner.sub(internalBondDeposited[msg.sender]);\n\n\t\tif (iorc.TreasuryFeeIsCollected()) {\n\t\t\t/*\n\t\t\t\tDespite sub account yield going to treasury, half of that sub account position is actually paid out to the owner in fees\n\t\t\t\tThis is because 100% of all yield exposure is given to the treasury when TreasuryFeeIsCollected() returns true\n\t\t\t*/\n\t\t\tuint adjYieldTreasury = yieldTreasury/2;\n\t\t\tint adjBondTreasury = bondTreasury/2;\n\n\t\t\tuint adjYieldOwner = yieldOwner.add(yieldTreasury - adjYieldTreasury);\n\t\t\tint adjBondOwner = bondOwner.add(bondTreasury - adjBondTreasury);\n\n\t\t\tfcp.transferPosition(treasury, adjYieldTreasury, adjBondTreasury);\n\t\t\tfcp.transferPosition(msg.sender, adjYieldOwner, adjBondOwner);\n\t\t}\n\t\telse {\n\t\t\tfcp.transferPosition(treasury, yieldOwner.add(yieldTreasury), bondOwner.add(bondTreasury));\n\t\t}\n\n\t\tif (yieldTreasury != 0 || bondTreasury != 0) {\n\t\t\tinternalWrapper.editSubAccountPosition(false, treasury, address(fcp), yieldTreasury.toInt().mul(-1), bondTreasury.mul(-1));\n\t\t}\n\n\t\tif (yieldOwner != 0 || bondOwner != 0) {\n\t\t\tinternalWrapper.editSubAccountPosition(false, msg.sender, address(fcp), yieldOwner.toInt().mul(-1), bondOwner.mul(-1));\n\t\t}\n\t}\n\n\t/*\n\t\t@Description: set the minimum size of an order on the orderbook\n\t\t\tsize is determined by the amount of U that the collateral for the order\n\t\t\twould be valued at using the MCR of that order\n\n\t\t@param MIN_ORDER_SIZE_MODE mode: the mode for which minimum order sized will be calculated\n\t\t@param uint _minimumOrderSize: if NPV, the minimum NPV in dynamic amounts\n\t\t\tif NOMINAL, this is the actual nominal amount of the minimum order size\n\t\t\tif NONE, this param doesn't matter\n\t*/\n\tfunction setMinimumOrderSize(MIN_ORDER_SIZE_MODE mode, uint _minimumOrderSize) external override {\n\t\trequire(msg.sender == Ownable(address(internalFCP)).owner());\n\t\tminimumOrderSize = mode == MIN_ORDER_SIZE_MODE.NONE ? 0 : _minimumOrderSize;\n\t\tsizingMode = mode;\n\t}\n\n\t//-----------------VIEWS-----------------\n\n\tfunction YieldDeposited(address _depositor) external view override returns(uint) {\n\t\treturn internalYieldDeposited[_depositor];\n\t}\n\n\tfunction BondDeposited(address _depositor) external view override returns(int) {\n\t\treturn internalBondDeposited[_depositor];\n\t}\n\n\tfunction lockedYT(address _depositor) external view override returns(uint) {\n\t\treturn internalLockedYT[_depositor];\n\t}\n\n\tfunction lockedZCB(address _depositor) external view override returns(uint) {\n\t\treturn internalLockedZCB[_depositor];\n\t}\n\n\tfunction YTSells(uint _ID) external view override returns(\n\t\taddress maker,\n\t\tuint amount,\n\t\tuint maturityConversionRate,\n\t\tuint nextID\n\t) {\n\t\tLimitSellYT memory order = internalYTSells[_ID];\n\t\tmaker = order.maker;\n\t\tamount = order.amount;\n\t\tmaturityConversionRate = order.maturityConversionRate;\n\t\tnextID = order.nextID;\n\t}\n\n\tfunction ZCBSells(uint _ID) external view override returns(\n\t\taddress maker,\n\t\tuint amount,\n\t\tuint maturityConversionRate,\n\t\tuint nextID\n\t) {\n\t\tLimitSellZCB memory order = internalZCBSells[_ID];\n\t\tmaker = order.maker;\n\t\tamount = order.amount;\n\t\tmaturityConversionRate = order.maturityConversionRate;\n\t\tnextID = order.nextID;\n\t}\n\n\tfunction headYTSellID() external view override returns(uint ID) {\n\t\tID = internalHeadYTSellID;\n\t}\n\n\tfunction headZCBSellID() external view override returns(uint ID) {\n\t\tID = internalHeadZCBSellID;\n\t}\n\n\tfunction FCP() external view override returns(IFixCapitalPool) {\n\t\treturn internalFCP;\n\t}\n\n\tfunction IORC() external view override returns(IInfoOracle) {\n\t\treturn internalIORC;\n\t}\n\n\tfunction wrapper() external view override returns(IWrapper) {\n\t\treturn internalWrapper;\n\t}\n\n\tfunction maturity() external view override returns(uint40) {\n\t\treturn internalMaturity;\n\t}\n\n\t/*\n\t\t@Description: if min order sizing mode is NPV, get the minimum NPV of a limit order\n\t\t\twhere NPV is in U and is determined using the MCR of the limit order\n\t\t\tif min order sizing mode is NOMINAL return the nominal amount of ZCB and dynamic YT for limit orders\n\t\t\tif min order sizing mode is NONE, return 0\n\t*/\n\tfunction getMinimumOrderSize() external view override returns(uint) {\n\t\treturn minimumOrderSize;\n\t}\n\n\t/*\n\t\t@Description: get the current mode by which minimum limit order sizes are calculated\n\t*/\n\tfunction getMinimumOrderSizeMode() external view override returns(MIN_ORDER_SIZE_MODE) {\n\t\treturn sizingMode;\n\t}\n}",
  "sourcePath": "/home/asher/FixFinanceV1/contracts/Orderbook/OrderbookExchange.sol",
  "compiler": {
    "name": "solc",
    "version": "0.6.8+commit.0bbfe453.Emscripten.clang"
  },
  "schemaVersion": "3.4.1",
  "updatedAt": "2021-11-26T19:15:55.142Z",
  "devdoc": {
    "methods": {}
  },
  "userdoc": {
    "methods": {}
  }
}