{
  "contractName": "OrderbookDelegate1",
  "abi": [
    {
      "inputs": [
        {
          "internalType": "uint256",
          "name": "_amountYT",
          "type": "uint256"
        },
        {
          "internalType": "uint256",
          "name": "_maxMaturityConversionRate",
          "type": "uint256"
        },
        {
          "internalType": "uint256",
          "name": "_maxCumulativeMaturityConversionRate",
          "type": "uint256"
        },
        {
          "internalType": "uint16",
          "name": "_maxIterations",
          "type": "uint16"
        },
        {
          "internalType": "bool",
          "name": "_useInternalBalances",
          "type": "bool"
        }
      ],
      "name": "marketBuyYT",
      "outputs": [
        {
          "internalType": "uint256",
          "name": "YTbought",
          "type": "uint256"
        },
        {
          "internalType": "uint256",
          "name": "ZCBsold",
          "type": "uint256"
        },
        {
          "internalType": "uint256",
          "name": "newHeadID",
          "type": "uint256"
        },
        {
          "internalType": "uint256",
          "name": "newHeadAmount",
          "type": "uint256"
        }
      ],
      "stateMutability": "nonpayable",
      "type": "function"
    },
    {
      "inputs": [
        {
          "internalType": "uint256",
          "name": "_amountYTInitial",
          "type": "uint256"
        },
        {
          "internalType": "uint256",
          "name": "_minMaturityConversionRate",
          "type": "uint256"
        },
        {
          "internalType": "uint256",
          "name": "_minCumulativeMaturityConversionRate",
          "type": "uint256"
        },
        {
          "internalType": "uint16",
          "name": "_maxIterations",
          "type": "uint16"
        },
        {
          "internalType": "bool",
          "name": "_useInternalBalances",
          "type": "bool"
        }
      ],
      "name": "marketSellYT",
      "outputs": [
        {
          "internalType": "uint256",
          "name": "ZCBbought",
          "type": "uint256"
        },
        {
          "internalType": "uint256",
          "name": "YTsold",
          "type": "uint256"
        },
        {
          "internalType": "uint256",
          "name": "newHeadID",
          "type": "uint256"
        },
        {
          "internalType": "uint256",
          "name": "newHeadAmount",
          "type": "uint256"
        }
      ],
      "stateMutability": "nonpayable",
      "type": "function"
    },
    {
      "inputs": [
        {
          "internalType": "uint256",
          "name": "_amountZCB",
          "type": "uint256"
        },
        {
          "internalType": "uint256",
          "name": "_minMaturityConversionRate",
          "type": "uint256"
        },
        {
          "internalType": "uint256",
          "name": "_minCumulativeMaturityConversionRate",
          "type": "uint256"
        },
        {
          "internalType": "uint16",
          "name": "_maxIterations",
          "type": "uint16"
        },
        {
          "internalType": "bool",
          "name": "_useInternalBalances",
          "type": "bool"
        }
      ],
      "name": "marketBuyZCB",
      "outputs": [
        {
          "internalType": "uint256",
          "name": "ZCBbought",
          "type": "uint256"
        },
        {
          "internalType": "uint256",
          "name": "YTsold",
          "type": "uint256"
        },
        {
          "internalType": "uint256",
          "name": "newHeadID",
          "type": "uint256"
        },
        {
          "internalType": "uint256",
          "name": "newHeadAmount",
          "type": "uint256"
        }
      ],
      "stateMutability": "nonpayable",
      "type": "function"
    },
    {
      "inputs": [
        {
          "internalType": "uint256",
          "name": "_amountZCBInitial",
          "type": "uint256"
        },
        {
          "internalType": "uint256",
          "name": "_maxMaturityConversionRate",
          "type": "uint256"
        },
        {
          "internalType": "uint256",
          "name": "_maxCumulativeMaturityConversionRate",
          "type": "uint256"
        },
        {
          "internalType": "uint16",
          "name": "_maxIterations",
          "type": "uint16"
        },
        {
          "internalType": "bool",
          "name": "_useInternalBalances",
          "type": "bool"
        }
      ],
      "name": "marketSellZCB",
      "outputs": [
        {
          "internalType": "uint256",
          "name": "YTbought",
          "type": "uint256"
        },
        {
          "internalType": "uint256",
          "name": "ZCBsold",
          "type": "uint256"
        },
        {
          "internalType": "uint256",
          "name": "newHeadID",
          "type": "uint256"
        },
        {
          "internalType": "uint256",
          "name": "newHeadAmount",
          "type": "uint256"
        }
      ],
      "stateMutability": "nonpayable",
      "type": "function"
    }
  ],
  "bytecode": "0x608060405234801561001057600080fd5b50615278806100206000396000f3fe608060405234801561001057600080fd5b506004361061004c5760003560e01c80632c7e2e17146100515780638b2c19d9146100d6578063b488c0a51461015b578063ea8923db146101e0575b600080fd5b6100ab600480360360a081101561006757600080fd5b81019080803590602001909291908035906020019092919080359060200190929190803561ffff169060200190929190803515159060200190929190505050610265565b6040518085815260200184815260200183815260200182815260200194505050505060405180910390f35b610130600480360360a08110156100ec57600080fd5b81019080803590602001909291908035906020019092919080359060200190929190803561ffff169060200190929190803515159060200190929190505050610c66565b6040518085815260200184815260200183815260200182815260200194505050505060405180910390f35b6101b5600480360360a081101561017157600080fd5b81019080803590602001909291908035906020019092919080359060200190929190803561ffff16906020019092919080351515906020019092919050505061165e565b6040518085815260200184815260200183815260200182815260200194505050505060405180910390f35b61023a600480360360a08110156101f657600080fd5b81019080803590602001909291908035906020019092919080359060200190929190803561ffff1690602001909291908035151590602001909291905050506121e1565b6040518085815260200184815260200183815260200182815260200194505050505060405180910390f35b600080600080603c602c60009054906101000a900464ffffffffff1664ffffffffff16014211156102a9576102a8602c60059054906101000a900460ff16612d67565b5b60065491506102b6615117565b6102be615155565b6040518060800160405280600a60009054906101000a900473ffffffffffffffffffffffffffffffffffffffff1673ffffffffffffffffffffffffffffffffffffffff1673ffffffffffffffffffffffffffffffffffffffff168152602001600960009054906101000a900473ffffffffffffffffffffffffffffffffffffffff1673ffffffffffffffffffffffffffffffffffffffff1673ffffffffffffffffffffffffffffffffffffffff168152602001600b60009054906101000a900473ffffffffffffffffffffffffffffffffffffffff1673ffffffffffffffffffffffffffffffffffffffff1673ffffffffffffffffffffffffffffffffffffffff168152602001600073ffffffffffffffffffffffffffffffffffffffff1673ffffffffffffffffffffffffffffffffffffffff1681525090508060026004811061040557fe5b602002015173ffffffffffffffffffffffffffffffffffffffff16637348c8576040518163ffffffff1660e01b815260040160206040518083038186803b15801561044f57600080fd5b505afa158015610463573d6000803e3d6000fd5b505050506040513d602081101561047957600080fd5b8101908080519060200190929190505050610525578060016004811061049b57fe5b602002015173ffffffffffffffffffffffffffffffffffffffff16638da5cb5b6040518163ffffffff1660e01b815260040160206040518083038186803b1580156104e557600080fd5b505afa1580156104f9573d6000803e3d6000fd5b505050506040513d602081101561050f57600080fd5b81019080805190602001909291905050506105b8565b8060026004811061053257fe5b602002015173ffffffffffffffffffffffffffffffffffffffff1663489e09516040518163ffffffff1660e01b815260040160206040518083038186803b15801561057c57600080fd5b505afa158015610590573d6000803e3d6000fd5b505050506040513d60208110156105a657600080fd5b81019080805190602001909291905050505b816003600481106105c557fe5b602002019073ffffffffffffffffffffffffffffffffffffffff16908173ffffffffffffffffffffffffffffffffffffffff16815250506106168160016004811061060c57fe5b6020020151612ff9565b6106428160006004811061062657fe5b60200201518260016004811061063857fe5b6020020151613087565b60008160006004811061065157fe5b602002015173ffffffffffffffffffffffffffffffffffffffff16630247c79c670de0b6b3a76400006040518263ffffffff1660e01b81526004018082815260200191505060206040518083038186803b1580156106ae57600080fd5b505afa1580156106c2573d6000803e3d6000fd5b505050506040513d60208110156106d857600080fd5b8101908080519060200190929190505050905060006010836002600481106106fc57fe5b602002015173ffffffffffffffffffffffffffffffffffffffff16635ca6cc318560016004811061072957fe5b60200201516040518263ffffffff1660e01b8152600401808273ffffffffffffffffffffffffffffffffffffffff1673ffffffffffffffffffffffffffffffffffffffff16815260200191505060206040518083038186803b15801561078e57600080fd5b505afa1580156107a2573d6000803e3d6000fd5b505050506040513d60208110156107b857600080fd5b810190808051906020019092919050505060ff16901b905060008d9050610804612710601084901c016107f66127108461319790919063ffffffff16565b61321d90919063ffffffff16565b90505b8a61ffff168261ffff1610801561081f575060008714155b15610bb157600460008881526020019081526020016000206040518060800160405290816000820160009054906101000a900473ffffffffffffffffffffffffffffffffffffffff1673ffffffffffffffffffffffffffffffffffffffff1673ffffffffffffffffffffffffffffffffffffffff168152602001600182015481526020016002820154815260200160038201548152505094508c856040015111156109685760008261ffff16146108d857866006819055505b8460200151955060006127106108fb601085901c8b61319790919063ffffffff16565b8161090257fe5b049050610918818a61326790919063ffffffff16565b98508c6109268a8c876132ef565b111561093157600080fd5b61093d85826000613383565b60008b905061095086338c8e8986613627565b50898989899950995099509950505050505050610c5a565b600061097d8660200151858860400151613bac565b9050818110610b1f57600061099f83886020015161319790919063ffffffff16565b90506109b4828261321d90919063ffffffff16565b9050828a019950808b019a506109d1868860000151858489613c70565b8087602001511415610a62578660600151600681905550600460008a8152602001908152602001600020600080820160006101000a81549073ffffffffffffffffffffffffffffffffffffffff0219169055600182016000905560028201600090556003820160009055505086606001519850600460008a8152602001908152602001600020600101549750610a8e565b80876020015103975087600460008b815260200190815260200160002060010181905550886006819055505b6000612710610aaa601087901c8d61319790919063ffffffff16565b81610ab157fe5b049050610ac7818c61326790919063ffffffff16565b9a508e610ad58c8e896132ef565b1115610ae057600080fd5b610aec87826000613383565b60008d905060008d9050610b0489338f848c87613627565b50508b8b8b8b9b509b509b509b505050505050505050610c5a565b610b3485876000015183896020015188613c70565b60046000898152602001908152602001600020600080820160006101000a81549073ffffffffffffffffffffffffffffffffffffffff02191690556001820160009055600282016000905560038201600090555050808901985085602001518a019950808203915085606001519750508180600101925050610807565b6000612710610bcd601085901c8b61319790919063ffffffff16565b81610bd457fe5b049050610bea818a61326790919063ffffffff16565b98508c610bf88a8c876132ef565b1115610c0357600080fd5b610c0f85826000613383565b60008b9050610c2286338c8e8986613627565b8860068190555060008914610c4d57600460008a815260200190815260200160002060010154610c50565b60005b9750505050505050505b95509550955095915050565b600080600080603c602c60009054906101000a900464ffffffffff1664ffffffffff1601421115610caa57610ca9602c60059054906101000a900460ff16612d67565b5b6007549150610cb7615177565b610cbf615155565b6040518060800160405280600a60009054906101000a900473ffffffffffffffffffffffffffffffffffffffff1673ffffffffffffffffffffffffffffffffffffffff1673ffffffffffffffffffffffffffffffffffffffff168152602001600960009054906101000a900473ffffffffffffffffffffffffffffffffffffffff1673ffffffffffffffffffffffffffffffffffffffff1673ffffffffffffffffffffffffffffffffffffffff168152602001600b60009054906101000a900473ffffffffffffffffffffffffffffffffffffffff1673ffffffffffffffffffffffffffffffffffffffff1673ffffffffffffffffffffffffffffffffffffffff168152602001600073ffffffffffffffffffffffffffffffffffffffff1673ffffffffffffffffffffffffffffffffffffffff16815250905080600260048110610e0657fe5b602002015173ffffffffffffffffffffffffffffffffffffffff16637348c8576040518163ffffffff1660e01b815260040160206040518083038186803b158015610e5057600080fd5b505afa158015610e64573d6000803e3d6000fd5b505050506040513d6020811015610e7a57600080fd5b8101908080519060200190929190505050610f265780600160048110610e9c57fe5b602002015173ffffffffffffffffffffffffffffffffffffffff16638da5cb5b6040518163ffffffff1660e01b815260040160206040518083038186803b158015610ee657600080fd5b505afa158015610efa573d6000803e3d6000fd5b505050506040513d6020811015610f1057600080fd5b8101908080519060200190929190505050610fb9565b80600260048110610f3357fe5b602002015173ffffffffffffffffffffffffffffffffffffffff1663489e09516040518163ffffffff1660e01b815260040160206040518083038186803b158015610f7d57600080fd5b505afa158015610f91573d6000803e3d6000fd5b505050506040513d6020811015610fa757600080fd5b81019080805190602001909291905050505b81600360048110610fc657fe5b602002019073ffffffffffffffffffffffffffffffffffffffff16908173ffffffffffffffffffffffffffffffffffffffff16815250506110178160016004811061100d57fe5b6020020151612ff9565b6110438160006004811061102757fe5b60200201518260016004811061103957fe5b6020020151613087565b60008160006004811061105257fe5b602002015173ffffffffffffffffffffffffffffffffffffffff16630247c79c670de0b6b3a76400006040518263ffffffff1660e01b81526004018082815260200191505060206040518083038186803b1580156110af57600080fd5b505afa1580156110c3573d6000803e3d6000fd5b505050506040513d60208110156110d957600080fd5b8101908080519060200190929190505050905060006010836002600481106110fd57fe5b602002015173ffffffffffffffffffffffffffffffffffffffff16635ca6cc318560016004811061112a57fe5b60200201516040518263ffffffff1660e01b8152600401808273ffffffffffffffffffffffffffffffffffffffff1673ffffffffffffffffffffffffffffffffffffffff16815260200191505060206040518083038186803b15801561118f57600080fd5b505afa1580156111a3573d6000803e3d6000fd5b505050506040513d60208110156111b957600080fd5b810190808051906020019092919050505060ff16901b905060008d9050611205612710601084901c016111f76127108461319790919063ffffffff16565b61321d90919063ffffffff16565b90505b8a61ffff168261ffff16108015611220575060008714155b156115aa57600560008881526020019081526020016000206040518060800160405290816000820160009054906101000a900473ffffffffffffffffffffffffffffffffffffffff1673ffffffffffffffffffffffffffffffffffffffff1673ffffffffffffffffffffffffffffffffffffffff168152602001600182015481526020016002820154815260200160038201548152505094508c856040015110156113685760008261ffff16146112d957866007819055505b8460200151955060006127106112fc601085901c8b61319790919063ffffffff16565b8161130357fe5b049050611319818a61326790919063ffffffff16565b98508c6113278b8b876132ef565b101561133257600080fd5b61133d858286613383565b60008b905061135086338d8d8986613ff4565b50898989899950995099509950505050505050611652565b600061137d86602001518588604001516145b0565b905081811061151857600061139f83886020015161319790919063ffffffff16565b90506113b4828261321d90919063ffffffff16565b9050808b019a50828a0199506113d1868860000151858489614665565b8087602001511415611462578660600151600781905550600560008a8152602001908152602001600020600080820160006101000a81549073ffffffffffffffffffffffffffffffffffffffff0219169055600182016000905560028201600090556003820160009055505086606001519850600560008a815260200190815260200160002060010154975061148e565b80876020015103975087600560008b815260200190815260200160002060010181905550886007819055505b60006127106114aa601087901c8d61319790919063ffffffff16565b816114b157fe5b0490506114c7818c61326790919063ffffffff16565b9a508e6114d58d8d896132ef565b10156114e057600080fd5b6114eb878288613383565b60008d90506114fe88338f8f8b86613ff4565b508b8b8b8b9b509b509b509b505050505050505050611652565b61152d85876000015183896020015188614665565b60056000898152602001908152602001600020600080820160006101000a81549073ffffffffffffffffffffffffffffffffffffffff0219169055600182016000905560028201600090556003820160009055505085602001518a0199508089019850808203915085606001519750508180600101925050611208565b60006127106115c6601085901c8b61319790919063ffffffff16565b816115cd57fe5b0490506115e3818a61326790919063ffffffff16565b98508c6115f18b8b876132ef565b10156115fc57600080fd5b611607858286613383565b60008b905061161a86338d8d8986613ff4565b886007819055506000891461164557600560008a815260200190815260200160002060010154611648565b60005b9750505050505050505b95509550955095915050565b600080600080603c602c60009054906101000a900464ffffffffff1664ffffffffff16014211156116a2576116a1602c60059054906101000a900460ff16612d67565b5b60075491506116af615177565b6116b7615155565b6040518060800160405280600a60009054906101000a900473ffffffffffffffffffffffffffffffffffffffff1673ffffffffffffffffffffffffffffffffffffffff1673ffffffffffffffffffffffffffffffffffffffff168152602001600960009054906101000a900473ffffffffffffffffffffffffffffffffffffffff1673ffffffffffffffffffffffffffffffffffffffff1673ffffffffffffffffffffffffffffffffffffffff168152602001600b60009054906101000a900473ffffffffffffffffffffffffffffffffffffffff1673ffffffffffffffffffffffffffffffffffffffff1673ffffffffffffffffffffffffffffffffffffffff168152602001600073ffffffffffffffffffffffffffffffffffffffff1673ffffffffffffffffffffffffffffffffffffffff168152509050806002600481106117fe57fe5b602002015173ffffffffffffffffffffffffffffffffffffffff16637348c8576040518163ffffffff1660e01b815260040160206040518083038186803b15801561184857600080fd5b505afa15801561185c573d6000803e3d6000fd5b505050506040513d602081101561187257600080fd5b810190808051906020019092919050505061191e578060016004811061189457fe5b602002015173ffffffffffffffffffffffffffffffffffffffff16638da5cb5b6040518163ffffffff1660e01b815260040160206040518083038186803b1580156118de57600080fd5b505afa1580156118f2573d6000803e3d6000fd5b505050506040513d602081101561190857600080fd5b81019080805190602001909291905050506119b1565b8060026004811061192b57fe5b602002015173ffffffffffffffffffffffffffffffffffffffff1663489e09516040518163ffffffff1660e01b815260040160206040518083038186803b15801561197557600080fd5b505afa158015611989573d6000803e3d6000fd5b505050506040513d602081101561199f57600080fd5b81019080805190602001909291905050505b816003600481106119be57fe5b602002019073ffffffffffffffffffffffffffffffffffffffff16908173ffffffffffffffffffffffffffffffffffffffff1681525050611a0f81600160048110611a0557fe5b6020020151612ff9565b611a3b81600060048110611a1f57fe5b602002015182600160048110611a3157fe5b6020020151613087565b600081600060048110611a4a57fe5b602002015173ffffffffffffffffffffffffffffffffffffffff16630247c79c670de0b6b3a76400006040518263ffffffff1660e01b81526004018082815260200191505060206040518083038186803b158015611aa757600080fd5b505afa158015611abb573d6000803e3d6000fd5b505050506040513d6020811015611ad157600080fd5b8101908080519060200190929190505050905060008090505b8961ffff168161ffff16108015611b02575060008614155b1561205c57600560008781526020019081526020016000206040518060800160405290816000820160009054906101000a900473ffffffffffffffffffffffffffffffffffffffff1673ffffffffffffffffffffffffffffffffffffffff1673ffffffffffffffffffffffffffffffffffffffff168152602001600182015481526020016002820154815260200160038201548152505093508b84604001511015611d1b576000612710611c9b85600260048110611bbc57fe5b602002015173ffffffffffffffffffffffffffffffffffffffff16635ca6cc3187600160048110611be957fe5b60200201516040518263ffffffff1660e01b8152600401808273ffffffffffffffffffffffffffffffffffffffff1673ffffffffffffffffffffffffffffffffffffffff16815260200191505060206040518083038186803b158015611c4e57600080fd5b505afa158015611c62573d6000803e3d6000fd5b505050506040513d6020811015611c7857600080fd5b810190808051906020019092919050505060ff168a61319790919063ffffffff16565b81611ca257fe5b049050611cb8818961326790919063ffffffff16565b97508b611cc68a8a866132ef565b1015611cd157600080fd5b611cdc848285613383565b611cea84338b8b878f613ff4565b60008261ffff1614611cfe57866007819055505b8460200151955088888888985098509850985050505050506121d5565b6000611d3085602001518487604001516145b0565b90508d856020015110611fc6576000611d528f8361319790919063ffffffff16565b9050600086602001518281611d6357fe5b0614611d70576001611d73565b60005b60ff1686602001518281611d8357fe5b040190508e8a019950808901985060008f9050611da7868860000151848489614665565b508e86602001511415611e3957856060015160078190555060056000898152602001908152602001600020600080820160006101000a81549073ffffffffffffffffffffffffffffffffffffffff021916905560018201600090556002820160009055600382016000905550508560600151975060056000898152602001908152602001600020600101549650611e65565b8e866020015103965086600560008a815260200190815260200160002060010181905550876007819055505b6000612710611f5987600260048110611e7a57fe5b602002015173ffffffffffffffffffffffffffffffffffffffff16635ca6cc3189600160048110611ea757fe5b60200201516040518263ffffffff1660e01b8152600401808273ffffffffffffffffffffffffffffffffffffffff1673ffffffffffffffffffffffffffffffffffffffff16815260200191505060206040518083038186803b158015611f0c57600080fd5b505afa158015611f20573d6000803e3d6000fd5b505050506040513d6020811015611f3657600080fd5b810190808051906020019092919050505060ff168c61319790919063ffffffff16565b81611f6057fe5b049050611f76818b61326790919063ffffffff16565b99508d611f848c8c886132ef565b1015611f8f57600080fd5b611f9a868287613383565b60008c9050611fad87338e8e8a86613ff4565b508a8a8a8a9a509a509a509a50505050505050506121d5565b611fdb84866000015183886020015187614665565b60056000888152602001908152602001600020600080820160006101000a81549073ffffffffffffffffffffffffffffffffffffffff02191690556001820160009055600282016000905560038201600090555050846020015189019850808801975084602001518e039d5084606001519650508080600101915050611aea565b5060006127106121518460026004811061207257fe5b602002015173ffffffffffffffffffffffffffffffffffffffff16635ca6cc318660016004811061209f57fe5b60200201516040518263ffffffff1660e01b8152600401808273ffffffffffffffffffffffffffffffffffffffff1673ffffffffffffffffffffffffffffffffffffffff16815260200191505060206040518083038186803b15801561210457600080fd5b505afa158015612118573d6000803e3d6000fd5b505050506040513d602081101561212e57600080fd5b810190808051906020019092919050505060ff168961319790919063ffffffff16565b8161215857fe5b04905061216e818861326790919063ffffffff16565b96508a61217c8989856132ef565b101561218757600080fd5b612192838284613383565b6121a083338a8a868e613ff4565b85600781905550600086146121cb5760056000878152602001908152602001600020600101546121ce565b60005b9450505050505b95509550955095915050565b600080600080603c602c60009054906101000a900464ffffffffff1664ffffffffff160142111561222557612224602c60059054906101000a900460ff16612d67565b5b6006549150612232615117565b61223a615155565b6040518060800160405280600a60009054906101000a900473ffffffffffffffffffffffffffffffffffffffff1673ffffffffffffffffffffffffffffffffffffffff1673ffffffffffffffffffffffffffffffffffffffff168152602001600960009054906101000a900473ffffffffffffffffffffffffffffffffffffffff1673ffffffffffffffffffffffffffffffffffffffff1673ffffffffffffffffffffffffffffffffffffffff168152602001600b60009054906101000a900473ffffffffffffffffffffffffffffffffffffffff1673ffffffffffffffffffffffffffffffffffffffff1673ffffffffffffffffffffffffffffffffffffffff168152602001600073ffffffffffffffffffffffffffffffffffffffff1673ffffffffffffffffffffffffffffffffffffffff1681525090508060026004811061238157fe5b602002015173ffffffffffffffffffffffffffffffffffffffff16637348c8576040518163ffffffff1660e01b815260040160206040518083038186803b1580156123cb57600080fd5b505afa1580156123df573d6000803e3d6000fd5b505050506040513d60208110156123f557600080fd5b81019080805190602001909291905050506124a1578060016004811061241757fe5b602002015173ffffffffffffffffffffffffffffffffffffffff16638da5cb5b6040518163ffffffff1660e01b815260040160206040518083038186803b15801561246157600080fd5b505afa158015612475573d6000803e3d6000fd5b505050506040513d602081101561248b57600080fd5b8101908080519060200190929190505050612534565b806002600481106124ae57fe5b602002015173ffffffffffffffffffffffffffffffffffffffff1663489e09516040518163ffffffff1660e01b815260040160206040518083038186803b1580156124f857600080fd5b505afa15801561250c573d6000803e3d6000fd5b505050506040513d602081101561252257600080fd5b81019080805190602001909291905050505b8160036004811061254157fe5b602002019073ffffffffffffffffffffffffffffffffffffffff16908173ffffffffffffffffffffffffffffffffffffffff16815250506125928160016004811061258857fe5b6020020151612ff9565b6125be816000600481106125a257fe5b6020020151826001600481106125b457fe5b6020020151613087565b6000816000600481106125cd57fe5b602002015173ffffffffffffffffffffffffffffffffffffffff16630247c79c670de0b6b3a76400006040518263ffffffff1660e01b81526004018082815260200191505060206040518083038186803b15801561262a57600080fd5b505afa15801561263e573d6000803e3d6000fd5b505050506040513d602081101561265457600080fd5b8101908080519060200190929190505050905060008090505b8961ffff168161ffff16108015612685575060008614155b15612be157600460008781526020019081526020016000206040518060800160405290816000820160009054906101000a900473ffffffffffffffffffffffffffffffffffffffff1673ffffffffffffffffffffffffffffffffffffffff1673ffffffffffffffffffffffffffffffffffffffff168152602001600182015481526020016002820154815260200160038201548152505093508b8460400151111561289f57600061271061281e8560026004811061273f57fe5b602002015173ffffffffffffffffffffffffffffffffffffffff16635ca6cc318760016004811061276c57fe5b60200201516040518263ffffffff1660e01b8152600401808273ffffffffffffffffffffffffffffffffffffffff1673ffffffffffffffffffffffffffffffffffffffff16815260200191505060206040518083038186803b1580156127d157600080fd5b505afa1580156127e5573d6000803e3d6000fd5b505050506040513d60208110156127fb57600080fd5b810190808051906020019092919050505060ff168a61319790919063ffffffff16565b8161282557fe5b04905061283b818961326790919063ffffffff16565b97508b612849898b866132ef565b111561285457600080fd5b61286084826000613383565b61286e84338a8c878f613627565b60008261ffff161461288257866006819055505b846020015195508888888898509850985098505050505050612d5b565b60006128b48560200151848760400151613bac565b90508d856020015110612b4b5760006128d68f8361319790919063ffffffff16565b90506000866020015182816128e757fe5b06146128f45760016128f7565b60005b60ff168660200151828161290757fe5b0401905080890198508e8a01995060008f905061292b868860000151848489613c70565b508e866020015114156129bd57856060015160068190555060046000898152602001908152602001600020600080820160006101000a81549073ffffffffffffffffffffffffffffffffffffffff0219169055600182016000905560028201600090556003820160009055505085606001519750600460008981526020019081526020016000206003015496506129e9565b8e866020015103965086600460008a815260200190815260200160002060010181905550876006819055505b6000612710612add876002600481106129fe57fe5b602002015173ffffffffffffffffffffffffffffffffffffffff16635ca6cc3189600160048110612a2b57fe5b60200201516040518263ffffffff1660e01b8152600401808273ffffffffffffffffffffffffffffffffffffffff1673ffffffffffffffffffffffffffffffffffffffff16815260200191505060206040518083038186803b158015612a9057600080fd5b505afa158015612aa4573d6000803e3d6000fd5b505050506040513d6020811015612aba57600080fd5b810190808051906020019092919050505060ff168c61319790919063ffffffff16565b81612ae457fe5b049050612afa818b61326790919063ffffffff16565b99508d612b088b8d886132ef565b1115612b1357600080fd5b612b1f86826000613383565b60008c9050612b3287338d8f8a86613627565b508a8a8a8a9a509a509a509a5050505050505050612d5b565b612b6084866000015183886020015187613c70565b60046000888152602001908152602001600020600080820160006101000a81549073ffffffffffffffffffffffffffffffffffffffff02191690556001820160009055600282016000905560038201600090555050808801975084602001518901985084602001518e039d508460600151965050808060010191505061266d565b506000612710612cd684600260048110612bf757fe5b602002015173ffffffffffffffffffffffffffffffffffffffff16635ca6cc3186600160048110612c2457fe5b60200201516040518263ffffffff1660e01b8152600401808273ffffffffffffffffffffffffffffffffffffffff1673ffffffffffffffffffffffffffffffffffffffff16815260200191505060206040518083038186803b158015612c8957600080fd5b505afa158015612c9d573d6000803e3d6000fd5b505050506040513d6020811015612cb357600080fd5b810190808051906020019092919050505060ff168961319790919063ffffffff16565b81612cdd57fe5b049050612cf3818861326790919063ffffffff16565b96508a612d01888a856132ef565b1115612d0c57600080fd5b612d1883826000613383565b612d268333898b868e613627565b8560068190555060008614612d51576004600087815260200190815260200160002060010154612d54565b60005b9450505050505b95509550955095915050565b600060065490506000811415612d7d5750612ff6565b600060075490506000811415612d94575050612ff6565b6000600460008481526020019081526020016000206002015490506000600560008481526020019081526020016000206002015490506000600a60009054906101000a900473ffffffffffffffffffffffffffffffffffffffff1673ffffffffffffffffffffffffffffffffffffffff16630247c79c670de0b6b3a76400006040518263ffffffff1660e01b81526004018082815260200191505060206040518083038186803b158015612e4757600080fd5b505afa158015612e5b573d6000803e3d6000fd5b505050506040513d6020811015612e7157600080fd5b81019080805190602001909291905050509050808310612e915782612e93565b805b9250808210612ea25781612ea4565b805b91506000612ed682612ec8680100000000000000008761319790919063ffffffff16565b61321d90919063ffffffff16565b90506000612f0883612efa680100000000000000008761319790919063ffffffff16565b61321d90919063ffffffff16565b90506f7fffffffffffffffffffffffffffffff600f0b8210612f2957600080fd5b6f7fffffffffffffffffffffffffffffff600f0b8110612f4857600080fd5b60006040612f8285612f71612f698688600f0b614a1290919063ffffffff16565b600f0b614a7d565b600f0b61319790919063ffffffff16565b901c905080600d8a60ff16601f8110612f9757fe5b018190555042602c60006101000a81548164ffffffffff021916908364ffffffffff160217905550601f60ff1660018a0160ff1681612fd257fe5b06602c60056101000a81548160ff021916908360ff16021790555050505050505050505b50565b8073ffffffffffffffffffffffffffffffffffffffff1663fd23ae026040518163ffffffff1660e01b815260040160206040518083038186803b15801561303f57600080fd5b505afa158015613053573d6000803e3d6000fd5b505050506040513d602081101561306957600080fd5b81019080805190602001909291905050501561308457600080fd5b50565b8173ffffffffffffffffffffffffffffffffffffffff16635102e3e160018330856040518563ffffffff1660e01b815260040180851515151581526020018473ffffffffffffffffffffffffffffffffffffffff1673ffffffffffffffffffffffffffffffffffffffff1681526020018373ffffffffffffffffffffffffffffffffffffffff1673ffffffffffffffffffffffffffffffffffffffff1681526020018273ffffffffffffffffffffffffffffffffffffffff1673ffffffffffffffffffffffffffffffffffffffff168152602001945050505050600060405180830381600087803b15801561317b57600080fd5b505af115801561318f573d6000803e3d6000fd5b505050505050565b6000808314156131aa5760009050613217565b60008284029050828482816131bb57fe5b0414613212576040517f08c379a00000000000000000000000000000000000000000000000000000000081526004018080602001828103825260218152602001806151d76021913960400191505060405180910390fd5b809150505b92915050565b600061325f83836040518060400160405280601a81526020017f536166654d6174683a206469766973696f6e206279207a65726f000000000000815250614aa6565b905092915050565b6000808284019050838110156132e5576040517f08c379a000000000000000000000000000000000000000000000000000000000815260040180806020018281038252601b8152602001807f536166654d6174683a206164646974696f6e206f766572666c6f77000000000081525060200191505060405180910390fd5b8091505092915050565b600080670de0b6b3a764000061330e848661319790919063ffffffff16565b8161331557fe5b049050670de0b6b3a764000061337184613363670de0b6b3a76400008561334d670de0b6b3a76400008c61319790919063ffffffff16565b8161335457fe5b0461326790919063ffffffff16565b61319790919063ffffffff16565b8161337857fe5b049150509392505050565b7f7fffffffffffffffffffffffffffffffffffffffffffffffffffffffffffffff8211156133b057600080fd5b60008114156134da57826000600481106133c657fe5b602002015173ffffffffffffffffffffffffffffffffffffffff16637c9dd7896000856003600481106133f557fe5b60200201518660016004811061340757fe5b60200201516000876040518663ffffffff1660e01b815260040180861515151581526020018573ffffffffffffffffffffffffffffffffffffffff1673ffffffffffffffffffffffffffffffffffffffff1681526020018473ffffffffffffffffffffffffffffffffffffffff1673ffffffffffffffffffffffffffffffffffffffff16815260200183815260200182815260200195505050505050600060405180830381600087803b1580156134bd57600080fd5b505af11580156134d1573d6000803e3d6000fd5b50505050613622565b6000670de0b6b3a76400006134f8838561319790919063ffffffff16565b816134ff57fe5b0460000390508360006004811061351257fe5b602002015173ffffffffffffffffffffffffffffffffffffffff16637c9dd78960008660036004811061354157fe5b60200201518760016004811061355357fe5b602002015187866040518663ffffffff1660e01b815260040180861515151581526020018573ffffffffffffffffffffffffffffffffffffffff1673ffffffffffffffffffffffffffffffffffffffff1681526020018473ffffffffffffffffffffffffffffffffffffffff1673ffffffffffffffffffffffffffffffffffffffff16815260200183815260200182815260200195505050505050600060405180830381600087803b15801561360857600080fd5b505af115801561361c573d6000803e3d6000fd5b50505050505b505050565b80156139b1577f7fffffffffffffffffffffffffffffffffffffffffffffffffffffffffffffff83111561365a57600080fd5b600061369285670de0b6b3a764000061367c868861319790919063ffffffff16565b8161368357fe5b0461326790919063ffffffff16565b90507f7fffffffffffffffffffffffffffffffffffffffffffffffffffffffffffffff8111156136c157600080fd5b600081600003905060008060008973ffffffffffffffffffffffffffffffffffffffff1673ffffffffffffffffffffffffffffffffffffffff1681526020019081526020016000205490506000600160008a73ffffffffffffffffffffffffffffffffffffffff1673ffffffffffffffffffffffffffffffffffffffff1681526020019081526020016000205490506000600260008b73ffffffffffffffffffffffffffffffffffffffff1673ffffffffffffffffffffffffffffffffffffffff1681526020019081526020016000205490506000600360008c73ffffffffffffffffffffffffffffffffffffffff1673ffffffffffffffffffffffffffffffffffffffff1681526020019081526020016000205490508b6000600481106137e557fe5b602002015173ffffffffffffffffffffffffffffffffffffffff16637c9dd78960008d8f60016004811061381557fe5b60200201518d8a6040518663ffffffff1660e01b815260040180861515151581526020018573ffffffffffffffffffffffffffffffffffffffff1673ffffffffffffffffffffffffffffffffffffffff1681526020018473ffffffffffffffffffffffffffffffffffffffff1673ffffffffffffffffffffffffffffffffffffffff16815260200183815260200182815260200195505050505050600060405180830381600087803b1580156138ca57600080fd5b505af11580156138de573d6000803e3d6000fd5b5050505060006138f78a8661326790919063ffffffff16565b9050600061390e8786614b6c90919063ffffffff16565b905061391d828286868e614bfa565b816000808f73ffffffffffffffffffffffffffffffffffffffff1673ffffffffffffffffffffffffffffffffffffffff1681526020019081526020016000208190555080600160008f73ffffffffffffffffffffffffffffffffffffffff1673ffffffffffffffffffffffffffffffffffffffff168152602001908152602001600020819055505050505050505050613ba4565b7f7fffffffffffffffffffffffffffffffffffffffffffffffffffffffffffffff84106139dd57600080fd5b6000670de0b6b3a76400006139fb848661319790919063ffffffff16565b81613a0257fe5b049050600087600160048110613a1457fe5b602002015190508073ffffffffffffffffffffffffffffffffffffffff1663ec02d257333060008a6040518563ffffffff1660e01b8152600401808573ffffffffffffffffffffffffffffffffffffffff1673ffffffffffffffffffffffffffffffffffffffff1681526020018473ffffffffffffffffffffffffffffffffffffffff1673ffffffffffffffffffffffffffffffffffffffff168152602001838152602001828152602001945050505050600060405180830381600087803b158015613adf57600080fd5b505af1158015613af3573d6000803e3d6000fd5b505050508073ffffffffffffffffffffffffffffffffffffffff16636a68d0c33387856000036040518463ffffffff1660e01b8152600401808473ffffffffffffffffffffffffffffffffffffffff1673ffffffffffffffffffffffffffffffffffffffff1681526020018381526020018281526020019350505050600060405180830381600087803b158015613b8957600080fd5b505af1158015613b9d573d6000803e3d6000fd5b5050505050505b505050505050565b600080613bdc84613bce670de0b6b3a76400008661319790919063ffffffff16565b61321d90919063ffffffff16565b9050670de0b6b3a76400008111613bfb57670de0b6b3a7640001613bfd565b805b90506000670de0b6b3a7640000613c1d868861319790919063ffffffff16565b81613c2457fe5b049050670de0b6b3a7640000613c5d613c4e670de0b6b3a764000085614cd890919063ffffffff16565b8361319790919063ffffffff16565b81613c6457fe5b04925050509392505050565b7f7fffffffffffffffffffffffffffffffffffffffffffffffffffffffffffffff831115613c9d57600080fd5b7f7fffffffffffffffffffffffffffffffffffffffffffffffffffffffffffffff821115613cca57600080fd5b6000670de0b6b3a7640000613ce8838561319790919063ffffffff16565b81613cef57fe5b0490506000600160008773ffffffffffffffffffffffffffffffffffffffff1673ffffffffffffffffffffffffffffffffffffffff16815260200190815260200160002054905060008060008873ffffffffffffffffffffffffffffffffffffffff1673ffffffffffffffffffffffffffffffffffffffff1681526020019081526020016000205490506000600260008973ffffffffffffffffffffffffffffffffffffffff1673ffffffffffffffffffffffffffffffffffffffff16815260200190815260200160002054905060008660000390506000613dda8987614b6c90919063ffffffff16565b9050613def8186614b6c90919063ffffffff16565b600160008c73ffffffffffffffffffffffffffffffffffffffff1673ffffffffffffffffffffffffffffffffffffffff16815260200190815260200160002081905550613e458885614cd890919063ffffffff16565b6000808c73ffffffffffffffffffffffffffffffffffffffff1673ffffffffffffffffffffffffffffffffffffffff16815260200190815260200160002081905550613e9a8884614cd890919063ffffffff16565b600260008c73ffffffffffffffffffffffffffffffffffffffff1673ffffffffffffffffffffffffffffffffffffffff168152602001908152602001600020819055508a600060048110613eea57fe5b602002015173ffffffffffffffffffffffffffffffffffffffff16637c9dd78960008c8e600160048110613f1a57fe5b602002015186866040518663ffffffff1660e01b815260040180861515151581526020018573ffffffffffffffffffffffffffffffffffffffff1673ffffffffffffffffffffffffffffffffffffffff1681526020018473ffffffffffffffffffffffffffffffffffffffff1673ffffffffffffffffffffffffffffffffffffffff16815260200183815260200182815260200195505050505050600060405180830381600087803b158015613fcf57600080fd5b505af1158015613fe3573d6000803e3d6000fd5b505050505050505050505050505050565b80156143b2577f7fffffffffffffffffffffffffffffffffffffffffffffffffffffffffffffff831061402657600080fd5b600061405e85670de0b6b3a7640000614048868861319790919063ffffffff16565b8161404f57fe5b0461326790919063ffffffff16565b90507f7fffffffffffffffffffffffffffffffffffffffffffffffffffffffffffffff81111561408d57600080fd5b60008060008873ffffffffffffffffffffffffffffffffffffffff1673ffffffffffffffffffffffffffffffffffffffff1681526020019081526020016000205490506000600160008973ffffffffffffffffffffffffffffffffffffffff1673ffffffffffffffffffffffffffffffffffffffff1681526020019081526020016000205490506000600260008a73ffffffffffffffffffffffffffffffffffffffff1673ffffffffffffffffffffffffffffffffffffffff1681526020019081526020016000205490506000600360008b73ffffffffffffffffffffffffffffffffffffffff1673ffffffffffffffffffffffffffffffffffffffff16815260200190815260200160002054905060006141d47fffffffffffffffffffffffffffffffffffffffffffffffffffffffffffffffff60018b01614d2290919063ffffffff16565b90508b6000600481106141e357fe5b602002015173ffffffffffffffffffffffffffffffffffffffff16637c9dd78960008d8f60016004811061421357fe5b6020020151858b6040518663ffffffff1660e01b815260040180861515151581526020018573ffffffffffffffffffffffffffffffffffffffff1673ffffffffffffffffffffffffffffffffffffffff1681526020018473ffffffffffffffffffffffffffffffffffffffff1673ffffffffffffffffffffffffffffffffffffffff16815260200183815260200182815260200195505050505050600060405180830381600087803b1580156142c857600080fd5b505af11580156142dc573d6000803e3d6000fd5b5050505060006142f860018b0187614cd890919063ffffffff16565b9050600061430f8887614b6c90919063ffffffff16565b905061431e828287878e614bfa565b816000808f73ffffffffffffffffffffffffffffffffffffffff1673ffffffffffffffffffffffffffffffffffffffff1681526020019081526020016000208190555080600160008f73ffffffffffffffffffffffffffffffffffffffff1673ffffffffffffffffffffffffffffffffffffffff1681526020019081526020016000208190555050505050505050506145a8565b7f7fffffffffffffffffffffffffffffffffffffffffffffffffffffffffffffff84106143de57600080fd5b6000670de0b6b3a76400006143fc848661319790919063ffffffff16565b8161440357fe5b04905060008760016004811061441557fe5b602002015190508073ffffffffffffffffffffffffffffffffffffffff1663ec02d257333060018901866000036040518563ffffffff1660e01b8152600401808573ffffffffffffffffffffffffffffffffffffffff1673ffffffffffffffffffffffffffffffffffffffff1681526020018473ffffffffffffffffffffffffffffffffffffffff1673ffffffffffffffffffffffffffffffffffffffff168152602001838152602001828152602001945050505050600060405180830381600087803b1580156144e557600080fd5b505af11580156144f9573d6000803e3d6000fd5b505050508073ffffffffffffffffffffffffffffffffffffffff16636a68d0c3336000896040518463ffffffff1660e01b8152600401808473ffffffffffffffffffffffffffffffffffffffff1673ffffffffffffffffffffffffffffffffffffffff1681526020018381526020018281526020019350505050600060405180830381600087803b15801561458d57600080fd5b505af11580156145a1573d6000803e3d6000fd5b5050505050505b505050505050565b6000806145e0846145d2670de0b6b3a76400008661319790919063ffffffff16565b61321d90919063ffffffff16565b9050600061462b614602670de0b6b3a764000084614cd890919063ffffffff16565b61461d670de0b6b3a76400008961319790919063ffffffff16565b61321d90919063ffffffff16565b905061465a8561464c670de0b6b3a76400008461319790919063ffffffff16565b61321d90919063ffffffff16565b925050509392505050565b7f7fffffffffffffffffffffffffffffffffffffffffffffffffffffffffffffff83111561469257600080fd5b7f7fffffffffffffffffffffffffffffffffffffffffffffffffffffffffffffff8211156146bf57600080fd5b6000670de0b6b3a76400006146dd838661319790919063ffffffff16565b816146e457fe5b04905060008060008773ffffffffffffffffffffffffffffffffffffffff1673ffffffffffffffffffffffffffffffffffffffff1681526020019081526020016000205490506000600160008873ffffffffffffffffffffffffffffffffffffffff1673ffffffffffffffffffffffffffffffffffffffff1681526020019081526020016000205490506000600360008973ffffffffffffffffffffffffffffffffffffffff1673ffffffffffffffffffffffffffffffffffffffff16815260200190815260200160002054905060006147f97fffffffffffffffffffffffffffffffffffffffffffffffffffffffffffffffff6147eb8988614b6c90919063ffffffff16565b614d2290919063ffffffff16565b905061480e888561326790919063ffffffff16565b6000808b73ffffffffffffffffffffffffffffffffffffffff1673ffffffffffffffffffffffffffffffffffffffff168152602001908152602001600020819055506148638184614b6c90919063ffffffff16565b600160008b73ffffffffffffffffffffffffffffffffffffffff1673ffffffffffffffffffffffffffffffffffffffff168152602001908152602001600020819055506148b98783614cd890919063ffffffff16565b600360008b73ffffffffffffffffffffffffffffffffffffffff1673ffffffffffffffffffffffffffffffffffffffff168152602001908152602001600020819055508960006004811061490957fe5b602002015173ffffffffffffffffffffffffffffffffffffffff16637c9dd78960008b8d60016004811061493957fe5b60200201518c866040518663ffffffff1660e01b815260040180861515151581526020018573ffffffffffffffffffffffffffffffffffffffff1673ffffffffffffffffffffffffffffffffffffffff1681526020018473ffffffffffffffffffffffffffffffffffffffff1673ffffffffffffffffffffffffffffffffffffffff16815260200183815260200182815260200195505050505050600060405180830381600087803b1580156149ee57600080fd5b505af1158015614a02573d6000803e3d6000fd5b5050505050505050505050505050565b600080604083600f0b85600f0b02901d90507fffffffffffffffffffffffffffffffff80000000000000000000000000000000600f0b8112158015614a6a57506f7fffffffffffffffffffffffffffffff600f0b8113155b614a7357600080fd5b8091505092915050565b60008082600f0b1215614a8f57600080fd5b614a9f604083600f0b901b614e4c565b9050919050565b60008083118290614b52576040517f08c379a00000000000000000000000000000000000000000000000000000000081526004018080602001828103825283818151815260200191508051906020019080838360005b83811015614b17578082015181840152602081019050614afc565b50505050905090810190601f168015614b445780820380516001836020036101000a031916815260200191505b509250505060405180910390fd5b506000838581614b5e57fe5b049050809150509392505050565b600080828401905060008312158015614b855750838112155b80614b9b5750600083128015614b9a57508381125b5b614bf0576040517f08c379a00000000000000000000000000000000000000000000000000000000081526004018080602001828103825260218152602001806151b66021913960400191505060405180910390fd5b8091505092915050565b7f7fffffffffffffffffffffffffffffffffffffffffffffffffffffffffffffff821115614c2757600080fd5b6000670de0b6b3a7640000614c45838661319790919063ffffffff16565b81614c4c57fe5b0490506000614c648588614cd890919063ffffffff16565b90506000614c8d85614c7f858a614b6c90919063ffffffff16565b614fc990919063ffffffff16565b9050600081121580614cc5575080600003670de0b6b3a7640000614cba868561319790919063ffffffff16565b81614cc157fe5b0410155b614cce57600080fd5b5050505050505050565b6000614d1a83836040518060400160405280601e81526020017f536166654d6174683a207375627472616374696f6e206f766572666c6f770000815250615057565b905092915050565b600080831415614d355760009050614e46565b7fffffffffffffffffffffffffffffffffffffffffffffffffffffffffffffffff83148015614d8357507f800000000000000000000000000000000000000000000000000000000000000082145b15614dd9576040517f08c379a00000000000000000000000000000000000000000000000000000000081526004018080602001828103825260278152602001806151f86027913960400191505060405180910390fd5b6000828402905082848281614dea57fe5b0514614e41576040517f08c379a00000000000000000000000000000000000000000000000000000000081526004018080602001828103825260278152602001806151f86027913960400191505060405180910390fd5b809150505b92915050565b600080821415614e5f5760009050614fc4565b60008290506000600190507001000000000000000000000000000000008210614e9157608082901c9150604081901b90505b680100000000000000008210614eb057604082901c9150602081901b90505b6401000000008210614ecb57602082901c9150601081901b90505b620100008210614ee457601082901c9150600881901b90505b6101008210614efc57600882901c9150600481901b90505b60108210614f1357600482901c9150600281901b90505b60088210614f2357600181901b90505b6001818581614f2e57fe5b048201901c90506001818581614f4057fe5b048201901c90506001818581614f5257fe5b048201901c90506001818581614f6457fe5b048201901c90506001818581614f7657fe5b048201901c90506001818581614f8857fe5b048201901c90506001818581614f9a57fe5b048201901c90506000818581614fac57fe5b049050808210614fbc5780614fbe565b815b93505050505b919050565b600080828403905060008312158015614fe25750838113155b80614ff85750600083128015614ff757508381135b5b61504d576040517f08c379a000000000000000000000000000000000000000000000000000000000815260040180806020018281038252602481526020018061521f6024913960400191505060405180910390fd5b8091505092915050565b6000838311158290615104576040517f08c379a00000000000000000000000000000000000000000000000000000000081526004018080602001828103825283818151815260200191508051906020019080838360005b838110156150c95780820151818401526020810190506150ae565b50505050905090810190601f1680156150f65780820380516001836020036101000a031916815260200191505b509250505060405180910390fd5b5060008385039050809150509392505050565b6040518060800160405280600073ffffffffffffffffffffffffffffffffffffffff1681526020016000815260200160008152602001600081525090565b6040518060800160405280600490602082028036833780820191505090505090565b6040518060800160405280600073ffffffffffffffffffffffffffffffffffffffff168152602001600081526020016000815260200160008152509056fe5369676e6564536166654d6174683a206164646974696f6e206f766572666c6f77536166654d6174683a206d756c7469706c69636174696f6e206f766572666c6f775369676e6564536166654d6174683a206d756c7469706c69636174696f6e206f766572666c6f775369676e6564536166654d6174683a207375627472616374696f6e206f766572666c6f77a2646970667358221220cd30588a94ac048f57877c569e1fe938dc5a421cd9cb8d6462a63479ba2ba8a264736f6c63430006080033",
  "immutableReferences": {},
  "source": "// SPDX-License-Identifier: MIT\npragma solidity >=0.6.8 <0.7.0;\n\nimport \"../interfaces/IWrapper.sol\";\nimport \"../interfaces/IFixCapitalPool.sol\";\nimport \"../libraries/SafeMath.sol\";\nimport \"../libraries/SignedSafeMath.sol\";\nimport \"../libraries/ABDKMath64x64.sol\";\nimport \"../libraries/BigMath.sol\";\nimport \"../helpers/Ownable.sol\";\nimport \"./OrderbookDelegateParent.sol\";\n\ncontract OrderbookDelegate1 is OrderbookDelegateParent {\n\n\tusing SafeMath for uint256;\n\tusing SignedSafeMath for int256;\n\tusing ABDKMath64x64 for int128;\n\n\t/*\n\t\t@Description: buy a specific amount of YT off of the market\n\n\t\t@param uint _amountYT: the amount of YT to buy\n\t\t@param uint _maxMaturityConversionRate: the maximum MCR of the head order to continue purchasing more YT\n\t\t@param uint _maxCumulativeMaturityConversionRate: if this is smaller than the effective MCR based on ZCB in and YT out at end of execution revert\n\t\t@param uint16 _maxIterations: the maximum amount of limit orders to fully fill, important for gas considerations\n\t\t@param bool _useInternalBalances: pass true to ue YieldDeposited and BondDeposited to cover costs and receive payment\n\t\t\totherwise use transferPositionFrom and transferPosition on the baseFCP to get required input and send required output\n\t*/\n\tfunction marketBuyYT(\n\t\tuint _amountYT,\n\t\tuint _maxMaturityConversionRate,\n\t\tuint _maxCumulativeMaturityConversionRate,\n\t\tuint16 _maxIterations,\n\t\tbool _useInternalBalances\n\t) external setRateModifier returns(uint YTbought, uint ZCBsold, uint newHeadID, uint newHeadAmount) {\n\t\tnewHeadID = internalHeadYTSellID;\n\t\tLimitSellYT memory order;\n\t\taddress[4] memory vitals = [address(internalWrapper), address(internalFCP), address(internalIORC), address(0)];\n\t\tvitals[3] = IInfoOracle(vitals[2]).TreasuryFeeIsCollected() ? IInfoOracle(vitals[2]).sendTo() : Ownable(vitals[1]).owner();\n\t\treqPriorToPayoutPhase(vitals[1]);\n\t\tclaimContractSubAccountRewards(vitals[0], vitals[1]);\n\t\tuint ratio = IWrapper(vitals[0]).WrappedAmtToUnitAmt_RoundDown(1 ether);\n\t\tfor (uint16 i = 0; i < _maxIterations && newHeadID != 0; i++) {\n\t\t\torder = internalYTSells[newHeadID];\n\t\t\tif (order.maturityConversionRate > _maxMaturityConversionRate) {\n\t\t\t\t//account for fees\n\t\t\t\tuint ZCBfee = ZCBsold.mul(IInfoOracle(vitals[2]).getOrderbookFeeBips(vitals[1])) / TOTAL_BASIS_POINTS;\n\t\t\t\tZCBsold = ZCBsold.add(ZCBfee);\n\t\t\t\trequire(impliedMaturityConversionRate(ZCBsold, YTbought, ratio) <= _maxCumulativeMaturityConversionRate);\n\t\t\t\t//collect & distribute to taker\n\t\t\t\tmanageCollateral_payFee(vitals, ZCBfee, 0);\n\t\t\t\tmanageCollateral_BuyYT_takeOrder(vitals, msg.sender, ZCBsold, YTbought, ratio, _useInternalBalances);\n\t\t\t\tif (i != 0) {\n\t\t\t\t\tinternalHeadYTSellID = newHeadID;\n\t\t\t\t}\n\t\t\t\tnewHeadAmount = order.amount;\n\t\t\t\treturn (YTbought, ZCBsold, newHeadID, newHeadAmount);\n\t\t\t}\n\t\t\tuint orderZCBamt = impliedZCBamount(order.amount, ratio, order.maturityConversionRate);\n\t\t\tif (order.amount >= _amountYT) {\n\t\t\t\tuint scaledZCBamt = orderZCBamt.mul(_amountYT);\n\t\t\t\tscaledZCBamt = scaledZCBamt/order.amount + (scaledZCBamt%order.amount == 0 ? 0 : 1);\n\n\t\t\t\tZCBsold += scaledZCBamt;\n\t\t\t\tYTbought += _amountYT;\n\n\t\t\t\t{\n\t\t\t\t\tuint copyAmtYT = _amountYT; //prevent stack too deep\n\t\t\t\t\tmanageCollateral_fillYTSell(vitals, order.maker, scaledZCBamt, copyAmtYT, ratio);\n\t\t\t\t}\n\n\t\t\t\tif (order.amount == _amountYT) {\n\t\t\t\t\tinternalHeadYTSellID = order.nextID;\n\t\t\t\t\tdelete internalYTSells[newHeadID];\n\t\t\t\t\tnewHeadID = order.nextID;\n\t\t\t\t\tnewHeadAmount = internalYTSells[newHeadID].nextID;\n\t\t\t\t}\n\t\t\t\telse {\n\t\t\t\t\tnewHeadAmount = order.amount - _amountYT;\n\t\t\t\t\tinternalYTSells[newHeadID].amount = newHeadAmount;\n\t\t\t\t\tinternalHeadYTSellID = newHeadID;\n\t\t\t\t}\n\n\t\t\t\t//account for fees\n\t\t\t\tuint ZCBfee = ZCBsold.mul(IInfoOracle(vitals[2]).getOrderbookFeeBips(vitals[1])) / TOTAL_BASIS_POINTS;\n\t\t\t\tZCBsold = ZCBsold.add(ZCBfee);\n\t\t\t\trequire(impliedMaturityConversionRate(ZCBsold, YTbought, ratio) <= _maxCumulativeMaturityConversionRate);\n\t\t\t\t//collect & distribute to taker\n\t\t\t\tmanageCollateral_payFee(vitals, ZCBfee, 0);\n\t\t\t\t{\n\t\t\t\t\tbool copyUseInternalBalances = _useInternalBalances;\n\t\t\t\t\tmanageCollateral_BuyYT_takeOrder(vitals, msg.sender, ZCBsold, YTbought, ratio, copyUseInternalBalances);\n\t\t\t\t}\n\t\t\t\treturn (YTbought, ZCBsold, newHeadID, newHeadAmount);\n\t\t\t}\n\t\t\telse {\n\n\t\t\t\tmanageCollateral_fillYTSell(vitals, order.maker, orderZCBamt, order.amount, ratio);\n\t\t\t\tdelete internalYTSells[newHeadID];\n\n\t\t\t\tZCBsold += orderZCBamt;\n\t\t\t\tYTbought += order.amount;\n\t\t\t\t_amountYT -= order.amount;\n\t\t\t}\n\t\t\tnewHeadID = order.nextID;\n\t\t}\n\t\t//account for fees\n\t\tuint ZCBfee = ZCBsold.mul(IInfoOracle(vitals[2]).getOrderbookFeeBips(vitals[1])) / TOTAL_BASIS_POINTS;\n\t\tZCBsold = ZCBsold.add(ZCBfee);\n\t\trequire(impliedMaturityConversionRate(ZCBsold, YTbought, ratio) <= _maxCumulativeMaturityConversionRate);\n\t\t//collect & distribute to taker\n\t\tmanageCollateral_payFee(vitals, ZCBfee, 0);\n\t\tmanageCollateral_BuyYT_takeOrder(vitals, msg.sender, ZCBsold, YTbought, ratio, _useInternalBalances);\n\t\tinternalHeadYTSellID = newHeadID;\n\t\tnewHeadAmount = newHeadID == 0 ? 0 : internalYTSells[newHeadID].amount;\n\t}\n\n\t/*\n\t\t@Description: sell a specific amount of YT off of the market\n\n\t\t@param uint _amountYT: the amount of YT to sell\n\t\t@param uint _minMaturityConversionRate: the minimum MCR of the head order to continue purchasing more YT\n\t\t@param uint _minCumulativeMaturityConversionRate: if this is greater than the effective MCR based on ZCB in and YT out at end of execution revert\n\t\t@param uint16 _maxIterations: the maximum amount of limit orders to fully fill, important for gas considerations\n\t\t@param bool _useInternalBalances: pass true to ue YieldDeposited and BondDeposited to cover costs and receive payment\n\t\t\totherwise use transferPositionFrom and transferPosition on the baseFCP to get required input and send required output\n\t*/\n\tfunction marketSellYT(\n\t\tuint _amountYTInitial, //deflate div (1 + fee), after execution inflate YTsold mul (1 + fee)\n\t\tuint _minMaturityConversionRate,\n\t\tuint _minCumulativeMaturityConversionRate,\n\t\tuint16 _maxIterations,\n\t\tbool _useInternalBalances\n\t) external setRateModifier returns(uint ZCBbought, uint YTsold, uint newHeadID, uint newHeadAmount) {\n\n\t\tnewHeadID = internalHeadZCBSellID;\n\t\tLimitSellZCB memory order;\n\t\taddress[4] memory vitals = [address(internalWrapper), address(internalFCP), address(internalIORC), address(0)];\n\t\tvitals[3] = IInfoOracle(vitals[2]).TreasuryFeeIsCollected() ? IInfoOracle(vitals[2]).sendTo() : Ownable(vitals[1]).owner();\n\t\treqPriorToPayoutPhase(vitals[1]);\n\t\tclaimContractSubAccountRewards(vitals[0], vitals[1]);\n\t\tuint ratio = IWrapper(vitals[0]).WrappedAmtToUnitAmt_RoundDown(1 ether);\n\t\tuint i = uint(IInfoOracle(vitals[2]).getOrderbookFeeBips(vitals[1])) << 16; //store fee multiplier in 17th to 24th bit of i, cast i to uint16 for iteration purpouses\n\t\tuint _amountYT = _amountYTInitial; //prevent stack too deep\n\t\t_amountYT = _amountYT.mul(TOTAL_BASIS_POINTS).div((i >> 16) + TOTAL_BASIS_POINTS);\n\t\tfor ( ; uint16(i) < _maxIterations && newHeadID != 0; i++) {\n\t\t\torder = internalZCBSells[newHeadID];\n\t\t\tif (order.maturityConversionRate < _minMaturityConversionRate) {\n\t\t\t\tif (uint16(i) != 0) {\n\t\t\t\t\tinternalHeadZCBSellID = newHeadID;\n\t\t\t\t}\n\t\t\t\tnewHeadAmount = order.amount;\n\n\t\t\t\tuint YTfee = YTsold.mul(i >> 16) / TOTAL_BASIS_POINTS;\n\t\t\t\tYTsold = YTsold.add(YTfee);\n\t\t\t\trequire(impliedMaturityConversionRate(ZCBbought, YTsold, ratio) >= _minCumulativeMaturityConversionRate);\n\t\t\t\t//collect & distribute to taker\n\t\t\t\tmanageCollateral_payFee(vitals, YTfee, ratio);\n\t\t\t\t{\n\t\t\t\t\tbool copyUseInternalBalances = _useInternalBalances;\n\t\t\t\t\tmanageCollateral_BuyZCB_takeOrder(vitals, msg.sender, ZCBbought, YTsold, ratio, copyUseInternalBalances);\n\t\t\t\t}\n\t\t\t\treturn (ZCBbought, YTsold, newHeadID, newHeadAmount);\n\t\t\t}\n\t\t\tuint orderYTamt = impliedYTamount(order.amount, ratio, order.maturityConversionRate);\n\t\t\tif (orderYTamt >= _amountYT) {\n\t\t\t\tuint scaledZCBamt = order.amount.mul(_amountYT);\n\t\t\t\tscaledZCBamt = scaledZCBamt.div(orderYTamt); // prevent stack too deep\n\n\t\t\t\tZCBbought += scaledZCBamt;\n\t\t\t\tYTsold += _amountYT;\n\n\t\t\t\tmanageCollateral_fillZCBSell(vitals, order.maker, _amountYT, scaledZCBamt, ratio);\n\t\t\t\tif (order.amount == scaledZCBamt) {\n\t\t\t\t\tinternalHeadZCBSellID = order.nextID;\n\t\t\t\t\tdelete internalZCBSells[newHeadID];\n\t\t\t\t\tnewHeadID = order.nextID;\n\t\t\t\t\tnewHeadAmount = internalZCBSells[newHeadID].amount;\n\t\t\t\t}\n\t\t\t\telse {\n\t\t\t\t\tnewHeadAmount = order.amount - scaledZCBamt;\n\t\t\t\t\tinternalZCBSells[newHeadID].amount = newHeadAmount;\n\t\t\t\t\tinternalHeadZCBSellID = newHeadID;\n\t\t\t\t}\n\n\t\t\t\tuint YTfee = YTsold.mul(i >> 16) / TOTAL_BASIS_POINTS;\n\t\t\t\tYTsold = YTsold.add(YTfee);\n\n\t\t\t\trequire(impliedMaturityConversionRate(ZCBbought, YTsold, ratio) >= _minCumulativeMaturityConversionRate);\n\t\t\t\t//collect & distribute to taker\n\t\t\t\tmanageCollateral_payFee(vitals, YTfee, ratio);\n\t\t\t\t{\n\t\t\t\t\tbool copyUseInternalBalances = _useInternalBalances;\n\t\t\t\t\tmanageCollateral_BuyZCB_takeOrder(vitals, msg.sender, ZCBbought, YTsold, ratio, copyUseInternalBalances);\n\t\t\t\t}\n\t\t\t\treturn (ZCBbought, YTsold, newHeadID, newHeadAmount);\n\t\t\t}\n\t\t\telse {\n\n\t\t\t\tmanageCollateral_fillZCBSell(vitals, order.maker, orderYTamt, order.amount, ratio);\n\t\t\t\tdelete internalZCBSells[newHeadID];\n\n\t\t\t\tZCBbought += order.amount;\n\t\t\t\tYTsold += orderYTamt;\n\t\t\t\t_amountYT -= orderYTamt;\n\t\t\t}\n\t\t\tnewHeadID = order.nextID;\n\t\t}\n\t\tuint YTfee = YTsold.mul(i >> 16) / TOTAL_BASIS_POINTS;\n\t\tYTsold = YTsold.add(YTfee);\n\n\t\trequire(impliedMaturityConversionRate(ZCBbought, YTsold, ratio) >= _minCumulativeMaturityConversionRate);\n\t\t//collect & distribute to taker\n\t\tmanageCollateral_payFee(vitals, YTfee, ratio);\n\t\tbool copyUseInternalBalances = _useInternalBalances;\n\t\tmanageCollateral_BuyZCB_takeOrder(vitals, msg.sender, ZCBbought, YTsold, ratio, copyUseInternalBalances);\n\t\tinternalHeadZCBSellID = newHeadID;\n\t\tnewHeadAmount = newHeadID == 0 ? 0 : internalZCBSells[newHeadID].amount;\n\t}\n\n\n\t/*\n\t\t@Description: buy a specific amount of ZCB off of the market\n\n\t\t@param uint _amountZCB: the amount of ZCB to buy\n\t\t@param uint _minMaturityConversionRate: the minimum MCR of the head order to continue purchasing more ZCB\n\t\t@param uint _minCumulativeMaturityConversionRate: if this is greater than the effective MCR based on ZCB in and YT out at end of execution revert\n\t\t@param uint16 _maxIterations: the maximum amount of limit orders to fully fill, important for gas considerations\n\t\t@param bool _useInternalBalances: pass true to ue YieldDeposited and BondDeposited to cover costs and receive payment\n\t\t\totherwise use transferPositionFrom and transferPosition on the baseFCP to get required input and send required output\n\t*/\n\tfunction marketBuyZCB(\n\t\tuint _amountZCB,\n\t\tuint _minMaturityConversionRate,\n\t\tuint _minCumulativeMaturityConversionRate,\n\t\tuint16 _maxIterations,\n\t\tbool _useInternalBalances\n\t) external setRateModifier returns(uint ZCBbought, uint YTsold, uint newHeadID, uint newHeadAmount) {\n\n\t\tnewHeadID = internalHeadZCBSellID;\n\t\tLimitSellZCB memory order;\n\t\taddress[4] memory vitals = [address(internalWrapper), address(internalFCP), address(internalIORC), address(0)];\n\t\tvitals[3] = IInfoOracle(vitals[2]).TreasuryFeeIsCollected() ? IInfoOracle(vitals[2]).sendTo() : Ownable(vitals[1]).owner();\n\t\treqPriorToPayoutPhase(vitals[1]);\n\t\tclaimContractSubAccountRewards(vitals[0], vitals[1]);\n\t\tuint ratio = IWrapper(vitals[0]).WrappedAmtToUnitAmt_RoundDown(1 ether);\n\t\tfor (uint16 i = 0; i < _maxIterations && newHeadID != 0; i++) {\n\t\t\torder = internalZCBSells[newHeadID];\n\t\t\tif (order.maturityConversionRate < _minMaturityConversionRate) {\n\t\t\t\tuint YTfee = YTsold.mul(IInfoOracle(vitals[2]).getOrderbookFeeBips(vitals[1])) / TOTAL_BASIS_POINTS;\n\t\t\t\tYTsold = YTsold.add(YTfee);\n\t\t\t\trequire(impliedMaturityConversionRate(ZCBbought, YTsold, ratio) >= _minCumulativeMaturityConversionRate);\n\t\t\t\t//collect & distribute to taker\n\t\t\t\tmanageCollateral_payFee(vitals, YTfee, ratio);\n\t\t\t\tmanageCollateral_BuyZCB_takeOrder(vitals, msg.sender, ZCBbought, YTsold, ratio, _useInternalBalances);\n\t\t\t\tif (i != 0) {\n\t\t\t\t\tinternalHeadZCBSellID = newHeadID;\n\t\t\t\t}\n\t\t\t\tnewHeadAmount = order.amount;\n\t\t\t\treturn (ZCBbought, YTsold, newHeadID, newHeadAmount);\n\t\t\t}\n\t\t\tuint orderYTamt = impliedYTamount(order.amount, ratio, order.maturityConversionRate);\n\t\t\tif (order.amount >= _amountZCB) {\n\t\t\t\tuint scaledYTamt = orderYTamt.mul(_amountZCB);\n\t\t\t\tscaledYTamt = scaledYTamt/order.amount + (scaledYTamt%order.amount == 0 ? 0 : 1);\n\n\t\t\t\tZCBbought += _amountZCB;\n\t\t\t\tYTsold += scaledYTamt;\n\n\t\t\t\t{\n\t\t\t\t\tuint copyAmtZCB = _amountZCB; //prevent stack too deep\n\t\t\t\t\tmanageCollateral_fillZCBSell(vitals, order.maker, scaledYTamt, copyAmtZCB, ratio);\n\t\t\t\t}\n\n\t\t\t\tif (order.amount == _amountZCB) {\n\t\t\t\t\tinternalHeadZCBSellID = order.nextID;\n\t\t\t\t\tdelete internalZCBSells[newHeadID];\n\t\t\t\t\tnewHeadID = order.nextID;\n\t\t\t\t\tnewHeadAmount = internalZCBSells[newHeadID].amount;\n\t\t\t\t}\n\t\t\t\telse {\n\t\t\t\t\tnewHeadAmount = order.amount - _amountZCB;\n\t\t\t\t\tinternalZCBSells[newHeadID].amount = newHeadAmount;\n\t\t\t\t\tinternalHeadZCBSellID = newHeadID;\n\t\t\t\t}\n\n\t\t\t\tuint YTfee = YTsold.mul(IInfoOracle(vitals[2]).getOrderbookFeeBips(vitals[1])) / TOTAL_BASIS_POINTS;\n\t\t\t\tYTsold = YTsold.add(YTfee);\n\t\t\t\trequire(impliedMaturityConversionRate(ZCBbought, YTsold, ratio) >= _minCumulativeMaturityConversionRate);\n\t\t\t\t//collect & distribute to taker\n\t\t\t\tmanageCollateral_payFee(vitals, YTfee, ratio);\n\t\t\t\t{\n\t\t\t\t\tbool copyUseInternalBalances = _useInternalBalances;\n\t\t\t\t\tmanageCollateral_BuyZCB_takeOrder(vitals, msg.sender, ZCBbought, YTsold, ratio, copyUseInternalBalances);\n\t\t\t\t}\n\t\t\t\treturn (ZCBbought, YTsold, newHeadID, newHeadAmount);\n\t\t\t}\n\t\t\telse {\n\n\t\t\t\tmanageCollateral_fillZCBSell(vitals, order.maker, orderYTamt, order.amount, ratio);\n\t\t\t\tdelete internalZCBSells[newHeadID];\n\n\t\t\t\tZCBbought += order.amount;\n\t\t\t\tYTsold += orderYTamt;\n\t\t\t\t_amountZCB -= order.amount;\n\t\t\t}\n\t\t\tnewHeadID = order.nextID;\n\t\t}\n\t\tuint YTfee = YTsold.mul(IInfoOracle(vitals[2]).getOrderbookFeeBips(vitals[1])) / TOTAL_BASIS_POINTS;\n\t\tYTsold = YTsold.add(YTfee);\n\t\trequire(impliedMaturityConversionRate(ZCBbought, YTsold, ratio) >= _minCumulativeMaturityConversionRate);\n\t\t//collect & distribute to taker\n\t\tmanageCollateral_payFee(vitals, YTfee, ratio);\n\t\tmanageCollateral_BuyZCB_takeOrder(vitals, msg.sender, ZCBbought, YTsold, ratio, _useInternalBalances);\n\t\tinternalHeadZCBSellID = newHeadID;\n\t\tnewHeadAmount = newHeadID == 0 ? 0 : internalZCBSells[newHeadID].amount;\n\t}\n\n\t/*\n\t\t@Description: sell a specific amount of ZCB on the market\n\n\t\t@param uint _amountZCB: the amount of ZCB to sell\n\t\t@param uint _maxMaturityConversionRate: the maximum MCR of the head order to continue selling more ZCB\n\t\t@param uint _maxCumulativeMaturityConversionRate: if this is smaller than the effective MCR based on ZCB in and YT out at end of execution revert\n\t\t@param uint16 _maxIterations: the maximum amount of limit orders to fully fill, important for gas considerations\n\t\t@param bool _useInternalBalances: pass true to ue YieldDeposited and BondDeposited to cover costs and receive payment\n\t\t\totherwise use transferPositionFrom and transferPosition on the baseFCP to get required input and send required output\n\t*/\n\tfunction marketSellZCB(\n\t\tuint _amountZCBInitial, //deflate div (1 + fee), after execution inflate YTsold mul (1 + fee)\n\t\tuint _maxMaturityConversionRate,\n\t\tuint _maxCumulativeMaturityConversionRate,\n\t\tuint16 _maxIterations,\n\t\tbool _useInternalBalances\n\t) external setRateModifier returns(uint YTbought, uint ZCBsold, uint newHeadID, uint newHeadAmount) {\n\n\t\tnewHeadID = internalHeadYTSellID;\n\t\tLimitSellYT memory order;\n\t\taddress[4] memory vitals = [address(internalWrapper), address(internalFCP), address(internalIORC), address(0)];\n\t\tvitals[3] = IInfoOracle(vitals[2]).TreasuryFeeIsCollected() ? IInfoOracle(vitals[2]).sendTo() : Ownable(vitals[1]).owner();\n\t\treqPriorToPayoutPhase(vitals[1]);\n\t\tclaimContractSubAccountRewards(vitals[0], vitals[1]);\n\t\tuint ratio = IWrapper(vitals[0]).WrappedAmtToUnitAmt_RoundDown(1 ether);\n\t\tuint i = uint(IInfoOracle(vitals[2]).getOrderbookFeeBips(vitals[1])) << 16; //store fee multiplier in 17th to 24th bit of i, cast i to uint16 for iteration purpouses\n\t\tuint _amountZCB = _amountZCBInitial; // prevent stack too deep\n\t\t_amountZCB = _amountZCB.mul(TOTAL_BASIS_POINTS).div((i >> 16) + TOTAL_BASIS_POINTS);\n\t\tfor ( ; uint16(i) < _maxIterations && newHeadID != 0; i++) {\n\t\t\torder = internalYTSells[newHeadID];\n\t\t\tif (order.maturityConversionRate > _maxMaturityConversionRate) {\n\t\t\t\tif (uint16(i) != 0) {\n\t\t\t\t\tinternalHeadYTSellID = newHeadID;\n\t\t\t\t}\n\t\t\t\tnewHeadAmount = order.amount;\n\t\t\t\tuint ZCBfee = ZCBsold.mul(i >> 16) / TOTAL_BASIS_POINTS;\n\t\t\t\tZCBsold = ZCBsold.add(ZCBfee);\n\t\t\t\trequire(impliedMaturityConversionRate(ZCBsold, YTbought, ratio) <= _maxCumulativeMaturityConversionRate);\n\t\t\t\t//collect & distribute to taker\n\t\t\t\tmanageCollateral_payFee(vitals, ZCBfee, 0);\n\t\t\t\t{\n\t\t\t\t\tbool copyUseInternalBalances = _useInternalBalances;\n\t\t\t\t\tmanageCollateral_BuyYT_takeOrder(vitals, msg.sender, ZCBsold, YTbought, ratio, copyUseInternalBalances);\n\t\t\t\t}\n\t\t\t\treturn (YTbought, ZCBsold, newHeadID, newHeadAmount);\n\t\t\t}\n\t\t\tuint orderZCBamt = impliedZCBamount(order.amount, ratio, order.maturityConversionRate);\n\t\t\tif (orderZCBamt >= _amountZCB) {\n\t\t\t\tuint scaledYTamt = order.amount.mul(_amountZCB);\n\t\t\t\tscaledYTamt = scaledYTamt.div(orderZCBamt); // prevent stack too deep\n\n\t\t\t\tZCBsold += _amountZCB;\n\t\t\t\tYTbought += scaledYTamt;\n\n\t\t\t\tmanageCollateral_fillYTSell(vitals, order.maker, _amountZCB, scaledYTamt, ratio);\n\t\t\t\tif (order.amount == scaledYTamt) {\n\t\t\t\t\tinternalHeadYTSellID = order.nextID;\n\t\t\t\t\tdelete internalYTSells[newHeadID];\n\t\t\t\t\tnewHeadID = order.nextID;\n\t\t\t\t\tnewHeadAmount = internalYTSells[newHeadID].amount;\n\t\t\t\t}\n\t\t\t\telse {\n\t\t\t\t\tnewHeadAmount = order.amount - scaledYTamt;\n\t\t\t\t\tinternalYTSells[newHeadID].amount = newHeadAmount;\n\t\t\t\t\tinternalHeadYTSellID = newHeadID;\n\t\t\t\t}\n\n\t\t\t\tuint ZCBfee = ZCBsold.mul(i >> 16) / TOTAL_BASIS_POINTS;\n\t\t\t\tZCBsold = ZCBsold.add(ZCBfee);\n\t\t\t\trequire(impliedMaturityConversionRate(ZCBsold, YTbought, ratio) <= _maxCumulativeMaturityConversionRate);\n\t\t\t\t//collect & distribute to taker\n\t\t\t\tmanageCollateral_payFee(vitals, ZCBfee, 0);\n\t\t\t\t{\n\t\t\t\t\tbool copyUseInternalBalances = _useInternalBalances; //prevent stack too deep\n\t\t\t\t\tuint copyYTbought = YTbought; //prevent stack too deep\n\t\t\t\t\tmanageCollateral_BuyYT_takeOrder(vitals, msg.sender, ZCBsold, copyYTbought, ratio, copyUseInternalBalances);\n\t\t\t\t}\n\t\t\t\treturn (YTbought, ZCBsold, newHeadID, newHeadAmount);\n\t\t\t}\n\t\t\telse {\n\n\t\t\t\tmanageCollateral_fillYTSell(vitals, order.maker, orderZCBamt, order.amount, ratio);\n\t\t\t\tdelete internalYTSells[newHeadID];\n\n\t\t\t\tZCBsold += orderZCBamt;\n\t\t\t\tYTbought += order.amount;\n\t\t\t\t_amountZCB -= orderZCBamt;\n\t\t\t}\n\t\t\tnewHeadID = order.nextID;\n\t\t}\n\t\tuint ZCBfee = ZCBsold.mul(i >> 16) / TOTAL_BASIS_POINTS;\n\t\tZCBsold = ZCBsold.add(ZCBfee);\n\t\trequire(impliedMaturityConversionRate(ZCBsold, YTbought, ratio) <= _maxCumulativeMaturityConversionRate);\n\t\t//collect & distribute to taker\n\t\tmanageCollateral_payFee(vitals, ZCBfee, 0);\n\t\tbool copyUseInternalBalances = _useInternalBalances; //prevent stack too deep\n\t\tmanageCollateral_BuyYT_takeOrder(vitals, msg.sender, ZCBsold, YTbought, ratio, copyUseInternalBalances);\n\t\tinternalHeadYTSellID = newHeadID;\n\t\tnewHeadAmount = newHeadID == 0 ? 0 : internalYTSells[newHeadID].amount;\n\t}\n\n}",
  "sourcePath": "/home/asher/FixFinanceV1/contracts/Orderbook/OrderbookDelegate1.sol",
  "compiler": {
    "name": "solc",
    "version": "0.6.8+commit.0bbfe453.Emscripten.clang"
  },
  "schemaVersion": "3.4.1",
  "updatedAt": "2021-11-26T19:15:54.960Z",
  "devdoc": {
    "methods": {}
  },
  "userdoc": {
    "methods": {}
  }
}