{
  "contractName": "OrderbookDelegate3",
  "abi": [
    {
      "inputs": [
        {
          "internalType": "uint256",
          "name": "_amountYield",
          "type": "uint256"
        },
        {
          "internalType": "int256",
          "name": "_amountBond",
          "type": "int256"
        }
      ],
      "name": "withdraw",
      "outputs": [],
      "stateMutability": "nonpayable",
      "type": "function"
    },
    {
      "inputs": [
        {
          "internalType": "uint256",
          "name": "_amountYield",
          "type": "uint256"
        },
        {
          "internalType": "int256",
          "name": "_amountBond",
          "type": "int256"
        }
      ],
      "name": "deposit",
      "outputs": [],
      "stateMutability": "nonpayable",
      "type": "function"
    },
    {
      "inputs": [],
      "name": "forceClaimSubAccountRewards",
      "outputs": [],
      "stateMutability": "nonpayable",
      "type": "function"
    },
    {
      "inputs": [
        {
          "internalType": "uint256",
          "name": "_amount",
          "type": "uint256"
        },
        {
          "internalType": "uint256",
          "name": "_maturityConversionRate",
          "type": "uint256"
        },
        {
          "internalType": "uint256",
          "name": "_hintID",
          "type": "uint256"
        },
        {
          "internalType": "uint256",
          "name": "_maxSteps",
          "type": "uint256"
        }
      ],
      "name": "limitSellZCB",
      "outputs": [
        {
          "internalType": "uint256",
          "name": "newID",
          "type": "uint256"
        },
        {
          "internalType": "uint256",
          "name": "prevID",
          "type": "uint256"
        }
      ],
      "stateMutability": "nonpayable",
      "type": "function"
    },
    {
      "inputs": [
        {
          "internalType": "uint256",
          "name": "_amount",
          "type": "uint256"
        },
        {
          "internalType": "uint256",
          "name": "_maturityConversionRate",
          "type": "uint256"
        },
        {
          "internalType": "uint256",
          "name": "_hintID",
          "type": "uint256"
        },
        {
          "internalType": "uint256",
          "name": "_maxSteps",
          "type": "uint256"
        }
      ],
      "name": "limitSellYT",
      "outputs": [
        {
          "internalType": "uint256",
          "name": "newID",
          "type": "uint256"
        },
        {
          "internalType": "uint256",
          "name": "prevID",
          "type": "uint256"
        }
      ],
      "stateMutability": "nonpayable",
      "type": "function"
    },
    {
      "inputs": [
        {
          "internalType": "int256",
          "name": "_amount",
          "type": "int256"
        },
        {
          "internalType": "uint256",
          "name": "_targetID",
          "type": "uint256"
        },
        {
          "internalType": "uint256",
          "name": "_hintID",
          "type": "uint256"
        },
        {
          "internalType": "uint256",
          "name": "_maxSteps",
          "type": "uint256"
        },
        {
          "internalType": "bool",
          "name": "_removeBelowMin",
          "type": "bool"
        }
      ],
      "name": "modifyZCBLimitSell",
      "outputs": [
        {
          "internalType": "int256",
          "name": "change",
          "type": "int256"
        }
      ],
      "stateMutability": "nonpayable",
      "type": "function"
    },
    {
      "inputs": [
        {
          "internalType": "int256",
          "name": "_amount",
          "type": "int256"
        },
        {
          "internalType": "uint256",
          "name": "_targetID",
          "type": "uint256"
        },
        {
          "internalType": "uint256",
          "name": "_hintID",
          "type": "uint256"
        },
        {
          "internalType": "uint256",
          "name": "_maxSteps",
          "type": "uint256"
        },
        {
          "internalType": "bool",
          "name": "_removeBelowMin",
          "type": "bool"
        }
      ],
      "name": "modifyYTLimitSell",
      "outputs": [
        {
          "internalType": "int256",
          "name": "change",
          "type": "int256"
        }
      ],
      "stateMutability": "nonpayable",
      "type": "function"
    },
    {
      "inputs": [],
      "name": "forceRateDataUpdate",
      "outputs": [],
      "stateMutability": "nonpayable",
      "type": "function"
    },
    {
      "inputs": [
        {
          "internalType": "uint256",
          "name": "_MCR",
          "type": "uint256"
        }
      ],
      "name": "setOracleMCR",
      "outputs": [],
      "stateMutability": "nonpayable",
      "type": "function"
    }
  ],
  "bytecode": "0x608060405234801561001057600080fd5b50614693806100206000396000f3fe608060405234801561001057600080fd5b50600436106100935760003560e01c80636e904fac116100665780636e904fac146101a35780637d9ced7c1461020a578063811ee04c14610214578063c1f5403c1461024c578063cbd7ab6a1461028457610093565b80630215f9f71461009857806312be615c1461010457806327495de61461010e5780632956971f14610175575b600080fd5b6100ee600480360360a08110156100ae57600080fd5b81019080803590602001909291908035906020019092919080359060200190929190803590602001909291908035151590602001909291905050506102f0565b6040518082815260200191505060405180910390f35b61010c61052e565b005b6101586004803603608081101561012457600080fd5b8101908080359060200190929190803590602001909291908035906020019092919080359060200190929190505050610599565b604051808381526020018281526020019250505060405180910390f35b6101a16004803603602081101561018b57600080fd5b81019080803590602001909291905050506107e9565b005b6101ed600480360360808110156101b957600080fd5b81019080803590602001909291908035906020019092919080359060200190929190803590602001909291905050506108e0565b604051808381526020018281526020019250505060405180910390f35b610212610b30565b005b61024a6004803603604081101561022a57600080fd5b810190808035906020019092919080359060200190929190505050610d9a565b005b6102826004803603604081101561026257600080fd5b810190808035906020019092919080359060200190929190505050611109565b005b6102da600480360360a081101561029a57600080fd5b8101908080359060200190929190803590602001909291908035906020019092919080359060200190929190803515159060200190929190505050611686565b6040518082815260200191505060405180910390f35b6000603c602c60009054906101000a900464ffffffffff1664ffffffffff16014211156103305761032f602c60059054906101000a900460ff166118c4565b5b600086141561033e57600080fd5b6004600086815260200190815260200160002060000160009054906101000a900473ffffffffffffffffffffffffffffffffffffffff1673ffffffffffffffffffffffffffffffffffffffff163373ffffffffffffffffffffffffffffffffffffffff16146103ac57600080fd5b6103d7600960009054906101000a900473ffffffffffffffffffffffffffffffffffffffff16611b56565b6000600a60009054906101000a900473ffffffffffffffffffffffffffffffffffffffff1673ffffffffffffffffffffffffffffffffffffffff16630247c79c670de0b6b3a76400006040518263ffffffff1660e01b81526004018082815260200191505060206040518083038186803b15801561045457600080fd5b505afa158015610468573d6000803e3d6000fd5b505050506040513d602081101561047e57600080fd5b8101908080519060200190929190505050905060006104b3600460008981526020019081526020016000206002015483611be4565b905060008614156104d2576104cb8888878488611d34565b92506104f2565b6006548714156104e157600080fd5b6104ef888888888589612115565b92505b600083131561050b576105063384846123da565b610523565b6000831215610522576105213384600003612581565b5b5b505095945050505050565b603c602c60009054906101000a900464ffffffffff1664ffffffffff160142111561056c5761056b602c60059054906101000a900460ff166118c4565b5b610597600960009054906101000a900473ffffffffffffffffffffffffffffffffffffffff16611b56565b565b60008085856000600a60009054906101000a900473ffffffffffffffffffffffffffffffffffffffff1673ffffffffffffffffffffffffffffffffffffffff16630247c79c670de0b6b3a76400006040518263ffffffff1660e01b81526004018082815260200191505060206040518083038186803b15801561061b57600080fd5b505afa15801561062f573d6000803e3d6000fd5b505050506040513d602081101561064557600080fd5b810190808051906020019092919050505090506000610664838361264c565b905080841161067257600080fd5b603c602c60009054906101000a900464ffffffffff1664ffffffffff16014211156106b0576106af602c60059054906101000a900460ff166118c4565b5b6106db600960009054906101000a900473ffffffffffffffffffffffffffffffffffffffff16611b56565b600160085401955060008814156106ff576106f88a8a888a612733565b945061070f565b61070c8a8a8a898b612adf565b94505b6000600a60009054906101000a900473ffffffffffffffffffffffffffffffffffffffff1673ffffffffffffffffffffffffffffffffffffffff16630247c79c670de0b6b3a76400006040518263ffffffff1660e01b81526004018082815260200191505060206040518083038186803b15801561078c57600080fd5b505afa1580156107a0573d6000803e3d6000fd5b505050506040513d60208110156107b657600080fd5b810190808051906020019092919050505090506107d4338c83612d10565b86600881905550505050505094509492505050565b6000806000600d6001601f0360ff16601f811061080257fe5b015490506000811161081357600080fd5b8381111561082857828060010193505061083a565b838114156108395781806001019250505b5b5060008090505b6001601f0360ff168160ff16101561089e576000600d8260ff16601f811061086557fe5b015490508481111561087e578380600101945050610890565b8481141561088f5782806001019350505b5b508080600101915050610841565b5060008282601f030390508060ff1682840160ff1610156108be57600080fd5b8260ff1682820160ff1610156108d357600080fd5b83600c8190555050505050565b60008085856000600a60009054906101000a900473ffffffffffffffffffffffffffffffffffffffff1673ffffffffffffffffffffffffffffffffffffffff16630247c79c670de0b6b3a76400006040518263ffffffff1660e01b81526004018082815260200191505060206040518083038186803b15801561096257600080fd5b505afa158015610976573d6000803e3d6000fd5b505050506040513d602081101561098c57600080fd5b8101908080519060200190929190505050905060006109ab8383611be4565b90508084116109b957600080fd5b603c602c60009054906101000a900464ffffffffff1664ffffffffff16014211156109f7576109f6602c60059054906101000a900460ff166118c4565b5b610a22600960009054906101000a900473ffffffffffffffffffffffffffffffffffffffff16611b56565b60016008540195506000881415610a4657610a3f8a8a888a612eb7565b9450610a56565b610a538a8a8a898b613263565b94505b6000600a60009054906101000a900473ffffffffffffffffffffffffffffffffffffffff1673ffffffffffffffffffffffffffffffffffffffff16630247c79c670de0b6b3a76400006040518263ffffffff1660e01b81526004018082815260200191505060206040518083038186803b158015610ad357600080fd5b505afa158015610ae7573d6000803e3d6000fd5b505050506040513d6020811015610afd57600080fd5b81019080805190602001909291905050509050610b1b338c836123da565b86600881905550505050505094509492505050565b6000600960009054906101000a900473ffffffffffffffffffffffffffffffffffffffff1690506000600a60009054906101000a900473ffffffffffffffffffffffffffffffffffffffff1690508073ffffffffffffffffffffffffffffffffffffffff16635102e3e160018430866040518563ffffffff1660e01b815260040180851515151581526020018473ffffffffffffffffffffffffffffffffffffffff1673ffffffffffffffffffffffffffffffffffffffff1681526020018373ffffffffffffffffffffffffffffffffffffffff1673ffffffffffffffffffffffffffffffffffffffff1681526020018273ffffffffffffffffffffffffffffffffffffffff1673ffffffffffffffffffffffffffffffffffffffff168152602001945050505050600060405180830381600087803b158015610c7257600080fd5b505af1158015610c86573d6000803e3d6000fd5b505050508073ffffffffffffffffffffffffffffffffffffffff16635102e3e160003033866040518563ffffffff1660e01b815260040180851515151581526020018473ffffffffffffffffffffffffffffffffffffffff1673ffffffffffffffffffffffffffffffffffffffff1681526020018373ffffffffffffffffffffffffffffffffffffffff1673ffffffffffffffffffffffffffffffffffffffff1681526020018273ffffffffffffffffffffffffffffffffffffffff1673ffffffffffffffffffffffffffffffffffffffff168152602001945050505050600060405180830381600087803b158015610d7e57600080fd5b505af1158015610d92573d6000803e3d6000fd5b505050505050565b7f7fffffffffffffffffffffffffffffffffffffffffffffffffffffffffffffff821115610dc757600080fd5b6000600960009054906101000a900473ffffffffffffffffffffffffffffffffffffffff169050610df781611b56565b8073ffffffffffffffffffffffffffffffffffffffff1663ec02d257333086866040518563ffffffff1660e01b8152600401808573ffffffffffffffffffffffffffffffffffffffff1673ffffffffffffffffffffffffffffffffffffffff1681526020018473ffffffffffffffffffffffffffffffffffffffff1673ffffffffffffffffffffffffffffffffffffffff168152602001838152602001828152602001945050505050600060405180830381600087803b158015610eba57600080fd5b505af1158015610ece573d6000803e3d6000fd5b50505050600a60009054906101000a900473ffffffffffffffffffffffffffffffffffffffff1673ffffffffffffffffffffffffffffffffffffffff16637c9dd7896000338487876040518663ffffffff1660e01b815260040180861515151581526020018573ffffffffffffffffffffffffffffffffffffffff1673ffffffffffffffffffffffffffffffffffffffff1681526020018473ffffffffffffffffffffffffffffffffffffffff1673ffffffffffffffffffffffffffffffffffffffff16815260200183815260200182815260200195505050505050600060405180830381600087803b158015610fc457600080fd5b505af1158015610fd8573d6000803e3d6000fd5b5050505061102d836000803373ffffffffffffffffffffffffffffffffffffffff1673ffffffffffffffffffffffffffffffffffffffff1681526020019081526020016000205461349490919063ffffffff16565b6000803373ffffffffffffffffffffffffffffffffffffffff1673ffffffffffffffffffffffffffffffffffffffff168152602001908152602001600020819055506110c182600160003373ffffffffffffffffffffffffffffffffffffffff1673ffffffffffffffffffffffffffffffffffffffff1681526020019081526020016000205461351c90919063ffffffff16565b600160003373ffffffffffffffffffffffffffffffffffffffff1673ffffffffffffffffffffffffffffffffffffffff16815260200190815260200160002081905550505050565b7f7fffffffffffffffffffffffffffffffffffffffffffffffffffffffffffffff82111561113657600080fd5b6000600960009054906101000a900473ffffffffffffffffffffffffffffffffffffffff16905060008173ffffffffffffffffffffffffffffffffffffffff1663fd23ae026040518163ffffffff1660e01b815260040160206040518083038186803b1580156111a557600080fd5b505afa1580156111b9573d6000803e3d6000fd5b505050506040513d60208110156111cf57600080fd5b8101908080519060200190929190505050905060008060003373ffffffffffffffffffffffffffffffffffffffff1673ffffffffffffffffffffffffffffffffffffffff1681526020019081526020016000205490506000600160003373ffffffffffffffffffffffffffffffffffffffff1673ffffffffffffffffffffffffffffffffffffffff1681526020019081526020016000205490506000836112b557600260003373ffffffffffffffffffffffffffffffffffffffff1673ffffffffffffffffffffffffffffffffffffffff168152602001908152602001600020546112b8565b60005b905060008461130657600360003373ffffffffffffffffffffffffffffffffffffffff1673ffffffffffffffffffffffffffffffffffffffff16815260200190815260200160002054611309565b60005b90506000600a60009054906101000a900473ffffffffffffffffffffffffffffffffffffffff1673ffffffffffffffffffffffffffffffffffffffff16630247c79c670de0b6b3a76400006040518263ffffffff1660e01b81526004018082815260200191505060206040518083038186803b15801561138857600080fd5b505afa15801561139c573d6000803e3d6000fd5b505050506040513d60208110156113b257600080fd5b8101908080519060200190929190505050905060006113da8a876135aa90919063ffffffff16565b905060006113f18a876135f490919063ffffffff16565b90506114008282878787613682565b8873ffffffffffffffffffffffffffffffffffffffff16636a68d0c3338d8d6040518463ffffffff1660e01b8152600401808473ffffffffffffffffffffffffffffffffffffffff1673ffffffffffffffffffffffffffffffffffffffff1681526020018381526020018281526020019350505050600060405180830381600087803b15801561148f57600080fd5b505af11580156114a3573d6000803e3d6000fd5b5050505060008b600003905060006114e47fffffffffffffffffffffffffffffffffffffffffffffffffffffffffffffffff8d61376090919063ffffffff16565b9050600a60009054906101000a900473ffffffffffffffffffffffffffffffffffffffff1673ffffffffffffffffffffffffffffffffffffffff16637c9dd7896000338e86866040518663ffffffff1660e01b815260040180861515151581526020018573ffffffffffffffffffffffffffffffffffffffff1673ffffffffffffffffffffffffffffffffffffffff1681526020018473ffffffffffffffffffffffffffffffffffffffff1673ffffffffffffffffffffffffffffffffffffffff16815260200183815260200182815260200195505050505050600060405180830381600087803b1580156115d857600080fd5b505af11580156115ec573d6000803e3d6000fd5b50505050836000803373ffffffffffffffffffffffffffffffffffffffff1673ffffffffffffffffffffffffffffffffffffffff1681526020019081526020016000208190555082600160003373ffffffffffffffffffffffffffffffffffffffff1673ffffffffffffffffffffffffffffffffffffffff1681526020019081526020016000208190555050505050505050505050505050565b6000603c602c60009054906101000a900464ffffffffff1664ffffffffff16014211156116c6576116c5602c60059054906101000a900460ff166118c4565b5b60008614156116d457600080fd5b6005600086815260200190815260200160002060000160009054906101000a900473ffffffffffffffffffffffffffffffffffffffff1673ffffffffffffffffffffffffffffffffffffffff163373ffffffffffffffffffffffffffffffffffffffff161461174257600080fd5b61176d600960009054906101000a900473ffffffffffffffffffffffffffffffffffffffff16611b56565b6000600a60009054906101000a900473ffffffffffffffffffffffffffffffffffffffff1673ffffffffffffffffffffffffffffffffffffffff16630247c79c670de0b6b3a76400006040518263ffffffff1660e01b81526004018082815260200191505060206040518083038186803b1580156117ea57600080fd5b505afa1580156117fe573d6000803e3d6000fd5b505050506040513d602081101561181457600080fd5b81019080805190602001909291905050509050600061184960056000898152602001908152602001600020600201548361264c565b9050600086141561186857611861888887848861388a565b9250611888565b60075487141561187757600080fd5b611885888888888589613c50565b92505b60008313156118a15761189c338484612d10565b6118b9565b60008312156118b8576118b73384600003613f44565b5b5b505095945050505050565b6000600654905060008114156118da5750611b53565b6000600754905060008114156118f1575050611b53565b6000600460008481526020019081526020016000206002015490506000600560008481526020019081526020016000206002015490506000600a60009054906101000a900473ffffffffffffffffffffffffffffffffffffffff1673ffffffffffffffffffffffffffffffffffffffff16630247c79c670de0b6b3a76400006040518263ffffffff1660e01b81526004018082815260200191505060206040518083038186803b1580156119a457600080fd5b505afa1580156119b8573d6000803e3d6000fd5b505050506040513d60208110156119ce57600080fd5b810190808051906020019092919050505090508083106119ee57826119f0565b805b92508082106119ff5781611a01565b805b91506000611a3382611a25680100000000000000008761400f90919063ffffffff16565b61409590919063ffffffff16565b90506000611a6583611a57680100000000000000008761400f90919063ffffffff16565b61409590919063ffffffff16565b90506f7fffffffffffffffffffffffffffffff600f0b8210611a8657600080fd5b6f7fffffffffffffffffffffffffffffff600f0b8110611aa557600080fd5b60006040611adf85611ace611ac68688600f0b6140df90919063ffffffff16565b600f0b61414a565b600f0b61400f90919063ffffffff16565b901c905080600d8a60ff16601f8110611af457fe5b018190555042602c60006101000a81548164ffffffffff021916908364ffffffffff160217905550601f60ff1660018a0160ff1681611b2f57fe5b06602c60056101000a81548160ff021916908360ff16021790555050505050505050505b50565b8073ffffffffffffffffffffffffffffffffffffffff1663fd23ae026040518163ffffffff1660e01b815260040160206040518083038186803b158015611b9c57600080fd5b505afa158015611bb0573d6000803e3d6000fd5b505050506040513d6020811015611bc657600080fd5b810190808051906020019092919050505015611be157600080fd5b50565b600080602c60069054906101000a900460ff16905060006002811115611c0657fe5b816002811115611c1257fe5b1415611c22576000915050611d2e565b60016002811115611c2f57fe5b816002811115611c3b57fe5b1415611c7857611c7083611c62670de0b6b3a7640000602d5461400f90919063ffffffff16565b61409590919063ffffffff16565b915050611d2e565b6000611ca785611c99670de0b6b3a76400008761400f90919063ffffffff16565b61409590919063ffffffff16565b9050670de0b6b3a76400008110611cbd57600080fd5b611d29670de0b6b3a7640000611cf686611ce885670de0b6b3a76400006135aa90919063ffffffff16565b61400f90919063ffffffff16565b81611cfd57fe5b04611d1b670de0b6b3a7640000602d5461400f90919063ffffffff16565b61409590919063ffffffff16565b925050505b92915050565b600080600654905085811415611eed576000871315611d9f57600060046000838152602001908152602001600020600101549050611d7b888261349490919063ffffffff16565b6004600084815260200190815260200160002060010181905550879250505061210c565b6000600460008381526020019081526020016000206001015490508760000381111580611dda5750838015611dd957508488600003820311155b5b15611e5e57600460008381526020019081526020016000206003015460068190555060046000838152602001908152602001600020600080820160006101000a81549073ffffffffffffffffffffffffffffffffffffffff02191690556001820160009055600282016000905560038201600090555050806000039250505061210c565b848111611e705760009250505061210c565b8488600003820311611eb357846004600084815260200190815260200160002060010181905550611eaa81866135f490919063ffffffff16565b9250505061210c565b611ec988600003826135aa90919063ffffffff16565b6004600084815260200190815260200160002060010181905550879250505061210c565b600080600090505b878314611f3f57868110611f0857600080fd5b829150600460008481526020019081526020016000206003015492506000831415611f3257600080fd5b8080600101915050611ef5565b506000881315611f9c57600060046000848152602001908152602001600020600101549050611f77898261349490919063ffffffff16565b600460008581526020019081526020016000206001018190555088935050505061210c565b6000600460008481526020019081526020016000206001015490508860000381111580611fd75750848015611fd657508589600003820311155b5b1561207e576000821415611fea57600080fd5b6004600084815260200190815260200160002060030154600460008481526020019081526020016000206003018190555060046000848152602001908152602001600020600080820160006101000a81549073ffffffffffffffffffffffffffffffffffffffff0219169055600182016000905560028201600090556003820160009055505080600003935050505061210c565b858111612091576000935050505061210c565b85896000038203116120d5578560046000858152602001908152602001600020600101819055506120cb81876135f490919063ffffffff16565b935050505061210c565b6120eb89600003826135aa90919063ffffffff16565b60046000858152602001908152602001600020600101819055508893505050505b95945050505050565b600080859050600080600090505b88831461216d5786811061213657600080fd5b82915060046000848152602001908152602001600020600301549250600083141561216057600080fd5b8080600101915050612123565b5060008913156121ca576000600460008481526020019081526020016000206001015490506121a58a8261349490919063ffffffff16565b60046000858152602001908152602001600020600101819055508993505050506123d0565b600060046000848152602001908152602001600020600101549050896000038111158061220557508480156122045750858a600003820311155b5b156122e357600082141561221857600080fd5b6004600084815260200190815260200160002060030154600460008481526020019081526020016000206003018190555060046000848152602001908152602001600020600080820160006101000a81549073ffffffffffffffffffffffffffffffffffffffff021916905560018201600090556002820160009055600382016000905550506122d97fffffffffffffffffffffffffffffffffffffffffffffffffffffffffffffffff6122cb83614173565b61376090919063ffffffff16565b93505050506123d0565b8581116122f657600093505050506123d0565b61234361233461232f7fffffffffffffffffffffffffffffffffffffffffffffffffffffffffffffffff8d61376090919063ffffffff16565b6141f5565b8761349490919063ffffffff16565b81116123915785600460008581526020019081526020016000206001018190555061238761237082614173565b61237988614173565b6135f490919063ffffffff16565b93505050506123d0565b6123af6123a08b6000036141f5565b826135aa90919063ffffffff16565b60046000858152602001908152602001600020600101819055508993505050505b9695505050505050565b7f7fffffffffffffffffffffffffffffffffffffffffffffffffffffffffffffff821061240657600080fd5b60008060008573ffffffffffffffffffffffffffffffffffffffff1673ffffffffffffffffffffffffffffffffffffffff1681526020019081526020016000205490506000600160008673ffffffffffffffffffffffffffffffffffffffff1673ffffffffffffffffffffffffffffffffffffffff16815260200190815260200160002054905060006124e185600260008973ffffffffffffffffffffffffffffffffffffffff1673ffffffffffffffffffffffffffffffffffffffff1681526020019081526020016000205461349490919063ffffffff16565b90506000600360008873ffffffffffffffffffffffffffffffffffffffff1673ffffffffffffffffffffffffffffffffffffffff1681526020019081526020016000205490506125348484848489613682565b81600260008973ffffffffffffffffffffffffffffffffffffffff1673ffffffffffffffffffffffffffffffffffffffff1681526020019081526020016000208190555050505050505050565b7f7fffffffffffffffffffffffffffffffffffffffffffffffffffffffffffffff81106125ad57600080fd5b6000600260008473ffffffffffffffffffffffffffffffffffffffff1673ffffffffffffffffffffffffffffffffffffffff16815260200190815260200160002054905061260482826135aa90919063ffffffff16565b600260008573ffffffffffffffffffffffffffffffffffffffff1673ffffffffffffffffffffffffffffffffffffffff16815260200190815260200160002081905550505050565b600080602c60069054906101000a900460ff1690506000600281111561266e57fe5b81600281111561267a57fe5b141561268a57600091505061272d565b6001600281111561269757fe5b8160028111156126a357fe5b14156126b457602d5491505061272d565b60006126e3846126d5670de0b6b3a76400008861400f90919063ffffffff16565b61409590919063ffffffff16565b9050670de0b6b3a764000081116126f957600080fd5b612728670de0b6b3a764000061271a83602d5461400f90919063ffffffff16565b61409590919063ffffffff16565b925050505b92915050565b60008060075490506000811415612808578360078190555060405180608001604052803373ffffffffffffffffffffffffffffffffffffffff16815260200187815260200186815260200160008152506005600086815260200190815260200160002060008201518160000160006101000a81548173ffffffffffffffffffffffffffffffffffffffff021916908373ffffffffffffffffffffffffffffffffffffffff1602179055506020820151816001015560408201518160020155606082015181600301559050506000915050612ad7565b600060056000838152602001908152602001600020905080600201548611156128ef578460078190555060405180608001604052803373ffffffffffffffffffffffffffffffffffffffff168152602001888152602001878152602001838152506005600087815260200190815260200160002060008201518160000160006101000a81548173ffffffffffffffffffffffffffffffffffffffff021916908373ffffffffffffffffffffffffffffffffffffffff160217905550602082015181600101556040820151816002015560608201518160030155905050600092505050612ad7565b6000829350816003015492505b6000831115612a14576000851161291257600080fd5b81905060056000848152602001908152602001600020915081600201548711156129fc5785816003018190555060405180608001604052803373ffffffffffffffffffffffffffffffffffffffff168152602001898152602001888152602001848152506005600088815260200190815260200160002060008201518160000160006101000a81548173ffffffffffffffffffffffffffffffffffffffff021916908373ffffffffffffffffffffffffffffffffffffffff160217905550602082015181600101556040820151816002015560608201518160030155905050839350505050612ad7565b829350816003015492508480600190039550506128fc565b85826003018190555060405180608001604052803373ffffffffffffffffffffffffffffffffffffffff16815260200189815260200188815260200160008152506005600088815260200190815260200160002060008201518160000160006101000a81548173ffffffffffffffffffffffffffffffffffffffff021916908373ffffffffffffffffffffffffffffffffffffffff1602179055506020820151816001015560408201518160020155606082015181600301559050508393505050505b949350505050565b600080849050600060056000838152602001908152602001600020905060008082600201549050808911158015612b165750600081115b612b1f57600080fd5b839450826003015493505b6000841115612c435760008611612b4057600080fd5b8291506005600085815260200190815260200160002092508260020154891115612c2b5786826003018190555060405180608001604052803373ffffffffffffffffffffffffffffffffffffffff1681526020018b81526020018a8152602001858152506005600089815260200190815260200160002060008201518160000160006101000a81548173ffffffffffffffffffffffffffffffffffffffff021916908373ffffffffffffffffffffffffffffffffffffffff16021790555060208201518160010155604082015181600201556060820151816003015590505084945050505050612d07565b83945082600301549350858060019003965050612b2a565b86836003018190555060405180608001604052803373ffffffffffffffffffffffffffffffffffffffff1681526020018b81526020018a815260200160008152506005600089815260200190815260200160002060008201518160000160006101000a81548173ffffffffffffffffffffffffffffffffffffffff021916908373ffffffffffffffffffffffffffffffffffffffff160217905550602082015181600101556040820151816002015560608201518160030155905050849450505050505b95945050505050565b7f7fffffffffffffffffffffffffffffffffffffffffffffffffffffffffffffff8210612d3c57600080fd5b60008060008573ffffffffffffffffffffffffffffffffffffffff1673ffffffffffffffffffffffffffffffffffffffff1681526020019081526020016000205490506000600160008673ffffffffffffffffffffffffffffffffffffffff1673ffffffffffffffffffffffffffffffffffffffff1681526020019081526020016000205490506000600260008773ffffffffffffffffffffffffffffffffffffffff1673ffffffffffffffffffffffffffffffffffffffff1681526020019081526020016000205490506000612e5b86600360008a73ffffffffffffffffffffffffffffffffffffffff1673ffffffffffffffffffffffffffffffffffffffff1681526020019081526020016000205461349490919063ffffffff16565b9050612e6a8484848489613682565b80600360008973ffffffffffffffffffffffffffffffffffffffff1673ffffffffffffffffffffffffffffffffffffffff1681526020019081526020016000208190555050505050505050565b60008060065490506000811415612f8c578360068190555060405180608001604052803373ffffffffffffffffffffffffffffffffffffffff16815260200187815260200186815260200160008152506004600086815260200190815260200160002060008201518160000160006101000a81548173ffffffffffffffffffffffffffffffffffffffff021916908373ffffffffffffffffffffffffffffffffffffffff160217905550602082015181600101556040820151816002015560608201518160030155905050600091505061325b565b60006004600083815260200190815260200160002090508060020154861015613073578460068190555060405180608001604052803373ffffffffffffffffffffffffffffffffffffffff168152602001888152602001878152602001838152506004600087815260200190815260200160002060008201518160000160006101000a81548173ffffffffffffffffffffffffffffffffffffffff021916908373ffffffffffffffffffffffffffffffffffffffff16021790555060208201518160010155604082015181600201556060820151816003015590505060009250505061325b565b6000829350816003015492505b6000831115613198576000851161309657600080fd5b81905060046000848152602001908152602001600020915081600201548710156131805785816003018190555060405180608001604052803373ffffffffffffffffffffffffffffffffffffffff168152602001898152602001888152602001848152506004600088815260200190815260200160002060008201518160000160006101000a81548173ffffffffffffffffffffffffffffffffffffffff021916908373ffffffffffffffffffffffffffffffffffffffff16021790555060208201518160010155604082015181600201556060820151816003015590505083935050505061325b565b82935081600301549250848060019003955050613080565b85826003018190555060405180608001604052803373ffffffffffffffffffffffffffffffffffffffff16815260200189815260200188815260200160008152506004600088815260200190815260200160002060008201518160000160006101000a81548173ffffffffffffffffffffffffffffffffffffffff021916908373ffffffffffffffffffffffffffffffffffffffff1602179055506020820151816001015560408201518160020155606082015181600301559050508393505050505b949350505050565b60008084905060006004600083815260200190815260200160002090506000808260020154905080891015801561329a5750600081115b6132a357600080fd5b839450826003015493505b60008411156133c757600086116132c457600080fd5b82915060046000858152602001908152602001600020925082600201548910156133af5786826003018190555060405180608001604052803373ffffffffffffffffffffffffffffffffffffffff1681526020018b81526020018a8152602001858152506004600089815260200190815260200160002060008201518160000160006101000a81548173ffffffffffffffffffffffffffffffffffffffff021916908373ffffffffffffffffffffffffffffffffffffffff1602179055506020820151816001015560408201518160020155606082015181600301559050508494505050505061348b565b839450826003015493508580600190039650506132ae565b86836003018190555060405180608001604052803373ffffffffffffffffffffffffffffffffffffffff1681526020018b81526020018a815260200160008152506004600089815260200190815260200160002060008201518160000160006101000a81548173ffffffffffffffffffffffffffffffffffffffff021916908373ffffffffffffffffffffffffffffffffffffffff160217905550602082015181600101556040820151816002015560608201518160030155905050849450505050505b95945050505050565b600080828401905083811015613512576040517f08c379a000000000000000000000000000000000000000000000000000000000815260040180806020018281038252601b8152602001807f536166654d6174683a206164646974696f6e206f766572666c6f77000000000081525060200191505060405180910390fd5b8091505092915050565b6000808284019050600083121580156135355750838112155b8061354b575060008312801561354a57508381125b5b6135a0576040517f08c379a00000000000000000000000000000000000000000000000000000000081526004018080602001828103825260218152602001806145a96021913960400191505060405180910390fd5b8091505092915050565b60006135ec83836040518060400160405280601e81526020017f536166654d6174683a207375627472616374696f6e206f766572666c6f770000815250614277565b905092915050565b60008082840390506000831215801561360d5750838113155b80613623575060008312801561362257508381135b5b613678576040517f08c379a000000000000000000000000000000000000000000000000000000000815260040180806020018281038252602481526020018061463a6024913960400191505060405180910390fd5b8091505092915050565b7f7fffffffffffffffffffffffffffffffffffffffffffffffffffffffffffffff8211156136af57600080fd5b6000670de0b6b3a76400006136cd838661400f90919063ffffffff16565b816136d457fe5b04905060006136ec85886135aa90919063ffffffff16565b9050600061371585613707858a61351c90919063ffffffff16565b6135f490919063ffffffff16565b905060008112158061374d575080600003670de0b6b3a7640000613742868561400f90919063ffffffff16565b8161374957fe5b0410155b61375657600080fd5b5050505050505050565b6000808314156137735760009050613884565b7fffffffffffffffffffffffffffffffffffffffffffffffffffffffffffffffff831480156137c157507f800000000000000000000000000000000000000000000000000000000000000082145b15613817576040517f08c379a00000000000000000000000000000000000000000000000000000000081526004018080602001828103825260278152602001806146136027913960400191505060405180910390fd5b600082840290508284828161382857fe5b051461387f576040517f08c379a00000000000000000000000000000000000000000000000000000000081526004018080602001828103825260278152602001806146136027913960400191505060405180910390fd5b809150505b92915050565b600080600754905085811415613a435760008713156138f5576000600560008381526020019081526020016000206001015490506138d1888261349490919063ffffffff16565b60056000848152602001908152602001600020600101819055508792505050613c47565b6000600560008381526020019081526020016000206001015490508760000381111580613930575083801561392f57508488600003820311155b5b156139b457600560008381526020019081526020016000206003015460078190555060056000838152602001908152602001600020600080820160006101000a81549073ffffffffffffffffffffffffffffffffffffffff021916905560018201600090556002820160009055600382016000905550508060000392505050613c47565b8481116139c657600092505050613c47565b8488600003820311613a0957846005600084815260200190815260200160002060010181905550613a0081866135f490919063ffffffff16565b92505050613c47565b613a1f88600003826135aa90919063ffffffff16565b60056000848152602001908152602001600020600101819055508792505050613c47565b600080600090505b878314613a9557868110613a5e57600080fd5b829150600560008481526020019081526020016000206003015492506000831415613a8857600080fd5b8080600101915050613a4b565b506000600560008481526020019081526020016000206001015490506000891315613af257613acd898261349490919063ffffffff16565b6005600085815260200190815260200160002060010181905550889350505050613c47565b8860000381111580613b125750848015613b1157508589600003820311155b5b15613bb9576000821415613b2557600080fd5b6005600084815260200190815260200160002060030154600560008481526020019081526020016000206003018190555060056000848152602001908152602001600020600080820160006101000a81549073ffffffffffffffffffffffffffffffffffffffff02191690556001820160009055600282016000905560038201600090555050806000039350505050613c47565b858111613bcc5760009350505050613c47565b8589600003820311613c1057856005600085815260200190815260200160002060010181905550613c0681876135f490919063ffffffff16565b9350505050613c47565b613c2689600003826135aa90919063ffffffff16565b60056000858152602001908152602001600020600101819055508893505050505b95945050505050565b600080859050600080600090505b888314613ca857868110613c7157600080fd5b829150600560008481526020019081526020016000206003015492506000831415613c9b57600080fd5b8080600101915050613c5e565b506000891315613d0557600060056000848152602001908152602001600020600101549050613ce08a8261349490919063ffffffff16565b6005600085815260200190815260200160002060010181905550899350505050613f3a565b6000600560008481526020019081526020016000206001015490508960000381111580613d405750848015613d3f5750858a600003820311155b5b15613e1e576000821415613d5357600080fd5b6005600084815260200190815260200160002060030154600560008481526020019081526020016000206003018190555060056000848152602001908152602001600020600080820160006101000a81549073ffffffffffffffffffffffffffffffffffffffff02191690556001820160009055600282016000905560038201600090555050613e147fffffffffffffffffffffffffffffffffffffffffffffffffffffffffffffffff613e0683614173565b61376090919063ffffffff16565b9350505050613f3a565b858111613e315760009350505050613f3a565b613e7e613e6f613e6a7fffffffffffffffffffffffffffffffffffffffffffffffffffffffffffffffff8d61376090919063ffffffff16565b6141f5565b8761349490919063ffffffff16565b8111613ecc57856005600085815260200190815260200160002060010181905550613ec2613eab82614173565b613eb488614173565b6135f490919063ffffffff16565b9350505050613f3a565b613f19613f0a613f057fffffffffffffffffffffffffffffffffffffffffffffffffffffffffffffffff8d61376090919063ffffffff16565b6141f5565b826135aa90919063ffffffff16565b60056000858152602001908152602001600020600101819055508993505050505b9695505050505050565b7f7fffffffffffffffffffffffffffffffffffffffffffffffffffffffffffffff8110613f7057600080fd5b6000613fc482600360008673ffffffffffffffffffffffffffffffffffffffff1673ffffffffffffffffffffffffffffffffffffffff168152602001908152602001600020546135aa90919063ffffffff16565b905080600360008573ffffffffffffffffffffffffffffffffffffffff1673ffffffffffffffffffffffffffffffffffffffff16815260200190815260200160002081905550505050565b600080831415614022576000905061408f565b600082840290508284828161403357fe5b041461408a576040517f08c379a00000000000000000000000000000000000000000000000000000000081526004018080602001828103825260218152602001806145f26021913960400191505060405180910390fd5b809150505b92915050565b60006140d783836040518060400160405280601a81526020017f536166654d6174683a206469766973696f6e206279207a65726f000000000000815250614337565b905092915050565b600080604083600f0b85600f0b02901d90507fffffffffffffffffffffffffffffffff80000000000000000000000000000000600f0b811215801561413757506f7fffffffffffffffffffffffffffffff600f0b8113155b61414057600080fd5b8091505092915050565b60008082600f0b121561415c57600080fd5b61416c604083600f0b901b6143fd565b9050919050565b60007fffffffffffffffffffffffffffffffffffffffffffffffffffffffffffffffff82915081136141f0576040517f08c379a00000000000000000000000000000000000000000000000000000000081526004018080602001828103825260288152602001806145ca6028913960400191505060405180910390fd5b919050565b60007fffffffffffffffffffffffffffffffffffffffffffffffffffffffffffffffff821361426f576040517f08c379a000000000000000000000000000000000000000000000000000000000815260040180806020018281038252602e81526020018061457b602e913960400191505060405180910390fd5b819050919050565b6000838311158290614324576040517f08c379a00000000000000000000000000000000000000000000000000000000081526004018080602001828103825283818151815260200191508051906020019080838360005b838110156142e95780820151818401526020810190506142ce565b50505050905090810190601f1680156143165780820380516001836020036101000a031916815260200191505b509250505060405180910390fd5b5060008385039050809150509392505050565b600080831182906143e3576040517f08c379a00000000000000000000000000000000000000000000000000000000081526004018080602001828103825283818151815260200191508051906020019080838360005b838110156143a857808201518184015260208101905061438d565b50505050905090810190601f1680156143d55780820380516001836020036101000a031916815260200191505b509250505060405180910390fd5b5060008385816143ef57fe5b049050809150509392505050565b6000808214156144105760009050614575565b6000829050600060019050700100000000000000000000000000000000821061444257608082901c9150604081901b90505b68010000000000000000821061446157604082901c9150602081901b90505b640100000000821061447c57602082901c9150601081901b90505b62010000821061449557601082901c9150600881901b90505b61010082106144ad57600882901c9150600481901b90505b601082106144c457600482901c9150600281901b90505b600882106144d457600181901b90505b60018185816144df57fe5b048201901c905060018185816144f157fe5b048201901c9050600181858161450357fe5b048201901c9050600181858161451557fe5b048201901c9050600181858161452757fe5b048201901c9050600181858161453957fe5b048201901c9050600181858161454b57fe5b048201901c9050600081858161455d57fe5b04905080821061456d578061456f565b815b93505050505b91905056fe5369676e6564536166654d6174683a20696e76616c696420696e7420746f2075696e7420636f6e76657273696f6e5369676e6564536166654d6174683a206164646974696f6e206f766572666c6f77536166654d6174683a20696e76616c69642075696e7420746f20696e7420636f6e76657273696f6e536166654d6174683a206d756c7469706c69636174696f6e206f766572666c6f775369676e6564536166654d6174683a206d756c7469706c69636174696f6e206f766572666c6f775369676e6564536166654d6174683a207375627472616374696f6e206f766572666c6f77a2646970667358221220fcdb9d2686f4462941b216a6c1b88f230c0d30526518719e446558f4cf60c1ca64736f6c63430006080033",
  "immutableReferences": {},
  "source": "// SPDX-License-Identifier: MIT\npragma solidity >=0.6.8 <0.7.0;\n\nimport \"../interfaces/IWrapper.sol\";\nimport \"../interfaces/IFixCapitalPool.sol\";\nimport \"../libraries/SafeMath.sol\";\nimport \"../libraries/SignedSafeMath.sol\";\nimport \"../libraries/ABDKMath64x64.sol\";\nimport \"../libraries/BigMath.sol\";\nimport \"./OrderbookDelegateParent.sol\";\n\ncontract OrderbookDelegate3 is OrderbookDelegateParent {\n\n\tusing SafeMath for uint256;\n\tusing SignedSafeMath for int256;\n\tusing ABDKMath64x64 for int128;\n\n\t/*\n\t\t@Description: withdraw ZCB & YT from the orderbook, pass a yiel and bond amount\n\n\t\t@param uint _amountYield: the yield amount of the ZCB YT position to withdraw\n\t\t@param int _amountBond: the bond amount of the ZCB YT position to withdraw\n\t*/\n\tfunction withdraw(uint _amountYield, int _amountBond) external {\n\t\trequire(_amountYield <= uint(type(int256).max));\n\t\tIFixCapitalPool fcp = internalFCP;\n\t\tbool inPayoutPhase = fcp.inPayoutPhase();\n\t\tuint YD = internalYieldDeposited[msg.sender];\n\t\tint BD = internalBondDeposited[msg.sender];\n\t\tuint wrappedAmtLockedYT = inPayoutPhase ? 0 : internalLockedYT[msg.sender];\n\t\tuint _lockedZCB = inPayoutPhase ? 0 : internalLockedZCB[msg.sender];\n\t\tuint ratio = internalWrapper.WrappedAmtToUnitAmt_RoundDown(1 ether);\n\n\t\tuint resultantYD = YD.sub(_amountYield);\n\t\tint resultantBD = BD.sub(_amountBond);\n\n\t\trequireValidCollateral(resultantYD, resultantBD, wrappedAmtLockedYT, _lockedZCB, ratio);\n\t\tfcp.transferPosition(msg.sender, _amountYield, _amountBond);\n\t\tint yieldChange = -int(_amountYield);\n\t\tint bondChange = _amountBond.mul(-1);\n\t\tinternalWrapper.editSubAccountPosition(false, msg.sender, address(fcp), yieldChange, bondChange);\n\n\t\tinternalYieldDeposited[msg.sender] = resultantYD;\n\t\tinternalBondDeposited[msg.sender] = resultantBD;\n\t}\n\n\t/*\n\t\t@Description: deposit ZCB & YT into the orderbook, pass a yield and bond amount\n\n\t\t@param uint _amountYield: the yield amount of the ZCB YT position to deposit\n\t\t@param int _amoutBond: the bond amount of the ZCB YT position to deposit\n\t*/\n\tfunction deposit(uint _amountYield, int _amountBond) external {\n\t\trequire(_amountYield <= uint(type(int256).max));\n\t\tIFixCapitalPool fcp = internalFCP; //gas savings\n\t\treqPriorToPayoutPhase(address(fcp));\n\t\tfcp.transferPositionFrom(msg.sender, address(this), _amountYield, _amountBond);\n\t\tinternalWrapper.editSubAccountPosition(false, msg.sender, address(fcp), int(_amountYield), _amountBond);\n\t\tinternalYieldDeposited[msg.sender] = internalYieldDeposited[msg.sender].add(_amountYield);\n\t\tinternalBondDeposited[msg.sender] = internalBondDeposited[msg.sender].add(_amountBond);\n\t}\n\n\t/*\n\t\t@Description: force claim sub account rewards where distribution account is the orderbook and sub acct is msg.sender\n\t*/\n\tfunction forceClaimSubAccountRewards() external {\n\t\tIFixCapitalPool fcp = internalFCP;\n\t\tIWrapper wrp = internalWrapper;\n\t\twrp.forceClaimSubAccountRewards(true, address(fcp), address(this), address(fcp));\n\t\twrp.forceClaimSubAccountRewards(false, address(this), msg.sender, address(fcp));\n\t}\n\n\t//---------------i-n-t-e-r-n-a-l---m-o-d-i-f-y---o-r-d-e-r-b-o-o-k--------------------\n\n\t/*\n\t\t@Description: add a ZCB limit sell order to the linked list\n\n\t\t@param uint _amount: the amount of ZCB to sell in the order\n\t\t@param uint _maturityConversionRate: the MCR of the limit sell\n\t\t@param uint _newID: the ID of the new order\n\t\t@param uint _maxSteps: the maximum iterations to find the correct insertion point\n\t\t\tif _maxSteps is exceeded the tx will revert\n\n\t\t@return uint prevID: the ID of the order directly previous to the new order,\n\t\t\tif the new order is the head this value will return 0\n\t*/\n \tfunction insertFromHead_SellZCB(uint _amount, uint _maturityConversionRate, uint _newID, uint _maxSteps) internal returns(uint prevID) {\n\t\tuint currentID = internalHeadZCBSellID;\n\t\tif (currentID == 0) {\n\t\t\tinternalHeadZCBSellID = _newID;\n\t\t\tinternalZCBSells[_newID] = LimitSellZCB(msg.sender, _amount, _maturityConversionRate, 0);\n\t\t\treturn 0;\n\t\t}\n\t\tLimitSellZCB storage currentOrder = internalZCBSells[currentID];\n\t\tif (_maturityConversionRate > currentOrder.maturityConversionRate) {\n\t\t\tinternalHeadZCBSellID = _newID;\n\t\t\tinternalZCBSells[_newID] = LimitSellZCB(msg.sender, _amount, _maturityConversionRate, currentID);\n\t\t\treturn 0;\n\t\t}\n\t\tLimitSellZCB storage prevOrder; \n\t\tprevID = currentID;\n\t\tcurrentID = currentOrder.nextID;\n\t\tfor (; currentID > 0; _maxSteps--) {\n\t\t\trequire(_maxSteps > 0);\n\t\t\tprevOrder = currentOrder;\n\t\t\tcurrentOrder = internalZCBSells[currentID];\n\t\t\tif (_maturityConversionRate > currentOrder.maturityConversionRate) {\n\t\t\t\tprevOrder.nextID = _newID;\n\t\t\t\tinternalZCBSells[_newID] = LimitSellZCB(msg.sender, _amount, _maturityConversionRate, currentID);\n\t\t\t\treturn prevID;\n\t\t\t}\n\t\t\tprevID = currentID;\n\t\t\tcurrentID = currentOrder.nextID;\n\t\t}\n\t\tcurrentOrder.nextID = _newID;\n\t\tinternalZCBSells[_newID] = LimitSellZCB(msg.sender, _amount, _maturityConversionRate, 0);\n\t\treturn prevID;\n\t}\n\n\t/*\n\t\t@Description: add a YT limit sell order to the linked list\n\n\t\t@param uint _amount: the amount of YT to sell in the order\n\t\t@param uint _maturityConversionRate: the MCR of the limit sell\n\t\t@param uint _newID: the ID of the new order\n\t\t@param uint _maxSteps: the maximum iterations to find the correct insertion point\n\t\t\tif _maxSteps is exceeded the tx will revert\n\n\t\t@return uint prevID: the ID of the order directly previous to the new order,\n\t\t\tif the new order is the head this value will return 0\n\t*/\n\tfunction insertFromHead_SellYT(uint _amount, uint _maturityConversionRate, uint _newID, uint _maxSteps) internal returns(uint prevID) {\n\t\tuint currentID = internalHeadYTSellID;\n\t\tif (currentID == 0) {\n\t\t\tinternalHeadYTSellID = _newID;\n\t\t\tinternalYTSells[_newID] = LimitSellYT(msg.sender, _amount, _maturityConversionRate, 0);\n\t\t\treturn 0;\n\t\t}\n\t\tLimitSellYT storage currentOrder = internalYTSells[currentID];\n\t\tif (_maturityConversionRate < currentOrder.maturityConversionRate) {\n\t\t\tinternalHeadYTSellID = _newID;\n\t\t\tinternalYTSells[_newID] = LimitSellYT(msg.sender, _amount, _maturityConversionRate, currentID);\n\t\t\treturn 0;\n\t\t}\n\t\tLimitSellYT storage prevOrder; \n\t\tprevID = currentID;\n\t\tcurrentID = currentOrder.nextID;\n\t\tfor (; currentID > 0; _maxSteps--) {\n\t\t\trequire(_maxSteps > 0);\n\t\t\tprevOrder = currentOrder;\n\t\t\tcurrentOrder = internalYTSells[currentID];\n\t\t\tif (_maturityConversionRate < currentOrder.maturityConversionRate) {\n\t\t\t\tprevOrder.nextID = _newID;\n\t\t\t\tinternalYTSells[_newID] = LimitSellYT(msg.sender, _amount, _maturityConversionRate, currentID);\n\t\t\t\treturn prevID;\n\t\t\t}\n\t\t\tprevID = currentID;\n\t\t\tcurrentID = currentOrder.nextID;\n\t\t}\n\t\tcurrentOrder.nextID = _newID;\n\t\tinternalYTSells[_newID] = LimitSellYT(msg.sender, _amount, _maturityConversionRate, 0);\n\t\treturn prevID;\n\t}\n\n\t/*\n\t\t@Description: add a ZCB limit sell to the linked list, start search for insertion point with hint\n\n\t\t@param uint _amount: the amount of ZCB to sell in the order\n\t\t@param uint _maturityConversionRate: the MCR of the limit sell\n\t\t@param uint _hintID: ID of an order that is known to be previous to and near the target insertion point, helps gas efficiency\n\t\t@param uint _newID: the ID of the new order\n\t\t@param uint _maxSteps: the maximum iterations to find the correct insertion point\n\t\t\tif _maxSteps is exceeded the tx will revert\n\n\t\t@return uint prevID: the ID of the order directly previous to the new order,\n\t*/\n\tfunction insertWithHint_SellZCB(uint _amount, uint _maturityConversionRate, uint _hintID, uint _newID, uint _maxSteps) internal returns(uint prevID) {\n\t\tuint currentID = _hintID;\n\t\tLimitSellZCB storage currentOrder = internalZCBSells[currentID];\n\t\tLimitSellZCB storage prevOrder;\n\t\tuint startMCR = currentOrder.maturityConversionRate;\n\t\trequire(_maturityConversionRate <= startMCR && startMCR > 0);\n\t\tprevID = currentID;\n\t\tcurrentID = currentOrder.nextID;\n\t\tfor (; currentID > 0; _maxSteps--) {\n\t\t\trequire(_maxSteps > 0);\n\t\t\tprevOrder = currentOrder;\n\t\t\tcurrentOrder = internalZCBSells[currentID];\n\t\t\tif (_maturityConversionRate > currentOrder.maturityConversionRate) {\n\t\t\t\tprevOrder.nextID = _newID;\n\t\t\t\tinternalZCBSells[_newID] = LimitSellZCB(msg.sender, _amount, _maturityConversionRate, currentID);\n\t\t\t\treturn prevID;\n\t\t\t}\n\t\t\tprevID = currentID;\n\t\t\tcurrentID = currentOrder.nextID;\n\t\t}\n\t\tcurrentOrder.nextID = _newID;\n\t\tinternalZCBSells[_newID] = LimitSellZCB(msg.sender, _amount, _maturityConversionRate, 0);\n\t\treturn prevID;\n\t}\n\n\t/*\n\t\t@Description: add a YT limit sell to the linked list, start search for insertion point with hint\n\n\t\t@param uint _amount: the amount of YT to sell in the order\n\t\t@param uint _maturityConversionRate: the MCR of the limit sell\n\t\t@param uint _hintID: ID of an order that is known to be previous to and near the target insertion point, helps gas efficiency\n\t\t@param uint _newID: the ID of the new order\n\t\t@param uint _maxSteps: the maximum iterations to find the correct insertion point\n\t\t\tif _maxSteps is exceeded the tx will revert\n\n\t\t@return uint prevID: the ID of the order directly previous to the new order,\n\t\t\tif the new order is the head this value will return 0\n\t*/\n\tfunction insertWithHint_SellYT(uint _amount, uint _maturityConversionRate, uint _hintID, uint _newID, uint _maxSteps) internal returns(uint prevID) {\n\t\tuint currentID = _hintID;\n\t\tLimitSellYT storage currentOrder = internalYTSells[currentID];\n\t\tLimitSellYT storage prevOrder;\n\t\tuint startMCR = currentOrder.maturityConversionRate;\n\t\trequire(_maturityConversionRate >= startMCR && startMCR > 0);\n\t\tprevID = currentID;\n\t\tcurrentID = currentOrder.nextID;\n\t\tfor (; currentID > 0; _maxSteps--) {\n\t\t\trequire(_maxSteps > 0);\n\t\t\tprevOrder = currentOrder;\n\t\t\tcurrentOrder = internalYTSells[currentID];\n\t\t\tif (_maturityConversionRate < currentOrder.maturityConversionRate) {\n\t\t\t\tprevOrder.nextID = _newID;\n\t\t\t\tinternalYTSells[_newID] = LimitSellYT(msg.sender, _amount, _maturityConversionRate, currentID);\n\t\t\t\treturn prevID;\n\t\t\t}\n\t\t\tprevID = currentID;\n\t\t\tcurrentID = currentOrder.nextID;\n\t\t}\n\t\tcurrentOrder.nextID = _newID;\n\t\tinternalYTSells[_newID] = LimitSellYT(msg.sender, _amount, _maturityConversionRate, 0);\n\t\treturn prevID;\n\t}\n\n\t/*\n\t\t@Description: modify a ZCB limit sell order start searching for it from the head\n\n\t\t@param int _amount: the amount by which to change the order amount\n\t\t@param uint _targetID: the ID of the order to edit\n\t\t@param uint _maxSteps: the maximum iterations to find the correct insertion point, if _maxSteps is exceeded the tx will revert\n\t\t@param uint _minimumAmount: the minimum amount for a ZCB sell order\n\t\t@param bool _removeBelowMin: if true is passed the order will be entirely cancelled if the resulting change\n\t\t\tin order amount results in the order amount being below the minimum amount\n\n\t\t@return int change: the resultant change in the order amount from prior to after execution of this function\n\t*/\n\tfunction modifyFromHead_SellZCB(int _amount, uint _targetID, uint _maxSteps, uint _minimumAmount, bool _removeBelowMin) internal returns (int change) {\n\t\tuint currentID = internalHeadZCBSellID;\n\t\tif (currentID == _targetID) {\n\t\t\tif (_amount > 0) {\n\t\t\t\tuint prevAmt = internalZCBSells[currentID].amount;\n\t\t\t\tinternalZCBSells[currentID].amount = prevAmt.add(uint(_amount));\n\t\t\t\treturn _amount;\n\t\t\t}\n\t\t\telse {\n\t\t\t\tuint prevAmt = internalZCBSells[currentID].amount;\n\t\t\t\tif (\n\t\t\t\t\tprevAmt <= uint(-_amount) ||\n\t\t\t\t\t(_removeBelowMin && (prevAmt - uint(-_amount) <= _minimumAmount))\n\t\t\t\t) {\n\t\t\t\t\t//delete order\n\t\t\t\t\tinternalHeadZCBSellID = internalZCBSells[currentID].nextID;\n\t\t\t\t\tdelete internalZCBSells[currentID];\n\t\t\t\t\treturn -int(prevAmt);\n\t\t\t\t}\n\t\t\t\telse {\n\t\t\t\t\tif (prevAmt <= _minimumAmount) {\n\t\t\t\t\t\treturn 0;\n\t\t\t\t\t}\n\t\t\t\t\telse if (prevAmt - uint(-_amount) <= _minimumAmount) {\n\t\t\t\t\t\tinternalZCBSells[currentID].amount = _minimumAmount;\n\t\t\t\t\t\treturn int(_minimumAmount).sub(int(prevAmt));\n\t\t\t\t\t}\n\t\t\t\t\tinternalZCBSells[currentID].amount = prevAmt.sub(uint(-_amount));\n\t\t\t\t\treturn _amount;\n\t\t\t\t}\n\t\t\t}\n\t\t}\n\n\t\tuint prevID;\n\t\tfor (uint i = 0; currentID != _targetID; i++) {\n\t\t\trequire(i < _maxSteps);\n\t\t\tprevID = currentID;\n\t\t\tcurrentID = internalZCBSells[currentID].nextID;\n\t\t\trequire(currentID != 0);\n\t\t}\n\n\t\tuint prevAmt = internalZCBSells[currentID].amount;\n\t\tif (_amount > 0) {\n\t\t\tinternalZCBSells[currentID].amount = prevAmt.add(uint(_amount));\n\t\t\treturn _amount;\n\t\t}\n\t\telse {\n\t\t\tif (\n\t\t\t\tprevAmt <= uint(-_amount) ||\n\t\t\t\t(_removeBelowMin && (prevAmt - uint(-_amount) <= _minimumAmount))\n\t\t\t) {\n\t\t\t\t//delete order\n\t\t\t\trequire(prevID != 0); //prevID must be found in order to delete order\n\t\t\t\tinternalZCBSells[prevID].nextID = internalZCBSells[currentID].nextID;\n\t\t\t\tdelete internalZCBSells[currentID];\n\t\t\t\treturn -int(prevAmt);\n\t\t\t}\n\t\t\telse {\n\t\t\t\tif (prevAmt <= _minimumAmount) {\n\t\t\t\t\treturn 0;\n\t\t\t\t}\n\t\t\t\telse if (prevAmt - uint(-_amount) <= _minimumAmount) {\n\t\t\t\t\tinternalZCBSells[currentID].amount = _minimumAmount;\n\t\t\t\t\treturn int(_minimumAmount).sub(int(prevAmt));\n\t\t\t\t}\n\t\t\t\tinternalZCBSells[currentID].amount = prevAmt.sub(uint(-_amount));\n\t\t\t\treturn _amount;\n\t\t\t}\n\t\t}\n\t}\n\n\t/*\n\t\t@Description: modify a YT limit sell order start searching for it from the head\n\n\t\t@param int _amount: the amount by which to change the order amount\n\t\t@param uint _targetID: the ID of the order to edit\n\t\t@param uint _maxSteps: the maximum iterations to find the correct insertion point, if _maxSteps is exceeded the tx will revert\n\t\t@param uint _minimumAmount: the minimum amount for a YT sell order\n\t\t@param bool _removeBelowMin: if true is passed the order will be entirely cancelled if the resulting change\n\t\t\tin order amount results in the order amount being below the minimum amount\n\n\t\t@return int change: the resultant change in the order amount from prior to after execution of this function\n\t*/\n\tfunction modifyFromHead_SellYT(int _amount, uint _targetID, uint _maxSteps, uint _minimumAmount, bool _removeBelowMin) internal returns (int change) {\n\t\tuint currentID = internalHeadYTSellID;\n\t\tif (currentID == _targetID) {\n\t\t\tif (_amount > 0) {\n\t\t\t\tuint prevAmt = internalYTSells[currentID].amount;\n\t\t\t\tinternalYTSells[currentID].amount = prevAmt.add(uint(_amount));\n\t\t\t\treturn _amount;\n\t\t\t}\n\t\t\telse {\n\t\t\t\tuint prevAmt = internalYTSells[currentID].amount;\n\t\t\t\tif (\n\t\t\t\t\tprevAmt <= uint(-_amount) ||\n\t\t\t\t\t(_removeBelowMin && (prevAmt - uint(-_amount) <= _minimumAmount))\n\t\t\t\t) {\n\t\t\t\t\t//delete order\n\t\t\t\t\tinternalHeadYTSellID = internalYTSells[currentID].nextID;\n\t\t\t\t\tdelete internalYTSells[currentID];\n\t\t\t\t\treturn -int(prevAmt);\n\t\t\t\t}\n\t\t\t\telse {\n\t\t\t\t\tif (prevAmt <= _minimumAmount) {\n\t\t\t\t\t\treturn 0;\n\t\t\t\t\t}\n\t\t\t\t\telse if (prevAmt - uint(-_amount) <= _minimumAmount) {\n\t\t\t\t\t\tinternalYTSells[currentID].amount = _minimumAmount;\n\t\t\t\t\t\treturn int(_minimumAmount).sub(int(prevAmt));\n\t\t\t\t\t}\n\t\t\t\t\tinternalYTSells[currentID].amount = prevAmt.sub(uint(-_amount));\n\t\t\t\t\treturn _amount;\n\t\t\t\t}\n\t\t\t}\n\t\t}\n\n\t\tuint prevID;\n\t\tfor (uint i = 0; currentID != _targetID; i++) {\n\t\t\trequire(i < _maxSteps);\n\t\t\tprevID = currentID;\n\t\t\tcurrentID = internalYTSells[currentID].nextID;\n\t\t\trequire(currentID != 0);\n\t\t}\n\n\t\tif (_amount > 0) {\n\t\t\tuint prevAmt = internalYTSells[currentID].amount;\n\t\t\tinternalYTSells[currentID].amount = prevAmt.add(uint(_amount));\n\t\t\treturn _amount;\n\t\t}\n\t\telse {\n\t\t\tuint prevAmt = internalYTSells[currentID].amount;\n\t\t\tif (\n\t\t\t\tprevAmt <= uint(-_amount) ||\n\t\t\t\t(_removeBelowMin && (prevAmt - uint(-_amount) <= _minimumAmount))\n\t\t\t) {\n\t\t\t\t//delete order\n\t\t\t\trequire(prevID != 0); //prevID must be found in order to delete order\n\t\t\t\tinternalYTSells[prevID].nextID = internalYTSells[currentID].nextID;\n\t\t\t\tdelete internalYTSells[currentID];\n\t\t\t\treturn -int(prevAmt);\n\t\t\t}\n\t\t\telse {\n\t\t\t\tif (prevAmt <= _minimumAmount) {\n\t\t\t\t\treturn 0;\n\t\t\t\t}\n\t\t\t\telse if (prevAmt - uint(-_amount) <= _minimumAmount) {\n\t\t\t\t\tinternalYTSells[currentID].amount = _minimumAmount;\n\t\t\t\t\treturn int(_minimumAmount).sub(int(prevAmt));\n\t\t\t\t}\n\t\t\t\tinternalYTSells[currentID].amount = prevAmt.sub(uint(-_amount));\n\t\t\t\treturn _amount;\n\t\t\t}\n\t\t}\n\t}\n\n\t/*\n\t\t@Description: modify a ZCB limit sell order start searching for it from a hint ID\n\n\t\t@param int _amount: the amount by which to change the order amount\n\t\t@param uint _targetID: the ID of the order to edit\n\t\t@praam uint _hintID: the ID that will act as a hint to find the order previous to the target order\n\t\t@param uint _maxSteps: the maximum iterations to find the correct insertion point, if _maxSteps is exceeded the tx will revert\n\t\t@param uint _minimumAmount: the minimum amount for a ZCB sell order\n\t\t@param bool _removeBelowMin: if true is passed the order will be entirely cancelled if the resulting change\n\t\t\tin order amount results in the order amount being below the minimum amount\n\n\t\t@return int change: the resultant change in the order amount from prior to after execution of this function\n\t*/\n\tfunction modifyWithHint_SellZCB(int _amount, uint _targetID, uint _hintID, uint _maxSteps, uint _minimumAmount, bool _removeBelowMin) internal returns (int change) {\n\t\tuint currentID = _hintID;\n\t\tuint prevID;\n\t\tfor (uint i = 0; currentID != _targetID; i++) {\n\t\t\trequire(i < _maxSteps);\n\t\t\tprevID = currentID;\n\t\t\tcurrentID = internalZCBSells[currentID].nextID;\n\t\t\trequire(currentID != 0);\n\t\t}\n\n\t\tif (_amount > 0) {\n\t\t\tuint prevAmt = internalZCBSells[currentID].amount;\n\t\t\tinternalZCBSells[currentID].amount = prevAmt.add(uint(_amount));\n\t\t\treturn _amount;\n\t\t}\n\t\telse {\n\t\t\tuint prevAmt = internalZCBSells[currentID].amount;\n\t\t\tif (\n\t\t\t\tprevAmt <= uint(-_amount) ||\n\t\t\t\t(_removeBelowMin && (prevAmt - uint(-_amount) <= _minimumAmount))\n\t\t\t) {\n\t\t\t\t//delete order\n\t\t\t\trequire(prevID != 0); //prevID must be found in order to delete order\n\t\t\t\tinternalZCBSells[prevID].nextID = internalZCBSells[currentID].nextID;\n\t\t\t\tdelete internalZCBSells[currentID];\n\t\t\t\treturn prevAmt.toInt().mul(-1);\n\t\t\t}\n\t\t\telse {\n\t\t\t\tif (prevAmt <= _minimumAmount) {\n\t\t\t\t\treturn 0;\n\t\t\t\t}\n\t\t\t\t//prevAmt - uint(-_amount) <= _minimumAmount\n\t\t\t\t//prevAmt <= _minimumAmount + uint(-_amount)\n\t\t\t\telse if (prevAmt <= _minimumAmount.add(_amount.mul(-1).toUint())) {\n\t\t\t\t\tinternalZCBSells[currentID].amount = _minimumAmount;\n\t\t\t\t\treturn _minimumAmount.toInt().sub(prevAmt.toInt());\n\t\t\t\t}\n\t\t\t\tinternalZCBSells[currentID].amount = prevAmt.sub(_amount.mul(-1).toUint());\n\t\t\t\treturn _amount;\n\t\t\t}\n\t\t}\n\t}\n\n\t/*\n\t\t@Description: modify a YT limit sell order start searching for it from a hint ID\n\n\t\t@param int _amount: the amount by which to change the order amount\n\t\t@param uint _targetID: the ID of the order to edit\n\t\t@praam uint _hintID: the ID that will act as a hint to find the order previous to the target order\n\t\t@param uint _maxSteps: the maximum iterations to find the correct insertion point, if _maxSteps is exceeded the tx will revert\n\t\t@param uint _minimumAmount: the minimum amount for a YT sell order\n\t\t@param bool _removeBelowMin: if true is passed the order will be entirely cancelled if the resulting change\n\t\t\tin order amount results in the order amount being below the minimum amount\n\n\t\t@return int change: the resultant change in the order amount from prior to after execution of this function\n\t*/\n\tfunction modifyWithHint_SellYT(int _amount, uint _targetID, uint _hintID, uint _maxSteps, uint _minimumAmount, bool _removeBelowMin) internal returns (int change) {\n\t\tuint currentID = _hintID;\n\t\tuint prevID;\n\t\tfor (uint i = 0; currentID != _targetID; i++) {\n\t\t\trequire(i < _maxSteps);\n\t\t\tprevID = currentID;\n\t\t\tcurrentID = internalYTSells[currentID].nextID;\n\t\t\trequire(currentID != 0);\n\t\t}\n\n\t\tif (_amount > 0) {\n\t\t\tuint prevAmt = internalYTSells[currentID].amount;\n\t\t\tinternalYTSells[currentID].amount = prevAmt.add(uint(_amount));\n\t\t\treturn _amount;\n\t\t}\n\t\telse {\n\t\t\tuint prevAmt = internalYTSells[currentID].amount;\n\t\t\tif (\n\t\t\t\tprevAmt <= uint(-_amount) ||\n\t\t\t\t(_removeBelowMin && (prevAmt - uint(-_amount) <= _minimumAmount))\n\t\t\t) {\n\t\t\t\t//delete order\n\t\t\t\trequire(prevID != 0); //prevID must be found in order to delete order\n\t\t\t\tinternalYTSells[prevID].nextID = internalYTSells[currentID].nextID;\n\t\t\t\tdelete internalYTSells[currentID];\n\t\t\t\treturn prevAmt.toInt().mul(-1);\n\t\t\t}\n\t\t\telse {\n\t\t\t\tif (prevAmt <= _minimumAmount) {\n\t\t\t\t\treturn 0;\n\t\t\t\t}\n\t\t\t\telse if (prevAmt <= _minimumAmount.add(_amount.mul(-1).toUint())) {\n\t\t\t\t\tinternalYTSells[currentID].amount = _minimumAmount;\n\t\t\t\t\treturn _minimumAmount.toInt().sub(prevAmt.toInt());\n\t\t\t\t}\n\t\t\t\tinternalYTSells[currentID].amount = prevAmt.sub((-_amount).toUint());\n\t\t\t\treturn _amount;\n\t\t\t}\n\t\t}\n\t}\n\n\t//---------------------external-------------------------------------\n\n\t/*\n\t\t@Description: post a limit order to sell a specific amount of ZCB at a specific MCR\n\n\t\t@param uint _amount: the amount of ZCB to sell\n\t\t@param uint _maturityConversionRate: the MCR at which to sell the ZCB\n\t\t@param uint _hintID: the ID that will act as a hint for where to place the order, helps save gas\n\t\t@param uint _maxSteps: the maximum iterations to find the correct insertion point\n\t\t\tif _maxSteps is exceeded the tx will revert\n\t*/\n\tfunction limitSellZCB(\n\t\tuint _amount,\n\t\tuint _maturityConversionRate,\n\t\tuint _hintID,\n\t\tuint _maxSteps\n\t) external ensureValidZCBSell(_amount, _maturityConversionRate) setRateModifier returns(uint newID, uint prevID) {\n\t\treqPriorToPayoutPhase(address(internalFCP));\n\t\tnewID = totalNumOrders+1;\n\t\tif (_hintID == 0) {\n\t\t\tprevID = insertFromHead_SellZCB(_amount, _maturityConversionRate, newID, _maxSteps);\n\t\t}\n\t\telse {\n\t\t\tprevID = insertWithHint_SellZCB(_amount, _maturityConversionRate, _hintID, newID, _maxSteps);\n\t\t}\n\t\tuint ratio = internalWrapper.WrappedAmtToUnitAmt_RoundDown(1 ether);\n\t\tmanageCollateral_SellZCB_makeOrder(msg.sender, _amount, ratio);\n\t\ttotalNumOrders = newID;\n\t}\n\n\t/*\n\t\t@Description: post a limit order to sell a specific amount of static YT at a specific MCR\n\n\t\t@param uint _amount: the amount of YT to sell\n\t\t@param uint _maturityConversionRate: the MCR at which to sell the YT\n\t\t@param uint _hintID: the ID that will act as a hint for where to place the order, helps save gas\n\t\t@param uint _maxSteps: the maximum iterations to find the correct insertion point\n\t\t\tif _maxSteps is exceeded the tx will revert\n\t*/\n\tfunction limitSellYT(\n\t\tuint _amount,\n\t\tuint _maturityConversionRate,\n\t\tuint _hintID,\n\t\tuint _maxSteps\n\t) external ensureValidYTSell(_amount, _maturityConversionRate) setRateModifier returns(uint newID, uint prevID) {\n\t\treqPriorToPayoutPhase(address(internalFCP));\n\t\tnewID = totalNumOrders+1;\n\t\tif (_hintID == 0) {\n\t\t\tprevID = insertFromHead_SellYT(_amount, _maturityConversionRate, newID, _maxSteps);\n\t\t}\n\t\telse {\n\t\t\tprevID = insertWithHint_SellYT(_amount, _maturityConversionRate, _hintID, newID, _maxSteps);\n\t\t}\n\t\tuint ratio = internalWrapper.WrappedAmtToUnitAmt_RoundDown(1 ether);\n\t\tmanageCollateral_SellYT_makeOrder(msg.sender, _amount, ratio);\n\t\ttotalNumOrders = newID;\n\t}\n\n\t/*\n\t\t@Description: modify the amount in a ZCB limit sell order, msg.sender must be order maker\n\n\t\t@param int _amount: the amount by which to change the order amount\n\t\t@param uint _targetID: the ID of the order to edit\n\t\t@praam uint _hintID: the ID that will act as a hint to find the order previous to the target order\n\t\t@param uint _maxSteps: the maximum iterations to find the order previous to target order\n\t\t@param bool _removeBelowMin: if true is passed the order will be entirely cancelled if the resulting change\n\t\t\tin order amount results in the order amount being below the minimum amount\n\t*/\n\tfunction modifyZCBLimitSell(\n\t\tint _amount,\n\t\tuint _targetID,\n\t\tuint _hintID,\n\t\tuint _maxSteps,\n\t\tbool _removeBelowMin\n\t) external setRateModifier returns(int change) {\n\t\trequire(_amount != 0);\n\t\trequire(msg.sender == internalZCBSells[_targetID].maker);\n\t\treqPriorToPayoutPhase(address(internalFCP));\n\t\tuint ratio = internalWrapper.WrappedAmtToUnitAmt_RoundDown(1 ether);\n\t\tuint minimumAmount = minimumZCBLimitAmount(internalZCBSells[_targetID].maturityConversionRate, ratio);\n\t\tif (_hintID == 0) {\n\t\t\tchange = modifyFromHead_SellZCB(_amount, _targetID, _maxSteps, minimumAmount, _removeBelowMin);\n\t\t}\n\t\telse {\n\t\t\trequire(_targetID != internalHeadZCBSellID);\n\t\t\tchange = modifyWithHint_SellZCB(_amount, _targetID, _hintID, _maxSteps, minimumAmount, _removeBelowMin);\n\t\t}\n\t\tif (change > 0) {\n\t\t\tmanageCollateral_SellZCB_makeOrder(msg.sender, uint(change), ratio);\n\t\t}\n\t\telse if (change < 0) {\n\t\t\tmanageCollateral_closeZCBSell(msg.sender, uint(-change));\n\t\t}\n\t}\n\n\t/*\n\t\t@Description: modify the amount in a YT limit sell order, msg.sender must be order maker\n\n\t\t@param int _amount: the amount by which to change the order amount\n\t\t@param uint _targetID: the ID of the order to edit\n\t\t@praam uint _hintID: the ID that will act as a hint to find the order previous to the target order\n\t\t@param uint _maxSteps: the maximum iterations to find the order previous to target order\n\t\t@param bool _removeBelowMin: if true is passed the order will be entirely cancelled if the resulting change\n\t\t\tin order amount results in the order amount being below the minimum amount\n\t*/\n\tfunction modifyYTLimitSell(\n\t\tint _amount,\n\t\tuint _targetID,\n\t\tuint _hintID,\n\t\tuint _maxSteps,\n\t\tbool _removeBelowMin\n\t) external setRateModifier returns(int change) {\n\t\trequire(_amount != 0);\n\t\trequire(msg.sender == internalYTSells[_targetID].maker);\n\t\treqPriorToPayoutPhase(address(internalFCP));\n\t\tuint ratio = internalWrapper.WrappedAmtToUnitAmt_RoundDown(1 ether);\n\t\tuint minimumAmount = minimumYTlimitAmount(internalYTSells[_targetID].maturityConversionRate, ratio);\n\t\tif (_hintID == 0) {\n\t\t\tchange = modifyFromHead_SellYT(_amount, _targetID, _maxSteps, minimumAmount, _removeBelowMin);\n\t\t}\n\t\telse {\n\t\t\trequire(_targetID != internalHeadYTSellID);\n\t\t\tchange = modifyWithHint_SellYT(_amount, _targetID, _hintID, _maxSteps, minimumAmount, _removeBelowMin);\n\t\t}\n\t\tif (change > 0) {\n\t\t\tmanageCollateral_SellYT_makeOrder(msg.sender, uint(change), ratio);\n\t\t}\n\t\telse if (change < 0) {\n\t\t\tmanageCollateral_closeYTSell(msg.sender, uint(-change));\n\t\t}\n\t}\n\n\t//---------------------------R-a-t-e---O-r-a-c-l-e---------------------------------\n\n\t/*\n\t\t@Description: force this contract to store a data point in its rate oracle\n\t*/\n\tfunction forceRateDataUpdate() external setRateModifier {reqPriorToPayoutPhase(address(internalFCP));}\n\n\t/*\n\t\t@Description: set the median of all datapoints in the impliedRates array as the\n\t\t\toracle rate, may only be called after all datapoints have been updated since\n\t\t\tlast call to this function\n\n\t\t@param uint _MCR: the median of all MCR datapoints\n\t*/\n\tfunction setOracleMCR(uint _MCR) external {\n\t\tuint8 numLarger;\n\t\tuint8 numEqual;\n\t\t{\n\t\t\tuint lastMCR = impliedMCRs[LENGTH_RATE_SERIES-1];\n\t\t\trequire(lastMCR > 0); //ensure the entire array has been filled with datapoints\n\t\t\tif (lastMCR > _MCR) {\n\t\t\t\tnumLarger++;\n\t\t\t}\n\t\t\telse if (lastMCR == _MCR) {\n\t\t\t\tnumEqual++;\n\t\t\t}\n\t\t}\n\t\tfor (uint8 i = 0; i < LENGTH_RATE_SERIES-1; i++) {\n\t\t\tuint MCRi = impliedMCRs[i];\n\t\t\tif (MCRi > _MCR) {\n\t\t\t\tnumLarger++;\n\t\t\t}\n\t\t\telse if (MCRi == _MCR) {\n\t\t\t\tnumEqual++;\n\t\t\t}\n\t\t}\n\t\tuint8 numSmaller = LENGTH_RATE_SERIES - numEqual - numLarger;\n\t\trequire(numLarger+numEqual >= numSmaller);\n\t\trequire(numSmaller+numEqual >= numLarger);\n\n\t\tOracleMCR = _MCR;\n\t}\n}",
  "sourcePath": "/home/asher/FixFinanceV1/contracts/Orderbook/OrderbookDelegate3.sol",
  "compiler": {
    "name": "solc",
    "version": "0.6.8+commit.0bbfe453.Emscripten.clang"
  },
  "schemaVersion": "3.4.1",
  "updatedAt": "2021-11-26T19:15:55.052Z",
  "devdoc": {
    "methods": {}
  },
  "userdoc": {
    "methods": {}
  }
}