{
  "contractName": "OrderbookDelegate2",
  "abi": [
    {
      "inputs": [
        {
          "internalType": "uint256",
          "name": "_amountZCBInitial",
          "type": "uint256"
        },
        {
          "internalType": "uint256",
          "name": "_maxMaturityConversionRateInitial",
          "type": "uint256"
        },
        {
          "internalType": "uint256",
          "name": "_maxCumulativeMaturityConversionRateInitial",
          "type": "uint256"
        },
        {
          "internalType": "uint16",
          "name": "_maxIterationsInitial",
          "type": "uint16"
        },
        {
          "internalType": "bool",
          "name": "_useInternalBalancesInitial",
          "type": "bool"
        }
      ],
      "name": "marketSellZCBtoU",
      "outputs": [],
      "stateMutability": "nonpayable",
      "type": "function"
    },
    {
      "inputs": [
        {
          "internalType": "uint256",
          "name": "_unitAmountYTInitial",
          "type": "uint256"
        },
        {
          "internalType": "uint256",
          "name": "_minMaturityConversionRateInitial",
          "type": "uint256"
        },
        {
          "internalType": "uint256",
          "name": "_minCumulativeMaturityConversionRateInitial",
          "type": "uint256"
        },
        {
          "internalType": "uint16",
          "name": "_maxIterationsInitial",
          "type": "uint16"
        },
        {
          "internalType": "bool",
          "name": "_useInternalBalancesInitial",
          "type": "bool"
        }
      ],
      "name": "marketSellUnitYTtoU",
      "outputs": [],
      "stateMutability": "nonpayable",
      "type": "function"
    }
  ],
  "bytecode": "0x608060405234801561001057600080fd5b50613e21806100206000396000f3fe608060405234801561001057600080fd5b50600436106100365760003560e01c806345ef11c01461003b578063b469c14c14610097575b600080fd5b610095600480360360a081101561005157600080fd5b81019080803590602001909291908035906020019092919080359060200190929190803561ffff1690602001909291908035151590602001909291905050506100f3565b005b6100f1600480360360a08110156100ad57600080fd5b81019080803590602001909291908035906020019092919080359060200190929190803561ffff169060200190929190803515159060200190929190505050610d08565b005b603c602c60009054906101000a900464ffffffffff1664ffffffffff160142111561013157610130602c60059054906101000a900460ff166118ec565b5b600082905061013e613cc0565b600a60009054906101000a900473ffffffffffffffffffffffffffffffffffffffff168160006004811061016e57fe5b602002019073ffffffffffffffffffffffffffffffffffffffff16908173ffffffffffffffffffffffffffffffffffffffff1681525050600960009054906101000a900473ffffffffffffffffffffffffffffffffffffffff16816001600481106101d557fe5b602002019073ffffffffffffffffffffffffffffffffffffffff16908173ffffffffffffffffffffffffffffffffffffffff1681525050600b60009054906101000a900473ffffffffffffffffffffffffffffffffffffffff168160026004811061023c57fe5b602002019073ffffffffffffffffffffffffffffffffffffffff16908173ffffffffffffffffffffffffffffffffffffffff16815250508060026004811061028057fe5b602002015173ffffffffffffffffffffffffffffffffffffffff16637348c8576040518163ffffffff1660e01b815260040160206040518083038186803b1580156102ca57600080fd5b505afa1580156102de573d6000803e3d6000fd5b505050506040513d60208110156102f457600080fd5b81019080805190602001909291905050506103a0578060016004811061031657fe5b602002015173ffffffffffffffffffffffffffffffffffffffff16638da5cb5b6040518163ffffffff1660e01b815260040160206040518083038186803b15801561036057600080fd5b505afa158015610374573d6000803e3d6000fd5b505050506040513d602081101561038a57600080fd5b8101908080519060200190929190505050610433565b806002600481106103ad57fe5b602002015173ffffffffffffffffffffffffffffffffffffffff1663489e09516040518163ffffffff1660e01b815260040160206040518083038186803b1580156103f757600080fd5b505afa15801561040b573d6000803e3d6000fd5b505050506040513d602081101561042157600080fd5b81019080805190602001909291905050505b8160036004811061044057fe5b602002019073ffffffffffffffffffffffffffffffffffffffff16908173ffffffffffffffffffffffffffffffffffffffff16815250506104918160016004811061048757fe5b6020020151611b7e565b6104bd816000600481106104a157fe5b6020020151826001600481106104b357fe5b6020020151611c0c565b6000879050600087905060008790506000869050600080600060075490506104e3613ce2565b6000896000600481106104f257fe5b602002015173ffffffffffffffffffffffffffffffffffffffff16630247c79c670de0b6b3a76400006040518263ffffffff1660e01b81526004018082815260200191505060206040518083038186803b15801561054f57600080fd5b505afa158015610563573d6000803e3d6000fd5b505050506040513d602081101561057957600080fd5b81019080805190602001909291905050509050600060108b60026004811061059d57fe5b602002015173ffffffffffffffffffffffffffffffffffffffff16635ca6cc318d6001600481106105ca57fe5b60200201516040518263ffffffff1660e01b8152600401808273ffffffffffffffffffffffffffffffffffffffff1673ffffffffffffffffffffffffffffffffffffffff16815260200191505060206040518083038186803b15801561062f57600080fd5b505afa158015610643573d6000803e3d6000fd5b505050506040513d602081101561065957600080fd5b810190808051906020019092919050505060ff16901b90508a60181b811790505b8b61ffff168161ffff16108015610692575060008414155b15610c3f57600560008581526020019081526020016000206040518060800160405290816000820160009054906101000a900473ffffffffffffffffffffffffffffffffffffffff1673ffffffffffffffffffffffffffffffffffffffff1673ffffffffffffffffffffffffffffffffffffffff1681526020016001820154815260200160028201548152602001600382015481525050925088836040015110156107ec5787610743878785611d1c565b101561074e57600080fd5b61075c8b338888868c611db0565b60008161ffff161461077057836007819055505b60006107a461271060ff601085901c16016107966127108961236c90919063ffffffff16565b6123f290919063ffffffff16565b905060008187039050600081146107be57600181036107c1565b60005b90506107ce8d828661243c565b60008560200151905060006107e58a8a8a856126e0565b9050608081f35b60006108018460200151848660400151612704565b9050600061271061084961271060ff601087901c1601670de0b6b3a7640000610833888761236c90919063ffffffff16565b8161083a57fe5b0461236c90919063ffffffff16565b8161085057fe5b0490508b8110158061087a5750808c0361087786602001518a6127b990919063ffffffff16565b10155b15610b7e5760006108b2826108a4670de0b6b3a7640000896020015161236c90919063ffffffff16565b6123f290919063ffffffff16565b905060008d905060006109146108d9670de0b6b3a7640000856127b990919063ffffffff16565b610906670de0b6b3a76400006108f88f8761284190919063ffffffff16565b61236c90919063ffffffff16565b6123f290919063ffffffff16565b9050600061094588610937670de0b6b3a76400008561236c90919063ffffffff16565b6123f290919063ffffffff16565b90506000670de0b6b3a7640000610965868561236c90919063ffffffff16565b8161096c57fe5b049050896020015181116109805780610986565b89602001515b9050818c019b50808d019c5061099a613cc0565b8860181c90506109d9818c6000015161271060ff60108e901c16016109ca6127108861236c90919063ffffffff16565b816109d157fe5b04858e61288b565b50808a602001511415610a72578960600151600781905550600560008c8152602001908152602001600020600080820160006101000a81549073ffffffffffffffffffffffffffffffffffffffff0219169055600182016000905560028201600090556003820160009055505089606001519a50600560008c8152602001908152602001600020600101548a6020018181525050610aa9565b808a60200151038a60200181815250508960200151600560008d8152602001908152602001600020600101819055508a6007819055505b8e610ab58e8e8c611d1c565b1015610ac057600080fd5b6000610ad76127108e61236c90919063ffffffff16565b905061271060ff60108b901c16018181610aed57fe5b0490506000818e03905060008114610b085760018103610b0b565b60005b9050610b15613cc0565b8a60181c9050610b2681838e61243c565b50505060008e905060008e905060008e905060008c9050610b45613cc0565b8c60181c9050610b5981338686868a611db0565b505060008e905060008e6020015190506000610b77858585856126e0565b9050608081f35b610b938d86600001518488602001518861288b565b60056000878152602001908152602001600020600080820160006101000a81549073ffffffffffffffffffffffffffffffffffffffff021916905560018201600090556002820160009055600382016000905550506000612710610c0b61271060ff601088901c16018561236c90919063ffffffff16565b81610c1257fe5b0490508560200151890198508088019750818d039c5050846060015195505050808060010191505061067a565b87610c4b878785611d1c565b1015610c5657600080fd5b6000610c8a61271060ff601085901c1601610c7c6127108961236c90919063ffffffff16565b6123f290919063ffffffff16565b90506000818703905060008114610ca45760018103610ca7565b60005b9050610cb48d828661243c565b610cc28d338a8a888e611db0565b856007819055506000808714610cee576005600088815260200190815260200160002060010154610cf1565b60005b90506000610d018a8a8a856126e0565b9050608081f35b603c602c60009054906101000a900464ffffffffff1664ffffffffff1601421115610d4657610d45602c60059054906101000a900460ff166118ec565b5b610d4e613cc0565b600a60009054906101000a900473ffffffffffffffffffffffffffffffffffffffff1681600060048110610d7e57fe5b602002019073ffffffffffffffffffffffffffffffffffffffff16908173ffffffffffffffffffffffffffffffffffffffff1681525050600960009054906101000a900473ffffffffffffffffffffffffffffffffffffffff1681600160048110610de557fe5b602002019073ffffffffffffffffffffffffffffffffffffffff16908173ffffffffffffffffffffffffffffffffffffffff1681525050600b60009054906101000a900473ffffffffffffffffffffffffffffffffffffffff1681600260048110610e4c57fe5b602002019073ffffffffffffffffffffffffffffffffffffffff16908173ffffffffffffffffffffffffffffffffffffffff168152505080600260048110610e9057fe5b602002015173ffffffffffffffffffffffffffffffffffffffff16637348c8576040518163ffffffff1660e01b815260040160206040518083038186803b158015610eda57600080fd5b505afa158015610eee573d6000803e3d6000fd5b505050506040513d6020811015610f0457600080fd5b8101908080519060200190929190505050610fb05780600160048110610f2657fe5b602002015173ffffffffffffffffffffffffffffffffffffffff16638da5cb5b6040518163ffffffff1660e01b815260040160206040518083038186803b158015610f7057600080fd5b505afa158015610f84573d6000803e3d6000fd5b505050506040513d6020811015610f9a57600080fd5b8101908080519060200190929190505050611043565b80600260048110610fbd57fe5b602002015173ffffffffffffffffffffffffffffffffffffffff1663489e09516040518163ffffffff1660e01b815260040160206040518083038186803b15801561100757600080fd5b505afa15801561101b573d6000803e3d6000fd5b505050506040513d602081101561103157600080fd5b81019080805190602001909291905050505b8160036004811061105057fe5b602002019073ffffffffffffffffffffffffffffffffffffffff16908173ffffffffffffffffffffffffffffffffffffffff16815250506110a18160016004811061109757fe5b6020020151611b7e565b6110cd816000600481106110b157fe5b6020020151826001600481106110c357fe5b6020020151611c0c565b60008690506000869050600086905060008690506000869050600080600060065490506110f8613d20565b60008a60006004811061110757fe5b602002015173ffffffffffffffffffffffffffffffffffffffff16630247c79c670de0b6b3a76400006040518263ffffffff1660e01b81526004018082815260200191505060206040518083038186803b15801561116457600080fd5b505afa158015611178573d6000803e3d6000fd5b505050506040513d602081101561118e57600080fd5b81019080805190602001909291905050509050600060108c6002600481106111b257fe5b602002015173ffffffffffffffffffffffffffffffffffffffff16635ca6cc318e6001600481106111df57fe5b60200201516040518263ffffffff1660e01b8152600401808273ffffffffffffffffffffffffffffffffffffffff1673ffffffffffffffffffffffffffffffffffffffff16815260200191505060206040518083038186803b15801561124457600080fd5b505afa158015611258573d6000803e3d6000fd5b505050506040513d602081101561126e57600080fd5b810190808051906020019092919050505060ff16901b90508b60181b811790505b8761ffff168161ffff161080156112a7575060008414155b1561182b57600460008581526020019081526020016000206040518060800160405290816000820160009054906101000a900473ffffffffffffffffffffffffffffffffffffffff1673ffffffffffffffffffffffffffffffffffffffff1673ffffffffffffffffffffffffffffffffffffffff1681526020016001820154815260200160028201548152602001600382015481525050925089836040015111156114025788611358868885611d1c565b111561136357600080fd5b6113718c338789868c612c38565b60008161ffff161461138557836006819055505b60006113b960ff601084901c16612710016113ab6127108961236c90919063ffffffff16565b6123f290919063ffffffff16565b905060008187039050600081146113d357600181036113d6565b60005b90506113e48e82600061243c565b60008560200151905060006113fb8a8a8a856126e0565b9050608081f35b6000670de0b6b3a7640000611420848961236c90919063ffffffff16565b8161142757fe5b049050600061143f85602001518587604001516131bd565b9050600061271061146460ff601087901c16612710018461236c90919063ffffffff16565b8161146b57fe5b0490506000670de0b6b3a764000061149087896020015161236c90919063ffffffff16565b8161149757fe5b049050818f1115806114bd5750818f036114ba85836127b990919063ffffffff16565b10155b15611787576114f387602001516114e5670de0b6b3a76400008561236c90919063ffffffff16565b6123f290919063ffffffff16565b925060008f9050600061154d611512868a6127b990919063ffffffff16565b61153f670de0b6b3a76400006115318a8761284190919063ffffffff16565b61236c90919063ffffffff16565b6123f290919063ffffffff16565b90506000670de0b6b3a764000061156d878461236c90919063ffffffff16565b8161157457fe5b04905089602001518211611588578161158e565b89602001515b9150818d019c50808c019b506115a2613cc0565b8860181c90506115e1818c6000015160ff60108d901c16612710016115d26127108761236c90919063ffffffff16565b816115d957fe5b04868e613281565b50818a60200151141561167a578960600151600681905550600460008c8152602001908152602001600020600080820160006101000a81549073ffffffffffffffffffffffffffffffffffffffff0219169055600182016000905560028201600090556003820160009055505089606001519a50600460008c8152602001908152602001600020600101548a60200181815250506116b1565b818a60200151038a60200181815250508960200151600460008d8152602001908152602001600020600101819055508a6006819055505b8f6116bd8d8f8c611d1c565b11156116c857600080fd5b60006116df6127108e61236c90919063ffffffff16565b905061271060ff60108b901c160181816116f557fe5b0490506000818e039050600081146117105760018103611713565b60005b905061171d613cc0565b8a60181c905061172f8183600061243c565b50505060008e905060008e905060008e905060008c905061174e613cc0565b8c60181c905061176281338587868a612c38565b505060008e905060008e6020015190506000611780858585856126e0565b9050608081f35b61178f613cc0565b8560181c90506117aa818960000151868b602001518b613281565b5060046000898152602001908152602001600020600080820160006101000a81549073ffffffffffffffffffffffffffffffffffffffff02191690556001820160009055600282016000905560038201600090555050818901985086602001518a019950818f039e508660600151975050505050808060010191505061128f565b88611837868885611d1c565b111561184257600080fd5b600061271060ff601084901c16016118656127108861236c90919063ffffffff16565b8161186c57fe5b0490506000818703905060008114611887576001810361188a565b60005b90506118988e82600061243c565b6118a68e33898b888e612c38565b8560068190555060008087146118d25760046000888152602001908152602001600020600101546118d5565b60005b905060006118e58a8a8a856126e0565b9050608081f35b6000600654905060008114156119025750611b7b565b600060075490506000811415611919575050611b7b565b6000600460008481526020019081526020016000206002015490506000600560008481526020019081526020016000206002015490506000600a60009054906101000a900473ffffffffffffffffffffffffffffffffffffffff1673ffffffffffffffffffffffffffffffffffffffff16630247c79c670de0b6b3a76400006040518263ffffffff1660e01b81526004018082815260200191505060206040518083038186803b1580156119cc57600080fd5b505afa1580156119e0573d6000803e3d6000fd5b505050506040513d60208110156119f657600080fd5b81019080805190602001909291905050509050808310611a165782611a18565b805b9250808210611a275781611a29565b805b91506000611a5b82611a4d680100000000000000008761236c90919063ffffffff16565b6123f290919063ffffffff16565b90506000611a8d83611a7f680100000000000000008761236c90919063ffffffff16565b6123f290919063ffffffff16565b90506f7fffffffffffffffffffffffffffffff600f0b8210611aae57600080fd5b6f7fffffffffffffffffffffffffffffff600f0b8110611acd57600080fd5b60006040611b0785611af6611aee8688600f0b61360590919063ffffffff16565b600f0b613670565b600f0b61236c90919063ffffffff16565b901c905080600d8a60ff16601f8110611b1c57fe5b018190555042602c60006101000a81548164ffffffffff021916908364ffffffffff160217905550601f60ff1660018a0160ff1681611b5757fe5b06602c60056101000a81548160ff021916908360ff16021790555050505050505050505b50565b8073ffffffffffffffffffffffffffffffffffffffff1663fd23ae026040518163ffffffff1660e01b815260040160206040518083038186803b158015611bc457600080fd5b505afa158015611bd8573d6000803e3d6000fd5b505050506040513d6020811015611bee57600080fd5b810190808051906020019092919050505015611c0957600080fd5b50565b8173ffffffffffffffffffffffffffffffffffffffff16635102e3e160018330856040518563ffffffff1660e01b815260040180851515151581526020018473ffffffffffffffffffffffffffffffffffffffff1673ffffffffffffffffffffffffffffffffffffffff1681526020018373ffffffffffffffffffffffffffffffffffffffff1673ffffffffffffffffffffffffffffffffffffffff1681526020018273ffffffffffffffffffffffffffffffffffffffff1673ffffffffffffffffffffffffffffffffffffffff168152602001945050505050600060405180830381600087803b158015611d0057600080fd5b505af1158015611d14573d6000803e3d6000fd5b505050505050565b600080670de0b6b3a7640000611d3b848661236c90919063ffffffff16565b81611d4257fe5b049050670de0b6b3a7640000611d9e84611d90670de0b6b3a764000085611d7a670de0b6b3a76400008c61236c90919063ffffffff16565b81611d8157fe5b046127b990919063ffffffff16565b61236c90919063ffffffff16565b81611da557fe5b049150509392505050565b801561216e577f7fffffffffffffffffffffffffffffffffffffffffffffffffffffffffffffff8310611de257600080fd5b6000611e1a85670de0b6b3a7640000611e04868861236c90919063ffffffff16565b81611e0b57fe5b046127b990919063ffffffff16565b90507f7fffffffffffffffffffffffffffffffffffffffffffffffffffffffffffffff811115611e4957600080fd5b60008060008873ffffffffffffffffffffffffffffffffffffffff1673ffffffffffffffffffffffffffffffffffffffff1681526020019081526020016000205490506000600160008973ffffffffffffffffffffffffffffffffffffffff1673ffffffffffffffffffffffffffffffffffffffff1681526020019081526020016000205490506000600260008a73ffffffffffffffffffffffffffffffffffffffff1673ffffffffffffffffffffffffffffffffffffffff1681526020019081526020016000205490506000600360008b73ffffffffffffffffffffffffffffffffffffffff1673ffffffffffffffffffffffffffffffffffffffff1681526020019081526020016000205490506000611f907fffffffffffffffffffffffffffffffffffffffffffffffffffffffffffffffff60018b0161369990919063ffffffff16565b90508b600060048110611f9f57fe5b602002015173ffffffffffffffffffffffffffffffffffffffff16637c9dd78960008d8f600160048110611fcf57fe5b6020020151858b6040518663ffffffff1660e01b815260040180861515151581526020018573ffffffffffffffffffffffffffffffffffffffff1673ffffffffffffffffffffffffffffffffffffffff1681526020018473ffffffffffffffffffffffffffffffffffffffff1673ffffffffffffffffffffffffffffffffffffffff16815260200183815260200182815260200195505050505050600060405180830381600087803b15801561208457600080fd5b505af1158015612098573d6000803e3d6000fd5b5050505060006120b460018b018761284190919063ffffffff16565b905060006120cb88876137c390919063ffffffff16565b90506120da828287878e613851565b816000808f73ffffffffffffffffffffffffffffffffffffffff1673ffffffffffffffffffffffffffffffffffffffff1681526020019081526020016000208190555080600160008f73ffffffffffffffffffffffffffffffffffffffff1673ffffffffffffffffffffffffffffffffffffffff168152602001908152602001600020819055505050505050505050612364565b7f7fffffffffffffffffffffffffffffffffffffffffffffffffffffffffffffff841061219a57600080fd5b6000670de0b6b3a76400006121b8848661236c90919063ffffffff16565b816121bf57fe5b0490506000876001600481106121d157fe5b602002015190508073ffffffffffffffffffffffffffffffffffffffff1663ec02d257333060018901866000036040518563ffffffff1660e01b8152600401808573ffffffffffffffffffffffffffffffffffffffff1673ffffffffffffffffffffffffffffffffffffffff1681526020018473ffffffffffffffffffffffffffffffffffffffff1673ffffffffffffffffffffffffffffffffffffffff168152602001838152602001828152602001945050505050600060405180830381600087803b1580156122a157600080fd5b505af11580156122b5573d6000803e3d6000fd5b505050508073ffffffffffffffffffffffffffffffffffffffff16636a68d0c3336000896040518463ffffffff1660e01b8152600401808473ffffffffffffffffffffffffffffffffffffffff1673ffffffffffffffffffffffffffffffffffffffff1681526020018381526020018281526020019350505050600060405180830381600087803b15801561234957600080fd5b505af115801561235d573d6000803e3d6000fd5b5050505050505b505050505050565b60008083141561237f57600090506123ec565b600082840290508284828161239057fe5b04146123e7576040517f08c379a0000000000000000000000000000000000000000000000000000000008152600401808060200182810382526021815260200180613d806021913960400191505060405180910390fd5b809150505b92915050565b600061243483836040518060400160405280601a81526020017f536166654d6174683a206469766973696f6e206279207a65726f00000000000081525061392f565b905092915050565b7f7fffffffffffffffffffffffffffffffffffffffffffffffffffffffffffffff82111561246957600080fd5b6000811415612593578260006004811061247f57fe5b602002015173ffffffffffffffffffffffffffffffffffffffff16637c9dd7896000856003600481106124ae57fe5b6020020151866001600481106124c057fe5b60200201516000876040518663ffffffff1660e01b815260040180861515151581526020018573ffffffffffffffffffffffffffffffffffffffff1673ffffffffffffffffffffffffffffffffffffffff1681526020018473ffffffffffffffffffffffffffffffffffffffff1673ffffffffffffffffffffffffffffffffffffffff16815260200183815260200182815260200195505050505050600060405180830381600087803b15801561257657600080fd5b505af115801561258a573d6000803e3d6000fd5b505050506126db565b6000670de0b6b3a76400006125b1838561236c90919063ffffffff16565b816125b857fe5b046000039050836000600481106125cb57fe5b602002015173ffffffffffffffffffffffffffffffffffffffff16637c9dd7896000866003600481106125fa57fe5b60200201518760016004811061260c57fe5b602002015187866040518663ffffffff1660e01b815260040180861515151581526020018573ffffffffffffffffffffffffffffffffffffffff1673ffffffffffffffffffffffffffffffffffffffff1681526020018473ffffffffffffffffffffffffffffffffffffffff1673ffffffffffffffffffffffffffffffffffffffff16815260200183815260200182815260200195505050505050600060405180830381600087803b1580156126c157600080fd5b505af11580156126d5573d6000803e3d6000fd5b50505050505b505050565b60006040519050848152836020820152826040820152816060820152949350505050565b60008061273484612726670de0b6b3a76400008661236c90919063ffffffff16565b6123f290919063ffffffff16565b9050600061277f612756670de0b6b3a76400008461284190919063ffffffff16565b612771670de0b6b3a76400008961236c90919063ffffffff16565b6123f290919063ffffffff16565b90506127ae856127a0670de0b6b3a76400008461236c90919063ffffffff16565b6123f290919063ffffffff16565b925050509392505050565b600080828401905083811015612837576040517f08c379a000000000000000000000000000000000000000000000000000000000815260040180806020018281038252601b8152602001807f536166654d6174683a206164646974696f6e206f766572666c6f77000000000081525060200191505060405180910390fd5b8091505092915050565b600061288383836040518060400160405280601e81526020017f536166654d6174683a207375627472616374696f6e206f766572666c6f7700008152506139f5565b905092915050565b7f7fffffffffffffffffffffffffffffffffffffffffffffffffffffffffffffff8311156128b857600080fd5b7f7fffffffffffffffffffffffffffffffffffffffffffffffffffffffffffffff8211156128e557600080fd5b6000670de0b6b3a7640000612903838661236c90919063ffffffff16565b8161290a57fe5b04905060008060008773ffffffffffffffffffffffffffffffffffffffff1673ffffffffffffffffffffffffffffffffffffffff1681526020019081526020016000205490506000600160008873ffffffffffffffffffffffffffffffffffffffff1673ffffffffffffffffffffffffffffffffffffffff1681526020019081526020016000205490506000600360008973ffffffffffffffffffffffffffffffffffffffff1673ffffffffffffffffffffffffffffffffffffffff1681526020019081526020016000205490506000612a1f7fffffffffffffffffffffffffffffffffffffffffffffffffffffffffffffffff612a1189886137c390919063ffffffff16565b61369990919063ffffffff16565b9050612a3488856127b990919063ffffffff16565b6000808b73ffffffffffffffffffffffffffffffffffffffff1673ffffffffffffffffffffffffffffffffffffffff16815260200190815260200160002081905550612a8981846137c390919063ffffffff16565b600160008b73ffffffffffffffffffffffffffffffffffffffff1673ffffffffffffffffffffffffffffffffffffffff16815260200190815260200160002081905550612adf878361284190919063ffffffff16565b600360008b73ffffffffffffffffffffffffffffffffffffffff1673ffffffffffffffffffffffffffffffffffffffff1681526020019081526020016000208190555089600060048110612b2f57fe5b602002015173ffffffffffffffffffffffffffffffffffffffff16637c9dd78960008b8d600160048110612b5f57fe5b60200201518c866040518663ffffffff1660e01b815260040180861515151581526020018573ffffffffffffffffffffffffffffffffffffffff1673ffffffffffffffffffffffffffffffffffffffff1681526020018473ffffffffffffffffffffffffffffffffffffffff1673ffffffffffffffffffffffffffffffffffffffff16815260200183815260200182815260200195505050505050600060405180830381600087803b158015612c1457600080fd5b505af1158015612c28573d6000803e3d6000fd5b5050505050505050505050505050565b8015612fc2577f7fffffffffffffffffffffffffffffffffffffffffffffffffffffffffffffff831115612c6b57600080fd5b6000612ca385670de0b6b3a7640000612c8d868861236c90919063ffffffff16565b81612c9457fe5b046127b990919063ffffffff16565b90507f7fffffffffffffffffffffffffffffffffffffffffffffffffffffffffffffff811115612cd257600080fd5b600081600003905060008060008973ffffffffffffffffffffffffffffffffffffffff1673ffffffffffffffffffffffffffffffffffffffff1681526020019081526020016000205490506000600160008a73ffffffffffffffffffffffffffffffffffffffff1673ffffffffffffffffffffffffffffffffffffffff1681526020019081526020016000205490506000600260008b73ffffffffffffffffffffffffffffffffffffffff1673ffffffffffffffffffffffffffffffffffffffff1681526020019081526020016000205490506000600360008c73ffffffffffffffffffffffffffffffffffffffff1673ffffffffffffffffffffffffffffffffffffffff1681526020019081526020016000205490508b600060048110612df657fe5b602002015173ffffffffffffffffffffffffffffffffffffffff16637c9dd78960008d8f600160048110612e2657fe5b60200201518d8a6040518663ffffffff1660e01b815260040180861515151581526020018573ffffffffffffffffffffffffffffffffffffffff1673ffffffffffffffffffffffffffffffffffffffff1681526020018473ffffffffffffffffffffffffffffffffffffffff1673ffffffffffffffffffffffffffffffffffffffff16815260200183815260200182815260200195505050505050600060405180830381600087803b158015612edb57600080fd5b505af1158015612eef573d6000803e3d6000fd5b505050506000612f088a866127b990919063ffffffff16565b90506000612f1f87866137c390919063ffffffff16565b9050612f2e828286868e613851565b816000808f73ffffffffffffffffffffffffffffffffffffffff1673ffffffffffffffffffffffffffffffffffffffff1681526020019081526020016000208190555080600160008f73ffffffffffffffffffffffffffffffffffffffff1673ffffffffffffffffffffffffffffffffffffffff1681526020019081526020016000208190555050505050505050506131b5565b7f7fffffffffffffffffffffffffffffffffffffffffffffffffffffffffffffff8410612fee57600080fd5b6000670de0b6b3a764000061300c848661236c90919063ffffffff16565b8161301357fe5b04905060008760016004811061302557fe5b602002015190508073ffffffffffffffffffffffffffffffffffffffff1663ec02d257333060008a6040518563ffffffff1660e01b8152600401808573ffffffffffffffffffffffffffffffffffffffff1673ffffffffffffffffffffffffffffffffffffffff1681526020018473ffffffffffffffffffffffffffffffffffffffff1673ffffffffffffffffffffffffffffffffffffffff168152602001838152602001828152602001945050505050600060405180830381600087803b1580156130f057600080fd5b505af1158015613104573d6000803e3d6000fd5b505050508073ffffffffffffffffffffffffffffffffffffffff16636a68d0c33387856000036040518463ffffffff1660e01b8152600401808473ffffffffffffffffffffffffffffffffffffffff1673ffffffffffffffffffffffffffffffffffffffff1681526020018381526020018281526020019350505050600060405180830381600087803b15801561319a57600080fd5b505af11580156131ae573d6000803e3d6000fd5b5050505050505b505050505050565b6000806131ed846131df670de0b6b3a76400008661236c90919063ffffffff16565b6123f290919063ffffffff16565b9050670de0b6b3a7640000811161320c57670de0b6b3a764000161320e565b805b90506000670de0b6b3a764000061322e868861236c90919063ffffffff16565b8161323557fe5b049050670de0b6b3a764000061326e61325f670de0b6b3a76400008561284190919063ffffffff16565b8361236c90919063ffffffff16565b8161327557fe5b04925050509392505050565b7f7fffffffffffffffffffffffffffffffffffffffffffffffffffffffffffffff8311156132ae57600080fd5b7f7fffffffffffffffffffffffffffffffffffffffffffffffffffffffffffffff8211156132db57600080fd5b6000670de0b6b3a76400006132f9838561236c90919063ffffffff16565b8161330057fe5b0490506000600160008773ffffffffffffffffffffffffffffffffffffffff1673ffffffffffffffffffffffffffffffffffffffff16815260200190815260200160002054905060008060008873ffffffffffffffffffffffffffffffffffffffff1673ffffffffffffffffffffffffffffffffffffffff1681526020019081526020016000205490506000600260008973ffffffffffffffffffffffffffffffffffffffff1673ffffffffffffffffffffffffffffffffffffffff168152602001908152602001600020549050600086600003905060006133eb89876137c390919063ffffffff16565b905061340081866137c390919063ffffffff16565b600160008c73ffffffffffffffffffffffffffffffffffffffff1673ffffffffffffffffffffffffffffffffffffffff16815260200190815260200160002081905550613456888561284190919063ffffffff16565b6000808c73ffffffffffffffffffffffffffffffffffffffff1673ffffffffffffffffffffffffffffffffffffffff168152602001908152602001600020819055506134ab888461284190919063ffffffff16565b600260008c73ffffffffffffffffffffffffffffffffffffffff1673ffffffffffffffffffffffffffffffffffffffff168152602001908152602001600020819055508a6000600481106134fb57fe5b602002015173ffffffffffffffffffffffffffffffffffffffff16637c9dd78960008c8e60016004811061352b57fe5b602002015186866040518663ffffffff1660e01b815260040180861515151581526020018573ffffffffffffffffffffffffffffffffffffffff1673ffffffffffffffffffffffffffffffffffffffff1681526020018473ffffffffffffffffffffffffffffffffffffffff1673ffffffffffffffffffffffffffffffffffffffff16815260200183815260200182815260200195505050505050600060405180830381600087803b1580156135e057600080fd5b505af11580156135f4573d6000803e3d6000fd5b505050505050505050505050505050565b600080604083600f0b85600f0b02901d90507fffffffffffffffffffffffffffffffff80000000000000000000000000000000600f0b811215801561365d57506f7fffffffffffffffffffffffffffffff600f0b8113155b61366657600080fd5b8091505092915050565b60008082600f0b121561368257600080fd5b613692604083600f0b901b613ab5565b9050919050565b6000808314156136ac57600090506137bd565b7fffffffffffffffffffffffffffffffffffffffffffffffffffffffffffffffff831480156136fa57507f800000000000000000000000000000000000000000000000000000000000000082145b15613750576040517f08c379a0000000000000000000000000000000000000000000000000000000008152600401808060200182810382526027815260200180613da16027913960400191505060405180910390fd5b600082840290508284828161376157fe5b05146137b8576040517f08c379a0000000000000000000000000000000000000000000000000000000008152600401808060200182810382526027815260200180613da16027913960400191505060405180910390fd5b809150505b92915050565b6000808284019050600083121580156137dc5750838112155b806137f257506000831280156137f157508381125b5b613847576040517f08c379a0000000000000000000000000000000000000000000000000000000008152600401808060200182810382526021815260200180613d5f6021913960400191505060405180910390fd5b8091505092915050565b7f7fffffffffffffffffffffffffffffffffffffffffffffffffffffffffffffff82111561387e57600080fd5b6000670de0b6b3a764000061389c838661236c90919063ffffffff16565b816138a357fe5b04905060006138bb858861284190919063ffffffff16565b905060006138e4856138d6858a6137c390919063ffffffff16565b613c3290919063ffffffff16565b905060008112158061391c575080600003670de0b6b3a7640000613911868561236c90919063ffffffff16565b8161391857fe5b0410155b61392557600080fd5b5050505050505050565b600080831182906139db576040517f08c379a00000000000000000000000000000000000000000000000000000000081526004018080602001828103825283818151815260200191508051906020019080838360005b838110156139a0578082015181840152602081019050613985565b50505050905090810190601f1680156139cd5780820380516001836020036101000a031916815260200191505b509250505060405180910390fd5b5060008385816139e757fe5b049050809150509392505050565b6000838311158290613aa2576040517f08c379a00000000000000000000000000000000000000000000000000000000081526004018080602001828103825283818151815260200191508051906020019080838360005b83811015613a67578082015181840152602081019050613a4c565b50505050905090810190601f168015613a945780820380516001836020036101000a031916815260200191505b509250505060405180910390fd5b5060008385039050809150509392505050565b600080821415613ac85760009050613c2d565b60008290506000600190507001000000000000000000000000000000008210613afa57608082901c9150604081901b90505b680100000000000000008210613b1957604082901c9150602081901b90505b6401000000008210613b3457602082901c9150601081901b90505b620100008210613b4d57601082901c9150600881901b90505b6101008210613b6557600882901c9150600481901b90505b60108210613b7c57600482901c9150600281901b90505b60088210613b8c57600181901b90505b6001818581613b9757fe5b048201901c90506001818581613ba957fe5b048201901c90506001818581613bbb57fe5b048201901c90506001818581613bcd57fe5b048201901c90506001818581613bdf57fe5b048201901c90506001818581613bf157fe5b048201901c90506001818581613c0357fe5b048201901c90506000818581613c1557fe5b049050808210613c255780613c27565b815b93505050505b919050565b600080828403905060008312158015613c4b5750838113155b80613c615750600083128015613c6057508381135b5b613cb6576040517f08c379a0000000000000000000000000000000000000000000000000000000008152600401808060200182810382526024815260200180613dc86024913960400191505060405180910390fd5b8091505092915050565b6040518060800160405280600490602082028036833780820191505090505090565b6040518060800160405280600073ffffffffffffffffffffffffffffffffffffffff1681526020016000815260200160008152602001600081525090565b6040518060800160405280600073ffffffffffffffffffffffffffffffffffffffff168152602001600081526020016000815260200160008152509056fe5369676e6564536166654d6174683a206164646974696f6e206f766572666c6f77536166654d6174683a206d756c7469706c69636174696f6e206f766572666c6f775369676e6564536166654d6174683a206d756c7469706c69636174696f6e206f766572666c6f775369676e6564536166654d6174683a207375627472616374696f6e206f766572666c6f77a26469706673582212209ef44eea0009d9b9902911ca9c2026da613c9698ffe07b723cec02d06b010e4c64736f6c63430006080033",
  "immutableReferences": {},
  "source": "// SPDX-License-Identifier: MIT\npragma solidity >=0.6.8 <0.7.0;\n\nimport \"../interfaces/IWrapper.sol\";\nimport \"../interfaces/IFixCapitalPool.sol\";\nimport \"../libraries/SafeMath.sol\";\nimport \"../libraries/SignedSafeMath.sol\";\nimport \"../libraries/ABDKMath64x64.sol\";\nimport \"../libraries/BigMath.sol\";\nimport \"./OrderbookDelegateParent.sol\";\n\ncontract OrderbookDelegate2 is OrderbookDelegateParent {\n\n/*\n\tThis contract cointains functions which attempt to do the impossible given the maximum stack depth allowed by the EVM\n\twhile still attempting to be relatively gas efficient\n\tas a result the functions below will be tough to read, we have to do some assembly magic & such but do not be intimidated\n*/\n\n\t/*\n\t\t@Description: write 4 words consecutively to memory starting at the free memory pointer\n\t\t\twrite to memory with the intent of later returning this 4 words memory slot\n\n\t\t@param word0: the first word to write to memory\n\t\t@param word1: the second word to write to memory\n\t\t@param word2: the third word to write to memory\n\t\t@param word3: the fourth word to write to memory\n\n\t\t@return uint retPtr: return the pointer at which the first word was written\n\t\t\tthis is the free memory pointer at beginning of execution of this function\n\t*/\n\tfunction prepare4WordReturn(\n\t\tuint word0,\n\t\tuint word1,\n\t\tuint word2,\n\t\tuint word3\n\t) internal pure returns(uint retPtr) {\n\t\tassembly {\n\t\t\tretPtr := mload(0x40)\n\t\t\tmstore(retPtr, word0)\n\t\t\tmstore(add(retPtr, 0x20), word1)\n\t\t\tmstore(add(retPtr, 0x40), word2)\n\t\t\tmstore(add(retPtr, 0x60), word3)\n\t\t}\n\t}\n\n\t/*\n\t\t@Description: sell a specific amount of ZCB on the market in order to recive U (an equal amount of ZCB & YT)\n\n\t\t@param uint _amountZCB: the amount of ZCB to sell\n\t\t@param uint _maxMaturityConversionRate: the maximum MCR of the head order to continue selling more ZCB\n\t\t@param uint _maxCumulativeMaturityConversionRate: if this is smaller than the effective MCR based on ZCB in and YT out at end of execution revert\n\t\t@param uint16 _maxIterations: the maximum amount of limit orders to fully fill, important for gas considerations\n\t\t@param bool _useInternalBalances: pass true to ue YieldDeposited and BondDeposited to cover costs and receive payment\n\t\t\totherwise use transferPositionFrom and transferPosition on the baseFCP to get required input and send required output\n\t*/\n\tfunction marketSellZCBtoU(\n\t\tuint _amountZCBInitial,\n\t\tuint _maxMaturityConversionRateInitial,\n\t\tuint _maxCumulativeMaturityConversionRateInitial,\n\t\tuint16 _maxIterationsInitial,\n\t\tbool _useInternalBalancesInitial\n\t) external setRateModifier {\n\t\t/*\n\t\t\tthis function actually returns (uint YTbought, uint ZCBsold, uint newHeadID, uint newHeadAmount)\n\t\t\tbut solidity poorly allocates stack space for return variables so to prevent stack too deep we must\n\t\t\tpretend that we aren't going to return anything then use assembly to avoid allocation\n\t\t\ton the stack and write directly to memory then return\n\t\t*/\n\t\taddress[4] memory vitals;\n\t\tvitals[0] = address(internalWrapper);\n\t\tvitals[1] = address(internalFCP);\n\t\tvitals[2] = address(internalIORC);\n\t\tvitals[3] = IInfoOracle(vitals[2]).TreasuryFeeIsCollected() ? IInfoOracle(vitals[2]).sendTo() : Ownable(vitals[1]).owner();\n\t\treqPriorToPayoutPhase(vitals[1]);\n\t\tclaimContractSubAccountRewards(vitals[0], vitals[1]);\n\t\tuint _amountZCB = _amountZCBInitial;\n\t\tuint _maxMaturityConversionRate = _maxMaturityConversionRateInitial;\n\t\tuint _maxCumulativeMaturityConversionRate = _maxCumulativeMaturityConversionRateInitial;\n\t\tuint16 _maxIterations = _maxIterationsInitial;\n\t\tbool _useInternalBalances = _useInternalBalancesInitial;\n\t\tuint YTbought;\n\t\tuint ZCBsold;\n\t\tuint newHeadID = internalHeadYTSellID;\n\t\tLimitSellYT memory order;\n\t\tuint ratio = IWrapper(vitals[0]).WrappedAmtToUnitAmt_RoundDown(1 ether);\n\t\t/*\n\t\t\tto conserve stack space we must put as much as we can into i,\n\n\t\t\tleast significant 2 bytes: current index\n\t\t\t3rd least significant byte: orderbook fee bips\n\t\t\tthe most significant 29 bytes will store a copy of the memory address of the vitals array\n\t\t*/\n\t\tuint i = uint(IInfoOracle(vitals[2]).getOrderbookFeeBips(vitals[1])) << 16;\n\t\tassembly {\n\t\t\ti := or(i, shl(24, vitals))\n\t\t}\n\t\tfor ( ; uint16(i) < _maxIterations && newHeadID != 0; i++) {\n\t\t\torder = internalYTSells[newHeadID];\n\t\t\tif (order.maturityConversionRate > _maxMaturityConversionRate) {\n\t\t\t\trequire(impliedMaturityConversionRate(ZCBsold, YTbought, ratio) <= _maxCumulativeMaturityConversionRate);\n\t\t\t\t//collect & distribute to taker\n\t\t\t\tmanageCollateral_BuyYT_takeOrder(vitals, msg.sender, ZCBsold, YTbought, ratio, _useInternalBalances);\n\t\t\t\tif (uint16(i) != 0) {\n\t\t\t\t\tinternalHeadYTSellID = newHeadID;\n\t\t\t\t}\n\t\t\t\tuint normalizedZCB = ZCBsold.mul(TOTAL_BASIS_POINTS).div(TOTAL_BASIS_POINTS + ((i >> 16) & 0xff));\n\t\t\t\tuint fee = ZCBsold - normalizedZCB;\n\t\t\t\tfee = fee == 0 ? 0 : fee-1;\n\t\t\t\tmanageCollateral_payFee(vitals, fee, 0);\n\t\t\t\tuint newHeadAmount = order.amount; //copy to stack to prevent getting overwritten with later mstore opcodes\n\t\t\t\tuint retPtr = prepare4WordReturn(YTbought, ZCBsold, newHeadID, newHeadAmount);\n\t\t\t\tassembly{return(retPtr, 0x80)}\n\t\t\t}\n\t\t\tuint unitAmtYTbought = YTbought.mul(ratio) / (1 ether);\n\t\t\t//double name because this variable may be overwritten and have a different use depending on the control flow, prevent stack too deep\n\t\t\t//this variable starts life serving the purpouse of its first name 'orderZCBamt'\n\t\t\tuint orderZCBamt_orderRatio = impliedZCBamount(order.amount, ratio, order.maturityConversionRate);\n\t\t\tuint feeAdjOrderZCBamt = orderZCBamt_orderRatio.mul(TOTAL_BASIS_POINTS + ((i >> 16) & 0xff)) / TOTAL_BASIS_POINTS; //fee adjust\n\t\t\tuint orderUnitYTamt = order.amount.mul(ratio) / (1 ether);\n\t\t\tif (\n\t\t\t\t_amountZCB <= feeAdjOrderZCBamt || \n\t\t\t\torderUnitYTamt.add(unitAmtYTbought) >= _amountZCB - feeAdjOrderZCBamt\n\t\t\t) {\t\n\t\t\t\t//variable takes purpouse of its second name 'orderRatio'\n\t\t\t\torderZCBamt_orderRatio = feeAdjOrderZCBamt.mul(1 ether).div(order.amount); //ratio of ZCB to YT for specific order\n\t\t\t\t/*\n\t\t\t\t\tunitAmtYTbought + unitYTtoBuy == _amountZCB - ZCBtoSell\n\t\t\t\t\tZCBtoSell == YTtoBuy * orderRatio\n\t\t\t\t\tunitYTtoBuy = YTtoBuy * ratio\n\t\t\t\t\tunitAmtYTbought + YTtoBuy*ratio == _amountZCB - YTtoBuy*orderRatio\n\t\t\t\t\tYTtoBuy * (orderRatio + ratio) == _amountZCB - unitAmtYTbought\n\t\t\t\t\tYTtoBuy == (_amountZCB - unitAmtYTbought) / (orderRatio + ratio)\n\t\t\t\t*/\n\t\t\t\tuint copyAmountZCB = _amountZCB; //prevent stack too deep\n\t\t\t\tuint YTtoBuy = copyAmountZCB.sub(unitAmtYTbought).mul(1 ether).div(ratio.add(orderZCBamt_orderRatio));\n\t\t\t\tuint ZCBtoSell = YTtoBuy.mul(orderZCBamt_orderRatio) / (1 ether);\n\t\t\t\tYTtoBuy = YTtoBuy > order.amount ? order.amount : YTtoBuy; //prevent odd case\n\n\t\t\t\tYTbought += YTtoBuy;\n\t\t\t\tZCBsold += ZCBtoSell;\n\n\t\t\t\t{\n\t\t\t\t\taddress[4] memory copyVitals;\n\t\t\t\t\tassembly {\n\t\t\t\t\t\tcopyVitals := shr(24, i)\n\t\t\t\t\t}\n\t\t\t\t\tmanageCollateral_fillYTSell(copyVitals, order.maker, ZCBtoSell.mul(TOTAL_BASIS_POINTS) / (TOTAL_BASIS_POINTS + ((i >> 16) & 0xff)), YTtoBuy, ratio);\n\t\t\t\t}\n\t\t\t\tif (order.amount == YTtoBuy) {\n\t\t\t\t\tinternalHeadYTSellID = order.nextID;\n\t\t\t\t\tdelete internalYTSells[newHeadID];\n\t\t\t\t\tnewHeadID = order.nextID;\n\t\t\t\t\torder.amount = internalYTSells[newHeadID].amount; //overwrite to prevent stack too deep\n\t\t\t\t}\n\t\t\t\telse {\n\t\t\t\t\torder.amount = order.amount - YTtoBuy; // overwrite to prevent stack too deep\n\t\t\t\t\tinternalYTSells[newHeadID].amount = order.amount;\n\t\t\t\t\tinternalHeadYTSellID = newHeadID;\n\t\t\t\t}\n\n\t\t\t\trequire(impliedMaturityConversionRate(ZCBsold, YTbought, ratio) <= _maxCumulativeMaturityConversionRate);\n\t\t\t\t//collect & distribute to taker\n\t\t\t\t{\n\t\t\t\t\tuint normalizedZCB = ZCBsold.mul(TOTAL_BASIS_POINTS);\n\t\t\t\t\tnormalizedZCB = normalizedZCB / (((i >> 16) & 0xff) + TOTAL_BASIS_POINTS);\n\t\t\t\t\tuint fee = ZCBsold - normalizedZCB;\n\t\t\t\t\tfee = fee == 0 ? 0 : fee - 1; //ensure no rounding errors\n\t\t\t\t\taddress[4] memory copyVitals;\n\t\t\t\t\tassembly {\n\t\t\t\t\t\tcopyVitals := shr(24, i)\n\t\t\t\t\t}\n\t\t\t\t\tmanageCollateral_payFee(copyVitals, fee, 0);\n\t\t\t\t}\n\t\t\t\tbool copyUseInternalBalances = _useInternalBalances; // prevent stack too deep\n\t\t\t\tuint copyYTbought = YTbought; // prevent stack too deep;\n\t\t\t\tuint copyZCBsold = ZCBsold; // prevent stack too deep;\n\t\t\t\t{\n\t\t\t\t\tuint copyRatio = ratio; //prevent stack too deep\n\t\t\t\t\taddress[4] memory copyVitals;\n\t\t\t\t\tassembly {\n\t\t\t\t\t\tcopyVitals := shr(24, i)\n\t\t\t\t\t}\n\t\t\t\t\tmanageCollateral_BuyYT_takeOrder(copyVitals, msg.sender, copyZCBsold, copyYTbought, copyRatio, copyUseInternalBalances);\n\t\t\t\t}\n\t\t\t\tuint copyNewHeadID = newHeadID; //prevent stack too deep\n\t\t\t\tuint newHeadAmount = order.amount; //copy to stack to prevent getting overwritten with later mstore opcodes\n\t\t\t\tuint retPtr = prepare4WordReturn(copyYTbought, copyZCBsold, copyNewHeadID, newHeadAmount);\n\t\t\t\tassembly{return(retPtr, 0x80)}\n\t\t\t}\n\t\t\telse {\n\t\t\t\t{\n\t\t\t\t\taddress[4] memory copyVitals;\n\t\t\t\t\tassembly {\n\t\t\t\t\t\tcopyVitals := shr(24, i)\n\t\t\t\t\t}\n\t\t\t\t\tmanageCollateral_fillYTSell(copyVitals, order.maker, orderZCBamt_orderRatio, order.amount, ratio);\n\t\t\t\t}\n\t\t\t\tdelete internalYTSells[newHeadID];\n\n\t\t\t\tZCBsold += feeAdjOrderZCBamt;\n\t\t\t\tYTbought += order.amount;\n\t\t\t\t_amountZCB -= feeAdjOrderZCBamt;\n\t\t\t}\n\t\t\tnewHeadID = order.nextID;\n\t\t}\n\t\trequire(impliedMaturityConversionRate(ZCBsold, YTbought, ratio) <= _maxCumulativeMaturityConversionRate);\n\t\t//collect & distribute to taker\n\t\tuint normalizedZCB = ZCBsold.mul(TOTAL_BASIS_POINTS) / (((i >> 16) & 0xff) + TOTAL_BASIS_POINTS);\n\t\tuint fee = ZCBsold - normalizedZCB;\n\t\tfee = fee == 0 ? 0 : fee - 1; //ensure no rounding errors\n\t\tmanageCollateral_payFee(vitals, fee, 0);\n\t\tmanageCollateral_BuyYT_takeOrder(vitals, msg.sender, ZCBsold, YTbought, ratio, _useInternalBalances);\n\t\tinternalHeadYTSellID = newHeadID;\n\t\tuint newHeadAmount = newHeadID == 0 ? 0 : internalYTSells[newHeadID].amount;\n\t\tuint retPtr = prepare4WordReturn(YTbought, ZCBsold, newHeadID, newHeadAmount);\n\t\tassembly {return(retPtr, 0x80)}\n\t}\n\n\t/*\n\t\t@Description: sell a specific amount of YT on the market in order to receive U (an equal amount of ZCB & YT)\n\n\t\t@param uint _amountYT: the amount of YT to sell\n\t\t@param uint _minMaturityConversionRate: the minimum MCR of the head order to continue selling more YT\n\t\t@param uint _minCumulativeMaturityConversionRate: if this is greater than the effective MCR based on YT in and ZCB out at end of execution revert\n\t\t@param uint16 _maxIterations: the maximum amount of limit orders to fully fill, important for gas considerations\n\t\t@param bool _useInternalBalances: pass true to ue YieldDeposited and BondDeposited to cover costs and receive payment\n\t\t\totherwise use transferPositionFrom and transferPosition on the baseFCP to get required input and send required output\n\t*/\n\tfunction marketSellUnitYTtoU(\n\t\tuint _unitAmountYTInitial,\n\t\tuint _minMaturityConversionRateInitial,\n\t\tuint _minCumulativeMaturityConversionRateInitial,\n\t\tuint16 _maxIterationsInitial,\n\t\tbool _useInternalBalancesInitial\n\t) external setRateModifier {\n\t\t/*\n\t\t\tthis function actually returns (uint ZCBbought, uint YTsold, uint newHeadID, uint newHeadAmount)\n\t\t\tbut solidity poorly allocates stack space for return variables so to prevent stack too deep we must\n\t\t\tpretend that we aren't going to return anything then use assembly to avoid allocation\n\t\t\ton the stack and write directly to memory then return\n\t\t*/\n\t\tuint16 _maxIterations = _maxIterationsInitial;\n\t\taddress[4] memory vitals;\n\t\tvitals[0] = address(internalWrapper);\n\t\tvitals[1] = address(internalFCP);\n\t\tvitals[2] = address(internalIORC);\n\t\tvitals[3] = IInfoOracle(vitals[2]).TreasuryFeeIsCollected() ? IInfoOracle(vitals[2]).sendTo() : Ownable(vitals[1]).owner();\n\t\treqPriorToPayoutPhase(vitals[1]);\n\t\tclaimContractSubAccountRewards(vitals[0], vitals[1]);\n\t\tuint _unitAmountYT = _unitAmountYTInitial;\n\t\tuint _minMaturityConversionRate = _minMaturityConversionRateInitial;\n\t\tuint _minCumulativeMaturityConversionRate = _minCumulativeMaturityConversionRateInitial;\n\t\tbool _useInternalBalances = _useInternalBalancesInitial;\n\t\tuint ZCBbought;\n\t\tuint YTsold;\n\t\tuint newHeadID = internalHeadZCBSellID;\n\t\tLimitSellZCB memory order;\n\t\tuint ratio = IWrapper(vitals[0]).WrappedAmtToUnitAmt_RoundDown(1 ether);\n\t\t/*\n\t\t\tto conserve stack space we must put as much as we can into i,\n\n\t\t\tleast significant 2 bytes: current index\n\t\t\t3rd least significant byte: orderbook fee bips\n\t\t\tthe most significant 29 bytes will store a copy of the memory address of the vitals array\n\t\t*/\n\t\tuint i = uint(IInfoOracle(vitals[2]).getOrderbookFeeBips(vitals[1])) << 16;\n\t\tassembly {\n\t\t\ti := or(i, shl(24, vitals))\n\t\t}\n\t\tfor ( ; uint16(i) < _maxIterations && newHeadID != 0; i++) {\n\t\t\torder = internalZCBSells[newHeadID];\n\t\t\tif (order.maturityConversionRate < _minMaturityConversionRate) {\n\t\t\t\trequire(impliedMaturityConversionRate(ZCBbought, YTsold, ratio) >= _minCumulativeMaturityConversionRate);\n\t\t\t\t//collect & distribute to taker\n\t\t\t\tmanageCollateral_BuyZCB_takeOrder(vitals, msg.sender, ZCBbought, YTsold, ratio, _useInternalBalances);\n\t\t\t\tif (uint16(i) != 0) {\n\t\t\t\t\tinternalHeadZCBSellID = newHeadID;\n\t\t\t\t}\n\t\t\t\tuint normalizedYT = YTsold.mul(TOTAL_BASIS_POINTS).div(((i >> 16) & 0xff) + TOTAL_BASIS_POINTS);\n\t\t\t\tuint fee = YTsold - normalizedYT;\n\t\t\t\tfee = fee == 0 ? 0 : fee - 1; //ensure no rounding errors\n\t\t\t\tmanageCollateral_payFee(vitals, fee, ratio);\n\t\t\t\tuint newHeadAmount = order.amount; //copy to stack to prevent getting overwritten with later mstore opcodes\n\t\t\t\tuint retPtr = prepare4WordReturn(ZCBbought, YTsold, newHeadID, newHeadAmount);\n\t\t\t\tassembly {return(retPtr, 0x80)}\n\t\t\t}\n\t\t\tuint orderYTamt = impliedYTamount(order.amount, ratio, order.maturityConversionRate);\n\t\t\tuint orderFeeAdjUnitYT = (orderYTamt.mul(ratio) / (1 ether)).mul(((i >> 16) & 0xff) + TOTAL_BASIS_POINTS) / TOTAL_BASIS_POINTS;\n\t\t\tif (\n\t\t\t\torderFeeAdjUnitYT >= _unitAmountYT ||\n\t\t\t\tZCBbought.add(order.amount) >= _unitAmountYT - orderFeeAdjUnitYT\n\t\t\t) {\n\t\t\t\tuint orderRatio = order.amount.mul(1 ether).div(orderFeeAdjUnitYT); //ratio of ZCB to unit YT for specific order\n\t\t\t\t/*\n\t\t\t\t\t_unitAmountYT - unitYTtoSell == ZCBbought + ZCBtoBuy\n\t\t\t\t\tZCBtoBuy == unitYTtoSell * orderRatio\n\t\t\t\t\tYTtoSell = unitYTtoSell / ratio\n\n\t\t\t\t\t_unitAmountYT - unitYTtoSell == ZCBbought + unitYTtoSell*orderRatio\n\t\t\t\t\tunitYTtoSell*(orderRatio + 1) == _unitAmountYT - ZCBbought\n\t\t\t\t\tunitYTtoSell == (_unitAmountYT - ZCBbought) / (orderRatio + 1)\n\t\t\t\t*/\n\t\t\t\tuint copyUnitAmtYT = _unitAmountYT; //prevent stack too deep\n\t\t\t\tuint unitYTtoSell = copyUnitAmtYT.sub(ZCBbought).mul(1 ether).div(orderRatio.add(1 ether));\n\t\t\t\tuint YTtoSell = unitYTtoSell.mul(1 ether).div(ratio);\n\t\t\t\tuint ZCBtoBuy = unitYTtoSell.mul(orderRatio) / (1 ether);\n\t\t\t\tZCBtoBuy = ZCBtoBuy > order.amount ? order.amount : ZCBtoBuy; //prevent odd case\n\n\t\t\t\tYTsold += YTtoSell;\n\t\t\t\tZCBbought += ZCBtoBuy;\n\n\t\t\t\t{\n\t\t\t\t\taddress[4] memory copyVitals;\n\t\t\t\t\tassembly {\n\t\t\t\t\t\tcopyVitals := shr(24, i)\n\t\t\t\t\t}\n\t\t\t\t\tmanageCollateral_fillZCBSell(copyVitals, order.maker, YTtoSell.mul(TOTAL_BASIS_POINTS) / (((i >> 16) & 0xff) + TOTAL_BASIS_POINTS), ZCBtoBuy, ratio);\n\t\t\t\t}\n\t\t\t\tif (order.amount == ZCBtoBuy) {\n\t\t\t\t\tinternalHeadZCBSellID = order.nextID;\n\t\t\t\t\tdelete internalZCBSells[newHeadID];\n\t\t\t\t\tnewHeadID = order.nextID;\n\t\t\t\t\torder.amount = internalZCBSells[newHeadID].amount; //overwrite to prevent stack too deep\n\t\t\t\t}\n\t\t\t\telse {\n\t\t\t\t\torder.amount = order.amount - ZCBtoBuy; //overwrite to prevent stack too deep\n\t\t\t\t\tinternalZCBSells[newHeadID].amount = order.amount;\n\t\t\t\t\tinternalHeadZCBSellID = newHeadID;\n\t\t\t\t}\n\n\t\t\t\trequire(impliedMaturityConversionRate(ZCBbought, YTsold, ratio) >= _minCumulativeMaturityConversionRate);\n\t\t\t\t//collect & distribute to taker\n\t\t\t\t{\n\t\t\t\t\tuint normalizedYT = YTsold.mul(TOTAL_BASIS_POINTS);\n\t\t\t\t\tnormalizedYT = normalizedYT / (((i >> 16) & 0xff) + TOTAL_BASIS_POINTS);\n\t\t\t\t\tuint fee = YTsold - normalizedYT;\n\t\t\t\t\tfee = fee == 0 ? 0 : fee - 1; //ensure no rounding errors\n\t\t\t\t\taddress[4] memory copyVitals;\n\t\t\t\t\tassembly {\n\t\t\t\t\t\tcopyVitals := shr(24, i)\n\t\t\t\t\t}\n\t\t\t\t\tmanageCollateral_payFee(copyVitals, fee, ratio);\n\t\t\t\t}\n\t\t\t\tbool copyUseInternalBalances = _useInternalBalances; // prevent stack too deep\n\t\t\t\tuint copyZCBbought = ZCBbought; // prevent stack too deep\n\t\t\t\tuint copyYTsold = YTsold; // prevent stack too deep\n\t\t\t\t{\n\t\t\t\t\tuint copyRatio = ratio; //prevent stack too deep\n\t\t\t\t\taddress[4] memory copyVitals;\n\t\t\t\t\tassembly {\n\t\t\t\t\t\tcopyVitals := shr(24, i)\n\t\t\t\t\t}\n\t\t\t\t\tmanageCollateral_BuyZCB_takeOrder(copyVitals, msg.sender, copyZCBbought, copyYTsold, copyRatio, copyUseInternalBalances);\n\t\t\t\t}\n\t\t\t\tuint copyNewHeadID = newHeadID; //prevent stack too deep\n\t\t\t\tuint newHeadAmount = order.amount; //copy to stack to prevent getting overwritten with later mstore opcodes\n\t\t\t\tuint retPtr = prepare4WordReturn(copyZCBbought, copyYTsold, copyNewHeadID, newHeadAmount);\n\t\t\t\tassembly {return(retPtr, 0x80)}\n\t\t\t}\n\t\t\telse {\n\t\t\t\tmanageCollateral_fillZCBSell(vitals, order.maker, orderYTamt, order.amount, ratio);\n\t\t\t\tdelete internalZCBSells[newHeadID];\n\n\t\t\t\tuint feeAdjOrderYTamt = orderYTamt.mul(((i >> 16) & 0xff) + TOTAL_BASIS_POINTS) / TOTAL_BASIS_POINTS;\n\n\t\t\t\tZCBbought += order.amount;\n\t\t\t\tYTsold += feeAdjOrderYTamt;\n\t\t\t\t_unitAmountYT -= orderFeeAdjUnitYT;\n\t\t\t}\n\t\t\tnewHeadID = order.nextID;\n\t\t}\n\t\trequire(impliedMaturityConversionRate(ZCBbought, YTsold, ratio) >= _minCumulativeMaturityConversionRate);\n\t\t//collect & distribute to taker\n\t\tuint normalizedYT = YTsold.mul(TOTAL_BASIS_POINTS).div(((i >> 16) & 0xff) + TOTAL_BASIS_POINTS);\n\t\tuint fee = YTsold - normalizedYT;\n\t\tfee = fee == 0 ? 0 : fee - 1; //ensure no rounding errors\n\t\tmanageCollateral_payFee(vitals, fee, ratio);\n\t\tmanageCollateral_BuyZCB_takeOrder(vitals, msg.sender, ZCBbought, YTsold, ratio, _useInternalBalances);\n\t\tinternalHeadZCBSellID = newHeadID;\n\t\tuint newHeadAmount = newHeadID == 0 ? 0 : internalZCBSells[newHeadID].amount;\n\t\tuint retPtr = prepare4WordReturn(ZCBbought, YTsold, newHeadID, newHeadAmount);\n\t\tassembly {return(retPtr, 0x80)}\n\t}\n\n}",
  "sourcePath": "/home/asher/FixFinanceV1/contracts/Orderbook/OrderbookDelegate2.sol",
  "compiler": {
    "name": "solc",
    "version": "0.6.8+commit.0bbfe453.Emscripten.clang"
  },
  "schemaVersion": "3.4.1",
  "updatedAt": "2021-11-26T19:15:55.013Z",
  "devdoc": {
    "methods": {}
  },
  "userdoc": {
    "methods": {}
  }
}