{
  "contractName": "Organizer",
  "abi": [
    {
      "inputs": [
        {
          "internalType": "address",
          "name": "_NGBwrapperDeployerAddress",
          "type": "address"
        },
        {
          "internalType": "address",
          "name": "_ZCB_YT_DeployerAddress",
          "type": "address"
        },
        {
          "internalType": "address",
          "name": "_fixCapitalPoolDeployerAddress",
          "type": "address"
        },
        {
          "internalType": "address",
          "name": "_OrderbookDeployerAddress",
          "type": "address"
        },
        {
          "internalType": "address",
          "name": "_QuickDepositorDeployerAddress",
          "type": "address"
        },
        {
          "internalType": "address",
          "name": "_InfoOracleAddress",
          "type": "address"
        }
      ],
      "stateMutability": "nonpayable",
      "type": "constructor"
    },
    {
      "anonymous": false,
      "inputs": [
        {
          "indexed": true,
          "internalType": "address",
          "name": "FCPaddress",
          "type": "address"
        },
        {
          "indexed": true,
          "internalType": "address",
          "name": "BaseWrapperAddress",
          "type": "address"
        },
        {
          "indexed": true,
          "internalType": "address",
          "name": "owner",
          "type": "address"
        },
        {
          "indexed": false,
          "internalType": "uint40",
          "name": "maturity",
          "type": "uint40"
        }
      ],
      "name": "FixCapitalPoolDeployment",
      "type": "event"
    },
    {
      "anonymous": false,
      "inputs": [
        {
          "indexed": true,
          "internalType": "address",
          "name": "OrderbookAddress",
          "type": "address"
        },
        {
          "indexed": true,
          "internalType": "address",
          "name": "BaseFCPaddress",
          "type": "address"
        }
      ],
      "name": "OrderbookDeployment",
      "type": "event"
    },
    {
      "anonymous": false,
      "inputs": [
        {
          "indexed": true,
          "internalType": "address",
          "name": "wrapperAddress",
          "type": "address"
        },
        {
          "indexed": true,
          "internalType": "address",
          "name": "underlyingAddress",
          "type": "address"
        },
        {
          "indexed": true,
          "internalType": "address",
          "name": "owner",
          "type": "address"
        },
        {
          "indexed": false,
          "internalType": "uint256",
          "name": "wrapperType",
          "type": "uint256"
        }
      ],
      "name": "WrapperDeployment",
      "type": "event"
    },
    {
      "inputs": [],
      "name": "FixCapitalPoolDeployerAddress",
      "outputs": [
        {
          "internalType": "address",
          "name": "",
          "type": "address"
        }
      ],
      "stateMutability": "view",
      "type": "function"
    },
    {
      "inputs": [],
      "name": "InfoOracleAddress",
      "outputs": [
        {
          "internalType": "address",
          "name": "",
          "type": "address"
        }
      ],
      "stateMutability": "view",
      "type": "function"
    },
    {
      "inputs": [],
      "name": "NGBwrapperDeployerAddress",
      "outputs": [
        {
          "internalType": "address",
          "name": "",
          "type": "address"
        }
      ],
      "stateMutability": "view",
      "type": "function"
    },
    {
      "inputs": [],
      "name": "OrderbookDeployerAddress",
      "outputs": [
        {
          "internalType": "address",
          "name": "",
          "type": "address"
        }
      ],
      "stateMutability": "view",
      "type": "function"
    },
    {
      "inputs": [
        {
          "internalType": "address",
          "name": "",
          "type": "address"
        }
      ],
      "name": "Orderbooks",
      "outputs": [
        {
          "internalType": "address",
          "name": "",
          "type": "address"
        }
      ],
      "stateMutability": "view",
      "type": "function"
    },
    {
      "inputs": [],
      "name": "QuickDepositorAddress",
      "outputs": [
        {
          "internalType": "address",
          "name": "",
          "type": "address"
        }
      ],
      "stateMutability": "view",
      "type": "function"
    },
    {
      "inputs": [
        {
          "internalType": "uint256",
          "name": "",
          "type": "uint256"
        }
      ],
      "name": "WrapperDeployers",
      "outputs": [
        {
          "internalType": "address",
          "name": "",
          "type": "address"
        }
      ],
      "stateMutability": "view",
      "type": "function"
    },
    {
      "inputs": [],
      "name": "ZCB_YT_DeployerAddress",
      "outputs": [
        {
          "internalType": "address",
          "name": "",
          "type": "address"
        }
      ],
      "stateMutability": "view",
      "type": "function"
    },
    {
      "inputs": [
        {
          "internalType": "address",
          "name": "",
          "type": "address"
        }
      ],
      "name": "fixCapitalPoolToWrapper",
      "outputs": [
        {
          "internalType": "address",
          "name": "",
          "type": "address"
        }
      ],
      "stateMutability": "view",
      "type": "function"
    },
    {
      "inputs": [],
      "name": "owner",
      "outputs": [
        {
          "internalType": "address",
          "name": "",
          "type": "address"
        }
      ],
      "stateMutability": "view",
      "type": "function"
    },
    {
      "inputs": [
        {
          "internalType": "address",
          "name": "newOwner",
          "type": "address"
        }
      ],
      "name": "transferOwnership",
      "outputs": [],
      "stateMutability": "nonpayable",
      "type": "function"
    },
    {
      "inputs": [
        {
          "internalType": "address",
          "name": "",
          "type": "address"
        }
      ],
      "name": "wrapperIsVerified",
      "outputs": [
        {
          "internalType": "bool",
          "name": "",
          "type": "bool"
        }
      ],
      "stateMutability": "view",
      "type": "function"
    },
    {
      "inputs": [
        {
          "internalType": "address",
          "name": "_underlyingAssetAddress",
          "type": "address"
        }
      ],
      "name": "deployNGBWrapper",
      "outputs": [],
      "stateMutability": "nonpayable",
      "type": "function"
    },
    {
      "inputs": [
        {
          "internalType": "uint256",
          "name": "_deployerIndex",
          "type": "uint256"
        },
        {
          "internalType": "address",
          "name": "_underlyingAssetAddress",
          "type": "address"
        }
      ],
      "name": "deployWrapper",
      "outputs": [],
      "stateMutability": "nonpayable",
      "type": "function"
    },
    {
      "inputs": [
        {
          "internalType": "address",
          "name": "_wrapperAddress",
          "type": "address"
        },
        {
          "internalType": "uint40",
          "name": "_maturity",
          "type": "uint40"
        }
      ],
      "name": "deployFixCapitalPoolInstance",
      "outputs": [],
      "stateMutability": "nonpayable",
      "type": "function"
    },
    {
      "inputs": [
        {
          "internalType": "address",
          "name": "_fixCapitalPoolAddress",
          "type": "address"
        }
      ],
      "name": "deployOrderbook",
      "outputs": [],
      "stateMutability": "nonpayable",
      "type": "function"
    },
    {
      "inputs": [
        {
          "internalType": "address",
          "name": "_wrapperAddress",
          "type": "address"
        },
        {
          "internalType": "bool",
          "name": "_setTo",
          "type": "bool"
        }
      ],
      "name": "setVerified",
      "outputs": [],
      "stateMutability": "nonpayable",
      "type": "function"
    },
    {
      "inputs": [
        {
          "internalType": "address",
          "name": "_wrapperDeployerAddress",
          "type": "address"
        }
      ],
      "name": "whitelistWrapperDeployer",
      "outputs": [],
      "stateMutability": "nonpayable",
      "type": "function"
    },
    {
      "inputs": [
        {
          "internalType": "uint256",
          "name": "_index",
          "type": "uint256"
        }
      ],
      "name": "delistWrapperDeployer",
      "outputs": [],
      "stateMutability": "nonpayable",
      "type": "function"
    }
  ],
  "bytecode": "0x608060405234801561001057600080fd5b50604051611dc2380380611dc2833981810160405260c081101561003357600080fd5b81019080805190602001909291908051906020019092919080519060200190929190805190602001909291908051906020019092919080519060200190929190505050336000806101000a81548173ffffffffffffffffffffffffffffffffffffffff021916908373ffffffffffffffffffffffffffffffffffffffff16021790555085600460006101000a81548173ffffffffffffffffffffffffffffffffffffffff021916908373ffffffffffffffffffffffffffffffffffffffff160217905550600a869080600181540180825580915050600190039060005260206000200160009091909190916101000a81548173ffffffffffffffffffffffffffffffffffffffff021916908373ffffffffffffffffffffffffffffffffffffffff16021790555084600560006101000a81548173ffffffffffffffffffffffffffffffffffffffff021916908373ffffffffffffffffffffffffffffffffffffffff16021790555083600660006101000a81548173ffffffffffffffffffffffffffffffffffffffff021916908373ffffffffffffffffffffffffffffffffffffffff16021790555082600760006101000a81548173ffffffffffffffffffffffffffffffffffffffff021916908373ffffffffffffffffffffffffffffffffffffffff1602179055508173ffffffffffffffffffffffffffffffffffffffff16634c96a389306040518263ffffffff1660e01b8152600401808273ffffffffffffffffffffffffffffffffffffffff1673ffffffffffffffffffffffffffffffffffffffff168152602001915050602060405180830381600087803b15801561029c57600080fd5b505af11580156102b0573d6000803e3d6000fd5b505050506040513d60208110156102c657600080fd5b8101908080519060200190929190505050600860006101000a81548173ffffffffffffffffffffffffffffffffffffffff021916908373ffffffffffffffffffffffffffffffffffffffff16021790555080600960006101000a81548173ffffffffffffffffffffffffffffffffffffffff021916908373ffffffffffffffffffffffffffffffffffffffff160217905550505050505050611a558061036d6000396000f3fe608060405234801561001057600080fd5b50600436106101215760003560e01c80638da5cb5b116100ad578063c23c612311610071578063c23c61231461056b578063dc2da858146105af578063e2b37bac14610633578063e8fd4952146106a1578063f2fde38b146106eb57610121565b80638da5cb5b14610415578063967ff1ca1461045f57806399a004a5146104a35780639cf5c613146104d1578063a85cba821461052157610121565b8063521f8d9a116100f4578063521f8d9a146102865780635c7d3c1d146102d05780636c8235cc1461031a578063804ea91d1461036f578063820f7504146103cb57610121565b80631c34d076146101265780632efefa1b146101aa57806330726706146101f457806345e8a2a214610238575b600080fd5b6101686004803603602081101561013c57600080fd5b81019080803573ffffffffffffffffffffffffffffffffffffffff16906020019092919050505061072f565b604051808273ffffffffffffffffffffffffffffffffffffffff1673ffffffffffffffffffffffffffffffffffffffff16815260200191505060405180910390f35b6101b2610762565b604051808273ffffffffffffffffffffffffffffffffffffffff1673ffffffffffffffffffffffffffffffffffffffff16815260200191505060405180910390f35b6102366004803603602081101561020a57600080fd5b81019080803573ffffffffffffffffffffffffffffffffffffffff169060200190929190505050610788565b005b6102846004803603604081101561024e57600080fd5b8101908080359060200190929190803573ffffffffffffffffffffffffffffffffffffffff1690602001909291905050506109dc565b005b61028e610ce4565b604051808273ffffffffffffffffffffffffffffffffffffffff1673ffffffffffffffffffffffffffffffffffffffff16815260200191505060405180910390f35b6102d8610d0a565b604051808273ffffffffffffffffffffffffffffffffffffffff1673ffffffffffffffffffffffffffffffffffffffff16815260200191505060405180910390f35b61036d6004803603604081101561033057600080fd5b81019080803573ffffffffffffffffffffffffffffffffffffffff169060200190929190803564ffffffffff169060200190929190505050610d30565b005b6103b16004803603602081101561038557600080fd5b81019080803573ffffffffffffffffffffffffffffffffffffffff169060200190929190505050611136565b604051808215151515815260200191505060405180910390f35b6103d3611156565b604051808273ffffffffffffffffffffffffffffffffffffffff1673ffffffffffffffffffffffffffffffffffffffff16815260200191505060405180910390f35b61041d61117c565b604051808273ffffffffffffffffffffffffffffffffffffffff1673ffffffffffffffffffffffffffffffffffffffff16815260200191505060405180910390f35b6104a16004803603602081101561047557600080fd5b81019080803573ffffffffffffffffffffffffffffffffffffffff1690602001909291905050506111a1565b005b6104cf600480360360208110156104b957600080fd5b810190808035906020019092919050505061138e565b005b61051f600480360360408110156104e757600080fd5b81019080803573ffffffffffffffffffffffffffffffffffffffff1690602001909291908035151590602001909291905050506114bb565b005b6105296115d8565b604051808273ffffffffffffffffffffffffffffffffffffffff1673ffffffffffffffffffffffffffffffffffffffff16815260200191505060405180910390f35b6105ad6004803603602081101561058157600080fd5b81019080803573ffffffffffffffffffffffffffffffffffffffff1690602001909291905050506115fe565b005b6105f1600480360360208110156105c557600080fd5b81019080803573ffffffffffffffffffffffffffffffffffffffff169060200190929190505050611800565b604051808273ffffffffffffffffffffffffffffffffffffffff1673ffffffffffffffffffffffffffffffffffffffff16815260200191505060405180910390f35b61065f6004803603602081101561064957600080fd5b8101908080359060200190929190505050611833565b604051808273ffffffffffffffffffffffffffffffffffffffff1673ffffffffffffffffffffffffffffffffffffffff16815260200191505060405180910390f35b6106a961186f565b604051808273ffffffffffffffffffffffffffffffffffffffff1673ffffffffffffffffffffffffffffffffffffffff16815260200191505060405180910390f35b61072d6004803603602081101561070157600080fd5b81019080803573ffffffffffffffffffffffffffffffffffffffff169060200190929190505050611895565b005b60016020528060005260406000206000915054906101000a900473ffffffffffffffffffffffffffffffffffffffff1681565b600460009054906101000a900473ffffffffffffffffffffffffffffffffffffffff1681565b600073ffffffffffffffffffffffffffffffffffffffff16600260008373ffffffffffffffffffffffffffffffffffffffff1673ffffffffffffffffffffffffffffffffffffffff16815260200190815260200160002060009054906101000a900473ffffffffffffffffffffffffffffffffffffffff1673ffffffffffffffffffffffffffffffffffffffff161461082057600080fd5b6000600760009054906101000a900473ffffffffffffffffffffffffffffffffffffffff1673ffffffffffffffffffffffffffffffffffffffff16634c96a389836040518263ffffffff1660e01b8152600401808273ffffffffffffffffffffffffffffffffffffffff1673ffffffffffffffffffffffffffffffffffffffff168152602001915050602060405180830381600087803b1580156108c357600080fd5b505af11580156108d7573d6000803e3d6000fd5b505050506040513d60208110156108ed57600080fd5b8101908080519060200190929190505050905080600260008473ffffffffffffffffffffffffffffffffffffffff1673ffffffffffffffffffffffffffffffffffffffff16815260200190815260200160002060006101000a81548173ffffffffffffffffffffffffffffffffffffffff021916908373ffffffffffffffffffffffffffffffffffffffff1602179055508173ffffffffffffffffffffffffffffffffffffffff168173ffffffffffffffffffffffffffffffffffffffff167f87313c624c10924379aa25ab86fdaf7cbd59d26647ec49e899432afdba5868bd60405160405180910390a35050565b81600a8054905011610a56576040517f08c379a000000000000000000000000000000000000000000000000000000000815260040180806020018281038252601e8152602001807f696e76616c696420577261707065724465706c6f7965727320696e646578000081525060200191505060405180910390fd5b6000600a8381548110610a6557fe5b9060005260206000200160009054906101000a900473ffffffffffffffffffffffffffffffffffffffff169050600073ffffffffffffffffffffffffffffffffffffffff168173ffffffffffffffffffffffffffffffffffffffff161415610b18576040517f08c379a000000000000000000000000000000000000000000000000000000000815260040180806020018281038252602a8152602001806119f6602a913960400191505060405180910390fd5b60008173ffffffffffffffffffffffffffffffffffffffff1663545e7c6184336040518363ffffffff1660e01b8152600401808373ffffffffffffffffffffffffffffffffffffffff1673ffffffffffffffffffffffffffffffffffffffff1681526020018273ffffffffffffffffffffffffffffffffffffffff1673ffffffffffffffffffffffffffffffffffffffff16815260200192505050602060405180830381600087803b158015610bcd57600080fd5b505af1158015610be1573d6000803e3d6000fd5b505050506040513d6020811015610bf757600080fd5b810190808051906020019092919050505090506001600360008373ffffffffffffffffffffffffffffffffffffffff1673ffffffffffffffffffffffffffffffffffffffff16815260200190815260200160002060006101000a81548160ff0219169083151502179055503373ffffffffffffffffffffffffffffffffffffffff168373ffffffffffffffffffffffffffffffffffffffff168273ffffffffffffffffffffffffffffffffffffffff167f1e33c5e4da9b8d2668a501eda3f1f14fa3f6f8e8bff361948b91fd28ee143be2876040518082815260200191505060405180910390a450505050565b600960009054906101000a900473ffffffffffffffffffffffffffffffffffffffff1681565b600760009054906101000a900473ffffffffffffffffffffffffffffffffffffffff1681565b62093a8042018164ffffffffff1611610d94576040517f08c379a00000000000000000000000000000000000000000000000000000000081526004018080602001828103825260268152602001806119d06026913960400191505060405180910390fd5b600360008373ffffffffffffffffffffffffffffffffffffffff1673ffffffffffffffffffffffffffffffffffffffff16815260200190815260200160002060009054906101000a900460ff16610e53576040517f08c379a000000000000000000000000000000000000000000000000000000000815260040180806020018281038252601d8152602001807f626173652077726170706572206d75737420626520766572696669656400000081525060200191505060405180910390fd5b6000600660009054906101000a900473ffffffffffffffffffffffffffffffffffffffff1673ffffffffffffffffffffffffffffffffffffffff1663af4d0be68484600560009054906101000a900473ffffffffffffffffffffffffffffffffffffffff1633600960009054906101000a900473ffffffffffffffffffffffffffffffffffffffff166040518663ffffffff1660e01b8152600401808673ffffffffffffffffffffffffffffffffffffffff1673ffffffffffffffffffffffffffffffffffffffff1681526020018564ffffffffff1664ffffffffff1681526020018473ffffffffffffffffffffffffffffffffffffffff1673ffffffffffffffffffffffffffffffffffffffff1681526020018373ffffffffffffffffffffffffffffffffffffffff1673ffffffffffffffffffffffffffffffffffffffff1681526020018273ffffffffffffffffffffffffffffffffffffffff1673ffffffffffffffffffffffffffffffffffffffff16815260200195505050505050602060405180830381600087803b158015610fec57600080fd5b505af1158015611000573d6000803e3d6000fd5b505050506040513d602081101561101657600080fd5b810190808051906020019092919050505090503373ffffffffffffffffffffffffffffffffffffffff168373ffffffffffffffffffffffffffffffffffffffff168273ffffffffffffffffffffffffffffffffffffffff167fb3a714d4b827cc05821042f4c9d771839bc296f32dc890fbef3a6ace8d09dd0b85604051808264ffffffffff1664ffffffffff16815260200191505060405180910390a482600160008373ffffffffffffffffffffffffffffffffffffffff1673ffffffffffffffffffffffffffffffffffffffff16815260200190815260200160002060006101000a81548173ffffffffffffffffffffffffffffffffffffffff021916908373ffffffffffffffffffffffffffffffffffffffff160217905550505050565b60036020528060005260406000206000915054906101000a900460ff1681565b600560009054906101000a900473ffffffffffffffffffffffffffffffffffffffff1681565b6000809054906101000a900473ffffffffffffffffffffffffffffffffffffffff1681565b6000600460009054906101000a900473ffffffffffffffffffffffffffffffffffffffff1673ffffffffffffffffffffffffffffffffffffffff1663545e7c6183336040518363ffffffff1660e01b8152600401808373ffffffffffffffffffffffffffffffffffffffff1673ffffffffffffffffffffffffffffffffffffffff1681526020018273ffffffffffffffffffffffffffffffffffffffff1673ffffffffffffffffffffffffffffffffffffffff16815260200192505050602060405180830381600087803b15801561127857600080fd5b505af115801561128c573d6000803e3d6000fd5b505050506040513d60208110156112a257600080fd5b810190808051906020019092919050505090506001600360008373ffffffffffffffffffffffffffffffffffffffff1673ffffffffffffffffffffffffffffffffffffffff16815260200190815260200160002060006101000a81548160ff0219169083151502179055503373ffffffffffffffffffffffffffffffffffffffff168273ffffffffffffffffffffffffffffffffffffffff168273ffffffffffffffffffffffffffffffffffffffff167f1e33c5e4da9b8d2668a501eda3f1f14fa3f6f8e8bff361948b91fd28ee143be260006040518082815260200191505060405180910390a45050565b6000809054906101000a900473ffffffffffffffffffffffffffffffffffffffff1673ffffffffffffffffffffffffffffffffffffffff163373ffffffffffffffffffffffffffffffffffffffff1614611450576040517f08c379a000000000000000000000000000000000000000000000000000000000815260040180806020018281038252600a8152602001807f6f6e6c79206f776e65720000000000000000000000000000000000000000000081525060200191505060405180910390fd5b80600a805490501161146157600080fd5b6000600a828154811061147057fe5b9060005260206000200160006101000a81548173ffffffffffffffffffffffffffffffffffffffff021916908373ffffffffffffffffffffffffffffffffffffffff16021790555050565b6000809054906101000a900473ffffffffffffffffffffffffffffffffffffffff1673ffffffffffffffffffffffffffffffffffffffff163373ffffffffffffffffffffffffffffffffffffffff161461157d576040517f08c379a000000000000000000000000000000000000000000000000000000000815260040180806020018281038252600a8152602001807f6f6e6c79206f776e65720000000000000000000000000000000000000000000081525060200191505060405180910390fd5b80600360008473ffffffffffffffffffffffffffffffffffffffff1673ffffffffffffffffffffffffffffffffffffffff16815260200190815260200160002060006101000a81548160ff0219169083151502179055505050565b600860009054906101000a900473ffffffffffffffffffffffffffffffffffffffff1681565b6000809054906101000a900473ffffffffffffffffffffffffffffffffffffffff1673ffffffffffffffffffffffffffffffffffffffff163373ffffffffffffffffffffffffffffffffffffffff16146116c0576040517f08c379a000000000000000000000000000000000000000000000000000000000815260040180806020018281038252600a8152602001807f6f6e6c79206f776e65720000000000000000000000000000000000000000000081525060200191505060405180910390fd5b600960009054906101000a900473ffffffffffffffffffffffffffffffffffffffff1673ffffffffffffffffffffffffffffffffffffffff168173ffffffffffffffffffffffffffffffffffffffff1663521f8d9a6040518163ffffffff1660e01b815260040160206040518083038186803b15801561173f57600080fd5b505afa158015611753573d6000803e3d6000fd5b505050506040513d602081101561176957600080fd5b810190808051906020019092919050505073ffffffffffffffffffffffffffffffffffffffff161461179a57600080fd5b600a819080600181540180825580915050600190039060005260206000200160009091909190916101000a81548173ffffffffffffffffffffffffffffffffffffffff021916908373ffffffffffffffffffffffffffffffffffffffff16021790555050565b60026020528060005260406000206000915054906101000a900473ffffffffffffffffffffffffffffffffffffffff1681565b600a818154811061184057fe5b906000526020600020016000915054906101000a900473ffffffffffffffffffffffffffffffffffffffff1681565b600660009054906101000a900473ffffffffffffffffffffffffffffffffffffffff1681565b6000809054906101000a900473ffffffffffffffffffffffffffffffffffffffff1673ffffffffffffffffffffffffffffffffffffffff163373ffffffffffffffffffffffffffffffffffffffff1614611957576040517f08c379a000000000000000000000000000000000000000000000000000000000815260040180806020018281038252600a8152602001807f6f6e6c79206f776e65720000000000000000000000000000000000000000000081525060200191505060405180910390fd5b600073ffffffffffffffffffffffffffffffffffffffff168173ffffffffffffffffffffffffffffffffffffffff16146119cc57806000806101000a81548173ffffffffffffffffffffffffffffffffffffffff021916908373ffffffffffffffffffffffffffffffffffffffff1602179055505b5056fe6d61747572697479206d757374206265206174206c656173742031207765656b73206177617953656c656374656420577261707065724465706c6f79657220686173206265656e2064656c6973746564a2646970667358221220cbabb9e30d96a0509ddce95868f8e109457500ce1c015e2b72fa0edc3f8e27b064736f6c63430006080033",
  "immutableReferences": {},
  "source": "// SPDX-License-Identifier: MIT\npragma solidity >=0.6.8 <0.7.0;\nimport \"./interfaces/IOrganizer.sol\";\nimport \"./interfaces/IWrapperDeployer.sol\";\nimport \"./FixCapitalPool/FixCapitalPoolDeployer.sol\";\nimport \"./QuickDepositor/QuickDepositorDeployer.sol\";\nimport \"./Orderbook/OrderbookDeployer.sol\";\nimport \"./helpers/Ownable.sol\";\nimport \"./InfoOracle.sol\";\n\ncontract Organizer is Ownable, IOrganizer {\n\t//acts as a whitelist for fixCapitalPools that were deployed using this organiser\n\tmapping(address => address) public override fixCapitalPoolToWrapper;\n\t//FixCapitalPool => Orderbook address\n\tmapping(address => address) public override Orderbooks;\n\t//IWrapper => isVerified\n\tmapping(address => bool) public override wrapperIsVerified;\n\n\taddress public override NGBwrapperDeployerAddress;\n\taddress public override ZCB_YT_DeployerAddress;\n\taddress public override FixCapitalPoolDeployerAddress;\n\taddress public override OrderbookDeployerAddress;\n\taddress public override QuickDepositorAddress;\n\taddress public override InfoOracleAddress;\n\n\taddress[] public override WrapperDeployers;\n\n\t/*\n\t\tinit\n\t*/\n\tconstructor (\n\t\taddress _NGBwrapperDeployerAddress,\n\t\taddress _ZCB_YT_DeployerAddress,\n\t\taddress _fixCapitalPoolDeployerAddress,\n\t\taddress _OrderbookDeployerAddress,\n\t\taddress _QuickDepositorDeployerAddress,\n\t\taddress _InfoOracleAddress\n\t) public {\n\t\tNGBwrapperDeployerAddress = _NGBwrapperDeployerAddress;\n\t\tWrapperDeployers.push(_NGBwrapperDeployerAddress);\n\t\tZCB_YT_DeployerAddress = _ZCB_YT_DeployerAddress;\t\n\t\tFixCapitalPoolDeployerAddress = _fixCapitalPoolDeployerAddress;\n\t\tOrderbookDeployerAddress = _OrderbookDeployerAddress;\n\t\tQuickDepositorAddress = QuickDepositorDeployer(_QuickDepositorDeployerAddress).deploy(address(this));\n\t\tInfoOracleAddress = _InfoOracleAddress;\n\t}\n\n\t/*\n\t\t@Description: deploy a new NGBwrapper and transfer ownership to msg.sender\n\t\t\n\t\t@param address _underlyingAssetAddress: the NGB asset for which to deploy an NGBwrapper\n\t*/\n\tfunction deployNGBWrapper(address _underlyingAssetAddress) external override {\n\t\taddress wrapperAddress = IWrapperDeployer(NGBwrapperDeployerAddress).deploy(_underlyingAssetAddress, msg.sender);\n\t\twrapperIsVerified[wrapperAddress] = true;\n\t\temit WrapperDeployment(wrapperAddress, _underlyingAssetAddress, msg.sender, 0);\n\t}\n\n\t/*\n\t\t@Description: deploy a new IWrapper contract from a specific IWrapperDeployer contract\n\t\t\ttransfer ownership to msg.sender\n\n\t\t@param uint _deployerIndex: the index of the IWrapperDeployer contract within the WrapperDeployers array\n\t\t@param address _underlyingAssetAddress: the underlying asset for which to deploy a wrapper\n\t*/\n\tfunction deployWrapper(uint _deployerIndex, address _underlyingAssetAddress) external override {\n\t\trequire(WrapperDeployers.length > _deployerIndex, \"invalid WrapperDeployers index\");\n\t\taddress deployerAddress = WrapperDeployers[_deployerIndex];\n\t\trequire(deployerAddress != address(0), \"Selected WrapperDeployer has been delisted\");\n\t\taddress wrapperAddress = IWrapperDeployer(deployerAddress).deploy(_underlyingAssetAddress, msg.sender);\n\t\twrapperIsVerified[wrapperAddress] = true;\n\t\temit WrapperDeployment(wrapperAddress, _underlyingAssetAddress, msg.sender, _deployerIndex);\n\t}\n\n\n\t/*\n\t\t@Description: deploy a new FixCapitalPool instance, whitelist it in fixCapitalPoolToWrapper mapping\n\n\t\t@param address _wrapperAddress: the address of the IWrapper for which to deploy the FixCapitalPool\n\t\t@param uint40 _maturity: the maturity of the new FixCapitalPool to deploy\n\t*/\n\tfunction deployFixCapitalPoolInstance(address _wrapperAddress, uint40 _maturity) external override {\n\t\trequire(_maturity > block.timestamp+(1 weeks), \"maturity must be at least 1 weeks away\");\n\t\trequire(wrapperIsVerified[_wrapperAddress], \"base wrapper must be verified\");\n\t\taddress fixCapitalPoolAddress = FixCapitalPoolDeployer(FixCapitalPoolDeployerAddress).deploy(\n\t\t\t_wrapperAddress,\n\t\t\t_maturity,\n\t\t\tZCB_YT_DeployerAddress,\n\t\t\tmsg.sender,\n\t\t\tInfoOracleAddress\n\t\t);\n\t\temit FixCapitalPoolDeployment(fixCapitalPoolAddress, _wrapperAddress, msg.sender, _maturity);\n\t\tfixCapitalPoolToWrapper[fixCapitalPoolAddress] = _wrapperAddress;\n\t}\n\n\t/*\n\t\t@Description: deploy an OrderbookExchange contract\n\t\t\tonly one orderbook exchange can be deployed for a specific FCP contract\n\n\t\t@param address _fixCapitalPoolAddress: the address of the FixCapitalPool for which to deploy an OrderbookExchange contract\n\t*/\n\tfunction deployOrderbook(address _fixCapitalPoolAddress) external override {\n\t\trequire(Orderbooks[_fixCapitalPoolAddress] == address(0));\n\t\taddress orderbookAddr = OrderbookDeployer(OrderbookDeployerAddress).deploy(_fixCapitalPoolAddress);\n\t\tOrderbooks[_fixCapitalPoolAddress] = orderbookAddr;\n\t\temit OrderbookDeployment(orderbookAddr, _fixCapitalPoolAddress);\n\t}\n\n\t//-----------------------------a-d-m-i-n-----------------------------\n\n\t/*\n\t\t@Description: owner of this contract may override is verified for a specific address\n\t\t\tthis is useful in the case that a unique IWrapper contract that is not an NGBwrapper\n\t\t\tis deployed and qualifys to be verified or if the underlying asset behind a verified\n\t\t\tIWrapper is shown to contain malicious code\n\n\t\t@param address _wrapperAddress: the addres of the IWrapper contract for which to set isVerified\n\t\t@param bool _setTo: true to verify wrapper, false to unverify wrapper\n\t*/\n\tfunction setVerified(address _wrapperAddress, bool _setTo) external override onlyOwner {\n\t\twrapperIsVerified[_wrapperAddress] = _setTo;\n\t}\n\n\t/*\n\t\t@Description: whitelist an IWrapperDeployer contract to deploy new wrapper contracts that shall be whitelisted\n\n\t\t@param address _wrapperDeployerAddress: the address of the IWrapperDeployer contract to whitelist\n\t*/\n\tfunction whitelistWrapperDeployer(address _wrapperDeployerAddress) external override onlyOwner {\n\t\trequire(IWrapperDeployer(_wrapperDeployerAddress).InfoOracleAddress() == InfoOracleAddress);\n\t\tWrapperDeployers.push(_wrapperDeployerAddress);\n\t}\n\n\t/*\n\t\t@Description: revoke whitelist status of an IWrapperDeployer contract\n\n\t\t@param uint _index: the index within the WrapperDeployers array at which the IWrapperDeployer to delist is located\n\t*/\n\tfunction delistWrapperDeployer(uint _index) external override onlyOwner {\n\t\trequire(WrapperDeployers.length > _index);\n\t\tWrapperDeployers[_index] = address(0);\n\t}\n}\n",
  "sourcePath": "/home/asher/FixFinanceV1/contracts/Organizer.sol",
  "compiler": {
    "name": "solc",
    "version": "0.6.8+commit.0bbfe453.Emscripten.clang"
  },
  "schemaVersion": "3.4.1",
  "updatedAt": "2021-11-26T19:15:55.169Z",
  "devdoc": {
    "methods": {}
  },
  "userdoc": {
    "methods": {}
  }
}