{
  "contractName": "QuickDepositor",
  "abi": [
    {
      "inputs": [
        {
          "internalType": "address",
          "name": "_organizerAddress",
          "type": "address"
        }
      ],
      "stateMutability": "nonpayable",
      "type": "constructor"
    },
    {
      "inputs": [
        {
          "internalType": "address",
          "name": "_fixCapitalPoolAddress",
          "type": "address"
        },
        {
          "internalType": "uint256",
          "name": "_amountUnderlying",
          "type": "uint256"
        }
      ],
      "name": "FastDepositUnderlying",
      "outputs": [
        {
          "internalType": "uint256",
          "name": "wrappedDeposit",
          "type": "uint256"
        },
        {
          "internalType": "uint256",
          "name": "dynamicDeposit",
          "type": "uint256"
        }
      ],
      "stateMutability": "nonpayable",
      "type": "function"
    },
    {
      "inputs": [
        {
          "internalType": "address",
          "name": "_fixCapitalPoolAddress",
          "type": "address"
        },
        {
          "internalType": "uint256",
          "name": "_amountUnderlying",
          "type": "uint256"
        },
        {
          "internalType": "uint256",
          "name": "_minMaturityConversionRate",
          "type": "uint256"
        },
        {
          "internalType": "uint256",
          "name": "_minCumulativeMaturityConversionRate",
          "type": "uint256"
        },
        {
          "internalType": "uint16",
          "name": "_maxIterations",
          "type": "uint16"
        }
      ],
      "name": "UnderlyingToZCB",
      "outputs": [
        {
          "internalType": "uint256",
          "name": "yield",
          "type": "uint256"
        },
        {
          "internalType": "int256",
          "name": "bond",
          "type": "int256"
        }
      ],
      "stateMutability": "nonpayable",
      "type": "function"
    },
    {
      "inputs": [
        {
          "internalType": "address",
          "name": "_fixCapitalPoolAddress",
          "type": "address"
        },
        {
          "internalType": "uint256",
          "name": "_amountUnderlying",
          "type": "uint256"
        },
        {
          "internalType": "uint256",
          "name": "_maxMaturityConversionRate",
          "type": "uint256"
        },
        {
          "internalType": "uint256",
          "name": "_maxCumulativeMaturityConversionRate",
          "type": "uint256"
        },
        {
          "internalType": "uint16",
          "name": "_maxIterations",
          "type": "uint16"
        }
      ],
      "name": "UnderlyingToYT",
      "outputs": [
        {
          "internalType": "uint256",
          "name": "yield",
          "type": "uint256"
        },
        {
          "internalType": "int256",
          "name": "bond",
          "type": "int256"
        }
      ],
      "stateMutability": "nonpayable",
      "type": "function"
    }
  ],
  "bytecode": "0x608060405234801561001057600080fd5b506040516117293803806117298339818101604052602081101561003357600080fd5b8101908080519060200190929190505050806000806101000a81548173ffffffffffffffffffffffffffffffffffffffff021916908373ffffffffffffffffffffffffffffffffffffffff16021790555050611695806100946000396000f3fe608060405234801561001057600080fd5b50600436106100415760003560e01c806325249ceb14610046578063cf6b0226146100d1578063fc34af961461015c575b600080fd5b6100b4600480360360a081101561005c57600080fd5b81019080803573ffffffffffffffffffffffffffffffffffffffff169060200190929190803590602001909291908035906020019092919080359060200190929190803561ffff1690602001909291905050506101c5565b604051808381526020018281526020019250505060405180910390f35b61013f600480360360a08110156100e757600080fd5b81019080803573ffffffffffffffffffffffffffffffffffffffff169060200190929190803590602001909291908035906020019092919080359060200190929190803561ffff1690602001909291905050506105b6565b604051808381526020018281526020019250505060405180910390f35b6101a86004803603604081101561017257600080fd5b81019080803573ffffffffffffffffffffffffffffffffffffffff169060200190929190803590602001909291905050506109a7565b604051808381526020018281526020019250505060405180910390f35b60008060006101d53089896109c4565b91505060008060009054906101000a900473ffffffffffffffffffffffffffffffffffffffff1673ffffffffffffffffffffffffffffffffffffffff1663dc2da8588a6040518263ffffffff1660e01b8152600401808273ffffffffffffffffffffffffffffffffffffffff1673ffffffffffffffffffffffffffffffffffffffff16815260200191505060206040518083038186803b15801561027857600080fd5b505afa15801561028c573d6000803e3d6000fd5b505050506040513d60208110156102a257600080fd5b810190808051906020019092919050505090508073ffffffffffffffffffffffffffffffffffffffff16632c7e2e176102e661100085610e1790919063ffffffff16565b89898960006040518663ffffffff1660e01b8152600401808681526020018581526020018481526020018361ffff1661ffff16815260200182151515158152602001955050505050506040805180830381600087803b15801561034857600080fd5b505af115801561035c573d6000803e3d6000fd5b505050506040513d604081101561037257600080fd5b81019080805190602001909291908051906020019092919050505050508873ffffffffffffffffffffffffffffffffffffffff1663bfd5105f306040518263ffffffff1660e01b8152600401808273ffffffffffffffffffffffffffffffffffffffff1673ffffffffffffffffffffffffffffffffffffffff16815260200191505060206040518083038186803b15801561040c57600080fd5b505afa158015610420573d6000803e3d6000fd5b505050506040513d602081101561043657600080fd5b810190808051906020019092919050505093508873ffffffffffffffffffffffffffffffffffffffff1663bf0994bf306040518263ffffffff1660e01b8152600401808273ffffffffffffffffffffffffffffffffffffffff1673ffffffffffffffffffffffffffffffffffffffff16815260200191505060206040518083038186803b1580156104c657600080fd5b505afa1580156104da573d6000803e3d6000fd5b505050506040513d60208110156104f057600080fd5b810190808051906020019092919050505092508873ffffffffffffffffffffffffffffffffffffffff16636a68d0c33386866040518463ffffffff1660e01b8152600401808473ffffffffffffffffffffffffffffffffffffffff1673ffffffffffffffffffffffffffffffffffffffff1681526020018381526020018281526020019350505050600060405180830381600087803b15801561059257600080fd5b505af11580156105a6573d6000803e3d6000fd5b5050505050509550959350505050565b60008060006105c63089896109c4565b50905060008060009054906101000a900473ffffffffffffffffffffffffffffffffffffffff1673ffffffffffffffffffffffffffffffffffffffff1663dc2da8588a6040518263ffffffff1660e01b8152600401808273ffffffffffffffffffffffffffffffffffffffff1673ffffffffffffffffffffffffffffffffffffffff16815260200191505060206040518083038186803b15801561066957600080fd5b505afa15801561067d573d6000803e3d6000fd5b505050506040513d602081101561069357600080fd5b810190808051906020019092919050505090508073ffffffffffffffffffffffffffffffffffffffff16638b2c19d96106d761100085610e1790919063ffffffff16565b89898960006040518663ffffffff1660e01b8152600401808681526020018581526020018481526020018361ffff1661ffff16815260200182151515158152602001955050505050506040805180830381600087803b15801561073957600080fd5b505af115801561074d573d6000803e3d6000fd5b505050506040513d604081101561076357600080fd5b81019080805190602001909291908051906020019092919050505050508873ffffffffffffffffffffffffffffffffffffffff1663bfd5105f306040518263ffffffff1660e01b8152600401808273ffffffffffffffffffffffffffffffffffffffff1673ffffffffffffffffffffffffffffffffffffffff16815260200191505060206040518083038186803b1580156107fd57600080fd5b505afa158015610811573d6000803e3d6000fd5b505050506040513d602081101561082757600080fd5b810190808051906020019092919050505093508873ffffffffffffffffffffffffffffffffffffffff1663bf0994bf306040518263ffffffff1660e01b8152600401808273ffffffffffffffffffffffffffffffffffffffff1673ffffffffffffffffffffffffffffffffffffffff16815260200191505060206040518083038186803b1580156108b757600080fd5b505afa1580156108cb573d6000803e3d6000fd5b505050506040513d60208110156108e157600080fd5b810190808051906020019092919050505092508873ffffffffffffffffffffffffffffffffffffffff16636a68d0c33386866040518463ffffffff1660e01b8152600401808473ffffffffffffffffffffffffffffffffffffffff1673ffffffffffffffffffffffffffffffffffffffff1681526020018381526020018281526020019350505050600060405180830381600087803b15801561098357600080fd5b505af1158015610997573d6000803e3d6000fd5b5050505050509550959350505050565b6000806109b53385856109c4565b80925081935050509250929050565b60008060008473ffffffffffffffffffffffffffffffffffffffff1663ac210cc76040518163ffffffff1660e01b815260040160206040518083038186803b158015610a0f57600080fd5b505afa158015610a23573d6000803e3d6000fd5b505050506040513d6020811015610a3957600080fd5b8101908080519060200190929190505050905060008573ffffffffffffffffffffffffffffffffffffffff166389d1a0fc6040518163ffffffff1660e01b815260040160206040518083038186803b158015610a9457600080fd5b505afa158015610aa8573d6000803e3d6000fd5b505050506040513d6020811015610abe57600080fd5b81019080805190602001909291905050509050610afe3330878473ffffffffffffffffffffffffffffffffffffffff16610e61909392919063ffffffff16565b610b2982868373ffffffffffffffffffffffffffffffffffffffff16610f4e9092919063ffffffff16565b8173ffffffffffffffffffffffffffffffffffffffff166388c4ea7c6040518163ffffffff1660e01b815260040160206040518083038186803b158015610b6f57600080fd5b505afa158015610b83573d6000803e3d6000fd5b505050506040513d6020811015610b9957600080fd5b810190808051906020019092919050505015610c7b578173ffffffffffffffffffffffffffffffffffffffff1663db0c15f130876040518363ffffffff1660e01b8152600401808373ffffffffffffffffffffffffffffffffffffffff1673ffffffffffffffffffffffffffffffffffffffff16815260200182815260200192505050602060405180830381600087803b158015610c3657600080fd5b505af1158015610c4a573d6000803e3d6000fd5b505050506040513d6020811015610c6057600080fd5b81019080805190602001909291905050509250849350610d43565b8173ffffffffffffffffffffffffffffffffffffffff16632f50846630876040518363ffffffff1660e01b8152600401808373ffffffffffffffffffffffffffffffffffffffff1673ffffffffffffffffffffffffffffffffffffffff16815260200182815260200192505050602060405180830381600087803b158015610d0257600080fd5b505af1158015610d16573d6000803e3d6000fd5b505050506040513d6020811015610d2c57600080fd5b810190808051906020019092919050505093508492505b610d6e86858473ffffffffffffffffffffffffffffffffffffffff16610f4e9092919063ffffffff16565b8573ffffffffffffffffffffffffffffffffffffffff166350939c0e88866040518363ffffffff1660e01b8152600401808373ffffffffffffffffffffffffffffffffffffffff1673ffffffffffffffffffffffffffffffffffffffff16815260200182815260200192505050600060405180830381600087803b158015610df557600080fd5b505af1158015610e09573d6000803e3d6000fd5b505050505050935093915050565b6000610e5983836040518060400160405280601e81526020017f536166654d6174683a207375627472616374696f6e206f766572666c6f7700008152506111c0565b905092915050565b610f48846323b872dd60e01b858585604051602401808473ffffffffffffffffffffffffffffffffffffffff1673ffffffffffffffffffffffffffffffffffffffff1681526020018373ffffffffffffffffffffffffffffffffffffffff1673ffffffffffffffffffffffffffffffffffffffff1681526020018281526020019350505050604051602081830303815290604052907bffffffffffffffffffffffffffffffffffffffffffffffffffffffff19166020820180517bffffffffffffffffffffffffffffffffffffffffffffffffffffffff8381831617835250505050611280565b50505050565b6000811415801561104b575060008373ffffffffffffffffffffffffffffffffffffffff1663dd62ed3e30856040518363ffffffff1660e01b8152600401808373ffffffffffffffffffffffffffffffffffffffff1673ffffffffffffffffffffffffffffffffffffffff1681526020018273ffffffffffffffffffffffffffffffffffffffff1673ffffffffffffffffffffffffffffffffffffffff1681526020019250505060206040518083038186803b15801561100d57600080fd5b505afa158015611021573d6000803e3d6000fd5b505050506040513d602081101561103757600080fd5b810190808051906020019092919050505014155b15611108576111078363095ea7b360e01b846000604051602401808373ffffffffffffffffffffffffffffffffffffffff1673ffffffffffffffffffffffffffffffffffffffff1681526020018260ff16815260200192505050604051602081830303815290604052907bffffffffffffffffffffffffffffffffffffffffffffffffffffffff19166020820180517bffffffffffffffffffffffffffffffffffffffffffffffffffffffff8381831617835250505050611280565b5b6111bb8363095ea7b360e01b8484604051602401808373ffffffffffffffffffffffffffffffffffffffff1673ffffffffffffffffffffffffffffffffffffffff16815260200182815260200192505050604051602081830303815290604052907bffffffffffffffffffffffffffffffffffffffffffffffffffffffff19166020820180517bffffffffffffffffffffffffffffffffffffffffffffffffffffffff8381831617835250505050611280565b505050565b600083831115829061126d576040517f08c379a00000000000000000000000000000000000000000000000000000000081526004018080602001828103825283818151815260200191508051906020019080838360005b83811015611232578082015181840152602081019050611217565b50505050905090810190601f16801561125f5780820380516001836020036101000a031916815260200191505b509250505060405180910390fd5b5060008385039050809150509392505050565b60606112e2826040518060400160405280602081526020017f5361666545524332303a206c6f772d6c6576656c2063616c6c206661696c65648152508573ffffffffffffffffffffffffffffffffffffffff1661136f9092919063ffffffff16565b905060008151111561136a5780806020019051602081101561130357600080fd5b8101908080519060200190929190505050611369576040517f08c379a000000000000000000000000000000000000000000000000000000000815260040180806020018281038252602a815260200180611636602a913960400191505060405180910390fd5b5b505050565b606061137e8484600085611387565b90509392505050565b6060824710156113e2576040517f08c379a00000000000000000000000000000000000000000000000000000000081526004018080602001828103825260268152602001806116106026913960400191505060405180910390fd5b6113eb85611530565b61145d576040517f08c379a000000000000000000000000000000000000000000000000000000000815260040180806020018281038252601d8152602001807f416464726573733a2063616c6c20746f206e6f6e2d636f6e747261637400000081525060200191505060405180910390fd5b600060608673ffffffffffffffffffffffffffffffffffffffff1685876040518082805190602001908083835b602083106114ad578051825260208201915060208101905060208303925061148a565b6001836020036101000a03801982511681845116808217855250505050505090500191505060006040518083038185875af1925050503d806000811461150f576040519150601f19603f3d011682016040523d82523d6000602084013e611514565b606091505b5091509150611524828286611543565b92505050949350505050565b600080823b905060008111915050919050565b6060831561155357829050611608565b6000835111156115665782518084602001fd5b816040517f08c379a00000000000000000000000000000000000000000000000000000000081526004018080602001828103825283818151815260200191508051906020019080838360005b838110156115cd5780820151818401526020810190506115b2565b50505050905090810190601f1680156115fa5780820380516001836020036101000a031916815260200191505b509250505060405180910390fd5b939250505056fe416464726573733a20696e73756666696369656e742062616c616e636520666f722063616c6c5361666545524332303a204552433230206f7065726174696f6e20646964206e6f742073756363656564a2646970667358221220cd7d5ba515a068ed2fac867d7c73c3a292395051966ec8a4780300fed8ea805864736f6c63430006080033",
  "immutableReferences": {},
  "source": "// SPDX-License-Identifier: MIT\npragma solidity >=0.6.8 <0.7.0;\n\nimport \"../libraries/SafeMath.sol\";\nimport \"../libraries/SafeERC20.sol\";\nimport \"../libraries/SignedSafeMath.sol\";\nimport \"../interfaces/IWrapper.sol\";\nimport \"../interfaces/IFixCapitalPool.sol\";\nimport \"../interfaces/IOrderbookExchange.sol\";\nimport \"../interfaces/IOrganizer.sol\";\nimport \"../interfaces/IERC20.sol\";\nimport \"../interfaces/IQuickDepositor.sol\";\n\ncontract QuickDepositor is IQuickDepositor {\n\tusing SafeMath for uint256;\n\tusing SafeERC20 for IERC20;\n\n\t//data\n\tIOrganizer org;\n\n\tuint constant bufferAmount = 0x1000; //used to offset rounding errors\n\n\t/*\n\t\tinit\n\t*/\n\tconstructor(address _organizerAddress) public {\n\t\torg = IOrganizer(_organizerAddress);\n\t}\n\n\t/*\n\t\t@Description: deposit underlying into wrapper then into FCP\n\n\t\t@param address _depositTo: the address that shall recieve the ZCB & YT upon depositing into the FCP\n\t\t@param address _fixCapitalPoolAddress: the address of the FCP contract to deposit into\n\t\t@param uint _amountUnderlying: the amount of the underlying ERC20 to deposit\n\t*/\n\tfunction internalFastDepositUnderlying(\n\t\taddress _depositTo,\n\t\taddress _fixCapitalPoolAddress,\n\t\tuint _amountUnderlying\n\t) internal returns(uint wrappedDeposit, uint dynamicDeposit) {\n\t\tIWrapper wrp = IFixCapitalPool(_fixCapitalPoolAddress).wrapper();\n\t\tIERC20 underlying = IERC20(IFixCapitalPool(_fixCapitalPoolAddress).underlyingAssetAddress());\n\t\tunderlying.safeTransferFrom(msg.sender, address(this), _amountUnderlying);\n\t\tunderlying.safeApprove(address(wrp), _amountUnderlying);\n\t\tif (wrp.underlyingIsStatic()) {\n\t\t\tdynamicDeposit = wrp.depositWrappedAmount(address(this), _amountUnderlying);\n\t\t\twrappedDeposit = _amountUnderlying;\n\t\t}\n\t\telse {\n\t\t\twrappedDeposit = wrp.depositUnitAmount(address(this), _amountUnderlying);\n\t\t\tdynamicDeposit = _amountUnderlying;\n\t\t}\n\t\tIERC20(address(wrp)).safeApprove(_fixCapitalPoolAddress, wrappedDeposit);\n\t\tIFixCapitalPool(_fixCapitalPoolAddress).depositWrappedToken(_depositTo, wrappedDeposit);\n\t}\n\n\t/*\n\t\t@Description: deposit underlying into wrapper then into FCP, send ZCB & YT back to msg.sender without making any swaps\n\n\t\t@param address _fixCapitalPoolAddress: the address of the FCP contract to deposit into\n\t\t@param uint _amountUnderlying: the amount of the underlying ERC20 to deposit\n\n\t\t@return uint wrappedDeposit: the static / wrapped amount of the deposit into the wrapper and subsequently the FCP\n\t\t@return uint dynamicDeposit: the dynamic / unit amount of the deposit into the wrapper and subsequently the FCP\n\t*/\n\tfunction FastDepositUnderlying(address _fixCapitalPoolAddress, uint _amountUnderlying) external override returns(uint wrappedDeposit, uint dynamicDeposit) {\n\t\t(wrappedDeposit, dynamicDeposit) = internalFastDepositUnderlying(msg.sender, _fixCapitalPoolAddress, _amountUnderlying);\n\t}\n\n\t/*\n\t\t@Description: turn underlying asset into ZCB\n\t\t\tdeposit underlying into wrapper contract then FCP then swap to ZCB\n\t\n\t\t@param address _fixCapitalPoolAddress: address of the FCP of the ZCB which to swap to\n\t\t@param uint _amountUnderlying: the amount of the underlying ERC20 to deposit\n\t\t@param uint _minMaturityConversionRate: the minimum MCR of the head order to continue purchasing more ZCB\n\t\t@param uint _minCumulativeMaturityConversionRate: if this is greater than the effective MCR based on ZCB in and YT out at end of execution revert\n\t\t@param uint16 _maxIterations: the maximum amount of limit orders to fully fill, important for gas considerations\n\n\t\t@return uint yield: the yield amount of the ZCB-YT position transferred to msg.sender at the end of execution\n\t\t@return int bond: the bond amount of the ZCB-YT position transferred to msg.sender at the end of execution\n\t*/\n\tfunction UnderlyingToZCB(\n\t\taddress _fixCapitalPoolAddress,\n\t\tuint _amountUnderlying,\n\t\tuint _minMaturityConversionRate,\n\t\tuint _minCumulativeMaturityConversionRate,\n\t\tuint16 _maxIterations\n\t) external override returns(uint yield, int bond) {\n\t\t(uint wrappedDeposit, ) = internalFastDepositUnderlying(address(this), _fixCapitalPoolAddress, _amountUnderlying);\n\t\tIOrderbookExchange ob = IOrderbookExchange(org.Orderbooks(_fixCapitalPoolAddress));\n\t\tob.marketSellYT(wrappedDeposit.sub(bufferAmount), _minMaturityConversionRate, _minCumulativeMaturityConversionRate, _maxIterations, false);\n\t\tyield = IFixCapitalPool(_fixCapitalPoolAddress).balanceYield(address(this));\n\t\tbond = IFixCapitalPool(_fixCapitalPoolAddress).balanceBonds(address(this));\n\t\tIFixCapitalPool(_fixCapitalPoolAddress).transferPosition(msg.sender, yield, bond);\n\t}\n\n\t/*\n\t\t@Description: turn underlying asset into YT\n\t\t\tdeposit underlying into wrapper contract then FCP then swap to YT\n\n\t\t@param address _fixCapitalPoolAddress: address of the FCP of the YT which to swap to\n\t\t@param uint _amountUnderlying: the amount of the underlying ERC20 to deposit\n\t\t@param uint _maxMaturityConversionRate: the maximum MCR of the head order to continue selling more ZCB\n\t\t@param uint _maxCumulativeMaturityConversionRate: if this is smaller than the effective MCR based on ZCB in and YT out at end of execution revert\n\t\t@param uint16 _maxIterations: the maximum amount of limit orders to fully fill, important for gas considerations\n\n\t\t@return uint yield: the yield amount of the ZCB-YT position transferred to msg.sender at the end of execution\n\t\t@return int bond: the bond amount of the ZCB-YT position transferred to msg.sender at the end of execution\n\t*/\n\tfunction UnderlyingToYT(\n\t\taddress _fixCapitalPoolAddress,\n\t\tuint _amountUnderlying,\n\t\tuint _maxMaturityConversionRate,\n\t\tuint _maxCumulativeMaturityConversionRate,\n\t\tuint16 _maxIterations\n\t) external override returns(uint yield, int bond) {\n\t\t( , uint dynamicDeposit) = internalFastDepositUnderlying(address(this), _fixCapitalPoolAddress, _amountUnderlying);\n\t\tIOrderbookExchange ob = IOrderbookExchange(org.Orderbooks(_fixCapitalPoolAddress));\n\t\tob.marketSellZCB(dynamicDeposit.sub(bufferAmount), _maxMaturityConversionRate, _maxCumulativeMaturityConversionRate, _maxIterations, false);\n\t\tyield = IFixCapitalPool(_fixCapitalPoolAddress).balanceYield(address(this));\n\t\tbond = IFixCapitalPool(_fixCapitalPoolAddress).balanceBonds(address(this));\n\t\tIFixCapitalPool(_fixCapitalPoolAddress).transferPosition(msg.sender, yield, bond);\n\t}\n\n}",
  "sourcePath": "/home/asher/FixFinanceV1/contracts/QuickDepositor/QuickDepositor.sol",
  "compiler": {
    "name": "solc",
    "version": "0.6.8+commit.0bbfe453.Emscripten.clang"
  },
  "schemaVersion": "3.4.1",
  "updatedAt": "2021-11-26T19:15:55.177Z",
  "devdoc": {
    "methods": {}
  },
  "userdoc": {
    "methods": {}
  }
}