{
  "contractName": "VaultHealth",
  "abi": [
    {
      "inputs": [
        {
          "internalType": "address",
          "name": "_oracleContainerAddress",
          "type": "address"
        }
      ],
      "stateMutability": "nonpayable",
      "type": "constructor"
    },
    {
      "inputs": [
        {
          "internalType": "address",
          "name": "",
          "type": "address"
        }
      ],
      "name": "LowerCollateralizationRatio",
      "outputs": [
        {
          "internalType": "uint120",
          "name": "",
          "type": "uint120"
        }
      ],
      "stateMutability": "view",
      "type": "function"
    },
    {
      "inputs": [
        {
          "internalType": "address",
          "name": "",
          "type": "address"
        }
      ],
      "name": "LowerRateThreshold",
      "outputs": [
        {
          "internalType": "uint120",
          "name": "",
          "type": "uint120"
        }
      ],
      "stateMutability": "view",
      "type": "function"
    },
    {
      "inputs": [
        {
          "internalType": "address",
          "name": "",
          "type": "address"
        }
      ],
      "name": "UpperCollateralizationRatio",
      "outputs": [
        {
          "internalType": "uint120",
          "name": "",
          "type": "uint120"
        }
      ],
      "stateMutability": "view",
      "type": "function"
    },
    {
      "inputs": [
        {
          "internalType": "address",
          "name": "",
          "type": "address"
        }
      ],
      "name": "UpperRateThreshold",
      "outputs": [
        {
          "internalType": "uint120",
          "name": "",
          "type": "uint120"
        }
      ],
      "stateMutability": "view",
      "type": "function"
    },
    {
      "inputs": [
        {
          "internalType": "address",
          "name": "",
          "type": "address"
        }
      ],
      "name": "lowerMinimumRateAdjustment",
      "outputs": [
        {
          "internalType": "uint120",
          "name": "",
          "type": "uint120"
        }
      ],
      "stateMutability": "view",
      "type": "function"
    },
    {
      "inputs": [
        {
          "internalType": "address",
          "name": "",
          "type": "address"
        }
      ],
      "name": "maximumShortInterest",
      "outputs": [
        {
          "internalType": "uint256",
          "name": "",
          "type": "uint256"
        }
      ],
      "stateMutability": "view",
      "type": "function"
    },
    {
      "inputs": [],
      "name": "owner",
      "outputs": [
        {
          "internalType": "address",
          "name": "",
          "type": "address"
        }
      ],
      "stateMutability": "view",
      "type": "function"
    },
    {
      "inputs": [
        {
          "internalType": "address",
          "name": "newOwner",
          "type": "address"
        }
      ],
      "name": "transferOwnership",
      "outputs": [],
      "stateMutability": "nonpayable",
      "type": "function"
    },
    {
      "inputs": [
        {
          "internalType": "address",
          "name": "",
          "type": "address"
        }
      ],
      "name": "upperMinimumRateAdjustment",
      "outputs": [
        {
          "internalType": "uint120",
          "name": "",
          "type": "uint120"
        }
      ],
      "stateMutability": "view",
      "type": "function"
    },
    {
      "inputs": [
        {
          "internalType": "address",
          "name": "_assetSupplied",
          "type": "address"
        },
        {
          "internalType": "address",
          "name": "_assetBorrowed",
          "type": "address"
        },
        {
          "internalType": "uint256",
          "name": "_amountSupplied",
          "type": "uint256"
        },
        {
          "internalType": "uint256",
          "name": "_amountBorrowed",
          "type": "uint256"
        }
      ],
      "name": "satisfiesUpperLimit",
      "outputs": [
        {
          "internalType": "bool",
          "name": "",
          "type": "bool"
        }
      ],
      "stateMutability": "view",
      "type": "function"
    },
    {
      "inputs": [
        {
          "internalType": "address",
          "name": "_assetSupplied",
          "type": "address"
        },
        {
          "internalType": "address",
          "name": "_assetBorrowed",
          "type": "address"
        },
        {
          "internalType": "uint256",
          "name": "_amountSupplied",
          "type": "uint256"
        },
        {
          "internalType": "uint256",
          "name": "_amountBorrowed",
          "type": "uint256"
        }
      ],
      "name": "satisfiesLowerLimit",
      "outputs": [
        {
          "internalType": "bool",
          "name": "",
          "type": "bool"
        }
      ],
      "stateMutability": "view",
      "type": "function"
    },
    {
      "inputs": [
        {
          "internalType": "address",
          "name": "_FCPsupplied",
          "type": "address"
        },
        {
          "internalType": "address",
          "name": "_FCPborrowed",
          "type": "address"
        },
        {
          "internalType": "uint256",
          "name": "_amountYield",
          "type": "uint256"
        },
        {
          "internalType": "int256",
          "name": "_amountBond",
          "type": "int256"
        },
        {
          "internalType": "uint256",
          "name": "_amountBorrowed",
          "type": "uint256"
        }
      ],
      "name": "YTvaultSatisfiesUpperLimit",
      "outputs": [
        {
          "internalType": "bool",
          "name": "",
          "type": "bool"
        }
      ],
      "stateMutability": "view",
      "type": "function"
    },
    {
      "inputs": [
        {
          "internalType": "address",
          "name": "_FCPsupplied",
          "type": "address"
        },
        {
          "internalType": "address",
          "name": "_FCPborrowed",
          "type": "address"
        },
        {
          "internalType": "uint256",
          "name": "_amountYield",
          "type": "uint256"
        },
        {
          "internalType": "int256",
          "name": "_amountBond",
          "type": "int256"
        },
        {
          "internalType": "uint256",
          "name": "_amountBorrowed",
          "type": "uint256"
        }
      ],
      "name": "YTvaultSatisfiesLowerLimit",
      "outputs": [
        {
          "internalType": "bool",
          "name": "",
          "type": "bool"
        }
      ],
      "stateMutability": "view",
      "type": "function"
    },
    {
      "inputs": [
        {
          "internalType": "address",
          "name": "_assetSupplied",
          "type": "address"
        },
        {
          "internalType": "address",
          "name": "_assetBorrowed",
          "type": "address"
        },
        {
          "internalType": "uint256",
          "name": "_amountBorrowed",
          "type": "uint256"
        }
      ],
      "name": "amountSuppliedAtUpperLimit",
      "outputs": [
        {
          "internalType": "uint256",
          "name": "",
          "type": "uint256"
        }
      ],
      "stateMutability": "view",
      "type": "function"
    },
    {
      "inputs": [
        {
          "internalType": "address",
          "name": "_assetSupplied",
          "type": "address"
        },
        {
          "internalType": "address",
          "name": "_assetBorrowed",
          "type": "address"
        },
        {
          "internalType": "uint256",
          "name": "_amountBorrowed",
          "type": "uint256"
        }
      ],
      "name": "amountSuppliedAtLowerLimit",
      "outputs": [
        {
          "internalType": "uint256",
          "name": "",
          "type": "uint256"
        }
      ],
      "stateMutability": "view",
      "type": "function"
    },
    {
      "inputs": [
        {
          "internalType": "address",
          "name": "_assetSupplied",
          "type": "address"
        },
        {
          "internalType": "address",
          "name": "_assetBorrowed",
          "type": "address"
        },
        {
          "internalType": "uint256",
          "name": "_amountSupplied",
          "type": "uint256"
        }
      ],
      "name": "amountBorrowedAtUpperLimit",
      "outputs": [
        {
          "internalType": "uint256",
          "name": "",
          "type": "uint256"
        }
      ],
      "stateMutability": "view",
      "type": "function"
    },
    {
      "inputs": [
        {
          "internalType": "address",
          "name": "_assetSupplied",
          "type": "address"
        },
        {
          "internalType": "address",
          "name": "_assetBorrowed",
          "type": "address"
        },
        {
          "internalType": "uint256",
          "name": "_amountSupplied",
          "type": "uint256"
        }
      ],
      "name": "amountBorrowedAtLowerLimit",
      "outputs": [
        {
          "internalType": "uint256",
          "name": "",
          "type": "uint256"
        }
      ],
      "stateMutability": "view",
      "type": "function"
    },
    {
      "inputs": [
        {
          "internalType": "address",
          "name": "_FCPsupplied",
          "type": "address"
        },
        {
          "internalType": "address",
          "name": "_FCPborrowed",
          "type": "address"
        },
        {
          "internalType": "uint256",
          "name": "_amountYield",
          "type": "uint256"
        },
        {
          "internalType": "int256",
          "name": "_amountBond",
          "type": "int256"
        }
      ],
      "name": "YTvaultAmountBorrowedAtUpperLimit",
      "outputs": [
        {
          "internalType": "uint256",
          "name": "",
          "type": "uint256"
        }
      ],
      "stateMutability": "view",
      "type": "function"
    },
    {
      "inputs": [
        {
          "internalType": "address",
          "name": "_FCPsupplied",
          "type": "address"
        },
        {
          "internalType": "address",
          "name": "_FCPborrowed",
          "type": "address"
        },
        {
          "internalType": "uint256",
          "name": "_amountYield",
          "type": "uint256"
        },
        {
          "internalType": "int256",
          "name": "_amountBond",
          "type": "int256"
        }
      ],
      "name": "YTvaultAmountBorrowedAtLowerLimit",
      "outputs": [
        {
          "internalType": "uint256",
          "name": "",
          "type": "uint256"
        }
      ],
      "stateMutability": "view",
      "type": "function"
    },
    {
      "inputs": [
        {
          "internalType": "bool",
          "name": "_reqSameBase",
          "type": "bool"
        },
        {
          "internalType": "address",
          "name": "_assetSupplied",
          "type": "address"
        },
        {
          "internalType": "address",
          "name": "_assetBorrowed",
          "type": "address"
        },
        {
          "internalType": "uint256",
          "name": "_amountSupplied",
          "type": "uint256"
        },
        {
          "internalType": "uint256",
          "name": "_amountBorrowed",
          "type": "uint256"
        },
        {
          "internalType": "uint256",
          "name": "_priceMultiplier",
          "type": "uint256"
        },
        {
          "internalType": "int128",
          "name": "_suppliedRateChange",
          "type": "int128"
        },
        {
          "internalType": "int128",
          "name": "_borrowRateChange",
          "type": "int128"
        }
      ],
      "name": "vaultWithstandsChange",
      "outputs": [
        {
          "internalType": "bool",
          "name": "",
          "type": "bool"
        }
      ],
      "stateMutability": "view",
      "type": "function"
    },
    {
      "inputs": [
        {
          "internalType": "bool",
          "name": "_reqSameBase",
          "type": "bool"
        },
        {
          "internalType": "address",
          "name": "_FCPsupplied",
          "type": "address"
        },
        {
          "internalType": "address",
          "name": "_FCPborrowed",
          "type": "address"
        },
        {
          "internalType": "uint256",
          "name": "_amountYield",
          "type": "uint256"
        },
        {
          "internalType": "int256",
          "name": "_amountBond",
          "type": "int256"
        },
        {
          "internalType": "uint256",
          "name": "_amountBorrowed",
          "type": "uint256"
        },
        {
          "internalType": "uint256",
          "name": "_priceMultiplier",
          "type": "uint256"
        },
        {
          "internalType": "int128",
          "name": "_suppliedRateChange",
          "type": "int128"
        },
        {
          "internalType": "int128",
          "name": "_borrowedRateChange",
          "type": "int128"
        }
      ],
      "name": "YTvaultWithstandsChange",
      "outputs": [
        {
          "internalType": "bool",
          "name": "",
          "type": "bool"
        }
      ],
      "stateMutability": "view",
      "type": "function"
    },
    {
      "inputs": [
        {
          "internalType": "address",
          "name": "_wrapperAddress",
          "type": "address"
        },
        {
          "internalType": "uint120",
          "name": "_upper",
          "type": "uint120"
        },
        {
          "internalType": "uint120",
          "name": "_lower",
          "type": "uint120"
        }
      ],
      "name": "setCollateralizationRatios",
      "outputs": [],
      "stateMutability": "nonpayable",
      "type": "function"
    },
    {
      "inputs": [
        {
          "internalType": "address",
          "name": "_wrapperAddress",
          "type": "address"
        },
        {
          "internalType": "uint120",
          "name": "_upper",
          "type": "uint120"
        },
        {
          "internalType": "uint120",
          "name": "_lower",
          "type": "uint120"
        }
      ],
      "name": "setRateThresholds",
      "outputs": [],
      "stateMutability": "nonpayable",
      "type": "function"
    },
    {
      "inputs": [
        {
          "internalType": "address",
          "name": "_organizerAddress",
          "type": "address"
        }
      ],
      "name": "setOrganizerAddress",
      "outputs": [],
      "stateMutability": "nonpayable",
      "type": "function"
    },
    {
      "inputs": [
        {
          "internalType": "address",
          "name": "_underlyingAssetAddress",
          "type": "address"
        },
        {
          "internalType": "uint256",
          "name": "_maximumShortInterest",
          "type": "uint256"
        }
      ],
      "name": "setMaximumShortInterest",
      "outputs": [],
      "stateMutability": "nonpayable",
      "type": "function"
    },
    {
      "inputs": [
        {
          "internalType": "address",
          "name": "_wrapperAddress",
          "type": "address"
        },
        {
          "internalType": "uint120",
          "name": "_upperMinimumRateAdjustment",
          "type": "uint120"
        },
        {
          "internalType": "uint120",
          "name": "_lowerMinimumRateAdjustment",
          "type": "uint120"
        }
      ],
      "name": "setMinimumRateAdjustments",
      "outputs": [],
      "stateMutability": "nonpayable",
      "type": "function"
    }
  ],
  "bytecode": "0x60806040523480156200001157600080fd5b50604051620058da380380620058da833981810160405260208110156200003757600080fd5b8101908080519060200190929190505050336000806101000a81548173ffffffffffffffffffffffffffffffffffffffff021916908373ffffffffffffffffffffffffffffffffffffffff16021790555080600960006101000a81548173ffffffffffffffffffffffffffffffffffffffff021916908373ffffffffffffffffffffffffffffffffffffffff1602179055505061580080620000da6000396000f3fe608060405234801561001057600080fd5b506004361061018e5760003560e01c80637e1097e6116100de578063bd0013dd11610097578063eafb2c0d11610071578063eafb2c0d14610c52578063eba08e8b14610d1d578063f23f80aa14610d97578063f2fde38b14610e115761018e565b8063bd0013dd14610b08578063d9a7ba8214610b8a578063df7b312714610c045761018e565b80637e1097e6146107db578063837f19b714610867578063880a9999146108e15780638da5cb5b1461096357806392e9b942146109ad578063b27983be14610a6e5761018e565b80634ae23b841161014b5780636ef04e3d116101255780636ef04e3d146105ed578063712313bc1461067d57806372e3ea34146106f75780637963ce431461074f5761018e565b80634ae23b84146104b55780634be8b1ac1461052f5780636a9a5d3f146105735761018e565b80630ece3926146101935780632222230f1461020d5780633ce611051461028f57806340a4b55914610311578063430014f8146103a15780634768bc681461041b575b600080fd5b6101d5600480360360208110156101a957600080fd5b81019080803573ffffffffffffffffffffffffffffffffffffffff169060200190929190505050610e55565b60405180826effffffffffffffffffffffffffffff166effffffffffffffffffffffffffffff16815260200191505060405180910390f35b6102796004803603606081101561022357600080fd5b81019080803573ffffffffffffffffffffffffffffffffffffffff169060200190929190803573ffffffffffffffffffffffffffffffffffffffff16906020019092919080359060200190929190505050610e83565b6040518082815260200191505060405180910390f35b6102fb600480360360608110156102a557600080fd5b81019080803573ffffffffffffffffffffffffffffffffffffffff169060200190929190803573ffffffffffffffffffffffffffffffffffffffff16906020019092919080359060200190929190505050610e99565b6040518082815260200191505060405180910390f35b6103876004803603608081101561032757600080fd5b81019080803573ffffffffffffffffffffffffffffffffffffffff169060200190929190803573ffffffffffffffffffffffffffffffffffffffff1690602001909291908035906020019092919080359060200190929190505050610f44565b604051808215151515815260200191505060405180910390f35b610419600480360360608110156103b757600080fd5b81019080803573ffffffffffffffffffffffffffffffffffffffff16906020019092919080356effffffffffffffffffffffffffffff16906020019092919080356effffffffffffffffffffffffffffff169060200190929190505050610f5d565b005b61049b600480360360a081101561043157600080fd5b81019080803573ffffffffffffffffffffffffffffffffffffffff169060200190929190803573ffffffffffffffffffffffffffffffffffffffff169060200190929190803590602001909291908035906020019092919080359060200190929190505050611275565b604051808215151515815260200191505060405180910390f35b6104f7600480360360208110156104cb57600080fd5b81019080803573ffffffffffffffffffffffffffffffffffffffff169060200190929190505050611290565b60405180826effffffffffffffffffffffffffffff166effffffffffffffffffffffffffffff16815260200191505060405180910390f35b6105716004803603602081101561054557600080fd5b81019080803573ffffffffffffffffffffffffffffffffffffffff1690602001909291905050506112be565b005b6105eb6004803603606081101561058957600080fd5b81019080803573ffffffffffffffffffffffffffffffffffffffff16906020019092919080356effffffffffffffffffffffffffffff16906020019092919080356effffffffffffffffffffffffffffff16906020019092919050505061141f565b005b6106636004803603608081101561060357600080fd5b81019080803573ffffffffffffffffffffffffffffffffffffffff169060200190929190803573ffffffffffffffffffffffffffffffffffffffff16906020019092919080359060200190929190803590602001909291905050506115ce565b604051808215151515815260200191505060405180910390f35b6106bf6004803603602081101561069357600080fd5b81019080803573ffffffffffffffffffffffffffffffffffffffff1690602001909291905050506115e7565b60405180826effffffffffffffffffffffffffffff166effffffffffffffffffffffffffffff16815260200191505060405180910390f35b6107396004803603602081101561070d57600080fd5b81019080803573ffffffffffffffffffffffffffffffffffffffff169060200190929190505050611615565b6040518082815260200191505060405180910390f35b6107c56004803603608081101561076557600080fd5b81019080803573ffffffffffffffffffffffffffffffffffffffff169060200190929190803573ffffffffffffffffffffffffffffffffffffffff169060200190929190803590602001909291908035906020019092919050505061162d565b6040518082815260200191505060405180910390f35b610851600480360360808110156107f157600080fd5b81019080803573ffffffffffffffffffffffffffffffffffffffff169060200190929190803573ffffffffffffffffffffffffffffffffffffffff1690602001909291908035906020019092919080359060200190929190505050611645565b6040518082815260200191505060405180910390f35b6108df6004803603606081101561087d57600080fd5b81019080803573ffffffffffffffffffffffffffffffffffffffff16906020019092919080356effffffffffffffffffffffffffffff16906020019092919080356effffffffffffffffffffffffffffff16906020019092919050505061165d565b005b61094d600480360360608110156108f757600080fd5b81019080803573ffffffffffffffffffffffffffffffffffffffff169060200190929190803573ffffffffffffffffffffffffffffffffffffffff16906020019092919080359060200190929190505050611975565b6040518082815260200191505060405180910390f35b61096b61198b565b604051808273ffffffffffffffffffffffffffffffffffffffff1673ffffffffffffffffffffffffffffffffffffffff16815260200191505060405180910390f35b610a5460048036036101008110156109c457600080fd5b81019080803515159060200190929190803573ffffffffffffffffffffffffffffffffffffffff169060200190929190803573ffffffffffffffffffffffffffffffffffffffff1690602001909291908035906020019092919080359060200190929190803590602001909291908035600f0b90602001909291908035600f0b90602001909291905050506119b0565b604051808215151515815260200191505060405180910390f35b610aee600480360360a0811015610a8457600080fd5b81019080803573ffffffffffffffffffffffffffffffffffffffff169060200190929190803573ffffffffffffffffffffffffffffffffffffffff169060200190929190803590602001909291908035906020019092919080359060200190929190505050611ab6565b604051808215151515815260200191505060405180910390f35b610b7460048036036060811015610b1e57600080fd5b81019080803573ffffffffffffffffffffffffffffffffffffffff169060200190929190803573ffffffffffffffffffffffffffffffffffffffff16906020019092919080359060200190929190505050611ad1565b6040518082815260200191505060405180910390f35b610bcc60048036036020811015610ba057600080fd5b81019080803573ffffffffffffffffffffffffffffffffffffffff169060200190929190505050611b7d565b60405180826effffffffffffffffffffffffffffff166effffffffffffffffffffffffffffff16815260200191505060405180910390f35b610c5060048036036040811015610c1a57600080fd5b81019080803573ffffffffffffffffffffffffffffffffffffffff16906020019092919080359060200190929190505050611bab565b005b610d036004803603610120811015610c6957600080fd5b81019080803515159060200190929190803573ffffffffffffffffffffffffffffffffffffffff169060200190929190803573ffffffffffffffffffffffffffffffffffffffff169060200190929190803590602001909291908035906020019092919080359060200190929190803590602001909291908035600f0b90602001909291908035600f0b9060200190929190505050611cb5565b604051808215151515815260200191505060405180910390f35b610d5f60048036036020811015610d3357600080fd5b81019080803573ffffffffffffffffffffffffffffffffffffffff169060200190929190505050611dd5565b60405180826effffffffffffffffffffffffffffff166effffffffffffffffffffffffffffff16815260200191505060405180910390f35b610dd960048036036020811015610dad57600080fd5b81019080803573ffffffffffffffffffffffffffffffffffffffff169060200190929190505050611e03565b60405180826effffffffffffffffffffffffffffff166effffffffffffffffffffffffffffff16815260200191505060405180910390f35b610e5360048036036020811015610e2757600080fd5b81019080803573ffffffffffffffffffffffffffffffffffffffff169060200190929190505050611e31565b005b60056020528060005260406000206000915054906101000a90046effffffffffffffffffffffffffffff1681565b6000610e90848484611f6b565b90509392505050565b6000806000806000610eab8888612013565b93509350935093506000610efb610ed26001808689878a6801000000000000000080612344565b610eed670de0b6b3a76400008a61236790919063ffffffff16565b61236790919063ffffffff16565b9050610f36610f0c868660006123ed565b610f28610f19888861267d565b8461289b90919063ffffffff16565b61289b90919063ffffffff16565b955050505050509392505050565b6000610f51858584611f6b565b83119050949350505050565b6000809054906101000a900473ffffffffffffffffffffffffffffffffffffffff1673ffffffffffffffffffffffffffffffffffffffff163373ffffffffffffffffffffffffffffffffffffffff161461101f576040517f08c379a000000000000000000000000000000000000000000000000000000000815260040180806020018281038252600a8152602001807f6f6e6c79206f776e65720000000000000000000000000000000000000000000081525060200191505060405180910390fd5b806effffffffffffffffffffffffffffff16826effffffffffffffffffffffffffffff161015801561106d575068010000000000000000600f0b816effffffffffffffffffffffffffffff16135b61107657600080fd5b600073ffffffffffffffffffffffffffffffffffffffff16600860009054906101000a900473ffffffffffffffffffffffffffffffffffffffff1673ffffffffffffffffffffffffffffffffffffffff16631c34d076856040518263ffffffff1660e01b8152600401808273ffffffffffffffffffffffffffffffffffffffff1673ffffffffffffffffffffffffffffffffffffffff16815260200191505060206040518083038186803b15801561112d57600080fd5b505afa158015611141573d6000803e3d6000fd5b505050506040513d602081101561115757600080fd5b810190808051906020019092919050505073ffffffffffffffffffffffffffffffffffffffff161461118857600080fd5b81600660008573ffffffffffffffffffffffffffffffffffffffff1673ffffffffffffffffffffffffffffffffffffffff16815260200190815260200160002060006101000a8154816effffffffffffffffffffffffffffff02191690836effffffffffffffffffffffffffffff16021790555080600560008573ffffffffffffffffffffffffffffffffffffffff1673ffffffffffffffffffffffffffffffffffffffff16815260200190815260200160002060006101000a8154816effffffffffffffffffffffffffffff02191690836effffffffffffffffffffffffffffff160217905550505050565b6000611283868686866128e5565b8210905095945050505050565b60066020528060005260406000206000915054906101000a90046effffffffffffffffffffffffffffff1681565b6000809054906101000a900473ffffffffffffffffffffffffffffffffffffffff1673ffffffffffffffffffffffffffffffffffffffff163373ffffffffffffffffffffffffffffffffffffffff1614611380576040517f08c379a000000000000000000000000000000000000000000000000000000000815260040180806020018281038252600a8152602001807f6f6e6c79206f776e65720000000000000000000000000000000000000000000081525060200191505060405180910390fd5b600073ffffffffffffffffffffffffffffffffffffffff16600860009054906101000a900473ffffffffffffffffffffffffffffffffffffffff1673ffffffffffffffffffffffffffffffffffffffff16146113db57600080fd5b80600860006101000a81548173ffffffffffffffffffffffffffffffffffffffff021916908373ffffffffffffffffffffffffffffffffffffffff16021790555050565b6000809054906101000a900473ffffffffffffffffffffffffffffffffffffffff1673ffffffffffffffffffffffffffffffffffffffff163373ffffffffffffffffffffffffffffffffffffffff16146114e1576040517f08c379a000000000000000000000000000000000000000000000000000000000815260040180806020018281038252600a8152602001807f6f6e6c79206f776e65720000000000000000000000000000000000000000000081525060200191505060405180910390fd5b81600160008573ffffffffffffffffffffffffffffffffffffffff1673ffffffffffffffffffffffffffffffffffffffff16815260200190815260200160002060006101000a8154816effffffffffffffffffffffffffffff02191690836effffffffffffffffffffffffffffff16021790555080600260008573ffffffffffffffffffffffffffffffffffffffff1673ffffffffffffffffffffffffffffffffffffffff16815260200190815260200160002060006101000a8154816effffffffffffffffffffffffffffff02191690836effffffffffffffffffffffffffffff160217905550505050565b60006115db8585846129ee565b83119050949350505050565b60036020528060005260406000206000915054906101000a90046effffffffffffffffffffffffffffff1681565b60076020528060005260406000206000915090505481565b600061163b85858585612a97565b9050949350505050565b6000611653858585856128e5565b9050949350505050565b6000809054906101000a900473ffffffffffffffffffffffffffffffffffffffff1673ffffffffffffffffffffffffffffffffffffffff163373ffffffffffffffffffffffffffffffffffffffff161461171f576040517f08c379a000000000000000000000000000000000000000000000000000000000815260040180806020018281038252600a8152602001807f6f6e6c79206f776e65720000000000000000000000000000000000000000000081525060200191505060405180910390fd5b806effffffffffffffffffffffffffffff16826effffffffffffffffffffffffffffff161015801561176d575068010000000000000000600f0b816effffffffffffffffffffffffffffff16135b61177657600080fd5b600073ffffffffffffffffffffffffffffffffffffffff16600860009054906101000a900473ffffffffffffffffffffffffffffffffffffffff1673ffffffffffffffffffffffffffffffffffffffff16631c34d076856040518263ffffffff1660e01b8152600401808273ffffffffffffffffffffffffffffffffffffffff1673ffffffffffffffffffffffffffffffffffffffff16815260200191505060206040518083038186803b15801561182d57600080fd5b505afa158015611841573d6000803e3d6000fd5b505050506040513d602081101561185757600080fd5b810190808051906020019092919050505073ffffffffffffffffffffffffffffffffffffffff161461188857600080fd5b81600460008573ffffffffffffffffffffffffffffffffffffffff1673ffffffffffffffffffffffffffffffffffffffff16815260200190815260200160002060006101000a8154816effffffffffffffffffffffffffffff02191690836effffffffffffffffffffffffffffff16021790555080600360008573ffffffffffffffffffffffffffffffffffffffff1673ffffffffffffffffffffffffffffffffffffffff16815260200190815260200160002060006101000a8154816effffffffffffffffffffffffffffff02191690836effffffffffffffffffffffffffffff160217905550505050565b60006119828484846129ee565b90509392505050565b6000809054906101000a900473ffffffffffffffffffffffffffffffffffffffff1681565b60008060008060006119c28c8c612013565b93509350935093508c1580611a0257508273ffffffffffffffffffffffffffffffffffffffff168473ffffffffffffffffffffffffffffffffffffffff16145b611a0b57600080fd5b611a27611a18858561267d565b8a61236790919063ffffffff16565b9850611a4c611a3d600180858886898e8e612344565b8a61289b90919063ffffffff16565b9850611a6c611a5d858560006123ed565b8a61236790919063ffffffff16565b9850611a9f612710670de0b6b3a764000002611a918a8c61236790919063ffffffff16565b61289b90919063ffffffff16565b985089891094505050505098975050505050505050565b6000611ac486868686612a97565b8210905095945050505050565b6000806000806000611ae38888612013565b93509350935093506000611b34611b0b600160008689878a6801000000000000000080612344565b611b26670de0b6b3a76400008a61236790919063ffffffff16565b61236790919063ffffffff16565b9050611b6f611b45868660016123ed565b611b61611b52888861267d565b8461289b90919063ffffffff16565b61289b90919063ffffffff16565b955050505050509392505050565b60026020528060005260406000206000915054906101000a90046effffffffffffffffffffffffffffff1681565b6000809054906101000a900473ffffffffffffffffffffffffffffffffffffffff1673ffffffffffffffffffffffffffffffffffffffff163373ffffffffffffffffffffffffffffffffffffffff1614611c6d576040517f08c379a000000000000000000000000000000000000000000000000000000000815260040180806020018281038252600a8152602001807f6f6e6c79206f776e65720000000000000000000000000000000000000000000081525060200191505060405180910390fd5b80600760008473ffffffffffffffffffffffffffffffffffffffff1673ffffffffffffffffffffffffffffffffffffffff168152602001908152602001600020819055505050565b6000806000611cc48b8b612ba0565b915091508b1580611d0057508073ffffffffffffffffffffffffffffffffffffffff168273ffffffffffffffffffffffffffffffffffffffff16145b611d0957600080fd5b6000808912159050600081158015611d4c57508273ffffffffffffffffffffffffffffffffffffffff168473ffffffffffffffffffffffffffffffffffffffff16145b8015611d6457506000611d5f8e86612d46565b600f0b135b15611d8057611d798d858e868f8f8d8d612ea4565b9050611d93565b611d908d858e868f8f8d8d612f96565b90505b6000611dbc89611dae6127108561236790919063ffffffff16565b61289b90919063ffffffff16565b9050808a10955050505050509998505050505050505050565b60016020528060005260406000206000915054906101000a90046effffffffffffffffffffffffffffff1681565b60046020528060005260406000206000915054906101000a90046effffffffffffffffffffffffffffff1681565b6000809054906101000a900473ffffffffffffffffffffffffffffffffffffffff1673ffffffffffffffffffffffffffffffffffffffff163373ffffffffffffffffffffffffffffffffffffffff1614611ef3576040517f08c379a000000000000000000000000000000000000000000000000000000000815260040180806020018281038252600a8152602001807f6f6e6c79206f776e65720000000000000000000000000000000000000000000081525060200191505060405180910390fd5b600073ffffffffffffffffffffffffffffffffffffffff168173ffffffffffffffffffffffffffffffffffffffff1614611f6857806000806101000a81548173ffffffffffffffffffffffffffffffffffffffff021916908373ffffffffffffffffffffffffffffffffffffffff1602179055505b50565b6000806000806000611f7d8888612013565b9350935093509350611fd8670de0b6b3a7640000611fca611fa0878760006123ed565b611fbc611fad898961267d565b8b61236790919063ffffffff16565b61236790919063ffffffff16565b61289b90919063ffffffff16565b9550612006611ff7600180858886896801000000000000000080612344565b8761289b90919063ffffffff16565b9450505050509392505050565b6000806000806000600860009054906101000a900473ffffffffffffffffffffffffffffffffffffffff1690506000600660008973ffffffffffffffffffffffffffffffffffffffff1673ffffffffffffffffffffffffffffffffffffffff16815260200190815260200160002060009054906101000a90046effffffffffffffffffffffffffffff166effffffffffffffffffffffffffffff1614156121f6578673ffffffffffffffffffffffffffffffffffffffff166362af375b6040518163ffffffff1660e01b815260040160206040518083038186803b1580156120fa57600080fd5b505afa15801561210e573d6000803e3d6000fd5b505050506040513d602081101561212457600080fd5b810190808051906020019092919050505092508073ffffffffffffffffffffffffffffffffffffffff16631c34d076846040518263ffffffff1660e01b8152600401808273ffffffffffffffffffffffffffffffffffffffff1673ffffffffffffffffffffffffffffffffffffffff16815260200191505060206040518083038186803b1580156121b457600080fd5b505afa1580156121c8573d6000803e3d6000fd5b505050506040513d60208110156121de57600080fd5b810190808051906020019092919050505094506121fd565b8692508694505b8573ffffffffffffffffffffffffffffffffffffffff166362af375b6040518163ffffffff1660e01b815260040160206040518083038186803b15801561224357600080fd5b505afa158015612257573d6000803e3d6000fd5b505050506040513d602081101561226d57600080fd5b810190808051906020019092919050505091508073ffffffffffffffffffffffffffffffffffffffff16631c34d076836040518263ffffffff1660e01b8152600401808273ffffffffffffffffffffffffffffffffffffffff1673ffffffffffffffffffffffffffffffffffffffff16815260200191505060206040518083038186803b1580156122fd57600080fd5b505afa158015612311573d6000803e3d6000fd5b505050506040513d602081101561232757600080fd5b810190808051906020019092919050505093505092959194509250565b600061235689898989898989896130d4565b508091505098975050505050505050565b60008083141561237a57600090506123e7565b600082840290508284828161238b57fe5b04146123e2576040517f08c379a00000000000000000000000000000000000000000000000000000000081526004018080602001828103825260218152602001806157aa6021913960400191505060405180910390fd5b809150505b92915050565b60008273ffffffffffffffffffffffffffffffffffffffff168473ffffffffffffffffffffffffffffffffffffffff16141561243357670de0b6b3a76400009050612676565b6000600181111561244057fe5b82600181111561244c57fe5b141561256657604061255d670de0b6b3a764000061254c600460008873ffffffffffffffffffffffffffffffffffffffff1673ffffffffffffffffffffffffffffffffffffffff16815260200190815260200160002060009054906101000a90046effffffffffffffffffffffffffffff166effffffffffffffffffffffffffffff16600460008a73ffffffffffffffffffffffffffffffffffffffff1673ffffffffffffffffffffffffffffffffffffffff16815260200190815260200160002060009054906101000a90046effffffffffffffffffffffffffffff166effffffffffffffffffffffffffffff16600f0b61338a90919063ffffffff16565b600f0b61236790919063ffffffff16565b901c9050612676565b6040612671670de0b6b3a7640000612660600360008873ffffffffffffffffffffffffffffffffffffffff1673ffffffffffffffffffffffffffffffffffffffff16815260200190815260200160002060009054906101000a90046effffffffffffffffffffffffffffff166effffffffffffffffffffffffffffff16600360008a73ffffffffffffffffffffffffffffffffffffffff1673ffffffffffffffffffffffffffffffffffffffff16815260200190815260200160002060009054906101000a90046effffffffffffffffffffffffffffff166effffffffffffffffffffffffffffff16600f0b61338a90919063ffffffff16565b600f0b61236790919063ffffffff16565b901c90505b9392505050565b60008173ffffffffffffffffffffffffffffffffffffffff168373ffffffffffffffffffffffffffffffffffffffff1614156126c357670de0b6b3a76400009050612895565b6000600960009054906101000a900473ffffffffffffffffffffffffffffffffffffffff16905060008173ffffffffffffffffffffffffffffffffffffffff1663b3596f07866040518263ffffffff1660e01b8152600401808273ffffffffffffffffffffffffffffffffffffffff1673ffffffffffffffffffffffffffffffffffffffff16815260200191505060206040518083038186803b15801561276957600080fd5b505afa15801561277d573d6000803e3d6000fd5b505050506040513d602081101561279357600080fd5b8101908080519060200190929190505050905060008273ffffffffffffffffffffffffffffffffffffffff1663b3596f07866040518263ffffffff1660e01b8152600401808273ffffffffffffffffffffffffffffffffffffffff1673ffffffffffffffffffffffffffffffffffffffff16815260200191505060206040518083038186803b15801561282557600080fd5b505afa158015612839573d6000803e3d6000fd5b505050506040513d602081101561284f57600080fd5b8101908080519060200190929190505050905061288f8161288184670de0b6b3a764000061236790919063ffffffff16565b61289b90919063ffffffff16565b93505050505b92915050565b60006128dd83836040518060400160405280601a81526020017f536166654d6174683a206469766973696f6e206279207a65726f0000000000008152506133f5565b905092915050565b60008373ffffffffffffffffffffffffffffffffffffffff168573ffffffffffffffffffffffffffffffffffffffff16141561293757612930858484680100000000000000006134bb565b90506129e6565b6000806129448787612ba0565b915091506000808513905080801561298757508173ffffffffffffffffffffffffffffffffffffffff168373ffffffffffffffffffffffffffffffffffffffff16145b801561299f5750600061299a8985612d46565b600f0b135b156129c7576129bd888489858a8a6801000000000000000080612ea4565b93505050506129e6565b6129e0888489858a8a6801000000000000000080612f96565b93505050505b949350505050565b6000806000806000612a008888612013565b9350935093509350612a5b670de0b6b3a7640000612a4d612a23878760016123ed565b612a3f612a30898961267d565b8b61236790919063ffffffff16565b61236790919063ffffffff16565b61289b90919063ffffffff16565b9550612a8a612a7b60016000858886896801000000000000000080612344565b8761289b90919063ffffffff16565b9450505050509392505050565b60008373ffffffffffffffffffffffffffffffffffffffff168573ffffffffffffffffffffffffffffffffffffffff161415612ae957612ae285848468010000000000000000613620565b9050612b98565b600080612af68787612ba0565b9150915060008085139050808015612b3957508173ffffffffffffffffffffffffffffffffffffffff168373ffffffffffffffffffffffffffffffffffffffff16145b8015612b5157506000612b4c8985612d46565b600f0b135b15612b7957612b6f888489858a8a6801000000000000000080613785565b9350505050612b98565b612b92888489858a8a6801000000000000000080613878565b93505050505b949350505050565b6000806000600860009054906101000a900473ffffffffffffffffffffffffffffffffffffffff1690508073ffffffffffffffffffffffffffffffffffffffff16631c34d076866040518263ffffffff1660e01b8152600401808273ffffffffffffffffffffffffffffffffffffffff1673ffffffffffffffffffffffffffffffffffffffff16815260200191505060206040518083038186803b158015612c4757600080fd5b505afa158015612c5b573d6000803e3d6000fd5b505050506040513d6020811015612c7157600080fd5b810190808051906020019092919050505092508073ffffffffffffffffffffffffffffffffffffffff16631c34d076856040518263ffffffff1660e01b8152600401808273ffffffffffffffffffffffffffffffffffffffff1673ffffffffffffffffffffffffffffffffffffffff16815260200191505060206040518083038186803b158015612d0157600080fd5b505afa158015612d15573d6000803e3d6000fd5b505050506040513d6020811015612d2b57600080fd5b81019080805190602001909291905050509150509250929050565b6000808373ffffffffffffffffffffffffffffffffffffffff1663204f83f96040518163ffffffff1660e01b815260040160206040518083038186803b158015612d8f57600080fd5b505afa158015612da3573d6000803e3d6000fd5b505050506040513d6020811015612db957600080fd5b810190808051906020019092919050505064ffffffffff16905060008373ffffffffffffffffffffffffffffffffffffffff1663c04637116040518163ffffffff1660e01b815260040160206040518083038186803b158015612e1b57600080fd5b505afa158015612e2f573d6000803e3d6000fd5b505050506040513d6020811015612e4557600080fd5b81019080805190602001909291905050509050808211612e85577fffffffffffffffffffffffffffffffffffffffffffffffffffffffffffffffff612e9a565b6301e1853e6040828403901b81612e9857fe5b045b9250505092915050565b6000808413612eb257600080fd5b6000612ef4612ec489896004876139b6565b612ee66ec097ce7bc90715b34b9f10000000008961236790919063ffffffff16565b61289b90919063ffffffff16565b9050600080612f0a6001808e8e8e8e8c8c6130d4565b9150915060008115612f5157612f4a83612f3c6ec097ce7bc90715b34b9f10000000008b61236790919063ffffffff16565b61289b90919063ffffffff16565b9050612f67565b612f64838961236790919063ffffffff16565b90505b612f84670de0b6b3a764000082860161289b90919063ffffffff16565b94505050505098975050505050505050565b600080600085121590506000612ff7670de0b6b3a7640000612fe9612fcb8e8e87612fc2576004612fc5565b60005b8b6139b6565b85612fd95789600003612fdb565b895b61236790919063ffffffff16565b61289b90919063ffffffff16565b9050600082613018576130138289613a0390919063ffffffff16565b61302c565b61302b8289613a4d90919063ffffffff16565b5b905061306b61303b8c8b61267d565b61305d6ec097ce7bc90715b34b9f10000000008461236790919063ffffffff16565b61289b90919063ffffffff16565b90506130c361307c8c8b60006123ed565b6130b561308c8d8d60048b6139b6565b6130a7670de0b6b3a76400008661236790919063ffffffff16565b61289b90919063ffffffff16565b61289b90919063ffffffff16565b935050505098975050505050505050565b6000806000808673ffffffffffffffffffffffffffffffffffffffff168973ffffffffffffffffffffffffffffffffffffffff1614801561311257508b5b156132a4578773ffffffffffffffffffffffffffffffffffffffff168a73ffffffffffffffffffffffffffffffffffffffff16141561315057600080fd5b8873ffffffffffffffffffffffffffffffffffffffff168a73ffffffffffffffffffffffffffffffffffffffff161461327757600061318f8b8b612d46565b9050600081600f0b13156132655760008c905060006131ae8b8b612d46565b90506000806131bf8f8e8786613ad5565b9150915060008e905085600f0b84600f0b131561320a5760008c90506131f6848484896131ed5760036131f0565b60045b85613beb565b60019a509a5050505050505050505061337d565b60008b9050600061322c8585858a613223576001613226565b60005b86613beb565b9050613250816ec097ce7bc90715b34b9f100000000061289b90919063ffffffff16565b60009b509b505050505050505050505061337d565b61326f8b8b613f92565b925050613283565b670de0b6b3a764000091505b61329d88888d613294576003613297565b60045b886139b6565b9050613347565b8873ffffffffffffffffffffffffffffffffffffffff168a73ffffffffffffffffffffffffffffffffffffffff16146133185760008b6132f2578c6132ea5760036132ed565b60015b613302565b8c6132fe576004613301565b60005b5b90506133108b8b838a6139b6565b925050613324565b670de0b6b3a764000091505b60008b613332576003613335565b60045b9050613343898983896139b6565b9150505b61337481613366670de0b6b3a76400008561236790919063ffffffff16565b61289b90919063ffffffff16565b60009350935050505b9850989650505050505050565b600080604083600f0b85600f0b02901d90507fffffffffffffffffffffffffffffffff80000000000000000000000000000000600f0b81121580156133e257506f7fffffffffffffffffffffffffffffff600f0b8113155b6133eb57600080fd5b8091505092915050565b600080831182906134a1576040517f08c379a00000000000000000000000000000000000000000000000000000000081526004018080602001828103825283818151815260200191508051906020019080838360005b8381101561346657808201518184015260208101905061344b565b50505050905090810190601f1680156134935780820380516001836020036101000a031916815260200191505b509250505060405180910390fd5b5060008385816134ad57fe5b049050809150509392505050565b6000806000841390506000600860009054906101000a900473ffffffffffffffffffffffffffffffffffffffff1673ffffffffffffffffffffffffffffffffffffffff16631c34d076886040518263ffffffff1660e01b8152600401808273ffffffffffffffffffffffffffffffffffffffff1673ffffffffffffffffffffffffffffffffffffffff16815260200191505060206040518083038186803b15801561356557600080fd5b505afa158015613579573d6000803e3d6000fd5b505050506040513d602081101561358f57600080fd5b8101908080519060200190929190505050905060006135dd6135b489846004896139b6565b6135cf670de0b6b3a76400008a61236790919063ffffffff16565b61289b90919063ffffffff16565b9050826135ff576135fa8660000382613a0390919063ffffffff16565b613613565b6136128682613a4d90919063ffffffff16565b5b9350505050949350505050565b6000806000841390506000600860009054906101000a900473ffffffffffffffffffffffffffffffffffffffff1673ffffffffffffffffffffffffffffffffffffffff16631c34d076886040518263ffffffff1660e01b8152600401808273ffffffffffffffffffffffffffffffffffffffff1673ffffffffffffffffffffffffffffffffffffffff16815260200191505060206040518083038186803b1580156136ca57600080fd5b505afa1580156136de573d6000803e3d6000fd5b505050506040513d60208110156136f457600080fd5b81019080805190602001909291905050509050600061374261371989846003896139b6565b613734670de0b6b3a76400008a61236790919063ffffffff16565b61289b90919063ffffffff16565b9050826137645761375f8660000382613a0390919063ffffffff16565b613778565b6137778682613a4d90919063ffffffff16565b5b9350505050949350505050565b600080841361379357600080fd5b60006137d56137a589896003876139b6565b6137c76ec097ce7bc90715b34b9f10000000008961236790919063ffffffff16565b61289b90919063ffffffff16565b90506000806137ec600160008e8e8e8e8c8c6130d4565b91509150600081156138335761382c8361381e6ec097ce7bc90715b34b9f10000000008b61236790919063ffffffff16565b61289b90919063ffffffff16565b9050613849565b613846838961236790919063ffffffff16565b90505b613866670de0b6b3a764000082860161289b90919063ffffffff16565b94505050505098975050505050505050565b6000806000851215905060006138d9670de0b6b3a76400006138cb6138ad8e8e876138a45760036138a7565b60015b8b6139b6565b856138bb57896000036138bd565b895b61236790919063ffffffff16565b61289b90919063ffffffff16565b90506000826138fa576138f58289613a0390919063ffffffff16565b61390e565b61390d8289613a4d90919063ffffffff16565b5b905061394d61391d8c8b61267d565b61393f6ec097ce7bc90715b34b9f10000000008461236790919063ffffffff16565b61289b90919063ffffffff16565b90506139a561395e8c8b60016123ed565b61399761396e8d8d60038b6139b6565b613989670de0b6b3a76400008661236790919063ffffffff16565b61289b90919063ffffffff16565b61289b90919063ffffffff16565b935050505098975050505050505050565b6000806139c38686612d46565b9050600081600f0b136139e2576139da8686613f92565b9150506139fb565b6139f76139ee8761417f565b82878787613beb565b9150505b949350505050565b6000613a4583836040518060400160405280601e81526020017f536166654d6174683a207375627472616374696f6e206f766572666c6f7700008152506142e2565b905092915050565b600080828401905083811015613acb576040517f08c379a000000000000000000000000000000000000000000000000000000000815260040180806020018281038252601b8152602001807f536166654d6174683a206164646974696f6e206f766572666c6f77000000000081525060200191505060405180910390fd5b8091505092915050565b6000806000613ae3876143a2565b90506000613af0876143a2565b9050600085600f0b87600f0b1315613b5b57613b188688600f0b61455d90919063ffffffff16565b935082600f0b82600f0b12613b3e57680100000000000000008494509450505050613be2565b613b548284600f0b6145c490919063ffffffff16565b9050613bb0565b613b718787600f0b61455d90919063ffffffff16565b935082600f0b82600f0b13613b9757680100000000000000008494509450505050613be2565b613bad8383600f0b6145c490919063ffffffff16565b90505b613bdc613bd485613bc384600f0b614647565b600f0b6145c490919063ffffffff16565b600f0b61476f565b94505050505b94509492505050565b6000613c3f68010000000000000000613c2e84613c1d680100000000000000008b600f0b61455d90919063ffffffff16565b600f0b61338a90919063ffffffff16565b600f0b61536f90919063ffffffff16565b95506000613c9e68010000000000000000613c8d613c5d88886153d6565b613c7c680100000000000000008c600f0b61455d90919063ffffffff16565b600f0b61338a90919063ffffffff16565b600f0b61536f90919063ffffffff16565b9050613ca9846156ad565b15613dcf576000613db060006004811115613cc057fe5b866004811115613ccc57fe5b14613d3157600260008873ffffffffffffffffffffffffffffffffffffffff1673ffffffffffffffffffffffffffffffffffffffff16815260200190815260200160002060009054906101000a90046effffffffffffffffffffffffffffff16613d8d565b600160008873ffffffffffffffffffffffffffffffffffffffff1673ffffffffffffffffffffffffffffffffffffffff16815260200190815260200160002060009054906101000a90046effffffffffffffffffffffffffffff165b6effffffffffffffffffffffffffffff1689600f0b61536f90919063ffffffff16565b905081600f0b81600f0b13613dc55781613dc7565b805b915050613efa565b613dd8846156f0565b15613ef9576000613ede600480811115613dee57fe5b866004811115613dfa57fe5b14613e5f57600260008873ffffffffffffffffffffffffffffffffffffffff1673ffffffffffffffffffffffffffffffffffffffff16815260200190815260200160002060009054906101000a90046effffffffffffffffffffffffffffff16613ebb565b600160008873ffffffffffffffffffffffffffffffffffffffff1673ffffffffffffffffffffffffffffffffffffffff16815260200190815260200160002060009054906101000a90046effffffffffffffffffffffffffffff165b6effffffffffffffffffffffffffffff1689600f0b61455d90919063ffffffff16565b905081600f0b81600f0b12613ef35781613ef5565b805b9150505b5b68010000000000000000600f0b81600f0b13613f2157670de0b6b3a7640000915050613f89565b6000613f3882613f3389600f0b615733565b615773565b905068010000000000000000600f0b81600f0b12613f6257670de0b6b3a764000092505050613f89565b6040613f82670de0b6b3a764000083600f0b61236790919063ffffffff16565b901c925050505b95945050505050565b60008273ffffffffffffffffffffffffffffffffffffffff1663fd23ae026040518163ffffffff1660e01b815260040160206040518083038186803b158015613fda57600080fd5b505afa158015613fee573d6000803e3d6000fd5b505050506040513d602081101561400457600080fd5b81019080805190602001909291905050501561416d5760008273ffffffffffffffffffffffffffffffffffffffff16630247c79c670de0b6b3a76400006040518263ffffffff1660e01b81526004018082815260200191505060206040518083038186803b15801561407557600080fd5b505afa158015614089573d6000803e3d6000fd5b505050506040513d602081101561409f57600080fd5b8101908080519060200190929190505050905060008473ffffffffffffffffffffffffffffffffffffffff1663cfe8d91c6040518163ffffffff1660e01b815260040160206040518083038186803b1580156140fa57600080fd5b505afa15801561410e573d6000803e3d6000fd5b505050506040513d602081101561412457600080fd5b8101908080519060200190929190505050905061416481614156670de0b6b3a76400008561236790919063ffffffff16565b61289b90919063ffffffff16565b92505050614179565b670de0b6b3a764000090505b92915050565b6000600860009054906101000a900473ffffffffffffffffffffffffffffffffffffffff1673ffffffffffffffffffffffffffffffffffffffff1663dc2da858836040518263ffffffff1660e01b8152600401808273ffffffffffffffffffffffffffffffffffffffff1673ffffffffffffffffffffffffffffffffffffffff16815260200191505060206040518083038186803b15801561422057600080fd5b505afa158015614234573d6000803e3d6000fd5b505050506040513d602081101561424a57600080fd5b810190808051906020019092919050505073ffffffffffffffffffffffffffffffffffffffff166320f8175a6040518163ffffffff1660e01b815260040160206040518083038186803b1580156142a057600080fd5b505afa1580156142b4573d6000803e3d6000fd5b505050506040513d60208110156142ca57600080fd5b81019080805190602001909291905050509050919050565b600083831115829061438f576040517f08c379a00000000000000000000000000000000000000000000000000000000081526004018080602001828103825283818151815260200191508051906020019080838360005b83811015614354578082015181840152602081019050614339565b50505050905090810190601f1680156143815780820380516001836020036101000a031916815260200191505b509250505060405180910390fd5b5060008385039050809150509392505050565b600080600860009054906101000a900473ffffffffffffffffffffffffffffffffffffffff1673ffffffffffffffffffffffffffffffffffffffff1663dc2da858846040518263ffffffff1660e01b8152600401808273ffffffffffffffffffffffffffffffffffffffff1673ffffffffffffffffffffffffffffffffffffffff16815260200191505060206040518083038186803b15801561444457600080fd5b505afa158015614458573d6000803e3d6000fd5b505050506040513d602081101561446e57600080fd5b810190808051906020019092919050505073ffffffffffffffffffffffffffffffffffffffff166381cccc0b6040518163ffffffff1660e01b815260040160206040518083038186803b1580156144c457600080fd5b505afa1580156144d8573d6000803e3d6000fd5b505050506040513d60208110156144ee57600080fd5b810190808051906020019092919050505090506000614531670de0b6b3a764000061452360018561236790919063ffffffff16565b61289b90919063ffffffff16565b90506f7fffffffffffffffffffffffffffffff600f0b81111561455357600080fd5b8092505050919050565b60008082600f0b84600f0b0390507fffffffffffffffffffffffffffffffff80000000000000000000000000000000600f0b81121580156145b157506f7fffffffffffffffffffffffffffffff600f0b8113155b6145ba57600080fd5b8091505092915050565b60008082600f0b14156145d657600080fd5b600082600f0b604085600f0b901b816145eb57fe5b0590507fffffffffffffffffffffffffffffffff80000000000000000000000000000000600f0b811215801561463457506f7fffffffffffffffffffffffffffffff600f0b8113155b61463d57600080fd5b8091505092915050565b60008082600f0b1361465857600080fd5b6000809050600083600f0b905068010000000000000000811261468357604081901d90506040820191505b640100000000811261469d57602081901d90506020820191505b6201000081126146b557601081901d90506010820191505b61010081126146cc57600881901d90506008820191505b601081126146e257600481901d90506004820191505b600481126146f857600281901d90506002820191505b60028112614707576001820191505b60006040808403901b9050600083607f0386600f0b901b9050600067800000000000000090505b6000811315614762578182029150600060ff83901c905080607f0183901c92508082028401935050600181901d905061472e565b5081945050505050919050565b60006840000000000000000082600f0b1261478957600080fd5b7fffffffffffffffffffffffffffffffffffffffffffffffc0000000000000000082600f0b12156147bd576000905061536a565b60006f80000000000000000000000000000000905060006780000000000000008416600f0b131561480357608070016a09e667f3bcc908b2fb1366ea957d3e8202901c90505b60006740000000000000008416600f0b13156148345760807001306fe0a31b7152de8d5a46305c85edec8202901c90505b60006720000000000000008416600f0b13156148655760807001172b83c7d517adcdf7c8c50eb14a791f8202901c90505b60006710000000000000008416600f0b131561489657608070010b5586cf9890f6298b92b71842a983638202901c90505b60006708000000000000008416600f0b13156148c75760807001059b0d31585743ae7c548eb68ca417fd8202901c90505b60006704000000000000008416600f0b13156148f8576080700102c9a3e778060ee6f7caca4f7a29bde88202901c90505b60006702000000000000008416600f0b131561492957608070010163da9fb33356d84a66ae336dcdfa3f8202901c90505b60006701000000000000008416600f0b131561495a576080700100b1afa5abcbed6129ab13ec11dc95438202901c90505b600066800000000000008416600f0b131561498a57608070010058c86da1c09ea1ff19d294cf2f679b8202901c90505b600066400000000000008416600f0b13156149ba5760807001002c605e2e8cec506d21bfc89a23a00f8202901c90505b600066200000000000008416600f0b13156149ea576080700100162f3904051fa128bca9c55c31e5df8202901c90505b600066100000000000008416600f0b1315614a1a5760807001000b175effdc76ba38e31671ca9397258202901c90505b600066080000000000008416600f0b1315614a4a576080700100058ba01fb9f96d6cacd4b180917c3d8202901c90505b600066040000000000008416600f0b1315614a7a57608070010002c5cc37da9491d0985c348c68e7b38202901c90505b600066020000000000008416600f0b1315614aaa5760807001000162e525ee054754457d59952920268202901c90505b600066010000000000008416600f0b1315614ada57608070010000b17255775c040618bf4a4ade83fc8202901c90505b6000658000000000008416600f0b1315614b095760807001000058b91b5bc9ae2eed81e9b7d4cfab8202901c90505b6000654000000000008416600f0b1315614b38576080700100002c5c89d5ec6ca4d7c8acc017b7c98202901c90505b6000652000000000008416600f0b1315614b6757608070010000162e43f4f831060e02d839a9d16d8202901c90505b6000651000000000008416600f0b1315614b96576080700100000b1721bcfc99d9f890ea069117638202901c90505b6000650800000000008416600f0b1315614bc557608070010000058b90cf1e6d97f9ca14dbcc16288202901c90505b6000650400000000008416600f0b1315614bf45760807001000002c5c863b73f016468f6bac5ca2b8202901c90505b6000650200000000008416600f0b1315614c23576080700100000162e430e5a18f6119e3c02282a58202901c90505b6000650100000000008416600f0b1315614c525760807001000000b1721835514b86e6d96efd1bfe8202901c90505b60006480000000008416600f0b1315614c80576080700100000058b90c0b48c6be5df846c5b2ef8202901c90505b60006440000000008416600f0b1315614cae57608070010000002c5c8601cc6b9e94213c72737a8202901c90505b60006420000000008416600f0b1315614cdc5760807001000000162e42fff037df38aa2b219f068202901c90505b60006410000000008416600f0b1315614d0a57608070010000000b17217fba9c739aa5819f44f98202901c90505b60006408000000008416600f0b1315614d385760807001000000058b90bfcdee5acd3c1cedc8238202901c90505b60006404000000008416600f0b1315614d66576080700100000002c5c85fe31f35a6a30da1be508202901c90505b60006402000000008416600f0b1315614d9457608070010000000162e42ff0999ce3541b9fffcf8202901c90505b60006401000000008416600f0b1315614dc2576080700100000000b17217f80f4ef5aadda455548202901c90505b600063800000008416600f0b1315614def57608070010000000058b90bfbf8479bd5a81b51ad8202901c90505b600063400000008416600f0b1315614e1c5760807001000000002c5c85fdf84bd62ae30a74cc8202901c90505b600063200000008416600f0b1315614e49576080700100000000162e42fefb2fed257559bdaa8202901c90505b600063100000008416600f0b1315614e765760807001000000000b17217f7d5a7716bba4a9ae8202901c90505b600063080000008416600f0b1315614ea3576080700100000000058b90bfbe9ddbac5e109cce8202901c90505b600063040000008416600f0b1315614ed057608070010000000002c5c85fdf4b15de6f17eb0d8202901c90505b600063020000008416600f0b1315614efd5760807001000000000162e42fefa494f1478fde058202901c90505b600063010000008416600f0b1315614f2a57608070010000000000b17217f7d20cf927c8e94c8202901c90505b6000628000008416600f0b1315614f565760807001000000000058b90bfbe8f71cb4e4b33d8202901c90505b6000624000008416600f0b1315614f82576080700100000000002c5c85fdf477b662b269458202901c90505b6000622000008416600f0b1315614fae57608070010000000000162e42fefa3ae53369388c8202901c90505b6000621000008416600f0b1315614fda576080700100000000000b17217f7d1d351a389d408202901c90505b6000620800008416600f0b131561500657608070010000000000058b90bfbe8e8b2d3d4ede8202901c90505b6000620400008416600f0b13156150325760807001000000000002c5c85fdf4741bea6e77e8202901c90505b6000620200008416600f0b131561505e576080700100000000000162e42fefa39fe95583c28202901c90505b6000620100008416600f0b131561508a5760807001000000000000b17217f7d1cfb72b45e18202901c90505b60006180008416600f0b13156150b5576080700100000000000058b90bfbe8e7cc35c3f08202901c90505b60006140008416600f0b13156150e057608070010000000000002c5c85fdf473e242ea388202901c90505b60006120008416600f0b131561510b5760807001000000000000162e42fefa39f02b772c8202901c90505b60006110008416600f0b131561513657608070010000000000000b17217f7d1cf7d83c1a8202901c90505b60006108008416600f0b13156151615760807001000000000000058b90bfbe8e7bdcbe2e8202901c90505b60006104008416600f0b131561518c576080700100000000000002c5c85fdf473dea871f8202901c90505b60006102008416600f0b13156151b757608070010000000000000162e42fefa39ef44d918202901c90505b60006101008416600f0b13156151e2576080700100000000000000b17217f7d1cf79e9498202901c90505b600060808416600f0b131561520c57608070010000000000000058b90bfbe8e7bce5448202901c90505b600060408416600f0b13156152365760807001000000000000002c5c85fdf473de6eca8202901c90505b600060208416600f0b1315615260576080700100000000000000162e42fefa39ef366f8202901c90505b600060108416600f0b131561528a5760807001000000000000000b17217f7d1cf79afa8202901c90505b600060088416600f0b13156152b4576080700100000000000000058b90bfbe8e7bcd6d8202901c90505b600060048416600f0b13156152de57608070010000000000000002c5c85fdf473de6b28202901c90505b600060028416600f0b13156153085760807001000000000000000162e42fefa39ef3588202901c90505b600060018416600f0b131561533257608070010000000000000000b17217f7d1cf79ab8202901c90505b604083600f0b901d603f03600f0b81901c90506f7fffffffffffffffffffffffffffffff600f0b81111561536557600080fd5b809150505b919050565b60008082600f0b84600f0b0190507fffffffffffffffffffffffffffffffff80000000000000000000000000000000600f0b81121580156153c357506f7fffffffffffffffffffffffffffffff600f0b8113155b6153cc57600080fd5b8091505092915050565b60006004808111156153e457fe5b8260048111156153f057fe5b141561548757615480600660008573ffffffffffffffffffffffffffffffffffffffff1673ffffffffffffffffffffffffffffffffffffffff16815260200190815260200160002060009054906101000a90046effffffffffffffffffffffffffffff166effffffffffffffffffffffffffffff1668010000000000000000600f0b6145c490919063ffffffff16565b90506156a7565b6003600481111561549457fe5b8260048111156154a057fe5b141561553757615530600560008573ffffffffffffffffffffffffffffffffffffffff1673ffffffffffffffffffffffffffffffffffffffff16815260200190815260200160002060009054906101000a90046effffffffffffffffffffffffffffff166effffffffffffffffffffffffffffff1668010000000000000000600f0b6145c490919063ffffffff16565b90506156a6565b6000600481111561554457fe5b82600481111561555057fe5b14156155e7576155e0600660008573ffffffffffffffffffffffffffffffffffffffff1673ffffffffffffffffffffffffffffffffffffffff16815260200190815260200160002060009054906101000a90046effffffffffffffffffffffffffffff166effffffffffffffffffffffffffffff1668010000000000000000600f0b61338a90919063ffffffff16565b90506156a5565b600160048111156155f457fe5b82600481111561560057fe5b141561569757615690600560008573ffffffffffffffffffffffffffffffffffffffff1673ffffffffffffffffffffffffffffffffffffffff16815260200190815260200160002060009054906101000a90046effffffffffffffffffffffffffffff166effffffffffffffffffffffffffffff1668010000000000000000600f0b61338a90919063ffffffff16565b90506156a4565b6801000000000000000090505b5b5b5b92915050565b60008060048111156156bb57fe5b8260048111156156c757fe5b14806156e95750600160048111156156db57fe5b8260048111156156e757fe5b145b9050919050565b60006004808111156156fe57fe5b82600481111561570a57fe5b148061572c57506003600481111561571e57fe5b82600481111561572a57fe5b145b9050919050565b60007fffffffffffffffffffffffffffffffff80000000000000000000000000000000600f0b82600f0b141561576857600080fd5b816000039050919050565b60006157a16157998361578886600f0b614647565b600f0b61338a90919063ffffffff16565b600f0b61476f565b90509291505056fe536166654d6174683a206d756c7469706c69636174696f6e206f766572666c6f77a26469706673582212208b8c31fdc07b6c97d8c129e71ed05a9ed34215a732854732b60a8f9bfb9e1de264736f6c63430006080033",
  "immutableReferences": {},
  "source": "// SPDX-License-Identifier: MIT\npragma solidity >=0.6.8 <0.7.0;\nimport \"../helpers/Ownable.sol\";\nimport \"../interfaces/IOrderbookExchange.sol\";\nimport \"../interfaces/IWrapper.sol\";\nimport \"../interfaces/IOrganizer.sol\";\nimport \"../interfaces/IVaultHealth.sol\";\nimport \"../interfaces/IFixCapitalPool.sol\";\nimport \"../interfaces/IZeroCouponBond.sol\";\nimport \"../libraries/ABDKMath64x64.sol\";\nimport \"../libraries/SafeMath.sol\";\nimport \"../libraries/BigMath.sol\";\nimport \"../oracle/interfaces/IOracleContainer.sol\";\n\n\ncontract VaultHealth is IVaultHealth, Ownable {\n\tusing ABDKMath64x64 for int128;\n\tusing SafeMath for uint256;\n\n\tuint private constant SecondsPerYear = 31556926;\n\n\tuint private constant TOTAL_BASIS_POINTS = 10_000;\n\n\tint128 private constant ABDK_1 = 1<<64;\n\n\t/*\n\t\tthe RateAdjuster enum holds information about how to change the APY\n\t\twhen calculating required collateralisation ratios.\n\n\t\tUPPER means that you are checking the upper collateralisation limit\n\t\tLOWER means that you are checking the lower collateralisation limit\n\n\t\tDEPOSIT means that you are finding the rate multiplier for a ZCB that has been supplied to a vault\n\t\tBORROW means that you are finding the rate multiplier for a ZCB that has been borrowed from a vault\n\n\t\tBASE means that you are not adjusting the APY to find a collateralisation limit\n\t\tBASE means that you are finding the rate multiplier to get as best an approximation of market value\n\t\t\tof the ZCBs as possible\n\t*/\n\tenum RateAdjuster {\n\t\tUPPER_DEPOSIT,\n\t\tLOW_DEPOSIT,\n\t\tBASE,\n\t\tLOW_BORROW,\n\t\tUPPER_BORROW\n\t}\n\n\t/*\n\t\tthe Safety enum holds information about which collateralsation limit is in question\n\n\t\tas you may have inferred\n\t\tUPPER means that the upper collateralisation ratio is in use\n\t\tLOWER means that the lower collateralisation ratio is in use\n\t*/\n\tenum Safety {\n\t\tUPPER,\n\t\tLOW\n\t}\n\n\t/*\n\t\tWhen a user deposits bonds we take the Maximum of the rate shown in the oracle +\n\t\t(upper/lower)MinimumRateAdjustment[baseWrapperAsset] and the rate shown in the oracle adjusted with the\n\t\tcorresponding rate threshold as the rate for which collateralization requirements\n\t\twill be calculated for the (upper/lower) limit\n\n\t\tWhen a user borrowes bonds we take the Maximum of the rate shown in the oracle -\n\t\t(upper/lower)MinimumRateAdjustment[baseWrapperAsset] and the rate shown in the oracle adjusted with the\n\t\tcorresponding rate threshold as the rate for which collateralization requirements\n\t\twill be calculated for the (upper/lower) limit\n\t*/\n\tmapping(address => uint120) public override upperMinimumRateAdjustment;\n\tmapping(address => uint120) public override lowerMinimumRateAdjustment;\n\n\t/*\n\t\tThe Collateralisation Ratio mappings hold information about the % which any vault\n\t\tcontaining a asset must be overcollateralised.\n\n\t\tFor example if\n\t\tUpperCollateralizationRatio[_assetSupplied] == 1.0 and\n\t\tUpperCollateralizationRatio[_assetBorrowed] == 1.5\n\n\t\tthe total overcollateralisation % required for the vault due to volatility of asset prices\n\t\tis (1.0 * 1.5 - 1.0) == 50% for the upper collateralization limit\n\n\t\tthese mappings take in an underlying asset, they do not account for overcollateralisation\n\t\trequired due to rate volatility\n\n\t\tWhen ZCBs are used in a vault to find the collateralization ratio due to underlying asset\n\t\tyou must find UpperCollateralzationRatio[org.fixCapitalPoolToWrapper(_ZCBaddress)]\n\n\t\tIn ABDK64.64 format\n\t*/\n\tmapping(address => uint120) public override LowerCollateralizationRatio;\n\n\tmapping(address => uint120) public override UpperCollateralizationRatio;\n\n\n\t/*\n\t\tBecause rates are always over 1.0 (meaning the % notation of the rate is always positive)\n\t\tthe rate thresholds refer to the % change in the rate minus 1.\n\t\tAll rate thresholds must be above 1.0 as well,to get the resultant threshold adjusted rate for\n\t\tborrowing we find 1 + (rate - 1)/threshold\n\t\tto get the resultatn threshold adjusted rate for depositing we find\n\t\t1 + (rate - 1)*threshold\n\t\tFor example if there is a rate treshold of 1.25 and the current rate for that asset is \n\t\t3% the rate used when calculating borrow requirements for that asset will be\n\t\t(1.03-1) / 1.25 == 3% / 1.25 == 2.4%\n\t\tTo calculate the rate for deposit calculations for that asset we would do the following\n\t\t(1.03-1) * 1.25 == 3% * 1.25 == 3.75%\n\t*/\n\tmapping(address => uint120) public override LowerRateThreshold;\n\n\tmapping(address => uint120) public override UpperRateThreshold;\n\n\t/*\n\t\tSet by contract owner this mapping shows the maximum amount of any underlying asset (at all durations combined)\n\t\tthat may be shorted via the VaultFactory contract\n\t*/\n\tmapping(address => uint) public override maximumShortInterest;\n\n\taddress organizerAddress;\n\taddress oracleContainerAddress;\n\n\tconstructor(address _oracleContainerAddress) public {\n\t\toracleContainerAddress = _oracleContainerAddress;\n\t}\n\n\t/*\n\t\t@Description: get the amount of of years remaining to maturity for a specific FixCapitalPool\n\t\t\tin ABDK64.64 format\n\t\t\n\t\t@param address _fixCapitalPoolAddress: the fix capital pool for which to get the years remaining to maturity\n\t\t\tthis param could alternatively be the address of a ZCB contract and the same effect would be achived\n\t\t@param address _baseAsset: is address of an IWrapper contract, we need this address to call lastUpdate\n\t\t\tto find the latest timestamp for which yield has been finalised\n\n\t\t@return int128: years to maturity in ABDK64.64 format\n\t*/\n\tfunction getYearsRemaining(address _fixCapitalPoolAddress, address _baseAsset) internal view returns (int128) {\n\t\tuint maturity = IFixCapitalPool(_fixCapitalPoolAddress).maturity();\n\t\tuint lastUpdate = IWrapper(_baseAsset).lastUpdate();\n\t\treturn maturity > lastUpdate ? int128(((maturity - lastUpdate) << 64) / SecondsPerYear) : -1;\n\t}\n\n\t/*\n\t\t@Description: given a RateAdjuster find if it is for a deposited/supplied asset\n\t*/\n\tfunction isDeposited(RateAdjuster ra) internal pure returns(bool) {\n\t\treturn ra == RateAdjuster.UPPER_DEPOSIT  || ra == RateAdjuster.LOW_DEPOSIT;\n\t}\n\n\t/*\n\t\t@Description: given a RateAdjuster find if it is for a borrowed asset\n\t*/\n\tfunction isBorrowed(RateAdjuster ra) internal pure returns(bool) {\n\t\treturn ra == RateAdjuster.UPPER_BORROW || ra == RateAdjuster.LOW_BORROW;\n\t}\n\n\t/*\n\t\t@Description: given an underlying asset and rate adjuster find the rate multiplier\n\t\t\tthe rate multiplier is multiplied by the APY to get the effective rate for collateralisation purposes\n\n\t\t@param address _underlyingAssetAddress: the address of the underlying asset for which to find the rate multiplier\n\t\t\t_underlyingAssetAddress is the key in the mapping\n\t\t@param RateAdjuster _rateAdjuster: the rate adjuster tells us which mapping to get the multiplier from\n\n\t\t@return int128 multiplier: the multiplier with which to multiply the APY fetched from the rate oracle\n\t*/\n\tfunction getRateThresholdMultiplier(address _underlyingAssetAddress, RateAdjuster _rateAdjuster) internal view returns (int128 multiplier) {\n\t\tif (_rateAdjuster == RateAdjuster.UPPER_BORROW) {\n\t\t\tmultiplier = ABDK_1.div(int128(UpperRateThreshold[_underlyingAssetAddress]));\n\t\t}\n\t\telse if (_rateAdjuster == RateAdjuster.LOW_BORROW) {\n\t\t\tmultiplier = ABDK_1.div(int128(LowerRateThreshold[_underlyingAssetAddress]));\n\t\t}\n\t\telse if (_rateAdjuster == RateAdjuster.UPPER_DEPOSIT) {\n\t\t\tmultiplier = ABDK_1.mul(int128(UpperRateThreshold[_underlyingAssetAddress]));\n\t\t}\n\t\telse if (_rateAdjuster == RateAdjuster.LOW_DEPOSIT) {\n\t\t\tmultiplier = ABDK_1.mul(int128(LowerRateThreshold[_underlyingAssetAddress]));\n\t\t}\n\t\telse {\n\t\t\tmultiplier = ABDK_1;\n\t\t}\n\n\t}\n\n\t/*\n\t\t@Description: find the total implied yield between now and maturity for a given FCP\n\t\t\twe use this function rather than finding apy and exponentiating to the number of years because we can\n\t\t\tavoid 1 call to log and 1 call to exp when APY is calculated\n\t\t\tinstead we find the rate based on the anchor time period and exponetiate to the power of the number\n\t\t\tof anchor time periods to maturity\n\n\t\t@param address _fixCapitalPoolAddress: address of the FCP for which to find total yield until maturity\n\n\t\t@return int128: the market implied total yield of the FCP up to maturity, fetched from oracle\n\t*/\n\tfunction getYieldToMaturityFromOracle(address _fixCapitalPoolAddress) internal view returns (int128) {\n\t\tuint ytm = IOrderbookExchange(IOrganizer(organizerAddress).Orderbooks(_fixCapitalPoolAddress)).impliedYieldToMaturity();\n\t\tuint converted = ytm.mul(1**64).div(1 ether);\n\t\trequire(converted <= uint(type(int128).max));\n\t\treturn int128(converted);\n\t}\n\n\t/*\n\t\t@Description: fetch the implied rate of a specific FixCapitalPool\n\n\t\t@param address _fixCapitalPool: address of the FixCapitalPool in question\n\n\t\t@return int128: the APY in ABDK64.64 format\n\t*/\n\tfunction getAPYFromOracle(address _fixCapitalPoolAddress) internal view returns (int128) {\n\t\treturn IOrderbookExchange(IOrganizer(organizerAddress).Orderbooks(_fixCapitalPoolAddress)).getAPYFromOracle();\n\t}\n\n\t/*\n\t\t@Description: find multiplier for ZCB position for collateralisation purpouses\n\t\t\tthis multiplier is to be multiplied with the value of an amount of underlying asset equal to the amount of ZCBs\n\t\t\tto find the value of the ZCBs\n\n\t\t@param address _fixCapitalPool: address of the FixCapitalPool in question\n\t\t@param address _underlyingAssetAddress: the underlying asset in question\n\t\t@param RateAdjuster _rateAdjuster: the adjuster for which to find the rate multiplier\n\n\t\t@return uint: rate multiplier\n\t*/\n\tfunction getRateMultiplier_BaseRate(address _fixCapitalPoolAddress, address _underlyingAssetAddress, RateAdjuster _rateAdjuster) internal view returns (uint) {\n\t\treturn getRateMultiplier(_fixCapitalPoolAddress, _underlyingAssetAddress, _rateAdjuster, ABDK_1);\n\t}\n\n\t/*\n\t\t@Description: find multiplier that discounts value of ZCBs now against face value of ZCBs.\n\t\t\tin other words return ValueNow/ValueAtMaturity\n\t\t\n\t\t@param address _fixCapitalPool: address of the FixCapitalPool in question\n\t\t@param address _underlyingAssetAddress: the underlying asset in question\n\t\t@param RateAdjuster _rateAdjuster: the adjuster for which to find the rate multiplier\n\t\t@param int128 _rateChange: a change multiplier, multiplied with APY to get changed APY\n\t*/\n\tfunction getRateMultiplier(address _fixCapitalPoolAddress, address _underlyingAssetAddress, RateAdjuster _rateAdjuster, int128 _rateChange) internal view returns (uint) {\n\t\t//ensure that we have been passed a ZCB address if not there is a rate multiplier of 1.0\n\t\tint128 yearsRemaining = getYearsRemaining(_fixCapitalPoolAddress, _underlyingAssetAddress);\n\t\tif (yearsRemaining <= 0) {\n\t\t\treturn getYieldSinceMaturity(_fixCapitalPoolAddress, _underlyingAssetAddress);\n\t\t}\n\t\treturn rateToRateMultiplier(getAPYFromOracle(_fixCapitalPoolAddress), yearsRemaining, _underlyingAssetAddress, _rateAdjuster, _rateChange);\n\t}\n\n\n\t/*\n\t\t@Description: given a startingAPY for a FCP fetched from the oracle and some other info get a rate multiplier\n\n\t\t@param int128 _startAPY: the apy given by the oracle\n\t\t@param int128: _yearsRemaining: the time in years until the FCP matures\n\t\t@param address _baseWrapperAddress: the wrapper corresponding to the FCP\n\t\t@param RateAdjuster _rateAdjuster: the adjuster for which to find the rate multiplier\n\t\t@param int128 _rateChange: a change multiplier, multiplied with APY to get changed APY\n\t*/\n\tfunction rateToRateMultiplier(\n\t\tint128 _startAPY,\n\t\tint128 _yearsRemaining,\n\t\taddress _baseWrapperAddress,\n\t\tRateAdjuster _rateAdjuster,\n\t\tint128 _rateChange\n\t) internal view returns (uint) {\n\t\t_startAPY = _startAPY.sub(ABDK_1).mul(_rateChange).add(ABDK_1);\n\t\tint128 adjApy = _startAPY.sub(ABDK_1).mul(getRateThresholdMultiplier(_baseWrapperAddress, _rateAdjuster)).add(ABDK_1);\n\t\tif (isDeposited(_rateAdjuster)) {\n\t\t\tint128 temp = _startAPY\n\t\t\t\t.add(int128(\n\t\t\t\t\t_rateAdjuster == RateAdjuster.UPPER_DEPOSIT ?\n\t\t\t\t\t\tupperMinimumRateAdjustment[_baseWrapperAddress]\n\t\t\t\t\t\t\t:\n\t\t\t\t\t\tlowerMinimumRateAdjustment[_baseWrapperAddress]\n\t\t\t\t));\n\t\t\tadjApy = temp > adjApy ? temp : adjApy;\n\t\t}\n\t\telse if (isBorrowed(_rateAdjuster)) {\n\t\t\tint128 temp = _startAPY\n\t\t\t\t.sub(int128(\n\t\t\t\t\t_rateAdjuster == RateAdjuster.UPPER_BORROW ?\n\t\t\t\t\t\tupperMinimumRateAdjustment[_baseWrapperAddress]\n\t\t\t\t\t\t\t:\n\t\t\t\t\t\tlowerMinimumRateAdjustment[_baseWrapperAddress]\n\t\t\t\t));\n\t\t\tadjApy = temp < adjApy ? temp : adjApy;\n\t\t}\n\t\tif (adjApy <= ABDK_1) return (1 ether);\n\t\t/*\n\t\t\trateMultiplier == 1 / ((adjApy)**_yearsRemaining)\n\t\t\trateMultiplier == ((adjApy)**-_yearsRemaining)\n\t\t*/\n\t\tint128 rateMultiplier = BigMath.Pow(adjApy, _yearsRemaining.neg());\n\t\tif (rateMultiplier >= ABDK_1) return (1 ether);\n\t\t//normalize by changing to 1 ether format\n\t\treturn uint(rateMultiplier).mul(1 ether) >> 64;\n\t}\n\n\t/*\n\t\t@Description: given a matured FCP find the appreciation in unit terms of the ZCBs since maturity\n\n\t\t@param address _fixCapitalPoolAddress: the address of the FCP contract for which to find the yield since maturity\n\t\t@param address _underlyingAssetAddress: the wrapper corresponding to the FCP\n\n\t\t@return uint: the yield inflated by (1 ether) of ZCBs corresponding to the FCP since maturity\n\t*/\n\tfunction getYieldSinceMaturity(address _fixCapitalPoolAddress, address _underlyingAssetAddress) internal view returns (uint) {\n\t\tif (IFixCapitalPool(_fixCapitalPoolAddress).inPayoutPhase()) {\n\t\t\t//account for nominal value accrual of ZCBs since maturity\n\t\t\tuint numerator = IWrapper(_underlyingAssetAddress).WrappedAmtToUnitAmt_RoundDown(1 ether);\n\t\t\tuint denominator = IFixCapitalPool(_fixCapitalPoolAddress).maturityConversionRate();\n\t\t\treturn numerator.mul(1 ether).div(denominator);\n\t\t}\n\t\telse {\n\t\t\treturn (1 ether);\n\t\t}\t\t\n\t}\n\n\t/*\n\t\t@Description: given two FCPs of the same base wrapper find the implied market rate between the maturities of the FCPs\n\n\t\t@param address _supplied: the address of the FCP for which ZCB &/ YT are being provided as collateral\n\t\t@param address _borrowed: the address of the FCP for which ZCB is being borrowed\n\t\t@param int128 _ytmSupplied: years til maturity (ytm) for the supplied FCP, ABDK format\n\t\t@param int128 _ytmBorrowed: years til maturity (ytm) for the borrowed FCP, ABDK format\n\n\t\t@return int128 spreadAPY: the implied matket rate for the time spread between the two maturities, ABDK format\n\t\t@return int128 spreadTime: the magnitude in years of the time between the two maturities, ABDK format\n\t*/\n\tfunction impliedAPYBetweenMaturities(address _supplied, address _borrowed, int128 _ytmSupplied, int128 _ytmBorrowed) internal view returns (int128 spreadAPY, int128 spreadTime) {\n\t\tint128 totalYieldSupplied = getYieldToMaturityFromOracle(_supplied);\n\t\tint128 totalYieldBorrowed = getYieldToMaturityFromOracle(_borrowed);\n\t\tint128 yieldSpread;\n\t\tif (_ytmSupplied > _ytmBorrowed) {\n\t\t\tspreadTime = _ytmSupplied.sub(_ytmBorrowed);\n\t\t\tif (totalYieldBorrowed  >= totalYieldSupplied) {\n\t\t\t\t/*\n\t\t\t\t\tthere is an inefficiency in the market that says there is negative yield between maturities\n\t\t\t\t\twhich is impossible so we override it and say that there is no yield between maturities\n\t\t\t\t*/\n\t\t\t\treturn (ABDK_1, spreadTime);\n\t\t\t}\n\t\t\tyieldSpread = totalYieldSupplied.div(totalYieldBorrowed);\n\t\t}\n\t\telse {\n\t\t\tspreadTime = _ytmBorrowed.sub(_ytmSupplied);\n\t\t\tif (totalYieldBorrowed <= totalYieldSupplied) {\n\t\t\t\t/*\n\t\t\t\t\tthere is an inefficiency in the market that says there is negative yield between maturities\n\t\t\t\t\twhich is impossible so we override it and say that there is no yield between maturities\n\t\t\t\t*/\n\t\t\t\treturn (ABDK_1, spreadTime);\n\t\t\t}\n\t\t\tyieldSpread = totalYieldBorrowed.div(totalYieldSupplied);\n\t\t}\n\t\t/*\n\t\t\tyieldSpread == spreadAPY**spreadTime\n\t\t\tlog(yieldSpread) == spreadTime*log(spreadAPY)\n\t\t\tlog(yieldSpread)/spreadTime == log(spreadAPY)\n\t\t\tspreadAPY == exp(log(yieldSpread)/spreadTime)\n\t\t*/\n\t\tspreadAPY = yieldSpread.log_2().div(spreadTime).exp_2();\n\t}\n\n\n\t/*\n\t\t@Description: given both the supplied and borrowed assets find the composite rate multiplier for the vault\n\n\t\t@param bool _positiveSupplied: true if and only if a positve number of ZCB corresponding to the supplied FCP has been supplied\n\t\t@param bool _upperSafety: true if the safety level for which to calculate the rate multiplier is Safety.UPPER\n\t\t\tfalse otherwise\n\t\t@param address _supplied: the asset or FCP that is being supplied as collateral to the vault\n\t\t@param address _baseSupplied: the wrapper corresponding to the asset that has been supplied\n\t\t@param address _borrowed: the address of the FCP at which ZCB is being borrowed\n\t\t@param address _baseBorrowed: the wrapper corresponding to the borrowed FCP\n\t\t@param int128 _suppliedRateChange: a change multiplier, multiplied with the APY of the supplied\n\t\t\tto get changed APY for the supplied\n\t\t@param int128 _borrowedRateChange: a change multiplier, multiplied with the APY of the borrowed\n\t\t\tto get changed APY for the borrowed\n\n\t\t@return uint: the combined rate multiplier given the supplied asset and the borrowed asset\n\t\t@return bool: true if: supplied+borrowed assets are both zcbs on the same wrapper asset and\n\t\t\t\tthe maturity of the supplied is before the maturity of the borrowed,\n\t\t\tfalse otherwise\n\t*/\n\tfunction combinedRateMultipliers(\n\t\tbool _positiveSupplied,\n\t\tbool _upperSafety,\n\t\taddress _supplied,\n\t\taddress _baseSupplied,\n\t\taddress _borrowed,\n\t\taddress _baseBorrowed,\n\t\tint128 _suppliedRateChange,\n\t\tint128 _borrowedRateChange\n\t) internal view returns (uint, bool) {\n\t\tuint suppliedMultiplier;\n\t\tuint borrowedMultiplier;\n\t\tif (_baseSupplied == _baseBorrowed && _positiveSupplied) {\n\t\t\trequire(_supplied != _borrowed);\n\t\t\tif (_supplied != _baseSupplied) { //supplied is zcb\n\t\t\t\tint128 ytmSupplied = getYearsRemaining(_supplied, _baseSupplied);\n\t\t\t\tif (ytmSupplied > 0) { //supplied zcb has yet to reach maturity\n\t\t\t\t\t//find implied market rate between maturity dates and calculate\n\t\t\t\t\tbool _ups = _upperSafety; //prevent stack too deep\n\t\t\t\t\tint128 ytmBorrowed = getYearsRemaining(_borrowed, _baseBorrowed);\n\t\t\t\t\t(int128 spreadAPY, int128 spreadTime) = impliedAPYBetweenMaturities(_supplied, _borrowed, ytmSupplied, ytmBorrowed);\n\t\t\t\t\taddress _bs = _baseSupplied; //prevent stack too deep\n\t\t\t\t\tif (ytmBorrowed > ytmSupplied) {\n\t\t\t\t\t\tint128 src = _suppliedRateChange; // prevent stack too deep\n\t\t\t\t\t\treturn (rateToRateMultiplier(spreadAPY, spreadTime, _bs, (_ups ? RateAdjuster.UPPER_BORROW : RateAdjuster.LOW_BORROW), src), true);\n\t\t\t\t\t}\n\t\t\t\t\telse {\n\t\t\t\t\t\tint128 brc = _borrowedRateChange; // prevent stack too deep\n\t\t\t\t\t\tuint rm = rateToRateMultiplier(spreadAPY, spreadTime, _bs, (_ups ? RateAdjuster.UPPER_DEPOSIT : RateAdjuster.LOW_DEPOSIT), brc);\n\t\t\t\t\t\treturn (uint((1 ether)**2).div(rm), false);\n\t\t\t\t\t}\n\t\t\t\t}\n\t\t\t\telse { //supplied zcb has matured\n\t\t\t\t\tsuppliedMultiplier = getYieldSinceMaturity(_supplied, _baseSupplied);\n\t\t\t\t}\n\t\t\t}\n\t\t\telse { //supplied is a wrapped asset\n\t\t\t\tsuppliedMultiplier = (1 ether);\n\t\t\t}\n\t\t\tborrowedMultiplier = getRateMultiplier(_borrowed, _baseBorrowed, (_upperSafety ? RateAdjuster.UPPER_BORROW : RateAdjuster.LOW_BORROW) , _borrowedRateChange);\n\t\t}\n\t\telse { //base assets are different or supplied is negative, do not calculate time spread\n\t\t\tif (_supplied != _baseSupplied) { //supplied is zcb\n\t\t\t\tRateAdjuster raSupplied = (_upperSafety ?\n\t\t\t\t\t(_positiveSupplied ? RateAdjuster.UPPER_DEPOSIT : RateAdjuster.UPPER_BORROW)\n\t\t\t\t\t\t:\n\t\t\t\t\t(_positiveSupplied ? RateAdjuster.LOW_DEPOSIT : RateAdjuster.LOW_BORROW));\n\t\t\t\tsuppliedMultiplier = getRateMultiplier(_supplied, _baseSupplied, raSupplied , _suppliedRateChange);\n\t\t\t}\n\t\t\telse {\n\t\t\t\tsuppliedMultiplier = (1 ether);\n\t\t\t}\n\t\t\tRateAdjuster raBorrowed = (_upperSafety ? RateAdjuster.UPPER_BORROW : RateAdjuster.LOW_BORROW);\n\t\t\tborrowedMultiplier = getRateMultiplier(_borrowed, _baseBorrowed, raBorrowed , _borrowedRateChange);\n\t\t}\n\t\treturn (suppliedMultiplier.mul(1 ether).div(borrowedMultiplier), false);\n\t}\n\n\t/*\n\t\t@Description: return only the uint value that is returned by combiendRateMultipliers\n\t*/\n\tfunction combinedRateMultipliers_onlyMultiplier(\n\t\tbool _positiveSupplied,\n\t\tbool _upperSafety,\n\t\taddress _supplied,\n\t\taddress _baseSupplied,\n\t\taddress _borrowed,\n\t\taddress _baseBorrowed,\n\t\tint128 _suppliedRateChange,\n\t\tint128 _borrowedRateChange\n\t) internal view returns (uint multiplier) {\n\t\t(multiplier, ) = combinedRateMultipliers(\n\t\t\t_positiveSupplied,\n\t\t\t_upperSafety,\n\t\t\t_supplied,\n\t\t\t_baseSupplied,\n\t\t\t_borrowed,\n\t\t\t_baseBorrowed,\n\t\t\t_suppliedRateChange,\n\t\t\t_borrowedRateChange\n\t\t);\n\t}\n\n\t/*\n\t\t@Description: find the price of the deposited asset denominated in the borrowed asset\n\t\t\tPriceOfDeposited/PriceOfBorrowed\n\t\t\tinflated by 1 ether\n\n\t\t@param address _deposited: the address of the asset supplied to the vault\n\t\t@param address _borrowed: the address of the asset borrowed from the vault\n\t*/\n\tfunction crossAssetPrice(address _deposited, address _borrowed) internal view returns(uint) {\n\t\tif (_deposited == _borrowed) {\n\t\t\treturn (1 ether);\n\t\t}\n\t\tIOracleContainer orc = IOracleContainer(oracleContainerAddress);\n\t\tuint PriceDepositedAsset = orc.getAssetPrice(_deposited);\n\t\tuint PriceBorrowededAsset = orc.getAssetPrice(_borrowed);\n\t\treturn uint(1 ether).mul(PriceDepositedAsset).div(PriceBorrowededAsset);\n\t}\n\n\t/*\n\t\t@Description: each asset has a collateralisation ratio which is due to its price volatility,\n\t\t\teach vault must be over collateralised by a factor of the collateralisation ratio of the borrowed asset * that of the supplied\n\t\t\tthis function finds that over collateralisation ratio that must be maintained due to the volatility of an asset\n\n\t\t@param address _deposited: the address of the asset supplied to the vault\n\t\t@param address _borrowed: the address of the asset borrowed from the vault\n\t\t@param Safety _safety: gives information about which collateralisation ratio mapping to get the values from\n\n\t\t@return uint: cross collateralisation ratio between the asset deposited into the vault and the asset borrowed from the vault\n\t*/\n\tfunction crossCollateralizationRatio(address _deposited, address _borrowed, Safety _safety) internal view returns (uint) {\n\t\tif (_deposited == _borrowed) {\n\t\t\treturn (1 ether);\n\t\t}\n\t\tif (_safety == Safety.UPPER) {\n\t\t\treturn uint(int128(UpperCollateralizationRatio[_deposited]).mul(int128(UpperCollateralizationRatio[_borrowed]))).mul(1 ether) >> 64;\n\t\t}\n\t\treturn uint(int128(LowerCollateralizationRatio[_deposited]).mul(int128(LowerCollateralizationRatio[_borrowed]))).mul(1 ether) >> 64;\n\t}\n\n\t/*\n\t\t@Description: if an asset is a ZCB find its wrapper asset address\n\t\t\tdo this for both the asset supplied and the asset borrowed from the vault\n\n\t\t@param address _deposited: the address of the asset supplied to the vault\n\t\t@param address _borrowed: the address of the asset borrowed from the vault\n\n\t\t@return address baseDepositedAsset: the underlying wrapper for the collateral asset\n\t\t@return address baseBorrowedAsset: the underlying wrapper for the borrowed asset\n\t\t@return address fcpDeposited: the address of the FixCapitalPool corresponding to the collateral asset\n\t\t\tit is possible that there is no FixCapitalPool associated with the collateral asset, in this case\n\t\t\tthis value will return as address(0)\n\t\t@return address fcpSupplied: the address of the FixCapitalPool corresponding to the borrowed asset\n\t*/\n\tfunction baseAssetAddresses(address _deposited, address _borrowed) internal view returns (\n\t\taddress baseDepositedAsset,\n\t\taddress baseBorrowedAsset,\n\t\taddress fcpDeposited,\n\t\taddress fcpBorrowed\n\t) {\n\t\tIOrganizer org = IOrganizer(organizerAddress);\n\t\tif (UpperRateThreshold[_deposited] == 0) { //deposited is ZCB\n\t\t\tfcpDeposited = IZeroCouponBond(_deposited).FixCapitalPoolAddress();\n\t\t\tbaseDepositedAsset = org.fixCapitalPoolToWrapper(fcpDeposited);\n\t\t}\n\t\telse {\n\t\t\tfcpDeposited = _deposited;\n\t\t\tbaseDepositedAsset = _deposited;\n\t\t}\n\t\tfcpBorrowed = IZeroCouponBond(_borrowed).FixCapitalPoolAddress();\n\t\tbaseBorrowedAsset = org.fixCapitalPoolToWrapper(fcpBorrowed);\n\t}\n\n\t/*\n\t\t@Description: take 2 FixCapitalPool addresses and find their corresponding base asset addresses\n\t*/\n\tfunction bothFCPtoBaseAddresses(address _addr0, address _addr1) internal view returns (address baseAddr0, address baseAddr1) {\n\t\tIOrganizer org = IOrganizer(organizerAddress);\n\t\tbaseAddr0 = org.fixCapitalPoolToWrapper(_addr0);\n\t\tbaseAddr1 = org.fixCapitalPoolToWrapper(_addr1);\n\t}\n\n\n\t/*\n\t\t@Description: find the amount of supplied asset that is required for a vault stay above the upper collateralisation limit\n\n\t\t@param address _assetSupplied: the address of the asset supplied to the vault\n\t\t@param address _assetBorrowed: the address of the asset borrowed from the vault\n\t\t@param uint _amountBorrowed: the amount of _assetBorrowed that has been borrowed from the vault\n\n\t\t@return uint: the minimum amount of _assetSupplied that must be in the vault in order for the vault to stay above the\n\t\t\tupper collateralisation limit\n\t*/\n\tfunction _amountSuppliedAtUpperLimit(address _assetSupplied, address _assetBorrowed, uint _amountBorrowed) internal view returns (uint) {\n\t\t(address _baseSupplied, address _baseBorrowed, address fcpSupplied, address fcpBorrowed) = baseAssetAddresses(_assetSupplied, _assetBorrowed);\n\n\t\t//wierd hack to prevent stack too deep\n\t\t_amountBorrowed = _amountBorrowed\n\t\t\t.mul(crossAssetPrice(_baseSupplied, _baseBorrowed))\n\t\t\t.mul(crossCollateralizationRatio(_baseSupplied, _baseBorrowed, Safety.UPPER))\n\t\t\t.div(1 ether);\n\t\treturn _amountBorrowed\n\t\t\t.div(combinedRateMultipliers_onlyMultiplier(true, true, fcpSupplied, _baseSupplied, fcpBorrowed, _baseBorrowed, ABDK_1, ABDK_1));\n\t}\n\n\t/*\n\t\t@Description: find the amount of supplied asset that is required for a vault stay above the lower collateralisation limit\n\n\t\t@param address _assetSupplied: the address of the asset supplied to the vault\n\t\t@param address _assetBorrowed: the address of the asset borrowed from the vault\n\t\t@param uint _amountBorrowed: the amount of _assetBorrowed that has been borrowed from the vault\n\n\t\t@return uint: the minimum amount of _assetSupplied that must be in the vault in order for the vault to stay above the\n\t\t\tlower collateralisation limit\n\t*/\n\tfunction _amountSuppliedAtLowerLimit(address _assetSupplied, address _assetBorrowed, uint _amountBorrowed) internal view returns (uint) {\n\t\t(address _baseSupplied, address _baseBorrowed, address fcpSupplied, address fcpBorrowed) = baseAssetAddresses(_assetSupplied, _assetBorrowed);\n\n\t\t//wierd hack to prevent stack too deep\n\t\t_amountBorrowed = _amountBorrowed\n\t\t\t.mul(crossAssetPrice(_baseSupplied, _baseBorrowed))\n\t\t\t.mul(crossCollateralizationRatio(_baseSupplied, _baseBorrowed, Safety.LOW))\n\t\t\t.div(1 ether);\n\t\treturn _amountBorrowed\n\t\t\t.div(combinedRateMultipliers_onlyMultiplier(true, false, fcpSupplied, _baseSupplied, fcpBorrowed, _baseBorrowed, ABDK_1, ABDK_1));\n\t}\n\n\t/*\n\t\t@Description: find the maximum amount borrowed for a YT vault at the upper limit\n\t\t\tthis function handles the case where the YT vault is not based on a time/rate spread\n\t\t\tthis means that either the _baseSupplied != _baseBorrowed || _amountBond <= 0 || _FCPsupplied is past maturity\n\n\t\t@param address _FCPsupplied: the FCP corresponding to the YT vault's collateral\n\t\t@param address _baseSupplied: the wrapper corresponding to _FCPsupplied\n\t\t@param address _FCPborrowed: the FCP corresponding to the ZCB of the YT vault's debt\n\t\t@param address _baseBorrowed: the wrapper corresponding to _FCPborrowed\n\t\t@param uint _amountYield: the amount of YT being supplied to the vault (in unit amount)\n\t\t@param int _amountBond: the difference between the amount of ZCB supplied to the vault and the amount of YT supplied\n\t\t\tif _amountYield is unit amounts of collateral in the underlying, add _amountBond to _amountYield to get the amt of ZCB collateral\n\t\t\tamtZCB - amtYT == _amountBond\n\t\t@param int128 _suppliedRateChange: a change multiplier, multiplied with the APY of the supplied\n\t\t\tto get changed APY for the supplied\n\t\t@param int128 _borrowedRateChange: a change multiplier, multiplied with the APY of the borrowed\n\t\t\tto get changed APY for the borrowed\n\t*/\n\tfunction YTvaultAmtBorrowedUL_0(\n\t\taddress _FCPsupplied,\n\t\taddress _baseSupplied,\n\t\taddress _FCPborrowed,\n\t\taddress _baseBorrowed,\n\t\tuint _amountYield,\n\t\tint _amountBond,\n\t\tint128 _suppliedRateChange,\n\t\tint128 _borrowedRateChange\n\t) internal view returns (uint) {\n\t\tbool positiveBond = _amountBond >= 0;\n\n\t\t//if !positiveBond there are essentially 2 ZCBs being borrowed from the vault with _baseSupplied as the supplied asset\n\t\t//thus we change the rate adjuster to borrow if the \"supplied\" ZCB is negative\n\t\tuint ZCBvalue = uint(positiveBond ? _amountBond : -_amountBond)\n\t\t\t.mul(getRateMultiplier(_FCPsupplied, _baseSupplied, positiveBond ? RateAdjuster.UPPER_DEPOSIT : RateAdjuster.UPPER_BORROW, _suppliedRateChange))\n\t\t\t.div(1 ether);\n\n\t\t//after rate adjustments find the effective amount of the underlying asset which may be used in collateralisation calculation\n\t\tuint compositeSupplied = positiveBond ? _amountYield.add(ZCBvalue) : _amountYield.sub(ZCBvalue);\n\n\t\t//wierd hack to prevent stack too deep\n\t\tcompositeSupplied = compositeSupplied\n\t\t\t.mul((1 ether)**2)\n\t\t\t.div(crossAssetPrice(_baseSupplied, _baseBorrowed));\n\t\treturn compositeSupplied\n\t\t\t.mul(1 ether)\n\t\t\t.div(getRateMultiplier(_FCPborrowed, _baseBorrowed, RateAdjuster.UPPER_BORROW, _borrowedRateChange))\n\t\t\t.div(crossCollateralizationRatio(_baseSupplied, _baseBorrowed, Safety.UPPER));\n\t}\n\n\t/*\n\t\t@Description: find the maximum amount borrowed for a YT vault at the upper limit\n\t\t\tthis function handles the case where the YT vault is based on a time/rate spread\n\t\t\tthis means that _baseSupplied == _baseBorrowed && _amountBond > 0 && _FCPsupplied is not past maturity\n\n\t\t@param address _FCPsupplied: the FCP corresponding to the YT vault's collateral\n\t\t@param address _baseSupplied: the wrapper corresponding to _FCPsupplied\n\t\t@param address _FCPborrowed: the FCP corresponding to the ZCB of the YT vault's debt\n\t\t@param address _baseBorrowed: the wrapper corresponding to _FCPborrowed\n\t\t@param uint _amountYield: the amount of YT being supplied to the vault (in unit amount)\n\t\t@param int _amountBond: the difference between the amount of ZCB supplied to the vault and the amount of YT supplied\n\t\t\tif _amountYield is unit amounts of collateral in the underlying, add _amountBond to _amountYield to get the amt of ZCB collateral\n\t\t\tamtZCB - amtYT == _amountBond\n\t\t@param int128 _suppliedRateChange: a change multiplier, multiplied with the APY of the supplied\n\t\t\tto get changed APY for the supplied\n\t\t@param int128 _borrowedRateChange: a change multiplier, multiplied with the APY of the borrowed\n\t\t\tto get changed APY for the borrowed\n\t*/\n\tfunction YTvaultAmtBorrowedUL_1(\n\t\taddress _FCPsupplied,\n\t\taddress _baseSupplied,\n\t\taddress _FCPborrowed,\n\t\taddress _baseBorrowed,\n\t\tuint _amountYield,\n\t\tint _amountBond,\n\t\tint128 _suppliedRateChange,\n\t\tint128 _borrowedRateChange\n\t) internal view returns (uint) {\n\t\trequire(_amountBond > 0);\n\t\tuint maxBorrowAgainstYield = _amountYield\n\t\t\t.mul((1 ether)**2)\n\t\t\t.div(getRateMultiplier(_FCPborrowed, _baseBorrowed, RateAdjuster.UPPER_BORROW, _borrowedRateChange));\n\t\t(uint rmSpread, bool flip) = combinedRateMultipliers(true, true, _FCPsupplied, _baseSupplied, _FCPborrowed, _baseBorrowed, _suppliedRateChange, _borrowedRateChange);\n\t\tuint maxBorrowAgainstBond;\n\t\tif (flip) {\n\t\t\tmaxBorrowAgainstBond = uint(_amountBond)\n\t\t\t\t.mul((1 ether)**2)\n\t\t\t\t.div(rmSpread);\n\t\t}\n\t\telse {\n\t\t\tmaxBorrowAgainstBond = uint(_amountBond)\n\t\t\t\t.mul(rmSpread);\n\t\t}\n\n\t\treturn (maxBorrowAgainstYield + maxBorrowAgainstBond).div(1 ether);\n\t}\n\n\t/*\n\t\t@Description: find the maximum amount borrowed for a YT vault at the upper limit\n\t\t\tthis function handles the case where the FCP of the assets supplied to the YT vault\n\t\t\tis the same FCP for which ZCB is being borrowed from the vault\n\n\t\t@param address _FCP: the FCP corresponding to the supplied & borrowed assets\n\t\t@param uint _amountYield: the amount of YT being supplied to the vault (in unit amount)\n\t\t@param int _amountBond: the difference between the amount of ZCB supplied to the vault and the amount of YT supplied\n\t\t\tif _amountYield is unit amounts of collateral in the underlying, add _amountBond to _amountYield to get the amt of ZCB collateral\n\t\t\tamtZCB - amtYT == _amountBond\n\t\t@param int128 _borrowedRateChange: a change multiplier, multiplied with the APY of the borrowed\n\t\t\tto get changed APY for the borrowed\n\t*/\n\tfunction YTvaultAmtBorrowedUL_2(\n\t\taddress _FCP,\n\t\tuint _amountYield,\n\t\tint _amountBond,\n\t\tint128 _borrowedRateChange\n\t) internal view returns (uint) {\n\t\tbool positiveBond = _amountBond > 0;\n\t\taddress base = IOrganizer(organizerAddress).fixCapitalPoolToWrapper(_FCP);\n\t\tuint totalToBorrowAgainst  = _amountYield\n\t\t\t.mul(1 ether)\n\t\t\t.div(getRateMultiplier(_FCP, base, RateAdjuster.UPPER_BORROW, _borrowedRateChange));\n\t\treturn positiveBond ? totalToBorrowAgainst.add(uint(_amountBond)) : totalToBorrowAgainst.sub(uint(-_amountBond));\n\t}\n\n\t/*\n\t\t@Description: find the maximum amount borrowed for a YT vault at the lower limit\n\t\t\tthis function handles the case where the YT vault is not based on a time/rate spread\n\t\t\tthis means that either the _baseSupplied != _baseBorrowed || _amountBond <= 0 || _FCPsupplied is past maturity\n\n\t\t@param address _FCPsupplied: the FCP corresponding to the YT vault's collateral\n\t\t@param address _baseSupplied: the wrapper corresponding to _FCPsupplied\n\t\t@param address _FCPborrowed: the FCP corresponding to the ZCB of the YT vault's debt\n\t\t@param address _baseBorrowed: the wrapper corresponding to _FCPborrowed\n\t\t@param uint _amountYield: the amount of YT being supplied to the vault (in unit amount)\n\t\t@param int _amountBond: the difference between the amount of ZCB supplied to the vault and the amount of YT supplied\n\t\t\tif _amountYield is unit amounts of collateral in the underlying, add _amountBond to _amountYield to get the amt of ZCB collateral\n\t\t\tamtZCB - amtYT == _amountBond\n\t\t@param int128 _suppliedRateChange: a change multiplier, multiplied with the APY of the supplied\n\t\t\tto get changed APY for the supplied\n\t\t@param int128 _borrowedRateChange: a change multiplier, multiplied with the APY of the borrowed\n\t\t\tto get changed APY for the borrowed\n\t*/\n\tfunction YTvaultAmtBorrowedLL_0(\n\t\taddress _FCPsupplied,\n\t\taddress _baseSupplied,\n\t\taddress _FCPborrowed,\n\t\taddress _baseBorrowed,\n\t\tuint _amountYield,\n\t\tint _amountBond,\n\t\tint128 _suppliedRateChange,\n\t\tint128 _borrowedRateChange\n\t) internal view returns (uint) {\n\t\tbool positiveBond = _amountBond >= 0;\n\n\t\t//if !positiveBond there are essentially 2 ZCBs being borrowed from the vault with _baseSupplied as the supplied asset\n\t\t//thus we change the rate adjuster to borrow if the \"supplied\" ZCB is negative\n\t\tuint ZCBvalue = uint(positiveBond ? _amountBond : -_amountBond)\n\t\t\t.mul(getRateMultiplier(_FCPsupplied, _baseSupplied, positiveBond ? RateAdjuster.LOW_DEPOSIT : RateAdjuster.LOW_BORROW, _suppliedRateChange))\n\t\t\t.div(1 ether);\n\n\t\t//after rate adjustments find the effective amount of the underlying asset which may be used in collateralisation calculation\n\t\tuint compositeSupplied = positiveBond ? _amountYield.add(ZCBvalue) : _amountYield.sub(ZCBvalue);\n\n\t\t//wierd hack to prevent stack too deep\n\t\tcompositeSupplied = compositeSupplied\n\t\t\t.mul((1 ether)**2)\n\t\t\t.div(crossAssetPrice(_baseSupplied, _baseBorrowed));\n\t\treturn compositeSupplied\n\t\t\t.mul(1 ether)\n\t\t\t.div(getRateMultiplier(_FCPborrowed, _baseBorrowed, RateAdjuster.LOW_BORROW, _borrowedRateChange))\n\t\t\t.div(crossCollateralizationRatio(_baseSupplied, _baseBorrowed, Safety.LOW));\n\t}\n\n\t/*\n\t\t@Description: find the maximum amount borrowed for a YT vault at the lower limit\n\t\t\tthis function handles the case where the YT vault is based on a time/rate spread\n\t\t\tthis means that _baseSupplied == _baseBorrowed && _amountBond > 0 && _FCPsupplied is not past maturity\n\n\t\t@param address _FCPsupplied: the FCP corresponding to the YT vault's collateral\n\t\t@param address _baseSupplied: the wrapper corresponding to _FCPsupplied\n\t\t@param address _FCPborrowed: the FCP corresponding to the ZCB of the YT vault's debt\n\t\t@param address _baseBorrowed: the wrapper corresponding to _FCPborrowed\n\t\t@param uint _amountYield: the amount of YT being supplied to the vault (in unit amount)\n\t\t@param int _amountBond: the difference between the amount of ZCB supplied to the vault and the amount of YT supplied\n\t\t\tif _amountYield is unit amounts of collateral in the underlying, add _amountBond to _amountYield to get the amt of ZCB collateral\n\t\t\tamtZCB - amtYT == _amountBond\n\t\t@param int128 _suppliedRateChange: a change multiplier, multiplied with the APY of the supplied\n\t\t\tto get changed APY for the supplied\n\t\t@param int128 _borrowedRateChange: a change multiplier, multiplied with the APY of the borrowed\n\t\t\tto get changed APY for the borrowed\n\t*/\n\tfunction YTvaultAmtBorrowedLL_1(\n\t\taddress _FCPsupplied,\n\t\taddress _baseSupplied,\n\t\taddress _FCPborrowed,\n\t\taddress _baseBorrowed,\n\t\tuint _amountYield,\n\t\tint _amountBond,\n\t\tint128 _suppliedRateChange,\n\t\tint128 _borrowedRateChange\n\t) internal view returns (uint) {\n\t\trequire(_amountBond > 0);\n\t\tuint maxBorrowAgainstYield = _amountYield\n\t\t\t.mul((1 ether)**2)\n\t\t\t.div(getRateMultiplier(_FCPborrowed, _baseBorrowed, RateAdjuster.LOW_BORROW, _borrowedRateChange));\n\t\t(uint rmSpread, bool flip) = combinedRateMultipliers(true, false, _FCPsupplied, _baseSupplied, _FCPborrowed, _baseBorrowed, _suppliedRateChange, _borrowedRateChange);\n\t\tuint maxBorrowAgainstBond;\n\t\tif (flip) {\n\t\t\tmaxBorrowAgainstBond = uint(_amountBond)\n\t\t\t\t.mul((1 ether)**2)\n\t\t\t\t.div(rmSpread);\n\t\t}\n\t\telse {\n\t\t\tmaxBorrowAgainstBond = uint(_amountBond)\n\t\t\t\t.mul(rmSpread);\n\t\t}\n\n\t\treturn (maxBorrowAgainstYield + maxBorrowAgainstBond).div(1 ether);\n\t}\n\n\t/*\n\t\t@Description: find the maximum amount borrowed for a YT vault at the upper limit\n\t\t\tthis function handles the case where the FCP of the assets supplied to the YT vault\n\t\t\tis the same FCP for which ZCB is being borrowed from the vault\n\n\t\t@param address _FCP: the FCP corresponding to the supplied & borrowed assets\n\t\t@param uint _amountYield: the amount of YT being supplied to the vault (in unit amount)\n\t\t@param int _amountBond: the difference between the amount of ZCB supplied to the vault and the amount of YT supplied\n\t\t\tif _amountYield is unit amounts of collateral in the underlying, add _amountBond to _amountYield to get the amt of ZCB collateral\n\t\t\tamtZCB - amtYT == _amountBond\n\t\t@param int128 _borrowedRateChange: a change multiplier, multiplied with the APY of the borrowed\n\t\t\tto get changed APY for the borrowed\n\t*/\n\tfunction YTvaultAmtBorrowedLL_2(\n\t\taddress _FCP,\n\t\tuint _amountYield,\n\t\tint _amountBond,\n\t\tint128 _borrowedRateChange\n\t) internal view returns (uint) {\n\t\tbool positiveBond = _amountBond > 0;\n\t\taddress base = IOrganizer(organizerAddress).fixCapitalPoolToWrapper(_FCP);\n\t\tuint totalToBorrowAgainst  = _amountYield\n\t\t\t.mul(1 ether)\n\t\t\t.div(getRateMultiplier(_FCP, base, RateAdjuster.LOW_BORROW, _borrowedRateChange));\n\t\treturn positiveBond ? totalToBorrowAgainst.add(uint(_amountBond)) : totalToBorrowAgainst.sub(uint(-_amountBond));\n\t}\n\n\t/*\n\t\t@Description: find the maximum amount of borrowed asset that may be borrowed from a vault without going under the\n\t\t\tupper collateralization limit\n\n\t\t@param address _FCPsupplied: the address of the FixCapitalPool instance for which a combination of YT & ZCB are being\n\t\t\tsupplied to the vault\n\t\t@param address _FCPborrowed: the address of the FixCapitalPool instance for which ZCB is being borrowed from the vault\n\t\t@param uint _amountYield: the amount of YT being supplied to the vault (in unit amount)\n\t\t@param int _amountBond: the difference between the amount of ZCB supplied to the vault and the amount of YT supplied\n\t\t\tamtZCB - amtYT == _amountBond\n\n\t\t@return uint: the maximum amount of ZCB for FixCapitalPool _FCPborrowed for which the vault will not be forced below\n\t\t\tthe upper collateralization limit\n\t*/\n\tfunction _YTvaultAmountBorrowedAtUpperLimit(\n\t\taddress _FCPsupplied,\n\t\taddress _FCPborrowed,\n\t\tuint _amountYield,\n\t\tint _amountBond\n\t) internal view returns (uint) {\n\t\tif (_FCPsupplied == _FCPborrowed) {\n\t\t\treturn YTvaultAmtBorrowedUL_2(_FCPsupplied, _amountYield, _amountBond, ABDK_1);\n\t\t}\n\n\t\t(address _baseSupplied, address _baseBorrowed) = bothFCPtoBaseAddresses(_FCPsupplied, _FCPborrowed);\n\n\t\tbool positiveBond = _amountBond > 0;\n\t\tif (positiveBond && _baseSupplied == _baseBorrowed && getYearsRemaining(_FCPsupplied, _baseSupplied) > 0) {\n\t\t\treturn YTvaultAmtBorrowedUL_1(_FCPsupplied, _baseSupplied, _FCPborrowed, _baseBorrowed, _amountYield, _amountBond, ABDK_1, ABDK_1);\n\t\t}\n\t\telse {\n\t\t\treturn YTvaultAmtBorrowedUL_0(_FCPsupplied, _baseSupplied, _FCPborrowed, _baseBorrowed, _amountYield, _amountBond, ABDK_1, ABDK_1);\n\t\t}\n\t}\n\n\t/*\n\t\t@Description: find the maximum amount of borrowed asset that may be borrowed from a vault without going under the\n\t\t\tlower collateralization limit\n\n\t\t@param address _FCPsupplied: the address of the FixCapitalPool instance for which a combination of YT & ZCB are being\n\t\t\tsupplied to the vault\n\t\t@param address _FCPborrowed: the address of the FixCapitalPool instance for which ZCB is being borrowed from the vault\n\t\t@param uint _amountYield: the amount of YT being supplied to the vault (in unit amount)\n\t\t@param int _amountBond: the difference between the amount of ZCB supplied to the vault and the amount of YT supplied\n\t\t\tamtZCB - amtYT == _amountBond\n\n\t\t@return uint: the maximum amount of ZCB for FixCapitalPool _FCPborrowed for which the vault will not be forced below\n\t\t\tthe lower collateralization limit\n\t*/\n\tfunction _YTvaultAmountBorrowedAtLowerLimit(\n\t\taddress _FCPsupplied,\n\t\taddress _FCPborrowed,\n\t\tuint _amountYield,\n\t\tint _amountBond\n\t) internal view returns (uint) {\n\t\tif (_FCPsupplied == _FCPborrowed) {\n\t\t\treturn YTvaultAmtBorrowedLL_2(_FCPsupplied, _amountYield, _amountBond, ABDK_1);\n\t\t}\n\n\t\t(address _baseSupplied, address _baseBorrowed) = bothFCPtoBaseAddresses(_FCPsupplied, _FCPborrowed);\n\n\t\tbool positiveBond = _amountBond > 0;\n\t\tif (positiveBond && _baseSupplied == _baseBorrowed && getYearsRemaining(_FCPsupplied, _baseSupplied) > 0) {\n\t\t\treturn YTvaultAmtBorrowedLL_1(_FCPsupplied, _baseSupplied, _FCPborrowed, _baseBorrowed, _amountYield, _amountBond, ABDK_1, ABDK_1);\n\t\t}\n\t\telse {\n\t\t\treturn YTvaultAmtBorrowedLL_0(_FCPsupplied, _baseSupplied, _FCPborrowed, _baseBorrowed, _amountYield, _amountBond, ABDK_1, ABDK_1);\n\t\t}\n\t}\n\n\n\t//-----------------------i-m-p-l-e-m-e-n-t---I-V-a-u-l-t-H-e-a-l-t-h--------------------------\n\n\n\t/*\n\t\t@Description: check if a vault is above the upper collateralisation limit\n\n\t\t@param address _assetSupplied: the address of the asset supplied to the vault\n\t\t@param address _assetBorrowed: the address of the asset borrowed from the vault\n\t\t@param uint _amountSupplied: the amount of _assetSupplied that has been supplied to the vault\n\t\t@param uint _amountBorrowed: the amount of _assetBorrowed that has been borrowed from the vault\n\n\t\t@return bool: returns true if the vault is above the upper collateralisation limit\n\t\t\tfalse otherwise\n\t*/\n\tfunction satisfiesUpperLimit(address _assetSupplied, address _assetBorrowed, uint _amountSupplied, uint _amountBorrowed) external override view returns (bool) {\n\t\treturn _amountSupplied > _amountSuppliedAtUpperLimit(_assetSupplied, _assetBorrowed, _amountBorrowed);\n\t}\n\n\t/*\n\t\t@Description: check if a vault is above the lower collateralisation limit\n\n\t\t@param address _assetSupplied: the address of the asset supplied to the vault\n\t\t@param address _assetBorrowed: the address of the asset borrowed from the vault\n\t\t@param uint _amountSupplied: the amount of _assetSupplied that has been supplied to the vault\n\t\t@param uint _amountBorrowed: the amount of _assetBorrowed that has been borrowed from the vault\n\n\t\t@return bool: returns true if the vault is above the lower collateralisation limit\n\t\t\tfalse otherwise\n\t*/\n\tfunction satisfiesLowerLimit(address _assetSupplied, address _assetBorrowed, uint _amountSupplied, uint _amountBorrowed) external override view returns (bool) {\n\t\treturn _amountSupplied > _amountSuppliedAtLowerLimit(_assetSupplied, _assetBorrowed, _amountBorrowed);\n\t}\n\n\t/*\n\t\t@Description: check if a YT vault is above the upper collateralisation limit\n\n\t\t@param address _FCPsupplied: the address of the Capitalhandler supplied to the vault\n\t\t@param address _FCPborrowed: the address of the asset borrowed from the vault\n\t\t@param uint _amountYield: the amount of YT being supplied to the vault (in unit amount)\n\t\t@param int _amountBond: the difference between the amount of ZCB supplied to the vault and the amount of YT supplied\n\t\t\tamtZCB - amtYT == _amountBond\n\t\t@param uint _amountBorrowed: the amount of ZCB from _FCPborrowed that has been borrowed from the vault\n\n\t\t@return bool: returns true if the vault is above the upper collateralisation limit\n\t\t\tfalse otherwise\n\t*/\n\tfunction YTvaultSatisfiesUpperLimit(address _FCPsupplied, address _FCPborrowed, uint _amountYield, int _amountBond, uint _amountBorrowed) external override view returns (bool) {\n\t\treturn _amountBorrowed < _YTvaultAmountBorrowedAtUpperLimit(_FCPsupplied, _FCPborrowed, _amountYield, _amountBond);\n\t}\n\n\t/*\n\t\t@Description: check if a YT vault is above the lower collateralisation limit\n\n\t\t@param address _FCPsupplied: the address of the Capitalhandler supplied to the vault\n\t\t@param address _FCPborrowed: the address of the asset borrowed from the vault\n\t\t@param uint _amountYield: the amount of YT being supplied to the vault (in unit amount)\n\t\t@param int _amountBond: the difference between the amount of ZCB supplied to the vault and the amount of YT supplied\n\t\t\tamtZCB - amtYT == _amountBond\n\t\t@param uint _amountBorrowed: the amount of ZCB from _FCPborrowed that has been borrowed from the vault\n\n\t\t@return bool: returns true if the vault is above the lower collateralisation limit\n\t\t\tfalse otherwise\n\t*/\n\tfunction YTvaultSatisfiesLowerLimit(address _FCPsupplied, address _FCPborrowed, uint _amountYield, int _amountBond, uint _amountBorrowed) external override view returns (bool) {\n\t\treturn _amountBorrowed < _YTvaultAmountBorrowedAtLowerLimit(_FCPsupplied, _FCPborrowed, _amountYield, _amountBond);\n\t}\n\n\t/*\n\t\t@Description: returns value from _amountSuppliedAtUpperLimit() externally\n\t*/\n\tfunction amountSuppliedAtUpperLimit(address _assetSupplied, address _assetBorrowed, uint _amountBorrowed) external override view returns (uint) {\n\t\treturn _amountSuppliedAtUpperLimit(_assetSupplied, _assetBorrowed, _amountBorrowed);\n\t}\n\n\t/*\n\t\t@Description: returns value from _amountSuppliedAtLowerLimit() externally\n\t*/\n\tfunction amountSuppliedAtLowerLimit(address _assetSupplied, address _assetBorrowed, uint _amountBorrowed) external override view returns (uint) {\n\t\treturn _amountSuppliedAtLowerLimit(_assetSupplied, _assetBorrowed, _amountBorrowed);\n\t}\n\n\t/*\n\t\t@Description: find the maximum amount of borrowed asset that may be borrowed for a vault stay above the upper collateralisation limit\n\n\t\t@param address _assetSupplied: the address of the asset supplied to the vault\n\t\t@param address _assetBorrowed: the address of the asset borrowed from the vault\n\t\t@param uint _amountSupplied: the amount of _assetSupplied that has been supplied to the vault\n\n\t\t@return uint: the maximum amount of borrowed asset that must be borrowed from a vault in order for the vault to stay above the\n\t\t\tupper collateralisation limit\n\t*/\n\tfunction amountBorrowedAtUpperLimit(address _assetSupplied, address _assetBorrowed, uint _amountSupplied) external override view returns (uint) {\n\t\t(address _baseSupplied, address _baseBorrowed, address fcpSupplied, address fcpBorrowed) = baseAssetAddresses(_assetSupplied, _assetBorrowed);\n\n\t\tuint term1 = _amountSupplied\n\t\t\t.mul(1 ether)\n\t\t\t.mul(combinedRateMultipliers_onlyMultiplier(true, true, fcpSupplied, _baseSupplied, fcpBorrowed, _baseBorrowed, ABDK_1, ABDK_1));\n\t\treturn term1\n\t\t\t.div(crossAssetPrice(_baseSupplied, _baseBorrowed))\n\t\t\t.div(crossCollateralizationRatio(_baseSupplied, _baseBorrowed, Safety.UPPER));\n\t}\n\n\t/*\n\t\t@Description: find the maximum amount of borrowed asset that may be borrowed for a vault stay above the lower collateralisation limit\n\n\t\t@param address _assetSupplied: the address of the asset supplied to the vault\n\t\t@param address _assetBorrowed: the address of the asset borrowed from the vault\n\t\t@param uint _amountSupplied: the amount of _assetSupplied that has been supplied to the vault\n\n\t\t@return uint: the maximum amount of borrowed asset that must be borrowed from a vault in order for the vault to stay above the\n\t\t\tlower collateralisation limit\n\t*/\n\tfunction amountBorrowedAtLowerLimit(address _assetSupplied, address _assetBorrowed, uint _amountSupplied) external override view returns (uint) {\n\t\t(address _baseSupplied, address _baseBorrowed, address fcpSupplied, address fcpBorrowed) = baseAssetAddresses(_assetSupplied, _assetBorrowed);\n\n\t\tuint term1 = _amountSupplied\n\t\t\t.mul(1 ether)\n\t\t\t.mul(combinedRateMultipliers_onlyMultiplier(true, false, fcpSupplied, _baseSupplied, fcpBorrowed, _baseBorrowed, ABDK_1, ABDK_1));\n\t\treturn term1\n\t\t\t.div(crossAssetPrice(_baseSupplied, _baseBorrowed))\n\t\t\t.div(crossCollateralizationRatio(_baseSupplied, _baseBorrowed, Safety.LOW));\n\t}\n\n\t/*\n\t\t@Description: returns _YTvaultAmountBorrowedAtUpperLimit externally\n\t*/\n\tfunction YTvaultAmountBorrowedAtUpperLimit(\n\t\taddress _FCPsupplied,\n\t\taddress _FCPborrowed,\n\t\tuint _amountYield,\n\t\tint _amountBond\n\t) external view override returns (uint) {\n\t\treturn _YTvaultAmountBorrowedAtUpperLimit(_FCPsupplied, _FCPborrowed, _amountYield, _amountBond);\n\t}\n\n\t/*\n\t\t@Description: returns _YTvaultAmountBorrowedAtLowerLimit externally\n\t*/\n\tfunction YTvaultAmountBorrowedAtLowerLimit(\n\t\taddress _FCPsupplied,\n\t\taddress _FCPborrowed,\n\t\tuint _amountYield,\n\t\tint _amountBond\n\t) external view override returns (uint) {\n\t\treturn _YTvaultAmountBorrowedAtLowerLimit(_FCPsupplied, _FCPborrowed, _amountYield, _amountBond);\n\t}\n\n\t/*\n\t\t@Description: ensure that a vault will not be sent into liquidation zone if price changes a specified amount\n\t\t\tand rates change by a multiplier\n\n\t\t@param bool _reqSameBase: if true require that base wrapper of supplied and borrowed are the same\n\t\t@param address _assetSupplied: the address of the asset supplied to the vault\n\t\t@param address _assetBorrowed: the address of the asset borrowed from the vault\n\t\t@param uint _amountSupplied: the amount of _assetSupplied that has been supplied to the vault\n\t\t@param uint _amountBorrowed: the amount of _assetBorrowed that has been borrowed from the vault\n\t\t@param uint _priceMultiplier: the multiplier by which cross asset price of deposit versus borrowed asset changes\n\t\t\tinflated by TOTAL_BASIS_POINTS\n\t\t@param int128 _suppliedRateChange: the multiplier by which the rate of the supplied asset will change\n\t\t\tin ABDK64.64 format\n\t\t@param int128 _borrowRateChange: the multiplier by which the rate of the borrowed asset will change\n\t\t\tin ABDK64.64 format\n\n\t\t@return bool: returns true if vault will stay above liquidation zone\n\t\t\tfalse otherwise\n\t*/\n\tfunction vaultWithstandsChange(\n\t\tbool _reqSameBase,\n\t\taddress _assetSupplied,\n\t\taddress _assetBorrowed,\n\t\tuint _amountSupplied,\n\t\tuint _amountBorrowed,\n\t\tuint _priceMultiplier,\n\t\tint128 _suppliedRateChange,\n\t\tint128 _borrowRateChange\n\t) public view override returns(bool) {\n\n\t\t(address _baseSupplied, address _baseBorrowed, address fcpSupplied, address fcpBorrowed) = baseAssetAddresses(_assetSupplied, _assetBorrowed);\n\t\trequire(!_reqSameBase || _baseSupplied == _baseBorrowed);\n\n\t\t//wierd hack to prevent stack too deep\n\t\t_amountBorrowed = _amountBorrowed\n\t\t\t.mul(crossAssetPrice(_baseSupplied, _baseBorrowed));\n\t\t_amountBorrowed = _amountBorrowed\n\t\t\t.div(combinedRateMultipliers_onlyMultiplier(true, true, fcpSupplied, _baseSupplied, fcpBorrowed, _baseBorrowed, _suppliedRateChange, _borrowRateChange));\n\t\t_amountBorrowed = _amountBorrowed\n\t\t\t.mul(crossCollateralizationRatio(_baseSupplied, _baseBorrowed, Safety.UPPER));\n\t\t_amountBorrowed = _amountBorrowed\n\t\t\t.mul(_priceMultiplier)\n\t\t\t.div((1 ether)*TOTAL_BASIS_POINTS);\n\n\t\treturn _amountBorrowed < _amountSupplied;\n\t}\n\n\t/*\n\t\t@Description: ensure that a vault will not be sent into liquidation zone if price changes a specified amount\n\t\t\tand rates change by a multiplier\n\n\t\t@param address _FCPsupplied: the address of the Capitalhandler supplied to the vault\n\t\t@param address _FCPborrowed: the address of the asset borrowed from the vault\n\t\t@param uint _amountYield: the amount of YT being supplied to the vault (in unit amount)\n\t\t@param int _amountBond: the difference between the amount of ZCB supplied to the vault and the amount of YT supplied\n\t\t\tamtZCB - amtYT == _amountBond\n\t\t@param uint _amountBorrowed: the amount of ZCB from _FCPborrowed that has been borrowed from the vault\n\t\t@param uint _priceMultiplier: the multiplier by which cross asset price of deposit versus borrowed asset changes\n\t\t\tinflated by TOTAL_BASIS_POINTS\n\t\t@param int128 _suppliedRateChange: the multiplier by which the rate of the supplied asset will change\n\t\t\tin ABDK64.64 format\n\t\t@param int128 _borrowedRateChange: the multiplier by which the rate of the borrowed asset will change\n\t\t\tin ABDK64.64 format\n\n\t\t@return bool: returns true if vault will stay above liquidation zone\n\t\t\tfalse otherwise\n\t*/\n\tfunction YTvaultWithstandsChange(\n\t\tbool _reqSameBase,\n\t\taddress _FCPsupplied,\n\t\taddress _FCPborrowed,\n\t\tuint _amountYield,\n\t\tint _amountBond,\n\t\tuint _amountBorrowed,\n\t\tuint _priceMultiplier,\n\t\tint128 _suppliedRateChange,\n\t\tint128 _borrowedRateChange\n\t) external view override returns (bool) {\n\t\t(address _baseSupplied, address _baseBorrowed) = bothFCPtoBaseAddresses(_FCPsupplied, _FCPborrowed);\n\t\trequire(!_reqSameBase || _baseSupplied == _baseBorrowed);\n\n\t\tbool positiveBond = _amountBond >= 0;\n\t\tuint maxBorrowed;\n\t\tif (!positiveBond && _baseSupplied == _baseBorrowed && getYearsRemaining(_FCPsupplied, _baseSupplied) > 0) {\n\t\t\tmaxBorrowed = YTvaultAmtBorrowedUL_1(_FCPsupplied, _baseSupplied, _FCPborrowed, _baseBorrowed, _amountYield, _amountBond, _suppliedRateChange, _borrowedRateChange);\n\t\t}\n\t\telse {\n\t\t\tmaxBorrowed = YTvaultAmtBorrowedUL_0(_FCPsupplied, _baseSupplied, _FCPborrowed, _baseBorrowed, _amountYield, _amountBond, _suppliedRateChange, _borrowedRateChange);\n\t\t}\n\t\t//account for price multiplier\n\t\tuint adjMaxBorrowed = maxBorrowed.mul(TOTAL_BASIS_POINTS).div(_priceMultiplier);\n\t\treturn _amountBorrowed < adjMaxBorrowed;\n\t}\n\n\t//-----------------------a-d-m-i-n---o-p-e-r-a-t-i-o-n-s---------------------------\n\n\t/*\n\t\t@Description: admin may set the values in the CollateralizationRatio mappings\n\t\t\n\t\t@param address _wrapperAddress: the wrapper asset for which to set the a collateralisation ratio\n\t\t@param uint128 _upper: the upper collateralisation ratio\n\t\t\tin ABDK64.64 format\n\t\t@param uint128 _lower: the upper collateralisation ratio\n\t\t\tin ABDK64.64 format\n\t*/\n\tfunction setCollateralizationRatios(address _wrapperAddress, uint120 _upper, uint120 _lower) external override onlyOwner {\n\t\trequire(_upper >= _lower && _lower > ABDK_1);\n\t\t//ensure that the contract at _wrapperAddress is not a fix capital pool contract\n\t\trequire(IOrganizer(organizerAddress).fixCapitalPoolToWrapper(_wrapperAddress) == address(0));\n\t\tUpperCollateralizationRatio[_wrapperAddress] = _upper;\n\t\tLowerCollateralizationRatio[_wrapperAddress] = _lower;\n\t}\n\n\t/*\n\t\t@Description: admin may set the vaules in the RateThreshold mappings\n\n\t\t@param address _wrapperAddress: the wrapper asset for which to set the a collateralisation ratio\n\t\t@param uint120 _upper: the upper rate threshold multiplier\n\t\t\tin ABDK64.64 format\n\t\t@param uint120 _lower: the lower rate threshold multiplier\n\t\t\tin ABDK64.64 format\n\t*/\n\tfunction setRateThresholds(address _wrapperAddress, uint120 _upper, uint120 _lower) external override onlyOwner {\n\t\trequire(_upper >= _lower && _lower > ABDK_1);\n\t\t//ensure that the contract at _wrapperAddress is not a fix capital pool contract\n\t\trequire(IOrganizer(organizerAddress).fixCapitalPoolToWrapper(_wrapperAddress) == address(0));\n\t\tUpperRateThreshold[_wrapperAddress] = _upper;\n\t\tLowerRateThreshold[_wrapperAddress] = _lower;\n\t}\n\n\t/*\n\t\t@Description: admin may set the organizer contract address\n\t*/\n\tfunction setOrganizerAddress(address _organizerAddress) external override onlyOwner {\n\t\trequire(organizerAddress == address(0));\n\t\torganizerAddress = _organizerAddress;\n\t}\n\n\t/*\n\t\t@Description: admin may set the maximum short interest for bonds of any maturity for a specific asset\n\n\t\t@param address _underlyingAssetAddress: the address of the underlying asset for which to set a short interest cap\n\t\t@param uint _maximumShortInterest: the maximum amount of units of the underlying asset that may sold short via ZCBs\n\t*/\n\tfunction setMaximumShortInterest(address _underlyingAssetAddress, uint _maximumShortInterest) external override onlyOwner {\n\t\tmaximumShortInterest[_underlyingAssetAddress] = _maximumShortInterest;\n\t}\n\n\t/*\n\t\t@Description: admin may set the minimum amount by which the rate for an asset is adjusted when calculating\n\t\t\tcollalteralization requirements for the upper and lower limits\n\t\n\t\t@param address _underlyingAssetAddress: the address of the wrapper asset for which to set the minimum rate adjustment\n\t\t@param uint120 _upperMinimumRateAdjustment: the new upper minimum rate adjustment for _wrapperAsset\n\t\t@param uint120 _lowerMinimumRateAdjustment: the new lower minimum rate adjustment for _wrapperAsset\n\t*/\n\tfunction setMinimumRateAdjustments(address _wrapperAddress, uint120 _upperMinimumRateAdjustment, uint120 _lowerMinimumRateAdjustment) external override onlyOwner {\n\t\tupperMinimumRateAdjustment[_wrapperAddress] = _upperMinimumRateAdjustment;\n\t\tlowerMinimumRateAdjustment[_wrapperAddress] = _lowerMinimumRateAdjustment;\n\t}\n}\n\n",
  "sourcePath": "/home/asher/FixFinanceV1/contracts/VaultHealth/VaultHealth.sol",
  "compiler": {
    "name": "solc",
    "version": "0.6.8+commit.0bbfe453.Emscripten.clang"
  },
  "schemaVersion": "3.4.1",
  "updatedAt": "2021-11-26T19:15:55.784Z",
  "devdoc": {
    "methods": {}
  },
  "userdoc": {
    "methods": {}
  }
}