{
  "contractName": "YieldToken",
  "abi": [
    {
      "inputs": [
        {
          "internalType": "address",
          "name": "_wrapperAddress",
          "type": "address"
        },
        {
          "internalType": "address",
          "name": "_fixCapitalPoolAddress",
          "type": "address"
        },
        {
          "internalType": "uint256",
          "name": "_maturity",
          "type": "uint256"
        }
      ],
      "stateMutability": "nonpayable",
      "type": "constructor"
    },
    {
      "anonymous": false,
      "inputs": [
        {
          "indexed": true,
          "internalType": "address",
          "name": "_owner",
          "type": "address"
        },
        {
          "indexed": true,
          "internalType": "address",
          "name": "_spender",
          "type": "address"
        },
        {
          "indexed": false,
          "internalType": "uint256",
          "name": "_value",
          "type": "uint256"
        }
      ],
      "name": "Approval",
      "type": "event"
    },
    {
      "anonymous": false,
      "inputs": [
        {
          "indexed": true,
          "internalType": "address",
          "name": "owner",
          "type": "address"
        },
        {
          "indexed": true,
          "internalType": "address",
          "name": "spender",
          "type": "address"
        },
        {
          "indexed": false,
          "internalType": "uint256",
          "name": "amount",
          "type": "uint256"
        }
      ],
      "name": "DecrementAllowance",
      "type": "event"
    },
    {
      "anonymous": false,
      "inputs": [
        {
          "indexed": true,
          "internalType": "address",
          "name": "_from",
          "type": "address"
        },
        {
          "indexed": true,
          "internalType": "address",
          "name": "_to",
          "type": "address"
        },
        {
          "indexed": false,
          "internalType": "uint256",
          "name": "_value",
          "type": "uint256"
        }
      ],
      "name": "Transfer",
      "type": "event"
    },
    {
      "inputs": [
        {
          "internalType": "address",
          "name": "",
          "type": "address"
        },
        {
          "internalType": "address",
          "name": "",
          "type": "address"
        }
      ],
      "name": "allowance",
      "outputs": [
        {
          "internalType": "uint256",
          "name": "",
          "type": "uint256"
        }
      ],
      "stateMutability": "view",
      "type": "function"
    },
    {
      "inputs": [],
      "name": "decimals",
      "outputs": [
        {
          "internalType": "uint8",
          "name": "",
          "type": "uint8"
        }
      ],
      "stateMutability": "view",
      "type": "function"
    },
    {
      "inputs": [],
      "name": "maturity",
      "outputs": [
        {
          "internalType": "uint256",
          "name": "",
          "type": "uint256"
        }
      ],
      "stateMutability": "view",
      "type": "function"
    },
    {
      "inputs": [],
      "name": "name",
      "outputs": [
        {
          "internalType": "string",
          "name": "",
          "type": "string"
        }
      ],
      "stateMutability": "view",
      "type": "function"
    },
    {
      "inputs": [],
      "name": "symbol",
      "outputs": [
        {
          "internalType": "string",
          "name": "",
          "type": "string"
        }
      ],
      "stateMutability": "view",
      "type": "function"
    },
    {
      "inputs": [],
      "name": "lastUpdate",
      "outputs": [
        {
          "internalType": "uint256",
          "name": "",
          "type": "uint256"
        }
      ],
      "stateMutability": "view",
      "type": "function"
    },
    {
      "inputs": [],
      "name": "totalSupply",
      "outputs": [
        {
          "internalType": "uint256",
          "name": "_supply",
          "type": "uint256"
        }
      ],
      "stateMutability": "view",
      "type": "function"
    },
    {
      "inputs": [
        {
          "internalType": "address",
          "name": "_owner",
          "type": "address"
        }
      ],
      "name": "balanceOf",
      "outputs": [
        {
          "internalType": "uint256",
          "name": "_amount",
          "type": "uint256"
        }
      ],
      "stateMutability": "view",
      "type": "function"
    },
    {
      "inputs": [
        {
          "internalType": "address",
          "name": "_to",
          "type": "address"
        },
        {
          "internalType": "uint256",
          "name": "_value",
          "type": "uint256"
        }
      ],
      "name": "transfer",
      "outputs": [
        {
          "internalType": "bool",
          "name": "success",
          "type": "bool"
        }
      ],
      "stateMutability": "nonpayable",
      "type": "function"
    },
    {
      "inputs": [
        {
          "internalType": "address",
          "name": "_spender",
          "type": "address"
        },
        {
          "internalType": "uint256",
          "name": "_value",
          "type": "uint256"
        }
      ],
      "name": "approve",
      "outputs": [
        {
          "internalType": "bool",
          "name": "success",
          "type": "bool"
        }
      ],
      "stateMutability": "nonpayable",
      "type": "function"
    },
    {
      "inputs": [
        {
          "internalType": "address",
          "name": "_from",
          "type": "address"
        },
        {
          "internalType": "address",
          "name": "_to",
          "type": "address"
        },
        {
          "internalType": "uint256",
          "name": "_value",
          "type": "uint256"
        }
      ],
      "name": "transferFrom",
      "outputs": [
        {
          "internalType": "bool",
          "name": "success",
          "type": "bool"
        }
      ],
      "stateMutability": "nonpayable",
      "type": "function"
    },
    {
      "inputs": [
        {
          "internalType": "address",
          "name": "_owner",
          "type": "address"
        },
        {
          "internalType": "address",
          "name": "_spender",
          "type": "address"
        },
        {
          "internalType": "uint256",
          "name": "_amount",
          "type": "uint256"
        }
      ],
      "name": "decrementAllowance",
      "outputs": [],
      "stateMutability": "nonpayable",
      "type": "function"
    },
    {
      "inputs": [
        {
          "internalType": "address",
          "name": "_owner",
          "type": "address"
        },
        {
          "internalType": "address",
          "name": "_spender",
          "type": "address"
        },
        {
          "internalType": "uint256",
          "name": "_allowance",
          "type": "uint256"
        }
      ],
      "name": "setAllowance",
      "outputs": [],
      "stateMutability": "nonpayable",
      "type": "function"
    },
    {
      "inputs": [],
      "name": "FixCapitalPoolAddress",
      "outputs": [
        {
          "internalType": "address",
          "name": "",
          "type": "address"
        }
      ],
      "stateMutability": "view",
      "type": "function"
    },
    {
      "inputs": [],
      "name": "WrapperAddress",
      "outputs": [
        {
          "internalType": "address",
          "name": "",
          "type": "address"
        }
      ],
      "stateMutability": "view",
      "type": "function"
    },
    {
      "inputs": [
        {
          "internalType": "address",
          "name": "_owner",
          "type": "address"
        },
        {
          "internalType": "bool",
          "name": "_roundUp",
          "type": "bool"
        }
      ],
      "name": "balanceOf_2",
      "outputs": [
        {
          "internalType": "uint256",
          "name": "",
          "type": "uint256"
        }
      ],
      "stateMutability": "view",
      "type": "function"
    },
    {
      "inputs": [
        {
          "internalType": "address",
          "name": "_to",
          "type": "address"
        },
        {
          "internalType": "uint256",
          "name": "_value",
          "type": "uint256"
        },
        {
          "internalType": "bool",
          "name": "_roundUp",
          "type": "bool"
        }
      ],
      "name": "transfer_2",
      "outputs": [],
      "stateMutability": "nonpayable",
      "type": "function"
    },
    {
      "inputs": [
        {
          "internalType": "address",
          "name": "_spender",
          "type": "address"
        },
        {
          "internalType": "uint256",
          "name": "_value",
          "type": "uint256"
        },
        {
          "internalType": "bool",
          "name": "_roundUp",
          "type": "bool"
        }
      ],
      "name": "approve_2",
      "outputs": [],
      "stateMutability": "nonpayable",
      "type": "function"
    },
    {
      "inputs": [
        {
          "internalType": "address",
          "name": "_from",
          "type": "address"
        },
        {
          "internalType": "address",
          "name": "_to",
          "type": "address"
        },
        {
          "internalType": "uint256",
          "name": "_value",
          "type": "uint256"
        },
        {
          "internalType": "bool",
          "name": "_roundUp",
          "type": "bool"
        }
      ],
      "name": "transferFrom_2",
      "outputs": [],
      "stateMutability": "nonpayable",
      "type": "function"
    }
  ],
  "bytecode": "0x6101006040523480156200001257600080fd5b50604051620021e8380380620021e8833981810160405260608110156200003857600080fd5b8101908080519060200190929190805190602001909291908051906020019092919050505060008390508073ffffffffffffffffffffffffffffffffffffffff1663313ce5676040518163ffffffff1660e01b815260040160206040518083038186803b158015620000a957600080fd5b505afa158015620000be573d6000803e3d6000fd5b505050506040513d6020811015620000d557600080fd5b810190808051906020019092919050505060ff1660c08160ff1660f81b815250508073ffffffffffffffffffffffffffffffffffffffff166395d89b416040518163ffffffff1660e01b815260040160006040518083038186803b1580156200013d57600080fd5b505afa15801562000152573d6000803e3d6000fd5b505050506040513d6000823e3d601f19601f8201168201806040525060208110156200017d57600080fd5b81019080805160405193929190846401000000008211156200019e57600080fd5b83820191506020820185811115620001b557600080fd5b8251866001820283011164010000000082111715620001d357600080fd5b8083526020830192505050908051906020019080838360005b8381101562000209578082015181840152602081019050620001ec565b50505050905090810190601f168015620002375780820380516001836020036101000a031916815260200191505b506040525050506040516020018082805190602001908083835b6020831062000276578051825260208201915060208101905060208303925062000251565b6001836020036101000a038019825116818451168082178552505050505050905001807f797400000000000000000000000000000000000000000000000000000000000081525060020191505060405160208183030381529060405260019080519060200190620002e99291906200055e565b508073ffffffffffffffffffffffffffffffffffffffff166306fdde036040518163ffffffff1660e01b815260040160006040518083038186803b1580156200033157600080fd5b505afa15801562000346573d6000803e3d6000fd5b505050506040513d6000823e3d601f19601f8201168201806040525060208110156200037157600080fd5b81019080805160405193929190846401000000008211156200039257600080fd5b83820191506020820185811115620003a957600080fd5b8251866001820283011164010000000082111715620003c757600080fd5b8083526020830192505050908051906020019080838360005b83811015620003fd578082015181840152602081019050620003e0565b50505050905090810190601f1680156200042b5780820380516001836020036101000a031916815260200191505b506040525050506040516020018082805190602001908083835b602083106200046a578051825260208201915060208101905060208303925062000445565b6001836020036101000a038019825116818451168082178552505050505050905001807f207969656c6420746f6b656e0000000000000000000000000000000000000000815250600c0191505060405160208183030381529060405260009080519060200190620004dd9291906200055e565b508073ffffffffffffffffffffffffffffffffffffffff1660a08173ffffffffffffffffffffffffffffffffffffffff1660601b815250508273ffffffffffffffffffffffffffffffffffffffff1660808173ffffffffffffffffffffffffffffffffffffffff1660601b815250508160e08181525050505050506200060d565b828054600181600116156101000203166002900490600052602060002090601f016020900481019282601f10620005a157805160ff1916838001178555620005d2565b82800160010185558215620005d2579182015b82811115620005d1578251825591602001919060010190620005b4565b5b509050620005e19190620005e5565b5090565b6200060a91905b8082111562000606576000816000905550600101620005ec565b5090565b90565b60805160601c60a05160601c60c05160f81c60e051611b4c6200069c60003980610a87525080610d235250806107d2528061098a5280610d785280610e295280610fcb528061107c528061133d52806113f6528061168c528061173c52806117ed5250806109c65280610b365280610d495280610ee352806111d452806114b352806118a65250611b4c6000f3fe608060405234801561001057600080fd5b50600436106101215760003560e01c806370a08231116100ad578063bf83dcf311610071578063bf83dcf3146105e2578063c046371114610650578063c257d2e01461066e578063da46098c146106e8578063dd62ed3e1461075657610121565b806370a08231146103e357806381b3bf661461043b57806395d89b4114610495578063a9059cbb14610518578063bc698d931461057e57610121565b8063204f83f9116100f4578063204f83f91461027757806323b872dd14610295578063313ce5671461031b57806362af375b1461033f5780636def88881461038957610121565b8063051f84631461012657806306fdde0314610170578063095ea7b3146101f357806318160ddd14610259575b600080fd5b61012e6107ce565b604051808273ffffffffffffffffffffffffffffffffffffffff1673ffffffffffffffffffffffffffffffffffffffff16815260200191505060405180910390f35b6101786107f6565b6040518080602001828103825283818151815260200191508051906020019080838360005b838110156101b857808201518184015260208101905061019d565b50505050905090810190601f1680156101e55780820380516001836020036101000a031916815260200191505b509250505060405180910390f35b61023f6004803603604081101561020957600080fd5b81019080803573ffffffffffffffffffffffffffffffffffffffff16906020019092919080359060200190929190505050610894565b604051808215151515815260200191505060405180910390f35b610261610986565b6040518082815260200191505060405180910390f35b61027f610a85565b6040518082815260200191505060405180910390f35b610301600480360360608110156102ab57600080fd5b81019080803573ffffffffffffffffffffffffffffffffffffffff169060200190929190803573ffffffffffffffffffffffffffffffffffffffff16906020019092919080359060200190929190505050610aa9565b604051808215151515815260200191505060405180910390f35b610323610d21565b604051808260ff1660ff16815260200191505060405180910390f35b610347610d45565b604051808273ffffffffffffffffffffffffffffffffffffffff1673ffffffffffffffffffffffffffffffffffffffff16815260200191505060405180910390f35b6103e16004803603606081101561039f57600080fd5b81019080803573ffffffffffffffffffffffffffffffffffffffff16906020019092919080359060200190929190803515159060200190929190505050610d6d565b005b610425600480360360208110156103f957600080fd5b81019080803573ffffffffffffffffffffffffffffffffffffffff169060200190929190505050610edf565b6040518082815260200191505060405180910390f35b6104936004803603606081101561045157600080fd5b81019080803573ffffffffffffffffffffffffffffffffffffffff16906020019092919080359060200190929190803515159060200190929190505050610fc0565b005b61049d611132565b6040518080602001828103825283818151815260200191508051906020019080838360005b838110156104dd5780820151818401526020810190506104c2565b50505050905090810190601f16801561050a5780820380516001836020036101000a031916815260200191505b509250505060405180910390f35b6105646004803603604081101561052e57600080fd5b81019080803573ffffffffffffffffffffffffffffffffffffffff169060200190929190803590602001909291905050506111d0565b604051808215151515815260200191505060405180910390f35b6105cc6004803603604081101561059457600080fd5b81019080803573ffffffffffffffffffffffffffffffffffffffff169060200190929190803515159060200190929190505050611334565b6040518082815260200191505060405180910390f35b61064e600480360360608110156105f857600080fd5b81019080803573ffffffffffffffffffffffffffffffffffffffff169060200190929190803573ffffffffffffffffffffffffffffffffffffffff169060200190929190803590602001909291905050506114b1565b005b610658611688565b6040518082815260200191505060405180910390f35b6106e66004803603608081101561068457600080fd5b81019080803573ffffffffffffffffffffffffffffffffffffffff169060200190929190803573ffffffffffffffffffffffffffffffffffffffff16906020019092919080359060200190929190803515159060200190929190505050611730565b005b610754600480360360608110156106fe57600080fd5b81019080803573ffffffffffffffffffffffffffffffffffffffff169060200190929190803573ffffffffffffffffffffffffffffffffffffffff169060200190929190803590602001909291905050506118a4565b005b6107b86004803603604081101561076c57600080fd5b81019080803573ffffffffffffffffffffffffffffffffffffffff169060200190929190803573ffffffffffffffffffffffffffffffffffffffff1690602001909291905050506119e7565b6040518082815260200191505060405180910390f35b60007f0000000000000000000000000000000000000000000000000000000000000000905090565b60008054600181600116156101000203166002900480601f01602080910402602001604051908101604052809291908181526020018280546001816001161561010002031660029004801561088c5780601f106108615761010080835404028352916020019161088c565b820191906000526020600020905b81548152906001019060200180831161086f57829003601f168201915b505050505081565b600081600260003373ffffffffffffffffffffffffffffffffffffffff1673ffffffffffffffffffffffffffffffffffffffff16815260200190815260200160002060008573ffffffffffffffffffffffffffffffffffffffff1673ffffffffffffffffffffffffffffffffffffffff168152602001908152602001600020819055508273ffffffffffffffffffffffffffffffffffffffff163373ffffffffffffffffffffffffffffffffffffffff167f8c5be1e5ebec7d5bd14f71427d1e84f3dd0314c0f7b2291e5b200ac8c7c3b925846040518082815260200191505060405180910390a36001905092915050565b60007f000000000000000000000000000000000000000000000000000000000000000073ffffffffffffffffffffffffffffffffffffffff166370a082317f00000000000000000000000000000000000000000000000000000000000000006040518263ffffffff1660e01b8152600401808273ffffffffffffffffffffffffffffffffffffffff1673ffffffffffffffffffffffffffffffffffffffff16815260200191505060206040518083038186803b158015610a4557600080fd5b505afa158015610a59573d6000803e3d6000fd5b505050506040513d6020811015610a6f57600080fd5b8101908080519060200190929190505050905090565b7f000000000000000000000000000000000000000000000000000000000000000081565b6000600260008573ffffffffffffffffffffffffffffffffffffffff1673ffffffffffffffffffffffffffffffffffffffff16815260200190815260200160002060003373ffffffffffffffffffffffffffffffffffffffff1673ffffffffffffffffffffffffffffffffffffffff16815260200190815260200160002054821115610b3457600080fd5b7f000000000000000000000000000000000000000000000000000000000000000073ffffffffffffffffffffffffffffffffffffffff166343959bb98585856040518463ffffffff1660e01b8152600401808473ffffffffffffffffffffffffffffffffffffffff1673ffffffffffffffffffffffffffffffffffffffff1681526020018373ffffffffffffffffffffffffffffffffffffffff1673ffffffffffffffffffffffffffffffffffffffff1681526020018281526020019350505050600060405180830381600087803b158015610c0f57600080fd5b505af1158015610c23573d6000803e3d6000fd5b5050505081600260008673ffffffffffffffffffffffffffffffffffffffff1673ffffffffffffffffffffffffffffffffffffffff16815260200190815260200160002060003373ffffffffffffffffffffffffffffffffffffffff1673ffffffffffffffffffffffffffffffffffffffff168152602001908152602001600020600082825403925050819055508273ffffffffffffffffffffffffffffffffffffffff168473ffffffffffffffffffffffffffffffffffffffff167fddf252ad1be2c89b69c2b068fc378daa952ba7f163c4a11628f55a4df523b3ef846040518082815260200191505060405180910390a3600190509392505050565b7f000000000000000000000000000000000000000000000000000000000000000081565b60007f0000000000000000000000000000000000000000000000000000000000000000905090565b610ed98382610e27577f000000000000000000000000000000000000000000000000000000000000000073ffffffffffffffffffffffffffffffffffffffff1663f16866f3856040518263ffffffff1660e01b81526004018082815260200191505060206040518083038186803b158015610de757600080fd5b505afa158015610dfb573d6000803e3d6000fd5b505050506040513d6020811015610e1157600080fd5b8101908080519060200190929190505050610ed4565b7f000000000000000000000000000000000000000000000000000000000000000073ffffffffffffffffffffffffffffffffffffffff1663108a91a2856040518263ffffffff1660e01b81526004018082815260200191505060206040518083038186803b158015610e9857600080fd5b505afa158015610eac573d6000803e3d6000fd5b505050506040513d6020811015610ec257600080fd5b81019080805190602001909291905050505b610894565b50505050565b60007f000000000000000000000000000000000000000000000000000000000000000073ffffffffffffffffffffffffffffffffffffffff1663bfd5105f836040518263ffffffff1660e01b8152600401808273ffffffffffffffffffffffffffffffffffffffff1673ffffffffffffffffffffffffffffffffffffffff16815260200191505060206040518083038186803b158015610f7e57600080fd5b505afa158015610f92573d6000803e3d6000fd5b505050506040513d6020811015610fa857600080fd5b81019080805190602001909291905050509050919050565b61112c838261107a577f000000000000000000000000000000000000000000000000000000000000000073ffffffffffffffffffffffffffffffffffffffff1663f16866f3856040518263ffffffff1660e01b81526004018082815260200191505060206040518083038186803b15801561103a57600080fd5b505afa15801561104e573d6000803e3d6000fd5b505050506040513d602081101561106457600080fd5b8101908080519060200190929190505050611127565b7f000000000000000000000000000000000000000000000000000000000000000073ffffffffffffffffffffffffffffffffffffffff1663108a91a2856040518263ffffffff1660e01b81526004018082815260200191505060206040518083038186803b1580156110eb57600080fd5b505afa1580156110ff573d6000803e3d6000fd5b505050506040513d602081101561111557600080fd5b81019080805190602001909291905050505b6111d0565b50505050565b60018054600181600116156101000203166002900480601f0160208091040260200160405190810160405280929190818152602001828054600181600116156101000203166002900480156111c85780601f1061119d576101008083540402835291602001916111c8565b820191906000526020600020905b8154815290600101906020018083116111ab57829003601f168201915b505050505081565b60007f000000000000000000000000000000000000000000000000000000000000000073ffffffffffffffffffffffffffffffffffffffff166343959bb93385856040518463ffffffff1660e01b8152600401808473ffffffffffffffffffffffffffffffffffffffff1673ffffffffffffffffffffffffffffffffffffffff1681526020018373ffffffffffffffffffffffffffffffffffffffff1673ffffffffffffffffffffffffffffffffffffffff1681526020018281526020019350505050600060405180830381600087803b1580156112ad57600080fd5b505af11580156112c1573d6000803e3d6000fd5b505050508273ffffffffffffffffffffffffffffffffffffffff163373ffffffffffffffffffffffffffffffffffffffff167fddf252ad1be2c89b69c2b068fc378daa952ba7f163c4a11628f55a4df523b3ef846040518082815260200191505060405180910390a36001905092915050565b6000816113f4577f000000000000000000000000000000000000000000000000000000000000000073ffffffffffffffffffffffffffffffffffffffff16630247c79c61138085610edf565b6040518263ffffffff1660e01b81526004018082815260200191505060206040518083038186803b1580156113b457600080fd5b505afa1580156113c8573d6000803e3d6000fd5b505050506040513d60208110156113de57600080fd5b81019080805190602001909291905050506114a9565b7f000000000000000000000000000000000000000000000000000000000000000073ffffffffffffffffffffffffffffffffffffffff16636e23af2f61143985610edf565b6040518263ffffffff1660e01b81526004018082815260200191505060206040518083038186803b15801561146d57600080fd5b505afa158015611481573d6000803e3d6000fd5b505050506040513d602081101561149757600080fd5b81019080805190602001909291905050505b905092915050565b7f000000000000000000000000000000000000000000000000000000000000000073ffffffffffffffffffffffffffffffffffffffff163373ffffffffffffffffffffffffffffffffffffffff161461150957600080fd5b6000600260008573ffffffffffffffffffffffffffffffffffffffff1673ffffffffffffffffffffffffffffffffffffffff16815260200190815260200160002060008473ffffffffffffffffffffffffffffffffffffffff1673ffffffffffffffffffffffffffffffffffffffff16815260200190815260200160002054905061159d8282611a0c90919063ffffffff16565b600260008673ffffffffffffffffffffffffffffffffffffffff1673ffffffffffffffffffffffffffffffffffffffff16815260200190815260200160002060008573ffffffffffffffffffffffffffffffffffffffff1673ffffffffffffffffffffffffffffffffffffffff168152602001908152602001600020819055508273ffffffffffffffffffffffffffffffffffffffff168473ffffffffffffffffffffffffffffffffffffffff167f57f4bd527f066df3f8ec8e02a683743465a100a43cf9d9ab1ad70bf833c41455846040518082815260200191505060405180910390a350505050565b60007f000000000000000000000000000000000000000000000000000000000000000073ffffffffffffffffffffffffffffffffffffffff1663c04637116040518163ffffffff1660e01b815260040160206040518083038186803b1580156116f057600080fd5b505afa158015611704573d6000803e3d6000fd5b505050506040513d602081101561171a57600080fd5b8101908080519060200190929190505050905090565b61189d8484836117eb577f000000000000000000000000000000000000000000000000000000000000000073ffffffffffffffffffffffffffffffffffffffff1663f16866f3866040518263ffffffff1660e01b81526004018082815260200191505060206040518083038186803b1580156117ab57600080fd5b505afa1580156117bf573d6000803e3d6000fd5b505050506040513d60208110156117d557600080fd5b8101908080519060200190929190505050611898565b7f000000000000000000000000000000000000000000000000000000000000000073ffffffffffffffffffffffffffffffffffffffff1663108a91a2866040518263ffffffff1660e01b81526004018082815260200191505060206040518083038186803b15801561185c57600080fd5b505afa158015611870573d6000803e3d6000fd5b505050506040513d602081101561188657600080fd5b81019080805190602001909291905050505b610aa9565b5050505050565b7f000000000000000000000000000000000000000000000000000000000000000073ffffffffffffffffffffffffffffffffffffffff163373ffffffffffffffffffffffffffffffffffffffff16146118fc57600080fd5b80600260008573ffffffffffffffffffffffffffffffffffffffff1673ffffffffffffffffffffffffffffffffffffffff16815260200190815260200160002060008473ffffffffffffffffffffffffffffffffffffffff1673ffffffffffffffffffffffffffffffffffffffff168152602001908152602001600020819055508173ffffffffffffffffffffffffffffffffffffffff168373ffffffffffffffffffffffffffffffffffffffff167f8c5be1e5ebec7d5bd14f71427d1e84f3dd0314c0f7b2291e5b200ac8c7c3b925836040518082815260200191505060405180910390a3505050565b6002602052816000526040600020602052806000526040600020600091509150505481565b6000611a4e83836040518060400160405280601e81526020017f536166654d6174683a207375627472616374696f6e206f766572666c6f770000815250611a56565b905092915050565b6000838311158290611b03576040517f08c379a00000000000000000000000000000000000000000000000000000000081526004018080602001828103825283818151815260200191508051906020019080838360005b83811015611ac8578082015181840152602081019050611aad565b50505050905090810190601f168015611af55780820380516001836020036101000a031916815260200191505b509250505060405180910390fd5b506000838503905080915050939250505056fea264697066735822122038e5f29679eb4df9dd8433fe5457bd0d23c836ddf957d23a5e2d7339e848cb3564736f6c63430006080033",
  "immutableReferences": {
    "4834": [
      {
        "length": 32,
        "start": 2502
      },
      {
        "length": 32,
        "start": 2870
      },
      {
        "length": 32,
        "start": 3401
      },
      {
        "length": 32,
        "start": 3811
      },
      {
        "length": 32,
        "start": 4564
      },
      {
        "length": 32,
        "start": 5299
      },
      {
        "length": 32,
        "start": 6310
      }
    ],
    "4836": [
      {
        "length": 32,
        "start": 2002
      },
      {
        "length": 32,
        "start": 2442
      },
      {
        "length": 32,
        "start": 3448
      },
      {
        "length": 32,
        "start": 3625
      },
      {
        "length": 32,
        "start": 4043
      },
      {
        "length": 32,
        "start": 4220
      },
      {
        "length": 32,
        "start": 4925
      },
      {
        "length": 32,
        "start": 5110
      },
      {
        "length": 32,
        "start": 5772
      },
      {
        "length": 32,
        "start": 5948
      },
      {
        "length": 32,
        "start": 6125
      }
    ],
    "4845": [
      {
        "length": 32,
        "start": 3363
      }
    ],
    "4848": [
      {
        "length": 32,
        "start": 2695
      }
    ]
  },
  "source": "// SPDX-License-Identifier: MIT\npragma solidity >=0.6.8 <0.7.0;\nimport \"../../interfaces/IFixCapitalPool.sol\";\nimport \"../../interfaces/IWrapper.sol\";\nimport \"../../interfaces/IYieldToken.sol\";\nimport \"../../interfaces/IERC20.sol\";\nimport \"../../libraries/SafeMath.sol\";\n\ncontract YieldToken is IYieldToken {\n    using SafeMath for uint256;\n\n\tIFixCapitalPool immutable fcp;\n\tIWrapper immutable wrapper;\n\n    string public override name;\n    string public override symbol;\n\tuint8 public immutable override decimals;\n    uint public immutable override maturity;\n\n    mapping(address => mapping(address => uint256)) public override allowance;\n\n\tconstructor(address _wrapperAddress, address _fixCapitalPoolAddress, uint _maturity) public {\n\t\tIWrapper _wrapper = IWrapper(_wrapperAddress);\n\t\tdecimals = _wrapper.decimals();\n\t\tsymbol = string(abi.encodePacked(_wrapper.symbol(),'yt'));\n\t\tname = string(abi.encodePacked(_wrapper.name(),' yield token'));\n\t\twrapper = _wrapper;\n        fcp = IFixCapitalPool(_fixCapitalPoolAddress);\n        maturity = _maturity;\n\t}\n\n    function lastUpdate() external view override returns(uint) {\n        return wrapper.lastUpdate();\n    }\n\n\tfunction totalSupply() public view override returns (uint _supply){\n\t\t_supply = wrapper.balanceOf(address(fcp));\n\t}\n\n    function balanceOf(address _owner) public view override returns (uint _amount) {\n    \t_amount = fcp.balanceYield(_owner);\n    }\n\n    function transfer(address _to, uint256 _value) public override returns (bool success) {\n        fcp.transferYT(msg.sender, _to, _value);\n\n        emit Transfer(msg.sender, _to, _value);\n\n        return true;\n    }\n\n    function approve(address _spender, uint256 _value) public override returns (bool success) {\n        allowance[msg.sender][_spender] = _value;\n\n        emit Approval(msg.sender, _spender, _value);\n\n        return true;\n    }\n\n    function transferFrom(address _from, address _to, uint256 _value) public override returns (bool success) {\n        require(_value <= allowance[_from][msg.sender]);\n\n        fcp.transferYT(_from, _to, _value);\n\n        allowance[_from][msg.sender] -= _value;\n\n        emit Transfer(_from, _to, _value);\n\n        return true;\n    }\n\n    /*\n        @Description: the FixCapitalPool contract can decrement approvals by calling this function\n\n        @param address _owner: the owner of the funds that are approved\n        @param address _spender: the spender of the funds that are approved\n        @param uint _amount: the amount by which to decrement the allowance\n    */\n    function decrementAllowance(address _owner, address _spender, uint _amount) external override {\n        require(msg.sender == address(fcp));\n        uint allowed = allowance[_owner][_spender];\n        allowance[_owner][_spender] = allowed.sub(_amount);\n\n        emit DecrementAllowance(_owner, _spender, _amount);\n    }\n\n    /*\n        @Description: the FixCapitalPool contract can set allowances\n\n        @param address _owner: the owner of the funds that are approved\n        @param address _spender: the spender of the funds that are approved\n        @param uint _allowance: the new allowance amount\n    */\n    function setAllowance(address _owner, address _spender, uint _allowance) external override {\n        require(msg.sender == address(fcp));\n        allowance[_owner][_spender] = _allowance;\n\n        emit Approval(_owner, _spender, _allowance);\n    }\n\n    /*\n        @Description: get the address of this contract's corresponding FixCapitalPool contract\n    */\n    function FixCapitalPoolAddress() external view override returns (address) {\n        return address(fcp);\n    }\n\n    /*\n        @Description: get the address of the IWrapper contract corresponding to this YT\n    */\n    function WrapperAddress() external view override returns (address) {\n        return address(wrapper);\n    }\n\n    /*\n        Here we repeat all of the ERC20 functions except we denominate the values in underlying asset rather\n        than wrapped asset amounts and add _2 at the end of the names. We also add bool _roundUp as a parameter\n    */\n\n    function balanceOf_2(address _owner, bool _roundUp) external view override returns (uint) {\n        return _roundUp ? wrapper.WrappedAmtToUnitAmt_RoundUp(balanceOf(_owner)) : wrapper.WrappedAmtToUnitAmt_RoundDown(balanceOf(_owner));\n    }\n\n    //_value denominated in unit not in wrapped\n    function transfer_2(address _to, uint256 _value, bool _roundUp) external override {\n        transfer(_to, _roundUp ? wrapper.UnitAmtToWrappedAmt_RoundUp(_value) : wrapper.UnitAmtToWrappedAmt_RoundDown(_value));\n    }\n\n    //_value denominated in unit not in wrapped\n    function approve_2(address _spender, uint256 _value, bool _roundUp) external override {\n        approve(_spender, _roundUp ? wrapper.UnitAmtToWrappedAmt_RoundUp(_value) : wrapper.UnitAmtToWrappedAmt_RoundDown(_value));        \n    }\n\n    //_value denominated in unit not in wrapped\n    function transferFrom_2(address _from, address _to, uint256 _value, bool _roundUp) external override {\n        transferFrom(_from, _to, _roundUp ? wrapper.UnitAmtToWrappedAmt_RoundUp(_value) : wrapper.UnitAmtToWrappedAmt_RoundDown(_value));\n    }\n\n}",
  "sourcePath": "/home/asher/FixFinanceV1/contracts/FixCapitalPool/ZCB_YT/YieldToken.sol",
  "compiler": {
    "name": "solc",
    "version": "0.6.8+commit.0bbfe453.Emscripten.clang"
  },
  "schemaVersion": "3.4.1",
  "updatedAt": "2021-11-26T19:15:54.927Z",
  "devdoc": {
    "methods": {}
  },
  "userdoc": {
    "methods": {}
  }
}