{
  "contractName": "ZCB_YT_Deployer",
  "abi": [
    {
      "inputs": [
        {
          "internalType": "address",
          "name": "_wrapperAddress",
          "type": "address"
        },
        {
          "internalType": "uint256",
          "name": "_maturity",
          "type": "uint256"
        }
      ],
      "name": "deployYT",
      "outputs": [
        {
          "internalType": "address",
          "name": "",
          "type": "address"
        }
      ],
      "stateMutability": "nonpayable",
      "type": "function"
    },
    {
      "inputs": [
        {
          "internalType": "address",
          "name": "_wrapperAddress",
          "type": "address"
        },
        {
          "internalType": "uint256",
          "name": "_maturity",
          "type": "uint256"
        }
      ],
      "name": "deployZCB",
      "outputs": [
        {
          "internalType": "address",
          "name": "",
          "type": "address"
        }
      ],
      "stateMutability": "nonpayable",
      "type": "function"
    }
  ],
  "bytecode": "0x608060405234801561001057600080fd5b506141bf806100206000396000f3fe608060405234801561001057600080fd5b50600436106100365760003560e01c8063a44ebec11461003b578063b8c8b021146100c9575b600080fd5b6100876004803603604081101561005157600080fd5b81019080803573ffffffffffffffffffffffffffffffffffffffff16906020019092919080359060200190929190505050610157565b604051808273ffffffffffffffffffffffffffffffffffffffff1673ffffffffffffffffffffffffffffffffffffffff16815260200191505060405180910390f35b610115600480360360408110156100df57600080fd5b81019080803573ffffffffffffffffffffffffffffffffffffffff169060200190929190803590602001909291905050506101fd565b604051808273ffffffffffffffffffffffffffffffffffffffff1673ffffffffffffffffffffffffffffffffffffffff16815260200191505060405180910390f35b6000823383604051610168906102a3565b808473ffffffffffffffffffffffffffffffffffffffff1673ffffffffffffffffffffffffffffffffffffffff1681526020018373ffffffffffffffffffffffffffffffffffffffff1673ffffffffffffffffffffffffffffffffffffffff1681526020018281526020019350505050604051809103906000f0801580156101f4573d6000803e3d6000fd5b50905092915050565b600082338360405161020e906102b0565b808473ffffffffffffffffffffffffffffffffffffffff1673ffffffffffffffffffffffffffffffffffffffff1681526020018373ffffffffffffffffffffffffffffffffffffffff1673ffffffffffffffffffffffffffffffffffffffff1681526020018281526020019350505050604051809103906000f08015801561029a573d6000803e3d6000fd5b50905092915050565b6121e8806102be83390190565b611ce4806124a68339019056fe6101006040523480156200001257600080fd5b50604051620021e8380380620021e8833981810160405260608110156200003857600080fd5b8101908080519060200190929190805190602001909291908051906020019092919050505060008390508073ffffffffffffffffffffffffffffffffffffffff1663313ce5676040518163ffffffff1660e01b815260040160206040518083038186803b158015620000a957600080fd5b505afa158015620000be573d6000803e3d6000fd5b505050506040513d6020811015620000d557600080fd5b810190808051906020019092919050505060ff1660c08160ff1660f81b815250508073ffffffffffffffffffffffffffffffffffffffff166395d89b416040518163ffffffff1660e01b815260040160006040518083038186803b1580156200013d57600080fd5b505afa15801562000152573d6000803e3d6000fd5b505050506040513d6000823e3d601f19601f8201168201806040525060208110156200017d57600080fd5b81019080805160405193929190846401000000008211156200019e57600080fd5b83820191506020820185811115620001b557600080fd5b8251866001820283011164010000000082111715620001d357600080fd5b8083526020830192505050908051906020019080838360005b8381101562000209578082015181840152602081019050620001ec565b50505050905090810190601f168015620002375780820380516001836020036101000a031916815260200191505b506040525050506040516020018082805190602001908083835b6020831062000276578051825260208201915060208101905060208303925062000251565b6001836020036101000a038019825116818451168082178552505050505050905001807f797400000000000000000000000000000000000000000000000000000000000081525060020191505060405160208183030381529060405260019080519060200190620002e99291906200055e565b508073ffffffffffffffffffffffffffffffffffffffff166306fdde036040518163ffffffff1660e01b815260040160006040518083038186803b1580156200033157600080fd5b505afa15801562000346573d6000803e3d6000fd5b505050506040513d6000823e3d601f19601f8201168201806040525060208110156200037157600080fd5b81019080805160405193929190846401000000008211156200039257600080fd5b83820191506020820185811115620003a957600080fd5b8251866001820283011164010000000082111715620003c757600080fd5b8083526020830192505050908051906020019080838360005b83811015620003fd578082015181840152602081019050620003e0565b50505050905090810190601f1680156200042b5780820380516001836020036101000a031916815260200191505b506040525050506040516020018082805190602001908083835b602083106200046a578051825260208201915060208101905060208303925062000445565b6001836020036101000a038019825116818451168082178552505050505050905001807f207969656c6420746f6b656e0000000000000000000000000000000000000000815250600c0191505060405160208183030381529060405260009080519060200190620004dd9291906200055e565b508073ffffffffffffffffffffffffffffffffffffffff1660a08173ffffffffffffffffffffffffffffffffffffffff1660601b815250508273ffffffffffffffffffffffffffffffffffffffff1660808173ffffffffffffffffffffffffffffffffffffffff1660601b815250508160e08181525050505050506200060d565b828054600181600116156101000203166002900490600052602060002090601f016020900481019282601f10620005a157805160ff1916838001178555620005d2565b82800160010185558215620005d2579182015b82811115620005d1578251825591602001919060010190620005b4565b5b509050620005e19190620005e5565b5090565b6200060a91905b8082111562000606576000816000905550600101620005ec565b5090565b90565b60805160601c60a05160601c60c05160f81c60e051611b4c6200069c60003980610a87525080610d235250806107d2528061098a5280610d785280610e295280610fcb528061107c528061133d52806113f6528061168c528061173c52806117ed5250806109c65280610b365280610d495280610ee352806111d452806114b352806118a65250611b4c6000f3fe608060405234801561001057600080fd5b50600436106101215760003560e01c806370a08231116100ad578063bf83dcf311610071578063bf83dcf3146105e2578063c046371114610650578063c257d2e01461066e578063da46098c146106e8578063dd62ed3e1461075657610121565b806370a08231146103e357806381b3bf661461043b57806395d89b4114610495578063a9059cbb14610518578063bc698d931461057e57610121565b8063204f83f9116100f4578063204f83f91461027757806323b872dd14610295578063313ce5671461031b57806362af375b1461033f5780636def88881461038957610121565b8063051f84631461012657806306fdde0314610170578063095ea7b3146101f357806318160ddd14610259575b600080fd5b61012e6107ce565b604051808273ffffffffffffffffffffffffffffffffffffffff1673ffffffffffffffffffffffffffffffffffffffff16815260200191505060405180910390f35b6101786107f6565b6040518080602001828103825283818151815260200191508051906020019080838360005b838110156101b857808201518184015260208101905061019d565b50505050905090810190601f1680156101e55780820380516001836020036101000a031916815260200191505b509250505060405180910390f35b61023f6004803603604081101561020957600080fd5b81019080803573ffffffffffffffffffffffffffffffffffffffff16906020019092919080359060200190929190505050610894565b604051808215151515815260200191505060405180910390f35b610261610986565b6040518082815260200191505060405180910390f35b61027f610a85565b6040518082815260200191505060405180910390f35b610301600480360360608110156102ab57600080fd5b81019080803573ffffffffffffffffffffffffffffffffffffffff169060200190929190803573ffffffffffffffffffffffffffffffffffffffff16906020019092919080359060200190929190505050610aa9565b604051808215151515815260200191505060405180910390f35b610323610d21565b604051808260ff1660ff16815260200191505060405180910390f35b610347610d45565b604051808273ffffffffffffffffffffffffffffffffffffffff1673ffffffffffffffffffffffffffffffffffffffff16815260200191505060405180910390f35b6103e16004803603606081101561039f57600080fd5b81019080803573ffffffffffffffffffffffffffffffffffffffff16906020019092919080359060200190929190803515159060200190929190505050610d6d565b005b610425600480360360208110156103f957600080fd5b81019080803573ffffffffffffffffffffffffffffffffffffffff169060200190929190505050610edf565b6040518082815260200191505060405180910390f35b6104936004803603606081101561045157600080fd5b81019080803573ffffffffffffffffffffffffffffffffffffffff16906020019092919080359060200190929190803515159060200190929190505050610fc0565b005b61049d611132565b6040518080602001828103825283818151815260200191508051906020019080838360005b838110156104dd5780820151818401526020810190506104c2565b50505050905090810190601f16801561050a5780820380516001836020036101000a031916815260200191505b509250505060405180910390f35b6105646004803603604081101561052e57600080fd5b81019080803573ffffffffffffffffffffffffffffffffffffffff169060200190929190803590602001909291905050506111d0565b604051808215151515815260200191505060405180910390f35b6105cc6004803603604081101561059457600080fd5b81019080803573ffffffffffffffffffffffffffffffffffffffff169060200190929190803515159060200190929190505050611334565b6040518082815260200191505060405180910390f35b61064e600480360360608110156105f857600080fd5b81019080803573ffffffffffffffffffffffffffffffffffffffff169060200190929190803573ffffffffffffffffffffffffffffffffffffffff169060200190929190803590602001909291905050506114b1565b005b610658611688565b6040518082815260200191505060405180910390f35b6106e66004803603608081101561068457600080fd5b81019080803573ffffffffffffffffffffffffffffffffffffffff169060200190929190803573ffffffffffffffffffffffffffffffffffffffff16906020019092919080359060200190929190803515159060200190929190505050611730565b005b610754600480360360608110156106fe57600080fd5b81019080803573ffffffffffffffffffffffffffffffffffffffff169060200190929190803573ffffffffffffffffffffffffffffffffffffffff169060200190929190803590602001909291905050506118a4565b005b6107b86004803603604081101561076c57600080fd5b81019080803573ffffffffffffffffffffffffffffffffffffffff169060200190929190803573ffffffffffffffffffffffffffffffffffffffff1690602001909291905050506119e7565b6040518082815260200191505060405180910390f35b60007f0000000000000000000000000000000000000000000000000000000000000000905090565b60008054600181600116156101000203166002900480601f01602080910402602001604051908101604052809291908181526020018280546001816001161561010002031660029004801561088c5780601f106108615761010080835404028352916020019161088c565b820191906000526020600020905b81548152906001019060200180831161086f57829003601f168201915b505050505081565b600081600260003373ffffffffffffffffffffffffffffffffffffffff1673ffffffffffffffffffffffffffffffffffffffff16815260200190815260200160002060008573ffffffffffffffffffffffffffffffffffffffff1673ffffffffffffffffffffffffffffffffffffffff168152602001908152602001600020819055508273ffffffffffffffffffffffffffffffffffffffff163373ffffffffffffffffffffffffffffffffffffffff167f8c5be1e5ebec7d5bd14f71427d1e84f3dd0314c0f7b2291e5b200ac8c7c3b925846040518082815260200191505060405180910390a36001905092915050565b60007f000000000000000000000000000000000000000000000000000000000000000073ffffffffffffffffffffffffffffffffffffffff166370a082317f00000000000000000000000000000000000000000000000000000000000000006040518263ffffffff1660e01b8152600401808273ffffffffffffffffffffffffffffffffffffffff1673ffffffffffffffffffffffffffffffffffffffff16815260200191505060206040518083038186803b158015610a4557600080fd5b505afa158015610a59573d6000803e3d6000fd5b505050506040513d6020811015610a6f57600080fd5b8101908080519060200190929190505050905090565b7f000000000000000000000000000000000000000000000000000000000000000081565b6000600260008573ffffffffffffffffffffffffffffffffffffffff1673ffffffffffffffffffffffffffffffffffffffff16815260200190815260200160002060003373ffffffffffffffffffffffffffffffffffffffff1673ffffffffffffffffffffffffffffffffffffffff16815260200190815260200160002054821115610b3457600080fd5b7f000000000000000000000000000000000000000000000000000000000000000073ffffffffffffffffffffffffffffffffffffffff166343959bb98585856040518463ffffffff1660e01b8152600401808473ffffffffffffffffffffffffffffffffffffffff1673ffffffffffffffffffffffffffffffffffffffff1681526020018373ffffffffffffffffffffffffffffffffffffffff1673ffffffffffffffffffffffffffffffffffffffff1681526020018281526020019350505050600060405180830381600087803b158015610c0f57600080fd5b505af1158015610c23573d6000803e3d6000fd5b5050505081600260008673ffffffffffffffffffffffffffffffffffffffff1673ffffffffffffffffffffffffffffffffffffffff16815260200190815260200160002060003373ffffffffffffffffffffffffffffffffffffffff1673ffffffffffffffffffffffffffffffffffffffff168152602001908152602001600020600082825403925050819055508273ffffffffffffffffffffffffffffffffffffffff168473ffffffffffffffffffffffffffffffffffffffff167fddf252ad1be2c89b69c2b068fc378daa952ba7f163c4a11628f55a4df523b3ef846040518082815260200191505060405180910390a3600190509392505050565b7f000000000000000000000000000000000000000000000000000000000000000081565b60007f0000000000000000000000000000000000000000000000000000000000000000905090565b610ed98382610e27577f000000000000000000000000000000000000000000000000000000000000000073ffffffffffffffffffffffffffffffffffffffff1663f16866f3856040518263ffffffff1660e01b81526004018082815260200191505060206040518083038186803b158015610de757600080fd5b505afa158015610dfb573d6000803e3d6000fd5b505050506040513d6020811015610e1157600080fd5b8101908080519060200190929190505050610ed4565b7f000000000000000000000000000000000000000000000000000000000000000073ffffffffffffffffffffffffffffffffffffffff1663108a91a2856040518263ffffffff1660e01b81526004018082815260200191505060206040518083038186803b158015610e9857600080fd5b505afa158015610eac573d6000803e3d6000fd5b505050506040513d6020811015610ec257600080fd5b81019080805190602001909291905050505b610894565b50505050565b60007f000000000000000000000000000000000000000000000000000000000000000073ffffffffffffffffffffffffffffffffffffffff1663bfd5105f836040518263ffffffff1660e01b8152600401808273ffffffffffffffffffffffffffffffffffffffff1673ffffffffffffffffffffffffffffffffffffffff16815260200191505060206040518083038186803b158015610f7e57600080fd5b505afa158015610f92573d6000803e3d6000fd5b505050506040513d6020811015610fa857600080fd5b81019080805190602001909291905050509050919050565b61112c838261107a577f000000000000000000000000000000000000000000000000000000000000000073ffffffffffffffffffffffffffffffffffffffff1663f16866f3856040518263ffffffff1660e01b81526004018082815260200191505060206040518083038186803b15801561103a57600080fd5b505afa15801561104e573d6000803e3d6000fd5b505050506040513d602081101561106457600080fd5b8101908080519060200190929190505050611127565b7f000000000000000000000000000000000000000000000000000000000000000073ffffffffffffffffffffffffffffffffffffffff1663108a91a2856040518263ffffffff1660e01b81526004018082815260200191505060206040518083038186803b1580156110eb57600080fd5b505afa1580156110ff573d6000803e3d6000fd5b505050506040513d602081101561111557600080fd5b81019080805190602001909291905050505b6111d0565b50505050565b60018054600181600116156101000203166002900480601f0160208091040260200160405190810160405280929190818152602001828054600181600116156101000203166002900480156111c85780601f1061119d576101008083540402835291602001916111c8565b820191906000526020600020905b8154815290600101906020018083116111ab57829003601f168201915b505050505081565b60007f000000000000000000000000000000000000000000000000000000000000000073ffffffffffffffffffffffffffffffffffffffff166343959bb93385856040518463ffffffff1660e01b8152600401808473ffffffffffffffffffffffffffffffffffffffff1673ffffffffffffffffffffffffffffffffffffffff1681526020018373ffffffffffffffffffffffffffffffffffffffff1673ffffffffffffffffffffffffffffffffffffffff1681526020018281526020019350505050600060405180830381600087803b1580156112ad57600080fd5b505af11580156112c1573d6000803e3d6000fd5b505050508273ffffffffffffffffffffffffffffffffffffffff163373ffffffffffffffffffffffffffffffffffffffff167fddf252ad1be2c89b69c2b068fc378daa952ba7f163c4a11628f55a4df523b3ef846040518082815260200191505060405180910390a36001905092915050565b6000816113f4577f000000000000000000000000000000000000000000000000000000000000000073ffffffffffffffffffffffffffffffffffffffff16630247c79c61138085610edf565b6040518263ffffffff1660e01b81526004018082815260200191505060206040518083038186803b1580156113b457600080fd5b505afa1580156113c8573d6000803e3d6000fd5b505050506040513d60208110156113de57600080fd5b81019080805190602001909291905050506114a9565b7f000000000000000000000000000000000000000000000000000000000000000073ffffffffffffffffffffffffffffffffffffffff16636e23af2f61143985610edf565b6040518263ffffffff1660e01b81526004018082815260200191505060206040518083038186803b15801561146d57600080fd5b505afa158015611481573d6000803e3d6000fd5b505050506040513d602081101561149757600080fd5b81019080805190602001909291905050505b905092915050565b7f000000000000000000000000000000000000000000000000000000000000000073ffffffffffffffffffffffffffffffffffffffff163373ffffffffffffffffffffffffffffffffffffffff161461150957600080fd5b6000600260008573ffffffffffffffffffffffffffffffffffffffff1673ffffffffffffffffffffffffffffffffffffffff16815260200190815260200160002060008473ffffffffffffffffffffffffffffffffffffffff1673ffffffffffffffffffffffffffffffffffffffff16815260200190815260200160002054905061159d8282611a0c90919063ffffffff16565b600260008673ffffffffffffffffffffffffffffffffffffffff1673ffffffffffffffffffffffffffffffffffffffff16815260200190815260200160002060008573ffffffffffffffffffffffffffffffffffffffff1673ffffffffffffffffffffffffffffffffffffffff168152602001908152602001600020819055508273ffffffffffffffffffffffffffffffffffffffff168473ffffffffffffffffffffffffffffffffffffffff167f57f4bd527f066df3f8ec8e02a683743465a100a43cf9d9ab1ad70bf833c41455846040518082815260200191505060405180910390a350505050565b60007f000000000000000000000000000000000000000000000000000000000000000073ffffffffffffffffffffffffffffffffffffffff1663c04637116040518163ffffffff1660e01b815260040160206040518083038186803b1580156116f057600080fd5b505afa158015611704573d6000803e3d6000fd5b505050506040513d602081101561171a57600080fd5b8101908080519060200190929190505050905090565b61189d8484836117eb577f000000000000000000000000000000000000000000000000000000000000000073ffffffffffffffffffffffffffffffffffffffff1663f16866f3866040518263ffffffff1660e01b81526004018082815260200191505060206040518083038186803b1580156117ab57600080fd5b505afa1580156117bf573d6000803e3d6000fd5b505050506040513d60208110156117d557600080fd5b8101908080519060200190929190505050611898565b7f000000000000000000000000000000000000000000000000000000000000000073ffffffffffffffffffffffffffffffffffffffff1663108a91a2866040518263ffffffff1660e01b81526004018082815260200191505060206040518083038186803b15801561185c57600080fd5b505afa158015611870573d6000803e3d6000fd5b505050506040513d602081101561188657600080fd5b81019080805190602001909291905050505b610aa9565b5050505050565b7f000000000000000000000000000000000000000000000000000000000000000073ffffffffffffffffffffffffffffffffffffffff163373ffffffffffffffffffffffffffffffffffffffff16146118fc57600080fd5b80600260008573ffffffffffffffffffffffffffffffffffffffff1673ffffffffffffffffffffffffffffffffffffffff16815260200190815260200160002060008473ffffffffffffffffffffffffffffffffffffffff1673ffffffffffffffffffffffffffffffffffffffff168152602001908152602001600020819055508173ffffffffffffffffffffffffffffffffffffffff168373ffffffffffffffffffffffffffffffffffffffff167f8c5be1e5ebec7d5bd14f71427d1e84f3dd0314c0f7b2291e5b200ac8c7c3b925836040518082815260200191505060405180910390a3505050565b6002602052816000526040600020602052806000526040600020600091509150505481565b6000611a4e83836040518060400160405280601e81526020017f536166654d6174683a207375627472616374696f6e206f766572666c6f770000815250611a56565b905092915050565b6000838311158290611b03576040517f08c379a00000000000000000000000000000000000000000000000000000000081526004018080602001828103825283818151815260200191508051906020019080838360005b83811015611ac8578082015181840152602081019050611aad565b50505050905090810190601f168015611af55780820380516001836020036101000a031916815260200191505b509250505060405180910390fd5b506000838503905080915050939250505056fea264697066735822122038e5f29679eb4df9dd8433fe5457bd0d23c836ddf957d23a5e2d7339e848cb3564736f6c634300060800336101006040523480156200001257600080fd5b5060405162001ce438038062001ce4833981810160405260608110156200003857600080fd5b8101908080519060200190929190805190602001909291908051906020019092919050505060008390508073ffffffffffffffffffffffffffffffffffffffff1663313ce5676040518163ffffffff1660e01b815260040160206040518083038186803b158015620000a957600080fd5b505afa158015620000be573d6000803e3d6000fd5b505050506040513d6020811015620000d557600080fd5b810190808051906020019092919050505060ff1660c08160ff1660f81b815250508073ffffffffffffffffffffffffffffffffffffffff166395d89b416040518163ffffffff1660e01b815260040160006040518083038186803b1580156200013d57600080fd5b505afa15801562000152573d6000803e3d6000fd5b505050506040513d6000823e3d601f19601f8201168201806040525060208110156200017d57600080fd5b81019080805160405193929190846401000000008211156200019e57600080fd5b83820191506020820185811115620001b557600080fd5b8251866001820283011164010000000082111715620001d357600080fd5b8083526020830192505050908051906020019080838360005b8381101562000209578082015181840152602081019050620001ec565b50505050905090810190601f168015620002375780820380516001836020036101000a031916815260200191505b506040525050506040516020018082805190602001908083835b6020831062000276578051825260208201915060208101905060208303925062000251565b6001836020036101000a038019825116818451168082178552505050505050905001807f7a6362000000000000000000000000000000000000000000000000000000000081525060030191505060405160208183030381529060405260019080519060200190620002e99291906200055e565b508073ffffffffffffffffffffffffffffffffffffffff166306fdde036040518163ffffffff1660e01b815260040160006040518083038186803b1580156200033157600080fd5b505afa15801562000346573d6000803e3d6000fd5b505050506040513d6000823e3d601f19601f8201168201806040525060208110156200037157600080fd5b81019080805160405193929190846401000000008211156200039257600080fd5b83820191506020820185811115620003a957600080fd5b8251866001820283011164010000000082111715620003c757600080fd5b8083526020830192505050908051906020019080838360005b83811015620003fd578082015181840152602081019050620003e0565b50505050905090810190601f1680156200042b5780820380516001836020036101000a031916815260200191505b506040525050506040516020018082805190602001908083835b602083106200046a578051825260208201915060208101905060208303925062000445565b6001836020036101000a038019825116818451168082178552505050505050905001807f207a65726f20636f75706f6e20626f6e6400000000000000000000000000000081525060110191505060405160208183030381529060405260009080519060200190620004dd9291906200055e565b508073ffffffffffffffffffffffffffffffffffffffff1660a08173ffffffffffffffffffffffffffffffffffffffff1660601b815250508273ffffffffffffffffffffffffffffffffffffffff1660808173ffffffffffffffffffffffffffffffffffffffff1660601b815250508160e08181525050505050506200060d565b828054600181600116156101000203166002900490600052602060002090601f016020900481019282601f10620005a157805160ff1916838001178555620005d2565b82800160010185558215620005d2579182015b82811115620005d1578251825591602001919060010190620005b4565b5b509050620005e19190620005e5565b5090565b6200060a91905b8082111562000606576000816000905550600101620005ec565b5090565b90565b60805160601c60a05160601c60c05160f81c60e0516116666200067e60003980610acf525080610d6b52508061061452806107cc5280610a1c528061127352508061080852806108c85280610b7e5280610d915280610db95280610f38528061109a528061131952506116666000f3fe608060405234801561001057600080fd5b50600436106100f55760003560e01c806362af375b11610097578063bf83dcf311610066578063bf83dcf31461049e578063c04637111461050c578063da46098c1461052a578063dd62ed3e14610598576100f5565b806362af375b1461031357806370a082311461035d57806395d89b41146103b5578063a9059cbb14610438576100f5565b806318160ddd116100d357806318160ddd1461022d578063204f83f91461024b57806323b872dd14610269578063313ce567146102ef576100f5565b8063051f8463146100fa57806306fdde0314610144578063095ea7b3146101c7575b600080fd5b610102610610565b604051808273ffffffffffffffffffffffffffffffffffffffff1673ffffffffffffffffffffffffffffffffffffffff16815260200191505060405180910390f35b61014c610638565b6040518080602001828103825283818151815260200191508051906020019080838360005b8381101561018c578082015181840152602081019050610171565b50505050905090810190601f1680156101b95780820380516001836020036101000a031916815260200191505b509250505060405180910390f35b610213600480360360408110156101dd57600080fd5b81019080803573ffffffffffffffffffffffffffffffffffffffff169060200190929190803590602001909291905050506106d6565b604051808215151515815260200191505060405180910390f35b6102356107c8565b6040518082815260200191505060405180910390f35b610253610acd565b6040518082815260200191505060405180910390f35b6102d56004803603606081101561027f57600080fd5b81019080803573ffffffffffffffffffffffffffffffffffffffff169060200190929190803573ffffffffffffffffffffffffffffffffffffffff16906020019092919080359060200190929190505050610af1565b604051808215151515815260200191505060405180910390f35b6102f7610d69565b604051808260ff1660ff16815260200191505060405180910390f35b61031b610d8d565b604051808273ffffffffffffffffffffffffffffffffffffffff1673ffffffffffffffffffffffffffffffffffffffff16815260200191505060405180910390f35b61039f6004803603602081101561037357600080fd5b81019080803573ffffffffffffffffffffffffffffffffffffffff169060200190929190505050610db5565b6040518082815260200191505060405180910390f35b6103bd610e96565b6040518080602001828103825283818151815260200191508051906020019080838360005b838110156103fd5780820151818401526020810190506103e2565b50505050905090810190601f16801561042a5780820380516001836020036101000a031916815260200191505b509250505060405180910390f35b6104846004803603604081101561044e57600080fd5b81019080803573ffffffffffffffffffffffffffffffffffffffff16906020019092919080359060200190929190505050610f34565b604051808215151515815260200191505060405180910390f35b61050a600480360360608110156104b457600080fd5b81019080803573ffffffffffffffffffffffffffffffffffffffff169060200190929190803573ffffffffffffffffffffffffffffffffffffffff16906020019092919080359060200190929190505050611098565b005b61051461126f565b6040518082815260200191505060405180910390f35b6105966004803603606081101561054057600080fd5b81019080803573ffffffffffffffffffffffffffffffffffffffff169060200190929190803573ffffffffffffffffffffffffffffffffffffffff16906020019092919080359060200190929190505050611317565b005b6105fa600480360360408110156105ae57600080fd5b81019080803573ffffffffffffffffffffffffffffffffffffffff169060200190929190803573ffffffffffffffffffffffffffffffffffffffff16906020019092919050505061145a565b6040518082815260200191505060405180910390f35b60007f0000000000000000000000000000000000000000000000000000000000000000905090565b60008054600181600116156101000203166002900480601f0160208091040260200160405190810160405280929190818152602001828054600181600116156101000203166002900480156106ce5780601f106106a3576101008083540402835291602001916106ce565b820191906000526020600020905b8154815290600101906020018083116106b157829003601f168201915b505050505081565b600081600260003373ffffffffffffffffffffffffffffffffffffffff1673ffffffffffffffffffffffffffffffffffffffff16815260200190815260200160002060008573ffffffffffffffffffffffffffffffffffffffff1673ffffffffffffffffffffffffffffffffffffffff168152602001908152602001600020819055508273ffffffffffffffffffffffffffffffffffffffff163373ffffffffffffffffffffffffffffffffffffffff167f8c5be1e5ebec7d5bd14f71427d1e84f3dd0314c0f7b2291e5b200ac8c7c3b925846040518082815260200191505060405180910390a36001905092915050565b60007f000000000000000000000000000000000000000000000000000000000000000073ffffffffffffffffffffffffffffffffffffffff166370a082317f00000000000000000000000000000000000000000000000000000000000000006040518263ffffffff1660e01b8152600401808273ffffffffffffffffffffffffffffffffffffffff1673ffffffffffffffffffffffffffffffffffffffff16815260200191505060206040518083038186803b15801561088757600080fd5b505afa15801561089b573d6000803e3d6000fd5b505050506040513d60208110156108b157600080fd5b8101908080519060200190929190505050905060007f000000000000000000000000000000000000000000000000000000000000000090508073ffffffffffffffffffffffffffffffffffffffff1663fd23ae026040518163ffffffff1660e01b815260040160206040518083038186803b15801561092f57600080fd5b505afa158015610943573d6000803e3d6000fd5b505050506040513d602081101561095957600080fd5b810190808051906020019092919050505015610a1a57670de0b6b3a7640000610a0b8273ffffffffffffffffffffffffffffffffffffffff1663cfe8d91c6040518163ffffffff1660e01b815260040160206040518083038186803b1580156109c157600080fd5b505afa1580156109d5573d6000803e3d6000fd5b505050506040513d60208110156109eb57600080fd5b81019080805190602001909291905050508461147f90919063ffffffff16565b81610a1257fe5b049150610ac9565b7f000000000000000000000000000000000000000000000000000000000000000073ffffffffffffffffffffffffffffffffffffffff16630247c79c836040518263ffffffff1660e01b81526004018082815260200191505060206040518083038186803b158015610a8b57600080fd5b505afa158015610a9f573d6000803e3d6000fd5b505050506040513d6020811015610ab557600080fd5b810190808051906020019092919050505091505b5090565b7f000000000000000000000000000000000000000000000000000000000000000081565b6000600260008573ffffffffffffffffffffffffffffffffffffffff1673ffffffffffffffffffffffffffffffffffffffff16815260200190815260200160002060003373ffffffffffffffffffffffffffffffffffffffff1673ffffffffffffffffffffffffffffffffffffffff16815260200190815260200160002054821115610b7c57600080fd5b7f000000000000000000000000000000000000000000000000000000000000000073ffffffffffffffffffffffffffffffffffffffff166388beac0c8585856040518463ffffffff1660e01b8152600401808473ffffffffffffffffffffffffffffffffffffffff1673ffffffffffffffffffffffffffffffffffffffff1681526020018373ffffffffffffffffffffffffffffffffffffffff1673ffffffffffffffffffffffffffffffffffffffff1681526020018281526020019350505050600060405180830381600087803b158015610c5757600080fd5b505af1158015610c6b573d6000803e3d6000fd5b5050505081600260008673ffffffffffffffffffffffffffffffffffffffff1673ffffffffffffffffffffffffffffffffffffffff16815260200190815260200160002060003373ffffffffffffffffffffffffffffffffffffffff1673ffffffffffffffffffffffffffffffffffffffff168152602001908152602001600020600082825403925050819055508273ffffffffffffffffffffffffffffffffffffffff168473ffffffffffffffffffffffffffffffffffffffff167fddf252ad1be2c89b69c2b068fc378daa952ba7f163c4a11628f55a4df523b3ef846040518082815260200191505060405180910390a3600190509392505050565b7f000000000000000000000000000000000000000000000000000000000000000081565b60007f0000000000000000000000000000000000000000000000000000000000000000905090565b60007f000000000000000000000000000000000000000000000000000000000000000073ffffffffffffffffffffffffffffffffffffffff1663c6334ba5836040518263ffffffff1660e01b8152600401808273ffffffffffffffffffffffffffffffffffffffff1673ffffffffffffffffffffffffffffffffffffffff16815260200191505060206040518083038186803b158015610e5457600080fd5b505afa158015610e68573d6000803e3d6000fd5b505050506040513d6020811015610e7e57600080fd5b81019080805190602001909291905050509050919050565b60018054600181600116156101000203166002900480601f016020809104026020016040519081016040528092919081815260200182805460018160011615610100020316600290048015610f2c5780601f10610f0157610100808354040283529160200191610f2c565b820191906000526020600020905b815481529060010190602001808311610f0f57829003601f168201915b505050505081565b60007f000000000000000000000000000000000000000000000000000000000000000073ffffffffffffffffffffffffffffffffffffffff166388beac0c3385856040518463ffffffff1660e01b8152600401808473ffffffffffffffffffffffffffffffffffffffff1673ffffffffffffffffffffffffffffffffffffffff1681526020018373ffffffffffffffffffffffffffffffffffffffff1673ffffffffffffffffffffffffffffffffffffffff1681526020018281526020019350505050600060405180830381600087803b15801561101157600080fd5b505af1158015611025573d6000803e3d6000fd5b505050508273ffffffffffffffffffffffffffffffffffffffff163373ffffffffffffffffffffffffffffffffffffffff167fddf252ad1be2c89b69c2b068fc378daa952ba7f163c4a11628f55a4df523b3ef846040518082815260200191505060405180910390a36001905092915050565b7f000000000000000000000000000000000000000000000000000000000000000073ffffffffffffffffffffffffffffffffffffffff163373ffffffffffffffffffffffffffffffffffffffff16146110f057600080fd5b6000600260008573ffffffffffffffffffffffffffffffffffffffff1673ffffffffffffffffffffffffffffffffffffffff16815260200190815260200160002060008473ffffffffffffffffffffffffffffffffffffffff1673ffffffffffffffffffffffffffffffffffffffff168152602001908152602001600020549050611184828261150590919063ffffffff16565b600260008673ffffffffffffffffffffffffffffffffffffffff1673ffffffffffffffffffffffffffffffffffffffff16815260200190815260200160002060008573ffffffffffffffffffffffffffffffffffffffff1673ffffffffffffffffffffffffffffffffffffffff168152602001908152602001600020819055508273ffffffffffffffffffffffffffffffffffffffff168473ffffffffffffffffffffffffffffffffffffffff167f57f4bd527f066df3f8ec8e02a683743465a100a43cf9d9ab1ad70bf833c41455846040518082815260200191505060405180910390a350505050565b60007f000000000000000000000000000000000000000000000000000000000000000073ffffffffffffffffffffffffffffffffffffffff1663c04637116040518163ffffffff1660e01b815260040160206040518083038186803b1580156112d757600080fd5b505afa1580156112eb573d6000803e3d6000fd5b505050506040513d602081101561130157600080fd5b8101908080519060200190929190505050905090565b7f000000000000000000000000000000000000000000000000000000000000000073ffffffffffffffffffffffffffffffffffffffff163373ffffffffffffffffffffffffffffffffffffffff161461136f57600080fd5b80600260008573ffffffffffffffffffffffffffffffffffffffff1673ffffffffffffffffffffffffffffffffffffffff16815260200190815260200160002060008473ffffffffffffffffffffffffffffffffffffffff1673ffffffffffffffffffffffffffffffffffffffff168152602001908152602001600020819055508173ffffffffffffffffffffffffffffffffffffffff168373ffffffffffffffffffffffffffffffffffffffff167f8c5be1e5ebec7d5bd14f71427d1e84f3dd0314c0f7b2291e5b200ac8c7c3b925836040518082815260200191505060405180910390a3505050565b6002602052816000526040600020602052806000526040600020600091509150505481565b60008083141561149257600090506114ff565b60008284029050828482816114a357fe5b04146114fa576040517f08c379a00000000000000000000000000000000000000000000000000000000081526004018080602001828103825260218152602001806116106021913960400191505060405180910390fd5b809150505b92915050565b600061154783836040518060400160405280601e81526020017f536166654d6174683a207375627472616374696f6e206f766572666c6f77000081525061154f565b905092915050565b60008383111582906115fc576040517f08c379a00000000000000000000000000000000000000000000000000000000081526004018080602001828103825283818151815260200191508051906020019080838360005b838110156115c15780820151818401526020810190506115a6565b50505050905090810190601f1680156115ee5780820380516001836020036101000a031916815260200191505b509250505060405180910390fd5b506000838503905080915050939250505056fe536166654d6174683a206d756c7469706c69636174696f6e206f766572666c6f77a264697066735822122079d03535b8661644e14655ea8df197660771b3414b76a748bd2a7434d035681364736f6c63430006080033a26469706673582212209c6dc534fdef5bc9e8628dd44c0a81f1fc286fe935f9b7990b021814de8266ea64736f6c63430006080033",
  "immutableReferences": {},
  "source": "// SPDX-License-Identifier: MIT\npragma solidity >=0.6.8 <0.7.0;\nimport \"../../interfaces/IERC20.sol\";\nimport \"../../libraries/SafeMath.sol\";\nimport \"./YieldToken.sol\";\nimport \"./ZeroCouponBond.sol\";\n\ncontract ZCB_YT_Deployer {\n\n\t/*\n\t\t@Description: deploy new YieldToken contract\n\n\t\t@param address _wrapperAddress: the address to pass as the 1st parameter in deployment\n\t\t\tof the new YieldToken contract\n\t\t@param uint _maturity: the maturity date of the new YT we are deploying a contract for\n\n\t\t@return address: address of the new YieldToken contract\n\t*/\n\tfunction deployYT(address _wrapperAddress, uint _maturity) public returns (address) {\n\t\treturn address(new YieldToken(_wrapperAddress, msg.sender, _maturity));\n\t}\n\n\t/*\n\t\t@Description: deploy new ZeroCouponBond contract\n\n\t\t@param address _wrapperAddress: the address to pass as the 1st parameter in deployment\n\t\t\tof the new ZeroCouponBond contract\n\t\t@param uint _maturity: the maturity date of the new ZCB we are deploying a contract for\n\n\t\t@return address: address of the new ZeroCouponBond contract\n\t*/\n\tfunction deployZCB(address _wrapperAddress, uint _maturity) public returns (address) {\n\t\treturn address(new ZeroCouponBond(_wrapperAddress, msg.sender, _maturity));\n\t}\n}",
  "sourcePath": "/home/asher/FixFinanceV1/contracts/FixCapitalPool/ZCB_YT/ZCB_YT_Deployer.sol",
  "compiler": {
    "name": "solc",
    "version": "0.6.8+commit.0bbfe453.Emscripten.clang"
  },
  "schemaVersion": "3.4.1",
  "updatedAt": "2021-11-26T19:15:54.937Z",
  "devdoc": {
    "methods": {}
  },
  "userdoc": {
    "methods": {}
  }
}