{
  "contractName": "ZeroCouponBond",
  "abi": [
    {
      "inputs": [
        {
          "internalType": "address",
          "name": "_wrapperAddress",
          "type": "address"
        },
        {
          "internalType": "address",
          "name": "_fixCapitalPoolAddress",
          "type": "address"
        },
        {
          "internalType": "uint256",
          "name": "_maturity",
          "type": "uint256"
        }
      ],
      "stateMutability": "nonpayable",
      "type": "constructor"
    },
    {
      "anonymous": false,
      "inputs": [
        {
          "indexed": true,
          "internalType": "address",
          "name": "_owner",
          "type": "address"
        },
        {
          "indexed": true,
          "internalType": "address",
          "name": "_spender",
          "type": "address"
        },
        {
          "indexed": false,
          "internalType": "uint256",
          "name": "_value",
          "type": "uint256"
        }
      ],
      "name": "Approval",
      "type": "event"
    },
    {
      "anonymous": false,
      "inputs": [
        {
          "indexed": true,
          "internalType": "address",
          "name": "owner",
          "type": "address"
        },
        {
          "indexed": true,
          "internalType": "address",
          "name": "spender",
          "type": "address"
        },
        {
          "indexed": false,
          "internalType": "uint256",
          "name": "amount",
          "type": "uint256"
        }
      ],
      "name": "DecrementAllowance",
      "type": "event"
    },
    {
      "anonymous": false,
      "inputs": [
        {
          "indexed": true,
          "internalType": "address",
          "name": "_from",
          "type": "address"
        },
        {
          "indexed": true,
          "internalType": "address",
          "name": "_to",
          "type": "address"
        },
        {
          "indexed": false,
          "internalType": "uint256",
          "name": "_value",
          "type": "uint256"
        }
      ],
      "name": "Transfer",
      "type": "event"
    },
    {
      "inputs": [
        {
          "internalType": "address",
          "name": "",
          "type": "address"
        },
        {
          "internalType": "address",
          "name": "",
          "type": "address"
        }
      ],
      "name": "allowance",
      "outputs": [
        {
          "internalType": "uint256",
          "name": "",
          "type": "uint256"
        }
      ],
      "stateMutability": "view",
      "type": "function"
    },
    {
      "inputs": [],
      "name": "decimals",
      "outputs": [
        {
          "internalType": "uint8",
          "name": "",
          "type": "uint8"
        }
      ],
      "stateMutability": "view",
      "type": "function"
    },
    {
      "inputs": [],
      "name": "maturity",
      "outputs": [
        {
          "internalType": "uint256",
          "name": "",
          "type": "uint256"
        }
      ],
      "stateMutability": "view",
      "type": "function"
    },
    {
      "inputs": [],
      "name": "name",
      "outputs": [
        {
          "internalType": "string",
          "name": "",
          "type": "string"
        }
      ],
      "stateMutability": "view",
      "type": "function"
    },
    {
      "inputs": [],
      "name": "symbol",
      "outputs": [
        {
          "internalType": "string",
          "name": "",
          "type": "string"
        }
      ],
      "stateMutability": "view",
      "type": "function"
    },
    {
      "inputs": [],
      "name": "lastUpdate",
      "outputs": [
        {
          "internalType": "uint256",
          "name": "",
          "type": "uint256"
        }
      ],
      "stateMutability": "view",
      "type": "function"
    },
    {
      "inputs": [
        {
          "internalType": "address",
          "name": "_owner",
          "type": "address"
        }
      ],
      "name": "balanceOf",
      "outputs": [
        {
          "internalType": "uint256",
          "name": "balance",
          "type": "uint256"
        }
      ],
      "stateMutability": "view",
      "type": "function"
    },
    {
      "inputs": [
        {
          "internalType": "address",
          "name": "_to",
          "type": "address"
        },
        {
          "internalType": "uint256",
          "name": "_value",
          "type": "uint256"
        }
      ],
      "name": "transfer",
      "outputs": [
        {
          "internalType": "bool",
          "name": "success",
          "type": "bool"
        }
      ],
      "stateMutability": "nonpayable",
      "type": "function"
    },
    {
      "inputs": [
        {
          "internalType": "address",
          "name": "_spender",
          "type": "address"
        },
        {
          "internalType": "uint256",
          "name": "_value",
          "type": "uint256"
        }
      ],
      "name": "approve",
      "outputs": [
        {
          "internalType": "bool",
          "name": "success",
          "type": "bool"
        }
      ],
      "stateMutability": "nonpayable",
      "type": "function"
    },
    {
      "inputs": [
        {
          "internalType": "address",
          "name": "_from",
          "type": "address"
        },
        {
          "internalType": "address",
          "name": "_to",
          "type": "address"
        },
        {
          "internalType": "uint256",
          "name": "_value",
          "type": "uint256"
        }
      ],
      "name": "transferFrom",
      "outputs": [
        {
          "internalType": "bool",
          "name": "success",
          "type": "bool"
        }
      ],
      "stateMutability": "nonpayable",
      "type": "function"
    },
    {
      "inputs": [],
      "name": "totalSupply",
      "outputs": [
        {
          "internalType": "uint256",
          "name": "_supply",
          "type": "uint256"
        }
      ],
      "stateMutability": "view",
      "type": "function"
    },
    {
      "inputs": [
        {
          "internalType": "address",
          "name": "_owner",
          "type": "address"
        },
        {
          "internalType": "address",
          "name": "_spender",
          "type": "address"
        },
        {
          "internalType": "uint256",
          "name": "_amount",
          "type": "uint256"
        }
      ],
      "name": "decrementAllowance",
      "outputs": [],
      "stateMutability": "nonpayable",
      "type": "function"
    },
    {
      "inputs": [
        {
          "internalType": "address",
          "name": "_owner",
          "type": "address"
        },
        {
          "internalType": "address",
          "name": "_spender",
          "type": "address"
        },
        {
          "internalType": "uint256",
          "name": "_allowance",
          "type": "uint256"
        }
      ],
      "name": "setAllowance",
      "outputs": [],
      "stateMutability": "nonpayable",
      "type": "function"
    },
    {
      "inputs": [],
      "name": "FixCapitalPoolAddress",
      "outputs": [
        {
          "internalType": "address",
          "name": "",
          "type": "address"
        }
      ],
      "stateMutability": "view",
      "type": "function"
    },
    {
      "inputs": [],
      "name": "WrapperAddress",
      "outputs": [
        {
          "internalType": "address",
          "name": "",
          "type": "address"
        }
      ],
      "stateMutability": "view",
      "type": "function"
    }
  ],
  "bytecode": "0x6101006040523480156200001257600080fd5b5060405162001ce438038062001ce4833981810160405260608110156200003857600080fd5b8101908080519060200190929190805190602001909291908051906020019092919050505060008390508073ffffffffffffffffffffffffffffffffffffffff1663313ce5676040518163ffffffff1660e01b815260040160206040518083038186803b158015620000a957600080fd5b505afa158015620000be573d6000803e3d6000fd5b505050506040513d6020811015620000d557600080fd5b810190808051906020019092919050505060ff1660c08160ff1660f81b815250508073ffffffffffffffffffffffffffffffffffffffff166395d89b416040518163ffffffff1660e01b815260040160006040518083038186803b1580156200013d57600080fd5b505afa15801562000152573d6000803e3d6000fd5b505050506040513d6000823e3d601f19601f8201168201806040525060208110156200017d57600080fd5b81019080805160405193929190846401000000008211156200019e57600080fd5b83820191506020820185811115620001b557600080fd5b8251866001820283011164010000000082111715620001d357600080fd5b8083526020830192505050908051906020019080838360005b8381101562000209578082015181840152602081019050620001ec565b50505050905090810190601f168015620002375780820380516001836020036101000a031916815260200191505b506040525050506040516020018082805190602001908083835b6020831062000276578051825260208201915060208101905060208303925062000251565b6001836020036101000a038019825116818451168082178552505050505050905001807f7a6362000000000000000000000000000000000000000000000000000000000081525060030191505060405160208183030381529060405260019080519060200190620002e99291906200055e565b508073ffffffffffffffffffffffffffffffffffffffff166306fdde036040518163ffffffff1660e01b815260040160006040518083038186803b1580156200033157600080fd5b505afa15801562000346573d6000803e3d6000fd5b505050506040513d6000823e3d601f19601f8201168201806040525060208110156200037157600080fd5b81019080805160405193929190846401000000008211156200039257600080fd5b83820191506020820185811115620003a957600080fd5b8251866001820283011164010000000082111715620003c757600080fd5b8083526020830192505050908051906020019080838360005b83811015620003fd578082015181840152602081019050620003e0565b50505050905090810190601f1680156200042b5780820380516001836020036101000a031916815260200191505b506040525050506040516020018082805190602001908083835b602083106200046a578051825260208201915060208101905060208303925062000445565b6001836020036101000a038019825116818451168082178552505050505050905001807f207a65726f20636f75706f6e20626f6e6400000000000000000000000000000081525060110191505060405160208183030381529060405260009080519060200190620004dd9291906200055e565b508073ffffffffffffffffffffffffffffffffffffffff1660a08173ffffffffffffffffffffffffffffffffffffffff1660601b815250508273ffffffffffffffffffffffffffffffffffffffff1660808173ffffffffffffffffffffffffffffffffffffffff1660601b815250508160e08181525050505050506200060d565b828054600181600116156101000203166002900490600052602060002090601f016020900481019282601f10620005a157805160ff1916838001178555620005d2565b82800160010185558215620005d2579182015b82811115620005d1578251825591602001919060010190620005b4565b5b509050620005e19190620005e5565b5090565b6200060a91905b8082111562000606576000816000905550600101620005ec565b5090565b90565b60805160601c60a05160601c60c05160f81c60e0516116666200067e60003980610acf525080610d6b52508061061452806107cc5280610a1c528061127352508061080852806108c85280610b7e5280610d915280610db95280610f38528061109a528061131952506116666000f3fe608060405234801561001057600080fd5b50600436106100f55760003560e01c806362af375b11610097578063bf83dcf311610066578063bf83dcf31461049e578063c04637111461050c578063da46098c1461052a578063dd62ed3e14610598576100f5565b806362af375b1461031357806370a082311461035d57806395d89b41146103b5578063a9059cbb14610438576100f5565b806318160ddd116100d357806318160ddd1461022d578063204f83f91461024b57806323b872dd14610269578063313ce567146102ef576100f5565b8063051f8463146100fa57806306fdde0314610144578063095ea7b3146101c7575b600080fd5b610102610610565b604051808273ffffffffffffffffffffffffffffffffffffffff1673ffffffffffffffffffffffffffffffffffffffff16815260200191505060405180910390f35b61014c610638565b6040518080602001828103825283818151815260200191508051906020019080838360005b8381101561018c578082015181840152602081019050610171565b50505050905090810190601f1680156101b95780820380516001836020036101000a031916815260200191505b509250505060405180910390f35b610213600480360360408110156101dd57600080fd5b81019080803573ffffffffffffffffffffffffffffffffffffffff169060200190929190803590602001909291905050506106d6565b604051808215151515815260200191505060405180910390f35b6102356107c8565b6040518082815260200191505060405180910390f35b610253610acd565b6040518082815260200191505060405180910390f35b6102d56004803603606081101561027f57600080fd5b81019080803573ffffffffffffffffffffffffffffffffffffffff169060200190929190803573ffffffffffffffffffffffffffffffffffffffff16906020019092919080359060200190929190505050610af1565b604051808215151515815260200191505060405180910390f35b6102f7610d69565b604051808260ff1660ff16815260200191505060405180910390f35b61031b610d8d565b604051808273ffffffffffffffffffffffffffffffffffffffff1673ffffffffffffffffffffffffffffffffffffffff16815260200191505060405180910390f35b61039f6004803603602081101561037357600080fd5b81019080803573ffffffffffffffffffffffffffffffffffffffff169060200190929190505050610db5565b6040518082815260200191505060405180910390f35b6103bd610e96565b6040518080602001828103825283818151815260200191508051906020019080838360005b838110156103fd5780820151818401526020810190506103e2565b50505050905090810190601f16801561042a5780820380516001836020036101000a031916815260200191505b509250505060405180910390f35b6104846004803603604081101561044e57600080fd5b81019080803573ffffffffffffffffffffffffffffffffffffffff16906020019092919080359060200190929190505050610f34565b604051808215151515815260200191505060405180910390f35b61050a600480360360608110156104b457600080fd5b81019080803573ffffffffffffffffffffffffffffffffffffffff169060200190929190803573ffffffffffffffffffffffffffffffffffffffff16906020019092919080359060200190929190505050611098565b005b61051461126f565b6040518082815260200191505060405180910390f35b6105966004803603606081101561054057600080fd5b81019080803573ffffffffffffffffffffffffffffffffffffffff169060200190929190803573ffffffffffffffffffffffffffffffffffffffff16906020019092919080359060200190929190505050611317565b005b6105fa600480360360408110156105ae57600080fd5b81019080803573ffffffffffffffffffffffffffffffffffffffff169060200190929190803573ffffffffffffffffffffffffffffffffffffffff16906020019092919050505061145a565b6040518082815260200191505060405180910390f35b60007f0000000000000000000000000000000000000000000000000000000000000000905090565b60008054600181600116156101000203166002900480601f0160208091040260200160405190810160405280929190818152602001828054600181600116156101000203166002900480156106ce5780601f106106a3576101008083540402835291602001916106ce565b820191906000526020600020905b8154815290600101906020018083116106b157829003601f168201915b505050505081565b600081600260003373ffffffffffffffffffffffffffffffffffffffff1673ffffffffffffffffffffffffffffffffffffffff16815260200190815260200160002060008573ffffffffffffffffffffffffffffffffffffffff1673ffffffffffffffffffffffffffffffffffffffff168152602001908152602001600020819055508273ffffffffffffffffffffffffffffffffffffffff163373ffffffffffffffffffffffffffffffffffffffff167f8c5be1e5ebec7d5bd14f71427d1e84f3dd0314c0f7b2291e5b200ac8c7c3b925846040518082815260200191505060405180910390a36001905092915050565b60007f000000000000000000000000000000000000000000000000000000000000000073ffffffffffffffffffffffffffffffffffffffff166370a082317f00000000000000000000000000000000000000000000000000000000000000006040518263ffffffff1660e01b8152600401808273ffffffffffffffffffffffffffffffffffffffff1673ffffffffffffffffffffffffffffffffffffffff16815260200191505060206040518083038186803b15801561088757600080fd5b505afa15801561089b573d6000803e3d6000fd5b505050506040513d60208110156108b157600080fd5b8101908080519060200190929190505050905060007f000000000000000000000000000000000000000000000000000000000000000090508073ffffffffffffffffffffffffffffffffffffffff1663fd23ae026040518163ffffffff1660e01b815260040160206040518083038186803b15801561092f57600080fd5b505afa158015610943573d6000803e3d6000fd5b505050506040513d602081101561095957600080fd5b810190808051906020019092919050505015610a1a57670de0b6b3a7640000610a0b8273ffffffffffffffffffffffffffffffffffffffff1663cfe8d91c6040518163ffffffff1660e01b815260040160206040518083038186803b1580156109c157600080fd5b505afa1580156109d5573d6000803e3d6000fd5b505050506040513d60208110156109eb57600080fd5b81019080805190602001909291905050508461147f90919063ffffffff16565b81610a1257fe5b049150610ac9565b7f000000000000000000000000000000000000000000000000000000000000000073ffffffffffffffffffffffffffffffffffffffff16630247c79c836040518263ffffffff1660e01b81526004018082815260200191505060206040518083038186803b158015610a8b57600080fd5b505afa158015610a9f573d6000803e3d6000fd5b505050506040513d6020811015610ab557600080fd5b810190808051906020019092919050505091505b5090565b7f000000000000000000000000000000000000000000000000000000000000000081565b6000600260008573ffffffffffffffffffffffffffffffffffffffff1673ffffffffffffffffffffffffffffffffffffffff16815260200190815260200160002060003373ffffffffffffffffffffffffffffffffffffffff1673ffffffffffffffffffffffffffffffffffffffff16815260200190815260200160002054821115610b7c57600080fd5b7f000000000000000000000000000000000000000000000000000000000000000073ffffffffffffffffffffffffffffffffffffffff166388beac0c8585856040518463ffffffff1660e01b8152600401808473ffffffffffffffffffffffffffffffffffffffff1673ffffffffffffffffffffffffffffffffffffffff1681526020018373ffffffffffffffffffffffffffffffffffffffff1673ffffffffffffffffffffffffffffffffffffffff1681526020018281526020019350505050600060405180830381600087803b158015610c5757600080fd5b505af1158015610c6b573d6000803e3d6000fd5b5050505081600260008673ffffffffffffffffffffffffffffffffffffffff1673ffffffffffffffffffffffffffffffffffffffff16815260200190815260200160002060003373ffffffffffffffffffffffffffffffffffffffff1673ffffffffffffffffffffffffffffffffffffffff168152602001908152602001600020600082825403925050819055508273ffffffffffffffffffffffffffffffffffffffff168473ffffffffffffffffffffffffffffffffffffffff167fddf252ad1be2c89b69c2b068fc378daa952ba7f163c4a11628f55a4df523b3ef846040518082815260200191505060405180910390a3600190509392505050565b7f000000000000000000000000000000000000000000000000000000000000000081565b60007f0000000000000000000000000000000000000000000000000000000000000000905090565b60007f000000000000000000000000000000000000000000000000000000000000000073ffffffffffffffffffffffffffffffffffffffff1663c6334ba5836040518263ffffffff1660e01b8152600401808273ffffffffffffffffffffffffffffffffffffffff1673ffffffffffffffffffffffffffffffffffffffff16815260200191505060206040518083038186803b158015610e5457600080fd5b505afa158015610e68573d6000803e3d6000fd5b505050506040513d6020811015610e7e57600080fd5b81019080805190602001909291905050509050919050565b60018054600181600116156101000203166002900480601f016020809104026020016040519081016040528092919081815260200182805460018160011615610100020316600290048015610f2c5780601f10610f0157610100808354040283529160200191610f2c565b820191906000526020600020905b815481529060010190602001808311610f0f57829003601f168201915b505050505081565b60007f000000000000000000000000000000000000000000000000000000000000000073ffffffffffffffffffffffffffffffffffffffff166388beac0c3385856040518463ffffffff1660e01b8152600401808473ffffffffffffffffffffffffffffffffffffffff1673ffffffffffffffffffffffffffffffffffffffff1681526020018373ffffffffffffffffffffffffffffffffffffffff1673ffffffffffffffffffffffffffffffffffffffff1681526020018281526020019350505050600060405180830381600087803b15801561101157600080fd5b505af1158015611025573d6000803e3d6000fd5b505050508273ffffffffffffffffffffffffffffffffffffffff163373ffffffffffffffffffffffffffffffffffffffff167fddf252ad1be2c89b69c2b068fc378daa952ba7f163c4a11628f55a4df523b3ef846040518082815260200191505060405180910390a36001905092915050565b7f000000000000000000000000000000000000000000000000000000000000000073ffffffffffffffffffffffffffffffffffffffff163373ffffffffffffffffffffffffffffffffffffffff16146110f057600080fd5b6000600260008573ffffffffffffffffffffffffffffffffffffffff1673ffffffffffffffffffffffffffffffffffffffff16815260200190815260200160002060008473ffffffffffffffffffffffffffffffffffffffff1673ffffffffffffffffffffffffffffffffffffffff168152602001908152602001600020549050611184828261150590919063ffffffff16565b600260008673ffffffffffffffffffffffffffffffffffffffff1673ffffffffffffffffffffffffffffffffffffffff16815260200190815260200160002060008573ffffffffffffffffffffffffffffffffffffffff1673ffffffffffffffffffffffffffffffffffffffff168152602001908152602001600020819055508273ffffffffffffffffffffffffffffffffffffffff168473ffffffffffffffffffffffffffffffffffffffff167f57f4bd527f066df3f8ec8e02a683743465a100a43cf9d9ab1ad70bf833c41455846040518082815260200191505060405180910390a350505050565b60007f000000000000000000000000000000000000000000000000000000000000000073ffffffffffffffffffffffffffffffffffffffff1663c04637116040518163ffffffff1660e01b815260040160206040518083038186803b1580156112d757600080fd5b505afa1580156112eb573d6000803e3d6000fd5b505050506040513d602081101561130157600080fd5b8101908080519060200190929190505050905090565b7f000000000000000000000000000000000000000000000000000000000000000073ffffffffffffffffffffffffffffffffffffffff163373ffffffffffffffffffffffffffffffffffffffff161461136f57600080fd5b80600260008573ffffffffffffffffffffffffffffffffffffffff1673ffffffffffffffffffffffffffffffffffffffff16815260200190815260200160002060008473ffffffffffffffffffffffffffffffffffffffff1673ffffffffffffffffffffffffffffffffffffffff168152602001908152602001600020819055508173ffffffffffffffffffffffffffffffffffffffff168373ffffffffffffffffffffffffffffffffffffffff167f8c5be1e5ebec7d5bd14f71427d1e84f3dd0314c0f7b2291e5b200ac8c7c3b925836040518082815260200191505060405180910390a3505050565b6002602052816000526040600020602052806000526040600020600091509150505481565b60008083141561149257600090506114ff565b60008284029050828482816114a357fe5b04146114fa576040517f08c379a00000000000000000000000000000000000000000000000000000000081526004018080602001828103825260218152602001806116106021913960400191505060405180910390fd5b809150505b92915050565b600061154783836040518060400160405280601e81526020017f536166654d6174683a207375627472616374696f6e206f766572666c6f77000081525061154f565b905092915050565b60008383111582906115fc576040517f08c379a00000000000000000000000000000000000000000000000000000000081526004018080602001828103825283818151815260200191508051906020019080838360005b838110156115c15780820151818401526020810190506115a6565b50505050905090810190601f1680156115ee5780820380516001836020036101000a031916815260200191505b509250505060405180910390fd5b506000838503905080915050939250505056fe536166654d6174683a206d756c7469706c69636174696f6e206f766572666c6f77a264697066735822122079d03535b8661644e14655ea8df197660771b3414b76a748bd2a7434d035681364736f6c63430006080033",
  "immutableReferences": {
    "5340": [
      {
        "length": 32,
        "start": 2056
      },
      {
        "length": 32,
        "start": 2248
      },
      {
        "length": 32,
        "start": 2942
      },
      {
        "length": 32,
        "start": 3473
      },
      {
        "length": 32,
        "start": 3513
      },
      {
        "length": 32,
        "start": 3896
      },
      {
        "length": 32,
        "start": 4250
      },
      {
        "length": 32,
        "start": 4889
      }
    ],
    "5342": [
      {
        "length": 32,
        "start": 1556
      },
      {
        "length": 32,
        "start": 1996
      },
      {
        "length": 32,
        "start": 2588
      },
      {
        "length": 32,
        "start": 4723
      }
    ],
    "5351": [
      {
        "length": 32,
        "start": 3435
      }
    ],
    "5354": [
      {
        "length": 32,
        "start": 2767
      }
    ]
  },
  "source": "// SPDX-License-Identifier: MIT\npragma solidity >=0.6.8 <0.7.0;\n\nimport \"../../interfaces/IFixCapitalPool.sol\";\nimport \"../../interfaces/IWrapper.sol\";\nimport \"../../interfaces/IZeroCouponBond.sol\";\nimport \"../../libraries/SafeMath.sol\";\n\ncontract ZeroCouponBond is IZeroCouponBond {\n    using SafeMath for uint256;\n\n\tIFixCapitalPool immutable fcp;\n\tIWrapper immutable wrapper;\n\n    string public override name;\n    string public override symbol;\n\tuint8 public immutable override decimals;\n    uint public immutable override maturity;\n\n    mapping(address => mapping(address => uint256)) public override allowance;\n\n\tconstructor(address _wrapperAddress, address _fixCapitalPoolAddress, uint _maturity) public {\n\t\tIWrapper _wrapper = IWrapper(_wrapperAddress);\n\t\tdecimals = _wrapper.decimals();\n\t\tsymbol = string(abi.encodePacked(_wrapper.symbol(),'zcb'));\n\t\tname = string(abi.encodePacked(_wrapper.name(),' zero coupon bond'));\n\t\twrapper = _wrapper;\n        fcp = IFixCapitalPool(_fixCapitalPoolAddress);\n        maturity = _maturity;\n\t}\n\n    function lastUpdate() external view override returns(uint) {\n        return wrapper.lastUpdate();\n    }\n\n\tfunction balanceOf(address _owner) public view override returns (uint balance) {\n\t\tbalance = fcp.totalBalanceZCB(_owner);\n\t}\n\n    function transfer(address _to, uint256 _value) public override returns (bool success) {\n    \tfcp.transferZCB(msg.sender, _to, _value);\n\n        emit Transfer(msg.sender, _to, _value);\n\n        return true;\n    }\n\n    function approve(address _spender, uint256 _value) public override returns (bool success) {\n        allowance[msg.sender][_spender] = _value;\n\n        emit Approval(msg.sender, _spender, _value);\n\n        return true;\n    }\n\n    function transferFrom(address _from, address _to, uint256 _value) public override returns (bool success) {\n        require(_value <= allowance[_from][msg.sender]);\n\n    \tfcp.transferZCB(_from, _to, _value);\n\n        allowance[_from][msg.sender] -= _value;\n\n        emit Transfer(_from, _to, _value);\n\n        return true;\n    }\n\n    function totalSupply() public view override returns (uint _supply) {\n        _supply = wrapper.balanceOf(address(fcp));\n        IFixCapitalPool _fcp = fcp;\n        if (_fcp.inPayoutPhase()) {\n            _supply = _supply.mul(_fcp.maturityConversionRate()) / (1 ether);\n        }\n        else {\n            _supply = wrapper.WrappedAmtToUnitAmt_RoundDown(_supply);\n        }\n    }\n\n    /*\n        @Description: the FixCapitalPool contract can decrement approvals by calling this function\n\n        @param address _owner: the owner of the funds that are approved\n        @param address _spender: the spender of the funds that are approved\n        @param uint _amount: the amount by which to decrement the allowance\n    */\n    function decrementAllowance(address _owner, address _spender, uint _amount) external override {\n        require(msg.sender == address(fcp));\n        uint allowed = allowance[_owner][_spender];\n        allowance[_owner][_spender] = allowed.sub(_amount);\n\n        emit DecrementAllowance(_owner, _spender, _amount);\n    }\n\n    /*\n        @Description: the FixCapitalPool contract can set allowances\n\n        @param address _owner: the owner of the funds that are approved\n        @param address _spender: the spender of the funds that are approved\n        @param uint _allowance: the new allowance amount\n    */\n    function setAllowance(address _owner, address _spender, uint _allowance) external override {\n        require(msg.sender == address(fcp));\n        allowance[_owner][_spender] = _allowance;\n\n        emit Approval(_owner, _spender, _allowance);\n    }\n\n    /*\n        @Description: get the address of this contract's corresponding FixCapitalPool contract\n    */\n    function FixCapitalPoolAddress() external view override returns (address) {\n        return address(fcp);\n    }\n\n    /*\n        @Description: get the address of the IWrapper contract corresponding to this ZCB\n    */\n    function WrapperAddress() external view override returns (address) {\n        return address(wrapper);\n    }\n}",
  "sourcePath": "/home/asher/FixFinanceV1/contracts/FixCapitalPool/ZCB_YT/ZeroCouponBond.sol",
  "compiler": {
    "name": "solc",
    "version": "0.6.8+commit.0bbfe453.Emscripten.clang"
  },
  "schemaVersion": "3.4.1",
  "updatedAt": "2021-11-26T19:15:54.940Z",
  "devdoc": {
    "methods": {}
  },
  "userdoc": {
    "methods": {}
  }
}